{"abi":[{"inputs":[],"stateMutability":"nonpayable","type":"constructor"},{"anonymous":false,"inputs":[{"indexed":true,"internalType":"uint256","name":"id","type":"uint256"},{"indexed":true,"internalType":"address","name":"projectAddress","type":"address"},{"indexed":true,"internalType":"address","name":"owner","type":"address"},{"indexed":false,"internalType":"string","name":"cid","type":"string"},{"indexed":false,"internalType":"uint256","name":"minimumContribution","type":"uint256"},{"indexed":false,"internalType":"uint256","name":"targetContribution","type":"uint256"},{"indexed":false,"internalType":"uint256","name":"deadline","type":"uint256"},{"indexed":false,"internalType":"uint256","name":"timestamp","type":"uint256"}],"name":"ProjectCreated","type":"event"},{"inputs":[{"internalType":"address","name":"recipient","type":"address"},{"internalType":"string","name":"cid","type":"string"},{"internalType":"uint256","name":"minimumContribution","type":"uint256"},{"internalType":"uint256","name":"targetContribution","type":"uint256"},{"internalType":"uint256","name":"deadline","type":"uint256"},{"internalType":"string","name":"nftNamePrefix","type":"string"},{"internalType":"string","name":"nftSymbolPrefix","type":"string"}],"name":"createProject","outputs":[],"stateMutability":"nonpayable","type":"function"},{"inputs":[{"internalType":"uint256","name":"","type":"uint256"}],"name":"deployedProjects","outputs":[{"internalType":"address","name":"","type":"address"}],"stateMutability":"view","type":"function"},{"inputs":[],"name":"getDeployedProjects","outputs":[{"internalType":"address[]","name":"","type":"address[]"}],"stateMutability":"view","type":"function"},{"inputs":[],"name":"getUserProjects","outputs":[{"internalType":"address[]","name":"","type":"address[]"}],"stateMutability":"view","type":"function"},{"inputs":[],"name":"owner","outputs":[{"internalType":"address","name":"","type":"address"}],"stateMutability":"view","type":"function"},{"inputs":[{"internalType":"address","name":"","type":"address"},{"internalType":"uint256","name":"","type":"uint256"}],"name":"userProjects","outputs":[{"internalType":"address","name":"","type":"address"}],"stateMutability":"view","type":"function"}],"devdoc":{"kind":"dev","methods":{},"version":1},"evm":{"assembly":"    /* \"ProjectFactory.sol\":94:1820  contract ProjectFactory {... */\n  mstore(0x40, 0x80)\n    /* \"ProjectFactory.sol\":245:294  constructor() {... */\n  callvalue\n  dup1\n  iszero\n  tag_1\n  jumpi\n  0x00\n  dup1\n  revert\ntag_1:\n  pop\n    /* \"ProjectFactory.sol\":269:274  owner */\n  0x02\n    /* \"ProjectFactory.sol\":269:287  owner = msg.sender */\n  dup1\n  sload\n  not(sub(shl(0xa0, 0x01), 0x01))\n  and\n    /* \"ProjectFactory.sol\":277:287  msg.sender */\n  caller\n    /* \"ProjectFactory.sol\":269:287  owner = msg.sender */\n  or\n  swap1\n  sstore\n    /* \"ProjectFactory.sol\":94:1820  contract ProjectFactory {... */\n  dataSize(sub_0)\n  dup1\n  dataOffset(sub_0)\n  0x00\n  codecopy\n  0x00\n  return\nstop\n\nsub_0: assembly {\n        /* \"ProjectFactory.sol\":94:1820  contract ProjectFactory {... */\n      mstore(0x40, 0x80)\n      callvalue\n      dup1\n      iszero\n      tag_1\n      jumpi\n      0x00\n      dup1\n      revert\n    tag_1:\n      pop\n      jumpi(tag_2, lt(calldatasize, 0x04))\n      shr(0xe0, calldataload(0x00))\n      dup1\n      0x2fa9c007\n      eq\n      tag_3\n      jumpi\n      dup1\n      0x7ac3886e\n      eq\n      tag_4\n      jumpi\n      dup1\n      0x8da5cb5b\n      eq\n      tag_5\n      jumpi\n      dup1\n      0x9ec6deaf\n      eq\n      tag_6\n      jumpi\n      dup1\n      0xc73d7024\n      eq\n      tag_7\n      jumpi\n      dup1\n      0xf08a64e6\n      eq\n      tag_8\n      jumpi\n    tag_2:\n      0x00\n      dup1\n      revert\n        /* \"ProjectFactory.sol\":163:212  mapping(address => address[]) public userProjects */\n    tag_3:\n      tag_9\n      tag_10\n      calldatasize\n      0x04\n      tag_11\n      jump\t// in\n    tag_10:\n      tag_12\n      jump\t// in\n    tag_9:\n      mload(0x40)\n      sub(shl(0xa0, 0x01), 0x01)\n        /* \"#utility.yul\":615:647   */\n      swap1\n      swap2\n      and\n        /* \"#utility.yul\":597:648   */\n      dup2\n      mstore\n        /* \"#utility.yul\":585:587   */\n      0x20\n        /* \"#utility.yul\":570:588   */\n      add\n        /* \"ProjectFactory.sol\":163:212  mapping(address => address[]) public userProjects */\n    tag_13:\n      mload(0x40)\n      dup1\n      swap2\n      sub\n      swap1\n      return\n        /* \"ProjectFactory.sol\":1588:1698  function getDeployedProjects() public view returns (address[] memory) {... */\n    tag_4:\n      tag_15\n      tag_16\n      jump\t// in\n    tag_15:\n      mload(0x40)\n      tag_13\n      swap2\n      swap1\n      tag_18\n      jump\t// in\n        /* \"ProjectFactory.sol\":218:238  address public owner */\n    tag_5:\n      sload(0x02)\n      tag_9\n      swap1\n      sub(shl(0xa0, 0x01), 0x01)\n      and\n      dup2\n      jump\n        /* \"ProjectFactory.sol\":124:157  address[] public deployedProjects */\n    tag_6:\n      tag_9\n      tag_23\n      calldatasize\n      0x04\n      tag_24\n      jump\t// in\n    tag_23:\n      tag_25\n      jump\t// in\n        /* \"ProjectFactory.sol\":563:1582  function createProject(... */\n    tag_7:\n      tag_27\n      tag_28\n      calldatasize\n      0x04\n      tag_29\n      jump\t// in\n    tag_28:\n      tag_30\n      jump\t// in\n    tag_27:\n      stop\n        /* \"ProjectFactory.sol\":1704:1818  function getUserProjects() public view returns (address[] memory) {... */\n    tag_8:\n      tag_15\n      tag_32\n      jump\t// in\n        /* \"ProjectFactory.sol\":163:212  mapping(address => address[]) public userProjects */\n    tag_12:\n      mstore(0x20, 0x01)\n      dup2\n      0x00\n      mstore\n      keccak256(0x00, 0x40)\n      dup2\n      dup2\n      sload\n      dup2\n      lt\n      tag_34\n      jumpi\n      0x00\n      dup1\n      revert\n    tag_34:\n      0x00\n      swap2\n      dup3\n      mstore\n      0x20\n      swap1\n      swap2\n      keccak256\n      add\n      sload\n      sub(shl(0xa0, 0x01), 0x01)\n      and\n      swap2\n      pop\n      dup3\n      swap1\n      pop\n      jump\t// out\n        /* \"ProjectFactory.sol\":1588:1698  function getDeployedProjects() public view returns (address[] memory) {... */\n    tag_16:\n        /* \"ProjectFactory.sol\":1640:1656  address[] memory */\n      0x60\n        /* \"ProjectFactory.sol\":1675:1691  deployedProjects */\n      0x00\n        /* \"ProjectFactory.sol\":1668:1691  return deployedProjects */\n      dup1\n      sload\n      dup1\n      0x20\n      mul\n      0x20\n      add\n      mload(0x40)\n      swap1\n      dup2\n      add\n      0x40\n      mstore\n      dup1\n      swap3\n      swap2\n      swap1\n      dup2\n      dup2\n      mstore\n      0x20\n      add\n      dup3\n      dup1\n      sload\n      dup1\n      iszero\n      tag_37\n      jumpi\n      0x20\n      mul\n      dup3\n      add\n      swap2\n      swap1\n      0x00\n      mstore\n      keccak256(0x00, 0x20)\n      swap1\n    tag_38:\n      dup2\n      sload\n      sub(shl(0xa0, 0x01), 0x01)\n      and\n      dup2\n      mstore\n      0x01\n      swap1\n      swap2\n      add\n      swap1\n      0x20\n      add\n      dup1\n      dup4\n      gt\n      tag_38\n      jumpi\n    tag_37:\n      pop\n      pop\n      pop\n      pop\n      pop\n      swap1\n      pop\n        /* \"ProjectFactory.sol\":1588:1698  function getDeployedProjects() public view returns (address[] memory) {... */\n      swap1\n      jump\t// out\n        /* \"ProjectFactory.sol\":124:157  address[] public deployedProjects */\n    tag_25:\n      0x00\n      dup2\n      dup2\n      sload\n      dup2\n      lt\n      tag_39\n      jumpi\n      0x00\n      dup1\n      revert\n    tag_39:\n      0x00\n      swap2\n      dup3\n      mstore\n      0x20\n      swap1\n      swap2\n      keccak256\n      add\n      sload\n      sub(shl(0xa0, 0x01), 0x01)\n      and\n      swap1\n      pop\n      dup2\n      jump\t// out\n        /* \"ProjectFactory.sol\":563:1582  function createProject(... */\n    tag_30:\n        /* \"ProjectFactory.sol\":838:856  address newProject */\n      0x00\n        /* \"ProjectFactory.sol\":909:932  deployedProjects.length */\n      dup1\n      sload\n        /* \"ProjectFactory.sol\":909:936  deployedProjects.length + 1 */\n      tag_42\n      swap1\n        /* \"ProjectFactory.sol\":935:936  1 */\n      0x01\n        /* \"ProjectFactory.sol\":909:936  deployedProjects.length + 1 */\n      tag_43\n      jump\t// in\n    tag_42:\n        /* \"ProjectFactory.sol\":954:964  msg.sender */\n      caller\n        /* \"ProjectFactory.sol\":982:991  recipient */\n      dup10\n        /* \"ProjectFactory.sol\":1009:1012  cid */\n      dup10\n        /* \"ProjectFactory.sol\":1030:1049  minimumContribution */\n      dup10\n        /* \"ProjectFactory.sol\":1067:1085  targetContribution */\n      dup10\n        /* \"ProjectFactory.sol\":1103:1111  deadline */\n      dup10\n        /* \"ProjectFactory.sol\":1129:1142  nftNamePrefix */\n      dup10\n        /* \"ProjectFactory.sol\":1160:1175  nftSymbolPrefix */\n      dup10\n        /* \"ProjectFactory.sol\":1193:1198  owner */\n      0x02\n      0x00\n      swap1\n      sload\n      swap1\n      0x0100\n      exp\n      swap1\n      div\n      sub(shl(0xa0, 0x01), 0x01)\n      and\n        /* \"ProjectFactory.sol\":880:1212  new Project(... */\n      mload(0x40)\n      tag_44\n      swap1\n      tag_45\n      jump\t// in\n    tag_44:\n      tag_46\n      swap11\n      swap10\n      swap9\n      swap8\n      swap7\n      swap6\n      swap5\n      swap4\n      swap3\n      swap2\n      swap1\n      tag_47\n      jump\t// in\n    tag_46:\n      mload(0x40)\n      dup1\n      swap2\n      sub\n      swap1\n      0x00\n      create\n      dup1\n      iszero\n      dup1\n      iszero\n      tag_48\n      jumpi\n      returndatasize\n      0x00\n      dup1\n      returndatacopy\n      revert(0x00, returndatasize)\n    tag_48:\n      pop\n        /* \"ProjectFactory.sol\":1233:1249  deployedProjects */\n      0x00\n        /* \"ProjectFactory.sol\":1233:1266  deployedProjects.push(newProject) */\n      dup1\n      sload\n      0x01\n      dup2\n      dup2\n      add\n      dup4\n      sstore\n      0x290decd9548b62a8d60345a988386fc84ba6bc95484008f6362f93160ef3e563\n      swap1\n      swap2\n      add\n      dup1\n      sload\n      sub(shl(0xa0, 0x01), 0x01)\n      dup6\n      and\n      not(sub(shl(0xa0, 0x01), 0x01))\n      swap2\n      dup3\n      and\n      dup2\n      or\n      swap1\n      swap3\n      sstore\n        /* \"ProjectFactory.sol\":1289:1299  msg.sender */\n      caller\n        /* \"ProjectFactory.sol\":1276:1300  userProjects[msg.sender] */\n      dup1\n      dup6\n      mstore\n        /* \"ProjectFactory.sol\":1233:1266  deployedProjects.push(newProject) */\n      0x20\n        /* \"ProjectFactory.sol\":1276:1300  userProjects[msg.sender] */\n      dup5\n      dup2\n      mstore\n      0x40\n      dup1\n      dup8\n      keccak256\n        /* \"ProjectFactory.sol\":1276:1317  userProjects[msg.sender].push(newProject) */\n      dup1\n      sload\n      swap7\n      dup8\n      add\n      dup2\n      sstore\n      dup8\n      mstore\n      swap1\n      dup7\n      keccak256\n      swap1\n      swap5\n      add\n      dup1\n      sload\n      swap1\n      swap3\n      and\n      dup4\n      or\n      swap1\n      swap2\n      sstore\n        /* \"ProjectFactory.sol\":1361:1384  deployedProjects.length */\n      swap3\n      sload\n        /* \"ProjectFactory.sol\":1333:1575  ProjectCreated(... */\n      swap2\n      mload\n        /* \"ProjectFactory.sol\":838:1222  address newProject = address(... */\n      swap4\n      swap5\n      pop\n        /* \"ProjectFactory.sol\":1289:1299  msg.sender */\n      swap2\n      swap3\n        /* \"ProjectFactory.sol\":1333:1575  ProjectCreated(... */\n      0xb4a5bfdd6e62279ab04317fc55125a615b01848fdaf6180cbe6b5533b151e6a4\n      swap1\n      tag_51\n      swap1\n        /* \"ProjectFactory.sol\":1446:1449  cid */\n      dup13\n      swap1\n        /* \"ProjectFactory.sol\":1463:1482  minimumContribution */\n      dup13\n      swap1\n        /* \"ProjectFactory.sol\":1496:1514  targetContribution */\n      dup13\n      swap1\n        /* \"ProjectFactory.sol\":1528:1536  deadline */\n      dup13\n      swap1\n        /* \"ProjectFactory.sol\":1550:1565  block.timestamp */\n      timestamp\n      swap1\n        /* \"ProjectFactory.sol\":1333:1575  ProjectCreated(... */\n      tag_52\n      jump\t// in\n    tag_51:\n      mload(0x40)\n      dup1\n      swap2\n      sub\n      swap1\n      log4\n        /* \"ProjectFactory.sol\":828:1582  {... */\n      pop\n        /* \"ProjectFactory.sol\":563:1582  function createProject(... */\n      pop\n      pop\n      pop\n      pop\n      pop\n      pop\n      pop\n      jump\t// out\n        /* \"ProjectFactory.sol\":1704:1818  function getUserProjects() public view returns (address[] memory) {... */\n    tag_32:\n        /* \"ProjectFactory.sol\":1800:1810  msg.sender */\n      caller\n        /* \"ProjectFactory.sol\":1787:1811  userProjects[msg.sender] */\n      0x00\n      swap1\n      dup2\n      mstore\n        /* \"ProjectFactory.sol\":1787:1799  userProjects */\n      0x01\n        /* \"ProjectFactory.sol\":1787:1811  userProjects[msg.sender] */\n      0x20\n      swap1\n      dup2\n      mstore\n      0x40\n      swap2\n      dup3\n      swap1\n      keccak256\n        /* \"ProjectFactory.sol\":1780:1811  return userProjects[msg.sender] */\n      dup1\n      sload\n      dup4\n      mload\n      dup2\n      dup5\n      mul\n      dup2\n      add\n      dup5\n      add\n      swap1\n      swap5\n      mstore\n      dup1\n      dup5\n      mstore\n        /* \"ProjectFactory.sol\":1752:1768  address[] memory */\n      0x60\n      swap4\n        /* \"ProjectFactory.sol\":1780:1811  return userProjects[msg.sender] */\n      swap3\n      dup4\n      add\n        /* \"ProjectFactory.sol\":1787:1811  userProjects[msg.sender] */\n      dup3\n        /* \"ProjectFactory.sol\":1780:1811  return userProjects[msg.sender] */\n      dup3\n      dup1\n      iszero\n      tag_37\n      jumpi\n      0x20\n      mul\n      dup3\n      add\n      swap2\n      swap1\n      0x00\n      mstore\n      keccak256(0x00, 0x20)\n      swap1\n      dup2\n      sload\n      sub(shl(0xa0, 0x01), 0x01)\n      and\n      dup2\n      mstore\n      0x01\n      swap1\n      swap2\n      add\n      swap1\n      0x20\n      add\n      dup1\n      dup4\n      gt\n      tag_38\n      jumpi\n      pop\n      pop\n      pop\n      pop\n      pop\n      swap1\n      pop\n        /* \"ProjectFactory.sol\":1704:1818  function getUserProjects() public view returns (address[] memory) {... */\n      swap1\n      jump\t// out\n    tag_45:\n      dataSize(sub_0)\n      dup1\n      dataOffset(sub_0)\n      dup4\n      codecopy\n      add\n      swap1\n      jump\t// out\n        /* \"#utility.yul\":14:187   */\n    tag_56:\n        /* \"#utility.yul\":82:102   */\n      dup1\n      calldataload\n      sub(shl(0xa0, 0x01), 0x01)\n        /* \"#utility.yul\":131:162   */\n      dup2\n      and\n        /* \"#utility.yul\":121:163   */\n      dup2\n      eq\n        /* \"#utility.yul\":111:181   */\n      tag_62\n      jumpi\n        /* \"#utility.yul\":177:178   */\n      0x00\n        /* \"#utility.yul\":174:175   */\n      dup1\n        /* \"#utility.yul\":167:179   */\n      revert\n        /* \"#utility.yul\":111:181   */\n    tag_62:\n        /* \"#utility.yul\":14:187   */\n      swap2\n      swap1\n      pop\n      jump\t// out\n        /* \"#utility.yul\":192:446   */\n    tag_11:\n        /* \"#utility.yul\":260:266   */\n      0x00\n        /* \"#utility.yul\":268:274   */\n      dup1\n        /* \"#utility.yul\":321:323   */\n      0x40\n        /* \"#utility.yul\":309:318   */\n      dup4\n        /* \"#utility.yul\":300:307   */\n      dup6\n        /* \"#utility.yul\":296:319   */\n      sub\n        /* \"#utility.yul\":292:324   */\n      slt\n        /* \"#utility.yul\":289:341   */\n      iszero\n      tag_64\n      jumpi\n        /* \"#utility.yul\":337:338   */\n      0x00\n        /* \"#utility.yul\":334:335   */\n      dup1\n        /* \"#utility.yul\":327:339   */\n      revert\n        /* \"#utility.yul\":289:341   */\n    tag_64:\n        /* \"#utility.yul\":360:389   */\n      tag_65\n        /* \"#utility.yul\":379:388   */\n      dup4\n        /* \"#utility.yul\":360:389   */\n      tag_56\n      jump\t// in\n    tag_65:\n        /* \"#utility.yul\":350:389   */\n      swap5\n        /* \"#utility.yul\":436:438   */\n      0x20\n        /* \"#utility.yul\":421:439   */\n      swap4\n      swap1\n      swap4\n      add\n        /* \"#utility.yul\":408:440   */\n      calldataload\n      swap4\n      pop\n      pop\n      pop\n        /* \"#utility.yul\":192:446   */\n      jump\t// out\n        /* \"#utility.yul\":659:1317   */\n    tag_18:\n        /* \"#utility.yul\":830:832   */\n      0x20\n        /* \"#utility.yul\":882:903   */\n      dup1\n      dup3\n      mstore\n        /* \"#utility.yul\":952:965   */\n      dup3\n      mload\n        /* \"#utility.yul\":855:873   */\n      dup3\n      dup3\n      add\n        /* \"#utility.yul\":974:996   */\n      dup2\n      swap1\n      mstore\n        /* \"#utility.yul\":801:805   */\n      0x00\n      swap2\n        /* \"#utility.yul\":830:832   */\n      swap1\n        /* \"#utility.yul\":1053:1068   */\n      dup5\n      dup3\n      add\n      swap1\n        /* \"#utility.yul\":1027:1029   */\n      0x40\n        /* \"#utility.yul\":1012:1030   */\n      dup6\n      add\n      swap1\n        /* \"#utility.yul\":801:805   */\n      dup5\n        /* \"#utility.yul\":1096:1291   */\n    tag_68:\n        /* \"#utility.yul\":1110:1116   */\n      dup2\n        /* \"#utility.yul\":1107:1108   */\n      dup2\n        /* \"#utility.yul\":1104:1117   */\n      lt\n        /* \"#utility.yul\":1096:1291   */\n      iszero\n      tag_70\n      jumpi\n        /* \"#utility.yul\":1175:1188   */\n      dup4\n      mload\n      sub(shl(0xa0, 0x01), 0x01)\n        /* \"#utility.yul\":1171:1210   */\n      and\n        /* \"#utility.yul\":1159:1211   */\n      dup4\n      mstore\n        /* \"#utility.yul\":1266:1281   */\n      swap3\n      dup5\n      add\n      swap3\n        /* \"#utility.yul\":1231:1243   */\n      swap2\n      dup5\n      add\n      swap2\n        /* \"#utility.yul\":1207:1208   */\n      0x01\n        /* \"#utility.yul\":1125:1134   */\n      add\n        /* \"#utility.yul\":1096:1291   */\n      jump(tag_68)\n    tag_70:\n      pop\n        /* \"#utility.yul\":1308:1311   */\n      swap1\n      swap7\n        /* \"#utility.yul\":659:1317   */\n      swap6\n      pop\n      pop\n      pop\n      pop\n      pop\n      pop\n      jump\t// out\n        /* \"#utility.yul\":1322:1502   */\n    tag_24:\n        /* \"#utility.yul\":1381:1387   */\n      0x00\n        /* \"#utility.yul\":1434:1436   */\n      0x20\n        /* \"#utility.yul\":1422:1431   */\n      dup3\n        /* \"#utility.yul\":1413:1420   */\n      dup5\n        /* \"#utility.yul\":1409:1432   */\n      sub\n        /* \"#utility.yul\":1405:1437   */\n      slt\n        /* \"#utility.yul\":1402:1454   */\n      iszero\n      tag_72\n      jumpi\n        /* \"#utility.yul\":1450:1451   */\n      0x00\n        /* \"#utility.yul\":1447:1448   */\n      dup1\n        /* \"#utility.yul\":1440:1452   */\n      revert\n        /* \"#utility.yul\":1402:1454   */\n    tag_72:\n      pop\n        /* \"#utility.yul\":1473:1496   */\n      calldataload\n      swap2\n        /* \"#utility.yul\":1322:1502   */\n      swap1\n      pop\n      jump\t// out\n        /* \"#utility.yul\":1507:1634   */\n    tag_57:\n        /* \"#utility.yul\":1568:1578   */\n      0x4e487b71\n        /* \"#utility.yul\":1563:1566   */\n      0xe0\n        /* \"#utility.yul\":1559:1579   */\n      shl\n        /* \"#utility.yul\":1556:1557   */\n      0x00\n        /* \"#utility.yul\":1549:1580   */\n      mstore\n        /* \"#utility.yul\":1599:1603   */\n      0x41\n        /* \"#utility.yul\":1596:1597   */\n      0x04\n        /* \"#utility.yul\":1589:1604   */\n      mstore\n        /* \"#utility.yul\":1623:1627   */\n      0x24\n        /* \"#utility.yul\":1620:1621   */\n      0x00\n        /* \"#utility.yul\":1613:1628   */\n      revert\n        /* \"#utility.yul\":1639:2358   */\n    tag_58:\n        /* \"#utility.yul\":1682:1687   */\n      0x00\n        /* \"#utility.yul\":1735:1738   */\n      dup3\n        /* \"#utility.yul\":1728:1732   */\n      0x1f\n        /* \"#utility.yul\":1720:1726   */\n      dup4\n        /* \"#utility.yul\":1716:1733   */\n      add\n        /* \"#utility.yul\":1712:1739   */\n      slt\n        /* \"#utility.yul\":1702:1757   */\n      tag_75\n      jumpi\n        /* \"#utility.yul\":1753:1754   */\n      0x00\n        /* \"#utility.yul\":1750:1751   */\n      dup1\n        /* \"#utility.yul\":1743:1755   */\n      revert\n        /* \"#utility.yul\":1702:1757   */\n    tag_75:\n        /* \"#utility.yul\":1776:1796   */\n      dup2\n      calldataload\n      sub(shl(0x40, 0x01), 0x01)\n        /* \"#utility.yul\":1845:1855   */\n      dup1\n      dup3\n      gt\n        /* \"#utility.yul\":1842:1878   */\n      iszero\n      tag_77\n      jumpi\n        /* \"#utility.yul\":1858:1876   */\n      tag_77\n      tag_57\n      jump\t// in\n    tag_77:\n        /* \"#utility.yul\":1933:1935   */\n      0x40\n        /* \"#utility.yul\":1927:1936   */\n      mload\n        /* \"#utility.yul\":1901:1903   */\n      0x1f\n        /* \"#utility.yul\":1987:2000   */\n      dup4\n      add\n      not(0x1f)\n        /* \"#utility.yul\":1983:2005   */\n      swap1\n      dup2\n      and\n        /* \"#utility.yul\":2007:2009   */\n      0x3f\n        /* \"#utility.yul\":1979:2010   */\n      add\n        /* \"#utility.yul\":1975:2015   */\n      and\n        /* \"#utility.yul\":1963:2016   */\n      dup2\n      add\n      swap1\n        /* \"#utility.yul\":2031:2049   */\n      dup3\n      dup3\n      gt\n        /* \"#utility.yul\":2051:2073   */\n      dup2\n      dup4\n      lt\n        /* \"#utility.yul\":2028:2074   */\n      or\n        /* \"#utility.yul\":2025:2097   */\n      iszero\n      tag_79\n      jumpi\n        /* \"#utility.yul\":2077:2095   */\n      tag_79\n      tag_57\n      jump\t// in\n    tag_79:\n        /* \"#utility.yul\":2117:2127   */\n      dup2\n        /* \"#utility.yul\":2113:2115   */\n      0x40\n        /* \"#utility.yul\":2106:2128   */\n      mstore\n        /* \"#utility.yul\":2152:2154   */\n      dup4\n        /* \"#utility.yul\":2144:2150   */\n      dup2\n        /* \"#utility.yul\":2137:2155   */\n      mstore\n        /* \"#utility.yul\":2198:2201   */\n      dup7\n        /* \"#utility.yul\":2191:2195   */\n      0x20\n        /* \"#utility.yul\":2186:2188   */\n      dup6\n        /* \"#utility.yul\":2178:2184   */\n      dup9\n        /* \"#utility.yul\":2174:2189   */\n      add\n        /* \"#utility.yul\":2170:2196   */\n      add\n        /* \"#utility.yul\":2167:2202   */\n      gt\n        /* \"#utility.yul\":2164:2219   */\n      iszero\n      tag_80\n      jumpi\n        /* \"#utility.yul\":2215:2216   */\n      0x00\n        /* \"#utility.yul\":2212:2213   */\n      dup1\n        /* \"#utility.yul\":2205:2217   */\n      revert\n        /* \"#utility.yul\":2164:2219   */\n    tag_80:\n        /* \"#utility.yul\":2279:2281   */\n      dup4\n        /* \"#utility.yul\":2272:2276   */\n      0x20\n        /* \"#utility.yul\":2264:2270   */\n      dup8\n        /* \"#utility.yul\":2260:2277   */\n      add\n        /* \"#utility.yul\":2253:2257   */\n      0x20\n        /* \"#utility.yul\":2245:2251   */\n      dup4\n        /* \"#utility.yul\":2241:2258   */\n      add\n        /* \"#utility.yul\":2228:2282   */\n      calldatacopy\n        /* \"#utility.yul\":2326:2327   */\n      0x00\n        /* \"#utility.yul\":2319:2323   */\n      0x20\n        /* \"#utility.yul\":2314:2316   */\n      dup6\n        /* \"#utility.yul\":2306:2312   */\n      dup4\n        /* \"#utility.yul\":2302:2317   */\n      add\n        /* \"#utility.yul\":2298:2324   */\n      add\n        /* \"#utility.yul\":2291:2328   */\n      mstore\n        /* \"#utility.yul\":2346:2352   */\n      dup1\n        /* \"#utility.yul\":2337:2352   */\n      swap5\n      pop\n      pop\n      pop\n      pop\n      pop\n        /* \"#utility.yul\":1639:2358   */\n      swap3\n      swap2\n      pop\n      pop\n      jump\t// out\n        /* \"#utility.yul\":2363:3388   */\n    tag_29:\n        /* \"#utility.yul\":2506:2512   */\n      0x00\n        /* \"#utility.yul\":2514:2520   */\n      dup1\n        /* \"#utility.yul\":2522:2528   */\n      0x00\n        /* \"#utility.yul\":2530:2536   */\n      dup1\n        /* \"#utility.yul\":2538:2544   */\n      0x00\n        /* \"#utility.yul\":2546:2552   */\n      dup1\n        /* \"#utility.yul\":2554:2560   */\n      0x00\n        /* \"#utility.yul\":2607:2610   */\n      0xe0\n        /* \"#utility.yul\":2595:2604   */\n      dup9\n        /* \"#utility.yul\":2586:2593   */\n      dup11\n        /* \"#utility.yul\":2582:2605   */\n      sub\n        /* \"#utility.yul\":2578:2611   */\n      slt\n        /* \"#utility.yul\":2575:2628   */\n      iszero\n      tag_82\n      jumpi\n        /* \"#utility.yul\":2624:2625   */\n      0x00\n        /* \"#utility.yul\":2621:2622   */\n      dup1\n        /* \"#utility.yul\":2614:2626   */\n      revert\n        /* \"#utility.yul\":2575:2628   */\n    tag_82:\n        /* \"#utility.yul\":2647:2676   */\n      tag_83\n        /* \"#utility.yul\":2666:2675   */\n      dup9\n        /* \"#utility.yul\":2647:2676   */\n      tag_56\n      jump\t// in\n    tag_83:\n        /* \"#utility.yul\":2637:2676   */\n      swap7\n      pop\n        /* \"#utility.yul\":2727:2729   */\n      0x20\n        /* \"#utility.yul\":2712:2730   */\n      dup9\n      add\n        /* \"#utility.yul\":2699:2731   */\n      calldataload\n      sub(shl(0x40, 0x01), 0x01)\n        /* \"#utility.yul\":2780:2794   */\n      dup1\n      dup3\n      gt\n        /* \"#utility.yul\":2777:2811   */\n      iszero\n      tag_84\n      jumpi\n        /* \"#utility.yul\":2807:2808   */\n      0x00\n        /* \"#utility.yul\":2804:2805   */\n      dup1\n        /* \"#utility.yul\":2797:2809   */\n      revert\n        /* \"#utility.yul\":2777:2811   */\n    tag_84:\n        /* \"#utility.yul\":2830:2880   */\n      tag_85\n        /* \"#utility.yul\":2872:2879   */\n      dup12\n        /* \"#utility.yul\":2863:2869   */\n      dup4\n        /* \"#utility.yul\":2852:2861   */\n      dup13\n        /* \"#utility.yul\":2848:2870   */\n      add\n        /* \"#utility.yul\":2830:2880   */\n      tag_58\n      jump\t// in\n    tag_85:\n        /* \"#utility.yul\":2820:2880   */\n      swap8\n      pop\n        /* \"#utility.yul\":2927:2929   */\n      0x40\n        /* \"#utility.yul\":2916:2925   */\n      dup11\n        /* \"#utility.yul\":2912:2930   */\n      add\n        /* \"#utility.yul\":2899:2931   */\n      calldataload\n        /* \"#utility.yul\":2889:2931   */\n      swap7\n      pop\n        /* \"#utility.yul\":2978:2980   */\n      0x60\n        /* \"#utility.yul\":2967:2976   */\n      dup11\n        /* \"#utility.yul\":2963:2981   */\n      add\n        /* \"#utility.yul\":2950:2982   */\n      calldataload\n        /* \"#utility.yul\":2940:2982   */\n      swap6\n      pop\n        /* \"#utility.yul\":3029:3032   */\n      0x80\n        /* \"#utility.yul\":3018:3027   */\n      dup11\n        /* \"#utility.yul\":3014:3033   */\n      add\n        /* \"#utility.yul\":3001:3034   */\n      calldataload\n        /* \"#utility.yul\":2991:3034   */\n      swap5\n      pop\n        /* \"#utility.yul\":3087:3090   */\n      0xa0\n        /* \"#utility.yul\":3076:3085   */\n      dup11\n        /* \"#utility.yul\":3072:3091   */\n      add\n        /* \"#utility.yul\":3059:3092   */\n      calldataload\n        /* \"#utility.yul\":3043:3092   */\n      swap2\n      pop\n        /* \"#utility.yul\":3117:3119   */\n      dup1\n        /* \"#utility.yul\":3107:3115   */\n      dup3\n        /* \"#utility.yul\":3104:3120   */\n      gt\n        /* \"#utility.yul\":3101:3137   */\n      iszero\n      tag_86\n      jumpi\n        /* \"#utility.yul\":3133:3134   */\n      0x00\n        /* \"#utility.yul\":3130:3131   */\n      dup1\n        /* \"#utility.yul\":3123:3135   */\n      revert\n        /* \"#utility.yul\":3101:3137   */\n    tag_86:\n        /* \"#utility.yul\":3156:3208   */\n      tag_87\n        /* \"#utility.yul\":3200:3207   */\n      dup12\n        /* \"#utility.yul\":3189:3197   */\n      dup4\n        /* \"#utility.yul\":3178:3187   */\n      dup13\n        /* \"#utility.yul\":3174:3198   */\n      add\n        /* \"#utility.yul\":3156:3208   */\n      tag_58\n      jump\t// in\n    tag_87:\n        /* \"#utility.yul\":3146:3208   */\n      swap4\n      pop\n        /* \"#utility.yul\":3261:3264   */\n      0xc0\n        /* \"#utility.yul\":3250:3259   */\n      dup11\n        /* \"#utility.yul\":3246:3265   */\n      add\n        /* \"#utility.yul\":3233:3266   */\n      calldataload\n        /* \"#utility.yul\":3217:3266   */\n      swap2\n      pop\n        /* \"#utility.yul\":3291:3293   */\n      dup1\n        /* \"#utility.yul\":3281:3289   */\n      dup3\n        /* \"#utility.yul\":3278:3294   */\n      gt\n        /* \"#utility.yul\":3275:3311   */\n      iszero\n      tag_88\n      jumpi\n        /* \"#utility.yul\":3307:3308   */\n      0x00\n        /* \"#utility.yul\":3304:3305   */\n      dup1\n        /* \"#utility.yul\":3297:3309   */\n      revert\n        /* \"#utility.yul\":3275:3311   */\n    tag_88:\n      pop\n        /* \"#utility.yul\":3330:3382   */\n      tag_89\n        /* \"#utility.yul\":3374:3381   */\n      dup11\n        /* \"#utility.yul\":3363:3371   */\n      dup3\n        /* \"#utility.yul\":3352:3361   */\n      dup12\n        /* \"#utility.yul\":3348:3372   */\n      add\n        /* \"#utility.yul\":3330:3382   */\n      tag_58\n      jump\t// in\n    tag_89:\n        /* \"#utility.yul\":3320:3382   */\n      swap2\n      pop\n      pop\n        /* \"#utility.yul\":2363:3388   */\n      swap3\n      swap6\n      swap9\n      swap2\n      swap5\n      swap8\n      pop\n      swap3\n      swap6\n      pop\n      jump\t// out\n        /* \"#utility.yul\":3393:3615   */\n    tag_43:\n        /* \"#utility.yul\":3458:3467   */\n      dup1\n      dup3\n      add\n        /* \"#utility.yul\":3479:3489   */\n      dup1\n      dup3\n      gt\n        /* \"#utility.yul\":3476:3609   */\n      iszero\n      tag_91\n      jumpi\n        /* \"#utility.yul\":3531:3541   */\n      0x4e487b71\n        /* \"#utility.yul\":3526:3529   */\n      0xe0\n        /* \"#utility.yul\":3522:3542   */\n      shl\n        /* \"#utility.yul\":3519:3520   */\n      0x00\n        /* \"#utility.yul\":3512:3543   */\n      mstore\n        /* \"#utility.yul\":3566:3570   */\n      0x11\n        /* \"#utility.yul\":3563:3564   */\n      0x04\n        /* \"#utility.yul\":3556:3571   */\n      mstore\n        /* \"#utility.yul\":3594:3598   */\n      0x24\n        /* \"#utility.yul\":3591:3592   */\n      0x00\n        /* \"#utility.yul\":3584:3599   */\n      revert\n        /* \"#utility.yul\":3476:3609   */\n    tag_91:\n        /* \"#utility.yul\":3393:3615   */\n      swap3\n      swap2\n      pop\n      pop\n      jump\t// out\n        /* \"#utility.yul\":3620:4043   */\n    tag_59:\n        /* \"#utility.yul\":3662:3665   */\n      0x00\n        /* \"#utility.yul\":3700:3705   */\n      dup2\n        /* \"#utility.yul\":3694:3706   */\n      mload\n        /* \"#utility.yul\":3727:3733   */\n      dup1\n        /* \"#utility.yul\":3722:3725   */\n      dup5\n        /* \"#utility.yul\":3715:3734   */\n      mstore\n        /* \"#utility.yul\":3752:3753   */\n      0x00\n        /* \"#utility.yul\":3762:3924   */\n    tag_93:\n        /* \"#utility.yul\":3776:3782   */\n      dup2\n        /* \"#utility.yul\":3773:3774   */\n      dup2\n        /* \"#utility.yul\":3770:3783   */\n      lt\n        /* \"#utility.yul\":3762:3924   */\n      iszero\n      tag_95\n      jumpi\n        /* \"#utility.yul\":3838:3842   */\n      0x20\n        /* \"#utility.yul\":3894:3907   */\n      dup2\n      dup6\n      add\n        /* \"#utility.yul\":3890:3912   */\n      dup2\n      add\n        /* \"#utility.yul\":3884:3913   */\n      mload\n        /* \"#utility.yul\":3866:3877   */\n      dup7\n      dup4\n      add\n        /* \"#utility.yul\":3862:3882   */\n      dup3\n      add\n        /* \"#utility.yul\":3855:3914   */\n      mstore\n        /* \"#utility.yul\":3791:3803   */\n      add\n        /* \"#utility.yul\":3762:3924   */\n      jump(tag_93)\n    tag_95:\n        /* \"#utility.yul\":3766:3769   */\n      pop\n        /* \"#utility.yul\":3969:3970   */\n      0x00\n        /* \"#utility.yul\":3962:3966   */\n      0x20\n        /* \"#utility.yul\":3953:3959   */\n      dup3\n        /* \"#utility.yul\":3948:3951   */\n      dup7\n        /* \"#utility.yul\":3944:3960   */\n      add\n        /* \"#utility.yul\":3940:3967   */\n      add\n        /* \"#utility.yul\":3933:3971   */\n      mstore\n        /* \"#utility.yul\":4032:4036   */\n      0x20\n        /* \"#utility.yul\":4025:4027   */\n      0x1f\n        /* \"#utility.yul\":4021:4028   */\n      not\n        /* \"#utility.yul\":4016:4018   */\n      0x1f\n        /* \"#utility.yul\":4008:4014   */\n      dup4\n        /* \"#utility.yul\":4004:4019   */\n      add\n        /* \"#utility.yul\":4000:4029   */\n      and\n        /* \"#utility.yul\":3995:3998   */\n      dup6\n        /* \"#utility.yul\":3991:4030   */\n      add\n        /* \"#utility.yul\":3987:4037   */\n      add\n        /* \"#utility.yul\":3980:4037   */\n      swap2\n      pop\n      pop\n        /* \"#utility.yul\":3620:4043   */\n      swap3\n      swap2\n      pop\n      pop\n      jump\t// out\n        /* \"#utility.yul\":4048:5184   */\n    tag_47:\n        /* \"#utility.yul\":4493:4518   */\n      dup11\n      dup2\n      mstore\n      sub(shl(0xa0, 0x01), 0x01)\n        /* \"#utility.yul\":4592:4607   */\n      dup11\n      dup2\n      and\n        /* \"#utility.yul\":4587:4589   */\n      0x20\n        /* \"#utility.yul\":4572:4590   */\n      dup4\n      add\n        /* \"#utility.yul\":4565:4608   */\n      mstore\n        /* \"#utility.yul\":4644:4659   */\n      dup10\n      dup2\n      and\n        /* \"#utility.yul\":4639:4641   */\n      0x40\n        /* \"#utility.yul\":4624:4642   */\n      dup4\n      add\n        /* \"#utility.yul\":4617:4660   */\n      mstore\n        /* \"#utility.yul\":4481:4484   */\n      0x0140\n        /* \"#utility.yul\":4691:4693   */\n      0x60\n        /* \"#utility.yul\":4676:4694   */\n      dup4\n      add\n        /* \"#utility.yul\":4669:4699   */\n      dup2\n      swap1\n      mstore\n        /* \"#utility.yul\":4452:4456   */\n      0x00\n      swap2\n        /* \"#utility.yul\":4722:4767   */\n      tag_97\n        /* \"#utility.yul\":4748:4766   */\n      dup5\n      dup4\n      add\n        /* \"#utility.yul\":4740:4746   */\n      dup13\n        /* \"#utility.yul\":4722:4767   */\n      tag_59\n      jump\t// in\n    tag_97:\n        /* \"#utility.yul\":4708:4767   */\n      swap2\n      pop\n        /* \"#utility.yul\":4804:4810   */\n      dup10\n        /* \"#utility.yul\":4798:4801   */\n      0x80\n        /* \"#utility.yul\":4787:4796   */\n      dup6\n        /* \"#utility.yul\":4783:4802   */\n      add\n        /* \"#utility.yul\":4776:4811   */\n      mstore\n        /* \"#utility.yul\":4848:4854   */\n      dup9\n        /* \"#utility.yul\":4842:4845   */\n      0xa0\n        /* \"#utility.yul\":4831:4840   */\n      dup6\n        /* \"#utility.yul\":4827:4846   */\n      add\n        /* \"#utility.yul\":4820:4855   */\n      mstore\n        /* \"#utility.yul\":4892:4898   */\n      dup8\n        /* \"#utility.yul\":4886:4889   */\n      0xc0\n        /* \"#utility.yul\":4875:4884   */\n      dup6\n        /* \"#utility.yul\":4871:4890   */\n      add\n        /* \"#utility.yul\":4864:4899   */\n      mstore\n        /* \"#utility.yul\":4948:4957   */\n      dup4\n        /* \"#utility.yul\":4940:4946   */\n      dup3\n        /* \"#utility.yul\":4936:4958   */\n      sub\n        /* \"#utility.yul\":4930:4933   */\n      0xe0\n        /* \"#utility.yul\":4919:4928   */\n      dup6\n        /* \"#utility.yul\":4915:4934   */\n      add\n        /* \"#utility.yul\":4908:4959   */\n      mstore\n        /* \"#utility.yul\":4982:5015   */\n      tag_98\n        /* \"#utility.yul\":5008:5014   */\n      dup3\n        /* \"#utility.yul\":5000:5006   */\n      dup9\n        /* \"#utility.yul\":4982:5015   */\n      tag_59\n      jump\t// in\n    tag_98:\n        /* \"#utility.yul\":4968:5015   */\n      swap2\n      pop\n        /* \"#utility.yul\":5064:5073   */\n      dup4\n        /* \"#utility.yul\":5056:5062   */\n      dup3\n        /* \"#utility.yul\":5052:5074   */\n      sub\n        /* \"#utility.yul\":5046:5049   */\n      0x0100\n        /* \"#utility.yul\":5035:5044   */\n      dup6\n        /* \"#utility.yul\":5031:5050   */\n      add\n        /* \"#utility.yul\":5024:5075   */\n      mstore\n        /* \"#utility.yul\":5092:5125   */\n      tag_99\n        /* \"#utility.yul\":5118:5124   */\n      dup3\n        /* \"#utility.yul\":5110:5116   */\n      dup8\n        /* \"#utility.yul\":5092:5125   */\n      tag_59\n      jump\t// in\n    tag_99:\n        /* \"#utility.yul\":5084:5125   */\n      swap3\n      pop\n        /* \"#utility.yul\":5174:5176   */\n      dup1\n        /* \"#utility.yul\":5166:5172   */\n      dup6\n        /* \"#utility.yul\":5162:5177   */\n      and\n        /* \"#utility.yul\":5156:5159   */\n      0x0120\n        /* \"#utility.yul\":5145:5154   */\n      dup6\n        /* \"#utility.yul\":5141:5160   */\n      add\n        /* \"#utility.yul\":5134:5178   */\n      mstore\n      pop\n      pop\n        /* \"#utility.yul\":4048:5184   */\n      swap12\n      swap11\n      pop\n      pop\n      pop\n      pop\n      pop\n      pop\n      pop\n      pop\n      pop\n      pop\n      pop\n      jump\t// out\n        /* \"#utility.yul\":5189:5696   */\n    tag_52:\n        /* \"#utility.yul\":5450:5453   */\n      0xa0\n        /* \"#utility.yul\":5439:5448   */\n      dup2\n        /* \"#utility.yul\":5432:5454   */\n      mstore\n        /* \"#utility.yul\":5413:5417   */\n      0x00\n        /* \"#utility.yul\":5471:5517   */\n      tag_101\n        /* \"#utility.yul\":5512:5515   */\n      0xa0\n        /* \"#utility.yul\":5501:5510   */\n      dup4\n        /* \"#utility.yul\":5497:5516   */\n      add\n        /* \"#utility.yul\":5489:5495   */\n      dup9\n        /* \"#utility.yul\":5471:5517   */\n      tag_59\n      jump\t// in\n    tag_101:\n        /* \"#utility.yul\":5463:5517   */\n      swap1\n      pop\n        /* \"#utility.yul\":5553:5559   */\n      dup6\n        /* \"#utility.yul\":5548:5550   */\n      0x20\n        /* \"#utility.yul\":5537:5546   */\n      dup4\n        /* \"#utility.yul\":5533:5551   */\n      add\n        /* \"#utility.yul\":5526:5560   */\n      mstore\n        /* \"#utility.yul\":5596:5602   */\n      dup5\n        /* \"#utility.yul\":5591:5593   */\n      0x40\n        /* \"#utility.yul\":5580:5589   */\n      dup4\n        /* \"#utility.yul\":5576:5594   */\n      add\n        /* \"#utility.yul\":5569:5603   */\n      mstore\n        /* \"#utility.yul\":5639:5645   */\n      dup4\n        /* \"#utility.yul\":5634:5636   */\n      0x60\n        /* \"#utility.yul\":5623:5632   */\n      dup4\n        /* \"#utility.yul\":5619:5637   */\n      add\n        /* \"#utility.yul\":5612:5646   */\n      mstore\n        /* \"#utility.yul\":5683:5689   */\n      dup3\n        /* \"#utility.yul\":5677:5680   */\n      0x80\n        /* \"#utility.yul\":5666:5675   */\n      dup4\n        /* \"#utility.yul\":5662:5681   */\n      add\n        /* \"#utility.yul\":5655:5690   */\n      mstore\n        /* \"#utility.yul\":5189:5696   */\n      swap7\n      swap6\n      pop\n      pop\n      pop\n      pop\n      pop\n      pop\n      jump\t// out\n    stop\n\n    sub_0: assembly {\n            /* \"Project.sol\":172:13678  contract Project {... */\n          mstore(0x40, 0x80)\n            /* \"Project.sol\":879:1695  constructor(... */\n          callvalue\n          dup1\n          iszero\n          tag_1\n          jumpi\n          0x00\n          dup1\n          revert\n        tag_1:\n          pop\n          mload(0x40)\n          sub(codesize, bytecodeSize)\n          dup1\n          bytecodeSize\n          dup4\n          codecopy\n          dup2\n          add\n          0x40\n          dup2\n          swap1\n          mstore\n          tag_2\n          swap2\n          tag_3\n          jump\t// in\n        tag_2:\n            /* \"Project.sol\":1205:1207  id */\n          0x00\n            /* \"Project.sol\":1205:1213  id = _id */\n          dup11\n          swap1\n          sstore\n            /* \"Project.sol\":1223:1228  owner */\n          0x01\n            /* \"Project.sol\":1223:1237  owner = _owner */\n          dup1\n          sload\n          not(sub(shl(0xa0, 0x01), 0x01))\n          and\n          sub(shl(0xa0, 0x01), 0x01)\n          dup12\n          and\n          or\n          swap1\n          sstore\n            /* \"Project.sol\":1247:1250  cid */\n          0x04\n            /* \"Project.sol\":1247:1257  cid = _cid */\n          tag_6\n            /* \"Project.sol\":1253:1257  _cid */\n          dup9\n            /* \"Project.sol\":1247:1250  cid */\n          dup3\n            /* \"Project.sol\":1247:1257  cid = _cid */\n          tag_7\n          jump\t// in\n        tag_6:\n          pop\n            /* \"Project.sol\":1267:1286  minimumContribution */\n          0x05\n            /* \"Project.sol\":1267:1309  minimumContribution = _minimumContribution */\n          dup7\n          swap1\n          sstore\n            /* \"Project.sol\":1319:1337  targetContribution */\n          0x06\n            /* \"Project.sol\":1319:1359  targetContribution = _targetContribution */\n          dup6\n          swap1\n          sstore\n            /* \"Project.sol\":1369:1377  deadline */\n          0x07\n            /* \"Project.sol\":1369:1389  deadline = _deadline */\n          dup5\n          swap1\n          sstore\n            /* \"Project.sol\":1399:1408  recipient */\n          0x03\n            /* \"Project.sol\":1399:1430  recipient = payable(_recipient) */\n          dup1\n          sload\n          sub(shl(0xa0, 0x01), 0x01)\n          dup1\n          dup12\n          and\n          not(sub(shl(0xa0, 0x01), 0x01))\n          swap3\n          dup4\n          and\n          or\n          swap1\n          swap3\n          sstore\n          0x02\n            /* \"Project.sol\":1440:1468  factoryOwner = _factoryOwner */\n          dup1\n          sload\n          swap3\n          dup5\n          and\n          swap3\n          swap1\n          swap2\n          and\n          swap2\n          swap1\n          swap2\n          or\n          swap1\n          sstore\n          0x00\n            /* \"Project.sol\":1596:1598  id */\n          sload\n            /* \"Project.sol\":1521:1525  this */\n          address\n          swap1\n            /* \"Project.sol\":1564:1577  nftNamePrefix */\n          dup5\n          swap1\n            /* \"Project.sol\":1579:1599  Strings.toString(id) */\n          tag_8\n          swap1\n            /* \"Project.sol\":1579:1595  Strings.toString */\n          tag_9\n            /* \"Project.sol\":1579:1599  Strings.toString(id) */\n          jump\t// in\n        tag_8:\n            /* \"Project.sol\":1547:1600  abi.encodePacked(nftNamePrefix, Strings.toString(id)) */\n          add(0x20, mload(0x40))\n          tag_10\n          swap3\n          swap2\n          swap1\n          tag_11\n          jump\t// in\n        tag_10:\n          mload(0x40)\n          0x20\n          dup2\n          dup4\n          sub\n          sub\n          dup2\n          mstore\n          swap1\n          0x40\n          mstore\n            /* \"Project.sol\":1639:1654  nftSymbolPrefix */\n          dup4\n            /* \"Project.sol\":1656:1676  Strings.toString(id) */\n          tag_12\n            /* \"Project.sol\":1673:1675  id */\n          sload(0x00)\n            /* \"Project.sol\":1656:1672  Strings.toString */\n          shl(0x20, tag_9)\n            /* \"Project.sol\":1656:1676  Strings.toString(id) */\n          0x20\n          shr\n          jump\t// in\n        tag_12:\n            /* \"Project.sol\":1622:1677  abi.encodePacked(nftSymbolPrefix, Strings.toString(id)) */\n          add(0x20, mload(0x40))\n          tag_13\n          swap3\n          swap2\n          swap1\n          tag_11\n          jump\t// in\n        tag_13:\n          mload(0x40)\n          0x20\n          dup2\n          dup4\n          sub\n          sub\n          dup2\n          mstore\n          swap1\n          0x40\n          mstore\n            /* \"Project.sol\":1485:1688  new ProjectNFT(... */\n          mload(0x40)\n          tag_14\n          swap1\n          tag_15\n          jump\t// in\n        tag_14:\n          tag_16\n          swap4\n          swap3\n          swap2\n          swap1\n          tag_17\n          jump\t// in\n        tag_16:\n          mload(0x40)\n          dup1\n          swap2\n          sub\n          swap1\n          0x00\n          create\n          dup1\n          iszero\n          dup1\n          iszero\n          tag_18\n          jumpi\n          returndatasize\n          0x00\n          dup1\n          returndatacopy\n          revert(0x00, returndatasize)\n        tag_18:\n          pop\n            /* \"Project.sol\":1479:1482  nft */\n          0x15\n            /* \"Project.sol\":1479:1688  nft = new ProjectNFT(... */\n          dup1\n          sload\n          not(sub(shl(0xa0, 0x01), 0x01))\n          and\n          sub(shl(0xa0, 0x01), 0x01)\n          swap3\n          swap1\n          swap3\n          and\n          swap2\n          swap1\n          swap2\n          or\n          swap1\n          sstore\n          pop\n            /* \"Project.sol\":172:13678  contract Project {... */\n          tag_61\n          swap9\n          pop\n          pop\n          pop\n          pop\n          pop\n          pop\n          pop\n          pop\n          pop\n          jump\n            /* \"@openzeppelin/contracts/utils/Strings.sol\":637:1335  function toString(uint256 value) internal pure returns (string memory) {... */\n        tag_9:\n            /* \"@openzeppelin/contracts/utils/Strings.sol\":693:706  string memory */\n          0x60\n            /* \"@openzeppelin/contracts/utils/Strings.sol\":742:756  uint256 length */\n          0x00\n            /* \"@openzeppelin/contracts/utils/Strings.sol\":759:776  Math.log10(value) */\n          tag_21\n            /* \"@openzeppelin/contracts/utils/Strings.sol\":770:775  value */\n          dup4\n            /* \"@openzeppelin/contracts/utils/Strings.sol\":759:769  Math.log10 */\n          tag_22\n            /* \"@openzeppelin/contracts/utils/Strings.sol\":759:776  Math.log10(value) */\n          jump\t// in\n        tag_21:\n            /* \"@openzeppelin/contracts/utils/Strings.sol\":779:780  1 */\n          0x01\n            /* \"@openzeppelin/contracts/utils/Strings.sol\":759:780  Math.log10(value) + 1 */\n          add\n            /* \"@openzeppelin/contracts/utils/Strings.sol\":742:780  uint256 length = Math.log10(value) + 1 */\n          swap1\n          pop\n            /* \"@openzeppelin/contracts/utils/Strings.sol\":794:814  string memory buffer */\n          0x00\n            /* \"@openzeppelin/contracts/utils/Strings.sol\":828:834  length */\n          dup2\n          sub(shl(0x40, 0x01), 0x01)\n            /* \"@openzeppelin/contracts/utils/Strings.sol\":817:835  new string(length) */\n          dup2\n          gt\n          iszero\n          tag_24\n          jumpi\n          tag_24\n          tag_25\n          jump\t// in\n        tag_24:\n          mload(0x40)\n          swap1\n          dup1\n          dup3\n          mstore\n          dup1\n          0x1f\n          add\n          not(0x1f)\n          and\n          0x20\n          add\n          dup3\n          add\n          0x40\n          mstore\n          dup1\n          iszero\n          tag_26\n          jumpi\n          0x20\n          dup3\n          add\n          dup2\n          dup1\n          calldatasize\n          dup4\n          calldatacopy\n          add\n          swap1\n          pop\n        tag_26:\n          pop\n            /* \"@openzeppelin/contracts/utils/Strings.sol\":794:835  string memory buffer = new string(length) */\n          swap1\n          pop\n            /* \"@openzeppelin/contracts/utils/Strings.sol\":955:983  add(buffer, add(32, length)) */\n          dup2\n          dup2\n          add\n            /* \"@openzeppelin/contracts/utils/Strings.sol\":971:973  32 */\n          0x20\n            /* \"@openzeppelin/contracts/utils/Strings.sol\":955:983  add(buffer, add(32, length)) */\n          add\n            /* \"@openzeppelin/contracts/utils/Strings.sol\":1010:1292  while (true) {... */\n        tag_27:\n          not(0x00)\n            /* \"@openzeppelin/contracts/utils/Strings.sol\":1041:1046  ptr-- */\n          add\n          shl(0x81, 0x181899199a1a9b1b9c1cb0b131b232b3)\n            /* \"@openzeppelin/contracts/utils/Strings.sol\":1175:1177  10 */\n          0x0a\n            /* \"@openzeppelin/contracts/utils/Strings.sol\":1164:1178  mod(value, 10) */\n          dup7\n          mod\n            /* \"@openzeppelin/contracts/utils/Strings.sol\":1159:1191  byte(mod(value, 10), HEX_DIGITS) */\n          byte\n            /* \"@openzeppelin/contracts/utils/Strings.sol\":1041:1046  ptr-- */\n          dup2\n            /* \"@openzeppelin/contracts/utils/Strings.sol\":1146:1192  mstore8(ptr, byte(mod(value, 10), HEX_DIGITS)) */\n          mstore8\n            /* \"@openzeppelin/contracts/utils/Strings.sol\":1236:1238  10 */\n          0x0a\n            /* \"@openzeppelin/contracts/utils/Strings.sol\":1227:1238  value /= 10 */\n          dup6\n          div\n          swap5\n          pop\n            /* \"@openzeppelin/contracts/utils/Strings.sol\":1256:1277  if (value == 0) break */\n          dup5\n            /* \"@openzeppelin/contracts/utils/Strings.sol\":1010:1292  while (true) {... */\n          tag_27\n            /* \"@openzeppelin/contracts/utils/Strings.sol\":1256:1277  if (value == 0) break */\n          jumpi\n          pop\n            /* \"@openzeppelin/contracts/utils/Strings.sol\":1312:1318  buffer */\n          swap4\n            /* \"@openzeppelin/contracts/utils/Strings.sol\":637:1335  function toString(uint256 value) internal pure returns (string memory) {... */\n          swap3\n          pop\n          pop\n          pop\n          jump\t// out\n            /* \"@openzeppelin/contracts/utils/math/Math.sol\":12214:13130  function log10(uint256 value) internal pure returns (uint256) {... */\n        tag_22:\n            /* \"@openzeppelin/contracts/utils/math/Math.sol\":12267:12274  uint256 */\n          0x00\n          dup1\n            /* \"@openzeppelin/contracts/utils/math/Math.sol\":12351:12359  10 ** 64 */\n          0x184f03e93ff9f4daa797ed6e38ed64bf6a1f010000000000000000\n            /* \"@openzeppelin/contracts/utils/math/Math.sol\":12342:12359  value >= 10 ** 64 */\n          dup4\n          lt\n            /* \"@openzeppelin/contracts/utils/math/Math.sol\":12338:12441  if (value >= 10 ** 64) {... */\n          tag_34\n          jumpi\n            /* \"@openzeppelin/contracts/utils/math/Math.sol\":12388:12396  10 ** 64 */\n          0x184f03e93ff9f4daa797ed6e38ed64bf6a1f010000000000000000\n            /* \"@openzeppelin/contracts/utils/math/Math.sol\":12379:12396  value /= 10 ** 64 */\n          dup4\n          div\n          swap3\n          pop\n            /* \"@openzeppelin/contracts/utils/math/Math.sol\":12424:12426  64 */\n          0x40\n            /* \"@openzeppelin/contracts/utils/math/Math.sol\":12414:12426  result += 64 */\n          add\n            /* \"@openzeppelin/contracts/utils/math/Math.sol\":12338:12441  if (value >= 10 ** 64) {... */\n        tag_34:\n            /* \"@openzeppelin/contracts/utils/math/Math.sol\":12467:12475  10 ** 32 */\n          0x04ee2d6d415b85acef8100000000\n            /* \"@openzeppelin/contracts/utils/math/Math.sol\":12458:12463  value */\n          dup4\n            /* \"@openzeppelin/contracts/utils/math/Math.sol\":12458:12475  value >= 10 ** 32 */\n          lt\n            /* \"@openzeppelin/contracts/utils/math/Math.sol\":12454:12557  if (value >= 10 ** 32) {... */\n          tag_37\n          jumpi\n            /* \"@openzeppelin/contracts/utils/math/Math.sol\":12504:12512  10 ** 32 */\n          0x04ee2d6d415b85acef8100000000\n            /* \"@openzeppelin/contracts/utils/math/Math.sol\":12495:12512  value /= 10 ** 32 */\n          dup4\n          div\n          swap3\n          pop\n            /* \"@openzeppelin/contracts/utils/math/Math.sol\":12540:12542  32 */\n          0x20\n            /* \"@openzeppelin/contracts/utils/math/Math.sol\":12530:12542  result += 32 */\n          add\n            /* \"@openzeppelin/contracts/utils/math/Math.sol\":12454:12557  if (value >= 10 ** 32) {... */\n        tag_37:\n            /* \"@openzeppelin/contracts/utils/math/Math.sol\":12583:12591  10 ** 16 */\n          0x2386f26fc10000\n            /* \"@openzeppelin/contracts/utils/math/Math.sol\":12574:12579  value */\n          dup4\n            /* \"@openzeppelin/contracts/utils/math/Math.sol\":12574:12591  value >= 10 ** 16 */\n          lt\n            /* \"@openzeppelin/contracts/utils/math/Math.sol\":12570:12673  if (value >= 10 ** 16) {... */\n          tag_40\n          jumpi\n            /* \"@openzeppelin/contracts/utils/math/Math.sol\":12620:12628  10 ** 16 */\n          0x2386f26fc10000\n            /* \"@openzeppelin/contracts/utils/math/Math.sol\":12611:12628  value /= 10 ** 16 */\n          dup4\n          div\n          swap3\n          pop\n            /* \"@openzeppelin/contracts/utils/math/Math.sol\":12656:12658  16 */\n          0x10\n            /* \"@openzeppelin/contracts/utils/math/Math.sol\":12646:12658  result += 16 */\n          add\n            /* \"@openzeppelin/contracts/utils/math/Math.sol\":12570:12673  if (value >= 10 ** 16) {... */\n        tag_40:\n            /* \"@openzeppelin/contracts/utils/math/Math.sol\":12699:12706  10 ** 8 */\n          0x05f5e100\n            /* \"@openzeppelin/contracts/utils/math/Math.sol\":12690:12695  value */\n          dup4\n            /* \"@openzeppelin/contracts/utils/math/Math.sol\":12690:12706  value >= 10 ** 8 */\n          lt\n            /* \"@openzeppelin/contracts/utils/math/Math.sol\":12686:12786  if (value >= 10 ** 8) {... */\n          tag_43\n          jumpi\n            /* \"@openzeppelin/contracts/utils/math/Math.sol\":12735:12742  10 ** 8 */\n          0x05f5e100\n            /* \"@openzeppelin/contracts/utils/math/Math.sol\":12726:12742  value /= 10 ** 8 */\n          dup4\n          div\n          swap3\n          pop\n            /* \"@openzeppelin/contracts/utils/math/Math.sol\":12770:12771  8 */\n          0x08\n            /* \"@openzeppelin/contracts/utils/math/Math.sol\":12760:12771  result += 8 */\n          add\n            /* \"@openzeppelin/contracts/utils/math/Math.sol\":12686:12786  if (value >= 10 ** 8) {... */\n        tag_43:\n            /* \"@openzeppelin/contracts/utils/math/Math.sol\":12812:12819  10 ** 4 */\n          0x2710\n            /* \"@openzeppelin/contracts/utils/math/Math.sol\":12803:12808  value */\n          dup4\n            /* \"@openzeppelin/contracts/utils/math/Math.sol\":12803:12819  value >= 10 ** 4 */\n          lt\n            /* \"@openzeppelin/contracts/utils/math/Math.sol\":12799:12899  if (value >= 10 ** 4) {... */\n          tag_46\n          jumpi\n            /* \"@openzeppelin/contracts/utils/math/Math.sol\":12848:12855  10 ** 4 */\n          0x2710\n            /* \"@openzeppelin/contracts/utils/math/Math.sol\":12839:12855  value /= 10 ** 4 */\n          dup4\n          div\n          swap3\n          pop\n            /* \"@openzeppelin/contracts/utils/math/Math.sol\":12883:12884  4 */\n          0x04\n            /* \"@openzeppelin/contracts/utils/math/Math.sol\":12873:12884  result += 4 */\n          add\n            /* \"@openzeppelin/contracts/utils/math/Math.sol\":12799:12899  if (value >= 10 ** 4) {... */\n        tag_46:\n            /* \"@openzeppelin/contracts/utils/math/Math.sol\":12925:12932  10 ** 2 */\n          0x64\n            /* \"@openzeppelin/contracts/utils/math/Math.sol\":12916:12921  value */\n          dup4\n            /* \"@openzeppelin/contracts/utils/math/Math.sol\":12916:12932  value >= 10 ** 2 */\n          lt\n            /* \"@openzeppelin/contracts/utils/math/Math.sol\":12912:13012  if (value >= 10 ** 2) {... */\n          tag_49\n          jumpi\n            /* \"@openzeppelin/contracts/utils/math/Math.sol\":12961:12968  10 ** 2 */\n          0x64\n            /* \"@openzeppelin/contracts/utils/math/Math.sol\":12952:12968  value /= 10 ** 2 */\n          dup4\n          div\n          swap3\n          pop\n            /* \"@openzeppelin/contracts/utils/math/Math.sol\":12996:12997  2 */\n          0x02\n            /* \"@openzeppelin/contracts/utils/math/Math.sol\":12986:12997  result += 2 */\n          add\n            /* \"@openzeppelin/contracts/utils/math/Math.sol\":12912:13012  if (value >= 10 ** 2) {... */\n        tag_49:\n            /* \"@openzeppelin/contracts/utils/math/Math.sol\":13038:13045  10 ** 1 */\n          0x0a\n            /* \"@openzeppelin/contracts/utils/math/Math.sol\":13029:13034  value */\n          dup4\n            /* \"@openzeppelin/contracts/utils/math/Math.sol\":13029:13045  value >= 10 ** 1 */\n          lt\n            /* \"@openzeppelin/contracts/utils/math/Math.sol\":13025:13091  if (value >= 10 ** 1) {... */\n          tag_52\n          jumpi\n            /* \"@openzeppelin/contracts/utils/math/Math.sol\":13075:13076  1 */\n          0x01\n            /* \"@openzeppelin/contracts/utils/math/Math.sol\":13065:13076  result += 1 */\n          add\n            /* \"@openzeppelin/contracts/utils/math/Math.sol\":13025:13091  if (value >= 10 ** 1) {... */\n        tag_52:\n            /* \"@openzeppelin/contracts/utils/math/Math.sol\":13117:13123  result */\n          swap3\n            /* \"@openzeppelin/contracts/utils/math/Math.sol\":12214:13130  function log10(uint256 value) internal pure returns (uint256) {... */\n          swap2\n          pop\n          pop\n          jump\t// out\n            /* \"Project.sol\":172:13678  contract Project {... */\n        tag_15:\n          dataSize(sub_1)\n          dup1\n          dataOffset(sub_1)\n          dup4\n          codecopy\n          add\n          swap1\n          jump\t// out\n            /* \"#utility.yul\":14:191   */\n        tag_53:\n            /* \"#utility.yul\":93:106   */\n          dup1\n          mload\n          sub(shl(0xa0, 0x01), 0x01)\n            /* \"#utility.yul\":135:166   */\n          dup2\n          and\n            /* \"#utility.yul\":125:167   */\n          dup2\n          eq\n            /* \"#utility.yul\":115:185   */\n          tag_63\n          jumpi\n            /* \"#utility.yul\":181:182   */\n          0x00\n            /* \"#utility.yul\":178:179   */\n          dup1\n            /* \"#utility.yul\":171:183   */\n          revert\n            /* \"#utility.yul\":115:185   */\n        tag_63:\n            /* \"#utility.yul\":14:191   */\n          swap2\n          swap1\n          pop\n          jump\t// out\n            /* \"#utility.yul\":196:323   */\n        tag_25:\n            /* \"#utility.yul\":257:267   */\n          0x4e487b71\n            /* \"#utility.yul\":252:255   */\n          0xe0\n            /* \"#utility.yul\":248:268   */\n          shl\n            /* \"#utility.yul\":245:246   */\n          0x00\n            /* \"#utility.yul\":238:269   */\n          mstore\n            /* \"#utility.yul\":288:292   */\n          0x41\n            /* \"#utility.yul\":285:286   */\n          0x04\n            /* \"#utility.yul\":278:293   */\n          mstore\n            /* \"#utility.yul\":312:316   */\n          0x24\n            /* \"#utility.yul\":309:310   */\n          0x00\n            /* \"#utility.yul\":302:317   */\n          revert\n            /* \"#utility.yul\":328:578   */\n        tag_54:\n            /* \"#utility.yul\":413:414   */\n          0x00\n            /* \"#utility.yul\":423:536   */\n        tag_66:\n            /* \"#utility.yul\":437:443   */\n          dup4\n            /* \"#utility.yul\":434:435   */\n          dup2\n            /* \"#utility.yul\":431:444   */\n          lt\n            /* \"#utility.yul\":423:536   */\n          iszero\n          tag_68\n          jumpi\n            /* \"#utility.yul\":513:524   */\n          dup2\n          dup2\n          add\n            /* \"#utility.yul\":507:525   */\n          mload\n            /* \"#utility.yul\":494:505   */\n          dup4\n          dup3\n          add\n            /* \"#utility.yul\":487:526   */\n          mstore\n            /* \"#utility.yul\":459:461   */\n          0x20\n            /* \"#utility.yul\":452:462   */\n          add\n            /* \"#utility.yul\":423:536   */\n          jump(tag_66)\n        tag_68:\n          pop\n          pop\n            /* \"#utility.yul\":570:571   */\n          0x00\n            /* \"#utility.yul\":552:568   */\n          swap2\n          add\n            /* \"#utility.yul\":545:572   */\n          mstore\n            /* \"#utility.yul\":328:578   */\n          jump\t// out\n            /* \"#utility.yul\":583:1282   */\n        tag_55:\n            /* \"#utility.yul\":637:642   */\n          0x00\n            /* \"#utility.yul\":690:693   */\n          dup3\n            /* \"#utility.yul\":683:687   */\n          0x1f\n            /* \"#utility.yul\":675:681   */\n          dup4\n            /* \"#utility.yul\":671:688   */\n          add\n            /* \"#utility.yul\":667:694   */\n          slt\n            /* \"#utility.yul\":657:712   */\n          tag_70\n          jumpi\n            /* \"#utility.yul\":708:709   */\n          0x00\n            /* \"#utility.yul\":705:706   */\n          dup1\n            /* \"#utility.yul\":698:710   */\n          revert\n            /* \"#utility.yul\":657:712   */\n        tag_70:\n            /* \"#utility.yul\":731:744   */\n          dup2\n          mload\n          sub(shl(0x40, 0x01), 0x01)\n            /* \"#utility.yul\":793:803   */\n          dup1\n          dup3\n          gt\n            /* \"#utility.yul\":790:826   */\n          iszero\n          tag_72\n          jumpi\n            /* \"#utility.yul\":806:824   */\n          tag_72\n          tag_25\n          jump\t// in\n        tag_72:\n            /* \"#utility.yul\":881:883   */\n          0x40\n            /* \"#utility.yul\":875:884   */\n          mload\n            /* \"#utility.yul\":849:851   */\n          0x1f\n            /* \"#utility.yul\":935:948   */\n          dup4\n          add\n          not(0x1f)\n            /* \"#utility.yul\":931:953   */\n          swap1\n          dup2\n          and\n            /* \"#utility.yul\":955:957   */\n          0x3f\n            /* \"#utility.yul\":927:958   */\n          add\n            /* \"#utility.yul\":923:963   */\n          and\n            /* \"#utility.yul\":911:964   */\n          dup2\n          add\n          swap1\n            /* \"#utility.yul\":979:997   */\n          dup3\n          dup3\n          gt\n            /* \"#utility.yul\":999:1021   */\n          dup2\n          dup4\n          lt\n            /* \"#utility.yul\":976:1022   */\n          or\n            /* \"#utility.yul\":973:1045   */\n          iszero\n          tag_74\n          jumpi\n            /* \"#utility.yul\":1025:1043   */\n          tag_74\n          tag_25\n          jump\t// in\n        tag_74:\n            /* \"#utility.yul\":1065:1075   */\n          dup2\n            /* \"#utility.yul\":1061:1063   */\n          0x40\n            /* \"#utility.yul\":1054:1076   */\n          mstore\n            /* \"#utility.yul\":1100:1102   */\n          dup4\n            /* \"#utility.yul\":1092:1098   */\n          dup2\n            /* \"#utility.yul\":1085:1103   */\n          mstore\n            /* \"#utility.yul\":1146:1149   */\n          dup7\n            /* \"#utility.yul\":1139:1143   */\n          0x20\n            /* \"#utility.yul\":1134:1136   */\n          dup6\n            /* \"#utility.yul\":1126:1132   */\n          dup9\n            /* \"#utility.yul\":1122:1137   */\n          add\n            /* \"#utility.yul\":1118:1144   */\n          add\n            /* \"#utility.yul\":1115:1150   */\n          gt\n            /* \"#utility.yul\":1112:1167   */\n          iszero\n          tag_75\n          jumpi\n            /* \"#utility.yul\":1163:1164   */\n          0x00\n            /* \"#utility.yul\":1160:1161   */\n          dup1\n            /* \"#utility.yul\":1153:1165   */\n          revert\n            /* \"#utility.yul\":1112:1167   */\n        tag_75:\n            /* \"#utility.yul\":1176:1252   */\n          tag_76\n            /* \"#utility.yul\":1249:1251   */\n          dup5\n            /* \"#utility.yul\":1242:1246   */\n          0x20\n            /* \"#utility.yul\":1234:1240   */\n          dup4\n            /* \"#utility.yul\":1230:1247   */\n          add\n            /* \"#utility.yul\":1223:1227   */\n          0x20\n            /* \"#utility.yul\":1215:1221   */\n          dup10\n            /* \"#utility.yul\":1211:1228   */\n          add\n            /* \"#utility.yul\":1176:1252   */\n          tag_54\n          jump\t// in\n        tag_76:\n            /* \"#utility.yul\":1270:1276   */\n          swap7\n            /* \"#utility.yul\":583:1282   */\n          swap6\n          pop\n          pop\n          pop\n          pop\n          pop\n          pop\n          jump\t// out\n            /* \"#utility.yul\":1287:2559   */\n        tag_3:\n            /* \"#utility.yul\":1468:1474   */\n          0x00\n            /* \"#utility.yul\":1476:1482   */\n          dup1\n            /* \"#utility.yul\":1484:1490   */\n          0x00\n            /* \"#utility.yul\":1492:1498   */\n          dup1\n            /* \"#utility.yul\":1500:1506   */\n          0x00\n            /* \"#utility.yul\":1508:1514   */\n          dup1\n            /* \"#utility.yul\":1516:1522   */\n          0x00\n            /* \"#utility.yul\":1524:1530   */\n          dup1\n            /* \"#utility.yul\":1532:1538   */\n          0x00\n            /* \"#utility.yul\":1540:1546   */\n          dup1\n            /* \"#utility.yul\":1593:1596   */\n          0x0140\n            /* \"#utility.yul\":1581:1590   */\n          dup12\n            /* \"#utility.yul\":1572:1579   */\n          dup14\n            /* \"#utility.yul\":1568:1591   */\n          sub\n            /* \"#utility.yul\":1564:1597   */\n          slt\n            /* \"#utility.yul\":1561:1614   */\n          iszero\n          tag_78\n          jumpi\n            /* \"#utility.yul\":1610:1611   */\n          0x00\n            /* \"#utility.yul\":1607:1608   */\n          dup1\n            /* \"#utility.yul\":1600:1612   */\n          revert\n            /* \"#utility.yul\":1561:1614   */\n        tag_78:\n            /* \"#utility.yul\":1639:1648   */\n          dup11\n            /* \"#utility.yul\":1633:1649   */\n          mload\n            /* \"#utility.yul\":1623:1649   */\n          swap10\n          pop\n            /* \"#utility.yul\":1668:1717   */\n          tag_79\n            /* \"#utility.yul\":1713:1715   */\n          0x20\n            /* \"#utility.yul\":1702:1711   */\n          dup13\n            /* \"#utility.yul\":1698:1716   */\n          add\n            /* \"#utility.yul\":1668:1717   */\n          tag_53\n          jump\t// in\n        tag_79:\n            /* \"#utility.yul\":1658:1717   */\n          swap9\n          pop\n            /* \"#utility.yul\":1736:1785   */\n          tag_80\n            /* \"#utility.yul\":1781:1783   */\n          0x40\n            /* \"#utility.yul\":1770:1779   */\n          dup13\n            /* \"#utility.yul\":1766:1784   */\n          add\n            /* \"#utility.yul\":1736:1785   */\n          tag_53\n          jump\t// in\n        tag_80:\n            /* \"#utility.yul\":1829:1831   */\n          0x60\n            /* \"#utility.yul\":1814:1832   */\n          dup13\n          add\n            /* \"#utility.yul\":1808:1833   */\n          mload\n            /* \"#utility.yul\":1726:1785   */\n          swap1\n          swap9\n          pop\n          sub(shl(0x40, 0x01), 0x01)\n            /* \"#utility.yul\":1882:1896   */\n          dup1\n          dup3\n          gt\n            /* \"#utility.yul\":1879:1913   */\n          iszero\n          tag_81\n          jumpi\n            /* \"#utility.yul\":1909:1910   */\n          0x00\n            /* \"#utility.yul\":1906:1907   */\n          dup1\n            /* \"#utility.yul\":1899:1911   */\n          revert\n            /* \"#utility.yul\":1879:1913   */\n        tag_81:\n            /* \"#utility.yul\":1932:1993   */\n          tag_82\n            /* \"#utility.yul\":1985:1992   */\n          dup15\n            /* \"#utility.yul\":1976:1982   */\n          dup4\n            /* \"#utility.yul\":1965:1974   */\n          dup16\n            /* \"#utility.yul\":1961:1983   */\n          add\n            /* \"#utility.yul\":1932:1993   */\n          tag_55\n          jump\t// in\n        tag_82:\n            /* \"#utility.yul\":1922:1993   */\n          swap9\n          pop\n            /* \"#utility.yul\":2033:2036   */\n          0x80\n            /* \"#utility.yul\":2022:2031   */\n          dup14\n            /* \"#utility.yul\":2018:2037   */\n          add\n            /* \"#utility.yul\":2012:2038   */\n          mload\n            /* \"#utility.yul\":2002:2038   */\n          swap8\n          pop\n            /* \"#utility.yul\":2078:2081   */\n          0xa0\n            /* \"#utility.yul\":2067:2076   */\n          dup14\n            /* \"#utility.yul\":2063:2082   */\n          add\n            /* \"#utility.yul\":2057:2083   */\n          mload\n            /* \"#utility.yul\":2047:2083   */\n          swap7\n          pop\n            /* \"#utility.yul\":2123:2126   */\n          0xc0\n            /* \"#utility.yul\":2112:2121   */\n          dup14\n            /* \"#utility.yul\":2108:2127   */\n          add\n            /* \"#utility.yul\":2102:2128   */\n          mload\n            /* \"#utility.yul\":2092:2128   */\n          swap6\n          pop\n            /* \"#utility.yul\":2174:2177   */\n          0xe0\n            /* \"#utility.yul\":2163:2172   */\n          dup14\n            /* \"#utility.yul\":2159:2178   */\n          add\n            /* \"#utility.yul\":2153:2179   */\n          mload\n            /* \"#utility.yul\":2137:2179   */\n          swap2\n          pop\n            /* \"#utility.yul\":2204:2206   */\n          dup1\n            /* \"#utility.yul\":2194:2202   */\n          dup3\n            /* \"#utility.yul\":2191:2207   */\n          gt\n            /* \"#utility.yul\":2188:2224   */\n          iszero\n          tag_83\n          jumpi\n            /* \"#utility.yul\":2220:2221   */\n          0x00\n            /* \"#utility.yul\":2217:2218   */\n          dup1\n            /* \"#utility.yul\":2210:2222   */\n          revert\n            /* \"#utility.yul\":2188:2224   */\n        tag_83:\n            /* \"#utility.yul\":2243:2306   */\n          tag_84\n            /* \"#utility.yul\":2298:2305   */\n          dup15\n            /* \"#utility.yul\":2287:2295   */\n          dup4\n            /* \"#utility.yul\":2276:2285   */\n          dup16\n            /* \"#utility.yul\":2272:2296   */\n          add\n            /* \"#utility.yul\":2243:2306   */\n          tag_55\n          jump\t// in\n        tag_84:\n            /* \"#utility.yul\":2233:2306   */\n          swap5\n          pop\n            /* \"#utility.yul\":2352:2355   */\n          0x0100\n            /* \"#utility.yul\":2341:2350   */\n          dup14\n            /* \"#utility.yul\":2337:2356   */\n          add\n            /* \"#utility.yul\":2331:2357   */\n          mload\n            /* \"#utility.yul\":2315:2357   */\n          swap2\n          pop\n            /* \"#utility.yul\":2382:2384   */\n          dup1\n            /* \"#utility.yul\":2372:2380   */\n          dup3\n            /* \"#utility.yul\":2369:2385   */\n          gt\n            /* \"#utility.yul\":2366:2402   */\n          iszero\n          tag_85\n          jumpi\n            /* \"#utility.yul\":2398:2399   */\n          0x00\n            /* \"#utility.yul\":2395:2396   */\n          dup1\n            /* \"#utility.yul\":2388:2400   */\n          revert\n            /* \"#utility.yul\":2366:2402   */\n        tag_85:\n          pop\n            /* \"#utility.yul\":2421:2484   */\n          tag_86\n            /* \"#utility.yul\":2476:2483   */\n          dup14\n            /* \"#utility.yul\":2465:2473   */\n          dup3\n            /* \"#utility.yul\":2454:2463   */\n          dup15\n            /* \"#utility.yul\":2450:2474   */\n          add\n            /* \"#utility.yul\":2421:2484   */\n          tag_55\n          jump\t// in\n        tag_86:\n            /* \"#utility.yul\":2411:2484   */\n          swap3\n          pop\n          pop\n            /* \"#utility.yul\":2503:2553   */\n          tag_87\n            /* \"#utility.yul\":2548:2551   */\n          0x0120\n            /* \"#utility.yul\":2537:2546   */\n          dup13\n            /* \"#utility.yul\":2533:2552   */\n          add\n            /* \"#utility.yul\":2503:2553   */\n          tag_53\n          jump\t// in\n        tag_87:\n            /* \"#utility.yul\":2493:2553   */\n          swap1\n          pop\n            /* \"#utility.yul\":1287:2559   */\n          swap3\n          swap6\n          swap9\n          swap12\n          swap2\n          swap5\n          swap8\n          swap11\n          pop\n          swap3\n          swap6\n          swap9\n          pop\n          jump\t// out\n            /* \"#utility.yul\":2564:2944   */\n        tag_56:\n            /* \"#utility.yul\":2643:2644   */\n          0x01\n            /* \"#utility.yul\":2639:2651   */\n          dup2\n          dup2\n          shr\n          swap1\n            /* \"#utility.yul\":2686:2698   */\n          dup3\n          and\n          dup1\n            /* \"#utility.yul\":2707:2768   */\n          tag_89\n          jumpi\n            /* \"#utility.yul\":2761:2765   */\n          0x7f\n            /* \"#utility.yul\":2753:2759   */\n          dup3\n            /* \"#utility.yul\":2749:2766   */\n          and\n            /* \"#utility.yul\":2739:2766   */\n          swap2\n          pop\n            /* \"#utility.yul\":2707:2768   */\n        tag_89:\n            /* \"#utility.yul\":2814:2816   */\n          0x20\n            /* \"#utility.yul\":2806:2812   */\n          dup3\n            /* \"#utility.yul\":2803:2817   */\n          lt\n            /* \"#utility.yul\":2783:2801   */\n          dup2\n            /* \"#utility.yul\":2780:2818   */\n          sub\n            /* \"#utility.yul\":2777:2938   */\n          tag_90\n          jumpi\n            /* \"#utility.yul\":2860:2870   */\n          0x4e487b71\n            /* \"#utility.yul\":2855:2858   */\n          0xe0\n            /* \"#utility.yul\":2851:2871   */\n          shl\n            /* \"#utility.yul\":2848:2849   */\n          0x00\n            /* \"#utility.yul\":2841:2872   */\n          mstore\n            /* \"#utility.yul\":2895:2899   */\n          0x22\n            /* \"#utility.yul\":2892:2893   */\n          0x04\n            /* \"#utility.yul\":2885:2900   */\n          mstore\n            /* \"#utility.yul\":2923:2927   */\n          0x24\n            /* \"#utility.yul\":2920:2921   */\n          0x00\n            /* \"#utility.yul\":2913:2928   */\n          revert\n            /* \"#utility.yul\":2777:2938   */\n        tag_90:\n          pop\n            /* \"#utility.yul\":2564:2944   */\n          swap2\n          swap1\n          pop\n          jump\t// out\n            /* \"#utility.yul\":3075:3593   */\n        tag_58:\n            /* \"#utility.yul\":3177:3179   */\n          0x1f\n            /* \"#utility.yul\":3172:3175   */\n          dup3\n            /* \"#utility.yul\":3169:3180   */\n          gt\n            /* \"#utility.yul\":3166:3587   */\n          iszero\n          tag_93\n          jumpi\n            /* \"#utility.yul\":3213:3218   */\n          dup1\n            /* \"#utility.yul\":3210:3211   */\n          0x00\n            /* \"#utility.yul\":3203:3219   */\n          mstore\n            /* \"#utility.yul\":3257:3261   */\n          0x20\n            /* \"#utility.yul\":3254:3255   */\n          0x00\n            /* \"#utility.yul\":3244:3262   */\n          keccak256\n            /* \"#utility.yul\":3327:3329   */\n          0x1f\n            /* \"#utility.yul\":3315:3325   */\n          dup5\n            /* \"#utility.yul\":3311:3330   */\n          add\n            /* \"#utility.yul\":3308:3309   */\n          0x05\n            /* \"#utility.yul\":3304:3331   */\n          shr\n            /* \"#utility.yul\":3298:3302   */\n          dup2\n            /* \"#utility.yul\":3294:3332   */\n          add\n            /* \"#utility.yul\":3363:3367   */\n          0x20\n            /* \"#utility.yul\":3351:3361   */\n          dup6\n            /* \"#utility.yul\":3348:3368   */\n          lt\n            /* \"#utility.yul\":3345:3392   */\n          iszero\n          tag_94\n          jumpi\n          pop\n            /* \"#utility.yul\":3386:3390   */\n          dup1\n            /* \"#utility.yul\":3345:3392   */\n        tag_94:\n            /* \"#utility.yul\":3441:3443   */\n          0x1f\n            /* \"#utility.yul\":3436:3439   */\n          dup5\n            /* \"#utility.yul\":3432:3444   */\n          add\n            /* \"#utility.yul\":3429:3430   */\n          0x05\n            /* \"#utility.yul\":3425:3445   */\n          shr\n            /* \"#utility.yul\":3419:3423   */\n          dup3\n            /* \"#utility.yul\":3415:3446   */\n          add\n            /* \"#utility.yul\":3405:3446   */\n          swap2\n          pop\n            /* \"#utility.yul\":3496:3577   */\n        tag_95:\n            /* \"#utility.yul\":3514:3516   */\n          dup2\n            /* \"#utility.yul\":3507:3512   */\n          dup2\n            /* \"#utility.yul\":3504:3517   */\n          lt\n            /* \"#utility.yul\":3496:3577   */\n          iszero\n          tag_97\n          jumpi\n            /* \"#utility.yul\":3573:3574   */\n          0x00\n            /* \"#utility.yul\":3559:3575   */\n          dup2\n          sstore\n            /* \"#utility.yul\":3540:3541   */\n          0x01\n            /* \"#utility.yul\":3529:3542   */\n          add\n            /* \"#utility.yul\":3496:3577   */\n          jump(tag_95)\n        tag_97:\n            /* \"#utility.yul\":3500:3503   */\n          pop\n          pop\n            /* \"#utility.yul\":3166:3587   */\n        tag_93:\n            /* \"#utility.yul\":3075:3593   */\n          pop\n          pop\n          pop\n          jump\t// out\n            /* \"#utility.yul\":3769:5114   */\n        tag_7:\n            /* \"#utility.yul\":3889:3899   */\n          dup2\n          mload\n          sub(shl(0x40, 0x01), 0x01)\n            /* \"#utility.yul\":3911:3941   */\n          dup2\n          gt\n            /* \"#utility.yul\":3908:3964   */\n          iszero\n          tag_101\n          jumpi\n            /* \"#utility.yul\":3944:3962   */\n          tag_101\n          tag_25\n          jump\t// in\n        tag_101:\n            /* \"#utility.yul\":3973:4070   */\n          tag_102\n            /* \"#utility.yul\":4063:4069   */\n          dup2\n            /* \"#utility.yul\":4023:4061   */\n          tag_103\n            /* \"#utility.yul\":4055:4059   */\n          dup5\n            /* \"#utility.yul\":4049:4060   */\n          sload\n            /* \"#utility.yul\":4023:4061   */\n          tag_56\n          jump\t// in\n        tag_103:\n            /* \"#utility.yul\":4017:4021   */\n          dup5\n            /* \"#utility.yul\":3973:4070   */\n          tag_58\n          jump\t// in\n        tag_102:\n            /* \"#utility.yul\":4125:4129   */\n          0x20\n          dup1\n            /* \"#utility.yul\":4182:4184   */\n          0x1f\n            /* \"#utility.yul\":4171:4185   */\n          dup4\n          gt\n            /* \"#utility.yul\":4199:4200   */\n          0x01\n            /* \"#utility.yul\":4194:4857   */\n          dup2\n          eq\n          tag_105\n          jumpi\n            /* \"#utility.yul\":4901:4902   */\n          0x00\n            /* \"#utility.yul\":4918:4924   */\n          dup5\n            /* \"#utility.yul\":4915:5004   */\n          iszero\n          tag_106\n          jumpi\n          pop\n            /* \"#utility.yul\":4970:4989   */\n          dup6\n          dup4\n          add\n            /* \"#utility.yul\":4964:4990   */\n          mload\n            /* \"#utility.yul\":4915:5004   */\n        tag_106:\n          not(0x00)\n            /* \"#utility.yul\":3726:3727   */\n          0x03\n            /* \"#utility.yul\":3722:3733   */\n          dup7\n          swap1\n          shl\n            /* \"#utility.yul\":3718:3742   */\n          shr\n            /* \"#utility.yul\":3714:3743   */\n          not\n            /* \"#utility.yul\":3704:3744   */\n          and\n            /* \"#utility.yul\":3750:3751   */\n          0x01\n            /* \"#utility.yul\":3746:3757   */\n          dup6\n          swap1\n          shl\n            /* \"#utility.yul\":3701:3758   */\n          or\n            /* \"#utility.yul\":5017:5098   */\n          dup6\n          sstore\n            /* \"#utility.yul\":4164:5108   */\n          jump(tag_104)\n            /* \"#utility.yul\":4194:4857   */\n        tag_105:\n            /* \"#utility.yul\":3022:3023   */\n          0x00\n            /* \"#utility.yul\":3015:3029   */\n          dup6\n          dup2\n          mstore\n            /* \"#utility.yul\":3059:3063   */\n          0x20\n            /* \"#utility.yul\":3046:3064   */\n          dup2\n          keccak256\n          not(0x1f)\n            /* \"#utility.yul\":4230:4250   */\n          dup7\n          and\n          swap2\n            /* \"#utility.yul\":4348:4584   */\n        tag_109:\n            /* \"#utility.yul\":4362:4369   */\n          dup3\n            /* \"#utility.yul\":4359:4360   */\n          dup2\n            /* \"#utility.yul\":4356:4370   */\n          lt\n            /* \"#utility.yul\":4348:4584   */\n          iszero\n          tag_111\n          jumpi\n            /* \"#utility.yul\":4451:4470   */\n          dup9\n          dup7\n          add\n            /* \"#utility.yul\":4445:4471   */\n          mload\n            /* \"#utility.yul\":4430:4472   */\n          dup3\n          sstore\n            /* \"#utility.yul\":4543:4570   */\n          swap5\n          dup5\n          add\n          swap5\n            /* \"#utility.yul\":4511:4512   */\n          0x01\n            /* \"#utility.yul\":4499:4513   */\n          swap1\n          swap2\n          add\n          swap1\n            /* \"#utility.yul\":4378:4397   */\n          dup5\n          add\n            /* \"#utility.yul\":4348:4584   */\n          jump(tag_109)\n        tag_111:\n            /* \"#utility.yul\":4352:4355   */\n          pop\n            /* \"#utility.yul\":4612:4618   */\n          dup6\n            /* \"#utility.yul\":4603:4610   */\n          dup3\n            /* \"#utility.yul\":4600:4619   */\n          lt\n            /* \"#utility.yul\":4597:4798   */\n          iszero\n          tag_112\n          jumpi\n            /* \"#utility.yul\":4673:4692   */\n          dup8\n          dup6\n          add\n            /* \"#utility.yul\":4667:4693   */\n          mload\n          not(0x00)\n            /* \"#utility.yul\":4756:4757   */\n          0x03\n            /* \"#utility.yul\":4752:4766   */\n          dup9\n          swap1\n          shl\n            /* \"#utility.yul\":4768:4771   */\n          0xf8\n            /* \"#utility.yul\":4748:4772   */\n          and\n            /* \"#utility.yul\":4744:4781   */\n          shr\n            /* \"#utility.yul\":4740:4782   */\n          not\n            /* \"#utility.yul\":4725:4783   */\n          and\n            /* \"#utility.yul\":4710:4784   */\n          dup2\n          sstore\n            /* \"#utility.yul\":4597:4798   */\n        tag_112:\n          pop\n          pop\n            /* \"#utility.yul\":4844:4845   */\n          0x01\n            /* \"#utility.yul\":4835:4841   */\n          dup5\n            /* \"#utility.yul\":4832:4833   */\n          0x01\n            /* \"#utility.yul\":4828:4842   */\n          shl\n            /* \"#utility.yul\":4824:4846   */\n          add\n            /* \"#utility.yul\":4818:4822   */\n          dup6\n            /* \"#utility.yul\":4811:4847   */\n          sstore\n            /* \"#utility.yul\":4164:5108   */\n        tag_104:\n          pop\n          pop\n          pop\n          pop\n            /* \"#utility.yul\":3769:5114   */\n          pop\n          pop\n          jump\t// out\n            /* \"#utility.yul\":5119:5615   */\n        tag_11:\n            /* \"#utility.yul\":5298:5301   */\n          0x00\n            /* \"#utility.yul\":5336:5342   */\n          dup4\n            /* \"#utility.yul\":5330:5343   */\n          mload\n            /* \"#utility.yul\":5352:5418   */\n          tag_114\n            /* \"#utility.yul\":5411:5417   */\n          dup2\n            /* \"#utility.yul\":5406:5409   */\n          dup5\n            /* \"#utility.yul\":5399:5403   */\n          0x20\n            /* \"#utility.yul\":5391:5397   */\n          dup9\n            /* \"#utility.yul\":5387:5404   */\n          add\n            /* \"#utility.yul\":5352:5418   */\n          tag_54\n          jump\t// in\n        tag_114:\n            /* \"#utility.yul\":5481:5494   */\n          dup4\n          mload\n            /* \"#utility.yul\":5440:5456   */\n          swap1\n          dup4\n          add\n          swap1\n            /* \"#utility.yul\":5503:5573   */\n          tag_115\n            /* \"#utility.yul\":5481:5494   */\n          dup2\n            /* \"#utility.yul\":5440:5456   */\n          dup4\n            /* \"#utility.yul\":5550:5554   */\n          0x20\n            /* \"#utility.yul\":5538:5555   */\n          dup9\n          add\n            /* \"#utility.yul\":5503:5573   */\n          tag_54\n          jump\t// in\n        tag_115:\n            /* \"#utility.yul\":5589:5609   */\n          add\n          swap5\n            /* \"#utility.yul\":5119:5615   */\n          swap4\n          pop\n          pop\n          pop\n          pop\n          jump\t// out\n            /* \"#utility.yul\":5620:5891   */\n        tag_60:\n            /* \"#utility.yul\":5662:5665   */\n          0x00\n            /* \"#utility.yul\":5700:5705   */\n          dup2\n            /* \"#utility.yul\":5694:5706   */\n          mload\n            /* \"#utility.yul\":5727:5733   */\n          dup1\n            /* \"#utility.yul\":5722:5725   */\n          dup5\n            /* \"#utility.yul\":5715:5734   */\n          mstore\n            /* \"#utility.yul\":5743:5819   */\n          tag_117\n            /* \"#utility.yul\":5812:5818   */\n          dup2\n            /* \"#utility.yul\":5805:5809   */\n          0x20\n            /* \"#utility.yul\":5800:5803   */\n          dup7\n            /* \"#utility.yul\":5796:5810   */\n          add\n            /* \"#utility.yul\":5789:5793   */\n          0x20\n            /* \"#utility.yul\":5782:5787   */\n          dup7\n            /* \"#utility.yul\":5778:5794   */\n          add\n            /* \"#utility.yul\":5743:5819   */\n          tag_54\n          jump\t// in\n        tag_117:\n            /* \"#utility.yul\":5873:5875   */\n          0x1f\n            /* \"#utility.yul\":5852:5867   */\n          add\n          not(0x1f)\n            /* \"#utility.yul\":5848:5877   */\n          and\n            /* \"#utility.yul\":5839:5878   */\n          swap3\n          swap1\n          swap3\n          add\n            /* \"#utility.yul\":5880:5884   */\n          0x20\n            /* \"#utility.yul\":5835:5885   */\n          add\n          swap3\n            /* \"#utility.yul\":5620:5891   */\n          swap2\n          pop\n          pop\n          jump\t// out\n            /* \"#utility.yul\":5896:6376   */\n        tag_17:\n          sub(shl(0xa0, 0x01), 0x01)\n            /* \"#utility.yul\":6121:6153   */\n          dup5\n          and\n            /* \"#utility.yul\":6103:6154   */\n          dup2\n          mstore\n            /* \"#utility.yul\":6190:6192   */\n          0x60\n            /* \"#utility.yul\":6185:6187   */\n          0x20\n            /* \"#utility.yul\":6170:6188   */\n          dup3\n          add\n            /* \"#utility.yul\":6163:6193   */\n          dup2\n          swap1\n          mstore\n          0x00\n          swap1\n            /* \"#utility.yul\":6216:6261   */\n          tag_119\n          swap1\n            /* \"#utility.yul\":6242:6260   */\n          dup4\n          add\n            /* \"#utility.yul\":6234:6240   */\n          dup6\n            /* \"#utility.yul\":6216:6261   */\n          tag_60\n          jump\t// in\n        tag_119:\n            /* \"#utility.yul\":6309:6318   */\n          dup3\n            /* \"#utility.yul\":6301:6307   */\n          dup2\n            /* \"#utility.yul\":6297:6319   */\n          sub\n            /* \"#utility.yul\":6292:6294   */\n          0x40\n            /* \"#utility.yul\":6281:6290   */\n          dup5\n            /* \"#utility.yul\":6277:6295   */\n          add\n            /* \"#utility.yul\":6270:6320   */\n          mstore\n            /* \"#utility.yul\":6337:6370   */\n          tag_76\n            /* \"#utility.yul\":6363:6369   */\n          dup2\n            /* \"#utility.yul\":6355:6361   */\n          dup6\n            /* \"#utility.yul\":6337:6370   */\n          tag_60\n          jump\t// in\n            /* \"#utility.yul\":6381:6508   */\n        tag_61:\n            /* \"Project.sol\":172:13678  contract Project {... */\n          dataSize(sub_0)\n          dup1\n          dataOffset(sub_0)\n          0x00\n          codecopy\n          0x00\n          return\n        stop\n\n        sub_0: assembly {\n                /* \"Project.sol\":172:13678  contract Project {... */\n              mstore(0x40, 0x80)\n              jumpi(tag_1, lt(calldatasize, 0x04))\n              shr(0xe0, calldataload(0x00))\n              dup1\n              0x0b49351c\n              eq\n              tag_2\n              jumpi\n              dup1\n              0x12424e3f\n              eq\n              tag_3\n              jumpi\n              dup1\n              0x1f6d4942\n              eq\n              tag_4\n              jumpi\n              dup1\n              0x200d2ed2\n              eq\n              tag_5\n              jumpi\n              dup1\n              0x21eff7fc\n              eq\n              tag_6\n              jumpi\n              dup1\n              0x27b0229e\n              eq\n              tag_7\n              jumpi\n              dup1\n              0x29dcb0cf\n              eq\n              tag_8\n              jumpi\n              dup1\n              0x2b7d782f\n              eq\n              tag_9\n              jumpi\n              dup1\n              0x3ccfd60b\n              eq\n              tag_10\n              jumpi\n              dup1\n              0x4051ddac\n              eq\n              tag_11\n              jumpi\n              dup1\n              0x47ccca02\n              eq\n              tag_12\n              jumpi\n              dup1\n              0x66d003ac\n              eq\n              tag_13\n              jumpi\n              dup1\n              0x79599f96\n              eq\n              tag_14\n              jumpi\n              dup1\n              0x8da5cb5b\n              eq\n              tag_15\n              jumpi\n              dup1\n              0x8dd08557\n              eq\n              tag_16\n              jumpi\n              dup1\n              0x937e09b1\n              eq\n              tag_17\n              jumpi\n              dup1\n              0xaa3ec0a9\n              eq\n              tag_18\n              jumpi\n              dup1\n              0xb82c86d6\n              eq\n              tag_19\n              jumpi\n              dup1\n              0xc00007b0\n              eq\n              tag_20\n              jumpi\n              dup1\n              0xc438b40f\n              eq\n              tag_21\n              jumpi\n              dup1\n              0xc5451232\n              eq\n              tag_22\n              jumpi\n              dup1\n              0xd7bb99ba\n              eq\n              tag_23\n              jumpi\n              dup1\n              0xda076a87\n              eq\n              tag_24\n              jumpi\n              dup1\n              0xe89e4ed6\n              eq\n              tag_25\n              jumpi\n              dup1\n              0xea8a1af0\n              eq\n              tag_26\n              jumpi\n              dup1\n              0xeb599e43\n              eq\n              tag_27\n              jumpi\n              dup1\n              0xed556ce2\n              eq\n              tag_28\n              jumpi\n            tag_1:\n              0x00\n              dup1\n              revert\n                /* \"Project.sol\":8203:8301  function getMilestonesCount() public view returns (uint) {... */\n            tag_2:\n              callvalue\n              dup1\n              iszero\n              tag_29\n              jumpi\n              0x00\n              dup1\n              revert\n            tag_29:\n              pop\n                /* \"Project.sol\":8277:8287  milestones */\n              0x13\n                /* \"Project.sol\":8277:8294  milestones.length */\n              sload\n                /* \"Project.sol\":8203:8301  function getMilestonesCount() public view returns (uint) {... */\n            tag_30:\n              mload(0x40)\n                /* \"#utility.yul\":160:185   */\n              swap1\n              dup2\n              mstore\n                /* \"#utility.yul\":148:150   */\n              0x20\n                /* \"#utility.yul\":133:151   */\n              add\n                /* \"Project.sol\":8203:8301  function getMilestonesCount() public view returns (uint) {... */\n            tag_32:\n              mload(0x40)\n              dup1\n              swap2\n              sub\n              swap1\n              return\n                /* \"Project.sol\":3795:5065  function approve() public {... */\n            tag_3:\n              callvalue\n              dup1\n              iszero\n              tag_34\n              jumpi\n              0x00\n              dup1\n              revert\n            tag_34:\n              pop\n              tag_35\n              tag_36\n              jump\t// in\n            tag_35:\n              stop\n                /* \"Project.sol\":484:528  mapping(address => uint) public contributors */\n            tag_4:\n              callvalue\n              dup1\n              iszero\n              tag_37\n              jumpi\n              0x00\n              dup1\n              revert\n            tag_37:\n              pop\n              tag_30\n              tag_39\n              calldatasize\n              0x04\n              tag_40\n              jump\t// in\n            tag_39:\n              mstore(0x20, 0x09)\n              0x00\n              swap1\n              dup2\n              mstore\n              0x40\n              swap1\n              keccak256\n              sload\n              dup2\n              jump\n                /* \"Project.sol\":557:583  Model.Status public status */\n            tag_5:\n              callvalue\n              dup1\n              iszero\n              tag_43\n              jumpi\n              0x00\n              dup1\n              revert\n            tag_43:\n              pop\n              sload(0x0a)\n              sload(0x0b)\n              sload(0x0c)\n              sload(0x0e)\n              sload(0x0f)\n              sload(0x11)\n              sload(0x12)\n              tag_44\n              swap7\n              0xff\n              swap1\n              dup2\n              and\n              swap7\n              swap6\n              swap5\n              dup2\n              and\n              swap4\n              swap3\n              and\n              swap1\n              dup8\n              jump\n            tag_44:\n              0x40\n              dup1\n              mload\n                /* \"#utility.yul\":983:997   */\n              swap8\n              iszero\n                /* \"#utility.yul\":976:998   */\n              iszero\n                /* \"#utility.yul\":958:999   */\n              dup9\n              mstore\n                /* \"#utility.yul\":1030:1032   */\n              0x20\n                /* \"#utility.yul\":1015:1033   */\n              dup9\n              add\n                /* \"#utility.yul\":1008:1042   */\n              swap7\n              swap1\n              swap7\n              mstore\n                /* \"#utility.yul\":1058:1076   */\n              swap5\n              dup7\n              add\n                /* \"#utility.yul\":1051:1085   */\n              swap4\n              swap1\n              swap4\n              mstore\n                /* \"#utility.yul\":1128:1142   */\n              swap1\n              iszero\n                /* \"#utility.yul\":1121:1143   */\n              iszero\n                /* \"#utility.yul\":1116:1118   */\n              0x60\n                /* \"#utility.yul\":1101:1119   */\n              dup6\n              add\n                /* \"#utility.yul\":1094:1144   */\n              mstore\n                /* \"#utility.yul\":1175:1178   */\n              0x80\n                /* \"#utility.yul\":1160:1179   */\n              dup5\n              add\n                /* \"#utility.yul\":1153:1188   */\n              mstore\n                /* \"#utility.yul\":1232:1246   */\n              iszero\n                /* \"#utility.yul\":1225:1247   */\n              iszero\n                /* \"#utility.yul\":1219:1222   */\n              0xa0\n                /* \"#utility.yul\":1204:1223   */\n              dup4\n              add\n                /* \"#utility.yul\":1197:1248   */\n              mstore\n                /* \"#utility.yul\":1279:1282   */\n              0xc0\n                /* \"#utility.yul\":1264:1283   */\n              dup3\n              add\n                /* \"#utility.yul\":1257:1292   */\n              mstore\n                /* \"#utility.yul\":945:948   */\n              0xe0\n                /* \"#utility.yul\":930:949   */\n              add\n                /* \"Project.sol\":557:583  Model.Status public status */\n              tag_32\n                /* \"#utility.yul\":661:1298   */\n              jump\n                /* \"Project.sol\":2921:3037  function getContribution(address _address) public view returns (uint) {... */\n            tag_6:\n              callvalue\n              dup1\n              iszero\n              tag_48\n              jumpi\n              0x00\n              dup1\n              revert\n            tag_48:\n              pop\n              tag_30\n              tag_50\n              calldatasize\n              0x04\n              tag_40\n              jump\t// in\n            tag_50:\n              sub(shl(0xa0, 0x01), 0x01)\n                /* \"Project.sol\":3008:3030  contributors[_address] */\n              and\n                /* \"Project.sol\":2985:2989  uint */\n              0x00\n                /* \"Project.sol\":3008:3030  contributors[_address] */\n              swap1\n              dup2\n              mstore\n                /* \"Project.sol\":3008:3020  contributors */\n              0x09\n                /* \"Project.sol\":3008:3030  contributors[_address] */\n              0x20\n              mstore\n              0x40\n              swap1\n              keccak256\n              sload\n              swap1\n                /* \"Project.sol\":2921:3037  function getContribution(address _address) public view returns (uint) {... */\n              jump\n                /* \"Project.sol\":5071:5808  function reward(string memory tokenURI) public {... */\n            tag_7:\n              callvalue\n              dup1\n              iszero\n              tag_53\n              jumpi\n              0x00\n              dup1\n              revert\n            tag_53:\n              pop\n              tag_35\n              tag_55\n              calldatasize\n              0x04\n              tag_56\n              jump\t// in\n            tag_55:\n              tag_57\n              jump\t// in\n                /* \"Project.sol\":410:430  uint public deadline */\n            tag_8:\n              callvalue\n              dup1\n              iszero\n              tag_58\n              jumpi\n              0x00\n              dup1\n              revert\n            tag_58:\n              pop\n              tag_30\n              sload(0x07)\n              dup2\n              jump\n                /* \"Project.sol\":8307:8806  function createMilestones(... */\n            tag_9:\n              callvalue\n              dup1\n              iszero\n              tag_62\n              jumpi\n              0x00\n              dup1\n              revert\n            tag_62:\n              pop\n              tag_35\n              tag_64\n              calldatasize\n              0x04\n              tag_65\n              jump\t// in\n            tag_64:\n              tag_66\n              jump\t// in\n                /* \"Project.sol\":5814:6574  function withdraw() public onlyRecipient {... */\n            tag_10:\n              callvalue\n              dup1\n              iszero\n              tag_67\n              jumpi\n              0x00\n              dup1\n              revert\n            tag_67:\n              pop\n              tag_35\n              tag_69\n              jump\t// in\n                /* \"Project.sol\":1701:2502  function getSummary()... */\n            tag_11:\n              callvalue\n              dup1\n              iszero\n              tag_70\n              jumpi\n              0x00\n              dup1\n              revert\n            tag_70:\n              pop\n              tag_71\n              tag_72\n              jump\t// in\n            tag_71:\n              mload(0x40)\n              tag_32\n              swap15\n              swap14\n              swap13\n              swap12\n              swap11\n              swap10\n              swap9\n              swap8\n              swap7\n              swap6\n              swap5\n              swap4\n              swap3\n              swap2\n              swap1\n              tag_74\n              jump\t// in\n                /* \"Project.sol\":676:697  ProjectNFT public nft */\n            tag_12:\n              callvalue\n              dup1\n              iszero\n              tag_75\n              jumpi\n              0x00\n              dup1\n              revert\n            tag_75:\n              pop\n              sload(0x15)\n              tag_76\n              swap1\n              sub(shl(0xa0, 0x01), 0x01)\n              and\n              dup2\n              jump\n            tag_76:\n              mload(0x40)\n              sub(shl(0xa0, 0x01), 0x01)\n                /* \"#utility.yul\":7686:7718   */\n              swap1\n              swap2\n              and\n                /* \"#utility.yul\":7668:7719   */\n              dup2\n              mstore\n                /* \"#utility.yul\":7656:7658   */\n              0x20\n                /* \"#utility.yul\":7641:7659   */\n              add\n                /* \"Project.sol\":676:697  ProjectNFT public nft */\n              tag_32\n                /* \"#utility.yul\":7502:7725   */\n              jump\n                /* \"Project.sol\":276:308  address payable public recipient */\n            tag_13:\n              callvalue\n              dup1\n              iszero\n              tag_80\n              jumpi\n              0x00\n              dup1\n              revert\n            tag_80:\n              pop\n              sload(0x03)\n              tag_76\n              swap1\n              sub(shl(0xa0, 0x01), 0x01)\n              and\n              dup2\n              jump\n                /* \"Project.sol\":7507:8104  function expire() public {... */\n            tag_14:\n              callvalue\n              dup1\n              iszero\n              tag_85\n              jumpi\n              0x00\n              dup1\n              revert\n            tag_85:\n              pop\n              tag_35\n              tag_87\n              jump\t// in\n                /* \"Project.sol\":216:236  address public owner */\n            tag_15:\n              callvalue\n              dup1\n              iszero\n              tag_88\n              jumpi\n              0x00\n              dup1\n              revert\n            tag_88:\n              pop\n              sload(0x01)\n              tag_76\n              swap1\n              sub(shl(0xa0, 0x01), 0x01)\n              and\n              dup2\n              jump\n                /* \"Project.sol\":441:478  address[] public contributorAddresses */\n            tag_16:\n              callvalue\n              dup1\n              iszero\n              tag_93\n              jumpi\n              0x00\n              dup1\n              revert\n            tag_93:\n              pop\n              tag_76\n              tag_95\n              calldatasize\n              0x04\n              tag_96\n              jump\t// in\n            tag_95:\n              tag_97\n              jump\t// in\n                /* \"Project.sol\":337:368  uint public minimumContribution */\n            tag_17:\n              callvalue\n              dup1\n              iszero\n              tag_99\n              jumpi\n              0x00\n              dup1\n              revert\n            tag_99:\n              pop\n              tag_30\n              sload(0x05)\n              dup2\n              jump\n                /* \"Project.sol\":314:331  string public cid */\n            tag_18:\n              callvalue\n              dup1\n              iszero\n              tag_103\n              jumpi\n              0x00\n              dup1\n              revert\n            tag_103:\n              pop\n              tag_104\n              tag_105\n              jump\t// in\n            tag_104:\n              mload(0x40)\n              tag_32\n              swap2\n              swap1\n              tag_107\n              jump\t// in\n                /* \"Project.sol\":374:404  uint public targetContribution */\n            tag_19:\n              callvalue\n              dup1\n              iszero\n              tag_108\n              jumpi\n              0x00\n              dup1\n              revert\n            tag_108:\n              pop\n              tag_30\n              sload(0x06)\n              dup2\n              jump\n                /* \"Project.sol\":2630:2915  function getReward(address _address) public view returns (uint256, string memory) {... */\n            tag_20:\n              callvalue\n              dup1\n              iszero\n              tag_112\n              jumpi\n              0x00\n              dup1\n              revert\n            tag_112:\n              pop\n              tag_113\n              tag_114\n              calldatasize\n              0x04\n              tag_40\n              jump\t// in\n            tag_114:\n              tag_115\n              jump\t// in\n            tag_113:\n              mload(0x40)\n              tag_32\n              swap3\n              swap2\n              swap1\n              tag_117\n              jump\t// in\n                /* \"Project.sol\":9652:11219  function approveMilestone(uint index) public {... */\n            tag_21:\n              callvalue\n              dup1\n              iszero\n              tag_118\n              jumpi\n              0x00\n              dup1\n              revert\n            tag_118:\n              pop\n              tag_35\n              tag_120\n              calldatasize\n              0x04\n              tag_96\n              jump\t// in\n            tag_120:\n              tag_121\n              jump\t// in\n                /* \"Project.sol\":8812:9646  function createMilestone(... */\n            tag_22:\n              callvalue\n              dup1\n              iszero\n              tag_122\n              jumpi\n              0x00\n              dup1\n              revert\n            tag_122:\n              pop\n              tag_35\n              tag_124\n              calldatasize\n              0x04\n              tag_125\n              jump\t// in\n            tag_124:\n              tag_126\n              jump\t// in\n                /* \"Project.sol\":3043:3789  function contribute() public payable {... */\n            tag_23:\n              tag_35\n              tag_128\n              jump\t// in\n                /* \"Project.sol\":2508:2624  function getApproval(address _address) public view returns (uint) {... */\n            tag_24:\n              callvalue\n              dup1\n              iszero\n              tag_129\n              jumpi\n              0x00\n              dup1\n              revert\n            tag_129:\n              pop\n              tag_30\n              tag_131\n              calldatasize\n              0x04\n              tag_40\n              jump\t// in\n            tag_131:\n              sub(shl(0xa0, 0x01), 0x01)\n                /* \"Project.sol\":2591:2617  status.approvals[_address] */\n              and\n                /* \"Project.sol\":2568:2572  uint */\n              0x00\n                /* \"Project.sol\":2591:2617  status.approvals[_address] */\n              swap1\n              dup2\n              mstore\n                /* \"Project.sol\":2591:2607  status.approvals */\n              0x0d\n                /* \"Project.sol\":2591:2617  status.approvals[_address] */\n              0x20\n              mstore\n              0x40\n              swap1\n              keccak256\n              sload\n              swap1\n                /* \"Project.sol\":2508:2624  function getApproval(address _address) public view returns (uint) {... */\n              jump\n                /* \"Project.sol\":589:624  Model.Milestone[] public milestones */\n            tag_25:\n              callvalue\n              dup1\n              iszero\n              tag_134\n              jumpi\n              0x00\n              dup1\n              revert\n            tag_134:\n              pop\n              tag_135\n              tag_136\n              calldatasize\n              0x04\n              tag_96\n              jump\t// in\n            tag_136:\n              tag_137\n              jump\t// in\n            tag_135:\n              mload(0x40)\n              tag_32\n              swap4\n              swap3\n              swap2\n              swap1\n              tag_139\n              jump\t// in\n                /* \"Project.sol\":7056:7501  function cancel() public restricted {... */\n            tag_26:\n              callvalue\n              dup1\n              iszero\n              tag_140\n              jumpi\n              0x00\n              dup1\n              revert\n            tag_140:\n              pop\n              tag_35\n              tag_142\n              jump\t// in\n                /* \"Project.sol\":11225:12398  function withdrawMilestone(uint index) public restricted {... */\n            tag_27:\n              callvalue\n              dup1\n              iszero\n              tag_143\n              jumpi\n              0x00\n              dup1\n              revert\n            tag_143:\n              pop\n              tag_35\n              tag_145\n              calldatasize\n              0x04\n              tag_96\n              jump\t// in\n            tag_145:\n              tag_146\n              jump\t// in\n                /* \"Project.sol\":630:669  Model.Status[] public milestoneStatuses */\n            tag_28:\n              callvalue\n              dup1\n              iszero\n              tag_147\n              jumpi\n              0x00\n              dup1\n              revert\n            tag_147:\n              pop\n              tag_44\n              tag_149\n              calldatasize\n              0x04\n              tag_96\n              jump\t// in\n            tag_149:\n              tag_150\n              jump\t// in\n                /* \"Project.sol\":3795:5065  function approve() public {... */\n            tag_36:\n                /* \"Project.sol\":3948:3966  targetContribution */\n              sload(0x06)\n                /* \"Project.sol\":3923:3944  address(this).balance */\n              selfbalance\n                /* \"Project.sol\":3923:3966  address(this).balance >= targetContribution */\n              lt\n              iszero\n                /* \"Project.sol\":3915:4002  require(address(this).balance >= targetContribution, \"Target contribution not reached\") */\n              tag_154\n              jumpi\n              mload(0x40)\n              shl(0xe5, 0x461bcd)\n              dup2\n              mstore\n                /* \"#utility.yul\":9948:9950   */\n              0x20\n                /* \"Project.sol\":3915:4002  require(address(this).balance >= targetContribution, \"Target contribution not reached\") */\n              0x04\n              dup3\n              add\n                /* \"#utility.yul\":9930:9951   */\n              mstore\n                /* \"#utility.yul\":9987:9989   */\n              0x1f\n                /* \"#utility.yul\":9967:9985   */\n              0x24\n              dup3\n              add\n                /* \"#utility.yul\":9960:9990   */\n              mstore\n                /* \"#utility.yul\":10026:10059   */\n              0x54617267657420636f6e747269627574696f6e206e6f74207265616368656400\n                /* \"#utility.yul\":10006:10024   */\n              0x44\n              dup3\n              add\n                /* \"#utility.yul\":9999:10060   */\n              mstore\n                /* \"#utility.yul\":10077:10095   */\n              0x64\n              add\n                /* \"Project.sol\":3915:4002  require(address(this).balance >= targetContribution, \"Target contribution not reached\") */\n            tag_155:\n              mload(0x40)\n              dup1\n              swap2\n              sub\n              swap1\n              revert\n            tag_154:\n                /* \"Project.sol\":4096:4106  msg.sender */\n              caller\n                /* \"Project.sol\":4110:4111  0 */\n              0x00\n                /* \"Project.sol\":4083:4107  contributors[msg.sender] */\n              swap1\n              dup2\n              mstore\n                /* \"Project.sol\":4083:4095  contributors */\n              0x09\n                /* \"Project.sol\":4083:4107  contributors[msg.sender] */\n              0x20\n              mstore\n              0x40\n              swap1\n              keccak256\n              sload\n                /* \"Project.sol\":4075:4133  require(contributors[msg.sender] > 0, \"Not a contributor\") */\n              tag_157\n              jumpi\n              mload(0x40)\n              shl(0xe5, 0x461bcd)\n              dup2\n              mstore\n              0x04\n              add\n              tag_155\n              swap1\n              tag_159\n              jump\t// in\n            tag_157:\n                /* \"Project.sol\":4235:4245  msg.sender */\n              caller\n                /* \"Project.sol\":4218:4246  status.approvals[msg.sender] */\n              0x00\n              swap1\n              dup2\n              mstore\n                /* \"Project.sol\":4218:4234  status.approvals */\n              0x0d\n                /* \"Project.sol\":4218:4246  status.approvals[msg.sender] */\n              0x20\n              mstore\n              0x40\n              swap1\n              keccak256\n              sload\n                /* \"Project.sol\":4218:4251  status.approvals[msg.sender] == 0 */\n              iszero\n                /* \"Project.sol\":4210:4272  require(status.approvals[msg.sender] == 0, \"Already approved\") */\n              tag_160\n              jumpi\n              mload(0x40)\n              shl(0xe5, 0x461bcd)\n              dup2\n              mstore\n                /* \"#utility.yul\":10654:10656   */\n              0x20\n                /* \"Project.sol\":4210:4272  require(status.approvals[msg.sender] == 0, \"Already approved\") */\n              0x04\n              dup3\n              add\n                /* \"#utility.yul\":10636:10657   */\n              mstore\n                /* \"#utility.yul\":10693:10695   */\n              0x10\n                /* \"#utility.yul\":10673:10691   */\n              0x24\n              dup3\n              add\n                /* \"#utility.yul\":10666:10696   */\n              mstore\n              shl(0x82, 0x105b1c9958591e48185c1c1c9bdd9959)\n                /* \"#utility.yul\":10712:10730   */\n              0x44\n              dup3\n              add\n                /* \"#utility.yul\":10705:10751   */\n              mstore\n                /* \"#utility.yul\":10768:10786   */\n              0x64\n              add\n                /* \"Project.sol\":4210:4272  require(status.approvals[msg.sender] == 0, \"Already approved\") */\n              tag_155\n                /* \"#utility.yul\":10452:10792   */\n              jump\n                /* \"Project.sol\":4210:4272  require(status.approvals[msg.sender] == 0, \"Already approved\") */\n            tag_160:\n                /* \"Project.sol\":4374:4384  milestones */\n              0x13\n                /* \"Project.sol\":4374:4391  milestones.length */\n              sload\n                /* \"Project.sol\":4374:4395  milestones.length > 0 */\n              iszero\n                /* \"Project.sol\":4370:4587  if (milestones.length > 0) {... */\n              tag_163\n              jumpi\n                /* \"Project.sol\":4416:4422  uint i */\n              0x00\n                /* \"Project.sol\":4411:4577  for (uint i = 0; i < milestoneStatuses.length; i++) {... */\n            tag_164:\n                /* \"Project.sol\":4432:4449  milestoneStatuses */\n              0x14\n                /* \"Project.sol\":4432:4456  milestoneStatuses.length */\n              sload\n                /* \"Project.sol\":4428:4456  i < milestoneStatuses.length */\n              dup2\n              lt\n                /* \"Project.sol\":4411:4577  for (uint i = 0; i < milestoneStatuses.length; i++) {... */\n              iszero\n              tag_165\n              jumpi\n                /* \"Project.sol\":4489:4506  milestoneStatuses */\n              0x14\n                /* \"Project.sol\":4507:4508  i */\n              dup2\n                /* \"Project.sol\":4489:4509  milestoneStatuses[i] */\n              dup2\n              sload\n              dup2\n              lt\n              tag_168\n              jumpi\n              tag_168\n              tag_169\n              jump\t// in\n            tag_168:\n              0x00\n              swap2\n              dup3\n              mstore\n              0x20\n              swap1\n              swap2\n              keccak256\n                /* \"Project.sol\":4489:4519  milestoneStatuses[i].completed */\n              0x04\n                /* \"Project.sol\":4489:4509  milestoneStatuses[i] */\n              0x09\n              swap1\n              swap3\n              mul\n              add\n                /* \"Project.sol\":4489:4519  milestoneStatuses[i].completed */\n              add\n              sload\n              0xff\n              and\n                /* \"Project.sol\":4481:4562  require(milestoneStatuses[i].completed, \"All milestones must be completed first\") */\n              tag_171\n              jumpi\n              mload(0x40)\n              shl(0xe5, 0x461bcd)\n              dup2\n              mstore\n                /* \"#utility.yul\":11131:11133   */\n              0x20\n                /* \"Project.sol\":4481:4562  require(milestoneStatuses[i].completed, \"All milestones must be completed first\") */\n              0x04\n              dup3\n              add\n                /* \"#utility.yul\":11113:11134   */\n              mstore\n                /* \"#utility.yul\":11170:11172   */\n              0x26\n                /* \"#utility.yul\":11150:11168   */\n              0x24\n              dup3\n              add\n                /* \"#utility.yul\":11143:11173   */\n              mstore\n                /* \"#utility.yul\":11209:11243   */\n              0x416c6c206d696c6573746f6e6573206d75737420626520636f6d706c65746564\n                /* \"#utility.yul\":11189:11207   */\n              0x44\n              dup3\n              add\n                /* \"#utility.yul\":11182:11244   */\n              mstore\n              shl(0xd2, 0x08199a5c9cdd)\n                /* \"#utility.yul\":11260:11278   */\n              0x64\n              dup3\n              add\n                /* \"#utility.yul\":11253:11289   */\n              mstore\n                /* \"#utility.yul\":11306:11325   */\n              0x84\n              add\n                /* \"Project.sol\":4481:4562  require(milestoneStatuses[i].completed, \"All milestones must be completed first\") */\n              tag_155\n                /* \"#utility.yul\":10929:11331   */\n              jump\n                /* \"Project.sol\":4481:4562  require(milestoneStatuses[i].completed, \"All milestones must be completed first\") */\n            tag_171:\n                /* \"Project.sol\":4458:4461  i++ */\n              0x01\n              add\n                /* \"Project.sol\":4411:4577  for (uint i = 0; i < milestoneStatuses.length; i++) {... */\n              jump(tag_164)\n            tag_165:\n              pop\n                /* \"Project.sol\":4370:4587  if (milestones.length > 0) {... */\n            tag_163:\n                /* \"Project.sol\":4614:4624  msg.sender */\n              caller\n                /* \"Project.sol\":4597:4625  status.approvals[msg.sender] */\n              0x00\n              swap1\n              dup2\n              mstore\n                /* \"Project.sol\":4597:4613  status.approvals */\n              0x0d\n                /* \"Project.sol\":4597:4625  status.approvals[msg.sender] */\n              0x20\n              mstore\n              0x40\n              dup2\n              keccak256\n                /* \"Project.sol\":4628:4643  block.timestamp */\n              timestamp\n                /* \"Project.sol\":4597:4643  status.approvals[msg.sender] = block.timestamp */\n              swap1\n              sstore\n                /* \"Project.sol\":4653:4674  status.approvalsCount */\n              0x0c\n                /* \"Project.sol\":4653:4676  status.approvalsCount++ */\n              dup1\n              sload\n              swap2\n              tag_174\n              dup4\n              tag_175\n              jump\t// in\n            tag_174:\n              swap1\n              swap2\n              sstore\n              pop\n              pop\n                /* \"Project.sol\":4747:4768  status.approvalsCount */\n              sload(0x0c)\n                /* \"Project.sol\":4692:4807  ApprovalSubmitted(... */\n              mload(0x40)\n                /* \"Project.sol\":4723:4733  msg.sender */\n              caller\n              swap2\n                /* \"Project.sol\":4692:4807  ApprovalSubmitted(... */\n              0xbfdb25cfa23d283b1a428f5061c98bd89890a3ef1c07f90d27de2f60d98679f4\n              swap2\n              tag_176\n              swap2\n                /* \"Project.sol\":4747:4768  status.approvalsCount */\n              swap1\n                /* \"Project.sol\":4782:4797  block.timestamp */\n              timestamp\n              swap1\n                /* \"Project.sol\":4692:4807  ApprovalSubmitted(... */\n              tag_177\n              jump\t// in\n            tag_176:\n              mload(0x40)\n              dup1\n              swap2\n              sub\n              swap1\n              log2\n                /* \"Project.sol\":4873:4893  contributorAddresses */\n              0x08\n                /* \"Project.sol\":4873:4900  contributorAddresses.length */\n              sload\n                /* \"Project.sol\":4873:4904  contributorAddresses.length / 2 */\n              tag_178\n              swap1\n                /* \"Project.sol\":4903:4904  2 */\n              0x02\n              swap1\n                /* \"Project.sol\":4873:4904  contributorAddresses.length / 2 */\n              tag_179\n              jump\t// in\n            tag_178:\n                /* \"Project.sol\":4872:4909  (contributorAddresses.length / 2) + 1 */\n              tag_180\n              swap1\n                /* \"Project.sol\":4908:4909  1 */\n              0x01\n                /* \"Project.sol\":4872:4909  (contributorAddresses.length / 2) + 1 */\n              tag_181\n              jump\t// in\n            tag_180:\n                /* \"Project.sol\":4846:4867  status.approvalsCount */\n              sload(0x0c)\n                /* \"Project.sol\":4846:4910  status.approvalsCount >= ((contributorAddresses.length / 2) + 1) */\n              lt\n                /* \"Project.sol\":4842:5059  if (status.approvalsCount >= ((contributorAddresses.length / 2) + 1)) {... */\n              tag_182\n              jumpi\n                /* \"Project.sol\":4926:4932  status */\n              0x0a\n                /* \"Project.sol\":4926:4948  status.approved = true */\n              dup1\n              sload\n              not(0xff)\n              and\n                /* \"Project.sol\":4944:4948  true */\n              0x01\n                /* \"Project.sol\":4926:4948  status.approved = true */\n              or\n              swap1\n              sstore\n                /* \"Project.sol\":4982:4997  block.timestamp */\n              timestamp\n                /* \"Project.sol\":4962:4979  status.approvedAt */\n              0x0b\n                /* \"Project.sol\":4962:4997  status.approvedAt = block.timestamp */\n              dup2\n              swap1\n              sstore\n                /* \"Project.sol\":5016:5048  ProjectApproved(block.timestamp) */\n              mload(0x40)\n              0xfc534544f8ed1b516bf078b4ae88509d8f81f4fafefb10e9aad53e3e1fbce9bb\n              swap2\n              tag_183\n              swap2\n                /* \"#utility.yul\":160:185   */\n              swap1\n              dup2\n              mstore\n                /* \"#utility.yul\":148:150   */\n              0x20\n                /* \"#utility.yul\":133:151   */\n              add\n              swap1\n                /* \"#utility.yul\":14:191   */\n              jump\n                /* \"Project.sol\":5016:5048  ProjectApproved(block.timestamp) */\n            tag_183:\n              mload(0x40)\n              dup1\n              swap2\n              sub\n              swap1\n              log1\n                /* \"Project.sol\":4842:5059  if (status.approvalsCount >= ((contributorAddresses.length / 2) + 1)) {... */\n            tag_182:\n                /* \"Project.sol\":3795:5065  function approve() public {... */\n              jump\t// out\n                /* \"Project.sol\":5071:5808  function reward(string memory tokenURI) public {... */\n            tag_57:\n                /* \"Project.sol\":5206:5212  status */\n              0x0a\n                /* \"Project.sol\":5206:5221  status.approved */\n              sload\n              0xff\n              and\n                /* \"Project.sol\":5198:5246  require(status.approved, \"Project not approved\") */\n              tag_186\n              jumpi\n              mload(0x40)\n              shl(0xe5, 0x461bcd)\n              dup2\n              mstore\n              0x04\n              add\n              tag_155\n              swap1\n              tag_188\n              jump\t// in\n            tag_186:\n                /* \"Project.sol\":5341:5351  msg.sender */\n              caller\n                /* \"Project.sol\":5355:5356  0 */\n              0x00\n                /* \"Project.sol\":5328:5352  contributors[msg.sender] */\n              swap1\n              dup2\n              mstore\n                /* \"Project.sol\":5328:5340  contributors */\n              0x09\n                /* \"Project.sol\":5328:5352  contributors[msg.sender] */\n              0x20\n              mstore\n              0x40\n              swap1\n              keccak256\n              sload\n                /* \"Project.sol\":5320:5378  require(contributors[msg.sender] > 0, \"Not a contributor\") */\n              tag_189\n              jumpi\n              mload(0x40)\n              shl(0xe5, 0x461bcd)\n              dup2\n              mstore\n              0x04\n              add\n              tag_155\n              swap1\n              tag_159\n              jump\t// in\n            tag_189:\n                /* \"Project.sol\":5472:5482  msg.sender */\n              caller\n                /* \"Project.sol\":5457:5483  status.rewards[msg.sender] */\n              0x00\n              swap1\n              dup2\n              mstore\n                /* \"Project.sol\":5457:5471  status.rewards */\n              0x10\n                /* \"Project.sol\":5457:5483  status.rewards[msg.sender] */\n              0x20\n              mstore\n              0x40\n              swap1\n              keccak256\n              sload\n              0xff\n              and\n                /* \"Project.sol\":5456:5483  !status.rewards[msg.sender] */\n              iszero\n                /* \"Project.sol\":5448:5504  require(!status.rewards[msg.sender], \"Already rewarded\") */\n              tag_191\n              jumpi\n              mload(0x40)\n              shl(0xe5, 0x461bcd)\n              dup2\n              mstore\n                /* \"#utility.yul\":12764:12766   */\n              0x20\n                /* \"Project.sol\":5448:5504  require(!status.rewards[msg.sender], \"Already rewarded\") */\n              0x04\n              dup3\n              add\n                /* \"#utility.yul\":12746:12767   */\n              mstore\n                /* \"#utility.yul\":12803:12805   */\n              0x10\n                /* \"#utility.yul\":12783:12801   */\n              0x24\n              dup3\n              add\n                /* \"#utility.yul\":12776:12806   */\n              mstore\n              shl(0x82, 0x105b1c9958591e481c995dd85c991959)\n                /* \"#utility.yul\":12822:12840   */\n              0x44\n              dup3\n              add\n                /* \"#utility.yul\":12815:12861   */\n              mstore\n                /* \"#utility.yul\":12878:12896   */\n              0x64\n              add\n                /* \"Project.sol\":5448:5504  require(!status.rewards[msg.sender], \"Already rewarded\") */\n              tag_155\n                /* \"#utility.yul\":12562:12902   */\n              jump\n                /* \"Project.sol\":5448:5504  require(!status.rewards[msg.sender], \"Already rewarded\") */\n            tag_191:\n                /* \"Project.sol\":5515:5518  nft */\n              sload(0x15)\n                /* \"Project.sol\":5515:5549  nft.safeMint(msg.sender, tokenURI) */\n              mload(0x40)\n              shl(0xe1, 0x6902622f)\n              dup2\n              mstore\n              sub(shl(0xa0, 0x01), 0x01)\n                /* \"Project.sol\":5515:5518  nft */\n              swap1\n              swap2\n              and\n              swap1\n                /* \"Project.sol\":5515:5527  nft.safeMint */\n              0xd204c45e\n              swap1\n                /* \"Project.sol\":5515:5549  nft.safeMint(msg.sender, tokenURI) */\n              tag_194\n              swap1\n                /* \"Project.sol\":5528:5538  msg.sender */\n              caller\n              swap1\n                /* \"Project.sol\":5540:5548  tokenURI */\n              dup6\n              swap1\n                /* \"Project.sol\":5515:5549  nft.safeMint(msg.sender, tokenURI) */\n              0x04\n              add\n              tag_195\n              jump\t// in\n            tag_194:\n              0x00\n              mload(0x40)\n              dup1\n              dup4\n              sub\n              dup2\n              0x00\n              dup8\n              dup1\n              extcodesize\n              iszero\n              dup1\n              iszero\n              tag_196\n              jumpi\n              0x00\n              dup1\n              revert\n            tag_196:\n              pop\n              gas\n              call\n              iszero\n              dup1\n              iszero\n              tag_198\n              jumpi\n              returndatasize\n              0x00\n              dup1\n              returndatacopy\n              revert(0x00, returndatasize)\n            tag_198:\n              pop\n              pop\n                /* \"Project.sol\":5574:5584  msg.sender */\n              caller\n                /* \"Project.sol\":5559:5585  status.rewards[msg.sender] */\n              0x00\n              dup2\n              dup2\n              mstore\n                /* \"Project.sol\":5559:5573  status.rewards */\n              0x10\n                /* \"Project.sol\":5559:5585  status.rewards[msg.sender] */\n              0x20\n              mstore\n              0x40\n              dup1\n              dup3\n              keccak256\n                /* \"Project.sol\":5559:5592  status.rewards[msg.sender] = true */\n              dup1\n              sload\n              not(0xff)\n              and\n                /* \"Project.sol\":5588:5592  true */\n              0x01\n                /* \"Project.sol\":5559:5592  status.rewards[msg.sender] = true */\n              or\n              swap1\n              sstore\n                /* \"Project.sol\":5629:5632  nft */\n              sload(0x15)\n                /* \"Project.sol\":5629:5667  nft.tokenOfOwnerByIndex(msg.sender, 0) */\n              swap1\n              mload\n              shl(0xe0, 0x2f745c59)\n              dup2\n              mstore\n                /* \"Project.sol\":5559:5585  status.rewards[msg.sender] */\n              swap2\n              swap5\n              pop\n              sub(shl(0xa0, 0x01), 0x01)\n                /* \"Project.sol\":5629:5632  nft */\n              and\n              swap3\n              pop\n                /* \"Project.sol\":5629:5652  nft.tokenOfOwnerByIndex */\n              0x2f745c59\n              swap2\n                /* \"Project.sol\":5629:5667  nft.tokenOfOwnerByIndex(msg.sender, 0) */\n              tag_199\n              swap2\n                /* \"Project.sol\":5559:5585  status.rewards[msg.sender] */\n              dup6\n              swap1\n                /* \"Project.sol\":5629:5667  nft.tokenOfOwnerByIndex(msg.sender, 0) */\n              0x04\n              add\n              tag_200\n              jump\t// in\n            tag_199:\n              0x20\n              mload(0x40)\n              dup1\n              dup4\n              sub\n              dup2\n              dup7\n              gas\n              staticcall\n              iszero\n              dup1\n              iszero\n              tag_202\n              jumpi\n              returndatasize\n              0x00\n              dup1\n              returndatacopy\n              revert(0x00, returndatasize)\n            tag_202:\n              pop\n              pop\n              pop\n              pop\n              mload(0x40)\n              returndatasize\n              not(0x1f)\n              0x1f\n              dup3\n              add\n              and\n              dup3\n              add\n              dup1\n              0x40\n              mstore\n              pop\n              dup2\n              add\n              swap1\n              tag_203\n              swap2\n              swap1\n              tag_204\n              jump\t// in\n            tag_203:\n                /* \"Project.sol\":5611:5667  uint256 tokenId = nft.tokenOfOwnerByIndex(msg.sender, 0) */\n              swap1\n              pop\n                /* \"Project.sol\":5709:5719  msg.sender */\n              caller\n              sub(shl(0xa0, 0x01), 0x01)\n                /* \"Project.sol\":5682:5801  RewardClaimed(... */\n              and\n              0xe1efe4d046db58dd1ce37424297a3a8e9288104fd02b9e39455d8f67072dd787\n                /* \"Project.sol\":5733:5740  tokenId */\n              dup3\n                /* \"Project.sol\":5754:5762  tokenURI */\n              dup5\n                /* \"Project.sol\":5776:5791  block.timestamp */\n              timestamp\n                /* \"Project.sol\":5682:5801  RewardClaimed(... */\n              mload(0x40)\n              tag_205\n              swap4\n              swap3\n              swap2\n              swap1\n              tag_206\n              jump\t// in\n            tag_205:\n              mload(0x40)\n              dup1\n              swap2\n              sub\n              swap1\n              log2\n                /* \"Project.sol\":5118:5808  {... */\n              pop\n                /* \"Project.sol\":5071:5808  function reward(string memory tokenURI) public {... */\n              pop\n              jump\t// out\n                /* \"Project.sol\":8307:8806  function createMilestones(... */\n            tag_66:\n                /* \"Project.sol\":758:763  owner */\n              and(sub(shl(0xa0, 0x01), 0x01), sload(0x01))\n                /* \"Project.sol\":744:754  msg.sender */\n              caller\n                /* \"Project.sol\":744:763  msg.sender == owner */\n              eq\n                /* \"Project.sol\":736:764  require(msg.sender == owner) */\n              tag_208\n              jumpi\n              0x00\n              dup1\n              revert\n            tag_208:\n                /* \"Project.sol\":8570:8580  thresholds */\n              dup2\n                /* \"Project.sol\":8570:8587  thresholds.length */\n              mload\n                /* \"Project.sol\":8547:8559  descriptions */\n              dup4\n                /* \"Project.sol\":8547:8566  descriptions.length */\n              mload\n                /* \"Project.sol\":8547:8587  descriptions.length == thresholds.length */\n              eq\n                /* \"Project.sol\":8547:8645  descriptions.length == thresholds.length &&... */\n              dup1\n              iszero\n              tag_210\n              jumpi\n              pop\n                /* \"Project.sol\":8628:8638  recipients */\n              dup1\n                /* \"Project.sol\":8628:8645  recipients.length */\n              mload\n                /* \"Project.sol\":8607:8617  thresholds */\n              dup3\n                /* \"Project.sol\":8607:8624  thresholds.length */\n              mload\n                /* \"Project.sol\":8607:8645  thresholds.length == recipients.length */\n              eq\n                /* \"Project.sol\":8547:8645  descriptions.length == thresholds.length &&... */\n            tag_210:\n                /* \"Project.sol\":8526:8655  require(... */\n              tag_211\n              jumpi\n              0x00\n              dup1\n              revert\n            tag_211:\n                /* \"Project.sol\":8671:8677  uint i */\n              0x00\n                /* \"Project.sol\":8666:8800  for (uint i = 0; i < descriptions.length; i++) {... */\n            tag_212:\n                /* \"Project.sol\":8687:8699  descriptions */\n              dup4\n                /* \"Project.sol\":8687:8706  descriptions.length */\n              mload\n                /* \"Project.sol\":8683:8684  i */\n              dup2\n                /* \"Project.sol\":8683:8706  i < descriptions.length */\n              lt\n                /* \"Project.sol\":8666:8800  for (uint i = 0; i < descriptions.length; i++) {... */\n              iszero\n              tag_213\n              jumpi\n                /* \"Project.sol\":8727:8789  createMilestone(descriptions[i], thresholds[i], recipients[i]) */\n              tag_215\n                /* \"Project.sol\":8743:8755  descriptions */\n              dup5\n                /* \"Project.sol\":8756:8757  i */\n              dup3\n                /* \"Project.sol\":8743:8758  descriptions[i] */\n              dup2\n              mload\n              dup2\n              lt\n              tag_217\n              jumpi\n              tag_217\n              tag_169\n              jump\t// in\n            tag_217:\n              0x20\n              mul\n              0x20\n              add\n              add\n              mload\n                /* \"Project.sol\":8760:8770  thresholds */\n              dup5\n                /* \"Project.sol\":8771:8772  i */\n              dup4\n                /* \"Project.sol\":8760:8773  thresholds[i] */\n              dup2\n              mload\n              dup2\n              lt\n              tag_219\n              jumpi\n              tag_219\n              tag_169\n              jump\t// in\n            tag_219:\n              0x20\n              mul\n              0x20\n              add\n              add\n              mload\n                /* \"Project.sol\":8775:8785  recipients */\n              dup5\n                /* \"Project.sol\":8786:8787  i */\n              dup5\n                /* \"Project.sol\":8775:8788  recipients[i] */\n              dup2\n              mload\n              dup2\n              lt\n              tag_221\n              jumpi\n              tag_221\n              tag_169\n              jump\t// in\n            tag_221:\n              0x20\n              mul\n              0x20\n              add\n              add\n              mload\n                /* \"Project.sol\":8727:8742  createMilestone */\n              tag_126\n                /* \"Project.sol\":8727:8789  createMilestone(descriptions[i], thresholds[i], recipients[i]) */\n              jump\t// in\n            tag_215:\n                /* \"Project.sol\":8708:8711  i++ */\n              0x01\n              add\n                /* \"Project.sol\":8666:8800  for (uint i = 0; i < descriptions.length; i++) {... */\n              jump(tag_212)\n            tag_213:\n              pop\n                /* \"Project.sol\":8307:8806  function createMilestones(... */\n              pop\n              pop\n              pop\n              jump\t// out\n                /* \"Project.sol\":5814:6574  function withdraw() public onlyRecipient {... */\n            tag_69:\n                /* \"Project.sol\":845:854  recipient */\n              and(sub(shl(0xa0, 0x01), 0x01), sload(0x03))\n                /* \"Project.sol\":831:841  msg.sender */\n              caller\n                /* \"Project.sol\":831:854  msg.sender == recipient */\n              eq\n                /* \"Project.sol\":823:855  require(msg.sender == recipient) */\n              tag_223\n              jumpi\n              0x00\n              dup1\n              revert\n            tag_223:\n                /* \"Project.sol\":5993:5999  status */\n              0x0a\n                /* \"Project.sol\":5993:6008  status.approved */\n              sload\n              0xff\n              and\n                /* \"Project.sol\":5985:6033  require(status.approved, \"Project not approved\") */\n              tag_225\n              jumpi\n              mload(0x40)\n              shl(0xe5, 0x461bcd)\n              dup2\n              mstore\n              0x04\n              add\n              tag_155\n              swap1\n              tag_188\n              jump\t// in\n            tag_225:\n                /* \"Project.sol\":6101:6107  uint i */\n              0x00\n                /* \"Project.sol\":6096:6234  for (uint i = 0; i < milestoneStatuses.length; i++) {... */\n            tag_227:\n                /* \"Project.sol\":6117:6134  milestoneStatuses */\n              0x14\n                /* \"Project.sol\":6117:6141  milestoneStatuses.length */\n              sload\n                /* \"Project.sol\":6113:6141  i < milestoneStatuses.length */\n              dup2\n              lt\n                /* \"Project.sol\":6096:6234  for (uint i = 0; i < milestoneStatuses.length; i++) {... */\n              iszero\n              tag_228\n              jumpi\n                /* \"Project.sol\":6170:6187  milestoneStatuses */\n              0x14\n                /* \"Project.sol\":6188:6189  i */\n              dup2\n                /* \"Project.sol\":6170:6190  milestoneStatuses[i] */\n              dup2\n              sload\n              dup2\n              lt\n              tag_231\n              jumpi\n              tag_231\n              tag_169\n              jump\t// in\n            tag_231:\n              0x00\n              swap2\n              dup3\n              mstore\n              0x20\n              swap1\n              swap2\n              keccak256\n                /* \"Project.sol\":6170:6200  milestoneStatuses[i].completed */\n              0x04\n                /* \"Project.sol\":6170:6190  milestoneStatuses[i] */\n              0x09\n              swap1\n              swap3\n              mul\n              add\n                /* \"Project.sol\":6170:6200  milestoneStatuses[i].completed */\n              add\n              sload\n              0xff\n              and\n                /* \"Project.sol\":6162:6223  require(milestoneStatuses[i].completed, \"Pending milestones\") */\n              tag_233\n              jumpi\n              mload(0x40)\n              shl(0xe5, 0x461bcd)\n              dup2\n              mstore\n                /* \"#utility.yul\":14274:14276   */\n              0x20\n                /* \"Project.sol\":6162:6223  require(milestoneStatuses[i].completed, \"Pending milestones\") */\n              0x04\n              dup3\n              add\n                /* \"#utility.yul\":14256:14277   */\n              mstore\n                /* \"#utility.yul\":14313:14315   */\n              0x12\n                /* \"#utility.yul\":14293:14311   */\n              0x24\n              dup3\n              add\n                /* \"#utility.yul\":14286:14316   */\n              mstore\n              shl(0x70, 0x50656e64696e67206d696c6573746f6e6573)\n                /* \"#utility.yul\":14332:14350   */\n              0x44\n              dup3\n              add\n                /* \"#utility.yul\":14325:14373   */\n              mstore\n                /* \"#utility.yul\":14390:14408   */\n              0x64\n              add\n                /* \"Project.sol\":6162:6223  require(milestoneStatuses[i].completed, \"Pending milestones\") */\n              tag_155\n                /* \"#utility.yul\":14072:14414   */\n              jump\n                /* \"Project.sol\":6162:6223  require(milestoneStatuses[i].completed, \"Pending milestones\") */\n            tag_233:\n                /* \"Project.sol\":6143:6146  i++ */\n              0x01\n              add\n                /* \"Project.sol\":6096:6234  for (uint i = 0; i < milestoneStatuses.length; i++) {... */\n              jump(tag_227)\n            tag_228:\n              pop\n                /* \"Project.sol\":6253:6269  status.completed */\n              and(0xff, sload(0x0e))\n                /* \"Project.sol\":6252:6269  !status.completed */\n              iszero\n                /* \"Project.sol\":6244:6299  require(!status.completed, \"Project already completed\") */\n              tag_236\n              jumpi\n              mload(0x40)\n              shl(0xe5, 0x461bcd)\n              dup2\n              mstore\n                /* \"#utility.yul\":14621:14623   */\n              0x20\n                /* \"Project.sol\":6244:6299  require(!status.completed, \"Project already completed\") */\n              0x04\n              dup3\n              add\n                /* \"#utility.yul\":14603:14624   */\n              mstore\n                /* \"#utility.yul\":14660:14662   */\n              0x19\n                /* \"#utility.yul\":14640:14658   */\n              0x24\n              dup3\n              add\n                /* \"#utility.yul\":14633:14663   */\n              mstore\n              shl(0x3a, 0x141c9bda9958dd08185b1c9958591e4818dbdb5c1b195d1959)\n                /* \"#utility.yul\":14679:14697   */\n              0x44\n              dup3\n              add\n                /* \"#utility.yul\":14672:14727   */\n              mstore\n                /* \"#utility.yul\":14744:14762   */\n              0x64\n              add\n                /* \"Project.sol\":6244:6299  require(!status.completed, \"Project already completed\") */\n              tag_155\n                /* \"#utility.yul\":14419:14768   */\n              jump\n                /* \"Project.sol\":6244:6299  require(!status.completed, \"Project already completed\") */\n            tag_236:\n                /* \"Project.sol\":6310:6319  recipient */\n              sload(0x03)\n                /* \"Project.sol\":6310:6351  recipient.transfer(address(this).balance) */\n              mload(0x40)\n              sub(shl(0xa0, 0x01), 0x01)\n                /* \"Project.sol\":6310:6319  recipient */\n              swap1\n              swap2\n              and\n              swap1\n                /* \"Project.sol\":6329:6350  address(this).balance */\n              selfbalance\n                /* \"Project.sol\":6310:6351  recipient.transfer(address(this).balance) */\n              dup1\n              iszero\n              0x08fc\n              mul\n              swap2\n                /* \"Project.sol\":6310:6319  recipient */\n              0x00\n                /* \"Project.sol\":6310:6351  recipient.transfer(address(this).balance) */\n              dup2\n                /* \"Project.sol\":6310:6319  recipient */\n              dup2\n                /* \"Project.sol\":6310:6351  recipient.transfer(address(this).balance) */\n              dup2\n                /* \"Project.sol\":6329:6350  address(this).balance */\n              dup6\n                /* \"Project.sol\":6310:6319  recipient */\n              dup9\n                /* \"Project.sol\":6310:6351  recipient.transfer(address(this).balance) */\n              dup9\n              call\n              swap4\n              pop\n              pop\n              pop\n              pop\n              iszero\n              dup1\n              iszero\n              tag_240\n              jumpi\n              returndatasize\n              0x00\n              dup1\n              returndatacopy\n              revert(0x00, returndatasize)\n            tag_240:\n              pop\n                /* \"Project.sol\":6361:6377  status.completed */\n              0x0e\n                /* \"Project.sol\":6361:6384  status.completed = true */\n              dup1\n              sload\n              not(0xff)\n              and\n                /* \"Project.sol\":6380:6384  true */\n              0x01\n                /* \"Project.sol\":6361:6384  status.completed = true */\n              or\n              swap1\n              sstore\n                /* \"Project.sol\":6415:6430  block.timestamp */\n              timestamp\n                /* \"Project.sol\":6394:6412  status.completedAt */\n              0x0f\n                /* \"Project.sol\":6394:6430  status.completedAt = block.timestamp */\n              dup2\n              swap1\n              sstore\n                /* \"Project.sol\":6484:6493  recipient */\n              sload(0x03)\n                /* \"Project.sol\":6454:6567  ProjectCompleted(... */\n              mload(0x40)\n              sub(shl(0xa0, 0x01), 0x01)\n                /* \"Project.sol\":6484:6493  recipient */\n              swap1\n              swap2\n              and\n              swap2\n                /* \"Project.sol\":6454:6567  ProjectCompleted(... */\n              0x7774e751652adaca8b91d93039ccfe27e4b7180448d53272a623b673830020f5\n              swap2\n              tag_241\n              swap2\n                /* \"Project.sol\":6507:6528  address(this).balance */\n              selfbalance\n              swap2\n                /* \"Project.sol\":6454:6567  ProjectCompleted(... */\n              tag_177\n              jump\t// in\n            tag_241:\n              mload(0x40)\n              dup1\n              swap2\n              sub\n              swap1\n              log2\n                /* \"Project.sol\":5814:6574  function withdraw() public onlyRecipient {... */\n              jump\t// out\n                /* \"Project.sol\":1701:2502  function getSummary()... */\n            tag_72:\n                /* \"Project.sol\":2112:2121  recipient */\n              sload(0x03)\n                /* \"Project.sol\":2152:2171  minimumContribution */\n              sload(0x05)\n                /* \"Project.sol\":2185:2203  targetContribution */\n              sload(0x06)\n                /* \"Project.sol\":2217:2225  deadline */\n              sload(0x07)\n                /* \"Project.sol\":2239:2259  contributorAddresses */\n              0x08\n                /* \"Project.sol\":2239:2266  contributorAddresses.length */\n              sload\n                /* \"Project.sol\":2280:2286  status */\n              0x0a\n                /* \"Project.sol\":2280:2295  status.approved */\n              sload\n                /* \"Project.sol\":2309:2326  status.approvedAt */\n              sload(0x0b)\n                /* \"Project.sol\":2340:2361  status.approvalsCount */\n              sload(0x0c)\n                /* \"Project.sol\":2375:2391  status.completed */\n              sload(0x0e)\n                /* \"Project.sol\":2405:2423  status.completedAt */\n              sload(0x0f)\n                /* \"Project.sol\":2437:2453  status.cancelled */\n              sload(0x11)\n                /* \"Project.sol\":2467:2485  status.cancelledAt */\n              sload(0x12)\n                /* \"Project.sol\":2135:2138  cid */\n              0x04\n                /* \"Project.sol\":2056:2495  return (... */\n              dup1\n              sload\n                /* \"Project.sol\":1781:1785  uint */\n              0x00\n              swap14\n              dup15\n              swap14\n                /* \"Project.sol\":1820:1833  string memory */\n              0x60\n              swap14\n                /* \"Project.sol\":1781:1785  uint */\n              dup16\n              swap14\n              dup15\n              swap14\n              dup15\n              swap14\n              dup15\n              swap14\n              dup15\n              swap14\n              dup15\n              swap14\n              dup15\n              swap14\n              dup15\n              swap14\n              dup15\n              swap14\n              dup15\n              swap14\n              dup15\n              swap14\n                /* \"Project.sol\":2077:2098  address(this).balance */\n              selfbalance\n              swap14\n              sub(shl(0xa0, 0x01), 0x01)\n                /* \"Project.sol\":2112:2121  recipient */\n              and\n              swap13\n                /* \"Project.sol\":2135:2138  cid */\n              swap2\n              swap12\n                /* \"Project.sol\":2152:2171  minimumContribution */\n              swap2\n              swap11\n                /* \"Project.sol\":2185:2203  targetContribution */\n              swap2\n              swap10\n                /* \"Project.sol\":2217:2225  deadline */\n              swap2\n              swap9\n                /* \"Project.sol\":2239:2266  contributorAddresses.length */\n              swap2\n              swap8\n                /* \"Project.sol\":2280:2295  status.approved */\n              0xff\n              swap3\n              dup4\n              and\n              swap8\n                /* \"Project.sol\":2309:2326  status.approvedAt */\n              swap1\n              swap7\n                /* \"Project.sol\":2340:2361  status.approvalsCount */\n              swap1\n              swap6\n                /* \"Project.sol\":2375:2391  status.completed */\n              swap1\n              dup4\n              and\n              swap5\n                /* \"Project.sol\":2405:2423  status.completedAt */\n              swap1\n              swap4\n                /* \"Project.sol\":2437:2453  status.cancelled */\n              swap3\n              and\n              swap2\n                /* \"Project.sol\":2467:2485  status.cancelledAt */\n              swap1\n                /* \"Project.sol\":2135:2138  cid */\n              dup13\n              swap1\n                /* \"Project.sol\":2056:2495  return (... */\n              tag_243\n              swap1\n              tag_244\n              jump\t// in\n            tag_243:\n              dup1\n              0x1f\n              add\n              0x20\n              dup1\n              swap2\n              div\n              mul\n              0x20\n              add\n              mload(0x40)\n              swap1\n              dup2\n              add\n              0x40\n              mstore\n              dup1\n              swap3\n              swap2\n              swap1\n              dup2\n              dup2\n              mstore\n              0x20\n              add\n              dup3\n              dup1\n              sload\n              tag_245\n              swap1\n              tag_244\n              jump\t// in\n            tag_245:\n              dup1\n              iszero\n              tag_246\n              jumpi\n              dup1\n              0x1f\n              lt\n              tag_247\n              jumpi\n              0x0100\n              dup1\n              dup4\n              sload\n              div\n              mul\n              dup4\n              mstore\n              swap2\n              0x20\n              add\n              swap2\n              jump(tag_246)\n            tag_247:\n              dup3\n              add\n              swap2\n              swap1\n              0x00\n              mstore\n              keccak256(0x00, 0x20)\n              swap1\n            tag_248:\n              dup2\n              sload\n              dup2\n              mstore\n              swap1\n              0x01\n              add\n              swap1\n              0x20\n              add\n              dup1\n              dup4\n              gt\n              tag_248\n              jumpi\n              dup3\n              swap1\n              sub\n              0x1f\n              and\n              dup3\n              add\n              swap2\n            tag_246:\n              pop\n              pop\n              pop\n              pop\n              pop\n              swap12\n              pop\n              swap14\n              pop\n              swap14\n              pop\n              swap14\n              pop\n              swap14\n              pop\n              swap14\n              pop\n              swap14\n              pop\n              swap14\n              pop\n              swap14\n              pop\n              swap14\n              pop\n              swap14\n              pop\n              swap14\n              pop\n              swap14\n              pop\n              swap14\n              pop\n              swap14\n              pop\n                /* \"Project.sol\":1701:2502  function getSummary()... */\n              swap1\n              swap2\n              swap3\n              swap4\n              swap5\n              swap6\n              swap7\n              swap8\n              swap9\n              swap10\n              swap11\n              swap12\n              swap13\n              swap14\n              jump\t// out\n                /* \"Project.sol\":7507:8104  function expire() public {... */\n            tag_87:\n                /* \"Project.sol\":7564:7576  factoryOwner */\n              and(sub(shl(0xa0, 0x01), 0x01), sload(0x02))\n                /* \"Project.sol\":7550:7560  msg.sender */\n              caller\n                /* \"Project.sol\":7550:7576  msg.sender == factoryOwner */\n              eq\n                /* \"Project.sol\":7542:7619  require(msg.sender == factoryOwner, \"Only factory owner can expire projects\") */\n              tag_250\n              jumpi\n              mload(0x40)\n              shl(0xe5, 0x461bcd)\n              dup2\n              mstore\n                /* \"#utility.yul\":15360:15362   */\n              0x20\n                /* \"Project.sol\":7542:7619  require(msg.sender == factoryOwner, \"Only factory owner can expire projects\") */\n              0x04\n              dup3\n              add\n                /* \"#utility.yul\":15342:15363   */\n              mstore\n                /* \"#utility.yul\":15399:15401   */\n              0x26\n                /* \"#utility.yul\":15379:15397   */\n              0x24\n              dup3\n              add\n                /* \"#utility.yul\":15372:15402   */\n              mstore\n                /* \"#utility.yul\":15438:15472   */\n              0x4f6e6c7920666163746f7279206f776e65722063616e20657870697265207072\n                /* \"#utility.yul\":15418:15436   */\n              0x44\n              dup3\n              add\n                /* \"#utility.yul\":15411:15473   */\n              mstore\n              shl(0xd0, 0x6f6a65637473)\n                /* \"#utility.yul\":15489:15507   */\n              0x64\n              dup3\n              add\n                /* \"#utility.yul\":15482:15518   */\n              mstore\n                /* \"#utility.yul\":15535:15554   */\n              0x84\n              add\n                /* \"Project.sol\":7542:7619  require(msg.sender == factoryOwner, \"Only factory owner can expire projects\") */\n              tag_155\n                /* \"#utility.yul\":15158:15560   */\n              jump\n                /* \"Project.sol\":7542:7619  require(msg.sender == factoryOwner, \"Only factory owner can expire projects\") */\n            tag_250:\n                /* \"Project.sol\":7638:7654  status.cancelled */\n              and(0xff, sload(0x11))\n                /* \"Project.sol\":7637:7654  !status.cancelled */\n              iszero\n                /* \"Project.sol\":7629:7684  require(!status.cancelled, \"Project already cancelled\") */\n              tag_253\n              jumpi\n              mload(0x40)\n              shl(0xe5, 0x461bcd)\n              dup2\n              mstore\n              0x04\n              add\n              tag_155\n              swap1\n              tag_255\n              jump\t// in\n            tag_253:\n                /* \"Project.sol\":7703:7709  status */\n              0x0a\n                /* \"Project.sol\":7703:7718  status.approved */\n              sload\n              0xff\n              and\n                /* \"Project.sol\":7702:7718  !status.approved */\n              iszero\n                /* \"Project.sol\":7694:7747  require(!status.approved, \"Project already approved\") */\n              tag_256\n              jumpi\n              mload(0x40)\n              shl(0xe5, 0x461bcd)\n              dup2\n              mstore\n              0x04\n              add\n              tag_155\n              swap1\n              tag_258\n              jump\t// in\n            tag_256:\n                /* \"Project.sol\":7784:7792  deadline */\n              sload(0x07)\n                /* \"Project.sol\":7765:7780  block.timestamp */\n              timestamp\n                /* \"Project.sol\":7765:7792  block.timestamp >= deadline */\n              lt\n              iszero\n                /* \"Project.sol\":7757:7825  require(block.timestamp >= deadline, \"Project deadline not reached\") */\n              tag_259\n              jumpi\n              mload(0x40)\n              shl(0xe5, 0x461bcd)\n              dup2\n              mstore\n                /* \"#utility.yul\":16474:16476   */\n              0x20\n                /* \"Project.sol\":7757:7825  require(block.timestamp >= deadline, \"Project deadline not reached\") */\n              0x04\n              dup3\n              add\n                /* \"#utility.yul\":16456:16477   */\n              mstore\n                /* \"#utility.yul\":16513:16515   */\n              0x1c\n                /* \"#utility.yul\":16493:16511   */\n              0x24\n              dup3\n              add\n                /* \"#utility.yul\":16486:16516   */\n              mstore\n              shl(0x22, 0x141c9bda9958dd08191958591b1a5b99481b9bdd081c995858da1959)\n                /* \"#utility.yul\":16532:16550   */\n              0x44\n              dup3\n              add\n                /* \"#utility.yul\":16525:16583   */\n              mstore\n                /* \"#utility.yul\":16600:16618   */\n              0x64\n              add\n                /* \"Project.sol\":7757:7825  require(block.timestamp >= deadline, \"Project deadline not reached\") */\n              tag_155\n                /* \"#utility.yul\":16272:16624   */\n              jump\n                /* \"Project.sol\":7757:7825  require(block.timestamp >= deadline, \"Project deadline not reached\") */\n            tag_259:\n                /* \"Project.sol\":7867:7885  targetContribution */\n              sload(0x06)\n                /* \"Project.sol\":7843:7864  address(this).balance */\n              selfbalance\n                /* \"Project.sol\":7843:7885  address(this).balance < targetContribution */\n              lt\n                /* \"Project.sol\":7835:7917  require(address(this).balance < targetContribution, \"Target contribution reached\") */\n              tag_262\n              jumpi\n              mload(0x40)\n              shl(0xe5, 0x461bcd)\n              dup2\n              mstore\n                /* \"#utility.yul\":16831:16833   */\n              0x20\n                /* \"Project.sol\":7835:7917  require(address(this).balance < targetContribution, \"Target contribution reached\") */\n              0x04\n              dup3\n              add\n                /* \"#utility.yul\":16813:16834   */\n              mstore\n                /* \"#utility.yul\":16870:16872   */\n              0x1b\n                /* \"#utility.yul\":16850:16868   */\n              0x24\n              dup3\n              add\n                /* \"#utility.yul\":16843:16873   */\n              mstore\n              shl(0x2a, 0x15185c99d95d0818dbdb9d1c9a589d5d1a5bdb881c995858da1959)\n                /* \"#utility.yul\":16889:16907   */\n              0x44\n              dup3\n              add\n                /* \"#utility.yul\":16882:16939   */\n              mstore\n                /* \"#utility.yul\":16956:16974   */\n              0x64\n              add\n                /* \"Project.sol\":7835:7917  require(address(this).balance < targetContribution, \"Target contribution reached\") */\n              tag_155\n                /* \"#utility.yul\":16629:16980   */\n              jump\n                /* \"Project.sol\":7835:7917  require(address(this).balance < targetContribution, \"Target contribution reached\") */\n            tag_262:\n                /* \"Project.sol\":7928:7944  status.cancelled */\n              0x11\n                /* \"Project.sol\":7928:7951  status.cancelled = true */\n              dup1\n              sload\n              not(0xff)\n              and\n                /* \"Project.sol\":7947:7951  true */\n              0x01\n                /* \"Project.sol\":7928:7951  status.cancelled = true */\n              or\n              swap1\n              sstore\n                /* \"Project.sol\":7982:7997  block.timestamp */\n              timestamp\n                /* \"Project.sol\":7961:7979  status.cancelledAt */\n              0x12\n                /* \"Project.sol\":7961:7997  status.cancelledAt = block.timestamp */\n              sstore\n                /* \"Project.sol\":8007:8019  _refundAll() */\n              tag_265\n                /* \"Project.sol\":8007:8017  _refundAll */\n              tag_266\n                /* \"Project.sol\":8007:8019  _refundAll() */\n              jump\t// in\n            tag_265:\n                /* \"Project.sol\":8043:8097  ProjectExpired(address(this).balance, block.timestamp) */\n              0xa1a76ff981049ea785e5ba852f4a586e2fc4634e442adb3bde2ca1cb4379e538\n                /* \"Project.sol\":8058:8079  address(this).balance */\n              selfbalance\n                /* \"Project.sol\":8081:8096  block.timestamp */\n              timestamp\n                /* \"Project.sol\":8043:8097  ProjectExpired(address(this).balance, block.timestamp) */\n              mload(0x40)\n              tag_183\n              swap3\n              swap2\n              swap1\n              tag_177\n              jump\t// in\n                /* \"Project.sol\":441:478  address[] public contributorAddresses */\n            tag_97:\n              0x08\n              dup2\n              dup2\n              sload\n              dup2\n              lt\n              tag_268\n              jumpi\n              0x00\n              dup1\n              revert\n            tag_268:\n              0x00\n              swap2\n              dup3\n              mstore\n              0x20\n              swap1\n              swap2\n              keccak256\n              add\n              sload\n              sub(shl(0xa0, 0x01), 0x01)\n              and\n              swap1\n              pop\n              dup2\n              jump\t// out\n                /* \"Project.sol\":314:331  string public cid */\n            tag_105:\n              0x04\n              dup1\n              sload\n              tag_270\n              swap1\n              tag_244\n              jump\t// in\n            tag_270:\n              dup1\n              0x1f\n              add\n              0x20\n              dup1\n              swap2\n              div\n              mul\n              0x20\n              add\n              mload(0x40)\n              swap1\n              dup2\n              add\n              0x40\n              mstore\n              dup1\n              swap3\n              swap2\n              swap1\n              dup2\n              dup2\n              mstore\n              0x20\n              add\n              dup3\n              dup1\n              sload\n              tag_271\n              swap1\n              tag_244\n              jump\t// in\n            tag_271:\n              dup1\n              iszero\n              tag_272\n              jumpi\n              dup1\n              0x1f\n              lt\n              tag_273\n              jumpi\n              0x0100\n              dup1\n              dup4\n              sload\n              div\n              mul\n              dup4\n              mstore\n              swap2\n              0x20\n              add\n              swap2\n              jump(tag_272)\n            tag_273:\n              dup3\n              add\n              swap2\n              swap1\n              0x00\n              mstore\n              keccak256(0x00, 0x20)\n              swap1\n            tag_274:\n              dup2\n              sload\n              dup2\n              mstore\n              swap1\n              0x01\n              add\n              swap1\n              0x20\n              add\n              dup1\n              dup4\n              gt\n              tag_274\n              jumpi\n              dup3\n              swap1\n              sub\n              0x1f\n              and\n              dup3\n              add\n              swap2\n            tag_272:\n              pop\n              pop\n              pop\n              pop\n              pop\n              dup2\n              jump\t// out\n                /* \"Project.sol\":2630:2915  function getReward(address _address) public view returns (uint256, string memory) {... */\n            tag_115:\n              sub(shl(0xa0, 0x01), 0x01)\n                /* \"Project.sol\":2726:2750  status.rewards[_address] */\n              dup2\n              and\n                /* \"Project.sol\":2688:2695  uint256 */\n              0x00\n                /* \"Project.sol\":2726:2750  status.rewards[_address] */\n              swap1\n              dup2\n              mstore\n                /* \"Project.sol\":2726:2740  status.rewards */\n              0x10\n                /* \"Project.sol\":2726:2750  status.rewards[_address] */\n              0x20\n              mstore\n              0x40\n              dup2\n              keccak256\n              sload\n                /* \"Project.sol\":2697:2710  string memory */\n              0x60\n              swap1\n                /* \"Project.sol\":2726:2750  status.rewards[_address] */\n              0xff\n              and\n                /* \"Project.sol\":2722:2884  if (status.rewards[_address]) {... */\n              iszero\n              tag_276\n              jumpi\n                /* \"Project.sol\":2784:2787  nft */\n              sload(0x15)\n                /* \"Project.sol\":2784:2820  nft.tokenOfOwnerByIndex(_address, 0) */\n              mload(0x40)\n              shl(0xe0, 0x2f745c59)\n              dup2\n              mstore\n                /* \"Project.sol\":2766:2781  uint256 tokenId */\n              0x00\n              swap2\n              sub(shl(0xa0, 0x01), 0x01)\n                /* \"Project.sol\":2784:2787  nft */\n              and\n              swap1\n                /* \"Project.sol\":2784:2807  nft.tokenOfOwnerByIndex */\n              0x2f745c59\n              swap1\n                /* \"Project.sol\":2784:2820  nft.tokenOfOwnerByIndex(_address, 0) */\n              tag_277\n              swap1\n                /* \"Project.sol\":2808:2816  _address */\n              dup8\n              swap1\n                /* \"Project.sol\":2766:2781  uint256 tokenId */\n              dup6\n              swap1\n                /* \"Project.sol\":2784:2820  nft.tokenOfOwnerByIndex(_address, 0) */\n              0x04\n              add\n              tag_200\n              jump\t// in\n            tag_277:\n              0x20\n              mload(0x40)\n              dup1\n              dup4\n              sub\n              dup2\n              dup7\n              gas\n              staticcall\n              iszero\n              dup1\n              iszero\n              tag_279\n              jumpi\n              returndatasize\n              0x00\n              dup1\n              returndatacopy\n              revert(0x00, returndatasize)\n            tag_279:\n              pop\n              pop\n              pop\n              pop\n              mload(0x40)\n              returndatasize\n              not(0x1f)\n              0x1f\n              dup3\n              add\n              and\n              dup3\n              add\n              dup1\n              0x40\n              mstore\n              pop\n              dup2\n              add\n              swap1\n              tag_280\n              swap2\n              swap1\n              tag_204\n              jump\t// in\n            tag_280:\n                /* \"Project.sol\":2851:2854  nft */\n              sload(0x15)\n                /* \"Project.sol\":2851:2872  nft.tokenURI(tokenId) */\n              mload(0x40)\n              shl(0xe0, 0xc87b56dd)\n              dup2\n              mstore\n              0x04\n              dup2\n              add\n                /* \"#utility.yul\":160:185   */\n              dup4\n              swap1\n              mstore\n                /* \"Project.sol\":2766:2820  uint256 tokenId = nft.tokenOfOwnerByIndex(_address, 0) */\n              swap2\n              swap3\n              pop\n              dup3\n              swap2\n              sub(shl(0xa0, 0x01), 0x01)\n                /* \"Project.sol\":2851:2854  nft */\n              swap1\n              swap2\n              and\n              swap1\n                /* \"Project.sol\":2851:2863  nft.tokenURI */\n              0xc87b56dd\n              swap1\n                /* \"#utility.yul\":133:151   */\n              0x24\n              add\n                /* \"Project.sol\":2851:2872  nft.tokenURI(tokenId) */\n              0x00\n              mload(0x40)\n              dup1\n              dup4\n              sub\n              dup2\n              dup7\n              gas\n              staticcall\n              iszero\n              dup1\n              iszero\n              tag_283\n              jumpi\n              returndatasize\n              0x00\n              dup1\n              returndatacopy\n              revert(0x00, returndatasize)\n            tag_283:\n              pop\n              pop\n              pop\n              pop\n              mload(0x40)\n              returndatasize\n              0x00\n              dup3\n              returndatacopy\n              0x1f\n              returndatasize\n              swap1\n              dup2\n              add\n              not(0x1f)\n              and\n              dup3\n              add\n              0x40\n              mstore\n              tag_284\n              swap2\n              swap1\n              dup2\n              add\n              swap1\n              tag_285\n              jump\t// in\n            tag_284:\n                /* \"Project.sol\":2834:2873  return (tokenId, nft.tokenURI(tokenId)) */\n              swap3\n              pop\n              swap3\n              pop\n              pop\n                /* \"Project.sol\":2630:2915  function getReward(address _address) public view returns (uint256, string memory) {... */\n              swap2\n              pop\n              swap2\n              jump\t// out\n                /* \"Project.sol\":2722:2884  if (status.rewards[_address]) {... */\n            tag_276:\n              pop\n              pop\n                /* \"Project.sol\":2894:2908  return (0, '') */\n              0x40\n              dup1\n              mload\n              0x20\n              dup2\n              add\n              swap1\n              swap2\n              mstore\n                /* \"Project.sol\":2902:2903  0 */\n              0x00\n                /* \"Project.sol\":2894:2908  return (0, '') */\n              dup1\n              dup3\n              mstore\n                /* \"Project.sol\":2902:2903  0 */\n              swap3\n                /* \"Project.sol\":2894:2908  return (0, '') */\n              swap1\n              swap2\n              pop\n                /* \"Project.sol\":2630:2915  function getReward(address _address) public view returns (uint256, string memory) {... */\n              jump\t// out\n                /* \"Project.sol\":9652:11219  function approveMilestone(uint index) public {... */\n            tag_121:\n                /* \"Project.sol\":9723:9733  milestones */\n              0x13\n                /* \"Project.sol\":9723:9740  milestones.length */\n              sload\n                /* \"Project.sol\":9715:9740  index < milestones.length */\n              dup2\n              lt\n                /* \"Project.sol\":9707:9768  require(index < milestones.length, \"Invalid milestone index\") */\n              tag_287\n              jumpi\n              mload(0x40)\n              shl(0xe5, 0x461bcd)\n              dup2\n              mstore\n                /* \"#utility.yul\":17841:17843   */\n              0x20\n                /* \"Project.sol\":9707:9768  require(index < milestones.length, \"Invalid milestone index\") */\n              0x04\n              dup3\n              add\n                /* \"#utility.yul\":17823:17844   */\n              mstore\n                /* \"#utility.yul\":17880:17882   */\n              0x17\n                /* \"#utility.yul\":17860:17878   */\n              0x24\n              dup3\n              add\n                /* \"#utility.yul\":17853:17883   */\n              mstore\n              shl(0x4b, 0x092dcecc2d8d2c840dad2d8cae6e8dedcca40d2dcc8caf)\n                /* \"#utility.yul\":17899:17917   */\n              0x44\n              dup3\n              add\n                /* \"#utility.yul\":17892:17945   */\n              mstore\n                /* \"#utility.yul\":17962:17980   */\n              0x64\n              add\n                /* \"Project.sol\":9707:9768  require(index < milestones.length, \"Invalid milestone index\") */\n              tag_155\n                /* \"#utility.yul\":17639:17986   */\n              jump\n                /* \"Project.sol\":9707:9768  require(index < milestones.length, \"Invalid milestone index\") */\n            tag_287:\n                /* \"Project.sol\":9778:9811  Model.Milestone storage milestone */\n              0x00\n                /* \"Project.sol\":9814:9824  milestones */\n              0x13\n                /* \"Project.sol\":9825:9830  index */\n              dup3\n                /* \"Project.sol\":9814:9831  milestones[index] */\n              dup2\n              sload\n              dup2\n              lt\n              tag_291\n              jumpi\n              tag_291\n              tag_169\n              jump\t// in\n            tag_291:\n              swap1\n              0x00\n              mstore\n              keccak256(0x00, 0x20)\n              swap1\n              0x03\n              mul\n              add\n                /* \"Project.sol\":9778:9831  Model.Milestone storage milestone = milestones[index] */\n              swap1\n              pop\n                /* \"Project.sol\":9841:9869  Model.Status storage mStatus */\n              0x00\n                /* \"Project.sol\":9872:9889  milestoneStatuses */\n              0x14\n                /* \"Project.sol\":9890:9895  index */\n              dup4\n                /* \"Project.sol\":9872:9896  milestoneStatuses[index] */\n              dup2\n              sload\n              dup2\n              lt\n              tag_294\n              jumpi\n              tag_294\n              tag_169\n              jump\t// in\n            tag_294:\n              swap1\n              0x00\n              mstore\n              keccak256(0x00, 0x20)\n              swap1\n              0x09\n              mul\n              add\n                /* \"Project.sol\":9841:9896  Model.Status storage mStatus = milestoneStatuses[index] */\n              swap1\n              pop\n                /* \"Project.sol\":9974:9975  0 */\n              0x00\n                /* \"Project.sol\":9966:9971  index */\n              dup4\n                /* \"Project.sol\":9966:9975  index > 0 */\n              gt\n                /* \"Project.sol\":9962:10153  if (index > 0) {... */\n              iszero\n              tag_296\n              jumpi\n                /* \"Project.sol\":9996:10002  uint i */\n              0x00\n                /* \"Project.sol\":9991:10143  for (uint i = 0; i < index; i++) {... */\n            tag_297:\n                /* \"Project.sol\":10012:10017  index */\n              dup4\n                /* \"Project.sol\":10008:10009  i */\n              dup2\n                /* \"Project.sol\":10008:10017  i < index */\n              lt\n                /* \"Project.sol\":9991:10143  for (uint i = 0; i < index; i++) {... */\n              iszero\n              tag_298\n              jumpi\n                /* \"Project.sol\":10050:10067  milestoneStatuses */\n              0x14\n                /* \"Project.sol\":10068:10069  i */\n              dup2\n                /* \"Project.sol\":10050:10070  milestoneStatuses[i] */\n              dup2\n              sload\n              dup2\n              lt\n              tag_301\n              jumpi\n              tag_301\n              tag_169\n              jump\t// in\n            tag_301:\n              0x00\n              swap2\n              dup3\n              mstore\n              0x20\n              swap1\n              swap2\n              keccak256\n                /* \"Project.sol\":10050:10080  milestoneStatuses[i].completed */\n              0x04\n                /* \"Project.sol\":10050:10070  milestoneStatuses[i] */\n              0x09\n              swap1\n              swap3\n              mul\n              add\n                /* \"Project.sol\":10050:10080  milestoneStatuses[i].completed */\n              add\n              sload\n              0xff\n              and\n                /* \"Project.sol\":10042:10128  require(milestoneStatuses[i].completed, \"Previous milestones must be completed first\") */\n              tag_303\n              jumpi\n              mload(0x40)\n              shl(0xe5, 0x461bcd)\n              dup2\n              mstore\n                /* \"#utility.yul\":18193:18195   */\n              0x20\n                /* \"Project.sol\":10042:10128  require(milestoneStatuses[i].completed, \"Previous milestones must be completed first\") */\n              0x04\n              dup3\n              add\n                /* \"#utility.yul\":18175:18196   */\n              mstore\n                /* \"#utility.yul\":18232:18234   */\n              0x2b\n                /* \"#utility.yul\":18212:18230   */\n              0x24\n              dup3\n              add\n                /* \"#utility.yul\":18205:18235   */\n              mstore\n                /* \"#utility.yul\":18271:18305   */\n              0x50726576696f7573206d696c6573746f6e6573206d75737420626520636f6d70\n                /* \"#utility.yul\":18251:18269   */\n              0x44\n              dup3\n              add\n                /* \"#utility.yul\":18244:18306   */\n              mstore\n              shl(0xaa, 0x1b195d195908199a5c9cdd)\n                /* \"#utility.yul\":18322:18340   */\n              0x64\n              dup3\n              add\n                /* \"#utility.yul\":18315:18356   */\n              mstore\n                /* \"#utility.yul\":18373:18392   */\n              0x84\n              add\n                /* \"Project.sol\":10042:10128  require(milestoneStatuses[i].completed, \"Previous milestones must be completed first\") */\n              tag_155\n                /* \"#utility.yul\":17991:18398   */\n              jump\n                /* \"Project.sol\":10042:10128  require(milestoneStatuses[i].completed, \"Previous milestones must be completed first\") */\n            tag_303:\n                /* \"Project.sol\":10019:10022  i++ */\n              0x01\n              add\n                /* \"Project.sol\":9991:10143  for (uint i = 0; i < index; i++) {... */\n              jump(tag_297)\n            tag_298:\n              pop\n                /* \"Project.sol\":9962:10153  if (index > 0) {... */\n            tag_296:\n                /* \"Project.sol\":10184:10194  msg.sender */\n              caller\n                /* \"Project.sol\":10198:10199  0 */\n              0x00\n                /* \"Project.sol\":10171:10195  contributors[msg.sender] */\n              swap1\n              dup2\n              mstore\n                /* \"Project.sol\":10171:10183  contributors */\n              0x09\n                /* \"Project.sol\":10171:10195  contributors[msg.sender] */\n              0x20\n              mstore\n              0x40\n              swap1\n              keccak256\n              sload\n                /* \"Project.sol\":10163:10221  require(contributors[msg.sender] > 0, \"Not a contributor\") */\n              tag_306\n              jumpi\n              mload(0x40)\n              shl(0xe5, 0x461bcd)\n              dup2\n              mstore\n              0x04\n              add\n              tag_155\n              swap1\n              tag_159\n              jump\t// in\n            tag_306:\n                /* \"Project.sol\":10257:10267  msg.sender */\n              caller\n                /* \"Project.sol\":10239:10268  mStatus.approvals[msg.sender] */\n              0x00\n              swap1\n              dup2\n              mstore\n                /* \"Project.sol\":10239:10256  mStatus.approvals */\n              0x03\n              dup3\n              add\n                /* \"Project.sol\":10239:10268  mStatus.approvals[msg.sender] */\n              0x20\n              mstore\n              0x40\n              swap1\n              keccak256\n              sload\n                /* \"Project.sol\":10239:10273  mStatus.approvals[msg.sender] == 0 */\n              iszero\n                /* \"Project.sol\":10231:10309  require(mStatus.approvals[msg.sender] == 0, \"Already approved this milestone\") */\n              tag_308\n              jumpi\n              mload(0x40)\n              shl(0xe5, 0x461bcd)\n              dup2\n              mstore\n                /* \"#utility.yul\":18605:18607   */\n              0x20\n                /* \"Project.sol\":10231:10309  require(mStatus.approvals[msg.sender] == 0, \"Already approved this milestone\") */\n              0x04\n              dup3\n              add\n                /* \"#utility.yul\":18587:18608   */\n              mstore\n                /* \"#utility.yul\":18644:18646   */\n              0x1f\n                /* \"#utility.yul\":18624:18642   */\n              0x24\n              dup3\n              add\n                /* \"#utility.yul\":18617:18647   */\n              mstore\n                /* \"#utility.yul\":18683:18716   */\n              0x416c726561647920617070726f7665642074686973206d696c6573746f6e6500\n                /* \"#utility.yul\":18663:18681   */\n              0x44\n              dup3\n              add\n                /* \"#utility.yul\":18656:18717   */\n              mstore\n                /* \"#utility.yul\":18734:18752   */\n              0x64\n              add\n                /* \"Project.sol\":10231:10309  require(mStatus.approvals[msg.sender] == 0, \"Already approved this milestone\") */\n              tag_155\n                /* \"#utility.yul\":18403:18758   */\n              jump\n                /* \"Project.sol\":10231:10309  require(mStatus.approvals[msg.sender] == 0, \"Already approved this milestone\") */\n            tag_308:\n                /* \"Project.sol\":10488:10507  milestone.threshold */\n              0x02\n              dup3\n              add\n              sload\n                /* \"Project.sol\":10521:10530  index > 0 */\n              dup4\n              iszero\n                /* \"Project.sol\":10517:10628  if (index > 0) {... */\n              tag_311\n              jumpi\n                /* \"Project.sol\":10586:10596  milestones */\n              0x13\n                /* \"Project.sol\":10597:10606  index - 1 */\n              tag_312\n                /* \"Project.sol\":10605:10606  1 */\n              0x01\n                /* \"Project.sol\":10597:10602  index */\n              dup7\n                /* \"Project.sol\":10597:10606  index - 1 */\n              tag_313\n              jump\t// in\n            tag_312:\n                /* \"Project.sol\":10586:10607  milestones[index - 1] */\n              dup2\n              sload\n              dup2\n              lt\n              tag_315\n              jumpi\n              tag_315\n              tag_169\n              jump\t// in\n            tag_315:\n              swap1\n              0x00\n              mstore\n              keccak256(0x00, 0x20)\n              swap1\n              0x03\n              mul\n              add\n                /* \"Project.sol\":10586:10617  milestones[index - 1].threshold */\n              0x02\n              add\n              sload\n                /* \"Project.sol\":10564:10573  milestone */\n              dup4\n                /* \"Project.sol\":10564:10583  milestone.threshold */\n              0x02\n              add\n              sload\n                /* \"Project.sol\":10564:10617  milestone.threshold - milestones[index - 1].threshold */\n              tag_317\n              swap2\n              swap1\n              tag_313\n              jump\t// in\n            tag_317:\n                /* \"Project.sol\":10546:10617  requiredBalance = milestone.threshold - milestones[index - 1].threshold */\n              swap1\n              pop\n                /* \"Project.sol\":10517:10628  if (index > 0) {... */\n            tag_311:\n                /* \"Project.sol\":10670:10685  requiredBalance */\n              dup1\n                /* \"Project.sol\":10645:10666  address(this).balance */\n              selfbalance\n                /* \"Project.sol\":10645:10685  address(this).balance >= requiredBalance */\n              lt\n              iszero\n                /* \"Project.sol\":10637:10721  require(address(this).balance >= requiredBalance, \"Milestone threshold not reached\") */\n              tag_318\n              jumpi\n              mload(0x40)\n              shl(0xe5, 0x461bcd)\n              dup2\n              mstore\n                /* \"#utility.yul\":19098:19100   */\n              0x20\n                /* \"Project.sol\":10637:10721  require(address(this).balance >= requiredBalance, \"Milestone threshold not reached\") */\n              0x04\n              dup3\n              add\n                /* \"#utility.yul\":19080:19101   */\n              mstore\n                /* \"#utility.yul\":19137:19139   */\n              0x1f\n                /* \"#utility.yul\":19117:19135   */\n              0x24\n              dup3\n              add\n                /* \"#utility.yul\":19110:19140   */\n              mstore\n                /* \"#utility.yul\":19176:19209   */\n              0x4d696c6573746f6e65207468726573686f6c64206e6f74207265616368656400\n                /* \"#utility.yul\":19156:19174   */\n              0x44\n              dup3\n              add\n                /* \"#utility.yul\":19149:19210   */\n              mstore\n                /* \"#utility.yul\":19227:19245   */\n              0x64\n              add\n                /* \"Project.sol\":10637:10721  require(address(this).balance >= requiredBalance, \"Milestone threshold not reached\") */\n              tag_155\n                /* \"#utility.yul\":18896:19251   */\n              jump\n                /* \"Project.sol\":10637:10721  require(address(this).balance >= requiredBalance, \"Milestone threshold not reached\") */\n            tag_318:\n                /* \"Project.sol\":10750:10760  msg.sender */\n              caller\n                /* \"Project.sol\":10732:10761  mStatus.approvals[msg.sender] */\n              0x00\n              swap1\n              dup2\n              mstore\n                /* \"Project.sol\":10732:10749  mStatus.approvals */\n              0x03\n              dup4\n              add\n                /* \"Project.sol\":10732:10761  mStatus.approvals[msg.sender] */\n              0x20\n              mstore\n              0x40\n              dup2\n              keccak256\n                /* \"Project.sol\":10764:10779  block.timestamp */\n              timestamp\n                /* \"Project.sol\":10732:10779  mStatus.approvals[msg.sender] = block.timestamp */\n              swap1\n              sstore\n                /* \"Project.sol\":10789:10811  mStatus.approvalsCount */\n              0x02\n              dup4\n              add\n                /* \"Project.sol\":10789:10813  mStatus.approvalsCount++ */\n              dup1\n              sload\n              swap2\n              tag_321\n              dup4\n              tag_175\n              jump\t// in\n            tag_321:\n              swap2\n              swap1\n              pop\n              sstore\n              pop\n                /* \"Project.sol\":10888:10898  msg.sender */\n              caller\n              sub(shl(0xa0, 0x01), 0x01)\n                /* \"Project.sol\":10829:10973  MilestoneApprovalSubmitted(... */\n              and\n                /* \"Project.sol\":10869:10874  index */\n              dup5\n                /* \"Project.sol\":10829:10973  MilestoneApprovalSubmitted(... */\n              0xbcc8d96147346acca8053ccdac1317167b1cb4456421948b4b31638f502f2d62\n                /* \"Project.sol\":10912:10919  mStatus */\n              dup5\n                /* \"Project.sol\":10912:10934  mStatus.approvalsCount */\n              0x02\n              add\n              sload\n                /* \"Project.sol\":10948:10963  block.timestamp */\n              timestamp\n                /* \"Project.sol\":10829:10973  MilestoneApprovalSubmitted(... */\n              mload(0x40)\n              tag_322\n              swap3\n              swap2\n              swap1\n              tag_177\n              jump\t// in\n            tag_322:\n              mload(0x40)\n              dup1\n              swap2\n              sub\n              swap1\n              log3\n                /* \"Project.sol\":11016:11036  contributorAddresses */\n              0x08\n                /* \"Project.sol\":11016:11043  contributorAddresses.length */\n              sload\n                /* \"Project.sol\":11016:11047  contributorAddresses.length / 2 */\n              tag_323\n              swap1\n                /* \"Project.sol\":11046:11047  2 */\n              0x02\n              swap1\n                /* \"Project.sol\":11016:11047  contributorAddresses.length / 2 */\n              tag_179\n              jump\t// in\n            tag_323:\n                /* \"Project.sol\":11015:11052  (contributorAddresses.length / 2) + 1 */\n              tag_324\n              swap1\n                /* \"Project.sol\":11051:11052  1 */\n              0x01\n                /* \"Project.sol\":11015:11052  (contributorAddresses.length / 2) + 1 */\n              tag_181\n              jump\t// in\n            tag_324:\n                /* \"Project.sol\":10988:10995  mStatus */\n              dup3\n                /* \"Project.sol\":10988:11010  mStatus.approvalsCount */\n              0x02\n              add\n              sload\n                /* \"Project.sol\":10988:11053  mStatus.approvalsCount >= ((contributorAddresses.length / 2) + 1) */\n              lt\n                /* \"Project.sol\":10984:11213  if (mStatus.approvalsCount >= ((contributorAddresses.length / 2) + 1)) {... */\n              tag_213\n              jumpi\n                /* \"Project.sol\":11069:11092  mStatus.approved = true */\n              dup2\n              sload\n              not(0xff)\n              and\n                /* \"Project.sol\":11088:11092  true */\n              0x01\n                /* \"Project.sol\":11069:11092  mStatus.approved = true */\n              swap1\n              dup2\n              or\n              dup4\n              sstore\n                /* \"Project.sol\":11127:11142  block.timestamp */\n              timestamp\n                /* \"Project.sol\":11106:11124  mStatus.approvedAt */\n              swap1\n              dup4\n              add\n                /* \"Project.sol\":11106:11142  mStatus.approvedAt = block.timestamp */\n              dup2\n              swap1\n              sstore\n                /* \"Project.sol\":11161:11202  MilestoneApproved(index, block.timestamp) */\n              mload(0x40)\n                /* \"Project.sol\":11179:11184  index */\n              dup6\n              swap2\n                /* \"Project.sol\":11161:11202  MilestoneApproved(index, block.timestamp) */\n              0x939da3b627c123c81fe5aacebf925163337a0d4f8a03724640618078cad24894\n              swap2\n              tag_326\n              swap2\n                /* \"#utility.yul\":160:185   */\n              dup2\n              mstore\n                /* \"#utility.yul\":148:150   */\n              0x20\n                /* \"#utility.yul\":133:151   */\n              add\n              swap1\n                /* \"#utility.yul\":14:191   */\n              jump\n                /* \"Project.sol\":11161:11202  MilestoneApproved(index, block.timestamp) */\n            tag_326:\n              mload(0x40)\n              dup1\n              swap2\n              sub\n              swap1\n              log2\n                /* \"Project.sol\":9697:11219  {... */\n              pop\n              pop\n              pop\n                /* \"Project.sol\":9652:11219  function approveMilestone(uint index) public {... */\n              pop\n              jump\t// out\n                /* \"Project.sol\":8812:9646  function createMilestone(... */\n            tag_126:\n                /* \"Project.sol\":758:763  owner */\n              and(sub(shl(0xa0, 0x01), 0x01), sload(0x01))\n                /* \"Project.sol\":744:754  msg.sender */\n              caller\n                /* \"Project.sol\":744:763  msg.sender == owner */\n              eq\n                /* \"Project.sol\":736:764  require(msg.sender == owner) */\n              tag_328\n              jumpi\n              0x00\n              dup1\n              revert\n            tag_328:\n                /* \"Project.sol\":8997:8998  0 */\n              0x00\n                /* \"Project.sol\":8974:8986  _description */\n              dup4\n                /* \"Project.sol\":8968:8994  bytes(_description).length */\n              mload\n                /* \"Project.sol\":8968:8998  bytes(_description).length > 0 */\n              gt\n                /* \"Project.sol\":8960:8999  require(bytes(_description).length > 0) */\n              tag_330\n              jumpi\n              0x00\n              dup1\n              revert\n            tag_330:\n                /* \"Project.sol\":9030:9031  0 */\n              0x00\n                /* \"Project.sol\":9017:9027  _threshold */\n              dup3\n                /* \"Project.sol\":9017:9031  _threshold > 0 */\n              gt\n                /* \"Project.sol\":9009:9032  require(_threshold > 0) */\n              tag_331\n              jumpi\n              0x00\n              dup1\n              revert\n            tag_331:\n                /* \"Project.sol\":9063:9081  targetContribution */\n              sload(0x06)\n                /* \"Project.sol\":9050:9060  _threshold */\n              dup3\n                /* \"Project.sol\":9050:9081  _threshold < targetContribution */\n              lt\n                /* \"Project.sol\":9042:9082  require(_threshold < targetContribution) */\n              tag_332\n              jumpi\n              0x00\n              dup1\n              revert\n            tag_332:\n              sub(shl(0xa0, 0x01), 0x01)\n                /* \"Project.sol\":9100:9124  _recipient != address(0) */\n              dup2\n              and\n                /* \"Project.sol\":9092:9125  require(_recipient != address(0)) */\n              tag_333\n              jumpi\n              0x00\n              dup1\n              revert\n            tag_333:\n                /* \"Project.sol\":9278:9288  milestones */\n              0x13\n                /* \"Project.sol\":9278:9295  milestones.length */\n              sload\n                /* \"Project.sol\":9278:9299  milestones.length > 0 */\n              iszero\n                /* \"Project.sol\":9274:9391  if (milestones.length > 0) {... */\n              tag_339\n              jumpi\n                /* \"Project.sol\":9336:9346  milestones */\n              0x13\n                /* \"Project.sol\":9347:9364  milestones.length */\n              dup1\n              sload\n                /* \"Project.sol\":9347:9368  milestones.length - 1 */\n              tag_335\n              swap1\n                /* \"Project.sol\":9367:9368  1 */\n              0x01\n              swap1\n                /* \"Project.sol\":9347:9368  milestones.length - 1 */\n              tag_313\n              jump\t// in\n            tag_335:\n                /* \"Project.sol\":9336:9369  milestones[milestones.length - 1] */\n              dup2\n              sload\n              dup2\n              lt\n              tag_337\n              jumpi\n              tag_337\n              tag_169\n              jump\t// in\n            tag_337:\n              swap1\n              0x00\n              mstore\n              keccak256(0x00, 0x20)\n              swap1\n              0x03\n              mul\n              add\n                /* \"Project.sol\":9336:9379  milestones[milestones.length - 1].threshold */\n              0x02\n              add\n              sload\n                /* \"Project.sol\":9323:9333  _threshold */\n              dup3\n                /* \"Project.sol\":9323:9379  _threshold > milestones[milestones.length - 1].threshold */\n              gt\n                /* \"Project.sol\":9315:9380  require(_threshold > milestones[milestones.length - 1].threshold) */\n              tag_339\n              jumpi\n              0x00\n              dup1\n              revert\n            tag_339:\n                /* \"Project.sol\":9440:9450  milestones */\n              0x13\n                /* \"Project.sol\":9440:9457  milestones.push() */\n              dup1\n              sload\n              0x01\n              dup2\n              add\n              dup3\n              sstore\n                /* \"Project.sol\":9401:9437  Model.Milestone storage newMilestone */\n              0x00\n                /* \"Project.sol\":9440:9457  milestones.push() */\n              swap2\n              swap1\n              swap2\n              mstore\n              0x03\n              mul\n              0x66de8ffda797e3de9c05e8fc57b3bf0ec28a930d40b0d285d93c06501cf6a090\n              dup2\n              add\n              swap1\n                /* \"Project.sol\":9467:9491  newMilestone.description */\n              0x66de8ffda797e3de9c05e8fc57b3bf0ec28a930d40b0d285d93c06501cf6a091\n              add\n                /* \"Project.sol\":9467:9506  newMilestone.description = _description */\n              tag_341\n                /* \"Project.sol\":9494:9506  _description */\n              dup6\n                /* \"Project.sol\":9467:9491  newMilestone.description */\n              dup3\n                /* \"Project.sol\":9467:9506  newMilestone.description = _description */\n              tag_342\n              jump\t// in\n            tag_341:\n              pop\n                /* \"Project.sol\":9516:9538  newMilestone.threshold */\n              0x02\n              dup2\n              add\n                /* \"Project.sol\":9516:9551  newMilestone.threshold = _threshold */\n              swap3\n              swap1\n              swap3\n              sstore\n                /* \"Project.sol\":9561:9605  newMilestone.recipient = payable(_recipient) */\n              dup2\n              sload\n              not(sub(shl(0xa0, 0x01), 0x01))\n              and\n              sub(shl(0xa0, 0x01), 0x01)\n              swap2\n              swap1\n              swap2\n              and\n              or\n              swap1\n              sstore\n              pop\n                /* \"Project.sol\":9615:9632  milestoneStatuses */\n              0x14\n                /* \"Project.sol\":9615:9639  milestoneStatuses.push() */\n              dup1\n              sload\n              0x01\n              add\n              dup2\n              sstore\n              0x00\n              mstore\n                /* \"Project.sol\":8812:9646  function createMilestone(... */\n              jump\t// out\n                /* \"Project.sol\":3043:3789  function contribute() public payable {... */\n            tag_128:\n                /* \"Project.sol\":3111:3130  minimumContribution */\n              sload(0x05)\n                /* \"Project.sol\":3098:3107  msg.value */\n              callvalue\n                /* \"Project.sol\":3098:3130  msg.value >= minimumContribution */\n              lt\n              iszero\n                /* \"Project.sol\":3090:3161  require(msg.value >= minimumContribution, \"Contribution below minimum\") */\n              tag_345\n              jumpi\n              mload(0x40)\n              shl(0xe5, 0x461bcd)\n              dup2\n              mstore\n                /* \"#utility.yul\":21628:21630   */\n              0x20\n                /* \"Project.sol\":3090:3161  require(msg.value >= minimumContribution, \"Contribution below minimum\") */\n              0x04\n              dup3\n              add\n                /* \"#utility.yul\":21610:21631   */\n              mstore\n                /* \"#utility.yul\":21667:21669   */\n              0x1a\n                /* \"#utility.yul\":21647:21665   */\n              0x24\n              dup3\n              add\n                /* \"#utility.yul\":21640:21670   */\n              mstore\n              shl(0x30, 0x436f6e747269627574696f6e2062656c6f77206d696e696d756d)\n                /* \"#utility.yul\":21686:21704   */\n              0x44\n              dup3\n              add\n                /* \"#utility.yul\":21679:21735   */\n              mstore\n                /* \"#utility.yul\":21752:21770   */\n              0x64\n              add\n                /* \"Project.sol\":3090:3161  require(msg.value >= minimumContribution, \"Contribution below minimum\") */\n              tag_155\n                /* \"#utility.yul\":21426:21776   */\n              jump\n                /* \"Project.sol\":3090:3161  require(msg.value >= minimumContribution, \"Contribution below minimum\") */\n            tag_345:\n                /* \"Project.sol\":3225:3244  minimumContribution */\n              sload(0x05)\n                /* \"Project.sol\":3204:3222  targetContribution */\n              sload(0x06)\n                /* \"Project.sol\":3204:3244  targetContribution + minimumContribution */\n              tag_348\n              swap2\n              swap1\n              tag_181\n              jump\t// in\n            tag_348:\n                /* \"Project.sol\":3179:3200  address(this).balance */\n              selfbalance\n                /* \"Project.sol\":3179:3244  address(this).balance <= targetContribution + minimumContribution */\n              gt\n              iszero\n                /* \"Project.sol\":3171:3281  require(address(this).balance <= targetContribution + minimumContribution, \"Contribution would exceed target\") */\n              tag_349\n              jumpi\n              mload(0x40)\n              shl(0xe5, 0x461bcd)\n              dup2\n              mstore\n                /* \"#utility.yul\":21983:21985   */\n              0x20\n                /* \"Project.sol\":3171:3281  require(address(this).balance <= targetContribution + minimumContribution, \"Contribution would exceed target\") */\n              0x04\n              dup3\n              add\n                /* \"#utility.yul\":21965:21986   */\n              dup2\n              swap1\n              mstore\n                /* \"#utility.yul\":22002:22020   */\n              0x24\n              dup3\n              add\n                /* \"#utility.yul\":21995:22025   */\n              mstore\n                /* \"#utility.yul\":22061:22095   */\n              0x436f6e747269627574696f6e20776f756c642065786365656420746172676574\n                /* \"#utility.yul\":22041:22059   */\n              0x44\n              dup3\n              add\n                /* \"#utility.yul\":22034:22096   */\n              mstore\n                /* \"#utility.yul\":22113:22131   */\n              0x64\n              add\n                /* \"Project.sol\":3171:3281  require(address(this).balance <= targetContribution + minimumContribution, \"Contribution would exceed target\") */\n              tag_155\n                /* \"#utility.yul\":21781:22137   */\n              jump\n                /* \"Project.sol\":3171:3281  require(address(this).balance <= targetContribution + minimumContribution, \"Contribution would exceed target\") */\n            tag_349:\n                /* \"Project.sol\":3317:3325  deadline */\n              sload(0x07)\n                /* \"Project.sol\":3299:3314  block.timestamp */\n              timestamp\n                /* \"Project.sol\":3299:3325  block.timestamp < deadline */\n              lt\n                /* \"Project.sol\":3291:3326  require(block.timestamp < deadline) */\n              tag_352\n              jumpi\n              0x00\n              dup1\n              revert\n            tag_352:\n                /* \"Project.sol\":3354:3364  msg.sender */\n              caller\n                /* \"Project.sol\":3341:3365  contributors[msg.sender] */\n              0x00\n              swap1\n              dup2\n              mstore\n                /* \"Project.sol\":3341:3353  contributors */\n              0x09\n                /* \"Project.sol\":3341:3365  contributors[msg.sender] */\n              0x20\n              mstore\n              0x40\n              dup2\n              keccak256\n              sload\n                /* \"Project.sol\":3341:3370  contributors[msg.sender] == 0 */\n              swap1\n              sub\n                /* \"Project.sol\":3337:3434  if (contributors[msg.sender] == 0) {... */\n              tag_353\n              jumpi\n                /* \"Project.sol\":3386:3406  contributorAddresses */\n              0x08\n                /* \"Project.sol\":3386:3423  contributorAddresses.push(msg.sender) */\n              dup1\n              sload\n              0x01\n              dup2\n              add\n              dup3\n              sstore\n              0x00\n              swap2\n              swap1\n              swap2\n              mstore\n              0xf3f7a9fe364faab93b216da50a3214154f22a0a2b415b23a84c8169e8b636ee3\n              add\n              dup1\n              sload\n              not(sub(shl(0xa0, 0x01), 0x01))\n              and\n                /* \"Project.sol\":3412:3422  msg.sender */\n              caller\n                /* \"Project.sol\":3386:3423  contributorAddresses.push(msg.sender) */\n              or\n              swap1\n              sstore\n                /* \"Project.sol\":3337:3434  if (contributors[msg.sender] == 0) {... */\n            tag_353:\n                /* \"Project.sol\":3519:3529  msg.sender */\n              caller\n                /* \"Project.sol\":3506:3530  contributors[msg.sender] */\n              0x00\n              dup2\n              dup2\n              mstore\n                /* \"Project.sol\":3506:3518  contributors */\n              0x09\n                /* \"Project.sol\":3506:3530  contributors[msg.sender] */\n              0x20\n              swap1\n              dup2\n              mstore\n              0x40\n              swap2\n              dup3\n              swap1\n              keccak256\n                /* \"Project.sol\":3533:3542  msg.value */\n              callvalue\n                /* \"Project.sol\":3506:3542  contributors[msg.sender] = msg.value */\n              swap1\n              dup2\n              swap1\n              sstore\n                /* \"Project.sol\":3716:3736  contributorAddresses */\n              0x08\n                /* \"Project.sol\":3716:3743  contributorAddresses.length */\n              sload\n                /* \"Project.sol\":3604:3782  ContributionMade(... */\n              dup4\n              mload\n                /* \"#utility.yul\":22373:22398   */\n              swap2\n              dup3\n              mstore\n                /* \"Project.sol\":3681:3702  address(this).balance */\n              selfbalance\n                /* \"#utility.yul\":22414:22432   */\n              swap3\n              dup3\n              add\n                /* \"#utility.yul\":22407:22441   */\n              swap3\n              swap1\n              swap3\n              mstore\n                /* \"#utility.yul\":22457:22475   */\n              swap2\n              dup3\n              add\n                /* \"#utility.yul\":22450:22484   */\n              mstore\n                /* \"Project.sol\":3757:3772  block.timestamp */\n              timestamp\n                /* \"#utility.yul\":22515:22517   */\n              0x60\n                /* \"#utility.yul\":22500:22518   */\n              dup3\n              add\n                /* \"#utility.yul\":22493:22527   */\n              mstore\n                /* \"Project.sol\":3604:3782  ContributionMade(... */\n              0x38eaf060ddec1dde1c99c9cce5c8f34a03c48e9368f6ff7b768898f627860580\n              swap1\n                /* \"#utility.yul\":22360:22363   */\n              0x80\n                /* \"#utility.yul\":22345:22364   */\n              add\n                /* \"Project.sol\":3604:3782  ContributionMade(... */\n              tag_241\n                /* \"#utility.yul\":22142:22533   */\n              jump\n                /* \"Project.sol\":589:624  Model.Milestone[] public milestones */\n            tag_137:\n              0x13\n              dup2\n              dup2\n              sload\n              dup2\n              lt\n              tag_358\n              jumpi\n              0x00\n              dup1\n              revert\n            tag_358:\n              0x00\n              swap2\n              dup3\n              mstore\n              0x20\n              swap1\n              swap2\n              keccak256\n              0x03\n              swap1\n              swap2\n              mul\n              add\n              dup1\n              sload\n              0x01\n              dup3\n              add\n              dup1\n              sload\n              sub(shl(0xa0, 0x01), 0x01)\n              swap1\n              swap3\n              and\n              swap4\n              pop\n              swap1\n              tag_360\n              swap1\n              tag_244\n              jump\t// in\n            tag_360:\n              dup1\n              0x1f\n              add\n              0x20\n              dup1\n              swap2\n              div\n              mul\n              0x20\n              add\n              mload(0x40)\n              swap1\n              dup2\n              add\n              0x40\n              mstore\n              dup1\n              swap3\n              swap2\n              swap1\n              dup2\n              dup2\n              mstore\n              0x20\n              add\n              dup3\n              dup1\n              sload\n              tag_361\n              swap1\n              tag_244\n              jump\t// in\n            tag_361:\n              dup1\n              iszero\n              tag_362\n              jumpi\n              dup1\n              0x1f\n              lt\n              tag_363\n              jumpi\n              0x0100\n              dup1\n              dup4\n              sload\n              div\n              mul\n              dup4\n              mstore\n              swap2\n              0x20\n              add\n              swap2\n              jump(tag_362)\n            tag_363:\n              dup3\n              add\n              swap2\n              swap1\n              0x00\n              mstore\n              keccak256(0x00, 0x20)\n              swap1\n            tag_364:\n              dup2\n              sload\n              dup2\n              mstore\n              swap1\n              0x01\n              add\n              swap1\n              0x20\n              add\n              dup1\n              dup4\n              gt\n              tag_364\n              jumpi\n              dup3\n              swap1\n              sub\n              0x1f\n              and\n              dup3\n              add\n              swap2\n            tag_362:\n              pop\n              pop\n              pop\n              pop\n              pop\n              swap1\n              dup1\n              0x02\n              add\n              sload\n              swap1\n              pop\n              dup4\n              jump\t// out\n                /* \"Project.sol\":7056:7501  function cancel() public restricted {... */\n            tag_142:\n                /* \"Project.sol\":758:763  owner */\n              and(sub(shl(0xa0, 0x01), 0x01), sload(0x01))\n                /* \"Project.sol\":744:754  msg.sender */\n              caller\n                /* \"Project.sol\":744:763  msg.sender == owner */\n              eq\n                /* \"Project.sol\":736:764  require(msg.sender == owner) */\n              tag_366\n              jumpi\n              0x00\n              dup1\n              revert\n            tag_366:\n                /* \"Project.sol\":7111:7127  status.cancelled */\n              and(0xff, sload(0x11))\n                /* \"Project.sol\":7110:7127  !status.cancelled */\n              iszero\n                /* \"Project.sol\":7102:7157  require(!status.cancelled, \"Project already cancelled\") */\n              tag_368\n              jumpi\n              mload(0x40)\n              shl(0xe5, 0x461bcd)\n              dup2\n              mstore\n              0x04\n              add\n              tag_155\n              swap1\n              tag_255\n              jump\t// in\n            tag_368:\n                /* \"Project.sol\":7176:7182  status */\n              0x0a\n                /* \"Project.sol\":7176:7191  status.approved */\n              sload\n              0xff\n              and\n                /* \"Project.sol\":7175:7191  !status.approved */\n              iszero\n                /* \"Project.sol\":7167:7220  require(!status.approved, \"Project already approved\") */\n              tag_370\n              jumpi\n              mload(0x40)\n              shl(0xe5, 0x461bcd)\n              dup2\n              mstore\n              0x04\n              add\n              tag_155\n              swap1\n              tag_258\n              jump\t// in\n            tag_370:\n                /* \"Project.sol\":7256:7264  deadline */\n              sload(0x07)\n                /* \"Project.sol\":7238:7253  block.timestamp */\n              timestamp\n                /* \"Project.sol\":7238:7264  block.timestamp < deadline */\n              lt\n                /* \"Project.sol\":7230:7292  require(block.timestamp < deadline, \"Project already expired\") */\n              tag_372\n              jumpi\n              mload(0x40)\n              shl(0xe5, 0x461bcd)\n              dup2\n              mstore\n                /* \"#utility.yul\":22740:22742   */\n              0x20\n                /* \"Project.sol\":7230:7292  require(block.timestamp < deadline, \"Project already expired\") */\n              0x04\n              dup3\n              add\n                /* \"#utility.yul\":22722:22743   */\n              mstore\n                /* \"#utility.yul\":22779:22781   */\n              0x17\n                /* \"#utility.yul\":22759:22777   */\n              0x24\n              dup3\n              add\n                /* \"#utility.yul\":22752:22782   */\n              mstore\n              shl(0x4a, 0x141c9bda9958dd08185b1c9958591e48195e1c1a5c9959)\n                /* \"#utility.yul\":22798:22816   */\n              0x44\n              dup3\n              add\n                /* \"#utility.yul\":22791:22844   */\n              mstore\n                /* \"#utility.yul\":22861:22879   */\n              0x64\n              add\n                /* \"Project.sol\":7230:7292  require(block.timestamp < deadline, \"Project already expired\") */\n              tag_155\n                /* \"#utility.yul\":22538:22885   */\n              jump\n                /* \"Project.sol\":7230:7292  require(block.timestamp < deadline, \"Project already expired\") */\n            tag_372:\n                /* \"Project.sol\":7311:7327  status.cancelled */\n              0x11\n                /* \"Project.sol\":7311:7334  status.cancelled = true */\n              dup1\n              sload\n              not(0xff)\n              and\n                /* \"Project.sol\":7330:7334  true */\n              0x01\n                /* \"Project.sol\":7311:7334  status.cancelled = true */\n              or\n              swap1\n              sstore\n                /* \"Project.sol\":7365:7380  block.timestamp */\n              timestamp\n                /* \"Project.sol\":7344:7362  status.cancelledAt */\n              0x12\n                /* \"Project.sol\":7344:7380  status.cancelledAt = block.timestamp */\n              sstore\n                /* \"Project.sol\":7390:7402  _refundAll() */\n              tag_375\n                /* \"Project.sol\":7390:7400  _refundAll */\n              tag_266\n                /* \"Project.sol\":7390:7402  _refundAll() */\n              jump\t// in\n            tag_375:\n                /* \"Project.sol\":7443:7453  msg.sender */\n              caller\n              sub(shl(0xa0, 0x01), 0x01)\n                /* \"Project.sol\":7426:7494  ProjectCancelled(msg.sender, address(this).balance, block.timestamp) */\n              and\n              0xff980be860fcf38146235584f535793513378822dc159072e5ca157ba497780d\n                /* \"Project.sol\":7455:7476  address(this).balance */\n              selfbalance\n                /* \"Project.sol\":7478:7493  block.timestamp */\n              timestamp\n                /* \"Project.sol\":7426:7494  ProjectCancelled(msg.sender, address(this).balance, block.timestamp) */\n              mload(0x40)\n              tag_241\n              swap3\n              swap2\n              swap1\n              tag_177\n              jump\t// in\n                /* \"Project.sol\":11225:12398  function withdrawMilestone(uint index) public restricted {... */\n            tag_146:\n                /* \"Project.sol\":758:763  owner */\n              and(sub(shl(0xa0, 0x01), 0x01), sload(0x01))\n                /* \"Project.sol\":744:754  msg.sender */\n              caller\n                /* \"Project.sol\":744:763  msg.sender == owner */\n              eq\n                /* \"Project.sol\":736:764  require(msg.sender == owner) */\n              tag_378\n              jumpi\n              0x00\n              dup1\n              revert\n            tag_378:\n                /* \"Project.sol\":11292:11325  Model.Milestone storage milestone */\n              0x00\n                /* \"Project.sol\":11328:11338  milestones */\n              0x13\n                /* \"Project.sol\":11339:11344  index */\n              dup3\n                /* \"Project.sol\":11328:11345  milestones[index] */\n              dup2\n              sload\n              dup2\n              lt\n              tag_381\n              jumpi\n              tag_381\n              tag_169\n              jump\t// in\n            tag_381:\n              swap1\n              0x00\n              mstore\n              keccak256(0x00, 0x20)\n              swap1\n              0x03\n              mul\n              add\n                /* \"Project.sol\":11292:11345  Model.Milestone storage milestone = milestones[index] */\n              swap1\n              pop\n                /* \"Project.sol\":11355:11383  Model.Status storage mStatus */\n              0x00\n                /* \"Project.sol\":11386:11403  milestoneStatuses */\n              0x14\n                /* \"Project.sol\":11404:11409  index */\n              dup4\n                /* \"Project.sol\":11386:11410  milestoneStatuses[index] */\n              dup2\n              sload\n              dup2\n              lt\n              tag_384\n              jumpi\n              tag_384\n              tag_169\n              jump\t// in\n            tag_384:\n              0x00\n              swap2\n              dup3\n              mstore\n              0x20\n              swap1\n              swap2\n              keccak256\n              0x09\n              swap1\n              swap2\n              mul\n              add\n                /* \"Project.sol\":11508:11524  mStatus.approved */\n              dup1\n              sload\n                /* \"Project.sol\":11386:11410  milestoneStatuses[index] */\n              swap1\n              swap2\n              pop\n                /* \"Project.sol\":11508:11524  mStatus.approved */\n              0xff\n              and\n                /* \"Project.sol\":11500:11551  require(mStatus.approved, \"Milestone not approved\") */\n              tag_386\n              jumpi\n              mload(0x40)\n              shl(0xe5, 0x461bcd)\n              dup2\n              mstore\n                /* \"#utility.yul\":23092:23094   */\n              0x20\n                /* \"Project.sol\":11500:11551  require(mStatus.approved, \"Milestone not approved\") */\n              0x04\n              dup3\n              add\n                /* \"#utility.yul\":23074:23095   */\n              mstore\n                /* \"#utility.yul\":23131:23133   */\n              0x16\n                /* \"#utility.yul\":23111:23129   */\n              0x24\n              dup3\n              add\n                /* \"#utility.yul\":23104:23134   */\n              mstore\n              shl(0x52, 0x135a5b195cdd1bdb99481b9bdd08185c1c1c9bdd9959)\n                /* \"#utility.yul\":23150:23168   */\n              0x44\n              dup3\n              add\n                /* \"#utility.yul\":23143:23195   */\n              mstore\n                /* \"#utility.yul\":23212:23230   */\n              0x64\n              add\n                /* \"Project.sol\":11500:11551  require(mStatus.approved, \"Milestone not approved\") */\n              tag_155\n                /* \"#utility.yul\":22890:23236   */\n              jump\n                /* \"Project.sol\":11500:11551  require(mStatus.approved, \"Milestone not approved\") */\n            tag_386:\n                /* \"Project.sol\":11570:11587  mStatus.completed */\n              0x04\n              dup2\n              add\n              sload\n              0xff\n              and\n                /* \"Project.sol\":11569:11587  !mStatus.completed */\n              iszero\n                /* \"Project.sol\":11561:11619  require(!mStatus.completed, \"Milestone already completed\") */\n              tag_389\n              jumpi\n              mload(0x40)\n              shl(0xe5, 0x461bcd)\n              dup2\n              mstore\n                /* \"#utility.yul\":23443:23445   */\n              0x20\n                /* \"Project.sol\":11561:11619  require(!mStatus.completed, \"Milestone already completed\") */\n              0x04\n              dup3\n              add\n                /* \"#utility.yul\":23425:23446   */\n              mstore\n                /* \"#utility.yul\":23482:23484   */\n              0x1b\n                /* \"#utility.yul\":23462:23480   */\n              0x24\n              dup3\n              add\n                /* \"#utility.yul\":23455:23485   */\n              mstore\n              shl(0x2a, 0x135a5b195cdd1bdb9948185b1c9958591e4818dbdb5c1b195d1959)\n                /* \"#utility.yul\":23501:23519   */\n              0x44\n              dup3\n              add\n                /* \"#utility.yul\":23494:23551   */\n              mstore\n                /* \"#utility.yul\":23568:23586   */\n              0x64\n              add\n                /* \"Project.sol\":11561:11619  require(!mStatus.completed, \"Milestone already completed\") */\n              tag_155\n                /* \"#utility.yul\":23241:23592   */\n              jump\n                /* \"Project.sol\":11561:11619  require(!mStatus.completed, \"Milestone already completed\") */\n            tag_389:\n                /* \"Project.sol\":11816:11835  milestone.threshold */\n              0x02\n              dup3\n              add\n              sload\n                /* \"Project.sol\":11794:11813  uint withdrawAmount */\n              0x00\n                /* \"Project.sol\":11845:12103  for (uint i = 0; i < index; i++) {... */\n            tag_392:\n                /* \"Project.sol\":11866:11871  index */\n              dup5\n                /* \"Project.sol\":11862:11863  i */\n              dup2\n                /* \"Project.sol\":11862:11871  i < index */\n              lt\n                /* \"Project.sol\":11845:12103  for (uint i = 0; i < index; i++) {... */\n              iszero\n              tag_393\n              jumpi\n                /* \"Project.sol\":11959:11976  milestoneStatuses */\n              0x14\n                /* \"Project.sol\":11977:11978  i */\n              dup2\n                /* \"Project.sol\":11959:11979  milestoneStatuses[i] */\n              dup2\n              sload\n              dup2\n              lt\n              tag_396\n              jumpi\n              tag_396\n              tag_169\n              jump\t// in\n            tag_396:\n              0x00\n              swap2\n              dup3\n              mstore\n              0x20\n              swap1\n              swap2\n              keccak256\n                /* \"Project.sol\":11959:11989  milestoneStatuses[i].completed */\n              0x04\n                /* \"Project.sol\":11959:11979  milestoneStatuses[i] */\n              0x09\n              swap1\n              swap3\n              mul\n              add\n                /* \"Project.sol\":11959:11989  milestoneStatuses[i].completed */\n              add\n              sload\n              0xff\n              and\n                /* \"Project.sol\":11951:12021  require(milestoneStatuses[i].completed, \"Previous milestones pending\") */\n              tag_398\n              jumpi\n              mload(0x40)\n              shl(0xe5, 0x461bcd)\n              dup2\n              mstore\n                /* \"#utility.yul\":23799:23801   */\n              0x20\n                /* \"Project.sol\":11951:12021  require(milestoneStatuses[i].completed, \"Previous milestones pending\") */\n              0x04\n              dup3\n              add\n                /* \"#utility.yul\":23781:23802   */\n              mstore\n                /* \"#utility.yul\":23838:23840   */\n              0x1b\n                /* \"#utility.yul\":23818:23836   */\n              0x24\n              dup3\n              add\n                /* \"#utility.yul\":23811:23841   */\n              mstore\n              shl(0x28, 0x50726576696f7573206d696c6573746f6e65732070656e64696e67)\n                /* \"#utility.yul\":23857:23875   */\n              0x44\n              dup3\n              add\n                /* \"#utility.yul\":23850:23907   */\n              mstore\n                /* \"#utility.yul\":23924:23942   */\n              0x64\n              add\n                /* \"Project.sol\":11951:12021  require(milestoneStatuses[i].completed, \"Previous milestones pending\") */\n              tag_155\n                /* \"#utility.yul\":23597:23948   */\n              jump\n                /* \"Project.sol\":11951:12021  require(milestoneStatuses[i].completed, \"Previous milestones pending\") */\n            tag_398:\n                /* \"Project.sol\":12069:12079  milestones */\n              0x13\n                /* \"Project.sol\":12080:12081  i */\n              dup2\n                /* \"Project.sol\":12069:12082  milestones[i] */\n              dup2\n              sload\n              dup2\n              lt\n              tag_402\n              jumpi\n              tag_402\n              tag_169\n              jump\t// in\n            tag_402:\n              swap1\n              0x00\n              mstore\n              keccak256(0x00, 0x20)\n              swap1\n              0x03\n              mul\n              add\n                /* \"Project.sol\":12069:12092  milestones[i].threshold */\n              0x02\n              add\n              sload\n                /* \"Project.sol\":12052:12066  withdrawAmount */\n              dup3\n                /* \"Project.sol\":12052:12092  withdrawAmount - milestones[i].threshold */\n              tag_404\n              swap2\n              swap1\n              tag_313\n              jump\t// in\n            tag_404:\n                /* \"Project.sol\":12035:12092  withdrawAmount = withdrawAmount - milestones[i].threshold */\n              swap2\n              pop\n                /* \"Project.sol\":11873:11876  i++ */\n              0x01\n              add\n                /* \"Project.sol\":11845:12103  for (uint i = 0; i < index; i++) {... */\n              jump(tag_392)\n            tag_393:\n              pop\n                /* \"Project.sol\":12113:12132  milestone.recipient */\n              dup3\n              sload\n                /* \"Project.sol\":12113:12157  milestone.recipient.transfer(withdrawAmount) */\n              mload(0x40)\n              sub(shl(0xa0, 0x01), 0x01)\n                /* \"Project.sol\":12113:12132  milestone.recipient */\n              swap1\n              swap2\n              and\n              swap1\n                /* \"Project.sol\":12113:12157  milestone.recipient.transfer(withdrawAmount) */\n              dup3\n              iszero\n              0x08fc\n              mul\n              swap1\n                /* \"Project.sol\":12142:12156  withdrawAmount */\n              dup4\n              swap1\n                /* \"Project.sol\":12113:12132  milestone.recipient */\n              0x00\n                /* \"Project.sol\":12113:12157  milestone.recipient.transfer(withdrawAmount) */\n              dup2\n                /* \"Project.sol\":12113:12132  milestone.recipient */\n              dup2\n                /* \"Project.sol\":12113:12157  milestone.recipient.transfer(withdrawAmount) */\n              dup2\n                /* \"Project.sol\":12142:12156  withdrawAmount */\n              dup6\n                /* \"Project.sol\":12113:12132  milestone.recipient */\n              dup9\n                /* \"Project.sol\":12113:12157  milestone.recipient.transfer(withdrawAmount) */\n              dup9\n              call\n              swap4\n              pop\n              pop\n              pop\n              pop\n              iszero\n              dup1\n              iszero\n              tag_406\n              jumpi\n              returndatasize\n              0x00\n              dup1\n              returndatacopy\n              revert(0x00, returndatasize)\n            tag_406:\n              pop\n                /* \"Project.sol\":12167:12184  mStatus.completed */\n              0x04\n              dup3\n              add\n                /* \"Project.sol\":12167:12191  mStatus.completed = true */\n              dup1\n              sload\n              not(0xff)\n              and\n                /* \"Project.sol\":12187:12191  true */\n              0x01\n                /* \"Project.sol\":12167:12191  mStatus.completed = true */\n              or\n              swap1\n              sstore\n                /* \"Project.sol\":12223:12238  block.timestamp */\n              timestamp\n                /* \"Project.sol\":12201:12220  mStatus.completedAt */\n              0x05\n              dup4\n              add\n                /* \"Project.sol\":12201:12238  mStatus.completedAt = block.timestamp */\n              dup2\n              swap1\n              sstore\n                /* \"Project.sol\":12305:12324  milestone.recipient */\n              dup4\n              sload\n                /* \"Project.sol\":12254:12391  MilestoneCompleted(... */\n              mload(0x40)\n              sub(shl(0xa0, 0x01), 0x01)\n                /* \"Project.sol\":12305:12324  milestone.recipient */\n              swap1\n              swap2\n              and\n              swap2\n                /* \"Project.sol\":12286:12291  index */\n              dup7\n              swap2\n                /* \"Project.sol\":12254:12391  MilestoneCompleted(... */\n              0x2cbc6624f888e1ab438a815429241e2d69cb4a5e8a8014f6caa5274b420bd5\n              swap2\n              tag_407\n              swap2\n                /* \"Project.sol\":12338:12352  withdrawAmount */\n              dup7\n              swap2\n                /* \"Project.sol\":12223:12238  block.timestamp */\n              swap1\n                /* \"Project.sol\":12254:12391  MilestoneCompleted(... */\n              tag_177\n              jump\t// in\n            tag_407:\n              mload(0x40)\n              dup1\n              swap2\n              sub\n              swap1\n              log3\n                /* \"Project.sol\":11282:12398  {... */\n              pop\n              pop\n              pop\n                /* \"Project.sol\":11225:12398  function withdrawMilestone(uint index) public restricted {... */\n              pop\n              jump\t// out\n                /* \"Project.sol\":630:669  Model.Status[] public milestoneStatuses */\n            tag_150:\n              0x14\n              dup2\n              dup2\n              sload\n              dup2\n              lt\n              tag_408\n              jumpi\n              0x00\n              dup1\n              revert\n            tag_408:\n              0x00\n              swap2\n              dup3\n              mstore\n              0x20\n              swap1\n              swap2\n              keccak256\n              0x09\n              swap1\n              swap2\n              mul\n              add\n              dup1\n              sload\n              0x01\n              dup3\n              add\n              sload\n              0x02\n              dup4\n              add\n              sload\n              0x04\n              dup5\n              add\n              sload\n              0x05\n              dup6\n              add\n              sload\n              0x07\n              dup7\n              add\n              sload\n              0x08\n              swap1\n              swap7\n              add\n              sload\n              0xff\n              swap6\n              dup7\n              and\n              swap8\n              pop\n              swap4\n              swap6\n              swap3\n              swap5\n              swap2\n              dup3\n              and\n              swap4\n              swap1\n              swap3\n              swap1\n              swap2\n              and\n              swap1\n              dup8\n              jump\t// out\n                /* \"Project.sol\":6580:7050  function _refundAll() private {... */\n            tag_266:\n                /* \"Project.sol\":6634:6654  contributorAddresses */\n              0x08\n                /* \"Project.sol\":6634:6661  contributorAddresses.length */\n              sload\n                /* \"Project.sol\":6620:6631  uint length */\n              0x00\n                /* \"Project.sol\":6695:7034  for (uint i = 0; i < length; i++) {... */\n            tag_411:\n                /* \"Project.sol\":6716:6722  length */\n              dup2\n                /* \"Project.sol\":6712:6713  i */\n              dup2\n                /* \"Project.sol\":6712:6722  i < length */\n              lt\n                /* \"Project.sol\":6695:7034  for (uint i = 0; i < length; i++) {... */\n              iszero\n              tag_412\n              jumpi\n                /* \"Project.sol\":6747:6774  address payable contributor */\n              0x00\n                /* \"Project.sol\":6785:6805  contributorAddresses */\n              0x08\n                /* \"Project.sol\":6806:6807  i */\n              dup3\n                /* \"Project.sol\":6785:6808  contributorAddresses[i] */\n              dup2\n              sload\n              dup2\n              lt\n              tag_415\n              jumpi\n              tag_415\n              tag_169\n              jump\t// in\n            tag_415:\n              0x00\n              swap2\n              dup3\n              mstore\n              0x20\n              dup1\n              dup4\n              keccak256\n              swap1\n              swap2\n              add\n              sload\n              sub(shl(0xa0, 0x01), 0x01)\n              and\n                /* \"Project.sol\":6841:6866  contributors[contributor] */\n              dup1\n              dup4\n              mstore\n                /* \"Project.sol\":6841:6853  contributors */\n              0x09\n                /* \"Project.sol\":6841:6866  contributors[contributor] */\n              swap1\n              swap2\n              mstore\n              0x40\n              swap1\n              swap2\n              keccak256\n              sload\n                /* \"Project.sol\":6785:6808  contributorAddresses[i] */\n              swap1\n              swap2\n              pop\n                /* \"Project.sol\":6888:6898  amount > 0 */\n              dup1\n              iszero\n                /* \"Project.sol\":6884:7020  if (amount > 0) {... */\n              tag_417\n              jumpi\n              sub(shl(0xa0, 0x01), 0x01)\n                /* \"Project.sol\":6922:6947  contributors[contributor] */\n              dup3\n              and\n                /* \"Project.sol\":6950:6951  0 */\n              0x00\n                /* \"Project.sol\":6922:6947  contributors[contributor] */\n              dup2\n              dup2\n              mstore\n                /* \"Project.sol\":6922:6934  contributors */\n              0x09\n                /* \"Project.sol\":6922:6947  contributors[contributor] */\n              0x20\n              mstore\n              0x40\n              dup1\n              dup3\n              keccak256\n                /* \"Project.sol\":6922:6951  contributors[contributor] = 0 */\n              dup3\n              swap1\n              sstore\n                /* \"Project.sol\":6973:7001  contributor.transfer(amount) */\n              mload\n              dup4\n              iszero\n              0x08fc\n              mul\n              swap2\n                /* \"Project.sol\":6994:7000  amount */\n              dup5\n              swap2\n                /* \"Project.sol\":6973:7001  contributor.transfer(amount) */\n              swap1\n              dup2\n                /* \"Project.sol\":6950:6951  0 */\n              dup2\n                /* \"Project.sol\":6973:7001  contributor.transfer(amount) */\n              dup2\n                /* \"Project.sol\":6994:7000  amount */\n              dup6\n                /* \"Project.sol\":6922:6947  contributors[contributor] */\n              dup9\n                /* \"Project.sol\":6973:7001  contributor.transfer(amount) */\n              dup9\n              call\n              swap4\n              pop\n              pop\n              pop\n              pop\n              iszero\n              dup1\n              iszero\n              tag_419\n              jumpi\n              returndatasize\n              0x00\n              dup1\n              returndatacopy\n              revert(0x00, returndatasize)\n            tag_419:\n              pop\n                /* \"Project.sol\":6884:7020  if (amount > 0) {... */\n            tag_417:\n              pop\n              pop\n                /* \"Project.sol\":6724:6727  i++ */\n              0x01\n              add\n                /* \"Project.sol\":6695:7034  for (uint i = 0; i < length; i++) {... */\n              jump(tag_411)\n            tag_412:\n              pop\n                /* \"Project.sol\":6610:7050  {... */\n              pop\n                /* \"Project.sol\":6580:7050  function _refundAll() private {... */\n              jump\t// out\n                /* \"#utility.yul\":196:369   */\n            tag_420:\n                /* \"#utility.yul\":264:284   */\n              dup1\n              calldataload\n              sub(shl(0xa0, 0x01), 0x01)\n                /* \"#utility.yul\":313:344   */\n              dup2\n              and\n                /* \"#utility.yul\":303:345   */\n              dup2\n              eq\n                /* \"#utility.yul\":293:363   */\n              tag_438\n              jumpi\n                /* \"#utility.yul\":359:360   */\n              0x00\n                /* \"#utility.yul\":356:357   */\n              dup1\n                /* \"#utility.yul\":349:361   */\n              revert\n                /* \"#utility.yul\":293:363   */\n            tag_438:\n                /* \"#utility.yul\":196:369   */\n              swap2\n              swap1\n              pop\n              jump\t// out\n                /* \"#utility.yul\":374:560   */\n            tag_40:\n                /* \"#utility.yul\":433:439   */\n              0x00\n                /* \"#utility.yul\":486:488   */\n              0x20\n                /* \"#utility.yul\":474:483   */\n              dup3\n                /* \"#utility.yul\":465:472   */\n              dup5\n                /* \"#utility.yul\":461:484   */\n              sub\n                /* \"#utility.yul\":457:489   */\n              slt\n                /* \"#utility.yul\":454:506   */\n              iszero\n              tag_440\n              jumpi\n                /* \"#utility.yul\":502:503   */\n              0x00\n                /* \"#utility.yul\":499:500   */\n              dup1\n                /* \"#utility.yul\":492:504   */\n              revert\n                /* \"#utility.yul\":454:506   */\n            tag_440:\n                /* \"#utility.yul\":525:554   */\n              tag_441\n                /* \"#utility.yul\":544:553   */\n              dup3\n                /* \"#utility.yul\":525:554   */\n              tag_420\n              jump\t// in\n            tag_441:\n                /* \"#utility.yul\":515:554   */\n              swap4\n                /* \"#utility.yul\":374:560   */\n              swap3\n              pop\n              pop\n              pop\n              jump\t// out\n                /* \"#utility.yul\":1303:1430   */\n            tag_422:\n                /* \"#utility.yul\":1364:1374   */\n              0x4e487b71\n                /* \"#utility.yul\":1359:1362   */\n              0xe0\n                /* \"#utility.yul\":1355:1375   */\n              shl\n                /* \"#utility.yul\":1352:1353   */\n              0x00\n                /* \"#utility.yul\":1345:1376   */\n              mstore\n                /* \"#utility.yul\":1395:1399   */\n              0x41\n                /* \"#utility.yul\":1392:1393   */\n              0x04\n                /* \"#utility.yul\":1385:1400   */\n              mstore\n                /* \"#utility.yul\":1419:1423   */\n              0x24\n                /* \"#utility.yul\":1416:1417   */\n              0x00\n                /* \"#utility.yul\":1409:1424   */\n              revert\n                /* \"#utility.yul\":1435:1710   */\n            tag_423:\n                /* \"#utility.yul\":1506:1508   */\n              0x40\n                /* \"#utility.yul\":1500:1509   */\n              mload\n                /* \"#utility.yul\":1571:1573   */\n              0x1f\n                /* \"#utility.yul\":1552:1565   */\n              dup3\n              add\n              not(0x1f)\n                /* \"#utility.yul\":1548:1575   */\n              and\n                /* \"#utility.yul\":1536:1576   */\n              dup2\n              add\n              sub(shl(0x40, 0x01), 0x01)\n                /* \"#utility.yul\":1591:1625   */\n              dup2\n              gt\n                /* \"#utility.yul\":1627:1649   */\n              dup3\n              dup3\n              lt\n                /* \"#utility.yul\":1588:1650   */\n              or\n                /* \"#utility.yul\":1585:1673   */\n              iszero\n              tag_447\n              jumpi\n                /* \"#utility.yul\":1653:1671   */\n              tag_447\n              tag_422\n              jump\t// in\n            tag_447:\n                /* \"#utility.yul\":1689:1691   */\n              0x40\n                /* \"#utility.yul\":1682:1704   */\n              mstore\n                /* \"#utility.yul\":1435:1710   */\n              swap2\n              swap1\n              pop\n              jump\t// out\n                /* \"#utility.yul\":1715:1902   */\n            tag_424:\n                /* \"#utility.yul\":1764:1768   */\n              0x00\n              sub(shl(0x40, 0x01), 0x01)\n                /* \"#utility.yul\":1786:1816   */\n              dup3\n              gt\n                /* \"#utility.yul\":1783:1839   */\n              iszero\n              tag_450\n              jumpi\n                /* \"#utility.yul\":1819:1837   */\n              tag_450\n              tag_422\n              jump\t// in\n            tag_450:\n              pop\n                /* \"#utility.yul\":1885:1887   */\n              0x1f\n                /* \"#utility.yul\":1864:1879   */\n              add\n              not(0x1f)\n                /* \"#utility.yul\":1860:1889   */\n              and\n                /* \"#utility.yul\":1891:1895   */\n              0x20\n                /* \"#utility.yul\":1856:1896   */\n              add\n              swap1\n                /* \"#utility.yul\":1715:1902   */\n              jump\t// out\n                /* \"#utility.yul\":1907:2371   */\n            tag_425:\n                /* \"#utility.yul\":1950:1955   */\n              0x00\n                /* \"#utility.yul\":2003:2006   */\n              dup3\n                /* \"#utility.yul\":1996:2000   */\n              0x1f\n                /* \"#utility.yul\":1988:1994   */\n              dup4\n                /* \"#utility.yul\":1984:2001   */\n              add\n                /* \"#utility.yul\":1980:2007   */\n              slt\n                /* \"#utility.yul\":1970:2025   */\n              tag_452\n              jumpi\n                /* \"#utility.yul\":2021:2022   */\n              0x00\n                /* \"#utility.yul\":2018:2019   */\n              dup1\n                /* \"#utility.yul\":2011:2023   */\n              revert\n                /* \"#utility.yul\":1970:2025   */\n            tag_452:\n                /* \"#utility.yul\":2057:2063   */\n              dup2\n                /* \"#utility.yul\":2044:2064   */\n              calldataload\n                /* \"#utility.yul\":2088:2137   */\n              tag_453\n                /* \"#utility.yul\":2104:2136   */\n              tag_454\n                /* \"#utility.yul\":2133:2135   */\n              dup3\n                /* \"#utility.yul\":2104:2136   */\n              tag_424\n              jump\t// in\n            tag_454:\n                /* \"#utility.yul\":2088:2137   */\n              tag_423\n              jump\t// in\n            tag_453:\n                /* \"#utility.yul\":2162:2164   */\n              dup2\n                /* \"#utility.yul\":2153:2160   */\n              dup2\n                /* \"#utility.yul\":2146:2165   */\n              mstore\n                /* \"#utility.yul\":2208:2211   */\n              dup5\n                /* \"#utility.yul\":2201:2205   */\n              0x20\n                /* \"#utility.yul\":2196:2198   */\n              dup4\n                /* \"#utility.yul\":2188:2194   */\n              dup7\n                /* \"#utility.yul\":2184:2199   */\n              add\n                /* \"#utility.yul\":2180:2206   */\n              add\n                /* \"#utility.yul\":2177:2212   */\n              gt\n                /* \"#utility.yul\":2174:2229   */\n              iszero\n              tag_455\n              jumpi\n                /* \"#utility.yul\":2225:2226   */\n              0x00\n                /* \"#utility.yul\":2222:2223   */\n              dup1\n                /* \"#utility.yul\":2215:2227   */\n              revert\n                /* \"#utility.yul\":2174:2229   */\n            tag_455:\n                /* \"#utility.yul\":2290:2292   */\n              dup2\n                /* \"#utility.yul\":2283:2287   */\n              0x20\n                /* \"#utility.yul\":2275:2281   */\n              dup6\n                /* \"#utility.yul\":2271:2288   */\n              add\n                /* \"#utility.yul\":2264:2268   */\n              0x20\n                /* \"#utility.yul\":2255:2262   */\n              dup4\n                /* \"#utility.yul\":2251:2269   */\n              add\n                /* \"#utility.yul\":2238:2293   */\n              calldatacopy\n                /* \"#utility.yul\":2338:2339   */\n              0x00\n                /* \"#utility.yul\":2313:2329   */\n              swap2\n              dup2\n              add\n                /* \"#utility.yul\":2331:2335   */\n              0x20\n                /* \"#utility.yul\":2309:2336   */\n              add\n                /* \"#utility.yul\":2302:2340   */\n              swap2\n              swap1\n              swap2\n              mstore\n                /* \"#utility.yul\":2317:2324   */\n              swap4\n                /* \"#utility.yul\":1907:2371   */\n              swap3\n              pop\n              pop\n              pop\n              jump\t// out\n                /* \"#utility.yul\":2376:2698   */\n            tag_56:\n                /* \"#utility.yul\":2445:2451   */\n              0x00\n                /* \"#utility.yul\":2498:2500   */\n              0x20\n                /* \"#utility.yul\":2486:2495   */\n              dup3\n                /* \"#utility.yul\":2477:2484   */\n              dup5\n                /* \"#utility.yul\":2473:2496   */\n              sub\n                /* \"#utility.yul\":2469:2501   */\n              slt\n                /* \"#utility.yul\":2466:2518   */\n              iszero\n              tag_457\n              jumpi\n                /* \"#utility.yul\":2514:2515   */\n              0x00\n                /* \"#utility.yul\":2511:2512   */\n              dup1\n                /* \"#utility.yul\":2504:2516   */\n              revert\n                /* \"#utility.yul\":2466:2518   */\n            tag_457:\n                /* \"#utility.yul\":2541:2564   */\n              dup2\n              calldataload\n              sub(shl(0x40, 0x01), 0x01)\n                /* \"#utility.yul\":2576:2606   */\n              dup2\n              gt\n                /* \"#utility.yul\":2573:2623   */\n              iszero\n              tag_458\n              jumpi\n                /* \"#utility.yul\":2619:2620   */\n              0x00\n                /* \"#utility.yul\":2616:2617   */\n              dup1\n                /* \"#utility.yul\":2609:2621   */\n              revert\n                /* \"#utility.yul\":2573:2623   */\n            tag_458:\n                /* \"#utility.yul\":2642:2692   */\n              tag_459\n                /* \"#utility.yul\":2684:2691   */\n              dup5\n                /* \"#utility.yul\":2675:2681   */\n              dup3\n                /* \"#utility.yul\":2664:2673   */\n              dup6\n                /* \"#utility.yul\":2660:2682   */\n              add\n                /* \"#utility.yul\":2642:2692   */\n              tag_425\n              jump\t// in\n            tag_459:\n                /* \"#utility.yul\":2632:2692   */\n              swap5\n                /* \"#utility.yul\":2376:2698   */\n              swap4\n              pop\n              pop\n              pop\n              pop\n              jump\t// out\n                /* \"#utility.yul\":2703:2885   */\n            tag_426:\n                /* \"#utility.yul\":2762:2766   */\n              0x00\n              sub(shl(0x40, 0x01), 0x01)\n                /* \"#utility.yul\":2784:2814   */\n              dup3\n              gt\n                /* \"#utility.yul\":2781:2837   */\n              iszero\n              tag_462\n              jumpi\n                /* \"#utility.yul\":2817:2835   */\n              tag_462\n              tag_422\n              jump\t// in\n            tag_462:\n              pop\n                /* \"#utility.yul\":2862:2863   */\n              0x05\n                /* \"#utility.yul\":2858:2872   */\n              shl\n                /* \"#utility.yul\":2874:2878   */\n              0x20\n                /* \"#utility.yul\":2854:2879   */\n              add\n              swap1\n                /* \"#utility.yul\":2703:2885   */\n              jump\t// out\n                /* \"#utility.yul\":2890:3557   */\n            tag_427:\n                /* \"#utility.yul\":2944:2949   */\n              0x00\n                /* \"#utility.yul\":2997:3000   */\n              dup3\n                /* \"#utility.yul\":2990:2994   */\n              0x1f\n                /* \"#utility.yul\":2982:2988   */\n              dup4\n                /* \"#utility.yul\":2978:2995   */\n              add\n                /* \"#utility.yul\":2974:3001   */\n              slt\n                /* \"#utility.yul\":2964:3019   */\n              tag_464\n              jumpi\n                /* \"#utility.yul\":3015:3016   */\n              0x00\n                /* \"#utility.yul\":3012:3013   */\n              dup1\n                /* \"#utility.yul\":3005:3017   */\n              revert\n                /* \"#utility.yul\":2964:3019   */\n            tag_464:\n                /* \"#utility.yul\":3051:3057   */\n              dup2\n                /* \"#utility.yul\":3038:3058   */\n              calldataload\n                /* \"#utility.yul\":3077:3081   */\n              0x20\n                /* \"#utility.yul\":3101:3160   */\n              tag_465\n                /* \"#utility.yul\":3117:3159   */\n              tag_454\n                /* \"#utility.yul\":3156:3158   */\n              dup4\n                /* \"#utility.yul\":3117:3159   */\n              tag_426\n              jump\t// in\n                /* \"#utility.yul\":3101:3160   */\n            tag_465:\n                /* \"#utility.yul\":3182:3185   */\n              dup1\n                /* \"#utility.yul\":3206:3208   */\n              dup4\n                /* \"#utility.yul\":3201:3204   */\n              dup3\n                /* \"#utility.yul\":3194:3209   */\n              mstore\n                /* \"#utility.yul\":3234:3238   */\n              0x20\n                /* \"#utility.yul\":3229:3232   */\n              dup3\n                /* \"#utility.yul\":3225:3239   */\n              add\n                /* \"#utility.yul\":3218:3239   */\n              swap2\n              pop\n                /* \"#utility.yul\":3291:3295   */\n              0x20\n                /* \"#utility.yul\":3285:3287   */\n              dup5\n                /* \"#utility.yul\":3282:3283   */\n              0x05\n                /* \"#utility.yul\":3278:3288   */\n              shl\n                /* \"#utility.yul\":3270:3276   */\n              dup8\n                /* \"#utility.yul\":3266:3289   */\n              add\n                /* \"#utility.yul\":3262:3296   */\n              add\n                /* \"#utility.yul\":3248:3296   */\n              swap4\n              pop\n                /* \"#utility.yul\":3319:3322   */\n              dup7\n                /* \"#utility.yul\":3311:3317   */\n              dup5\n                /* \"#utility.yul\":3308:3323   */\n              gt\n                /* \"#utility.yul\":3305:3340   */\n              iszero\n              tag_467\n              jumpi\n                /* \"#utility.yul\":3336:3337   */\n              0x00\n                /* \"#utility.yul\":3333:3334   */\n              dup1\n                /* \"#utility.yul\":3326:3338   */\n              revert\n                /* \"#utility.yul\":3305:3340   */\n            tag_467:\n                /* \"#utility.yul\":3372:3376   */\n              0x20\n                /* \"#utility.yul\":3364:3370   */\n              dup7\n                /* \"#utility.yul\":3360:3377   */\n              add\n                /* \"#utility.yul\":3386:3528   */\n            tag_468:\n                /* \"#utility.yul\":3402:3408   */\n              dup5\n                /* \"#utility.yul\":3397:3400   */\n              dup2\n                /* \"#utility.yul\":3394:3409   */\n              lt\n                /* \"#utility.yul\":3386:3528   */\n              iszero\n              tag_470\n              jumpi\n                /* \"#utility.yul\":3468:3485   */\n              dup1\n              calldataload\n                /* \"#utility.yul\":3456:3486   */\n              dup4\n              mstore\n                /* \"#utility.yul\":3506:3518   */\n              swap2\n              dup4\n              add\n              swap2\n                /* \"#utility.yul\":3419:3431   */\n              dup4\n              add\n                /* \"#utility.yul\":3386:3528   */\n              jump(tag_468)\n            tag_470:\n              pop\n                /* \"#utility.yul\":3546:3551   */\n              swap7\n                /* \"#utility.yul\":2890:3557   */\n              swap6\n              pop\n              pop\n              pop\n              pop\n              pop\n              pop\n              jump\t// out\n                /* \"#utility.yul\":3562:4235   */\n            tag_428:\n                /* \"#utility.yul\":3616:3621   */\n              0x00\n                /* \"#utility.yul\":3669:3672   */\n              dup3\n                /* \"#utility.yul\":3662:3666   */\n              0x1f\n                /* \"#utility.yul\":3654:3660   */\n              dup4\n                /* \"#utility.yul\":3650:3667   */\n              add\n                /* \"#utility.yul\":3646:3673   */\n              slt\n                /* \"#utility.yul\":3636:3691   */\n              tag_472\n              jumpi\n                /* \"#utility.yul\":3687:3688   */\n              0x00\n                /* \"#utility.yul\":3684:3685   */\n              dup1\n                /* \"#utility.yul\":3677:3689   */\n              revert\n                /* \"#utility.yul\":3636:3691   */\n            tag_472:\n                /* \"#utility.yul\":3723:3729   */\n              dup2\n                /* \"#utility.yul\":3710:3730   */\n              calldataload\n                /* \"#utility.yul\":3749:3753   */\n              0x20\n                /* \"#utility.yul\":3773:3832   */\n              tag_473\n                /* \"#utility.yul\":3789:3831   */\n              tag_454\n                /* \"#utility.yul\":3828:3830   */\n              dup4\n                /* \"#utility.yul\":3789:3831   */\n              tag_426\n              jump\t// in\n                /* \"#utility.yul\":3773:3832   */\n            tag_473:\n                /* \"#utility.yul\":3854:3857   */\n              dup1\n                /* \"#utility.yul\":3878:3880   */\n              dup4\n                /* \"#utility.yul\":3873:3876   */\n              dup3\n                /* \"#utility.yul\":3866:3881   */\n              mstore\n                /* \"#utility.yul\":3906:3910   */\n              0x20\n                /* \"#utility.yul\":3901:3904   */\n              dup3\n                /* \"#utility.yul\":3897:3911   */\n              add\n                /* \"#utility.yul\":3890:3911   */\n              swap2\n              pop\n                /* \"#utility.yul\":3963:3967   */\n              0x20\n                /* \"#utility.yul\":3957:3959   */\n              dup5\n                /* \"#utility.yul\":3954:3955   */\n              0x05\n                /* \"#utility.yul\":3950:3960   */\n              shl\n                /* \"#utility.yul\":3942:3948   */\n              dup8\n                /* \"#utility.yul\":3938:3961   */\n              add\n                /* \"#utility.yul\":3934:3968   */\n              add\n                /* \"#utility.yul\":3920:3968   */\n              swap4\n              pop\n                /* \"#utility.yul\":3991:3994   */\n              dup7\n                /* \"#utility.yul\":3983:3989   */\n              dup5\n                /* \"#utility.yul\":3980:3995   */\n              gt\n                /* \"#utility.yul\":3977:4012   */\n              iszero\n              tag_475\n              jumpi\n                /* \"#utility.yul\":4008:4009   */\n              0x00\n                /* \"#utility.yul\":4005:4006   */\n              dup1\n                /* \"#utility.yul\":3998:4010   */\n              revert\n                /* \"#utility.yul\":3977:4012   */\n            tag_475:\n                /* \"#utility.yul\":4044:4048   */\n              0x20\n                /* \"#utility.yul\":4036:4042   */\n              dup7\n                /* \"#utility.yul\":4032:4049   */\n              add\n                /* \"#utility.yul\":4058:4206   */\n            tag_476:\n                /* \"#utility.yul\":4074:4080   */\n              dup5\n                /* \"#utility.yul\":4069:4072   */\n              dup2\n                /* \"#utility.yul\":4066:4081   */\n              lt\n                /* \"#utility.yul\":4058:4206   */\n              iszero\n              tag_470\n              jumpi\n                /* \"#utility.yul\":4140:4163   */\n              tag_479\n                /* \"#utility.yul\":4159:4162   */\n              dup2\n                /* \"#utility.yul\":4140:4163   */\n              tag_420\n              jump\t// in\n            tag_479:\n                /* \"#utility.yul\":4128:4164   */\n              dup4\n              mstore\n                /* \"#utility.yul\":4184:4196   */\n              swap2\n              dup4\n              add\n              swap2\n                /* \"#utility.yul\":4091:4103   */\n              dup4\n              add\n                /* \"#utility.yul\":4058:4206   */\n              jump(tag_476)\n                /* \"#utility.yul\":4240:5756   */\n            tag_65:\n                /* \"#utility.yul\":4402:4408   */\n              0x00\n                /* \"#utility.yul\":4410:4416   */\n              dup1\n                /* \"#utility.yul\":4418:4424   */\n              0x00\n                /* \"#utility.yul\":4471:4473   */\n              0x60\n                /* \"#utility.yul\":4459:4468   */\n              dup5\n                /* \"#utility.yul\":4450:4457   */\n              dup7\n                /* \"#utility.yul\":4446:4469   */\n              sub\n                /* \"#utility.yul\":4442:4474   */\n              slt\n                /* \"#utility.yul\":4439:4491   */\n              iszero\n              tag_481\n              jumpi\n                /* \"#utility.yul\":4487:4488   */\n              0x00\n                /* \"#utility.yul\":4484:4485   */\n              dup1\n                /* \"#utility.yul\":4477:4489   */\n              revert\n                /* \"#utility.yul\":4439:4491   */\n            tag_481:\n                /* \"#utility.yul\":4514:4537   */\n              dup4\n              calldataload\n              sub(shl(0x40, 0x01), 0x01)\n                /* \"#utility.yul\":4586:4600   */\n              dup1\n              dup3\n              gt\n                /* \"#utility.yul\":4583:4617   */\n              iszero\n              tag_482\n              jumpi\n                /* \"#utility.yul\":4613:4614   */\n              0x00\n                /* \"#utility.yul\":4610:4611   */\n              dup1\n                /* \"#utility.yul\":4603:4615   */\n              revert\n                /* \"#utility.yul\":4583:4617   */\n            tag_482:\n                /* \"#utility.yul\":4651:4657   */\n              dup2\n                /* \"#utility.yul\":4640:4649   */\n              dup7\n                /* \"#utility.yul\":4636:4658   */\n              add\n                /* \"#utility.yul\":4626:4658   */\n              swap2\n              pop\n                /* \"#utility.yul\":4696:4703   */\n              dup7\n                /* \"#utility.yul\":4689:4693   */\n              0x1f\n                /* \"#utility.yul\":4685:4687   */\n              dup4\n                /* \"#utility.yul\":4681:4694   */\n              add\n                /* \"#utility.yul\":4677:4704   */\n              slt\n                /* \"#utility.yul\":4667:4722   */\n              tag_483\n              jumpi\n                /* \"#utility.yul\":4718:4719   */\n              0x00\n                /* \"#utility.yul\":4715:4716   */\n              dup1\n                /* \"#utility.yul\":4708:4720   */\n              revert\n                /* \"#utility.yul\":4667:4722   */\n            tag_483:\n                /* \"#utility.yul\":4754:4756   */\n              dup2\n                /* \"#utility.yul\":4741:4757   */\n              calldataload\n                /* \"#utility.yul\":4776:4780   */\n              0x20\n                /* \"#utility.yul\":4800:4859   */\n              tag_484\n                /* \"#utility.yul\":4816:4858   */\n              tag_454\n                /* \"#utility.yul\":4855:4857   */\n              dup4\n                /* \"#utility.yul\":4816:4858   */\n              tag_426\n              jump\t// in\n                /* \"#utility.yul\":4800:4859   */\n            tag_484:\n                /* \"#utility.yul\":4893:4908   */\n              dup3\n              dup2\n              mstore\n                /* \"#utility.yul\":4975:4976   */\n              0x05\n                /* \"#utility.yul\":4971:4981   */\n              swap3\n              swap1\n              swap3\n              shl\n                /* \"#utility.yul\":4963:4982   */\n              dup5\n              add\n                /* \"#utility.yul\":4959:4987   */\n              dup2\n              add\n              swap2\n                /* \"#utility.yul\":4924:4936   */\n              dup2\n              dup2\n              add\n              swap1\n                /* \"#utility.yul\":4999:5018   */\n              dup11\n              dup5\n              gt\n                /* \"#utility.yul\":4996:5035   */\n              iszero\n              tag_486\n              jumpi\n                /* \"#utility.yul\":5031:5032   */\n              0x00\n                /* \"#utility.yul\":5028:5029   */\n              dup1\n                /* \"#utility.yul\":5021:5033   */\n              revert\n                /* \"#utility.yul\":4996:5035   */\n            tag_486:\n                /* \"#utility.yul\":5063:5065   */\n              dup3\n                /* \"#utility.yul\":5059:5061   */\n              dup7\n                /* \"#utility.yul\":5055:5066   */\n              add\n                /* \"#utility.yul\":5075:5358   */\n            tag_487:\n                /* \"#utility.yul\":5091:5097   */\n              dup5\n                /* \"#utility.yul\":5086:5089   */\n              dup2\n                /* \"#utility.yul\":5083:5098   */\n              lt\n                /* \"#utility.yul\":5075:5358   */\n              iszero\n              tag_489\n              jumpi\n                /* \"#utility.yul\":5177:5180   */\n              dup1\n                /* \"#utility.yul\":5164:5181   */\n              calldataload\n                /* \"#utility.yul\":5213:5215   */\n              dup7\n                /* \"#utility.yul\":5200:5211   */\n              dup2\n                /* \"#utility.yul\":5197:5216   */\n              gt\n                /* \"#utility.yul\":5194:5233   */\n              iszero\n              tag_490\n              jumpi\n                /* \"#utility.yul\":5229:5230   */\n              0x00\n                /* \"#utility.yul\":5226:5227   */\n              dup1\n                /* \"#utility.yul\":5219:5231   */\n              revert\n                /* \"#utility.yul\":5194:5233   */\n            tag_490:\n                /* \"#utility.yul\":5258:5315   */\n              tag_491\n                /* \"#utility.yul\":5307:5314   */\n              dup14\n                /* \"#utility.yul\":5302:5304   */\n              dup7\n                /* \"#utility.yul\":5288:5299   */\n              dup4\n                /* \"#utility.yul\":5284:5286   */\n              dup12\n                /* \"#utility.yul\":5280:5300   */\n              add\n                /* \"#utility.yul\":5276:5305   */\n              add\n                /* \"#utility.yul\":5258:5315   */\n              tag_425\n              jump\t// in\n            tag_491:\n                /* \"#utility.yul\":5246:5316   */\n              dup5\n              mstore\n              pop\n                /* \"#utility.yul\":5336:5348   */\n              swap2\n              dup4\n              add\n              swap2\n                /* \"#utility.yul\":5108:5120   */\n              dup4\n              add\n                /* \"#utility.yul\":5075:5358   */\n              jump(tag_487)\n            tag_489:\n              pop\n                /* \"#utility.yul\":5377:5382   */\n              swap8\n              pop\n              pop\n                /* \"#utility.yul\":5420:5438   */\n              dup8\n              add\n                /* \"#utility.yul\":5407:5439   */\n              calldataload\n              swap3\n              pop\n              pop\n                /* \"#utility.yul\":5451:5467   */\n              dup1\n              dup3\n              gt\n                /* \"#utility.yul\":5448:5484   */\n              iszero\n              tag_492\n              jumpi\n                /* \"#utility.yul\":5480:5481   */\n              0x00\n                /* \"#utility.yul\":5477:5478   */\n              dup1\n                /* \"#utility.yul\":5470:5482   */\n              revert\n                /* \"#utility.yul\":5448:5484   */\n            tag_492:\n                /* \"#utility.yul\":5503:5566   */\n              tag_493\n                /* \"#utility.yul\":5558:5565   */\n              dup8\n                /* \"#utility.yul\":5547:5555   */\n              dup4\n                /* \"#utility.yul\":5536:5545   */\n              dup9\n                /* \"#utility.yul\":5532:5556   */\n              add\n                /* \"#utility.yul\":5503:5566   */\n              tag_427\n              jump\t// in\n            tag_493:\n                /* \"#utility.yul\":5493:5566   */\n              swap4\n              pop\n                /* \"#utility.yul\":5619:5621   */\n              0x40\n                /* \"#utility.yul\":5608:5617   */\n              dup7\n                /* \"#utility.yul\":5604:5622   */\n              add\n                /* \"#utility.yul\":5591:5623   */\n              calldataload\n                /* \"#utility.yul\":5575:5623   */\n              swap2\n              pop\n                /* \"#utility.yul\":5648:5650   */\n              dup1\n                /* \"#utility.yul\":5638:5646   */\n              dup3\n                /* \"#utility.yul\":5635:5651   */\n              gt\n                /* \"#utility.yul\":5632:5668   */\n              iszero\n              tag_494\n              jumpi\n                /* \"#utility.yul\":5664:5665   */\n              0x00\n                /* \"#utility.yul\":5661:5662   */\n              dup1\n                /* \"#utility.yul\":5654:5666   */\n              revert\n                /* \"#utility.yul\":5632:5668   */\n            tag_494:\n              pop\n                /* \"#utility.yul\":5687:5750   */\n              tag_495\n                /* \"#utility.yul\":5742:5749   */\n              dup7\n                /* \"#utility.yul\":5731:5739   */\n              dup3\n                /* \"#utility.yul\":5720:5729   */\n              dup8\n                /* \"#utility.yul\":5716:5740   */\n              add\n                /* \"#utility.yul\":5687:5750   */\n              tag_428\n              jump\t// in\n            tag_495:\n                /* \"#utility.yul\":5677:5750   */\n              swap2\n              pop\n              pop\n                /* \"#utility.yul\":4240:5756   */\n              swap3\n              pop\n              swap3\n              pop\n              swap3\n              jump\t// out\n                /* \"#utility.yul\":5761:6011   */\n            tag_429:\n                /* \"#utility.yul\":5846:5847   */\n              0x00\n                /* \"#utility.yul\":5856:5969   */\n            tag_497:\n                /* \"#utility.yul\":5870:5876   */\n              dup4\n                /* \"#utility.yul\":5867:5868   */\n              dup2\n                /* \"#utility.yul\":5864:5877   */\n              lt\n                /* \"#utility.yul\":5856:5969   */\n              iszero\n              tag_499\n              jumpi\n                /* \"#utility.yul\":5946:5957   */\n              dup2\n              dup2\n              add\n                /* \"#utility.yul\":5940:5958   */\n              mload\n                /* \"#utility.yul\":5927:5938   */\n              dup4\n              dup3\n              add\n                /* \"#utility.yul\":5920:5959   */\n              mstore\n                /* \"#utility.yul\":5892:5894   */\n              0x20\n                /* \"#utility.yul\":5885:5895   */\n              add\n                /* \"#utility.yul\":5856:5969   */\n              jump(tag_497)\n            tag_499:\n              pop\n              pop\n                /* \"#utility.yul\":6003:6004   */\n              0x00\n                /* \"#utility.yul\":5985:6001   */\n              swap2\n              add\n                /* \"#utility.yul\":5978:6005   */\n              mstore\n                /* \"#utility.yul\":5761:6011   */\n              jump\t// out\n                /* \"#utility.yul\":6016:6287   */\n            tag_430:\n                /* \"#utility.yul\":6058:6061   */\n              0x00\n                /* \"#utility.yul\":6096:6101   */\n              dup2\n                /* \"#utility.yul\":6090:6102   */\n              mload\n                /* \"#utility.yul\":6123:6129   */\n              dup1\n                /* \"#utility.yul\":6118:6121   */\n              dup5\n                /* \"#utility.yul\":6111:6130   */\n              mstore\n                /* \"#utility.yul\":6139:6215   */\n              tag_501\n                /* \"#utility.yul\":6208:6214   */\n              dup2\n                /* \"#utility.yul\":6201:6205   */\n              0x20\n                /* \"#utility.yul\":6196:6199   */\n              dup7\n                /* \"#utility.yul\":6192:6206   */\n              add\n                /* \"#utility.yul\":6185:6189   */\n              0x20\n                /* \"#utility.yul\":6178:6183   */\n              dup7\n                /* \"#utility.yul\":6174:6190   */\n              add\n                /* \"#utility.yul\":6139:6215   */\n              tag_429\n              jump\t// in\n            tag_501:\n                /* \"#utility.yul\":6269:6271   */\n              0x1f\n                /* \"#utility.yul\":6248:6263   */\n              add\n              not(0x1f)\n                /* \"#utility.yul\":6244:6273   */\n              and\n                /* \"#utility.yul\":6235:6274   */\n              swap3\n              swap1\n              swap3\n              add\n                /* \"#utility.yul\":6276:6280   */\n              0x20\n                /* \"#utility.yul\":6231:6281   */\n              add\n              swap3\n                /* \"#utility.yul\":6016:6287   */\n              swap2\n              pop\n              pop\n              jump\t// out\n                /* \"#utility.yul\":6292:7497   */\n            tag_74:\n                /* \"#utility.yul\":6773:6798   */\n              dup15\n              dup2\n              mstore\n              sub(shl(0xa0, 0x01), 0x01)\n                /* \"#utility.yul\":6834:6866   */\n              dup15\n              and\n                /* \"#utility.yul\":6829:6831   */\n              0x20\n                /* \"#utility.yul\":6814:6832   */\n              dup3\n              add\n                /* \"#utility.yul\":6807:6867   */\n              mstore\n                /* \"#utility.yul\":6903:6906   */\n              0x01c0\n                /* \"#utility.yul\":6898:6900   */\n              0x40\n                /* \"#utility.yul\":6883:6901   */\n              dup3\n              add\n                /* \"#utility.yul\":6876:6907   */\n              dup2\n              swap1\n              mstore\n              0x00\n              swap1\n                /* \"#utility.yul\":6924:6970   */\n              tag_503\n              swap1\n                /* \"#utility.yul\":6950:6969   */\n              dup4\n              add\n                /* \"#utility.yul\":6942:6948   */\n              dup16\n                /* \"#utility.yul\":6924:6970   */\n              tag_430\n              jump\t// in\n            tag_503:\n                /* \"#utility.yul\":6916:6970   */\n              swap1\n              pop\n                /* \"#utility.yul\":7006:7012   */\n              dup13\n                /* \"#utility.yul\":7001:7003   */\n              0x60\n                /* \"#utility.yul\":6990:6999   */\n              dup4\n                /* \"#utility.yul\":6986:7004   */\n              add\n                /* \"#utility.yul\":6979:7013   */\n              mstore\n                /* \"#utility.yul\":7050:7056   */\n              dup12\n                /* \"#utility.yul\":7044:7047   */\n              0x80\n                /* \"#utility.yul\":7033:7042   */\n              dup4\n                /* \"#utility.yul\":7029:7048   */\n              add\n                /* \"#utility.yul\":7022:7057   */\n              mstore\n                /* \"#utility.yul\":7094:7100   */\n              dup11\n                /* \"#utility.yul\":7088:7091   */\n              0xa0\n                /* \"#utility.yul\":7077:7086   */\n              dup4\n                /* \"#utility.yul\":7073:7092   */\n              add\n                /* \"#utility.yul\":7066:7101   */\n              mstore\n                /* \"#utility.yul\":7138:7144   */\n              dup10\n                /* \"#utility.yul\":7132:7135   */\n              0xc0\n                /* \"#utility.yul\":7121:7130   */\n              dup4\n                /* \"#utility.yul\":7117:7136   */\n              add\n                /* \"#utility.yul\":7110:7145   */\n              mstore\n                /* \"#utility.yul\":7196:7202   */\n              dup9\n                /* \"#utility.yul\":7189:7203   */\n              iszero\n                /* \"#utility.yul\":7182:7204   */\n              iszero\n                /* \"#utility.yul\":7176:7179   */\n              0xe0\n                /* \"#utility.yul\":7165:7174   */\n              dup4\n                /* \"#utility.yul\":7161:7180   */\n              add\n                /* \"#utility.yul\":7154:7205   */\n              mstore\n                /* \"#utility.yul\":7242:7248   */\n              dup8\n                /* \"#utility.yul\":7236:7239   */\n              0x0100\n                /* \"#utility.yul\":7225:7234   */\n              dup4\n                /* \"#utility.yul\":7221:7240   */\n              add\n                /* \"#utility.yul\":7214:7249   */\n              mstore\n                /* \"#utility.yul\":7286:7292   */\n              dup7\n                /* \"#utility.yul\":7280:7283   */\n              0x0120\n                /* \"#utility.yul\":7269:7278   */\n              dup4\n                /* \"#utility.yul\":7265:7284   */\n              add\n                /* \"#utility.yul\":7258:7293   */\n              mstore\n                /* \"#utility.yul\":7302:7347   */\n              tag_504\n                /* \"#utility.yul\":7342:7345   */\n              0x0140\n                /* \"#utility.yul\":7331:7340   */\n              dup4\n                /* \"#utility.yul\":7327:7346   */\n              add\n                /* \"#utility.yul\":7318:7325   */\n              dup8\n                /* \"#utility.yul\":635:648   */\n              iszero\n                /* \"#utility.yul\":628:649   */\n              iszero\n                /* \"#utility.yul\":616:650   */\n              swap1\n              mstore\n                /* \"#utility.yul\":565:656   */\n              jump\n                /* \"#utility.yul\":7302:7347   */\n            tag_504:\n                /* \"#utility.yul\":7384:7391   */\n              dup5\n                /* \"#utility.yul\":7378:7381   */\n              0x0160\n                /* \"#utility.yul\":7367:7376   */\n              dup4\n                /* \"#utility.yul\":7363:7382   */\n              add\n                /* \"#utility.yul\":7356:7392   */\n              mstore\n                /* \"#utility.yul\":7401:7446   */\n              tag_505\n                /* \"#utility.yul\":7441:7444   */\n              0x0180\n                /* \"#utility.yul\":7430:7439   */\n              dup4\n                /* \"#utility.yul\":7426:7445   */\n              add\n                /* \"#utility.yul\":7417:7424   */\n              dup6\n                /* \"#utility.yul\":635:648   */\n              iszero\n                /* \"#utility.yul\":628:649   */\n              iszero\n                /* \"#utility.yul\":616:650   */\n              swap1\n              mstore\n                /* \"#utility.yul\":565:656   */\n              jump\n                /* \"#utility.yul\":7401:7446   */\n            tag_505:\n                /* \"#utility.yul\":7483:7490   */\n              dup3\n                /* \"#utility.yul\":7477:7480   */\n              0x01a0\n                /* \"#utility.yul\":7466:7475   */\n              dup4\n                /* \"#utility.yul\":7462:7481   */\n              add\n                /* \"#utility.yul\":7455:7491   */\n              mstore\n                /* \"#utility.yul\":6292:7497   */\n              swap16\n              swap15\n              pop\n              pop\n              pop\n              pop\n              pop\n              pop\n              pop\n              pop\n              pop\n              pop\n              pop\n              pop\n              pop\n              pop\n              pop\n              jump\t// out\n                /* \"#utility.yul\":8162:8342   */\n            tag_96:\n                /* \"#utility.yul\":8221:8227   */\n              0x00\n                /* \"#utility.yul\":8274:8276   */\n              0x20\n                /* \"#utility.yul\":8262:8271   */\n              dup3\n                /* \"#utility.yul\":8253:8260   */\n              dup5\n                /* \"#utility.yul\":8249:8272   */\n              sub\n                /* \"#utility.yul\":8245:8277   */\n              slt\n                /* \"#utility.yul\":8242:8294   */\n              iszero\n              tag_510\n              jumpi\n                /* \"#utility.yul\":8290:8291   */\n              0x00\n                /* \"#utility.yul\":8287:8288   */\n              dup1\n                /* \"#utility.yul\":8280:8292   */\n              revert\n                /* \"#utility.yul\":8242:8294   */\n            tag_510:\n              pop\n                /* \"#utility.yul\":8313:8336   */\n              calldataload\n              swap2\n                /* \"#utility.yul\":8162:8342   */\n              swap1\n              pop\n              jump\t// out\n                /* \"#utility.yul\":8347:8567   */\n            tag_107:\n                /* \"#utility.yul\":8496:8498   */\n              0x20\n                /* \"#utility.yul\":8485:8494   */\n              dup2\n                /* \"#utility.yul\":8478:8499   */\n              mstore\n                /* \"#utility.yul\":8459:8463   */\n              0x00\n                /* \"#utility.yul\":8516:8561   */\n              tag_441\n                /* \"#utility.yul\":8557:8559   */\n              0x20\n                /* \"#utility.yul\":8546:8555   */\n              dup4\n                /* \"#utility.yul\":8542:8560   */\n              add\n                /* \"#utility.yul\":8534:8540   */\n              dup5\n                /* \"#utility.yul\":8516:8561   */\n              tag_430\n              jump\t// in\n                /* \"#utility.yul\":8572:8863   */\n            tag_117:\n                /* \"#utility.yul\":8749:8755   */\n              dup3\n                /* \"#utility.yul\":8738:8747   */\n              dup2\n                /* \"#utility.yul\":8731:8756   */\n              mstore\n                /* \"#utility.yul\":8792:8794   */\n              0x40\n                /* \"#utility.yul\":8787:8789   */\n              0x20\n                /* \"#utility.yul\":8776:8785   */\n              dup3\n                /* \"#utility.yul\":8772:8790   */\n              add\n                /* \"#utility.yul\":8765:8795   */\n              mstore\n                /* \"#utility.yul\":8712:8716   */\n              0x00\n                /* \"#utility.yul\":8812:8857   */\n              tag_459\n                /* \"#utility.yul\":8853:8855   */\n              0x40\n                /* \"#utility.yul\":8842:8851   */\n              dup4\n                /* \"#utility.yul\":8838:8856   */\n              add\n                /* \"#utility.yul\":8830:8836   */\n              dup5\n                /* \"#utility.yul\":8812:8857   */\n              tag_430\n              jump\t// in\n                /* \"#utility.yul\":8868:9332   */\n            tag_125:\n                /* \"#utility.yul\":8955:8961   */\n              0x00\n                /* \"#utility.yul\":8963:8969   */\n              dup1\n                /* \"#utility.yul\":8971:8977   */\n              0x00\n                /* \"#utility.yul\":9024:9026   */\n              0x60\n                /* \"#utility.yul\":9012:9021   */\n              dup5\n                /* \"#utility.yul\":9003:9010   */\n              dup7\n                /* \"#utility.yul\":8999:9022   */\n              sub\n                /* \"#utility.yul\":8995:9027   */\n              slt\n                /* \"#utility.yul\":8992:9044   */\n              iszero\n              tag_516\n              jumpi\n                /* \"#utility.yul\":9040:9041   */\n              0x00\n                /* \"#utility.yul\":9037:9038   */\n              dup1\n                /* \"#utility.yul\":9030:9042   */\n              revert\n                /* \"#utility.yul\":8992:9044   */\n            tag_516:\n                /* \"#utility.yul\":9067:9090   */\n              dup4\n              calldataload\n              sub(shl(0x40, 0x01), 0x01)\n                /* \"#utility.yul\":9102:9132   */\n              dup2\n              gt\n                /* \"#utility.yul\":9099:9149   */\n              iszero\n              tag_517\n              jumpi\n                /* \"#utility.yul\":9145:9146   */\n              0x00\n                /* \"#utility.yul\":9142:9143   */\n              dup1\n                /* \"#utility.yul\":9135:9147   */\n              revert\n                /* \"#utility.yul\":9099:9149   */\n            tag_517:\n                /* \"#utility.yul\":9168:9218   */\n              tag_518\n                /* \"#utility.yul\":9210:9217   */\n              dup7\n                /* \"#utility.yul\":9201:9207   */\n              dup3\n                /* \"#utility.yul\":9190:9199   */\n              dup8\n                /* \"#utility.yul\":9186:9208   */\n              add\n                /* \"#utility.yul\":9168:9218   */\n              tag_425\n              jump\t// in\n            tag_518:\n                /* \"#utility.yul\":9158:9218   */\n              swap4\n              pop\n              pop\n                /* \"#utility.yul\":9265:9267   */\n              0x20\n                /* \"#utility.yul\":9254:9263   */\n              dup5\n                /* \"#utility.yul\":9250:9268   */\n              add\n                /* \"#utility.yul\":9237:9269   */\n              calldataload\n                /* \"#utility.yul\":9227:9269   */\n              swap2\n              pop\n                /* \"#utility.yul\":9288:9326   */\n              tag_519\n                /* \"#utility.yul\":9322:9324   */\n              0x40\n                /* \"#utility.yul\":9311:9320   */\n              dup6\n                /* \"#utility.yul\":9307:9325   */\n              add\n                /* \"#utility.yul\":9288:9326   */\n              tag_420\n              jump\t// in\n            tag_519:\n                /* \"#utility.yul\":9278:9326   */\n              swap1\n              pop\n                /* \"#utility.yul\":8868:9332   */\n              swap3\n              pop\n              swap3\n              pop\n              swap3\n              jump\t// out\n                /* \"#utility.yul\":9337:9741   */\n            tag_139:\n              sub(shl(0xa0, 0x01), 0x01)\n                /* \"#utility.yul\":9558:9590   */\n              dup5\n              and\n                /* \"#utility.yul\":9540:9591   */\n              dup2\n              mstore\n                /* \"#utility.yul\":9627:9629   */\n              0x60\n                /* \"#utility.yul\":9622:9624   */\n              0x20\n                /* \"#utility.yul\":9607:9625   */\n              dup3\n              add\n                /* \"#utility.yul\":9600:9630   */\n              dup2\n              swap1\n              mstore\n              0x00\n              swap1\n                /* \"#utility.yul\":9647:9692   */\n              tag_521\n              swap1\n                /* \"#utility.yul\":9673:9691   */\n              dup4\n              add\n                /* \"#utility.yul\":9665:9671   */\n              dup6\n                /* \"#utility.yul\":9647:9692   */\n              tag_430\n              jump\t// in\n            tag_521:\n                /* \"#utility.yul\":9639:9692   */\n              swap1\n              pop\n                /* \"#utility.yul\":9728:9734   */\n              dup3\n                /* \"#utility.yul\":9723:9725   */\n              0x40\n                /* \"#utility.yul\":9712:9721   */\n              dup4\n                /* \"#utility.yul\":9708:9726   */\n              add\n                /* \"#utility.yul\":9701:9735   */\n              mstore\n                /* \"#utility.yul\":9337:9741   */\n              swap5\n              swap4\n              pop\n              pop\n              pop\n              pop\n              jump\t// out\n                /* \"#utility.yul\":10106:10447   */\n            tag_159:\n                /* \"#utility.yul\":10308:10310   */\n              0x20\n                /* \"#utility.yul\":10290:10311   */\n              dup1\n              dup3\n              mstore\n                /* \"#utility.yul\":10347:10349   */\n              0x11\n                /* \"#utility.yul\":10327:10345   */\n              swap1\n              dup3\n              add\n                /* \"#utility.yul\":10320:10350   */\n              mstore\n              shl(0x79, 0x2737ba10309031b7b73a3934b13aba37b9)\n                /* \"#utility.yul\":10381:10383   */\n              0x40\n                /* \"#utility.yul\":10366:10384   */\n              dup3\n              add\n                /* \"#utility.yul\":10359:10406   */\n              mstore\n                /* \"#utility.yul\":10438:10440   */\n              0x60\n                /* \"#utility.yul\":10423:10441   */\n              add\n              swap1\n                /* \"#utility.yul\":10106:10447   */\n              jump\t// out\n                /* \"#utility.yul\":10797:10924   */\n            tag_169:\n                /* \"#utility.yul\":10858:10868   */\n              0x4e487b71\n                /* \"#utility.yul\":10853:10856   */\n              0xe0\n                /* \"#utility.yul\":10849:10869   */\n              shl\n                /* \"#utility.yul\":10846:10847   */\n              0x00\n                /* \"#utility.yul\":10839:10870   */\n              mstore\n                /* \"#utility.yul\":10889:10893   */\n              0x32\n                /* \"#utility.yul\":10886:10887   */\n              0x04\n                /* \"#utility.yul\":10879:10894   */\n              mstore\n                /* \"#utility.yul\":10913:10917   */\n              0x24\n                /* \"#utility.yul\":10910:10911   */\n              0x00\n                /* \"#utility.yul\":10903:10918   */\n              revert\n                /* \"#utility.yul\":11336:11463   */\n            tag_431:\n                /* \"#utility.yul\":11397:11407   */\n              0x4e487b71\n                /* \"#utility.yul\":11392:11395   */\n              0xe0\n                /* \"#utility.yul\":11388:11408   */\n              shl\n                /* \"#utility.yul\":11385:11386   */\n              0x00\n                /* \"#utility.yul\":11378:11409   */\n              mstore\n                /* \"#utility.yul\":11428:11432   */\n              0x11\n                /* \"#utility.yul\":11425:11426   */\n              0x04\n                /* \"#utility.yul\":11418:11433   */\n              mstore\n                /* \"#utility.yul\":11452:11456   */\n              0x24\n                /* \"#utility.yul\":11449:11450   */\n              0x00\n                /* \"#utility.yul\":11442:11457   */\n              revert\n                /* \"#utility.yul\":11468:11603   */\n            tag_175:\n                /* \"#utility.yul\":11507:11510   */\n              0x00\n                /* \"#utility.yul\":11528:11545   */\n              0x01\n              dup3\n              add\n                /* \"#utility.yul\":11525:11568   */\n              tag_530\n              jumpi\n                /* \"#utility.yul\":11548:11566   */\n              tag_530\n              tag_431\n              jump\t// in\n            tag_530:\n              pop\n                /* \"#utility.yul\":11595:11596   */\n              0x01\n                /* \"#utility.yul\":11584:11597   */\n              add\n              swap1\n                /* \"#utility.yul\":11468:11603   */\n              jump\t// out\n                /* \"#utility.yul\":11608:11856   */\n            tag_177:\n                /* \"#utility.yul\":11782:11807   */\n              swap2\n              dup3\n              mstore\n                /* \"#utility.yul\":11838:11840   */\n              0x20\n                /* \"#utility.yul\":11823:11841   */\n              dup3\n              add\n                /* \"#utility.yul\":11816:11850   */\n              mstore\n                /* \"#utility.yul\":11770:11772   */\n              0x40\n                /* \"#utility.yul\":11755:11773   */\n              add\n              swap1\n                /* \"#utility.yul\":11608:11856   */\n              jump\t// out\n                /* \"#utility.yul\":11861:12078   */\n            tag_179:\n                /* \"#utility.yul\":11901:11902   */\n              0x00\n                /* \"#utility.yul\":11927:11928   */\n              dup3\n                /* \"#utility.yul\":11917:12049   */\n              tag_533\n              jumpi\n                /* \"#utility.yul\":11971:11981   */\n              0x4e487b71\n                /* \"#utility.yul\":11966:11969   */\n              0xe0\n                /* \"#utility.yul\":11962:11982   */\n              shl\n                /* \"#utility.yul\":11959:11960   */\n              0x00\n                /* \"#utility.yul\":11952:11983   */\n              mstore\n                /* \"#utility.yul\":12006:12010   */\n              0x12\n                /* \"#utility.yul\":12003:12004   */\n              0x04\n                /* \"#utility.yul\":11996:12011   */\n              mstore\n                /* \"#utility.yul\":12034:12038   */\n              0x24\n                /* \"#utility.yul\":12031:12032   */\n              0x00\n                /* \"#utility.yul\":12024:12039   */\n              revert\n                /* \"#utility.yul\":11917:12049   */\n            tag_533:\n              pop\n                /* \"#utility.yul\":12063:12072   */\n              div\n              swap1\n                /* \"#utility.yul\":11861:12078   */\n              jump\t// out\n                /* \"#utility.yul\":12083:12208   */\n            tag_181:\n                /* \"#utility.yul\":12148:12157   */\n              dup1\n              dup3\n              add\n                /* \"#utility.yul\":12169:12179   */\n              dup1\n              dup3\n              gt\n                /* \"#utility.yul\":12166:12202   */\n              iszero\n              tag_536\n              jumpi\n                /* \"#utility.yul\":12182:12200   */\n              tag_536\n              tag_431\n              jump\t// in\n            tag_536:\n                /* \"#utility.yul\":12083:12208   */\n              swap3\n              swap2\n              pop\n              pop\n              jump\t// out\n                /* \"#utility.yul\":12213:12557   */\n            tag_188:\n                /* \"#utility.yul\":12415:12417   */\n              0x20\n                /* \"#utility.yul\":12397:12418   */\n              dup1\n              dup3\n              mstore\n                /* \"#utility.yul\":12454:12456   */\n              0x14\n                /* \"#utility.yul\":12434:12452   */\n              swap1\n              dup3\n              add\n                /* \"#utility.yul\":12427:12457   */\n              mstore\n              shl(0x62, 0x141c9bda9958dd081b9bdd08185c1c1c9bdd9959)\n                /* \"#utility.yul\":12488:12490   */\n              0x40\n                /* \"#utility.yul\":12473:12491   */\n              dup3\n              add\n                /* \"#utility.yul\":12466:12516   */\n              mstore\n                /* \"#utility.yul\":12548:12550   */\n              0x60\n                /* \"#utility.yul\":12533:12551   */\n              add\n              swap1\n                /* \"#utility.yul\":12213:12557   */\n              jump\t// out\n                /* \"#utility.yul\":12907:13224   */\n            tag_195:\n              sub(shl(0xa0, 0x01), 0x01)\n                /* \"#utility.yul\":13084:13116   */\n              dup4\n              and\n                /* \"#utility.yul\":13066:13117   */\n              dup2\n              mstore\n                /* \"#utility.yul\":13153:13155   */\n              0x40\n                /* \"#utility.yul\":13148:13150   */\n              0x20\n                /* \"#utility.yul\":13133:13151   */\n              dup3\n              add\n                /* \"#utility.yul\":13126:13156   */\n              dup2\n              swap1\n              mstore\n              0x00\n              swap1\n                /* \"#utility.yul\":13173:13218   */\n              tag_459\n              swap1\n                /* \"#utility.yul\":13199:13217   */\n              dup4\n              add\n                /* \"#utility.yul\":13191:13197   */\n              dup5\n                /* \"#utility.yul\":13173:13218   */\n              tag_430\n              jump\t// in\n                /* \"#utility.yul\":13229:13511   */\n            tag_200:\n              sub(shl(0xa0, 0x01), 0x01)\n                /* \"#utility.yul\":13429:13461   */\n              swap3\n              swap1\n              swap3\n              and\n                /* \"#utility.yul\":13411:13462   */\n              dup3\n              mstore\n                /* \"#utility.yul\":13493:13495   */\n              0x20\n                /* \"#utility.yul\":13478:13496   */\n              dup3\n              add\n                /* \"#utility.yul\":13471:13505   */\n              mstore\n                /* \"#utility.yul\":13399:13401   */\n              0x40\n                /* \"#utility.yul\":13384:13402   */\n              add\n              swap1\n                /* \"#utility.yul\":13229:13511   */\n              jump\t// out\n                /* \"#utility.yul\":13516:13700   */\n            tag_204:\n                /* \"#utility.yul\":13586:13592   */\n              0x00\n                /* \"#utility.yul\":13639:13641   */\n              0x20\n                /* \"#utility.yul\":13627:13636   */\n              dup3\n                /* \"#utility.yul\":13618:13625   */\n              dup5\n                /* \"#utility.yul\":13614:13637   */\n              sub\n                /* \"#utility.yul\":13610:13642   */\n              slt\n                /* \"#utility.yul\":13607:13659   */\n              iszero\n              tag_543\n              jumpi\n                /* \"#utility.yul\":13655:13656   */\n              0x00\n                /* \"#utility.yul\":13652:13653   */\n              dup1\n                /* \"#utility.yul\":13645:13657   */\n              revert\n                /* \"#utility.yul\":13607:13659   */\n            tag_543:\n              pop\n                /* \"#utility.yul\":13678:13694   */\n              mload\n              swap2\n                /* \"#utility.yul\":13516:13700   */\n              swap1\n              pop\n              jump\t// out\n                /* \"#utility.yul\":13705:14067   */\n            tag_206:\n                /* \"#utility.yul\":13910:13916   */\n              dup4\n                /* \"#utility.yul\":13899:13908   */\n              dup2\n                /* \"#utility.yul\":13892:13917   */\n              mstore\n                /* \"#utility.yul\":13953:13955   */\n              0x60\n                /* \"#utility.yul\":13948:13950   */\n              0x20\n                /* \"#utility.yul\":13937:13946   */\n              dup3\n                /* \"#utility.yul\":13933:13951   */\n              add\n                /* \"#utility.yul\":13926:13956   */\n              mstore\n                /* \"#utility.yul\":13873:13877   */\n              0x00\n                /* \"#utility.yul\":13973:14018   */\n              tag_521\n                /* \"#utility.yul\":14014:14016   */\n              0x60\n                /* \"#utility.yul\":14003:14012   */\n              dup4\n                /* \"#utility.yul\":13999:14017   */\n              add\n                /* \"#utility.yul\":13991:13997   */\n              dup6\n                /* \"#utility.yul\":13973:14018   */\n              tag_430\n              jump\t// in\n                /* \"#utility.yul\":14773:15153   */\n            tag_244:\n                /* \"#utility.yul\":14852:14853   */\n              0x01\n                /* \"#utility.yul\":14848:14860   */\n              dup2\n              dup2\n              shr\n              swap1\n                /* \"#utility.yul\":14895:14907   */\n              dup3\n              and\n              dup1\n                /* \"#utility.yul\":14916:14977   */\n              tag_549\n              jumpi\n                /* \"#utility.yul\":14970:14974   */\n              0x7f\n                /* \"#utility.yul\":14962:14968   */\n              dup3\n                /* \"#utility.yul\":14958:14975   */\n              and\n                /* \"#utility.yul\":14948:14975   */\n              swap2\n              pop\n                /* \"#utility.yul\":14916:14977   */\n            tag_549:\n                /* \"#utility.yul\":15023:15025   */\n              0x20\n                /* \"#utility.yul\":15015:15021   */\n              dup3\n                /* \"#utility.yul\":15012:15026   */\n              lt\n                /* \"#utility.yul\":14992:15010   */\n              dup2\n                /* \"#utility.yul\":14989:15027   */\n              sub\n                /* \"#utility.yul\":14986:15147   */\n              tag_550\n              jumpi\n                /* \"#utility.yul\":15069:15079   */\n              0x4e487b71\n                /* \"#utility.yul\":15064:15067   */\n              0xe0\n                /* \"#utility.yul\":15060:15080   */\n              shl\n                /* \"#utility.yul\":15057:15058   */\n              0x00\n                /* \"#utility.yul\":15050:15081   */\n              mstore\n                /* \"#utility.yul\":15104:15108   */\n              0x22\n                /* \"#utility.yul\":15101:15102   */\n              0x04\n                /* \"#utility.yul\":15094:15109   */\n              mstore\n                /* \"#utility.yul\":15132:15136   */\n              0x24\n                /* \"#utility.yul\":15129:15130   */\n              0x00\n                /* \"#utility.yul\":15122:15137   */\n              revert\n                /* \"#utility.yul\":14986:15147   */\n            tag_550:\n              pop\n                /* \"#utility.yul\":14773:15153   */\n              swap2\n              swap1\n              pop\n              jump\t// out\n                /* \"#utility.yul\":15565:15914   */\n            tag_255:\n                /* \"#utility.yul\":15767:15769   */\n              0x20\n                /* \"#utility.yul\":15749:15770   */\n              dup1\n              dup3\n              mstore\n                /* \"#utility.yul\":15806:15808   */\n              0x19\n                /* \"#utility.yul\":15786:15804   */\n              swap1\n              dup3\n              add\n                /* \"#utility.yul\":15779:15809   */\n              mstore\n              shl(0x3a, 0x141c9bda9958dd08185b1c9958591e4818d85b98d95b1b1959)\n                /* \"#utility.yul\":15840:15842   */\n              0x40\n                /* \"#utility.yul\":15825:15843   */\n              dup3\n              add\n                /* \"#utility.yul\":15818:15873   */\n              mstore\n                /* \"#utility.yul\":15905:15907   */\n              0x60\n                /* \"#utility.yul\":15890:15908   */\n              add\n              swap1\n                /* \"#utility.yul\":15565:15914   */\n              jump\t// out\n                /* \"#utility.yul\":15919:16267   */\n            tag_258:\n                /* \"#utility.yul\":16121:16123   */\n              0x20\n                /* \"#utility.yul\":16103:16124   */\n              dup1\n              dup3\n              mstore\n                /* \"#utility.yul\":16160:16162   */\n              0x18\n                /* \"#utility.yul\":16140:16158   */\n              swap1\n              dup3\n              add\n                /* \"#utility.yul\":16133:16163   */\n              mstore\n              shl(0x42, 0x141c9bda9958dd08185b1c9958591e48185c1c1c9bdd9959)\n                /* \"#utility.yul\":16194:16196   */\n              0x40\n                /* \"#utility.yul\":16179:16197   */\n              dup3\n              add\n                /* \"#utility.yul\":16172:16226   */\n              mstore\n                /* \"#utility.yul\":16258:16260   */\n              0x60\n                /* \"#utility.yul\":16243:16261   */\n              add\n              swap1\n                /* \"#utility.yul\":15919:16267   */\n              jump\t// out\n                /* \"#utility.yul\":16985:17634   */\n            tag_285:\n                /* \"#utility.yul\":17065:17071   */\n              0x00\n                /* \"#utility.yul\":17118:17120   */\n              0x20\n                /* \"#utility.yul\":17106:17115   */\n              dup3\n                /* \"#utility.yul\":17097:17104   */\n              dup5\n                /* \"#utility.yul\":17093:17116   */\n              sub\n                /* \"#utility.yul\":17089:17121   */\n              slt\n                /* \"#utility.yul\":17086:17138   */\n              iszero\n              tag_557\n              jumpi\n                /* \"#utility.yul\":17134:17135   */\n              0x00\n                /* \"#utility.yul\":17131:17132   */\n              dup1\n                /* \"#utility.yul\":17124:17136   */\n              revert\n                /* \"#utility.yul\":17086:17138   */\n            tag_557:\n                /* \"#utility.yul\":17161:17177   */\n              dup2\n              mload\n              sub(shl(0x40, 0x01), 0x01)\n                /* \"#utility.yul\":17189:17219   */\n              dup2\n              gt\n                /* \"#utility.yul\":17186:17236   */\n              iszero\n              tag_558\n              jumpi\n                /* \"#utility.yul\":17232:17233   */\n              0x00\n                /* \"#utility.yul\":17229:17230   */\n              dup1\n                /* \"#utility.yul\":17222:17234   */\n              revert\n                /* \"#utility.yul\":17186:17236   */\n            tag_558:\n                /* \"#utility.yul\":17255:17277   */\n              dup3\n              add\n                /* \"#utility.yul\":17308:17312   */\n              0x1f\n                /* \"#utility.yul\":17300:17313   */\n              dup2\n              add\n                /* \"#utility.yul\":17296:17323   */\n              dup5\n              sgt\n                /* \"#utility.yul\":17286:17341   */\n              tag_559\n              jumpi\n                /* \"#utility.yul\":17337:17338   */\n              0x00\n                /* \"#utility.yul\":17334:17335   */\n              dup1\n                /* \"#utility.yul\":17327:17339   */\n              revert\n                /* \"#utility.yul\":17286:17341   */\n            tag_559:\n                /* \"#utility.yul\":17366:17368   */\n              dup1\n                /* \"#utility.yul\":17360:17369   */\n              mload\n                /* \"#utility.yul\":17391:17440   */\n              tag_560\n                /* \"#utility.yul\":17407:17439   */\n              tag_454\n                /* \"#utility.yul\":17436:17438   */\n              dup3\n                /* \"#utility.yul\":17407:17439   */\n              tag_424\n              jump\t// in\n                /* \"#utility.yul\":17391:17440   */\n            tag_560:\n                /* \"#utility.yul\":17463:17465   */\n              dup2\n                /* \"#utility.yul\":17456:17461   */\n              dup2\n                /* \"#utility.yul\":17449:17466   */\n              mstore\n                /* \"#utility.yul\":17503:17510   */\n              dup6\n                /* \"#utility.yul\":17498:17500   */\n              0x20\n                /* \"#utility.yul\":17493:17495   */\n              dup4\n                /* \"#utility.yul\":17489:17491   */\n              dup6\n                /* \"#utility.yul\":17485:17496   */\n              add\n                /* \"#utility.yul\":17481:17501   */\n              add\n                /* \"#utility.yul\":17478:17511   */\n              gt\n                /* \"#utility.yul\":17475:17528   */\n              iszero\n              tag_562\n              jumpi\n                /* \"#utility.yul\":17524:17525   */\n              0x00\n                /* \"#utility.yul\":17521:17522   */\n              dup1\n                /* \"#utility.yul\":17514:17526   */\n              revert\n                /* \"#utility.yul\":17475:17528   */\n            tag_562:\n                /* \"#utility.yul\":17537:17604   */\n              tag_563\n                /* \"#utility.yul\":17601:17603   */\n              dup3\n                /* \"#utility.yul\":17596:17598   */\n              0x20\n                /* \"#utility.yul\":17589:17594   */\n              dup4\n                /* \"#utility.yul\":17585:17599   */\n              add\n                /* \"#utility.yul\":17580:17582   */\n              0x20\n                /* \"#utility.yul\":17576:17578   */\n              dup7\n                /* \"#utility.yul\":17572:17583   */\n              add\n                /* \"#utility.yul\":17537:17604   */\n              tag_429\n              jump\t// in\n            tag_563:\n                /* \"#utility.yul\":17623:17628   */\n              swap6\n                /* \"#utility.yul\":16985:17634   */\n              swap5\n              pop\n              pop\n              pop\n              pop\n              pop\n              jump\t// out\n                /* \"#utility.yul\":18763:18891   */\n            tag_313:\n                /* \"#utility.yul\":18830:18839   */\n              dup2\n              dup2\n              sub\n                /* \"#utility.yul\":18851:18862   */\n              dup2\n              dup2\n              gt\n                /* \"#utility.yul\":18848:18885   */\n              iszero\n              tag_536\n              jumpi\n                /* \"#utility.yul\":18865:18883   */\n              tag_536\n              tag_431\n              jump\t// in\n                /* \"#utility.yul\":19382:19900   */\n            tag_433:\n                /* \"#utility.yul\":19484:19486   */\n              0x1f\n                /* \"#utility.yul\":19479:19482   */\n              dup3\n                /* \"#utility.yul\":19476:19487   */\n              gt\n                /* \"#utility.yul\":19473:19894   */\n              iszero\n              tag_573\n              jumpi\n                /* \"#utility.yul\":19520:19525   */\n              dup1\n                /* \"#utility.yul\":19517:19518   */\n              0x00\n                /* \"#utility.yul\":19510:19526   */\n              mstore\n                /* \"#utility.yul\":19564:19568   */\n              0x20\n                /* \"#utility.yul\":19561:19562   */\n              0x00\n                /* \"#utility.yul\":19551:19569   */\n              keccak256\n                /* \"#utility.yul\":19634:19636   */\n              0x1f\n                /* \"#utility.yul\":19622:19632   */\n              dup5\n                /* \"#utility.yul\":19618:19637   */\n              add\n                /* \"#utility.yul\":19615:19616   */\n              0x05\n                /* \"#utility.yul\":19611:19638   */\n              shr\n                /* \"#utility.yul\":19605:19609   */\n              dup2\n                /* \"#utility.yul\":19601:19639   */\n              add\n                /* \"#utility.yul\":19670:19674   */\n              0x20\n                /* \"#utility.yul\":19658:19668   */\n              dup6\n                /* \"#utility.yul\":19655:19675   */\n              lt\n                /* \"#utility.yul\":19652:19699   */\n              iszero\n              tag_574\n              jumpi\n              pop\n                /* \"#utility.yul\":19693:19697   */\n              dup1\n                /* \"#utility.yul\":19652:19699   */\n            tag_574:\n                /* \"#utility.yul\":19748:19750   */\n              0x1f\n                /* \"#utility.yul\":19743:19746   */\n              dup5\n                /* \"#utility.yul\":19739:19751   */\n              add\n                /* \"#utility.yul\":19736:19737   */\n              0x05\n                /* \"#utility.yul\":19732:19752   */\n              shr\n                /* \"#utility.yul\":19726:19730   */\n              dup3\n                /* \"#utility.yul\":19722:19753   */\n              add\n                /* \"#utility.yul\":19712:19753   */\n              swap2\n              pop\n                /* \"#utility.yul\":19803:19884   */\n            tag_575:\n                /* \"#utility.yul\":19821:19823   */\n              dup2\n                /* \"#utility.yul\":19814:19819   */\n              dup2\n                /* \"#utility.yul\":19811:19824   */\n              lt\n                /* \"#utility.yul\":19803:19884   */\n              iszero\n              tag_577\n              jumpi\n                /* \"#utility.yul\":19880:19881   */\n              0x00\n                /* \"#utility.yul\":19866:19882   */\n              dup2\n              sstore\n                /* \"#utility.yul\":19847:19848   */\n              0x01\n                /* \"#utility.yul\":19836:19849   */\n              add\n                /* \"#utility.yul\":19803:19884   */\n              jump(tag_575)\n            tag_577:\n                /* \"#utility.yul\":19807:19810   */\n              pop\n              pop\n                /* \"#utility.yul\":19473:19894   */\n            tag_573:\n                /* \"#utility.yul\":19382:19900   */\n              pop\n              pop\n              pop\n              jump\t// out\n                /* \"#utility.yul\":20076:21421   */\n            tag_342:\n                /* \"#utility.yul\":20196:20206   */\n              dup2\n              mload\n              sub(shl(0x40, 0x01), 0x01)\n                /* \"#utility.yul\":20218:20248   */\n              dup2\n              gt\n                /* \"#utility.yul\":20215:20271   */\n              iszero\n              tag_581\n              jumpi\n                /* \"#utility.yul\":20251:20269   */\n              tag_581\n              tag_422\n              jump\t// in\n            tag_581:\n                /* \"#utility.yul\":20280:20377   */\n              tag_582\n                /* \"#utility.yul\":20370:20376   */\n              dup2\n                /* \"#utility.yul\":20330:20368   */\n              tag_583\n                /* \"#utility.yul\":20362:20366   */\n              dup5\n                /* \"#utility.yul\":20356:20367   */\n              sload\n                /* \"#utility.yul\":20330:20368   */\n              tag_244\n              jump\t// in\n            tag_583:\n                /* \"#utility.yul\":20324:20328   */\n              dup5\n                /* \"#utility.yul\":20280:20377   */\n              tag_433\n              jump\t// in\n            tag_582:\n                /* \"#utility.yul\":20432:20436   */\n              0x20\n              dup1\n                /* \"#utility.yul\":20489:20491   */\n              0x1f\n                /* \"#utility.yul\":20478:20492   */\n              dup4\n              gt\n                /* \"#utility.yul\":20506:20507   */\n              0x01\n                /* \"#utility.yul\":20501:21164   */\n              dup2\n              eq\n              tag_585\n              jumpi\n                /* \"#utility.yul\":21208:21209   */\n              0x00\n                /* \"#utility.yul\":21225:21231   */\n              dup5\n                /* \"#utility.yul\":21222:21311   */\n              iszero\n              tag_586\n              jumpi\n              pop\n                /* \"#utility.yul\":21277:21296   */\n              dup6\n              dup4\n              add\n                /* \"#utility.yul\":21271:21297   */\n              mload\n                /* \"#utility.yul\":21222:21311   */\n            tag_586:\n              not(0x00)\n                /* \"#utility.yul\":20033:20034   */\n              0x03\n                /* \"#utility.yul\":20029:20040   */\n              dup7\n              swap1\n              shl\n                /* \"#utility.yul\":20025:20049   */\n              shr\n                /* \"#utility.yul\":20021:20050   */\n              not\n                /* \"#utility.yul\":20011:20051   */\n              and\n                /* \"#utility.yul\":20057:20058   */\n              0x01\n                /* \"#utility.yul\":20053:20064   */\n              dup6\n              swap1\n              shl\n                /* \"#utility.yul\":20008:20065   */\n              or\n                /* \"#utility.yul\":21324:21405   */\n              dup6\n              sstore\n                /* \"#utility.yul\":20471:21415   */\n              jump(tag_584)\n                /* \"#utility.yul\":20501:21164   */\n            tag_585:\n                /* \"#utility.yul\":19329:19330   */\n              0x00\n                /* \"#utility.yul\":19322:19336   */\n              dup6\n              dup2\n              mstore\n                /* \"#utility.yul\":19366:19370   */\n              0x20\n                /* \"#utility.yul\":19353:19371   */\n              dup2\n              keccak256\n              not(0x1f)\n                /* \"#utility.yul\":20537:20557   */\n              dup7\n              and\n              swap2\n                /* \"#utility.yul\":20655:20891   */\n            tag_589:\n                /* \"#utility.yul\":20669:20676   */\n              dup3\n                /* \"#utility.yul\":20666:20667   */\n              dup2\n                /* \"#utility.yul\":20663:20677   */\n              lt\n                /* \"#utility.yul\":20655:20891   */\n              iszero\n              tag_591\n              jumpi\n                /* \"#utility.yul\":20758:20777   */\n              dup9\n              dup7\n              add\n                /* \"#utility.yul\":20752:20778   */\n              mload\n                /* \"#utility.yul\":20737:20779   */\n              dup3\n              sstore\n                /* \"#utility.yul\":20850:20877   */\n              swap5\n              dup5\n              add\n              swap5\n                /* \"#utility.yul\":20818:20819   */\n              0x01\n                /* \"#utility.yul\":20806:20820   */\n              swap1\n              swap2\n              add\n              swap1\n                /* \"#utility.yul\":20685:20704   */\n              dup5\n              add\n                /* \"#utility.yul\":20655:20891   */\n              jump(tag_589)\n            tag_591:\n                /* \"#utility.yul\":20659:20662   */\n              pop\n                /* \"#utility.yul\":20919:20925   */\n              dup6\n                /* \"#utility.yul\":20910:20917   */\n              dup3\n                /* \"#utility.yul\":20907:20926   */\n              lt\n                /* \"#utility.yul\":20904:21105   */\n              iszero\n              tag_592\n              jumpi\n                /* \"#utility.yul\":20980:20999   */\n              dup8\n              dup6\n              add\n                /* \"#utility.yul\":20974:21000   */\n              mload\n              not(0x00)\n                /* \"#utility.yul\":21063:21064   */\n              0x03\n                /* \"#utility.yul\":21059:21073   */\n              dup9\n              swap1\n              shl\n                /* \"#utility.yul\":21075:21078   */\n              0xf8\n                /* \"#utility.yul\":21055:21079   */\n              and\n                /* \"#utility.yul\":21051:21088   */\n              shr\n                /* \"#utility.yul\":21047:21089   */\n              not\n                /* \"#utility.yul\":21032:21090   */\n              and\n                /* \"#utility.yul\":21017:21091   */\n              dup2\n              sstore\n                /* \"#utility.yul\":20904:21105   */\n            tag_592:\n              pop\n              pop\n                /* \"#utility.yul\":21151:21152   */\n              0x01\n                /* \"#utility.yul\":21142:21148   */\n              dup5\n                /* \"#utility.yul\":21139:21140   */\n              0x01\n                /* \"#utility.yul\":21135:21149   */\n              shl\n                /* \"#utility.yul\":21131:21153   */\n              add\n                /* \"#utility.yul\":21125:21129   */\n              dup6\n                /* \"#utility.yul\":21118:21154   */\n              sstore\n                /* \"#utility.yul\":20471:21415   */\n            tag_584:\n              pop\n              pop\n              pop\n              pop\n                /* \"#utility.yul\":20076:21421   */\n              pop\n              pop\n              jump\t// out\n\n            auxdata: 0xa264697066735822122024506d0eb60595828b5374c88e40b53ed06e6aa7c87aff8448bb1b127a4657f764736f6c63430008180033\n        }\n\n        sub_1: assembly {\n                /* \"ProjectNFT.sol\":339:1680  contract ProjectNFT is ERC721, ERC721Enumerable, ERC721URIStorage, Ownable {... */\n              mstore(0x40, 0x80)\n                /* \"ProjectNFT.sol\":455:606  constructor(... */\n              callvalue\n              dup1\n              iszero\n              tag_1\n              jumpi\n              0x00\n              dup1\n              revert\n            tag_1:\n              pop\n              mload(0x40)\n              sub(codesize, bytecodeSize)\n              dup1\n              bytecodeSize\n              dup4\n              codecopy\n              dup2\n              add\n              0x40\n              dup2\n              swap1\n              mstore\n              tag_2\n              swap2\n              tag_3\n              jump\t// in\n            tag_2:\n                /* \"ProjectNFT.sol\":590:602  initialOwner */\n              dup3\n                /* \"ProjectNFT.sol\":568:572  name */\n              dup3\n                /* \"ProjectNFT.sol\":574:580  symbol */\n              dup3\n                /* \"@openzeppelin/contracts/token/ERC721/ERC721.sol\":1447:1452  _name */\n              0x00\n                /* \"@openzeppelin/contracts/token/ERC721/ERC721.sol\":1447:1460  _name = name_ */\n              tag_8\n                /* \"ProjectNFT.sol\":568:572  name */\n              dup4\n                /* \"@openzeppelin/contracts/token/ERC721/ERC721.sol\":1447:1452  _name */\n              dup3\n                /* \"@openzeppelin/contracts/token/ERC721/ERC721.sol\":1447:1460  _name = name_ */\n              tag_9\n              jump\t// in\n            tag_8:\n              pop\n                /* \"@openzeppelin/contracts/token/ERC721/ERC721.sol\":1470:1477  _symbol */\n              0x01\n                /* \"@openzeppelin/contracts/token/ERC721/ERC721.sol\":1470:1487  _symbol = symbol_ */\n              tag_10\n                /* \"@openzeppelin/contracts/token/ERC721/ERC721.sol\":1480:1487  symbol_ */\n              dup3\n                /* \"@openzeppelin/contracts/token/ERC721/ERC721.sol\":1470:1477  _symbol */\n              dup3\n                /* \"@openzeppelin/contracts/token/ERC721/ERC721.sol\":1470:1487  _symbol = symbol_ */\n              tag_9\n              jump\t// in\n            tag_10:\n              pop\n              pop\n              pop\n              sub(shl(0xa0, 0x01), 0x01)\n                /* \"@openzeppelin/contracts/access/Ownable.sol\":1273:1299  initialOwner == address(0) */\n              dup2\n              and\n                /* \"@openzeppelin/contracts/access/Ownable.sol\":1269:1364  if (initialOwner == address(0)) {... */\n              tag_12\n              jumpi\n                /* \"@openzeppelin/contracts/access/Ownable.sol\":1322:1353  OwnableInvalidOwner(address(0)) */\n              mload(0x40)\n              shl(0xe0, 0x1e4fbdf7)\n              dup2\n              mstore\n                /* \"@openzeppelin/contracts/access/Ownable.sol\":1350:1351  0 */\n              0x00\n                /* \"@openzeppelin/contracts/access/Ownable.sol\":1322:1353  OwnableInvalidOwner(address(0)) */\n              0x04\n              dup3\n              add\n                /* \"#utility.yul\":4430:4481   */\n              mstore\n                /* \"#utility.yul\":4403:4421   */\n              0x24\n              add\n                /* \"@openzeppelin/contracts/access/Ownable.sol\":1322:1353  OwnableInvalidOwner(address(0)) */\n              mload(0x40)\n              dup1\n              swap2\n              sub\n              swap1\n              revert\n                /* \"@openzeppelin/contracts/access/Ownable.sol\":1269:1364  if (initialOwner == address(0)) {... */\n            tag_12:\n                /* \"@openzeppelin/contracts/access/Ownable.sol\":1373:1405  _transferOwnership(initialOwner) */\n              tag_15\n                /* \"@openzeppelin/contracts/access/Ownable.sol\":1392:1404  initialOwner */\n              dup2\n                /* \"@openzeppelin/contracts/access/Ownable.sol\":1373:1391  _transferOwnership */\n              tag_16\n                /* \"@openzeppelin/contracts/access/Ownable.sol\":1373:1405  _transferOwnership(initialOwner) */\n              jump\t// in\n            tag_15:\n                /* \"@openzeppelin/contracts/access/Ownable.sol\":1225:1412  constructor(address initialOwner) {... */\n              pop\n                /* \"ProjectNFT.sol\":455:606  constructor(... */\n              pop\n              pop\n              pop\n                /* \"ProjectNFT.sol\":339:1680  contract ProjectNFT is ERC721, ERC721Enumerable, ERC721URIStorage, Ownable {... */\n              jump(tag_26)\n                /* \"@openzeppelin/contracts/access/Ownable.sol\":2912:3099  function _transferOwnership(address newOwner) internal virtual {... */\n            tag_16:\n                /* \"@openzeppelin/contracts/access/Ownable.sol\":3004:3010  _owner */\n              0x0b\n              dup1\n              sload\n              sub(shl(0xa0, 0x01), 0x01)\n                /* \"@openzeppelin/contracts/access/Ownable.sol\":3020:3037  _owner = newOwner */\n              dup4\n              dup2\n              and\n              not(sub(shl(0xa0, 0x01), 0x01))\n              dup4\n              and\n              dup2\n              or\n              swap1\n              swap4\n              sstore\n                /* \"@openzeppelin/contracts/access/Ownable.sol\":3052:3092  OwnershipTransferred(oldOwner, newOwner) */\n              mload(0x40)\n                /* \"@openzeppelin/contracts/access/Ownable.sol\":3004:3010  _owner */\n              swap2\n              and\n              swap2\n                /* \"@openzeppelin/contracts/access/Ownable.sol\":3020:3037  _owner = newOwner */\n              swap1\n                /* \"@openzeppelin/contracts/access/Ownable.sol\":3004:3010  _owner */\n              dup3\n              swap1\n                /* \"@openzeppelin/contracts/access/Ownable.sol\":3052:3092  OwnershipTransferred(oldOwner, newOwner) */\n              0x8be0079c531659141344cd1fd0a4f28419497f9722a3daafe3b4186f6b6457e0\n              swap1\n                /* \"@openzeppelin/contracts/access/Ownable.sol\":2985:3001  address oldOwner */\n              0x00\n              swap1\n                /* \"@openzeppelin/contracts/access/Ownable.sol\":3052:3092  OwnershipTransferred(oldOwner, newOwner) */\n              log3\n                /* \"@openzeppelin/contracts/access/Ownable.sol\":2975:3099  {... */\n              pop\n                /* \"@openzeppelin/contracts/access/Ownable.sol\":2912:3099  function _transferOwnership(address newOwner) internal virtual {... */\n              pop\n              jump\t// out\n                /* \"#utility.yul\":14:141   */\n            tag_20:\n                /* \"#utility.yul\":75:85   */\n              0x4e487b71\n                /* \"#utility.yul\":70:73   */\n              0xe0\n                /* \"#utility.yul\":66:86   */\n              shl\n                /* \"#utility.yul\":63:64   */\n              0x00\n                /* \"#utility.yul\":56:87   */\n              mstore\n                /* \"#utility.yul\":106:110   */\n              0x41\n                /* \"#utility.yul\":103:104   */\n              0x04\n                /* \"#utility.yul\":96:111   */\n              mstore\n                /* \"#utility.yul\":130:134   */\n              0x24\n                /* \"#utility.yul\":127:128   */\n              0x00\n                /* \"#utility.yul\":120:135   */\n              revert\n                /* \"#utility.yul\":146:990   */\n            tag_21:\n                /* \"#utility.yul\":200:205   */\n              0x00\n                /* \"#utility.yul\":253:256   */\n              dup3\n                /* \"#utility.yul\":246:250   */\n              0x1f\n                /* \"#utility.yul\":238:244   */\n              dup4\n                /* \"#utility.yul\":234:251   */\n              add\n                /* \"#utility.yul\":230:257   */\n              slt\n                /* \"#utility.yul\":220:275   */\n              tag_29\n              jumpi\n                /* \"#utility.yul\":271:272   */\n              0x00\n                /* \"#utility.yul\":268:269   */\n              dup1\n                /* \"#utility.yul\":261:273   */\n              revert\n                /* \"#utility.yul\":220:275   */\n            tag_29:\n                /* \"#utility.yul\":294:307   */\n              dup2\n              mload\n              sub(shl(0x40, 0x01), 0x01)\n                /* \"#utility.yul\":356:366   */\n              dup1\n              dup3\n              gt\n                /* \"#utility.yul\":353:389   */\n              iszero\n              tag_31\n              jumpi\n                /* \"#utility.yul\":369:387   */\n              tag_31\n              tag_20\n              jump\t// in\n            tag_31:\n                /* \"#utility.yul\":444:446   */\n              0x40\n                /* \"#utility.yul\":438:447   */\n              mload\n                /* \"#utility.yul\":412:414   */\n              0x1f\n                /* \"#utility.yul\":498:511   */\n              dup4\n              add\n              not(0x1f)\n                /* \"#utility.yul\":494:516   */\n              swap1\n              dup2\n              and\n                /* \"#utility.yul\":518:520   */\n              0x3f\n                /* \"#utility.yul\":490:521   */\n              add\n                /* \"#utility.yul\":486:526   */\n              and\n                /* \"#utility.yul\":474:527   */\n              dup2\n              add\n              swap1\n                /* \"#utility.yul\":542:560   */\n              dup3\n              dup3\n              gt\n                /* \"#utility.yul\":562:584   */\n              dup2\n              dup4\n              lt\n                /* \"#utility.yul\":539:585   */\n              or\n                /* \"#utility.yul\":536:608   */\n              iszero\n              tag_33\n              jumpi\n                /* \"#utility.yul\":588:606   */\n              tag_33\n              tag_20\n              jump\t// in\n            tag_33:\n                /* \"#utility.yul\":628:638   */\n              dup2\n                /* \"#utility.yul\":624:626   */\n              0x40\n                /* \"#utility.yul\":617:639   */\n              mstore\n                /* \"#utility.yul\":663:665   */\n              dup4\n                /* \"#utility.yul\":655:661   */\n              dup2\n                /* \"#utility.yul\":648:666   */\n              mstore\n                /* \"#utility.yul\":685:689   */\n              0x20\n                /* \"#utility.yul\":675:689   */\n              swap3\n              pop\n                /* \"#utility.yul\":732:735   */\n              dup7\n                /* \"#utility.yul\":725:729   */\n              0x20\n                /* \"#utility.yul\":720:722   */\n              dup6\n                /* \"#utility.yul\":712:718   */\n              dup9\n                /* \"#utility.yul\":708:723   */\n              add\n                /* \"#utility.yul\":704:730   */\n              add\n                /* \"#utility.yul\":701:736   */\n              gt\n                /* \"#utility.yul\":698:753   */\n              iszero\n              tag_34\n              jumpi\n                /* \"#utility.yul\":749:750   */\n              0x00\n                /* \"#utility.yul\":746:747   */\n              dup1\n                /* \"#utility.yul\":739:751   */\n              revert\n                /* \"#utility.yul\":698:753   */\n            tag_34:\n                /* \"#utility.yul\":771:772   */\n              0x00\n                /* \"#utility.yul\":762:772   */\n              swap2\n              pop\n                /* \"#utility.yul\":781:914   */\n            tag_35:\n                /* \"#utility.yul\":795:797   */\n              dup4\n                /* \"#utility.yul\":792:793   */\n              dup3\n                /* \"#utility.yul\":789:798   */\n              lt\n                /* \"#utility.yul\":781:914   */\n              iszero\n              tag_37\n              jumpi\n                /* \"#utility.yul\":883:897   */\n              dup6\n              dup3\n              add\n                /* \"#utility.yul\":879:902   */\n              dup4\n              add\n                /* \"#utility.yul\":873:903   */\n              mload\n                /* \"#utility.yul\":852:866   */\n              dup2\n              dup4\n              add\n                /* \"#utility.yul\":848:871   */\n              dup5\n              add\n                /* \"#utility.yul\":841:904   */\n              mstore\n                /* \"#utility.yul\":806:816   */\n              swap1\n              dup3\n              add\n              swap1\n                /* \"#utility.yul\":781:914   */\n              jump(tag_35)\n            tag_37:\n                /* \"#utility.yul\":958:959   */\n              0x00\n                /* \"#utility.yul\":951:955   */\n              0x20\n                /* \"#utility.yul\":946:948   */\n              dup6\n                /* \"#utility.yul\":938:944   */\n              dup4\n                /* \"#utility.yul\":934:949   */\n              add\n                /* \"#utility.yul\":930:956   */\n              add\n                /* \"#utility.yul\":923:960   */\n              mstore\n                /* \"#utility.yul\":978:984   */\n              dup1\n                /* \"#utility.yul\":969:984   */\n              swap5\n              pop\n              pop\n              pop\n              pop\n              pop\n                /* \"#utility.yul\":146:990   */\n              swap3\n              swap2\n              pop\n              pop\n              jump\t// out\n                /* \"#utility.yul\":995:1724   */\n            tag_3:\n                /* \"#utility.yul\":1103:1109   */\n              0x00\n                /* \"#utility.yul\":1111:1117   */\n              dup1\n                /* \"#utility.yul\":1119:1125   */\n              0x00\n                /* \"#utility.yul\":1172:1174   */\n              0x60\n                /* \"#utility.yul\":1160:1169   */\n              dup5\n                /* \"#utility.yul\":1151:1158   */\n              dup7\n                /* \"#utility.yul\":1147:1170   */\n              sub\n                /* \"#utility.yul\":1143:1175   */\n              slt\n                /* \"#utility.yul\":1140:1192   */\n              iszero\n              tag_39\n              jumpi\n                /* \"#utility.yul\":1188:1189   */\n              0x00\n                /* \"#utility.yul\":1185:1186   */\n              dup1\n                /* \"#utility.yul\":1178:1190   */\n              revert\n                /* \"#utility.yul\":1140:1192   */\n            tag_39:\n                /* \"#utility.yul\":1214:1230   */\n              dup4\n              mload\n              sub(shl(0xa0, 0x01), 0x01)\n                /* \"#utility.yul\":1259:1290   */\n              dup2\n              and\n                /* \"#utility.yul\":1249:1291   */\n              dup2\n              eq\n                /* \"#utility.yul\":1239:1309   */\n              tag_40\n              jumpi\n                /* \"#utility.yul\":1305:1306   */\n              0x00\n                /* \"#utility.yul\":1302:1303   */\n              dup1\n                /* \"#utility.yul\":1295:1307   */\n              revert\n                /* \"#utility.yul\":1239:1309   */\n            tag_40:\n                /* \"#utility.yul\":1377:1379   */\n              0x20\n                /* \"#utility.yul\":1362:1380   */\n              dup6\n              add\n                /* \"#utility.yul\":1356:1381   */\n              mload\n                /* \"#utility.yul\":1328:1333   */\n              swap1\n              swap4\n              pop\n              sub(shl(0x40, 0x01), 0x01)\n                /* \"#utility.yul\":1430:1444   */\n              dup1\n              dup3\n              gt\n                /* \"#utility.yul\":1427:1461   */\n              iszero\n              tag_41\n              jumpi\n                /* \"#utility.yul\":1457:1458   */\n              0x00\n                /* \"#utility.yul\":1454:1455   */\n              dup1\n                /* \"#utility.yul\":1447:1459   */\n              revert\n                /* \"#utility.yul\":1427:1461   */\n            tag_41:\n                /* \"#utility.yul\":1480:1541   */\n              tag_42\n                /* \"#utility.yul\":1533:1540   */\n              dup8\n                /* \"#utility.yul\":1524:1530   */\n              dup4\n                /* \"#utility.yul\":1513:1522   */\n              dup9\n                /* \"#utility.yul\":1509:1531   */\n              add\n                /* \"#utility.yul\":1480:1541   */\n              tag_21\n              jump\t// in\n            tag_42:\n                /* \"#utility.yul\":1470:1541   */\n              swap4\n              pop\n                /* \"#utility.yul\":1587:1589   */\n              0x40\n                /* \"#utility.yul\":1576:1585   */\n              dup7\n                /* \"#utility.yul\":1572:1590   */\n              add\n                /* \"#utility.yul\":1566:1591   */\n              mload\n                /* \"#utility.yul\":1550:1591   */\n              swap2\n              pop\n                /* \"#utility.yul\":1616:1618   */\n              dup1\n                /* \"#utility.yul\":1606:1614   */\n              dup3\n                /* \"#utility.yul\":1603:1619   */\n              gt\n                /* \"#utility.yul\":1600:1636   */\n              iszero\n              tag_43\n              jumpi\n                /* \"#utility.yul\":1632:1633   */\n              0x00\n                /* \"#utility.yul\":1629:1630   */\n              dup1\n                /* \"#utility.yul\":1622:1634   */\n              revert\n                /* \"#utility.yul\":1600:1636   */\n            tag_43:\n              pop\n                /* \"#utility.yul\":1655:1718   */\n              tag_44\n                /* \"#utility.yul\":1710:1717   */\n              dup7\n                /* \"#utility.yul\":1699:1707   */\n              dup3\n                /* \"#utility.yul\":1688:1697   */\n              dup8\n                /* \"#utility.yul\":1684:1708   */\n              add\n                /* \"#utility.yul\":1655:1718   */\n              tag_21\n              jump\t// in\n            tag_44:\n                /* \"#utility.yul\":1645:1718   */\n              swap2\n              pop\n              pop\n                /* \"#utility.yul\":995:1724   */\n              swap3\n              pop\n              swap3\n              pop\n              swap3\n              jump\t// out\n                /* \"#utility.yul\":1729:2109   */\n            tag_22:\n                /* \"#utility.yul\":1808:1809   */\n              0x01\n                /* \"#utility.yul\":1804:1816   */\n              dup2\n              dup2\n              shr\n              swap1\n                /* \"#utility.yul\":1851:1863   */\n              dup3\n              and\n              dup1\n                /* \"#utility.yul\":1872:1933   */\n              tag_46\n              jumpi\n                /* \"#utility.yul\":1926:1930   */\n              0x7f\n                /* \"#utility.yul\":1918:1924   */\n              dup3\n                /* \"#utility.yul\":1914:1931   */\n              and\n                /* \"#utility.yul\":1904:1931   */\n              swap2\n              pop\n                /* \"#utility.yul\":1872:1933   */\n            tag_46:\n                /* \"#utility.yul\":1979:1981   */\n              0x20\n                /* \"#utility.yul\":1971:1977   */\n              dup3\n                /* \"#utility.yul\":1968:1982   */\n              lt\n                /* \"#utility.yul\":1948:1966   */\n              dup2\n                /* \"#utility.yul\":1945:1983   */\n              sub\n                /* \"#utility.yul\":1942:2103   */\n              tag_47\n              jumpi\n                /* \"#utility.yul\":2025:2035   */\n              0x4e487b71\n                /* \"#utility.yul\":2020:2023   */\n              0xe0\n                /* \"#utility.yul\":2016:2036   */\n              shl\n                /* \"#utility.yul\":2013:2014   */\n              0x00\n                /* \"#utility.yul\":2006:2037   */\n              mstore\n                /* \"#utility.yul\":2060:2064   */\n              0x22\n                /* \"#utility.yul\":2057:2058   */\n              0x04\n                /* \"#utility.yul\":2050:2065   */\n              mstore\n                /* \"#utility.yul\":2088:2092   */\n              0x24\n                /* \"#utility.yul\":2085:2086   */\n              0x00\n                /* \"#utility.yul\":2078:2093   */\n              revert\n                /* \"#utility.yul\":1942:2103   */\n            tag_47:\n              pop\n                /* \"#utility.yul\":1729:2109   */\n              swap2\n              swap1\n              pop\n              jump\t// out\n                /* \"#utility.yul\":2240:2758   */\n            tag_24:\n                /* \"#utility.yul\":2342:2344   */\n              0x1f\n                /* \"#utility.yul\":2337:2340   */\n              dup3\n                /* \"#utility.yul\":2334:2345   */\n              gt\n                /* \"#utility.yul\":2331:2752   */\n              iszero\n              tag_50\n              jumpi\n                /* \"#utility.yul\":2378:2383   */\n              dup1\n                /* \"#utility.yul\":2375:2376   */\n              0x00\n                /* \"#utility.yul\":2368:2384   */\n              mstore\n                /* \"#utility.yul\":2422:2426   */\n              0x20\n                /* \"#utility.yul\":2419:2420   */\n              0x00\n                /* \"#utility.yul\":2409:2427   */\n              keccak256\n                /* \"#utility.yul\":2492:2494   */\n              0x1f\n                /* \"#utility.yul\":2480:2490   */\n              dup5\n                /* \"#utility.yul\":2476:2495   */\n              add\n                /* \"#utility.yul\":2473:2474   */\n              0x05\n                /* \"#utility.yul\":2469:2496   */\n              shr\n                /* \"#utility.yul\":2463:2467   */\n              dup2\n                /* \"#utility.yul\":2459:2497   */\n              add\n                /* \"#utility.yul\":2528:2532   */\n              0x20\n                /* \"#utility.yul\":2516:2526   */\n              dup6\n                /* \"#utility.yul\":2513:2533   */\n              lt\n                /* \"#utility.yul\":2510:2557   */\n              iszero\n              tag_51\n              jumpi\n              pop\n                /* \"#utility.yul\":2551:2555   */\n              dup1\n                /* \"#utility.yul\":2510:2557   */\n            tag_51:\n                /* \"#utility.yul\":2606:2608   */\n              0x1f\n                /* \"#utility.yul\":2601:2604   */\n              dup5\n                /* \"#utility.yul\":2597:2609   */\n              add\n                /* \"#utility.yul\":2594:2595   */\n              0x05\n                /* \"#utility.yul\":2590:2610   */\n              shr\n                /* \"#utility.yul\":2584:2588   */\n              dup3\n                /* \"#utility.yul\":2580:2611   */\n              add\n                /* \"#utility.yul\":2570:2611   */\n              swap2\n              pop\n                /* \"#utility.yul\":2661:2742   */\n            tag_52:\n                /* \"#utility.yul\":2679:2681   */\n              dup2\n                /* \"#utility.yul\":2672:2677   */\n              dup2\n                /* \"#utility.yul\":2669:2682   */\n              lt\n                /* \"#utility.yul\":2661:2742   */\n              iszero\n              tag_54\n              jumpi\n                /* \"#utility.yul\":2738:2739   */\n              0x00\n                /* \"#utility.yul\":2724:2740   */\n              dup2\n              sstore\n                /* \"#utility.yul\":2705:2706   */\n              0x01\n                /* \"#utility.yul\":2694:2707   */\n              add\n                /* \"#utility.yul\":2661:2742   */\n              jump(tag_52)\n            tag_54:\n                /* \"#utility.yul\":2665:2668   */\n              pop\n              pop\n                /* \"#utility.yul\":2331:2752   */\n            tag_50:\n                /* \"#utility.yul\":2240:2758   */\n              pop\n              pop\n              pop\n              jump\t// out\n                /* \"#utility.yul\":2934:4279   */\n            tag_9:\n                /* \"#utility.yul\":3054:3064   */\n              dup2\n              mload\n              sub(shl(0x40, 0x01), 0x01)\n                /* \"#utility.yul\":3076:3106   */\n              dup2\n              gt\n                /* \"#utility.yul\":3073:3129   */\n              iszero\n              tag_58\n              jumpi\n                /* \"#utility.yul\":3109:3127   */\n              tag_58\n              tag_20\n              jump\t// in\n            tag_58:\n                /* \"#utility.yul\":3138:3235   */\n              tag_59\n                /* \"#utility.yul\":3228:3234   */\n              dup2\n                /* \"#utility.yul\":3188:3226   */\n              tag_60\n                /* \"#utility.yul\":3220:3224   */\n              dup5\n                /* \"#utility.yul\":3214:3225   */\n              sload\n                /* \"#utility.yul\":3188:3226   */\n              tag_22\n              jump\t// in\n            tag_60:\n                /* \"#utility.yul\":3182:3186   */\n              dup5\n                /* \"#utility.yul\":3138:3235   */\n              tag_24\n              jump\t// in\n            tag_59:\n                /* \"#utility.yul\":3290:3294   */\n              0x20\n              dup1\n                /* \"#utility.yul\":3347:3349   */\n              0x1f\n                /* \"#utility.yul\":3336:3350   */\n              dup4\n              gt\n                /* \"#utility.yul\":3364:3365   */\n              0x01\n                /* \"#utility.yul\":3359:4022   */\n              dup2\n              eq\n              tag_62\n              jumpi\n                /* \"#utility.yul\":4066:4067   */\n              0x00\n                /* \"#utility.yul\":4083:4089   */\n              dup5\n                /* \"#utility.yul\":4080:4169   */\n              iszero\n              tag_63\n              jumpi\n              pop\n                /* \"#utility.yul\":4135:4154   */\n              dup6\n              dup4\n              add\n                /* \"#utility.yul\":4129:4155   */\n              mload\n                /* \"#utility.yul\":4080:4169   */\n            tag_63:\n              not(0x00)\n                /* \"#utility.yul\":2891:2892   */\n              0x03\n                /* \"#utility.yul\":2887:2898   */\n              dup7\n              swap1\n              shl\n                /* \"#utility.yul\":2883:2907   */\n              shr\n                /* \"#utility.yul\":2879:2908   */\n              not\n                /* \"#utility.yul\":2869:2909   */\n              and\n                /* \"#utility.yul\":2915:2916   */\n              0x01\n                /* \"#utility.yul\":2911:2922   */\n              dup6\n              swap1\n              shl\n                /* \"#utility.yul\":2866:2923   */\n              or\n                /* \"#utility.yul\":4182:4263   */\n              dup6\n              sstore\n                /* \"#utility.yul\":3329:4273   */\n              jump(tag_61)\n                /* \"#utility.yul\":3359:4022   */\n            tag_62:\n                /* \"#utility.yul\":2187:2188   */\n              0x00\n                /* \"#utility.yul\":2180:2194   */\n              dup6\n              dup2\n              mstore\n                /* \"#utility.yul\":2224:2228   */\n              0x20\n                /* \"#utility.yul\":2211:2229   */\n              dup2\n              keccak256\n              not(0x1f)\n                /* \"#utility.yul\":3395:3415   */\n              dup7\n              and\n              swap2\n                /* \"#utility.yul\":3513:3749   */\n            tag_66:\n                /* \"#utility.yul\":3527:3534   */\n              dup3\n                /* \"#utility.yul\":3524:3525   */\n              dup2\n                /* \"#utility.yul\":3521:3535   */\n              lt\n                /* \"#utility.yul\":3513:3749   */\n              iszero\n              tag_68\n              jumpi\n                /* \"#utility.yul\":3616:3635   */\n              dup9\n              dup7\n              add\n                /* \"#utility.yul\":3610:3636   */\n              mload\n                /* \"#utility.yul\":3595:3637   */\n              dup3\n              sstore\n                /* \"#utility.yul\":3708:3735   */\n              swap5\n              dup5\n              add\n              swap5\n                /* \"#utility.yul\":3676:3677   */\n              0x01\n                /* \"#utility.yul\":3664:3678   */\n              swap1\n              swap2\n              add\n              swap1\n                /* \"#utility.yul\":3543:3562   */\n              dup5\n              add\n                /* \"#utility.yul\":3513:3749   */\n              jump(tag_66)\n            tag_68:\n                /* \"#utility.yul\":3517:3520   */\n              pop\n                /* \"#utility.yul\":3777:3783   */\n              dup6\n                /* \"#utility.yul\":3768:3775   */\n              dup3\n                /* \"#utility.yul\":3765:3784   */\n              lt\n                /* \"#utility.yul\":3762:3963   */\n              iszero\n              tag_69\n              jumpi\n                /* \"#utility.yul\":3838:3857   */\n              dup8\n              dup6\n              add\n                /* \"#utility.yul\":3832:3858   */\n              mload\n              not(0x00)\n                /* \"#utility.yul\":3921:3922   */\n              0x03\n                /* \"#utility.yul\":3917:3931   */\n              dup9\n              swap1\n              shl\n                /* \"#utility.yul\":3933:3936   */\n              0xf8\n                /* \"#utility.yul\":3913:3937   */\n              and\n                /* \"#utility.yul\":3909:3946   */\n              shr\n                /* \"#utility.yul\":3905:3947   */\n              not\n                /* \"#utility.yul\":3890:3948   */\n              and\n                /* \"#utility.yul\":3875:3949   */\n              dup2\n              sstore\n                /* \"#utility.yul\":3762:3963   */\n            tag_69:\n              pop\n              pop\n                /* \"#utility.yul\":4009:4010   */\n              0x01\n                /* \"#utility.yul\":4000:4006   */\n              dup5\n                /* \"#utility.yul\":3997:3998   */\n              0x01\n                /* \"#utility.yul\":3993:4007   */\n              shl\n                /* \"#utility.yul\":3989:4011   */\n              add\n                /* \"#utility.yul\":3983:3987   */\n              dup6\n                /* \"#utility.yul\":3976:4012   */\n              sstore\n                /* \"#utility.yul\":3329:4273   */\n            tag_61:\n              pop\n              pop\n              pop\n              pop\n                /* \"#utility.yul\":2934:4279   */\n              pop\n              pop\n              jump\t// out\n                /* \"#utility.yul\":4284:4487   */\n            tag_26:\n                /* \"ProjectNFT.sol\":339:1680  contract ProjectNFT is ERC721, ERC721Enumerable, ERC721URIStorage, Ownable {... */\n              dataSize(sub_0)\n              dup1\n              dataOffset(sub_0)\n              0x00\n              codecopy\n              0x00\n              return\n            stop\n\n            sub_0: assembly {\n                    /* \"ProjectNFT.sol\":339:1680  contract ProjectNFT is ERC721, ERC721Enumerable, ERC721URIStorage, Ownable {... */\n                  mstore(0x40, 0x80)\n                  callvalue\n                  dup1\n                  iszero\n                  tag_1\n                  jumpi\n                  0x00\n                  dup1\n                  revert\n                tag_1:\n                  pop\n                  jumpi(tag_2, lt(calldatasize, 0x04))\n                  shr(0xe0, calldataload(0x00))\n                  dup1\n                  0x01ffc9a7\n                  eq\n                  tag_3\n                  jumpi\n                  dup1\n                  0x06fdde03\n                  eq\n                  tag_4\n                  jumpi\n                  dup1\n                  0x081812fc\n                  eq\n                  tag_5\n                  jumpi\n                  dup1\n                  0x095ea7b3\n                  eq\n                  tag_6\n                  jumpi\n                  dup1\n                  0x18160ddd\n                  eq\n                  tag_7\n                  jumpi\n                  dup1\n                  0x23b872dd\n                  eq\n                  tag_8\n                  jumpi\n                  dup1\n                  0x2f745c59\n                  eq\n                  tag_9\n                  jumpi\n                  dup1\n                  0x42842e0e\n                  eq\n                  tag_10\n                  jumpi\n                  dup1\n                  0x4f6ccce7\n                  eq\n                  tag_11\n                  jumpi\n                  dup1\n                  0x6352211e\n                  eq\n                  tag_12\n                  jumpi\n                  dup1\n                  0x70a08231\n                  eq\n                  tag_13\n                  jumpi\n                  dup1\n                  0x715018a6\n                  eq\n                  tag_14\n                  jumpi\n                  dup1\n                  0x8da5cb5b\n                  eq\n                  tag_15\n                  jumpi\n                  dup1\n                  0x95d89b41\n                  eq\n                  tag_16\n                  jumpi\n                  dup1\n                  0xa22cb465\n                  eq\n                  tag_17\n                  jumpi\n                  dup1\n                  0xb88d4fde\n                  eq\n                  tag_18\n                  jumpi\n                  dup1\n                  0xc87b56dd\n                  eq\n                  tag_19\n                  jumpi\n                  dup1\n                  0xd204c45e\n                  eq\n                  tag_20\n                  jumpi\n                  dup1\n                  0xe985e9c5\n                  eq\n                  tag_21\n                  jumpi\n                  dup1\n                  0xf2fde38b\n                  eq\n                  tag_22\n                  jumpi\n                tag_2:\n                  0x00\n                  dup1\n                  revert\n                    /* \"ProjectNFT.sol\":1441:1678  function supportsInterface(... */\n                tag_3:\n                  tag_23\n                  tag_24\n                  calldatasize\n                  0x04\n                  tag_25\n                  jump\t// in\n                tag_24:\n                  tag_26\n                  jump\t// in\n                tag_23:\n                  mload(0x40)\n                    /* \"#utility.yul\":565:579   */\n                  swap1\n                  iszero\n                    /* \"#utility.yul\":558:580   */\n                  iszero\n                    /* \"#utility.yul\":540:581   */\n                  dup2\n                  mstore\n                    /* \"#utility.yul\":528:530   */\n                  0x20\n                    /* \"#utility.yul\":513:531   */\n                  add\n                    /* \"ProjectNFT.sol\":1441:1678  function supportsInterface(... */\n                tag_27:\n                  mload(0x40)\n                  dup1\n                  swap2\n                  sub\n                  swap1\n                  return\n                    /* \"@openzeppelin/contracts/token/ERC721/ERC721.sol\":2365:2454  function name() public view virtual returns (string memory) {... */\n                tag_4:\n                  tag_29\n                  tag_30\n                  jump\t// in\n                tag_29:\n                  mload(0x40)\n                  tag_27\n                  swap2\n                  swap1\n                  tag_32\n                  jump\t// in\n                    /* \"@openzeppelin/contracts/token/ERC721/ERC721.sol\":3497:3651  function getApproved(uint256 tokenId) public view virtual returns (address) {... */\n                tag_5:\n                  tag_33\n                  tag_34\n                  calldatasize\n                  0x04\n                  tag_35\n                  jump\t// in\n                tag_34:\n                  tag_36\n                  jump\t// in\n                tag_33:\n                  mload(0x40)\n                  tag_27\n                  swap2\n                  swap1\n                  tag_38\n                  jump\t// in\n                    /* \"@openzeppelin/contracts/token/ERC721/ERC721.sol\":3323:3436  function approve(address to, uint256 tokenId) public virtual {... */\n                tag_6:\n                  tag_39\n                  tag_40\n                  calldatasize\n                  0x04\n                  tag_41\n                  jump\t// in\n                tag_40:\n                  tag_42\n                  jump\t// in\n                tag_39:\n                  stop\n                    /* \"@openzeppelin/contracts/token/ERC721/extensions/ERC721Enumerable.sol\":2062:2164  function totalSupply() public view virtual returns (uint256) {... */\n                tag_7:\n                    /* \"@openzeppelin/contracts/token/ERC721/extensions/ERC721Enumerable.sol\":2140:2150  _allTokens */\n                  0x08\n                    /* \"@openzeppelin/contracts/token/ERC721/extensions/ERC721Enumerable.sol\":2140:2157  _allTokens.length */\n                  sload\n                    /* \"@openzeppelin/contracts/token/ERC721/extensions/ERC721Enumerable.sol\":2062:2164  function totalSupply() public view virtual returns (uint256) {... */\n                tag_43:\n                  mload(0x40)\n                    /* \"#utility.yul\":2324:2349   */\n                  swap1\n                  dup2\n                  mstore\n                    /* \"#utility.yul\":2312:2314   */\n                  0x20\n                    /* \"#utility.yul\":2297:2315   */\n                  add\n                    /* \"@openzeppelin/contracts/token/ERC721/extensions/ERC721Enumerable.sol\":2062:2164  function totalSupply() public view virtual returns (uint256) {... */\n                  tag_27\n                    /* \"#utility.yul\":2178:2355   */\n                  jump\n                    /* \"@openzeppelin/contracts/token/ERC721/ERC721.sol\":4143:4721  function transferFrom(address from, address to, uint256 tokenId) public virtual {... */\n                tag_8:\n                  tag_39\n                  tag_48\n                  calldatasize\n                  0x04\n                  tag_49\n                  jump\t// in\n                tag_48:\n                  tag_50\n                  jump\t// in\n                    /* \"@openzeppelin/contracts/token/ERC721/extensions/ERC721Enumerable.sol\":1736:1991  function tokenOfOwnerByIndex(address owner, uint256 index) public view virtual returns (uint256) {... */\n                tag_9:\n                  tag_43\n                  tag_52\n                  calldatasize\n                  0x04\n                  tag_41\n                  jump\t// in\n                tag_52:\n                  tag_53\n                  jump\t// in\n                    /* \"@openzeppelin/contracts/token/ERC721/ERC721.sol\":4787:4919  function safeTransferFrom(address from, address to, uint256 tokenId) public {... */\n                tag_10:\n                  tag_39\n                  tag_56\n                  calldatasize\n                  0x04\n                  tag_49\n                  jump\t// in\n                tag_56:\n                  tag_57\n                  jump\t// in\n                    /* \"@openzeppelin/contracts/token/ERC721/extensions/ERC721Enumerable.sol\":2236:2462  function tokenByIndex(uint256 index) public view virtual returns (uint256) {... */\n                tag_11:\n                  tag_43\n                  tag_59\n                  calldatasize\n                  0x04\n                  tag_35\n                  jump\t// in\n                tag_59:\n                  tag_60\n                  jump\t// in\n                    /* \"@openzeppelin/contracts/token/ERC721/ERC721.sol\":2185:2303  function ownerOf(uint256 tokenId) public view virtual returns (address) {... */\n                tag_12:\n                  tag_33\n                  tag_63\n                  calldatasize\n                  0x04\n                  tag_35\n                  jump\t// in\n                tag_63:\n                  tag_64\n                  jump\t// in\n                    /* \"@openzeppelin/contracts/token/ERC721/ERC721.sol\":1920:2128  function balanceOf(address owner) public view virtual returns (uint256) {... */\n                tag_13:\n                  tag_43\n                  tag_67\n                  calldatasize\n                  0x04\n                  tag_68\n                  jump\t// in\n                tag_67:\n                  tag_69\n                  jump\t// in\n                    /* \"@openzeppelin/contracts/access/Ownable.sol\":2293:2394  function renounceOwnership() public virtual onlyOwner {... */\n                tag_14:\n                  tag_39\n                  tag_72\n                  jump\t// in\n                    /* \"@openzeppelin/contracts/access/Ownable.sol\":1638:1723  function owner() public view virtual returns (address) {... */\n                tag_15:\n                  tag_33\n                  tag_74\n                  jump\t// in\n                    /* \"@openzeppelin/contracts/token/ERC721/ERC721.sol\":2518:2611  function symbol() public view virtual returns (string memory) {... */\n                tag_16:\n                  tag_29\n                  tag_77\n                  jump\t// in\n                    /* \"@openzeppelin/contracts/token/ERC721/ERC721.sol\":3718:3862  function setApprovalForAll(address operator, bool approved) public virtual {... */\n                tag_17:\n                  tag_39\n                  tag_80\n                  calldatasize\n                  0x04\n                  tag_81\n                  jump\t// in\n                tag_80:\n                  tag_82\n                  jump\t// in\n                    /* \"@openzeppelin/contracts/token/ERC721/ERC721.sol\":4985:5193  function safeTransferFrom(address from, address to, uint256 tokenId, bytes memory data) public virtual {... */\n                tag_18:\n                  tag_39\n                  tag_84\n                  calldatasize\n                  0x04\n                  tag_85\n                  jump\t// in\n                tag_84:\n                  tag_86\n                  jump\t// in\n                    /* \"ProjectNFT.sol\":1268:1435  function tokenURI(... */\n                tag_19:\n                  tag_29\n                  tag_88\n                  calldatasize\n                  0x04\n                  tag_35\n                  jump\t// in\n                tag_88:\n                  tag_89\n                  jump\t// in\n                    /* \"ProjectNFT.sol\":612:795  function safeMint(address to, string memory uri) public onlyOwner {... */\n                tag_20:\n                  tag_39\n                  tag_92\n                  calldatasize\n                  0x04\n                  tag_93\n                  jump\t// in\n                tag_92:\n                  tag_94\n                  jump\t// in\n                    /* \"@openzeppelin/contracts/token/ERC721/ERC721.sol\":3928:4081  function isApprovedForAll(address owner, address operator) public view virtual returns (bool) {... */\n                tag_21:\n                  tag_23\n                  tag_96\n                  calldatasize\n                  0x04\n                  tag_97\n                  jump\t// in\n                tag_96:\n                  tag_98\n                  jump\t// in\n                    /* \"@openzeppelin/contracts/access/Ownable.sol\":2543:2758  function transferOwnership(address newOwner) public virtual onlyOwner {... */\n                tag_22:\n                  tag_39\n                  tag_101\n                  calldatasize\n                  0x04\n                  tag_68\n                  jump\t// in\n                tag_101:\n                  tag_102\n                  jump\t// in\n                    /* \"ProjectNFT.sol\":1441:1678  function supportsInterface(... */\n                tag_26:\n                    /* \"ProjectNFT.sol\":1608:1612  bool */\n                  0x00\n                    /* \"ProjectNFT.sol\":1635:1671  super.supportsInterface(interfaceId) */\n                  tag_104\n                    /* \"ProjectNFT.sol\":1659:1670  interfaceId */\n                  dup3\n                    /* \"ProjectNFT.sol\":1635:1658  super.supportsInterface */\n                  tag_105\n                    /* \"ProjectNFT.sol\":1635:1671  super.supportsInterface(interfaceId) */\n                  jump\t// in\n                tag_104:\n                    /* \"ProjectNFT.sol\":1628:1671  return super.supportsInterface(interfaceId) */\n                  swap3\n                    /* \"ProjectNFT.sol\":1441:1678  function supportsInterface(... */\n                  swap2\n                  pop\n                  pop\n                  jump\t// out\n                    /* \"@openzeppelin/contracts/token/ERC721/ERC721.sol\":2365:2454  function name() public view virtual returns (string memory) {... */\n                tag_30:\n                    /* \"@openzeppelin/contracts/token/ERC721/ERC721.sol\":2410:2423  string memory */\n                  0x60\n                    /* \"@openzeppelin/contracts/token/ERC721/ERC721.sol\":2442:2447  _name */\n                  0x00\n                    /* \"@openzeppelin/contracts/token/ERC721/ERC721.sol\":2435:2447  return _name */\n                  dup1\n                  sload\n                  tag_107\n                  swap1\n                  tag_108\n                  jump\t// in\n                tag_107:\n                  dup1\n                  0x1f\n                  add\n                  0x20\n                  dup1\n                  swap2\n                  div\n                  mul\n                  0x20\n                  add\n                  mload(0x40)\n                  swap1\n                  dup2\n                  add\n                  0x40\n                  mstore\n                  dup1\n                  swap3\n                  swap2\n                  swap1\n                  dup2\n                  dup2\n                  mstore\n                  0x20\n                  add\n                  dup3\n                  dup1\n                  sload\n                  tag_109\n                  swap1\n                  tag_108\n                  jump\t// in\n                tag_109:\n                  dup1\n                  iszero\n                  tag_110\n                  jumpi\n                  dup1\n                  0x1f\n                  lt\n                  tag_111\n                  jumpi\n                  0x0100\n                  dup1\n                  dup4\n                  sload\n                  div\n                  mul\n                  dup4\n                  mstore\n                  swap2\n                  0x20\n                  add\n                  swap2\n                  jump(tag_110)\n                tag_111:\n                  dup3\n                  add\n                  swap2\n                  swap1\n                  0x00\n                  mstore\n                  keccak256(0x00, 0x20)\n                  swap1\n                tag_112:\n                  dup2\n                  sload\n                  dup2\n                  mstore\n                  swap1\n                  0x01\n                  add\n                  swap1\n                  0x20\n                  add\n                  dup1\n                  dup4\n                  gt\n                  tag_112\n                  jumpi\n                  dup3\n                  swap1\n                  sub\n                  0x1f\n                  and\n                  dup3\n                  add\n                  swap2\n                tag_110:\n                  pop\n                  pop\n                  pop\n                  pop\n                  pop\n                  swap1\n                  pop\n                    /* \"@openzeppelin/contracts/token/ERC721/ERC721.sol\":2365:2454  function name() public view virtual returns (string memory) {... */\n                  swap1\n                  jump\t// out\n                    /* \"@openzeppelin/contracts/token/ERC721/ERC721.sol\":3497:3651  function getApproved(uint256 tokenId) public view virtual returns (address) {... */\n                tag_36:\n                    /* \"@openzeppelin/contracts/token/ERC721/ERC721.sol\":3564:3571  address */\n                  0x00\n                    /* \"@openzeppelin/contracts/token/ERC721/ERC721.sol\":3583:3605  _requireOwned(tokenId) */\n                  tag_114\n                    /* \"@openzeppelin/contracts/token/ERC721/ERC721.sol\":3597:3604  tokenId */\n                  dup3\n                    /* \"@openzeppelin/contracts/token/ERC721/ERC721.sol\":3583:3596  _requireOwned */\n                  tag_115\n                    /* \"@openzeppelin/contracts/token/ERC721/ERC721.sol\":3583:3605  _requireOwned(tokenId) */\n                  jump\t// in\n                tag_114:\n                  pop\n                    /* \"@openzeppelin/contracts/token/ERC721/ERC721.sol\":3623:3644  _getApproved(tokenId) */\n                  tag_104\n                    /* \"@openzeppelin/contracts/token/ERC721/ERC721.sol\":3636:3643  tokenId */\n                  dup3\n                    /* \"@openzeppelin/contracts/token/ERC721/ERC721.sol\":3623:3635  _getApproved */\n                  tag_117\n                    /* \"@openzeppelin/contracts/token/ERC721/ERC721.sol\":3623:3644  _getApproved(tokenId) */\n                  jump\t// in\n                    /* \"@openzeppelin/contracts/token/ERC721/ERC721.sol\":3323:3436  function approve(address to, uint256 tokenId) public virtual {... */\n                tag_42:\n                    /* \"@openzeppelin/contracts/token/ERC721/ERC721.sol\":3394:3429  _approve(to, tokenId, _msgSender()) */\n                  tag_119\n                    /* \"@openzeppelin/contracts/token/ERC721/ERC721.sol\":3403:3405  to */\n                  dup3\n                    /* \"@openzeppelin/contracts/token/ERC721/ERC721.sol\":3407:3414  tokenId */\n                  dup3\n                    /* \"@openzeppelin/contracts/utils/Context.sol\":735:745  msg.sender */\n                  caller\n                    /* \"@openzeppelin/contracts/token/ERC721/ERC721.sol\":3394:3402  _approve */\n                  tag_122\n                    /* \"@openzeppelin/contracts/token/ERC721/ERC721.sol\":3394:3429  _approve(to, tokenId, _msgSender()) */\n                  jump\t// in\n                tag_119:\n                    /* \"@openzeppelin/contracts/token/ERC721/ERC721.sol\":3323:3436  function approve(address to, uint256 tokenId) public virtual {... */\n                  pop\n                  pop\n                  jump\t// out\n                    /* \"@openzeppelin/contracts/token/ERC721/ERC721.sol\":4143:4721  function transferFrom(address from, address to, uint256 tokenId) public virtual {... */\n                tag_50:\n                  sub(shl(0xa0, 0x01), 0x01)\n                    /* \"@openzeppelin/contracts/token/ERC721/ERC721.sol\":4237:4253  to == address(0) */\n                  dup3\n                  and\n                    /* \"@openzeppelin/contracts/token/ERC721/ERC721.sol\":4233:4320  if (to == address(0)) {... */\n                  tag_125\n                  jumpi\n                    /* \"@openzeppelin/contracts/token/ERC721/ERC721.sol\":4306:4307  0 */\n                  0x00\n                    /* \"@openzeppelin/contracts/token/ERC721/ERC721.sol\":4276:4309  ERC721InvalidReceiver(address(0)) */\n                  mload(0x40)\n                  shl(0xe1, 0x32505749)\n                  dup2\n                  mstore\n                  0x04\n                  add\n                  tag_126\n                  swap2\n                  swap1\n                  tag_38\n                  jump\t// in\n                tag_126:\n                  mload(0x40)\n                  dup1\n                  swap2\n                  sub\n                  swap1\n                  revert\n                    /* \"@openzeppelin/contracts/token/ERC721/ERC721.sol\":4233:4320  if (to == address(0)) {... */\n                tag_125:\n                    /* \"@openzeppelin/contracts/token/ERC721/ERC721.sol\":4538:4559  address previousOwner */\n                  0x00\n                    /* \"@openzeppelin/contracts/token/ERC721/ERC721.sol\":4562:4596  _update(to, tokenId, _msgSender()) */\n                  tag_127\n                    /* \"@openzeppelin/contracts/token/ERC721/ERC721.sol\":4570:4572  to */\n                  dup4\n                    /* \"@openzeppelin/contracts/token/ERC721/ERC721.sol\":4574:4581  tokenId */\n                  dup4\n                    /* \"@openzeppelin/contracts/utils/Context.sol\":735:745  msg.sender */\n                  caller\n                    /* \"@openzeppelin/contracts/token/ERC721/ERC721.sol\":4562:4569  _update */\n                  tag_129\n                    /* \"@openzeppelin/contracts/token/ERC721/ERC721.sol\":4562:4596  _update(to, tokenId, _msgSender()) */\n                  jump\t// in\n                tag_127:\n                    /* \"@openzeppelin/contracts/token/ERC721/ERC721.sol\":4538:4596  address previousOwner = _update(to, tokenId, _msgSender()) */\n                  swap1\n                  pop\n                    /* \"@openzeppelin/contracts/token/ERC721/ERC721.sol\":4627:4631  from */\n                  dup4\n                  sub(shl(0xa0, 0x01), 0x01)\n                    /* \"@openzeppelin/contracts/token/ERC721/ERC721.sol\":4610:4631  previousOwner != from */\n                  and\n                    /* \"@openzeppelin/contracts/token/ERC721/ERC721.sol\":4610:4623  previousOwner */\n                  dup2\n                  sub(shl(0xa0, 0x01), 0x01)\n                    /* \"@openzeppelin/contracts/token/ERC721/ERC721.sol\":4610:4631  previousOwner != from */\n                  and\n                  eq\n                    /* \"@openzeppelin/contracts/token/ERC721/ERC721.sol\":4606:4715  if (previousOwner != from) {... */\n                  tag_130\n                  jumpi\n                    /* \"@openzeppelin/contracts/token/ERC721/ERC721.sol\":4654:4704  ERC721IncorrectOwner(from, tokenId, previousOwner) */\n                  mload(0x40)\n                  shl(0xe0, 0x64283d7b)\n                  dup2\n                  mstore\n                  sub(shl(0xa0, 0x01), 0x01)\n                    /* \"#utility.yul\":6112:6127   */\n                  dup1\n                  dup7\n                  and\n                    /* \"@openzeppelin/contracts/token/ERC721/ERC721.sol\":4654:4704  ERC721IncorrectOwner(from, tokenId, previousOwner) */\n                  0x04\n                  dup4\n                  add\n                    /* \"#utility.yul\":6094:6128   */\n                  mstore\n                    /* \"#utility.yul\":6144:6162   */\n                  0x24\n                  dup3\n                  add\n                    /* \"#utility.yul\":6137:6171   */\n                  dup5\n                  swap1\n                  mstore\n                    /* \"#utility.yul\":6207:6222   */\n                  dup3\n                  and\n                    /* \"#utility.yul\":6187:6205   */\n                  0x44\n                  dup3\n                  add\n                    /* \"#utility.yul\":6180:6223   */\n                  mstore\n                    /* \"#utility.yul\":6029:6047   */\n                  0x64\n                  add\n                    /* \"@openzeppelin/contracts/token/ERC721/ERC721.sol\":4654:4704  ERC721IncorrectOwner(from, tokenId, previousOwner) */\n                  tag_126\n                    /* \"#utility.yul\":5854:6229   */\n                  jump\n                    /* \"@openzeppelin/contracts/token/ERC721/ERC721.sol\":4606:4715  if (previousOwner != from) {... */\n                tag_130:\n                    /* \"@openzeppelin/contracts/token/ERC721/ERC721.sol\":4223:4721  {... */\n                  pop\n                    /* \"@openzeppelin/contracts/token/ERC721/ERC721.sol\":4143:4721  function transferFrom(address from, address to, uint256 tokenId) public virtual {... */\n                  pop\n                  pop\n                  pop\n                  jump\t// out\n                    /* \"@openzeppelin/contracts/token/ERC721/extensions/ERC721Enumerable.sol\":1736:1991  function tokenOfOwnerByIndex(address owner, uint256 index) public view virtual returns (uint256) {... */\n                tag_53:\n                    /* \"@openzeppelin/contracts/token/ERC721/extensions/ERC721Enumerable.sol\":1824:1831  uint256 */\n                  0x00\n                    /* \"@openzeppelin/contracts/token/ERC721/extensions/ERC721Enumerable.sol\":1856:1872  balanceOf(owner) */\n                  tag_134\n                    /* \"@openzeppelin/contracts/token/ERC721/extensions/ERC721Enumerable.sol\":1866:1871  owner */\n                  dup4\n                    /* \"@openzeppelin/contracts/token/ERC721/extensions/ERC721Enumerable.sol\":1856:1865  balanceOf */\n                  tag_69\n                    /* \"@openzeppelin/contracts/token/ERC721/extensions/ERC721Enumerable.sol\":1856:1872  balanceOf(owner) */\n                  jump\t// in\n                tag_134:\n                    /* \"@openzeppelin/contracts/token/ERC721/extensions/ERC721Enumerable.sol\":1847:1852  index */\n                  dup3\n                    /* \"@openzeppelin/contracts/token/ERC721/extensions/ERC721Enumerable.sol\":1847:1872  index >= balanceOf(owner) */\n                  lt\n                    /* \"@openzeppelin/contracts/token/ERC721/extensions/ERC721Enumerable.sol\":1843:1942  if (index >= balanceOf(owner)) {... */\n                  tag_135\n                  jumpi\n                    /* \"@openzeppelin/contracts/token/ERC721/extensions/ERC721Enumerable.sol\":1918:1923  owner */\n                  dup3\n                    /* \"@openzeppelin/contracts/token/ERC721/extensions/ERC721Enumerable.sol\":1925:1930  index */\n                  dup3\n                    /* \"@openzeppelin/contracts/token/ERC721/extensions/ERC721Enumerable.sol\":1895:1931  ERC721OutOfBoundsIndex(owner, index) */\n                  mload(0x40)\n                  shl(0xe2, 0x295f44f7)\n                  dup2\n                  mstore\n                  0x04\n                  add\n                  tag_126\n                  swap3\n                  swap2\n                  swap1\n                  tag_137\n                  jump\t// in\n                    /* \"@openzeppelin/contracts/token/ERC721/extensions/ERC721Enumerable.sol\":1843:1942  if (index >= balanceOf(owner)) {... */\n                tag_135:\n                  pop\n                  sub(shl(0xa0, 0x01), 0x01)\n                    /* \"@openzeppelin/contracts/token/ERC721/extensions/ERC721Enumerable.sol\":1958:1977  _ownedTokens[owner] */\n                  swap2\n                  swap1\n                  swap2\n                  and\n                  0x00\n                  swap1\n                  dup2\n                  mstore\n                    /* \"@openzeppelin/contracts/token/ERC721/extensions/ERC721Enumerable.sol\":1958:1970  _ownedTokens */\n                  0x06\n                    /* \"@openzeppelin/contracts/token/ERC721/extensions/ERC721Enumerable.sol\":1958:1977  _ownedTokens[owner] */\n                  0x20\n                  swap1\n                  dup2\n                  mstore\n                  0x40\n                  dup1\n                  dup4\n                  keccak256\n                    /* \"@openzeppelin/contracts/token/ERC721/extensions/ERC721Enumerable.sol\":1958:1984  _ownedTokens[owner][index] */\n                  swap4\n                  dup4\n                  mstore\n                  swap3\n                  swap1\n                  mstore\n                  keccak256\n                  sload\n                  swap1\n                    /* \"@openzeppelin/contracts/token/ERC721/extensions/ERC721Enumerable.sol\":1736:1991  function tokenOfOwnerByIndex(address owner, uint256 index) public view virtual returns (uint256) {... */\n                  jump\t// out\n                    /* \"@openzeppelin/contracts/token/ERC721/ERC721.sol\":4787:4919  function safeTransferFrom(address from, address to, uint256 tokenId) public {... */\n                tag_57:\n                    /* \"@openzeppelin/contracts/token/ERC721/ERC721.sol\":4873:4912  safeTransferFrom(from, to, tokenId, \"\") */\n                  tag_139\n                    /* \"@openzeppelin/contracts/token/ERC721/ERC721.sol\":4890:4894  from */\n                  dup4\n                    /* \"@openzeppelin/contracts/token/ERC721/ERC721.sol\":4896:4898  to */\n                  dup4\n                    /* \"@openzeppelin/contracts/token/ERC721/ERC721.sol\":4900:4907  tokenId */\n                  dup4\n                    /* \"@openzeppelin/contracts/token/ERC721/ERC721.sol\":4873:4912  safeTransferFrom(from, to, tokenId, \"\") */\n                  mload(0x40)\n                  dup1\n                  0x20\n                  add\n                  0x40\n                  mstore\n                  dup1\n                  0x00\n                  dup2\n                  mstore\n                  pop\n                    /* \"@openzeppelin/contracts/token/ERC721/ERC721.sol\":4873:4889  safeTransferFrom */\n                  tag_86\n                    /* \"@openzeppelin/contracts/token/ERC721/ERC721.sol\":4873:4912  safeTransferFrom(from, to, tokenId, \"\") */\n                  jump\t// in\n                tag_139:\n                    /* \"@openzeppelin/contracts/token/ERC721/ERC721.sol\":4787:4919  function safeTransferFrom(address from, address to, uint256 tokenId) public {... */\n                  pop\n                  pop\n                  pop\n                  jump\t// out\n                    /* \"@openzeppelin/contracts/token/ERC721/extensions/ERC721Enumerable.sol\":2236:2462  function tokenByIndex(uint256 index) public view virtual returns (uint256) {... */\n                tag_60:\n                    /* \"@openzeppelin/contracts/token/ERC721/extensions/ERC721Enumerable.sol\":2302:2309  uint256 */\n                  0x00\n                    /* \"@openzeppelin/contracts/token/ERC721/extensions/ERC721Enumerable.sol\":2334:2347  totalSupply() */\n                  tag_141\n                    /* \"@openzeppelin/contracts/token/ERC721/extensions/ERC721Enumerable.sol\":2140:2150  _allTokens */\n                  0x08\n                    /* \"@openzeppelin/contracts/token/ERC721/extensions/ERC721Enumerable.sol\":2140:2157  _allTokens.length */\n                  sload\n                  swap1\n                    /* \"@openzeppelin/contracts/token/ERC721/extensions/ERC721Enumerable.sol\":2062:2164  function totalSupply() public view virtual returns (uint256) {... */\n                  jump\n                    /* \"@openzeppelin/contracts/token/ERC721/extensions/ERC721Enumerable.sol\":2334:2347  totalSupply() */\n                tag_141:\n                    /* \"@openzeppelin/contracts/token/ERC721/extensions/ERC721Enumerable.sol\":2325:2330  index */\n                  dup3\n                    /* \"@openzeppelin/contracts/token/ERC721/extensions/ERC721Enumerable.sol\":2325:2347  index >= totalSupply() */\n                  lt\n                    /* \"@openzeppelin/contracts/token/ERC721/extensions/ERC721Enumerable.sol\":2321:2422  if (index >= totalSupply()) {... */\n                  tag_142\n                  jumpi\n                    /* \"@openzeppelin/contracts/token/ERC721/extensions/ERC721Enumerable.sol\":2401:2402  0 */\n                  0x00\n                    /* \"@openzeppelin/contracts/token/ERC721/extensions/ERC721Enumerable.sol\":2405:2410  index */\n                  dup3\n                    /* \"@openzeppelin/contracts/token/ERC721/extensions/ERC721Enumerable.sol\":2370:2411  ERC721OutOfBoundsIndex(address(0), index) */\n                  mload(0x40)\n                  shl(0xe2, 0x295f44f7)\n                  dup2\n                  mstore\n                  0x04\n                  add\n                  tag_126\n                  swap3\n                  swap2\n                  swap1\n                  tag_137\n                  jump\t// in\n                    /* \"@openzeppelin/contracts/token/ERC721/extensions/ERC721Enumerable.sol\":2321:2422  if (index >= totalSupply()) {... */\n                tag_142:\n                    /* \"@openzeppelin/contracts/token/ERC721/extensions/ERC721Enumerable.sol\":2438:2448  _allTokens */\n                  0x08\n                    /* \"@openzeppelin/contracts/token/ERC721/extensions/ERC721Enumerable.sol\":2449:2454  index */\n                  dup3\n                    /* \"@openzeppelin/contracts/token/ERC721/extensions/ERC721Enumerable.sol\":2438:2455  _allTokens[index] */\n                  dup2\n                  sload\n                  dup2\n                  lt\n                  tag_145\n                  jumpi\n                  tag_145\n                  tag_146\n                  jump\t// in\n                tag_145:\n                  swap1\n                  0x00\n                  mstore\n                  keccak256(0x00, 0x20)\n                  add\n                  sload\n                    /* \"@openzeppelin/contracts/token/ERC721/extensions/ERC721Enumerable.sol\":2431:2455  return _allTokens[index] */\n                  swap1\n                  pop\n                    /* \"@openzeppelin/contracts/token/ERC721/extensions/ERC721Enumerable.sol\":2236:2462  function tokenByIndex(uint256 index) public view virtual returns (uint256) {... */\n                  swap2\n                  swap1\n                  pop\n                  jump\t// out\n                    /* \"@openzeppelin/contracts/token/ERC721/ERC721.sol\":2185:2303  function ownerOf(uint256 tokenId) public view virtual returns (address) {... */\n                tag_64:\n                    /* \"@openzeppelin/contracts/token/ERC721/ERC721.sol\":2248:2255  address */\n                  0x00\n                    /* \"@openzeppelin/contracts/token/ERC721/ERC721.sol\":2274:2296  _requireOwned(tokenId) */\n                  tag_104\n                    /* \"@openzeppelin/contracts/token/ERC721/ERC721.sol\":2288:2295  tokenId */\n                  dup3\n                    /* \"@openzeppelin/contracts/token/ERC721/ERC721.sol\":2274:2287  _requireOwned */\n                  tag_115\n                    /* \"@openzeppelin/contracts/token/ERC721/ERC721.sol\":2274:2296  _requireOwned(tokenId) */\n                  jump\t// in\n                    /* \"@openzeppelin/contracts/token/ERC721/ERC721.sol\":1920:2128  function balanceOf(address owner) public view virtual returns (uint256) {... */\n                tag_69:\n                    /* \"@openzeppelin/contracts/token/ERC721/ERC721.sol\":1983:1990  uint256 */\n                  0x00\n                  sub(shl(0xa0, 0x01), 0x01)\n                    /* \"@openzeppelin/contracts/token/ERC721/ERC721.sol\":2006:2025  owner == address(0) */\n                  dup3\n                  and\n                    /* \"@openzeppelin/contracts/token/ERC721/ERC721.sol\":2002:2089  if (owner == address(0)) {... */\n                  tag_151\n                  jumpi\n                    /* \"@openzeppelin/contracts/token/ERC721/ERC721.sol\":2075:2076  0 */\n                  0x00\n                    /* \"@openzeppelin/contracts/token/ERC721/ERC721.sol\":2048:2078  ERC721InvalidOwner(address(0)) */\n                  mload(0x40)\n                  shl(0xe2, 0x22718ad9)\n                  dup2\n                  mstore\n                  0x04\n                  add\n                  tag_126\n                  swap2\n                  swap1\n                  tag_38\n                  jump\t// in\n                    /* \"@openzeppelin/contracts/token/ERC721/ERC721.sol\":2002:2089  if (owner == address(0)) {... */\n                tag_151:\n                  pop\n                  sub(shl(0xa0, 0x01), 0x01)\n                    /* \"@openzeppelin/contracts/token/ERC721/ERC721.sol\":2105:2121  _balances[owner] */\n                  and\n                  0x00\n                  swap1\n                  dup2\n                  mstore\n                    /* \"@openzeppelin/contracts/token/ERC721/ERC721.sol\":2105:2114  _balances */\n                  0x03\n                    /* \"@openzeppelin/contracts/token/ERC721/ERC721.sol\":2105:2121  _balances[owner] */\n                  0x20\n                  mstore\n                  0x40\n                  swap1\n                  keccak256\n                  sload\n                  swap1\n                    /* \"@openzeppelin/contracts/token/ERC721/ERC721.sol\":1920:2128  function balanceOf(address owner) public view virtual returns (uint256) {... */\n                  jump\t// out\n                    /* \"@openzeppelin/contracts/access/Ownable.sol\":2293:2394  function renounceOwnership() public virtual onlyOwner {... */\n                tag_72:\n                    /* \"@openzeppelin/contracts/access/Ownable.sol\":1531:1544  _checkOwner() */\n                  tag_154\n                    /* \"@openzeppelin/contracts/access/Ownable.sol\":1531:1542  _checkOwner */\n                  tag_155\n                    /* \"@openzeppelin/contracts/access/Ownable.sol\":1531:1544  _checkOwner() */\n                  jump\t// in\n                tag_154:\n                    /* \"@openzeppelin/contracts/access/Ownable.sol\":2357:2387  _transferOwnership(address(0)) */\n                  tag_157\n                    /* \"@openzeppelin/contracts/access/Ownable.sol\":2384:2385  0 */\n                  0x00\n                    /* \"@openzeppelin/contracts/access/Ownable.sol\":2357:2375  _transferOwnership */\n                  tag_158\n                    /* \"@openzeppelin/contracts/access/Ownable.sol\":2357:2387  _transferOwnership(address(0)) */\n                  jump\t// in\n                tag_157:\n                    /* \"@openzeppelin/contracts/access/Ownable.sol\":2293:2394  function renounceOwnership() public virtual onlyOwner {... */\n                  jump\t// out\n                    /* \"@openzeppelin/contracts/access/Ownable.sol\":1638:1723  function owner() public view virtual returns (address) {... */\n                tag_74:\n                    /* \"@openzeppelin/contracts/access/Ownable.sol\":1710:1716  _owner */\n                  and(sub(shl(0xa0, 0x01), 0x01), sload(0x0b))\n                  swap1\n                    /* \"@openzeppelin/contracts/access/Ownable.sol\":1638:1723  function owner() public view virtual returns (address) {... */\n                  jump\t// out\n                    /* \"@openzeppelin/contracts/token/ERC721/ERC721.sol\":2518:2611  function symbol() public view virtual returns (string memory) {... */\n                tag_77:\n                    /* \"@openzeppelin/contracts/token/ERC721/ERC721.sol\":2565:2578  string memory */\n                  0x60\n                    /* \"@openzeppelin/contracts/token/ERC721/ERC721.sol\":2597:2604  _symbol */\n                  0x01\n                    /* \"@openzeppelin/contracts/token/ERC721/ERC721.sol\":2590:2604  return _symbol */\n                  dup1\n                  sload\n                  tag_107\n                  swap1\n                  tag_108\n                  jump\t// in\n                    /* \"@openzeppelin/contracts/token/ERC721/ERC721.sol\":3718:3862  function setApprovalForAll(address operator, bool approved) public virtual {... */\n                tag_82:\n                    /* \"@openzeppelin/contracts/token/ERC721/ERC721.sol\":3803:3855  _setApprovalForAll(_msgSender(), operator, approved) */\n                  tag_119\n                    /* \"@openzeppelin/contracts/utils/Context.sol\":735:745  msg.sender */\n                  caller\n                    /* \"@openzeppelin/contracts/token/ERC721/ERC721.sol\":3836:3844  operator */\n                  dup4\n                    /* \"@openzeppelin/contracts/token/ERC721/ERC721.sol\":3846:3854  approved */\n                  dup4\n                    /* \"@openzeppelin/contracts/token/ERC721/ERC721.sol\":3803:3821  _setApprovalForAll */\n                  tag_169\n                    /* \"@openzeppelin/contracts/token/ERC721/ERC721.sol\":3803:3855  _setApprovalForAll(_msgSender(), operator, approved) */\n                  jump\t// in\n                    /* \"@openzeppelin/contracts/token/ERC721/ERC721.sol\":4985:5193  function safeTransferFrom(address from, address to, uint256 tokenId, bytes memory data) public virtual {... */\n                tag_86:\n                    /* \"@openzeppelin/contracts/token/ERC721/ERC721.sol\":5098:5129  transferFrom(from, to, tokenId) */\n                  tag_171\n                    /* \"@openzeppelin/contracts/token/ERC721/ERC721.sol\":5111:5115  from */\n                  dup5\n                    /* \"@openzeppelin/contracts/token/ERC721/ERC721.sol\":5117:5119  to */\n                  dup5\n                    /* \"@openzeppelin/contracts/token/ERC721/ERC721.sol\":5121:5128  tokenId */\n                  dup5\n                    /* \"@openzeppelin/contracts/token/ERC721/ERC721.sol\":5098:5110  transferFrom */\n                  tag_50\n                    /* \"@openzeppelin/contracts/token/ERC721/ERC721.sol\":5098:5129  transferFrom(from, to, tokenId) */\n                  jump\t// in\n                tag_171:\n                    /* \"@openzeppelin/contracts/token/ERC721/ERC721.sol\":5139:5186  _checkOnERC721Received(from, to, tokenId, data) */\n                  tag_130\n                    /* \"@openzeppelin/contracts/token/ERC721/ERC721.sol\":5162:5166  from */\n                  dup5\n                    /* \"@openzeppelin/contracts/token/ERC721/ERC721.sol\":5168:5170  to */\n                  dup5\n                    /* \"@openzeppelin/contracts/token/ERC721/ERC721.sol\":5172:5179  tokenId */\n                  dup5\n                    /* \"@openzeppelin/contracts/token/ERC721/ERC721.sol\":5181:5185  data */\n                  dup5\n                    /* \"@openzeppelin/contracts/token/ERC721/ERC721.sol\":5139:5161  _checkOnERC721Received */\n                  tag_173\n                    /* \"@openzeppelin/contracts/token/ERC721/ERC721.sol\":5139:5186  _checkOnERC721Received(from, to, tokenId, data) */\n                  jump\t// in\n                    /* \"ProjectNFT.sol\":1268:1435  function tokenURI(... */\n                tag_89:\n                    /* \"ProjectNFT.sol\":1373:1386  string memory */\n                  0x60\n                    /* \"ProjectNFT.sol\":1405:1428  super.tokenURI(tokenId) */\n                  tag_104\n                    /* \"ProjectNFT.sol\":1420:1427  tokenId */\n                  dup3\n                    /* \"ProjectNFT.sol\":1405:1419  super.tokenURI */\n                  tag_176\n                    /* \"ProjectNFT.sol\":1405:1428  super.tokenURI(tokenId) */\n                  jump\t// in\n                    /* \"ProjectNFT.sol\":612:795  function safeMint(address to, string memory uri) public onlyOwner {... */\n                tag_94:\n                    /* \"@openzeppelin/contracts/access/Ownable.sol\":1531:1544  _checkOwner() */\n                  tag_178\n                    /* \"@openzeppelin/contracts/access/Ownable.sol\":1531:1542  _checkOwner */\n                  tag_155\n                    /* \"@openzeppelin/contracts/access/Ownable.sol\":1531:1544  _checkOwner() */\n                  jump\t// in\n                tag_178:\n                    /* \"ProjectNFT.sol\":706:718  _nextTokenId */\n                  0x0c\n                    /* \"ProjectNFT.sol\":706:720  _nextTokenId++ */\n                  dup1\n                  sload\n                    /* \"ProjectNFT.sol\":688:703  uint256 tokenId */\n                  0x00\n                  swap2\n                  dup3\n                    /* \"ProjectNFT.sol\":706:720  _nextTokenId++ */\n                  tag_180\n                  dup4\n                  tag_181\n                  jump\t// in\n                tag_180:\n                  swap2\n                  swap1\n                  pop\n                  sstore\n                    /* \"ProjectNFT.sol\":688:720  uint256 tokenId = _nextTokenId++ */\n                  swap1\n                  pop\n                    /* \"ProjectNFT.sol\":730:752  _safeMint(to, tokenId) */\n                  tag_182\n                    /* \"ProjectNFT.sol\":740:742  to */\n                  dup4\n                    /* \"ProjectNFT.sol\":744:751  tokenId */\n                  dup3\n                    /* \"ProjectNFT.sol\":730:739  _safeMint */\n                  tag_183\n                    /* \"ProjectNFT.sol\":730:752  _safeMint(to, tokenId) */\n                  jump\t// in\n                tag_182:\n                    /* \"ProjectNFT.sol\":762:788  _setTokenURI(tokenId, uri) */\n                  tag_139\n                    /* \"ProjectNFT.sol\":775:782  tokenId */\n                  dup2\n                    /* \"ProjectNFT.sol\":784:787  uri */\n                  dup4\n                    /* \"ProjectNFT.sol\":762:774  _setTokenURI */\n                  tag_185\n                    /* \"ProjectNFT.sol\":762:788  _setTokenURI(tokenId, uri) */\n                  jump\t// in\n                    /* \"@openzeppelin/contracts/token/ERC721/ERC721.sol\":3928:4081  function isApprovedForAll(address owner, address operator) public view virtual returns (bool) {... */\n                tag_98:\n                  sub(shl(0xa0, 0x01), 0x01)\n                    /* \"@openzeppelin/contracts/token/ERC721/ERC721.sol\":4039:4064  _operatorApprovals[owner] */\n                  swap2\n                  dup3\n                  and\n                    /* \"@openzeppelin/contracts/token/ERC721/ERC721.sol\":4016:4020  bool */\n                  0x00\n                    /* \"@openzeppelin/contracts/token/ERC721/ERC721.sol\":4039:4064  _operatorApprovals[owner] */\n                  swap1\n                  dup2\n                  mstore\n                    /* \"@openzeppelin/contracts/token/ERC721/ERC721.sol\":4039:4057  _operatorApprovals */\n                  0x05\n                    /* \"@openzeppelin/contracts/token/ERC721/ERC721.sol\":4039:4064  _operatorApprovals[owner] */\n                  0x20\n                  swap1\n                  dup2\n                  mstore\n                  0x40\n                  dup1\n                  dup4\n                  keccak256\n                    /* \"@openzeppelin/contracts/token/ERC721/ERC721.sol\":4039:4074  _operatorApprovals[owner][operator] */\n                  swap4\n                  swap1\n                  swap5\n                  and\n                  dup3\n                  mstore\n                  swap2\n                  swap1\n                  swap2\n                  mstore\n                  keccak256\n                  sload\n                  0xff\n                  and\n                  swap1\n                    /* \"@openzeppelin/contracts/token/ERC721/ERC721.sol\":3928:4081  function isApprovedForAll(address owner, address operator) public view virtual returns (bool) {... */\n                  jump\t// out\n                    /* \"@openzeppelin/contracts/access/Ownable.sol\":2543:2758  function transferOwnership(address newOwner) public virtual onlyOwner {... */\n                tag_102:\n                    /* \"@openzeppelin/contracts/access/Ownable.sol\":1531:1544  _checkOwner() */\n                  tag_188\n                    /* \"@openzeppelin/contracts/access/Ownable.sol\":1531:1542  _checkOwner */\n                  tag_155\n                    /* \"@openzeppelin/contracts/access/Ownable.sol\":1531:1544  _checkOwner() */\n                  jump\t// in\n                tag_188:\n                  sub(shl(0xa0, 0x01), 0x01)\n                    /* \"@openzeppelin/contracts/access/Ownable.sol\":2627:2649  newOwner == address(0) */\n                  dup2\n                  and\n                    /* \"@openzeppelin/contracts/access/Ownable.sol\":2623:2714  if (newOwner == address(0)) {... */\n                  tag_190\n                  jumpi\n                    /* \"@openzeppelin/contracts/access/Ownable.sol\":2700:2701  0 */\n                  0x00\n                    /* \"@openzeppelin/contracts/access/Ownable.sol\":2672:2703  OwnableInvalidOwner(address(0)) */\n                  mload(0x40)\n                  shl(0xe0, 0x1e4fbdf7)\n                  dup2\n                  mstore\n                  0x04\n                  add\n                  tag_126\n                  swap2\n                  swap1\n                  tag_38\n                  jump\t// in\n                    /* \"@openzeppelin/contracts/access/Ownable.sol\":2623:2714  if (newOwner == address(0)) {... */\n                tag_190:\n                    /* \"@openzeppelin/contracts/access/Ownable.sol\":2723:2751  _transferOwnership(newOwner) */\n                  tag_192\n                    /* \"@openzeppelin/contracts/access/Ownable.sol\":2742:2750  newOwner */\n                  dup2\n                    /* \"@openzeppelin/contracts/access/Ownable.sol\":2723:2741  _transferOwnership */\n                  tag_158\n                    /* \"@openzeppelin/contracts/access/Ownable.sol\":2723:2751  _transferOwnership(newOwner) */\n                  jump\t// in\n                tag_192:\n                    /* \"@openzeppelin/contracts/access/Ownable.sol\":2543:2758  function transferOwnership(address newOwner) public virtual onlyOwner {... */\n                  pop\n                  jump\t// out\n                    /* \"@openzeppelin/contracts/token/ERC721/extensions/ERC721URIStorage.sol\":937:1144  function supportsInterface(bytes4 interfaceId) public view virtual override(ERC721, IERC165) returns (bool) {... */\n                tag_105:\n                    /* \"@openzeppelin/contracts/token/ERC721/extensions/ERC721URIStorage.sol\":1039:1043  bool */\n                  0x00\n                  not(sub(shl(0xe0, 0x01), 0x01))\n                    /* \"@openzeppelin/contracts/token/ERC721/extensions/ERC721URIStorage.sol\":1062:1097  interfaceId == ERC4906_INTERFACE_ID */\n                  dup3\n                  and\n                  shl(0xe1, 0x24832483)\n                  eq\n                  dup1\n                    /* \"@openzeppelin/contracts/token/ERC721/extensions/ERC721URIStorage.sol\":1062:1137  interfaceId == ERC4906_INTERFACE_ID || super.supportsInterface(interfaceId) */\n                  tag_104\n                  jumpi\n                  pop\n                    /* \"@openzeppelin/contracts/token/ERC721/extensions/ERC721URIStorage.sol\":1101:1137  super.supportsInterface(interfaceId) */\n                  tag_104\n                    /* \"@openzeppelin/contracts/token/ERC721/extensions/ERC721URIStorage.sol\":1125:1136  interfaceId */\n                  dup3\n                    /* \"@openzeppelin/contracts/token/ERC721/extensions/ERC721URIStorage.sol\":1101:1124  super.supportsInterface */\n                  tag_196\n                    /* \"@openzeppelin/contracts/token/ERC721/extensions/ERC721URIStorage.sol\":1101:1137  super.supportsInterface(interfaceId) */\n                  jump\t// in\n                    /* \"@openzeppelin/contracts/token/ERC721/ERC721.sol\":16138:16379  function _requireOwned(uint256 tokenId) internal view returns (address) {... */\n                tag_115:\n                    /* \"@openzeppelin/contracts/token/ERC721/ERC721.sol\":16201:16208  address */\n                  0x00\n                    /* \"@openzeppelin/contracts/token/ERC721/ERC721.sol\":16220:16233  address owner */\n                  dup1\n                    /* \"@openzeppelin/contracts/token/ERC721/ERC721.sol\":16236:16253  _ownerOf(tokenId) */\n                  tag_198\n                    /* \"@openzeppelin/contracts/token/ERC721/ERC721.sol\":16245:16252  tokenId */\n                  dup4\n                    /* \"@openzeppelin/contracts/token/ERC721/ERC721.sol\":16236:16244  _ownerOf */\n                  tag_199\n                    /* \"@openzeppelin/contracts/token/ERC721/ERC721.sol\":16236:16253  _ownerOf(tokenId) */\n                  jump\t// in\n                tag_198:\n                    /* \"@openzeppelin/contracts/token/ERC721/ERC721.sol\":16220:16253  address owner = _ownerOf(tokenId) */\n                  swap1\n                  pop\n                  sub(shl(0xa0, 0x01), 0x01)\n                    /* \"@openzeppelin/contracts/token/ERC721/ERC721.sol\":16267:16286  owner == address(0) */\n                  dup2\n                  and\n                    /* \"@openzeppelin/contracts/token/ERC721/ERC721.sol\":16263:16351  if (owner == address(0)) {... */\n                  tag_104\n                  jumpi\n                    /* \"@openzeppelin/contracts/token/ERC721/ERC721.sol\":16309:16340  ERC721NonexistentToken(tokenId) */\n                  mload(0x40)\n                  shl(0xe0, 0x7e273289)\n                  dup2\n                  mstore\n                  0x04\n                  dup2\n                  add\n                    /* \"#utility.yul\":2324:2349   */\n                  dup5\n                  swap1\n                  mstore\n                    /* \"#utility.yul\":2297:2315   */\n                  0x24\n                  add\n                    /* \"@openzeppelin/contracts/token/ERC721/ERC721.sol\":16309:16340  ERC721NonexistentToken(tokenId) */\n                  tag_126\n                    /* \"#utility.yul\":2178:2355   */\n                  jump\n                    /* \"@openzeppelin/contracts/token/ERC721/ERC721.sol\":5938:6065  function _getApproved(uint256 tokenId) internal view virtual returns (address) {... */\n                tag_117:\n                    /* \"@openzeppelin/contracts/token/ERC721/ERC721.sol\":6008:6015  address */\n                  0x00\n                    /* \"@openzeppelin/contracts/token/ERC721/ERC721.sol\":6034:6058  _tokenApprovals[tokenId] */\n                  swap1\n                  dup2\n                  mstore\n                    /* \"@openzeppelin/contracts/token/ERC721/ERC721.sol\":6034:6049  _tokenApprovals */\n                  0x04\n                    /* \"@openzeppelin/contracts/token/ERC721/ERC721.sol\":6034:6058  _tokenApprovals[tokenId] */\n                  0x20\n                  mstore\n                  0x40\n                  swap1\n                  keccak256\n                  sload\n                  sub(shl(0xa0, 0x01), 0x01)\n                  and\n                  swap1\n                    /* \"@openzeppelin/contracts/token/ERC721/ERC721.sol\":5938:6065  function _getApproved(uint256 tokenId) internal view virtual returns (address) {... */\n                  jump\t// out\n                    /* \"@openzeppelin/contracts/token/ERC721/ERC721.sol\":14418:14538  function _approve(address to, uint256 tokenId, address auth) internal {... */\n                tag_122:\n                    /* \"@openzeppelin/contracts/token/ERC721/ERC721.sol\":14498:14531  _approve(to, tokenId, auth, true) */\n                  tag_139\n                    /* \"@openzeppelin/contracts/token/ERC721/ERC721.sol\":14507:14509  to */\n                  dup4\n                    /* \"@openzeppelin/contracts/token/ERC721/ERC721.sol\":14511:14518  tokenId */\n                  dup4\n                    /* \"@openzeppelin/contracts/token/ERC721/ERC721.sol\":14520:14524  auth */\n                  dup4\n                    /* \"@openzeppelin/contracts/token/ERC721/ERC721.sol\":14526:14530  true */\n                  0x01\n                    /* \"@openzeppelin/contracts/token/ERC721/ERC721.sol\":14498:14506  _approve */\n                  tag_206\n                    /* \"@openzeppelin/contracts/token/ERC721/ERC721.sol\":14498:14531  _approve(to, tokenId, auth, true) */\n                  jump\t// in\n                    /* \"ProjectNFT.sol\":869:1077  function _update(... */\n                tag_129:\n                    /* \"ProjectNFT.sol\":1012:1019  address */\n                  0x00\n                    /* \"ProjectNFT.sol\":1038:1070  super._update(to, tokenId, auth) */\n                  tag_208\n                    /* \"ProjectNFT.sol\":1052:1054  to */\n                  dup5\n                    /* \"ProjectNFT.sol\":1056:1063  tokenId */\n                  dup5\n                    /* \"ProjectNFT.sol\":1065:1069  auth */\n                  dup5\n                    /* \"ProjectNFT.sol\":1038:1051  super._update */\n                  tag_209\n                    /* \"ProjectNFT.sol\":1038:1070  super._update(to, tokenId, auth) */\n                  jump\t// in\n                tag_208:\n                    /* \"ProjectNFT.sol\":1031:1070  return super._update(to, tokenId, auth) */\n                  swap5\n                    /* \"ProjectNFT.sol\":869:1077  function _update(... */\n                  swap4\n                  pop\n                  pop\n                  pop\n                  pop\n                  jump\t// out\n                    /* \"@openzeppelin/contracts/access/Ownable.sol\":1796:1958  function _checkOwner() internal view virtual {... */\n                tag_155:\n                    /* \"@openzeppelin/contracts/utils/Context.sol\":735:745  msg.sender */\n                  caller\n                    /* \"@openzeppelin/contracts/access/Ownable.sol\":1855:1862  owner() */\n                  tag_212\n                    /* \"@openzeppelin/contracts/access/Ownable.sol\":1855:1860  owner */\n                  tag_74\n                    /* \"@openzeppelin/contracts/access/Ownable.sol\":1855:1862  owner() */\n                  jump\t// in\n                tag_212:\n                  sub(shl(0xa0, 0x01), 0x01)\n                    /* \"@openzeppelin/contracts/access/Ownable.sol\":1855:1878  owner() != _msgSender() */\n                  and\n                  eq\n                    /* \"@openzeppelin/contracts/access/Ownable.sol\":1851:1952  if (owner() != _msgSender()) {... */\n                  tag_157\n                  jumpi\n                    /* \"@openzeppelin/contracts/utils/Context.sol\":735:745  msg.sender */\n                  caller\n                    /* \"@openzeppelin/contracts/access/Ownable.sol\":1901:1941  OwnableUnauthorizedAccount(_msgSender()) */\n                  mload(0x40)\n                  shl(0xe0, 0x118cdaa7)\n                  dup2\n                  mstore\n                  0x04\n                  add\n                  tag_126\n                  swap2\n                  swap1\n                  tag_38\n                  jump\t// in\n                    /* \"@openzeppelin/contracts/access/Ownable.sol\":2912:3099  function _transferOwnership(address newOwner) internal virtual {... */\n                tag_158:\n                    /* \"@openzeppelin/contracts/access/Ownable.sol\":3004:3010  _owner */\n                  0x0b\n                  dup1\n                  sload\n                  sub(shl(0xa0, 0x01), 0x01)\n                    /* \"@openzeppelin/contracts/access/Ownable.sol\":3020:3037  _owner = newOwner */\n                  dup4\n                  dup2\n                  and\n                  not(sub(shl(0xa0, 0x01), 0x01))\n                  dup4\n                  and\n                  dup2\n                  or\n                  swap1\n                  swap4\n                  sstore\n                    /* \"@openzeppelin/contracts/access/Ownable.sol\":3052:3092  OwnershipTransferred(oldOwner, newOwner) */\n                  mload(0x40)\n                    /* \"@openzeppelin/contracts/access/Ownable.sol\":3004:3010  _owner */\n                  swap2\n                  and\n                  swap2\n                    /* \"@openzeppelin/contracts/access/Ownable.sol\":3020:3037  _owner = newOwner */\n                  swap1\n                    /* \"@openzeppelin/contracts/access/Ownable.sol\":3004:3010  _owner */\n                  dup3\n                  swap1\n                    /* \"@openzeppelin/contracts/access/Ownable.sol\":3052:3092  OwnershipTransferred(oldOwner, newOwner) */\n                  0x8be0079c531659141344cd1fd0a4f28419497f9722a3daafe3b4186f6b6457e0\n                  swap1\n                    /* \"@openzeppelin/contracts/access/Ownable.sol\":2985:3001  address oldOwner */\n                  0x00\n                  swap1\n                    /* \"@openzeppelin/contracts/access/Ownable.sol\":3052:3092  OwnershipTransferred(oldOwner, newOwner) */\n                  log3\n                    /* \"@openzeppelin/contracts/access/Ownable.sol\":2975:3099  {... */\n                  pop\n                    /* \"@openzeppelin/contracts/access/Ownable.sol\":2912:3099  function _transferOwnership(address newOwner) internal virtual {... */\n                  pop\n                  jump\t// out\n                    /* \"@openzeppelin/contracts/token/ERC721/ERC721.sol\":15591:15903  function _setApprovalForAll(address owner, address operator, bool approved) internal virtual {... */\n                tag_169:\n                  sub(shl(0xa0, 0x01), 0x01)\n                    /* \"@openzeppelin/contracts/token/ERC721/ERC721.sol\":15698:15720  operator == address(0) */\n                  dup3\n                  and\n                    /* \"@openzeppelin/contracts/token/ERC721/ERC721.sol\":15694:15785  if (operator == address(0)) {... */\n                  tag_218\n                  jumpi\n                    /* \"@openzeppelin/contracts/token/ERC721/ERC721.sol\":15765:15773  operator */\n                  dup2\n                    /* \"@openzeppelin/contracts/token/ERC721/ERC721.sol\":15743:15774  ERC721InvalidOperator(operator) */\n                  mload(0x40)\n                  shl(0xe3, 0x0b611743)\n                  dup2\n                  mstore\n                  0x04\n                  add\n                  tag_126\n                  swap2\n                  swap1\n                  tag_38\n                  jump\t// in\n                    /* \"@openzeppelin/contracts/token/ERC721/ERC721.sol\":15694:15785  if (operator == address(0)) {... */\n                tag_218:\n                  sub(shl(0xa0, 0x01), 0x01)\n                    /* \"@openzeppelin/contracts/token/ERC721/ERC721.sol\":15794:15819  _operatorApprovals[owner] */\n                  dup4\n                  dup2\n                  and\n                  0x00\n                  dup2\n                  dup2\n                  mstore\n                    /* \"@openzeppelin/contracts/token/ERC721/ERC721.sol\":15794:15812  _operatorApprovals */\n                  0x05\n                    /* \"@openzeppelin/contracts/token/ERC721/ERC721.sol\":15794:15819  _operatorApprovals[owner] */\n                  0x20\n                  swap1\n                  dup2\n                  mstore\n                  0x40\n                  dup1\n                  dup4\n                  keccak256\n                    /* \"@openzeppelin/contracts/token/ERC721/ERC721.sol\":15794:15829  _operatorApprovals[owner][operator] */\n                  swap5\n                  dup8\n                  and\n                  dup1\n                  dup5\n                  mstore\n                  swap5\n                  dup3\n                  mstore\n                  swap2\n                  dup3\n                  swap1\n                  keccak256\n                    /* \"@openzeppelin/contracts/token/ERC721/ERC721.sol\":15794:15840  _operatorApprovals[owner][operator] = approved */\n                  dup1\n                  sload\n                  not(0xff)\n                  and\n                  dup7\n                  iszero\n                  iszero\n                  swap1\n                  dup2\n                  or\n                  swap1\n                  swap2\n                  sstore\n                    /* \"@openzeppelin/contracts/token/ERC721/ERC721.sol\":15855:15896  ApprovalForAll(owner, operator, approved) */\n                  swap2\n                  mload\n                    /* \"#utility.yul\":540:581   */\n                  swap2\n                  dup3\n                  mstore\n                    /* \"@openzeppelin/contracts/token/ERC721/ERC721.sol\":15855:15896  ApprovalForAll(owner, operator, approved) */\n                  0x17307eab39ab6107e8899845ad3d59bd9653f200f220920489ca2b5937696c31\n                  swap2\n                    /* \"#utility.yul\":513:531   */\n                  add\n                    /* \"@openzeppelin/contracts/token/ERC721/ERC721.sol\":15855:15896  ApprovalForAll(owner, operator, approved) */\n                  mload(0x40)\n                  dup1\n                  swap2\n                  sub\n                  swap1\n                  log3\n                    /* \"@openzeppelin/contracts/token/ERC721/ERC721.sol\":15591:15903  function _setApprovalForAll(address owner, address operator, bool approved) internal virtual {... */\n                  pop\n                  pop\n                  pop\n                  jump\t// out\n                    /* \"@openzeppelin/contracts/token/ERC721/ERC721.sol\":16918:17700  function _checkOnERC721Received(address from, address to, uint256 tokenId, bytes memory data) private {... */\n                tag_173:\n                  sub(shl(0xa0, 0x01), 0x01)\n                    /* \"@openzeppelin/contracts/token/ERC721/ERC721.sol\":17034:17048  to.code.length */\n                  dup4\n                  and\n                  extcodesize\n                    /* \"@openzeppelin/contracts/token/ERC721/ERC721.sol\":17034:17052  to.code.length > 0 */\n                  iszero\n                    /* \"@openzeppelin/contracts/token/ERC721/ERC721.sol\":17030:17694  if (to.code.length > 0) {... */\n                  tag_130\n                  jumpi\n                    /* \"@openzeppelin/contracts/token/ERC721/ERC721.sol\":17072:17143  IERC721Receiver(to).onERC721Received(_msgSender(), from, tokenId, data) */\n                  mload(0x40)\n                  shl(0xe1, 0x0a85bd01)\n                  dup2\n                  mstore\n                  sub(shl(0xa0, 0x01), 0x01)\n                    /* \"@openzeppelin/contracts/token/ERC721/ERC721.sol\":17072:17108  IERC721Receiver(to).onERC721Received */\n                  dup5\n                  and\n                  swap1\n                  0x150b7a02\n                  swap1\n                    /* \"@openzeppelin/contracts/token/ERC721/ERC721.sol\":17072:17143  IERC721Receiver(to).onERC721Received(_msgSender(), from, tokenId, data) */\n                  tag_224\n                  swap1\n                    /* \"@openzeppelin/contracts/utils/Context.sol\":735:745  msg.sender */\n                  caller\n                  swap1\n                    /* \"@openzeppelin/contracts/token/ERC721/ERC721.sol\":17123:17127  from */\n                  dup9\n                  swap1\n                    /* \"@openzeppelin/contracts/token/ERC721/ERC721.sol\":17129:17136  tokenId */\n                  dup8\n                  swap1\n                    /* \"@openzeppelin/contracts/token/ERC721/ERC721.sol\":17138:17142  data */\n                  dup8\n                  swap1\n                    /* \"@openzeppelin/contracts/token/ERC721/ERC721.sol\":17072:17143  IERC721Receiver(to).onERC721Received(_msgSender(), from, tokenId, data) */\n                  0x04\n                  add\n                  tag_225\n                  jump\t// in\n                tag_224:\n                  0x20\n                  mload(0x40)\n                  dup1\n                  dup4\n                  sub\n                  dup2\n                  0x00\n                  dup8\n                  gas\n                  call\n                  swap3\n                  pop\n                  pop\n                  pop\n                  dup1\n                  iszero\n                  tag_226\n                  jumpi\n                  pop\n                  0x40\n                  dup1\n                  mload\n                  0x1f\n                  returndatasize\n                  swap1\n                  dup2\n                  add\n                  not(0x1f)\n                  and\n                  dup3\n                  add\n                  swap1\n                  swap3\n                  mstore\n                  tag_227\n                  swap2\n                  dup2\n                  add\n                  swap1\n                  tag_228\n                  jump\t// in\n                tag_227:\n                  0x01\n                tag_226:\n                    /* \"@openzeppelin/contracts/token/ERC721/ERC721.sol\":17068:17684  try IERC721Receiver(to).onERC721Received(_msgSender(), from, tokenId, data) returns (bytes4 retval) {... */\n                  tag_229\n                  jumpi\n                  returndatasize\n                  dup1\n                  dup1\n                  iszero\n                  tag_234\n                  jumpi\n                  mload(0x40)\n                  swap2\n                  pop\n                  and(add(returndatasize, 0x3f), not(0x1f))\n                  dup3\n                  add\n                  0x40\n                  mstore\n                  returndatasize\n                  dup3\n                  mstore\n                  returndatasize\n                  0x00\n                  0x20\n                  dup5\n                  add\n                  returndatacopy\n                  jump(tag_233)\n                tag_234:\n                  0x60\n                  swap2\n                  pop\n                tag_233:\n                  pop\n                    /* \"@openzeppelin/contracts/token/ERC721/ERC721.sol\":17381:17387  reason */\n                  dup1\n                    /* \"@openzeppelin/contracts/token/ERC721/ERC721.sol\":17381:17394  reason.length */\n                  mload\n                    /* \"@openzeppelin/contracts/token/ERC721/ERC721.sol\":17398:17399  0 */\n                  0x00\n                    /* \"@openzeppelin/contracts/token/ERC721/ERC721.sol\":17381:17399  reason.length == 0 */\n                  sub\n                    /* \"@openzeppelin/contracts/token/ERC721/ERC721.sol\":17377:17670  if (reason.length == 0) {... */\n                  tag_235\n                  jumpi\n                    /* \"@openzeppelin/contracts/token/ERC721/ERC721.sol\":17452:17454  to */\n                  dup4\n                    /* \"@openzeppelin/contracts/token/ERC721/ERC721.sol\":17430:17455  ERC721InvalidReceiver(to) */\n                  mload(0x40)\n                  shl(0xe1, 0x32505749)\n                  dup2\n                  mstore\n                  0x04\n                  add\n                  tag_126\n                  swap2\n                  swap1\n                  tag_38\n                  jump\t// in\n                    /* \"@openzeppelin/contracts/token/ERC721/ERC721.sol\":17377:17670  if (reason.length == 0) {... */\n                tag_235:\n                    /* \"@openzeppelin/contracts/token/ERC721/ERC721.sol\":17622:17628  reason */\n                  dup1\n                    /* \"@openzeppelin/contracts/token/ERC721/ERC721.sol\":17616:17629  mload(reason) */\n                  mload\n                    /* \"@openzeppelin/contracts/token/ERC721/ERC721.sol\":17607:17613  reason */\n                  dup2\n                    /* \"@openzeppelin/contracts/token/ERC721/ERC721.sol\":17603:17605  32 */\n                  0x20\n                    /* \"@openzeppelin/contracts/token/ERC721/ERC721.sol\":17599:17614  add(32, reason) */\n                  add\n                    /* \"@openzeppelin/contracts/token/ERC721/ERC721.sol\":17592:17630  revert(add(32, reason), mload(reason)) */\n                  revert\n                    /* \"@openzeppelin/contracts/token/ERC721/ERC721.sol\":17068:17684  try IERC721Receiver(to).onERC721Received(_msgSender(), from, tokenId, data) returns (bytes4 retval) {... */\n                tag_229:\n                  not(sub(shl(0xe0, 0x01), 0x01))\n                    /* \"@openzeppelin/contracts/token/ERC721/ERC721.sol\":17190:17241  retval != IERC721Receiver.onERC721Received.selector */\n                  dup2\n                  and\n                  shl(0xe1, 0x0a85bd01)\n                  eq\n                    /* \"@openzeppelin/contracts/token/ERC721/ERC721.sol\":17186:17316  if (retval != IERC721Receiver.onERC721Received.selector) {... */\n                  tag_239\n                  jumpi\n                    /* \"@openzeppelin/contracts/token/ERC721/ERC721.sol\":17294:17296  to */\n                  dup4\n                    /* \"@openzeppelin/contracts/token/ERC721/ERC721.sol\":17272:17297  ERC721InvalidReceiver(to) */\n                  mload(0x40)\n                  shl(0xe1, 0x32505749)\n                  dup2\n                  mstore\n                  0x04\n                  add\n                  tag_126\n                  swap2\n                  swap1\n                  tag_38\n                  jump\t// in\n                    /* \"@openzeppelin/contracts/token/ERC721/ERC721.sol\":17186:17316  if (retval != IERC721Receiver.onERC721Received.selector) {... */\n                tag_239:\n                    /* \"@openzeppelin/contracts/token/ERC721/ERC721.sol\":17144:17330  returns (bytes4 retval) {... */\n                  pop\n                    /* \"@openzeppelin/contracts/token/ERC721/ERC721.sol\":16918:17700  function _checkOnERC721Received(address from, address to, uint256 tokenId, bytes memory data) private {... */\n                  pop\n                  pop\n                  pop\n                  pop\n                  jump\t// out\n                    /* \"@openzeppelin/contracts/token/ERC721/extensions/ERC721URIStorage.sol\":1210:1803  function tokenURI(uint256 tokenId) public view virtual override returns (string memory) {... */\n                tag_176:\n                    /* \"@openzeppelin/contracts/token/ERC721/extensions/ERC721URIStorage.sol\":1283:1296  string memory */\n                  0x60\n                    /* \"@openzeppelin/contracts/token/ERC721/extensions/ERC721URIStorage.sol\":1308:1330  _requireOwned(tokenId) */\n                  tag_242\n                    /* \"@openzeppelin/contracts/token/ERC721/extensions/ERC721URIStorage.sol\":1322:1329  tokenId */\n                  dup3\n                    /* \"@openzeppelin/contracts/token/ERC721/extensions/ERC721URIStorage.sol\":1308:1321  _requireOwned */\n                  tag_115\n                    /* \"@openzeppelin/contracts/token/ERC721/extensions/ERC721URIStorage.sol\":1308:1330  _requireOwned(tokenId) */\n                  jump\t// in\n                tag_242:\n                  pop\n                    /* \"@openzeppelin/contracts/token/ERC721/extensions/ERC721URIStorage.sol\":1341:1364  string memory _tokenURI */\n                  0x00\n                    /* \"@openzeppelin/contracts/token/ERC721/extensions/ERC721URIStorage.sol\":1367:1386  _tokenURIs[tokenId] */\n                  dup3\n                  dup2\n                  mstore\n                    /* \"@openzeppelin/contracts/token/ERC721/extensions/ERC721URIStorage.sol\":1367:1377  _tokenURIs */\n                  0x0a\n                    /* \"@openzeppelin/contracts/token/ERC721/extensions/ERC721URIStorage.sol\":1367:1386  _tokenURIs[tokenId] */\n                  0x20\n                  mstore\n                  0x40\n                  dup2\n                  keccak256\n                    /* \"@openzeppelin/contracts/token/ERC721/extensions/ERC721URIStorage.sol\":1341:1386  string memory _tokenURI = _tokenURIs[tokenId] */\n                  dup1\n                  sload\n                  tag_243\n                  swap1\n                  tag_108\n                  jump\t// in\n                tag_243:\n                  dup1\n                  0x1f\n                  add\n                  0x20\n                  dup1\n                  swap2\n                  div\n                  mul\n                  0x20\n                  add\n                  mload(0x40)\n                  swap1\n                  dup2\n                  add\n                  0x40\n                  mstore\n                  dup1\n                  swap3\n                  swap2\n                  swap1\n                  dup2\n                  dup2\n                  mstore\n                  0x20\n                  add\n                  dup3\n                  dup1\n                  sload\n                  tag_244\n                  swap1\n                  tag_108\n                  jump\t// in\n                tag_244:\n                  dup1\n                  iszero\n                  tag_245\n                  jumpi\n                  dup1\n                  0x1f\n                  lt\n                  tag_246\n                  jumpi\n                  0x0100\n                  dup1\n                  dup4\n                  sload\n                  div\n                  mul\n                  dup4\n                  mstore\n                  swap2\n                  0x20\n                  add\n                  swap2\n                  jump(tag_245)\n                tag_246:\n                  dup3\n                  add\n                  swap2\n                  swap1\n                  0x00\n                  mstore\n                  keccak256(0x00, 0x20)\n                  swap1\n                tag_247:\n                  dup2\n                  sload\n                  dup2\n                  mstore\n                  swap1\n                  0x01\n                  add\n                  swap1\n                  0x20\n                  add\n                  dup1\n                  dup4\n                  gt\n                  tag_247\n                  jumpi\n                  dup3\n                  swap1\n                  sub\n                  0x1f\n                  and\n                  dup3\n                  add\n                  swap2\n                tag_245:\n                  pop\n                  pop\n                  pop\n                  pop\n                  pop\n                  swap1\n                  pop\n                    /* \"@openzeppelin/contracts/token/ERC721/extensions/ERC721URIStorage.sol\":1396:1414  string memory base */\n                  0x00\n                    /* \"@openzeppelin/contracts/token/ERC721/extensions/ERC721URIStorage.sol\":1417:1427  _baseURI() */\n                  tag_248\n                    /* \"@openzeppelin/contracts/token/ERC721/ERC721.sol\":3250:3259  return \"\" */\n                  0x40\n                  dup1\n                  mload\n                  0x20\n                  dup2\n                  add\n                  swap1\n                  swap2\n                  mstore\n                  0x00\n                  dup2\n                  mstore\n                  swap1\n                    /* \"@openzeppelin/contracts/token/ERC721/ERC721.sol\":3174:3266  function _baseURI() internal view virtual returns (string memory) {... */\n                  jump\n                    /* \"@openzeppelin/contracts/token/ERC721/extensions/ERC721URIStorage.sol\":1417:1427  _baseURI() */\n                tag_248:\n                    /* \"@openzeppelin/contracts/token/ERC721/extensions/ERC721URIStorage.sol\":1396:1427  string memory base = _baseURI() */\n                  swap1\n                  pop\n                    /* \"@openzeppelin/contracts/token/ERC721/extensions/ERC721URIStorage.sol\":1506:1510  base */\n                  dup1\n                    /* \"@openzeppelin/contracts/token/ERC721/extensions/ERC721URIStorage.sol\":1500:1518  bytes(base).length */\n                  mload\n                    /* \"@openzeppelin/contracts/token/ERC721/extensions/ERC721URIStorage.sol\":1522:1523  0 */\n                  0x00\n                    /* \"@openzeppelin/contracts/token/ERC721/extensions/ERC721URIStorage.sol\":1500:1523  bytes(base).length == 0 */\n                  sub\n                    /* \"@openzeppelin/contracts/token/ERC721/extensions/ERC721URIStorage.sol\":1496:1566  if (bytes(base).length == 0) {... */\n                  tag_250\n                  jumpi\n                  pop\n                    /* \"@openzeppelin/contracts/token/ERC721/extensions/ERC721URIStorage.sol\":1546:1555  _tokenURI */\n                  swap3\n                    /* \"@openzeppelin/contracts/token/ERC721/extensions/ERC721URIStorage.sol\":1210:1803  function tokenURI(uint256 tokenId) public view virtual override returns (string memory) {... */\n                  swap2\n                  pop\n                  pop\n                  jump\t// out\n                    /* \"@openzeppelin/contracts/token/ERC721/extensions/ERC721URIStorage.sol\":1496:1566  if (bytes(base).length == 0) {... */\n                tag_250:\n                    /* \"@openzeppelin/contracts/token/ERC721/extensions/ERC721URIStorage.sol\":1665:1688  bytes(_tokenURI).length */\n                  dup2\n                  mload\n                    /* \"@openzeppelin/contracts/token/ERC721/extensions/ERC721URIStorage.sol\":1665:1692  bytes(_tokenURI).length > 0 */\n                  iszero\n                    /* \"@openzeppelin/contracts/token/ERC721/extensions/ERC721URIStorage.sol\":1661:1756  if (bytes(_tokenURI).length > 0) {... */\n                  tag_251\n                  jumpi\n                    /* \"@openzeppelin/contracts/token/ERC721/extensions/ERC721URIStorage.sol\":1729:1733  base */\n                  dup1\n                    /* \"@openzeppelin/contracts/token/ERC721/extensions/ERC721URIStorage.sol\":1735:1744  _tokenURI */\n                  dup3\n                    /* \"@openzeppelin/contracts/token/ERC721/extensions/ERC721URIStorage.sol\":1715:1745  string.concat(base, _tokenURI) */\n                  add(0x20, mload(0x40))\n                  tag_252\n                  swap3\n                  swap2\n                  swap1\n                  tag_253\n                  jump\t// in\n                tag_252:\n                  mload(0x40)\n                  0x20\n                  dup2\n                  dup4\n                  sub\n                  sub\n                  dup2\n                  mstore\n                  swap1\n                  0x40\n                  mstore\n                    /* \"@openzeppelin/contracts/token/ERC721/extensions/ERC721URIStorage.sol\":1708:1745  return string.concat(base, _tokenURI) */\n                  swap3\n                  pop\n                  pop\n                  pop\n                    /* \"@openzeppelin/contracts/token/ERC721/extensions/ERC721URIStorage.sol\":1210:1803  function tokenURI(uint256 tokenId) public view virtual override returns (string memory) {... */\n                  swap2\n                  swap1\n                  pop\n                  jump\t// out\n                    /* \"@openzeppelin/contracts/token/ERC721/extensions/ERC721URIStorage.sol\":1661:1756  if (bytes(_tokenURI).length > 0) {... */\n                tag_251:\n                    /* \"@openzeppelin/contracts/token/ERC721/extensions/ERC721URIStorage.sol\":1773:1796  super.tokenURI(tokenId) */\n                  tag_208\n                    /* \"@openzeppelin/contracts/token/ERC721/extensions/ERC721URIStorage.sol\":1788:1795  tokenId */\n                  dup5\n                    /* \"@openzeppelin/contracts/token/ERC721/extensions/ERC721URIStorage.sol\":1773:1787  super.tokenURI */\n                  tag_255\n                    /* \"@openzeppelin/contracts/token/ERC721/extensions/ERC721URIStorage.sol\":1773:1796  super.tokenURI(tokenId) */\n                  jump\t// in\n                    /* \"@openzeppelin/contracts/token/ERC721/ERC721.sol\":10633:10733  function _safeMint(address to, uint256 tokenId) internal {... */\n                tag_183:\n                    /* \"@openzeppelin/contracts/token/ERC721/ERC721.sol\":10700:10726  _safeMint(to, tokenId, \"\") */\n                  tag_119\n                    /* \"@openzeppelin/contracts/token/ERC721/ERC721.sol\":10710:10712  to */\n                  dup3\n                    /* \"@openzeppelin/contracts/token/ERC721/ERC721.sol\":10714:10721  tokenId */\n                  dup3\n                    /* \"@openzeppelin/contracts/token/ERC721/ERC721.sol\":10700:10726  _safeMint(to, tokenId, \"\") */\n                  mload(0x40)\n                  dup1\n                  0x20\n                  add\n                  0x40\n                  mstore\n                  dup1\n                  0x00\n                  dup2\n                  mstore\n                  pop\n                    /* \"@openzeppelin/contracts/token/ERC721/ERC721.sol\":10700:10709  _safeMint */\n                  tag_258\n                    /* \"@openzeppelin/contracts/token/ERC721/ERC721.sol\":10700:10726  _safeMint(to, tokenId, \"\") */\n                  jump\t// in\n                    /* \"@openzeppelin/contracts/token/ERC721/extensions/ERC721URIStorage.sol\":1922:2089  function _setTokenURI(uint256 tokenId, string memory _tokenURI) internal virtual {... */\n                tag_185:\n                    /* \"@openzeppelin/contracts/token/ERC721/extensions/ERC721URIStorage.sol\":2013:2032  _tokenURIs[tokenId] */\n                  0x00\n                  dup3\n                  dup2\n                  mstore\n                    /* \"@openzeppelin/contracts/token/ERC721/extensions/ERC721URIStorage.sol\":2013:2023  _tokenURIs */\n                  0x0a\n                    /* \"@openzeppelin/contracts/token/ERC721/extensions/ERC721URIStorage.sol\":2013:2032  _tokenURIs[tokenId] */\n                  0x20\n                  mstore\n                  0x40\n                  swap1\n                  keccak256\n                    /* \"@openzeppelin/contracts/token/ERC721/extensions/ERC721URIStorage.sol\":2013:2044  _tokenURIs[tokenId] = _tokenURI */\n                  tag_260\n                    /* \"@openzeppelin/contracts/token/ERC721/extensions/ERC721URIStorage.sol\":2035:2044  _tokenURI */\n                  dup3\n                    /* \"@openzeppelin/contracts/token/ERC721/extensions/ERC721URIStorage.sol\":2013:2032  _tokenURIs[tokenId] */\n                  dup3\n                    /* \"@openzeppelin/contracts/token/ERC721/extensions/ERC721URIStorage.sol\":2013:2044  _tokenURIs[tokenId] = _tokenURI */\n                  tag_261\n                  jump\t// in\n                tag_260:\n                  pop\n                    /* \"@openzeppelin/contracts/token/ERC721/extensions/ERC721URIStorage.sol\":2059:2082  MetadataUpdate(tokenId) */\n                  mload(0x40)\n                    /* \"#utility.yul\":2324:2349   */\n                  dup3\n                  dup2\n                  mstore\n                    /* \"@openzeppelin/contracts/token/ERC721/extensions/ERC721URIStorage.sol\":2059:2082  MetadataUpdate(tokenId) */\n                  0xf8e1a15aba9398e019f0b49df1a4fde98ee17ae345cb5f6b5e2c27f5033e8ce7\n                  swap1\n                    /* \"#utility.yul\":2312:2314   */\n                  0x20\n                    /* \"#utility.yul\":2297:2315   */\n                  add\n                    /* \"@openzeppelin/contracts/token/ERC721/extensions/ERC721URIStorage.sol\":2059:2082  MetadataUpdate(tokenId) */\n                  mload(0x40)\n                  dup1\n                  swap2\n                  sub\n                  swap1\n                  log1\n                    /* \"@openzeppelin/contracts/token/ERC721/extensions/ERC721URIStorage.sol\":1922:2089  function _setTokenURI(uint256 tokenId, string memory _tokenURI) internal virtual {... */\n                  pop\n                  pop\n                  jump\t// out\n                    /* \"@openzeppelin/contracts/token/ERC721/extensions/ERC721Enumerable.sol\":1435:1657  function supportsInterface(bytes4 interfaceId) public view virtual override(IERC165, ERC721) returns (bool) {... */\n                tag_196:\n                    /* \"@openzeppelin/contracts/token/ERC721/extensions/ERC721Enumerable.sol\":1537:1541  bool */\n                  0x00\n                  not(sub(shl(0xe0, 0x01), 0x01))\n                    /* \"@openzeppelin/contracts/token/ERC721/extensions/ERC721Enumerable.sol\":1560:1610  interfaceId == type(IERC721Enumerable).interfaceId */\n                  dup3\n                  and\n                  shl(0xe0, 0x780e9d63)\n                  eq\n                  dup1\n                    /* \"@openzeppelin/contracts/token/ERC721/extensions/ERC721Enumerable.sol\":1560:1650  interfaceId == type(IERC721Enumerable).interfaceId || super.supportsInterface(interfaceId) */\n                  tag_104\n                  jumpi\n                  pop\n                    /* \"@openzeppelin/contracts/token/ERC721/extensions/ERC721Enumerable.sol\":1614:1650  super.supportsInterface(interfaceId) */\n                  tag_104\n                    /* \"@openzeppelin/contracts/token/ERC721/extensions/ERC721Enumerable.sol\":1638:1649  interfaceId */\n                  dup3\n                    /* \"@openzeppelin/contracts/token/ERC721/extensions/ERC721Enumerable.sol\":1614:1637  super.supportsInterface */\n                  tag_266\n                    /* \"@openzeppelin/contracts/token/ERC721/extensions/ERC721Enumerable.sol\":1614:1650  super.supportsInterface(interfaceId) */\n                  jump\t// in\n                    /* \"@openzeppelin/contracts/token/ERC721/ERC721.sol\":5707:5822  function _ownerOf(uint256 tokenId) internal view virtual returns (address) {... */\n                tag_199:\n                    /* \"@openzeppelin/contracts/token/ERC721/ERC721.sol\":5773:5780  address */\n                  0x00\n                    /* \"@openzeppelin/contracts/token/ERC721/ERC721.sol\":5799:5815  _owners[tokenId] */\n                  swap1\n                  dup2\n                  mstore\n                    /* \"@openzeppelin/contracts/token/ERC721/ERC721.sol\":5799:5806  _owners */\n                  0x02\n                    /* \"@openzeppelin/contracts/token/ERC721/ERC721.sol\":5799:5815  _owners[tokenId] */\n                  0x20\n                  mstore\n                  0x40\n                  swap1\n                  keccak256\n                  sload\n                  sub(shl(0xa0, 0x01), 0x01)\n                  and\n                  swap1\n                    /* \"@openzeppelin/contracts/token/ERC721/ERC721.sol\":5707:5822  function _ownerOf(uint256 tokenId) internal view virtual returns (address) {... */\n                  jump\t// out\n                    /* \"@openzeppelin/contracts/token/ERC721/ERC721.sol\":14720:15382  function _approve(address to, uint256 tokenId, address auth, bool emitEvent) internal virtual {... */\n                tag_206:\n                    /* \"@openzeppelin/contracts/token/ERC721/ERC721.sol\":14880:14889  emitEvent */\n                  dup1\n                    /* \"@openzeppelin/contracts/token/ERC721/ERC721.sol\":14880:14911  emitEvent || auth != address(0) */\n                  dup1\n                  tag_269\n                  jumpi\n                  pop\n                  sub(shl(0xa0, 0x01), 0x01)\n                    /* \"@openzeppelin/contracts/token/ERC721/ERC721.sol\":14893:14911  auth != address(0) */\n                  dup3\n                  and\n                  iszero\n                  iszero\n                    /* \"@openzeppelin/contracts/token/ERC721/ERC721.sol\":14880:14911  emitEvent || auth != address(0) */\n                tag_269:\n                    /* \"@openzeppelin/contracts/token/ERC721/ERC721.sol\":14876:15336  if (emitEvent || auth != address(0)) {... */\n                  iszero\n                  tag_270\n                  jumpi\n                    /* \"@openzeppelin/contracts/token/ERC721/ERC721.sol\":14927:14940  address owner */\n                  0x00\n                    /* \"@openzeppelin/contracts/token/ERC721/ERC721.sol\":14943:14965  _requireOwned(tokenId) */\n                  tag_271\n                    /* \"@openzeppelin/contracts/token/ERC721/ERC721.sol\":14957:14964  tokenId */\n                  dup5\n                    /* \"@openzeppelin/contracts/token/ERC721/ERC721.sol\":14943:14956  _requireOwned */\n                  tag_115\n                    /* \"@openzeppelin/contracts/token/ERC721/ERC721.sol\":14943:14965  _requireOwned(tokenId) */\n                  jump\t// in\n                tag_271:\n                    /* \"@openzeppelin/contracts/token/ERC721/ERC721.sol\":14927:14965  address owner = _requireOwned(tokenId) */\n                  swap1\n                  pop\n                  sub(shl(0xa0, 0x01), 0x01)\n                    /* \"@openzeppelin/contracts/token/ERC721/ERC721.sol\":15093:15111  auth != address(0) */\n                  dup4\n                  and\n                  iszero\n                  dup1\n                  iszero\n                  swap1\n                    /* \"@openzeppelin/contracts/token/ERC721/ERC721.sol\":15093:15128  auth != address(0) && owner != auth */\n                  tag_272\n                  jumpi\n                  pop\n                    /* \"@openzeppelin/contracts/token/ERC721/ERC721.sol\":15124:15128  auth */\n                  dup3\n                  sub(shl(0xa0, 0x01), 0x01)\n                    /* \"@openzeppelin/contracts/token/ERC721/ERC721.sol\":15115:15128  owner != auth */\n                  and\n                    /* \"@openzeppelin/contracts/token/ERC721/ERC721.sol\":15115:15120  owner */\n                  dup2\n                  sub(shl(0xa0, 0x01), 0x01)\n                    /* \"@openzeppelin/contracts/token/ERC721/ERC721.sol\":15115:15128  owner != auth */\n                  and\n                  eq\n                  iszero\n                    /* \"@openzeppelin/contracts/token/ERC721/ERC721.sol\":15093:15128  auth != address(0) && owner != auth */\n                tag_272:\n                    /* \"@openzeppelin/contracts/token/ERC721/ERC721.sol\":15093:15162  auth != address(0) && owner != auth && !isApprovedForAll(owner, auth) */\n                  dup1\n                  iszero\n                  tag_273\n                  jumpi\n                  pop\n                    /* \"@openzeppelin/contracts/token/ERC721/ERC721.sol\":15133:15162  isApprovedForAll(owner, auth) */\n                  tag_274\n                    /* \"@openzeppelin/contracts/token/ERC721/ERC721.sol\":15150:15155  owner */\n                  dup2\n                    /* \"@openzeppelin/contracts/token/ERC721/ERC721.sol\":15157:15161  auth */\n                  dup5\n                    /* \"@openzeppelin/contracts/token/ERC721/ERC721.sol\":15133:15149  isApprovedForAll */\n                  tag_98\n                    /* \"@openzeppelin/contracts/token/ERC721/ERC721.sol\":15133:15162  isApprovedForAll(owner, auth) */\n                  jump\t// in\n                tag_274:\n                    /* \"@openzeppelin/contracts/token/ERC721/ERC721.sol\":15132:15162  !isApprovedForAll(owner, auth) */\n                  iszero\n                    /* \"@openzeppelin/contracts/token/ERC721/ERC721.sol\":15093:15162  auth != address(0) && owner != auth && !isApprovedForAll(owner, auth) */\n                tag_273:\n                    /* \"@openzeppelin/contracts/token/ERC721/ERC721.sol\":15089:15231  if (auth != address(0) && owner != auth && !isApprovedForAll(owner, auth)) {... */\n                  iszero\n                  tag_275\n                  jumpi\n                    /* \"@openzeppelin/contracts/token/ERC721/ERC721.sol\":15211:15215  auth */\n                  dup3\n                    /* \"@openzeppelin/contracts/token/ERC721/ERC721.sol\":15189:15216  ERC721InvalidApprover(auth) */\n                  mload(0x40)\n                  shl(0xe0, 0xa9fbf51f)\n                  dup2\n                  mstore\n                  0x04\n                  add\n                  tag_126\n                  swap2\n                  swap1\n                  tag_38\n                  jump\t// in\n                    /* \"@openzeppelin/contracts/token/ERC721/ERC721.sol\":15089:15231  if (auth != address(0) && owner != auth && !isApprovedForAll(owner, auth)) {... */\n                tag_275:\n                    /* \"@openzeppelin/contracts/token/ERC721/ERC721.sol\":15249:15258  emitEvent */\n                  dup2\n                    /* \"@openzeppelin/contracts/token/ERC721/ERC721.sol\":15245:15326  if (emitEvent) {... */\n                  iszero\n                  tag_277\n                  jumpi\n                    /* \"@openzeppelin/contracts/token/ERC721/ERC721.sol\":15303:15310  tokenId */\n                  dup4\n                    /* \"@openzeppelin/contracts/token/ERC721/ERC721.sol\":15299:15301  to */\n                  dup6\n                  sub(shl(0xa0, 0x01), 0x01)\n                    /* \"@openzeppelin/contracts/token/ERC721/ERC721.sol\":15283:15311  Approval(owner, to, tokenId) */\n                  and\n                    /* \"@openzeppelin/contracts/token/ERC721/ERC721.sol\":15292:15297  owner */\n                  dup3\n                  sub(shl(0xa0, 0x01), 0x01)\n                    /* \"@openzeppelin/contracts/token/ERC721/ERC721.sol\":15283:15311  Approval(owner, to, tokenId) */\n                  and\n                  0x8c5be1e5ebec7d5bd14f71427d1e84f3dd0314c0f7b2291e5b200ac8c7c3b925\n                  mload(0x40)\n                  mload(0x40)\n                  dup1\n                  swap2\n                  sub\n                  swap1\n                  log4\n                    /* \"@openzeppelin/contracts/token/ERC721/ERC721.sol\":15245:15326  if (emitEvent) {... */\n                tag_277:\n                    /* \"@openzeppelin/contracts/token/ERC721/ERC721.sol\":14913:15336  {... */\n                  pop\n                    /* \"@openzeppelin/contracts/token/ERC721/ERC721.sol\":14876:15336  if (emitEvent || auth != address(0)) {... */\n                tag_270:\n                  pop\n                  pop\n                    /* \"@openzeppelin/contracts/token/ERC721/ERC721.sol\":15346:15370  _tokenApprovals[tokenId] */\n                  0x00\n                  swap1\n                  dup2\n                  mstore\n                    /* \"@openzeppelin/contracts/token/ERC721/ERC721.sol\":15346:15361  _tokenApprovals */\n                  0x04\n                    /* \"@openzeppelin/contracts/token/ERC721/ERC721.sol\":15346:15370  _tokenApprovals[tokenId] */\n                  0x20\n                  mstore\n                  0x40\n                  swap1\n                  keccak256\n                    /* \"@openzeppelin/contracts/token/ERC721/ERC721.sol\":15346:15375  _tokenApprovals[tokenId] = to */\n                  dup1\n                  sload\n                  not(sub(shl(0xa0, 0x01), 0x01))\n                  and\n                  sub(shl(0xa0, 0x01), 0x01)\n                  swap3\n                  swap1\n                  swap3\n                  and\n                  swap2\n                  swap1\n                  swap2\n                  or\n                  swap1\n                  sstore\n                    /* \"@openzeppelin/contracts/token/ERC721/ERC721.sol\":14720:15382  function _approve(address to, uint256 tokenId, address auth, bool emitEvent) internal virtual {... */\n                  jump\t// out\n                    /* \"@openzeppelin/contracts/token/ERC721/extensions/ERC721Enumerable.sol\":2518:3143  function _update(address to, uint256 tokenId, address auth) internal virtual override returns (address) {... */\n                tag_209:\n                    /* \"@openzeppelin/contracts/token/ERC721/extensions/ERC721Enumerable.sol\":2613:2620  address */\n                  0x00\n                    /* \"@openzeppelin/contracts/token/ERC721/extensions/ERC721Enumerable.sol\":2632:2653  address previousOwner */\n                  dup1\n                    /* \"@openzeppelin/contracts/token/ERC721/extensions/ERC721Enumerable.sol\":2656:2688  super._update(to, tokenId, auth) */\n                  tag_279\n                    /* \"@openzeppelin/contracts/token/ERC721/extensions/ERC721Enumerable.sol\":2670:2672  to */\n                  dup6\n                    /* \"@openzeppelin/contracts/token/ERC721/extensions/ERC721Enumerable.sol\":2674:2681  tokenId */\n                  dup6\n                    /* \"@openzeppelin/contracts/token/ERC721/extensions/ERC721Enumerable.sol\":2683:2687  auth */\n                  dup6\n                    /* \"@openzeppelin/contracts/token/ERC721/extensions/ERC721Enumerable.sol\":2656:2669  super._update */\n                  tag_280\n                    /* \"@openzeppelin/contracts/token/ERC721/extensions/ERC721Enumerable.sol\":2656:2688  super._update(to, tokenId, auth) */\n                  jump\t// in\n                tag_279:\n                    /* \"@openzeppelin/contracts/token/ERC721/extensions/ERC721Enumerable.sol\":2632:2688  address previousOwner = super._update(to, tokenId, auth) */\n                  swap1\n                  pop\n                  sub(shl(0xa0, 0x01), 0x01)\n                    /* \"@openzeppelin/contracts/token/ERC721/extensions/ERC721Enumerable.sol\":2703:2730  previousOwner == address(0) */\n                  dup2\n                  and\n                    /* \"@openzeppelin/contracts/token/ERC721/extensions/ERC721Enumerable.sol\":2699:2909  if (previousOwner == address(0)) {... */\n                  tag_281\n                  jumpi\n                    /* \"@openzeppelin/contracts/token/ERC721/extensions/ERC721Enumerable.sol\":2746:2786  _addTokenToAllTokensEnumeration(tokenId) */\n                  tag_282\n                    /* \"@openzeppelin/contracts/token/ERC721/extensions/ERC721Enumerable.sol\":2778:2785  tokenId */\n                  dup5\n                    /* \"@openzeppelin/contracts/token/ERC721/extensions/ERC721Enumerable.sol\":3949:3959  _allTokens */\n                  0x08\n                    /* \"@openzeppelin/contracts/token/ERC721/extensions/ERC721Enumerable.sol\":3949:3966  _allTokens.length */\n                  dup1\n                  sload\n                    /* \"@openzeppelin/contracts/token/ERC721/extensions/ERC721Enumerable.sol\":3922:3946  _allTokensIndex[tokenId] */\n                  0x00\n                  dup4\n                  dup2\n                  mstore\n                    /* \"@openzeppelin/contracts/token/ERC721/extensions/ERC721Enumerable.sol\":3922:3937  _allTokensIndex */\n                  0x09\n                    /* \"@openzeppelin/contracts/token/ERC721/extensions/ERC721Enumerable.sol\":3922:3946  _allTokensIndex[tokenId] */\n                  0x20\n                  mstore\n                  0x40\n                  dup2\n                  keccak256\n                    /* \"@openzeppelin/contracts/token/ERC721/extensions/ERC721Enumerable.sol\":3922:3966  _allTokensIndex[tokenId] = _allTokens.length */\n                  dup3\n                  swap1\n                  sstore\n                    /* \"@openzeppelin/contracts/token/ERC721/extensions/ERC721Enumerable.sol\":3976:4000  _allTokens.push(tokenId) */\n                  0x01\n                  dup3\n                  add\n                  dup4\n                  sstore\n                  swap2\n                  swap1\n                  swap2\n                  mstore\n                  0xf3f7a9fe364faab93b216da50a3214154f22a0a2b415b23a84c8169e8b636ee3\n                  add\n                  sstore\n                    /* \"@openzeppelin/contracts/token/ERC721/extensions/ERC721Enumerable.sol\":3846:4007  function _addTokenToAllTokensEnumeration(uint256 tokenId) private {... */\n                  jump\n                    /* \"@openzeppelin/contracts/token/ERC721/extensions/ERC721Enumerable.sol\":2746:2786  _addTokenToAllTokensEnumeration(tokenId) */\n                tag_282:\n                    /* \"@openzeppelin/contracts/token/ERC721/extensions/ERC721Enumerable.sol\":2699:2909  if (previousOwner == address(0)) {... */\n                  jump(tag_286)\n                tag_281:\n                    /* \"@openzeppelin/contracts/token/ERC721/extensions/ERC721Enumerable.sol\":2824:2826  to */\n                  dup5\n                  sub(shl(0xa0, 0x01), 0x01)\n                    /* \"@openzeppelin/contracts/token/ERC721/extensions/ERC721Enumerable.sol\":2807:2826  previousOwner != to */\n                  and\n                    /* \"@openzeppelin/contracts/token/ERC721/extensions/ERC721Enumerable.sol\":2807:2820  previousOwner */\n                  dup2\n                  sub(shl(0xa0, 0x01), 0x01)\n                    /* \"@openzeppelin/contracts/token/ERC721/extensions/ERC721Enumerable.sol\":2807:2826  previousOwner != to */\n                  and\n                  eq\n                    /* \"@openzeppelin/contracts/token/ERC721/extensions/ERC721Enumerable.sol\":2803:2909  if (previousOwner != to) {... */\n                  tag_286\n                  jumpi\n                    /* \"@openzeppelin/contracts/token/ERC721/extensions/ERC721Enumerable.sol\":2842:2898  _removeTokenFromOwnerEnumeration(previousOwner, tokenId) */\n                  tag_286\n                    /* \"@openzeppelin/contracts/token/ERC721/extensions/ERC721Enumerable.sol\":2875:2888  previousOwner */\n                  dup2\n                    /* \"@openzeppelin/contracts/token/ERC721/extensions/ERC721Enumerable.sol\":2890:2897  tokenId */\n                  dup6\n                    /* \"@openzeppelin/contracts/token/ERC721/extensions/ERC721Enumerable.sol\":2842:2874  _removeTokenFromOwnerEnumeration */\n                  tag_287\n                    /* \"@openzeppelin/contracts/token/ERC721/extensions/ERC721Enumerable.sol\":2842:2898  _removeTokenFromOwnerEnumeration(previousOwner, tokenId) */\n                  jump\t// in\n                tag_286:\n                  sub(shl(0xa0, 0x01), 0x01)\n                    /* \"@openzeppelin/contracts/token/ERC721/extensions/ERC721Enumerable.sol\":2922:2938  to == address(0) */\n                  dup6\n                  and\n                    /* \"@openzeppelin/contracts/token/ERC721/extensions/ERC721Enumerable.sol\":2918:3106  if (to == address(0)) {... */\n                  tag_288\n                  jumpi\n                    /* \"@openzeppelin/contracts/token/ERC721/extensions/ERC721Enumerable.sol\":2954:2999  _removeTokenFromAllTokensEnumeration(tokenId) */\n                  tag_289\n                    /* \"@openzeppelin/contracts/token/ERC721/extensions/ERC721Enumerable.sol\":2991:2998  tokenId */\n                  dup5\n                    /* \"@openzeppelin/contracts/token/ERC721/extensions/ERC721Enumerable.sol\":2954:2990  _removeTokenFromAllTokensEnumeration */\n                  tag_290\n                    /* \"@openzeppelin/contracts/token/ERC721/extensions/ERC721Enumerable.sol\":2954:2999  _removeTokenFromAllTokensEnumeration(tokenId) */\n                  jump\t// in\n                tag_289:\n                    /* \"@openzeppelin/contracts/token/ERC721/extensions/ERC721Enumerable.sol\":2918:3106  if (to == address(0)) {... */\n                  jump(tag_208)\n                tag_288:\n                    /* \"@openzeppelin/contracts/token/ERC721/extensions/ERC721Enumerable.sol\":3037:3039  to */\n                  dup5\n                  sub(shl(0xa0, 0x01), 0x01)\n                    /* \"@openzeppelin/contracts/token/ERC721/extensions/ERC721Enumerable.sol\":3020:3039  previousOwner != to */\n                  and\n                    /* \"@openzeppelin/contracts/token/ERC721/extensions/ERC721Enumerable.sol\":3020:3033  previousOwner */\n                  dup2\n                  sub(shl(0xa0, 0x01), 0x01)\n                    /* \"@openzeppelin/contracts/token/ERC721/extensions/ERC721Enumerable.sol\":3020:3039  previousOwner != to */\n                  and\n                  eq\n                    /* \"@openzeppelin/contracts/token/ERC721/extensions/ERC721Enumerable.sol\":3016:3106  if (previousOwner != to) {... */\n                  tag_208\n                  jumpi\n                    /* \"@openzeppelin/contracts/token/ERC721/extensions/ERC721Enumerable.sol\":3055:3095  _addTokenToOwnerEnumeration(to, tokenId) */\n                  tag_208\n                    /* \"@openzeppelin/contracts/token/ERC721/extensions/ERC721Enumerable.sol\":3083:3085  to */\n                  dup6\n                    /* \"@openzeppelin/contracts/token/ERC721/extensions/ERC721Enumerable.sol\":3087:3094  tokenId */\n                  dup6\n                    /* \"@openzeppelin/contracts/token/ERC721/extensions/ERC721Enumerable.sol\":3055:3082  _addTokenToOwnerEnumeration */\n                  tag_294\n                    /* \"@openzeppelin/contracts/token/ERC721/extensions/ERC721Enumerable.sol\":3055:3095  _addTokenToOwnerEnumeration(to, tokenId) */\n                  jump\t// in\n                    /* \"@openzeppelin/contracts/token/ERC721/ERC721.sol\":2677:2932  function tokenURI(uint256 tokenId) public view virtual returns (string memory) {... */\n                tag_255:\n                    /* \"@openzeppelin/contracts/token/ERC721/ERC721.sol\":2741:2754  string memory */\n                  0x60\n                    /* \"@openzeppelin/contracts/token/ERC721/ERC721.sol\":2766:2788  _requireOwned(tokenId) */\n                  tag_297\n                    /* \"@openzeppelin/contracts/token/ERC721/ERC721.sol\":2780:2787  tokenId */\n                  dup3\n                    /* \"@openzeppelin/contracts/token/ERC721/ERC721.sol\":2766:2779  _requireOwned */\n                  tag_115\n                    /* \"@openzeppelin/contracts/token/ERC721/ERC721.sol\":2766:2788  _requireOwned(tokenId) */\n                  jump\t// in\n                tag_297:\n                  pop\n                    /* \"@openzeppelin/contracts/token/ERC721/ERC721.sol\":2799:2820  string memory baseURI */\n                  0x00\n                    /* \"@openzeppelin/contracts/token/ERC721/ERC721.sol\":2823:2833  _baseURI() */\n                  tag_298\n                    /* \"@openzeppelin/contracts/token/ERC721/ERC721.sol\":3250:3259  return \"\" */\n                  0x40\n                  dup1\n                  mload\n                  0x20\n                  dup2\n                  add\n                  swap1\n                  swap2\n                  mstore\n                  0x00\n                  dup2\n                  mstore\n                  swap1\n                    /* \"@openzeppelin/contracts/token/ERC721/ERC721.sol\":3174:3266  function _baseURI() internal view virtual returns (string memory) {... */\n                  jump\n                    /* \"@openzeppelin/contracts/token/ERC721/ERC721.sol\":2823:2833  _baseURI() */\n                tag_298:\n                    /* \"@openzeppelin/contracts/token/ERC721/ERC721.sol\":2799:2833  string memory baseURI = _baseURI() */\n                  swap1\n                  pop\n                    /* \"@openzeppelin/contracts/token/ERC721/ERC721.sol\":2874:2875  0 */\n                  0x00\n                    /* \"@openzeppelin/contracts/token/ERC721/ERC721.sol\":2856:2863  baseURI */\n                  dup2\n                    /* \"@openzeppelin/contracts/token/ERC721/ERC721.sol\":2850:2871  bytes(baseURI).length */\n                  mload\n                    /* \"@openzeppelin/contracts/token/ERC721/ERC721.sol\":2850:2875  bytes(baseURI).length > 0 */\n                  gt\n                    /* \"@openzeppelin/contracts/token/ERC721/ERC721.sol\":2850:2925  bytes(baseURI).length > 0 ? string.concat(baseURI, tokenId.toString()) : \"\" */\n                  tag_299\n                  jumpi\n                  mload(0x40)\n                  dup1\n                  0x20\n                  add\n                  0x40\n                  mstore\n                  dup1\n                  0x00\n                  dup2\n                  mstore\n                  pop\n                  jump(tag_300)\n                tag_299:\n                    /* \"@openzeppelin/contracts/token/ERC721/ERC721.sol\":2892:2899  baseURI */\n                  dup1\n                    /* \"@openzeppelin/contracts/token/ERC721/ERC721.sol\":2901:2919  tokenId.toString() */\n                  tag_301\n                    /* \"@openzeppelin/contracts/token/ERC721/ERC721.sol\":2901:2908  tokenId */\n                  dup5\n                    /* \"@openzeppelin/contracts/token/ERC721/ERC721.sol\":2901:2917  tokenId.toString */\n                  tag_302\n                    /* \"@openzeppelin/contracts/token/ERC721/ERC721.sol\":2901:2919  tokenId.toString() */\n                  jump\t// in\n                tag_301:\n                    /* \"@openzeppelin/contracts/token/ERC721/ERC721.sol\":2878:2920  string.concat(baseURI, tokenId.toString()) */\n                  add(0x20, mload(0x40))\n                  tag_303\n                  swap3\n                  swap2\n                  swap1\n                  tag_253\n                  jump\t// in\n                tag_303:\n                  mload(0x40)\n                  0x20\n                  dup2\n                  dup4\n                  sub\n                  sub\n                  dup2\n                  mstore\n                  swap1\n                  0x40\n                  mstore\n                    /* \"@openzeppelin/contracts/token/ERC721/ERC721.sol\":2850:2925  bytes(baseURI).length > 0 ? string.concat(baseURI, tokenId.toString()) : \"\" */\n                tag_300:\n                    /* \"@openzeppelin/contracts/token/ERC721/ERC721.sol\":2843:2925  return bytes(baseURI).length > 0 ? string.concat(baseURI, tokenId.toString()) : \"\" */\n                  swap4\n                    /* \"@openzeppelin/contracts/token/ERC721/ERC721.sol\":2677:2932  function tokenURI(uint256 tokenId) public view virtual returns (string memory) {... */\n                  swap3\n                  pop\n                  pop\n                  pop\n                  jump\t// out\n                    /* \"@openzeppelin/contracts/token/ERC721/ERC721.sol\":10954:11136  function _safeMint(address to, uint256 tokenId, bytes memory data) internal virtual {... */\n                tag_258:\n                    /* \"@openzeppelin/contracts/token/ERC721/ERC721.sol\":11048:11066  _mint(to, tokenId) */\n                  tag_305\n                    /* \"@openzeppelin/contracts/token/ERC721/ERC721.sol\":11054:11056  to */\n                  dup4\n                    /* \"@openzeppelin/contracts/token/ERC721/ERC721.sol\":11058:11065  tokenId */\n                  dup4\n                    /* \"@openzeppelin/contracts/token/ERC721/ERC721.sol\":11048:11053  _mint */\n                  tag_306\n                    /* \"@openzeppelin/contracts/token/ERC721/ERC721.sol\":11048:11066  _mint(to, tokenId) */\n                  jump\t// in\n                tag_305:\n                    /* \"@openzeppelin/contracts/token/ERC721/ERC721.sol\":11076:11129  _checkOnERC721Received(address(0), to, tokenId, data) */\n                  tag_139\n                    /* \"@openzeppelin/contracts/token/ERC721/ERC721.sol\":11107:11108  0 */\n                  0x00\n                    /* \"@openzeppelin/contracts/token/ERC721/ERC721.sol\":11111:11113  to */\n                  dup5\n                    /* \"@openzeppelin/contracts/token/ERC721/ERC721.sol\":11115:11122  tokenId */\n                  dup5\n                    /* \"@openzeppelin/contracts/token/ERC721/ERC721.sol\":11124:11128  data */\n                  dup5\n                    /* \"@openzeppelin/contracts/token/ERC721/ERC721.sol\":11076:11098  _checkOnERC721Received */\n                  tag_173\n                    /* \"@openzeppelin/contracts/token/ERC721/ERC721.sol\":11076:11129  _checkOnERC721Received(address(0), to, tokenId, data) */\n                  jump\t// in\n                    /* \"@openzeppelin/contracts/token/ERC721/ERC721.sol\":1561:1861  function supportsInterface(bytes4 interfaceId) public view virtual override(ERC165, IERC165) returns (bool) {... */\n                tag_266:\n                    /* \"@openzeppelin/contracts/token/ERC721/ERC721.sol\":1663:1667  bool */\n                  0x00\n                  not(sub(shl(0xe0, 0x01), 0x01))\n                    /* \"@openzeppelin/contracts/token/ERC721/ERC721.sol\":1698:1738  interfaceId == type(IERC721).interfaceId */\n                  dup3\n                  and\n                  shl(0xe0, 0x80ac58cd)\n                  eq\n                  dup1\n                    /* \"@openzeppelin/contracts/token/ERC721/ERC721.sol\":1698:1802  interfaceId == type(IERC721).interfaceId ||... */\n                  tag_309\n                  jumpi\n                  pop\n                  not(sub(shl(0xe0, 0x01), 0x01))\n                    /* \"@openzeppelin/contracts/token/ERC721/ERC721.sol\":1754:1802  interfaceId == type(IERC721Metadata).interfaceId */\n                  dup3\n                  and\n                  shl(0xe0, 0x5b5e139f)\n                  eq\n                    /* \"@openzeppelin/contracts/token/ERC721/ERC721.sol\":1698:1802  interfaceId == type(IERC721).interfaceId ||... */\n                tag_309:\n                    /* \"@openzeppelin/contracts/token/ERC721/ERC721.sol\":1698:1854  interfaceId == type(IERC721).interfaceId ||... */\n                  dup1\n                  tag_104\n                  jumpi\n                  pop\n                  shl(0xe0, 0x01ffc9a7)\n                  not(sub(shl(0xe0, 0x01), 0x01))\n                    /* \"@openzeppelin/contracts/utils/introspection/ERC165.sol\":861:901  interfaceId == type(IERC165).interfaceId */\n                  dup4\n                  and\n                  eq\n                    /* \"@openzeppelin/contracts/token/ERC721/ERC721.sol\":1818:1854  super.supportsInterface(interfaceId) */\n                  tag_104\n                    /* \"@openzeppelin/contracts/utils/introspection/ERC165.sol\":762:908  function supportsInterface(bytes4 interfaceId) public view virtual returns (bool) {... */\n                  jump\n                    /* \"@openzeppelin/contracts/token/ERC721/ERC721.sol\":8838:9633  function _update(address to, uint256 tokenId, address auth) internal virtual returns (address) {... */\n                tag_280:\n                    /* \"@openzeppelin/contracts/token/ERC721/ERC721.sol\":8924:8931  address */\n                  0x00\n                    /* \"@openzeppelin/contracts/token/ERC721/ERC721.sol\":8943:8955  address from */\n                  dup1\n                    /* \"@openzeppelin/contracts/token/ERC721/ERC721.sol\":8958:8975  _ownerOf(tokenId) */\n                  tag_314\n                    /* \"@openzeppelin/contracts/token/ERC721/ERC721.sol\":8967:8974  tokenId */\n                  dup5\n                    /* \"@openzeppelin/contracts/token/ERC721/ERC721.sol\":8958:8966  _ownerOf */\n                  tag_199\n                    /* \"@openzeppelin/contracts/token/ERC721/ERC721.sol\":8958:8975  _ownerOf(tokenId) */\n                  jump\t// in\n                tag_314:\n                    /* \"@openzeppelin/contracts/token/ERC721/ERC721.sol\":8943:8975  address from = _ownerOf(tokenId) */\n                  swap1\n                  pop\n                  sub(shl(0xa0, 0x01), 0x01)\n                    /* \"@openzeppelin/contracts/token/ERC721/ERC721.sol\":9035:9053  auth != address(0) */\n                  dup4\n                  and\n                  iszero\n                    /* \"@openzeppelin/contracts/token/ERC721/ERC721.sol\":9031:9117  if (auth != address(0)) {... */\n                  tag_316\n                  jumpi\n                    /* \"@openzeppelin/contracts/token/ERC721/ERC721.sol\":9069:9106  _checkAuthorized(from, auth, tokenId) */\n                  tag_316\n                    /* \"@openzeppelin/contracts/token/ERC721/ERC721.sol\":9086:9090  from */\n                  dup2\n                    /* \"@openzeppelin/contracts/token/ERC721/ERC721.sol\":9092:9096  auth */\n                  dup5\n                    /* \"@openzeppelin/contracts/token/ERC721/ERC721.sol\":9098:9105  tokenId */\n                  dup7\n                    /* \"@openzeppelin/contracts/token/ERC721/ERC721.sol\":9069:9085  _checkAuthorized */\n                  tag_317\n                    /* \"@openzeppelin/contracts/token/ERC721/ERC721.sol\":9069:9106  _checkAuthorized(from, auth, tokenId) */\n                  jump\t// in\n                tag_316:\n                  sub(shl(0xa0, 0x01), 0x01)\n                    /* \"@openzeppelin/contracts/token/ERC721/ERC721.sol\":9161:9179  from != address(0) */\n                  dup2\n                  and\n                  iszero\n                    /* \"@openzeppelin/contracts/token/ERC721/ERC721.sol\":9157:9413  if (from != address(0)) {... */\n                  tag_318\n                  jumpi\n                    /* \"@openzeppelin/contracts/token/ERC721/ERC721.sol\":9277:9325  _approve(address(0), tokenId, address(0), false) */\n                  tag_319\n                    /* \"@openzeppelin/contracts/token/ERC721/ERC721.sol\":9294:9295  0 */\n                  0x00\n                    /* \"@openzeppelin/contracts/token/ERC721/ERC721.sol\":9298:9305  tokenId */\n                  dup6\n                    /* \"@openzeppelin/contracts/token/ERC721/ERC721.sol\":9315:9316  0 */\n                  0x00\n                    /* \"@openzeppelin/contracts/token/ERC721/ERC721.sol\":9319:9324  false */\n                  dup1\n                    /* \"@openzeppelin/contracts/token/ERC721/ERC721.sol\":9277:9285  _approve */\n                  tag_206\n                    /* \"@openzeppelin/contracts/token/ERC721/ERC721.sol\":9277:9325  _approve(address(0), tokenId, address(0), false) */\n                  jump\t// in\n                tag_319:\n                  sub(shl(0xa0, 0x01), 0x01)\n                    /* \"@openzeppelin/contracts/token/ERC721/ERC721.sol\":9368:9383  _balances[from] */\n                  dup2\n                  and\n                  0x00\n                  swap1\n                  dup2\n                  mstore\n                    /* \"@openzeppelin/contracts/token/ERC721/ERC721.sol\":9368:9377  _balances */\n                  0x03\n                    /* \"@openzeppelin/contracts/token/ERC721/ERC721.sol\":9368:9383  _balances[from] */\n                  0x20\n                  mstore\n                  0x40\n                  swap1\n                  keccak256\n                    /* \"@openzeppelin/contracts/token/ERC721/ERC721.sol\":9368:9388  _balances[from] -= 1 */\n                  dup1\n                  sload\n                  not(0x00)\n                  add\n                  swap1\n                  sstore\n                    /* \"@openzeppelin/contracts/token/ERC721/ERC721.sol\":9157:9413  if (from != address(0)) {... */\n                tag_318:\n                  sub(shl(0xa0, 0x01), 0x01)\n                    /* \"@openzeppelin/contracts/token/ERC721/ERC721.sol\":9427:9443  to != address(0) */\n                  dup6\n                  and\n                  iszero\n                    /* \"@openzeppelin/contracts/token/ERC721/ERC721.sol\":9423:9530  if (to != address(0)) {... */\n                  tag_320\n                  jumpi\n                  sub(shl(0xa0, 0x01), 0x01)\n                    /* \"@openzeppelin/contracts/token/ERC721/ERC721.sol\":9487:9500  _balances[to] */\n                  dup6\n                  and\n                  0x00\n                  swap1\n                  dup2\n                  mstore\n                    /* \"@openzeppelin/contracts/token/ERC721/ERC721.sol\":9487:9496  _balances */\n                  0x03\n                    /* \"@openzeppelin/contracts/token/ERC721/ERC721.sol\":9487:9500  _balances[to] */\n                  0x20\n                  mstore\n                  0x40\n                  swap1\n                  keccak256\n                    /* \"@openzeppelin/contracts/token/ERC721/ERC721.sol\":9487:9505  _balances[to] += 1 */\n                  dup1\n                  sload\n                    /* \"@openzeppelin/contracts/token/ERC721/ERC721.sol\":9504:9505  1 */\n                  0x01\n                    /* \"@openzeppelin/contracts/token/ERC721/ERC721.sol\":9487:9505  _balances[to] += 1 */\n                  add\n                  swap1\n                  sstore\n                    /* \"@openzeppelin/contracts/token/ERC721/ERC721.sol\":9423:9530  if (to != address(0)) {... */\n                tag_320:\n                    /* \"@openzeppelin/contracts/token/ERC721/ERC721.sol\":9540:9556  _owners[tokenId] */\n                  0x00\n                  dup5\n                  dup2\n                  mstore\n                    /* \"@openzeppelin/contracts/token/ERC721/ERC721.sol\":9540:9547  _owners */\n                  0x02\n                    /* \"@openzeppelin/contracts/token/ERC721/ERC721.sol\":9540:9556  _owners[tokenId] */\n                  0x20\n                  mstore\n                  0x40\n                  dup1\n                  dup3\n                  keccak256\n                    /* \"@openzeppelin/contracts/token/ERC721/ERC721.sol\":9540:9561  _owners[tokenId] = to */\n                  dup1\n                  sload\n                  not(sub(shl(0xa0, 0x01), 0x01))\n                  and\n                  sub(shl(0xa0, 0x01), 0x01)\n                  dup10\n                  dup2\n                  and\n                  swap2\n                  dup3\n                  or\n                  swap1\n                  swap3\n                  sstore\n                    /* \"@openzeppelin/contracts/token/ERC721/ERC721.sol\":9577:9604  Transfer(from, to, tokenId) */\n                  swap2\n                  mload\n                    /* \"@openzeppelin/contracts/token/ERC721/ERC721.sol\":9540:9556  _owners[tokenId] */\n                  dup8\n                  swap4\n                    /* \"@openzeppelin/contracts/token/ERC721/ERC721.sol\":9577:9604  Transfer(from, to, tokenId) */\n                  swap2\n                  dup6\n                  and\n                  swap2\n                  0xddf252ad1be2c89b69c2b068fc378daa952ba7f163c4a11628f55a4df523b3ef\n                  swap2\n                  log4\n                    /* \"@openzeppelin/contracts/token/ERC721/ERC721.sol\":9622:9626  from */\n                  swap5\n                    /* \"@openzeppelin/contracts/token/ERC721/ERC721.sol\":8838:9633  function _update(address to, uint256 tokenId, address auth) internal virtual returns (address) {... */\n                  swap4\n                  pop\n                  pop\n                  pop\n                  pop\n                  jump\t// out\n                    /* \"@openzeppelin/contracts/token/ERC721/extensions/ERC721Enumerable.sol\":4624:5583  function _removeTokenFromOwnerEnumeration(address from, uint256 tokenId) private {... */\n                tag_287:\n                    /* \"@openzeppelin/contracts/token/ERC721/extensions/ERC721Enumerable.sol\":4886:4908  uint256 lastTokenIndex */\n                  0x00\n                    /* \"@openzeppelin/contracts/token/ERC721/extensions/ERC721Enumerable.sol\":4911:4926  balanceOf(from) */\n                  tag_324\n                    /* \"@openzeppelin/contracts/token/ERC721/extensions/ERC721Enumerable.sol\":4921:4925  from */\n                  dup4\n                    /* \"@openzeppelin/contracts/token/ERC721/extensions/ERC721Enumerable.sol\":4911:4920  balanceOf */\n                  tag_69\n                    /* \"@openzeppelin/contracts/token/ERC721/extensions/ERC721Enumerable.sol\":4911:4926  balanceOf(from) */\n                  jump\t// in\n                tag_324:\n                    /* \"@openzeppelin/contracts/token/ERC721/extensions/ERC721Enumerable.sol\":4936:4954  uint256 tokenIndex */\n                  0x00\n                    /* \"@openzeppelin/contracts/token/ERC721/extensions/ERC721Enumerable.sol\":4957:4983  _ownedTokensIndex[tokenId] */\n                  dup4\n                  dup2\n                  mstore\n                    /* \"@openzeppelin/contracts/token/ERC721/extensions/ERC721Enumerable.sol\":4957:4974  _ownedTokensIndex */\n                  0x07\n                    /* \"@openzeppelin/contracts/token/ERC721/extensions/ERC721Enumerable.sol\":4957:4983  _ownedTokensIndex[tokenId] */\n                  0x20\n                  mstore\n                  0x40\n                  swap1\n                  keccak256\n                  sload\n                    /* \"@openzeppelin/contracts/token/ERC721/extensions/ERC721Enumerable.sol\":4886:4926  uint256 lastTokenIndex = balanceOf(from) */\n                  swap1\n                  swap2\n                  pop\n                    /* \"@openzeppelin/contracts/token/ERC721/extensions/ERC721Enumerable.sol\":5087:5115  tokenIndex != lastTokenIndex */\n                  dup1\n                  dup3\n                  eq\n                    /* \"@openzeppelin/contracts/token/ERC721/extensions/ERC721Enumerable.sol\":5083:5406  if (tokenIndex != lastTokenIndex) {... */\n                  tag_325\n                  jumpi\n                  sub(shl(0xa0, 0x01), 0x01)\n                    /* \"@openzeppelin/contracts/token/ERC721/extensions/ERC721Enumerable.sol\":5153:5171  _ownedTokens[from] */\n                  dup5\n                  and\n                    /* \"@openzeppelin/contracts/token/ERC721/extensions/ERC721Enumerable.sol\":5131:5150  uint256 lastTokenId */\n                  0x00\n                    /* \"@openzeppelin/contracts/token/ERC721/extensions/ERC721Enumerable.sol\":5153:5171  _ownedTokens[from] */\n                  swap1\n                  dup2\n                  mstore\n                    /* \"@openzeppelin/contracts/token/ERC721/extensions/ERC721Enumerable.sol\":5153:5165  _ownedTokens */\n                  0x06\n                    /* \"@openzeppelin/contracts/token/ERC721/extensions/ERC721Enumerable.sol\":5153:5171  _ownedTokens[from] */\n                  0x20\n                  swap1\n                  dup2\n                  mstore\n                  0x40\n                  dup1\n                  dup4\n                  keccak256\n                    /* \"@openzeppelin/contracts/token/ERC721/extensions/ERC721Enumerable.sol\":5153:5187  _ownedTokens[from][lastTokenIndex] */\n                  dup6\n                  dup5\n                  mstore\n                  dup3\n                  mstore\n                  dup1\n                  dup4\n                  keccak256\n                  sload\n                    /* \"@openzeppelin/contracts/token/ERC721/extensions/ERC721Enumerable.sol\":5202:5232  _ownedTokens[from][tokenIndex] */\n                  dup5\n                  dup5\n                  mstore\n                  dup2\n                  dup5\n                  keccak256\n                    /* \"@openzeppelin/contracts/token/ERC721/extensions/ERC721Enumerable.sol\":5202:5246  _ownedTokens[from][tokenIndex] = lastTokenId */\n                  dup2\n                  swap1\n                  sstore\n                    /* \"@openzeppelin/contracts/token/ERC721/extensions/ERC721Enumerable.sol\":5318:5348  _ownedTokensIndex[lastTokenId] */\n                  dup4\n                  mstore\n                    /* \"@openzeppelin/contracts/token/ERC721/extensions/ERC721Enumerable.sol\":5318:5335  _ownedTokensIndex */\n                  0x07\n                    /* \"@openzeppelin/contracts/token/ERC721/extensions/ERC721Enumerable.sol\":5318:5348  _ownedTokensIndex[lastTokenId] */\n                  swap1\n                  swap2\n                  mstore\n                  swap1\n                  keccak256\n                    /* \"@openzeppelin/contracts/token/ERC721/extensions/ERC721Enumerable.sol\":5318:5361  _ownedTokensIndex[lastTokenId] = tokenIndex */\n                  dup2\n                  swap1\n                  sstore\n                    /* \"@openzeppelin/contracts/token/ERC721/extensions/ERC721Enumerable.sol\":5083:5406  if (tokenIndex != lastTokenIndex) {... */\n                tag_325:\n                  pop\n                    /* \"@openzeppelin/contracts/token/ERC721/extensions/ERC721Enumerable.sol\":5499:5525  _ownedTokensIndex[tokenId] */\n                  0x00\n                  swap2\n                  dup3\n                  mstore\n                    /* \"@openzeppelin/contracts/token/ERC721/extensions/ERC721Enumerable.sol\":5499:5516  _ownedTokensIndex */\n                  0x07\n                    /* \"@openzeppelin/contracts/token/ERC721/extensions/ERC721Enumerable.sol\":5499:5525  _ownedTokensIndex[tokenId] */\n                  0x20\n                  swap1\n                  dup2\n                  mstore\n                  0x40\n                  dup1\n                  dup5\n                  keccak256\n                    /* \"@openzeppelin/contracts/token/ERC721/extensions/ERC721Enumerable.sol\":5492:5525  delete _ownedTokensIndex[tokenId] */\n                  dup5\n                  swap1\n                  sstore\n                  sub(shl(0xa0, 0x01), 0x01)\n                    /* \"@openzeppelin/contracts/token/ERC721/extensions/ERC721Enumerable.sol\":5542:5560  _ownedTokens[from] */\n                  swap1\n                  swap5\n                  and\n                  dup4\n                  mstore\n                    /* \"@openzeppelin/contracts/token/ERC721/extensions/ERC721Enumerable.sol\":5542:5554  _ownedTokens */\n                  0x06\n                    /* \"@openzeppelin/contracts/token/ERC721/extensions/ERC721Enumerable.sol\":5542:5560  _ownedTokens[from] */\n                  dup2\n                  mstore\n                  dup4\n                  dup4\n                  keccak256\n                    /* \"@openzeppelin/contracts/token/ERC721/extensions/ERC721Enumerable.sol\":5542:5576  _ownedTokens[from][lastTokenIndex] */\n                  swap2\n                  dup4\n                  mstore\n                  mstore\n                  swap1\n                  dup2\n                  keccak256\n                    /* \"@openzeppelin/contracts/token/ERC721/extensions/ERC721Enumerable.sol\":5535:5576  delete _ownedTokens[from][lastTokenIndex] */\n                  sstore\n                    /* \"@openzeppelin/contracts/token/ERC721/extensions/ERC721Enumerable.sol\":4624:5583  function _removeTokenFromOwnerEnumeration(address from, uint256 tokenId) private {... */\n                  jump\t// out\n                    /* \"@openzeppelin/contracts/token/ERC721/extensions/ERC721Enumerable.sol\":5871:6932  function _removeTokenFromAllTokensEnumeration(uint256 tokenId) private {... */\n                tag_290:\n                    /* \"@openzeppelin/contracts/token/ERC721/extensions/ERC721Enumerable.sol\":6145:6155  _allTokens */\n                  0x08\n                    /* \"@openzeppelin/contracts/token/ERC721/extensions/ERC721Enumerable.sol\":6145:6162  _allTokens.length */\n                  sload\n                    /* \"@openzeppelin/contracts/token/ERC721/extensions/ERC721Enumerable.sol\":6120:6142  uint256 lastTokenIndex */\n                  0x00\n                  swap1\n                    /* \"@openzeppelin/contracts/token/ERC721/extensions/ERC721Enumerable.sol\":6145:6166  _allTokens.length - 1 */\n                  tag_327\n                  swap1\n                    /* \"@openzeppelin/contracts/token/ERC721/extensions/ERC721Enumerable.sol\":6165:6166  1 */\n                  0x01\n                  swap1\n                    /* \"@openzeppelin/contracts/token/ERC721/extensions/ERC721Enumerable.sol\":6145:6166  _allTokens.length - 1 */\n                  tag_328\n                  jump\t// in\n                tag_327:\n                    /* \"@openzeppelin/contracts/token/ERC721/extensions/ERC721Enumerable.sol\":6176:6194  uint256 tokenIndex */\n                  0x00\n                    /* \"@openzeppelin/contracts/token/ERC721/extensions/ERC721Enumerable.sol\":6197:6221  _allTokensIndex[tokenId] */\n                  dup4\n                  dup2\n                  mstore\n                    /* \"@openzeppelin/contracts/token/ERC721/extensions/ERC721Enumerable.sol\":6197:6212  _allTokensIndex */\n                  0x09\n                    /* \"@openzeppelin/contracts/token/ERC721/extensions/ERC721Enumerable.sol\":6197:6221  _allTokensIndex[tokenId] */\n                  0x20\n                  mstore\n                  0x40\n                  dup2\n                  keccak256\n                  sload\n                    /* \"@openzeppelin/contracts/token/ERC721/extensions/ERC721Enumerable.sol\":6565:6575  _allTokens */\n                  0x08\n                    /* \"@openzeppelin/contracts/token/ERC721/extensions/ERC721Enumerable.sol\":6565:6591  _allTokens[lastTokenIndex] */\n                  dup1\n                  sload\n                    /* \"@openzeppelin/contracts/token/ERC721/extensions/ERC721Enumerable.sol\":6120:6166  uint256 lastTokenIndex = _allTokens.length - 1 */\n                  swap4\n                  swap5\n                  pop\n                    /* \"@openzeppelin/contracts/token/ERC721/extensions/ERC721Enumerable.sol\":6197:6221  _allTokensIndex[tokenId] */\n                  swap1\n                  swap3\n                    /* \"@openzeppelin/contracts/token/ERC721/extensions/ERC721Enumerable.sol\":6120:6166  uint256 lastTokenIndex = _allTokens.length - 1 */\n                  dup5\n                  swap1\n                    /* \"@openzeppelin/contracts/token/ERC721/extensions/ERC721Enumerable.sol\":6565:6591  _allTokens[lastTokenIndex] */\n                  dup2\n                  lt\n                  tag_330\n                  jumpi\n                  tag_330\n                  tag_146\n                  jump\t// in\n                tag_330:\n                  swap1\n                  0x00\n                  mstore\n                  keccak256(0x00, 0x20)\n                  add\n                  sload\n                    /* \"@openzeppelin/contracts/token/ERC721/extensions/ERC721Enumerable.sol\":6543:6591  uint256 lastTokenId = _allTokens[lastTokenIndex] */\n                  swap1\n                  pop\n                    /* \"@openzeppelin/contracts/token/ERC721/extensions/ERC721Enumerable.sol\":6627:6638  lastTokenId */\n                  dup1\n                    /* \"@openzeppelin/contracts/token/ERC721/extensions/ERC721Enumerable.sol\":6602:6612  _allTokens */\n                  0x08\n                    /* \"@openzeppelin/contracts/token/ERC721/extensions/ERC721Enumerable.sol\":6613:6623  tokenIndex */\n                  dup4\n                    /* \"@openzeppelin/contracts/token/ERC721/extensions/ERC721Enumerable.sol\":6602:6624  _allTokens[tokenIndex] */\n                  dup2\n                  sload\n                  dup2\n                  lt\n                  tag_333\n                  jumpi\n                  tag_333\n                  tag_146\n                  jump\t// in\n                tag_333:\n                  0x00\n                  swap2\n                  dup3\n                  mstore\n                  0x20\n                  dup1\n                  dup4\n                  keccak256\n                  swap1\n                  swap2\n                  add\n                    /* \"@openzeppelin/contracts/token/ERC721/extensions/ERC721Enumerable.sol\":6602:6638  _allTokens[tokenIndex] = lastTokenId */\n                  swap3\n                  swap1\n                  swap3\n                  sstore\n                    /* \"@openzeppelin/contracts/token/ERC721/extensions/ERC721Enumerable.sol\":6706:6734  _allTokensIndex[lastTokenId] */\n                  dup3\n                  dup2\n                  mstore\n                    /* \"@openzeppelin/contracts/token/ERC721/extensions/ERC721Enumerable.sol\":6706:6721  _allTokensIndex */\n                  0x09\n                    /* \"@openzeppelin/contracts/token/ERC721/extensions/ERC721Enumerable.sol\":6706:6734  _allTokensIndex[lastTokenId] */\n                  swap1\n                  swap2\n                  mstore\n                  0x40\n                  dup1\n                  dup3\n                  keccak256\n                    /* \"@openzeppelin/contracts/token/ERC721/extensions/ERC721Enumerable.sol\":6706:6747  _allTokensIndex[lastTokenId] = tokenIndex */\n                  dup5\n                  swap1\n                  sstore\n                    /* \"@openzeppelin/contracts/token/ERC721/extensions/ERC721Enumerable.sol\":6875:6899  _allTokensIndex[tokenId] */\n                  dup6\n                  dup3\n                  mstore\n                  dup2\n                  keccak256\n                    /* \"@openzeppelin/contracts/token/ERC721/extensions/ERC721Enumerable.sol\":6868:6899  delete _allTokensIndex[tokenId] */\n                  sstore\n                    /* \"@openzeppelin/contracts/token/ERC721/extensions/ERC721Enumerable.sol\":6909:6919  _allTokens */\n                  0x08\n                    /* \"@openzeppelin/contracts/token/ERC721/extensions/ERC721Enumerable.sol\":6909:6925  _allTokens.pop() */\n                  dup1\n                  sload\n                  dup1\n                  tag_336\n                  jumpi\n                  tag_336\n                  tag_337\n                  jump\t// in\n                tag_336:\n                  0x01\n                  swap1\n                  sub\n                  dup2\n                  dup2\n                  swap1\n                  0x00\n                  mstore\n                  keccak256(0x00, 0x20)\n                  add\n                  0x00\n                  swap1\n                  sstore\n                  swap1\n                  sstore\n                    /* \"@openzeppelin/contracts/token/ERC721/extensions/ERC721Enumerable.sol\":5942:6932  {... */\n                  pop\n                  pop\n                  pop\n                    /* \"@openzeppelin/contracts/token/ERC721/extensions/ERC721Enumerable.sol\":5871:6932  function _removeTokenFromAllTokensEnumeration(uint256 tokenId) private {... */\n                  pop\n                  jump\t// out\n                    /* \"@openzeppelin/contracts/token/ERC721/extensions/ERC721Enumerable.sol\":3437:3651  function _addTokenToOwnerEnumeration(address to, uint256 tokenId) private {... */\n                tag_294:\n                    /* \"@openzeppelin/contracts/token/ERC721/extensions/ERC721Enumerable.sol\":3521:3535  uint256 length */\n                  0x00\n                    /* \"@openzeppelin/contracts/token/ERC721/extensions/ERC721Enumerable.sol\":3554:3555  1 */\n                  0x01\n                    /* \"@openzeppelin/contracts/token/ERC721/extensions/ERC721Enumerable.sol\":3538:3551  balanceOf(to) */\n                  tag_340\n                    /* \"@openzeppelin/contracts/token/ERC721/extensions/ERC721Enumerable.sol\":3548:3550  to */\n                  dup5\n                    /* \"@openzeppelin/contracts/token/ERC721/extensions/ERC721Enumerable.sol\":3538:3547  balanceOf */\n                  tag_69\n                    /* \"@openzeppelin/contracts/token/ERC721/extensions/ERC721Enumerable.sol\":3538:3551  balanceOf(to) */\n                  jump\t// in\n                tag_340:\n                    /* \"@openzeppelin/contracts/token/ERC721/extensions/ERC721Enumerable.sol\":3538:3555  balanceOf(to) - 1 */\n                  tag_341\n                  swap2\n                  swap1\n                  tag_328\n                  jump\t// in\n                tag_341:\n                  sub(shl(0xa0, 0x01), 0x01)\n                    /* \"@openzeppelin/contracts/token/ERC721/extensions/ERC721Enumerable.sol\":3565:3581  _ownedTokens[to] */\n                  swap1\n                  swap4\n                  and\n                  0x00\n                  swap1\n                  dup2\n                  mstore\n                    /* \"@openzeppelin/contracts/token/ERC721/extensions/ERC721Enumerable.sol\":3565:3577  _ownedTokens */\n                  0x06\n                    /* \"@openzeppelin/contracts/token/ERC721/extensions/ERC721Enumerable.sol\":3565:3581  _ownedTokens[to] */\n                  0x20\n                  swap1\n                  dup2\n                  mstore\n                  0x40\n                  dup1\n                  dup4\n                  keccak256\n                    /* \"@openzeppelin/contracts/token/ERC721/extensions/ERC721Enumerable.sol\":3565:3589  _ownedTokens[to][length] */\n                  dup7\n                  dup5\n                  mstore\n                  dup3\n                  mstore\n                  dup1\n                  dup4\n                  keccak256\n                    /* \"@openzeppelin/contracts/token/ERC721/extensions/ERC721Enumerable.sol\":3565:3599  _ownedTokens[to][length] = tokenId */\n                  dup6\n                  swap1\n                  sstore\n                    /* \"@openzeppelin/contracts/token/ERC721/extensions/ERC721Enumerable.sol\":3609:3635  _ownedTokensIndex[tokenId] */\n                  swap4\n                  dup3\n                  mstore\n                    /* \"@openzeppelin/contracts/token/ERC721/extensions/ERC721Enumerable.sol\":3609:3626  _ownedTokensIndex */\n                  0x07\n                    /* \"@openzeppelin/contracts/token/ERC721/extensions/ERC721Enumerable.sol\":3609:3635  _ownedTokensIndex[tokenId] */\n                  swap1\n                  mstore\n                  swap2\n                  swap1\n                  swap2\n                  keccak256\n                    /* \"@openzeppelin/contracts/token/ERC721/extensions/ERC721Enumerable.sol\":3609:3644  _ownedTokensIndex[tokenId] = length */\n                  swap2\n                  swap1\n                  swap2\n                  sstore\n                  pop\n                    /* \"@openzeppelin/contracts/token/ERC721/extensions/ERC721Enumerable.sol\":3437:3651  function _addTokenToOwnerEnumeration(address to, uint256 tokenId) private {... */\n                  jump\t// out\n                    /* \"@openzeppelin/contracts/utils/Strings.sol\":637:1335  function toString(uint256 value) internal pure returns (string memory) {... */\n                tag_302:\n                    /* \"@openzeppelin/contracts/utils/Strings.sol\":693:706  string memory */\n                  0x60\n                    /* \"@openzeppelin/contracts/utils/Strings.sol\":742:756  uint256 length */\n                  0x00\n                    /* \"@openzeppelin/contracts/utils/Strings.sol\":759:776  Math.log10(value) */\n                  tag_343\n                    /* \"@openzeppelin/contracts/utils/Strings.sol\":770:775  value */\n                  dup4\n                    /* \"@openzeppelin/contracts/utils/Strings.sol\":759:769  Math.log10 */\n                  tag_344\n                    /* \"@openzeppelin/contracts/utils/Strings.sol\":759:776  Math.log10(value) */\n                  jump\t// in\n                tag_343:\n                    /* \"@openzeppelin/contracts/utils/Strings.sol\":779:780  1 */\n                  0x01\n                    /* \"@openzeppelin/contracts/utils/Strings.sol\":759:780  Math.log10(value) + 1 */\n                  add\n                    /* \"@openzeppelin/contracts/utils/Strings.sol\":742:780  uint256 length = Math.log10(value) + 1 */\n                  swap1\n                  pop\n                    /* \"@openzeppelin/contracts/utils/Strings.sol\":794:814  string memory buffer */\n                  0x00\n                    /* \"@openzeppelin/contracts/utils/Strings.sol\":828:834  length */\n                  dup2\n                  sub(shl(0x40, 0x01), 0x01)\n                    /* \"@openzeppelin/contracts/utils/Strings.sol\":817:835  new string(length) */\n                  dup2\n                  gt\n                  iszero\n                  tag_346\n                  jumpi\n                  tag_346\n                  tag_347\n                  jump\t// in\n                tag_346:\n                  mload(0x40)\n                  swap1\n                  dup1\n                  dup3\n                  mstore\n                  dup1\n                  0x1f\n                  add\n                  not(0x1f)\n                  and\n                  0x20\n                  add\n                  dup3\n                  add\n                  0x40\n                  mstore\n                  dup1\n                  iszero\n                  tag_348\n                  jumpi\n                  0x20\n                  dup3\n                  add\n                  dup2\n                  dup1\n                  calldatasize\n                  dup4\n                  calldatacopy\n                  add\n                  swap1\n                  pop\n                tag_348:\n                  pop\n                    /* \"@openzeppelin/contracts/utils/Strings.sol\":794:835  string memory buffer = new string(length) */\n                  swap1\n                  pop\n                    /* \"@openzeppelin/contracts/utils/Strings.sol\":955:983  add(buffer, add(32, length)) */\n                  dup2\n                  dup2\n                  add\n                    /* \"@openzeppelin/contracts/utils/Strings.sol\":971:973  32 */\n                  0x20\n                    /* \"@openzeppelin/contracts/utils/Strings.sol\":955:983  add(buffer, add(32, length)) */\n                  add\n                    /* \"@openzeppelin/contracts/utils/Strings.sol\":1010:1292  while (true) {... */\n                tag_349:\n                  not(0x00)\n                    /* \"@openzeppelin/contracts/utils/Strings.sol\":1041:1046  ptr-- */\n                  add\n                  shl(0x81, 0x181899199a1a9b1b9c1cb0b131b232b3)\n                    /* \"@openzeppelin/contracts/utils/Strings.sol\":1175:1177  10 */\n                  0x0a\n                    /* \"@openzeppelin/contracts/utils/Strings.sol\":1164:1178  mod(value, 10) */\n                  dup7\n                  mod\n                    /* \"@openzeppelin/contracts/utils/Strings.sol\":1159:1191  byte(mod(value, 10), HEX_DIGITS) */\n                  byte\n                    /* \"@openzeppelin/contracts/utils/Strings.sol\":1041:1046  ptr-- */\n                  dup2\n                    /* \"@openzeppelin/contracts/utils/Strings.sol\":1146:1192  mstore8(ptr, byte(mod(value, 10), HEX_DIGITS)) */\n                  mstore8\n                    /* \"@openzeppelin/contracts/utils/Strings.sol\":1236:1238  10 */\n                  0x0a\n                    /* \"@openzeppelin/contracts/utils/Strings.sol\":1227:1238  value /= 10 */\n                  dup6\n                  div\n                  swap5\n                  pop\n                    /* \"@openzeppelin/contracts/utils/Strings.sol\":1256:1277  if (value == 0) break */\n                  dup5\n                    /* \"@openzeppelin/contracts/utils/Strings.sol\":1010:1292  while (true) {... */\n                  tag_349\n                    /* \"@openzeppelin/contracts/utils/Strings.sol\":1256:1277  if (value == 0) break */\n                  jumpi\n                  pop\n                    /* \"@openzeppelin/contracts/utils/Strings.sol\":1312:1318  buffer */\n                  swap4\n                    /* \"@openzeppelin/contracts/utils/Strings.sol\":637:1335  function toString(uint256 value) internal pure returns (string memory) {... */\n                  swap3\n                  pop\n                  pop\n                  pop\n                  jump\t// out\n                    /* \"@openzeppelin/contracts/token/ERC721/ERC721.sol\":9955:10282  function _mint(address to, uint256 tokenId) internal {... */\n                tag_306:\n                  sub(shl(0xa0, 0x01), 0x01)\n                    /* \"@openzeppelin/contracts/token/ERC721/ERC721.sol\":10022:10038  to == address(0) */\n                  dup3\n                  and\n                    /* \"@openzeppelin/contracts/token/ERC721/ERC721.sol\":10018:10105  if (to == address(0)) {... */\n                  tag_356\n                  jumpi\n                    /* \"@openzeppelin/contracts/token/ERC721/ERC721.sol\":10091:10092  0 */\n                  0x00\n                    /* \"@openzeppelin/contracts/token/ERC721/ERC721.sol\":10061:10094  ERC721InvalidReceiver(address(0)) */\n                  mload(0x40)\n                  shl(0xe1, 0x32505749)\n                  dup2\n                  mstore\n                  0x04\n                  add\n                  tag_126\n                  swap2\n                  swap1\n                  tag_38\n                  jump\t// in\n                    /* \"@openzeppelin/contracts/token/ERC721/ERC721.sol\":10018:10105  if (to == address(0)) {... */\n                tag_356:\n                    /* \"@openzeppelin/contracts/token/ERC721/ERC721.sol\":10114:10135  address previousOwner */\n                  0x00\n                    /* \"@openzeppelin/contracts/token/ERC721/ERC721.sol\":10138:10170  _update(to, tokenId, address(0)) */\n                  tag_358\n                    /* \"@openzeppelin/contracts/token/ERC721/ERC721.sol\":10146:10148  to */\n                  dup4\n                    /* \"@openzeppelin/contracts/token/ERC721/ERC721.sol\":10150:10157  tokenId */\n                  dup4\n                    /* \"@openzeppelin/contracts/token/ERC721/ERC721.sol\":10167:10168  0 */\n                  0x00\n                    /* \"@openzeppelin/contracts/token/ERC721/ERC721.sol\":10138:10145  _update */\n                  tag_129\n                    /* \"@openzeppelin/contracts/token/ERC721/ERC721.sol\":10138:10170  _update(to, tokenId, address(0)) */\n                  jump\t// in\n                tag_358:\n                    /* \"@openzeppelin/contracts/token/ERC721/ERC721.sol\":10114:10170  address previousOwner = _update(to, tokenId, address(0)) */\n                  swap1\n                  pop\n                  sub(shl(0xa0, 0x01), 0x01)\n                    /* \"@openzeppelin/contracts/token/ERC721/ERC721.sol\":10184:10211  previousOwner != address(0) */\n                  dup2\n                  and\n                  iszero\n                    /* \"@openzeppelin/contracts/token/ERC721/ERC721.sol\":10180:10276  if (previousOwner != address(0)) {... */\n                  tag_139\n                  jumpi\n                    /* \"@openzeppelin/contracts/token/ERC721/ERC721.sol\":10262:10263  0 */\n                  0x00\n                    /* \"@openzeppelin/contracts/token/ERC721/ERC721.sol\":10234:10265  ERC721InvalidSender(address(0)) */\n                  mload(0x40)\n                  shl(0xe1, 0x39e35637)\n                  dup2\n                  mstore\n                  0x04\n                  add\n                  tag_126\n                  swap2\n                  swap1\n                  tag_38\n                  jump\t// in\n                    /* \"@openzeppelin/contracts/token/ERC721/ERC721.sol\":7082:7450  function _checkAuthorized(address owner, address spender, uint256 tokenId) internal view virtual {... */\n                tag_317:\n                    /* \"@openzeppelin/contracts/token/ERC721/ERC721.sol\":7194:7232  _isAuthorized(owner, spender, tokenId) */\n                  tag_363\n                    /* \"@openzeppelin/contracts/token/ERC721/ERC721.sol\":7208:7213  owner */\n                  dup4\n                    /* \"@openzeppelin/contracts/token/ERC721/ERC721.sol\":7215:7222  spender */\n                  dup4\n                    /* \"@openzeppelin/contracts/token/ERC721/ERC721.sol\":7224:7231  tokenId */\n                  dup4\n                    /* \"@openzeppelin/contracts/token/ERC721/ERC721.sol\":7194:7207  _isAuthorized */\n                  tag_364\n                    /* \"@openzeppelin/contracts/token/ERC721/ERC721.sol\":7194:7232  _isAuthorized(owner, spender, tokenId) */\n                  jump\t// in\n                tag_363:\n                    /* \"@openzeppelin/contracts/token/ERC721/ERC721.sol\":7189:7444  if (!_isAuthorized(owner, spender, tokenId)) {... */\n                  tag_139\n                  jumpi\n                  sub(shl(0xa0, 0x01), 0x01)\n                    /* \"@openzeppelin/contracts/token/ERC721/ERC721.sol\":7252:7271  owner == address(0) */\n                  dup4\n                  and\n                    /* \"@openzeppelin/contracts/token/ERC721/ERC721.sol\":7248:7434  if (owner == address(0)) {... */\n                  tag_366\n                  jumpi\n                    /* \"@openzeppelin/contracts/token/ERC721/ERC721.sol\":7298:7329  ERC721NonexistentToken(tokenId) */\n                  mload(0x40)\n                  shl(0xe0, 0x7e273289)\n                  dup2\n                  mstore\n                  0x04\n                  dup2\n                  add\n                    /* \"#utility.yul\":2324:2349   */\n                  dup3\n                  swap1\n                  mstore\n                    /* \"#utility.yul\":2297:2315   */\n                  0x24\n                  add\n                    /* \"@openzeppelin/contracts/token/ERC721/ERC721.sol\":7298:7329  ERC721NonexistentToken(tokenId) */\n                  tag_126\n                    /* \"#utility.yul\":2178:2355   */\n                  jump\n                    /* \"@openzeppelin/contracts/token/ERC721/ERC721.sol\":7248:7434  if (owner == address(0)) {... */\n                tag_366:\n                    /* \"@openzeppelin/contracts/token/ERC721/ERC721.sol\":7402:7409  spender */\n                  dup2\n                    /* \"@openzeppelin/contracts/token/ERC721/ERC721.sol\":7411:7418  tokenId */\n                  dup2\n                    /* \"@openzeppelin/contracts/token/ERC721/ERC721.sol\":7375:7419  ERC721InsufficientApproval(spender, tokenId) */\n                  mload(0x40)\n                  shl(0xe0, 0x177e802f)\n                  dup2\n                  mstore\n                  0x04\n                  add\n                  tag_126\n                  swap3\n                  swap2\n                  swap1\n                  tag_137\n                  jump\t// in\n                    /* \"@openzeppelin/contracts/utils/math/Math.sol\":12214:13130  function log10(uint256 value) internal pure returns (uint256) {... */\n                tag_344:\n                    /* \"@openzeppelin/contracts/utils/math/Math.sol\":12267:12274  uint256 */\n                  0x00\n                  dup1\n                  shl(0x40, 0x184f03e93ff9f4daa797ed6e38ed64bf6a1f01)\n                    /* \"@openzeppelin/contracts/utils/math/Math.sol\":12342:12359  value >= 10 ** 64 */\n                  dup4\n                  lt\n                    /* \"@openzeppelin/contracts/utils/math/Math.sol\":12338:12441  if (value >= 10 ** 64) {... */\n                  tag_371\n                  jumpi\n                  shl(0x40, 0x184f03e93ff9f4daa797ed6e38ed64bf6a1f01)\n                    /* \"@openzeppelin/contracts/utils/math/Math.sol\":12379:12396  value /= 10 ** 64 */\n                  dup4\n                  div\n                  swap3\n                  pop\n                    /* \"@openzeppelin/contracts/utils/math/Math.sol\":12424:12426  64 */\n                  0x40\n                    /* \"@openzeppelin/contracts/utils/math/Math.sol\":12414:12426  result += 64 */\n                  add\n                    /* \"@openzeppelin/contracts/utils/math/Math.sol\":12338:12441  if (value >= 10 ** 64) {... */\n                tag_371:\n                  shl(0x20, 0x04ee2d6d415b85acef81)\n                    /* \"@openzeppelin/contracts/utils/math/Math.sol\":12458:12463  value */\n                  dup4\n                    /* \"@openzeppelin/contracts/utils/math/Math.sol\":12458:12475  value >= 10 ** 32 */\n                  lt\n                    /* \"@openzeppelin/contracts/utils/math/Math.sol\":12454:12557  if (value >= 10 ** 32) {... */\n                  tag_374\n                  jumpi\n                  shl(0x20, 0x04ee2d6d415b85acef81)\n                    /* \"@openzeppelin/contracts/utils/math/Math.sol\":12495:12512  value /= 10 ** 32 */\n                  dup4\n                  div\n                  swap3\n                  pop\n                    /* \"@openzeppelin/contracts/utils/math/Math.sol\":12540:12542  32 */\n                  0x20\n                    /* \"@openzeppelin/contracts/utils/math/Math.sol\":12530:12542  result += 32 */\n                  add\n                    /* \"@openzeppelin/contracts/utils/math/Math.sol\":12454:12557  if (value >= 10 ** 32) {... */\n                tag_374:\n                    /* \"@openzeppelin/contracts/utils/math/Math.sol\":12583:12591  10 ** 16 */\n                  0x2386f26fc10000\n                    /* \"@openzeppelin/contracts/utils/math/Math.sol\":12574:12579  value */\n                  dup4\n                    /* \"@openzeppelin/contracts/utils/math/Math.sol\":12574:12591  value >= 10 ** 16 */\n                  lt\n                    /* \"@openzeppelin/contracts/utils/math/Math.sol\":12570:12673  if (value >= 10 ** 16) {... */\n                  tag_377\n                  jumpi\n                    /* \"@openzeppelin/contracts/utils/math/Math.sol\":12620:12628  10 ** 16 */\n                  0x2386f26fc10000\n                    /* \"@openzeppelin/contracts/utils/math/Math.sol\":12611:12628  value /= 10 ** 16 */\n                  dup4\n                  div\n                  swap3\n                  pop\n                    /* \"@openzeppelin/contracts/utils/math/Math.sol\":12656:12658  16 */\n                  0x10\n                    /* \"@openzeppelin/contracts/utils/math/Math.sol\":12646:12658  result += 16 */\n                  add\n                    /* \"@openzeppelin/contracts/utils/math/Math.sol\":12570:12673  if (value >= 10 ** 16) {... */\n                tag_377:\n                    /* \"@openzeppelin/contracts/utils/math/Math.sol\":12699:12706  10 ** 8 */\n                  0x05f5e100\n                    /* \"@openzeppelin/contracts/utils/math/Math.sol\":12690:12695  value */\n                  dup4\n                    /* \"@openzeppelin/contracts/utils/math/Math.sol\":12690:12706  value >= 10 ** 8 */\n                  lt\n                    /* \"@openzeppelin/contracts/utils/math/Math.sol\":12686:12786  if (value >= 10 ** 8) {... */\n                  tag_380\n                  jumpi\n                    /* \"@openzeppelin/contracts/utils/math/Math.sol\":12735:12742  10 ** 8 */\n                  0x05f5e100\n                    /* \"@openzeppelin/contracts/utils/math/Math.sol\":12726:12742  value /= 10 ** 8 */\n                  dup4\n                  div\n                  swap3\n                  pop\n                    /* \"@openzeppelin/contracts/utils/math/Math.sol\":12770:12771  8 */\n                  0x08\n                    /* \"@openzeppelin/contracts/utils/math/Math.sol\":12760:12771  result += 8 */\n                  add\n                    /* \"@openzeppelin/contracts/utils/math/Math.sol\":12686:12786  if (value >= 10 ** 8) {... */\n                tag_380:\n                    /* \"@openzeppelin/contracts/utils/math/Math.sol\":12812:12819  10 ** 4 */\n                  0x2710\n                    /* \"@openzeppelin/contracts/utils/math/Math.sol\":12803:12808  value */\n                  dup4\n                    /* \"@openzeppelin/contracts/utils/math/Math.sol\":12803:12819  value >= 10 ** 4 */\n                  lt\n                    /* \"@openzeppelin/contracts/utils/math/Math.sol\":12799:12899  if (value >= 10 ** 4) {... */\n                  tag_383\n                  jumpi\n                    /* \"@openzeppelin/contracts/utils/math/Math.sol\":12848:12855  10 ** 4 */\n                  0x2710\n                    /* \"@openzeppelin/contracts/utils/math/Math.sol\":12839:12855  value /= 10 ** 4 */\n                  dup4\n                  div\n                  swap3\n                  pop\n                    /* \"@openzeppelin/contracts/utils/math/Math.sol\":12883:12884  4 */\n                  0x04\n                    /* \"@openzeppelin/contracts/utils/math/Math.sol\":12873:12884  result += 4 */\n                  add\n                    /* \"@openzeppelin/contracts/utils/math/Math.sol\":12799:12899  if (value >= 10 ** 4) {... */\n                tag_383:\n                    /* \"@openzeppelin/contracts/utils/math/Math.sol\":12925:12932  10 ** 2 */\n                  0x64\n                    /* \"@openzeppelin/contracts/utils/math/Math.sol\":12916:12921  value */\n                  dup4\n                    /* \"@openzeppelin/contracts/utils/math/Math.sol\":12916:12932  value >= 10 ** 2 */\n                  lt\n                    /* \"@openzeppelin/contracts/utils/math/Math.sol\":12912:13012  if (value >= 10 ** 2) {... */\n                  tag_386\n                  jumpi\n                    /* \"@openzeppelin/contracts/utils/math/Math.sol\":12961:12968  10 ** 2 */\n                  0x64\n                    /* \"@openzeppelin/contracts/utils/math/Math.sol\":12952:12968  value /= 10 ** 2 */\n                  dup4\n                  div\n                  swap3\n                  pop\n                    /* \"@openzeppelin/contracts/utils/math/Math.sol\":12996:12997  2 */\n                  0x02\n                    /* \"@openzeppelin/contracts/utils/math/Math.sol\":12986:12997  result += 2 */\n                  add\n                    /* \"@openzeppelin/contracts/utils/math/Math.sol\":12912:13012  if (value >= 10 ** 2) {... */\n                tag_386:\n                    /* \"@openzeppelin/contracts/utils/math/Math.sol\":13038:13045  10 ** 1 */\n                  0x0a\n                    /* \"@openzeppelin/contracts/utils/math/Math.sol\":13029:13034  value */\n                  dup4\n                    /* \"@openzeppelin/contracts/utils/math/Math.sol\":13029:13045  value >= 10 ** 1 */\n                  lt\n                    /* \"@openzeppelin/contracts/utils/math/Math.sol\":13025:13091  if (value >= 10 ** 1) {... */\n                  tag_104\n                  jumpi\n                    /* \"@openzeppelin/contracts/utils/math/Math.sol\":13075:13076  1 */\n                  0x01\n                    /* \"@openzeppelin/contracts/utils/math/Math.sol\":13065:13076  result += 1 */\n                  add\n                    /* \"@openzeppelin/contracts/utils/math/Math.sol\":13117:13123  result */\n                  swap3\n                    /* \"@openzeppelin/contracts/utils/math/Math.sol\":12214:13130  function log10(uint256 value) internal pure returns (uint256) {... */\n                  swap2\n                  pop\n                  pop\n                  jump\t// out\n                    /* \"@openzeppelin/contracts/token/ERC721/ERC721.sol\":6376:6648  function _isAuthorized(address owner, address spender, uint256 tokenId) internal view virtual returns (bool) {... */\n                tag_364:\n                    /* \"@openzeppelin/contracts/token/ERC721/ERC721.sol\":6479:6483  bool */\n                  0x00\n                  sub(shl(0xa0, 0x01), 0x01)\n                    /* \"@openzeppelin/contracts/token/ERC721/ERC721.sol\":6514:6535  spender != address(0) */\n                  dup4\n                  and\n                  iszero\n                  dup1\n                  iszero\n                  swap1\n                    /* \"@openzeppelin/contracts/token/ERC721/ERC721.sol\":6514:6641  spender != address(0) &&... */\n                  tag_208\n                  jumpi\n                  pop\n                    /* \"@openzeppelin/contracts/token/ERC721/ERC721.sol\":6561:6568  spender */\n                  dup3\n                  sub(shl(0xa0, 0x01), 0x01)\n                    /* \"@openzeppelin/contracts/token/ERC721/ERC721.sol\":6552:6568  owner == spender */\n                  and\n                    /* \"@openzeppelin/contracts/token/ERC721/ERC721.sol\":6552:6557  owner */\n                  dup5\n                  sub(shl(0xa0, 0x01), 0x01)\n                    /* \"@openzeppelin/contracts/token/ERC721/ERC721.sol\":6552:6568  owner == spender */\n                  and\n                  eq\n                    /* \"@openzeppelin/contracts/token/ERC721/ERC721.sol\":6552:6604  owner == spender || isApprovedForAll(owner, spender) */\n                  dup1\n                  tag_393\n                  jumpi\n                  pop\n                    /* \"@openzeppelin/contracts/token/ERC721/ERC721.sol\":6572:6604  isApprovedForAll(owner, spender) */\n                  tag_393\n                    /* \"@openzeppelin/contracts/token/ERC721/ERC721.sol\":6589:6594  owner */\n                  dup5\n                    /* \"@openzeppelin/contracts/token/ERC721/ERC721.sol\":6596:6603  spender */\n                  dup5\n                    /* \"@openzeppelin/contracts/token/ERC721/ERC721.sol\":6572:6588  isApprovedForAll */\n                  tag_98\n                    /* \"@openzeppelin/contracts/token/ERC721/ERC721.sol\":6572:6604  isApprovedForAll(owner, spender) */\n                  jump\t// in\n                tag_393:\n                    /* \"@openzeppelin/contracts/token/ERC721/ERC721.sol\":6552:6640  owner == spender || isApprovedForAll(owner, spender) || _getApproved(tokenId) == spender */\n                  dup1\n                  tag_208\n                  jumpi\n                  pop\n                    /* \"@openzeppelin/contracts/token/ERC721/ERC721.sol\":6633:6640  spender */\n                  dup3\n                  sub(shl(0xa0, 0x01), 0x01)\n                    /* \"@openzeppelin/contracts/token/ERC721/ERC721.sol\":6608:6640  _getApproved(tokenId) == spender */\n                  and\n                    /* \"@openzeppelin/contracts/token/ERC721/ERC721.sol\":6608:6629  _getApproved(tokenId) */\n                  tag_395\n                    /* \"@openzeppelin/contracts/token/ERC721/ERC721.sol\":6621:6628  tokenId */\n                  dup4\n                    /* \"@openzeppelin/contracts/token/ERC721/ERC721.sol\":6608:6620  _getApproved */\n                  tag_117\n                    /* \"@openzeppelin/contracts/token/ERC721/ERC721.sol\":6608:6629  _getApproved(tokenId) */\n                  jump\t// in\n                tag_395:\n                  sub(shl(0xa0, 0x01), 0x01)\n                    /* \"@openzeppelin/contracts/token/ERC721/ERC721.sol\":6608:6640  _getApproved(tokenId) == spender */\n                  and\n                  eq\n                  swap5\n                    /* \"@openzeppelin/contracts/token/ERC721/ERC721.sol\":6376:6648  function _isAuthorized(address owner, address spender, uint256 tokenId) internal view virtual returns (bool) {... */\n                  swap4\n                  pop\n                  pop\n                  pop\n                  pop\n                  jump\t// out\n                    /* \"#utility.yul\":14:145   */\n                tag_396:\n                  not(sub(shl(0xe0, 0x01), 0x01))\n                    /* \"#utility.yul\":88:120   */\n                  dup2\n                  and\n                    /* \"#utility.yul\":78:121   */\n                  dup2\n                  eq\n                    /* \"#utility.yul\":68:139   */\n                  tag_192\n                  jumpi\n                    /* \"#utility.yul\":135:136   */\n                  0x00\n                    /* \"#utility.yul\":132:133   */\n                  dup1\n                    /* \"#utility.yul\":125:137   */\n                  revert\n                    /* \"#utility.yul\":150:395   */\n                tag_25:\n                    /* \"#utility.yul\":208:214   */\n                  0x00\n                    /* \"#utility.yul\":261:263   */\n                  0x20\n                    /* \"#utility.yul\":249:258   */\n                  dup3\n                    /* \"#utility.yul\":240:247   */\n                  dup5\n                    /* \"#utility.yul\":236:259   */\n                  sub\n                    /* \"#utility.yul\":232:264   */\n                  slt\n                    /* \"#utility.yul\":229:281   */\n                  iszero\n                  tag_409\n                  jumpi\n                    /* \"#utility.yul\":277:278   */\n                  0x00\n                    /* \"#utility.yul\":274:275   */\n                  dup1\n                    /* \"#utility.yul\":267:279   */\n                  revert\n                    /* \"#utility.yul\":229:281   */\n                tag_409:\n                    /* \"#utility.yul\":316:325   */\n                  dup2\n                    /* \"#utility.yul\":303:326   */\n                  calldataload\n                    /* \"#utility.yul\":335:365   */\n                  tag_300\n                    /* \"#utility.yul\":359:364   */\n                  dup2\n                    /* \"#utility.yul\":335:365   */\n                  tag_396\n                  jump\t// in\n                    /* \"#utility.yul\":592:842   */\n                tag_397:\n                    /* \"#utility.yul\":677:678   */\n                  0x00\n                    /* \"#utility.yul\":687:800   */\n                tag_413:\n                    /* \"#utility.yul\":701:707   */\n                  dup4\n                    /* \"#utility.yul\":698:699   */\n                  dup2\n                    /* \"#utility.yul\":695:708   */\n                  lt\n                    /* \"#utility.yul\":687:800   */\n                  iszero\n                  tag_415\n                  jumpi\n                    /* \"#utility.yul\":777:788   */\n                  dup2\n                  dup2\n                  add\n                    /* \"#utility.yul\":771:789   */\n                  mload\n                    /* \"#utility.yul\":758:769   */\n                  dup4\n                  dup3\n                  add\n                    /* \"#utility.yul\":751:790   */\n                  mstore\n                    /* \"#utility.yul\":723:725   */\n                  0x20\n                    /* \"#utility.yul\":716:726   */\n                  add\n                    /* \"#utility.yul\":687:800   */\n                  jump(tag_413)\n                tag_415:\n                  pop\n                  pop\n                    /* \"#utility.yul\":834:835   */\n                  0x00\n                    /* \"#utility.yul\":816:832   */\n                  swap2\n                  add\n                    /* \"#utility.yul\":809:836   */\n                  mstore\n                    /* \"#utility.yul\":592:842   */\n                  jump\t// out\n                    /* \"#utility.yul\":847:1118   */\n                tag_398:\n                    /* \"#utility.yul\":889:892   */\n                  0x00\n                    /* \"#utility.yul\":927:932   */\n                  dup2\n                    /* \"#utility.yul\":921:933   */\n                  mload\n                    /* \"#utility.yul\":954:960   */\n                  dup1\n                    /* \"#utility.yul\":949:952   */\n                  dup5\n                    /* \"#utility.yul\":942:961   */\n                  mstore\n                    /* \"#utility.yul\":970:1046   */\n                  tag_417\n                    /* \"#utility.yul\":1039:1045   */\n                  dup2\n                    /* \"#utility.yul\":1032:1036   */\n                  0x20\n                    /* \"#utility.yul\":1027:1030   */\n                  dup7\n                    /* \"#utility.yul\":1023:1037   */\n                  add\n                    /* \"#utility.yul\":1016:1020   */\n                  0x20\n                    /* \"#utility.yul\":1009:1014   */\n                  dup7\n                    /* \"#utility.yul\":1005:1021   */\n                  add\n                    /* \"#utility.yul\":970:1046   */\n                  tag_397\n                  jump\t// in\n                tag_417:\n                    /* \"#utility.yul\":1100:1102   */\n                  0x1f\n                    /* \"#utility.yul\":1079:1094   */\n                  add\n                  not(0x1f)\n                    /* \"#utility.yul\":1075:1104   */\n                  and\n                    /* \"#utility.yul\":1066:1105   */\n                  swap3\n                  swap1\n                  swap3\n                  add\n                    /* \"#utility.yul\":1107:1111   */\n                  0x20\n                    /* \"#utility.yul\":1062:1112   */\n                  add\n                  swap3\n                    /* \"#utility.yul\":847:1118   */\n                  swap2\n                  pop\n                  pop\n                  jump\t// out\n                    /* \"#utility.yul\":1123:1343   */\n                tag_32:\n                    /* \"#utility.yul\":1272:1274   */\n                  0x20\n                    /* \"#utility.yul\":1261:1270   */\n                  dup2\n                    /* \"#utility.yul\":1254:1275   */\n                  mstore\n                    /* \"#utility.yul\":1235:1239   */\n                  0x00\n                    /* \"#utility.yul\":1292:1337   */\n                  tag_300\n                    /* \"#utility.yul\":1333:1335   */\n                  0x20\n                    /* \"#utility.yul\":1322:1331   */\n                  dup4\n                    /* \"#utility.yul\":1318:1336   */\n                  add\n                    /* \"#utility.yul\":1310:1316   */\n                  dup5\n                    /* \"#utility.yul\":1292:1337   */\n                  tag_398\n                  jump\t// in\n                    /* \"#utility.yul\":1348:1528   */\n                tag_35:\n                    /* \"#utility.yul\":1407:1413   */\n                  0x00\n                    /* \"#utility.yul\":1460:1462   */\n                  0x20\n                    /* \"#utility.yul\":1448:1457   */\n                  dup3\n                    /* \"#utility.yul\":1439:1446   */\n                  dup5\n                    /* \"#utility.yul\":1435:1458   */\n                  sub\n                    /* \"#utility.yul\":1431:1463   */\n                  slt\n                    /* \"#utility.yul\":1428:1480   */\n                  iszero\n                  tag_421\n                  jumpi\n                    /* \"#utility.yul\":1476:1477   */\n                  0x00\n                    /* \"#utility.yul\":1473:1474   */\n                  dup1\n                    /* \"#utility.yul\":1466:1478   */\n                  revert\n                    /* \"#utility.yul\":1428:1480   */\n                tag_421:\n                  pop\n                    /* \"#utility.yul\":1499:1522   */\n                  calldataload\n                  swap2\n                    /* \"#utility.yul\":1348:1528   */\n                  swap1\n                  pop\n                  jump\t// out\n                    /* \"#utility.yul\":1533:1736   */\n                tag_38:\n                  sub(shl(0xa0, 0x01), 0x01)\n                    /* \"#utility.yul\":1697:1729   */\n                  swap2\n                  swap1\n                  swap2\n                  and\n                    /* \"#utility.yul\":1679:1730   */\n                  dup2\n                  mstore\n                    /* \"#utility.yul\":1667:1669   */\n                  0x20\n                    /* \"#utility.yul\":1652:1670   */\n                  add\n                  swap1\n                    /* \"#utility.yul\":1533:1736   */\n                  jump\t// out\n                    /* \"#utility.yul\":1741:1914   */\n                tag_399:\n                    /* \"#utility.yul\":1809:1829   */\n                  dup1\n                  calldataload\n                  sub(shl(0xa0, 0x01), 0x01)\n                    /* \"#utility.yul\":1858:1889   */\n                  dup2\n                  and\n                    /* \"#utility.yul\":1848:1890   */\n                  dup2\n                  eq\n                    /* \"#utility.yul\":1838:1908   */\n                  tag_424\n                  jumpi\n                    /* \"#utility.yul\":1904:1905   */\n                  0x00\n                    /* \"#utility.yul\":1901:1902   */\n                  dup1\n                    /* \"#utility.yul\":1894:1906   */\n                  revert\n                    /* \"#utility.yul\":1838:1908   */\n                tag_424:\n                    /* \"#utility.yul\":1741:1914   */\n                  swap2\n                  swap1\n                  pop\n                  jump\t// out\n                    /* \"#utility.yul\":1919:2173   */\n                tag_41:\n                    /* \"#utility.yul\":1987:1993   */\n                  0x00\n                    /* \"#utility.yul\":1995:2001   */\n                  dup1\n                    /* \"#utility.yul\":2048:2050   */\n                  0x40\n                    /* \"#utility.yul\":2036:2045   */\n                  dup4\n                    /* \"#utility.yul\":2027:2034   */\n                  dup6\n                    /* \"#utility.yul\":2023:2046   */\n                  sub\n                    /* \"#utility.yul\":2019:2051   */\n                  slt\n                    /* \"#utility.yul\":2016:2068   */\n                  iszero\n                  tag_426\n                  jumpi\n                    /* \"#utility.yul\":2064:2065   */\n                  0x00\n                    /* \"#utility.yul\":2061:2062   */\n                  dup1\n                    /* \"#utility.yul\":2054:2066   */\n                  revert\n                    /* \"#utility.yul\":2016:2068   */\n                tag_426:\n                    /* \"#utility.yul\":2087:2116   */\n                  tag_427\n                    /* \"#utility.yul\":2106:2115   */\n                  dup4\n                    /* \"#utility.yul\":2087:2116   */\n                  tag_399\n                  jump\t// in\n                tag_427:\n                    /* \"#utility.yul\":2077:2116   */\n                  swap5\n                    /* \"#utility.yul\":2163:2165   */\n                  0x20\n                    /* \"#utility.yul\":2148:2166   */\n                  swap4\n                  swap1\n                  swap4\n                  add\n                    /* \"#utility.yul\":2135:2167   */\n                  calldataload\n                  swap4\n                  pop\n                  pop\n                  pop\n                    /* \"#utility.yul\":1919:2173   */\n                  jump\t// out\n                    /* \"#utility.yul\":2360:2688   */\n                tag_49:\n                    /* \"#utility.yul\":2437:2443   */\n                  0x00\n                    /* \"#utility.yul\":2445:2451   */\n                  dup1\n                    /* \"#utility.yul\":2453:2459   */\n                  0x00\n                    /* \"#utility.yul\":2506:2508   */\n                  0x60\n                    /* \"#utility.yul\":2494:2503   */\n                  dup5\n                    /* \"#utility.yul\":2485:2492   */\n                  dup7\n                    /* \"#utility.yul\":2481:2504   */\n                  sub\n                    /* \"#utility.yul\":2477:2509   */\n                  slt\n                    /* \"#utility.yul\":2474:2526   */\n                  iszero\n                  tag_430\n                  jumpi\n                    /* \"#utility.yul\":2522:2523   */\n                  0x00\n                    /* \"#utility.yul\":2519:2520   */\n                  dup1\n                    /* \"#utility.yul\":2512:2524   */\n                  revert\n                    /* \"#utility.yul\":2474:2526   */\n                tag_430:\n                    /* \"#utility.yul\":2545:2574   */\n                  tag_431\n                    /* \"#utility.yul\":2564:2573   */\n                  dup5\n                    /* \"#utility.yul\":2545:2574   */\n                  tag_399\n                  jump\t// in\n                tag_431:\n                    /* \"#utility.yul\":2535:2574   */\n                  swap3\n                  pop\n                    /* \"#utility.yul\":2593:2631   */\n                  tag_432\n                    /* \"#utility.yul\":2627:2629   */\n                  0x20\n                    /* \"#utility.yul\":2616:2625   */\n                  dup6\n                    /* \"#utility.yul\":2612:2630   */\n                  add\n                    /* \"#utility.yul\":2593:2631   */\n                  tag_399\n                  jump\t// in\n                tag_432:\n                    /* \"#utility.yul\":2583:2631   */\n                  swap2\n                  pop\n                    /* \"#utility.yul\":2678:2680   */\n                  0x40\n                    /* \"#utility.yul\":2667:2676   */\n                  dup5\n                    /* \"#utility.yul\":2663:2681   */\n                  add\n                    /* \"#utility.yul\":2650:2682   */\n                  calldataload\n                    /* \"#utility.yul\":2640:2682   */\n                  swap1\n                  pop\n                    /* \"#utility.yul\":2360:2688   */\n                  swap3\n                  pop\n                  swap3\n                  pop\n                  swap3\n                  jump\t// out\n                    /* \"#utility.yul\":2693:2879   */\n                tag_68:\n                    /* \"#utility.yul\":2752:2758   */\n                  0x00\n                    /* \"#utility.yul\":2805:2807   */\n                  0x20\n                    /* \"#utility.yul\":2793:2802   */\n                  dup3\n                    /* \"#utility.yul\":2784:2791   */\n                  dup5\n                    /* \"#utility.yul\":2780:2803   */\n                  sub\n                    /* \"#utility.yul\":2776:2808   */\n                  slt\n                    /* \"#utility.yul\":2773:2825   */\n                  iszero\n                  tag_434\n                  jumpi\n                    /* \"#utility.yul\":2821:2822   */\n                  0x00\n                    /* \"#utility.yul\":2818:2819   */\n                  dup1\n                    /* \"#utility.yul\":2811:2823   */\n                  revert\n                    /* \"#utility.yul\":2773:2825   */\n                tag_434:\n                    /* \"#utility.yul\":2844:2873   */\n                  tag_300\n                    /* \"#utility.yul\":2863:2872   */\n                  dup3\n                    /* \"#utility.yul\":2844:2873   */\n                  tag_399\n                  jump\t// in\n                    /* \"#utility.yul\":2884:3231   */\n                tag_81:\n                    /* \"#utility.yul\":2949:2955   */\n                  0x00\n                    /* \"#utility.yul\":2957:2963   */\n                  dup1\n                    /* \"#utility.yul\":3010:3012   */\n                  0x40\n                    /* \"#utility.yul\":2998:3007   */\n                  dup4\n                    /* \"#utility.yul\":2989:2996   */\n                  dup6\n                    /* \"#utility.yul\":2985:3008   */\n                  sub\n                    /* \"#utility.yul\":2981:3013   */\n                  slt\n                    /* \"#utility.yul\":2978:3030   */\n                  iszero\n                  tag_437\n                  jumpi\n                    /* \"#utility.yul\":3026:3027   */\n                  0x00\n                    /* \"#utility.yul\":3023:3024   */\n                  dup1\n                    /* \"#utility.yul\":3016:3028   */\n                  revert\n                    /* \"#utility.yul\":2978:3030   */\n                tag_437:\n                    /* \"#utility.yul\":3049:3078   */\n                  tag_438\n                    /* \"#utility.yul\":3068:3077   */\n                  dup4\n                    /* \"#utility.yul\":3049:3078   */\n                  tag_399\n                  jump\t// in\n                tag_438:\n                    /* \"#utility.yul\":3039:3078   */\n                  swap2\n                  pop\n                    /* \"#utility.yul\":3128:3130   */\n                  0x20\n                    /* \"#utility.yul\":3117:3126   */\n                  dup4\n                    /* \"#utility.yul\":3113:3131   */\n                  add\n                    /* \"#utility.yul\":3100:3132   */\n                  calldataload\n                    /* \"#utility.yul\":3175:3180   */\n                  dup1\n                    /* \"#utility.yul\":3168:3181   */\n                  iszero\n                    /* \"#utility.yul\":3161:3182   */\n                  iszero\n                    /* \"#utility.yul\":3154:3159   */\n                  dup2\n                    /* \"#utility.yul\":3151:3183   */\n                  eq\n                    /* \"#utility.yul\":3141:3201   */\n                  tag_439\n                  jumpi\n                    /* \"#utility.yul\":3197:3198   */\n                  0x00\n                    /* \"#utility.yul\":3194:3195   */\n                  dup1\n                    /* \"#utility.yul\":3187:3199   */\n                  revert\n                    /* \"#utility.yul\":3141:3201   */\n                tag_439:\n                    /* \"#utility.yul\":3220:3225   */\n                  dup1\n                    /* \"#utility.yul\":3210:3225   */\n                  swap2\n                  pop\n                  pop\n                    /* \"#utility.yul\":2884:3231   */\n                  swap3\n                  pop\n                  swap3\n                  swap1\n                  pop\n                  jump\t// out\n                    /* \"#utility.yul\":3236:3363   */\n                tag_347:\n                    /* \"#utility.yul\":3297:3307   */\n                  0x4e487b71\n                    /* \"#utility.yul\":3292:3295   */\n                  0xe0\n                    /* \"#utility.yul\":3288:3308   */\n                  shl\n                    /* \"#utility.yul\":3285:3286   */\n                  0x00\n                    /* \"#utility.yul\":3278:3309   */\n                  mstore\n                    /* \"#utility.yul\":3328:3332   */\n                  0x41\n                    /* \"#utility.yul\":3325:3326   */\n                  0x04\n                    /* \"#utility.yul\":3318:3333   */\n                  mstore\n                    /* \"#utility.yul\":3352:3356   */\n                  0x24\n                    /* \"#utility.yul\":3349:3350   */\n                  0x00\n                    /* \"#utility.yul\":3342:3357   */\n                  revert\n                    /* \"#utility.yul\":3368:3999   */\n                tag_400:\n                    /* \"#utility.yul\":3432:3437   */\n                  0x00\n                  sub(shl(0x40, 0x01), 0x01)\n                    /* \"#utility.yul\":3492:3506   */\n                  dup1\n                  dup5\n                  gt\n                    /* \"#utility.yul\":3489:3529   */\n                  iszero\n                  tag_443\n                  jumpi\n                    /* \"#utility.yul\":3509:3527   */\n                  tag_443\n                  tag_347\n                  jump\t// in\n                tag_443:\n                    /* \"#utility.yul\":3584:3586   */\n                  0x40\n                    /* \"#utility.yul\":3578:3587   */\n                  mload\n                    /* \"#utility.yul\":3552:3554   */\n                  0x1f\n                    /* \"#utility.yul\":3638:3653   */\n                  dup6\n                  add\n                  not(0x1f)\n                    /* \"#utility.yul\":3634:3658   */\n                  swap1\n                  dup2\n                  and\n                    /* \"#utility.yul\":3660:3662   */\n                  0x3f\n                    /* \"#utility.yul\":3630:3663   */\n                  add\n                    /* \"#utility.yul\":3626:3668   */\n                  and\n                    /* \"#utility.yul\":3614:3669   */\n                  dup2\n                  add\n                  swap1\n                    /* \"#utility.yul\":3684:3702   */\n                  dup3\n                  dup3\n                  gt\n                    /* \"#utility.yul\":3704:3726   */\n                  dup2\n                  dup4\n                  lt\n                    /* \"#utility.yul\":3681:3727   */\n                  or\n                    /* \"#utility.yul\":3678:3750   */\n                  iszero\n                  tag_445\n                  jumpi\n                    /* \"#utility.yul\":3730:3748   */\n                  tag_445\n                  tag_347\n                  jump\t// in\n                tag_445:\n                    /* \"#utility.yul\":3770:3780   */\n                  dup2\n                    /* \"#utility.yul\":3766:3768   */\n                  0x40\n                    /* \"#utility.yul\":3759:3781   */\n                  mstore\n                    /* \"#utility.yul\":3799:3805   */\n                  dup1\n                    /* \"#utility.yul\":3790:3805   */\n                  swap4\n                  pop\n                    /* \"#utility.yul\":3829:3835   */\n                  dup6\n                    /* \"#utility.yul\":3821:3827   */\n                  dup2\n                    /* \"#utility.yul\":3814:3836   */\n                  mstore\n                    /* \"#utility.yul\":3869:3872   */\n                  dup7\n                    /* \"#utility.yul\":3860:3866   */\n                  dup7\n                    /* \"#utility.yul\":3855:3858   */\n                  dup7\n                    /* \"#utility.yul\":3851:3867   */\n                  add\n                    /* \"#utility.yul\":3848:3873   */\n                  gt\n                    /* \"#utility.yul\":3845:3890   */\n                  iszero\n                  tag_446\n                  jumpi\n                    /* \"#utility.yul\":3886:3887   */\n                  0x00\n                    /* \"#utility.yul\":3883:3884   */\n                  dup1\n                    /* \"#utility.yul\":3876:3888   */\n                  revert\n                    /* \"#utility.yul\":3845:3890   */\n                tag_446:\n                    /* \"#utility.yul\":3936:3942   */\n                  dup6\n                    /* \"#utility.yul\":3931:3934   */\n                  dup6\n                    /* \"#utility.yul\":3924:3928   */\n                  0x20\n                    /* \"#utility.yul\":3916:3922   */\n                  dup4\n                    /* \"#utility.yul\":3912:3929   */\n                  add\n                    /* \"#utility.yul\":3899:3943   */\n                  calldatacopy\n                    /* \"#utility.yul\":3991:3992   */\n                  0x00\n                    /* \"#utility.yul\":3984:3988   */\n                  0x20\n                    /* \"#utility.yul\":3975:3981   */\n                  dup8\n                    /* \"#utility.yul\":3967:3973   */\n                  dup4\n                    /* \"#utility.yul\":3963:3982   */\n                  add\n                    /* \"#utility.yul\":3959:3989   */\n                  add\n                    /* \"#utility.yul\":3952:3993   */\n                  mstore\n                  pop\n                  pop\n                  pop\n                    /* \"#utility.yul\":3368:3999   */\n                  swap4\n                  swap3\n                  pop\n                  pop\n                  pop\n                  jump\t// out\n                    /* \"#utility.yul\":4004:4670   */\n                tag_85:\n                    /* \"#utility.yul\":4099:4105   */\n                  0x00\n                    /* \"#utility.yul\":4107:4113   */\n                  dup1\n                    /* \"#utility.yul\":4115:4121   */\n                  0x00\n                    /* \"#utility.yul\":4123:4129   */\n                  dup1\n                    /* \"#utility.yul\":4176:4179   */\n                  0x80\n                    /* \"#utility.yul\":4164:4173   */\n                  dup6\n                    /* \"#utility.yul\":4155:4162   */\n                  dup8\n                    /* \"#utility.yul\":4151:4174   */\n                  sub\n                    /* \"#utility.yul\":4147:4180   */\n                  slt\n                    /* \"#utility.yul\":4144:4197   */\n                  iszero\n                  tag_448\n                  jumpi\n                    /* \"#utility.yul\":4193:4194   */\n                  0x00\n                    /* \"#utility.yul\":4190:4191   */\n                  dup1\n                    /* \"#utility.yul\":4183:4195   */\n                  revert\n                    /* \"#utility.yul\":4144:4197   */\n                tag_448:\n                    /* \"#utility.yul\":4216:4245   */\n                  tag_449\n                    /* \"#utility.yul\":4235:4244   */\n                  dup6\n                    /* \"#utility.yul\":4216:4245   */\n                  tag_399\n                  jump\t// in\n                tag_449:\n                    /* \"#utility.yul\":4206:4245   */\n                  swap4\n                  pop\n                    /* \"#utility.yul\":4264:4302   */\n                  tag_450\n                    /* \"#utility.yul\":4298:4300   */\n                  0x20\n                    /* \"#utility.yul\":4287:4296   */\n                  dup7\n                    /* \"#utility.yul\":4283:4301   */\n                  add\n                    /* \"#utility.yul\":4264:4302   */\n                  tag_399\n                  jump\t// in\n                tag_450:\n                    /* \"#utility.yul\":4254:4302   */\n                  swap3\n                  pop\n                    /* \"#utility.yul\":4349:4351   */\n                  0x40\n                    /* \"#utility.yul\":4334:4352   */\n                  dup6\n                  add\n                    /* \"#utility.yul\":4321:4353   */\n                  calldataload\n                  swap2\n                  pop\n                    /* \"#utility.yul\":4404:4406   */\n                  0x60\n                    /* \"#utility.yul\":4389:4407   */\n                  dup6\n                  add\n                    /* \"#utility.yul\":4376:4408   */\n                  calldataload\n                  sub(shl(0x40, 0x01), 0x01)\n                    /* \"#utility.yul\":4420:4450   */\n                  dup2\n                  gt\n                    /* \"#utility.yul\":4417:4467   */\n                  iszero\n                  tag_451\n                  jumpi\n                    /* \"#utility.yul\":4463:4464   */\n                  0x00\n                    /* \"#utility.yul\":4460:4461   */\n                  dup1\n                    /* \"#utility.yul\":4453:4465   */\n                  revert\n                    /* \"#utility.yul\":4417:4467   */\n                tag_451:\n                    /* \"#utility.yul\":4486:4508   */\n                  dup6\n                  add\n                    /* \"#utility.yul\":4539:4543   */\n                  0x1f\n                    /* \"#utility.yul\":4531:4544   */\n                  dup2\n                  add\n                    /* \"#utility.yul\":4527:4554   */\n                  dup8\n                  sgt\n                    /* \"#utility.yul\":4517:4572   */\n                  tag_452\n                  jumpi\n                    /* \"#utility.yul\":4568:4569   */\n                  0x00\n                    /* \"#utility.yul\":4565:4566   */\n                  dup1\n                    /* \"#utility.yul\":4558:4570   */\n                  revert\n                    /* \"#utility.yul\":4517:4572   */\n                tag_452:\n                    /* \"#utility.yul\":4591:4664   */\n                  tag_453\n                    /* \"#utility.yul\":4656:4663   */\n                  dup8\n                    /* \"#utility.yul\":4651:4653   */\n                  dup3\n                    /* \"#utility.yul\":4638:4654   */\n                  calldataload\n                    /* \"#utility.yul\":4633:4635   */\n                  0x20\n                    /* \"#utility.yul\":4629:4631   */\n                  dup5\n                    /* \"#utility.yul\":4625:4636   */\n                  add\n                    /* \"#utility.yul\":4591:4664   */\n                  tag_400\n                  jump\t// in\n                tag_453:\n                    /* \"#utility.yul\":4581:4664   */\n                  swap2\n                  pop\n                  pop\n                    /* \"#utility.yul\":4004:4670   */\n                  swap3\n                  swap6\n                  swap2\n                  swap5\n                  pop\n                  swap3\n                  pop\n                  jump\t// out\n                    /* \"#utility.yul\":4675:5199   */\n                tag_93:\n                    /* \"#utility.yul\":4753:4759   */\n                  0x00\n                    /* \"#utility.yul\":4761:4767   */\n                  dup1\n                    /* \"#utility.yul\":4814:4816   */\n                  0x40\n                    /* \"#utility.yul\":4802:4811   */\n                  dup4\n                    /* \"#utility.yul\":4793:4800   */\n                  dup6\n                    /* \"#utility.yul\":4789:4812   */\n                  sub\n                    /* \"#utility.yul\":4785:4817   */\n                  slt\n                    /* \"#utility.yul\":4782:4834   */\n                  iszero\n                  tag_455\n                  jumpi\n                    /* \"#utility.yul\":4830:4831   */\n                  0x00\n                    /* \"#utility.yul\":4827:4828   */\n                  dup1\n                    /* \"#utility.yul\":4820:4832   */\n                  revert\n                    /* \"#utility.yul\":4782:4834   */\n                tag_455:\n                    /* \"#utility.yul\":4853:4882   */\n                  tag_456\n                    /* \"#utility.yul\":4872:4881   */\n                  dup4\n                    /* \"#utility.yul\":4853:4882   */\n                  tag_399\n                  jump\t// in\n                tag_456:\n                    /* \"#utility.yul\":4843:4882   */\n                  swap2\n                  pop\n                    /* \"#utility.yul\":4933:4935   */\n                  0x20\n                    /* \"#utility.yul\":4918:4936   */\n                  dup4\n                  add\n                    /* \"#utility.yul\":4905:4937   */\n                  calldataload\n                  sub(shl(0x40, 0x01), 0x01)\n                    /* \"#utility.yul\":4949:4979   */\n                  dup2\n                  gt\n                    /* \"#utility.yul\":4946:4996   */\n                  iszero\n                  tag_457\n                  jumpi\n                    /* \"#utility.yul\":4992:4993   */\n                  0x00\n                    /* \"#utility.yul\":4989:4990   */\n                  dup1\n                    /* \"#utility.yul\":4982:4994   */\n                  revert\n                    /* \"#utility.yul\":4946:4996   */\n                tag_457:\n                    /* \"#utility.yul\":5015:5037   */\n                  dup4\n                  add\n                    /* \"#utility.yul\":5068:5072   */\n                  0x1f\n                    /* \"#utility.yul\":5060:5073   */\n                  dup2\n                  add\n                    /* \"#utility.yul\":5056:5083   */\n                  dup6\n                  sgt\n                    /* \"#utility.yul\":5046:5101   */\n                  tag_458\n                  jumpi\n                    /* \"#utility.yul\":5097:5098   */\n                  0x00\n                    /* \"#utility.yul\":5094:5095   */\n                  dup1\n                    /* \"#utility.yul\":5087:5099   */\n                  revert\n                    /* \"#utility.yul\":5046:5101   */\n                tag_458:\n                    /* \"#utility.yul\":5120:5193   */\n                  tag_459\n                    /* \"#utility.yul\":5185:5192   */\n                  dup6\n                    /* \"#utility.yul\":5180:5182   */\n                  dup3\n                    /* \"#utility.yul\":5167:5183   */\n                  calldataload\n                    /* \"#utility.yul\":5162:5164   */\n                  0x20\n                    /* \"#utility.yul\":5158:5160   */\n                  dup5\n                    /* \"#utility.yul\":5154:5165   */\n                  add\n                    /* \"#utility.yul\":5120:5193   */\n                  tag_400\n                  jump\t// in\n                tag_459:\n                    /* \"#utility.yul\":5110:5193   */\n                  swap2\n                  pop\n                  pop\n                    /* \"#utility.yul\":4675:5199   */\n                  swap3\n                  pop\n                  swap3\n                  swap1\n                  pop\n                  jump\t// out\n                    /* \"#utility.yul\":5204:5464   */\n                tag_97:\n                    /* \"#utility.yul\":5272:5278   */\n                  0x00\n                    /* \"#utility.yul\":5280:5286   */\n                  dup1\n                    /* \"#utility.yul\":5333:5335   */\n                  0x40\n                    /* \"#utility.yul\":5321:5330   */\n                  dup4\n                    /* \"#utility.yul\":5312:5319   */\n                  dup6\n                    /* \"#utility.yul\":5308:5331   */\n                  sub\n                    /* \"#utility.yul\":5304:5336   */\n                  slt\n                    /* \"#utility.yul\":5301:5353   */\n                  iszero\n                  tag_461\n                  jumpi\n                    /* \"#utility.yul\":5349:5350   */\n                  0x00\n                    /* \"#utility.yul\":5346:5347   */\n                  dup1\n                    /* \"#utility.yul\":5339:5351   */\n                  revert\n                    /* \"#utility.yul\":5301:5353   */\n                tag_461:\n                    /* \"#utility.yul\":5372:5401   */\n                  tag_462\n                    /* \"#utility.yul\":5391:5400   */\n                  dup4\n                    /* \"#utility.yul\":5372:5401   */\n                  tag_399\n                  jump\t// in\n                tag_462:\n                    /* \"#utility.yul\":5362:5401   */\n                  swap2\n                  pop\n                    /* \"#utility.yul\":5420:5458   */\n                  tag_463\n                    /* \"#utility.yul\":5454:5456   */\n                  0x20\n                    /* \"#utility.yul\":5443:5452   */\n                  dup5\n                    /* \"#utility.yul\":5439:5457   */\n                  add\n                    /* \"#utility.yul\":5420:5458   */\n                  tag_399\n                  jump\t// in\n                tag_463:\n                    /* \"#utility.yul\":5410:5458   */\n                  swap1\n                  pop\n                    /* \"#utility.yul\":5204:5464   */\n                  swap3\n                  pop\n                  swap3\n                  swap1\n                  pop\n                  jump\t// out\n                    /* \"#utility.yul\":5469:5849   */\n                tag_108:\n                    /* \"#utility.yul\":5548:5549   */\n                  0x01\n                    /* \"#utility.yul\":5544:5556   */\n                  dup2\n                  dup2\n                  shr\n                  swap1\n                    /* \"#utility.yul\":5591:5603   */\n                  dup3\n                  and\n                  dup1\n                    /* \"#utility.yul\":5612:5673   */\n                  tag_465\n                  jumpi\n                    /* \"#utility.yul\":5666:5670   */\n                  0x7f\n                    /* \"#utility.yul\":5658:5664   */\n                  dup3\n                    /* \"#utility.yul\":5654:5671   */\n                  and\n                    /* \"#utility.yul\":5644:5671   */\n                  swap2\n                  pop\n                    /* \"#utility.yul\":5612:5673   */\n                tag_465:\n                    /* \"#utility.yul\":5719:5721   */\n                  0x20\n                    /* \"#utility.yul\":5711:5717   */\n                  dup3\n                    /* \"#utility.yul\":5708:5722   */\n                  lt\n                    /* \"#utility.yul\":5688:5706   */\n                  dup2\n                    /* \"#utility.yul\":5685:5723   */\n                  sub\n                    /* \"#utility.yul\":5682:5843   */\n                  tag_466\n                  jumpi\n                    /* \"#utility.yul\":5765:5775   */\n                  0x4e487b71\n                    /* \"#utility.yul\":5760:5763   */\n                  0xe0\n                    /* \"#utility.yul\":5756:5776   */\n                  shl\n                    /* \"#utility.yul\":5753:5754   */\n                  0x00\n                    /* \"#utility.yul\":5746:5777   */\n                  mstore\n                    /* \"#utility.yul\":5800:5804   */\n                  0x22\n                    /* \"#utility.yul\":5797:5798   */\n                  0x04\n                    /* \"#utility.yul\":5790:5805   */\n                  mstore\n                    /* \"#utility.yul\":5828:5832   */\n                  0x24\n                    /* \"#utility.yul\":5825:5826   */\n                  0x00\n                    /* \"#utility.yul\":5818:5833   */\n                  revert\n                    /* \"#utility.yul\":5682:5843   */\n                tag_466:\n                  pop\n                    /* \"#utility.yul\":5469:5849   */\n                  swap2\n                  swap1\n                  pop\n                  jump\t// out\n                    /* \"#utility.yul\":6234:6508   */\n                tag_137:\n                  sub(shl(0xa0, 0x01), 0x01)\n                    /* \"#utility.yul\":6426:6458   */\n                  swap3\n                  swap1\n                  swap3\n                  and\n                    /* \"#utility.yul\":6408:6459   */\n                  dup3\n                  mstore\n                    /* \"#utility.yul\":6490:6492   */\n                  0x20\n                    /* \"#utility.yul\":6475:6493   */\n                  dup3\n                  add\n                    /* \"#utility.yul\":6468:6502   */\n                  mstore\n                    /* \"#utility.yul\":6396:6398   */\n                  0x40\n                    /* \"#utility.yul\":6381:6399   */\n                  add\n                  swap1\n                    /* \"#utility.yul\":6234:6508   */\n                  jump\t// out\n                    /* \"#utility.yul\":6513:6640   */\n                tag_146:\n                    /* \"#utility.yul\":6574:6584   */\n                  0x4e487b71\n                    /* \"#utility.yul\":6569:6572   */\n                  0xe0\n                    /* \"#utility.yul\":6565:6585   */\n                  shl\n                    /* \"#utility.yul\":6562:6563   */\n                  0x00\n                    /* \"#utility.yul\":6555:6586   */\n                  mstore\n                    /* \"#utility.yul\":6605:6609   */\n                  0x32\n                    /* \"#utility.yul\":6602:6603   */\n                  0x04\n                    /* \"#utility.yul\":6595:6610   */\n                  mstore\n                    /* \"#utility.yul\":6629:6633   */\n                  0x24\n                    /* \"#utility.yul\":6626:6627   */\n                  0x00\n                    /* \"#utility.yul\":6619:6634   */\n                  revert\n                    /* \"#utility.yul\":6645:6772   */\n                tag_401:\n                    /* \"#utility.yul\":6706:6716   */\n                  0x4e487b71\n                    /* \"#utility.yul\":6701:6704   */\n                  0xe0\n                    /* \"#utility.yul\":6697:6717   */\n                  shl\n                    /* \"#utility.yul\":6694:6695   */\n                  0x00\n                    /* \"#utility.yul\":6687:6718   */\n                  mstore\n                    /* \"#utility.yul\":6737:6741   */\n                  0x11\n                    /* \"#utility.yul\":6734:6735   */\n                  0x04\n                    /* \"#utility.yul\":6727:6742   */\n                  mstore\n                    /* \"#utility.yul\":6761:6765   */\n                  0x24\n                    /* \"#utility.yul\":6758:6759   */\n                  0x00\n                    /* \"#utility.yul\":6751:6766   */\n                  revert\n                    /* \"#utility.yul\":6777:6912   */\n                tag_181:\n                    /* \"#utility.yul\":6816:6819   */\n                  0x00\n                    /* \"#utility.yul\":6837:6854   */\n                  0x01\n                  dup3\n                  add\n                    /* \"#utility.yul\":6834:6877   */\n                  tag_473\n                  jumpi\n                    /* \"#utility.yul\":6857:6875   */\n                  tag_473\n                  tag_401\n                  jump\t// in\n                tag_473:\n                  pop\n                    /* \"#utility.yul\":6904:6905   */\n                  0x01\n                    /* \"#utility.yul\":6893:6906   */\n                  add\n                  swap1\n                    /* \"#utility.yul\":6777:6912   */\n                  jump\t// out\n                    /* \"#utility.yul\":6917:7406   */\n                tag_225:\n                  sub(shl(0xa0, 0x01), 0x01)\n                    /* \"#utility.yul\":7186:7201   */\n                  dup6\n                  dup2\n                  and\n                    /* \"#utility.yul\":7168:7202   */\n                  dup3\n                  mstore\n                    /* \"#utility.yul\":7238:7253   */\n                  dup5\n                  and\n                    /* \"#utility.yul\":7233:7235   */\n                  0x20\n                    /* \"#utility.yul\":7218:7236   */\n                  dup3\n                  add\n                    /* \"#utility.yul\":7211:7254   */\n                  mstore\n                    /* \"#utility.yul\":7285:7287   */\n                  0x40\n                    /* \"#utility.yul\":7270:7288   */\n                  dup2\n                  add\n                    /* \"#utility.yul\":7263:7297   */\n                  dup4\n                  swap1\n                  mstore\n                    /* \"#utility.yul\":7333:7336   */\n                  0x80\n                    /* \"#utility.yul\":7328:7330   */\n                  0x60\n                    /* \"#utility.yul\":7313:7331   */\n                  dup3\n                  add\n                    /* \"#utility.yul\":7306:7337   */\n                  dup2\n                  swap1\n                  mstore\n                    /* \"#utility.yul\":7111:7115   */\n                  0x00\n                  swap1\n                    /* \"#utility.yul\":7354:7400   */\n                  tag_475\n                  swap1\n                    /* \"#utility.yul\":7380:7399   */\n                  dup4\n                  add\n                    /* \"#utility.yul\":7372:7378   */\n                  dup5\n                    /* \"#utility.yul\":7354:7400   */\n                  tag_398\n                  jump\t// in\n                tag_475:\n                    /* \"#utility.yul\":7346:7400   */\n                  swap7\n                    /* \"#utility.yul\":6917:7406   */\n                  swap6\n                  pop\n                  pop\n                  pop\n                  pop\n                  pop\n                  pop\n                  jump\t// out\n                    /* \"#utility.yul\":7411:7660   */\n                tag_228:\n                    /* \"#utility.yul\":7480:7486   */\n                  0x00\n                    /* \"#utility.yul\":7533:7535   */\n                  0x20\n                    /* \"#utility.yul\":7521:7530   */\n                  dup3\n                    /* \"#utility.yul\":7512:7519   */\n                  dup5\n                    /* \"#utility.yul\":7508:7531   */\n                  sub\n                    /* \"#utility.yul\":7504:7536   */\n                  slt\n                    /* \"#utility.yul\":7501:7553   */\n                  iszero\n                  tag_477\n                  jumpi\n                    /* \"#utility.yul\":7549:7550   */\n                  0x00\n                    /* \"#utility.yul\":7546:7547   */\n                  dup1\n                    /* \"#utility.yul\":7539:7551   */\n                  revert\n                    /* \"#utility.yul\":7501:7553   */\n                tag_477:\n                    /* \"#utility.yul\":7581:7590   */\n                  dup2\n                    /* \"#utility.yul\":7575:7591   */\n                  mload\n                    /* \"#utility.yul\":7600:7630   */\n                  tag_300\n                    /* \"#utility.yul\":7624:7629   */\n                  dup2\n                    /* \"#utility.yul\":7600:7630   */\n                  tag_396\n                  jump\t// in\n                    /* \"#utility.yul\":7665:8161   */\n                tag_253:\n                    /* \"#utility.yul\":7844:7847   */\n                  0x00\n                    /* \"#utility.yul\":7882:7888   */\n                  dup4\n                    /* \"#utility.yul\":7876:7889   */\n                  mload\n                    /* \"#utility.yul\":7898:7964   */\n                  tag_480\n                    /* \"#utility.yul\":7957:7963   */\n                  dup2\n                    /* \"#utility.yul\":7952:7955   */\n                  dup5\n                    /* \"#utility.yul\":7945:7949   */\n                  0x20\n                    /* \"#utility.yul\":7937:7943   */\n                  dup9\n                    /* \"#utility.yul\":7933:7950   */\n                  add\n                    /* \"#utility.yul\":7898:7964   */\n                  tag_397\n                  jump\t// in\n                tag_480:\n                    /* \"#utility.yul\":8027:8040   */\n                  dup4\n                  mload\n                    /* \"#utility.yul\":7986:8002   */\n                  swap1\n                  dup4\n                  add\n                  swap1\n                    /* \"#utility.yul\":8049:8119   */\n                  tag_481\n                    /* \"#utility.yul\":8027:8040   */\n                  dup2\n                    /* \"#utility.yul\":7986:8002   */\n                  dup4\n                    /* \"#utility.yul\":8096:8100   */\n                  0x20\n                    /* \"#utility.yul\":8084:8101   */\n                  dup9\n                  add\n                    /* \"#utility.yul\":8049:8119   */\n                  tag_397\n                  jump\t// in\n                tag_481:\n                    /* \"#utility.yul\":8135:8155   */\n                  add\n                  swap5\n                    /* \"#utility.yul\":7665:8161   */\n                  swap4\n                  pop\n                  pop\n                  pop\n                  pop\n                  jump\t// out\n                    /* \"#utility.yul\":8292:8810   */\n                tag_403:\n                    /* \"#utility.yul\":8394:8396   */\n                  0x1f\n                    /* \"#utility.yul\":8389:8392   */\n                  dup3\n                    /* \"#utility.yul\":8386:8397   */\n                  gt\n                    /* \"#utility.yul\":8383:8804   */\n                  iszero\n                  tag_139\n                  jumpi\n                    /* \"#utility.yul\":8430:8435   */\n                  dup1\n                    /* \"#utility.yul\":8427:8428   */\n                  0x00\n                    /* \"#utility.yul\":8420:8436   */\n                  mstore\n                    /* \"#utility.yul\":8474:8478   */\n                  0x20\n                    /* \"#utility.yul\":8471:8472   */\n                  0x00\n                    /* \"#utility.yul\":8461:8479   */\n                  keccak256\n                    /* \"#utility.yul\":8544:8546   */\n                  0x1f\n                    /* \"#utility.yul\":8532:8542   */\n                  dup5\n                    /* \"#utility.yul\":8528:8547   */\n                  add\n                    /* \"#utility.yul\":8525:8526   */\n                  0x05\n                    /* \"#utility.yul\":8521:8548   */\n                  shr\n                    /* \"#utility.yul\":8515:8519   */\n                  dup2\n                    /* \"#utility.yul\":8511:8549   */\n                  add\n                    /* \"#utility.yul\":8580:8584   */\n                  0x20\n                    /* \"#utility.yul\":8568:8578   */\n                  dup6\n                    /* \"#utility.yul\":8565:8585   */\n                  lt\n                    /* \"#utility.yul\":8562:8609   */\n                  iszero\n                  tag_485\n                  jumpi\n                  pop\n                    /* \"#utility.yul\":8603:8607   */\n                  dup1\n                    /* \"#utility.yul\":8562:8609   */\n                tag_485:\n                    /* \"#utility.yul\":8658:8660   */\n                  0x1f\n                    /* \"#utility.yul\":8653:8656   */\n                  dup5\n                    /* \"#utility.yul\":8649:8661   */\n                  add\n                    /* \"#utility.yul\":8646:8647   */\n                  0x05\n                    /* \"#utility.yul\":8642:8662   */\n                  shr\n                    /* \"#utility.yul\":8636:8640   */\n                  dup3\n                    /* \"#utility.yul\":8632:8663   */\n                  add\n                    /* \"#utility.yul\":8622:8663   */\n                  swap2\n                  pop\n                    /* \"#utility.yul\":8713:8794   */\n                tag_486:\n                    /* \"#utility.yul\":8731:8733   */\n                  dup2\n                    /* \"#utility.yul\":8724:8729   */\n                  dup2\n                    /* \"#utility.yul\":8721:8734   */\n                  lt\n                    /* \"#utility.yul\":8713:8794   */\n                  iszero\n                  tag_239\n                  jumpi\n                    /* \"#utility.yul\":8790:8791   */\n                  0x00\n                    /* \"#utility.yul\":8776:8792   */\n                  dup2\n                  sstore\n                    /* \"#utility.yul\":8757:8758   */\n                  0x01\n                    /* \"#utility.yul\":8746:8759   */\n                  add\n                    /* \"#utility.yul\":8713:8794   */\n                  jump(tag_486)\n                    /* \"#utility.yul\":8986:10331   */\n                tag_261:\n                    /* \"#utility.yul\":9106:9116   */\n                  dup2\n                  mload\n                  sub(shl(0x40, 0x01), 0x01)\n                    /* \"#utility.yul\":9128:9158   */\n                  dup2\n                  gt\n                    /* \"#utility.yul\":9125:9181   */\n                  iszero\n                  tag_492\n                  jumpi\n                    /* \"#utility.yul\":9161:9179   */\n                  tag_492\n                  tag_347\n                  jump\t// in\n                tag_492:\n                    /* \"#utility.yul\":9190:9287   */\n                  tag_493\n                    /* \"#utility.yul\":9280:9286   */\n                  dup2\n                    /* \"#utility.yul\":9240:9278   */\n                  tag_494\n                    /* \"#utility.yul\":9272:9276   */\n                  dup5\n                    /* \"#utility.yul\":9266:9277   */\n                  sload\n                    /* \"#utility.yul\":9240:9278   */\n                  tag_108\n                  jump\t// in\n                tag_494:\n                    /* \"#utility.yul\":9234:9238   */\n                  dup5\n                    /* \"#utility.yul\":9190:9287   */\n                  tag_403\n                  jump\t// in\n                tag_493:\n                    /* \"#utility.yul\":9342:9346   */\n                  0x20\n                  dup1\n                    /* \"#utility.yul\":9399:9401   */\n                  0x1f\n                    /* \"#utility.yul\":9388:9402   */\n                  dup4\n                  gt\n                    /* \"#utility.yul\":9416:9417   */\n                  0x01\n                    /* \"#utility.yul\":9411:10074   */\n                  dup2\n                  eq\n                  tag_496\n                  jumpi\n                    /* \"#utility.yul\":10118:10119   */\n                  0x00\n                    /* \"#utility.yul\":10135:10141   */\n                  dup5\n                    /* \"#utility.yul\":10132:10221   */\n                  iszero\n                  tag_497\n                  jumpi\n                  pop\n                    /* \"#utility.yul\":10187:10206   */\n                  dup6\n                  dup4\n                  add\n                    /* \"#utility.yul\":10181:10207   */\n                  mload\n                    /* \"#utility.yul\":10132:10221   */\n                tag_497:\n                  not(0x00)\n                    /* \"#utility.yul\":8943:8944   */\n                  0x03\n                    /* \"#utility.yul\":8939:8950   */\n                  dup7\n                  swap1\n                  shl\n                    /* \"#utility.yul\":8935:8959   */\n                  shr\n                    /* \"#utility.yul\":8931:8960   */\n                  not\n                    /* \"#utility.yul\":8921:8961   */\n                  and\n                    /* \"#utility.yul\":8967:8968   */\n                  0x01\n                    /* \"#utility.yul\":8963:8974   */\n                  dup6\n                  swap1\n                  shl\n                    /* \"#utility.yul\":8918:8975   */\n                  or\n                    /* \"#utility.yul\":10234:10315   */\n                  dup6\n                  sstore\n                    /* \"#utility.yul\":9381:10325   */\n                  jump(tag_495)\n                    /* \"#utility.yul\":9411:10074   */\n                tag_496:\n                    /* \"#utility.yul\":8239:8240   */\n                  0x00\n                    /* \"#utility.yul\":8232:8246   */\n                  dup6\n                  dup2\n                  mstore\n                    /* \"#utility.yul\":8276:8280   */\n                  0x20\n                    /* \"#utility.yul\":8263:8281   */\n                  dup2\n                  keccak256\n                  not(0x1f)\n                    /* \"#utility.yul\":9447:9467   */\n                  dup7\n                  and\n                  swap2\n                    /* \"#utility.yul\":9565:9801   */\n                tag_500:\n                    /* \"#utility.yul\":9579:9586   */\n                  dup3\n                    /* \"#utility.yul\":9576:9577   */\n                  dup2\n                    /* \"#utility.yul\":9573:9587   */\n                  lt\n                    /* \"#utility.yul\":9565:9801   */\n                  iszero\n                  tag_502\n                  jumpi\n                    /* \"#utility.yul\":9668:9687   */\n                  dup9\n                  dup7\n                  add\n                    /* \"#utility.yul\":9662:9688   */\n                  mload\n                    /* \"#utility.yul\":9647:9689   */\n                  dup3\n                  sstore\n                    /* \"#utility.yul\":9760:9787   */\n                  swap5\n                  dup5\n                  add\n                  swap5\n                    /* \"#utility.yul\":9728:9729   */\n                  0x01\n                    /* \"#utility.yul\":9716:9730   */\n                  swap1\n                  swap2\n                  add\n                  swap1\n                    /* \"#utility.yul\":9595:9614   */\n                  dup5\n                  add\n                    /* \"#utility.yul\":9565:9801   */\n                  jump(tag_500)\n                tag_502:\n                    /* \"#utility.yul\":9569:9572   */\n                  pop\n                    /* \"#utility.yul\":9829:9835   */\n                  dup6\n                    /* \"#utility.yul\":9820:9827   */\n                  dup3\n                    /* \"#utility.yul\":9817:9836   */\n                  lt\n                    /* \"#utility.yul\":9814:10015   */\n                  iszero\n                  tag_503\n                  jumpi\n                    /* \"#utility.yul\":9890:9909   */\n                  dup8\n                  dup6\n                  add\n                    /* \"#utility.yul\":9884:9910   */\n                  mload\n                  not(0x00)\n                    /* \"#utility.yul\":9973:9974   */\n                  0x03\n                    /* \"#utility.yul\":9969:9983   */\n                  dup9\n                  swap1\n                  shl\n                    /* \"#utility.yul\":9985:9988   */\n                  0xf8\n                    /* \"#utility.yul\":9965:9989   */\n                  and\n                    /* \"#utility.yul\":9961:9998   */\n                  shr\n                    /* \"#utility.yul\":9957:9999   */\n                  not\n                    /* \"#utility.yul\":9942:10000   */\n                  and\n                    /* \"#utility.yul\":9927:10001   */\n                  dup2\n                  sstore\n                    /* \"#utility.yul\":9814:10015   */\n                tag_503:\n                  pop\n                  pop\n                    /* \"#utility.yul\":10061:10062   */\n                  0x01\n                    /* \"#utility.yul\":10052:10058   */\n                  dup5\n                    /* \"#utility.yul\":10049:10050   */\n                  0x01\n                    /* \"#utility.yul\":10045:10059   */\n                  shl\n                    /* \"#utility.yul\":10041:10063   */\n                  add\n                    /* \"#utility.yul\":10035:10039   */\n                  dup6\n                    /* \"#utility.yul\":10028:10064   */\n                  sstore\n                    /* \"#utility.yul\":9381:10325   */\n                tag_495:\n                  pop\n                  pop\n                  pop\n                  pop\n                    /* \"#utility.yul\":8986:10331   */\n                  pop\n                  pop\n                  jump\t// out\n                    /* \"#utility.yul\":10336:10464   */\n                tag_328:\n                    /* \"#utility.yul\":10403:10412   */\n                  dup2\n                  dup2\n                  sub\n                    /* \"#utility.yul\":10424:10435   */\n                  dup2\n                  dup2\n                  gt\n                    /* \"#utility.yul\":10421:10458   */\n                  iszero\n                  tag_104\n                  jumpi\n                    /* \"#utility.yul\":10438:10456   */\n                  tag_104\n                  tag_401\n                  jump\t// in\n                    /* \"#utility.yul\":10469:10596   */\n                tag_337:\n                    /* \"#utility.yul\":10530:10540   */\n                  0x4e487b71\n                    /* \"#utility.yul\":10525:10528   */\n                  0xe0\n                    /* \"#utility.yul\":10521:10541   */\n                  shl\n                    /* \"#utility.yul\":10518:10519   */\n                  0x00\n                    /* \"#utility.yul\":10511:10542   */\n                  mstore\n                    /* \"#utility.yul\":10561:10565   */\n                  0x31\n                    /* \"#utility.yul\":10558:10559   */\n                  0x04\n                    /* \"#utility.yul\":10551:10566   */\n                  mstore\n                    /* \"#utility.yul\":10585:10589   */\n                  0x24\n                    /* \"#utility.yul\":10582:10583   */\n                  0x00\n                    /* \"#utility.yul\":10575:10590   */\n                  revert\n\n                auxdata: 0xa2646970667358221220e529bfe2e1be774d82aead2a29daeccff3d6b6f5ed388f64539bae71963f07af64736f6c63430008180033\n            }\n        }\n    }\n\n    auxdata: 0xa26469706673582212209edf21472dcd360fac08911193c8beb27dfd70514a7c6fc2dc5c60b90498853c64736f6c63430008180033\n}\n","bytecode":{"linkReferences":{},"object":"608060405234801561000f575f80fd5b50600280546001600160a01b03191633179055614ba48061002f5f395ff3fe608060405234801562000010575f80fd5b506004361062000068575f3560e01c80632fa9c007146200006c5780637ac3886e14620000a05780638da5cb5b14620000b95780639ec6deaf14620000cd578063c73d702414620000e4578063f08a64e614620000fd575b5f80fd5b620000836200007d36600462000386565b62000107565b6040516001600160a01b0390911681526020015b60405180910390f35b620000aa6200013c565b604051620000979190620003b1565b60025462000083906001600160a01b031681565b62000083620000de366004620003ff565b6200019d565b620000fb620000f5366004620004bb565b620001c5565b005b620000aa620002f4565b6001602052815f5260405f20818154811062000121575f80fd5b5f918252602090912001546001600160a01b03169150829050565b60605f8054806020026020016040519081016040528092919081815260200182805480156200019357602002820191905f5260205f20905b81546001600160a01b0316815260019091019060200180831162000174575b5050505050905090565b5f8181548110620001ac575f80fd5b5f918252602090912001546001600160a01b0316905081565b5f8054620001d590600162000574565b338989898989898960025f9054906101000a90046001600160a01b031660405162000200906200035c565b620002159a99989796959493929190620005df565b604051809103905ff0801580156200022f573d5f803e3d5ffd5b505f8054600181810183557f290decd9548b62a8d60345a988386fc84ba6bc95484008f6362f93160ef3e56390910180546001600160a01b0385166001600160a01b031991821681179092553380855260208481526040808720805496870181558752908620909401805490921683179091559254915193945091927fb4a5bfdd6e62279ab04317fc55125a615b01848fdaf6180cbe6b5533b151e6a490620002e2908c908c908c908c9042906200066f565b60405180910390a45050505050505050565b335f908152600160209081526040918290208054835181840281018401909452808452606093928301828280156200019357602002820191905f5260205f209081546001600160a01b0316815260019091019060200180831162000174575050505050905090565b6144c780620006a883390190565b80356001600160a01b038116811462000381575f80fd5b919050565b5f806040838503121562000398575f80fd5b620003a3836200036a565b946020939093013593505050565b602080825282518282018190525f9190848201906040850190845b81811015620003f35783516001600160a01b031683529284019291840191600101620003cc565b50909695505050505050565b5f6020828403121562000410575f80fd5b5035919050565b634e487b7160e01b5f52604160045260245ffd5b5f82601f8301126200043b575f80fd5b81356001600160401b038082111562000458576200045862000417565b604051601f8301601f19908116603f0116810190828211818310171562000483576200048362000417565b816040528381528660208588010111156200049c575f80fd5b836020870160208301375f602085830101528094505050505092915050565b5f805f805f805f60e0888a031215620004d2575f80fd5b620004dd886200036a565b965060208801356001600160401b0380821115620004f9575f80fd5b620005078b838c016200042b565b975060408a0135965060608a0135955060808a0135945060a08a013591508082111562000532575f80fd5b620005408b838c016200042b565b935060c08a013591508082111562000556575f80fd5b50620005658a828b016200042b565b91505092959891949750929550565b808201808211156200059457634e487b7160e01b5f52601160045260245ffd5b92915050565b5f81518084525f5b81811015620005c057602081850181015186830182015201620005a2565b505f602082860101526020601f19601f83011685010191505092915050565b8a81526001600160a01b038a811660208301528981166040830152610140606083018190525f91620006148483018c6200059a565b91508960808501528860a08501528760c085015283820360e08501526200063c82886200059a565b91508382036101008501526200065382876200059a565b925080851661012085015250509b9a5050505050505050505050565b60a081525f6200068360a08301886200059a565b9050856020830152846040830152836060830152826080830152969550505050505056fe608060405234801562000010575f80fd5b50604051620044c7380380620044c78339810160408190526200003391620003df565b5f8a9055600180546001600160a01b0319166001600160a01b038b16179055600462000060888262000553565b50600586905560068590556007849055600380546001600160a01b03808b166001600160a01b03199283161790925560028054928416929091169190911790555f5430908490620000b19062000170565b604051602001620000c49291906200061f565b60405160208183030381529060405283620000e65f546200017060201b60201c565b604051602001620000f99291906200061f565b6040516020818303038152906040526040516200011690620002ef565b62000124939291906200067e565b604051809103905ff0801580156200013e573d5f803e3d5ffd5b50601580546001600160a01b0319166001600160a01b039290921691909117905550620006b798505050505050505050565b60605f6200017e8362000206565b60010190505f816001600160401b038111156200019f576200019f62000319565b6040519080825280601f01601f191660200182016040528015620001ca576020820181803683370190505b5090508181016020015b5f19016f181899199a1a9b1b9c1cb0b131b232b360811b600a86061a8153600a8504945084620001d457509392505050565b5f807a184f03e93ff9f4daa797ed6e38ed64bf6a1f01000000000000000083106200024f577a184f03e93ff9f4daa797ed6e38ed64bf6a1f010000000000000000830492506040015b6d04ee2d6d415b85acef810000000083106200027c576d04ee2d6d415b85acef8100000000830492506020015b662386f26fc1000083106200029b57662386f26fc10000830492506010015b6305f5e1008310620002b4576305f5e100830492506008015b6127108310620002c957612710830492506004015b60648310620002dc576064830492506002015b600a8310620002e9576001015b92915050565b611aee80620029d983390190565b80516001600160a01b038116811462000314575f80fd5b919050565b634e487b7160e01b5f52604160045260245ffd5b5f5b83811015620003495781810151838201526020016200032f565b50505f910152565b5f82601f83011262000361575f80fd5b81516001600160401b03808211156200037e576200037e62000319565b604051601f8301601f19908116603f01168101908282118183101715620003a957620003a962000319565b81604052838152866020858801011115620003c2575f80fd5b620003d58460208301602089016200032d565b9695505050505050565b5f805f805f805f805f806101408b8d031215620003fa575f80fd5b8a5199506200040c60208c01620002fd565b98506200041c60408c01620002fd565b60608c01519098506001600160401b038082111562000439575f80fd5b620004478e838f0162000351565b985060808d0151975060a08d0151965060c08d0151955060e08d015191508082111562000472575f80fd5b620004808e838f0162000351565b94506101008d015191508082111562000497575f80fd5b50620004a68d828e0162000351565b925050620004b86101208c01620002fd565b90509295989b9194979a5092959850565b600181811c90821680620004de57607f821691505b602082108103620004fd57634e487b7160e01b5f52602260045260245ffd5b50919050565b601f8211156200054e57805f5260205f20601f840160051c810160208510156200052a5750805b601f840160051c820191505b818110156200054b575f815560010162000536565b50505b505050565b81516001600160401b038111156200056f576200056f62000319565b6200058781620005808454620004c9565b8462000503565b602080601f831160018114620005bd575f8415620005a55750858301515b5f19600386901b1c1916600185901b17855562000617565b5f85815260208120601f198616915b82811015620005ed57888601518255948401946001909101908401620005cc565b50858210156200060b57878501515f19600388901b60f8161c191681555b505060018460011b0185555b505050505050565b5f8351620006328184602088016200032d565b835190830190620006488183602088016200032d565b01949350505050565b5f81518084526200066a8160208601602086016200032d565b601f01601f19169290920160200192915050565b6001600160a01b03841681526060602082018190525f90620006a39083018562000651565b8281036040840152620003d5818562000651565b61231480620006c55f395ff3fe60806040526004361061013b575f3560e01c80630b49351c1461013f57806312424e3f146101625780631f6d494214610178578063200d2ed2146101a357806321eff7fc1461021257806327b0229e1461024657806329dcb0cf146102655780632b7d782f1461027a5780633ccfd60b146102995780634051ddac146102ad57806347ccca02146102db57806366d003ac1461031257806379599f96146103315780638da5cb5b146103455780638dd0855714610364578063937e09b114610383578063aa3ec0a914610398578063b82c86d6146103b9578063c00007b0146103ce578063c438b40f146103fb578063c54512321461041a578063d7bb99ba14610439578063da076a8714610441578063e89e4ed614610475578063ea8a1af0146104a3578063eb599e43146104b7578063ed556ce2146104d6575b5f80fd5b34801561014a575f80fd5b506013545b6040519081526020015b60405180910390f35b34801561016d575f80fd5b506101766104f5565b005b348015610183575f80fd5b5061014f610192366004611ace565b60096020525f908152604090205481565b3480156101ae575f80fd5b50600a54600b54600c54600e54600f546011546012546101d99660ff90811696959481169392169087565b60408051971515885260208801969096529486019390935290151560608501526080840152151560a083015260c082015260e001610159565b34801561021d575f80fd5b5061014f61022c366004611ace565b6001600160a01b03165f9081526009602052604090205490565b348015610251575f80fd5b50610176610260366004611baa565b61073c565b348015610270575f80fd5b5061014f60075481565b348015610285575f80fd5b50610176610294366004611ccf565b61090d565b3480156102a4575f80fd5b506101766109ac565b3480156102b8575f80fd5b506102c1610b45565b6040516101599e9d9c9b9a99989796959493929190611e09565b3480156102e6575f80fd5b506015546102fa906001600160a01b031681565b6040516001600160a01b039091168152602001610159565b34801561031d575f80fd5b506003546102fa906001600160a01b031681565b34801561033c575f80fd5b50610176610c69565b348015610350575f80fd5b506001546102fa906001600160a01b031681565b34801561036f575f80fd5b506102fa61037e366004611ea2565b610e02565b34801561038e575f80fd5b5061014f60055481565b3480156103a3575f80fd5b506103ac610e2a565b6040516101599190611eb9565b3480156103c4575f80fd5b5061014f60065481565b3480156103d9575f80fd5b506103ed6103e8366004611ace565b610eb6565b604051610159929190611ecb565b348015610406575f80fd5b50610176610415366004611ea2565b610fdd565b348015610425575f80fd5b50610176610434366004611ee3565b61131d565b61017661143f565b34801561044c575f80fd5b5061014f61045b366004611ace565b6001600160a01b03165f908152600d602052604090205490565b348015610480575f80fd5b5061049461048f366004611ea2565b6115ac565b60405161015993929190611f35565b3480156104ae575f80fd5b50610176611670565b3480156104c2575f80fd5b506101766104d1366004611ea2565b61176b565b3480156104e1575f80fd5b506101d96104f0366004611ea2565b6119bd565b60065447101561054c5760405162461bcd60e51b815260206004820152601f60248201527f54617267657420636f6e747269627574696f6e206e6f7420726561636865640060448201526064015b60405180910390fd5b335f908152600960205260409020546105775760405162461bcd60e51b815260040161054390611f68565b335f908152600d6020526040902054156105c65760405162461bcd60e51b815260206004820152601060248201526f105b1c9958591e48185c1c1c9bdd995960821b6044820152606401610543565b60135415610668575f5b60145481101561066657601481815481106105ed576105ed611f93565b5f91825260209091206004600990920201015460ff1661065e5760405162461bcd60e51b815260206004820152602660248201527f416c6c206d696c6573746f6e6573206d75737420626520636f6d706c6574656460448201526508199a5c9cdd60d21b6064820152608401610543565b6001016105d0565b505b335f908152600d60205260408120429055600c80549161068783611fbb565b9091555050600c5460405133917fbfdb25cfa23d283b1a428f5061c98bd89890a3ef1c07f90d27de2f60d98679f4916106c291904290611fd3565b60405180910390a26008546106d990600290611fe1565b6106e4906001612000565b600c541061073a57600a805460ff1916600117905542600b8190556040517ffc534544f8ed1b516bf078b4ae88509d8f81f4fafefb10e9aad53e3e1fbce9bb916107319190815260200190565b60405180910390a15b565b600a5460ff1661075e5760405162461bcd60e51b815260040161054390612019565b335f908152600960205260409020546107895760405162461bcd60e51b815260040161054390611f68565b335f9081526010602052604090205460ff16156107db5760405162461bcd60e51b815260206004820152601060248201526f105b1c9958591e481c995dd85c99195960821b6044820152606401610543565b601554604051636902622f60e11b81526001600160a01b039091169063d204c45e9061080d9033908590600401612047565b5f604051808303815f87803b158015610824575f80fd5b505af1158015610836573d5f803e3d5ffd5b5050335f81815260106020526040808220805460ff191660011790556015549051632f745c5960e01b81529194506001600160a01b03169250632f745c599161088391859060040161206a565b602060405180830381865afa15801561089e573d5f803e3d5ffd5b505050506040513d601f19601f820116820180604052508101906108c29190612083565b9050336001600160a01b03167fe1efe4d046db58dd1ce37424297a3a8e9288104fd02b9e39455d8f67072dd7878284426040516109019392919061209a565b60405180910390a25050565b6001546001600160a01b03163314610923575f80fd5b81518351148015610935575080518251145b61093d575f80fd5b5f5b83518110156109a65761099e84828151811061095d5761095d611f93565b602002602001015184838151811061097757610977611f93565b602002602001015184848151811061099157610991611f93565b602002602001015161131d565b60010161093f565b50505050565b6003546001600160a01b031633146109c2575f80fd5b600a5460ff166109e45760405162461bcd60e51b815260040161054390612019565b5f5b601454811015610a625760148181548110610a0357610a03611f93565b5f91825260209091206004600990920201015460ff16610a5a5760405162461bcd60e51b815260206004820152601260248201527150656e64696e67206d696c6573746f6e657360701b6044820152606401610543565b6001016109e6565b50600e5460ff1615610ab25760405162461bcd60e51b8152602060048201526019602482015278141c9bda9958dd08185b1c9958591e4818dbdb5c1b195d1959603a1b6044820152606401610543565b6003546040516001600160a01b03909116904780156108fc02915f818181858888f19350505050158015610ae8573d5f803e3d5ffd5b50600e805460ff1916600117905542600f8190556003546040516001600160a01b03909116917f7774e751652adaca8b91d93039ccfe27e4b7180448d53272a623b673830020f591610b3b914791611fd3565b60405180910390a2565b600354600554600654600754600854600a54600b54600c54600e54600f54601154601254600480545f9d8e9d60609d8f9d8e9d8e9d8e9d8e9d8e9d8e9d8e9d8e9d8e9d8e9d479d6001600160a01b03169c919b919a91999198919760ff9283169790969095908316949093921691908c90610bbf906120b2565b80601f0160208091040260200160405190810160405280929190818152602001828054610beb906120b2565b8015610c365780601f10610c0d57610100808354040283529160200191610c36565b820191905f5260205f20905b815481529060010190602001808311610c1957829003601f168201915b50505050509b509d509d509d509d509d509d509d509d509d509d509d509d509d509d50909192939495969798999a9b9c9d565b6002546001600160a01b03163314610cd25760405162461bcd60e51b815260206004820152602660248201527f4f6e6c7920666163746f7279206f776e65722063616e206578706972652070726044820152656f6a6563747360d01b6064820152608401610543565b60115460ff1615610cf55760405162461bcd60e51b8152600401610543906120ea565b600a5460ff1615610d185760405162461bcd60e51b81526004016105439061211d565b600754421015610d695760405162461bcd60e51b815260206004820152601c60248201527b141c9bda9958dd08191958591b1a5b99481b9bdd081c995858da195960221b6044820152606401610543565b6006544710610db85760405162461bcd60e51b815260206004820152601b60248201527a15185c99d95d0818dbdb9d1c9a589d5d1a5bdb881c995858da1959602a1b6044820152606401610543565b6011805460ff1916600117905542601255610dd1611a14565b7fa1a76ff981049ea785e5ba852f4a586e2fc4634e442adb3bde2ca1cb4379e5384742604051610731929190611fd3565b60088181548110610e11575f80fd5b5f918252602090912001546001600160a01b0316905081565b60048054610e37906120b2565b80601f0160208091040260200160405190810160405280929190818152602001828054610e63906120b2565b8015610eae5780601f10610e8557610100808354040283529160200191610eae565b820191905f5260205f20905b815481529060010190602001808311610e9157829003601f168201915b505050505081565b6001600160a01b0381165f9081526010602052604081205460609060ff1615610fc657601554604051632f745c5960e01b81525f916001600160a01b031690632f745c5990610f0b908790859060040161206a565b602060405180830381865afa158015610f26573d5f803e3d5ffd5b505050506040513d601f19601f82011682018060405250810190610f4a9190612083565b60155460405163c87b56dd60e01b81526004810183905291925082916001600160a01b039091169063c87b56dd906024015f60405180830381865afa158015610f95573d5f803e3d5ffd5b505050506040513d5f823e601f3d908101601f19168201604052610fbc919081019061214f565b9250925050915091565b505060408051602081019091525f80825292909150565b60135481106110285760405162461bcd60e51b8152602060048201526017602482015276092dcecc2d8d2c840dad2d8cae6e8dedcca40d2dcc8caf604b1b6044820152606401610543565b5f6013828154811061103c5761103c611f93565b905f5260205f20906003020190505f6014838154811061105e5761105e611f93565b905f5260205f20906009020190505f831115611111575f5b8381101561110f576014818154811061109157611091611f93565b5f91825260209091206004600990920201015460ff166111075760405162461bcd60e51b815260206004820152602b60248201527f50726576696f7573206d696c6573746f6e6573206d75737420626520636f6d7060448201526a1b195d195908199a5c9cdd60aa1b6064820152608401610543565b600101611076565b505b335f9081526009602052604090205461113c5760405162461bcd60e51b815260040161054390611f68565b335f9081526003820160205260409020541561119a5760405162461bcd60e51b815260206004820152601f60248201527f416c726561647920617070726f7665642074686973206d696c6573746f6e65006044820152606401610543565b600282015483156111e45760136111b26001866121c0565b815481106111c2576111c2611f93565b905f5260205f2090600302016002015483600201546111e191906121c0565b90505b804710156112345760405162461bcd60e51b815260206004820152601f60248201527f4d696c6573746f6e65207468726573686f6c64206e6f742072656163686564006044820152606401610543565b335f90815260038301602052604081204290556002830180549161125783611fbb565b9190505550336001600160a01b0316847fbcc8d96147346acca8053ccdac1317167b1cb4456421948b4b31638f502f2d6284600201544260405161129c929190611fd3565b60405180910390a36008546112b390600290611fe1565b6112be906001612000565b8260020154106109a657815460ff1916600190811783554290830181905560405185917f939da3b627c123c81fe5aacebf925163337a0d4f8a03724640618078cad248949161130f91815260200190565b60405180910390a250505050565b6001546001600160a01b03163314611333575f80fd5b5f83511161133f575f80fd5b5f821161134a575f80fd5b6006548210611357575f80fd5b6001600160a01b038116611369575f80fd5b601354156113ab5760138054611381906001906121c0565b8154811061139157611391611f93565b905f5260205f2090600302016002015482116113ab575f80fd5b601380546001810182555f919091526003027f66de8ffda797e3de9c05e8fc57b3bf0ec28a930d40b0d285d93c06501cf6a0908101907f66de8ffda797e3de9c05e8fc57b3bf0ec28a930d40b0d285d93c06501cf6a0910161140d858261221f565b50600281019290925581546001600160a01b0319166001600160a01b0391909116179055506014805460010181555f52565b60055434101561148e5760405162461bcd60e51b815260206004820152601a602482015279436f6e747269627574696f6e2062656c6f77206d696e696d756d60301b6044820152606401610543565b60055460065461149e9190612000565b4711156114ed5760405162461bcd60e51b815260206004820181905260248201527f436f6e747269627574696f6e20776f756c6420657863656564207461726765746044820152606401610543565b60075442106114fa575f80fd5b335f90815260096020526040812054900361155157600880546001810182555f919091527ff3f7a9fe364faab93b216da50a3214154f22a0a2b415b23a84c8169e8b636ee30180546001600160a01b031916331790555b335f81815260096020908152604091829020349081905560085483519182524792820192909252918201524260608201527f38eaf060ddec1dde1c99c9cce5c8f34a03c48e9368f6ff7b768898f62786058090608001610b3b565b601381815481106115bb575f80fd5b5f918252602090912060039091020180546001820180546001600160a01b039092169350906115e9906120b2565b80601f0160208091040260200160405190810160405280929190818152602001828054611615906120b2565b80156116605780601f1061163757610100808354040283529160200191611660565b820191905f5260205f20905b81548152906001019060200180831161164357829003601f168201915b5050505050908060020154905083565b6001546001600160a01b03163314611686575f80fd5b60115460ff16156116a95760405162461bcd60e51b8152600401610543906120ea565b600a5460ff16156116cc5760405162461bcd60e51b81526004016105439061211d565b60075442106117175760405162461bcd60e51b8152602060048201526017602482015276141c9bda9958dd08185b1c9958591e48195e1c1a5c9959604a1b6044820152606401610543565b6011805460ff1916600117905542601255611730611a14565b336001600160a01b03167fff980be860fcf38146235584f535793513378822dc159072e5ca157ba497780d4742604051610b3b929190611fd3565b6001546001600160a01b03163314611781575f80fd5b5f6013828154811061179557611795611f93565b905f5260205f20906003020190505f601483815481106117b7576117b7611f93565b5f9182526020909120600990910201805490915060ff166118135760405162461bcd60e51b8152602060048201526016602482015275135a5b195cdd1bdb99481b9bdd08185c1c1c9bdd995960521b6044820152606401610543565b600481015460ff16156118665760405162461bcd60e51b815260206004820152601b60248201527a135a5b195cdd1bdb9948185b1c9958591e4818dbdb5c1b195d1959602a1b6044820152606401610543565b60028201545f5b84811015611920576014818154811061188857611888611f93565b5f91825260209091206004600990920201015460ff166118e85760405162461bcd60e51b815260206004820152601b60248201527a50726576696f7573206d696c6573746f6e65732070656e64696e6760281b6044820152606401610543565b601381815481106118fb576118fb611f93565b905f5260205f209060030201600201548261191691906121c0565b915060010161186d565b5082546040516001600160a01b039091169082156108fc029083905f818181858888f19350505050158015611957573d5f803e3d5ffd5b5060048201805460ff19166001179055426005830181905583546040516001600160a01b039091169186917e2cbc6624f888e1ab438a815429241e2d69cb4a5e8a8014f6caa5274b420bd5916119af91869190611fd3565b60405180910390a350505050565b601481815481106119cc575f80fd5b5f918252602090912060099091020180546001820154600283015460048401546005850154600786015460089096015460ff9586169750939592949182169390929091169087565b6008545f5b81811015611aaf575f60088281548110611a3557611a35611f93565b5f9182526020808320909101546001600160a01b031680835260099091526040909120549091508015611aa5576001600160a01b0382165f818152600960205260408082208290555183156108fc0291849190818181858888f19350505050158015611aa3573d5f803e3d5ffd5b505b5050600101611a19565b5050565b80356001600160a01b0381168114611ac9575f80fd5b919050565b5f60208284031215611ade575f80fd5b611ae782611ab3565b9392505050565b634e487b7160e01b5f52604160045260245ffd5b604051601f8201601f191681016001600160401b0381118282101715611b2a57611b2a611aee565b604052919050565b5f6001600160401b03821115611b4a57611b4a611aee565b50601f01601f191660200190565b5f82601f830112611b67575f80fd5b8135611b7a611b7582611b32565b611b02565b818152846020838601011115611b8e575f80fd5b816020850160208301375f918101602001919091529392505050565b5f60208284031215611bba575f80fd5b81356001600160401b03811115611bcf575f80fd5b611bdb84828501611b58565b949350505050565b5f6001600160401b03821115611bfb57611bfb611aee565b5060051b60200190565b5f82601f830112611c14575f80fd5b81356020611c24611b7583611be3565b8083825260208201915060208460051b870101935086841115611c45575f80fd5b602086015b84811015611c615780358352918301918301611c4a565b509695505050505050565b5f82601f830112611c7b575f80fd5b81356020611c8b611b7583611be3565b8083825260208201915060208460051b870101935086841115611cac575f80fd5b602086015b84811015611c6157611cc281611ab3565b8352918301918301611cb1565b5f805f60608486031215611ce1575f80fd5b83356001600160401b0380821115611cf7575f80fd5b818601915086601f830112611d0a575f80fd5b81356020611d1a611b7583611be3565b82815260059290921b8401810191818101908a841115611d38575f80fd5b8286015b84811015611d6e57803586811115611d52575f80fd5b611d608d86838b0101611b58565b845250918301918301611d3c565b5097505087013592505080821115611d84575f80fd5b611d9087838801611c05565b93506040860135915080821115611da5575f80fd5b50611db286828701611c6c565b9150509250925092565b5f5b83811015611dd6578181015183820152602001611dbe565b50505f910152565b5f8151808452611df5816020860160208601611dbc565b601f01601f19169290920160200192915050565b8e81526001600160a01b038e1660208201526101c0604082018190525f90611e339083018f611dde565b90508c60608301528b60808301528a60a08301528960c083015288151560e08301528761010083015286610120830152611e7261014083018715159052565b84610160830152611e8861018083018515159052565b826101a08301529f9e505050505050505050505050505050565b5f60208284031215611eb2575f80fd5b5035919050565b602081525f611ae76020830184611dde565b828152604060208201525f611bdb6040830184611dde565b5f805f60608486031215611ef5575f80fd5b83356001600160401b03811115611f0a575f80fd5b611f1686828701611b58565b93505060208401359150611f2c60408501611ab3565b90509250925092565b6001600160a01b03841681526060602082018190525f90611f5890830185611dde565b9050826040830152949350505050565b6020808252601190820152702737ba10309031b7b73a3934b13aba37b960791b604082015260600190565b634e487b7160e01b5f52603260045260245ffd5b634e487b7160e01b5f52601160045260245ffd5b5f60018201611fcc57611fcc611fa7565b5060010190565b918252602082015260400190565b5f82611ffb57634e487b7160e01b5f52601260045260245ffd5b500490565b8082018082111561201357612013611fa7565b92915050565b602080825260149082015273141c9bda9958dd081b9bdd08185c1c1c9bdd995960621b604082015260600190565b6001600160a01b03831681526040602082018190525f90611bdb90830184611dde565b6001600160a01b03929092168252602082015260400190565b5f60208284031215612093575f80fd5b5051919050565b838152606060208201525f611f586060830185611dde565b600181811c908216806120c657607f821691505b6020821081036120e457634e487b7160e01b5f52602260045260245ffd5b50919050565b602080825260199082015278141c9bda9958dd08185b1c9958591e4818d85b98d95b1b1959603a1b604082015260600190565b602080825260189082015277141c9bda9958dd08185b1c9958591e48185c1c1c9bdd995960421b604082015260600190565b5f6020828403121561215f575f80fd5b81516001600160401b03811115612174575f80fd5b8201601f81018413612184575f80fd5b8051612192611b7582611b32565b8181528560208385010111156121a6575f80fd5b6121b7826020830160208601611dbc565b95945050505050565b8181038181111561201357612013611fa7565b601f82111561221a57805f5260205f20601f840160051c810160208510156121f85750805b601f840160051c820191505b81811015612217575f8155600101612204565b50505b505050565b81516001600160401b0381111561223857612238611aee565b61224c8161224684546120b2565b846121d3565b602080601f83116001811461227f575f84156122685750858301515b5f19600386901b1c1916600185901b1785556122d6565b5f85815260208120601f198616915b828110156122ad5788860151825594840194600190910190840161228e565b50858210156122ca57878501515f19600388901b60f8161c191681555b505060018460011b0185555b50505050505056fea264697066735822122024506d0eb60595828b5374c88e40b53ed06e6aa7c87aff8448bb1b127a4657f764736f6c63430008180033608060405234801562000010575f80fd5b5060405162001aee38038062001aee8339810160408190526200003391620001aa565b8282825f620000438382620002b8565b506001620000528282620002b8565b5050506001600160a01b0381166200008357604051631e4fbdf760e01b81525f600482015260240160405180910390fd5b6200008e8162000098565b5050505062000384565b600b80546001600160a01b038381166001600160a01b0319831681179093556040519116919082907f8be0079c531659141344cd1fd0a4f28419497f9722a3daafe3b4186f6b6457e0905f90a35050565b634e487b7160e01b5f52604160045260245ffd5b5f82601f8301126200010d575f80fd5b81516001600160401b03808211156200012a576200012a620000e9565b604051601f8301601f19908116603f01168101908282118183101715620001555762000155620000e9565b816040528381526020925086602085880101111562000172575f80fd5b5f91505b8382101562000195578582018301518183018401529082019062000176565b5f602085830101528094505050505092915050565b5f805f60608486031215620001bd575f80fd5b83516001600160a01b0381168114620001d4575f80fd5b60208501519093506001600160401b0380821115620001f1575f80fd5b620001ff87838801620000fd565b9350604086015191508082111562000215575f80fd5b506200022486828701620000fd565b9150509250925092565b600181811c908216806200024357607f821691505b6020821081036200026257634e487b7160e01b5f52602260045260245ffd5b50919050565b601f821115620002b357805f5260205f20601f840160051c810160208510156200028f5750805b601f840160051c820191505b81811015620002b0575f81556001016200029b565b50505b505050565b81516001600160401b03811115620002d457620002d4620000e9565b620002ec81620002e584546200022e565b8462000268565b602080601f83116001811462000322575f84156200030a5750858301515b5f19600386901b1c1916600185901b1785556200037c565b5f85815260208120601f198616915b82811015620003525788860151825594840194600190910190840162000331565b50858210156200037057878501515f19600388901b60f8161c191681555b505060018460011b0185555b505050505050565b61175c80620003925f395ff3fe608060405234801561000f575f80fd5b50600436106100fa575f3560e01c806301ffc9a7146100fe57806306fdde0314610126578063081812fc1461013b578063095ea7b31461015b57806318160ddd1461017057806323b872dd146101825780632f745c591461019557806342842e0e146101a85780634f6ccce7146101bb5780636352211e146101ce57806370a08231146101e1578063715018a6146101f45780638da5cb5b146101fc57806395d89b4114610204578063a22cb4651461020c578063b88d4fde1461021f578063c87b56dd14610232578063d204c45e14610245578063e985e9c514610258578063f2fde38b1461026b575b5f80fd5b61011161010c3660046111e9565b61027e565b60405190151581526020015b60405180910390f35b61012e61028e565b60405161011d9190611251565b61014e610149366004611263565b61031d565b60405161011d919061127a565b61016e6101693660046112a9565b610331565b005b6008545b60405190815260200161011d565b61016e6101903660046112d1565b610340565b6101746101a33660046112a9565b6103d2565b61016e6101b63660046112d1565b610427565b6101746101c9366004611263565b610446565b61014e6101dc366004611263565b610496565b6101746101ef36600461130a565b6104a0565b61016e6104e5565b61014e6104f8565b61012e610507565b61016e61021a366004611323565b610516565b61016e61022d3660046113e2565b610521565b61012e610240366004611263565b610538565b61016e610253366004611458565b610543565b6101116102663660046114b5565b610575565b61016e61027936600461130a565b6105a2565b5f610288826105df565b92915050565b60605f805461029c906114e6565b80601f01602080910402602001604051908101604052809291908181526020018280546102c8906114e6565b80156103135780601f106102ea57610100808354040283529160200191610313565b820191905f5260205f20905b8154815290600101906020018083116102f657829003601f168201915b5050505050905090565b5f61032782610603565b506102888261063a565b61033c828233610654565b5050565b6001600160a01b038216610372575f604051633250574960e11b8152600401610369919061127a565b60405180910390fd5b5f61037e838333610661565b9050836001600160a01b0316816001600160a01b0316146103cc576040516364283d7b60e01b81526001600160a01b0380861660048301526024820184905282166044820152606401610369565b50505050565b5f6103dc836104a0565b82106103ff57828260405163295f44f760e21b815260040161036992919061151e565b506001600160a01b03919091165f908152600660209081526040808320938352929052205490565b61044183838360405180602001604052805f815250610521565b505050565b5f61045060085490565b8210610473575f8260405163295f44f760e21b815260040161036992919061151e565b6008828154811061048657610486611537565b905f5260205f2001549050919050565b5f61028882610603565b5f6001600160a01b0382166104ca575f6040516322718ad960e21b8152600401610369919061127a565b506001600160a01b03165f9081526003602052604090205490565b6104ed610675565b6104f65f6106a7565b565b600b546001600160a01b031690565b60606001805461029c906114e6565b61033c3383836106f8565b61052c848484610340565b6103cc8484848461078d565b6060610288826108a1565b61054b610675565b600c80545f918261055b8361155f565b91905055905061056b83826109a4565b61044181836109bd565b6001600160a01b039182165f90815260056020908152604080832093909416825291909152205460ff1690565b6105aa610675565b6001600160a01b0381166105d3575f604051631e4fbdf760e01b8152600401610369919061127a565b6105dc816106a7565b50565b5f6001600160e01b03198216632483248360e11b1480610288575061028882610a0c565b5f8061060e83610a30565b90506001600160a01b03811661028857604051637e27328960e01b815260048101849052602401610369565b5f908152600460205260409020546001600160a01b031690565b6104418383836001610a4a565b5f61066d848484610b45565b949350505050565b3361067e6104f8565b6001600160a01b0316146104f6573360405163118cdaa760e01b8152600401610369919061127a565b600b80546001600160a01b038381166001600160a01b0319831681179093556040519116919082907f8be0079c531659141344cd1fd0a4f28419497f9722a3daafe3b4186f6b6457e0905f90a35050565b6001600160a01b0382166107215781604051630b61174360e31b8152600401610369919061127a565b6001600160a01b038381165f81815260056020908152604080832094871680845294825291829020805460ff191686151590811790915591519182527f17307eab39ab6107e8899845ad3d59bd9653f200f220920489ca2b5937696c31910160405180910390a3505050565b6001600160a01b0383163b156103cc57604051630a85bd0160e11b81526001600160a01b0384169063150b7a02906107cf903390889087908790600401611577565b6020604051808303815f875af1925050508015610809575060408051601f3d908101601f19168201909252610806918101906115b3565b60015b610867573d808015610836576040519150601f19603f3d011682016040523d82523d5f602084013e61083b565b606091505b5080515f0361085f5783604051633250574960e11b8152600401610369919061127a565b805181602001fd5b6001600160e01b03198116630a85bd0160e11b1461089a5783604051633250574960e11b8152600401610369919061127a565b5050505050565b60606108ac82610603565b505f828152600a6020526040812080546108c5906114e6565b80601f01602080910402602001604051908101604052809291908181526020018280546108f1906114e6565b801561093c5780601f106109135761010080835404028352916020019161093c565b820191905f5260205f20905b81548152906001019060200180831161091f57829003601f168201915b505050505090505f61095860408051602081019091525f815290565b905080515f03610969575092915050565b81511561099b5780826040516020016109839291906115ce565b60405160208183030381529060405292505050919050565b61066d84610c10565b61033c828260405180602001604052805f815250610c81565b5f828152600a602052604090206109d48282611640565b506040518281527ff8e1a15aba9398e019f0b49df1a4fde98ee17ae345cb5f6b5e2c27f5033e8ce79060200160405180910390a15050565b5f6001600160e01b0319821663780e9d6360e01b1480610288575061028882610c97565b5f908152600260205260409020546001600160a01b031690565b8080610a5e57506001600160a01b03821615155b15610b16575f610a6d84610603565b90506001600160a01b03831615801590610a995750826001600160a01b0316816001600160a01b031614155b8015610aac5750610aaa8184610575565b155b15610acc578260405163a9fbf51f60e01b8152600401610369919061127a565b8115610b145783856001600160a01b0316826001600160a01b03167f8c5be1e5ebec7d5bd14f71427d1e84f3dd0314c0f7b2291e5b200ac8c7c3b92560405160405180910390a45b505b50505f90815260046020526040902080546001600160a01b0319166001600160a01b0392909216919091179055565b5f80610b52858585610ce6565b90506001600160a01b038116610bae57610ba984600880545f838152600960205260408120829055600182018355919091527ff3f7a9fe364faab93b216da50a3214154f22a0a2b415b23a84c8169e8b636ee30155565b610bd1565b846001600160a01b0316816001600160a01b031614610bd157610bd18185610dd3565b6001600160a01b038516610bed57610be884610e60565b61066d565b846001600160a01b0316816001600160a01b03161461066d5761066d8585610f07565b6060610c1b82610603565b505f610c3160408051602081019091525f815290565b90505f815111610c4f5760405180602001604052805f815250610c7a565b80610c5984610f55565b604051602001610c6a9291906115ce565b6040516020818303038152906040525b9392505050565b610c8b8383610fe4565b6104415f84848461078d565b5f6001600160e01b031982166380ac58cd60e01b1480610cc757506001600160e01b03198216635b5e139f60e01b145b8061028857506301ffc9a760e01b6001600160e01b0319831614610288565b5f80610cf184610a30565b90506001600160a01b03831615610d0d57610d0d818486611045565b6001600160a01b03811615610d4757610d285f855f80610a4a565b6001600160a01b0381165f90815260036020526040902080545f190190555b6001600160a01b03851615610d75576001600160a01b0385165f908152600360205260409020805460010190555b5f8481526002602052604080822080546001600160a01b0319166001600160a01b0389811691821790925591518793918516917fddf252ad1be2c89b69c2b068fc378daa952ba7f163c4a11628f55a4df523b3ef91a4949350505050565b5f610ddd836104a0565b5f83815260076020526040902054909150808214610e2e576001600160a01b0384165f9081526006602090815260408083208584528252808320548484528184208190558352600790915290208190555b505f9182526007602090815260408084208490556001600160a01b039094168352600681528383209183525290812055565b6008545f90610e71906001906116ff565b5f8381526009602052604081205460088054939450909284908110610e9857610e98611537565b905f5260205f20015490508060088381548110610eb757610eb7611537565b5f918252602080832090910192909255828152600990915260408082208490558582528120556008805480610eee57610eee611712565b600190038181905f5260205f20015f9055905550505050565b5f6001610f13846104a0565b610f1d91906116ff565b6001600160a01b039093165f908152600660209081526040808320868452825280832085905593825260079052919091209190915550565b60605f610f618361109b565b60010190505f816001600160401b03811115610f7f57610f7f61135c565b6040519080825280601f01601f191660200182016040528015610fa9576020820181803683370190505b5090508181016020015b5f19016f181899199a1a9b1b9c1cb0b131b232b360811b600a86061a8153600a8504945084610fb357509392505050565b6001600160a01b03821661100d575f604051633250574960e11b8152600401610369919061127a565b5f61101983835f610661565b90506001600160a01b03811615610441575f6040516339e3563760e11b8152600401610369919061127a565b611050838383611170565b610441576001600160a01b03831661107e57604051637e27328960e01b815260048101829052602401610369565b818160405163177e802f60e01b815260040161036992919061151e565b5f8072184f03e93ff9f4daa797ed6e38ed64bf6a1f0160401b83106110d95772184f03e93ff9f4daa797ed6e38ed64bf6a1f0160401b830492506040015b6904ee2d6d415b85acef8160201b8310611103576904ee2d6d415b85acef8160201b830492506020015b662386f26fc10000831061112157662386f26fc10000830492506010015b6305f5e1008310611139576305f5e100830492506008015b612710831061114d57612710830492506004015b6064831061115f576064830492506002015b600a83106102885760010192915050565b5f6001600160a01b0383161580159061066d5750826001600160a01b0316846001600160a01b031614806111a957506111a98484610575565b8061066d5750826001600160a01b03166111c28361063a565b6001600160a01b031614949350505050565b6001600160e01b0319811681146105dc575f80fd5b5f602082840312156111f9575f80fd5b8135610c7a816111d4565b5f5b8381101561121e578181015183820152602001611206565b50505f910152565b5f815180845261123d816020860160208601611204565b601f01601f19169290920160200192915050565b602081525f610c7a6020830184611226565b5f60208284031215611273575f80fd5b5035919050565b6001600160a01b0391909116815260200190565b80356001600160a01b03811681146112a4575f80fd5b919050565b5f80604083850312156112ba575f80fd5b6112c38361128e565b946020939093013593505050565b5f805f606084860312156112e3575f80fd5b6112ec8461128e565b92506112fa6020850161128e565b9150604084013590509250925092565b5f6020828403121561131a575f80fd5b610c7a8261128e565b5f8060408385031215611334575f80fd5b61133d8361128e565b915060208301358015158114611351575f80fd5b809150509250929050565b634e487b7160e01b5f52604160045260245ffd5b5f6001600160401b03808411156113895761138961135c565b604051601f8501601f19908116603f011681019082821181831017156113b1576113b161135c565b816040528093508581528686860111156113c9575f80fd5b858560208301375f602087830101525050509392505050565b5f805f80608085870312156113f5575f80fd5b6113fe8561128e565b935061140c6020860161128e565b92506040850135915060608501356001600160401b0381111561142d575f80fd5b8501601f8101871361143d575f80fd5b61144c87823560208401611370565b91505092959194509250565b5f8060408385031215611469575f80fd5b6114728361128e565b915060208301356001600160401b0381111561148c575f80fd5b8301601f8101851361149c575f80fd5b6114ab85823560208401611370565b9150509250929050565b5f80604083850312156114c6575f80fd5b6114cf8361128e565b91506114dd6020840161128e565b90509250929050565b600181811c908216806114fa57607f821691505b60208210810361151857634e487b7160e01b5f52602260045260245ffd5b50919050565b6001600160a01b03929092168252602082015260400190565b634e487b7160e01b5f52603260045260245ffd5b634e487b7160e01b5f52601160045260245ffd5b5f600182016115705761157061154b565b5060010190565b6001600160a01b03858116825284166020820152604081018390526080606082018190525f906115a990830184611226565b9695505050505050565b5f602082840312156115c3575f80fd5b8151610c7a816111d4565b5f83516115df818460208801611204565b8351908301906115f3818360208801611204565b01949350505050565b601f82111561044157805f5260205f20601f840160051c810160208510156116215750805b601f840160051c820191505b8181101561089a575f815560010161162d565b81516001600160401b038111156116595761165961135c565b61166d8161166784546114e6565b846115fc565b602080601f8311600181146116a0575f84156116895750858301515b5f19600386901b1c1916600185901b1785556116f7565b5f85815260208120601f198616915b828110156116ce578886015182559484019460019091019084016116af565b50858210156116eb57878501515f19600388901b60f8161c191681555b505060018460011b0185555b505050505050565b818103818111156102885761028861154b565b634e487b7160e01b5f52603160045260245ffdfea2646970667358221220e529bfe2e1be774d82aead2a29daeccff3d6b6f5ed388f64539bae71963f07af64736f6c63430008180033a26469706673582212209edf21472dcd360fac08911193c8beb27dfd70514a7c6fc2dc5c60b90498853c64736f6c63430008180033","opcodes":"PUSH1 0x80 PUSH1 0x40 MSTORE CALLVALUE DUP1 ISZERO PUSH2 0xF JUMPI PUSH0 DUP1 REVERT JUMPDEST POP PUSH1 0x2 DUP1 SLOAD PUSH1 0x1 PUSH1 0x1 PUSH1 0xA0 SHL SUB NOT AND CALLER OR SWAP1 SSTORE PUSH2 0x4BA4 DUP1 PUSH2 0x2F PUSH0 CODECOPY PUSH0 RETURN INVALID PUSH1 0x80 PUSH1 0x40 MSTORE CALLVALUE DUP1 ISZERO PUSH3 0x10 JUMPI PUSH0 DUP1 REVERT JUMPDEST POP PUSH1 0x4 CALLDATASIZE LT PUSH3 0x68 JUMPI PUSH0 CALLDATALOAD PUSH1 0xE0 SHR DUP1 PUSH4 0x2FA9C007 EQ PUSH3 0x6C JUMPI DUP1 PUSH4 0x7AC3886E EQ PUSH3 0xA0 JUMPI DUP1 PUSH4 0x8DA5CB5B EQ PUSH3 0xB9 JUMPI DUP1 PUSH4 0x9EC6DEAF EQ PUSH3 0xCD JUMPI DUP1 PUSH4 0xC73D7024 EQ PUSH3 0xE4 JUMPI DUP1 PUSH4 0xF08A64E6 EQ PUSH3 0xFD JUMPI JUMPDEST PUSH0 DUP1 REVERT JUMPDEST PUSH3 0x83 PUSH3 0x7D CALLDATASIZE PUSH1 0x4 PUSH3 0x386 JUMP JUMPDEST PUSH3 0x107 JUMP JUMPDEST PUSH1 0x40 MLOAD PUSH1 0x1 PUSH1 0x1 PUSH1 0xA0 SHL SUB SWAP1 SWAP2 AND DUP2 MSTORE PUSH1 0x20 ADD JUMPDEST PUSH1 0x40 MLOAD DUP1 SWAP2 SUB SWAP1 RETURN JUMPDEST PUSH3 0xAA PUSH3 0x13C JUMP JUMPDEST PUSH1 0x40 MLOAD PUSH3 0x97 SWAP2 SWAP1 PUSH3 0x3B1 JUMP JUMPDEST PUSH1 0x2 SLOAD PUSH3 0x83 SWAP1 PUSH1 0x1 PUSH1 0x1 PUSH1 0xA0 SHL SUB AND DUP2 JUMP JUMPDEST PUSH3 0x83 PUSH3 0xDE CALLDATASIZE PUSH1 0x4 PUSH3 0x3FF JUMP JUMPDEST PUSH3 0x19D JUMP JUMPDEST PUSH3 0xFB PUSH3 0xF5 CALLDATASIZE PUSH1 0x4 PUSH3 0x4BB JUMP JUMPDEST PUSH3 0x1C5 JUMP JUMPDEST STOP JUMPDEST PUSH3 0xAA PUSH3 0x2F4 JUMP JUMPDEST PUSH1 0x1 PUSH1 0x20 MSTORE DUP2 PUSH0 MSTORE PUSH1 0x40 PUSH0 KECCAK256 DUP2 DUP2 SLOAD DUP2 LT PUSH3 0x121 JUMPI PUSH0 DUP1 REVERT JUMPDEST PUSH0 SWAP2 DUP3 MSTORE PUSH1 0x20 SWAP1 SWAP2 KECCAK256 ADD SLOAD PUSH1 0x1 PUSH1 0x1 PUSH1 0xA0 SHL SUB AND SWAP2 POP DUP3 SWAP1 POP JUMP JUMPDEST PUSH1 0x60 PUSH0 DUP1 SLOAD DUP1 PUSH1 0x20 MUL PUSH1 0x20 ADD PUSH1 0x40 MLOAD SWAP1 DUP2 ADD PUSH1 0x40 MSTORE DUP1 SWAP3 SWAP2 SWAP1 DUP2 DUP2 MSTORE PUSH1 0x20 ADD DUP3 DUP1 SLOAD DUP1 ISZERO PUSH3 0x193 JUMPI PUSH1 0x20 MUL DUP3 ADD SWAP2 SWAP1 PUSH0 MSTORE PUSH1 0x20 PUSH0 KECCAK256 SWAP1 JUMPDEST DUP2 SLOAD PUSH1 0x1 PUSH1 0x1 PUSH1 0xA0 SHL SUB AND DUP2 MSTORE PUSH1 0x1 SWAP1 SWAP2 ADD SWAP1 PUSH1 0x20 ADD DUP1 DUP4 GT PUSH3 0x174 JUMPI JUMPDEST POP POP POP POP POP SWAP1 POP SWAP1 JUMP JUMPDEST PUSH0 DUP2 DUP2 SLOAD DUP2 LT PUSH3 0x1AC JUMPI PUSH0 DUP1 REVERT JUMPDEST PUSH0 SWAP2 DUP3 MSTORE PUSH1 0x20 SWAP1 SWAP2 KECCAK256 ADD SLOAD PUSH1 0x1 PUSH1 0x1 PUSH1 0xA0 SHL SUB AND SWAP1 POP DUP2 JUMP JUMPDEST PUSH0 DUP1 SLOAD PUSH3 0x1D5 SWAP1 PUSH1 0x1 PUSH3 0x574 JUMP JUMPDEST CALLER DUP10 DUP10 DUP10 DUP10 DUP10 DUP10 DUP10 PUSH1 0x2 PUSH0 SWAP1 SLOAD SWAP1 PUSH2 0x100 EXP SWAP1 DIV PUSH1 0x1 PUSH1 0x1 PUSH1 0xA0 SHL SUB AND PUSH1 0x40 MLOAD PUSH3 0x200 SWAP1 PUSH3 0x35C JUMP JUMPDEST PUSH3 0x215 SWAP11 SWAP10 SWAP9 SWAP8 SWAP7 SWAP6 SWAP5 SWAP4 SWAP3 SWAP2 SWAP1 PUSH3 0x5DF JUMP JUMPDEST PUSH1 0x40 MLOAD DUP1 SWAP2 SUB SWAP1 PUSH0 CREATE DUP1 ISZERO DUP1 ISZERO PUSH3 0x22F JUMPI RETURNDATASIZE PUSH0 DUP1 RETURNDATACOPY RETURNDATASIZE PUSH0 REVERT JUMPDEST POP PUSH0 DUP1 SLOAD PUSH1 0x1 DUP2 DUP2 ADD DUP4 SSTORE PUSH32 0x290DECD9548B62A8D60345A988386FC84BA6BC95484008F6362F93160EF3E563 SWAP1 SWAP2 ADD DUP1 SLOAD PUSH1 0x1 PUSH1 0x1 PUSH1 0xA0 SHL SUB DUP6 AND PUSH1 0x1 PUSH1 0x1 PUSH1 0xA0 SHL SUB NOT SWAP2 DUP3 AND DUP2 OR SWAP1 SWAP3 SSTORE CALLER DUP1 DUP6 MSTORE PUSH1 0x20 DUP5 DUP2 MSTORE PUSH1 0x40 DUP1 DUP8 KECCAK256 DUP1 SLOAD SWAP7 DUP8 ADD DUP2 SSTORE DUP8 MSTORE SWAP1 DUP7 KECCAK256 SWAP1 SWAP5 ADD DUP1 SLOAD SWAP1 SWAP3 AND DUP4 OR SWAP1 SWAP2 SSTORE SWAP3 SLOAD SWAP2 MLOAD SWAP4 SWAP5 POP SWAP2 SWAP3 PUSH32 0xB4A5BFDD6E62279AB04317FC55125A615B01848FDAF6180CBE6B5533B151E6A4 SWAP1 PUSH3 0x2E2 SWAP1 DUP13 SWAP1 DUP13 SWAP1 DUP13 SWAP1 DUP13 SWAP1 TIMESTAMP SWAP1 PUSH3 0x66F JUMP JUMPDEST PUSH1 0x40 MLOAD DUP1 SWAP2 SUB SWAP1 LOG4 POP POP POP POP POP POP POP POP JUMP JUMPDEST CALLER PUSH0 SWAP1 DUP2 MSTORE PUSH1 0x1 PUSH1 0x20 SWAP1 DUP2 MSTORE PUSH1 0x40 SWAP2 DUP3 SWAP1 KECCAK256 DUP1 SLOAD DUP4 MLOAD DUP2 DUP5 MUL DUP2 ADD DUP5 ADD SWAP1 SWAP5 MSTORE DUP1 DUP5 MSTORE PUSH1 0x60 SWAP4 SWAP3 DUP4 ADD DUP3 DUP3 DUP1 ISZERO PUSH3 0x193 JUMPI PUSH1 0x20 MUL DUP3 ADD SWAP2 SWAP1 PUSH0 MSTORE PUSH1 0x20 PUSH0 KECCAK256 SWAP1 DUP2 SLOAD PUSH1 0x1 PUSH1 0x1 PUSH1 0xA0 SHL SUB AND DUP2 MSTORE PUSH1 0x1 SWAP1 SWAP2 ADD SWAP1 PUSH1 0x20 ADD DUP1 DUP4 GT PUSH3 0x174 JUMPI POP POP POP POP POP SWAP1 POP SWAP1 JUMP JUMPDEST PUSH2 0x44C7 DUP1 PUSH3 0x6A8 DUP4 CODECOPY ADD SWAP1 JUMP JUMPDEST DUP1 CALLDATALOAD PUSH1 0x1 PUSH1 0x1 PUSH1 0xA0 SHL SUB DUP2 AND DUP2 EQ PUSH3 0x381 JUMPI PUSH0 DUP1 REVERT JUMPDEST SWAP2 SWAP1 POP JUMP JUMPDEST PUSH0 DUP1 PUSH1 0x40 DUP4 DUP6 SUB SLT ISZERO PUSH3 0x398 JUMPI PUSH0 DUP1 REVERT JUMPDEST PUSH3 0x3A3 DUP4 PUSH3 0x36A JUMP JUMPDEST SWAP5 PUSH1 0x20 SWAP4 SWAP1 SWAP4 ADD CALLDATALOAD SWAP4 POP POP POP JUMP JUMPDEST PUSH1 0x20 DUP1 DUP3 MSTORE DUP3 MLOAD DUP3 DUP3 ADD DUP2 SWAP1 MSTORE PUSH0 SWAP2 SWAP1 DUP5 DUP3 ADD SWAP1 PUSH1 0x40 DUP6 ADD SWAP1 DUP5 JUMPDEST DUP2 DUP2 LT ISZERO PUSH3 0x3F3 JUMPI DUP4 MLOAD PUSH1 0x1 PUSH1 0x1 PUSH1 0xA0 SHL SUB AND DUP4 MSTORE SWAP3 DUP5 ADD SWAP3 SWAP2 DUP5 ADD SWAP2 PUSH1 0x1 ADD PUSH3 0x3CC JUMP JUMPDEST POP SWAP1 SWAP7 SWAP6 POP POP POP POP POP POP JUMP JUMPDEST PUSH0 PUSH1 0x20 DUP3 DUP5 SUB SLT ISZERO PUSH3 0x410 JUMPI PUSH0 DUP1 REVERT JUMPDEST POP CALLDATALOAD SWAP2 SWAP1 POP JUMP JUMPDEST PUSH4 0x4E487B71 PUSH1 0xE0 SHL PUSH0 MSTORE PUSH1 0x41 PUSH1 0x4 MSTORE PUSH1 0x24 PUSH0 REVERT JUMPDEST PUSH0 DUP3 PUSH1 0x1F DUP4 ADD SLT PUSH3 0x43B JUMPI PUSH0 DUP1 REVERT JUMPDEST DUP2 CALLDATALOAD PUSH1 0x1 PUSH1 0x1 PUSH1 0x40 SHL SUB DUP1 DUP3 GT ISZERO PUSH3 0x458 JUMPI PUSH3 0x458 PUSH3 0x417 JUMP JUMPDEST PUSH1 0x40 MLOAD PUSH1 0x1F DUP4 ADD PUSH1 0x1F NOT SWAP1 DUP2 AND PUSH1 0x3F ADD AND DUP2 ADD SWAP1 DUP3 DUP3 GT DUP2 DUP4 LT OR ISZERO PUSH3 0x483 JUMPI PUSH3 0x483 PUSH3 0x417 JUMP JUMPDEST DUP2 PUSH1 0x40 MSTORE DUP4 DUP2 MSTORE DUP7 PUSH1 0x20 DUP6 DUP9 ADD ADD GT ISZERO PUSH3 0x49C JUMPI PUSH0 DUP1 REVERT JUMPDEST DUP4 PUSH1 0x20 DUP8 ADD PUSH1 0x20 DUP4 ADD CALLDATACOPY PUSH0 PUSH1 0x20 DUP6 DUP4 ADD ADD MSTORE DUP1 SWAP5 POP POP POP POP POP SWAP3 SWAP2 POP POP JUMP JUMPDEST PUSH0 DUP1 PUSH0 DUP1 PUSH0 DUP1 PUSH0 PUSH1 0xE0 DUP9 DUP11 SUB SLT ISZERO PUSH3 0x4D2 JUMPI PUSH0 DUP1 REVERT JUMPDEST PUSH3 0x4DD DUP9 PUSH3 0x36A JUMP JUMPDEST SWAP7 POP PUSH1 0x20 DUP9 ADD CALLDATALOAD PUSH1 0x1 PUSH1 0x1 PUSH1 0x40 SHL SUB DUP1 DUP3 GT ISZERO PUSH3 0x4F9 JUMPI PUSH0 DUP1 REVERT JUMPDEST PUSH3 0x507 DUP12 DUP4 DUP13 ADD PUSH3 0x42B JUMP JUMPDEST SWAP8 POP PUSH1 0x40 DUP11 ADD CALLDATALOAD SWAP7 POP PUSH1 0x60 DUP11 ADD CALLDATALOAD SWAP6 POP PUSH1 0x80 DUP11 ADD CALLDATALOAD SWAP5 POP PUSH1 0xA0 DUP11 ADD CALLDATALOAD SWAP2 POP DUP1 DUP3 GT ISZERO PUSH3 0x532 JUMPI PUSH0 DUP1 REVERT JUMPDEST PUSH3 0x540 DUP12 DUP4 DUP13 ADD PUSH3 0x42B JUMP JUMPDEST SWAP4 POP PUSH1 0xC0 DUP11 ADD CALLDATALOAD SWAP2 POP DUP1 DUP3 GT ISZERO PUSH3 0x556 JUMPI PUSH0 DUP1 REVERT JUMPDEST POP PUSH3 0x565 DUP11 DUP3 DUP12 ADD PUSH3 0x42B JUMP JUMPDEST SWAP2 POP POP SWAP3 SWAP6 SWAP9 SWAP2 SWAP5 SWAP8 POP SWAP3 SWAP6 POP JUMP JUMPDEST DUP1 DUP3 ADD DUP1 DUP3 GT ISZERO PUSH3 0x594 JUMPI PUSH4 0x4E487B71 PUSH1 0xE0 SHL PUSH0 MSTORE PUSH1 0x11 PUSH1 0x4 MSTORE PUSH1 0x24 PUSH0 REVERT JUMPDEST SWAP3 SWAP2 POP POP JUMP JUMPDEST PUSH0 DUP2 MLOAD DUP1 DUP5 MSTORE PUSH0 JUMPDEST DUP2 DUP2 LT ISZERO PUSH3 0x5C0 JUMPI PUSH1 0x20 DUP2 DUP6 ADD DUP2 ADD MLOAD DUP7 DUP4 ADD DUP3 ADD MSTORE ADD PUSH3 0x5A2 JUMP JUMPDEST POP PUSH0 PUSH1 0x20 DUP3 DUP7 ADD ADD MSTORE PUSH1 0x20 PUSH1 0x1F NOT PUSH1 0x1F DUP4 ADD AND DUP6 ADD ADD SWAP2 POP POP SWAP3 SWAP2 POP POP JUMP JUMPDEST DUP11 DUP2 MSTORE PUSH1 0x1 PUSH1 0x1 PUSH1 0xA0 SHL SUB DUP11 DUP2 AND PUSH1 0x20 DUP4 ADD MSTORE DUP10 DUP2 AND PUSH1 0x40 DUP4 ADD MSTORE PUSH2 0x140 PUSH1 0x60 DUP4 ADD DUP2 SWAP1 MSTORE PUSH0 SWAP2 PUSH3 0x614 DUP5 DUP4 ADD DUP13 PUSH3 0x59A JUMP JUMPDEST SWAP2 POP DUP10 PUSH1 0x80 DUP6 ADD MSTORE DUP9 PUSH1 0xA0 DUP6 ADD MSTORE DUP8 PUSH1 0xC0 DUP6 ADD MSTORE DUP4 DUP3 SUB PUSH1 0xE0 DUP6 ADD MSTORE PUSH3 0x63C DUP3 DUP9 PUSH3 0x59A JUMP JUMPDEST SWAP2 POP DUP4 DUP3 SUB PUSH2 0x100 DUP6 ADD MSTORE PUSH3 0x653 DUP3 DUP8 PUSH3 0x59A JUMP JUMPDEST SWAP3 POP DUP1 DUP6 AND PUSH2 0x120 DUP6 ADD MSTORE POP POP SWAP12 SWAP11 POP POP POP POP POP POP POP POP POP POP POP JUMP JUMPDEST PUSH1 0xA0 DUP2 MSTORE PUSH0 PUSH3 0x683 PUSH1 0xA0 DUP4 ADD DUP9 PUSH3 0x59A JUMP JUMPDEST SWAP1 POP DUP6 PUSH1 0x20 DUP4 ADD MSTORE DUP5 PUSH1 0x40 DUP4 ADD MSTORE DUP4 PUSH1 0x60 DUP4 ADD MSTORE DUP3 PUSH1 0x80 DUP4 ADD MSTORE SWAP7 SWAP6 POP POP POP POP POP POP JUMP INVALID PUSH1 0x80 PUSH1 0x40 MSTORE CALLVALUE DUP1 ISZERO PUSH3 0x10 JUMPI PUSH0 DUP1 REVERT JUMPDEST POP PUSH1 0x40 MLOAD PUSH3 0x44C7 CODESIZE SUB DUP1 PUSH3 0x44C7 DUP4 CODECOPY DUP2 ADD PUSH1 0x40 DUP2 SWAP1 MSTORE PUSH3 0x33 SWAP2 PUSH3 0x3DF JUMP JUMPDEST PUSH0 DUP11 SWAP1 SSTORE PUSH1 0x1 DUP1 SLOAD PUSH1 0x1 PUSH1 0x1 PUSH1 0xA0 SHL SUB NOT AND PUSH1 0x1 PUSH1 0x1 PUSH1 0xA0 SHL SUB DUP12 AND OR SWAP1 SSTORE PUSH1 0x4 PUSH3 0x60 DUP9 DUP3 PUSH3 0x553 JUMP JUMPDEST POP PUSH1 0x5 DUP7 SWAP1 SSTORE PUSH1 0x6 DUP6 SWAP1 SSTORE PUSH1 0x7 DUP5 SWAP1 SSTORE PUSH1 0x3 DUP1 SLOAD PUSH1 0x1 PUSH1 0x1 PUSH1 0xA0 SHL SUB DUP1 DUP12 AND PUSH1 0x1 PUSH1 0x1 PUSH1 0xA0 SHL SUB NOT SWAP3 DUP4 AND OR SWAP1 SWAP3 SSTORE PUSH1 0x2 DUP1 SLOAD SWAP3 DUP5 AND SWAP3 SWAP1 SWAP2 AND SWAP2 SWAP1 SWAP2 OR SWAP1 SSTORE PUSH0 SLOAD ADDRESS SWAP1 DUP5 SWAP1 PUSH3 0xB1 SWAP1 PUSH3 0x170 JUMP JUMPDEST PUSH1 0x40 MLOAD PUSH1 0x20 ADD PUSH3 0xC4 SWAP3 SWAP2 SWAP1 PUSH3 0x61F JUMP JUMPDEST PUSH1 0x40 MLOAD PUSH1 0x20 DUP2 DUP4 SUB SUB DUP2 MSTORE SWAP1 PUSH1 0x40 MSTORE DUP4 PUSH3 0xE6 PUSH0 SLOAD PUSH3 0x170 PUSH1 0x20 SHL PUSH1 0x20 SHR JUMP JUMPDEST PUSH1 0x40 MLOAD PUSH1 0x20 ADD PUSH3 0xF9 SWAP3 SWAP2 SWAP1 PUSH3 0x61F JUMP JUMPDEST PUSH1 0x40 MLOAD PUSH1 0x20 DUP2 DUP4 SUB SUB DUP2 MSTORE SWAP1 PUSH1 0x40 MSTORE PUSH1 0x40 MLOAD PUSH3 0x116 SWAP1 PUSH3 0x2EF JUMP JUMPDEST PUSH3 0x124 SWAP4 SWAP3 SWAP2 SWAP1 PUSH3 0x67E JUMP JUMPDEST PUSH1 0x40 MLOAD DUP1 SWAP2 SUB SWAP1 PUSH0 CREATE DUP1 ISZERO DUP1 ISZERO PUSH3 0x13E JUMPI RETURNDATASIZE PUSH0 DUP1 RETURNDATACOPY RETURNDATASIZE PUSH0 REVERT JUMPDEST POP PUSH1 0x15 DUP1 SLOAD PUSH1 0x1 PUSH1 0x1 PUSH1 0xA0 SHL SUB NOT AND PUSH1 0x1 PUSH1 0x1 PUSH1 0xA0 SHL SUB SWAP3 SWAP1 SWAP3 AND SWAP2 SWAP1 SWAP2 OR SWAP1 SSTORE POP PUSH3 0x6B7 SWAP9 POP POP POP POP POP POP POP POP POP JUMP JUMPDEST PUSH1 0x60 PUSH0 PUSH3 0x17E DUP4 PUSH3 0x206 JUMP JUMPDEST PUSH1 0x1 ADD SWAP1 POP PUSH0 DUP2 PUSH1 0x1 PUSH1 0x1 PUSH1 0x40 SHL SUB DUP2 GT ISZERO PUSH3 0x19F JUMPI PUSH3 0x19F PUSH3 0x319 JUMP JUMPDEST PUSH1 0x40 MLOAD SWAP1 DUP1 DUP3 MSTORE DUP1 PUSH1 0x1F ADD PUSH1 0x1F NOT AND PUSH1 0x20 ADD DUP3 ADD PUSH1 0x40 MSTORE DUP1 ISZERO PUSH3 0x1CA JUMPI PUSH1 0x20 DUP3 ADD DUP2 DUP1 CALLDATASIZE DUP4 CALLDATACOPY ADD SWAP1 POP JUMPDEST POP SWAP1 POP DUP2 DUP2 ADD PUSH1 0x20 ADD JUMPDEST PUSH0 NOT ADD PUSH16 0x181899199A1A9B1B9C1CB0B131B232B3 PUSH1 0x81 SHL PUSH1 0xA DUP7 MOD BYTE DUP2 MSTORE8 PUSH1 0xA DUP6 DIV SWAP5 POP DUP5 PUSH3 0x1D4 JUMPI POP SWAP4 SWAP3 POP POP POP JUMP JUMPDEST PUSH0 DUP1 PUSH27 0x184F03E93FF9F4DAA797ED6E38ED64BF6A1F010000000000000000 DUP4 LT PUSH3 0x24F JUMPI PUSH27 0x184F03E93FF9F4DAA797ED6E38ED64BF6A1F010000000000000000 DUP4 DIV SWAP3 POP PUSH1 0x40 ADD JUMPDEST PUSH14 0x4EE2D6D415B85ACEF8100000000 DUP4 LT PUSH3 0x27C JUMPI PUSH14 0x4EE2D6D415B85ACEF8100000000 DUP4 DIV SWAP3 POP PUSH1 0x20 ADD JUMPDEST PUSH7 0x2386F26FC10000 DUP4 LT PUSH3 0x29B JUMPI PUSH7 0x2386F26FC10000 DUP4 DIV SWAP3 POP PUSH1 0x10 ADD JUMPDEST PUSH4 0x5F5E100 DUP4 LT PUSH3 0x2B4 JUMPI PUSH4 0x5F5E100 DUP4 DIV SWAP3 POP PUSH1 0x8 ADD JUMPDEST PUSH2 0x2710 DUP4 LT PUSH3 0x2C9 JUMPI PUSH2 0x2710 DUP4 DIV SWAP3 POP PUSH1 0x4 ADD JUMPDEST PUSH1 0x64 DUP4 LT PUSH3 0x2DC JUMPI PUSH1 0x64 DUP4 DIV SWAP3 POP PUSH1 0x2 ADD JUMPDEST PUSH1 0xA DUP4 LT PUSH3 0x2E9 JUMPI PUSH1 0x1 ADD JUMPDEST SWAP3 SWAP2 POP POP JUMP JUMPDEST PUSH2 0x1AEE DUP1 PUSH3 0x29D9 DUP4 CODECOPY ADD SWAP1 JUMP JUMPDEST DUP1 MLOAD PUSH1 0x1 PUSH1 0x1 PUSH1 0xA0 SHL SUB DUP2 AND DUP2 EQ PUSH3 0x314 JUMPI PUSH0 DUP1 REVERT JUMPDEST SWAP2 SWAP1 POP JUMP JUMPDEST PUSH4 0x4E487B71 PUSH1 0xE0 SHL PUSH0 MSTORE PUSH1 0x41 PUSH1 0x4 MSTORE PUSH1 0x24 PUSH0 REVERT JUMPDEST PUSH0 JUMPDEST DUP4 DUP2 LT ISZERO PUSH3 0x349 JUMPI DUP2 DUP2 ADD MLOAD DUP4 DUP3 ADD MSTORE PUSH1 0x20 ADD PUSH3 0x32F JUMP JUMPDEST POP POP PUSH0 SWAP2 ADD MSTORE JUMP JUMPDEST PUSH0 DUP3 PUSH1 0x1F DUP4 ADD SLT PUSH3 0x361 JUMPI PUSH0 DUP1 REVERT JUMPDEST DUP2 MLOAD PUSH1 0x1 PUSH1 0x1 PUSH1 0x40 SHL SUB DUP1 DUP3 GT ISZERO PUSH3 0x37E JUMPI PUSH3 0x37E PUSH3 0x319 JUMP JUMPDEST PUSH1 0x40 MLOAD PUSH1 0x1F DUP4 ADD PUSH1 0x1F NOT SWAP1 DUP2 AND PUSH1 0x3F ADD AND DUP2 ADD SWAP1 DUP3 DUP3 GT DUP2 DUP4 LT OR ISZERO PUSH3 0x3A9 JUMPI PUSH3 0x3A9 PUSH3 0x319 JUMP JUMPDEST DUP2 PUSH1 0x40 MSTORE DUP4 DUP2 MSTORE DUP7 PUSH1 0x20 DUP6 DUP9 ADD ADD GT ISZERO PUSH3 0x3C2 JUMPI PUSH0 DUP1 REVERT JUMPDEST PUSH3 0x3D5 DUP5 PUSH1 0x20 DUP4 ADD PUSH1 0x20 DUP10 ADD PUSH3 0x32D JUMP JUMPDEST SWAP7 SWAP6 POP POP POP POP POP POP JUMP JUMPDEST PUSH0 DUP1 PUSH0 DUP1 PUSH0 DUP1 PUSH0 DUP1 PUSH0 DUP1 PUSH2 0x140 DUP12 DUP14 SUB SLT ISZERO PUSH3 0x3FA JUMPI PUSH0 DUP1 REVERT JUMPDEST DUP11 MLOAD SWAP10 POP PUSH3 0x40C PUSH1 0x20 DUP13 ADD PUSH3 0x2FD JUMP JUMPDEST SWAP9 POP PUSH3 0x41C PUSH1 0x40 DUP13 ADD PUSH3 0x2FD JUMP JUMPDEST PUSH1 0x60 DUP13 ADD MLOAD SWAP1 SWAP9 POP PUSH1 0x1 PUSH1 0x1 PUSH1 0x40 SHL SUB DUP1 DUP3 GT ISZERO PUSH3 0x439 JUMPI PUSH0 DUP1 REVERT JUMPDEST PUSH3 0x447 DUP15 DUP4 DUP16 ADD PUSH3 0x351 JUMP JUMPDEST SWAP9 POP PUSH1 0x80 DUP14 ADD MLOAD SWAP8 POP PUSH1 0xA0 DUP14 ADD MLOAD SWAP7 POP PUSH1 0xC0 DUP14 ADD MLOAD SWAP6 POP PUSH1 0xE0 DUP14 ADD MLOAD SWAP2 POP DUP1 DUP3 GT ISZERO PUSH3 0x472 JUMPI PUSH0 DUP1 REVERT JUMPDEST PUSH3 0x480 DUP15 DUP4 DUP16 ADD PUSH3 0x351 JUMP JUMPDEST SWAP5 POP PUSH2 0x100 DUP14 ADD MLOAD SWAP2 POP DUP1 DUP3 GT ISZERO PUSH3 0x497 JUMPI PUSH0 DUP1 REVERT JUMPDEST POP PUSH3 0x4A6 DUP14 DUP3 DUP15 ADD PUSH3 0x351 JUMP JUMPDEST SWAP3 POP POP PUSH3 0x4B8 PUSH2 0x120 DUP13 ADD PUSH3 0x2FD JUMP JUMPDEST SWAP1 POP SWAP3 SWAP6 SWAP9 SWAP12 SWAP2 SWAP5 SWAP8 SWAP11 POP SWAP3 SWAP6 SWAP9 POP JUMP JUMPDEST PUSH1 0x1 DUP2 DUP2 SHR SWAP1 DUP3 AND DUP1 PUSH3 0x4DE JUMPI PUSH1 0x7F DUP3 AND SWAP2 POP JUMPDEST PUSH1 0x20 DUP3 LT DUP2 SUB PUSH3 0x4FD JUMPI PUSH4 0x4E487B71 PUSH1 0xE0 SHL PUSH0 MSTORE PUSH1 0x22 PUSH1 0x4 MSTORE PUSH1 0x24 PUSH0 REVERT JUMPDEST POP SWAP2 SWAP1 POP JUMP JUMPDEST PUSH1 0x1F DUP3 GT ISZERO PUSH3 0x54E JUMPI DUP1 PUSH0 MSTORE PUSH1 0x20 PUSH0 KECCAK256 PUSH1 0x1F DUP5 ADD PUSH1 0x5 SHR DUP2 ADD PUSH1 0x20 DUP6 LT ISZERO PUSH3 0x52A JUMPI POP DUP1 JUMPDEST PUSH1 0x1F DUP5 ADD PUSH1 0x5 SHR DUP3 ADD SWAP2 POP JUMPDEST DUP2 DUP2 LT ISZERO PUSH3 0x54B JUMPI PUSH0 DUP2 SSTORE PUSH1 0x1 ADD PUSH3 0x536 JUMP JUMPDEST POP POP JUMPDEST POP POP POP JUMP JUMPDEST DUP2 MLOAD PUSH1 0x1 PUSH1 0x1 PUSH1 0x40 SHL SUB DUP2 GT ISZERO PUSH3 0x56F JUMPI PUSH3 0x56F PUSH3 0x319 JUMP JUMPDEST PUSH3 0x587 DUP2 PUSH3 0x580 DUP5 SLOAD PUSH3 0x4C9 JUMP JUMPDEST DUP5 PUSH3 0x503 JUMP JUMPDEST PUSH1 0x20 DUP1 PUSH1 0x1F DUP4 GT PUSH1 0x1 DUP2 EQ PUSH3 0x5BD JUMPI PUSH0 DUP5 ISZERO PUSH3 0x5A5 JUMPI POP DUP6 DUP4 ADD MLOAD JUMPDEST PUSH0 NOT PUSH1 0x3 DUP7 SWAP1 SHL SHR NOT AND PUSH1 0x1 DUP6 SWAP1 SHL OR DUP6 SSTORE PUSH3 0x617 JUMP JUMPDEST PUSH0 DUP6 DUP2 MSTORE PUSH1 0x20 DUP2 KECCAK256 PUSH1 0x1F NOT DUP7 AND SWAP2 JUMPDEST DUP3 DUP2 LT ISZERO PUSH3 0x5ED JUMPI DUP9 DUP7 ADD MLOAD DUP3 SSTORE SWAP5 DUP5 ADD SWAP5 PUSH1 0x1 SWAP1 SWAP2 ADD SWAP1 DUP5 ADD PUSH3 0x5CC JUMP JUMPDEST POP DUP6 DUP3 LT ISZERO PUSH3 0x60B JUMPI DUP8 DUP6 ADD MLOAD PUSH0 NOT PUSH1 0x3 DUP9 SWAP1 SHL PUSH1 0xF8 AND SHR NOT AND DUP2 SSTORE JUMPDEST POP POP PUSH1 0x1 DUP5 PUSH1 0x1 SHL ADD DUP6 SSTORE JUMPDEST POP POP POP POP POP POP JUMP JUMPDEST PUSH0 DUP4 MLOAD PUSH3 0x632 DUP2 DUP5 PUSH1 0x20 DUP9 ADD PUSH3 0x32D JUMP JUMPDEST DUP4 MLOAD SWAP1 DUP4 ADD SWAP1 PUSH3 0x648 DUP2 DUP4 PUSH1 0x20 DUP9 ADD PUSH3 0x32D JUMP JUMPDEST ADD SWAP5 SWAP4 POP POP POP POP JUMP JUMPDEST PUSH0 DUP2 MLOAD DUP1 DUP5 MSTORE PUSH3 0x66A DUP2 PUSH1 0x20 DUP7 ADD PUSH1 0x20 DUP7 ADD PUSH3 0x32D JUMP JUMPDEST PUSH1 0x1F ADD PUSH1 0x1F NOT AND SWAP3 SWAP1 SWAP3 ADD PUSH1 0x20 ADD SWAP3 SWAP2 POP POP JUMP JUMPDEST PUSH1 0x1 PUSH1 0x1 PUSH1 0xA0 SHL SUB DUP5 AND DUP2 MSTORE PUSH1 0x60 PUSH1 0x20 DUP3 ADD DUP2 SWAP1 MSTORE PUSH0 SWAP1 PUSH3 0x6A3 SWAP1 DUP4 ADD DUP6 PUSH3 0x651 JUMP JUMPDEST DUP3 DUP2 SUB PUSH1 0x40 DUP5 ADD MSTORE PUSH3 0x3D5 DUP2 DUP6 PUSH3 0x651 JUMP JUMPDEST PUSH2 0x2314 DUP1 PUSH3 0x6C5 PUSH0 CODECOPY PUSH0 RETURN INVALID PUSH1 0x80 PUSH1 0x40 MSTORE PUSH1 0x4 CALLDATASIZE LT PUSH2 0x13B JUMPI PUSH0 CALLDATALOAD PUSH1 0xE0 SHR DUP1 PUSH4 0xB49351C EQ PUSH2 0x13F JUMPI DUP1 PUSH4 0x12424E3F EQ PUSH2 0x162 JUMPI DUP1 PUSH4 0x1F6D4942 EQ PUSH2 0x178 JUMPI DUP1 PUSH4 0x200D2ED2 EQ PUSH2 0x1A3 JUMPI DUP1 PUSH4 0x21EFF7FC EQ PUSH2 0x212 JUMPI DUP1 PUSH4 0x27B0229E EQ PUSH2 0x246 JUMPI DUP1 PUSH4 0x29DCB0CF EQ PUSH2 0x265 JUMPI DUP1 PUSH4 0x2B7D782F EQ PUSH2 0x27A JUMPI DUP1 PUSH4 0x3CCFD60B EQ PUSH2 0x299 JUMPI DUP1 PUSH4 0x4051DDAC EQ PUSH2 0x2AD JUMPI DUP1 PUSH4 0x47CCCA02 EQ PUSH2 0x2DB JUMPI DUP1 PUSH4 0x66D003AC EQ PUSH2 0x312 JUMPI DUP1 PUSH4 0x79599F96 EQ PUSH2 0x331 JUMPI DUP1 PUSH4 0x8DA5CB5B EQ PUSH2 0x345 JUMPI DUP1 PUSH4 0x8DD08557 EQ PUSH2 0x364 JUMPI DUP1 PUSH4 0x937E09B1 EQ PUSH2 0x383 JUMPI DUP1 PUSH4 0xAA3EC0A9 EQ PUSH2 0x398 JUMPI DUP1 PUSH4 0xB82C86D6 EQ PUSH2 0x3B9 JUMPI DUP1 PUSH4 0xC00007B0 EQ PUSH2 0x3CE JUMPI DUP1 PUSH4 0xC438B40F EQ PUSH2 0x3FB JUMPI DUP1 PUSH4 0xC5451232 EQ PUSH2 0x41A JUMPI DUP1 PUSH4 0xD7BB99BA EQ PUSH2 0x439 JUMPI DUP1 PUSH4 0xDA076A87 EQ PUSH2 0x441 JUMPI DUP1 PUSH4 0xE89E4ED6 EQ PUSH2 0x475 JUMPI DUP1 PUSH4 0xEA8A1AF0 EQ PUSH2 0x4A3 JUMPI DUP1 PUSH4 0xEB599E43 EQ PUSH2 0x4B7 JUMPI DUP1 PUSH4 0xED556CE2 EQ PUSH2 0x4D6 JUMPI JUMPDEST PUSH0 DUP1 REVERT JUMPDEST CALLVALUE DUP1 ISZERO PUSH2 0x14A JUMPI PUSH0 DUP1 REVERT JUMPDEST POP PUSH1 0x13 SLOAD JUMPDEST PUSH1 0x40 MLOAD SWAP1 DUP2 MSTORE PUSH1 0x20 ADD JUMPDEST PUSH1 0x40 MLOAD DUP1 SWAP2 SUB SWAP1 RETURN JUMPDEST CALLVALUE DUP1 ISZERO PUSH2 0x16D JUMPI PUSH0 DUP1 REVERT JUMPDEST POP PUSH2 0x176 PUSH2 0x4F5 JUMP JUMPDEST STOP JUMPDEST CALLVALUE DUP1 ISZERO PUSH2 0x183 JUMPI PUSH0 DUP1 REVERT JUMPDEST POP PUSH2 0x14F PUSH2 0x192 CALLDATASIZE PUSH1 0x4 PUSH2 0x1ACE JUMP JUMPDEST PUSH1 0x9 PUSH1 0x20 MSTORE PUSH0 SWAP1 DUP2 MSTORE PUSH1 0x40 SWAP1 KECCAK256 SLOAD DUP2 JUMP JUMPDEST CALLVALUE DUP1 ISZERO PUSH2 0x1AE JUMPI PUSH0 DUP1 REVERT JUMPDEST POP PUSH1 0xA SLOAD PUSH1 0xB SLOAD PUSH1 0xC SLOAD PUSH1 0xE SLOAD PUSH1 0xF SLOAD PUSH1 0x11 SLOAD PUSH1 0x12 SLOAD PUSH2 0x1D9 SWAP7 PUSH1 0xFF SWAP1 DUP2 AND SWAP7 SWAP6 SWAP5 DUP2 AND SWAP4 SWAP3 AND SWAP1 DUP8 JUMP JUMPDEST PUSH1 0x40 DUP1 MLOAD SWAP8 ISZERO ISZERO DUP9 MSTORE PUSH1 0x20 DUP9 ADD SWAP7 SWAP1 SWAP7 MSTORE SWAP5 DUP7 ADD SWAP4 SWAP1 SWAP4 MSTORE SWAP1 ISZERO ISZERO PUSH1 0x60 DUP6 ADD MSTORE PUSH1 0x80 DUP5 ADD MSTORE ISZERO ISZERO PUSH1 0xA0 DUP4 ADD MSTORE PUSH1 0xC0 DUP3 ADD MSTORE PUSH1 0xE0 ADD PUSH2 0x159 JUMP JUMPDEST CALLVALUE DUP1 ISZERO PUSH2 0x21D JUMPI PUSH0 DUP1 REVERT JUMPDEST POP PUSH2 0x14F PUSH2 0x22C CALLDATASIZE PUSH1 0x4 PUSH2 0x1ACE JUMP JUMPDEST PUSH1 0x1 PUSH1 0x1 PUSH1 0xA0 SHL SUB AND PUSH0 SWAP1 DUP2 MSTORE PUSH1 0x9 PUSH1 0x20 MSTORE PUSH1 0x40 SWAP1 KECCAK256 SLOAD SWAP1 JUMP JUMPDEST CALLVALUE DUP1 ISZERO PUSH2 0x251 JUMPI PUSH0 DUP1 REVERT JUMPDEST POP PUSH2 0x176 PUSH2 0x260 CALLDATASIZE PUSH1 0x4 PUSH2 0x1BAA JUMP JUMPDEST PUSH2 0x73C JUMP JUMPDEST CALLVALUE DUP1 ISZERO PUSH2 0x270 JUMPI PUSH0 DUP1 REVERT JUMPDEST POP PUSH2 0x14F PUSH1 0x7 SLOAD DUP2 JUMP JUMPDEST CALLVALUE DUP1 ISZERO PUSH2 0x285 JUMPI PUSH0 DUP1 REVERT JUMPDEST POP PUSH2 0x176 PUSH2 0x294 CALLDATASIZE PUSH1 0x4 PUSH2 0x1CCF JUMP JUMPDEST PUSH2 0x90D JUMP JUMPDEST CALLVALUE DUP1 ISZERO PUSH2 0x2A4 JUMPI PUSH0 DUP1 REVERT JUMPDEST POP PUSH2 0x176 PUSH2 0x9AC JUMP JUMPDEST CALLVALUE DUP1 ISZERO PUSH2 0x2B8 JUMPI PUSH0 DUP1 REVERT JUMPDEST POP PUSH2 0x2C1 PUSH2 0xB45 JUMP JUMPDEST PUSH1 0x40 MLOAD PUSH2 0x159 SWAP15 SWAP14 SWAP13 SWAP12 SWAP11 SWAP10 SWAP9 SWAP8 SWAP7 SWAP6 SWAP5 SWAP4 SWAP3 SWAP2 SWAP1 PUSH2 0x1E09 JUMP JUMPDEST CALLVALUE DUP1 ISZERO PUSH2 0x2E6 JUMPI PUSH0 DUP1 REVERT JUMPDEST POP PUSH1 0x15 SLOAD PUSH2 0x2FA SWAP1 PUSH1 0x1 PUSH1 0x1 PUSH1 0xA0 SHL SUB AND DUP2 JUMP JUMPDEST PUSH1 0x40 MLOAD PUSH1 0x1 PUSH1 0x1 PUSH1 0xA0 SHL SUB SWAP1 SWAP2 AND DUP2 MSTORE PUSH1 0x20 ADD PUSH2 0x159 JUMP JUMPDEST CALLVALUE DUP1 ISZERO PUSH2 0x31D JUMPI PUSH0 DUP1 REVERT JUMPDEST POP PUSH1 0x3 SLOAD PUSH2 0x2FA SWAP1 PUSH1 0x1 PUSH1 0x1 PUSH1 0xA0 SHL SUB AND DUP2 JUMP JUMPDEST CALLVALUE DUP1 ISZERO PUSH2 0x33C JUMPI PUSH0 DUP1 REVERT JUMPDEST POP PUSH2 0x176 PUSH2 0xC69 JUMP JUMPDEST CALLVALUE DUP1 ISZERO PUSH2 0x350 JUMPI PUSH0 DUP1 REVERT JUMPDEST POP PUSH1 0x1 SLOAD PUSH2 0x2FA SWAP1 PUSH1 0x1 PUSH1 0x1 PUSH1 0xA0 SHL SUB AND DUP2 JUMP JUMPDEST CALLVALUE DUP1 ISZERO PUSH2 0x36F JUMPI PUSH0 DUP1 REVERT JUMPDEST POP PUSH2 0x2FA PUSH2 0x37E CALLDATASIZE PUSH1 0x4 PUSH2 0x1EA2 JUMP JUMPDEST PUSH2 0xE02 JUMP JUMPDEST CALLVALUE DUP1 ISZERO PUSH2 0x38E JUMPI PUSH0 DUP1 REVERT JUMPDEST POP PUSH2 0x14F PUSH1 0x5 SLOAD DUP2 JUMP JUMPDEST CALLVALUE DUP1 ISZERO PUSH2 0x3A3 JUMPI PUSH0 DUP1 REVERT JUMPDEST POP PUSH2 0x3AC PUSH2 0xE2A JUMP JUMPDEST PUSH1 0x40 MLOAD PUSH2 0x159 SWAP2 SWAP1 PUSH2 0x1EB9 JUMP JUMPDEST CALLVALUE DUP1 ISZERO PUSH2 0x3C4 JUMPI PUSH0 DUP1 REVERT JUMPDEST POP PUSH2 0x14F PUSH1 0x6 SLOAD DUP2 JUMP JUMPDEST CALLVALUE DUP1 ISZERO PUSH2 0x3D9 JUMPI PUSH0 DUP1 REVERT JUMPDEST POP PUSH2 0x3ED PUSH2 0x3E8 CALLDATASIZE PUSH1 0x4 PUSH2 0x1ACE JUMP JUMPDEST PUSH2 0xEB6 JUMP JUMPDEST PUSH1 0x40 MLOAD PUSH2 0x159 SWAP3 SWAP2 SWAP1 PUSH2 0x1ECB JUMP JUMPDEST CALLVALUE DUP1 ISZERO PUSH2 0x406 JUMPI PUSH0 DUP1 REVERT JUMPDEST POP PUSH2 0x176 PUSH2 0x415 CALLDATASIZE PUSH1 0x4 PUSH2 0x1EA2 JUMP JUMPDEST PUSH2 0xFDD JUMP JUMPDEST CALLVALUE DUP1 ISZERO PUSH2 0x425 JUMPI PUSH0 DUP1 REVERT JUMPDEST POP PUSH2 0x176 PUSH2 0x434 CALLDATASIZE PUSH1 0x4 PUSH2 0x1EE3 JUMP JUMPDEST PUSH2 0x131D JUMP JUMPDEST PUSH2 0x176 PUSH2 0x143F JUMP JUMPDEST CALLVALUE DUP1 ISZERO PUSH2 0x44C JUMPI PUSH0 DUP1 REVERT JUMPDEST POP PUSH2 0x14F PUSH2 0x45B CALLDATASIZE PUSH1 0x4 PUSH2 0x1ACE JUMP JUMPDEST PUSH1 0x1 PUSH1 0x1 PUSH1 0xA0 SHL SUB AND PUSH0 SWAP1 DUP2 MSTORE PUSH1 0xD PUSH1 0x20 MSTORE PUSH1 0x40 SWAP1 KECCAK256 SLOAD SWAP1 JUMP JUMPDEST CALLVALUE DUP1 ISZERO PUSH2 0x480 JUMPI PUSH0 DUP1 REVERT JUMPDEST POP PUSH2 0x494 PUSH2 0x48F CALLDATASIZE PUSH1 0x4 PUSH2 0x1EA2 JUMP JUMPDEST PUSH2 0x15AC JUMP JUMPDEST PUSH1 0x40 MLOAD PUSH2 0x159 SWAP4 SWAP3 SWAP2 SWAP1 PUSH2 0x1F35 JUMP JUMPDEST CALLVALUE DUP1 ISZERO PUSH2 0x4AE JUMPI PUSH0 DUP1 REVERT JUMPDEST POP PUSH2 0x176 PUSH2 0x1670 JUMP JUMPDEST CALLVALUE DUP1 ISZERO PUSH2 0x4C2 JUMPI PUSH0 DUP1 REVERT JUMPDEST POP PUSH2 0x176 PUSH2 0x4D1 CALLDATASIZE PUSH1 0x4 PUSH2 0x1EA2 JUMP JUMPDEST PUSH2 0x176B JUMP JUMPDEST CALLVALUE DUP1 ISZERO PUSH2 0x4E1 JUMPI PUSH0 DUP1 REVERT JUMPDEST POP PUSH2 0x1D9 PUSH2 0x4F0 CALLDATASIZE PUSH1 0x4 PUSH2 0x1EA2 JUMP JUMPDEST PUSH2 0x19BD JUMP JUMPDEST PUSH1 0x6 SLOAD SELFBALANCE LT ISZERO PUSH2 0x54C JUMPI PUSH1 0x40 MLOAD PUSH3 0x461BCD PUSH1 0xE5 SHL DUP2 MSTORE PUSH1 0x20 PUSH1 0x4 DUP3 ADD MSTORE PUSH1 0x1F PUSH1 0x24 DUP3 ADD MSTORE PUSH32 0x54617267657420636F6E747269627574696F6E206E6F74207265616368656400 PUSH1 0x44 DUP3 ADD MSTORE PUSH1 0x64 ADD JUMPDEST PUSH1 0x40 MLOAD DUP1 SWAP2 SUB SWAP1 REVERT JUMPDEST CALLER PUSH0 SWAP1 DUP2 MSTORE PUSH1 0x9 PUSH1 0x20 MSTORE PUSH1 0x40 SWAP1 KECCAK256 SLOAD PUSH2 0x577 JUMPI PUSH1 0x40 MLOAD PUSH3 0x461BCD PUSH1 0xE5 SHL DUP2 MSTORE PUSH1 0x4 ADD PUSH2 0x543 SWAP1 PUSH2 0x1F68 JUMP JUMPDEST CALLER PUSH0 SWAP1 DUP2 MSTORE PUSH1 0xD PUSH1 0x20 MSTORE PUSH1 0x40 SWAP1 KECCAK256 SLOAD ISZERO PUSH2 0x5C6 JUMPI PUSH1 0x40 MLOAD PUSH3 0x461BCD PUSH1 0xE5 SHL DUP2 MSTORE PUSH1 0x20 PUSH1 0x4 DUP3 ADD MSTORE PUSH1 0x10 PUSH1 0x24 DUP3 ADD MSTORE PUSH16 0x105B1C9958591E48185C1C1C9BDD9959 PUSH1 0x82 SHL PUSH1 0x44 DUP3 ADD MSTORE PUSH1 0x64 ADD PUSH2 0x543 JUMP JUMPDEST PUSH1 0x13 SLOAD ISZERO PUSH2 0x668 JUMPI PUSH0 JUMPDEST PUSH1 0x14 SLOAD DUP2 LT ISZERO PUSH2 0x666 JUMPI PUSH1 0x14 DUP2 DUP2 SLOAD DUP2 LT PUSH2 0x5ED JUMPI PUSH2 0x5ED PUSH2 0x1F93 JUMP JUMPDEST PUSH0 SWAP2 DUP3 MSTORE PUSH1 0x20 SWAP1 SWAP2 KECCAK256 PUSH1 0x4 PUSH1 0x9 SWAP1 SWAP3 MUL ADD ADD SLOAD PUSH1 0xFF AND PUSH2 0x65E JUMPI PUSH1 0x40 MLOAD PUSH3 0x461BCD PUSH1 0xE5 SHL DUP2 MSTORE PUSH1 0x20 PUSH1 0x4 DUP3 ADD MSTORE PUSH1 0x26 PUSH1 0x24 DUP3 ADD MSTORE PUSH32 0x416C6C206D696C6573746F6E6573206D75737420626520636F6D706C65746564 PUSH1 0x44 DUP3 ADD MSTORE PUSH6 0x8199A5C9CDD PUSH1 0xD2 SHL PUSH1 0x64 DUP3 ADD MSTORE PUSH1 0x84 ADD PUSH2 0x543 JUMP JUMPDEST PUSH1 0x1 ADD PUSH2 0x5D0 JUMP JUMPDEST POP JUMPDEST CALLER PUSH0 SWAP1 DUP2 MSTORE PUSH1 0xD PUSH1 0x20 MSTORE PUSH1 0x40 DUP2 KECCAK256 TIMESTAMP SWAP1 SSTORE PUSH1 0xC DUP1 SLOAD SWAP2 PUSH2 0x687 DUP4 PUSH2 0x1FBB JUMP JUMPDEST SWAP1 SWAP2 SSTORE POP POP PUSH1 0xC SLOAD PUSH1 0x40 MLOAD CALLER SWAP2 PUSH32 0xBFDB25CFA23D283B1A428F5061C98BD89890A3EF1C07F90D27DE2F60D98679F4 SWAP2 PUSH2 0x6C2 SWAP2 SWAP1 TIMESTAMP SWAP1 PUSH2 0x1FD3 JUMP JUMPDEST PUSH1 0x40 MLOAD DUP1 SWAP2 SUB SWAP1 LOG2 PUSH1 0x8 SLOAD PUSH2 0x6D9 SWAP1 PUSH1 0x2 SWAP1 PUSH2 0x1FE1 JUMP JUMPDEST PUSH2 0x6E4 SWAP1 PUSH1 0x1 PUSH2 0x2000 JUMP JUMPDEST PUSH1 0xC SLOAD LT PUSH2 0x73A JUMPI PUSH1 0xA DUP1 SLOAD PUSH1 0xFF NOT AND PUSH1 0x1 OR SWAP1 SSTORE TIMESTAMP PUSH1 0xB DUP2 SWAP1 SSTORE PUSH1 0x40 MLOAD PUSH32 0xFC534544F8ED1B516BF078B4AE88509D8F81F4FAFEFB10E9AAD53E3E1FBCE9BB SWAP2 PUSH2 0x731 SWAP2 SWAP1 DUP2 MSTORE PUSH1 0x20 ADD SWAP1 JUMP JUMPDEST PUSH1 0x40 MLOAD DUP1 SWAP2 SUB SWAP1 LOG1 JUMPDEST JUMP JUMPDEST PUSH1 0xA SLOAD PUSH1 0xFF AND PUSH2 0x75E JUMPI PUSH1 0x40 MLOAD PUSH3 0x461BCD PUSH1 0xE5 SHL DUP2 MSTORE PUSH1 0x4 ADD PUSH2 0x543 SWAP1 PUSH2 0x2019 JUMP JUMPDEST CALLER PUSH0 SWAP1 DUP2 MSTORE PUSH1 0x9 PUSH1 0x20 MSTORE PUSH1 0x40 SWAP1 KECCAK256 SLOAD PUSH2 0x789 JUMPI PUSH1 0x40 MLOAD PUSH3 0x461BCD PUSH1 0xE5 SHL DUP2 MSTORE PUSH1 0x4 ADD PUSH2 0x543 SWAP1 PUSH2 0x1F68 JUMP JUMPDEST CALLER PUSH0 SWAP1 DUP2 MSTORE PUSH1 0x10 PUSH1 0x20 MSTORE PUSH1 0x40 SWAP1 KECCAK256 SLOAD PUSH1 0xFF AND ISZERO PUSH2 0x7DB JUMPI PUSH1 0x40 MLOAD PUSH3 0x461BCD PUSH1 0xE5 SHL DUP2 MSTORE PUSH1 0x20 PUSH1 0x4 DUP3 ADD MSTORE PUSH1 0x10 PUSH1 0x24 DUP3 ADD MSTORE PUSH16 0x105B1C9958591E481C995DD85C991959 PUSH1 0x82 SHL PUSH1 0x44 DUP3 ADD MSTORE PUSH1 0x64 ADD PUSH2 0x543 JUMP JUMPDEST PUSH1 0x15 SLOAD PUSH1 0x40 MLOAD PUSH4 0x6902622F PUSH1 0xE1 SHL DUP2 MSTORE PUSH1 0x1 PUSH1 0x1 PUSH1 0xA0 SHL SUB SWAP1 SWAP2 AND SWAP1 PUSH4 0xD204C45E SWAP1 PUSH2 0x80D SWAP1 CALLER SWAP1 DUP6 SWAP1 PUSH1 0x4 ADD PUSH2 0x2047 JUMP JUMPDEST PUSH0 PUSH1 0x40 MLOAD DUP1 DUP4 SUB DUP2 PUSH0 DUP8 DUP1 EXTCODESIZE ISZERO DUP1 ISZERO PUSH2 0x824 JUMPI PUSH0 DUP1 REVERT JUMPDEST POP GAS CALL ISZERO DUP1 ISZERO PUSH2 0x836 JUMPI RETURNDATASIZE PUSH0 DUP1 RETURNDATACOPY RETURNDATASIZE PUSH0 REVERT JUMPDEST POP POP CALLER PUSH0 DUP2 DUP2 MSTORE PUSH1 0x10 PUSH1 0x20 MSTORE PUSH1 0x40 DUP1 DUP3 KECCAK256 DUP1 SLOAD PUSH1 0xFF NOT AND PUSH1 0x1 OR SWAP1 SSTORE PUSH1 0x15 SLOAD SWAP1 MLOAD PUSH4 0x2F745C59 PUSH1 0xE0 SHL DUP2 MSTORE SWAP2 SWAP5 POP PUSH1 0x1 PUSH1 0x1 PUSH1 0xA0 SHL SUB AND SWAP3 POP PUSH4 0x2F745C59 SWAP2 PUSH2 0x883 SWAP2 DUP6 SWAP1 PUSH1 0x4 ADD PUSH2 0x206A JUMP JUMPDEST PUSH1 0x20 PUSH1 0x40 MLOAD DUP1 DUP4 SUB DUP2 DUP7 GAS STATICCALL ISZERO DUP1 ISZERO PUSH2 0x89E JUMPI RETURNDATASIZE PUSH0 DUP1 RETURNDATACOPY RETURNDATASIZE PUSH0 REVERT JUMPDEST POP POP POP POP PUSH1 0x40 MLOAD RETURNDATASIZE PUSH1 0x1F NOT PUSH1 0x1F DUP3 ADD AND DUP3 ADD DUP1 PUSH1 0x40 MSTORE POP DUP2 ADD SWAP1 PUSH2 0x8C2 SWAP2 SWAP1 PUSH2 0x2083 JUMP JUMPDEST SWAP1 POP CALLER PUSH1 0x1 PUSH1 0x1 PUSH1 0xA0 SHL SUB AND PUSH32 0xE1EFE4D046DB58DD1CE37424297A3A8E9288104FD02B9E39455D8F67072DD787 DUP3 DUP5 TIMESTAMP PUSH1 0x40 MLOAD PUSH2 0x901 SWAP4 SWAP3 SWAP2 SWAP1 PUSH2 0x209A JUMP JUMPDEST PUSH1 0x40 MLOAD DUP1 SWAP2 SUB SWAP1 LOG2 POP POP JUMP JUMPDEST PUSH1 0x1 SLOAD PUSH1 0x1 PUSH1 0x1 PUSH1 0xA0 SHL SUB AND CALLER EQ PUSH2 0x923 JUMPI PUSH0 DUP1 REVERT JUMPDEST DUP2 MLOAD DUP4 MLOAD EQ DUP1 ISZERO PUSH2 0x935 JUMPI POP DUP1 MLOAD DUP3 MLOAD EQ JUMPDEST PUSH2 0x93D JUMPI PUSH0 DUP1 REVERT JUMPDEST PUSH0 JUMPDEST DUP4 MLOAD DUP2 LT ISZERO PUSH2 0x9A6 JUMPI PUSH2 0x99E DUP5 DUP3 DUP2 MLOAD DUP2 LT PUSH2 0x95D JUMPI PUSH2 0x95D PUSH2 0x1F93 JUMP JUMPDEST PUSH1 0x20 MUL PUSH1 0x20 ADD ADD MLOAD DUP5 DUP4 DUP2 MLOAD DUP2 LT PUSH2 0x977 JUMPI PUSH2 0x977 PUSH2 0x1F93 JUMP JUMPDEST PUSH1 0x20 MUL PUSH1 0x20 ADD ADD MLOAD DUP5 DUP5 DUP2 MLOAD DUP2 LT PUSH2 0x991 JUMPI PUSH2 0x991 PUSH2 0x1F93 JUMP JUMPDEST PUSH1 0x20 MUL PUSH1 0x20 ADD ADD MLOAD PUSH2 0x131D JUMP JUMPDEST PUSH1 0x1 ADD PUSH2 0x93F JUMP JUMPDEST POP POP POP POP JUMP JUMPDEST PUSH1 0x3 SLOAD PUSH1 0x1 PUSH1 0x1 PUSH1 0xA0 SHL SUB AND CALLER EQ PUSH2 0x9C2 JUMPI PUSH0 DUP1 REVERT JUMPDEST PUSH1 0xA SLOAD PUSH1 0xFF AND PUSH2 0x9E4 JUMPI PUSH1 0x40 MLOAD PUSH3 0x461BCD PUSH1 0xE5 SHL DUP2 MSTORE PUSH1 0x4 ADD PUSH2 0x543 SWAP1 PUSH2 0x2019 JUMP JUMPDEST PUSH0 JUMPDEST PUSH1 0x14 SLOAD DUP2 LT ISZERO PUSH2 0xA62 JUMPI PUSH1 0x14 DUP2 DUP2 SLOAD DUP2 LT PUSH2 0xA03 JUMPI PUSH2 0xA03 PUSH2 0x1F93 JUMP JUMPDEST PUSH0 SWAP2 DUP3 MSTORE PUSH1 0x20 SWAP1 SWAP2 KECCAK256 PUSH1 0x4 PUSH1 0x9 SWAP1 SWAP3 MUL ADD ADD SLOAD PUSH1 0xFF AND PUSH2 0xA5A JUMPI PUSH1 0x40 MLOAD PUSH3 0x461BCD PUSH1 0xE5 SHL DUP2 MSTORE PUSH1 0x20 PUSH1 0x4 DUP3 ADD MSTORE PUSH1 0x12 PUSH1 0x24 DUP3 ADD MSTORE PUSH18 0x50656E64696E67206D696C6573746F6E6573 PUSH1 0x70 SHL PUSH1 0x44 DUP3 ADD MSTORE PUSH1 0x64 ADD PUSH2 0x543 JUMP JUMPDEST PUSH1 0x1 ADD PUSH2 0x9E6 JUMP JUMPDEST POP PUSH1 0xE SLOAD PUSH1 0xFF AND ISZERO PUSH2 0xAB2 JUMPI PUSH1 0x40 MLOAD PUSH3 0x461BCD PUSH1 0xE5 SHL DUP2 MSTORE PUSH1 0x20 PUSH1 0x4 DUP3 ADD MSTORE PUSH1 0x19 PUSH1 0x24 DUP3 ADD MSTORE PUSH25 0x141C9BDA9958DD08185B1C9958591E4818DBDB5C1B195D1959 PUSH1 0x3A SHL PUSH1 0x44 DUP3 ADD MSTORE PUSH1 0x64 ADD PUSH2 0x543 JUMP JUMPDEST PUSH1 0x3 SLOAD PUSH1 0x40 MLOAD PUSH1 0x1 PUSH1 0x1 PUSH1 0xA0 SHL SUB SWAP1 SWAP2 AND SWAP1 SELFBALANCE DUP1 ISZERO PUSH2 0x8FC MUL SWAP2 PUSH0 DUP2 DUP2 DUP2 DUP6 DUP9 DUP9 CALL SWAP4 POP POP POP POP ISZERO DUP1 ISZERO PUSH2 0xAE8 JUMPI RETURNDATASIZE PUSH0 DUP1 RETURNDATACOPY RETURNDATASIZE PUSH0 REVERT JUMPDEST POP PUSH1 0xE DUP1 SLOAD PUSH1 0xFF NOT AND PUSH1 0x1 OR SWAP1 SSTORE TIMESTAMP PUSH1 0xF DUP2 SWAP1 SSTORE PUSH1 0x3 SLOAD PUSH1 0x40 MLOAD PUSH1 0x1 PUSH1 0x1 PUSH1 0xA0 SHL SUB SWAP1 SWAP2 AND SWAP2 PUSH32 0x7774E751652ADACA8B91D93039CCFE27E4B7180448D53272A623B673830020F5 SWAP2 PUSH2 0xB3B SWAP2 SELFBALANCE SWAP2 PUSH2 0x1FD3 JUMP JUMPDEST PUSH1 0x40 MLOAD DUP1 SWAP2 SUB SWAP1 LOG2 JUMP JUMPDEST PUSH1 0x3 SLOAD PUSH1 0x5 SLOAD PUSH1 0x6 SLOAD PUSH1 0x7 SLOAD PUSH1 0x8 SLOAD PUSH1 0xA SLOAD PUSH1 0xB SLOAD PUSH1 0xC SLOAD PUSH1 0xE SLOAD PUSH1 0xF SLOAD PUSH1 0x11 SLOAD PUSH1 0x12 SLOAD PUSH1 0x4 DUP1 SLOAD PUSH0 SWAP14 DUP15 SWAP14 PUSH1 0x60 SWAP14 DUP16 SWAP14 DUP15 SWAP14 DUP15 SWAP14 DUP15 SWAP14 DUP15 SWAP14 DUP15 SWAP14 DUP15 SWAP14 DUP15 SWAP14 DUP15 SWAP14 DUP15 SWAP14 DUP15 SWAP14 SELFBALANCE SWAP14 PUSH1 0x1 PUSH1 0x1 PUSH1 0xA0 SHL SUB AND SWAP13 SWAP2 SWAP12 SWAP2 SWAP11 SWAP2 SWAP10 SWAP2 SWAP9 SWAP2 SWAP8 PUSH1 0xFF SWAP3 DUP4 AND SWAP8 SWAP1 SWAP7 SWAP1 SWAP6 SWAP1 DUP4 AND SWAP5 SWAP1 SWAP4 SWAP3 AND SWAP2 SWAP1 DUP13 SWAP1 PUSH2 0xBBF SWAP1 PUSH2 0x20B2 JUMP JUMPDEST DUP1 PUSH1 0x1F ADD PUSH1 0x20 DUP1 SWAP2 DIV MUL PUSH1 0x20 ADD PUSH1 0x40 MLOAD SWAP1 DUP2 ADD PUSH1 0x40 MSTORE DUP1 SWAP3 SWAP2 SWAP1 DUP2 DUP2 MSTORE PUSH1 0x20 ADD DUP3 DUP1 SLOAD PUSH2 0xBEB SWAP1 PUSH2 0x20B2 JUMP JUMPDEST DUP1 ISZERO PUSH2 0xC36 JUMPI DUP1 PUSH1 0x1F LT PUSH2 0xC0D JUMPI PUSH2 0x100 DUP1 DUP4 SLOAD DIV MUL DUP4 MSTORE SWAP2 PUSH1 0x20 ADD SWAP2 PUSH2 0xC36 JUMP JUMPDEST DUP3 ADD SWAP2 SWAP1 PUSH0 MSTORE PUSH1 0x20 PUSH0 KECCAK256 SWAP1 JUMPDEST DUP2 SLOAD DUP2 MSTORE SWAP1 PUSH1 0x1 ADD SWAP1 PUSH1 0x20 ADD DUP1 DUP4 GT PUSH2 0xC19 JUMPI DUP3 SWAP1 SUB PUSH1 0x1F AND DUP3 ADD SWAP2 JUMPDEST POP POP POP POP POP SWAP12 POP SWAP14 POP SWAP14 POP SWAP14 POP SWAP14 POP SWAP14 POP SWAP14 POP SWAP14 POP SWAP14 POP SWAP14 POP SWAP14 POP SWAP14 POP SWAP14 POP SWAP14 POP SWAP14 POP SWAP1 SWAP2 SWAP3 SWAP4 SWAP5 SWAP6 SWAP7 SWAP8 SWAP9 SWAP10 SWAP11 SWAP12 SWAP13 SWAP14 JUMP JUMPDEST PUSH1 0x2 SLOAD PUSH1 0x1 PUSH1 0x1 PUSH1 0xA0 SHL SUB AND CALLER EQ PUSH2 0xCD2 JUMPI PUSH1 0x40 MLOAD PUSH3 0x461BCD PUSH1 0xE5 SHL DUP2 MSTORE PUSH1 0x20 PUSH1 0x4 DUP3 ADD MSTORE PUSH1 0x26 PUSH1 0x24 DUP3 ADD MSTORE PUSH32 0x4F6E6C7920666163746F7279206F776E65722063616E20657870697265207072 PUSH1 0x44 DUP3 ADD MSTORE PUSH6 0x6F6A65637473 PUSH1 0xD0 SHL PUSH1 0x64 DUP3 ADD MSTORE PUSH1 0x84 ADD PUSH2 0x543 JUMP JUMPDEST PUSH1 0x11 SLOAD PUSH1 0xFF AND ISZERO PUSH2 0xCF5 JUMPI PUSH1 0x40 MLOAD PUSH3 0x461BCD PUSH1 0xE5 SHL DUP2 MSTORE PUSH1 0x4 ADD PUSH2 0x543 SWAP1 PUSH2 0x20EA JUMP JUMPDEST PUSH1 0xA SLOAD PUSH1 0xFF AND ISZERO PUSH2 0xD18 JUMPI PUSH1 0x40 MLOAD PUSH3 0x461BCD PUSH1 0xE5 SHL DUP2 MSTORE PUSH1 0x4 ADD PUSH2 0x543 SWAP1 PUSH2 0x211D JUMP JUMPDEST PUSH1 0x7 SLOAD TIMESTAMP LT ISZERO PUSH2 0xD69 JUMPI PUSH1 0x40 MLOAD PUSH3 0x461BCD PUSH1 0xE5 SHL DUP2 MSTORE PUSH1 0x20 PUSH1 0x4 DUP3 ADD MSTORE PUSH1 0x1C PUSH1 0x24 DUP3 ADD MSTORE PUSH28 0x141C9BDA9958DD08191958591B1A5B99481B9BDD081C995858DA1959 PUSH1 0x22 SHL PUSH1 0x44 DUP3 ADD MSTORE PUSH1 0x64 ADD PUSH2 0x543 JUMP JUMPDEST PUSH1 0x6 SLOAD SELFBALANCE LT PUSH2 0xDB8 JUMPI PUSH1 0x40 MLOAD PUSH3 0x461BCD PUSH1 0xE5 SHL DUP2 MSTORE PUSH1 0x20 PUSH1 0x4 DUP3 ADD MSTORE PUSH1 0x1B PUSH1 0x24 DUP3 ADD MSTORE PUSH27 0x15185C99D95D0818DBDB9D1C9A589D5D1A5BDB881C995858DA1959 PUSH1 0x2A SHL PUSH1 0x44 DUP3 ADD MSTORE PUSH1 0x64 ADD PUSH2 0x543 JUMP JUMPDEST PUSH1 0x11 DUP1 SLOAD PUSH1 0xFF NOT AND PUSH1 0x1 OR SWAP1 SSTORE TIMESTAMP PUSH1 0x12 SSTORE PUSH2 0xDD1 PUSH2 0x1A14 JUMP JUMPDEST PUSH32 0xA1A76FF981049EA785E5BA852F4A586E2FC4634E442ADB3BDE2CA1CB4379E538 SELFBALANCE TIMESTAMP PUSH1 0x40 MLOAD PUSH2 0x731 SWAP3 SWAP2 SWAP1 PUSH2 0x1FD3 JUMP JUMPDEST PUSH1 0x8 DUP2 DUP2 SLOAD DUP2 LT PUSH2 0xE11 JUMPI PUSH0 DUP1 REVERT JUMPDEST PUSH0 SWAP2 DUP3 MSTORE PUSH1 0x20 SWAP1 SWAP2 KECCAK256 ADD SLOAD PUSH1 0x1 PUSH1 0x1 PUSH1 0xA0 SHL SUB AND SWAP1 POP DUP2 JUMP JUMPDEST PUSH1 0x4 DUP1 SLOAD PUSH2 0xE37 SWAP1 PUSH2 0x20B2 JUMP JUMPDEST DUP1 PUSH1 0x1F ADD PUSH1 0x20 DUP1 SWAP2 DIV MUL PUSH1 0x20 ADD PUSH1 0x40 MLOAD SWAP1 DUP2 ADD PUSH1 0x40 MSTORE DUP1 SWAP3 SWAP2 SWAP1 DUP2 DUP2 MSTORE PUSH1 0x20 ADD DUP3 DUP1 SLOAD PUSH2 0xE63 SWAP1 PUSH2 0x20B2 JUMP JUMPDEST DUP1 ISZERO PUSH2 0xEAE JUMPI DUP1 PUSH1 0x1F LT PUSH2 0xE85 JUMPI PUSH2 0x100 DUP1 DUP4 SLOAD DIV MUL DUP4 MSTORE SWAP2 PUSH1 0x20 ADD SWAP2 PUSH2 0xEAE JUMP JUMPDEST DUP3 ADD SWAP2 SWAP1 PUSH0 MSTORE PUSH1 0x20 PUSH0 KECCAK256 SWAP1 JUMPDEST DUP2 SLOAD DUP2 MSTORE SWAP1 PUSH1 0x1 ADD SWAP1 PUSH1 0x20 ADD DUP1 DUP4 GT PUSH2 0xE91 JUMPI DUP3 SWAP1 SUB PUSH1 0x1F AND DUP3 ADD SWAP2 JUMPDEST POP POP POP POP POP DUP2 JUMP JUMPDEST PUSH1 0x1 PUSH1 0x1 PUSH1 0xA0 SHL SUB DUP2 AND PUSH0 SWAP1 DUP2 MSTORE PUSH1 0x10 PUSH1 0x20 MSTORE PUSH1 0x40 DUP2 KECCAK256 SLOAD PUSH1 0x60 SWAP1 PUSH1 0xFF AND ISZERO PUSH2 0xFC6 JUMPI PUSH1 0x15 SLOAD PUSH1 0x40 MLOAD PUSH4 0x2F745C59 PUSH1 0xE0 SHL DUP2 MSTORE PUSH0 SWAP2 PUSH1 0x1 PUSH1 0x1 PUSH1 0xA0 SHL SUB AND SWAP1 PUSH4 0x2F745C59 SWAP1 PUSH2 0xF0B SWAP1 DUP8 SWAP1 DUP6 SWAP1 PUSH1 0x4 ADD PUSH2 0x206A JUMP JUMPDEST PUSH1 0x20 PUSH1 0x40 MLOAD DUP1 DUP4 SUB DUP2 DUP7 GAS STATICCALL ISZERO DUP1 ISZERO PUSH2 0xF26 JUMPI RETURNDATASIZE PUSH0 DUP1 RETURNDATACOPY RETURNDATASIZE PUSH0 REVERT JUMPDEST POP POP POP POP PUSH1 0x40 MLOAD RETURNDATASIZE PUSH1 0x1F NOT PUSH1 0x1F DUP3 ADD AND DUP3 ADD DUP1 PUSH1 0x40 MSTORE POP DUP2 ADD SWAP1 PUSH2 0xF4A SWAP2 SWAP1 PUSH2 0x2083 JUMP JUMPDEST PUSH1 0x15 SLOAD PUSH1 0x40 MLOAD PUSH4 0xC87B56DD PUSH1 0xE0 SHL DUP2 MSTORE PUSH1 0x4 DUP2 ADD DUP4 SWAP1 MSTORE SWAP2 SWAP3 POP DUP3 SWAP2 PUSH1 0x1 PUSH1 0x1 PUSH1 0xA0 SHL SUB SWAP1 SWAP2 AND SWAP1 PUSH4 0xC87B56DD SWAP1 PUSH1 0x24 ADD PUSH0 PUSH1 0x40 MLOAD DUP1 DUP4 SUB DUP2 DUP7 GAS STATICCALL ISZERO DUP1 ISZERO PUSH2 0xF95 JUMPI RETURNDATASIZE PUSH0 DUP1 RETURNDATACOPY RETURNDATASIZE PUSH0 REVERT JUMPDEST POP POP POP POP PUSH1 0x40 MLOAD RETURNDATASIZE PUSH0 DUP3 RETURNDATACOPY PUSH1 0x1F RETURNDATASIZE SWAP1 DUP2 ADD PUSH1 0x1F NOT AND DUP3 ADD PUSH1 0x40 MSTORE PUSH2 0xFBC SWAP2 SWAP1 DUP2 ADD SWAP1 PUSH2 0x214F JUMP JUMPDEST SWAP3 POP SWAP3 POP POP SWAP2 POP SWAP2 JUMP JUMPDEST POP POP PUSH1 0x40 DUP1 MLOAD PUSH1 0x20 DUP2 ADD SWAP1 SWAP2 MSTORE PUSH0 DUP1 DUP3 MSTORE SWAP3 SWAP1 SWAP2 POP JUMP JUMPDEST PUSH1 0x13 SLOAD DUP2 LT PUSH2 0x1028 JUMPI PUSH1 0x40 MLOAD PUSH3 0x461BCD PUSH1 0xE5 SHL DUP2 MSTORE PUSH1 0x20 PUSH1 0x4 DUP3 ADD MSTORE PUSH1 0x17 PUSH1 0x24 DUP3 ADD MSTORE PUSH23 0x92DCECC2D8D2C840DAD2D8CAE6E8DEDCCA40D2DCC8CAF PUSH1 0x4B SHL PUSH1 0x44 DUP3 ADD MSTORE PUSH1 0x64 ADD PUSH2 0x543 JUMP JUMPDEST PUSH0 PUSH1 0x13 DUP3 DUP2 SLOAD DUP2 LT PUSH2 0x103C JUMPI PUSH2 0x103C PUSH2 0x1F93 JUMP JUMPDEST SWAP1 PUSH0 MSTORE PUSH1 0x20 PUSH0 KECCAK256 SWAP1 PUSH1 0x3 MUL ADD SWAP1 POP PUSH0 PUSH1 0x14 DUP4 DUP2 SLOAD DUP2 LT PUSH2 0x105E JUMPI PUSH2 0x105E PUSH2 0x1F93 JUMP JUMPDEST SWAP1 PUSH0 MSTORE PUSH1 0x20 PUSH0 KECCAK256 SWAP1 PUSH1 0x9 MUL ADD SWAP1 POP PUSH0 DUP4 GT ISZERO PUSH2 0x1111 JUMPI PUSH0 JUMPDEST DUP4 DUP2 LT ISZERO PUSH2 0x110F JUMPI PUSH1 0x14 DUP2 DUP2 SLOAD DUP2 LT PUSH2 0x1091 JUMPI PUSH2 0x1091 PUSH2 0x1F93 JUMP JUMPDEST PUSH0 SWAP2 DUP3 MSTORE PUSH1 0x20 SWAP1 SWAP2 KECCAK256 PUSH1 0x4 PUSH1 0x9 SWAP1 SWAP3 MUL ADD ADD SLOAD PUSH1 0xFF AND PUSH2 0x1107 JUMPI PUSH1 0x40 MLOAD PUSH3 0x461BCD PUSH1 0xE5 SHL DUP2 MSTORE PUSH1 0x20 PUSH1 0x4 DUP3 ADD MSTORE PUSH1 0x2B PUSH1 0x24 DUP3 ADD MSTORE PUSH32 0x50726576696F7573206D696C6573746F6E6573206D75737420626520636F6D70 PUSH1 0x44 DUP3 ADD MSTORE PUSH11 0x1B195D195908199A5C9CDD PUSH1 0xAA SHL PUSH1 0x64 DUP3 ADD MSTORE PUSH1 0x84 ADD PUSH2 0x543 JUMP JUMPDEST PUSH1 0x1 ADD PUSH2 0x1076 JUMP JUMPDEST POP JUMPDEST CALLER PUSH0 SWAP1 DUP2 MSTORE PUSH1 0x9 PUSH1 0x20 MSTORE PUSH1 0x40 SWAP1 KECCAK256 SLOAD PUSH2 0x113C JUMPI PUSH1 0x40 MLOAD PUSH3 0x461BCD PUSH1 0xE5 SHL DUP2 MSTORE PUSH1 0x4 ADD PUSH2 0x543 SWAP1 PUSH2 0x1F68 JUMP JUMPDEST CALLER PUSH0 SWAP1 DUP2 MSTORE PUSH1 0x3 DUP3 ADD PUSH1 0x20 MSTORE PUSH1 0x40 SWAP1 KECCAK256 SLOAD ISZERO PUSH2 0x119A JUMPI PUSH1 0x40 MLOAD PUSH3 0x461BCD PUSH1 0xE5 SHL DUP2 MSTORE PUSH1 0x20 PUSH1 0x4 DUP3 ADD MSTORE PUSH1 0x1F PUSH1 0x24 DUP3 ADD MSTORE PUSH32 0x416C726561647920617070726F7665642074686973206D696C6573746F6E6500 PUSH1 0x44 DUP3 ADD MSTORE PUSH1 0x64 ADD PUSH2 0x543 JUMP JUMPDEST PUSH1 0x2 DUP3 ADD SLOAD DUP4 ISZERO PUSH2 0x11E4 JUMPI PUSH1 0x13 PUSH2 0x11B2 PUSH1 0x1 DUP7 PUSH2 0x21C0 JUMP JUMPDEST DUP2 SLOAD DUP2 LT PUSH2 0x11C2 JUMPI PUSH2 0x11C2 PUSH2 0x1F93 JUMP JUMPDEST SWAP1 PUSH0 MSTORE PUSH1 0x20 PUSH0 KECCAK256 SWAP1 PUSH1 0x3 MUL ADD PUSH1 0x2 ADD SLOAD DUP4 PUSH1 0x2 ADD SLOAD PUSH2 0x11E1 SWAP2 SWAP1 PUSH2 0x21C0 JUMP JUMPDEST SWAP1 POP JUMPDEST DUP1 SELFBALANCE LT ISZERO PUSH2 0x1234 JUMPI PUSH1 0x40 MLOAD PUSH3 0x461BCD PUSH1 0xE5 SHL DUP2 MSTORE PUSH1 0x20 PUSH1 0x4 DUP3 ADD MSTORE PUSH1 0x1F PUSH1 0x24 DUP3 ADD MSTORE PUSH32 0x4D696C6573746F6E65207468726573686F6C64206E6F74207265616368656400 PUSH1 0x44 DUP3 ADD MSTORE PUSH1 0x64 ADD PUSH2 0x543 JUMP JUMPDEST CALLER PUSH0 SWAP1 DUP2 MSTORE PUSH1 0x3 DUP4 ADD PUSH1 0x20 MSTORE PUSH1 0x40 DUP2 KECCAK256 TIMESTAMP SWAP1 SSTORE PUSH1 0x2 DUP4 ADD DUP1 SLOAD SWAP2 PUSH2 0x1257 DUP4 PUSH2 0x1FBB JUMP JUMPDEST SWAP2 SWAP1 POP SSTORE POP CALLER PUSH1 0x1 PUSH1 0x1 PUSH1 0xA0 SHL SUB AND DUP5 PUSH32 0xBCC8D96147346ACCA8053CCDAC1317167B1CB4456421948B4B31638F502F2D62 DUP5 PUSH1 0x2 ADD SLOAD TIMESTAMP PUSH1 0x40 MLOAD PUSH2 0x129C SWAP3 SWAP2 SWAP1 PUSH2 0x1FD3 JUMP JUMPDEST PUSH1 0x40 MLOAD DUP1 SWAP2 SUB SWAP1 LOG3 PUSH1 0x8 SLOAD PUSH2 0x12B3 SWAP1 PUSH1 0x2 SWAP1 PUSH2 0x1FE1 JUMP JUMPDEST PUSH2 0x12BE SWAP1 PUSH1 0x1 PUSH2 0x2000 JUMP JUMPDEST DUP3 PUSH1 0x2 ADD SLOAD LT PUSH2 0x9A6 JUMPI DUP2 SLOAD PUSH1 0xFF NOT AND PUSH1 0x1 SWAP1 DUP2 OR DUP4 SSTORE TIMESTAMP SWAP1 DUP4 ADD DUP2 SWAP1 SSTORE PUSH1 0x40 MLOAD DUP6 SWAP2 PUSH32 0x939DA3B627C123C81FE5AACEBF925163337A0D4F8A03724640618078CAD24894 SWAP2 PUSH2 0x130F SWAP2 DUP2 MSTORE PUSH1 0x20 ADD SWAP1 JUMP JUMPDEST PUSH1 0x40 MLOAD DUP1 SWAP2 SUB SWAP1 LOG2 POP POP POP POP JUMP JUMPDEST PUSH1 0x1 SLOAD PUSH1 0x1 PUSH1 0x1 PUSH1 0xA0 SHL SUB AND CALLER EQ PUSH2 0x1333 JUMPI PUSH0 DUP1 REVERT JUMPDEST PUSH0 DUP4 MLOAD GT PUSH2 0x133F JUMPI PUSH0 DUP1 REVERT JUMPDEST PUSH0 DUP3 GT PUSH2 0x134A JUMPI PUSH0 DUP1 REVERT JUMPDEST PUSH1 0x6 SLOAD DUP3 LT PUSH2 0x1357 JUMPI PUSH0 DUP1 REVERT JUMPDEST PUSH1 0x1 PUSH1 0x1 PUSH1 0xA0 SHL SUB DUP2 AND PUSH2 0x1369 JUMPI PUSH0 DUP1 REVERT JUMPDEST PUSH1 0x13 SLOAD ISZERO PUSH2 0x13AB JUMPI PUSH1 0x13 DUP1 SLOAD PUSH2 0x1381 SWAP1 PUSH1 0x1 SWAP1 PUSH2 0x21C0 JUMP JUMPDEST DUP2 SLOAD DUP2 LT PUSH2 0x1391 JUMPI PUSH2 0x1391 PUSH2 0x1F93 JUMP JUMPDEST SWAP1 PUSH0 MSTORE PUSH1 0x20 PUSH0 KECCAK256 SWAP1 PUSH1 0x3 MUL ADD PUSH1 0x2 ADD SLOAD DUP3 GT PUSH2 0x13AB JUMPI PUSH0 DUP1 REVERT JUMPDEST PUSH1 0x13 DUP1 SLOAD PUSH1 0x1 DUP2 ADD DUP3 SSTORE PUSH0 SWAP2 SWAP1 SWAP2 MSTORE PUSH1 0x3 MUL PUSH32 0x66DE8FFDA797E3DE9C05E8FC57B3BF0EC28A930D40B0D285D93C06501CF6A090 DUP2 ADD SWAP1 PUSH32 0x66DE8FFDA797E3DE9C05E8FC57B3BF0EC28A930D40B0D285D93C06501CF6A091 ADD PUSH2 0x140D DUP6 DUP3 PUSH2 0x221F JUMP JUMPDEST POP PUSH1 0x2 DUP2 ADD SWAP3 SWAP1 SWAP3 SSTORE DUP2 SLOAD PUSH1 0x1 PUSH1 0x1 PUSH1 0xA0 SHL SUB NOT AND PUSH1 0x1 PUSH1 0x1 PUSH1 0xA0 SHL SUB SWAP2 SWAP1 SWAP2 AND OR SWAP1 SSTORE POP PUSH1 0x14 DUP1 SLOAD PUSH1 0x1 ADD DUP2 SSTORE PUSH0 MSTORE JUMP JUMPDEST PUSH1 0x5 SLOAD CALLVALUE LT ISZERO PUSH2 0x148E JUMPI PUSH1 0x40 MLOAD PUSH3 0x461BCD PUSH1 0xE5 SHL DUP2 MSTORE PUSH1 0x20 PUSH1 0x4 DUP3 ADD MSTORE PUSH1 0x1A PUSH1 0x24 DUP3 ADD MSTORE PUSH26 0x436F6E747269627574696F6E2062656C6F77206D696E696D756D PUSH1 0x30 SHL PUSH1 0x44 DUP3 ADD MSTORE PUSH1 0x64 ADD PUSH2 0x543 JUMP JUMPDEST PUSH1 0x5 SLOAD PUSH1 0x6 SLOAD PUSH2 0x149E SWAP2 SWAP1 PUSH2 0x2000 JUMP JUMPDEST SELFBALANCE GT ISZERO PUSH2 0x14ED JUMPI PUSH1 0x40 MLOAD PUSH3 0x461BCD PUSH1 0xE5 SHL DUP2 MSTORE PUSH1 0x20 PUSH1 0x4 DUP3 ADD DUP2 SWAP1 MSTORE PUSH1 0x24 DUP3 ADD MSTORE PUSH32 0x436F6E747269627574696F6E20776F756C642065786365656420746172676574 PUSH1 0x44 DUP3 ADD MSTORE PUSH1 0x64 ADD PUSH2 0x543 JUMP JUMPDEST PUSH1 0x7 SLOAD TIMESTAMP LT PUSH2 0x14FA JUMPI PUSH0 DUP1 REVERT JUMPDEST CALLER PUSH0 SWAP1 DUP2 MSTORE PUSH1 0x9 PUSH1 0x20 MSTORE PUSH1 0x40 DUP2 KECCAK256 SLOAD SWAP1 SUB PUSH2 0x1551 JUMPI PUSH1 0x8 DUP1 SLOAD PUSH1 0x1 DUP2 ADD DUP3 SSTORE PUSH0 SWAP2 SWAP1 SWAP2 MSTORE PUSH32 0xF3F7A9FE364FAAB93B216DA50A3214154F22A0A2B415B23A84C8169E8B636EE3 ADD DUP1 SLOAD PUSH1 0x1 PUSH1 0x1 PUSH1 0xA0 SHL SUB NOT AND CALLER OR SWAP1 SSTORE JUMPDEST CALLER PUSH0 DUP2 DUP2 MSTORE PUSH1 0x9 PUSH1 0x20 SWAP1 DUP2 MSTORE PUSH1 0x40 SWAP2 DUP3 SWAP1 KECCAK256 CALLVALUE SWAP1 DUP2 SWAP1 SSTORE PUSH1 0x8 SLOAD DUP4 MLOAD SWAP2 DUP3 MSTORE SELFBALANCE SWAP3 DUP3 ADD SWAP3 SWAP1 SWAP3 MSTORE SWAP2 DUP3 ADD MSTORE TIMESTAMP PUSH1 0x60 DUP3 ADD MSTORE PUSH32 0x38EAF060DDEC1DDE1C99C9CCE5C8F34A03C48E9368F6FF7B768898F627860580 SWAP1 PUSH1 0x80 ADD PUSH2 0xB3B JUMP JUMPDEST PUSH1 0x13 DUP2 DUP2 SLOAD DUP2 LT PUSH2 0x15BB JUMPI PUSH0 DUP1 REVERT JUMPDEST PUSH0 SWAP2 DUP3 MSTORE PUSH1 0x20 SWAP1 SWAP2 KECCAK256 PUSH1 0x3 SWAP1 SWAP2 MUL ADD DUP1 SLOAD PUSH1 0x1 DUP3 ADD DUP1 SLOAD PUSH1 0x1 PUSH1 0x1 PUSH1 0xA0 SHL SUB SWAP1 SWAP3 AND SWAP4 POP SWAP1 PUSH2 0x15E9 SWAP1 PUSH2 0x20B2 JUMP JUMPDEST DUP1 PUSH1 0x1F ADD PUSH1 0x20 DUP1 SWAP2 DIV MUL PUSH1 0x20 ADD PUSH1 0x40 MLOAD SWAP1 DUP2 ADD PUSH1 0x40 MSTORE DUP1 SWAP3 SWAP2 SWAP1 DUP2 DUP2 MSTORE PUSH1 0x20 ADD DUP3 DUP1 SLOAD PUSH2 0x1615 SWAP1 PUSH2 0x20B2 JUMP JUMPDEST DUP1 ISZERO PUSH2 0x1660 JUMPI DUP1 PUSH1 0x1F LT PUSH2 0x1637 JUMPI PUSH2 0x100 DUP1 DUP4 SLOAD DIV MUL DUP4 MSTORE SWAP2 PUSH1 0x20 ADD SWAP2 PUSH2 0x1660 JUMP JUMPDEST DUP3 ADD SWAP2 SWAP1 PUSH0 MSTORE PUSH1 0x20 PUSH0 KECCAK256 SWAP1 JUMPDEST DUP2 SLOAD DUP2 MSTORE SWAP1 PUSH1 0x1 ADD SWAP1 PUSH1 0x20 ADD DUP1 DUP4 GT PUSH2 0x1643 JUMPI DUP3 SWAP1 SUB PUSH1 0x1F AND DUP3 ADD SWAP2 JUMPDEST POP POP POP POP POP SWAP1 DUP1 PUSH1 0x2 ADD SLOAD SWAP1 POP DUP4 JUMP JUMPDEST PUSH1 0x1 SLOAD PUSH1 0x1 PUSH1 0x1 PUSH1 0xA0 SHL SUB AND CALLER EQ PUSH2 0x1686 JUMPI PUSH0 DUP1 REVERT JUMPDEST PUSH1 0x11 SLOAD PUSH1 0xFF AND ISZERO PUSH2 0x16A9 JUMPI PUSH1 0x40 MLOAD PUSH3 0x461BCD PUSH1 0xE5 SHL DUP2 MSTORE PUSH1 0x4 ADD PUSH2 0x543 SWAP1 PUSH2 0x20EA JUMP JUMPDEST PUSH1 0xA SLOAD PUSH1 0xFF AND ISZERO PUSH2 0x16CC JUMPI PUSH1 0x40 MLOAD PUSH3 0x461BCD PUSH1 0xE5 SHL DUP2 MSTORE PUSH1 0x4 ADD PUSH2 0x543 SWAP1 PUSH2 0x211D JUMP JUMPDEST PUSH1 0x7 SLOAD TIMESTAMP LT PUSH2 0x1717 JUMPI PUSH1 0x40 MLOAD PUSH3 0x461BCD PUSH1 0xE5 SHL DUP2 MSTORE PUSH1 0x20 PUSH1 0x4 DUP3 ADD MSTORE PUSH1 0x17 PUSH1 0x24 DUP3 ADD MSTORE PUSH23 0x141C9BDA9958DD08185B1C9958591E48195E1C1A5C9959 PUSH1 0x4A SHL PUSH1 0x44 DUP3 ADD MSTORE PUSH1 0x64 ADD PUSH2 0x543 JUMP JUMPDEST PUSH1 0x11 DUP1 SLOAD PUSH1 0xFF NOT AND PUSH1 0x1 OR SWAP1 SSTORE TIMESTAMP PUSH1 0x12 SSTORE PUSH2 0x1730 PUSH2 0x1A14 JUMP JUMPDEST CALLER PUSH1 0x1 PUSH1 0x1 PUSH1 0xA0 SHL SUB AND PUSH32 0xFF980BE860FCF38146235584F535793513378822DC159072E5CA157BA497780D SELFBALANCE TIMESTAMP PUSH1 0x40 MLOAD PUSH2 0xB3B SWAP3 SWAP2 SWAP1 PUSH2 0x1FD3 JUMP JUMPDEST PUSH1 0x1 SLOAD PUSH1 0x1 PUSH1 0x1 PUSH1 0xA0 SHL SUB AND CALLER EQ PUSH2 0x1781 JUMPI PUSH0 DUP1 REVERT JUMPDEST PUSH0 PUSH1 0x13 DUP3 DUP2 SLOAD DUP2 LT PUSH2 0x1795 JUMPI PUSH2 0x1795 PUSH2 0x1F93 JUMP JUMPDEST SWAP1 PUSH0 MSTORE PUSH1 0x20 PUSH0 KECCAK256 SWAP1 PUSH1 0x3 MUL ADD SWAP1 POP PUSH0 PUSH1 0x14 DUP4 DUP2 SLOAD DUP2 LT PUSH2 0x17B7 JUMPI PUSH2 0x17B7 PUSH2 0x1F93 JUMP JUMPDEST PUSH0 SWAP2 DUP3 MSTORE PUSH1 0x20 SWAP1 SWAP2 KECCAK256 PUSH1 0x9 SWAP1 SWAP2 MUL ADD DUP1 SLOAD SWAP1 SWAP2 POP PUSH1 0xFF AND PUSH2 0x1813 JUMPI PUSH1 0x40 MLOAD PUSH3 0x461BCD PUSH1 0xE5 SHL DUP2 MSTORE PUSH1 0x20 PUSH1 0x4 DUP3 ADD MSTORE PUSH1 0x16 PUSH1 0x24 DUP3 ADD MSTORE PUSH22 0x135A5B195CDD1BDB99481B9BDD08185C1C1C9BDD9959 PUSH1 0x52 SHL PUSH1 0x44 DUP3 ADD MSTORE PUSH1 0x64 ADD PUSH2 0x543 JUMP JUMPDEST PUSH1 0x4 DUP2 ADD SLOAD PUSH1 0xFF AND ISZERO PUSH2 0x1866 JUMPI PUSH1 0x40 MLOAD PUSH3 0x461BCD PUSH1 0xE5 SHL DUP2 MSTORE PUSH1 0x20 PUSH1 0x4 DUP3 ADD MSTORE PUSH1 0x1B PUSH1 0x24 DUP3 ADD MSTORE PUSH27 0x135A5B195CDD1BDB9948185B1C9958591E4818DBDB5C1B195D1959 PUSH1 0x2A SHL PUSH1 0x44 DUP3 ADD MSTORE PUSH1 0x64 ADD PUSH2 0x543 JUMP JUMPDEST PUSH1 0x2 DUP3 ADD SLOAD PUSH0 JUMPDEST DUP5 DUP2 LT ISZERO PUSH2 0x1920 JUMPI PUSH1 0x14 DUP2 DUP2 SLOAD DUP2 LT PUSH2 0x1888 JUMPI PUSH2 0x1888 PUSH2 0x1F93 JUMP JUMPDEST PUSH0 SWAP2 DUP3 MSTORE PUSH1 0x20 SWAP1 SWAP2 KECCAK256 PUSH1 0x4 PUSH1 0x9 SWAP1 SWAP3 MUL ADD ADD SLOAD PUSH1 0xFF AND PUSH2 0x18E8 JUMPI PUSH1 0x40 MLOAD PUSH3 0x461BCD PUSH1 0xE5 SHL DUP2 MSTORE PUSH1 0x20 PUSH1 0x4 DUP3 ADD MSTORE PUSH1 0x1B PUSH1 0x24 DUP3 ADD MSTORE PUSH27 0x50726576696F7573206D696C6573746F6E65732070656E64696E67 PUSH1 0x28 SHL PUSH1 0x44 DUP3 ADD MSTORE PUSH1 0x64 ADD PUSH2 0x543 JUMP JUMPDEST PUSH1 0x13 DUP2 DUP2 SLOAD DUP2 LT PUSH2 0x18FB JUMPI PUSH2 0x18FB PUSH2 0x1F93 JUMP JUMPDEST SWAP1 PUSH0 MSTORE PUSH1 0x20 PUSH0 KECCAK256 SWAP1 PUSH1 0x3 MUL ADD PUSH1 0x2 ADD SLOAD DUP3 PUSH2 0x1916 SWAP2 SWAP1 PUSH2 0x21C0 JUMP JUMPDEST SWAP2 POP PUSH1 0x1 ADD PUSH2 0x186D JUMP JUMPDEST POP DUP3 SLOAD PUSH1 0x40 MLOAD PUSH1 0x1 PUSH1 0x1 PUSH1 0xA0 SHL SUB SWAP1 SWAP2 AND SWAP1 DUP3 ISZERO PUSH2 0x8FC MUL SWAP1 DUP4 SWAP1 PUSH0 DUP2 DUP2 DUP2 DUP6 DUP9 DUP9 CALL SWAP4 POP POP POP POP ISZERO DUP1 ISZERO PUSH2 0x1957 JUMPI RETURNDATASIZE PUSH0 DUP1 RETURNDATACOPY RETURNDATASIZE PUSH0 REVERT JUMPDEST POP PUSH1 0x4 DUP3 ADD DUP1 SLOAD PUSH1 0xFF NOT AND PUSH1 0x1 OR SWAP1 SSTORE TIMESTAMP PUSH1 0x5 DUP4 ADD DUP2 SWAP1 SSTORE DUP4 SLOAD PUSH1 0x40 MLOAD PUSH1 0x1 PUSH1 0x1 PUSH1 0xA0 SHL SUB SWAP1 SWAP2 AND SWAP2 DUP7 SWAP2 PUSH31 0x2CBC6624F888E1AB438A815429241E2D69CB4A5E8A8014F6CAA5274B420BD5 SWAP2 PUSH2 0x19AF SWAP2 DUP7 SWAP2 SWAP1 PUSH2 0x1FD3 JUMP JUMPDEST PUSH1 0x40 MLOAD DUP1 SWAP2 SUB SWAP1 LOG3 POP POP POP POP JUMP JUMPDEST PUSH1 0x14 DUP2 DUP2 SLOAD DUP2 LT PUSH2 0x19CC JUMPI PUSH0 DUP1 REVERT JUMPDEST PUSH0 SWAP2 DUP3 MSTORE PUSH1 0x20 SWAP1 SWAP2 KECCAK256 PUSH1 0x9 SWAP1 SWAP2 MUL ADD DUP1 SLOAD PUSH1 0x1 DUP3 ADD SLOAD PUSH1 0x2 DUP4 ADD SLOAD PUSH1 0x4 DUP5 ADD SLOAD PUSH1 0x5 DUP6 ADD SLOAD PUSH1 0x7 DUP7 ADD SLOAD PUSH1 0x8 SWAP1 SWAP7 ADD SLOAD PUSH1 0xFF SWAP6 DUP7 AND SWAP8 POP SWAP4 SWAP6 SWAP3 SWAP5 SWAP2 DUP3 AND SWAP4 SWAP1 SWAP3 SWAP1 SWAP2 AND SWAP1 DUP8 JUMP JUMPDEST PUSH1 0x8 SLOAD PUSH0 JUMPDEST DUP2 DUP2 LT ISZERO PUSH2 0x1AAF JUMPI PUSH0 PUSH1 0x8 DUP3 DUP2 SLOAD DUP2 LT PUSH2 0x1A35 JUMPI PUSH2 0x1A35 PUSH2 0x1F93 JUMP JUMPDEST PUSH0 SWAP2 DUP3 MSTORE PUSH1 0x20 DUP1 DUP4 KECCAK256 SWAP1 SWAP2 ADD SLOAD PUSH1 0x1 PUSH1 0x1 PUSH1 0xA0 SHL SUB AND DUP1 DUP4 MSTORE PUSH1 0x9 SWAP1 SWAP2 MSTORE PUSH1 0x40 SWAP1 SWAP2 KECCAK256 SLOAD SWAP1 SWAP2 POP DUP1 ISZERO PUSH2 0x1AA5 JUMPI PUSH1 0x1 PUSH1 0x1 PUSH1 0xA0 SHL SUB DUP3 AND PUSH0 DUP2 DUP2 MSTORE PUSH1 0x9 PUSH1 0x20 MSTORE PUSH1 0x40 DUP1 DUP3 KECCAK256 DUP3 SWAP1 SSTORE MLOAD DUP4 ISZERO PUSH2 0x8FC MUL SWAP2 DUP5 SWAP2 SWAP1 DUP2 DUP2 DUP2 DUP6 DUP9 DUP9 CALL SWAP4 POP POP POP POP ISZERO DUP1 ISZERO PUSH2 0x1AA3 JUMPI RETURNDATASIZE PUSH0 DUP1 RETURNDATACOPY RETURNDATASIZE PUSH0 REVERT JUMPDEST POP JUMPDEST POP POP PUSH1 0x1 ADD PUSH2 0x1A19 JUMP JUMPDEST POP POP JUMP JUMPDEST DUP1 CALLDATALOAD PUSH1 0x1 PUSH1 0x1 PUSH1 0xA0 SHL SUB DUP2 AND DUP2 EQ PUSH2 0x1AC9 JUMPI PUSH0 DUP1 REVERT JUMPDEST SWAP2 SWAP1 POP JUMP JUMPDEST PUSH0 PUSH1 0x20 DUP3 DUP5 SUB SLT ISZERO PUSH2 0x1ADE JUMPI PUSH0 DUP1 REVERT JUMPDEST PUSH2 0x1AE7 DUP3 PUSH2 0x1AB3 JUMP JUMPDEST SWAP4 SWAP3 POP POP POP JUMP JUMPDEST PUSH4 0x4E487B71 PUSH1 0xE0 SHL PUSH0 MSTORE PUSH1 0x41 PUSH1 0x4 MSTORE PUSH1 0x24 PUSH0 REVERT JUMPDEST PUSH1 0x40 MLOAD PUSH1 0x1F DUP3 ADD PUSH1 0x1F NOT AND DUP2 ADD PUSH1 0x1 PUSH1 0x1 PUSH1 0x40 SHL SUB DUP2 GT DUP3 DUP3 LT OR ISZERO PUSH2 0x1B2A JUMPI PUSH2 0x1B2A PUSH2 0x1AEE JUMP JUMPDEST PUSH1 0x40 MSTORE SWAP2 SWAP1 POP JUMP JUMPDEST PUSH0 PUSH1 0x1 PUSH1 0x1 PUSH1 0x40 SHL SUB DUP3 GT ISZERO PUSH2 0x1B4A JUMPI PUSH2 0x1B4A PUSH2 0x1AEE JUMP JUMPDEST POP PUSH1 0x1F ADD PUSH1 0x1F NOT AND PUSH1 0x20 ADD SWAP1 JUMP JUMPDEST PUSH0 DUP3 PUSH1 0x1F DUP4 ADD SLT PUSH2 0x1B67 JUMPI PUSH0 DUP1 REVERT JUMPDEST DUP2 CALLDATALOAD PUSH2 0x1B7A PUSH2 0x1B75 DUP3 PUSH2 0x1B32 JUMP JUMPDEST PUSH2 0x1B02 JUMP JUMPDEST DUP2 DUP2 MSTORE DUP5 PUSH1 0x20 DUP4 DUP7 ADD ADD GT ISZERO PUSH2 0x1B8E JUMPI PUSH0 DUP1 REVERT JUMPDEST DUP2 PUSH1 0x20 DUP6 ADD PUSH1 0x20 DUP4 ADD CALLDATACOPY PUSH0 SWAP2 DUP2 ADD PUSH1 0x20 ADD SWAP2 SWAP1 SWAP2 MSTORE SWAP4 SWAP3 POP POP POP JUMP JUMPDEST PUSH0 PUSH1 0x20 DUP3 DUP5 SUB SLT ISZERO PUSH2 0x1BBA JUMPI PUSH0 DUP1 REVERT JUMPDEST DUP2 CALLDATALOAD PUSH1 0x1 PUSH1 0x1 PUSH1 0x40 SHL SUB DUP2 GT ISZERO PUSH2 0x1BCF JUMPI PUSH0 DUP1 REVERT JUMPDEST PUSH2 0x1BDB DUP5 DUP3 DUP6 ADD PUSH2 0x1B58 JUMP JUMPDEST SWAP5 SWAP4 POP POP POP POP JUMP JUMPDEST PUSH0 PUSH1 0x1 PUSH1 0x1 PUSH1 0x40 SHL SUB DUP3 GT ISZERO PUSH2 0x1BFB JUMPI PUSH2 0x1BFB PUSH2 0x1AEE JUMP JUMPDEST POP PUSH1 0x5 SHL PUSH1 0x20 ADD SWAP1 JUMP JUMPDEST PUSH0 DUP3 PUSH1 0x1F DUP4 ADD SLT PUSH2 0x1C14 JUMPI PUSH0 DUP1 REVERT JUMPDEST DUP2 CALLDATALOAD PUSH1 0x20 PUSH2 0x1C24 PUSH2 0x1B75 DUP4 PUSH2 0x1BE3 JUMP JUMPDEST DUP1 DUP4 DUP3 MSTORE PUSH1 0x20 DUP3 ADD SWAP2 POP PUSH1 0x20 DUP5 PUSH1 0x5 SHL DUP8 ADD ADD SWAP4 POP DUP7 DUP5 GT ISZERO PUSH2 0x1C45 JUMPI PUSH0 DUP1 REVERT JUMPDEST PUSH1 0x20 DUP7 ADD JUMPDEST DUP5 DUP2 LT ISZERO PUSH2 0x1C61 JUMPI DUP1 CALLDATALOAD DUP4 MSTORE SWAP2 DUP4 ADD SWAP2 DUP4 ADD PUSH2 0x1C4A JUMP JUMPDEST POP SWAP7 SWAP6 POP POP POP POP POP POP JUMP JUMPDEST PUSH0 DUP3 PUSH1 0x1F DUP4 ADD SLT PUSH2 0x1C7B JUMPI PUSH0 DUP1 REVERT JUMPDEST DUP2 CALLDATALOAD PUSH1 0x20 PUSH2 0x1C8B PUSH2 0x1B75 DUP4 PUSH2 0x1BE3 JUMP JUMPDEST DUP1 DUP4 DUP3 MSTORE PUSH1 0x20 DUP3 ADD SWAP2 POP PUSH1 0x20 DUP5 PUSH1 0x5 SHL DUP8 ADD ADD SWAP4 POP DUP7 DUP5 GT ISZERO PUSH2 0x1CAC JUMPI PUSH0 DUP1 REVERT JUMPDEST PUSH1 0x20 DUP7 ADD JUMPDEST DUP5 DUP2 LT ISZERO PUSH2 0x1C61 JUMPI PUSH2 0x1CC2 DUP2 PUSH2 0x1AB3 JUMP JUMPDEST DUP4 MSTORE SWAP2 DUP4 ADD SWAP2 DUP4 ADD PUSH2 0x1CB1 JUMP JUMPDEST PUSH0 DUP1 PUSH0 PUSH1 0x60 DUP5 DUP7 SUB SLT ISZERO PUSH2 0x1CE1 JUMPI PUSH0 DUP1 REVERT JUMPDEST DUP4 CALLDATALOAD PUSH1 0x1 PUSH1 0x1 PUSH1 0x40 SHL SUB DUP1 DUP3 GT ISZERO PUSH2 0x1CF7 JUMPI PUSH0 DUP1 REVERT JUMPDEST DUP2 DUP7 ADD SWAP2 POP DUP7 PUSH1 0x1F DUP4 ADD SLT PUSH2 0x1D0A JUMPI PUSH0 DUP1 REVERT JUMPDEST DUP2 CALLDATALOAD PUSH1 0x20 PUSH2 0x1D1A PUSH2 0x1B75 DUP4 PUSH2 0x1BE3 JUMP JUMPDEST DUP3 DUP2 MSTORE PUSH1 0x5 SWAP3 SWAP1 SWAP3 SHL DUP5 ADD DUP2 ADD SWAP2 DUP2 DUP2 ADD SWAP1 DUP11 DUP5 GT ISZERO PUSH2 0x1D38 JUMPI PUSH0 DUP1 REVERT JUMPDEST DUP3 DUP7 ADD JUMPDEST DUP5 DUP2 LT ISZERO PUSH2 0x1D6E JUMPI DUP1 CALLDATALOAD DUP7 DUP2 GT ISZERO PUSH2 0x1D52 JUMPI PUSH0 DUP1 REVERT JUMPDEST PUSH2 0x1D60 DUP14 DUP7 DUP4 DUP12 ADD ADD PUSH2 0x1B58 JUMP JUMPDEST DUP5 MSTORE POP SWAP2 DUP4 ADD SWAP2 DUP4 ADD PUSH2 0x1D3C JUMP JUMPDEST POP SWAP8 POP POP DUP8 ADD CALLDATALOAD SWAP3 POP POP DUP1 DUP3 GT ISZERO PUSH2 0x1D84 JUMPI PUSH0 DUP1 REVERT JUMPDEST PUSH2 0x1D90 DUP8 DUP4 DUP9 ADD PUSH2 0x1C05 JUMP JUMPDEST SWAP4 POP PUSH1 0x40 DUP7 ADD CALLDATALOAD SWAP2 POP DUP1 DUP3 GT ISZERO PUSH2 0x1DA5 JUMPI PUSH0 DUP1 REVERT JUMPDEST POP PUSH2 0x1DB2 DUP7 DUP3 DUP8 ADD PUSH2 0x1C6C JUMP JUMPDEST SWAP2 POP POP SWAP3 POP SWAP3 POP SWAP3 JUMP JUMPDEST PUSH0 JUMPDEST DUP4 DUP2 LT ISZERO PUSH2 0x1DD6 JUMPI DUP2 DUP2 ADD MLOAD DUP4 DUP3 ADD MSTORE PUSH1 0x20 ADD PUSH2 0x1DBE JUMP JUMPDEST POP POP PUSH0 SWAP2 ADD MSTORE JUMP JUMPDEST PUSH0 DUP2 MLOAD DUP1 DUP5 MSTORE PUSH2 0x1DF5 DUP2 PUSH1 0x20 DUP7 ADD PUSH1 0x20 DUP7 ADD PUSH2 0x1DBC JUMP JUMPDEST PUSH1 0x1F ADD PUSH1 0x1F NOT AND SWAP3 SWAP1 SWAP3 ADD PUSH1 0x20 ADD SWAP3 SWAP2 POP POP JUMP JUMPDEST DUP15 DUP2 MSTORE PUSH1 0x1 PUSH1 0x1 PUSH1 0xA0 SHL SUB DUP15 AND PUSH1 0x20 DUP3 ADD MSTORE PUSH2 0x1C0 PUSH1 0x40 DUP3 ADD DUP2 SWAP1 MSTORE PUSH0 SWAP1 PUSH2 0x1E33 SWAP1 DUP4 ADD DUP16 PUSH2 0x1DDE JUMP JUMPDEST SWAP1 POP DUP13 PUSH1 0x60 DUP4 ADD MSTORE DUP12 PUSH1 0x80 DUP4 ADD MSTORE DUP11 PUSH1 0xA0 DUP4 ADD MSTORE DUP10 PUSH1 0xC0 DUP4 ADD MSTORE DUP9 ISZERO ISZERO PUSH1 0xE0 DUP4 ADD MSTORE DUP8 PUSH2 0x100 DUP4 ADD MSTORE DUP7 PUSH2 0x120 DUP4 ADD MSTORE PUSH2 0x1E72 PUSH2 0x140 DUP4 ADD DUP8 ISZERO ISZERO SWAP1 MSTORE JUMP JUMPDEST DUP5 PUSH2 0x160 DUP4 ADD MSTORE PUSH2 0x1E88 PUSH2 0x180 DUP4 ADD DUP6 ISZERO ISZERO SWAP1 MSTORE JUMP JUMPDEST DUP3 PUSH2 0x1A0 DUP4 ADD MSTORE SWAP16 SWAP15 POP POP POP POP POP POP POP POP POP POP POP POP POP POP POP JUMP JUMPDEST PUSH0 PUSH1 0x20 DUP3 DUP5 SUB SLT ISZERO PUSH2 0x1EB2 JUMPI PUSH0 DUP1 REVERT JUMPDEST POP CALLDATALOAD SWAP2 SWAP1 POP JUMP JUMPDEST PUSH1 0x20 DUP2 MSTORE PUSH0 PUSH2 0x1AE7 PUSH1 0x20 DUP4 ADD DUP5 PUSH2 0x1DDE JUMP JUMPDEST DUP3 DUP2 MSTORE PUSH1 0x40 PUSH1 0x20 DUP3 ADD MSTORE PUSH0 PUSH2 0x1BDB PUSH1 0x40 DUP4 ADD DUP5 PUSH2 0x1DDE JUMP JUMPDEST PUSH0 DUP1 PUSH0 PUSH1 0x60 DUP5 DUP7 SUB SLT ISZERO PUSH2 0x1EF5 JUMPI PUSH0 DUP1 REVERT JUMPDEST DUP4 CALLDATALOAD PUSH1 0x1 PUSH1 0x1 PUSH1 0x40 SHL SUB DUP2 GT ISZERO PUSH2 0x1F0A JUMPI PUSH0 DUP1 REVERT JUMPDEST PUSH2 0x1F16 DUP7 DUP3 DUP8 ADD PUSH2 0x1B58 JUMP JUMPDEST SWAP4 POP POP PUSH1 0x20 DUP5 ADD CALLDATALOAD SWAP2 POP PUSH2 0x1F2C PUSH1 0x40 DUP6 ADD PUSH2 0x1AB3 JUMP JUMPDEST SWAP1 POP SWAP3 POP SWAP3 POP SWAP3 JUMP JUMPDEST PUSH1 0x1 PUSH1 0x1 PUSH1 0xA0 SHL SUB DUP5 AND DUP2 MSTORE PUSH1 0x60 PUSH1 0x20 DUP3 ADD DUP2 SWAP1 MSTORE PUSH0 SWAP1 PUSH2 0x1F58 SWAP1 DUP4 ADD DUP6 PUSH2 0x1DDE JUMP JUMPDEST SWAP1 POP DUP3 PUSH1 0x40 DUP4 ADD MSTORE SWAP5 SWAP4 POP POP POP POP JUMP JUMPDEST PUSH1 0x20 DUP1 DUP3 MSTORE PUSH1 0x11 SWAP1 DUP3 ADD MSTORE PUSH17 0x2737BA10309031B7B73A3934B13ABA37B9 PUSH1 0x79 SHL PUSH1 0x40 DUP3 ADD MSTORE PUSH1 0x60 ADD SWAP1 JUMP JUMPDEST PUSH4 0x4E487B71 PUSH1 0xE0 SHL PUSH0 MSTORE PUSH1 0x32 PUSH1 0x4 MSTORE PUSH1 0x24 PUSH0 REVERT JUMPDEST PUSH4 0x4E487B71 PUSH1 0xE0 SHL PUSH0 MSTORE PUSH1 0x11 PUSH1 0x4 MSTORE PUSH1 0x24 PUSH0 REVERT JUMPDEST PUSH0 PUSH1 0x1 DUP3 ADD PUSH2 0x1FCC JUMPI PUSH2 0x1FCC PUSH2 0x1FA7 JUMP JUMPDEST POP PUSH1 0x1 ADD SWAP1 JUMP JUMPDEST SWAP2 DUP3 MSTORE PUSH1 0x20 DUP3 ADD MSTORE PUSH1 0x40 ADD SWAP1 JUMP JUMPDEST PUSH0 DUP3 PUSH2 0x1FFB JUMPI PUSH4 0x4E487B71 PUSH1 0xE0 SHL PUSH0 MSTORE PUSH1 0x12 PUSH1 0x4 MSTORE PUSH1 0x24 PUSH0 REVERT JUMPDEST POP DIV SWAP1 JUMP JUMPDEST DUP1 DUP3 ADD DUP1 DUP3 GT ISZERO PUSH2 0x2013 JUMPI PUSH2 0x2013 PUSH2 0x1FA7 JUMP JUMPDEST SWAP3 SWAP2 POP POP JUMP JUMPDEST PUSH1 0x20 DUP1 DUP3 MSTORE PUSH1 0x14 SWAP1 DUP3 ADD MSTORE PUSH20 0x141C9BDA9958DD081B9BDD08185C1C1C9BDD9959 PUSH1 0x62 SHL PUSH1 0x40 DUP3 ADD MSTORE PUSH1 0x60 ADD SWAP1 JUMP JUMPDEST PUSH1 0x1 PUSH1 0x1 PUSH1 0xA0 SHL SUB DUP4 AND DUP2 MSTORE PUSH1 0x40 PUSH1 0x20 DUP3 ADD DUP2 SWAP1 MSTORE PUSH0 SWAP1 PUSH2 0x1BDB SWAP1 DUP4 ADD DUP5 PUSH2 0x1DDE JUMP JUMPDEST PUSH1 0x1 PUSH1 0x1 PUSH1 0xA0 SHL SUB SWAP3 SWAP1 SWAP3 AND DUP3 MSTORE PUSH1 0x20 DUP3 ADD MSTORE PUSH1 0x40 ADD SWAP1 JUMP JUMPDEST PUSH0 PUSH1 0x20 DUP3 DUP5 SUB SLT ISZERO PUSH2 0x2093 JUMPI PUSH0 DUP1 REVERT JUMPDEST POP MLOAD SWAP2 SWAP1 POP JUMP JUMPDEST DUP4 DUP2 MSTORE PUSH1 0x60 PUSH1 0x20 DUP3 ADD MSTORE PUSH0 PUSH2 0x1F58 PUSH1 0x60 DUP4 ADD DUP6 PUSH2 0x1DDE JUMP JUMPDEST PUSH1 0x1 DUP2 DUP2 SHR SWAP1 DUP3 AND DUP1 PUSH2 0x20C6 JUMPI PUSH1 0x7F DUP3 AND SWAP2 POP JUMPDEST PUSH1 0x20 DUP3 LT DUP2 SUB PUSH2 0x20E4 JUMPI PUSH4 0x4E487B71 PUSH1 0xE0 SHL PUSH0 MSTORE PUSH1 0x22 PUSH1 0x4 MSTORE PUSH1 0x24 PUSH0 REVERT JUMPDEST POP SWAP2 SWAP1 POP JUMP JUMPDEST PUSH1 0x20 DUP1 DUP3 MSTORE PUSH1 0x19 SWAP1 DUP3 ADD MSTORE PUSH25 0x141C9BDA9958DD08185B1C9958591E4818D85B98D95B1B1959 PUSH1 0x3A SHL PUSH1 0x40 DUP3 ADD MSTORE PUSH1 0x60 ADD SWAP1 JUMP JUMPDEST PUSH1 0x20 DUP1 DUP3 MSTORE PUSH1 0x18 SWAP1 DUP3 ADD MSTORE PUSH24 0x141C9BDA9958DD08185B1C9958591E48185C1C1C9BDD9959 PUSH1 0x42 SHL PUSH1 0x40 DUP3 ADD MSTORE PUSH1 0x60 ADD SWAP1 JUMP JUMPDEST PUSH0 PUSH1 0x20 DUP3 DUP5 SUB SLT ISZERO PUSH2 0x215F JUMPI PUSH0 DUP1 REVERT JUMPDEST DUP2 MLOAD PUSH1 0x1 PUSH1 0x1 PUSH1 0x40 SHL SUB DUP2 GT ISZERO PUSH2 0x2174 JUMPI PUSH0 DUP1 REVERT JUMPDEST DUP3 ADD PUSH1 0x1F DUP2 ADD DUP5 SGT PUSH2 0x2184 JUMPI PUSH0 DUP1 REVERT JUMPDEST DUP1 MLOAD PUSH2 0x2192 PUSH2 0x1B75 DUP3 PUSH2 0x1B32 JUMP JUMPDEST DUP2 DUP2 MSTORE DUP6 PUSH1 0x20 DUP4 DUP6 ADD ADD GT ISZERO PUSH2 0x21A6 JUMPI PUSH0 DUP1 REVERT JUMPDEST PUSH2 0x21B7 DUP3 PUSH1 0x20 DUP4 ADD PUSH1 0x20 DUP7 ADD PUSH2 0x1DBC JUMP JUMPDEST SWAP6 SWAP5 POP POP POP POP POP JUMP JUMPDEST DUP2 DUP2 SUB DUP2 DUP2 GT ISZERO PUSH2 0x2013 JUMPI PUSH2 0x2013 PUSH2 0x1FA7 JUMP JUMPDEST PUSH1 0x1F DUP3 GT ISZERO PUSH2 0x221A JUMPI DUP1 PUSH0 MSTORE PUSH1 0x20 PUSH0 KECCAK256 PUSH1 0x1F DUP5 ADD PUSH1 0x5 SHR DUP2 ADD PUSH1 0x20 DUP6 LT ISZERO PUSH2 0x21F8 JUMPI POP DUP1 JUMPDEST PUSH1 0x1F DUP5 ADD PUSH1 0x5 SHR DUP3 ADD SWAP2 POP JUMPDEST DUP2 DUP2 LT ISZERO PUSH2 0x2217 JUMPI PUSH0 DUP2 SSTORE PUSH1 0x1 ADD PUSH2 0x2204 JUMP JUMPDEST POP POP JUMPDEST POP POP POP JUMP JUMPDEST DUP2 MLOAD PUSH1 0x1 PUSH1 0x1 PUSH1 0x40 SHL SUB DUP2 GT ISZERO PUSH2 0x2238 JUMPI PUSH2 0x2238 PUSH2 0x1AEE JUMP JUMPDEST PUSH2 0x224C DUP2 PUSH2 0x2246 DUP5 SLOAD PUSH2 0x20B2 JUMP JUMPDEST DUP5 PUSH2 0x21D3 JUMP JUMPDEST PUSH1 0x20 DUP1 PUSH1 0x1F DUP4 GT PUSH1 0x1 DUP2 EQ PUSH2 0x227F JUMPI PUSH0 DUP5 ISZERO PUSH2 0x2268 JUMPI POP DUP6 DUP4 ADD MLOAD JUMPDEST PUSH0 NOT PUSH1 0x3 DUP7 SWAP1 SHL SHR NOT AND PUSH1 0x1 DUP6 SWAP1 SHL OR DUP6 SSTORE PUSH2 0x22D6 JUMP JUMPDEST PUSH0 DUP6 DUP2 MSTORE PUSH1 0x20 DUP2 KECCAK256 PUSH1 0x1F NOT DUP7 AND SWAP2 JUMPDEST DUP3 DUP2 LT ISZERO PUSH2 0x22AD JUMPI DUP9 DUP7 ADD MLOAD DUP3 SSTORE SWAP5 DUP5 ADD SWAP5 PUSH1 0x1 SWAP1 SWAP2 ADD SWAP1 DUP5 ADD PUSH2 0x228E JUMP JUMPDEST POP DUP6 DUP3 LT ISZERO PUSH2 0x22CA JUMPI DUP8 DUP6 ADD MLOAD PUSH0 NOT PUSH1 0x3 DUP9 SWAP1 SHL PUSH1 0xF8 AND SHR NOT AND DUP2 SSTORE JUMPDEST POP POP PUSH1 0x1 DUP5 PUSH1 0x1 SHL ADD DUP6 SSTORE JUMPDEST POP POP POP POP POP POP JUMP INVALID LOG2 PUSH5 0x6970667358 0x22 SLT KECCAK256 0x24 POP PUSH14 0xEB60595828B5374C88E40B53ED0 PUSH15 0x6AA7C87AFF8448BB1B127A4657F764 PUSH20 0x6F6C634300081800336080604052348015620000 LT JUMPI PUSH0 DUP1 REVERT JUMPDEST POP PUSH1 0x40 MLOAD PUSH3 0x1AEE CODESIZE SUB DUP1 PUSH3 0x1AEE DUP4 CODECOPY DUP2 ADD PUSH1 0x40 DUP2 SWAP1 MSTORE PUSH3 0x33 SWAP2 PUSH3 0x1AA JUMP JUMPDEST DUP3 DUP3 DUP3 PUSH0 PUSH3 0x43 DUP4 DUP3 PUSH3 0x2B8 JUMP JUMPDEST POP PUSH1 0x1 PUSH3 0x52 DUP3 DUP3 PUSH3 0x2B8 JUMP JUMPDEST POP POP POP PUSH1 0x1 PUSH1 0x1 PUSH1 0xA0 SHL SUB DUP2 AND PUSH3 0x83 JUMPI PUSH1 0x40 MLOAD PUSH4 0x1E4FBDF7 PUSH1 0xE0 SHL DUP2 MSTORE PUSH0 PUSH1 0x4 DUP3 ADD MSTORE PUSH1 0x24 ADD PUSH1 0x40 MLOAD DUP1 SWAP2 SUB SWAP1 REVERT JUMPDEST PUSH3 0x8E DUP2 PUSH3 0x98 JUMP JUMPDEST POP POP POP POP PUSH3 0x384 JUMP JUMPDEST PUSH1 0xB DUP1 SLOAD PUSH1 0x1 PUSH1 0x1 PUSH1 0xA0 SHL SUB DUP4 DUP2 AND PUSH1 0x1 PUSH1 0x1 PUSH1 0xA0 SHL SUB NOT DUP4 AND DUP2 OR SWAP1 SWAP4 SSTORE PUSH1 0x40 MLOAD SWAP2 AND SWAP2 SWAP1 DUP3 SWAP1 PUSH32 0x8BE0079C531659141344CD1FD0A4F28419497F9722A3DAAFE3B4186F6B6457E0 SWAP1 PUSH0 SWAP1 LOG3 POP POP JUMP JUMPDEST PUSH4 0x4E487B71 PUSH1 0xE0 SHL PUSH0 MSTORE PUSH1 0x41 PUSH1 0x4 MSTORE PUSH1 0x24 PUSH0 REVERT JUMPDEST PUSH0 DUP3 PUSH1 0x1F DUP4 ADD SLT PUSH3 0x10D JUMPI PUSH0 DUP1 REVERT JUMPDEST DUP2 MLOAD PUSH1 0x1 PUSH1 0x1 PUSH1 0x40 SHL SUB DUP1 DUP3 GT ISZERO PUSH3 0x12A JUMPI PUSH3 0x12A PUSH3 0xE9 JUMP JUMPDEST PUSH1 0x40 MLOAD PUSH1 0x1F DUP4 ADD PUSH1 0x1F NOT SWAP1 DUP2 AND PUSH1 0x3F ADD AND DUP2 ADD SWAP1 DUP3 DUP3 GT DUP2 DUP4 LT OR ISZERO PUSH3 0x155 JUMPI PUSH3 0x155 PUSH3 0xE9 JUMP JUMPDEST DUP2 PUSH1 0x40 MSTORE DUP4 DUP2 MSTORE PUSH1 0x20 SWAP3 POP DUP7 PUSH1 0x20 DUP6 DUP9 ADD ADD GT ISZERO PUSH3 0x172 JUMPI PUSH0 DUP1 REVERT JUMPDEST PUSH0 SWAP2 POP JUMPDEST DUP4 DUP3 LT ISZERO PUSH3 0x195 JUMPI DUP6 DUP3 ADD DUP4 ADD MLOAD DUP2 DUP4 ADD DUP5 ADD MSTORE SWAP1 DUP3 ADD SWAP1 PUSH3 0x176 JUMP JUMPDEST PUSH0 PUSH1 0x20 DUP6 DUP4 ADD ADD MSTORE DUP1 SWAP5 POP POP POP POP POP SWAP3 SWAP2 POP POP JUMP JUMPDEST PUSH0 DUP1 PUSH0 PUSH1 0x60 DUP5 DUP7 SUB SLT ISZERO PUSH3 0x1BD JUMPI PUSH0 DUP1 REVERT JUMPDEST DUP4 MLOAD PUSH1 0x1 PUSH1 0x1 PUSH1 0xA0 SHL SUB DUP2 AND DUP2 EQ PUSH3 0x1D4 JUMPI PUSH0 DUP1 REVERT JUMPDEST PUSH1 0x20 DUP6 ADD MLOAD SWAP1 SWAP4 POP PUSH1 0x1 PUSH1 0x1 PUSH1 0x40 SHL SUB DUP1 DUP3 GT ISZERO PUSH3 0x1F1 JUMPI PUSH0 DUP1 REVERT JUMPDEST PUSH3 0x1FF DUP8 DUP4 DUP9 ADD PUSH3 0xFD JUMP JUMPDEST SWAP4 POP PUSH1 0x40 DUP7 ADD MLOAD SWAP2 POP DUP1 DUP3 GT ISZERO PUSH3 0x215 JUMPI PUSH0 DUP1 REVERT JUMPDEST POP PUSH3 0x224 DUP7 DUP3 DUP8 ADD PUSH3 0xFD JUMP JUMPDEST SWAP2 POP POP SWAP3 POP SWAP3 POP SWAP3 JUMP JUMPDEST PUSH1 0x1 DUP2 DUP2 SHR SWAP1 DUP3 AND DUP1 PUSH3 0x243 JUMPI PUSH1 0x7F DUP3 AND SWAP2 POP JUMPDEST PUSH1 0x20 DUP3 LT DUP2 SUB PUSH3 0x262 JUMPI PUSH4 0x4E487B71 PUSH1 0xE0 SHL PUSH0 MSTORE PUSH1 0x22 PUSH1 0x4 MSTORE PUSH1 0x24 PUSH0 REVERT JUMPDEST POP SWAP2 SWAP1 POP JUMP JUMPDEST PUSH1 0x1F DUP3 GT ISZERO PUSH3 0x2B3 JUMPI DUP1 PUSH0 MSTORE PUSH1 0x20 PUSH0 KECCAK256 PUSH1 0x1F DUP5 ADD PUSH1 0x5 SHR DUP2 ADD PUSH1 0x20 DUP6 LT ISZERO PUSH3 0x28F JUMPI POP DUP1 JUMPDEST PUSH1 0x1F DUP5 ADD PUSH1 0x5 SHR DUP3 ADD SWAP2 POP JUMPDEST DUP2 DUP2 LT ISZERO PUSH3 0x2B0 JUMPI PUSH0 DUP2 SSTORE PUSH1 0x1 ADD PUSH3 0x29B JUMP JUMPDEST POP POP JUMPDEST POP POP POP JUMP JUMPDEST DUP2 MLOAD PUSH1 0x1 PUSH1 0x1 PUSH1 0x40 SHL SUB DUP2 GT ISZERO PUSH3 0x2D4 JUMPI PUSH3 0x2D4 PUSH3 0xE9 JUMP JUMPDEST PUSH3 0x2EC DUP2 PUSH3 0x2E5 DUP5 SLOAD PUSH3 0x22E JUMP JUMPDEST DUP5 PUSH3 0x268 JUMP JUMPDEST PUSH1 0x20 DUP1 PUSH1 0x1F DUP4 GT PUSH1 0x1 DUP2 EQ PUSH3 0x322 JUMPI PUSH0 DUP5 ISZERO PUSH3 0x30A JUMPI POP DUP6 DUP4 ADD MLOAD JUMPDEST PUSH0 NOT PUSH1 0x3 DUP7 SWAP1 SHL SHR NOT AND PUSH1 0x1 DUP6 SWAP1 SHL OR DUP6 SSTORE PUSH3 0x37C JUMP JUMPDEST PUSH0 DUP6 DUP2 MSTORE PUSH1 0x20 DUP2 KECCAK256 PUSH1 0x1F NOT DUP7 AND SWAP2 JUMPDEST DUP3 DUP2 LT ISZERO PUSH3 0x352 JUMPI DUP9 DUP7 ADD MLOAD DUP3 SSTORE SWAP5 DUP5 ADD SWAP5 PUSH1 0x1 SWAP1 SWAP2 ADD SWAP1 DUP5 ADD PUSH3 0x331 JUMP JUMPDEST POP DUP6 DUP3 LT ISZERO PUSH3 0x370 JUMPI DUP8 DUP6 ADD MLOAD PUSH0 NOT PUSH1 0x3 DUP9 SWAP1 SHL PUSH1 0xF8 AND SHR NOT AND DUP2 SSTORE JUMPDEST POP POP PUSH1 0x1 DUP5 PUSH1 0x1 SHL ADD DUP6 SSTORE JUMPDEST POP POP POP POP POP POP JUMP JUMPDEST PUSH2 0x175C DUP1 PUSH3 0x392 PUSH0 CODECOPY PUSH0 RETURN INVALID PUSH1 0x80 PUSH1 0x40 MSTORE CALLVALUE DUP1 ISZERO PUSH2 0xF JUMPI PUSH0 DUP1 REVERT JUMPDEST POP PUSH1 0x4 CALLDATASIZE LT PUSH2 0xFA JUMPI PUSH0 CALLDATALOAD PUSH1 0xE0 SHR DUP1 PUSH4 0x1FFC9A7 EQ PUSH2 0xFE JUMPI DUP1 PUSH4 0x6FDDE03 EQ PUSH2 0x126 JUMPI DUP1 PUSH4 0x81812FC EQ PUSH2 0x13B JUMPI DUP1 PUSH4 0x95EA7B3 EQ PUSH2 0x15B JUMPI DUP1 PUSH4 0x18160DDD EQ PUSH2 0x170 JUMPI DUP1 PUSH4 0x23B872DD EQ PUSH2 0x182 JUMPI DUP1 PUSH4 0x2F745C59 EQ PUSH2 0x195 JUMPI DUP1 PUSH4 0x42842E0E EQ PUSH2 0x1A8 JUMPI DUP1 PUSH4 0x4F6CCCE7 EQ PUSH2 0x1BB JUMPI DUP1 PUSH4 0x6352211E EQ PUSH2 0x1CE JUMPI DUP1 PUSH4 0x70A08231 EQ PUSH2 0x1E1 JUMPI DUP1 PUSH4 0x715018A6 EQ PUSH2 0x1F4 JUMPI DUP1 PUSH4 0x8DA5CB5B EQ PUSH2 0x1FC JUMPI DUP1 PUSH4 0x95D89B41 EQ PUSH2 0x204 JUMPI DUP1 PUSH4 0xA22CB465 EQ PUSH2 0x20C JUMPI DUP1 PUSH4 0xB88D4FDE EQ PUSH2 0x21F JUMPI DUP1 PUSH4 0xC87B56DD EQ PUSH2 0x232 JUMPI DUP1 PUSH4 0xD204C45E EQ PUSH2 0x245 JUMPI DUP1 PUSH4 0xE985E9C5 EQ PUSH2 0x258 JUMPI DUP1 PUSH4 0xF2FDE38B EQ PUSH2 0x26B JUMPI JUMPDEST PUSH0 DUP1 REVERT JUMPDEST PUSH2 0x111 PUSH2 0x10C CALLDATASIZE PUSH1 0x4 PUSH2 0x11E9 JUMP JUMPDEST PUSH2 0x27E JUMP JUMPDEST PUSH1 0x40 MLOAD SWAP1 ISZERO ISZERO DUP2 MSTORE PUSH1 0x20 ADD JUMPDEST PUSH1 0x40 MLOAD DUP1 SWAP2 SUB SWAP1 RETURN JUMPDEST PUSH2 0x12E PUSH2 0x28E JUMP JUMPDEST PUSH1 0x40 MLOAD PUSH2 0x11D SWAP2 SWAP1 PUSH2 0x1251 JUMP JUMPDEST PUSH2 0x14E PUSH2 0x149 CALLDATASIZE PUSH1 0x4 PUSH2 0x1263 JUMP JUMPDEST PUSH2 0x31D JUMP JUMPDEST PUSH1 0x40 MLOAD PUSH2 0x11D SWAP2 SWAP1 PUSH2 0x127A JUMP JUMPDEST PUSH2 0x16E PUSH2 0x169 CALLDATASIZE PUSH1 0x4 PUSH2 0x12A9 JUMP JUMPDEST PUSH2 0x331 JUMP JUMPDEST STOP JUMPDEST PUSH1 0x8 SLOAD JUMPDEST PUSH1 0x40 MLOAD SWAP1 DUP2 MSTORE PUSH1 0x20 ADD PUSH2 0x11D JUMP JUMPDEST PUSH2 0x16E PUSH2 0x190 CALLDATASIZE PUSH1 0x4 PUSH2 0x12D1 JUMP JUMPDEST PUSH2 0x340 JUMP JUMPDEST PUSH2 0x174 PUSH2 0x1A3 CALLDATASIZE PUSH1 0x4 PUSH2 0x12A9 JUMP JUMPDEST PUSH2 0x3D2 JUMP JUMPDEST PUSH2 0x16E PUSH2 0x1B6 CALLDATASIZE PUSH1 0x4 PUSH2 0x12D1 JUMP JUMPDEST PUSH2 0x427 JUMP JUMPDEST PUSH2 0x174 PUSH2 0x1C9 CALLDATASIZE PUSH1 0x4 PUSH2 0x1263 JUMP JUMPDEST PUSH2 0x446 JUMP JUMPDEST PUSH2 0x14E PUSH2 0x1DC CALLDATASIZE PUSH1 0x4 PUSH2 0x1263 JUMP JUMPDEST PUSH2 0x496 JUMP JUMPDEST PUSH2 0x174 PUSH2 0x1EF CALLDATASIZE PUSH1 0x4 PUSH2 0x130A JUMP JUMPDEST PUSH2 0x4A0 JUMP JUMPDEST PUSH2 0x16E PUSH2 0x4E5 JUMP JUMPDEST PUSH2 0x14E PUSH2 0x4F8 JUMP JUMPDEST PUSH2 0x12E PUSH2 0x507 JUMP JUMPDEST PUSH2 0x16E PUSH2 0x21A CALLDATASIZE PUSH1 0x4 PUSH2 0x1323 JUMP JUMPDEST PUSH2 0x516 JUMP JUMPDEST PUSH2 0x16E PUSH2 0x22D CALLDATASIZE PUSH1 0x4 PUSH2 0x13E2 JUMP JUMPDEST PUSH2 0x521 JUMP JUMPDEST PUSH2 0x12E PUSH2 0x240 CALLDATASIZE PUSH1 0x4 PUSH2 0x1263 JUMP JUMPDEST PUSH2 0x538 JUMP JUMPDEST PUSH2 0x16E PUSH2 0x253 CALLDATASIZE PUSH1 0x4 PUSH2 0x1458 JUMP JUMPDEST PUSH2 0x543 JUMP JUMPDEST PUSH2 0x111 PUSH2 0x266 CALLDATASIZE PUSH1 0x4 PUSH2 0x14B5 JUMP JUMPDEST PUSH2 0x575 JUMP JUMPDEST PUSH2 0x16E PUSH2 0x279 CALLDATASIZE PUSH1 0x4 PUSH2 0x130A JUMP JUMPDEST PUSH2 0x5A2 JUMP JUMPDEST PUSH0 PUSH2 0x288 DUP3 PUSH2 0x5DF JUMP JUMPDEST SWAP3 SWAP2 POP POP JUMP JUMPDEST PUSH1 0x60 PUSH0 DUP1 SLOAD PUSH2 0x29C SWAP1 PUSH2 0x14E6 JUMP JUMPDEST DUP1 PUSH1 0x1F ADD PUSH1 0x20 DUP1 SWAP2 DIV MUL PUSH1 0x20 ADD PUSH1 0x40 MLOAD SWAP1 DUP2 ADD PUSH1 0x40 MSTORE DUP1 SWAP3 SWAP2 SWAP1 DUP2 DUP2 MSTORE PUSH1 0x20 ADD DUP3 DUP1 SLOAD PUSH2 0x2C8 SWAP1 PUSH2 0x14E6 JUMP JUMPDEST DUP1 ISZERO PUSH2 0x313 JUMPI DUP1 PUSH1 0x1F LT PUSH2 0x2EA JUMPI PUSH2 0x100 DUP1 DUP4 SLOAD DIV MUL DUP4 MSTORE SWAP2 PUSH1 0x20 ADD SWAP2 PUSH2 0x313 JUMP JUMPDEST DUP3 ADD SWAP2 SWAP1 PUSH0 MSTORE PUSH1 0x20 PUSH0 KECCAK256 SWAP1 JUMPDEST DUP2 SLOAD DUP2 MSTORE SWAP1 PUSH1 0x1 ADD SWAP1 PUSH1 0x20 ADD DUP1 DUP4 GT PUSH2 0x2F6 JUMPI DUP3 SWAP1 SUB PUSH1 0x1F AND DUP3 ADD SWAP2 JUMPDEST POP POP POP POP POP SWAP1 POP SWAP1 JUMP JUMPDEST PUSH0 PUSH2 0x327 DUP3 PUSH2 0x603 JUMP JUMPDEST POP PUSH2 0x288 DUP3 PUSH2 0x63A JUMP JUMPDEST PUSH2 0x33C DUP3 DUP3 CALLER PUSH2 0x654 JUMP JUMPDEST POP POP JUMP JUMPDEST PUSH1 0x1 PUSH1 0x1 PUSH1 0xA0 SHL SUB DUP3 AND PUSH2 0x372 JUMPI PUSH0 PUSH1 0x40 MLOAD PUSH4 0x32505749 PUSH1 0xE1 SHL DUP2 MSTORE PUSH1 0x4 ADD PUSH2 0x369 SWAP2 SWAP1 PUSH2 0x127A JUMP JUMPDEST PUSH1 0x40 MLOAD DUP1 SWAP2 SUB SWAP1 REVERT JUMPDEST PUSH0 PUSH2 0x37E DUP4 DUP4 CALLER PUSH2 0x661 JUMP JUMPDEST SWAP1 POP DUP4 PUSH1 0x1 PUSH1 0x1 PUSH1 0xA0 SHL SUB AND DUP2 PUSH1 0x1 PUSH1 0x1 PUSH1 0xA0 SHL SUB AND EQ PUSH2 0x3CC JUMPI PUSH1 0x40 MLOAD PUSH4 0x64283D7B PUSH1 0xE0 SHL DUP2 MSTORE PUSH1 0x1 PUSH1 0x1 PUSH1 0xA0 SHL SUB DUP1 DUP7 AND PUSH1 0x4 DUP4 ADD MSTORE PUSH1 0x24 DUP3 ADD DUP5 SWAP1 MSTORE DUP3 AND PUSH1 0x44 DUP3 ADD MSTORE PUSH1 0x64 ADD PUSH2 0x369 JUMP JUMPDEST POP POP POP POP JUMP JUMPDEST PUSH0 PUSH2 0x3DC DUP4 PUSH2 0x4A0 JUMP JUMPDEST DUP3 LT PUSH2 0x3FF JUMPI DUP3 DUP3 PUSH1 0x40 MLOAD PUSH4 0x295F44F7 PUSH1 0xE2 SHL DUP2 MSTORE PUSH1 0x4 ADD PUSH2 0x369 SWAP3 SWAP2 SWAP1 PUSH2 0x151E JUMP JUMPDEST POP PUSH1 0x1 PUSH1 0x1 PUSH1 0xA0 SHL SUB SWAP2 SWAP1 SWAP2 AND PUSH0 SWAP1 DUP2 MSTORE PUSH1 0x6 PUSH1 0x20 SWAP1 DUP2 MSTORE PUSH1 0x40 DUP1 DUP4 KECCAK256 SWAP4 DUP4 MSTORE SWAP3 SWAP1 MSTORE KECCAK256 SLOAD SWAP1 JUMP JUMPDEST PUSH2 0x441 DUP4 DUP4 DUP4 PUSH1 0x40 MLOAD DUP1 PUSH1 0x20 ADD PUSH1 0x40 MSTORE DUP1 PUSH0 DUP2 MSTORE POP PUSH2 0x521 JUMP JUMPDEST POP POP POP JUMP JUMPDEST PUSH0 PUSH2 0x450 PUSH1 0x8 SLOAD SWAP1 JUMP JUMPDEST DUP3 LT PUSH2 0x473 JUMPI PUSH0 DUP3 PUSH1 0x40 MLOAD PUSH4 0x295F44F7 PUSH1 0xE2 SHL DUP2 MSTORE PUSH1 0x4 ADD PUSH2 0x369 SWAP3 SWAP2 SWAP1 PUSH2 0x151E JUMP JUMPDEST PUSH1 0x8 DUP3 DUP2 SLOAD DUP2 LT PUSH2 0x486 JUMPI PUSH2 0x486 PUSH2 0x1537 JUMP JUMPDEST SWAP1 PUSH0 MSTORE PUSH1 0x20 PUSH0 KECCAK256 ADD SLOAD SWAP1 POP SWAP2 SWAP1 POP JUMP JUMPDEST PUSH0 PUSH2 0x288 DUP3 PUSH2 0x603 JUMP JUMPDEST PUSH0 PUSH1 0x1 PUSH1 0x1 PUSH1 0xA0 SHL SUB DUP3 AND PUSH2 0x4CA JUMPI PUSH0 PUSH1 0x40 MLOAD PUSH4 0x22718AD9 PUSH1 0xE2 SHL DUP2 MSTORE PUSH1 0x4 ADD PUSH2 0x369 SWAP2 SWAP1 PUSH2 0x127A JUMP JUMPDEST POP PUSH1 0x1 PUSH1 0x1 PUSH1 0xA0 SHL SUB AND PUSH0 SWAP1 DUP2 MSTORE PUSH1 0x3 PUSH1 0x20 MSTORE PUSH1 0x40 SWAP1 KECCAK256 SLOAD SWAP1 JUMP JUMPDEST PUSH2 0x4ED PUSH2 0x675 JUMP JUMPDEST PUSH2 0x4F6 PUSH0 PUSH2 0x6A7 JUMP JUMPDEST JUMP JUMPDEST PUSH1 0xB SLOAD PUSH1 0x1 PUSH1 0x1 PUSH1 0xA0 SHL SUB AND SWAP1 JUMP JUMPDEST PUSH1 0x60 PUSH1 0x1 DUP1 SLOAD PUSH2 0x29C SWAP1 PUSH2 0x14E6 JUMP JUMPDEST PUSH2 0x33C CALLER DUP4 DUP4 PUSH2 0x6F8 JUMP JUMPDEST PUSH2 0x52C DUP5 DUP5 DUP5 PUSH2 0x340 JUMP JUMPDEST PUSH2 0x3CC DUP5 DUP5 DUP5 DUP5 PUSH2 0x78D JUMP JUMPDEST PUSH1 0x60 PUSH2 0x288 DUP3 PUSH2 0x8A1 JUMP JUMPDEST PUSH2 0x54B PUSH2 0x675 JUMP JUMPDEST PUSH1 0xC DUP1 SLOAD PUSH0 SWAP2 DUP3 PUSH2 0x55B DUP4 PUSH2 0x155F JUMP JUMPDEST SWAP2 SWAP1 POP SSTORE SWAP1 POP PUSH2 0x56B DUP4 DUP3 PUSH2 0x9A4 JUMP JUMPDEST PUSH2 0x441 DUP2 DUP4 PUSH2 0x9BD JUMP JUMPDEST PUSH1 0x1 PUSH1 0x1 PUSH1 0xA0 SHL SUB SWAP2 DUP3 AND PUSH0 SWAP1 DUP2 MSTORE PUSH1 0x5 PUSH1 0x20 SWAP1 DUP2 MSTORE PUSH1 0x40 DUP1 DUP4 KECCAK256 SWAP4 SWAP1 SWAP5 AND DUP3 MSTORE SWAP2 SWAP1 SWAP2 MSTORE KECCAK256 SLOAD PUSH1 0xFF AND SWAP1 JUMP JUMPDEST PUSH2 0x5AA PUSH2 0x675 JUMP JUMPDEST PUSH1 0x1 PUSH1 0x1 PUSH1 0xA0 SHL SUB DUP2 AND PUSH2 0x5D3 JUMPI PUSH0 PUSH1 0x40 MLOAD PUSH4 0x1E4FBDF7 PUSH1 0xE0 SHL DUP2 MSTORE PUSH1 0x4 ADD PUSH2 0x369 SWAP2 SWAP1 PUSH2 0x127A JUMP JUMPDEST PUSH2 0x5DC DUP2 PUSH2 0x6A7 JUMP JUMPDEST POP JUMP JUMPDEST PUSH0 PUSH1 0x1 PUSH1 0x1 PUSH1 0xE0 SHL SUB NOT DUP3 AND PUSH4 0x24832483 PUSH1 0xE1 SHL EQ DUP1 PUSH2 0x288 JUMPI POP PUSH2 0x288 DUP3 PUSH2 0xA0C JUMP JUMPDEST PUSH0 DUP1 PUSH2 0x60E DUP4 PUSH2 0xA30 JUMP JUMPDEST SWAP1 POP PUSH1 0x1 PUSH1 0x1 PUSH1 0xA0 SHL SUB DUP2 AND PUSH2 0x288 JUMPI PUSH1 0x40 MLOAD PUSH4 0x7E273289 PUSH1 0xE0 SHL DUP2 MSTORE PUSH1 0x4 DUP2 ADD DUP5 SWAP1 MSTORE PUSH1 0x24 ADD PUSH2 0x369 JUMP JUMPDEST PUSH0 SWAP1 DUP2 MSTORE PUSH1 0x4 PUSH1 0x20 MSTORE PUSH1 0x40 SWAP1 KECCAK256 SLOAD PUSH1 0x1 PUSH1 0x1 PUSH1 0xA0 SHL SUB AND SWAP1 JUMP JUMPDEST PUSH2 0x441 DUP4 DUP4 DUP4 PUSH1 0x1 PUSH2 0xA4A JUMP JUMPDEST PUSH0 PUSH2 0x66D DUP5 DUP5 DUP5 PUSH2 0xB45 JUMP JUMPDEST SWAP5 SWAP4 POP POP POP POP JUMP JUMPDEST CALLER PUSH2 0x67E PUSH2 0x4F8 JUMP JUMPDEST PUSH1 0x1 PUSH1 0x1 PUSH1 0xA0 SHL SUB AND EQ PUSH2 0x4F6 JUMPI CALLER PUSH1 0x40 MLOAD PUSH4 0x118CDAA7 PUSH1 0xE0 SHL DUP2 MSTORE PUSH1 0x4 ADD PUSH2 0x369 SWAP2 SWAP1 PUSH2 0x127A JUMP JUMPDEST PUSH1 0xB DUP1 SLOAD PUSH1 0x1 PUSH1 0x1 PUSH1 0xA0 SHL SUB DUP4 DUP2 AND PUSH1 0x1 PUSH1 0x1 PUSH1 0xA0 SHL SUB NOT DUP4 AND DUP2 OR SWAP1 SWAP4 SSTORE PUSH1 0x40 MLOAD SWAP2 AND SWAP2 SWAP1 DUP3 SWAP1 PUSH32 0x8BE0079C531659141344CD1FD0A4F28419497F9722A3DAAFE3B4186F6B6457E0 SWAP1 PUSH0 SWAP1 LOG3 POP POP JUMP JUMPDEST PUSH1 0x1 PUSH1 0x1 PUSH1 0xA0 SHL SUB DUP3 AND PUSH2 0x721 JUMPI DUP2 PUSH1 0x40 MLOAD PUSH4 0xB611743 PUSH1 0xE3 SHL DUP2 MSTORE PUSH1 0x4 ADD PUSH2 0x369 SWAP2 SWAP1 PUSH2 0x127A JUMP JUMPDEST PUSH1 0x1 PUSH1 0x1 PUSH1 0xA0 SHL SUB DUP4 DUP2 AND PUSH0 DUP2 DUP2 MSTORE PUSH1 0x5 PUSH1 0x20 SWAP1 DUP2 MSTORE PUSH1 0x40 DUP1 DUP4 KECCAK256 SWAP5 DUP8 AND DUP1 DUP5 MSTORE SWAP5 DUP3 MSTORE SWAP2 DUP3 SWAP1 KECCAK256 DUP1 SLOAD PUSH1 0xFF NOT AND DUP7 ISZERO ISZERO SWAP1 DUP2 OR SWAP1 SWAP2 SSTORE SWAP2 MLOAD SWAP2 DUP3 MSTORE PUSH32 0x17307EAB39AB6107E8899845AD3D59BD9653F200F220920489CA2B5937696C31 SWAP2 ADD PUSH1 0x40 MLOAD DUP1 SWAP2 SUB SWAP1 LOG3 POP POP POP JUMP JUMPDEST PUSH1 0x1 PUSH1 0x1 PUSH1 0xA0 SHL SUB DUP4 AND EXTCODESIZE ISZERO PUSH2 0x3CC JUMPI PUSH1 0x40 MLOAD PUSH4 0xA85BD01 PUSH1 0xE1 SHL DUP2 MSTORE PUSH1 0x1 PUSH1 0x1 PUSH1 0xA0 SHL SUB DUP5 AND SWAP1 PUSH4 0x150B7A02 SWAP1 PUSH2 0x7CF SWAP1 CALLER SWAP1 DUP9 SWAP1 DUP8 SWAP1 DUP8 SWAP1 PUSH1 0x4 ADD PUSH2 0x1577 JUMP JUMPDEST PUSH1 0x20 PUSH1 0x40 MLOAD DUP1 DUP4 SUB DUP2 PUSH0 DUP8 GAS CALL SWAP3 POP POP POP DUP1 ISZERO PUSH2 0x809 JUMPI POP PUSH1 0x40 DUP1 MLOAD PUSH1 0x1F RETURNDATASIZE SWAP1 DUP2 ADD PUSH1 0x1F NOT AND DUP3 ADD SWAP1 SWAP3 MSTORE PUSH2 0x806 SWAP2 DUP2 ADD SWAP1 PUSH2 0x15B3 JUMP JUMPDEST PUSH1 0x1 JUMPDEST PUSH2 0x867 JUMPI RETURNDATASIZE DUP1 DUP1 ISZERO PUSH2 0x836 JUMPI PUSH1 0x40 MLOAD SWAP2 POP PUSH1 0x1F NOT PUSH1 0x3F RETURNDATASIZE ADD AND DUP3 ADD PUSH1 0x40 MSTORE RETURNDATASIZE DUP3 MSTORE RETURNDATASIZE PUSH0 PUSH1 0x20 DUP5 ADD RETURNDATACOPY PUSH2 0x83B JUMP JUMPDEST PUSH1 0x60 SWAP2 POP JUMPDEST POP DUP1 MLOAD PUSH0 SUB PUSH2 0x85F JUMPI DUP4 PUSH1 0x40 MLOAD PUSH4 0x32505749 PUSH1 0xE1 SHL DUP2 MSTORE PUSH1 0x4 ADD PUSH2 0x369 SWAP2 SWAP1 PUSH2 0x127A JUMP JUMPDEST DUP1 MLOAD DUP2 PUSH1 0x20 ADD REVERT JUMPDEST PUSH1 0x1 PUSH1 0x1 PUSH1 0xE0 SHL SUB NOT DUP2 AND PUSH4 0xA85BD01 PUSH1 0xE1 SHL EQ PUSH2 0x89A JUMPI DUP4 PUSH1 0x40 MLOAD PUSH4 0x32505749 PUSH1 0xE1 SHL DUP2 MSTORE PUSH1 0x4 ADD PUSH2 0x369 SWAP2 SWAP1 PUSH2 0x127A JUMP JUMPDEST POP POP POP POP POP JUMP JUMPDEST PUSH1 0x60 PUSH2 0x8AC DUP3 PUSH2 0x603 JUMP JUMPDEST POP PUSH0 DUP3 DUP2 MSTORE PUSH1 0xA PUSH1 0x20 MSTORE PUSH1 0x40 DUP2 KECCAK256 DUP1 SLOAD PUSH2 0x8C5 SWAP1 PUSH2 0x14E6 JUMP JUMPDEST DUP1 PUSH1 0x1F ADD PUSH1 0x20 DUP1 SWAP2 DIV MUL PUSH1 0x20 ADD PUSH1 0x40 MLOAD SWAP1 DUP2 ADD PUSH1 0x40 MSTORE DUP1 SWAP3 SWAP2 SWAP1 DUP2 DUP2 MSTORE PUSH1 0x20 ADD DUP3 DUP1 SLOAD PUSH2 0x8F1 SWAP1 PUSH2 0x14E6 JUMP JUMPDEST DUP1 ISZERO PUSH2 0x93C JUMPI DUP1 PUSH1 0x1F LT PUSH2 0x913 JUMPI PUSH2 0x100 DUP1 DUP4 SLOAD DIV MUL DUP4 MSTORE SWAP2 PUSH1 0x20 ADD SWAP2 PUSH2 0x93C JUMP JUMPDEST DUP3 ADD SWAP2 SWAP1 PUSH0 MSTORE PUSH1 0x20 PUSH0 KECCAK256 SWAP1 JUMPDEST DUP2 SLOAD DUP2 MSTORE SWAP1 PUSH1 0x1 ADD SWAP1 PUSH1 0x20 ADD DUP1 DUP4 GT PUSH2 0x91F JUMPI DUP3 SWAP1 SUB PUSH1 0x1F AND DUP3 ADD SWAP2 JUMPDEST POP POP POP POP POP SWAP1 POP PUSH0 PUSH2 0x958 PUSH1 0x40 DUP1 MLOAD PUSH1 0x20 DUP2 ADD SWAP1 SWAP2 MSTORE PUSH0 DUP2 MSTORE SWAP1 JUMP JUMPDEST SWAP1 POP DUP1 MLOAD PUSH0 SUB PUSH2 0x969 JUMPI POP SWAP3 SWAP2 POP POP JUMP JUMPDEST DUP2 MLOAD ISZERO PUSH2 0x99B JUMPI DUP1 DUP3 PUSH1 0x40 MLOAD PUSH1 0x20 ADD PUSH2 0x983 SWAP3 SWAP2 SWAP1 PUSH2 0x15CE JUMP JUMPDEST PUSH1 0x40 MLOAD PUSH1 0x20 DUP2 DUP4 SUB SUB DUP2 MSTORE SWAP1 PUSH1 0x40 MSTORE SWAP3 POP POP POP SWAP2 SWAP1 POP JUMP JUMPDEST PUSH2 0x66D DUP5 PUSH2 0xC10 JUMP JUMPDEST PUSH2 0x33C DUP3 DUP3 PUSH1 0x40 MLOAD DUP1 PUSH1 0x20 ADD PUSH1 0x40 MSTORE DUP1 PUSH0 DUP2 MSTORE POP PUSH2 0xC81 JUMP JUMPDEST PUSH0 DUP3 DUP2 MSTORE PUSH1 0xA PUSH1 0x20 MSTORE PUSH1 0x40 SWAP1 KECCAK256 PUSH2 0x9D4 DUP3 DUP3 PUSH2 0x1640 JUMP JUMPDEST POP PUSH1 0x40 MLOAD DUP3 DUP2 MSTORE PUSH32 0xF8E1A15ABA9398E019F0B49DF1A4FDE98EE17AE345CB5F6B5E2C27F5033E8CE7 SWAP1 PUSH1 0x20 ADD PUSH1 0x40 MLOAD DUP1 SWAP2 SUB SWAP1 LOG1 POP POP JUMP JUMPDEST PUSH0 PUSH1 0x1 PUSH1 0x1 PUSH1 0xE0 SHL SUB NOT DUP3 AND PUSH4 0x780E9D63 PUSH1 0xE0 SHL EQ DUP1 PUSH2 0x288 JUMPI POP PUSH2 0x288 DUP3 PUSH2 0xC97 JUMP JUMPDEST PUSH0 SWAP1 DUP2 MSTORE PUSH1 0x2 PUSH1 0x20 MSTORE PUSH1 0x40 SWAP1 KECCAK256 SLOAD PUSH1 0x1 PUSH1 0x1 PUSH1 0xA0 SHL SUB AND SWAP1 JUMP JUMPDEST DUP1 DUP1 PUSH2 0xA5E JUMPI POP PUSH1 0x1 PUSH1 0x1 PUSH1 0xA0 SHL SUB DUP3 AND ISZERO ISZERO JUMPDEST ISZERO PUSH2 0xB16 JUMPI PUSH0 PUSH2 0xA6D DUP5 PUSH2 0x603 JUMP JUMPDEST SWAP1 POP PUSH1 0x1 PUSH1 0x1 PUSH1 0xA0 SHL SUB DUP4 AND ISZERO DUP1 ISZERO SWAP1 PUSH2 0xA99 JUMPI POP DUP3 PUSH1 0x1 PUSH1 0x1 PUSH1 0xA0 SHL SUB AND DUP2 PUSH1 0x1 PUSH1 0x1 PUSH1 0xA0 SHL SUB AND EQ ISZERO JUMPDEST DUP1 ISZERO PUSH2 0xAAC JUMPI POP PUSH2 0xAAA DUP2 DUP5 PUSH2 0x575 JUMP JUMPDEST ISZERO JUMPDEST ISZERO PUSH2 0xACC JUMPI DUP3 PUSH1 0x40 MLOAD PUSH4 0xA9FBF51F PUSH1 0xE0 SHL DUP2 MSTORE PUSH1 0x4 ADD PUSH2 0x369 SWAP2 SWAP1 PUSH2 0x127A JUMP JUMPDEST DUP2 ISZERO PUSH2 0xB14 JUMPI DUP4 DUP6 PUSH1 0x1 PUSH1 0x1 PUSH1 0xA0 SHL SUB AND DUP3 PUSH1 0x1 PUSH1 0x1 PUSH1 0xA0 SHL SUB AND PUSH32 0x8C5BE1E5EBEC7D5BD14F71427D1E84F3DD0314C0F7B2291E5B200AC8C7C3B925 PUSH1 0x40 MLOAD PUSH1 0x40 MLOAD DUP1 SWAP2 SUB SWAP1 LOG4 JUMPDEST POP JUMPDEST POP POP PUSH0 SWAP1 DUP2 MSTORE PUSH1 0x4 PUSH1 0x20 MSTORE PUSH1 0x40 SWAP1 KECCAK256 DUP1 SLOAD PUSH1 0x1 PUSH1 0x1 PUSH1 0xA0 SHL SUB NOT AND PUSH1 0x1 PUSH1 0x1 PUSH1 0xA0 SHL SUB SWAP3 SWAP1 SWAP3 AND SWAP2 SWAP1 SWAP2 OR SWAP1 SSTORE JUMP JUMPDEST PUSH0 DUP1 PUSH2 0xB52 DUP6 DUP6 DUP6 PUSH2 0xCE6 JUMP JUMPDEST SWAP1 POP PUSH1 0x1 PUSH1 0x1 PUSH1 0xA0 SHL SUB DUP2 AND PUSH2 0xBAE JUMPI PUSH2 0xBA9 DUP5 PUSH1 0x8 DUP1 SLOAD PUSH0 DUP4 DUP2 MSTORE PUSH1 0x9 PUSH1 0x20 MSTORE PUSH1 0x40 DUP2 KECCAK256 DUP3 SWAP1 SSTORE PUSH1 0x1 DUP3 ADD DUP4 SSTORE SWAP2 SWAP1 SWAP2 MSTORE PUSH32 0xF3F7A9FE364FAAB93B216DA50A3214154F22A0A2B415B23A84C8169E8B636EE3 ADD SSTORE JUMP JUMPDEST PUSH2 0xBD1 JUMP JUMPDEST DUP5 PUSH1 0x1 PUSH1 0x1 PUSH1 0xA0 SHL SUB AND DUP2 PUSH1 0x1 PUSH1 0x1 PUSH1 0xA0 SHL SUB AND EQ PUSH2 0xBD1 JUMPI PUSH2 0xBD1 DUP2 DUP6 PUSH2 0xDD3 JUMP JUMPDEST PUSH1 0x1 PUSH1 0x1 PUSH1 0xA0 SHL SUB DUP6 AND PUSH2 0xBED JUMPI PUSH2 0xBE8 DUP5 PUSH2 0xE60 JUMP JUMPDEST PUSH2 0x66D JUMP JUMPDEST DUP5 PUSH1 0x1 PUSH1 0x1 PUSH1 0xA0 SHL SUB AND DUP2 PUSH1 0x1 PUSH1 0x1 PUSH1 0xA0 SHL SUB AND EQ PUSH2 0x66D JUMPI PUSH2 0x66D DUP6 DUP6 PUSH2 0xF07 JUMP JUMPDEST PUSH1 0x60 PUSH2 0xC1B DUP3 PUSH2 0x603 JUMP JUMPDEST POP PUSH0 PUSH2 0xC31 PUSH1 0x40 DUP1 MLOAD PUSH1 0x20 DUP2 ADD SWAP1 SWAP2 MSTORE PUSH0 DUP2 MSTORE SWAP1 JUMP JUMPDEST SWAP1 POP PUSH0 DUP2 MLOAD GT PUSH2 0xC4F JUMPI PUSH1 0x40 MLOAD DUP1 PUSH1 0x20 ADD PUSH1 0x40 MSTORE DUP1 PUSH0 DUP2 MSTORE POP PUSH2 0xC7A JUMP JUMPDEST DUP1 PUSH2 0xC59 DUP5 PUSH2 0xF55 JUMP JUMPDEST PUSH1 0x40 MLOAD PUSH1 0x20 ADD PUSH2 0xC6A SWAP3 SWAP2 SWAP1 PUSH2 0x15CE JUMP JUMPDEST PUSH1 0x40 MLOAD PUSH1 0x20 DUP2 DUP4 SUB SUB DUP2 MSTORE SWAP1 PUSH1 0x40 MSTORE JUMPDEST SWAP4 SWAP3 POP POP POP JUMP JUMPDEST PUSH2 0xC8B DUP4 DUP4 PUSH2 0xFE4 JUMP JUMPDEST PUSH2 0x441 PUSH0 DUP5 DUP5 DUP5 PUSH2 0x78D JUMP JUMPDEST PUSH0 PUSH1 0x1 PUSH1 0x1 PUSH1 0xE0 SHL SUB NOT DUP3 AND PUSH4 0x80AC58CD PUSH1 0xE0 SHL EQ DUP1 PUSH2 0xCC7 JUMPI POP PUSH1 0x1 PUSH1 0x1 PUSH1 0xE0 SHL SUB NOT DUP3 AND PUSH4 0x5B5E139F PUSH1 0xE0 SHL EQ JUMPDEST DUP1 PUSH2 0x288 JUMPI POP PUSH4 0x1FFC9A7 PUSH1 0xE0 SHL PUSH1 0x1 PUSH1 0x1 PUSH1 0xE0 SHL SUB NOT DUP4 AND EQ PUSH2 0x288 JUMP JUMPDEST PUSH0 DUP1 PUSH2 0xCF1 DUP5 PUSH2 0xA30 JUMP JUMPDEST SWAP1 POP PUSH1 0x1 PUSH1 0x1 PUSH1 0xA0 SHL SUB DUP4 AND ISZERO PUSH2 0xD0D JUMPI PUSH2 0xD0D DUP2 DUP5 DUP7 PUSH2 0x1045 JUMP JUMPDEST PUSH1 0x1 PUSH1 0x1 PUSH1 0xA0 SHL SUB DUP2 AND ISZERO PUSH2 0xD47 JUMPI PUSH2 0xD28 PUSH0 DUP6 PUSH0 DUP1 PUSH2 0xA4A JUMP JUMPDEST PUSH1 0x1 PUSH1 0x1 PUSH1 0xA0 SHL SUB DUP2 AND PUSH0 SWAP1 DUP2 MSTORE PUSH1 0x3 PUSH1 0x20 MSTORE PUSH1 0x40 SWAP1 KECCAK256 DUP1 SLOAD PUSH0 NOT ADD SWAP1 SSTORE JUMPDEST PUSH1 0x1 PUSH1 0x1 PUSH1 0xA0 SHL SUB DUP6 AND ISZERO PUSH2 0xD75 JUMPI PUSH1 0x1 PUSH1 0x1 PUSH1 0xA0 SHL SUB DUP6 AND PUSH0 SWAP1 DUP2 MSTORE PUSH1 0x3 PUSH1 0x20 MSTORE PUSH1 0x40 SWAP1 KECCAK256 DUP1 SLOAD PUSH1 0x1 ADD SWAP1 SSTORE JUMPDEST PUSH0 DUP5 DUP2 MSTORE PUSH1 0x2 PUSH1 0x20 MSTORE PUSH1 0x40 DUP1 DUP3 KECCAK256 DUP1 SLOAD PUSH1 0x1 PUSH1 0x1 PUSH1 0xA0 SHL SUB NOT AND PUSH1 0x1 PUSH1 0x1 PUSH1 0xA0 SHL SUB DUP10 DUP2 AND SWAP2 DUP3 OR SWAP1 SWAP3 SSTORE SWAP2 MLOAD DUP8 SWAP4 SWAP2 DUP6 AND SWAP2 PUSH32 0xDDF252AD1BE2C89B69C2B068FC378DAA952BA7F163C4A11628F55A4DF523B3EF SWAP2 LOG4 SWAP5 SWAP4 POP POP POP POP JUMP JUMPDEST PUSH0 PUSH2 0xDDD DUP4 PUSH2 0x4A0 JUMP JUMPDEST PUSH0 DUP4 DUP2 MSTORE PUSH1 0x7 PUSH1 0x20 MSTORE PUSH1 0x40 SWAP1 KECCAK256 SLOAD SWAP1 SWAP2 POP DUP1 DUP3 EQ PUSH2 0xE2E JUMPI PUSH1 0x1 PUSH1 0x1 PUSH1 0xA0 SHL SUB DUP5 AND PUSH0 SWAP1 DUP2 MSTORE PUSH1 0x6 PUSH1 0x20 SWAP1 DUP2 MSTORE PUSH1 0x40 DUP1 DUP4 KECCAK256 DUP6 DUP5 MSTORE DUP3 MSTORE DUP1 DUP4 KECCAK256 SLOAD DUP5 DUP5 MSTORE DUP2 DUP5 KECCAK256 DUP2 SWAP1 SSTORE DUP4 MSTORE PUSH1 0x7 SWAP1 SWAP2 MSTORE SWAP1 KECCAK256 DUP2 SWAP1 SSTORE JUMPDEST POP PUSH0 SWAP2 DUP3 MSTORE PUSH1 0x7 PUSH1 0x20 SWAP1 DUP2 MSTORE PUSH1 0x40 DUP1 DUP5 KECCAK256 DUP5 SWAP1 SSTORE PUSH1 0x1 PUSH1 0x1 PUSH1 0xA0 SHL SUB SWAP1 SWAP5 AND DUP4 MSTORE PUSH1 0x6 DUP2 MSTORE DUP4 DUP4 KECCAK256 SWAP2 DUP4 MSTORE MSTORE SWAP1 DUP2 KECCAK256 SSTORE JUMP JUMPDEST PUSH1 0x8 SLOAD PUSH0 SWAP1 PUSH2 0xE71 SWAP1 PUSH1 0x1 SWAP1 PUSH2 0x16FF JUMP JUMPDEST PUSH0 DUP4 DUP2 MSTORE PUSH1 0x9 PUSH1 0x20 MSTORE PUSH1 0x40 DUP2 KECCAK256 SLOAD PUSH1 0x8 DUP1 SLOAD SWAP4 SWAP5 POP SWAP1 SWAP3 DUP5 SWAP1 DUP2 LT PUSH2 0xE98 JUMPI PUSH2 0xE98 PUSH2 0x1537 JUMP JUMPDEST SWAP1 PUSH0 MSTORE PUSH1 0x20 PUSH0 KECCAK256 ADD SLOAD SWAP1 POP DUP1 PUSH1 0x8 DUP4 DUP2 SLOAD DUP2 LT PUSH2 0xEB7 JUMPI PUSH2 0xEB7 PUSH2 0x1537 JUMP JUMPDEST PUSH0 SWAP2 DUP3 MSTORE PUSH1 0x20 DUP1 DUP4 KECCAK256 SWAP1 SWAP2 ADD SWAP3 SWAP1 SWAP3 SSTORE DUP3 DUP2 MSTORE PUSH1 0x9 SWAP1 SWAP2 MSTORE PUSH1 0x40 DUP1 DUP3 KECCAK256 DUP5 SWAP1 SSTORE DUP6 DUP3 MSTORE DUP2 KECCAK256 SSTORE PUSH1 0x8 DUP1 SLOAD DUP1 PUSH2 0xEEE JUMPI PUSH2 0xEEE PUSH2 0x1712 JUMP JUMPDEST PUSH1 0x1 SWAP1 SUB DUP2 DUP2 SWAP1 PUSH0 MSTORE PUSH1 0x20 PUSH0 KECCAK256 ADD PUSH0 SWAP1 SSTORE SWAP1 SSTORE POP POP POP POP JUMP JUMPDEST PUSH0 PUSH1 0x1 PUSH2 0xF13 DUP5 PUSH2 0x4A0 JUMP JUMPDEST PUSH2 0xF1D SWAP2 SWAP1 PUSH2 0x16FF JUMP JUMPDEST PUSH1 0x1 PUSH1 0x1 PUSH1 0xA0 SHL SUB SWAP1 SWAP4 AND PUSH0 SWAP1 DUP2 MSTORE PUSH1 0x6 PUSH1 0x20 SWAP1 DUP2 MSTORE PUSH1 0x40 DUP1 DUP4 KECCAK256 DUP7 DUP5 MSTORE DUP3 MSTORE DUP1 DUP4 KECCAK256 DUP6 SWAP1 SSTORE SWAP4 DUP3 MSTORE PUSH1 0x7 SWAP1 MSTORE SWAP2 SWAP1 SWAP2 KECCAK256 SWAP2 SWAP1 SWAP2 SSTORE POP JUMP JUMPDEST PUSH1 0x60 PUSH0 PUSH2 0xF61 DUP4 PUSH2 0x109B JUMP JUMPDEST PUSH1 0x1 ADD SWAP1 POP PUSH0 DUP2 PUSH1 0x1 PUSH1 0x1 PUSH1 0x40 SHL SUB DUP2 GT ISZERO PUSH2 0xF7F JUMPI PUSH2 0xF7F PUSH2 0x135C JUMP JUMPDEST PUSH1 0x40 MLOAD SWAP1 DUP1 DUP3 MSTORE DUP1 PUSH1 0x1F ADD PUSH1 0x1F NOT AND PUSH1 0x20 ADD DUP3 ADD PUSH1 0x40 MSTORE DUP1 ISZERO PUSH2 0xFA9 JUMPI PUSH1 0x20 DUP3 ADD DUP2 DUP1 CALLDATASIZE DUP4 CALLDATACOPY ADD SWAP1 POP JUMPDEST POP SWAP1 POP DUP2 DUP2 ADD PUSH1 0x20 ADD JUMPDEST PUSH0 NOT ADD PUSH16 0x181899199A1A9B1B9C1CB0B131B232B3 PUSH1 0x81 SHL PUSH1 0xA DUP7 MOD BYTE DUP2 MSTORE8 PUSH1 0xA DUP6 DIV SWAP5 POP DUP5 PUSH2 0xFB3 JUMPI POP SWAP4 SWAP3 POP POP POP JUMP JUMPDEST PUSH1 0x1 PUSH1 0x1 PUSH1 0xA0 SHL SUB DUP3 AND PUSH2 0x100D JUMPI PUSH0 PUSH1 0x40 MLOAD PUSH4 0x32505749 PUSH1 0xE1 SHL DUP2 MSTORE PUSH1 0x4 ADD PUSH2 0x369 SWAP2 SWAP1 PUSH2 0x127A JUMP JUMPDEST PUSH0 PUSH2 0x1019 DUP4 DUP4 PUSH0 PUSH2 0x661 JUMP JUMPDEST SWAP1 POP PUSH1 0x1 PUSH1 0x1 PUSH1 0xA0 SHL SUB DUP2 AND ISZERO PUSH2 0x441 JUMPI PUSH0 PUSH1 0x40 MLOAD PUSH4 0x39E35637 PUSH1 0xE1 SHL DUP2 MSTORE PUSH1 0x4 ADD PUSH2 0x369 SWAP2 SWAP1 PUSH2 0x127A JUMP JUMPDEST PUSH2 0x1050 DUP4 DUP4 DUP4 PUSH2 0x1170 JUMP JUMPDEST PUSH2 0x441 JUMPI PUSH1 0x1 PUSH1 0x1 PUSH1 0xA0 SHL SUB DUP4 AND PUSH2 0x107E JUMPI PUSH1 0x40 MLOAD PUSH4 0x7E273289 PUSH1 0xE0 SHL DUP2 MSTORE PUSH1 0x4 DUP2 ADD DUP3 SWAP1 MSTORE PUSH1 0x24 ADD PUSH2 0x369 JUMP JUMPDEST DUP2 DUP2 PUSH1 0x40 MLOAD PUSH4 0x177E802F PUSH1 0xE0 SHL DUP2 MSTORE PUSH1 0x4 ADD PUSH2 0x369 SWAP3 SWAP2 SWAP1 PUSH2 0x151E JUMP JUMPDEST PUSH0 DUP1 PUSH19 0x184F03E93FF9F4DAA797ED6E38ED64BF6A1F01 PUSH1 0x40 SHL DUP4 LT PUSH2 0x10D9 JUMPI PUSH19 0x184F03E93FF9F4DAA797ED6E38ED64BF6A1F01 PUSH1 0x40 SHL DUP4 DIV SWAP3 POP PUSH1 0x40 ADD JUMPDEST PUSH10 0x4EE2D6D415B85ACEF81 PUSH1 0x20 SHL DUP4 LT PUSH2 0x1103 JUMPI PUSH10 0x4EE2D6D415B85ACEF81 PUSH1 0x20 SHL DUP4 DIV SWAP3 POP PUSH1 0x20 ADD JUMPDEST PUSH7 0x2386F26FC10000 DUP4 LT PUSH2 0x1121 JUMPI PUSH7 0x2386F26FC10000 DUP4 DIV SWAP3 POP PUSH1 0x10 ADD JUMPDEST PUSH4 0x5F5E100 DUP4 LT PUSH2 0x1139 JUMPI PUSH4 0x5F5E100 DUP4 DIV SWAP3 POP PUSH1 0x8 ADD JUMPDEST PUSH2 0x2710 DUP4 LT PUSH2 0x114D JUMPI PUSH2 0x2710 DUP4 DIV SWAP3 POP PUSH1 0x4 ADD JUMPDEST PUSH1 0x64 DUP4 LT PUSH2 0x115F JUMPI PUSH1 0x64 DUP4 DIV SWAP3 POP PUSH1 0x2 ADD JUMPDEST PUSH1 0xA DUP4 LT PUSH2 0x288 JUMPI PUSH1 0x1 ADD SWAP3 SWAP2 POP POP JUMP JUMPDEST PUSH0 PUSH1 0x1 PUSH1 0x1 PUSH1 0xA0 SHL SUB DUP4 AND ISZERO DUP1 ISZERO SWAP1 PUSH2 0x66D JUMPI POP DUP3 PUSH1 0x1 PUSH1 0x1 PUSH1 0xA0 SHL SUB AND DUP5 PUSH1 0x1 PUSH1 0x1 PUSH1 0xA0 SHL SUB AND EQ DUP1 PUSH2 0x11A9 JUMPI POP PUSH2 0x11A9 DUP5 DUP5 PUSH2 0x575 JUMP JUMPDEST DUP1 PUSH2 0x66D JUMPI POP DUP3 PUSH1 0x1 PUSH1 0x1 PUSH1 0xA0 SHL SUB AND PUSH2 0x11C2 DUP4 PUSH2 0x63A JUMP JUMPDEST PUSH1 0x1 PUSH1 0x1 PUSH1 0xA0 SHL SUB AND EQ SWAP5 SWAP4 POP POP POP POP JUMP JUMPDEST PUSH1 0x1 PUSH1 0x1 PUSH1 0xE0 SHL SUB NOT DUP2 AND DUP2 EQ PUSH2 0x5DC JUMPI PUSH0 DUP1 REVERT JUMPDEST PUSH0 PUSH1 0x20 DUP3 DUP5 SUB SLT ISZERO PUSH2 0x11F9 JUMPI PUSH0 DUP1 REVERT JUMPDEST DUP2 CALLDATALOAD PUSH2 0xC7A DUP2 PUSH2 0x11D4 JUMP JUMPDEST PUSH0 JUMPDEST DUP4 DUP2 LT ISZERO PUSH2 0x121E JUMPI DUP2 DUP2 ADD MLOAD DUP4 DUP3 ADD MSTORE PUSH1 0x20 ADD PUSH2 0x1206 JUMP JUMPDEST POP POP PUSH0 SWAP2 ADD MSTORE JUMP JUMPDEST PUSH0 DUP2 MLOAD DUP1 DUP5 MSTORE PUSH2 0x123D DUP2 PUSH1 0x20 DUP7 ADD PUSH1 0x20 DUP7 ADD PUSH2 0x1204 JUMP JUMPDEST PUSH1 0x1F ADD PUSH1 0x1F NOT AND SWAP3 SWAP1 SWAP3 ADD PUSH1 0x20 ADD SWAP3 SWAP2 POP POP JUMP JUMPDEST PUSH1 0x20 DUP2 MSTORE PUSH0 PUSH2 0xC7A PUSH1 0x20 DUP4 ADD DUP5 PUSH2 0x1226 JUMP JUMPDEST PUSH0 PUSH1 0x20 DUP3 DUP5 SUB SLT ISZERO PUSH2 0x1273 JUMPI PUSH0 DUP1 REVERT JUMPDEST POP CALLDATALOAD SWAP2 SWAP1 POP JUMP JUMPDEST PUSH1 0x1 PUSH1 0x1 PUSH1 0xA0 SHL SUB SWAP2 SWAP1 SWAP2 AND DUP2 MSTORE PUSH1 0x20 ADD SWAP1 JUMP JUMPDEST DUP1 CALLDATALOAD PUSH1 0x1 PUSH1 0x1 PUSH1 0xA0 SHL SUB DUP2 AND DUP2 EQ PUSH2 0x12A4 JUMPI PUSH0 DUP1 REVERT JUMPDEST SWAP2 SWAP1 POP JUMP JUMPDEST PUSH0 DUP1 PUSH1 0x40 DUP4 DUP6 SUB SLT ISZERO PUSH2 0x12BA JUMPI PUSH0 DUP1 REVERT JUMPDEST PUSH2 0x12C3 DUP4 PUSH2 0x128E JUMP JUMPDEST SWAP5 PUSH1 0x20 SWAP4 SWAP1 SWAP4 ADD CALLDATALOAD SWAP4 POP POP POP JUMP JUMPDEST PUSH0 DUP1 PUSH0 PUSH1 0x60 DUP5 DUP7 SUB SLT ISZERO PUSH2 0x12E3 JUMPI PUSH0 DUP1 REVERT JUMPDEST PUSH2 0x12EC DUP5 PUSH2 0x128E JUMP JUMPDEST SWAP3 POP PUSH2 0x12FA PUSH1 0x20 DUP6 ADD PUSH2 0x128E JUMP JUMPDEST SWAP2 POP PUSH1 0x40 DUP5 ADD CALLDATALOAD SWAP1 POP SWAP3 POP SWAP3 POP SWAP3 JUMP JUMPDEST PUSH0 PUSH1 0x20 DUP3 DUP5 SUB SLT ISZERO PUSH2 0x131A JUMPI PUSH0 DUP1 REVERT JUMPDEST PUSH2 0xC7A DUP3 PUSH2 0x128E JUMP JUMPDEST PUSH0 DUP1 PUSH1 0x40 DUP4 DUP6 SUB SLT ISZERO PUSH2 0x1334 JUMPI PUSH0 DUP1 REVERT JUMPDEST PUSH2 0x133D DUP4 PUSH2 0x128E JUMP JUMPDEST SWAP2 POP PUSH1 0x20 DUP4 ADD CALLDATALOAD DUP1 ISZERO ISZERO DUP2 EQ PUSH2 0x1351 JUMPI PUSH0 DUP1 REVERT JUMPDEST DUP1 SWAP2 POP POP SWAP3 POP SWAP3 SWAP1 POP JUMP JUMPDEST PUSH4 0x4E487B71 PUSH1 0xE0 SHL PUSH0 MSTORE PUSH1 0x41 PUSH1 0x4 MSTORE PUSH1 0x24 PUSH0 REVERT JUMPDEST PUSH0 PUSH1 0x1 PUSH1 0x1 PUSH1 0x40 SHL SUB DUP1 DUP5 GT ISZERO PUSH2 0x1389 JUMPI PUSH2 0x1389 PUSH2 0x135C JUMP JUMPDEST PUSH1 0x40 MLOAD PUSH1 0x1F DUP6 ADD PUSH1 0x1F NOT SWAP1 DUP2 AND PUSH1 0x3F ADD AND DUP2 ADD SWAP1 DUP3 DUP3 GT DUP2 DUP4 LT OR ISZERO PUSH2 0x13B1 JUMPI PUSH2 0x13B1 PUSH2 0x135C JUMP JUMPDEST DUP2 PUSH1 0x40 MSTORE DUP1 SWAP4 POP DUP6 DUP2 MSTORE DUP7 DUP7 DUP7 ADD GT ISZERO PUSH2 0x13C9 JUMPI PUSH0 DUP1 REVERT JUMPDEST DUP6 DUP6 PUSH1 0x20 DUP4 ADD CALLDATACOPY PUSH0 PUSH1 0x20 DUP8 DUP4 ADD ADD MSTORE POP POP POP SWAP4 SWAP3 POP POP POP JUMP JUMPDEST PUSH0 DUP1 PUSH0 DUP1 PUSH1 0x80 DUP6 DUP8 SUB SLT ISZERO PUSH2 0x13F5 JUMPI PUSH0 DUP1 REVERT JUMPDEST PUSH2 0x13FE DUP6 PUSH2 0x128E JUMP JUMPDEST SWAP4 POP PUSH2 0x140C PUSH1 0x20 DUP7 ADD PUSH2 0x128E JUMP JUMPDEST SWAP3 POP PUSH1 0x40 DUP6 ADD CALLDATALOAD SWAP2 POP PUSH1 0x60 DUP6 ADD CALLDATALOAD PUSH1 0x1 PUSH1 0x1 PUSH1 0x40 SHL SUB DUP2 GT ISZERO PUSH2 0x142D JUMPI PUSH0 DUP1 REVERT JUMPDEST DUP6 ADD PUSH1 0x1F DUP2 ADD DUP8 SGT PUSH2 0x143D JUMPI PUSH0 DUP1 REVERT JUMPDEST PUSH2 0x144C DUP8 DUP3 CALLDATALOAD PUSH1 0x20 DUP5 ADD PUSH2 0x1370 JUMP JUMPDEST SWAP2 POP POP SWAP3 SWAP6 SWAP2 SWAP5 POP SWAP3 POP JUMP JUMPDEST PUSH0 DUP1 PUSH1 0x40 DUP4 DUP6 SUB SLT ISZERO PUSH2 0x1469 JUMPI PUSH0 DUP1 REVERT JUMPDEST PUSH2 0x1472 DUP4 PUSH2 0x128E JUMP JUMPDEST SWAP2 POP PUSH1 0x20 DUP4 ADD CALLDATALOAD PUSH1 0x1 PUSH1 0x1 PUSH1 0x40 SHL SUB DUP2 GT ISZERO PUSH2 0x148C JUMPI PUSH0 DUP1 REVERT JUMPDEST DUP4 ADD PUSH1 0x1F DUP2 ADD DUP6 SGT PUSH2 0x149C JUMPI PUSH0 DUP1 REVERT JUMPDEST PUSH2 0x14AB DUP6 DUP3 CALLDATALOAD PUSH1 0x20 DUP5 ADD PUSH2 0x1370 JUMP JUMPDEST SWAP2 POP POP SWAP3 POP SWAP3 SWAP1 POP JUMP JUMPDEST PUSH0 DUP1 PUSH1 0x40 DUP4 DUP6 SUB SLT ISZERO PUSH2 0x14C6 JUMPI PUSH0 DUP1 REVERT JUMPDEST PUSH2 0x14CF DUP4 PUSH2 0x128E JUMP JUMPDEST SWAP2 POP PUSH2 0x14DD PUSH1 0x20 DUP5 ADD PUSH2 0x128E JUMP JUMPDEST SWAP1 POP SWAP3 POP SWAP3 SWAP1 POP JUMP JUMPDEST PUSH1 0x1 DUP2 DUP2 SHR SWAP1 DUP3 AND DUP1 PUSH2 0x14FA JUMPI PUSH1 0x7F DUP3 AND SWAP2 POP JUMPDEST PUSH1 0x20 DUP3 LT DUP2 SUB PUSH2 0x1518 JUMPI PUSH4 0x4E487B71 PUSH1 0xE0 SHL PUSH0 MSTORE PUSH1 0x22 PUSH1 0x4 MSTORE PUSH1 0x24 PUSH0 REVERT JUMPDEST POP SWAP2 SWAP1 POP JUMP JUMPDEST PUSH1 0x1 PUSH1 0x1 PUSH1 0xA0 SHL SUB SWAP3 SWAP1 SWAP3 AND DUP3 MSTORE PUSH1 0x20 DUP3 ADD MSTORE PUSH1 0x40 ADD SWAP1 JUMP JUMPDEST PUSH4 0x4E487B71 PUSH1 0xE0 SHL PUSH0 MSTORE PUSH1 0x32 PUSH1 0x4 MSTORE PUSH1 0x24 PUSH0 REVERT JUMPDEST PUSH4 0x4E487B71 PUSH1 0xE0 SHL PUSH0 MSTORE PUSH1 0x11 PUSH1 0x4 MSTORE PUSH1 0x24 PUSH0 REVERT JUMPDEST PUSH0 PUSH1 0x1 DUP3 ADD PUSH2 0x1570 JUMPI PUSH2 0x1570 PUSH2 0x154B JUMP JUMPDEST POP PUSH1 0x1 ADD SWAP1 JUMP JUMPDEST PUSH1 0x1 PUSH1 0x1 PUSH1 0xA0 SHL SUB DUP6 DUP2 AND DUP3 MSTORE DUP5 AND PUSH1 0x20 DUP3 ADD MSTORE PUSH1 0x40 DUP2 ADD DUP4 SWAP1 MSTORE PUSH1 0x80 PUSH1 0x60 DUP3 ADD DUP2 SWAP1 MSTORE PUSH0 SWAP1 PUSH2 0x15A9 SWAP1 DUP4 ADD DUP5 PUSH2 0x1226 JUMP JUMPDEST SWAP7 SWAP6 POP POP POP POP POP POP JUMP JUMPDEST PUSH0 PUSH1 0x20 DUP3 DUP5 SUB SLT ISZERO PUSH2 0x15C3 JUMPI PUSH0 DUP1 REVERT JUMPDEST DUP2 MLOAD PUSH2 0xC7A DUP2 PUSH2 0x11D4 JUMP JUMPDEST PUSH0 DUP4 MLOAD PUSH2 0x15DF DUP2 DUP5 PUSH1 0x20 DUP9 ADD PUSH2 0x1204 JUMP JUMPDEST DUP4 MLOAD SWAP1 DUP4 ADD SWAP1 PUSH2 0x15F3 DUP2 DUP4 PUSH1 0x20 DUP9 ADD PUSH2 0x1204 JUMP JUMPDEST ADD SWAP5 SWAP4 POP POP POP POP JUMP JUMPDEST PUSH1 0x1F DUP3 GT ISZERO PUSH2 0x441 JUMPI DUP1 PUSH0 MSTORE PUSH1 0x20 PUSH0 KECCAK256 PUSH1 0x1F DUP5 ADD PUSH1 0x5 SHR DUP2 ADD PUSH1 0x20 DUP6 LT ISZERO PUSH2 0x1621 JUMPI POP DUP1 JUMPDEST PUSH1 0x1F DUP5 ADD PUSH1 0x5 SHR DUP3 ADD SWAP2 POP JUMPDEST DUP2 DUP2 LT ISZERO PUSH2 0x89A JUMPI PUSH0 DUP2 SSTORE PUSH1 0x1 ADD PUSH2 0x162D JUMP JUMPDEST DUP2 MLOAD PUSH1 0x1 PUSH1 0x1 PUSH1 0x40 SHL SUB DUP2 GT ISZERO PUSH2 0x1659 JUMPI PUSH2 0x1659 PUSH2 0x135C JUMP JUMPDEST PUSH2 0x166D DUP2 PUSH2 0x1667 DUP5 SLOAD PUSH2 0x14E6 JUMP JUMPDEST DUP5 PUSH2 0x15FC JUMP JUMPDEST PUSH1 0x20 DUP1 PUSH1 0x1F DUP4 GT PUSH1 0x1 DUP2 EQ PUSH2 0x16A0 JUMPI PUSH0 DUP5 ISZERO PUSH2 0x1689 JUMPI POP DUP6 DUP4 ADD MLOAD JUMPDEST PUSH0 NOT PUSH1 0x3 DUP7 SWAP1 SHL SHR NOT AND PUSH1 0x1 DUP6 SWAP1 SHL OR DUP6 SSTORE PUSH2 0x16F7 JUMP JUMPDEST PUSH0 DUP6 DUP2 MSTORE PUSH1 0x20 DUP2 KECCAK256 PUSH1 0x1F NOT DUP7 AND SWAP2 JUMPDEST DUP3 DUP2 LT ISZERO PUSH2 0x16CE JUMPI DUP9 DUP7 ADD MLOAD DUP3 SSTORE SWAP5 DUP5 ADD SWAP5 PUSH1 0x1 SWAP1 SWAP2 ADD SWAP1 DUP5 ADD PUSH2 0x16AF JUMP JUMPDEST POP DUP6 DUP3 LT ISZERO PUSH2 0x16EB JUMPI DUP8 DUP6 ADD MLOAD PUSH0 NOT PUSH1 0x3 DUP9 SWAP1 SHL PUSH1 0xF8 AND SHR NOT AND DUP2 SSTORE JUMPDEST POP POP PUSH1 0x1 DUP5 PUSH1 0x1 SHL ADD DUP6 SSTORE JUMPDEST POP POP POP POP POP POP JUMP JUMPDEST DUP2 DUP2 SUB DUP2 DUP2 GT ISZERO PUSH2 0x288 JUMPI PUSH2 0x288 PUSH2 0x154B JUMP JUMPDEST PUSH4 0x4E487B71 PUSH1 0xE0 SHL PUSH0 MSTORE PUSH1 0x31 PUSH1 0x4 MSTORE PUSH1 0x24 PUSH0 REVERT INVALID LOG2 PUSH5 0x6970667358 0x22 SLT KECCAK256 0xE5 0x29 0xBF 0xE2 0xE1 0xBE PUSH24 0x4D82AEAD2A29DAECCFF3D6B6F5ED388F64539BAE71963F07 0xAF PUSH5 0x736F6C6343 STOP ADDMOD XOR STOP CALLER LOG2 PUSH5 0x6970667358 0x22 SLT KECCAK256 SWAP15 0xDF 0x21 SELFBALANCE 0x2D 0xCD CALLDATASIZE 0xF 0xAC ADDMOD SWAP2 GT SWAP4 0xC8 0xBE 0xB2 PUSH30 0xFD70514A7C6FC2DC5C60B90498853C64736F6C6343000818003300000000 "},"gasEstimates":{"creation":{"codeDepositCost":"3872800","executionCost":"28637","totalCost":"3901437"},"external":{"createProject(address,string,uint256,uint256,uint256,string,string)":"infinite","deployedProjects(uint256)":"4643","getDeployedProjects()":"infinite","getUserProjects()":"infinite","owner()":"2347","userProjects(address,uint256)":"4746"}},"methodIdentifiers":{"createProject(address,string,uint256,uint256,uint256,string,string)":"c73d7024","deployedProjects(uint256)":"9ec6deaf","getDeployedProjects()":"7ac3886e","getUserProjects()":"f08a64e6","owner()":"8da5cb5b","userProjects(address,uint256)":"2fa9c007"}},"storageLayout":{"storage":[{"astId":32649,"contract":"ProjectFactory.sol:ProjectFactory","label":"deployedProjects","offset":0,"slot":"0","type":"t_array(t_address)dyn_storage"},{"astId":32654,"contract":"ProjectFactory.sol:ProjectFactory","label":"userProjects","offset":0,"slot":"1","type":"t_mapping(t_address,t_array(t_address)dyn_storage)"},{"astId":32656,"contract":"ProjectFactory.sol:ProjectFactory","label":"owner","offset":0,"slot":"2","type":"t_address"}],"types":{"t_address":{"encoding":"inplace","label":"address","numberOfBytes":"20"},"t_array(t_address)dyn_storage":{"base":"t_address","encoding":"dynamic_array","label":"address[]","numberOfBytes":"32"},"t_mapping(t_address,t_array(t_address)dyn_storage)":{"encoding":"mapping","key":"t_address","label":"mapping(address => address[])","numberOfBytes":"32","value":"t_array(t_address)dyn_storage"}}},"userdoc":{"kind":"user","methods":{},"version":1}}