{"abi":[{"anonymous":false,"inputs":[{"indexed":true,"internalType":"address","name":"creator","type":"address"},{"indexed":false,"internalType":"address","name":"projectAddress","type":"address"}],"name":"ProjectCreated","type":"event"},{"inputs":[{"internalType":"address","name":"recipient","type":"address"},{"internalType":"string","name":"cid","type":"string"},{"internalType":"uint256","name":"minimumContribution","type":"uint256"},{"internalType":"uint256","name":"targetContribution","type":"uint256"},{"internalType":"uint256","name":"deadline","type":"uint256"},{"internalType":"string","name":"nftNamePrefix","type":"string"},{"internalType":"string","name":"nftSymbolPrefix","type":"string"}],"name":"createProject","outputs":[],"stateMutability":"nonpayable","type":"function"},{"inputs":[{"internalType":"uint256","name":"","type":"uint256"}],"name":"deployedProjects","outputs":[{"internalType":"address","name":"","type":"address"}],"stateMutability":"view","type":"function"},{"inputs":[],"name":"getDeployedProjects","outputs":[{"internalType":"address[]","name":"","type":"address[]"}],"stateMutability":"view","type":"function"},{"inputs":[],"name":"getUserProjects","outputs":[{"internalType":"address[]","name":"","type":"address[]"}],"stateMutability":"view","type":"function"},{"inputs":[{"internalType":"address","name":"","type":"address"},{"internalType":"uint256","name":"","type":"uint256"}],"name":"userProjects","outputs":[{"internalType":"address","name":"","type":"address"}],"stateMutability":"view","type":"function"}],"devdoc":{"kind":"dev","methods":{},"version":1},"evm":{"assembly":"    /* \"ProjectFactory.sol\":94:1325  contract ProjectFactory {... */\n  mstore(0x40, 0x80)\n  callvalue\n  dup1\n  iszero\n  tag_1\n  jumpi\n  0x00\n  dup1\n  revert\ntag_1:\n  pop\n  dataSize(sub_0)\n  dup1\n  dataOffset(sub_0)\n  0x00\n  codecopy\n  0x00\n  return\nstop\n\nsub_0: assembly {\n        /* \"ProjectFactory.sol\":94:1325  contract ProjectFactory {... */\n      mstore(0x40, 0x80)\n      callvalue\n      dup1\n      iszero\n      tag_1\n      jumpi\n      0x00\n      dup1\n      revert\n    tag_1:\n      pop\n      jumpi(tag_2, lt(calldatasize, 0x04))\n      shr(0xe0, calldataload(0x00))\n      dup1\n      0x2fa9c007\n      eq\n      tag_3\n      jumpi\n      dup1\n      0x7ac3886e\n      eq\n      tag_4\n      jumpi\n      dup1\n      0x9ec6deaf\n      eq\n      tag_5\n      jumpi\n      dup1\n      0xc73d7024\n      eq\n      tag_6\n      jumpi\n      dup1\n      0xf08a64e6\n      eq\n      tag_7\n      jumpi\n    tag_2:\n      0x00\n      dup1\n      revert\n        /* \"ProjectFactory.sol\":163:212  mapping(address => address[]) public userProjects */\n    tag_3:\n      tag_8\n      tag_9\n      calldatasize\n      0x04\n      tag_10\n      jump\t// in\n    tag_9:\n      tag_11\n      jump\t// in\n    tag_8:\n      mload(0x40)\n      tag_12\n      swap2\n      swap1\n      tag_13\n      jump\t// in\n    tag_12:\n      mload(0x40)\n      dup1\n      swap2\n      sub\n      swap1\n      return\n        /* \"ProjectFactory.sol\":1093:1203  function getDeployedProjects() public view returns (address[] memory) {... */\n    tag_4:\n      tag_14\n      tag_15\n      jump\t// in\n    tag_14:\n      mload(0x40)\n      tag_12\n      swap2\n      swap1\n      tag_17\n      jump\t// in\n        /* \"ProjectFactory.sol\":124:157  address[] public deployedProjects */\n    tag_5:\n      tag_8\n      tag_19\n      calldatasize\n      0x04\n      tag_20\n      jump\t// in\n    tag_19:\n      tag_21\n      jump\t// in\n        /* \"ProjectFactory.sol\":295:1087  function createProject(... */\n    tag_6:\n      tag_23\n      tag_24\n      calldatasize\n      0x04\n      tag_25\n      jump\t// in\n    tag_24:\n      tag_26\n      jump\t// in\n    tag_23:\n      stop\n        /* \"ProjectFactory.sol\":1209:1323  function getUserProjects() public view returns (address[] memory) {... */\n    tag_7:\n      tag_14\n      tag_28\n      jump\t// in\n        /* \"ProjectFactory.sol\":163:212  mapping(address => address[]) public userProjects */\n    tag_11:\n      mstore(0x20, 0x01)\n      dup2\n      0x00\n      mstore\n      keccak256(0x00, 0x40)\n      dup2\n      dup2\n      sload\n      dup2\n      lt\n      tag_30\n      jumpi\n      0x00\n      dup1\n      revert\n    tag_30:\n      0x00\n      swap2\n      dup3\n      mstore\n      0x20\n      swap1\n      swap2\n      keccak256\n      add\n      sload\n      sub(shl(0xa0, 0x01), 0x01)\n      and\n      swap2\n      pop\n      dup3\n      swap1\n      pop\n      jump\t// out\n        /* \"ProjectFactory.sol\":1093:1203  function getDeployedProjects() public view returns (address[] memory) {... */\n    tag_15:\n        /* \"ProjectFactory.sol\":1145:1161  address[] memory */\n      0x60\n        /* \"ProjectFactory.sol\":1180:1196  deployedProjects */\n      0x00\n        /* \"ProjectFactory.sol\":1173:1196  return deployedProjects */\n      dup1\n      sload\n      dup1\n      0x20\n      mul\n      0x20\n      add\n      mload(0x40)\n      swap1\n      dup2\n      add\n      0x40\n      mstore\n      dup1\n      swap3\n      swap2\n      swap1\n      dup2\n      dup2\n      mstore\n      0x20\n      add\n      dup3\n      dup1\n      sload\n      dup1\n      iszero\n      tag_33\n      jumpi\n      0x20\n      mul\n      dup3\n      add\n      swap2\n      swap1\n      0x00\n      mstore\n      keccak256(0x00, 0x20)\n      swap1\n    tag_34:\n      dup2\n      sload\n      sub(shl(0xa0, 0x01), 0x01)\n      and\n      dup2\n      mstore\n      0x01\n      swap1\n      swap2\n      add\n      swap1\n      0x20\n      add\n      dup1\n      dup4\n      gt\n      tag_34\n      jumpi\n    tag_33:\n      pop\n      pop\n      pop\n      pop\n      pop\n      swap1\n      pop\n        /* \"ProjectFactory.sol\":1093:1203  function getDeployedProjects() public view returns (address[] memory) {... */\n      swap1\n      jump\t// out\n        /* \"ProjectFactory.sol\":124:157  address[] public deployedProjects */\n    tag_21:\n      0x00\n      dup2\n      dup2\n      sload\n      dup2\n      lt\n      tag_35\n      jumpi\n      0x00\n      dup1\n      revert\n    tag_35:\n      0x00\n      swap2\n      dup3\n      mstore\n      0x20\n      swap1\n      swap2\n      keccak256\n      add\n      sload\n      sub(shl(0xa0, 0x01), 0x01)\n      and\n      swap1\n      pop\n      dup2\n      jump\t// out\n        /* \"ProjectFactory.sol\":295:1087  function createProject(... */\n    tag_26:\n        /* \"ProjectFactory.sol\":570:588  address newProject */\n      0x00\n        /* \"ProjectFactory.sol\":641:664  deployedProjects.length */\n      dup1\n      sload\n        /* \"ProjectFactory.sol\":641:668  deployedProjects.length + 1 */\n      tag_38\n      swap1\n        /* \"ProjectFactory.sol\":667:668  1 */\n      0x01\n        /* \"ProjectFactory.sol\":641:668  deployedProjects.length + 1 */\n      tag_39\n      jump\t// in\n    tag_38:\n        /* \"ProjectFactory.sol\":686:696  msg.sender */\n      caller\n        /* \"ProjectFactory.sol\":714:723  recipient */\n      dup10\n        /* \"ProjectFactory.sol\":741:744  cid */\n      dup10\n        /* \"ProjectFactory.sol\":762:781  minimumContribution */\n      dup10\n        /* \"ProjectFactory.sol\":799:817  targetContribution */\n      dup10\n        /* \"ProjectFactory.sol\":835:843  deadline */\n      dup10\n        /* \"ProjectFactory.sol\":861:874  nftNamePrefix */\n      dup10\n        /* \"ProjectFactory.sol\":892:907  nftSymbolPrefix */\n      dup10\n        /* \"ProjectFactory.sol\":612:921  new Project(... */\n      mload(0x40)\n      tag_40\n      swap1\n      tag_41\n      jump\t// in\n    tag_40:\n      tag_42\n      swap10\n      swap9\n      swap8\n      swap7\n      swap6\n      swap5\n      swap4\n      swap3\n      swap2\n      swap1\n      tag_43\n      jump\t// in\n    tag_42:\n      mload(0x40)\n      dup1\n      swap2\n      sub\n      swap1\n      0x00\n      create\n      dup1\n      iszero\n      dup1\n      iszero\n      tag_44\n      jumpi\n      returndatasize\n      0x00\n      dup1\n      returndatacopy\n      revert(0x00, returndatasize)\n    tag_44:\n      pop\n        /* \"ProjectFactory.sol\":942:958  deployedProjects */\n      0x00\n        /* \"ProjectFactory.sol\":942:975  deployedProjects.push(newProject) */\n      dup1\n      sload\n      0x01\n      dup2\n      dup2\n      add\n      dup4\n      sstore\n      0x290decd9548b62a8d60345a988386fc84ba6bc95484008f6362f93160ef3e563\n      swap1\n      swap2\n      add\n      dup1\n      sload\n      sub(shl(0xa0, 0x01), 0x01)\n      dup6\n      and\n      not(sub(shl(0xa0, 0x01), 0x01))\n      swap2\n      dup3\n      and\n      dup2\n      or\n      swap1\n      swap3\n      sstore\n        /* \"ProjectFactory.sol\":998:1008  msg.sender */\n      caller\n        /* \"ProjectFactory.sol\":985:1009  userProjects[msg.sender] */\n      dup1\n      dup6\n      mstore\n        /* \"ProjectFactory.sol\":942:975  deployedProjects.push(newProject) */\n      0x20\n        /* \"ProjectFactory.sol\":985:1009  userProjects[msg.sender] */\n      dup5\n      dup2\n      mstore\n      0x40\n      dup1\n      dup8\n      keccak256\n        /* \"ProjectFactory.sol\":985:1026  userProjects[msg.sender].push(newProject) */\n      dup1\n      sload\n      swap7\n      dup8\n      add\n      dup2\n      sstore\n      dup8\n      mstore\n      swap6\n      keccak256\n      swap1\n      swap4\n      add\n      dup1\n      sload\n      swap1\n      swap2\n      and\n      swap1\n      swap2\n      or\n      swap1\n      sstore\n        /* \"ProjectFactory.sol\":1042:1080  ProjectCreated(msg.sender, newProject) */\n      swap1\n      mload\n        /* \"ProjectFactory.sol\":570:931  address newProject = address(... */\n      swap2\n      swap3\n      pop\n        /* \"ProjectFactory.sol\":998:1008  msg.sender */\n      swap1\n        /* \"ProjectFactory.sol\":1042:1080  ProjectCreated(msg.sender, newProject) */\n      0x8cb1f5e0b7508307e592a641586f535256dba226b02388100691c6133f65e22e\n      swap1\n      tag_47\n      swap1\n        /* \"ProjectFactory.sol\":570:931  address newProject = address(... */\n      dup5\n      swap1\n        /* \"ProjectFactory.sol\":1042:1080  ProjectCreated(msg.sender, newProject) */\n      tag_13\n      jump\t// in\n    tag_47:\n      mload(0x40)\n      dup1\n      swap2\n      sub\n      swap1\n      log2\n        /* \"ProjectFactory.sol\":560:1087  {... */\n      pop\n        /* \"ProjectFactory.sol\":295:1087  function createProject(... */\n      pop\n      pop\n      pop\n      pop\n      pop\n      pop\n      pop\n      jump\t// out\n        /* \"ProjectFactory.sol\":1209:1323  function getUserProjects() public view returns (address[] memory) {... */\n    tag_28:\n        /* \"ProjectFactory.sol\":1305:1315  msg.sender */\n      caller\n        /* \"ProjectFactory.sol\":1292:1316  userProjects[msg.sender] */\n      0x00\n      swap1\n      dup2\n      mstore\n        /* \"ProjectFactory.sol\":1292:1304  userProjects */\n      0x01\n        /* \"ProjectFactory.sol\":1292:1316  userProjects[msg.sender] */\n      0x20\n      swap1\n      dup2\n      mstore\n      0x40\n      swap2\n      dup3\n      swap1\n      keccak256\n        /* \"ProjectFactory.sol\":1285:1316  return userProjects[msg.sender] */\n      dup1\n      sload\n      dup4\n      mload\n      dup2\n      dup5\n      mul\n      dup2\n      add\n      dup5\n      add\n      swap1\n      swap5\n      mstore\n      dup1\n      dup5\n      mstore\n        /* \"ProjectFactory.sol\":1257:1273  address[] memory */\n      0x60\n      swap4\n        /* \"ProjectFactory.sol\":1285:1316  return userProjects[msg.sender] */\n      swap3\n      dup4\n      add\n        /* \"ProjectFactory.sol\":1292:1316  userProjects[msg.sender] */\n      dup3\n        /* \"ProjectFactory.sol\":1285:1316  return userProjects[msg.sender] */\n      dup3\n      dup1\n      iszero\n      tag_33\n      jumpi\n      0x20\n      mul\n      dup3\n      add\n      swap2\n      swap1\n      0x00\n      mstore\n      keccak256(0x00, 0x20)\n      swap1\n      dup2\n      sload\n      sub(shl(0xa0, 0x01), 0x01)\n      and\n      dup2\n      mstore\n      0x01\n      swap1\n      swap2\n      add\n      swap1\n      0x20\n      add\n      dup1\n      dup4\n      gt\n      tag_34\n      jumpi\n      pop\n      pop\n      pop\n      pop\n      pop\n      swap1\n      pop\n        /* \"ProjectFactory.sol\":1209:1323  function getUserProjects() public view returns (address[] memory) {... */\n      swap1\n      jump\t// out\n    tag_41:\n      dataSize(sub_0)\n      dup1\n      dataOffset(sub_0)\n      dup4\n      codecopy\n      add\n      swap1\n      jump\t// out\n        /* \"#utility.yul\":14:187   */\n    tag_51:\n        /* \"#utility.yul\":82:102   */\n      dup1\n      calldataload\n      sub(shl(0xa0, 0x01), 0x01)\n        /* \"#utility.yul\":131:162   */\n      dup2\n      and\n        /* \"#utility.yul\":121:163   */\n      dup2\n      eq\n        /* \"#utility.yul\":111:181   */\n      tag_57\n      jumpi\n        /* \"#utility.yul\":177:178   */\n      0x00\n        /* \"#utility.yul\":174:175   */\n      dup1\n        /* \"#utility.yul\":167:179   */\n      revert\n        /* \"#utility.yul\":111:181   */\n    tag_57:\n        /* \"#utility.yul\":14:187   */\n      swap2\n      swap1\n      pop\n      jump\t// out\n        /* \"#utility.yul\":192:446   */\n    tag_10:\n        /* \"#utility.yul\":260:266   */\n      0x00\n        /* \"#utility.yul\":268:274   */\n      dup1\n        /* \"#utility.yul\":321:323   */\n      0x40\n        /* \"#utility.yul\":309:318   */\n      dup4\n        /* \"#utility.yul\":300:307   */\n      dup6\n        /* \"#utility.yul\":296:319   */\n      sub\n        /* \"#utility.yul\":292:324   */\n      slt\n        /* \"#utility.yul\":289:341   */\n      iszero\n      tag_59\n      jumpi\n        /* \"#utility.yul\":337:338   */\n      0x00\n        /* \"#utility.yul\":334:335   */\n      dup1\n        /* \"#utility.yul\":327:339   */\n      revert\n        /* \"#utility.yul\":289:341   */\n    tag_59:\n        /* \"#utility.yul\":360:389   */\n      tag_60\n        /* \"#utility.yul\":379:388   */\n      dup4\n        /* \"#utility.yul\":360:389   */\n      tag_51\n      jump\t// in\n    tag_60:\n        /* \"#utility.yul\":350:389   */\n      swap5\n        /* \"#utility.yul\":436:438   */\n      0x20\n        /* \"#utility.yul\":421:439   */\n      swap4\n      swap1\n      swap4\n      add\n        /* \"#utility.yul\":408:440   */\n      calldataload\n      swap4\n      pop\n      pop\n      pop\n        /* \"#utility.yul\":192:446   */\n      jump\t// out\n        /* \"#utility.yul\":451:654   */\n    tag_13:\n      sub(shl(0xa0, 0x01), 0x01)\n        /* \"#utility.yul\":615:647   */\n      swap2\n      swap1\n      swap2\n      and\n        /* \"#utility.yul\":597:648   */\n      dup2\n      mstore\n        /* \"#utility.yul\":585:587   */\n      0x20\n        /* \"#utility.yul\":570:588   */\n      add\n      swap1\n        /* \"#utility.yul\":451:654   */\n      jump\t// out\n        /* \"#utility.yul\":659:1317   */\n    tag_17:\n        /* \"#utility.yul\":830:832   */\n      0x20\n        /* \"#utility.yul\":882:903   */\n      dup1\n      dup3\n      mstore\n        /* \"#utility.yul\":952:965   */\n      dup3\n      mload\n        /* \"#utility.yul\":855:873   */\n      dup3\n      dup3\n      add\n        /* \"#utility.yul\":974:996   */\n      dup2\n      swap1\n      mstore\n        /* \"#utility.yul\":801:805   */\n      0x00\n      swap2\n        /* \"#utility.yul\":830:832   */\n      swap1\n        /* \"#utility.yul\":1053:1068   */\n      dup5\n      dup3\n      add\n      swap1\n        /* \"#utility.yul\":1027:1029   */\n      0x40\n        /* \"#utility.yul\":1012:1030   */\n      dup6\n      add\n      swap1\n        /* \"#utility.yul\":801:805   */\n      dup5\n        /* \"#utility.yul\":1096:1291   */\n    tag_63:\n        /* \"#utility.yul\":1110:1116   */\n      dup2\n        /* \"#utility.yul\":1107:1108   */\n      dup2\n        /* \"#utility.yul\":1104:1117   */\n      lt\n        /* \"#utility.yul\":1096:1291   */\n      iszero\n      tag_65\n      jumpi\n        /* \"#utility.yul\":1175:1188   */\n      dup4\n      mload\n      sub(shl(0xa0, 0x01), 0x01)\n        /* \"#utility.yul\":1171:1210   */\n      and\n        /* \"#utility.yul\":1159:1211   */\n      dup4\n      mstore\n        /* \"#utility.yul\":1266:1281   */\n      swap3\n      dup5\n      add\n      swap3\n        /* \"#utility.yul\":1231:1243   */\n      swap2\n      dup5\n      add\n      swap2\n        /* \"#utility.yul\":1207:1208   */\n      0x01\n        /* \"#utility.yul\":1125:1134   */\n      add\n        /* \"#utility.yul\":1096:1291   */\n      jump(tag_63)\n    tag_65:\n      pop\n        /* \"#utility.yul\":1308:1311   */\n      swap1\n      swap7\n        /* \"#utility.yul\":659:1317   */\n      swap6\n      pop\n      pop\n      pop\n      pop\n      pop\n      pop\n      jump\t// out\n        /* \"#utility.yul\":1322:1502   */\n    tag_20:\n        /* \"#utility.yul\":1381:1387   */\n      0x00\n        /* \"#utility.yul\":1434:1436   */\n      0x20\n        /* \"#utility.yul\":1422:1431   */\n      dup3\n        /* \"#utility.yul\":1413:1420   */\n      dup5\n        /* \"#utility.yul\":1409:1432   */\n      sub\n        /* \"#utility.yul\":1405:1437   */\n      slt\n        /* \"#utility.yul\":1402:1454   */\n      iszero\n      tag_67\n      jumpi\n        /* \"#utility.yul\":1450:1451   */\n      0x00\n        /* \"#utility.yul\":1447:1448   */\n      dup1\n        /* \"#utility.yul\":1440:1452   */\n      revert\n        /* \"#utility.yul\":1402:1454   */\n    tag_67:\n      pop\n        /* \"#utility.yul\":1473:1496   */\n      calldataload\n      swap2\n        /* \"#utility.yul\":1322:1502   */\n      swap1\n      pop\n      jump\t// out\n        /* \"#utility.yul\":1507:1634   */\n    tag_52:\n        /* \"#utility.yul\":1568:1578   */\n      0x4e487b71\n        /* \"#utility.yul\":1563:1566   */\n      0xe0\n        /* \"#utility.yul\":1559:1579   */\n      shl\n        /* \"#utility.yul\":1556:1557   */\n      0x00\n        /* \"#utility.yul\":1549:1580   */\n      mstore\n        /* \"#utility.yul\":1599:1603   */\n      0x41\n        /* \"#utility.yul\":1596:1597   */\n      0x04\n        /* \"#utility.yul\":1589:1604   */\n      mstore\n        /* \"#utility.yul\":1623:1627   */\n      0x24\n        /* \"#utility.yul\":1620:1621   */\n      0x00\n        /* \"#utility.yul\":1613:1628   */\n      revert\n        /* \"#utility.yul\":1639:2358   */\n    tag_53:\n        /* \"#utility.yul\":1682:1687   */\n      0x00\n        /* \"#utility.yul\":1735:1738   */\n      dup3\n        /* \"#utility.yul\":1728:1732   */\n      0x1f\n        /* \"#utility.yul\":1720:1726   */\n      dup4\n        /* \"#utility.yul\":1716:1733   */\n      add\n        /* \"#utility.yul\":1712:1739   */\n      slt\n        /* \"#utility.yul\":1702:1757   */\n      tag_70\n      jumpi\n        /* \"#utility.yul\":1753:1754   */\n      0x00\n        /* \"#utility.yul\":1750:1751   */\n      dup1\n        /* \"#utility.yul\":1743:1755   */\n      revert\n        /* \"#utility.yul\":1702:1757   */\n    tag_70:\n        /* \"#utility.yul\":1776:1796   */\n      dup2\n      calldataload\n      sub(shl(0x40, 0x01), 0x01)\n        /* \"#utility.yul\":1845:1855   */\n      dup1\n      dup3\n      gt\n        /* \"#utility.yul\":1842:1878   */\n      iszero\n      tag_72\n      jumpi\n        /* \"#utility.yul\":1858:1876   */\n      tag_72\n      tag_52\n      jump\t// in\n    tag_72:\n        /* \"#utility.yul\":1933:1935   */\n      0x40\n        /* \"#utility.yul\":1927:1936   */\n      mload\n        /* \"#utility.yul\":1901:1903   */\n      0x1f\n        /* \"#utility.yul\":1987:2000   */\n      dup4\n      add\n      not(0x1f)\n        /* \"#utility.yul\":1983:2005   */\n      swap1\n      dup2\n      and\n        /* \"#utility.yul\":2007:2009   */\n      0x3f\n        /* \"#utility.yul\":1979:2010   */\n      add\n        /* \"#utility.yul\":1975:2015   */\n      and\n        /* \"#utility.yul\":1963:2016   */\n      dup2\n      add\n      swap1\n        /* \"#utility.yul\":2031:2049   */\n      dup3\n      dup3\n      gt\n        /* \"#utility.yul\":2051:2073   */\n      dup2\n      dup4\n      lt\n        /* \"#utility.yul\":2028:2074   */\n      or\n        /* \"#utility.yul\":2025:2097   */\n      iszero\n      tag_74\n      jumpi\n        /* \"#utility.yul\":2077:2095   */\n      tag_74\n      tag_52\n      jump\t// in\n    tag_74:\n        /* \"#utility.yul\":2117:2127   */\n      dup2\n        /* \"#utility.yul\":2113:2115   */\n      0x40\n        /* \"#utility.yul\":2106:2128   */\n      mstore\n        /* \"#utility.yul\":2152:2154   */\n      dup4\n        /* \"#utility.yul\":2144:2150   */\n      dup2\n        /* \"#utility.yul\":2137:2155   */\n      mstore\n        /* \"#utility.yul\":2198:2201   */\n      dup7\n        /* \"#utility.yul\":2191:2195   */\n      0x20\n        /* \"#utility.yul\":2186:2188   */\n      dup6\n        /* \"#utility.yul\":2178:2184   */\n      dup9\n        /* \"#utility.yul\":2174:2189   */\n      add\n        /* \"#utility.yul\":2170:2196   */\n      add\n        /* \"#utility.yul\":2167:2202   */\n      gt\n        /* \"#utility.yul\":2164:2219   */\n      iszero\n      tag_75\n      jumpi\n        /* \"#utility.yul\":2215:2216   */\n      0x00\n        /* \"#utility.yul\":2212:2213   */\n      dup1\n        /* \"#utility.yul\":2205:2217   */\n      revert\n        /* \"#utility.yul\":2164:2219   */\n    tag_75:\n        /* \"#utility.yul\":2279:2281   */\n      dup4\n        /* \"#utility.yul\":2272:2276   */\n      0x20\n        /* \"#utility.yul\":2264:2270   */\n      dup8\n        /* \"#utility.yul\":2260:2277   */\n      add\n        /* \"#utility.yul\":2253:2257   */\n      0x20\n        /* \"#utility.yul\":2245:2251   */\n      dup4\n        /* \"#utility.yul\":2241:2258   */\n      add\n        /* \"#utility.yul\":2228:2282   */\n      calldatacopy\n        /* \"#utility.yul\":2326:2327   */\n      0x00\n        /* \"#utility.yul\":2319:2323   */\n      0x20\n        /* \"#utility.yul\":2314:2316   */\n      dup6\n        /* \"#utility.yul\":2306:2312   */\n      dup4\n        /* \"#utility.yul\":2302:2317   */\n      add\n        /* \"#utility.yul\":2298:2324   */\n      add\n        /* \"#utility.yul\":2291:2328   */\n      mstore\n        /* \"#utility.yul\":2346:2352   */\n      dup1\n        /* \"#utility.yul\":2337:2352   */\n      swap5\n      pop\n      pop\n      pop\n      pop\n      pop\n        /* \"#utility.yul\":1639:2358   */\n      swap3\n      swap2\n      pop\n      pop\n      jump\t// out\n        /* \"#utility.yul\":2363:3388   */\n    tag_25:\n        /* \"#utility.yul\":2506:2512   */\n      0x00\n        /* \"#utility.yul\":2514:2520   */\n      dup1\n        /* \"#utility.yul\":2522:2528   */\n      0x00\n        /* \"#utility.yul\":2530:2536   */\n      dup1\n        /* \"#utility.yul\":2538:2544   */\n      0x00\n        /* \"#utility.yul\":2546:2552   */\n      dup1\n        /* \"#utility.yul\":2554:2560   */\n      0x00\n        /* \"#utility.yul\":2607:2610   */\n      0xe0\n        /* \"#utility.yul\":2595:2604   */\n      dup9\n        /* \"#utility.yul\":2586:2593   */\n      dup11\n        /* \"#utility.yul\":2582:2605   */\n      sub\n        /* \"#utility.yul\":2578:2611   */\n      slt\n        /* \"#utility.yul\":2575:2628   */\n      iszero\n      tag_77\n      jumpi\n        /* \"#utility.yul\":2624:2625   */\n      0x00\n        /* \"#utility.yul\":2621:2622   */\n      dup1\n        /* \"#utility.yul\":2614:2626   */\n      revert\n        /* \"#utility.yul\":2575:2628   */\n    tag_77:\n        /* \"#utility.yul\":2647:2676   */\n      tag_78\n        /* \"#utility.yul\":2666:2675   */\n      dup9\n        /* \"#utility.yul\":2647:2676   */\n      tag_51\n      jump\t// in\n    tag_78:\n        /* \"#utility.yul\":2637:2676   */\n      swap7\n      pop\n        /* \"#utility.yul\":2727:2729   */\n      0x20\n        /* \"#utility.yul\":2712:2730   */\n      dup9\n      add\n        /* \"#utility.yul\":2699:2731   */\n      calldataload\n      sub(shl(0x40, 0x01), 0x01)\n        /* \"#utility.yul\":2780:2794   */\n      dup1\n      dup3\n      gt\n        /* \"#utility.yul\":2777:2811   */\n      iszero\n      tag_79\n      jumpi\n        /* \"#utility.yul\":2807:2808   */\n      0x00\n        /* \"#utility.yul\":2804:2805   */\n      dup1\n        /* \"#utility.yul\":2797:2809   */\n      revert\n        /* \"#utility.yul\":2777:2811   */\n    tag_79:\n        /* \"#utility.yul\":2830:2880   */\n      tag_80\n        /* \"#utility.yul\":2872:2879   */\n      dup12\n        /* \"#utility.yul\":2863:2869   */\n      dup4\n        /* \"#utility.yul\":2852:2861   */\n      dup13\n        /* \"#utility.yul\":2848:2870   */\n      add\n        /* \"#utility.yul\":2830:2880   */\n      tag_53\n      jump\t// in\n    tag_80:\n        /* \"#utility.yul\":2820:2880   */\n      swap8\n      pop\n        /* \"#utility.yul\":2927:2929   */\n      0x40\n        /* \"#utility.yul\":2916:2925   */\n      dup11\n        /* \"#utility.yul\":2912:2930   */\n      add\n        /* \"#utility.yul\":2899:2931   */\n      calldataload\n        /* \"#utility.yul\":2889:2931   */\n      swap7\n      pop\n        /* \"#utility.yul\":2978:2980   */\n      0x60\n        /* \"#utility.yul\":2967:2976   */\n      dup11\n        /* \"#utility.yul\":2963:2981   */\n      add\n        /* \"#utility.yul\":2950:2982   */\n      calldataload\n        /* \"#utility.yul\":2940:2982   */\n      swap6\n      pop\n        /* \"#utility.yul\":3029:3032   */\n      0x80\n        /* \"#utility.yul\":3018:3027   */\n      dup11\n        /* \"#utility.yul\":3014:3033   */\n      add\n        /* \"#utility.yul\":3001:3034   */\n      calldataload\n        /* \"#utility.yul\":2991:3034   */\n      swap5\n      pop\n        /* \"#utility.yul\":3087:3090   */\n      0xa0\n        /* \"#utility.yul\":3076:3085   */\n      dup11\n        /* \"#utility.yul\":3072:3091   */\n      add\n        /* \"#utility.yul\":3059:3092   */\n      calldataload\n        /* \"#utility.yul\":3043:3092   */\n      swap2\n      pop\n        /* \"#utility.yul\":3117:3119   */\n      dup1\n        /* \"#utility.yul\":3107:3115   */\n      dup3\n        /* \"#utility.yul\":3104:3120   */\n      gt\n        /* \"#utility.yul\":3101:3137   */\n      iszero\n      tag_81\n      jumpi\n        /* \"#utility.yul\":3133:3134   */\n      0x00\n        /* \"#utility.yul\":3130:3131   */\n      dup1\n        /* \"#utility.yul\":3123:3135   */\n      revert\n        /* \"#utility.yul\":3101:3137   */\n    tag_81:\n        /* \"#utility.yul\":3156:3208   */\n      tag_82\n        /* \"#utility.yul\":3200:3207   */\n      dup12\n        /* \"#utility.yul\":3189:3197   */\n      dup4\n        /* \"#utility.yul\":3178:3187   */\n      dup13\n        /* \"#utility.yul\":3174:3198   */\n      add\n        /* \"#utility.yul\":3156:3208   */\n      tag_53\n      jump\t// in\n    tag_82:\n        /* \"#utility.yul\":3146:3208   */\n      swap4\n      pop\n        /* \"#utility.yul\":3261:3264   */\n      0xc0\n        /* \"#utility.yul\":3250:3259   */\n      dup11\n        /* \"#utility.yul\":3246:3265   */\n      add\n        /* \"#utility.yul\":3233:3266   */\n      calldataload\n        /* \"#utility.yul\":3217:3266   */\n      swap2\n      pop\n        /* \"#utility.yul\":3291:3293   */\n      dup1\n        /* \"#utility.yul\":3281:3289   */\n      dup3\n        /* \"#utility.yul\":3278:3294   */\n      gt\n        /* \"#utility.yul\":3275:3311   */\n      iszero\n      tag_83\n      jumpi\n        /* \"#utility.yul\":3307:3308   */\n      0x00\n        /* \"#utility.yul\":3304:3305   */\n      dup1\n        /* \"#utility.yul\":3297:3309   */\n      revert\n        /* \"#utility.yul\":3275:3311   */\n    tag_83:\n      pop\n        /* \"#utility.yul\":3330:3382   */\n      tag_84\n        /* \"#utility.yul\":3374:3381   */\n      dup11\n        /* \"#utility.yul\":3363:3371   */\n      dup3\n        /* \"#utility.yul\":3352:3361   */\n      dup12\n        /* \"#utility.yul\":3348:3372   */\n      add\n        /* \"#utility.yul\":3330:3382   */\n      tag_53\n      jump\t// in\n    tag_84:\n        /* \"#utility.yul\":3320:3382   */\n      swap2\n      pop\n      pop\n        /* \"#utility.yul\":2363:3388   */\n      swap3\n      swap6\n      swap9\n      swap2\n      swap5\n      swap8\n      pop\n      swap3\n      swap6\n      pop\n      jump\t// out\n        /* \"#utility.yul\":3393:3615   */\n    tag_39:\n        /* \"#utility.yul\":3458:3467   */\n      dup1\n      dup3\n      add\n        /* \"#utility.yul\":3479:3489   */\n      dup1\n      dup3\n      gt\n        /* \"#utility.yul\":3476:3609   */\n      iszero\n      tag_86\n      jumpi\n        /* \"#utility.yul\":3531:3541   */\n      0x4e487b71\n        /* \"#utility.yul\":3526:3529   */\n      0xe0\n        /* \"#utility.yul\":3522:3542   */\n      shl\n        /* \"#utility.yul\":3519:3520   */\n      0x00\n        /* \"#utility.yul\":3512:3543   */\n      mstore\n        /* \"#utility.yul\":3566:3570   */\n      0x11\n        /* \"#utility.yul\":3563:3564   */\n      0x04\n        /* \"#utility.yul\":3556:3571   */\n      mstore\n        /* \"#utility.yul\":3594:3598   */\n      0x24\n        /* \"#utility.yul\":3591:3592   */\n      0x00\n        /* \"#utility.yul\":3584:3599   */\n      revert\n        /* \"#utility.yul\":3476:3609   */\n    tag_86:\n        /* \"#utility.yul\":3393:3615   */\n      swap3\n      swap2\n      pop\n      pop\n      jump\t// out\n        /* \"#utility.yul\":3620:4043   */\n    tag_54:\n        /* \"#utility.yul\":3662:3665   */\n      0x00\n        /* \"#utility.yul\":3700:3705   */\n      dup2\n        /* \"#utility.yul\":3694:3706   */\n      mload\n        /* \"#utility.yul\":3727:3733   */\n      dup1\n        /* \"#utility.yul\":3722:3725   */\n      dup5\n        /* \"#utility.yul\":3715:3734   */\n      mstore\n        /* \"#utility.yul\":3752:3753   */\n      0x00\n        /* \"#utility.yul\":3762:3924   */\n    tag_88:\n        /* \"#utility.yul\":3776:3782   */\n      dup2\n        /* \"#utility.yul\":3773:3774   */\n      dup2\n        /* \"#utility.yul\":3770:3783   */\n      lt\n        /* \"#utility.yul\":3762:3924   */\n      iszero\n      tag_90\n      jumpi\n        /* \"#utility.yul\":3838:3842   */\n      0x20\n        /* \"#utility.yul\":3894:3907   */\n      dup2\n      dup6\n      add\n        /* \"#utility.yul\":3890:3912   */\n      dup2\n      add\n        /* \"#utility.yul\":3884:3913   */\n      mload\n        /* \"#utility.yul\":3866:3877   */\n      dup7\n      dup4\n      add\n        /* \"#utility.yul\":3862:3882   */\n      dup3\n      add\n        /* \"#utility.yul\":3855:3914   */\n      mstore\n        /* \"#utility.yul\":3791:3803   */\n      add\n        /* \"#utility.yul\":3762:3924   */\n      jump(tag_88)\n    tag_90:\n        /* \"#utility.yul\":3766:3769   */\n      pop\n        /* \"#utility.yul\":3969:3970   */\n      0x00\n        /* \"#utility.yul\":3962:3966   */\n      0x20\n        /* \"#utility.yul\":3953:3959   */\n      dup3\n        /* \"#utility.yul\":3948:3951   */\n      dup7\n        /* \"#utility.yul\":3944:3960   */\n      add\n        /* \"#utility.yul\":3940:3967   */\n      add\n        /* \"#utility.yul\":3933:3971   */\n      mstore\n        /* \"#utility.yul\":4032:4036   */\n      0x20\n        /* \"#utility.yul\":4025:4027   */\n      0x1f\n        /* \"#utility.yul\":4021:4028   */\n      not\n        /* \"#utility.yul\":4016:4018   */\n      0x1f\n        /* \"#utility.yul\":4008:4014   */\n      dup4\n        /* \"#utility.yul\":4004:4019   */\n      add\n        /* \"#utility.yul\":4000:4029   */\n      and\n        /* \"#utility.yul\":3995:3998   */\n      dup6\n        /* \"#utility.yul\":3991:4030   */\n      add\n        /* \"#utility.yul\":3987:4037   */\n      add\n        /* \"#utility.yul\":3980:4037   */\n      swap2\n      pop\n      pop\n        /* \"#utility.yul\":3620:4043   */\n      swap3\n      swap2\n      pop\n      pop\n      jump\t// out\n        /* \"#utility.yul\":4048:5103   */\n    tag_43:\n        /* \"#utility.yul\":4465:4490   */\n      dup10\n      dup2\n      mstore\n      sub(shl(0xa0, 0x01), 0x01)\n        /* \"#utility.yul\":4564:4579   */\n      dup10\n      dup2\n      and\n        /* \"#utility.yul\":4559:4561   */\n      0x20\n        /* \"#utility.yul\":4544:4562   */\n      dup4\n      add\n        /* \"#utility.yul\":4537:4580   */\n      mstore\n        /* \"#utility.yul\":4616:4631   */\n      dup9\n      and\n        /* \"#utility.yul\":4611:4613   */\n      0x40\n        /* \"#utility.yul\":4596:4614   */\n      dup3\n      add\n        /* \"#utility.yul\":4589:4632   */\n      mstore\n        /* \"#utility.yul\":4453:4456   */\n      0x0120\n        /* \"#utility.yul\":4663:4665   */\n      0x60\n        /* \"#utility.yul\":4648:4666   */\n      dup3\n      add\n        /* \"#utility.yul\":4641:4671   */\n      dup2\n      swap1\n      mstore\n        /* \"#utility.yul\":4424:4428   */\n      0x00\n      swap1\n        /* \"#utility.yul\":4694:4739   */\n      tag_92\n        /* \"#utility.yul\":4720:4738   */\n      dup4\n      dup3\n      add\n        /* \"#utility.yul\":4712:4718   */\n      dup11\n        /* \"#utility.yul\":4694:4739   */\n      tag_54\n      jump\t// in\n    tag_92:\n        /* \"#utility.yul\":4680:4739   */\n      swap1\n      pop\n        /* \"#utility.yul\":4776:4782   */\n      dup8\n        /* \"#utility.yul\":4770:4773   */\n      0x80\n        /* \"#utility.yul\":4759:4768   */\n      dup5\n        /* \"#utility.yul\":4755:4774   */\n      add\n        /* \"#utility.yul\":4748:4783   */\n      mstore\n        /* \"#utility.yul\":4820:4826   */\n      dup7\n        /* \"#utility.yul\":4814:4817   */\n      0xa0\n        /* \"#utility.yul\":4803:4812   */\n      dup5\n        /* \"#utility.yul\":4799:4818   */\n      add\n        /* \"#utility.yul\":4792:4827   */\n      mstore\n        /* \"#utility.yul\":4864:4870   */\n      dup6\n        /* \"#utility.yul\":4858:4861   */\n      0xc0\n        /* \"#utility.yul\":4847:4856   */\n      dup5\n        /* \"#utility.yul\":4843:4862   */\n      add\n        /* \"#utility.yul\":4836:4871   */\n      mstore\n        /* \"#utility.yul\":4920:4929   */\n      dup3\n        /* \"#utility.yul\":4912:4918   */\n      dup2\n        /* \"#utility.yul\":4908:4930   */\n      sub\n        /* \"#utility.yul\":4902:4905   */\n      0xe0\n        /* \"#utility.yul\":4891:4900   */\n      dup5\n        /* \"#utility.yul\":4887:4906   */\n      add\n        /* \"#utility.yul\":4880:4931   */\n      mstore\n        /* \"#utility.yul\":4954:4987   */\n      tag_93\n        /* \"#utility.yul\":4980:4986   */\n      dup2\n        /* \"#utility.yul\":4972:4978   */\n      dup7\n        /* \"#utility.yul\":4954:4987   */\n      tag_54\n      jump\t// in\n    tag_93:\n        /* \"#utility.yul\":4940:4987   */\n      swap1\n      pop\n        /* \"#utility.yul\":5036:5045   */\n      dup3\n        /* \"#utility.yul\":5028:5034   */\n      dup2\n        /* \"#utility.yul\":5024:5046   */\n      sub\n        /* \"#utility.yul\":5018:5021   */\n      0x0100\n        /* \"#utility.yul\":5007:5016   */\n      dup5\n        /* \"#utility.yul\":5003:5022   */\n      add\n        /* \"#utility.yul\":4996:5047   */\n      mstore\n        /* \"#utility.yul\":5064:5097   */\n      tag_94\n        /* \"#utility.yul\":5090:5096   */\n      dup2\n        /* \"#utility.yul\":5082:5088   */\n      dup6\n        /* \"#utility.yul\":5064:5097   */\n      tag_54\n      jump\t// in\n    tag_94:\n        /* \"#utility.yul\":5056:5097   */\n      swap13\n        /* \"#utility.yul\":4048:5103   */\n      swap12\n      pop\n      pop\n      pop\n      pop\n      pop\n      pop\n      pop\n      pop\n      pop\n      pop\n      pop\n      pop\n      jump\t// out\n    stop\n\n    sub_0: assembly {\n            /* \"Project.sol\":172:8265  contract Project {... */\n          mstore(0x40, 0x80)\n            /* \"Project.sol\":757:1504  constructor(... */\n          callvalue\n          dup1\n          iszero\n          tag_1\n          jumpi\n          0x00\n          dup1\n          revert\n        tag_1:\n          pop\n          mload(0x40)\n          sub(codesize, bytecodeSize)\n          dup1\n          bytecodeSize\n          dup4\n          codecopy\n          dup2\n          add\n          0x40\n          dup2\n          swap1\n          mstore\n          tag_2\n          swap2\n          tag_3\n          jump\t// in\n        tag_2:\n            /* \"Project.sol\":1052:1054  id */\n          0x00\n            /* \"Project.sol\":1052:1060  id = _id */\n          dup10\n          swap1\n          sstore\n            /* \"Project.sol\":1070:1075  owner */\n          0x01\n            /* \"Project.sol\":1070:1084  owner = _owner */\n          dup1\n          sload\n          not(sub(shl(0xa0, 0x01), 0x01))\n          and\n          sub(shl(0xa0, 0x01), 0x01)\n          dup11\n          and\n          or\n          swap1\n          sstore\n            /* \"Project.sol\":1094:1097  cid */\n          0x03\n            /* \"Project.sol\":1094:1104  cid = _cid */\n          tag_6\n            /* \"Project.sol\":1100:1104  _cid */\n          dup8\n            /* \"Project.sol\":1094:1097  cid */\n          dup3\n            /* \"Project.sol\":1094:1104  cid = _cid */\n          tag_7\n          jump\t// in\n        tag_6:\n          pop\n            /* \"Project.sol\":1114:1133  minimumContribution */\n          0x04\n            /* \"Project.sol\":1114:1156  minimumContribution = _minimumContribution */\n          dup6\n          swap1\n          sstore\n            /* \"Project.sol\":1166:1184  targetContribution */\n          0x05\n            /* \"Project.sol\":1166:1206  targetContribution = _targetContribution */\n          dup5\n          swap1\n          sstore\n            /* \"Project.sol\":1216:1224  deadline */\n          0x06\n            /* \"Project.sol\":1216:1236  deadline = _deadline */\n          dup4\n          swap1\n          sstore\n            /* \"Project.sol\":1246:1255  recipient */\n          0x02\n            /* \"Project.sol\":1246:1277  recipient = payable(_recipient) */\n          dup1\n          sload\n          not(sub(shl(0xa0, 0x01), 0x01))\n          and\n          sub(shl(0xa0, 0x01), 0x01)\n          dup10\n          and\n          or\n          swap1\n          sstore\n          0x00\n            /* \"Project.sol\":1405:1407  id */\n          sload\n            /* \"Project.sol\":1330:1334  this */\n          address\n          swap1\n            /* \"Project.sol\":1373:1386  nftNamePrefix */\n          dup4\n          swap1\n            /* \"Project.sol\":1388:1408  Strings.toString(id) */\n          tag_8\n          swap1\n            /* \"Project.sol\":1388:1404  Strings.toString */\n          tag_9\n            /* \"Project.sol\":1388:1408  Strings.toString(id) */\n          jump\t// in\n        tag_8:\n            /* \"Project.sol\":1356:1409  abi.encodePacked(nftNamePrefix, Strings.toString(id)) */\n          add(0x20, mload(0x40))\n          tag_10\n          swap3\n          swap2\n          swap1\n          tag_11\n          jump\t// in\n        tag_10:\n          mload(0x40)\n          0x20\n          dup2\n          dup4\n          sub\n          sub\n          dup2\n          mstore\n          swap1\n          0x40\n          mstore\n            /* \"Project.sol\":1448:1463  nftSymbolPrefix */\n          dup3\n            /* \"Project.sol\":1465:1485  Strings.toString(id) */\n          tag_12\n            /* \"Project.sol\":1482:1484  id */\n          sload(0x00)\n            /* \"Project.sol\":1465:1481  Strings.toString */\n          shl(0x20, tag_9)\n            /* \"Project.sol\":1465:1485  Strings.toString(id) */\n          0x20\n          shr\n          jump\t// in\n        tag_12:\n            /* \"Project.sol\":1431:1486  abi.encodePacked(nftSymbolPrefix, Strings.toString(id)) */\n          add(0x20, mload(0x40))\n          tag_13\n          swap3\n          swap2\n          swap1\n          tag_11\n          jump\t// in\n        tag_13:\n          mload(0x40)\n          0x20\n          dup2\n          dup4\n          sub\n          sub\n          dup2\n          mstore\n          swap1\n          0x40\n          mstore\n            /* \"Project.sol\":1294:1497  new ProjectNFT(... */\n          mload(0x40)\n          tag_14\n          swap1\n          tag_15\n          jump\t// in\n        tag_14:\n          tag_16\n          swap4\n          swap3\n          swap2\n          swap1\n          tag_17\n          jump\t// in\n        tag_16:\n          mload(0x40)\n          dup1\n          swap2\n          sub\n          swap1\n          0x00\n          create\n          dup1\n          iszero\n          dup1\n          iszero\n          tag_18\n          jumpi\n          returndatasize\n          0x00\n          dup1\n          returndatacopy\n          revert(0x00, returndatasize)\n        tag_18:\n          pop\n            /* \"Project.sol\":1288:1291  nft */\n          0x12\n            /* \"Project.sol\":1288:1497  nft = new ProjectNFT(... */\n          dup1\n          sload\n          not(sub(shl(0xa0, 0x01), 0x01))\n          and\n          sub(shl(0xa0, 0x01), 0x01)\n          swap3\n          swap1\n          swap3\n          and\n          swap2\n          swap1\n          swap2\n          or\n          swap1\n          sstore\n          pop\n            /* \"Project.sol\":172:8265  contract Project {... */\n          tag_61\n          swap8\n          pop\n          pop\n          pop\n          pop\n          pop\n          pop\n          pop\n          pop\n          jump\n            /* \"@openzeppelin/contracts/utils/Strings.sol\":637:1335  function toString(uint256 value) internal pure returns (string memory) {... */\n        tag_9:\n            /* \"@openzeppelin/contracts/utils/Strings.sol\":693:706  string memory */\n          0x60\n            /* \"@openzeppelin/contracts/utils/Strings.sol\":742:756  uint256 length */\n          0x00\n            /* \"@openzeppelin/contracts/utils/Strings.sol\":759:776  Math.log10(value) */\n          tag_21\n            /* \"@openzeppelin/contracts/utils/Strings.sol\":770:775  value */\n          dup4\n            /* \"@openzeppelin/contracts/utils/Strings.sol\":759:769  Math.log10 */\n          tag_22\n            /* \"@openzeppelin/contracts/utils/Strings.sol\":759:776  Math.log10(value) */\n          jump\t// in\n        tag_21:\n            /* \"@openzeppelin/contracts/utils/Strings.sol\":779:780  1 */\n          0x01\n            /* \"@openzeppelin/contracts/utils/Strings.sol\":759:780  Math.log10(value) + 1 */\n          add\n            /* \"@openzeppelin/contracts/utils/Strings.sol\":742:780  uint256 length = Math.log10(value) + 1 */\n          swap1\n          pop\n            /* \"@openzeppelin/contracts/utils/Strings.sol\":794:814  string memory buffer */\n          0x00\n            /* \"@openzeppelin/contracts/utils/Strings.sol\":828:834  length */\n          dup2\n          sub(shl(0x40, 0x01), 0x01)\n            /* \"@openzeppelin/contracts/utils/Strings.sol\":817:835  new string(length) */\n          dup2\n          gt\n          iszero\n          tag_24\n          jumpi\n          tag_24\n          tag_25\n          jump\t// in\n        tag_24:\n          mload(0x40)\n          swap1\n          dup1\n          dup3\n          mstore\n          dup1\n          0x1f\n          add\n          not(0x1f)\n          and\n          0x20\n          add\n          dup3\n          add\n          0x40\n          mstore\n          dup1\n          iszero\n          tag_26\n          jumpi\n          0x20\n          dup3\n          add\n          dup2\n          dup1\n          calldatasize\n          dup4\n          calldatacopy\n          add\n          swap1\n          pop\n        tag_26:\n          pop\n            /* \"@openzeppelin/contracts/utils/Strings.sol\":794:835  string memory buffer = new string(length) */\n          swap1\n          pop\n            /* \"@openzeppelin/contracts/utils/Strings.sol\":955:983  add(buffer, add(32, length)) */\n          dup2\n          dup2\n          add\n            /* \"@openzeppelin/contracts/utils/Strings.sol\":971:973  32 */\n          0x20\n            /* \"@openzeppelin/contracts/utils/Strings.sol\":955:983  add(buffer, add(32, length)) */\n          add\n            /* \"@openzeppelin/contracts/utils/Strings.sol\":1010:1292  while (true) {... */\n        tag_27:\n          not(0x00)\n            /* \"@openzeppelin/contracts/utils/Strings.sol\":1041:1046  ptr-- */\n          add\n          shl(0x81, 0x181899199a1a9b1b9c1cb0b131b232b3)\n            /* \"@openzeppelin/contracts/utils/Strings.sol\":1175:1177  10 */\n          0x0a\n            /* \"@openzeppelin/contracts/utils/Strings.sol\":1164:1178  mod(value, 10) */\n          dup7\n          mod\n            /* \"@openzeppelin/contracts/utils/Strings.sol\":1159:1191  byte(mod(value, 10), HEX_DIGITS) */\n          byte\n            /* \"@openzeppelin/contracts/utils/Strings.sol\":1041:1046  ptr-- */\n          dup2\n            /* \"@openzeppelin/contracts/utils/Strings.sol\":1146:1192  mstore8(ptr, byte(mod(value, 10), HEX_DIGITS)) */\n          mstore8\n            /* \"@openzeppelin/contracts/utils/Strings.sol\":1236:1238  10 */\n          0x0a\n            /* \"@openzeppelin/contracts/utils/Strings.sol\":1227:1238  value /= 10 */\n          dup6\n          div\n          swap5\n          pop\n            /* \"@openzeppelin/contracts/utils/Strings.sol\":1256:1277  if (value == 0) break */\n          dup5\n            /* \"@openzeppelin/contracts/utils/Strings.sol\":1010:1292  while (true) {... */\n          tag_27\n            /* \"@openzeppelin/contracts/utils/Strings.sol\":1256:1277  if (value == 0) break */\n          jumpi\n          pop\n            /* \"@openzeppelin/contracts/utils/Strings.sol\":1312:1318  buffer */\n          swap4\n            /* \"@openzeppelin/contracts/utils/Strings.sol\":637:1335  function toString(uint256 value) internal pure returns (string memory) {... */\n          swap3\n          pop\n          pop\n          pop\n          jump\t// out\n            /* \"@openzeppelin/contracts/utils/math/Math.sol\":12214:13130  function log10(uint256 value) internal pure returns (uint256) {... */\n        tag_22:\n            /* \"@openzeppelin/contracts/utils/math/Math.sol\":12267:12274  uint256 */\n          0x00\n          dup1\n            /* \"@openzeppelin/contracts/utils/math/Math.sol\":12351:12359  10 ** 64 */\n          0x184f03e93ff9f4daa797ed6e38ed64bf6a1f010000000000000000\n            /* \"@openzeppelin/contracts/utils/math/Math.sol\":12342:12359  value >= 10 ** 64 */\n          dup4\n          lt\n            /* \"@openzeppelin/contracts/utils/math/Math.sol\":12338:12441  if (value >= 10 ** 64) {... */\n          tag_34\n          jumpi\n            /* \"@openzeppelin/contracts/utils/math/Math.sol\":12388:12396  10 ** 64 */\n          0x184f03e93ff9f4daa797ed6e38ed64bf6a1f010000000000000000\n            /* \"@openzeppelin/contracts/utils/math/Math.sol\":12379:12396  value /= 10 ** 64 */\n          dup4\n          div\n          swap3\n          pop\n            /* \"@openzeppelin/contracts/utils/math/Math.sol\":12424:12426  64 */\n          0x40\n            /* \"@openzeppelin/contracts/utils/math/Math.sol\":12414:12426  result += 64 */\n          add\n            /* \"@openzeppelin/contracts/utils/math/Math.sol\":12338:12441  if (value >= 10 ** 64) {... */\n        tag_34:\n            /* \"@openzeppelin/contracts/utils/math/Math.sol\":12467:12475  10 ** 32 */\n          0x04ee2d6d415b85acef8100000000\n            /* \"@openzeppelin/contracts/utils/math/Math.sol\":12458:12463  value */\n          dup4\n            /* \"@openzeppelin/contracts/utils/math/Math.sol\":12458:12475  value >= 10 ** 32 */\n          lt\n            /* \"@openzeppelin/contracts/utils/math/Math.sol\":12454:12557  if (value >= 10 ** 32) {... */\n          tag_37\n          jumpi\n            /* \"@openzeppelin/contracts/utils/math/Math.sol\":12504:12512  10 ** 32 */\n          0x04ee2d6d415b85acef8100000000\n            /* \"@openzeppelin/contracts/utils/math/Math.sol\":12495:12512  value /= 10 ** 32 */\n          dup4\n          div\n          swap3\n          pop\n            /* \"@openzeppelin/contracts/utils/math/Math.sol\":12540:12542  32 */\n          0x20\n            /* \"@openzeppelin/contracts/utils/math/Math.sol\":12530:12542  result += 32 */\n          add\n            /* \"@openzeppelin/contracts/utils/math/Math.sol\":12454:12557  if (value >= 10 ** 32) {... */\n        tag_37:\n            /* \"@openzeppelin/contracts/utils/math/Math.sol\":12583:12591  10 ** 16 */\n          0x2386f26fc10000\n            /* \"@openzeppelin/contracts/utils/math/Math.sol\":12574:12579  value */\n          dup4\n            /* \"@openzeppelin/contracts/utils/math/Math.sol\":12574:12591  value >= 10 ** 16 */\n          lt\n            /* \"@openzeppelin/contracts/utils/math/Math.sol\":12570:12673  if (value >= 10 ** 16) {... */\n          tag_40\n          jumpi\n            /* \"@openzeppelin/contracts/utils/math/Math.sol\":12620:12628  10 ** 16 */\n          0x2386f26fc10000\n            /* \"@openzeppelin/contracts/utils/math/Math.sol\":12611:12628  value /= 10 ** 16 */\n          dup4\n          div\n          swap3\n          pop\n            /* \"@openzeppelin/contracts/utils/math/Math.sol\":12656:12658  16 */\n          0x10\n            /* \"@openzeppelin/contracts/utils/math/Math.sol\":12646:12658  result += 16 */\n          add\n            /* \"@openzeppelin/contracts/utils/math/Math.sol\":12570:12673  if (value >= 10 ** 16) {... */\n        tag_40:\n            /* \"@openzeppelin/contracts/utils/math/Math.sol\":12699:12706  10 ** 8 */\n          0x05f5e100\n            /* \"@openzeppelin/contracts/utils/math/Math.sol\":12690:12695  value */\n          dup4\n            /* \"@openzeppelin/contracts/utils/math/Math.sol\":12690:12706  value >= 10 ** 8 */\n          lt\n            /* \"@openzeppelin/contracts/utils/math/Math.sol\":12686:12786  if (value >= 10 ** 8) {... */\n          tag_43\n          jumpi\n            /* \"@openzeppelin/contracts/utils/math/Math.sol\":12735:12742  10 ** 8 */\n          0x05f5e100\n            /* \"@openzeppelin/contracts/utils/math/Math.sol\":12726:12742  value /= 10 ** 8 */\n          dup4\n          div\n          swap3\n          pop\n            /* \"@openzeppelin/contracts/utils/math/Math.sol\":12770:12771  8 */\n          0x08\n            /* \"@openzeppelin/contracts/utils/math/Math.sol\":12760:12771  result += 8 */\n          add\n            /* \"@openzeppelin/contracts/utils/math/Math.sol\":12686:12786  if (value >= 10 ** 8) {... */\n        tag_43:\n            /* \"@openzeppelin/contracts/utils/math/Math.sol\":12812:12819  10 ** 4 */\n          0x2710\n            /* \"@openzeppelin/contracts/utils/math/Math.sol\":12803:12808  value */\n          dup4\n            /* \"@openzeppelin/contracts/utils/math/Math.sol\":12803:12819  value >= 10 ** 4 */\n          lt\n            /* \"@openzeppelin/contracts/utils/math/Math.sol\":12799:12899  if (value >= 10 ** 4) {... */\n          tag_46\n          jumpi\n            /* \"@openzeppelin/contracts/utils/math/Math.sol\":12848:12855  10 ** 4 */\n          0x2710\n            /* \"@openzeppelin/contracts/utils/math/Math.sol\":12839:12855  value /= 10 ** 4 */\n          dup4\n          div\n          swap3\n          pop\n            /* \"@openzeppelin/contracts/utils/math/Math.sol\":12883:12884  4 */\n          0x04\n            /* \"@openzeppelin/contracts/utils/math/Math.sol\":12873:12884  result += 4 */\n          add\n            /* \"@openzeppelin/contracts/utils/math/Math.sol\":12799:12899  if (value >= 10 ** 4) {... */\n        tag_46:\n            /* \"@openzeppelin/contracts/utils/math/Math.sol\":12925:12932  10 ** 2 */\n          0x64\n            /* \"@openzeppelin/contracts/utils/math/Math.sol\":12916:12921  value */\n          dup4\n            /* \"@openzeppelin/contracts/utils/math/Math.sol\":12916:12932  value >= 10 ** 2 */\n          lt\n            /* \"@openzeppelin/contracts/utils/math/Math.sol\":12912:13012  if (value >= 10 ** 2) {... */\n          tag_49\n          jumpi\n            /* \"@openzeppelin/contracts/utils/math/Math.sol\":12961:12968  10 ** 2 */\n          0x64\n            /* \"@openzeppelin/contracts/utils/math/Math.sol\":12952:12968  value /= 10 ** 2 */\n          dup4\n          div\n          swap3\n          pop\n            /* \"@openzeppelin/contracts/utils/math/Math.sol\":12996:12997  2 */\n          0x02\n            /* \"@openzeppelin/contracts/utils/math/Math.sol\":12986:12997  result += 2 */\n          add\n            /* \"@openzeppelin/contracts/utils/math/Math.sol\":12912:13012  if (value >= 10 ** 2) {... */\n        tag_49:\n            /* \"@openzeppelin/contracts/utils/math/Math.sol\":13038:13045  10 ** 1 */\n          0x0a\n            /* \"@openzeppelin/contracts/utils/math/Math.sol\":13029:13034  value */\n          dup4\n            /* \"@openzeppelin/contracts/utils/math/Math.sol\":13029:13045  value >= 10 ** 1 */\n          lt\n            /* \"@openzeppelin/contracts/utils/math/Math.sol\":13025:13091  if (value >= 10 ** 1) {... */\n          tag_52\n          jumpi\n            /* \"@openzeppelin/contracts/utils/math/Math.sol\":13075:13076  1 */\n          0x01\n            /* \"@openzeppelin/contracts/utils/math/Math.sol\":13065:13076  result += 1 */\n          add\n            /* \"@openzeppelin/contracts/utils/math/Math.sol\":13025:13091  if (value >= 10 ** 1) {... */\n        tag_52:\n            /* \"@openzeppelin/contracts/utils/math/Math.sol\":13117:13123  result */\n          swap3\n            /* \"@openzeppelin/contracts/utils/math/Math.sol\":12214:13130  function log10(uint256 value) internal pure returns (uint256) {... */\n          swap2\n          pop\n          pop\n          jump\t// out\n            /* \"Project.sol\":172:8265  contract Project {... */\n        tag_15:\n          dataSize(sub_1)\n          dup1\n          dataOffset(sub_1)\n          dup4\n          codecopy\n          add\n          swap1\n          jump\t// out\n            /* \"#utility.yul\":14:191   */\n        tag_53:\n            /* \"#utility.yul\":93:106   */\n          dup1\n          mload\n          sub(shl(0xa0, 0x01), 0x01)\n            /* \"#utility.yul\":135:166   */\n          dup2\n          and\n            /* \"#utility.yul\":125:167   */\n          dup2\n          eq\n            /* \"#utility.yul\":115:185   */\n          tag_63\n          jumpi\n            /* \"#utility.yul\":181:182   */\n          0x00\n            /* \"#utility.yul\":178:179   */\n          dup1\n            /* \"#utility.yul\":171:183   */\n          revert\n            /* \"#utility.yul\":115:185   */\n        tag_63:\n            /* \"#utility.yul\":14:191   */\n          swap2\n          swap1\n          pop\n          jump\t// out\n            /* \"#utility.yul\":196:323   */\n        tag_25:\n            /* \"#utility.yul\":257:267   */\n          0x4e487b71\n            /* \"#utility.yul\":252:255   */\n          0xe0\n            /* \"#utility.yul\":248:268   */\n          shl\n            /* \"#utility.yul\":245:246   */\n          0x00\n            /* \"#utility.yul\":238:269   */\n          mstore\n            /* \"#utility.yul\":288:292   */\n          0x41\n            /* \"#utility.yul\":285:286   */\n          0x04\n            /* \"#utility.yul\":278:293   */\n          mstore\n            /* \"#utility.yul\":312:316   */\n          0x24\n            /* \"#utility.yul\":309:310   */\n          0x00\n            /* \"#utility.yul\":302:317   */\n          revert\n            /* \"#utility.yul\":328:578   */\n        tag_54:\n            /* \"#utility.yul\":413:414   */\n          0x00\n            /* \"#utility.yul\":423:536   */\n        tag_66:\n            /* \"#utility.yul\":437:443   */\n          dup4\n            /* \"#utility.yul\":434:435   */\n          dup2\n            /* \"#utility.yul\":431:444   */\n          lt\n            /* \"#utility.yul\":423:536   */\n          iszero\n          tag_68\n          jumpi\n            /* \"#utility.yul\":513:524   */\n          dup2\n          dup2\n          add\n            /* \"#utility.yul\":507:525   */\n          mload\n            /* \"#utility.yul\":494:505   */\n          dup4\n          dup3\n          add\n            /* \"#utility.yul\":487:526   */\n          mstore\n            /* \"#utility.yul\":459:461   */\n          0x20\n            /* \"#utility.yul\":452:462   */\n          add\n            /* \"#utility.yul\":423:536   */\n          jump(tag_66)\n        tag_68:\n          pop\n          pop\n            /* \"#utility.yul\":570:571   */\n          0x00\n            /* \"#utility.yul\":552:568   */\n          swap2\n          add\n            /* \"#utility.yul\":545:572   */\n          mstore\n            /* \"#utility.yul\":328:578   */\n          jump\t// out\n            /* \"#utility.yul\":583:1282   */\n        tag_55:\n            /* \"#utility.yul\":637:642   */\n          0x00\n            /* \"#utility.yul\":690:693   */\n          dup3\n            /* \"#utility.yul\":683:687   */\n          0x1f\n            /* \"#utility.yul\":675:681   */\n          dup4\n            /* \"#utility.yul\":671:688   */\n          add\n            /* \"#utility.yul\":667:694   */\n          slt\n            /* \"#utility.yul\":657:712   */\n          tag_70\n          jumpi\n            /* \"#utility.yul\":708:709   */\n          0x00\n            /* \"#utility.yul\":705:706   */\n          dup1\n            /* \"#utility.yul\":698:710   */\n          revert\n            /* \"#utility.yul\":657:712   */\n        tag_70:\n            /* \"#utility.yul\":731:744   */\n          dup2\n          mload\n          sub(shl(0x40, 0x01), 0x01)\n            /* \"#utility.yul\":793:803   */\n          dup1\n          dup3\n          gt\n            /* \"#utility.yul\":790:826   */\n          iszero\n          tag_72\n          jumpi\n            /* \"#utility.yul\":806:824   */\n          tag_72\n          tag_25\n          jump\t// in\n        tag_72:\n            /* \"#utility.yul\":881:883   */\n          0x40\n            /* \"#utility.yul\":875:884   */\n          mload\n            /* \"#utility.yul\":849:851   */\n          0x1f\n            /* \"#utility.yul\":935:948   */\n          dup4\n          add\n          not(0x1f)\n            /* \"#utility.yul\":931:953   */\n          swap1\n          dup2\n          and\n            /* \"#utility.yul\":955:957   */\n          0x3f\n            /* \"#utility.yul\":927:958   */\n          add\n            /* \"#utility.yul\":923:963   */\n          and\n            /* \"#utility.yul\":911:964   */\n          dup2\n          add\n          swap1\n            /* \"#utility.yul\":979:997   */\n          dup3\n          dup3\n          gt\n            /* \"#utility.yul\":999:1021   */\n          dup2\n          dup4\n          lt\n            /* \"#utility.yul\":976:1022   */\n          or\n            /* \"#utility.yul\":973:1045   */\n          iszero\n          tag_74\n          jumpi\n            /* \"#utility.yul\":1025:1043   */\n          tag_74\n          tag_25\n          jump\t// in\n        tag_74:\n            /* \"#utility.yul\":1065:1075   */\n          dup2\n            /* \"#utility.yul\":1061:1063   */\n          0x40\n            /* \"#utility.yul\":1054:1076   */\n          mstore\n            /* \"#utility.yul\":1100:1102   */\n          dup4\n            /* \"#utility.yul\":1092:1098   */\n          dup2\n            /* \"#utility.yul\":1085:1103   */\n          mstore\n            /* \"#utility.yul\":1146:1149   */\n          dup7\n            /* \"#utility.yul\":1139:1143   */\n          0x20\n            /* \"#utility.yul\":1134:1136   */\n          dup6\n            /* \"#utility.yul\":1126:1132   */\n          dup9\n            /* \"#utility.yul\":1122:1137   */\n          add\n            /* \"#utility.yul\":1118:1144   */\n          add\n            /* \"#utility.yul\":1115:1150   */\n          gt\n            /* \"#utility.yul\":1112:1167   */\n          iszero\n          tag_75\n          jumpi\n            /* \"#utility.yul\":1163:1164   */\n          0x00\n            /* \"#utility.yul\":1160:1161   */\n          dup1\n            /* \"#utility.yul\":1153:1165   */\n          revert\n            /* \"#utility.yul\":1112:1167   */\n        tag_75:\n            /* \"#utility.yul\":1176:1252   */\n          tag_76\n            /* \"#utility.yul\":1249:1251   */\n          dup5\n            /* \"#utility.yul\":1242:1246   */\n          0x20\n            /* \"#utility.yul\":1234:1240   */\n          dup4\n            /* \"#utility.yul\":1230:1247   */\n          add\n            /* \"#utility.yul\":1223:1227   */\n          0x20\n            /* \"#utility.yul\":1215:1221   */\n          dup10\n            /* \"#utility.yul\":1211:1228   */\n          add\n            /* \"#utility.yul\":1176:1252   */\n          tag_54\n          jump\t// in\n        tag_76:\n            /* \"#utility.yul\":1270:1276   */\n          swap7\n            /* \"#utility.yul\":583:1282   */\n          swap6\n          pop\n          pop\n          pop\n          pop\n          pop\n          pop\n          jump\t// out\n            /* \"#utility.yul\":1287:2473   */\n        tag_3:\n            /* \"#utility.yul\":1459:1465   */\n          0x00\n            /* \"#utility.yul\":1467:1473   */\n          dup1\n            /* \"#utility.yul\":1475:1481   */\n          0x00\n            /* \"#utility.yul\":1483:1489   */\n          dup1\n            /* \"#utility.yul\":1491:1497   */\n          0x00\n            /* \"#utility.yul\":1499:1505   */\n          dup1\n            /* \"#utility.yul\":1507:1513   */\n          0x00\n            /* \"#utility.yul\":1515:1521   */\n          dup1\n            /* \"#utility.yul\":1523:1529   */\n          0x00\n            /* \"#utility.yul\":1576:1579   */\n          0x0120\n            /* \"#utility.yul\":1564:1573   */\n          dup11\n            /* \"#utility.yul\":1555:1562   */\n          dup13\n            /* \"#utility.yul\":1551:1574   */\n          sub\n            /* \"#utility.yul\":1547:1580   */\n          slt\n            /* \"#utility.yul\":1544:1597   */\n          iszero\n          tag_78\n          jumpi\n            /* \"#utility.yul\":1593:1594   */\n          0x00\n            /* \"#utility.yul\":1590:1591   */\n          dup1\n            /* \"#utility.yul\":1583:1595   */\n          revert\n            /* \"#utility.yul\":1544:1597   */\n        tag_78:\n            /* \"#utility.yul\":1622:1631   */\n          dup10\n            /* \"#utility.yul\":1616:1632   */\n          mload\n            /* \"#utility.yul\":1606:1632   */\n          swap9\n          pop\n            /* \"#utility.yul\":1651:1700   */\n          tag_79\n            /* \"#utility.yul\":1696:1698   */\n          0x20\n            /* \"#utility.yul\":1685:1694   */\n          dup12\n            /* \"#utility.yul\":1681:1699   */\n          add\n            /* \"#utility.yul\":1651:1700   */\n          tag_53\n          jump\t// in\n        tag_79:\n            /* \"#utility.yul\":1641:1700   */\n          swap8\n          pop\n            /* \"#utility.yul\":1719:1768   */\n          tag_80\n            /* \"#utility.yul\":1764:1766   */\n          0x40\n            /* \"#utility.yul\":1753:1762   */\n          dup12\n            /* \"#utility.yul\":1749:1767   */\n          add\n            /* \"#utility.yul\":1719:1768   */\n          tag_53\n          jump\t// in\n        tag_80:\n            /* \"#utility.yul\":1812:1814   */\n          0x60\n            /* \"#utility.yul\":1797:1815   */\n          dup12\n          add\n            /* \"#utility.yul\":1791:1816   */\n          mload\n            /* \"#utility.yul\":1709:1768   */\n          swap1\n          swap8\n          pop\n          sub(shl(0x40, 0x01), 0x01)\n            /* \"#utility.yul\":1865:1879   */\n          dup1\n          dup3\n          gt\n            /* \"#utility.yul\":1862:1896   */\n          iszero\n          tag_81\n          jumpi\n            /* \"#utility.yul\":1892:1893   */\n          0x00\n            /* \"#utility.yul\":1889:1890   */\n          dup1\n            /* \"#utility.yul\":1882:1894   */\n          revert\n            /* \"#utility.yul\":1862:1896   */\n        tag_81:\n            /* \"#utility.yul\":1915:1976   */\n          tag_82\n            /* \"#utility.yul\":1968:1975   */\n          dup14\n            /* \"#utility.yul\":1959:1965   */\n          dup4\n            /* \"#utility.yul\":1948:1957   */\n          dup15\n            /* \"#utility.yul\":1944:1966   */\n          add\n            /* \"#utility.yul\":1915:1976   */\n          tag_55\n          jump\t// in\n        tag_82:\n            /* \"#utility.yul\":1905:1976   */\n          swap8\n          pop\n            /* \"#utility.yul\":2016:2019   */\n          0x80\n            /* \"#utility.yul\":2005:2014   */\n          dup13\n            /* \"#utility.yul\":2001:2020   */\n          add\n            /* \"#utility.yul\":1995:2021   */\n          mload\n            /* \"#utility.yul\":1985:2021   */\n          swap7\n          pop\n            /* \"#utility.yul\":2061:2064   */\n          0xa0\n            /* \"#utility.yul\":2050:2059   */\n          dup13\n            /* \"#utility.yul\":2046:2065   */\n          add\n            /* \"#utility.yul\":2040:2066   */\n          mload\n            /* \"#utility.yul\":2030:2066   */\n          swap6\n          pop\n            /* \"#utility.yul\":2106:2109   */\n          0xc0\n            /* \"#utility.yul\":2095:2104   */\n          dup13\n            /* \"#utility.yul\":2091:2110   */\n          add\n            /* \"#utility.yul\":2085:2111   */\n          mload\n            /* \"#utility.yul\":2075:2111   */\n          swap5\n          pop\n            /* \"#utility.yul\":2157:2160   */\n          0xe0\n            /* \"#utility.yul\":2146:2155   */\n          dup13\n            /* \"#utility.yul\":2142:2161   */\n          add\n            /* \"#utility.yul\":2136:2162   */\n          mload\n            /* \"#utility.yul\":2120:2162   */\n          swap2\n          pop\n            /* \"#utility.yul\":2187:2189   */\n          dup1\n            /* \"#utility.yul\":2177:2185   */\n          dup3\n            /* \"#utility.yul\":2174:2190   */\n          gt\n            /* \"#utility.yul\":2171:2207   */\n          iszero\n          tag_83\n          jumpi\n            /* \"#utility.yul\":2203:2204   */\n          0x00\n            /* \"#utility.yul\":2200:2201   */\n          dup1\n            /* \"#utility.yul\":2193:2205   */\n          revert\n            /* \"#utility.yul\":2171:2207   */\n        tag_83:\n            /* \"#utility.yul\":2226:2289   */\n          tag_84\n            /* \"#utility.yul\":2281:2288   */\n          dup14\n            /* \"#utility.yul\":2270:2278   */\n          dup4\n            /* \"#utility.yul\":2259:2268   */\n          dup15\n            /* \"#utility.yul\":2255:2279   */\n          add\n            /* \"#utility.yul\":2226:2289   */\n          tag_55\n          jump\t// in\n        tag_84:\n            /* \"#utility.yul\":2216:2289   */\n          swap4\n          pop\n            /* \"#utility.yul\":2335:2338   */\n          0x0100\n            /* \"#utility.yul\":2324:2333   */\n          dup13\n            /* \"#utility.yul\":2320:2339   */\n          add\n            /* \"#utility.yul\":2314:2340   */\n          mload\n            /* \"#utility.yul\":2298:2340   */\n          swap2\n          pop\n            /* \"#utility.yul\":2365:2367   */\n          dup1\n            /* \"#utility.yul\":2355:2363   */\n          dup3\n            /* \"#utility.yul\":2352:2368   */\n          gt\n            /* \"#utility.yul\":2349:2385   */\n          iszero\n          tag_85\n          jumpi\n            /* \"#utility.yul\":2381:2382   */\n          0x00\n            /* \"#utility.yul\":2378:2379   */\n          dup1\n            /* \"#utility.yul\":2371:2383   */\n          revert\n            /* \"#utility.yul\":2349:2385   */\n        tag_85:\n          pop\n            /* \"#utility.yul\":2404:2467   */\n          tag_86\n            /* \"#utility.yul\":2459:2466   */\n          dup13\n            /* \"#utility.yul\":2448:2456   */\n          dup3\n            /* \"#utility.yul\":2437:2446   */\n          dup14\n            /* \"#utility.yul\":2433:2457   */\n          add\n            /* \"#utility.yul\":2404:2467   */\n          tag_55\n          jump\t// in\n        tag_86:\n            /* \"#utility.yul\":2394:2467   */\n          swap2\n          pop\n          pop\n            /* \"#utility.yul\":1287:2473   */\n          swap3\n          swap6\n          swap9\n          pop\n          swap3\n          swap6\n          swap9\n          pop\n          swap3\n          swap6\n          swap9\n          jump\t// out\n            /* \"#utility.yul\":2478:2858   */\n        tag_56:\n            /* \"#utility.yul\":2557:2558   */\n          0x01\n            /* \"#utility.yul\":2553:2565   */\n          dup2\n          dup2\n          shr\n          swap1\n            /* \"#utility.yul\":2600:2612   */\n          dup3\n          and\n          dup1\n            /* \"#utility.yul\":2621:2682   */\n          tag_88\n          jumpi\n            /* \"#utility.yul\":2675:2679   */\n          0x7f\n            /* \"#utility.yul\":2667:2673   */\n          dup3\n            /* \"#utility.yul\":2663:2680   */\n          and\n            /* \"#utility.yul\":2653:2680   */\n          swap2\n          pop\n            /* \"#utility.yul\":2621:2682   */\n        tag_88:\n            /* \"#utility.yul\":2728:2730   */\n          0x20\n            /* \"#utility.yul\":2720:2726   */\n          dup3\n            /* \"#utility.yul\":2717:2731   */\n          lt\n            /* \"#utility.yul\":2697:2715   */\n          dup2\n            /* \"#utility.yul\":2694:2732   */\n          sub\n            /* \"#utility.yul\":2691:2852   */\n          tag_89\n          jumpi\n            /* \"#utility.yul\":2774:2784   */\n          0x4e487b71\n            /* \"#utility.yul\":2769:2772   */\n          0xe0\n            /* \"#utility.yul\":2765:2785   */\n          shl\n            /* \"#utility.yul\":2762:2763   */\n          0x00\n            /* \"#utility.yul\":2755:2786   */\n          mstore\n            /* \"#utility.yul\":2809:2813   */\n          0x22\n            /* \"#utility.yul\":2806:2807   */\n          0x04\n            /* \"#utility.yul\":2799:2814   */\n          mstore\n            /* \"#utility.yul\":2837:2841   */\n          0x24\n            /* \"#utility.yul\":2834:2835   */\n          0x00\n            /* \"#utility.yul\":2827:2842   */\n          revert\n            /* \"#utility.yul\":2691:2852   */\n        tag_89:\n          pop\n            /* \"#utility.yul\":2478:2858   */\n          swap2\n          swap1\n          pop\n          jump\t// out\n            /* \"#utility.yul\":2989:3507   */\n        tag_58:\n            /* \"#utility.yul\":3091:3093   */\n          0x1f\n            /* \"#utility.yul\":3086:3089   */\n          dup3\n            /* \"#utility.yul\":3083:3094   */\n          gt\n            /* \"#utility.yul\":3080:3501   */\n          iszero\n          tag_92\n          jumpi\n            /* \"#utility.yul\":3127:3132   */\n          dup1\n            /* \"#utility.yul\":3124:3125   */\n          0x00\n            /* \"#utility.yul\":3117:3133   */\n          mstore\n            /* \"#utility.yul\":3171:3175   */\n          0x20\n            /* \"#utility.yul\":3168:3169   */\n          0x00\n            /* \"#utility.yul\":3158:3176   */\n          keccak256\n            /* \"#utility.yul\":3241:3243   */\n          0x1f\n            /* \"#utility.yul\":3229:3239   */\n          dup5\n            /* \"#utility.yul\":3225:3244   */\n          add\n            /* \"#utility.yul\":3222:3223   */\n          0x05\n            /* \"#utility.yul\":3218:3245   */\n          shr\n            /* \"#utility.yul\":3212:3216   */\n          dup2\n            /* \"#utility.yul\":3208:3246   */\n          add\n            /* \"#utility.yul\":3277:3281   */\n          0x20\n            /* \"#utility.yul\":3265:3275   */\n          dup6\n            /* \"#utility.yul\":3262:3282   */\n          lt\n            /* \"#utility.yul\":3259:3306   */\n          iszero\n          tag_93\n          jumpi\n          pop\n            /* \"#utility.yul\":3300:3304   */\n          dup1\n            /* \"#utility.yul\":3259:3306   */\n        tag_93:\n            /* \"#utility.yul\":3355:3357   */\n          0x1f\n            /* \"#utility.yul\":3350:3353   */\n          dup5\n            /* \"#utility.yul\":3346:3358   */\n          add\n            /* \"#utility.yul\":3343:3344   */\n          0x05\n            /* \"#utility.yul\":3339:3359   */\n          shr\n            /* \"#utility.yul\":3333:3337   */\n          dup3\n            /* \"#utility.yul\":3329:3360   */\n          add\n            /* \"#utility.yul\":3319:3360   */\n          swap2\n          pop\n            /* \"#utility.yul\":3410:3491   */\n        tag_94:\n            /* \"#utility.yul\":3428:3430   */\n          dup2\n            /* \"#utility.yul\":3421:3426   */\n          dup2\n            /* \"#utility.yul\":3418:3431   */\n          lt\n            /* \"#utility.yul\":3410:3491   */\n          iszero\n          tag_96\n          jumpi\n            /* \"#utility.yul\":3487:3488   */\n          0x00\n            /* \"#utility.yul\":3473:3489   */\n          dup2\n          sstore\n            /* \"#utility.yul\":3454:3455   */\n          0x01\n            /* \"#utility.yul\":3443:3456   */\n          add\n            /* \"#utility.yul\":3410:3491   */\n          jump(tag_94)\n        tag_96:\n            /* \"#utility.yul\":3414:3417   */\n          pop\n          pop\n            /* \"#utility.yul\":3080:3501   */\n        tag_92:\n            /* \"#utility.yul\":2989:3507   */\n          pop\n          pop\n          pop\n          jump\t// out\n            /* \"#utility.yul\":3683:5028   */\n        tag_7:\n            /* \"#utility.yul\":3803:3813   */\n          dup2\n          mload\n          sub(shl(0x40, 0x01), 0x01)\n            /* \"#utility.yul\":3825:3855   */\n          dup2\n          gt\n            /* \"#utility.yul\":3822:3878   */\n          iszero\n          tag_100\n          jumpi\n            /* \"#utility.yul\":3858:3876   */\n          tag_100\n          tag_25\n          jump\t// in\n        tag_100:\n            /* \"#utility.yul\":3887:3984   */\n          tag_101\n            /* \"#utility.yul\":3977:3983   */\n          dup2\n            /* \"#utility.yul\":3937:3975   */\n          tag_102\n            /* \"#utility.yul\":3969:3973   */\n          dup5\n            /* \"#utility.yul\":3963:3974   */\n          sload\n            /* \"#utility.yul\":3937:3975   */\n          tag_56\n          jump\t// in\n        tag_102:\n            /* \"#utility.yul\":3931:3935   */\n          dup5\n            /* \"#utility.yul\":3887:3984   */\n          tag_58\n          jump\t// in\n        tag_101:\n            /* \"#utility.yul\":4039:4043   */\n          0x20\n          dup1\n            /* \"#utility.yul\":4096:4098   */\n          0x1f\n            /* \"#utility.yul\":4085:4099   */\n          dup4\n          gt\n            /* \"#utility.yul\":4113:4114   */\n          0x01\n            /* \"#utility.yul\":4108:4771   */\n          dup2\n          eq\n          tag_104\n          jumpi\n            /* \"#utility.yul\":4815:4816   */\n          0x00\n            /* \"#utility.yul\":4832:4838   */\n          dup5\n            /* \"#utility.yul\":4829:4918   */\n          iszero\n          tag_105\n          jumpi\n          pop\n            /* \"#utility.yul\":4884:4903   */\n          dup6\n          dup4\n          add\n            /* \"#utility.yul\":4878:4904   */\n          mload\n            /* \"#utility.yul\":4829:4918   */\n        tag_105:\n          not(0x00)\n            /* \"#utility.yul\":3640:3641   */\n          0x03\n            /* \"#utility.yul\":3636:3647   */\n          dup7\n          swap1\n          shl\n            /* \"#utility.yul\":3632:3656   */\n          shr\n            /* \"#utility.yul\":3628:3657   */\n          not\n            /* \"#utility.yul\":3618:3658   */\n          and\n            /* \"#utility.yul\":3664:3665   */\n          0x01\n            /* \"#utility.yul\":3660:3671   */\n          dup6\n          swap1\n          shl\n            /* \"#utility.yul\":3615:3672   */\n          or\n            /* \"#utility.yul\":4931:5012   */\n          dup6\n          sstore\n            /* \"#utility.yul\":4078:5022   */\n          jump(tag_103)\n            /* \"#utility.yul\":4108:4771   */\n        tag_104:\n            /* \"#utility.yul\":2936:2937   */\n          0x00\n            /* \"#utility.yul\":2929:2943   */\n          dup6\n          dup2\n          mstore\n            /* \"#utility.yul\":2973:2977   */\n          0x20\n            /* \"#utility.yul\":2960:2978   */\n          dup2\n          keccak256\n          not(0x1f)\n            /* \"#utility.yul\":4144:4164   */\n          dup7\n          and\n          swap2\n            /* \"#utility.yul\":4262:4498   */\n        tag_108:\n            /* \"#utility.yul\":4276:4283   */\n          dup3\n            /* \"#utility.yul\":4273:4274   */\n          dup2\n            /* \"#utility.yul\":4270:4284   */\n          lt\n            /* \"#utility.yul\":4262:4498   */\n          iszero\n          tag_110\n          jumpi\n            /* \"#utility.yul\":4365:4384   */\n          dup9\n          dup7\n          add\n            /* \"#utility.yul\":4359:4385   */\n          mload\n            /* \"#utility.yul\":4344:4386   */\n          dup3\n          sstore\n            /* \"#utility.yul\":4457:4484   */\n          swap5\n          dup5\n          add\n          swap5\n            /* \"#utility.yul\":4425:4426   */\n          0x01\n            /* \"#utility.yul\":4413:4427   */\n          swap1\n          swap2\n          add\n          swap1\n            /* \"#utility.yul\":4292:4311   */\n          dup5\n          add\n            /* \"#utility.yul\":4262:4498   */\n          jump(tag_108)\n        tag_110:\n            /* \"#utility.yul\":4266:4269   */\n          pop\n            /* \"#utility.yul\":4526:4532   */\n          dup6\n            /* \"#utility.yul\":4517:4524   */\n          dup3\n            /* \"#utility.yul\":4514:4533   */\n          lt\n            /* \"#utility.yul\":4511:4712   */\n          iszero\n          tag_111\n          jumpi\n            /* \"#utility.yul\":4587:4606   */\n          dup8\n          dup6\n          add\n            /* \"#utility.yul\":4581:4607   */\n          mload\n          not(0x00)\n            /* \"#utility.yul\":4670:4671   */\n          0x03\n            /* \"#utility.yul\":4666:4680   */\n          dup9\n          swap1\n          shl\n            /* \"#utility.yul\":4682:4685   */\n          0xf8\n            /* \"#utility.yul\":4662:4686   */\n          and\n            /* \"#utility.yul\":4658:4695   */\n          shr\n            /* \"#utility.yul\":4654:4696   */\n          not\n            /* \"#utility.yul\":4639:4697   */\n          and\n            /* \"#utility.yul\":4624:4698   */\n          dup2\n          sstore\n            /* \"#utility.yul\":4511:4712   */\n        tag_111:\n          pop\n          pop\n            /* \"#utility.yul\":4758:4759   */\n          0x01\n            /* \"#utility.yul\":4749:4755   */\n          dup5\n            /* \"#utility.yul\":4746:4747   */\n          0x01\n            /* \"#utility.yul\":4742:4756   */\n          shl\n            /* \"#utility.yul\":4738:4760   */\n          add\n            /* \"#utility.yul\":4732:4736   */\n          dup6\n            /* \"#utility.yul\":4725:4761   */\n          sstore\n            /* \"#utility.yul\":4078:5022   */\n        tag_103:\n          pop\n          pop\n          pop\n          pop\n            /* \"#utility.yul\":3683:5028   */\n          pop\n          pop\n          jump\t// out\n            /* \"#utility.yul\":5033:5529   */\n        tag_11:\n            /* \"#utility.yul\":5212:5215   */\n          0x00\n            /* \"#utility.yul\":5250:5256   */\n          dup4\n            /* \"#utility.yul\":5244:5257   */\n          mload\n            /* \"#utility.yul\":5266:5332   */\n          tag_113\n            /* \"#utility.yul\":5325:5331   */\n          dup2\n            /* \"#utility.yul\":5320:5323   */\n          dup5\n            /* \"#utility.yul\":5313:5317   */\n          0x20\n            /* \"#utility.yul\":5305:5311   */\n          dup9\n            /* \"#utility.yul\":5301:5318   */\n          add\n            /* \"#utility.yul\":5266:5332   */\n          tag_54\n          jump\t// in\n        tag_113:\n            /* \"#utility.yul\":5395:5408   */\n          dup4\n          mload\n            /* \"#utility.yul\":5354:5370   */\n          swap1\n          dup4\n          add\n          swap1\n            /* \"#utility.yul\":5417:5487   */\n          tag_114\n            /* \"#utility.yul\":5395:5408   */\n          dup2\n            /* \"#utility.yul\":5354:5370   */\n          dup4\n            /* \"#utility.yul\":5464:5468   */\n          0x20\n            /* \"#utility.yul\":5452:5469   */\n          dup9\n          add\n            /* \"#utility.yul\":5417:5487   */\n          tag_54\n          jump\t// in\n        tag_114:\n            /* \"#utility.yul\":5503:5523   */\n          add\n          swap5\n            /* \"#utility.yul\":5033:5529   */\n          swap4\n          pop\n          pop\n          pop\n          pop\n          jump\t// out\n            /* \"#utility.yul\":5534:5805   */\n        tag_60:\n            /* \"#utility.yul\":5576:5579   */\n          0x00\n            /* \"#utility.yul\":5614:5619   */\n          dup2\n            /* \"#utility.yul\":5608:5620   */\n          mload\n            /* \"#utility.yul\":5641:5647   */\n          dup1\n            /* \"#utility.yul\":5636:5639   */\n          dup5\n            /* \"#utility.yul\":5629:5648   */\n          mstore\n            /* \"#utility.yul\":5657:5733   */\n          tag_116\n            /* \"#utility.yul\":5726:5732   */\n          dup2\n            /* \"#utility.yul\":5719:5723   */\n          0x20\n            /* \"#utility.yul\":5714:5717   */\n          dup7\n            /* \"#utility.yul\":5710:5724   */\n          add\n            /* \"#utility.yul\":5703:5707   */\n          0x20\n            /* \"#utility.yul\":5696:5701   */\n          dup7\n            /* \"#utility.yul\":5692:5708   */\n          add\n            /* \"#utility.yul\":5657:5733   */\n          tag_54\n          jump\t// in\n        tag_116:\n            /* \"#utility.yul\":5787:5789   */\n          0x1f\n            /* \"#utility.yul\":5766:5781   */\n          add\n          not(0x1f)\n            /* \"#utility.yul\":5762:5791   */\n          and\n            /* \"#utility.yul\":5753:5792   */\n          swap3\n          swap1\n          swap3\n          add\n            /* \"#utility.yul\":5794:5798   */\n          0x20\n            /* \"#utility.yul\":5749:5799   */\n          add\n          swap3\n            /* \"#utility.yul\":5534:5805   */\n          swap2\n          pop\n          pop\n          jump\t// out\n            /* \"#utility.yul\":5810:6290   */\n        tag_17:\n          sub(shl(0xa0, 0x01), 0x01)\n            /* \"#utility.yul\":6035:6067   */\n          dup5\n          and\n            /* \"#utility.yul\":6017:6068   */\n          dup2\n          mstore\n            /* \"#utility.yul\":6104:6106   */\n          0x60\n            /* \"#utility.yul\":6099:6101   */\n          0x20\n            /* \"#utility.yul\":6084:6102   */\n          dup3\n          add\n            /* \"#utility.yul\":6077:6107   */\n          dup2\n          swap1\n          mstore\n          0x00\n          swap1\n            /* \"#utility.yul\":6130:6175   */\n          tag_118\n          swap1\n            /* \"#utility.yul\":6156:6174   */\n          dup4\n          add\n            /* \"#utility.yul\":6148:6154   */\n          dup6\n            /* \"#utility.yul\":6130:6175   */\n          tag_60\n          jump\t// in\n        tag_118:\n            /* \"#utility.yul\":6223:6232   */\n          dup3\n            /* \"#utility.yul\":6215:6221   */\n          dup2\n            /* \"#utility.yul\":6211:6233   */\n          sub\n            /* \"#utility.yul\":6206:6208   */\n          0x40\n            /* \"#utility.yul\":6195:6204   */\n          dup5\n            /* \"#utility.yul\":6191:6209   */\n          add\n            /* \"#utility.yul\":6184:6234   */\n          mstore\n            /* \"#utility.yul\":6251:6284   */\n          tag_76\n            /* \"#utility.yul\":6277:6283   */\n          dup2\n            /* \"#utility.yul\":6269:6275   */\n          dup6\n            /* \"#utility.yul\":6251:6284   */\n          tag_60\n          jump\t// in\n            /* \"#utility.yul\":6295:6422   */\n        tag_61:\n            /* \"Project.sol\":172:8265  contract Project {... */\n          dataSize(sub_0)\n          dup1\n          dataOffset(sub_0)\n          0x00\n          codecopy\n          0x00\n          return\n        stop\n\n        sub_0: assembly {\n                /* \"Project.sol\":172:8265  contract Project {... */\n              mstore(0x40, 0x80)\n              jumpi(tag_1, lt(calldatasize, 0x04))\n              shr(0xe0, calldataload(0x00))\n              dup1\n              0x0b49351c\n              eq\n              tag_2\n              jumpi\n              dup1\n              0x12424e3f\n              eq\n              tag_3\n              jumpi\n              dup1\n              0x1f6d4942\n              eq\n              tag_4\n              jumpi\n              dup1\n              0x200d2ed2\n              eq\n              tag_5\n              jumpi\n              dup1\n              0x21eff7fc\n              eq\n              tag_6\n              jumpi\n              dup1\n              0x27b0229e\n              eq\n              tag_7\n              jumpi\n              dup1\n              0x29dcb0cf\n              eq\n              tag_8\n              jumpi\n              dup1\n              0x2b7d782f\n              eq\n              tag_9\n              jumpi\n              dup1\n              0x3ccfd60b\n              eq\n              tag_10\n              jumpi\n              dup1\n              0x4051ddac\n              eq\n              tag_11\n              jumpi\n              dup1\n              0x47ccca02\n              eq\n              tag_12\n              jumpi\n              dup1\n              0x66d003ac\n              eq\n              tag_13\n              jumpi\n              dup1\n              0x7569b3d7\n              eq\n              tag_14\n              jumpi\n              dup1\n              0x8da5cb5b\n              eq\n              tag_15\n              jumpi\n              dup1\n              0x937e09b1\n              eq\n              tag_16\n              jumpi\n              dup1\n              0xaa3ec0a9\n              eq\n              tag_17\n              jumpi\n              dup1\n              0xb82c86d6\n              eq\n              tag_18\n              jumpi\n              dup1\n              0xc00007b0\n              eq\n              tag_19\n              jumpi\n              dup1\n              0xc438b40f\n              eq\n              tag_20\n              jumpi\n              dup1\n              0xc5451232\n              eq\n              tag_21\n              jumpi\n              dup1\n              0xd7bb99ba\n              eq\n              tag_22\n              jumpi\n              dup1\n              0xda076a87\n              eq\n              tag_23\n              jumpi\n              dup1\n              0xe89e4ed6\n              eq\n              tag_24\n              jumpi\n              dup1\n              0xeb599e43\n              eq\n              tag_25\n              jumpi\n              dup1\n              0xed556ce2\n              eq\n              tag_26\n              jumpi\n            tag_1:\n              0x00\n              dup1\n              revert\n                /* \"Project.sol\":5121:5219  function getMilestonesCount() public view returns (uint) {... */\n            tag_2:\n              callvalue\n              dup1\n              iszero\n              tag_27\n              jumpi\n              0x00\n              dup1\n              revert\n            tag_27:\n              pop\n                /* \"Project.sol\":5195:5205  milestones */\n              0x10\n                /* \"Project.sol\":5195:5212  milestones.length */\n              sload\n                /* \"Project.sol\":5121:5219  function getMilestonesCount() public view returns (uint) {... */\n            tag_28:\n              mload(0x40)\n                /* \"#utility.yul\":160:185   */\n              swap1\n              dup2\n              mstore\n                /* \"#utility.yul\":148:150   */\n              0x20\n                /* \"#utility.yul\":133:151   */\n              add\n                /* \"Project.sol\":5121:5219  function getMilestonesCount() public view returns (uint) {... */\n            tag_30:\n              mload(0x40)\n              dup1\n              swap2\n              sub\n              swap1\n              return\n                /* \"Project.sol\":3219:4087  function approve() public {... */\n            tag_3:\n              callvalue\n              dup1\n              iszero\n              tag_32\n              jumpi\n              0x00\n              dup1\n              revert\n            tag_32:\n              pop\n              tag_33\n              tag_34\n              jump\t// in\n            tag_33:\n              stop\n                /* \"Project.sol\":442:486  mapping(address => uint) public contributors */\n            tag_4:\n              callvalue\n              dup1\n              iszero\n              tag_35\n              jumpi\n              0x00\n              dup1\n              revert\n            tag_35:\n              pop\n              tag_28\n              tag_37\n              calldatasize\n              0x04\n              tag_38\n              jump\t// in\n            tag_37:\n              mstore(0x20, 0x08)\n              0x00\n              swap1\n              dup2\n              mstore\n              0x40\n              swap1\n              keccak256\n              sload\n              dup2\n              jump\n                /* \"Project.sol\":525:551  Model.Status public status */\n            tag_5:\n              callvalue\n              dup1\n              iszero\n              tag_41\n              jumpi\n              0x00\n              dup1\n              revert\n            tag_41:\n              pop\n              sload(0x09)\n              sload(0x0a)\n              sload(0x0b)\n              sload(0x0d)\n              sload(0x0e)\n              tag_42\n              swap5\n              0xff\n              swap1\n              dup2\n              and\n              swap5\n              swap4\n              swap3\n              and\n              swap1\n              dup6\n              jump\n            tag_42:\n              0x40\n              dup1\n              mload\n                /* \"#utility.yul\":837:851   */\n              swap6\n              iszero\n                /* \"#utility.yul\":830:852   */\n              iszero\n                /* \"#utility.yul\":812:853   */\n              dup7\n              mstore\n                /* \"#utility.yul\":884:886   */\n              0x20\n                /* \"#utility.yul\":869:887   */\n              dup7\n              add\n                /* \"#utility.yul\":862:896   */\n              swap5\n              swap1\n              swap5\n              mstore\n                /* \"#utility.yul\":912:930   */\n              swap3\n              dup5\n              add\n                /* \"#utility.yul\":905:939   */\n              swap2\n              swap1\n              swap2\n              mstore\n                /* \"#utility.yul\":982:996   */\n              iszero\n                /* \"#utility.yul\":975:997   */\n              iszero\n                /* \"#utility.yul\":970:972   */\n              0x60\n                /* \"#utility.yul\":955:973   */\n              dup4\n              add\n                /* \"#utility.yul\":948:998   */\n              mstore\n                /* \"#utility.yul\":1029:1032   */\n              0x80\n                /* \"#utility.yul\":1014:1033   */\n              dup3\n              add\n                /* \"#utility.yul\":1007:1042   */\n              mstore\n                /* \"#utility.yul\":799:802   */\n              0xa0\n                /* \"#utility.yul\":784:803   */\n              add\n                /* \"Project.sol\":525:551  Model.Status public status */\n              tag_30\n                /* \"#utility.yul\":565:1048   */\n              jump\n                /* \"Project.sol\":2622:2738  function getContribution(address _address) public view returns (uint) {... */\n            tag_6:\n              callvalue\n              dup1\n              iszero\n              tag_46\n              jumpi\n              0x00\n              dup1\n              revert\n            tag_46:\n              pop\n              tag_28\n              tag_48\n              calldatasize\n              0x04\n              tag_38\n              jump\t// in\n            tag_48:\n              sub(shl(0xa0, 0x01), 0x01)\n                /* \"Project.sol\":2709:2731  contributors[_address] */\n              and\n                /* \"Project.sol\":2686:2690  uint */\n              0x00\n                /* \"Project.sol\":2709:2731  contributors[_address] */\n              swap1\n              dup2\n              mstore\n                /* \"Project.sol\":2709:2721  contributors */\n              0x08\n                /* \"Project.sol\":2709:2731  contributors[_address] */\n              0x20\n              mstore\n              0x40\n              swap1\n              keccak256\n              sload\n              swap1\n                /* \"Project.sol\":2622:2738  function getContribution(address _address) public view returns (uint) {... */\n              jump\n                /* \"Project.sol\":4093:4546  function reward(string memory tokenURI) public {... */\n            tag_7:\n              callvalue\n              dup1\n              iszero\n              tag_51\n              jumpi\n              0x00\n              dup1\n              revert\n            tag_51:\n              pop\n              tag_33\n              tag_53\n              calldatasize\n              0x04\n              tag_54\n              jump\t// in\n            tag_53:\n              tag_55\n              jump\t// in\n                /* \"Project.sol\":381:401  uint public deadline */\n            tag_8:\n              callvalue\n              dup1\n              iszero\n              tag_56\n              jumpi\n              0x00\n              dup1\n              revert\n            tag_56:\n              pop\n              tag_28\n              sload(0x06)\n              dup2\n              jump\n                /* \"Project.sol\":5225:5724  function createMilestones(... */\n            tag_9:\n              callvalue\n              dup1\n              iszero\n              tag_60\n              jumpi\n              0x00\n              dup1\n              revert\n            tag_60:\n              pop\n              tag_33\n              tag_62\n              calldatasize\n              0x04\n              tag_63\n              jump\t// in\n            tag_62:\n              tag_64\n              jump\t// in\n                /* \"Project.sol\":4552:5022  function withdraw() public restricted {... */\n            tag_10:\n              callvalue\n              dup1\n              iszero\n              tag_65\n              jumpi\n              0x00\n              dup1\n              revert\n            tag_65:\n              pop\n              tag_33\n              tag_67\n              jump\t// in\n                /* \"Project.sol\":1510:2203  function getSummary()... */\n            tag_11:\n              callvalue\n              dup1\n              iszero\n              tag_68\n              jumpi\n              0x00\n              dup1\n              revert\n            tag_68:\n              pop\n              tag_69\n              tag_70\n              jump\t// in\n            tag_69:\n              mload(0x40)\n              tag_30\n              swap13\n              swap12\n              swap11\n              swap10\n              swap9\n              swap8\n              swap7\n              swap6\n              swap5\n              swap4\n              swap3\n              swap2\n              swap1\n              tag_72\n              jump\t// in\n                /* \"Project.sol\":645:666  ProjectNFT public nft */\n            tag_12:\n              callvalue\n              dup1\n              iszero\n              tag_73\n              jumpi\n              0x00\n              dup1\n              revert\n            tag_73:\n              pop\n              sload(0x12)\n              tag_74\n              swap1\n              sub(shl(0xa0, 0x01), 0x01)\n              and\n              dup2\n              jump\n            tag_74:\n              mload(0x40)\n              sub(shl(0xa0, 0x01), 0x01)\n                /* \"#utility.yul\":7312:7344   */\n              swap1\n              swap2\n              and\n                /* \"#utility.yul\":7294:7345   */\n              dup2\n              mstore\n                /* \"#utility.yul\":7282:7284   */\n              0x20\n                /* \"#utility.yul\":7267:7285   */\n              add\n                /* \"Project.sol\":645:666  ProjectNFT public nft */\n              tag_30\n                /* \"#utility.yul\":7128:7351   */\n              jump\n                /* \"Project.sol\":242:274  address payable public recipient */\n            tag_13:\n              callvalue\n              dup1\n              iszero\n              tag_78\n              jumpi\n              0x00\n              dup1\n              revert\n            tag_78:\n              pop\n              sload(0x02)\n              tag_74\n              swap1\n              sub(shl(0xa0, 0x01), 0x01)\n              and\n              dup2\n              jump\n                /* \"Project.sol\":407:436  uint public contributorsCount */\n            tag_14:\n              callvalue\n              dup1\n              iszero\n              tag_83\n              jumpi\n              0x00\n              dup1\n              revert\n            tag_83:\n              pop\n              tag_28\n              sload(0x07)\n              dup2\n              jump\n                /* \"Project.sol\":216:236  address public owner */\n            tag_15:\n              callvalue\n              dup1\n              iszero\n              tag_87\n              jumpi\n              0x00\n              dup1\n              revert\n            tag_87:\n              pop\n              sload(0x01)\n              tag_74\n              swap1\n              sub(shl(0xa0, 0x01), 0x01)\n              and\n              dup2\n              jump\n                /* \"Project.sol\":303:334  uint public minimumContribution */\n            tag_16:\n              callvalue\n              dup1\n              iszero\n              tag_92\n              jumpi\n              0x00\n              dup1\n              revert\n            tag_92:\n              pop\n              tag_28\n              sload(0x04)\n              dup2\n              jump\n                /* \"Project.sol\":280:297  string public cid */\n            tag_17:\n              callvalue\n              dup1\n              iszero\n              tag_96\n              jumpi\n              0x00\n              dup1\n              revert\n            tag_96:\n              pop\n              tag_97\n              tag_98\n              jump\t// in\n            tag_97:\n              mload(0x40)\n              tag_30\n              swap2\n              swap1\n              tag_100\n              jump\t// in\n                /* \"Project.sol\":340:370  uint public targetContribution */\n            tag_18:\n              callvalue\n              dup1\n              iszero\n              tag_101\n              jumpi\n              0x00\n              dup1\n              revert\n            tag_101:\n              pop\n              tag_28\n              sload(0x05)\n              dup2\n              jump\n                /* \"Project.sol\":2331:2616  function getReward(address _address) public view returns (uint256, string memory) {... */\n            tag_19:\n              callvalue\n              dup1\n              iszero\n              tag_105\n              jumpi\n              0x00\n              dup1\n              revert\n            tag_105:\n              pop\n              tag_106\n              tag_107\n              calldatasize\n              0x04\n              tag_38\n              jump\t// in\n            tag_107:\n              tag_108\n              jump\t// in\n            tag_106:\n              mload(0x40)\n              tag_30\n              swap3\n              swap2\n              swap1\n              tag_110\n              jump\t// in\n                /* \"Project.sol\":6570:7362  function approveMilestone(uint index) public {... */\n            tag_20:\n              callvalue\n              dup1\n              iszero\n              tag_111\n              jumpi\n              0x00\n              dup1\n              revert\n            tag_111:\n              pop\n              tag_33\n              tag_113\n              calldatasize\n              0x04\n              tag_114\n              jump\t// in\n            tag_113:\n              tag_115\n              jump\t// in\n                /* \"Project.sol\":5730:6564  function createMilestone(... */\n            tag_21:\n              callvalue\n              dup1\n              iszero\n              tag_116\n              jumpi\n              0x00\n              dup1\n              revert\n            tag_116:\n              pop\n              tag_33\n              tag_118\n              calldatasize\n              0x04\n              tag_119\n              jump\t// in\n            tag_118:\n              tag_120\n              jump\t// in\n                /* \"Project.sol\":2744:3213  function contribute() public payable {... */\n            tag_22:\n              tag_33\n              tag_122\n              jump\t// in\n                /* \"Project.sol\":2209:2325  function getApproval(address _address) public view returns (uint) {... */\n            tag_23:\n              callvalue\n              dup1\n              iszero\n              tag_123\n              jumpi\n              0x00\n              dup1\n              revert\n            tag_123:\n              pop\n              tag_28\n              tag_125\n              calldatasize\n              0x04\n              tag_38\n              jump\t// in\n            tag_125:\n              sub(shl(0xa0, 0x01), 0x01)\n                /* \"Project.sol\":2292:2318  status.approvals[_address] */\n              and\n                /* \"Project.sol\":2269:2273  uint */\n              0x00\n                /* \"Project.sol\":2292:2318  status.approvals[_address] */\n              swap1\n              dup2\n              mstore\n                /* \"Project.sol\":2292:2308  status.approvals */\n              0x0c\n                /* \"Project.sol\":2292:2318  status.approvals[_address] */\n              0x20\n              mstore\n              0x40\n              swap1\n              keccak256\n              sload\n              swap1\n                /* \"Project.sol\":2209:2325  function getApproval(address _address) public view returns (uint) {... */\n              jump\n                /* \"Project.sol\":558:593  Model.Milestone[] public milestones */\n            tag_24:\n              callvalue\n              dup1\n              iszero\n              tag_128\n              jumpi\n              0x00\n              dup1\n              revert\n            tag_128:\n              pop\n              tag_129\n              tag_130\n              calldatasize\n              0x04\n              tag_114\n              jump\t// in\n            tag_130:\n              tag_131\n              jump\t// in\n            tag_129:\n              mload(0x40)\n              tag_30\n              swap4\n              swap3\n              swap2\n              swap1\n              tag_133\n              jump\t// in\n                /* \"Project.sol\":7368:8263  function withdrawMilestone(uint index) public restricted {... */\n            tag_25:\n              callvalue\n              dup1\n              iszero\n              tag_134\n              jumpi\n              0x00\n              dup1\n              revert\n            tag_134:\n              pop\n              tag_33\n              tag_136\n              calldatasize\n              0x04\n              tag_114\n              jump\t// in\n            tag_136:\n              tag_137\n              jump\t// in\n                /* \"Project.sol\":599:638  Model.Status[] public milestoneStatuses */\n            tag_26:\n              callvalue\n              dup1\n              iszero\n              tag_138\n              jumpi\n              0x00\n              dup1\n              revert\n            tag_138:\n              pop\n              tag_42\n              tag_140\n              calldatasize\n              0x04\n              tag_114\n              jump\t// in\n            tag_140:\n              tag_141\n              jump\t// in\n                /* \"Project.sol\":3219:4087  function approve() public {... */\n            tag_34:\n                /* \"Project.sol\":3372:3390  targetContribution */\n              sload(0x05)\n                /* \"Project.sol\":3347:3368  address(this).balance */\n              selfbalance\n                /* \"Project.sol\":3347:3390  address(this).balance >= targetContribution */\n              lt\n              iszero\n                /* \"Project.sol\":3339:3391  require(address(this).balance >= targetContribution) */\n              tag_145\n              jumpi\n              0x00\n              dup1\n              revert\n            tag_145:\n                /* \"Project.sol\":3485:3495  msg.sender */\n              caller\n                /* \"Project.sol\":3499:3500  0 */\n              0x00\n                /* \"Project.sol\":3472:3496  contributors[msg.sender] */\n              swap1\n              dup2\n              mstore\n                /* \"Project.sol\":3472:3484  contributors */\n              0x08\n                /* \"Project.sol\":3472:3496  contributors[msg.sender] */\n              0x20\n              mstore\n              0x40\n              swap1\n              keccak256\n              sload\n                /* \"Project.sol\":3464:3501  require(contributors[msg.sender] > 0) */\n              tag_146\n              jumpi\n              0x00\n              dup1\n              revert\n            tag_146:\n                /* \"Project.sol\":3603:3613  msg.sender */\n              caller\n                /* \"Project.sol\":3586:3614  status.approvals[msg.sender] */\n              0x00\n              swap1\n              dup2\n              mstore\n                /* \"Project.sol\":3586:3602  status.approvals */\n              0x0c\n                /* \"Project.sol\":3586:3614  status.approvals[msg.sender] */\n              0x20\n              mstore\n              0x40\n              swap1\n              keccak256\n              sload\n                /* \"Project.sol\":3586:3619  status.approvals[msg.sender] == 0 */\n              iszero\n                /* \"Project.sol\":3578:3620  require(status.approvals[msg.sender] == 0) */\n              tag_147\n              jumpi\n              0x00\n              dup1\n              revert\n            tag_147:\n                /* \"Project.sol\":3722:3728  uint i */\n              0x00\n                /* \"Project.sol\":3717:3832  for (uint i = 0; i < milestoneStatuses.length; i++) {... */\n            tag_148:\n                /* \"Project.sol\":3738:3755  milestoneStatuses */\n              0x11\n                /* \"Project.sol\":3738:3762  milestoneStatuses.length */\n              sload\n                /* \"Project.sol\":3734:3762  i < milestoneStatuses.length */\n              dup2\n              lt\n                /* \"Project.sol\":3717:3832  for (uint i = 0; i < milestoneStatuses.length; i++) {... */\n              iszero\n              tag_149\n              jumpi\n                /* \"Project.sol\":3791:3808  milestoneStatuses */\n              0x11\n                /* \"Project.sol\":3809:3810  i */\n              dup2\n                /* \"Project.sol\":3791:3811  milestoneStatuses[i] */\n              dup2\n              sload\n              dup2\n              lt\n              tag_152\n              jumpi\n              tag_152\n              tag_153\n              jump\t// in\n            tag_152:\n              0x00\n              swap2\n              dup3\n              mstore\n              0x20\n              swap1\n              swap2\n              keccak256\n              0x07\n              swap1\n              swap2\n              mul\n              add\n                /* \"Project.sol\":3791:3820  milestoneStatuses[i].approved */\n              sload\n              0xff\n              and\n                /* \"Project.sol\":3783:3821  require(milestoneStatuses[i].approved) */\n              tag_155\n              jumpi\n              0x00\n              dup1\n              revert\n            tag_155:\n                /* \"Project.sol\":3764:3767  i++ */\n              0x01\n              add\n                /* \"Project.sol\":3717:3832  for (uint i = 0; i < milestoneStatuses.length; i++) {... */\n              jump(tag_148)\n            tag_149:\n              pop\n                /* \"Project.sol\":3859:3869  msg.sender */\n              caller\n                /* \"Project.sol\":3842:3870  status.approvals[msg.sender] */\n              0x00\n              swap1\n              dup2\n              mstore\n                /* \"Project.sol\":3842:3858  status.approvals */\n              0x0c\n                /* \"Project.sol\":3842:3870  status.approvals[msg.sender] */\n              0x20\n              mstore\n              0x40\n              dup2\n              keccak256\n                /* \"Project.sol\":3873:3888  block.timestamp */\n              timestamp\n                /* \"Project.sol\":3842:3888  status.approvals[msg.sender] = block.timestamp */\n              swap1\n              sstore\n                /* \"Project.sol\":3898:3919  status.approvalsCount */\n              0x0b\n                /* \"Project.sol\":3898:3921  status.approvalsCount++ */\n              dup1\n              sload\n              swap2\n              tag_156\n              dup4\n              tag_157\n              jump\t// in\n            tag_156:\n              swap2\n              swap1\n              pop\n              sstore\n              pop\n                /* \"Project.sol\":3981:3982  2 */\n              0x02\n                /* \"Project.sol\":3961:3978  contributorsCount */\n              sload(0x07)\n                /* \"Project.sol\":3961:3982  contributorsCount / 2 */\n              tag_158\n              swap2\n              swap1\n              tag_159\n              jump\t// in\n            tag_158:\n                /* \"Project.sol\":3936:3957  status.approvalsCount */\n              sload(0x0b)\n                /* \"Project.sol\":3936:3983  status.approvalsCount > (contributorsCount / 2) */\n              gt\n                /* \"Project.sol\":3932:4081  if (status.approvalsCount > (contributorsCount / 2)) {... */\n              iszero\n              tag_160\n              jumpi\n                /* \"Project.sol\":3999:4005  status */\n              0x09\n                /* \"Project.sol\":3999:4021  status.approved = true */\n              dup1\n              sload\n              not(0xff)\n              and\n                /* \"Project.sol\":4017:4021  true */\n              0x01\n                /* \"Project.sol\":3999:4021  status.approved = true */\n              or\n              swap1\n              sstore\n                /* \"Project.sol\":4055:4070  block.timestamp */\n              timestamp\n                /* \"Project.sol\":4035:4052  status.approvedAt */\n              0x0a\n                /* \"Project.sol\":4035:4070  status.approvedAt = block.timestamp */\n              sstore\n                /* \"Project.sol\":3932:4081  if (status.approvalsCount > (contributorsCount / 2)) {... */\n            tag_160:\n                /* \"Project.sol\":3219:4087  function approve() public {... */\n              jump\t// out\n                /* \"Project.sol\":4093:4546  function reward(string memory tokenURI) public {... */\n            tag_55:\n                /* \"Project.sol\":4159:4175  status.completed */\n              and(0xff, sload(0x0d))\n                /* \"Project.sol\":4158:4175  !status.completed */\n              iszero\n                /* \"Project.sol\":4150:4176  require(!status.completed) */\n              tag_163\n              jumpi\n              0x00\n              dup1\n              revert\n            tag_163:\n                /* \"Project.sol\":4194:4200  status */\n              0x09\n                /* \"Project.sol\":4194:4209  status.approved */\n              sload\n              0xff\n              and\n                /* \"Project.sol\":4186:4210  require(status.approved) */\n              tag_164\n              jumpi\n              0x00\n              dup1\n              revert\n            tag_164:\n                /* \"Project.sol\":4314:4324  msg.sender */\n              caller\n                /* \"Project.sol\":4328:4329  0 */\n              0x00\n                /* \"Project.sol\":4301:4325  contributors[msg.sender] */\n              swap1\n              dup2\n              mstore\n                /* \"Project.sol\":4301:4313  contributors */\n              0x08\n                /* \"Project.sol\":4301:4325  contributors[msg.sender] */\n              0x20\n              mstore\n              0x40\n              swap1\n              keccak256\n              sload\n                /* \"Project.sol\":4293:4330  require(contributors[msg.sender] > 0) */\n              tag_165\n              jumpi\n              0x00\n              dup1\n              revert\n            tag_165:\n                /* \"Project.sol\":4439:4449  msg.sender */\n              caller\n                /* \"Project.sol\":4424:4450  status.rewards[msg.sender] */\n              0x00\n              swap1\n              dup2\n              mstore\n                /* \"Project.sol\":4424:4438  status.rewards */\n              0x0f\n                /* \"Project.sol\":4424:4450  status.rewards[msg.sender] */\n              0x20\n              mstore\n              0x40\n              swap1\n              keccak256\n              sload\n              0xff\n              and\n                /* \"Project.sol\":4423:4450  !status.rewards[msg.sender] */\n              iszero\n                /* \"Project.sol\":4415:4451  require(!status.rewards[msg.sender]) */\n              tag_166\n              jumpi\n              0x00\n              dup1\n              revert\n            tag_166:\n                /* \"Project.sol\":4462:4465  nft */\n              sload(0x12)\n                /* \"Project.sol\":4462:4496  nft.safeMint(msg.sender, tokenURI) */\n              mload(0x40)\n              shl(0xe1, 0x6902622f)\n              dup2\n              mstore\n              sub(shl(0xa0, 0x01), 0x01)\n                /* \"Project.sol\":4462:4465  nft */\n              swap1\n              swap2\n              and\n              swap1\n                /* \"Project.sol\":4462:4474  nft.safeMint */\n              0xd204c45e\n              swap1\n                /* \"Project.sol\":4462:4496  nft.safeMint(msg.sender, tokenURI) */\n              tag_167\n              swap1\n                /* \"Project.sol\":4475:4485  msg.sender */\n              caller\n              swap1\n                /* \"Project.sol\":4487:4495  tokenURI */\n              dup6\n              swap1\n                /* \"Project.sol\":4462:4496  nft.safeMint(msg.sender, tokenURI) */\n              0x04\n              add\n              tag_168\n              jump\t// in\n            tag_167:\n              0x00\n              mload(0x40)\n              dup1\n              dup4\n              sub\n              dup2\n              0x00\n              dup8\n              dup1\n              extcodesize\n              iszero\n              dup1\n              iszero\n              tag_169\n              jumpi\n              0x00\n              dup1\n              revert\n            tag_169:\n              pop\n              gas\n              call\n              iszero\n              dup1\n              iszero\n              tag_171\n              jumpi\n              returndatasize\n              0x00\n              dup1\n              returndatacopy\n              revert(0x00, returndatasize)\n            tag_171:\n              pop\n              pop\n                /* \"Project.sol\":4521:4531  msg.sender */\n              caller\n                /* \"Project.sol\":4506:4532  status.rewards[msg.sender] */\n              0x00\n              swap1\n              dup2\n              mstore\n                /* \"Project.sol\":4506:4520  status.rewards */\n              0x0f\n                /* \"Project.sol\":4506:4532  status.rewards[msg.sender] */\n              0x20\n              mstore\n              0x40\n              swap1\n              keccak256\n                /* \"Project.sol\":4506:4539  status.rewards[msg.sender] = true */\n              dup1\n              sload\n              not(0xff)\n              and\n                /* \"Project.sol\":4535:4539  true */\n              0x01\n                /* \"Project.sol\":4506:4539  status.rewards[msg.sender] = true */\n              or\n              swap1\n              sstore\n              pop\n              pop\n              pop\n                /* \"Project.sol\":4093:4546  function reward(string memory tokenURI) public {... */\n              jump\t// out\n                /* \"Project.sol\":5225:5724  function createMilestones(... */\n            tag_64:\n                /* \"Project.sol\":727:732  owner */\n              and(sub(shl(0xa0, 0x01), 0x01), sload(0x01))\n                /* \"Project.sol\":713:723  msg.sender */\n              caller\n                /* \"Project.sol\":713:732  msg.sender == owner */\n              eq\n                /* \"Project.sol\":705:733  require(msg.sender == owner) */\n              tag_173\n              jumpi\n              0x00\n              dup1\n              revert\n            tag_173:\n                /* \"Project.sol\":5488:5498  thresholds */\n              dup2\n                /* \"Project.sol\":5488:5505  thresholds.length */\n              mload\n                /* \"Project.sol\":5465:5477  descriptions */\n              dup4\n                /* \"Project.sol\":5465:5484  descriptions.length */\n              mload\n                /* \"Project.sol\":5465:5505  descriptions.length == thresholds.length */\n              eq\n                /* \"Project.sol\":5465:5563  descriptions.length == thresholds.length &&... */\n              dup1\n              iszero\n              tag_175\n              jumpi\n              pop\n                /* \"Project.sol\":5546:5556  recipients */\n              dup1\n                /* \"Project.sol\":5546:5563  recipients.length */\n              mload\n                /* \"Project.sol\":5525:5535  thresholds */\n              dup3\n                /* \"Project.sol\":5525:5542  thresholds.length */\n              mload\n                /* \"Project.sol\":5525:5563  thresholds.length == recipients.length */\n              eq\n                /* \"Project.sol\":5465:5563  descriptions.length == thresholds.length &&... */\n            tag_175:\n                /* \"Project.sol\":5444:5573  require(... */\n              tag_176\n              jumpi\n              0x00\n              dup1\n              revert\n            tag_176:\n                /* \"Project.sol\":5589:5595  uint i */\n              0x00\n                /* \"Project.sol\":5584:5718  for (uint i = 0; i < descriptions.length; i++) {... */\n            tag_177:\n                /* \"Project.sol\":5605:5617  descriptions */\n              dup4\n                /* \"Project.sol\":5605:5624  descriptions.length */\n              mload\n                /* \"Project.sol\":5601:5602  i */\n              dup2\n                /* \"Project.sol\":5601:5624  i < descriptions.length */\n              lt\n                /* \"Project.sol\":5584:5718  for (uint i = 0; i < descriptions.length; i++) {... */\n              iszero\n              tag_178\n              jumpi\n                /* \"Project.sol\":5645:5707  createMilestone(descriptions[i], thresholds[i], recipients[i]) */\n              tag_180\n                /* \"Project.sol\":5661:5673  descriptions */\n              dup5\n                /* \"Project.sol\":5674:5675  i */\n              dup3\n                /* \"Project.sol\":5661:5676  descriptions[i] */\n              dup2\n              mload\n              dup2\n              lt\n              tag_182\n              jumpi\n              tag_182\n              tag_153\n              jump\t// in\n            tag_182:\n              0x20\n              mul\n              0x20\n              add\n              add\n              mload\n                /* \"Project.sol\":5678:5688  thresholds */\n              dup5\n                /* \"Project.sol\":5689:5690  i */\n              dup4\n                /* \"Project.sol\":5678:5691  thresholds[i] */\n              dup2\n              mload\n              dup2\n              lt\n              tag_184\n              jumpi\n              tag_184\n              tag_153\n              jump\t// in\n            tag_184:\n              0x20\n              mul\n              0x20\n              add\n              add\n              mload\n                /* \"Project.sol\":5693:5703  recipients */\n              dup5\n                /* \"Project.sol\":5704:5705  i */\n              dup5\n                /* \"Project.sol\":5693:5706  recipients[i] */\n              dup2\n              mload\n              dup2\n              lt\n              tag_186\n              jumpi\n              tag_186\n              tag_153\n              jump\t// in\n            tag_186:\n              0x20\n              mul\n              0x20\n              add\n              add\n              mload\n                /* \"Project.sol\":5645:5660  createMilestone */\n              tag_120\n                /* \"Project.sol\":5645:5707  createMilestone(descriptions[i], thresholds[i], recipients[i]) */\n              jump\t// in\n            tag_180:\n                /* \"Project.sol\":5626:5629  i++ */\n              0x01\n              add\n                /* \"Project.sol\":5584:5718  for (uint i = 0; i < descriptions.length; i++) {... */\n              jump(tag_177)\n            tag_178:\n              pop\n                /* \"Project.sol\":5225:5724  function createMilestones(... */\n              pop\n              pop\n              pop\n              jump\t// out\n                /* \"Project.sol\":4552:5022  function withdraw() public restricted {... */\n            tag_67:\n                /* \"Project.sol\":727:732  owner */\n              and(sub(shl(0xa0, 0x01), 0x01), sload(0x01))\n                /* \"Project.sol\":713:723  msg.sender */\n              caller\n                /* \"Project.sol\":713:732  msg.sender == owner */\n              eq\n                /* \"Project.sol\":705:733  require(msg.sender == owner) */\n              tag_188\n              jumpi\n              0x00\n              dup1\n              revert\n            tag_188:\n                /* \"Project.sol\":4743:4749  status */\n              0x09\n                /* \"Project.sol\":4743:4758  status.approved */\n              sload\n              0xff\n              and\n                /* \"Project.sol\":4735:4759  require(status.approved) */\n              tag_190\n              jumpi\n              0x00\n              dup1\n              revert\n            tag_190:\n                /* \"Project.sol\":4774:4780  uint i */\n              0x00\n                /* \"Project.sol\":4769:4885  for (uint i = 0; i < milestoneStatuses.length; i++) {... */\n            tag_191:\n                /* \"Project.sol\":4790:4807  milestoneStatuses */\n              0x11\n                /* \"Project.sol\":4790:4814  milestoneStatuses.length */\n              sload\n                /* \"Project.sol\":4786:4814  i < milestoneStatuses.length */\n              dup2\n              lt\n                /* \"Project.sol\":4769:4885  for (uint i = 0; i < milestoneStatuses.length; i++) {... */\n              iszero\n              tag_192\n              jumpi\n                /* \"Project.sol\":4843:4860  milestoneStatuses */\n              0x11\n                /* \"Project.sol\":4861:4862  i */\n              dup2\n                /* \"Project.sol\":4843:4863  milestoneStatuses[i] */\n              dup2\n              sload\n              dup2\n              lt\n              tag_195\n              jumpi\n              tag_195\n              tag_153\n              jump\t// in\n            tag_195:\n              0x00\n              swap2\n              dup3\n              mstore\n              0x20\n              swap1\n              swap2\n              keccak256\n                /* \"Project.sol\":4843:4873  milestoneStatuses[i].completed */\n              0x04\n                /* \"Project.sol\":4843:4863  milestoneStatuses[i] */\n              0x07\n              swap1\n              swap3\n              mul\n              add\n                /* \"Project.sol\":4843:4873  milestoneStatuses[i].completed */\n              add\n              sload\n              0xff\n              and\n                /* \"Project.sol\":4835:4874  require(milestoneStatuses[i].completed) */\n              tag_197\n              jumpi\n              0x00\n              dup1\n              revert\n            tag_197:\n                /* \"Project.sol\":4816:4819  i++ */\n              0x01\n              add\n                /* \"Project.sol\":4769:4885  for (uint i = 0; i < milestoneStatuses.length; i++) {... */\n              jump(tag_191)\n            tag_192:\n              pop\n                /* \"Project.sol\":4895:4904  recipient */\n              sload(0x02)\n                /* \"Project.sol\":4895:4936  recipient.transfer(address(this).balance) */\n              mload(0x40)\n              sub(shl(0xa0, 0x01), 0x01)\n                /* \"Project.sol\":4895:4904  recipient */\n              swap1\n              swap2\n              and\n              swap1\n                /* \"Project.sol\":4914:4935  address(this).balance */\n              selfbalance\n                /* \"Project.sol\":4895:4936  recipient.transfer(address(this).balance) */\n              dup1\n              iszero\n              0x08fc\n              mul\n              swap2\n                /* \"Project.sol\":4895:4904  recipient */\n              0x00\n                /* \"Project.sol\":4895:4936  recipient.transfer(address(this).balance) */\n              dup2\n                /* \"Project.sol\":4895:4904  recipient */\n              dup2\n                /* \"Project.sol\":4895:4936  recipient.transfer(address(this).balance) */\n              dup2\n                /* \"Project.sol\":4914:4935  address(this).balance */\n              dup6\n                /* \"Project.sol\":4895:4904  recipient */\n              dup9\n                /* \"Project.sol\":4895:4936  recipient.transfer(address(this).balance) */\n              dup9\n              call\n              swap4\n              pop\n              pop\n              pop\n              pop\n              iszero\n              dup1\n              iszero\n              tag_199\n              jumpi\n              returndatasize\n              0x00\n              dup1\n              returndatacopy\n              revert(0x00, returndatasize)\n            tag_199:\n              pop\n                /* \"Project.sol\":4946:4962  status.completed */\n              0x0d\n                /* \"Project.sol\":4946:4969  status.completed = true */\n              dup1\n              sload\n              not(0xff)\n              and\n                /* \"Project.sol\":4965:4969  true */\n              0x01\n                /* \"Project.sol\":4946:4969  status.completed = true */\n              or\n              swap1\n              sstore\n                /* \"Project.sol\":5000:5015  block.timestamp */\n              timestamp\n                /* \"Project.sol\":4979:4997  status.completedAt */\n              0x0e\n                /* \"Project.sol\":4979:5015  status.completedAt = block.timestamp */\n              sstore\n                /* \"Project.sol\":4552:5022  function withdraw() public restricted {... */\n              jump\t// out\n                /* \"Project.sol\":1510:2203  function getSummary()... */\n            tag_70:\n                /* \"Project.sol\":1590:1594  uint */\n              0x00\n                /* \"Project.sol\":1608:1615  address */\n              dup1\n                /* \"Project.sol\":1629:1642  string memory */\n              0x60\n                /* \"Project.sol\":1656:1660  uint */\n              0x00\n                /* \"Project.sol\":1674:1678  uint */\n              dup1\n                /* \"Project.sol\":1692:1696  uint */\n              0x00\n                /* \"Project.sol\":1710:1714  uint */\n              dup1\n                /* \"Project.sol\":1728:1732  bool */\n              0x00\n                /* \"Project.sol\":1746:1750  uint */\n              dup1\n                /* \"Project.sol\":1764:1768  uint */\n              0x00\n                /* \"Project.sol\":1782:1786  bool */\n              dup1\n                /* \"Project.sol\":1800:1804  uint */\n              0x00\n                /* \"Project.sol\":1850:1871  address(this).balance */\n              selfbalance\n                /* \"Project.sol\":1885:1894  recipient */\n              0x02\n              0x00\n              swap1\n              sload\n              swap1\n              0x0100\n              exp\n              swap1\n              div\n              sub(shl(0xa0, 0x01), 0x01)\n              and\n                /* \"Project.sol\":1908:1911  cid */\n              0x03\n                /* \"Project.sol\":1925:1944  minimumContribution */\n              sload(0x04)\n                /* \"Project.sol\":1958:1976  targetContribution */\n              sload(0x05)\n                /* \"Project.sol\":1990:1998  deadline */\n              sload(0x06)\n                /* \"Project.sol\":2012:2029  contributorsCount */\n              sload(0x07)\n                /* \"Project.sol\":2043:2049  status */\n              0x09\n                /* \"Project.sol\":2043:2058  status.approved */\n              0x00\n              add\n              0x00\n              swap1\n              sload\n              swap1\n              0x0100\n              exp\n              swap1\n              div\n              0xff\n              and\n                /* \"Project.sol\":2072:2078  status */\n              0x09\n                /* \"Project.sol\":2072:2089  status.approvedAt */\n              0x01\n              add\n              sload\n                /* \"Project.sol\":2103:2109  status */\n              0x09\n                /* \"Project.sol\":2103:2124  status.approvalsCount */\n              0x02\n              add\n              sload\n                /* \"Project.sol\":2138:2144  status */\n              0x09\n                /* \"Project.sol\":2138:2154  status.completed */\n              0x04\n              add\n              0x00\n              swap1\n              sload\n              swap1\n              0x0100\n              exp\n              swap1\n              div\n              0xff\n              and\n                /* \"Project.sol\":2168:2174  status */\n              0x09\n                /* \"Project.sol\":2168:2186  status.completedAt */\n              0x05\n              add\n              sload\n                /* \"Project.sol\":1829:2196  return (... */\n              dup10\n              dup1\n              sload\n              tag_201\n              swap1\n              tag_202\n              jump\t// in\n            tag_201:\n              dup1\n              0x1f\n              add\n              0x20\n              dup1\n              swap2\n              div\n              mul\n              0x20\n              add\n              mload(0x40)\n              swap1\n              dup2\n              add\n              0x40\n              mstore\n              dup1\n              swap3\n              swap2\n              swap1\n              dup2\n              dup2\n              mstore\n              0x20\n              add\n              dup3\n              dup1\n              sload\n              tag_203\n              swap1\n              tag_202\n              jump\t// in\n            tag_203:\n              dup1\n              iszero\n              tag_204\n              jumpi\n              dup1\n              0x1f\n              lt\n              tag_205\n              jumpi\n              0x0100\n              dup1\n              dup4\n              sload\n              div\n              mul\n              dup4\n              mstore\n              swap2\n              0x20\n              add\n              swap2\n              jump(tag_204)\n            tag_205:\n              dup3\n              add\n              swap2\n              swap1\n              0x00\n              mstore\n              keccak256(0x00, 0x20)\n              swap1\n            tag_206:\n              dup2\n              sload\n              dup2\n              mstore\n              swap1\n              0x01\n              add\n              swap1\n              0x20\n              add\n              dup1\n              dup4\n              gt\n              tag_206\n              jumpi\n              dup3\n              swap1\n              sub\n              0x1f\n              and\n              dup3\n              add\n              swap2\n            tag_204:\n              pop\n              pop\n              pop\n              pop\n              pop\n              swap10\n              pop\n              swap12\n              pop\n              swap12\n              pop\n              swap12\n              pop\n              swap12\n              pop\n              swap12\n              pop\n              swap12\n              pop\n              swap12\n              pop\n              swap12\n              pop\n              swap12\n              pop\n              swap12\n              pop\n              swap12\n              pop\n              swap12\n              pop\n                /* \"Project.sol\":1510:2203  function getSummary()... */\n              swap1\n              swap2\n              swap3\n              swap4\n              swap5\n              swap6\n              swap7\n              swap8\n              swap9\n              swap10\n              swap11\n              swap12\n              jump\t// out\n                /* \"Project.sol\":280:297  string public cid */\n            tag_98:\n              0x03\n              dup1\n              sload\n              tag_207\n              swap1\n              tag_202\n              jump\t// in\n            tag_207:\n              dup1\n              0x1f\n              add\n              0x20\n              dup1\n              swap2\n              div\n              mul\n              0x20\n              add\n              mload(0x40)\n              swap1\n              dup2\n              add\n              0x40\n              mstore\n              dup1\n              swap3\n              swap2\n              swap1\n              dup2\n              dup2\n              mstore\n              0x20\n              add\n              dup3\n              dup1\n              sload\n              tag_208\n              swap1\n              tag_202\n              jump\t// in\n            tag_208:\n              dup1\n              iszero\n              tag_209\n              jumpi\n              dup1\n              0x1f\n              lt\n              tag_210\n              jumpi\n              0x0100\n              dup1\n              dup4\n              sload\n              div\n              mul\n              dup4\n              mstore\n              swap2\n              0x20\n              add\n              swap2\n              jump(tag_209)\n            tag_210:\n              dup3\n              add\n              swap2\n              swap1\n              0x00\n              mstore\n              keccak256(0x00, 0x20)\n              swap1\n            tag_211:\n              dup2\n              sload\n              dup2\n              mstore\n              swap1\n              0x01\n              add\n              swap1\n              0x20\n              add\n              dup1\n              dup4\n              gt\n              tag_211\n              jumpi\n              dup3\n              swap1\n              sub\n              0x1f\n              and\n              dup3\n              add\n              swap2\n            tag_209:\n              pop\n              pop\n              pop\n              pop\n              pop\n              dup2\n              jump\t// out\n                /* \"Project.sol\":2331:2616  function getReward(address _address) public view returns (uint256, string memory) {... */\n            tag_108:\n              sub(shl(0xa0, 0x01), 0x01)\n                /* \"Project.sol\":2427:2451  status.rewards[_address] */\n              dup2\n              and\n                /* \"Project.sol\":2389:2396  uint256 */\n              0x00\n                /* \"Project.sol\":2427:2451  status.rewards[_address] */\n              swap1\n              dup2\n              mstore\n                /* \"Project.sol\":2427:2441  status.rewards */\n              0x0f\n                /* \"Project.sol\":2427:2451  status.rewards[_address] */\n              0x20\n              mstore\n              0x40\n              dup2\n              keccak256\n              sload\n                /* \"Project.sol\":2398:2411  string memory */\n              0x60\n              swap1\n                /* \"Project.sol\":2427:2451  status.rewards[_address] */\n              0xff\n              and\n                /* \"Project.sol\":2423:2585  if (status.rewards[_address]) {... */\n              iszero\n              tag_213\n              jumpi\n                /* \"Project.sol\":2485:2488  nft */\n              sload(0x12)\n                /* \"Project.sol\":2485:2521  nft.tokenOfOwnerByIndex(_address, 0) */\n              mload(0x40)\n              shl(0xe0, 0x2f745c59)\n              dup2\n              mstore\n              sub(shl(0xa0, 0x01), 0x01)\n                /* \"#utility.yul\":10905:10937   */\n              dup6\n              dup2\n              and\n                /* \"Project.sol\":2485:2521  nft.tokenOfOwnerByIndex(_address, 0) */\n              0x04\n              dup4\n              add\n                /* \"#utility.yul\":10887:10938   */\n              mstore\n                /* \"Project.sol\":2467:2482  uint256 tokenId */\n              0x00\n                /* \"#utility.yul\":10954:10972   */\n              0x24\n              dup4\n              add\n                /* \"#utility.yul\":10947:10981   */\n              dup2\n              swap1\n              mstore\n                /* \"Project.sol\":2467:2482  uint256 tokenId */\n              swap3\n                /* \"Project.sol\":2485:2488  nft */\n              and\n              swap1\n                /* \"Project.sol\":2485:2508  nft.tokenOfOwnerByIndex */\n              0x2f745c59\n              swap1\n                /* \"#utility.yul\":10860:10878   */\n              0x44\n              add\n                /* \"Project.sol\":2485:2521  nft.tokenOfOwnerByIndex(_address, 0) */\n              0x20\n              mload(0x40)\n              dup1\n              dup4\n              sub\n              dup2\n              dup7\n              gas\n              staticcall\n              iszero\n              dup1\n              iszero\n              tag_217\n              jumpi\n              returndatasize\n              0x00\n              dup1\n              returndatacopy\n              revert(0x00, returndatasize)\n            tag_217:\n              pop\n              pop\n              pop\n              pop\n              mload(0x40)\n              returndatasize\n              not(0x1f)\n              0x1f\n              dup3\n              add\n              and\n              dup3\n              add\n              dup1\n              0x40\n              mstore\n              pop\n              dup2\n              add\n              swap1\n              tag_218\n              swap2\n              swap1\n              tag_219\n              jump\t// in\n            tag_218:\n                /* \"Project.sol\":2552:2555  nft */\n              sload(0x12)\n                /* \"Project.sol\":2552:2573  nft.tokenURI(tokenId) */\n              mload(0x40)\n              shl(0xe0, 0xc87b56dd)\n              dup2\n              mstore\n              0x04\n              dup2\n              add\n                /* \"#utility.yul\":160:185   */\n              dup4\n              swap1\n              mstore\n                /* \"Project.sol\":2467:2521  uint256 tokenId = nft.tokenOfOwnerByIndex(_address, 0) */\n              swap2\n              swap3\n              pop\n              dup3\n              swap2\n              sub(shl(0xa0, 0x01), 0x01)\n                /* \"Project.sol\":2552:2555  nft */\n              swap1\n              swap2\n              and\n              swap1\n                /* \"Project.sol\":2552:2564  nft.tokenURI */\n              0xc87b56dd\n              swap1\n                /* \"#utility.yul\":133:151   */\n              0x24\n              add\n                /* \"Project.sol\":2552:2573  nft.tokenURI(tokenId) */\n              0x00\n              mload(0x40)\n              dup1\n              dup4\n              sub\n              dup2\n              dup7\n              gas\n              staticcall\n              iszero\n              dup1\n              iszero\n              tag_222\n              jumpi\n              returndatasize\n              0x00\n              dup1\n              returndatacopy\n              revert(0x00, returndatasize)\n            tag_222:\n              pop\n              pop\n              pop\n              pop\n              mload(0x40)\n              returndatasize\n              0x00\n              dup3\n              returndatacopy\n              0x1f\n              returndatasize\n              swap1\n              dup2\n              add\n              not(0x1f)\n              and\n              dup3\n              add\n              0x40\n              mstore\n              tag_223\n              swap2\n              swap1\n              dup2\n              add\n              swap1\n              tag_224\n              jump\t// in\n            tag_223:\n                /* \"Project.sol\":2535:2574  return (tokenId, nft.tokenURI(tokenId)) */\n              swap3\n              pop\n              swap3\n              pop\n              pop\n                /* \"Project.sol\":2331:2616  function getReward(address _address) public view returns (uint256, string memory) {... */\n              swap2\n              pop\n              swap2\n              jump\t// out\n                /* \"Project.sol\":2423:2585  if (status.rewards[_address]) {... */\n            tag_213:\n              pop\n              pop\n                /* \"Project.sol\":2595:2609  return (0, '') */\n              0x40\n              dup1\n              mload\n              0x20\n              dup2\n              add\n              swap1\n              swap2\n              mstore\n                /* \"Project.sol\":2603:2604  0 */\n              0x00\n                /* \"Project.sol\":2595:2609  return (0, '') */\n              dup1\n              dup3\n              mstore\n                /* \"Project.sol\":2603:2604  0 */\n              swap3\n                /* \"Project.sol\":2595:2609  return (0, '') */\n              swap1\n              swap2\n              pop\n                /* \"Project.sol\":2331:2616  function getReward(address _address) public view returns (uint256, string memory) {... */\n              jump\t// out\n                /* \"Project.sol\":6570:7362  function approveMilestone(uint index) public {... */\n            tag_115:\n                /* \"Project.sol\":6625:6658  Model.Milestone storage milestone */\n              0x00\n                /* \"Project.sol\":6661:6671  milestones */\n              0x10\n                /* \"Project.sol\":6672:6677  index */\n              dup3\n                /* \"Project.sol\":6661:6678  milestones[index] */\n              dup2\n              sload\n              dup2\n              lt\n              tag_227\n              jumpi\n              tag_227\n              tag_153\n              jump\t// in\n            tag_227:\n              swap1\n              0x00\n              mstore\n              keccak256(0x00, 0x20)\n              swap1\n              0x03\n              mul\n              add\n                /* \"Project.sol\":6625:6678  Model.Milestone storage milestone = milestones[index] */\n              swap1\n              pop\n                /* \"Project.sol\":6688:6716  Model.Status storage mStatus */\n              0x00\n                /* \"Project.sol\":6719:6736  milestoneStatuses */\n              0x11\n                /* \"Project.sol\":6737:6742  index */\n              dup4\n                /* \"Project.sol\":6719:6743  milestoneStatuses[index] */\n              dup2\n              sload\n              dup2\n              lt\n              tag_230\n              jumpi\n              tag_230\n              tag_153\n              jump\t// in\n            tag_230:\n              swap1\n              0x00\n              mstore\n              keccak256(0x00, 0x20)\n              swap1\n              0x07\n              mul\n              add\n                /* \"Project.sol\":6688:6743  Model.Status storage mStatus = milestoneStatuses[index] */\n              swap1\n              pop\n                /* \"Project.sol\":6851:6860  milestone */\n              dup2\n                /* \"Project.sol\":6851:6870  milestone.threshold */\n              0x02\n              add\n              sload\n                /* \"Project.sol\":6826:6847  address(this).balance */\n              selfbalance\n                /* \"Project.sol\":6826:6870  address(this).balance >= milestone.threshold */\n              lt\n              iszero\n                /* \"Project.sol\":6818:6871  require(address(this).balance >= milestone.threshold) */\n              tag_232\n              jumpi\n              0x00\n              dup1\n              revert\n            tag_232:\n                /* \"Project.sol\":6965:6975  msg.sender */\n              caller\n                /* \"Project.sol\":6979:6980  0 */\n              0x00\n                /* \"Project.sol\":6952:6976  contributors[msg.sender] */\n              swap1\n              dup2\n              mstore\n                /* \"Project.sol\":6952:6964  contributors */\n              0x08\n                /* \"Project.sol\":6952:6976  contributors[msg.sender] */\n              0x20\n              mstore\n              0x40\n              swap1\n              keccak256\n              sload\n                /* \"Project.sol\":6944:6981  require(contributors[msg.sender] > 0) */\n              tag_233\n              jumpi\n              0x00\n              dup1\n              revert\n            tag_233:\n                /* \"Project.sol\":7084:7094  msg.sender */\n              caller\n                /* \"Project.sol\":7066:7095  mStatus.approvals[msg.sender] */\n              0x00\n              swap1\n              dup2\n              mstore\n                /* \"Project.sol\":7066:7083  mStatus.approvals */\n              0x03\n              dup3\n              add\n                /* \"Project.sol\":7066:7095  mStatus.approvals[msg.sender] */\n              0x20\n              mstore\n              0x40\n              swap1\n              keccak256\n              sload\n                /* \"Project.sol\":7066:7100  mStatus.approvals[msg.sender] == 0 */\n              iszero\n                /* \"Project.sol\":7058:7101  require(mStatus.approvals[msg.sender] == 0) */\n              tag_234\n              jumpi\n              0x00\n              dup1\n              revert\n            tag_234:\n                /* \"Project.sol\":7130:7140  msg.sender */\n              caller\n                /* \"Project.sol\":7112:7141  mStatus.approvals[msg.sender] */\n              0x00\n              swap1\n              dup2\n              mstore\n                /* \"Project.sol\":7112:7129  mStatus.approvals */\n              0x03\n              dup3\n              add\n                /* \"Project.sol\":7112:7141  mStatus.approvals[msg.sender] */\n              0x20\n              mstore\n              0x40\n              dup2\n              keccak256\n                /* \"Project.sol\":7144:7159  block.timestamp */\n              timestamp\n                /* \"Project.sol\":7112:7159  mStatus.approvals[msg.sender] = block.timestamp */\n              swap1\n              sstore\n                /* \"Project.sol\":7169:7191  mStatus.approvalsCount */\n              0x02\n              dup3\n              add\n                /* \"Project.sol\":7169:7193  mStatus.approvalsCount++ */\n              dup1\n              sload\n              swap2\n              tag_235\n              dup4\n              tag_157\n              jump\t// in\n            tag_235:\n              swap2\n              swap1\n              pop\n              sstore\n              pop\n                /* \"Project.sol\":7254:7255  2 */\n              0x02\n                /* \"Project.sol\":7234:7251  contributorsCount */\n              sload(0x07)\n                /* \"Project.sol\":7234:7255  contributorsCount / 2 */\n              tag_236\n              swap2\n              swap1\n              tag_159\n              jump\t// in\n            tag_236:\n                /* \"Project.sol\":7208:7215  mStatus */\n              dup2\n                /* \"Project.sol\":7208:7230  mStatus.approvalsCount */\n              0x02\n              add\n              sload\n                /* \"Project.sol\":7208:7256  mStatus.approvalsCount > (contributorsCount / 2) */\n              gt\n                /* \"Project.sol\":7204:7356  if (mStatus.approvalsCount > (contributorsCount / 2)) {... */\n              iszero\n              tag_237\n              jumpi\n                /* \"Project.sol\":7272:7295  mStatus.approved = true */\n              dup1\n              sload\n              not(0xff)\n              and\n                /* \"Project.sol\":7291:7295  true */\n              0x01\n                /* \"Project.sol\":7272:7295  mStatus.approved = true */\n              swap1\n              dup2\n              or\n              dup3\n              sstore\n                /* \"Project.sol\":7330:7345  block.timestamp */\n              timestamp\n                /* \"Project.sol\":7309:7327  mStatus.approvedAt */\n              swap1\n              dup3\n              add\n                /* \"Project.sol\":7309:7345  mStatus.approvedAt = block.timestamp */\n              sstore\n                /* \"Project.sol\":7204:7356  if (mStatus.approvalsCount > (contributorsCount / 2)) {... */\n            tag_237:\n                /* \"Project.sol\":6615:7362  {... */\n              pop\n              pop\n                /* \"Project.sol\":6570:7362  function approveMilestone(uint index) public {... */\n              pop\n              jump\t// out\n                /* \"Project.sol\":5730:6564  function createMilestone(... */\n            tag_120:\n                /* \"Project.sol\":727:732  owner */\n              and(sub(shl(0xa0, 0x01), 0x01), sload(0x01))\n                /* \"Project.sol\":713:723  msg.sender */\n              caller\n                /* \"Project.sol\":713:732  msg.sender == owner */\n              eq\n                /* \"Project.sol\":705:733  require(msg.sender == owner) */\n              tag_239\n              jumpi\n              0x00\n              dup1\n              revert\n            tag_239:\n                /* \"Project.sol\":5915:5916  0 */\n              0x00\n                /* \"Project.sol\":5892:5904  _description */\n              dup4\n                /* \"Project.sol\":5886:5912  bytes(_description).length */\n              mload\n                /* \"Project.sol\":5886:5916  bytes(_description).length > 0 */\n              gt\n                /* \"Project.sol\":5878:5917  require(bytes(_description).length > 0) */\n              tag_241\n              jumpi\n              0x00\n              dup1\n              revert\n            tag_241:\n                /* \"Project.sol\":5948:5949  0 */\n              0x00\n                /* \"Project.sol\":5935:5945  _threshold */\n              dup3\n                /* \"Project.sol\":5935:5949  _threshold > 0 */\n              gt\n                /* \"Project.sol\":5927:5950  require(_threshold > 0) */\n              tag_242\n              jumpi\n              0x00\n              dup1\n              revert\n            tag_242:\n                /* \"Project.sol\":5981:5999  targetContribution */\n              sload(0x05)\n                /* \"Project.sol\":5968:5978  _threshold */\n              dup3\n                /* \"Project.sol\":5968:5999  _threshold < targetContribution */\n              lt\n                /* \"Project.sol\":5960:6000  require(_threshold < targetContribution) */\n              tag_243\n              jumpi\n              0x00\n              dup1\n              revert\n            tag_243:\n              sub(shl(0xa0, 0x01), 0x01)\n                /* \"Project.sol\":6018:6042  _recipient != address(0) */\n              dup2\n              and\n                /* \"Project.sol\":6010:6043  require(_recipient != address(0)) */\n              tag_244\n              jumpi\n              0x00\n              dup1\n              revert\n            tag_244:\n                /* \"Project.sol\":6196:6206  milestones */\n              0x10\n                /* \"Project.sol\":6196:6213  milestones.length */\n              sload\n                /* \"Project.sol\":6196:6217  milestones.length > 0 */\n              iszero\n                /* \"Project.sol\":6192:6309  if (milestones.length > 0) {... */\n              tag_251\n              jumpi\n                /* \"Project.sol\":6254:6264  milestones */\n              0x10\n                /* \"Project.sol\":6265:6282  milestones.length */\n              dup1\n              sload\n                /* \"Project.sol\":6265:6286  milestones.length - 1 */\n              tag_246\n              swap1\n                /* \"Project.sol\":6285:6286  1 */\n              0x01\n              swap1\n                /* \"Project.sol\":6265:6286  milestones.length - 1 */\n              tag_247\n              jump\t// in\n            tag_246:\n                /* \"Project.sol\":6254:6287  milestones[milestones.length - 1] */\n              dup2\n              sload\n              dup2\n              lt\n              tag_249\n              jumpi\n              tag_249\n              tag_153\n              jump\t// in\n            tag_249:\n              swap1\n              0x00\n              mstore\n              keccak256(0x00, 0x20)\n              swap1\n              0x03\n              mul\n              add\n                /* \"Project.sol\":6254:6297  milestones[milestones.length - 1].threshold */\n              0x02\n              add\n              sload\n                /* \"Project.sol\":6241:6251  _threshold */\n              dup3\n                /* \"Project.sol\":6241:6297  _threshold > milestones[milestones.length - 1].threshold */\n              gt\n                /* \"Project.sol\":6233:6298  require(_threshold > milestones[milestones.length - 1].threshold) */\n              tag_251\n              jumpi\n              0x00\n              dup1\n              revert\n            tag_251:\n                /* \"Project.sol\":6358:6368  milestones */\n              0x10\n                /* \"Project.sol\":6358:6375  milestones.push() */\n              dup1\n              sload\n              0x01\n              dup2\n              add\n              dup3\n              sstore\n                /* \"Project.sol\":6319:6355  Model.Milestone storage newMilestone */\n              0x00\n                /* \"Project.sol\":6358:6375  milestones.push() */\n              swap2\n              swap1\n              swap2\n              mstore\n              0x03\n              mul\n              0x1b6847dc741a1b0cd08d278845f9d819d87b734759afb55fe2de5cb82a9ae672\n              dup2\n              add\n              swap1\n                /* \"Project.sol\":6385:6409  newMilestone.description */\n              0x1b6847dc741a1b0cd08d278845f9d819d87b734759afb55fe2de5cb82a9ae673\n              add\n                /* \"Project.sol\":6385:6424  newMilestone.description = _description */\n              tag_253\n                /* \"Project.sol\":6412:6424  _description */\n              dup6\n                /* \"Project.sol\":6385:6409  newMilestone.description */\n              dup3\n                /* \"Project.sol\":6385:6424  newMilestone.description = _description */\n              tag_254\n              jump\t// in\n            tag_253:\n              pop\n                /* \"Project.sol\":6434:6456  newMilestone.threshold */\n              0x02\n              dup2\n              add\n                /* \"Project.sol\":6434:6469  newMilestone.threshold = _threshold */\n              swap3\n              swap1\n              swap3\n              sstore\n                /* \"Project.sol\":6479:6523  newMilestone.recipient = payable(_recipient) */\n              dup2\n              sload\n              not(sub(shl(0xa0, 0x01), 0x01))\n              and\n              sub(shl(0xa0, 0x01), 0x01)\n              swap2\n              swap1\n              swap2\n              and\n              or\n              swap1\n              sstore\n              pop\n                /* \"Project.sol\":6533:6550  milestoneStatuses */\n              0x11\n                /* \"Project.sol\":6533:6557  milestoneStatuses.push() */\n              dup1\n              sload\n              0x01\n              add\n              dup2\n              sstore\n              0x00\n              mstore\n                /* \"Project.sol\":5730:6564  function createMilestone(... */\n              jump\t// out\n                /* \"Project.sol\":2744:3213  function contribute() public payable {... */\n            tag_122:\n                /* \"Project.sol\":2907:2926  minimumContribution */\n              sload(0x04)\n                /* \"Project.sol\":2894:2903  msg.value */\n              callvalue\n                /* \"Project.sol\":2894:2926  msg.value >= minimumContribution */\n              lt\n              iszero\n                /* \"Project.sol\":2886:2927  require(msg.value >= minimumContribution) */\n              tag_257\n              jumpi\n              0x00\n              dup1\n              revert\n            tag_257:\n                /* \"Project.sol\":3055:3063  deadline */\n              sload(0x06)\n                /* \"Project.sol\":3037:3052  block.timestamp */\n              timestamp\n                /* \"Project.sol\":3037:3063  block.timestamp < deadline */\n              lt\n                /* \"Project.sol\":3029:3064  require(block.timestamp < deadline) */\n              tag_258\n              jumpi\n              0x00\n              dup1\n              revert\n            tag_258:\n                /* \"Project.sol\":3092:3102  msg.sender */\n              caller\n                /* \"Project.sol\":3079:3103  contributors[msg.sender] */\n              0x00\n              swap1\n              dup2\n              mstore\n                /* \"Project.sol\":3079:3091  contributors */\n              0x08\n                /* \"Project.sol\":3079:3103  contributors[msg.sender] */\n              0x20\n              mstore\n              0x40\n              dup2\n              keccak256\n              sload\n                /* \"Project.sol\":3079:3108  contributors[msg.sender] == 0 */\n              swap1\n              sub\n                /* \"Project.sol\":3075:3154  if (contributors[msg.sender] == 0) {... */\n              tag_259\n              jumpi\n                /* \"Project.sol\":3124:3141  contributorsCount */\n              0x07\n                /* \"Project.sol\":3124:3143  contributorsCount++ */\n              dup1\n              sload\n              swap1\n                /* \"Project.sol\":3124:3141  contributorsCount */\n              0x00\n                /* \"Project.sol\":3124:3143  contributorsCount++ */\n              tag_260\n              dup4\n              tag_157\n              jump\t// in\n            tag_260:\n              swap2\n              swap1\n              pop\n              sstore\n              pop\n                /* \"Project.sol\":3075:3154  if (contributors[msg.sender] == 0) {... */\n            tag_259:\n                /* \"Project.sol\":3177:3187  msg.sender */\n              caller\n                /* \"Project.sol\":3164:3188  contributors[msg.sender] */\n              0x00\n              swap1\n              dup2\n              mstore\n                /* \"Project.sol\":3164:3176  contributors */\n              0x08\n                /* \"Project.sol\":3164:3188  contributors[msg.sender] */\n              0x20\n              mstore\n              0x40\n              swap1\n              keccak256\n                /* \"Project.sol\":3191:3206  block.timestamp */\n              timestamp\n                /* \"Project.sol\":3164:3206  contributors[msg.sender] = block.timestamp */\n              swap1\n              sstore\n                /* \"Project.sol\":2744:3213  function contribute() public payable {... */\n              jump\t// out\n                /* \"Project.sol\":558:593  Model.Milestone[] public milestones */\n            tag_131:\n              0x10\n              dup2\n              dup2\n              sload\n              dup2\n              lt\n              tag_262\n              jumpi\n              0x00\n              dup1\n              revert\n            tag_262:\n              0x00\n              swap2\n              dup3\n              mstore\n              0x20\n              swap1\n              swap2\n              keccak256\n              0x03\n              swap1\n              swap2\n              mul\n              add\n              dup1\n              sload\n              0x01\n              dup3\n              add\n              dup1\n              sload\n              sub(shl(0xa0, 0x01), 0x01)\n              swap1\n              swap3\n              and\n              swap4\n              pop\n              swap1\n              tag_264\n              swap1\n              tag_202\n              jump\t// in\n            tag_264:\n              dup1\n              0x1f\n              add\n              0x20\n              dup1\n              swap2\n              div\n              mul\n              0x20\n              add\n              mload(0x40)\n              swap1\n              dup2\n              add\n              0x40\n              mstore\n              dup1\n              swap3\n              swap2\n              swap1\n              dup2\n              dup2\n              mstore\n              0x20\n              add\n              dup3\n              dup1\n              sload\n              tag_265\n              swap1\n              tag_202\n              jump\t// in\n            tag_265:\n              dup1\n              iszero\n              tag_266\n              jumpi\n              dup1\n              0x1f\n              lt\n              tag_267\n              jumpi\n              0x0100\n              dup1\n              dup4\n              sload\n              div\n              mul\n              dup4\n              mstore\n              swap2\n              0x20\n              add\n              swap2\n              jump(tag_266)\n            tag_267:\n              dup3\n              add\n              swap2\n              swap1\n              0x00\n              mstore\n              keccak256(0x00, 0x20)\n              swap1\n            tag_268:\n              dup2\n              sload\n              dup2\n              mstore\n              swap1\n              0x01\n              add\n              swap1\n              0x20\n              add\n              dup1\n              dup4\n              gt\n              tag_268\n              jumpi\n              dup3\n              swap1\n              sub\n              0x1f\n              and\n              dup3\n              add\n              swap2\n            tag_266:\n              pop\n              pop\n              pop\n              pop\n              pop\n              swap1\n              dup1\n              0x02\n              add\n              sload\n              swap1\n              pop\n              dup4\n              jump\t// out\n                /* \"Project.sol\":7368:8263  function withdrawMilestone(uint index) public restricted {... */\n            tag_137:\n                /* \"Project.sol\":727:732  owner */\n              and(sub(shl(0xa0, 0x01), 0x01), sload(0x01))\n                /* \"Project.sol\":713:723  msg.sender */\n              caller\n                /* \"Project.sol\":713:732  msg.sender == owner */\n              eq\n                /* \"Project.sol\":705:733  require(msg.sender == owner) */\n              tag_270\n              jumpi\n              0x00\n              dup1\n              revert\n            tag_270:\n                /* \"Project.sol\":7435:7468  Model.Milestone storage milestone */\n              0x00\n                /* \"Project.sol\":7471:7481  milestones */\n              0x10\n                /* \"Project.sol\":7482:7487  index */\n              dup3\n                /* \"Project.sol\":7471:7488  milestones[index] */\n              dup2\n              sload\n              dup2\n              lt\n              tag_273\n              jumpi\n              tag_273\n              tag_153\n              jump\t// in\n            tag_273:\n              swap1\n              0x00\n              mstore\n              keccak256(0x00, 0x20)\n              swap1\n              0x03\n              mul\n              add\n                /* \"Project.sol\":7435:7488  Model.Milestone storage milestone = milestones[index] */\n              swap1\n              pop\n                /* \"Project.sol\":7498:7526  Model.Status storage mStatus */\n              0x00\n                /* \"Project.sol\":7529:7546  milestoneStatuses */\n              0x11\n                /* \"Project.sol\":7547:7552  index */\n              dup4\n                /* \"Project.sol\":7529:7553  milestoneStatuses[index] */\n              dup2\n              sload\n              dup2\n              lt\n              tag_276\n              jumpi\n              tag_276\n              tag_153\n              jump\t// in\n            tag_276:\n              0x00\n              swap2\n              dup3\n              mstore\n              0x20\n              swap1\n              swap2\n              keccak256\n              0x07\n              swap1\n              swap2\n              mul\n              add\n                /* \"Project.sol\":7651:7667  mStatus.approved */\n              dup1\n              sload\n                /* \"Project.sol\":7529:7553  milestoneStatuses[index] */\n              swap1\n              swap2\n              pop\n                /* \"Project.sol\":7651:7667  mStatus.approved */\n              0xff\n              and\n                /* \"Project.sol\":7643:7668  require(mStatus.approved) */\n              tag_278\n              jumpi\n              0x00\n              dup1\n              revert\n            tag_278:\n                /* \"Project.sol\":7865:7884  milestone.threshold */\n              0x02\n              dup3\n              add\n              sload\n                /* \"Project.sol\":7843:7862  uint withdrawAmount */\n              0x00\n                /* \"Project.sol\":7894:8121  for (uint i = 0; i < index; i++) {... */\n            tag_279:\n                /* \"Project.sol\":7915:7920  index */\n              dup5\n                /* \"Project.sol\":7911:7912  i */\n              dup2\n                /* \"Project.sol\":7911:7920  i < index */\n              lt\n                /* \"Project.sol\":7894:8121  for (uint i = 0; i < index; i++) {... */\n              iszero\n              tag_280\n              jumpi\n                /* \"Project.sol\":8008:8025  milestoneStatuses */\n              0x11\n                /* \"Project.sol\":8026:8027  i */\n              dup2\n                /* \"Project.sol\":8008:8028  milestoneStatuses[i] */\n              dup2\n              sload\n              dup2\n              lt\n              tag_283\n              jumpi\n              tag_283\n              tag_153\n              jump\t// in\n            tag_283:\n              0x00\n              swap2\n              dup3\n              mstore\n              0x20\n              swap1\n              swap2\n              keccak256\n                /* \"Project.sol\":8008:8038  milestoneStatuses[i].completed */\n              0x04\n                /* \"Project.sol\":8008:8028  milestoneStatuses[i] */\n              0x07\n              swap1\n              swap3\n              mul\n              add\n                /* \"Project.sol\":8008:8038  milestoneStatuses[i].completed */\n              add\n              sload\n              0xff\n              and\n                /* \"Project.sol\":8000:8039  require(milestoneStatuses[i].completed) */\n              tag_285\n              jumpi\n              0x00\n              dup1\n              revert\n            tag_285:\n                /* \"Project.sol\":8087:8097  milestones */\n              0x10\n                /* \"Project.sol\":8098:8099  i */\n              dup2\n                /* \"Project.sol\":8087:8100  milestones[i] */\n              dup2\n              sload\n              dup2\n              lt\n              tag_287\n              jumpi\n              tag_287\n              tag_153\n              jump\t// in\n            tag_287:\n              swap1\n              0x00\n              mstore\n              keccak256(0x00, 0x20)\n              swap1\n              0x03\n              mul\n              add\n                /* \"Project.sol\":8087:8110  milestones[i].threshold */\n              0x02\n              add\n              sload\n                /* \"Project.sol\":8070:8084  withdrawAmount */\n              dup3\n                /* \"Project.sol\":8070:8110  withdrawAmount - milestones[i].threshold */\n              tag_289\n              swap2\n              swap1\n              tag_247\n              jump\t// in\n            tag_289:\n                /* \"Project.sol\":8053:8110  withdrawAmount = withdrawAmount - milestones[i].threshold */\n              swap2\n              pop\n                /* \"Project.sol\":7922:7925  i++ */\n              0x01\n              add\n                /* \"Project.sol\":7894:8121  for (uint i = 0; i < index; i++) {... */\n              jump(tag_279)\n            tag_280:\n              pop\n                /* \"Project.sol\":8131:8150  milestone.recipient */\n              dup3\n              sload\n                /* \"Project.sol\":8131:8175  milestone.recipient.transfer(withdrawAmount) */\n              mload(0x40)\n              sub(shl(0xa0, 0x01), 0x01)\n                /* \"Project.sol\":8131:8150  milestone.recipient */\n              swap1\n              swap2\n              and\n              swap1\n                /* \"Project.sol\":8131:8175  milestone.recipient.transfer(withdrawAmount) */\n              dup3\n              iszero\n              0x08fc\n              mul\n              swap1\n                /* \"Project.sol\":8160:8174  withdrawAmount */\n              dup4\n              swap1\n                /* \"Project.sol\":8131:8150  milestone.recipient */\n              0x00\n                /* \"Project.sol\":8131:8175  milestone.recipient.transfer(withdrawAmount) */\n              dup2\n                /* \"Project.sol\":8131:8150  milestone.recipient */\n              dup2\n                /* \"Project.sol\":8131:8175  milestone.recipient.transfer(withdrawAmount) */\n              dup2\n                /* \"Project.sol\":8160:8174  withdrawAmount */\n              dup6\n                /* \"Project.sol\":8131:8150  milestone.recipient */\n              dup9\n                /* \"Project.sol\":8131:8175  milestone.recipient.transfer(withdrawAmount) */\n              dup9\n              call\n              swap4\n              pop\n              pop\n              pop\n              pop\n              iszero\n              dup1\n              iszero\n              tag_291\n              jumpi\n              returndatasize\n              0x00\n              dup1\n              returndatacopy\n              revert(0x00, returndatasize)\n            tag_291:\n              pop\n              pop\n                /* \"Project.sol\":8185:8202  mStatus.completed */\n              0x04\n              dup2\n              add\n                /* \"Project.sol\":8185:8209  mStatus.completed = true */\n              dup1\n              sload\n              not(0xff)\n              and\n                /* \"Project.sol\":8205:8209  true */\n              0x01\n                /* \"Project.sol\":8185:8209  mStatus.completed = true */\n              or\n              swap1\n              sstore\n                /* \"Project.sol\":8241:8256  block.timestamp */\n              timestamp\n                /* \"Project.sol\":8219:8238  mStatus.completedAt */\n              0x05\n              swap1\n              swap2\n              add\n                /* \"Project.sol\":8219:8256  mStatus.completedAt = block.timestamp */\n              sstore\n              pop\n              pop\n                /* \"Project.sol\":7368:8263  function withdrawMilestone(uint index) public restricted {... */\n              jump\t// out\n                /* \"Project.sol\":599:638  Model.Status[] public milestoneStatuses */\n            tag_141:\n              0x11\n              dup2\n              dup2\n              sload\n              dup2\n              lt\n              tag_292\n              jumpi\n              0x00\n              dup1\n              revert\n            tag_292:\n              0x00\n              swap2\n              dup3\n              mstore\n              0x20\n              swap1\n              swap2\n              keccak256\n              0x07\n              swap1\n              swap2\n              mul\n              add\n              dup1\n              sload\n              0x01\n              dup3\n              add\n              sload\n              0x02\n              dup4\n              add\n              sload\n              0x04\n              dup5\n              add\n              sload\n              0x05\n              swap1\n              swap5\n              add\n              sload\n              0xff\n              swap4\n              dup5\n              and\n              swap6\n              pop\n              swap2\n              swap4\n              swap1\n              swap3\n              and\n              swap1\n              dup6\n              jump\t// out\n                /* \"#utility.yul\":196:369   */\n            tag_294:\n                /* \"#utility.yul\":264:284   */\n              dup1\n              calldataload\n              sub(shl(0xa0, 0x01), 0x01)\n                /* \"#utility.yul\":313:344   */\n              dup2\n              and\n                /* \"#utility.yul\":303:345   */\n              dup2\n              eq\n                /* \"#utility.yul\":293:363   */\n              tag_311\n              jumpi\n                /* \"#utility.yul\":359:360   */\n              0x00\n                /* \"#utility.yul\":356:357   */\n              dup1\n                /* \"#utility.yul\":349:361   */\n              revert\n                /* \"#utility.yul\":293:363   */\n            tag_311:\n                /* \"#utility.yul\":196:369   */\n              swap2\n              swap1\n              pop\n              jump\t// out\n                /* \"#utility.yul\":374:560   */\n            tag_38:\n                /* \"#utility.yul\":433:439   */\n              0x00\n                /* \"#utility.yul\":486:488   */\n              0x20\n                /* \"#utility.yul\":474:483   */\n              dup3\n                /* \"#utility.yul\":465:472   */\n              dup5\n                /* \"#utility.yul\":461:484   */\n              sub\n                /* \"#utility.yul\":457:489   */\n              slt\n                /* \"#utility.yul\":454:506   */\n              iszero\n              tag_313\n              jumpi\n                /* \"#utility.yul\":502:503   */\n              0x00\n                /* \"#utility.yul\":499:500   */\n              dup1\n                /* \"#utility.yul\":492:504   */\n              revert\n                /* \"#utility.yul\":454:506   */\n            tag_313:\n                /* \"#utility.yul\":525:554   */\n              tag_314\n                /* \"#utility.yul\":544:553   */\n              dup3\n                /* \"#utility.yul\":525:554   */\n              tag_294\n              jump\t// in\n            tag_314:\n                /* \"#utility.yul\":515:554   */\n              swap4\n                /* \"#utility.yul\":374:560   */\n              swap3\n              pop\n              pop\n              pop\n              jump\t// out\n                /* \"#utility.yul\":1053:1180   */\n            tag_295:\n                /* \"#utility.yul\":1114:1124   */\n              0x4e487b71\n                /* \"#utility.yul\":1109:1112   */\n              0xe0\n                /* \"#utility.yul\":1105:1125   */\n              shl\n                /* \"#utility.yul\":1102:1103   */\n              0x00\n                /* \"#utility.yul\":1095:1126   */\n              mstore\n                /* \"#utility.yul\":1145:1149   */\n              0x41\n                /* \"#utility.yul\":1142:1143   */\n              0x04\n                /* \"#utility.yul\":1135:1150   */\n              mstore\n                /* \"#utility.yul\":1169:1173   */\n              0x24\n                /* \"#utility.yul\":1166:1167   */\n              0x00\n                /* \"#utility.yul\":1159:1174   */\n              revert\n                /* \"#utility.yul\":1185:1460   */\n            tag_296:\n                /* \"#utility.yul\":1256:1258   */\n              0x40\n                /* \"#utility.yul\":1250:1259   */\n              mload\n                /* \"#utility.yul\":1321:1323   */\n              0x1f\n                /* \"#utility.yul\":1302:1315   */\n              dup3\n              add\n              not(0x1f)\n                /* \"#utility.yul\":1298:1325   */\n              and\n                /* \"#utility.yul\":1286:1326   */\n              dup2\n              add\n              sub(shl(0x40, 0x01), 0x01)\n                /* \"#utility.yul\":1341:1375   */\n              dup2\n              gt\n                /* \"#utility.yul\":1377:1399   */\n              dup3\n              dup3\n              lt\n                /* \"#utility.yul\":1338:1400   */\n              or\n                /* \"#utility.yul\":1335:1423   */\n              iszero\n              tag_319\n              jumpi\n                /* \"#utility.yul\":1403:1421   */\n              tag_319\n              tag_295\n              jump\t// in\n            tag_319:\n                /* \"#utility.yul\":1439:1441   */\n              0x40\n                /* \"#utility.yul\":1432:1454   */\n              mstore\n                /* \"#utility.yul\":1185:1460   */\n              swap2\n              swap1\n              pop\n              jump\t// out\n                /* \"#utility.yul\":1465:1652   */\n            tag_297:\n                /* \"#utility.yul\":1514:1518   */\n              0x00\n              sub(shl(0x40, 0x01), 0x01)\n                /* \"#utility.yul\":1536:1566   */\n              dup3\n              gt\n                /* \"#utility.yul\":1533:1589   */\n              iszero\n              tag_322\n              jumpi\n                /* \"#utility.yul\":1569:1587   */\n              tag_322\n              tag_295\n              jump\t// in\n            tag_322:\n              pop\n                /* \"#utility.yul\":1635:1637   */\n              0x1f\n                /* \"#utility.yul\":1614:1629   */\n              add\n              not(0x1f)\n                /* \"#utility.yul\":1610:1639   */\n              and\n                /* \"#utility.yul\":1641:1645   */\n              0x20\n                /* \"#utility.yul\":1606:1646   */\n              add\n              swap1\n                /* \"#utility.yul\":1465:1652   */\n              jump\t// out\n                /* \"#utility.yul\":1657:2121   */\n            tag_298:\n                /* \"#utility.yul\":1700:1705   */\n              0x00\n                /* \"#utility.yul\":1753:1756   */\n              dup3\n                /* \"#utility.yul\":1746:1750   */\n              0x1f\n                /* \"#utility.yul\":1738:1744   */\n              dup4\n                /* \"#utility.yul\":1734:1751   */\n              add\n                /* \"#utility.yul\":1730:1757   */\n              slt\n                /* \"#utility.yul\":1720:1775   */\n              tag_324\n              jumpi\n                /* \"#utility.yul\":1771:1772   */\n              0x00\n                /* \"#utility.yul\":1768:1769   */\n              dup1\n                /* \"#utility.yul\":1761:1773   */\n              revert\n                /* \"#utility.yul\":1720:1775   */\n            tag_324:\n                /* \"#utility.yul\":1807:1813   */\n              dup2\n                /* \"#utility.yul\":1794:1814   */\n              calldataload\n                /* \"#utility.yul\":1838:1887   */\n              tag_325\n                /* \"#utility.yul\":1854:1886   */\n              tag_326\n                /* \"#utility.yul\":1883:1885   */\n              dup3\n                /* \"#utility.yul\":1854:1886   */\n              tag_297\n              jump\t// in\n            tag_326:\n                /* \"#utility.yul\":1838:1887   */\n              tag_296\n              jump\t// in\n            tag_325:\n                /* \"#utility.yul\":1912:1914   */\n              dup2\n                /* \"#utility.yul\":1903:1910   */\n              dup2\n                /* \"#utility.yul\":1896:1915   */\n              mstore\n                /* \"#utility.yul\":1958:1961   */\n              dup5\n                /* \"#utility.yul\":1951:1955   */\n              0x20\n                /* \"#utility.yul\":1946:1948   */\n              dup4\n                /* \"#utility.yul\":1938:1944   */\n              dup7\n                /* \"#utility.yul\":1934:1949   */\n              add\n                /* \"#utility.yul\":1930:1956   */\n              add\n                /* \"#utility.yul\":1927:1962   */\n              gt\n                /* \"#utility.yul\":1924:1979   */\n              iszero\n              tag_327\n              jumpi\n                /* \"#utility.yul\":1975:1976   */\n              0x00\n                /* \"#utility.yul\":1972:1973   */\n              dup1\n                /* \"#utility.yul\":1965:1977   */\n              revert\n                /* \"#utility.yul\":1924:1979   */\n            tag_327:\n                /* \"#utility.yul\":2040:2042   */\n              dup2\n                /* \"#utility.yul\":2033:2037   */\n              0x20\n                /* \"#utility.yul\":2025:2031   */\n              dup6\n                /* \"#utility.yul\":2021:2038   */\n              add\n                /* \"#utility.yul\":2014:2018   */\n              0x20\n                /* \"#utility.yul\":2005:2012   */\n              dup4\n                /* \"#utility.yul\":2001:2019   */\n              add\n                /* \"#utility.yul\":1988:2043   */\n              calldatacopy\n                /* \"#utility.yul\":2088:2089   */\n              0x00\n                /* \"#utility.yul\":2063:2079   */\n              swap2\n              dup2\n              add\n                /* \"#utility.yul\":2081:2085   */\n              0x20\n                /* \"#utility.yul\":2059:2086   */\n              add\n                /* \"#utility.yul\":2052:2090   */\n              swap2\n              swap1\n              swap2\n              mstore\n                /* \"#utility.yul\":2067:2074   */\n              swap4\n                /* \"#utility.yul\":1657:2121   */\n              swap3\n              pop\n              pop\n              pop\n              jump\t// out\n                /* \"#utility.yul\":2126:2448   */\n            tag_54:\n                /* \"#utility.yul\":2195:2201   */\n              0x00\n                /* \"#utility.yul\":2248:2250   */\n              0x20\n                /* \"#utility.yul\":2236:2245   */\n              dup3\n                /* \"#utility.yul\":2227:2234   */\n              dup5\n                /* \"#utility.yul\":2223:2246   */\n              sub\n                /* \"#utility.yul\":2219:2251   */\n              slt\n                /* \"#utility.yul\":2216:2268   */\n              iszero\n              tag_329\n              jumpi\n                /* \"#utility.yul\":2264:2265   */\n              0x00\n                /* \"#utility.yul\":2261:2262   */\n              dup1\n                /* \"#utility.yul\":2254:2266   */\n              revert\n                /* \"#utility.yul\":2216:2268   */\n            tag_329:\n                /* \"#utility.yul\":2291:2314   */\n              dup2\n              calldataload\n              sub(shl(0x40, 0x01), 0x01)\n                /* \"#utility.yul\":2326:2356   */\n              dup2\n              gt\n                /* \"#utility.yul\":2323:2373   */\n              iszero\n              tag_330\n              jumpi\n                /* \"#utility.yul\":2369:2370   */\n              0x00\n                /* \"#utility.yul\":2366:2367   */\n              dup1\n                /* \"#utility.yul\":2359:2371   */\n              revert\n                /* \"#utility.yul\":2323:2373   */\n            tag_330:\n                /* \"#utility.yul\":2392:2442   */\n              tag_331\n                /* \"#utility.yul\":2434:2441   */\n              dup5\n                /* \"#utility.yul\":2425:2431   */\n              dup3\n                /* \"#utility.yul\":2414:2423   */\n              dup6\n                /* \"#utility.yul\":2410:2432   */\n              add\n                /* \"#utility.yul\":2392:2442   */\n              tag_298\n              jump\t// in\n            tag_331:\n                /* \"#utility.yul\":2382:2442   */\n              swap5\n                /* \"#utility.yul\":2126:2448   */\n              swap4\n              pop\n              pop\n              pop\n              pop\n              jump\t// out\n                /* \"#utility.yul\":2453:2635   */\n            tag_299:\n                /* \"#utility.yul\":2512:2516   */\n              0x00\n              sub(shl(0x40, 0x01), 0x01)\n                /* \"#utility.yul\":2534:2564   */\n              dup3\n              gt\n                /* \"#utility.yul\":2531:2587   */\n              iszero\n              tag_334\n              jumpi\n                /* \"#utility.yul\":2567:2585   */\n              tag_334\n              tag_295\n              jump\t// in\n            tag_334:\n              pop\n                /* \"#utility.yul\":2612:2613   */\n              0x05\n                /* \"#utility.yul\":2608:2622   */\n              shl\n                /* \"#utility.yul\":2624:2628   */\n              0x20\n                /* \"#utility.yul\":2604:2629   */\n              add\n              swap1\n                /* \"#utility.yul\":2453:2635   */\n              jump\t// out\n                /* \"#utility.yul\":2640:3307   */\n            tag_300:\n                /* \"#utility.yul\":2694:2699   */\n              0x00\n                /* \"#utility.yul\":2747:2750   */\n              dup3\n                /* \"#utility.yul\":2740:2744   */\n              0x1f\n                /* \"#utility.yul\":2732:2738   */\n              dup4\n                /* \"#utility.yul\":2728:2745   */\n              add\n                /* \"#utility.yul\":2724:2751   */\n              slt\n                /* \"#utility.yul\":2714:2769   */\n              tag_336\n              jumpi\n                /* \"#utility.yul\":2765:2766   */\n              0x00\n                /* \"#utility.yul\":2762:2763   */\n              dup1\n                /* \"#utility.yul\":2755:2767   */\n              revert\n                /* \"#utility.yul\":2714:2769   */\n            tag_336:\n                /* \"#utility.yul\":2801:2807   */\n              dup2\n                /* \"#utility.yul\":2788:2808   */\n              calldataload\n                /* \"#utility.yul\":2827:2831   */\n              0x20\n                /* \"#utility.yul\":2851:2910   */\n              tag_337\n                /* \"#utility.yul\":2867:2909   */\n              tag_326\n                /* \"#utility.yul\":2906:2908   */\n              dup4\n                /* \"#utility.yul\":2867:2909   */\n              tag_299\n              jump\t// in\n                /* \"#utility.yul\":2851:2910   */\n            tag_337:\n                /* \"#utility.yul\":2932:2935   */\n              dup1\n                /* \"#utility.yul\":2956:2958   */\n              dup4\n                /* \"#utility.yul\":2951:2954   */\n              dup3\n                /* \"#utility.yul\":2944:2959   */\n              mstore\n                /* \"#utility.yul\":2984:2988   */\n              0x20\n                /* \"#utility.yul\":2979:2982   */\n              dup3\n                /* \"#utility.yul\":2975:2989   */\n              add\n                /* \"#utility.yul\":2968:2989   */\n              swap2\n              pop\n                /* \"#utility.yul\":3041:3045   */\n              0x20\n                /* \"#utility.yul\":3035:3037   */\n              dup5\n                /* \"#utility.yul\":3032:3033   */\n              0x05\n                /* \"#utility.yul\":3028:3038   */\n              shl\n                /* \"#utility.yul\":3020:3026   */\n              dup8\n                /* \"#utility.yul\":3016:3039   */\n              add\n                /* \"#utility.yul\":3012:3046   */\n              add\n                /* \"#utility.yul\":2998:3046   */\n              swap4\n              pop\n                /* \"#utility.yul\":3069:3072   */\n              dup7\n                /* \"#utility.yul\":3061:3067   */\n              dup5\n                /* \"#utility.yul\":3058:3073   */\n              gt\n                /* \"#utility.yul\":3055:3090   */\n              iszero\n              tag_339\n              jumpi\n                /* \"#utility.yul\":3086:3087   */\n              0x00\n                /* \"#utility.yul\":3083:3084   */\n              dup1\n                /* \"#utility.yul\":3076:3088   */\n              revert\n                /* \"#utility.yul\":3055:3090   */\n            tag_339:\n                /* \"#utility.yul\":3122:3126   */\n              0x20\n                /* \"#utility.yul\":3114:3120   */\n              dup7\n                /* \"#utility.yul\":3110:3127   */\n              add\n                /* \"#utility.yul\":3136:3278   */\n            tag_340:\n                /* \"#utility.yul\":3152:3158   */\n              dup5\n                /* \"#utility.yul\":3147:3150   */\n              dup2\n                /* \"#utility.yul\":3144:3159   */\n              lt\n                /* \"#utility.yul\":3136:3278   */\n              iszero\n              tag_342\n              jumpi\n                /* \"#utility.yul\":3218:3235   */\n              dup1\n              calldataload\n                /* \"#utility.yul\":3206:3236   */\n              dup4\n              mstore\n                /* \"#utility.yul\":3256:3268   */\n              swap2\n              dup4\n              add\n              swap2\n                /* \"#utility.yul\":3169:3181   */\n              dup4\n              add\n                /* \"#utility.yul\":3136:3278   */\n              jump(tag_340)\n            tag_342:\n              pop\n                /* \"#utility.yul\":3296:3301   */\n              swap7\n                /* \"#utility.yul\":2640:3307   */\n              swap6\n              pop\n              pop\n              pop\n              pop\n              pop\n              pop\n              jump\t// out\n                /* \"#utility.yul\":3312:3985   */\n            tag_301:\n                /* \"#utility.yul\":3366:3371   */\n              0x00\n                /* \"#utility.yul\":3419:3422   */\n              dup3\n                /* \"#utility.yul\":3412:3416   */\n              0x1f\n                /* \"#utility.yul\":3404:3410   */\n              dup4\n                /* \"#utility.yul\":3400:3417   */\n              add\n                /* \"#utility.yul\":3396:3423   */\n              slt\n                /* \"#utility.yul\":3386:3441   */\n              tag_344\n              jumpi\n                /* \"#utility.yul\":3437:3438   */\n              0x00\n                /* \"#utility.yul\":3434:3435   */\n              dup1\n                /* \"#utility.yul\":3427:3439   */\n              revert\n                /* \"#utility.yul\":3386:3441   */\n            tag_344:\n                /* \"#utility.yul\":3473:3479   */\n              dup2\n                /* \"#utility.yul\":3460:3480   */\n              calldataload\n                /* \"#utility.yul\":3499:3503   */\n              0x20\n                /* \"#utility.yul\":3523:3582   */\n              tag_345\n                /* \"#utility.yul\":3539:3581   */\n              tag_326\n                /* \"#utility.yul\":3578:3580   */\n              dup4\n                /* \"#utility.yul\":3539:3581   */\n              tag_299\n              jump\t// in\n                /* \"#utility.yul\":3523:3582   */\n            tag_345:\n                /* \"#utility.yul\":3604:3607   */\n              dup1\n                /* \"#utility.yul\":3628:3630   */\n              dup4\n                /* \"#utility.yul\":3623:3626   */\n              dup3\n                /* \"#utility.yul\":3616:3631   */\n              mstore\n                /* \"#utility.yul\":3656:3660   */\n              0x20\n                /* \"#utility.yul\":3651:3654   */\n              dup3\n                /* \"#utility.yul\":3647:3661   */\n              add\n                /* \"#utility.yul\":3640:3661   */\n              swap2\n              pop\n                /* \"#utility.yul\":3713:3717   */\n              0x20\n                /* \"#utility.yul\":3707:3709   */\n              dup5\n                /* \"#utility.yul\":3704:3705   */\n              0x05\n                /* \"#utility.yul\":3700:3710   */\n              shl\n                /* \"#utility.yul\":3692:3698   */\n              dup8\n                /* \"#utility.yul\":3688:3711   */\n              add\n                /* \"#utility.yul\":3684:3718   */\n              add\n                /* \"#utility.yul\":3670:3718   */\n              swap4\n              pop\n                /* \"#utility.yul\":3741:3744   */\n              dup7\n                /* \"#utility.yul\":3733:3739   */\n              dup5\n                /* \"#utility.yul\":3730:3745   */\n              gt\n                /* \"#utility.yul\":3727:3762   */\n              iszero\n              tag_347\n              jumpi\n                /* \"#utility.yul\":3758:3759   */\n              0x00\n                /* \"#utility.yul\":3755:3756   */\n              dup1\n                /* \"#utility.yul\":3748:3760   */\n              revert\n                /* \"#utility.yul\":3727:3762   */\n            tag_347:\n                /* \"#utility.yul\":3794:3798   */\n              0x20\n                /* \"#utility.yul\":3786:3792   */\n              dup7\n                /* \"#utility.yul\":3782:3799   */\n              add\n                /* \"#utility.yul\":3808:3956   */\n            tag_348:\n                /* \"#utility.yul\":3824:3830   */\n              dup5\n                /* \"#utility.yul\":3819:3822   */\n              dup2\n                /* \"#utility.yul\":3816:3831   */\n              lt\n                /* \"#utility.yul\":3808:3956   */\n              iszero\n              tag_342\n              jumpi\n                /* \"#utility.yul\":3890:3913   */\n              tag_351\n                /* \"#utility.yul\":3909:3912   */\n              dup2\n                /* \"#utility.yul\":3890:3913   */\n              tag_294\n              jump\t// in\n            tag_351:\n                /* \"#utility.yul\":3878:3914   */\n              dup4\n              mstore\n                /* \"#utility.yul\":3934:3946   */\n              swap2\n              dup4\n              add\n              swap2\n                /* \"#utility.yul\":3841:3853   */\n              dup4\n              add\n                /* \"#utility.yul\":3808:3956   */\n              jump(tag_348)\n                /* \"#utility.yul\":3990:5506   */\n            tag_63:\n                /* \"#utility.yul\":4152:4158   */\n              0x00\n                /* \"#utility.yul\":4160:4166   */\n              dup1\n                /* \"#utility.yul\":4168:4174   */\n              0x00\n                /* \"#utility.yul\":4221:4223   */\n              0x60\n                /* \"#utility.yul\":4209:4218   */\n              dup5\n                /* \"#utility.yul\":4200:4207   */\n              dup7\n                /* \"#utility.yul\":4196:4219   */\n              sub\n                /* \"#utility.yul\":4192:4224   */\n              slt\n                /* \"#utility.yul\":4189:4241   */\n              iszero\n              tag_353\n              jumpi\n                /* \"#utility.yul\":4237:4238   */\n              0x00\n                /* \"#utility.yul\":4234:4235   */\n              dup1\n                /* \"#utility.yul\":4227:4239   */\n              revert\n                /* \"#utility.yul\":4189:4241   */\n            tag_353:\n                /* \"#utility.yul\":4264:4287   */\n              dup4\n              calldataload\n              sub(shl(0x40, 0x01), 0x01)\n                /* \"#utility.yul\":4336:4350   */\n              dup1\n              dup3\n              gt\n                /* \"#utility.yul\":4333:4367   */\n              iszero\n              tag_354\n              jumpi\n                /* \"#utility.yul\":4363:4364   */\n              0x00\n                /* \"#utility.yul\":4360:4361   */\n              dup1\n                /* \"#utility.yul\":4353:4365   */\n              revert\n                /* \"#utility.yul\":4333:4367   */\n            tag_354:\n                /* \"#utility.yul\":4401:4407   */\n              dup2\n                /* \"#utility.yul\":4390:4399   */\n              dup7\n                /* \"#utility.yul\":4386:4408   */\n              add\n                /* \"#utility.yul\":4376:4408   */\n              swap2\n              pop\n                /* \"#utility.yul\":4446:4453   */\n              dup7\n                /* \"#utility.yul\":4439:4443   */\n              0x1f\n                /* \"#utility.yul\":4435:4437   */\n              dup4\n                /* \"#utility.yul\":4431:4444   */\n              add\n                /* \"#utility.yul\":4427:4454   */\n              slt\n                /* \"#utility.yul\":4417:4472   */\n              tag_355\n              jumpi\n                /* \"#utility.yul\":4468:4469   */\n              0x00\n                /* \"#utility.yul\":4465:4466   */\n              dup1\n                /* \"#utility.yul\":4458:4470   */\n              revert\n                /* \"#utility.yul\":4417:4472   */\n            tag_355:\n                /* \"#utility.yul\":4504:4506   */\n              dup2\n                /* \"#utility.yul\":4491:4507   */\n              calldataload\n                /* \"#utility.yul\":4526:4530   */\n              0x20\n                /* \"#utility.yul\":4550:4609   */\n              tag_356\n                /* \"#utility.yul\":4566:4608   */\n              tag_326\n                /* \"#utility.yul\":4605:4607   */\n              dup4\n                /* \"#utility.yul\":4566:4608   */\n              tag_299\n              jump\t// in\n                /* \"#utility.yul\":4550:4609   */\n            tag_356:\n                /* \"#utility.yul\":4643:4658   */\n              dup3\n              dup2\n              mstore\n                /* \"#utility.yul\":4725:4726   */\n              0x05\n                /* \"#utility.yul\":4721:4731   */\n              swap3\n              swap1\n              swap3\n              shl\n                /* \"#utility.yul\":4713:4732   */\n              dup5\n              add\n                /* \"#utility.yul\":4709:4737   */\n              dup2\n              add\n              swap2\n                /* \"#utility.yul\":4674:4686   */\n              dup2\n              dup2\n              add\n              swap1\n                /* \"#utility.yul\":4749:4768   */\n              dup11\n              dup5\n              gt\n                /* \"#utility.yul\":4746:4785   */\n              iszero\n              tag_358\n              jumpi\n                /* \"#utility.yul\":4781:4782   */\n              0x00\n                /* \"#utility.yul\":4778:4779   */\n              dup1\n                /* \"#utility.yul\":4771:4783   */\n              revert\n                /* \"#utility.yul\":4746:4785   */\n            tag_358:\n                /* \"#utility.yul\":4813:4815   */\n              dup3\n                /* \"#utility.yul\":4809:4811   */\n              dup7\n                /* \"#utility.yul\":4805:4816   */\n              add\n                /* \"#utility.yul\":4825:5108   */\n            tag_359:\n                /* \"#utility.yul\":4841:4847   */\n              dup5\n                /* \"#utility.yul\":4836:4839   */\n              dup2\n                /* \"#utility.yul\":4833:4848   */\n              lt\n                /* \"#utility.yul\":4825:5108   */\n              iszero\n              tag_361\n              jumpi\n                /* \"#utility.yul\":4927:4930   */\n              dup1\n                /* \"#utility.yul\":4914:4931   */\n              calldataload\n                /* \"#utility.yul\":4963:4965   */\n              dup7\n                /* \"#utility.yul\":4950:4961   */\n              dup2\n                /* \"#utility.yul\":4947:4966   */\n              gt\n                /* \"#utility.yul\":4944:4983   */\n              iszero\n              tag_362\n              jumpi\n                /* \"#utility.yul\":4979:4980   */\n              0x00\n                /* \"#utility.yul\":4976:4977   */\n              dup1\n                /* \"#utility.yul\":4969:4981   */\n              revert\n                /* \"#utility.yul\":4944:4983   */\n            tag_362:\n                /* \"#utility.yul\":5008:5065   */\n              tag_363\n                /* \"#utility.yul\":5057:5064   */\n              dup14\n                /* \"#utility.yul\":5052:5054   */\n              dup7\n                /* \"#utility.yul\":5038:5049   */\n              dup4\n                /* \"#utility.yul\":5034:5036   */\n              dup12\n                /* \"#utility.yul\":5030:5050   */\n              add\n                /* \"#utility.yul\":5026:5055   */\n              add\n                /* \"#utility.yul\":5008:5065   */\n              tag_298\n              jump\t// in\n            tag_363:\n                /* \"#utility.yul\":4996:5066   */\n              dup5\n              mstore\n              pop\n                /* \"#utility.yul\":5086:5098   */\n              swap2\n              dup4\n              add\n              swap2\n                /* \"#utility.yul\":4858:4870   */\n              dup4\n              add\n                /* \"#utility.yul\":4825:5108   */\n              jump(tag_359)\n            tag_361:\n              pop\n                /* \"#utility.yul\":5127:5132   */\n              swap8\n              pop\n              pop\n                /* \"#utility.yul\":5170:5188   */\n              dup8\n              add\n                /* \"#utility.yul\":5157:5189   */\n              calldataload\n              swap3\n              pop\n              pop\n                /* \"#utility.yul\":5201:5217   */\n              dup1\n              dup3\n              gt\n                /* \"#utility.yul\":5198:5234   */\n              iszero\n              tag_364\n              jumpi\n                /* \"#utility.yul\":5230:5231   */\n              0x00\n                /* \"#utility.yul\":5227:5228   */\n              dup1\n                /* \"#utility.yul\":5220:5232   */\n              revert\n                /* \"#utility.yul\":5198:5234   */\n            tag_364:\n                /* \"#utility.yul\":5253:5316   */\n              tag_365\n                /* \"#utility.yul\":5308:5315   */\n              dup8\n                /* \"#utility.yul\":5297:5305   */\n              dup4\n                /* \"#utility.yul\":5286:5295   */\n              dup9\n                /* \"#utility.yul\":5282:5306   */\n              add\n                /* \"#utility.yul\":5253:5316   */\n              tag_300\n              jump\t// in\n            tag_365:\n                /* \"#utility.yul\":5243:5316   */\n              swap4\n              pop\n                /* \"#utility.yul\":5369:5371   */\n              0x40\n                /* \"#utility.yul\":5358:5367   */\n              dup7\n                /* \"#utility.yul\":5354:5372   */\n              add\n                /* \"#utility.yul\":5341:5373   */\n              calldataload\n                /* \"#utility.yul\":5325:5373   */\n              swap2\n              pop\n                /* \"#utility.yul\":5398:5400   */\n              dup1\n                /* \"#utility.yul\":5388:5396   */\n              dup3\n                /* \"#utility.yul\":5385:5401   */\n              gt\n                /* \"#utility.yul\":5382:5418   */\n              iszero\n              tag_366\n              jumpi\n                /* \"#utility.yul\":5414:5415   */\n              0x00\n                /* \"#utility.yul\":5411:5412   */\n              dup1\n                /* \"#utility.yul\":5404:5416   */\n              revert\n                /* \"#utility.yul\":5382:5418   */\n            tag_366:\n              pop\n                /* \"#utility.yul\":5437:5500   */\n              tag_367\n                /* \"#utility.yul\":5492:5499   */\n              dup7\n                /* \"#utility.yul\":5481:5489   */\n              dup3\n                /* \"#utility.yul\":5470:5479   */\n              dup8\n                /* \"#utility.yul\":5466:5490   */\n              add\n                /* \"#utility.yul\":5437:5500   */\n              tag_301\n              jump\t// in\n            tag_367:\n                /* \"#utility.yul\":5427:5500   */\n              swap2\n              pop\n              pop\n                /* \"#utility.yul\":3990:5506   */\n              swap3\n              pop\n              swap3\n              pop\n              swap3\n              jump\t// out\n                /* \"#utility.yul\":5511:5761   */\n            tag_302:\n                /* \"#utility.yul\":5596:5597   */\n              0x00\n                /* \"#utility.yul\":5606:5719   */\n            tag_369:\n                /* \"#utility.yul\":5620:5626   */\n              dup4\n                /* \"#utility.yul\":5617:5618   */\n              dup2\n                /* \"#utility.yul\":5614:5627   */\n              lt\n                /* \"#utility.yul\":5606:5719   */\n              iszero\n              tag_371\n              jumpi\n                /* \"#utility.yul\":5696:5707   */\n              dup2\n              dup2\n              add\n                /* \"#utility.yul\":5690:5708   */\n              mload\n                /* \"#utility.yul\":5677:5688   */\n              dup4\n              dup3\n              add\n                /* \"#utility.yul\":5670:5709   */\n              mstore\n                /* \"#utility.yul\":5642:5644   */\n              0x20\n                /* \"#utility.yul\":5635:5645   */\n              add\n                /* \"#utility.yul\":5606:5719   */\n              jump(tag_369)\n            tag_371:\n              pop\n              pop\n                /* \"#utility.yul\":5753:5754   */\n              0x00\n                /* \"#utility.yul\":5735:5751   */\n              swap2\n              add\n                /* \"#utility.yul\":5728:5755   */\n              mstore\n                /* \"#utility.yul\":5511:5761   */\n              jump\t// out\n                /* \"#utility.yul\":5766:6037   */\n            tag_303:\n                /* \"#utility.yul\":5808:5811   */\n              0x00\n                /* \"#utility.yul\":5846:5851   */\n              dup2\n                /* \"#utility.yul\":5840:5852   */\n              mload\n                /* \"#utility.yul\":5873:5879   */\n              dup1\n                /* \"#utility.yul\":5868:5871   */\n              dup5\n                /* \"#utility.yul\":5861:5880   */\n              mstore\n                /* \"#utility.yul\":5889:5965   */\n              tag_373\n                /* \"#utility.yul\":5958:5964   */\n              dup2\n                /* \"#utility.yul\":5951:5955   */\n              0x20\n                /* \"#utility.yul\":5946:5949   */\n              dup7\n                /* \"#utility.yul\":5942:5956   */\n              add\n                /* \"#utility.yul\":5935:5939   */\n              0x20\n                /* \"#utility.yul\":5928:5933   */\n              dup7\n                /* \"#utility.yul\":5924:5940   */\n              add\n                /* \"#utility.yul\":5889:5965   */\n              tag_302\n              jump\t// in\n            tag_373:\n                /* \"#utility.yul\":6019:6021   */\n              0x1f\n                /* \"#utility.yul\":5998:6013   */\n              add\n              not(0x1f)\n                /* \"#utility.yul\":5994:6023   */\n              and\n                /* \"#utility.yul\":5985:6024   */\n              swap3\n              swap1\n              swap3\n              add\n                /* \"#utility.yul\":6026:6030   */\n              0x20\n                /* \"#utility.yul\":5981:6031   */\n              add\n              swap3\n                /* \"#utility.yul\":5766:6037   */\n              swap2\n              pop\n              pop\n              jump\t// out\n                /* \"#utility.yul\":6042:7123   */\n            tag_72:\n                /* \"#utility.yul\":6493:6518   */\n              dup13\n              dup2\n              mstore\n              sub(shl(0xa0, 0x01), 0x01)\n                /* \"#utility.yul\":6554:6586   */\n              dup13\n              and\n                /* \"#utility.yul\":6549:6551   */\n              0x20\n                /* \"#utility.yul\":6534:6552   */\n              dup3\n              add\n                /* \"#utility.yul\":6527:6587   */\n              mstore\n                /* \"#utility.yul\":6481:6484   */\n              0x0180\n                /* \"#utility.yul\":6618:6620   */\n              0x40\n                /* \"#utility.yul\":6603:6621   */\n              dup3\n              add\n                /* \"#utility.yul\":6596:6626   */\n              dup2\n              swap1\n              mstore\n                /* \"#utility.yul\":6452:6456   */\n              0x00\n              swap1\n                /* \"#utility.yul\":6643:6688   */\n              tag_375\n                /* \"#utility.yul\":6669:6687   */\n              dup4\n              dup3\n              add\n                /* \"#utility.yul\":6661:6667   */\n              dup15\n                /* \"#utility.yul\":6643:6688   */\n              tag_303\n              jump\t// in\n            tag_375:\n                /* \"#utility.yul\":6719:6721   */\n              0x60\n                /* \"#utility.yul\":6704:6722   */\n              dup5\n              add\n                /* \"#utility.yul\":6697:6731   */\n              swap13\n              swap1\n              swap13\n              mstore\n              pop\n              pop\n                /* \"#utility.yul\":6762:6765   */\n              0x80\n                /* \"#utility.yul\":6747:6766   */\n              dup2\n              add\n                /* \"#utility.yul\":6740:6775   */\n              swap9\n              swap1\n              swap9\n              mstore\n                /* \"#utility.yul\":6806:6809   */\n              0xa0\n                /* \"#utility.yul\":6791:6810   */\n              dup9\n              add\n                /* \"#utility.yul\":6784:6819   */\n              swap7\n              swap1\n              swap7\n              mstore\n                /* \"#utility.yul\":6850:6853   */\n              0xc0\n                /* \"#utility.yul\":6835:6854   */\n              dup8\n              add\n                /* \"#utility.yul\":6828:6863   */\n              swap5\n              swap1\n              swap5\n              mstore\n                /* \"#utility.yul\":6907:6921   */\n              swap2\n              iszero\n                /* \"#utility.yul\":6900:6922   */\n              iszero\n                /* \"#utility.yul\":6894:6897   */\n              0xe0\n                /* \"#utility.yul\":6879:6898   */\n              dup7\n              add\n                /* \"#utility.yul\":6872:6923   */\n              mstore\n                /* \"#utility.yul\":6954:6957   */\n              0x0100\n                /* \"#utility.yul\":6939:6958   */\n              dup6\n              add\n                /* \"#utility.yul\":6932:6967   */\n              mstore\n                /* \"#utility.yul\":6998:7001   */\n              0x0120\n                /* \"#utility.yul\":6983:7002   */\n              dup5\n              add\n                /* \"#utility.yul\":6976:7011   */\n              mstore\n                /* \"#utility.yul\":7055:7070   */\n              iszero\n                /* \"#utility.yul\":7048:7071   */\n              iszero\n                /* \"#utility.yul\":7042:7045   */\n              0x0140\n                /* \"#utility.yul\":7027:7046   */\n              dup4\n              add\n                /* \"#utility.yul\":7020:7072   */\n              mstore\n                /* \"#utility.yul\":7103:7106   */\n              0x0160\n                /* \"#utility.yul\":7088:7107   */\n              swap1\n              swap2\n              add\n                /* \"#utility.yul\":7081:7117   */\n              mstore\n                /* \"#utility.yul\":6635:6688   */\n              swap4\n                /* \"#utility.yul\":6042:7123   */\n              swap3\n              pop\n              pop\n              pop\n              jump\t// out\n                /* \"#utility.yul\":7788:8008   */\n            tag_100:\n                /* \"#utility.yul\":7937:7939   */\n              0x20\n                /* \"#utility.yul\":7926:7935   */\n              dup2\n                /* \"#utility.yul\":7919:7940   */\n              mstore\n                /* \"#utility.yul\":7900:7904   */\n              0x00\n                /* \"#utility.yul\":7957:8002   */\n              tag_314\n                /* \"#utility.yul\":7998:8000   */\n              0x20\n                /* \"#utility.yul\":7987:7996   */\n              dup4\n                /* \"#utility.yul\":7983:8001   */\n              add\n                /* \"#utility.yul\":7975:7981   */\n              dup5\n                /* \"#utility.yul\":7957:8002   */\n              tag_303\n              jump\t// in\n                /* \"#utility.yul\":8013:8304   */\n            tag_110:\n                /* \"#utility.yul\":8190:8196   */\n              dup3\n                /* \"#utility.yul\":8179:8188   */\n              dup2\n                /* \"#utility.yul\":8172:8197   */\n              mstore\n                /* \"#utility.yul\":8233:8235   */\n              0x40\n                /* \"#utility.yul\":8228:8230   */\n              0x20\n                /* \"#utility.yul\":8217:8226   */\n              dup3\n                /* \"#utility.yul\":8213:8231   */\n              add\n                /* \"#utility.yul\":8206:8236   */\n              mstore\n                /* \"#utility.yul\":8153:8157   */\n              0x00\n                /* \"#utility.yul\":8253:8298   */\n              tag_331\n                /* \"#utility.yul\":8294:8296   */\n              0x40\n                /* \"#utility.yul\":8283:8292   */\n              dup4\n                /* \"#utility.yul\":8279:8297   */\n              add\n                /* \"#utility.yul\":8271:8277   */\n              dup5\n                /* \"#utility.yul\":8253:8298   */\n              tag_303\n              jump\t// in\n                /* \"#utility.yul\":8309:8489   */\n            tag_114:\n                /* \"#utility.yul\":8368:8374   */\n              0x00\n                /* \"#utility.yul\":8421:8423   */\n              0x20\n                /* \"#utility.yul\":8409:8418   */\n              dup3\n                /* \"#utility.yul\":8400:8407   */\n              dup5\n                /* \"#utility.yul\":8396:8419   */\n              sub\n                /* \"#utility.yul\":8392:8424   */\n              slt\n                /* \"#utility.yul\":8389:8441   */\n              iszero\n              tag_384\n              jumpi\n                /* \"#utility.yul\":8437:8438   */\n              0x00\n                /* \"#utility.yul\":8434:8435   */\n              dup1\n                /* \"#utility.yul\":8427:8439   */\n              revert\n                /* \"#utility.yul\":8389:8441   */\n            tag_384:\n              pop\n                /* \"#utility.yul\":8460:8483   */\n              calldataload\n              swap2\n                /* \"#utility.yul\":8309:8489   */\n              swap1\n              pop\n              jump\t// out\n                /* \"#utility.yul\":8494:8958   */\n            tag_119:\n                /* \"#utility.yul\":8581:8587   */\n              0x00\n                /* \"#utility.yul\":8589:8595   */\n              dup1\n                /* \"#utility.yul\":8597:8603   */\n              0x00\n                /* \"#utility.yul\":8650:8652   */\n              0x60\n                /* \"#utility.yul\":8638:8647   */\n              dup5\n                /* \"#utility.yul\":8629:8636   */\n              dup7\n                /* \"#utility.yul\":8625:8648   */\n              sub\n                /* \"#utility.yul\":8621:8653   */\n              slt\n                /* \"#utility.yul\":8618:8670   */\n              iszero\n              tag_386\n              jumpi\n                /* \"#utility.yul\":8666:8667   */\n              0x00\n                /* \"#utility.yul\":8663:8664   */\n              dup1\n                /* \"#utility.yul\":8656:8668   */\n              revert\n                /* \"#utility.yul\":8618:8670   */\n            tag_386:\n                /* \"#utility.yul\":8693:8716   */\n              dup4\n              calldataload\n              sub(shl(0x40, 0x01), 0x01)\n                /* \"#utility.yul\":8728:8758   */\n              dup2\n              gt\n                /* \"#utility.yul\":8725:8775   */\n              iszero\n              tag_387\n              jumpi\n                /* \"#utility.yul\":8771:8772   */\n              0x00\n                /* \"#utility.yul\":8768:8769   */\n              dup1\n                /* \"#utility.yul\":8761:8773   */\n              revert\n                /* \"#utility.yul\":8725:8775   */\n            tag_387:\n                /* \"#utility.yul\":8794:8844   */\n              tag_388\n                /* \"#utility.yul\":8836:8843   */\n              dup7\n                /* \"#utility.yul\":8827:8833   */\n              dup3\n                /* \"#utility.yul\":8816:8825   */\n              dup8\n                /* \"#utility.yul\":8812:8834   */\n              add\n                /* \"#utility.yul\":8794:8844   */\n              tag_298\n              jump\t// in\n            tag_388:\n                /* \"#utility.yul\":8784:8844   */\n              swap4\n              pop\n              pop\n                /* \"#utility.yul\":8891:8893   */\n              0x20\n                /* \"#utility.yul\":8880:8889   */\n              dup5\n                /* \"#utility.yul\":8876:8894   */\n              add\n                /* \"#utility.yul\":8863:8895   */\n              calldataload\n                /* \"#utility.yul\":8853:8895   */\n              swap2\n              pop\n                /* \"#utility.yul\":8914:8952   */\n              tag_389\n                /* \"#utility.yul\":8948:8950   */\n              0x40\n                /* \"#utility.yul\":8937:8946   */\n              dup6\n                /* \"#utility.yul\":8933:8951   */\n              add\n                /* \"#utility.yul\":8914:8952   */\n              tag_294\n              jump\t// in\n            tag_389:\n                /* \"#utility.yul\":8904:8952   */\n              swap1\n              pop\n                /* \"#utility.yul\":8494:8958   */\n              swap3\n              pop\n              swap3\n              pop\n              swap3\n              jump\t// out\n                /* \"#utility.yul\":8963:9367   */\n            tag_133:\n              sub(shl(0xa0, 0x01), 0x01)\n                /* \"#utility.yul\":9184:9216   */\n              dup5\n              and\n                /* \"#utility.yul\":9166:9217   */\n              dup2\n              mstore\n                /* \"#utility.yul\":9253:9255   */\n              0x60\n                /* \"#utility.yul\":9248:9250   */\n              0x20\n                /* \"#utility.yul\":9233:9251   */\n              dup3\n              add\n                /* \"#utility.yul\":9226:9256   */\n              dup2\n              swap1\n              mstore\n              0x00\n              swap1\n                /* \"#utility.yul\":9273:9318   */\n              tag_391\n              swap1\n                /* \"#utility.yul\":9299:9317   */\n              dup4\n              add\n                /* \"#utility.yul\":9291:9297   */\n              dup6\n                /* \"#utility.yul\":9273:9318   */\n              tag_303\n              jump\t// in\n            tag_391:\n                /* \"#utility.yul\":9265:9318   */\n              swap1\n              pop\n                /* \"#utility.yul\":9354:9360   */\n              dup3\n                /* \"#utility.yul\":9349:9351   */\n              0x40\n                /* \"#utility.yul\":9338:9347   */\n              dup4\n                /* \"#utility.yul\":9334:9352   */\n              add\n                /* \"#utility.yul\":9327:9361   */\n              mstore\n                /* \"#utility.yul\":8963:9367   */\n              swap5\n              swap4\n              pop\n              pop\n              pop\n              pop\n              jump\t// out\n                /* \"#utility.yul\":9372:9499   */\n            tag_153:\n                /* \"#utility.yul\":9433:9443   */\n              0x4e487b71\n                /* \"#utility.yul\":9428:9431   */\n              0xe0\n                /* \"#utility.yul\":9424:9444   */\n              shl\n                /* \"#utility.yul\":9421:9422   */\n              0x00\n                /* \"#utility.yul\":9414:9445   */\n              mstore\n                /* \"#utility.yul\":9464:9468   */\n              0x32\n                /* \"#utility.yul\":9461:9462   */\n              0x04\n                /* \"#utility.yul\":9454:9469   */\n              mstore\n                /* \"#utility.yul\":9488:9492   */\n              0x24\n                /* \"#utility.yul\":9485:9486   */\n              0x00\n                /* \"#utility.yul\":9478:9493   */\n              revert\n                /* \"#utility.yul\":9504:9631   */\n            tag_304:\n                /* \"#utility.yul\":9565:9575   */\n              0x4e487b71\n                /* \"#utility.yul\":9560:9563   */\n              0xe0\n                /* \"#utility.yul\":9556:9576   */\n              shl\n                /* \"#utility.yul\":9553:9554   */\n              0x00\n                /* \"#utility.yul\":9546:9577   */\n              mstore\n                /* \"#utility.yul\":9596:9600   */\n              0x11\n                /* \"#utility.yul\":9593:9594   */\n              0x04\n                /* \"#utility.yul\":9586:9601   */\n              mstore\n                /* \"#utility.yul\":9620:9624   */\n              0x24\n                /* \"#utility.yul\":9617:9618   */\n              0x00\n                /* \"#utility.yul\":9610:9625   */\n              revert\n                /* \"#utility.yul\":9636:9771   */\n            tag_157:\n                /* \"#utility.yul\":9675:9678   */\n              0x00\n                /* \"#utility.yul\":9696:9713   */\n              0x01\n              dup3\n              add\n                /* \"#utility.yul\":9693:9736   */\n              tag_396\n              jumpi\n                /* \"#utility.yul\":9716:9734   */\n              tag_396\n              tag_304\n              jump\t// in\n            tag_396:\n              pop\n                /* \"#utility.yul\":9763:9764   */\n              0x01\n                /* \"#utility.yul\":9752:9765   */\n              add\n              swap1\n                /* \"#utility.yul\":9636:9771   */\n              jump\t// out\n                /* \"#utility.yul\":9776:9993   */\n            tag_159:\n                /* \"#utility.yul\":9816:9817   */\n              0x00\n                /* \"#utility.yul\":9842:9843   */\n              dup3\n                /* \"#utility.yul\":9832:9964   */\n              tag_398\n              jumpi\n                /* \"#utility.yul\":9886:9896   */\n              0x4e487b71\n                /* \"#utility.yul\":9881:9884   */\n              0xe0\n                /* \"#utility.yul\":9877:9897   */\n              shl\n                /* \"#utility.yul\":9874:9875   */\n              0x00\n                /* \"#utility.yul\":9867:9898   */\n              mstore\n                /* \"#utility.yul\":9921:9925   */\n              0x12\n                /* \"#utility.yul\":9918:9919   */\n              0x04\n                /* \"#utility.yul\":9911:9926   */\n              mstore\n                /* \"#utility.yul\":9949:9953   */\n              0x24\n                /* \"#utility.yul\":9946:9947   */\n              0x00\n                /* \"#utility.yul\":9939:9954   */\n              revert\n                /* \"#utility.yul\":9832:9964   */\n            tag_398:\n              pop\n                /* \"#utility.yul\":9978:9987   */\n              div\n              swap1\n                /* \"#utility.yul\":9776:9993   */\n              jump\t// out\n                /* \"#utility.yul\":9998:10315   */\n            tag_168:\n              sub(shl(0xa0, 0x01), 0x01)\n                /* \"#utility.yul\":10175:10207   */\n              dup4\n              and\n                /* \"#utility.yul\":10157:10208   */\n              dup2\n              mstore\n                /* \"#utility.yul\":10244:10246   */\n              0x40\n                /* \"#utility.yul\":10239:10241   */\n              0x20\n                /* \"#utility.yul\":10224:10242   */\n              dup3\n              add\n                /* \"#utility.yul\":10217:10247   */\n              dup2\n              swap1\n              mstore\n              0x00\n              swap1\n                /* \"#utility.yul\":10264:10309   */\n              tag_331\n              swap1\n                /* \"#utility.yul\":10290:10308   */\n              dup4\n              add\n                /* \"#utility.yul\":10282:10288   */\n              dup5\n                /* \"#utility.yul\":10264:10309   */\n              tag_303\n              jump\t// in\n                /* \"#utility.yul\":10320:10700   */\n            tag_202:\n                /* \"#utility.yul\":10399:10400   */\n              0x01\n                /* \"#utility.yul\":10395:10407   */\n              dup2\n              dup2\n              shr\n              swap1\n                /* \"#utility.yul\":10442:10454   */\n              dup3\n              and\n              dup1\n                /* \"#utility.yul\":10463:10524   */\n              tag_402\n              jumpi\n                /* \"#utility.yul\":10517:10521   */\n              0x7f\n                /* \"#utility.yul\":10509:10515   */\n              dup3\n                /* \"#utility.yul\":10505:10522   */\n              and\n                /* \"#utility.yul\":10495:10522   */\n              swap2\n              pop\n                /* \"#utility.yul\":10463:10524   */\n            tag_402:\n                /* \"#utility.yul\":10570:10572   */\n              0x20\n                /* \"#utility.yul\":10562:10568   */\n              dup3\n                /* \"#utility.yul\":10559:10573   */\n              lt\n                /* \"#utility.yul\":10539:10557   */\n              dup2\n                /* \"#utility.yul\":10536:10574   */\n              sub\n                /* \"#utility.yul\":10533:10694   */\n              tag_403\n              jumpi\n                /* \"#utility.yul\":10616:10626   */\n              0x4e487b71\n                /* \"#utility.yul\":10611:10614   */\n              0xe0\n                /* \"#utility.yul\":10607:10627   */\n              shl\n                /* \"#utility.yul\":10604:10605   */\n              0x00\n                /* \"#utility.yul\":10597:10628   */\n              mstore\n                /* \"#utility.yul\":10651:10655   */\n              0x22\n                /* \"#utility.yul\":10648:10649   */\n              0x04\n                /* \"#utility.yul\":10641:10656   */\n              mstore\n                /* \"#utility.yul\":10679:10683   */\n              0x24\n                /* \"#utility.yul\":10676:10677   */\n              0x00\n                /* \"#utility.yul\":10669:10684   */\n              revert\n                /* \"#utility.yul\":10533:10694   */\n            tag_403:\n              pop\n                /* \"#utility.yul\":10320:10700   */\n              swap2\n              swap1\n              pop\n              jump\t// out\n                /* \"#utility.yul\":10992:11176   */\n            tag_219:\n                /* \"#utility.yul\":11062:11068   */\n              0x00\n                /* \"#utility.yul\":11115:11117   */\n              0x20\n                /* \"#utility.yul\":11103:11112   */\n              dup3\n                /* \"#utility.yul\":11094:11101   */\n              dup5\n                /* \"#utility.yul\":11090:11113   */\n              sub\n                /* \"#utility.yul\":11086:11118   */\n              slt\n                /* \"#utility.yul\":11083:11135   */\n              iszero\n              tag_406\n              jumpi\n                /* \"#utility.yul\":11131:11132   */\n              0x00\n                /* \"#utility.yul\":11128:11129   */\n              dup1\n                /* \"#utility.yul\":11121:11133   */\n              revert\n                /* \"#utility.yul\":11083:11135   */\n            tag_406:\n              pop\n                /* \"#utility.yul\":11154:11170   */\n              mload\n              swap2\n                /* \"#utility.yul\":10992:11176   */\n              swap1\n              pop\n              jump\t// out\n                /* \"#utility.yul\":11181:11830   */\n            tag_224:\n                /* \"#utility.yul\":11261:11267   */\n              0x00\n                /* \"#utility.yul\":11314:11316   */\n              0x20\n                /* \"#utility.yul\":11302:11311   */\n              dup3\n                /* \"#utility.yul\":11293:11300   */\n              dup5\n                /* \"#utility.yul\":11289:11312   */\n              sub\n                /* \"#utility.yul\":11285:11317   */\n              slt\n                /* \"#utility.yul\":11282:11334   */\n              iszero\n              tag_408\n              jumpi\n                /* \"#utility.yul\":11330:11331   */\n              0x00\n                /* \"#utility.yul\":11327:11328   */\n              dup1\n                /* \"#utility.yul\":11320:11332   */\n              revert\n                /* \"#utility.yul\":11282:11334   */\n            tag_408:\n                /* \"#utility.yul\":11357:11373   */\n              dup2\n              mload\n              sub(shl(0x40, 0x01), 0x01)\n                /* \"#utility.yul\":11385:11415   */\n              dup2\n              gt\n                /* \"#utility.yul\":11382:11432   */\n              iszero\n              tag_409\n              jumpi\n                /* \"#utility.yul\":11428:11429   */\n              0x00\n                /* \"#utility.yul\":11425:11426   */\n              dup1\n                /* \"#utility.yul\":11418:11430   */\n              revert\n                /* \"#utility.yul\":11382:11432   */\n            tag_409:\n                /* \"#utility.yul\":11451:11473   */\n              dup3\n              add\n                /* \"#utility.yul\":11504:11508   */\n              0x1f\n                /* \"#utility.yul\":11496:11509   */\n              dup2\n              add\n                /* \"#utility.yul\":11492:11519   */\n              dup5\n              sgt\n                /* \"#utility.yul\":11482:11537   */\n              tag_410\n              jumpi\n                /* \"#utility.yul\":11533:11534   */\n              0x00\n                /* \"#utility.yul\":11530:11531   */\n              dup1\n                /* \"#utility.yul\":11523:11535   */\n              revert\n                /* \"#utility.yul\":11482:11537   */\n            tag_410:\n                /* \"#utility.yul\":11562:11564   */\n              dup1\n                /* \"#utility.yul\":11556:11565   */\n              mload\n                /* \"#utility.yul\":11587:11636   */\n              tag_411\n                /* \"#utility.yul\":11603:11635   */\n              tag_326\n                /* \"#utility.yul\":11632:11634   */\n              dup3\n                /* \"#utility.yul\":11603:11635   */\n              tag_297\n              jump\t// in\n                /* \"#utility.yul\":11587:11636   */\n            tag_411:\n                /* \"#utility.yul\":11659:11661   */\n              dup2\n                /* \"#utility.yul\":11652:11657   */\n              dup2\n                /* \"#utility.yul\":11645:11662   */\n              mstore\n                /* \"#utility.yul\":11699:11706   */\n              dup6\n                /* \"#utility.yul\":11694:11696   */\n              0x20\n                /* \"#utility.yul\":11689:11691   */\n              dup4\n                /* \"#utility.yul\":11685:11687   */\n              dup6\n                /* \"#utility.yul\":11681:11692   */\n              add\n                /* \"#utility.yul\":11677:11697   */\n              add\n                /* \"#utility.yul\":11674:11707   */\n              gt\n                /* \"#utility.yul\":11671:11724   */\n              iszero\n              tag_413\n              jumpi\n                /* \"#utility.yul\":11720:11721   */\n              0x00\n                /* \"#utility.yul\":11717:11718   */\n              dup1\n                /* \"#utility.yul\":11710:11722   */\n              revert\n                /* \"#utility.yul\":11671:11724   */\n            tag_413:\n                /* \"#utility.yul\":11733:11800   */\n              tag_414\n                /* \"#utility.yul\":11797:11799   */\n              dup3\n                /* \"#utility.yul\":11792:11794   */\n              0x20\n                /* \"#utility.yul\":11785:11790   */\n              dup4\n                /* \"#utility.yul\":11781:11795   */\n              add\n                /* \"#utility.yul\":11776:11778   */\n              0x20\n                /* \"#utility.yul\":11772:11774   */\n              dup7\n                /* \"#utility.yul\":11768:11779   */\n              add\n                /* \"#utility.yul\":11733:11800   */\n              tag_302\n              jump\t// in\n            tag_414:\n                /* \"#utility.yul\":11819:11824   */\n              swap6\n                /* \"#utility.yul\":11181:11830   */\n              swap5\n              pop\n              pop\n              pop\n              pop\n              pop\n              jump\t// out\n                /* \"#utility.yul\":11835:11963   */\n            tag_247:\n                /* \"#utility.yul\":11902:11911   */\n              dup2\n              dup2\n              sub\n                /* \"#utility.yul\":11923:11934   */\n              dup2\n              dup2\n              gt\n                /* \"#utility.yul\":11920:11957   */\n              iszero\n              tag_417\n              jumpi\n                /* \"#utility.yul\":11937:11955   */\n              tag_417\n              tag_304\n              jump\t// in\n            tag_417:\n                /* \"#utility.yul\":11835:11963   */\n              swap3\n              swap2\n              pop\n              pop\n              jump\t// out\n                /* \"#utility.yul\":12094:12612   */\n            tag_306:\n                /* \"#utility.yul\":12196:12198   */\n              0x1f\n                /* \"#utility.yul\":12191:12194   */\n              dup3\n                /* \"#utility.yul\":12188:12199   */\n              gt\n                /* \"#utility.yul\":12185:12606   */\n              iszero\n              tag_237\n              jumpi\n                /* \"#utility.yul\":12232:12237   */\n              dup1\n                /* \"#utility.yul\":12229:12230   */\n              0x00\n                /* \"#utility.yul\":12222:12238   */\n              mstore\n                /* \"#utility.yul\":12276:12280   */\n              0x20\n                /* \"#utility.yul\":12273:12274   */\n              0x00\n                /* \"#utility.yul\":12263:12281   */\n              keccak256\n                /* \"#utility.yul\":12346:12348   */\n              0x1f\n                /* \"#utility.yul\":12334:12344   */\n              dup5\n                /* \"#utility.yul\":12330:12349   */\n              add\n                /* \"#utility.yul\":12327:12328   */\n              0x05\n                /* \"#utility.yul\":12323:12350   */\n              shr\n                /* \"#utility.yul\":12317:12321   */\n              dup2\n                /* \"#utility.yul\":12313:12351   */\n              add\n                /* \"#utility.yul\":12382:12386   */\n              0x20\n                /* \"#utility.yul\":12370:12380   */\n              dup6\n                /* \"#utility.yul\":12367:12387   */\n              lt\n                /* \"#utility.yul\":12364:12411   */\n              iszero\n              tag_421\n              jumpi\n              pop\n                /* \"#utility.yul\":12405:12409   */\n              dup1\n                /* \"#utility.yul\":12364:12411   */\n            tag_421:\n                /* \"#utility.yul\":12460:12462   */\n              0x1f\n                /* \"#utility.yul\":12455:12458   */\n              dup5\n                /* \"#utility.yul\":12451:12463   */\n              add\n                /* \"#utility.yul\":12448:12449   */\n              0x05\n                /* \"#utility.yul\":12444:12464   */\n              shr\n                /* \"#utility.yul\":12438:12442   */\n              dup3\n                /* \"#utility.yul\":12434:12465   */\n              add\n                /* \"#utility.yul\":12424:12465   */\n              swap2\n              pop\n                /* \"#utility.yul\":12515:12596   */\n            tag_422:\n                /* \"#utility.yul\":12533:12535   */\n              dup2\n                /* \"#utility.yul\":12526:12531   */\n              dup2\n                /* \"#utility.yul\":12523:12536   */\n              lt\n                /* \"#utility.yul\":12515:12596   */\n              iszero\n              tag_424\n              jumpi\n                /* \"#utility.yul\":12592:12593   */\n              0x00\n                /* \"#utility.yul\":12578:12594   */\n              dup2\n              sstore\n                /* \"#utility.yul\":12559:12560   */\n              0x01\n                /* \"#utility.yul\":12548:12561   */\n              add\n                /* \"#utility.yul\":12515:12596   */\n              jump(tag_422)\n            tag_424:\n                /* \"#utility.yul\":12519:12522   */\n              pop\n              pop\n                /* \"#utility.yul\":12094:12612   */\n              pop\n              pop\n              pop\n              jump\t// out\n                /* \"#utility.yul\":12788:14133   */\n            tag_254:\n                /* \"#utility.yul\":12908:12918   */\n              dup2\n              mload\n              sub(shl(0x40, 0x01), 0x01)\n                /* \"#utility.yul\":12930:12960   */\n              dup2\n              gt\n                /* \"#utility.yul\":12927:12983   */\n              iszero\n              tag_428\n              jumpi\n                /* \"#utility.yul\":12963:12981   */\n              tag_428\n              tag_295\n              jump\t// in\n            tag_428:\n                /* \"#utility.yul\":12992:13089   */\n              tag_429\n                /* \"#utility.yul\":13082:13088   */\n              dup2\n                /* \"#utility.yul\":13042:13080   */\n              tag_430\n                /* \"#utility.yul\":13074:13078   */\n              dup5\n                /* \"#utility.yul\":13068:13079   */\n              sload\n                /* \"#utility.yul\":13042:13080   */\n              tag_202\n              jump\t// in\n            tag_430:\n                /* \"#utility.yul\":13036:13040   */\n              dup5\n                /* \"#utility.yul\":12992:13089   */\n              tag_306\n              jump\t// in\n            tag_429:\n                /* \"#utility.yul\":13144:13148   */\n              0x20\n              dup1\n                /* \"#utility.yul\":13201:13203   */\n              0x1f\n                /* \"#utility.yul\":13190:13204   */\n              dup4\n              gt\n                /* \"#utility.yul\":13218:13219   */\n              0x01\n                /* \"#utility.yul\":13213:13876   */\n              dup2\n              eq\n              tag_432\n              jumpi\n                /* \"#utility.yul\":13920:13921   */\n              0x00\n                /* \"#utility.yul\":13937:13943   */\n              dup5\n                /* \"#utility.yul\":13934:14023   */\n              iszero\n              tag_433\n              jumpi\n              pop\n                /* \"#utility.yul\":13989:14008   */\n              dup6\n              dup4\n              add\n                /* \"#utility.yul\":13983:14009   */\n              mload\n                /* \"#utility.yul\":13934:14023   */\n            tag_433:\n              not(0x00)\n                /* \"#utility.yul\":12745:12746   */\n              0x03\n                /* \"#utility.yul\":12741:12752   */\n              dup7\n              swap1\n              shl\n                /* \"#utility.yul\":12737:12761   */\n              shr\n                /* \"#utility.yul\":12733:12762   */\n              not\n                /* \"#utility.yul\":12723:12763   */\n              and\n                /* \"#utility.yul\":12769:12770   */\n              0x01\n                /* \"#utility.yul\":12765:12776   */\n              dup6\n              swap1\n              shl\n                /* \"#utility.yul\":12720:12777   */\n              or\n                /* \"#utility.yul\":14036:14117   */\n              dup6\n              sstore\n                /* \"#utility.yul\":13183:14127   */\n              jump(tag_431)\n                /* \"#utility.yul\":13213:13876   */\n            tag_432:\n                /* \"#utility.yul\":12041:12042   */\n              0x00\n                /* \"#utility.yul\":12034:12048   */\n              dup6\n              dup2\n              mstore\n                /* \"#utility.yul\":12078:12082   */\n              0x20\n                /* \"#utility.yul\":12065:12083   */\n              dup2\n              keccak256\n              not(0x1f)\n                /* \"#utility.yul\":13249:13269   */\n              dup7\n              and\n              swap2\n                /* \"#utility.yul\":13367:13603   */\n            tag_436:\n                /* \"#utility.yul\":13381:13388   */\n              dup3\n                /* \"#utility.yul\":13378:13379   */\n              dup2\n                /* \"#utility.yul\":13375:13389   */\n              lt\n                /* \"#utility.yul\":13367:13603   */\n              iszero\n              tag_438\n              jumpi\n                /* \"#utility.yul\":13470:13489   */\n              dup9\n              dup7\n              add\n                /* \"#utility.yul\":13464:13490   */\n              mload\n                /* \"#utility.yul\":13449:13491   */\n              dup3\n              sstore\n                /* \"#utility.yul\":13562:13589   */\n              swap5\n              dup5\n              add\n              swap5\n                /* \"#utility.yul\":13530:13531   */\n              0x01\n                /* \"#utility.yul\":13518:13532   */\n              swap1\n              swap2\n              add\n              swap1\n                /* \"#utility.yul\":13397:13416   */\n              dup5\n              add\n                /* \"#utility.yul\":13367:13603   */\n              jump(tag_436)\n            tag_438:\n                /* \"#utility.yul\":13371:13374   */\n              pop\n                /* \"#utility.yul\":13631:13637   */\n              dup6\n                /* \"#utility.yul\":13622:13629   */\n              dup3\n                /* \"#utility.yul\":13619:13638   */\n              lt\n                /* \"#utility.yul\":13616:13817   */\n              iszero\n              tag_439\n              jumpi\n                /* \"#utility.yul\":13692:13711   */\n              dup8\n              dup6\n              add\n                /* \"#utility.yul\":13686:13712   */\n              mload\n              not(0x00)\n                /* \"#utility.yul\":13775:13776   */\n              0x03\n                /* \"#utility.yul\":13771:13785   */\n              dup9\n              swap1\n              shl\n                /* \"#utility.yul\":13787:13790   */\n              0xf8\n                /* \"#utility.yul\":13767:13791   */\n              and\n                /* \"#utility.yul\":13763:13800   */\n              shr\n                /* \"#utility.yul\":13759:13801   */\n              not\n                /* \"#utility.yul\":13744:13802   */\n              and\n                /* \"#utility.yul\":13729:13803   */\n              dup2\n              sstore\n                /* \"#utility.yul\":13616:13817   */\n            tag_439:\n              pop\n              pop\n                /* \"#utility.yul\":13863:13864   */\n              0x01\n                /* \"#utility.yul\":13854:13860   */\n              dup5\n                /* \"#utility.yul\":13851:13852   */\n              0x01\n                /* \"#utility.yul\":13847:13861   */\n              shl\n                /* \"#utility.yul\":13843:13865   */\n              add\n                /* \"#utility.yul\":13837:13841   */\n              dup6\n                /* \"#utility.yul\":13830:13866   */\n              sstore\n                /* \"#utility.yul\":13183:14127   */\n            tag_431:\n              pop\n              pop\n              pop\n              pop\n                /* \"#utility.yul\":12788:14133   */\n              pop\n              pop\n              jump\t// out\n\n            auxdata: 0xa2646970667358221220500330d95dca0231915a005133b9f6c9eb6f120b35056837e7b05ecf89e8e0f464736f6c63430008180033\n        }\n\n        sub_1: assembly {\n                /* \"ProjectNFT.sol\":339:1680  contract ProjectNFT is ERC721, ERC721Enumerable, ERC721URIStorage, Ownable {... */\n              mstore(0x40, 0x80)\n                /* \"ProjectNFT.sol\":455:606  constructor(... */\n              callvalue\n              dup1\n              iszero\n              tag_1\n              jumpi\n              0x00\n              dup1\n              revert\n            tag_1:\n              pop\n              mload(0x40)\n              sub(codesize, bytecodeSize)\n              dup1\n              bytecodeSize\n              dup4\n              codecopy\n              dup2\n              add\n              0x40\n              dup2\n              swap1\n              mstore\n              tag_2\n              swap2\n              tag_3\n              jump\t// in\n            tag_2:\n                /* \"ProjectNFT.sol\":590:602  initialOwner */\n              dup3\n                /* \"ProjectNFT.sol\":568:572  name */\n              dup3\n                /* \"ProjectNFT.sol\":574:580  symbol */\n              dup3\n                /* \"@openzeppelin/contracts/token/ERC721/ERC721.sol\":1447:1452  _name */\n              0x00\n                /* \"@openzeppelin/contracts/token/ERC721/ERC721.sol\":1447:1460  _name = name_ */\n              tag_8\n                /* \"ProjectNFT.sol\":568:572  name */\n              dup4\n                /* \"@openzeppelin/contracts/token/ERC721/ERC721.sol\":1447:1452  _name */\n              dup3\n                /* \"@openzeppelin/contracts/token/ERC721/ERC721.sol\":1447:1460  _name = name_ */\n              tag_9\n              jump\t// in\n            tag_8:\n              pop\n                /* \"@openzeppelin/contracts/token/ERC721/ERC721.sol\":1470:1477  _symbol */\n              0x01\n                /* \"@openzeppelin/contracts/token/ERC721/ERC721.sol\":1470:1487  _symbol = symbol_ */\n              tag_10\n                /* \"@openzeppelin/contracts/token/ERC721/ERC721.sol\":1480:1487  symbol_ */\n              dup3\n                /* \"@openzeppelin/contracts/token/ERC721/ERC721.sol\":1470:1477  _symbol */\n              dup3\n                /* \"@openzeppelin/contracts/token/ERC721/ERC721.sol\":1470:1487  _symbol = symbol_ */\n              tag_9\n              jump\t// in\n            tag_10:\n              pop\n              pop\n              pop\n              sub(shl(0xa0, 0x01), 0x01)\n                /* \"@openzeppelin/contracts/access/Ownable.sol\":1273:1299  initialOwner == address(0) */\n              dup2\n              and\n                /* \"@openzeppelin/contracts/access/Ownable.sol\":1269:1364  if (initialOwner == address(0)) {... */\n              tag_12\n              jumpi\n                /* \"@openzeppelin/contracts/access/Ownable.sol\":1322:1353  OwnableInvalidOwner(address(0)) */\n              mload(0x40)\n              shl(0xe0, 0x1e4fbdf7)\n              dup2\n              mstore\n                /* \"@openzeppelin/contracts/access/Ownable.sol\":1350:1351  0 */\n              0x00\n                /* \"@openzeppelin/contracts/access/Ownable.sol\":1322:1353  OwnableInvalidOwner(address(0)) */\n              0x04\n              dup3\n              add\n                /* \"#utility.yul\":4430:4481   */\n              mstore\n                /* \"#utility.yul\":4403:4421   */\n              0x24\n              add\n                /* \"@openzeppelin/contracts/access/Ownable.sol\":1322:1353  OwnableInvalidOwner(address(0)) */\n              mload(0x40)\n              dup1\n              swap2\n              sub\n              swap1\n              revert\n                /* \"@openzeppelin/contracts/access/Ownable.sol\":1269:1364  if (initialOwner == address(0)) {... */\n            tag_12:\n                /* \"@openzeppelin/contracts/access/Ownable.sol\":1373:1405  _transferOwnership(initialOwner) */\n              tag_15\n                /* \"@openzeppelin/contracts/access/Ownable.sol\":1392:1404  initialOwner */\n              dup2\n                /* \"@openzeppelin/contracts/access/Ownable.sol\":1373:1391  _transferOwnership */\n              tag_16\n                /* \"@openzeppelin/contracts/access/Ownable.sol\":1373:1405  _transferOwnership(initialOwner) */\n              jump\t// in\n            tag_15:\n                /* \"@openzeppelin/contracts/access/Ownable.sol\":1225:1412  constructor(address initialOwner) {... */\n              pop\n                /* \"ProjectNFT.sol\":455:606  constructor(... */\n              pop\n              pop\n              pop\n                /* \"ProjectNFT.sol\":339:1680  contract ProjectNFT is ERC721, ERC721Enumerable, ERC721URIStorage, Ownable {... */\n              jump(tag_26)\n                /* \"@openzeppelin/contracts/access/Ownable.sol\":2912:3099  function _transferOwnership(address newOwner) internal virtual {... */\n            tag_16:\n                /* \"@openzeppelin/contracts/access/Ownable.sol\":3004:3010  _owner */\n              0x0b\n              dup1\n              sload\n              sub(shl(0xa0, 0x01), 0x01)\n                /* \"@openzeppelin/contracts/access/Ownable.sol\":3020:3037  _owner = newOwner */\n              dup4\n              dup2\n              and\n              not(sub(shl(0xa0, 0x01), 0x01))\n              dup4\n              and\n              dup2\n              or\n              swap1\n              swap4\n              sstore\n                /* \"@openzeppelin/contracts/access/Ownable.sol\":3052:3092  OwnershipTransferred(oldOwner, newOwner) */\n              mload(0x40)\n                /* \"@openzeppelin/contracts/access/Ownable.sol\":3004:3010  _owner */\n              swap2\n              and\n              swap2\n                /* \"@openzeppelin/contracts/access/Ownable.sol\":3020:3037  _owner = newOwner */\n              swap1\n                /* \"@openzeppelin/contracts/access/Ownable.sol\":3004:3010  _owner */\n              dup3\n              swap1\n                /* \"@openzeppelin/contracts/access/Ownable.sol\":3052:3092  OwnershipTransferred(oldOwner, newOwner) */\n              0x8be0079c531659141344cd1fd0a4f28419497f9722a3daafe3b4186f6b6457e0\n              swap1\n                /* \"@openzeppelin/contracts/access/Ownable.sol\":2985:3001  address oldOwner */\n              0x00\n              swap1\n                /* \"@openzeppelin/contracts/access/Ownable.sol\":3052:3092  OwnershipTransferred(oldOwner, newOwner) */\n              log3\n                /* \"@openzeppelin/contracts/access/Ownable.sol\":2975:3099  {... */\n              pop\n                /* \"@openzeppelin/contracts/access/Ownable.sol\":2912:3099  function _transferOwnership(address newOwner) internal virtual {... */\n              pop\n              jump\t// out\n                /* \"#utility.yul\":14:141   */\n            tag_20:\n                /* \"#utility.yul\":75:85   */\n              0x4e487b71\n                /* \"#utility.yul\":70:73   */\n              0xe0\n                /* \"#utility.yul\":66:86   */\n              shl\n                /* \"#utility.yul\":63:64   */\n              0x00\n                /* \"#utility.yul\":56:87   */\n              mstore\n                /* \"#utility.yul\":106:110   */\n              0x41\n                /* \"#utility.yul\":103:104   */\n              0x04\n                /* \"#utility.yul\":96:111   */\n              mstore\n                /* \"#utility.yul\":130:134   */\n              0x24\n                /* \"#utility.yul\":127:128   */\n              0x00\n                /* \"#utility.yul\":120:135   */\n              revert\n                /* \"#utility.yul\":146:990   */\n            tag_21:\n                /* \"#utility.yul\":200:205   */\n              0x00\n                /* \"#utility.yul\":253:256   */\n              dup3\n                /* \"#utility.yul\":246:250   */\n              0x1f\n                /* \"#utility.yul\":238:244   */\n              dup4\n                /* \"#utility.yul\":234:251   */\n              add\n                /* \"#utility.yul\":230:257   */\n              slt\n                /* \"#utility.yul\":220:275   */\n              tag_29\n              jumpi\n                /* \"#utility.yul\":271:272   */\n              0x00\n                /* \"#utility.yul\":268:269   */\n              dup1\n                /* \"#utility.yul\":261:273   */\n              revert\n                /* \"#utility.yul\":220:275   */\n            tag_29:\n                /* \"#utility.yul\":294:307   */\n              dup2\n              mload\n              sub(shl(0x40, 0x01), 0x01)\n                /* \"#utility.yul\":356:366   */\n              dup1\n              dup3\n              gt\n                /* \"#utility.yul\":353:389   */\n              iszero\n              tag_31\n              jumpi\n                /* \"#utility.yul\":369:387   */\n              tag_31\n              tag_20\n              jump\t// in\n            tag_31:\n                /* \"#utility.yul\":444:446   */\n              0x40\n                /* \"#utility.yul\":438:447   */\n              mload\n                /* \"#utility.yul\":412:414   */\n              0x1f\n                /* \"#utility.yul\":498:511   */\n              dup4\n              add\n              not(0x1f)\n                /* \"#utility.yul\":494:516   */\n              swap1\n              dup2\n              and\n                /* \"#utility.yul\":518:520   */\n              0x3f\n                /* \"#utility.yul\":490:521   */\n              add\n                /* \"#utility.yul\":486:526   */\n              and\n                /* \"#utility.yul\":474:527   */\n              dup2\n              add\n              swap1\n                /* \"#utility.yul\":542:560   */\n              dup3\n              dup3\n              gt\n                /* \"#utility.yul\":562:584   */\n              dup2\n              dup4\n              lt\n                /* \"#utility.yul\":539:585   */\n              or\n                /* \"#utility.yul\":536:608   */\n              iszero\n              tag_33\n              jumpi\n                /* \"#utility.yul\":588:606   */\n              tag_33\n              tag_20\n              jump\t// in\n            tag_33:\n                /* \"#utility.yul\":628:638   */\n              dup2\n                /* \"#utility.yul\":624:626   */\n              0x40\n                /* \"#utility.yul\":617:639   */\n              mstore\n                /* \"#utility.yul\":663:665   */\n              dup4\n                /* \"#utility.yul\":655:661   */\n              dup2\n                /* \"#utility.yul\":648:666   */\n              mstore\n                /* \"#utility.yul\":685:689   */\n              0x20\n                /* \"#utility.yul\":675:689   */\n              swap3\n              pop\n                /* \"#utility.yul\":732:735   */\n              dup7\n                /* \"#utility.yul\":725:729   */\n              0x20\n                /* \"#utility.yul\":720:722   */\n              dup6\n                /* \"#utility.yul\":712:718   */\n              dup9\n                /* \"#utility.yul\":708:723   */\n              add\n                /* \"#utility.yul\":704:730   */\n              add\n                /* \"#utility.yul\":701:736   */\n              gt\n                /* \"#utility.yul\":698:753   */\n              iszero\n              tag_34\n              jumpi\n                /* \"#utility.yul\":749:750   */\n              0x00\n                /* \"#utility.yul\":746:747   */\n              dup1\n                /* \"#utility.yul\":739:751   */\n              revert\n                /* \"#utility.yul\":698:753   */\n            tag_34:\n                /* \"#utility.yul\":771:772   */\n              0x00\n                /* \"#utility.yul\":762:772   */\n              swap2\n              pop\n                /* \"#utility.yul\":781:914   */\n            tag_35:\n                /* \"#utility.yul\":795:797   */\n              dup4\n                /* \"#utility.yul\":792:793   */\n              dup3\n                /* \"#utility.yul\":789:798   */\n              lt\n                /* \"#utility.yul\":781:914   */\n              iszero\n              tag_37\n              jumpi\n                /* \"#utility.yul\":883:897   */\n              dup6\n              dup3\n              add\n                /* \"#utility.yul\":879:902   */\n              dup4\n              add\n                /* \"#utility.yul\":873:903   */\n              mload\n                /* \"#utility.yul\":852:866   */\n              dup2\n              dup4\n              add\n                /* \"#utility.yul\":848:871   */\n              dup5\n              add\n                /* \"#utility.yul\":841:904   */\n              mstore\n                /* \"#utility.yul\":806:816   */\n              swap1\n              dup3\n              add\n              swap1\n                /* \"#utility.yul\":781:914   */\n              jump(tag_35)\n            tag_37:\n                /* \"#utility.yul\":958:959   */\n              0x00\n                /* \"#utility.yul\":951:955   */\n              0x20\n                /* \"#utility.yul\":946:948   */\n              dup6\n                /* \"#utility.yul\":938:944   */\n              dup4\n                /* \"#utility.yul\":934:949   */\n              add\n                /* \"#utility.yul\":930:956   */\n              add\n                /* \"#utility.yul\":923:960   */\n              mstore\n                /* \"#utility.yul\":978:984   */\n              dup1\n                /* \"#utility.yul\":969:984   */\n              swap5\n              pop\n              pop\n              pop\n              pop\n              pop\n                /* \"#utility.yul\":146:990   */\n              swap3\n              swap2\n              pop\n              pop\n              jump\t// out\n                /* \"#utility.yul\":995:1724   */\n            tag_3:\n                /* \"#utility.yul\":1103:1109   */\n              0x00\n                /* \"#utility.yul\":1111:1117   */\n              dup1\n                /* \"#utility.yul\":1119:1125   */\n              0x00\n                /* \"#utility.yul\":1172:1174   */\n              0x60\n                /* \"#utility.yul\":1160:1169   */\n              dup5\n                /* \"#utility.yul\":1151:1158   */\n              dup7\n                /* \"#utility.yul\":1147:1170   */\n              sub\n                /* \"#utility.yul\":1143:1175   */\n              slt\n                /* \"#utility.yul\":1140:1192   */\n              iszero\n              tag_39\n              jumpi\n                /* \"#utility.yul\":1188:1189   */\n              0x00\n                /* \"#utility.yul\":1185:1186   */\n              dup1\n                /* \"#utility.yul\":1178:1190   */\n              revert\n                /* \"#utility.yul\":1140:1192   */\n            tag_39:\n                /* \"#utility.yul\":1214:1230   */\n              dup4\n              mload\n              sub(shl(0xa0, 0x01), 0x01)\n                /* \"#utility.yul\":1259:1290   */\n              dup2\n              and\n                /* \"#utility.yul\":1249:1291   */\n              dup2\n              eq\n                /* \"#utility.yul\":1239:1309   */\n              tag_40\n              jumpi\n                /* \"#utility.yul\":1305:1306   */\n              0x00\n                /* \"#utility.yul\":1302:1303   */\n              dup1\n                /* \"#utility.yul\":1295:1307   */\n              revert\n                /* \"#utility.yul\":1239:1309   */\n            tag_40:\n                /* \"#utility.yul\":1377:1379   */\n              0x20\n                /* \"#utility.yul\":1362:1380   */\n              dup6\n              add\n                /* \"#utility.yul\":1356:1381   */\n              mload\n                /* \"#utility.yul\":1328:1333   */\n              swap1\n              swap4\n              pop\n              sub(shl(0x40, 0x01), 0x01)\n                /* \"#utility.yul\":1430:1444   */\n              dup1\n              dup3\n              gt\n                /* \"#utility.yul\":1427:1461   */\n              iszero\n              tag_41\n              jumpi\n                /* \"#utility.yul\":1457:1458   */\n              0x00\n                /* \"#utility.yul\":1454:1455   */\n              dup1\n                /* \"#utility.yul\":1447:1459   */\n              revert\n                /* \"#utility.yul\":1427:1461   */\n            tag_41:\n                /* \"#utility.yul\":1480:1541   */\n              tag_42\n                /* \"#utility.yul\":1533:1540   */\n              dup8\n                /* \"#utility.yul\":1524:1530   */\n              dup4\n                /* \"#utility.yul\":1513:1522   */\n              dup9\n                /* \"#utility.yul\":1509:1531   */\n              add\n                /* \"#utility.yul\":1480:1541   */\n              tag_21\n              jump\t// in\n            tag_42:\n                /* \"#utility.yul\":1470:1541   */\n              swap4\n              pop\n                /* \"#utility.yul\":1587:1589   */\n              0x40\n                /* \"#utility.yul\":1576:1585   */\n              dup7\n                /* \"#utility.yul\":1572:1590   */\n              add\n                /* \"#utility.yul\":1566:1591   */\n              mload\n                /* \"#utility.yul\":1550:1591   */\n              swap2\n              pop\n                /* \"#utility.yul\":1616:1618   */\n              dup1\n                /* \"#utility.yul\":1606:1614   */\n              dup3\n                /* \"#utility.yul\":1603:1619   */\n              gt\n                /* \"#utility.yul\":1600:1636   */\n              iszero\n              tag_43\n              jumpi\n                /* \"#utility.yul\":1632:1633   */\n              0x00\n                /* \"#utility.yul\":1629:1630   */\n              dup1\n                /* \"#utility.yul\":1622:1634   */\n              revert\n                /* \"#utility.yul\":1600:1636   */\n            tag_43:\n              pop\n                /* \"#utility.yul\":1655:1718   */\n              tag_44\n                /* \"#utility.yul\":1710:1717   */\n              dup7\n                /* \"#utility.yul\":1699:1707   */\n              dup3\n                /* \"#utility.yul\":1688:1697   */\n              dup8\n                /* \"#utility.yul\":1684:1708   */\n              add\n                /* \"#utility.yul\":1655:1718   */\n              tag_21\n              jump\t// in\n            tag_44:\n                /* \"#utility.yul\":1645:1718   */\n              swap2\n              pop\n              pop\n                /* \"#utility.yul\":995:1724   */\n              swap3\n              pop\n              swap3\n              pop\n              swap3\n              jump\t// out\n                /* \"#utility.yul\":1729:2109   */\n            tag_22:\n                /* \"#utility.yul\":1808:1809   */\n              0x01\n                /* \"#utility.yul\":1804:1816   */\n              dup2\n              dup2\n              shr\n              swap1\n                /* \"#utility.yul\":1851:1863   */\n              dup3\n              and\n              dup1\n                /* \"#utility.yul\":1872:1933   */\n              tag_46\n              jumpi\n                /* \"#utility.yul\":1926:1930   */\n              0x7f\n                /* \"#utility.yul\":1918:1924   */\n              dup3\n                /* \"#utility.yul\":1914:1931   */\n              and\n                /* \"#utility.yul\":1904:1931   */\n              swap2\n              pop\n                /* \"#utility.yul\":1872:1933   */\n            tag_46:\n                /* \"#utility.yul\":1979:1981   */\n              0x20\n                /* \"#utility.yul\":1971:1977   */\n              dup3\n                /* \"#utility.yul\":1968:1982   */\n              lt\n                /* \"#utility.yul\":1948:1966   */\n              dup2\n                /* \"#utility.yul\":1945:1983   */\n              sub\n                /* \"#utility.yul\":1942:2103   */\n              tag_47\n              jumpi\n                /* \"#utility.yul\":2025:2035   */\n              0x4e487b71\n                /* \"#utility.yul\":2020:2023   */\n              0xe0\n                /* \"#utility.yul\":2016:2036   */\n              shl\n                /* \"#utility.yul\":2013:2014   */\n              0x00\n                /* \"#utility.yul\":2006:2037   */\n              mstore\n                /* \"#utility.yul\":2060:2064   */\n              0x22\n                /* \"#utility.yul\":2057:2058   */\n              0x04\n                /* \"#utility.yul\":2050:2065   */\n              mstore\n                /* \"#utility.yul\":2088:2092   */\n              0x24\n                /* \"#utility.yul\":2085:2086   */\n              0x00\n                /* \"#utility.yul\":2078:2093   */\n              revert\n                /* \"#utility.yul\":1942:2103   */\n            tag_47:\n              pop\n                /* \"#utility.yul\":1729:2109   */\n              swap2\n              swap1\n              pop\n              jump\t// out\n                /* \"#utility.yul\":2240:2758   */\n            tag_24:\n                /* \"#utility.yul\":2342:2344   */\n              0x1f\n                /* \"#utility.yul\":2337:2340   */\n              dup3\n                /* \"#utility.yul\":2334:2345   */\n              gt\n                /* \"#utility.yul\":2331:2752   */\n              iszero\n              tag_50\n              jumpi\n                /* \"#utility.yul\":2378:2383   */\n              dup1\n                /* \"#utility.yul\":2375:2376   */\n              0x00\n                /* \"#utility.yul\":2368:2384   */\n              mstore\n                /* \"#utility.yul\":2422:2426   */\n              0x20\n                /* \"#utility.yul\":2419:2420   */\n              0x00\n                /* \"#utility.yul\":2409:2427   */\n              keccak256\n                /* \"#utility.yul\":2492:2494   */\n              0x1f\n                /* \"#utility.yul\":2480:2490   */\n              dup5\n                /* \"#utility.yul\":2476:2495   */\n              add\n                /* \"#utility.yul\":2473:2474   */\n              0x05\n                /* \"#utility.yul\":2469:2496   */\n              shr\n                /* \"#utility.yul\":2463:2467   */\n              dup2\n                /* \"#utility.yul\":2459:2497   */\n              add\n                /* \"#utility.yul\":2528:2532   */\n              0x20\n                /* \"#utility.yul\":2516:2526   */\n              dup6\n                /* \"#utility.yul\":2513:2533   */\n              lt\n                /* \"#utility.yul\":2510:2557   */\n              iszero\n              tag_51\n              jumpi\n              pop\n                /* \"#utility.yul\":2551:2555   */\n              dup1\n                /* \"#utility.yul\":2510:2557   */\n            tag_51:\n                /* \"#utility.yul\":2606:2608   */\n              0x1f\n                /* \"#utility.yul\":2601:2604   */\n              dup5\n                /* \"#utility.yul\":2597:2609   */\n              add\n                /* \"#utility.yul\":2594:2595   */\n              0x05\n                /* \"#utility.yul\":2590:2610   */\n              shr\n                /* \"#utility.yul\":2584:2588   */\n              dup3\n                /* \"#utility.yul\":2580:2611   */\n              add\n                /* \"#utility.yul\":2570:2611   */\n              swap2\n              pop\n                /* \"#utility.yul\":2661:2742   */\n            tag_52:\n                /* \"#utility.yul\":2679:2681   */\n              dup2\n                /* \"#utility.yul\":2672:2677   */\n              dup2\n                /* \"#utility.yul\":2669:2682   */\n              lt\n                /* \"#utility.yul\":2661:2742   */\n              iszero\n              tag_54\n              jumpi\n                /* \"#utility.yul\":2738:2739   */\n              0x00\n                /* \"#utility.yul\":2724:2740   */\n              dup2\n              sstore\n                /* \"#utility.yul\":2705:2706   */\n              0x01\n                /* \"#utility.yul\":2694:2707   */\n              add\n                /* \"#utility.yul\":2661:2742   */\n              jump(tag_52)\n            tag_54:\n                /* \"#utility.yul\":2665:2668   */\n              pop\n              pop\n                /* \"#utility.yul\":2331:2752   */\n            tag_50:\n                /* \"#utility.yul\":2240:2758   */\n              pop\n              pop\n              pop\n              jump\t// out\n                /* \"#utility.yul\":2934:4279   */\n            tag_9:\n                /* \"#utility.yul\":3054:3064   */\n              dup2\n              mload\n              sub(shl(0x40, 0x01), 0x01)\n                /* \"#utility.yul\":3076:3106   */\n              dup2\n              gt\n                /* \"#utility.yul\":3073:3129   */\n              iszero\n              tag_58\n              jumpi\n                /* \"#utility.yul\":3109:3127   */\n              tag_58\n              tag_20\n              jump\t// in\n            tag_58:\n                /* \"#utility.yul\":3138:3235   */\n              tag_59\n                /* \"#utility.yul\":3228:3234   */\n              dup2\n                /* \"#utility.yul\":3188:3226   */\n              tag_60\n                /* \"#utility.yul\":3220:3224   */\n              dup5\n                /* \"#utility.yul\":3214:3225   */\n              sload\n                /* \"#utility.yul\":3188:3226   */\n              tag_22\n              jump\t// in\n            tag_60:\n                /* \"#utility.yul\":3182:3186   */\n              dup5\n                /* \"#utility.yul\":3138:3235   */\n              tag_24\n              jump\t// in\n            tag_59:\n                /* \"#utility.yul\":3290:3294   */\n              0x20\n              dup1\n                /* \"#utility.yul\":3347:3349   */\n              0x1f\n                /* \"#utility.yul\":3336:3350   */\n              dup4\n              gt\n                /* \"#utility.yul\":3364:3365   */\n              0x01\n                /* \"#utility.yul\":3359:4022   */\n              dup2\n              eq\n              tag_62\n              jumpi\n                /* \"#utility.yul\":4066:4067   */\n              0x00\n                /* \"#utility.yul\":4083:4089   */\n              dup5\n                /* \"#utility.yul\":4080:4169   */\n              iszero\n              tag_63\n              jumpi\n              pop\n                /* \"#utility.yul\":4135:4154   */\n              dup6\n              dup4\n              add\n                /* \"#utility.yul\":4129:4155   */\n              mload\n                /* \"#utility.yul\":4080:4169   */\n            tag_63:\n              not(0x00)\n                /* \"#utility.yul\":2891:2892   */\n              0x03\n                /* \"#utility.yul\":2887:2898   */\n              dup7\n              swap1\n              shl\n                /* \"#utility.yul\":2883:2907   */\n              shr\n                /* \"#utility.yul\":2879:2908   */\n              not\n                /* \"#utility.yul\":2869:2909   */\n              and\n                /* \"#utility.yul\":2915:2916   */\n              0x01\n                /* \"#utility.yul\":2911:2922   */\n              dup6\n              swap1\n              shl\n                /* \"#utility.yul\":2866:2923   */\n              or\n                /* \"#utility.yul\":4182:4263   */\n              dup6\n              sstore\n                /* \"#utility.yul\":3329:4273   */\n              jump(tag_61)\n                /* \"#utility.yul\":3359:4022   */\n            tag_62:\n                /* \"#utility.yul\":2187:2188   */\n              0x00\n                /* \"#utility.yul\":2180:2194   */\n              dup6\n              dup2\n              mstore\n                /* \"#utility.yul\":2224:2228   */\n              0x20\n                /* \"#utility.yul\":2211:2229   */\n              dup2\n              keccak256\n              not(0x1f)\n                /* \"#utility.yul\":3395:3415   */\n              dup7\n              and\n              swap2\n                /* \"#utility.yul\":3513:3749   */\n            tag_66:\n                /* \"#utility.yul\":3527:3534   */\n              dup3\n                /* \"#utility.yul\":3524:3525   */\n              dup2\n                /* \"#utility.yul\":3521:3535   */\n              lt\n                /* \"#utility.yul\":3513:3749   */\n              iszero\n              tag_68\n              jumpi\n                /* \"#utility.yul\":3616:3635   */\n              dup9\n              dup7\n              add\n                /* \"#utility.yul\":3610:3636   */\n              mload\n                /* \"#utility.yul\":3595:3637   */\n              dup3\n              sstore\n                /* \"#utility.yul\":3708:3735   */\n              swap5\n              dup5\n              add\n              swap5\n                /* \"#utility.yul\":3676:3677   */\n              0x01\n                /* \"#utility.yul\":3664:3678   */\n              swap1\n              swap2\n              add\n              swap1\n                /* \"#utility.yul\":3543:3562   */\n              dup5\n              add\n                /* \"#utility.yul\":3513:3749   */\n              jump(tag_66)\n            tag_68:\n                /* \"#utility.yul\":3517:3520   */\n              pop\n                /* \"#utility.yul\":3777:3783   */\n              dup6\n                /* \"#utility.yul\":3768:3775   */\n              dup3\n                /* \"#utility.yul\":3765:3784   */\n              lt\n                /* \"#utility.yul\":3762:3963   */\n              iszero\n              tag_69\n              jumpi\n                /* \"#utility.yul\":3838:3857   */\n              dup8\n              dup6\n              add\n                /* \"#utility.yul\":3832:3858   */\n              mload\n              not(0x00)\n                /* \"#utility.yul\":3921:3922   */\n              0x03\n                /* \"#utility.yul\":3917:3931   */\n              dup9\n              swap1\n              shl\n                /* \"#utility.yul\":3933:3936   */\n              0xf8\n                /* \"#utility.yul\":3913:3937   */\n              and\n                /* \"#utility.yul\":3909:3946   */\n              shr\n                /* \"#utility.yul\":3905:3947   */\n              not\n                /* \"#utility.yul\":3890:3948   */\n              and\n                /* \"#utility.yul\":3875:3949   */\n              dup2\n              sstore\n                /* \"#utility.yul\":3762:3963   */\n            tag_69:\n              pop\n              pop\n                /* \"#utility.yul\":4009:4010   */\n              0x01\n                /* \"#utility.yul\":4000:4006   */\n              dup5\n                /* \"#utility.yul\":3997:3998   */\n              0x01\n                /* \"#utility.yul\":3993:4007   */\n              shl\n                /* \"#utility.yul\":3989:4011   */\n              add\n                /* \"#utility.yul\":3983:3987   */\n              dup6\n                /* \"#utility.yul\":3976:4012   */\n              sstore\n                /* \"#utility.yul\":3329:4273   */\n            tag_61:\n              pop\n              pop\n              pop\n              pop\n                /* \"#utility.yul\":2934:4279   */\n              pop\n              pop\n              jump\t// out\n                /* \"#utility.yul\":4284:4487   */\n            tag_26:\n                /* \"ProjectNFT.sol\":339:1680  contract ProjectNFT is ERC721, ERC721Enumerable, ERC721URIStorage, Ownable {... */\n              dataSize(sub_0)\n              dup1\n              dataOffset(sub_0)\n              0x00\n              codecopy\n              0x00\n              return\n            stop\n\n            sub_0: assembly {\n                    /* \"ProjectNFT.sol\":339:1680  contract ProjectNFT is ERC721, ERC721Enumerable, ERC721URIStorage, Ownable {... */\n                  mstore(0x40, 0x80)\n                  callvalue\n                  dup1\n                  iszero\n                  tag_1\n                  jumpi\n                  0x00\n                  dup1\n                  revert\n                tag_1:\n                  pop\n                  jumpi(tag_2, lt(calldatasize, 0x04))\n                  shr(0xe0, calldataload(0x00))\n                  dup1\n                  0x01ffc9a7\n                  eq\n                  tag_3\n                  jumpi\n                  dup1\n                  0x06fdde03\n                  eq\n                  tag_4\n                  jumpi\n                  dup1\n                  0x081812fc\n                  eq\n                  tag_5\n                  jumpi\n                  dup1\n                  0x095ea7b3\n                  eq\n                  tag_6\n                  jumpi\n                  dup1\n                  0x18160ddd\n                  eq\n                  tag_7\n                  jumpi\n                  dup1\n                  0x23b872dd\n                  eq\n                  tag_8\n                  jumpi\n                  dup1\n                  0x2f745c59\n                  eq\n                  tag_9\n                  jumpi\n                  dup1\n                  0x42842e0e\n                  eq\n                  tag_10\n                  jumpi\n                  dup1\n                  0x4f6ccce7\n                  eq\n                  tag_11\n                  jumpi\n                  dup1\n                  0x6352211e\n                  eq\n                  tag_12\n                  jumpi\n                  dup1\n                  0x70a08231\n                  eq\n                  tag_13\n                  jumpi\n                  dup1\n                  0x715018a6\n                  eq\n                  tag_14\n                  jumpi\n                  dup1\n                  0x8da5cb5b\n                  eq\n                  tag_15\n                  jumpi\n                  dup1\n                  0x95d89b41\n                  eq\n                  tag_16\n                  jumpi\n                  dup1\n                  0xa22cb465\n                  eq\n                  tag_17\n                  jumpi\n                  dup1\n                  0xb88d4fde\n                  eq\n                  tag_18\n                  jumpi\n                  dup1\n                  0xc87b56dd\n                  eq\n                  tag_19\n                  jumpi\n                  dup1\n                  0xd204c45e\n                  eq\n                  tag_20\n                  jumpi\n                  dup1\n                  0xe985e9c5\n                  eq\n                  tag_21\n                  jumpi\n                  dup1\n                  0xf2fde38b\n                  eq\n                  tag_22\n                  jumpi\n                tag_2:\n                  0x00\n                  dup1\n                  revert\n                    /* \"ProjectNFT.sol\":1441:1678  function supportsInterface(... */\n                tag_3:\n                  tag_23\n                  tag_24\n                  calldatasize\n                  0x04\n                  tag_25\n                  jump\t// in\n                tag_24:\n                  tag_26\n                  jump\t// in\n                tag_23:\n                  mload(0x40)\n                    /* \"#utility.yul\":565:579   */\n                  swap1\n                  iszero\n                    /* \"#utility.yul\":558:580   */\n                  iszero\n                    /* \"#utility.yul\":540:581   */\n                  dup2\n                  mstore\n                    /* \"#utility.yul\":528:530   */\n                  0x20\n                    /* \"#utility.yul\":513:531   */\n                  add\n                    /* \"ProjectNFT.sol\":1441:1678  function supportsInterface(... */\n                tag_27:\n                  mload(0x40)\n                  dup1\n                  swap2\n                  sub\n                  swap1\n                  return\n                    /* \"@openzeppelin/contracts/token/ERC721/ERC721.sol\":2365:2454  function name() public view virtual returns (string memory) {... */\n                tag_4:\n                  tag_29\n                  tag_30\n                  jump\t// in\n                tag_29:\n                  mload(0x40)\n                  tag_27\n                  swap2\n                  swap1\n                  tag_32\n                  jump\t// in\n                    /* \"@openzeppelin/contracts/token/ERC721/ERC721.sol\":3497:3651  function getApproved(uint256 tokenId) public view virtual returns (address) {... */\n                tag_5:\n                  tag_33\n                  tag_34\n                  calldatasize\n                  0x04\n                  tag_35\n                  jump\t// in\n                tag_34:\n                  tag_36\n                  jump\t// in\n                tag_33:\n                  mload(0x40)\n                  tag_27\n                  swap2\n                  swap1\n                  tag_38\n                  jump\t// in\n                    /* \"@openzeppelin/contracts/token/ERC721/ERC721.sol\":3323:3436  function approve(address to, uint256 tokenId) public virtual {... */\n                tag_6:\n                  tag_39\n                  tag_40\n                  calldatasize\n                  0x04\n                  tag_41\n                  jump\t// in\n                tag_40:\n                  tag_42\n                  jump\t// in\n                tag_39:\n                  stop\n                    /* \"@openzeppelin/contracts/token/ERC721/extensions/ERC721Enumerable.sol\":2062:2164  function totalSupply() public view virtual returns (uint256) {... */\n                tag_7:\n                    /* \"@openzeppelin/contracts/token/ERC721/extensions/ERC721Enumerable.sol\":2140:2150  _allTokens */\n                  0x08\n                    /* \"@openzeppelin/contracts/token/ERC721/extensions/ERC721Enumerable.sol\":2140:2157  _allTokens.length */\n                  sload\n                    /* \"@openzeppelin/contracts/token/ERC721/extensions/ERC721Enumerable.sol\":2062:2164  function totalSupply() public view virtual returns (uint256) {... */\n                tag_43:\n                  mload(0x40)\n                    /* \"#utility.yul\":2324:2349   */\n                  swap1\n                  dup2\n                  mstore\n                    /* \"#utility.yul\":2312:2314   */\n                  0x20\n                    /* \"#utility.yul\":2297:2315   */\n                  add\n                    /* \"@openzeppelin/contracts/token/ERC721/extensions/ERC721Enumerable.sol\":2062:2164  function totalSupply() public view virtual returns (uint256) {... */\n                  tag_27\n                    /* \"#utility.yul\":2178:2355   */\n                  jump\n                    /* \"@openzeppelin/contracts/token/ERC721/ERC721.sol\":4143:4721  function transferFrom(address from, address to, uint256 tokenId) public virtual {... */\n                tag_8:\n                  tag_39\n                  tag_48\n                  calldatasize\n                  0x04\n                  tag_49\n                  jump\t// in\n                tag_48:\n                  tag_50\n                  jump\t// in\n                    /* \"@openzeppelin/contracts/token/ERC721/extensions/ERC721Enumerable.sol\":1736:1991  function tokenOfOwnerByIndex(address owner, uint256 index) public view virtual returns (uint256) {... */\n                tag_9:\n                  tag_43\n                  tag_52\n                  calldatasize\n                  0x04\n                  tag_41\n                  jump\t// in\n                tag_52:\n                  tag_53\n                  jump\t// in\n                    /* \"@openzeppelin/contracts/token/ERC721/ERC721.sol\":4787:4919  function safeTransferFrom(address from, address to, uint256 tokenId) public {... */\n                tag_10:\n                  tag_39\n                  tag_56\n                  calldatasize\n                  0x04\n                  tag_49\n                  jump\t// in\n                tag_56:\n                  tag_57\n                  jump\t// in\n                    /* \"@openzeppelin/contracts/token/ERC721/extensions/ERC721Enumerable.sol\":2236:2462  function tokenByIndex(uint256 index) public view virtual returns (uint256) {... */\n                tag_11:\n                  tag_43\n                  tag_59\n                  calldatasize\n                  0x04\n                  tag_35\n                  jump\t// in\n                tag_59:\n                  tag_60\n                  jump\t// in\n                    /* \"@openzeppelin/contracts/token/ERC721/ERC721.sol\":2185:2303  function ownerOf(uint256 tokenId) public view virtual returns (address) {... */\n                tag_12:\n                  tag_33\n                  tag_63\n                  calldatasize\n                  0x04\n                  tag_35\n                  jump\t// in\n                tag_63:\n                  tag_64\n                  jump\t// in\n                    /* \"@openzeppelin/contracts/token/ERC721/ERC721.sol\":1920:2128  function balanceOf(address owner) public view virtual returns (uint256) {... */\n                tag_13:\n                  tag_43\n                  tag_67\n                  calldatasize\n                  0x04\n                  tag_68\n                  jump\t// in\n                tag_67:\n                  tag_69\n                  jump\t// in\n                    /* \"@openzeppelin/contracts/access/Ownable.sol\":2293:2394  function renounceOwnership() public virtual onlyOwner {... */\n                tag_14:\n                  tag_39\n                  tag_72\n                  jump\t// in\n                    /* \"@openzeppelin/contracts/access/Ownable.sol\":1638:1723  function owner() public view virtual returns (address) {... */\n                tag_15:\n                  tag_33\n                  tag_74\n                  jump\t// in\n                    /* \"@openzeppelin/contracts/token/ERC721/ERC721.sol\":2518:2611  function symbol() public view virtual returns (string memory) {... */\n                tag_16:\n                  tag_29\n                  tag_77\n                  jump\t// in\n                    /* \"@openzeppelin/contracts/token/ERC721/ERC721.sol\":3718:3862  function setApprovalForAll(address operator, bool approved) public virtual {... */\n                tag_17:\n                  tag_39\n                  tag_80\n                  calldatasize\n                  0x04\n                  tag_81\n                  jump\t// in\n                tag_80:\n                  tag_82\n                  jump\t// in\n                    /* \"@openzeppelin/contracts/token/ERC721/ERC721.sol\":4985:5193  function safeTransferFrom(address from, address to, uint256 tokenId, bytes memory data) public virtual {... */\n                tag_18:\n                  tag_39\n                  tag_84\n                  calldatasize\n                  0x04\n                  tag_85\n                  jump\t// in\n                tag_84:\n                  tag_86\n                  jump\t// in\n                    /* \"ProjectNFT.sol\":1268:1435  function tokenURI(... */\n                tag_19:\n                  tag_29\n                  tag_88\n                  calldatasize\n                  0x04\n                  tag_35\n                  jump\t// in\n                tag_88:\n                  tag_89\n                  jump\t// in\n                    /* \"ProjectNFT.sol\":612:795  function safeMint(address to, string memory uri) public onlyOwner {... */\n                tag_20:\n                  tag_39\n                  tag_92\n                  calldatasize\n                  0x04\n                  tag_93\n                  jump\t// in\n                tag_92:\n                  tag_94\n                  jump\t// in\n                    /* \"@openzeppelin/contracts/token/ERC721/ERC721.sol\":3928:4081  function isApprovedForAll(address owner, address operator) public view virtual returns (bool) {... */\n                tag_21:\n                  tag_23\n                  tag_96\n                  calldatasize\n                  0x04\n                  tag_97\n                  jump\t// in\n                tag_96:\n                  tag_98\n                  jump\t// in\n                    /* \"@openzeppelin/contracts/access/Ownable.sol\":2543:2758  function transferOwnership(address newOwner) public virtual onlyOwner {... */\n                tag_22:\n                  tag_39\n                  tag_101\n                  calldatasize\n                  0x04\n                  tag_68\n                  jump\t// in\n                tag_101:\n                  tag_102\n                  jump\t// in\n                    /* \"ProjectNFT.sol\":1441:1678  function supportsInterface(... */\n                tag_26:\n                    /* \"ProjectNFT.sol\":1608:1612  bool */\n                  0x00\n                    /* \"ProjectNFT.sol\":1635:1671  super.supportsInterface(interfaceId) */\n                  tag_104\n                    /* \"ProjectNFT.sol\":1659:1670  interfaceId */\n                  dup3\n                    /* \"ProjectNFT.sol\":1635:1658  super.supportsInterface */\n                  tag_105\n                    /* \"ProjectNFT.sol\":1635:1671  super.supportsInterface(interfaceId) */\n                  jump\t// in\n                tag_104:\n                    /* \"ProjectNFT.sol\":1628:1671  return super.supportsInterface(interfaceId) */\n                  swap3\n                    /* \"ProjectNFT.sol\":1441:1678  function supportsInterface(... */\n                  swap2\n                  pop\n                  pop\n                  jump\t// out\n                    /* \"@openzeppelin/contracts/token/ERC721/ERC721.sol\":2365:2454  function name() public view virtual returns (string memory) {... */\n                tag_30:\n                    /* \"@openzeppelin/contracts/token/ERC721/ERC721.sol\":2410:2423  string memory */\n                  0x60\n                    /* \"@openzeppelin/contracts/token/ERC721/ERC721.sol\":2442:2447  _name */\n                  0x00\n                    /* \"@openzeppelin/contracts/token/ERC721/ERC721.sol\":2435:2447  return _name */\n                  dup1\n                  sload\n                  tag_107\n                  swap1\n                  tag_108\n                  jump\t// in\n                tag_107:\n                  dup1\n                  0x1f\n                  add\n                  0x20\n                  dup1\n                  swap2\n                  div\n                  mul\n                  0x20\n                  add\n                  mload(0x40)\n                  swap1\n                  dup2\n                  add\n                  0x40\n                  mstore\n                  dup1\n                  swap3\n                  swap2\n                  swap1\n                  dup2\n                  dup2\n                  mstore\n                  0x20\n                  add\n                  dup3\n                  dup1\n                  sload\n                  tag_109\n                  swap1\n                  tag_108\n                  jump\t// in\n                tag_109:\n                  dup1\n                  iszero\n                  tag_110\n                  jumpi\n                  dup1\n                  0x1f\n                  lt\n                  tag_111\n                  jumpi\n                  0x0100\n                  dup1\n                  dup4\n                  sload\n                  div\n                  mul\n                  dup4\n                  mstore\n                  swap2\n                  0x20\n                  add\n                  swap2\n                  jump(tag_110)\n                tag_111:\n                  dup3\n                  add\n                  swap2\n                  swap1\n                  0x00\n                  mstore\n                  keccak256(0x00, 0x20)\n                  swap1\n                tag_112:\n                  dup2\n                  sload\n                  dup2\n                  mstore\n                  swap1\n                  0x01\n                  add\n                  swap1\n                  0x20\n                  add\n                  dup1\n                  dup4\n                  gt\n                  tag_112\n                  jumpi\n                  dup3\n                  swap1\n                  sub\n                  0x1f\n                  and\n                  dup3\n                  add\n                  swap2\n                tag_110:\n                  pop\n                  pop\n                  pop\n                  pop\n                  pop\n                  swap1\n                  pop\n                    /* \"@openzeppelin/contracts/token/ERC721/ERC721.sol\":2365:2454  function name() public view virtual returns (string memory) {... */\n                  swap1\n                  jump\t// out\n                    /* \"@openzeppelin/contracts/token/ERC721/ERC721.sol\":3497:3651  function getApproved(uint256 tokenId) public view virtual returns (address) {... */\n                tag_36:\n                    /* \"@openzeppelin/contracts/token/ERC721/ERC721.sol\":3564:3571  address */\n                  0x00\n                    /* \"@openzeppelin/contracts/token/ERC721/ERC721.sol\":3583:3605  _requireOwned(tokenId) */\n                  tag_114\n                    /* \"@openzeppelin/contracts/token/ERC721/ERC721.sol\":3597:3604  tokenId */\n                  dup3\n                    /* \"@openzeppelin/contracts/token/ERC721/ERC721.sol\":3583:3596  _requireOwned */\n                  tag_115\n                    /* \"@openzeppelin/contracts/token/ERC721/ERC721.sol\":3583:3605  _requireOwned(tokenId) */\n                  jump\t// in\n                tag_114:\n                  pop\n                    /* \"@openzeppelin/contracts/token/ERC721/ERC721.sol\":3623:3644  _getApproved(tokenId) */\n                  tag_104\n                    /* \"@openzeppelin/contracts/token/ERC721/ERC721.sol\":3636:3643  tokenId */\n                  dup3\n                    /* \"@openzeppelin/contracts/token/ERC721/ERC721.sol\":3623:3635  _getApproved */\n                  tag_117\n                    /* \"@openzeppelin/contracts/token/ERC721/ERC721.sol\":3623:3644  _getApproved(tokenId) */\n                  jump\t// in\n                    /* \"@openzeppelin/contracts/token/ERC721/ERC721.sol\":3323:3436  function approve(address to, uint256 tokenId) public virtual {... */\n                tag_42:\n                    /* \"@openzeppelin/contracts/token/ERC721/ERC721.sol\":3394:3429  _approve(to, tokenId, _msgSender()) */\n                  tag_119\n                    /* \"@openzeppelin/contracts/token/ERC721/ERC721.sol\":3403:3405  to */\n                  dup3\n                    /* \"@openzeppelin/contracts/token/ERC721/ERC721.sol\":3407:3414  tokenId */\n                  dup3\n                    /* \"@openzeppelin/contracts/utils/Context.sol\":735:745  msg.sender */\n                  caller\n                    /* \"@openzeppelin/contracts/token/ERC721/ERC721.sol\":3394:3402  _approve */\n                  tag_122\n                    /* \"@openzeppelin/contracts/token/ERC721/ERC721.sol\":3394:3429  _approve(to, tokenId, _msgSender()) */\n                  jump\t// in\n                tag_119:\n                    /* \"@openzeppelin/contracts/token/ERC721/ERC721.sol\":3323:3436  function approve(address to, uint256 tokenId) public virtual {... */\n                  pop\n                  pop\n                  jump\t// out\n                    /* \"@openzeppelin/contracts/token/ERC721/ERC721.sol\":4143:4721  function transferFrom(address from, address to, uint256 tokenId) public virtual {... */\n                tag_50:\n                  sub(shl(0xa0, 0x01), 0x01)\n                    /* \"@openzeppelin/contracts/token/ERC721/ERC721.sol\":4237:4253  to == address(0) */\n                  dup3\n                  and\n                    /* \"@openzeppelin/contracts/token/ERC721/ERC721.sol\":4233:4320  if (to == address(0)) {... */\n                  tag_125\n                  jumpi\n                    /* \"@openzeppelin/contracts/token/ERC721/ERC721.sol\":4306:4307  0 */\n                  0x00\n                    /* \"@openzeppelin/contracts/token/ERC721/ERC721.sol\":4276:4309  ERC721InvalidReceiver(address(0)) */\n                  mload(0x40)\n                  shl(0xe1, 0x32505749)\n                  dup2\n                  mstore\n                  0x04\n                  add\n                  tag_126\n                  swap2\n                  swap1\n                  tag_38\n                  jump\t// in\n                tag_126:\n                  mload(0x40)\n                  dup1\n                  swap2\n                  sub\n                  swap1\n                  revert\n                    /* \"@openzeppelin/contracts/token/ERC721/ERC721.sol\":4233:4320  if (to == address(0)) {... */\n                tag_125:\n                    /* \"@openzeppelin/contracts/token/ERC721/ERC721.sol\":4538:4559  address previousOwner */\n                  0x00\n                    /* \"@openzeppelin/contracts/token/ERC721/ERC721.sol\":4562:4596  _update(to, tokenId, _msgSender()) */\n                  tag_127\n                    /* \"@openzeppelin/contracts/token/ERC721/ERC721.sol\":4570:4572  to */\n                  dup4\n                    /* \"@openzeppelin/contracts/token/ERC721/ERC721.sol\":4574:4581  tokenId */\n                  dup4\n                    /* \"@openzeppelin/contracts/utils/Context.sol\":735:745  msg.sender */\n                  caller\n                    /* \"@openzeppelin/contracts/token/ERC721/ERC721.sol\":4562:4569  _update */\n                  tag_129\n                    /* \"@openzeppelin/contracts/token/ERC721/ERC721.sol\":4562:4596  _update(to, tokenId, _msgSender()) */\n                  jump\t// in\n                tag_127:\n                    /* \"@openzeppelin/contracts/token/ERC721/ERC721.sol\":4538:4596  address previousOwner = _update(to, tokenId, _msgSender()) */\n                  swap1\n                  pop\n                    /* \"@openzeppelin/contracts/token/ERC721/ERC721.sol\":4627:4631  from */\n                  dup4\n                  sub(shl(0xa0, 0x01), 0x01)\n                    /* \"@openzeppelin/contracts/token/ERC721/ERC721.sol\":4610:4631  previousOwner != from */\n                  and\n                    /* \"@openzeppelin/contracts/token/ERC721/ERC721.sol\":4610:4623  previousOwner */\n                  dup2\n                  sub(shl(0xa0, 0x01), 0x01)\n                    /* \"@openzeppelin/contracts/token/ERC721/ERC721.sol\":4610:4631  previousOwner != from */\n                  and\n                  eq\n                    /* \"@openzeppelin/contracts/token/ERC721/ERC721.sol\":4606:4715  if (previousOwner != from) {... */\n                  tag_130\n                  jumpi\n                    /* \"@openzeppelin/contracts/token/ERC721/ERC721.sol\":4654:4704  ERC721IncorrectOwner(from, tokenId, previousOwner) */\n                  mload(0x40)\n                  shl(0xe0, 0x64283d7b)\n                  dup2\n                  mstore\n                  sub(shl(0xa0, 0x01), 0x01)\n                    /* \"#utility.yul\":6112:6127   */\n                  dup1\n                  dup7\n                  and\n                    /* \"@openzeppelin/contracts/token/ERC721/ERC721.sol\":4654:4704  ERC721IncorrectOwner(from, tokenId, previousOwner) */\n                  0x04\n                  dup4\n                  add\n                    /* \"#utility.yul\":6094:6128   */\n                  mstore\n                    /* \"#utility.yul\":6144:6162   */\n                  0x24\n                  dup3\n                  add\n                    /* \"#utility.yul\":6137:6171   */\n                  dup5\n                  swap1\n                  mstore\n                    /* \"#utility.yul\":6207:6222   */\n                  dup3\n                  and\n                    /* \"#utility.yul\":6187:6205   */\n                  0x44\n                  dup3\n                  add\n                    /* \"#utility.yul\":6180:6223   */\n                  mstore\n                    /* \"#utility.yul\":6029:6047   */\n                  0x64\n                  add\n                    /* \"@openzeppelin/contracts/token/ERC721/ERC721.sol\":4654:4704  ERC721IncorrectOwner(from, tokenId, previousOwner) */\n                  tag_126\n                    /* \"#utility.yul\":5854:6229   */\n                  jump\n                    /* \"@openzeppelin/contracts/token/ERC721/ERC721.sol\":4606:4715  if (previousOwner != from) {... */\n                tag_130:\n                    /* \"@openzeppelin/contracts/token/ERC721/ERC721.sol\":4223:4721  {... */\n                  pop\n                    /* \"@openzeppelin/contracts/token/ERC721/ERC721.sol\":4143:4721  function transferFrom(address from, address to, uint256 tokenId) public virtual {... */\n                  pop\n                  pop\n                  pop\n                  jump\t// out\n                    /* \"@openzeppelin/contracts/token/ERC721/extensions/ERC721Enumerable.sol\":1736:1991  function tokenOfOwnerByIndex(address owner, uint256 index) public view virtual returns (uint256) {... */\n                tag_53:\n                    /* \"@openzeppelin/contracts/token/ERC721/extensions/ERC721Enumerable.sol\":1824:1831  uint256 */\n                  0x00\n                    /* \"@openzeppelin/contracts/token/ERC721/extensions/ERC721Enumerable.sol\":1856:1872  balanceOf(owner) */\n                  tag_134\n                    /* \"@openzeppelin/contracts/token/ERC721/extensions/ERC721Enumerable.sol\":1866:1871  owner */\n                  dup4\n                    /* \"@openzeppelin/contracts/token/ERC721/extensions/ERC721Enumerable.sol\":1856:1865  balanceOf */\n                  tag_69\n                    /* \"@openzeppelin/contracts/token/ERC721/extensions/ERC721Enumerable.sol\":1856:1872  balanceOf(owner) */\n                  jump\t// in\n                tag_134:\n                    /* \"@openzeppelin/contracts/token/ERC721/extensions/ERC721Enumerable.sol\":1847:1852  index */\n                  dup3\n                    /* \"@openzeppelin/contracts/token/ERC721/extensions/ERC721Enumerable.sol\":1847:1872  index >= balanceOf(owner) */\n                  lt\n                    /* \"@openzeppelin/contracts/token/ERC721/extensions/ERC721Enumerable.sol\":1843:1942  if (index >= balanceOf(owner)) {... */\n                  tag_135\n                  jumpi\n                    /* \"@openzeppelin/contracts/token/ERC721/extensions/ERC721Enumerable.sol\":1918:1923  owner */\n                  dup3\n                    /* \"@openzeppelin/contracts/token/ERC721/extensions/ERC721Enumerable.sol\":1925:1930  index */\n                  dup3\n                    /* \"@openzeppelin/contracts/token/ERC721/extensions/ERC721Enumerable.sol\":1895:1931  ERC721OutOfBoundsIndex(owner, index) */\n                  mload(0x40)\n                  shl(0xe2, 0x295f44f7)\n                  dup2\n                  mstore\n                  0x04\n                  add\n                  tag_126\n                  swap3\n                  swap2\n                  swap1\n                  tag_137\n                  jump\t// in\n                    /* \"@openzeppelin/contracts/token/ERC721/extensions/ERC721Enumerable.sol\":1843:1942  if (index >= balanceOf(owner)) {... */\n                tag_135:\n                  pop\n                  sub(shl(0xa0, 0x01), 0x01)\n                    /* \"@openzeppelin/contracts/token/ERC721/extensions/ERC721Enumerable.sol\":1958:1977  _ownedTokens[owner] */\n                  swap2\n                  swap1\n                  swap2\n                  and\n                  0x00\n                  swap1\n                  dup2\n                  mstore\n                    /* \"@openzeppelin/contracts/token/ERC721/extensions/ERC721Enumerable.sol\":1958:1970  _ownedTokens */\n                  0x06\n                    /* \"@openzeppelin/contracts/token/ERC721/extensions/ERC721Enumerable.sol\":1958:1977  _ownedTokens[owner] */\n                  0x20\n                  swap1\n                  dup2\n                  mstore\n                  0x40\n                  dup1\n                  dup4\n                  keccak256\n                    /* \"@openzeppelin/contracts/token/ERC721/extensions/ERC721Enumerable.sol\":1958:1984  _ownedTokens[owner][index] */\n                  swap4\n                  dup4\n                  mstore\n                  swap3\n                  swap1\n                  mstore\n                  keccak256\n                  sload\n                  swap1\n                    /* \"@openzeppelin/contracts/token/ERC721/extensions/ERC721Enumerable.sol\":1736:1991  function tokenOfOwnerByIndex(address owner, uint256 index) public view virtual returns (uint256) {... */\n                  jump\t// out\n                    /* \"@openzeppelin/contracts/token/ERC721/ERC721.sol\":4787:4919  function safeTransferFrom(address from, address to, uint256 tokenId) public {... */\n                tag_57:\n                    /* \"@openzeppelin/contracts/token/ERC721/ERC721.sol\":4873:4912  safeTransferFrom(from, to, tokenId, \"\") */\n                  tag_139\n                    /* \"@openzeppelin/contracts/token/ERC721/ERC721.sol\":4890:4894  from */\n                  dup4\n                    /* \"@openzeppelin/contracts/token/ERC721/ERC721.sol\":4896:4898  to */\n                  dup4\n                    /* \"@openzeppelin/contracts/token/ERC721/ERC721.sol\":4900:4907  tokenId */\n                  dup4\n                    /* \"@openzeppelin/contracts/token/ERC721/ERC721.sol\":4873:4912  safeTransferFrom(from, to, tokenId, \"\") */\n                  mload(0x40)\n                  dup1\n                  0x20\n                  add\n                  0x40\n                  mstore\n                  dup1\n                  0x00\n                  dup2\n                  mstore\n                  pop\n                    /* \"@openzeppelin/contracts/token/ERC721/ERC721.sol\":4873:4889  safeTransferFrom */\n                  tag_86\n                    /* \"@openzeppelin/contracts/token/ERC721/ERC721.sol\":4873:4912  safeTransferFrom(from, to, tokenId, \"\") */\n                  jump\t// in\n                tag_139:\n                    /* \"@openzeppelin/contracts/token/ERC721/ERC721.sol\":4787:4919  function safeTransferFrom(address from, address to, uint256 tokenId) public {... */\n                  pop\n                  pop\n                  pop\n                  jump\t// out\n                    /* \"@openzeppelin/contracts/token/ERC721/extensions/ERC721Enumerable.sol\":2236:2462  function tokenByIndex(uint256 index) public view virtual returns (uint256) {... */\n                tag_60:\n                    /* \"@openzeppelin/contracts/token/ERC721/extensions/ERC721Enumerable.sol\":2302:2309  uint256 */\n                  0x00\n                    /* \"@openzeppelin/contracts/token/ERC721/extensions/ERC721Enumerable.sol\":2334:2347  totalSupply() */\n                  tag_141\n                    /* \"@openzeppelin/contracts/token/ERC721/extensions/ERC721Enumerable.sol\":2140:2150  _allTokens */\n                  0x08\n                    /* \"@openzeppelin/contracts/token/ERC721/extensions/ERC721Enumerable.sol\":2140:2157  _allTokens.length */\n                  sload\n                  swap1\n                    /* \"@openzeppelin/contracts/token/ERC721/extensions/ERC721Enumerable.sol\":2062:2164  function totalSupply() public view virtual returns (uint256) {... */\n                  jump\n                    /* \"@openzeppelin/contracts/token/ERC721/extensions/ERC721Enumerable.sol\":2334:2347  totalSupply() */\n                tag_141:\n                    /* \"@openzeppelin/contracts/token/ERC721/extensions/ERC721Enumerable.sol\":2325:2330  index */\n                  dup3\n                    /* \"@openzeppelin/contracts/token/ERC721/extensions/ERC721Enumerable.sol\":2325:2347  index >= totalSupply() */\n                  lt\n                    /* \"@openzeppelin/contracts/token/ERC721/extensions/ERC721Enumerable.sol\":2321:2422  if (index >= totalSupply()) {... */\n                  tag_142\n                  jumpi\n                    /* \"@openzeppelin/contracts/token/ERC721/extensions/ERC721Enumerable.sol\":2401:2402  0 */\n                  0x00\n                    /* \"@openzeppelin/contracts/token/ERC721/extensions/ERC721Enumerable.sol\":2405:2410  index */\n                  dup3\n                    /* \"@openzeppelin/contracts/token/ERC721/extensions/ERC721Enumerable.sol\":2370:2411  ERC721OutOfBoundsIndex(address(0), index) */\n                  mload(0x40)\n                  shl(0xe2, 0x295f44f7)\n                  dup2\n                  mstore\n                  0x04\n                  add\n                  tag_126\n                  swap3\n                  swap2\n                  swap1\n                  tag_137\n                  jump\t// in\n                    /* \"@openzeppelin/contracts/token/ERC721/extensions/ERC721Enumerable.sol\":2321:2422  if (index >= totalSupply()) {... */\n                tag_142:\n                    /* \"@openzeppelin/contracts/token/ERC721/extensions/ERC721Enumerable.sol\":2438:2448  _allTokens */\n                  0x08\n                    /* \"@openzeppelin/contracts/token/ERC721/extensions/ERC721Enumerable.sol\":2449:2454  index */\n                  dup3\n                    /* \"@openzeppelin/contracts/token/ERC721/extensions/ERC721Enumerable.sol\":2438:2455  _allTokens[index] */\n                  dup2\n                  sload\n                  dup2\n                  lt\n                  tag_145\n                  jumpi\n                  tag_145\n                  tag_146\n                  jump\t// in\n                tag_145:\n                  swap1\n                  0x00\n                  mstore\n                  keccak256(0x00, 0x20)\n                  add\n                  sload\n                    /* \"@openzeppelin/contracts/token/ERC721/extensions/ERC721Enumerable.sol\":2431:2455  return _allTokens[index] */\n                  swap1\n                  pop\n                    /* \"@openzeppelin/contracts/token/ERC721/extensions/ERC721Enumerable.sol\":2236:2462  function tokenByIndex(uint256 index) public view virtual returns (uint256) {... */\n                  swap2\n                  swap1\n                  pop\n                  jump\t// out\n                    /* \"@openzeppelin/contracts/token/ERC721/ERC721.sol\":2185:2303  function ownerOf(uint256 tokenId) public view virtual returns (address) {... */\n                tag_64:\n                    /* \"@openzeppelin/contracts/token/ERC721/ERC721.sol\":2248:2255  address */\n                  0x00\n                    /* \"@openzeppelin/contracts/token/ERC721/ERC721.sol\":2274:2296  _requireOwned(tokenId) */\n                  tag_104\n                    /* \"@openzeppelin/contracts/token/ERC721/ERC721.sol\":2288:2295  tokenId */\n                  dup3\n                    /* \"@openzeppelin/contracts/token/ERC721/ERC721.sol\":2274:2287  _requireOwned */\n                  tag_115\n                    /* \"@openzeppelin/contracts/token/ERC721/ERC721.sol\":2274:2296  _requireOwned(tokenId) */\n                  jump\t// in\n                    /* \"@openzeppelin/contracts/token/ERC721/ERC721.sol\":1920:2128  function balanceOf(address owner) public view virtual returns (uint256) {... */\n                tag_69:\n                    /* \"@openzeppelin/contracts/token/ERC721/ERC721.sol\":1983:1990  uint256 */\n                  0x00\n                  sub(shl(0xa0, 0x01), 0x01)\n                    /* \"@openzeppelin/contracts/token/ERC721/ERC721.sol\":2006:2025  owner == address(0) */\n                  dup3\n                  and\n                    /* \"@openzeppelin/contracts/token/ERC721/ERC721.sol\":2002:2089  if (owner == address(0)) {... */\n                  tag_151\n                  jumpi\n                    /* \"@openzeppelin/contracts/token/ERC721/ERC721.sol\":2075:2076  0 */\n                  0x00\n                    /* \"@openzeppelin/contracts/token/ERC721/ERC721.sol\":2048:2078  ERC721InvalidOwner(address(0)) */\n                  mload(0x40)\n                  shl(0xe2, 0x22718ad9)\n                  dup2\n                  mstore\n                  0x04\n                  add\n                  tag_126\n                  swap2\n                  swap1\n                  tag_38\n                  jump\t// in\n                    /* \"@openzeppelin/contracts/token/ERC721/ERC721.sol\":2002:2089  if (owner == address(0)) {... */\n                tag_151:\n                  pop\n                  sub(shl(0xa0, 0x01), 0x01)\n                    /* \"@openzeppelin/contracts/token/ERC721/ERC721.sol\":2105:2121  _balances[owner] */\n                  and\n                  0x00\n                  swap1\n                  dup2\n                  mstore\n                    /* \"@openzeppelin/contracts/token/ERC721/ERC721.sol\":2105:2114  _balances */\n                  0x03\n                    /* \"@openzeppelin/contracts/token/ERC721/ERC721.sol\":2105:2121  _balances[owner] */\n                  0x20\n                  mstore\n                  0x40\n                  swap1\n                  keccak256\n                  sload\n                  swap1\n                    /* \"@openzeppelin/contracts/token/ERC721/ERC721.sol\":1920:2128  function balanceOf(address owner) public view virtual returns (uint256) {... */\n                  jump\t// out\n                    /* \"@openzeppelin/contracts/access/Ownable.sol\":2293:2394  function renounceOwnership() public virtual onlyOwner {... */\n                tag_72:\n                    /* \"@openzeppelin/contracts/access/Ownable.sol\":1531:1544  _checkOwner() */\n                  tag_154\n                    /* \"@openzeppelin/contracts/access/Ownable.sol\":1531:1542  _checkOwner */\n                  tag_155\n                    /* \"@openzeppelin/contracts/access/Ownable.sol\":1531:1544  _checkOwner() */\n                  jump\t// in\n                tag_154:\n                    /* \"@openzeppelin/contracts/access/Ownable.sol\":2357:2387  _transferOwnership(address(0)) */\n                  tag_157\n                    /* \"@openzeppelin/contracts/access/Ownable.sol\":2384:2385  0 */\n                  0x00\n                    /* \"@openzeppelin/contracts/access/Ownable.sol\":2357:2375  _transferOwnership */\n                  tag_158\n                    /* \"@openzeppelin/contracts/access/Ownable.sol\":2357:2387  _transferOwnership(address(0)) */\n                  jump\t// in\n                tag_157:\n                    /* \"@openzeppelin/contracts/access/Ownable.sol\":2293:2394  function renounceOwnership() public virtual onlyOwner {... */\n                  jump\t// out\n                    /* \"@openzeppelin/contracts/access/Ownable.sol\":1638:1723  function owner() public view virtual returns (address) {... */\n                tag_74:\n                    /* \"@openzeppelin/contracts/access/Ownable.sol\":1710:1716  _owner */\n                  and(sub(shl(0xa0, 0x01), 0x01), sload(0x0b))\n                  swap1\n                    /* \"@openzeppelin/contracts/access/Ownable.sol\":1638:1723  function owner() public view virtual returns (address) {... */\n                  jump\t// out\n                    /* \"@openzeppelin/contracts/token/ERC721/ERC721.sol\":2518:2611  function symbol() public view virtual returns (string memory) {... */\n                tag_77:\n                    /* \"@openzeppelin/contracts/token/ERC721/ERC721.sol\":2565:2578  string memory */\n                  0x60\n                    /* \"@openzeppelin/contracts/token/ERC721/ERC721.sol\":2597:2604  _symbol */\n                  0x01\n                    /* \"@openzeppelin/contracts/token/ERC721/ERC721.sol\":2590:2604  return _symbol */\n                  dup1\n                  sload\n                  tag_107\n                  swap1\n                  tag_108\n                  jump\t// in\n                    /* \"@openzeppelin/contracts/token/ERC721/ERC721.sol\":3718:3862  function setApprovalForAll(address operator, bool approved) public virtual {... */\n                tag_82:\n                    /* \"@openzeppelin/contracts/token/ERC721/ERC721.sol\":3803:3855  _setApprovalForAll(_msgSender(), operator, approved) */\n                  tag_119\n                    /* \"@openzeppelin/contracts/utils/Context.sol\":735:745  msg.sender */\n                  caller\n                    /* \"@openzeppelin/contracts/token/ERC721/ERC721.sol\":3836:3844  operator */\n                  dup4\n                    /* \"@openzeppelin/contracts/token/ERC721/ERC721.sol\":3846:3854  approved */\n                  dup4\n                    /* \"@openzeppelin/contracts/token/ERC721/ERC721.sol\":3803:3821  _setApprovalForAll */\n                  tag_169\n                    /* \"@openzeppelin/contracts/token/ERC721/ERC721.sol\":3803:3855  _setApprovalForAll(_msgSender(), operator, approved) */\n                  jump\t// in\n                    /* \"@openzeppelin/contracts/token/ERC721/ERC721.sol\":4985:5193  function safeTransferFrom(address from, address to, uint256 tokenId, bytes memory data) public virtual {... */\n                tag_86:\n                    /* \"@openzeppelin/contracts/token/ERC721/ERC721.sol\":5098:5129  transferFrom(from, to, tokenId) */\n                  tag_171\n                    /* \"@openzeppelin/contracts/token/ERC721/ERC721.sol\":5111:5115  from */\n                  dup5\n                    /* \"@openzeppelin/contracts/token/ERC721/ERC721.sol\":5117:5119  to */\n                  dup5\n                    /* \"@openzeppelin/contracts/token/ERC721/ERC721.sol\":5121:5128  tokenId */\n                  dup5\n                    /* \"@openzeppelin/contracts/token/ERC721/ERC721.sol\":5098:5110  transferFrom */\n                  tag_50\n                    /* \"@openzeppelin/contracts/token/ERC721/ERC721.sol\":5098:5129  transferFrom(from, to, tokenId) */\n                  jump\t// in\n                tag_171:\n                    /* \"@openzeppelin/contracts/token/ERC721/ERC721.sol\":5139:5186  _checkOnERC721Received(from, to, tokenId, data) */\n                  tag_130\n                    /* \"@openzeppelin/contracts/token/ERC721/ERC721.sol\":5162:5166  from */\n                  dup5\n                    /* \"@openzeppelin/contracts/token/ERC721/ERC721.sol\":5168:5170  to */\n                  dup5\n                    /* \"@openzeppelin/contracts/token/ERC721/ERC721.sol\":5172:5179  tokenId */\n                  dup5\n                    /* \"@openzeppelin/contracts/token/ERC721/ERC721.sol\":5181:5185  data */\n                  dup5\n                    /* \"@openzeppelin/contracts/token/ERC721/ERC721.sol\":5139:5161  _checkOnERC721Received */\n                  tag_173\n                    /* \"@openzeppelin/contracts/token/ERC721/ERC721.sol\":5139:5186  _checkOnERC721Received(from, to, tokenId, data) */\n                  jump\t// in\n                    /* \"ProjectNFT.sol\":1268:1435  function tokenURI(... */\n                tag_89:\n                    /* \"ProjectNFT.sol\":1373:1386  string memory */\n                  0x60\n                    /* \"ProjectNFT.sol\":1405:1428  super.tokenURI(tokenId) */\n                  tag_104\n                    /* \"ProjectNFT.sol\":1420:1427  tokenId */\n                  dup3\n                    /* \"ProjectNFT.sol\":1405:1419  super.tokenURI */\n                  tag_176\n                    /* \"ProjectNFT.sol\":1405:1428  super.tokenURI(tokenId) */\n                  jump\t// in\n                    /* \"ProjectNFT.sol\":612:795  function safeMint(address to, string memory uri) public onlyOwner {... */\n                tag_94:\n                    /* \"@openzeppelin/contracts/access/Ownable.sol\":1531:1544  _checkOwner() */\n                  tag_178\n                    /* \"@openzeppelin/contracts/access/Ownable.sol\":1531:1542  _checkOwner */\n                  tag_155\n                    /* \"@openzeppelin/contracts/access/Ownable.sol\":1531:1544  _checkOwner() */\n                  jump\t// in\n                tag_178:\n                    /* \"ProjectNFT.sol\":706:718  _nextTokenId */\n                  0x0c\n                    /* \"ProjectNFT.sol\":706:720  _nextTokenId++ */\n                  dup1\n                  sload\n                    /* \"ProjectNFT.sol\":688:703  uint256 tokenId */\n                  0x00\n                  swap2\n                  dup3\n                    /* \"ProjectNFT.sol\":706:720  _nextTokenId++ */\n                  tag_180\n                  dup4\n                  tag_181\n                  jump\t// in\n                tag_180:\n                  swap2\n                  swap1\n                  pop\n                  sstore\n                    /* \"ProjectNFT.sol\":688:720  uint256 tokenId = _nextTokenId++ */\n                  swap1\n                  pop\n                    /* \"ProjectNFT.sol\":730:752  _safeMint(to, tokenId) */\n                  tag_182\n                    /* \"ProjectNFT.sol\":740:742  to */\n                  dup4\n                    /* \"ProjectNFT.sol\":744:751  tokenId */\n                  dup3\n                    /* \"ProjectNFT.sol\":730:739  _safeMint */\n                  tag_183\n                    /* \"ProjectNFT.sol\":730:752  _safeMint(to, tokenId) */\n                  jump\t// in\n                tag_182:\n                    /* \"ProjectNFT.sol\":762:788  _setTokenURI(tokenId, uri) */\n                  tag_139\n                    /* \"ProjectNFT.sol\":775:782  tokenId */\n                  dup2\n                    /* \"ProjectNFT.sol\":784:787  uri */\n                  dup4\n                    /* \"ProjectNFT.sol\":762:774  _setTokenURI */\n                  tag_185\n                    /* \"ProjectNFT.sol\":762:788  _setTokenURI(tokenId, uri) */\n                  jump\t// in\n                    /* \"@openzeppelin/contracts/token/ERC721/ERC721.sol\":3928:4081  function isApprovedForAll(address owner, address operator) public view virtual returns (bool) {... */\n                tag_98:\n                  sub(shl(0xa0, 0x01), 0x01)\n                    /* \"@openzeppelin/contracts/token/ERC721/ERC721.sol\":4039:4064  _operatorApprovals[owner] */\n                  swap2\n                  dup3\n                  and\n                    /* \"@openzeppelin/contracts/token/ERC721/ERC721.sol\":4016:4020  bool */\n                  0x00\n                    /* \"@openzeppelin/contracts/token/ERC721/ERC721.sol\":4039:4064  _operatorApprovals[owner] */\n                  swap1\n                  dup2\n                  mstore\n                    /* \"@openzeppelin/contracts/token/ERC721/ERC721.sol\":4039:4057  _operatorApprovals */\n                  0x05\n                    /* \"@openzeppelin/contracts/token/ERC721/ERC721.sol\":4039:4064  _operatorApprovals[owner] */\n                  0x20\n                  swap1\n                  dup2\n                  mstore\n                  0x40\n                  dup1\n                  dup4\n                  keccak256\n                    /* \"@openzeppelin/contracts/token/ERC721/ERC721.sol\":4039:4074  _operatorApprovals[owner][operator] */\n                  swap4\n                  swap1\n                  swap5\n                  and\n                  dup3\n                  mstore\n                  swap2\n                  swap1\n                  swap2\n                  mstore\n                  keccak256\n                  sload\n                  0xff\n                  and\n                  swap1\n                    /* \"@openzeppelin/contracts/token/ERC721/ERC721.sol\":3928:4081  function isApprovedForAll(address owner, address operator) public view virtual returns (bool) {... */\n                  jump\t// out\n                    /* \"@openzeppelin/contracts/access/Ownable.sol\":2543:2758  function transferOwnership(address newOwner) public virtual onlyOwner {... */\n                tag_102:\n                    /* \"@openzeppelin/contracts/access/Ownable.sol\":1531:1544  _checkOwner() */\n                  tag_188\n                    /* \"@openzeppelin/contracts/access/Ownable.sol\":1531:1542  _checkOwner */\n                  tag_155\n                    /* \"@openzeppelin/contracts/access/Ownable.sol\":1531:1544  _checkOwner() */\n                  jump\t// in\n                tag_188:\n                  sub(shl(0xa0, 0x01), 0x01)\n                    /* \"@openzeppelin/contracts/access/Ownable.sol\":2627:2649  newOwner == address(0) */\n                  dup2\n                  and\n                    /* \"@openzeppelin/contracts/access/Ownable.sol\":2623:2714  if (newOwner == address(0)) {... */\n                  tag_190\n                  jumpi\n                    /* \"@openzeppelin/contracts/access/Ownable.sol\":2700:2701  0 */\n                  0x00\n                    /* \"@openzeppelin/contracts/access/Ownable.sol\":2672:2703  OwnableInvalidOwner(address(0)) */\n                  mload(0x40)\n                  shl(0xe0, 0x1e4fbdf7)\n                  dup2\n                  mstore\n                  0x04\n                  add\n                  tag_126\n                  swap2\n                  swap1\n                  tag_38\n                  jump\t// in\n                    /* \"@openzeppelin/contracts/access/Ownable.sol\":2623:2714  if (newOwner == address(0)) {... */\n                tag_190:\n                    /* \"@openzeppelin/contracts/access/Ownable.sol\":2723:2751  _transferOwnership(newOwner) */\n                  tag_192\n                    /* \"@openzeppelin/contracts/access/Ownable.sol\":2742:2750  newOwner */\n                  dup2\n                    /* \"@openzeppelin/contracts/access/Ownable.sol\":2723:2741  _transferOwnership */\n                  tag_158\n                    /* \"@openzeppelin/contracts/access/Ownable.sol\":2723:2751  _transferOwnership(newOwner) */\n                  jump\t// in\n                tag_192:\n                    /* \"@openzeppelin/contracts/access/Ownable.sol\":2543:2758  function transferOwnership(address newOwner) public virtual onlyOwner {... */\n                  pop\n                  jump\t// out\n                    /* \"@openzeppelin/contracts/token/ERC721/extensions/ERC721URIStorage.sol\":937:1144  function supportsInterface(bytes4 interfaceId) public view virtual override(ERC721, IERC165) returns (bool) {... */\n                tag_105:\n                    /* \"@openzeppelin/contracts/token/ERC721/extensions/ERC721URIStorage.sol\":1039:1043  bool */\n                  0x00\n                  not(sub(shl(0xe0, 0x01), 0x01))\n                    /* \"@openzeppelin/contracts/token/ERC721/extensions/ERC721URIStorage.sol\":1062:1097  interfaceId == ERC4906_INTERFACE_ID */\n                  dup3\n                  and\n                  shl(0xe1, 0x24832483)\n                  eq\n                  dup1\n                    /* \"@openzeppelin/contracts/token/ERC721/extensions/ERC721URIStorage.sol\":1062:1137  interfaceId == ERC4906_INTERFACE_ID || super.supportsInterface(interfaceId) */\n                  tag_104\n                  jumpi\n                  pop\n                    /* \"@openzeppelin/contracts/token/ERC721/extensions/ERC721URIStorage.sol\":1101:1137  super.supportsInterface(interfaceId) */\n                  tag_104\n                    /* \"@openzeppelin/contracts/token/ERC721/extensions/ERC721URIStorage.sol\":1125:1136  interfaceId */\n                  dup3\n                    /* \"@openzeppelin/contracts/token/ERC721/extensions/ERC721URIStorage.sol\":1101:1124  super.supportsInterface */\n                  tag_196\n                    /* \"@openzeppelin/contracts/token/ERC721/extensions/ERC721URIStorage.sol\":1101:1137  super.supportsInterface(interfaceId) */\n                  jump\t// in\n                    /* \"@openzeppelin/contracts/token/ERC721/ERC721.sol\":16138:16379  function _requireOwned(uint256 tokenId) internal view returns (address) {... */\n                tag_115:\n                    /* \"@openzeppelin/contracts/token/ERC721/ERC721.sol\":16201:16208  address */\n                  0x00\n                    /* \"@openzeppelin/contracts/token/ERC721/ERC721.sol\":16220:16233  address owner */\n                  dup1\n                    /* \"@openzeppelin/contracts/token/ERC721/ERC721.sol\":16236:16253  _ownerOf(tokenId) */\n                  tag_198\n                    /* \"@openzeppelin/contracts/token/ERC721/ERC721.sol\":16245:16252  tokenId */\n                  dup4\n                    /* \"@openzeppelin/contracts/token/ERC721/ERC721.sol\":16236:16244  _ownerOf */\n                  tag_199\n                    /* \"@openzeppelin/contracts/token/ERC721/ERC721.sol\":16236:16253  _ownerOf(tokenId) */\n                  jump\t// in\n                tag_198:\n                    /* \"@openzeppelin/contracts/token/ERC721/ERC721.sol\":16220:16253  address owner = _ownerOf(tokenId) */\n                  swap1\n                  pop\n                  sub(shl(0xa0, 0x01), 0x01)\n                    /* \"@openzeppelin/contracts/token/ERC721/ERC721.sol\":16267:16286  owner == address(0) */\n                  dup2\n                  and\n                    /* \"@openzeppelin/contracts/token/ERC721/ERC721.sol\":16263:16351  if (owner == address(0)) {... */\n                  tag_104\n                  jumpi\n                    /* \"@openzeppelin/contracts/token/ERC721/ERC721.sol\":16309:16340  ERC721NonexistentToken(tokenId) */\n                  mload(0x40)\n                  shl(0xe0, 0x7e273289)\n                  dup2\n                  mstore\n                  0x04\n                  dup2\n                  add\n                    /* \"#utility.yul\":2324:2349   */\n                  dup5\n                  swap1\n                  mstore\n                    /* \"#utility.yul\":2297:2315   */\n                  0x24\n                  add\n                    /* \"@openzeppelin/contracts/token/ERC721/ERC721.sol\":16309:16340  ERC721NonexistentToken(tokenId) */\n                  tag_126\n                    /* \"#utility.yul\":2178:2355   */\n                  jump\n                    /* \"@openzeppelin/contracts/token/ERC721/ERC721.sol\":5938:6065  function _getApproved(uint256 tokenId) internal view virtual returns (address) {... */\n                tag_117:\n                    /* \"@openzeppelin/contracts/token/ERC721/ERC721.sol\":6008:6015  address */\n                  0x00\n                    /* \"@openzeppelin/contracts/token/ERC721/ERC721.sol\":6034:6058  _tokenApprovals[tokenId] */\n                  swap1\n                  dup2\n                  mstore\n                    /* \"@openzeppelin/contracts/token/ERC721/ERC721.sol\":6034:6049  _tokenApprovals */\n                  0x04\n                    /* \"@openzeppelin/contracts/token/ERC721/ERC721.sol\":6034:6058  _tokenApprovals[tokenId] */\n                  0x20\n                  mstore\n                  0x40\n                  swap1\n                  keccak256\n                  sload\n                  sub(shl(0xa0, 0x01), 0x01)\n                  and\n                  swap1\n                    /* \"@openzeppelin/contracts/token/ERC721/ERC721.sol\":5938:6065  function _getApproved(uint256 tokenId) internal view virtual returns (address) {... */\n                  jump\t// out\n                    /* \"@openzeppelin/contracts/token/ERC721/ERC721.sol\":14418:14538  function _approve(address to, uint256 tokenId, address auth) internal {... */\n                tag_122:\n                    /* \"@openzeppelin/contracts/token/ERC721/ERC721.sol\":14498:14531  _approve(to, tokenId, auth, true) */\n                  tag_139\n                    /* \"@openzeppelin/contracts/token/ERC721/ERC721.sol\":14507:14509  to */\n                  dup4\n                    /* \"@openzeppelin/contracts/token/ERC721/ERC721.sol\":14511:14518  tokenId */\n                  dup4\n                    /* \"@openzeppelin/contracts/token/ERC721/ERC721.sol\":14520:14524  auth */\n                  dup4\n                    /* \"@openzeppelin/contracts/token/ERC721/ERC721.sol\":14526:14530  true */\n                  0x01\n                    /* \"@openzeppelin/contracts/token/ERC721/ERC721.sol\":14498:14506  _approve */\n                  tag_206\n                    /* \"@openzeppelin/contracts/token/ERC721/ERC721.sol\":14498:14531  _approve(to, tokenId, auth, true) */\n                  jump\t// in\n                    /* \"ProjectNFT.sol\":869:1077  function _update(... */\n                tag_129:\n                    /* \"ProjectNFT.sol\":1012:1019  address */\n                  0x00\n                    /* \"ProjectNFT.sol\":1038:1070  super._update(to, tokenId, auth) */\n                  tag_208\n                    /* \"ProjectNFT.sol\":1052:1054  to */\n                  dup5\n                    /* \"ProjectNFT.sol\":1056:1063  tokenId */\n                  dup5\n                    /* \"ProjectNFT.sol\":1065:1069  auth */\n                  dup5\n                    /* \"ProjectNFT.sol\":1038:1051  super._update */\n                  tag_209\n                    /* \"ProjectNFT.sol\":1038:1070  super._update(to, tokenId, auth) */\n                  jump\t// in\n                tag_208:\n                    /* \"ProjectNFT.sol\":1031:1070  return super._update(to, tokenId, auth) */\n                  swap5\n                    /* \"ProjectNFT.sol\":869:1077  function _update(... */\n                  swap4\n                  pop\n                  pop\n                  pop\n                  pop\n                  jump\t// out\n                    /* \"@openzeppelin/contracts/access/Ownable.sol\":1796:1958  function _checkOwner() internal view virtual {... */\n                tag_155:\n                    /* \"@openzeppelin/contracts/utils/Context.sol\":735:745  msg.sender */\n                  caller\n                    /* \"@openzeppelin/contracts/access/Ownable.sol\":1855:1862  owner() */\n                  tag_212\n                    /* \"@openzeppelin/contracts/access/Ownable.sol\":1855:1860  owner */\n                  tag_74\n                    /* \"@openzeppelin/contracts/access/Ownable.sol\":1855:1862  owner() */\n                  jump\t// in\n                tag_212:\n                  sub(shl(0xa0, 0x01), 0x01)\n                    /* \"@openzeppelin/contracts/access/Ownable.sol\":1855:1878  owner() != _msgSender() */\n                  and\n                  eq\n                    /* \"@openzeppelin/contracts/access/Ownable.sol\":1851:1952  if (owner() != _msgSender()) {... */\n                  tag_157\n                  jumpi\n                    /* \"@openzeppelin/contracts/utils/Context.sol\":735:745  msg.sender */\n                  caller\n                    /* \"@openzeppelin/contracts/access/Ownable.sol\":1901:1941  OwnableUnauthorizedAccount(_msgSender()) */\n                  mload(0x40)\n                  shl(0xe0, 0x118cdaa7)\n                  dup2\n                  mstore\n                  0x04\n                  add\n                  tag_126\n                  swap2\n                  swap1\n                  tag_38\n                  jump\t// in\n                    /* \"@openzeppelin/contracts/access/Ownable.sol\":2912:3099  function _transferOwnership(address newOwner) internal virtual {... */\n                tag_158:\n                    /* \"@openzeppelin/contracts/access/Ownable.sol\":3004:3010  _owner */\n                  0x0b\n                  dup1\n                  sload\n                  sub(shl(0xa0, 0x01), 0x01)\n                    /* \"@openzeppelin/contracts/access/Ownable.sol\":3020:3037  _owner = newOwner */\n                  dup4\n                  dup2\n                  and\n                  not(sub(shl(0xa0, 0x01), 0x01))\n                  dup4\n                  and\n                  dup2\n                  or\n                  swap1\n                  swap4\n                  sstore\n                    /* \"@openzeppelin/contracts/access/Ownable.sol\":3052:3092  OwnershipTransferred(oldOwner, newOwner) */\n                  mload(0x40)\n                    /* \"@openzeppelin/contracts/access/Ownable.sol\":3004:3010  _owner */\n                  swap2\n                  and\n                  swap2\n                    /* \"@openzeppelin/contracts/access/Ownable.sol\":3020:3037  _owner = newOwner */\n                  swap1\n                    /* \"@openzeppelin/contracts/access/Ownable.sol\":3004:3010  _owner */\n                  dup3\n                  swap1\n                    /* \"@openzeppelin/contracts/access/Ownable.sol\":3052:3092  OwnershipTransferred(oldOwner, newOwner) */\n                  0x8be0079c531659141344cd1fd0a4f28419497f9722a3daafe3b4186f6b6457e0\n                  swap1\n                    /* \"@openzeppelin/contracts/access/Ownable.sol\":2985:3001  address oldOwner */\n                  0x00\n                  swap1\n                    /* \"@openzeppelin/contracts/access/Ownable.sol\":3052:3092  OwnershipTransferred(oldOwner, newOwner) */\n                  log3\n                    /* \"@openzeppelin/contracts/access/Ownable.sol\":2975:3099  {... */\n                  pop\n                    /* \"@openzeppelin/contracts/access/Ownable.sol\":2912:3099  function _transferOwnership(address newOwner) internal virtual {... */\n                  pop\n                  jump\t// out\n                    /* \"@openzeppelin/contracts/token/ERC721/ERC721.sol\":15591:15903  function _setApprovalForAll(address owner, address operator, bool approved) internal virtual {... */\n                tag_169:\n                  sub(shl(0xa0, 0x01), 0x01)\n                    /* \"@openzeppelin/contracts/token/ERC721/ERC721.sol\":15698:15720  operator == address(0) */\n                  dup3\n                  and\n                    /* \"@openzeppelin/contracts/token/ERC721/ERC721.sol\":15694:15785  if (operator == address(0)) {... */\n                  tag_218\n                  jumpi\n                    /* \"@openzeppelin/contracts/token/ERC721/ERC721.sol\":15765:15773  operator */\n                  dup2\n                    /* \"@openzeppelin/contracts/token/ERC721/ERC721.sol\":15743:15774  ERC721InvalidOperator(operator) */\n                  mload(0x40)\n                  shl(0xe3, 0x0b611743)\n                  dup2\n                  mstore\n                  0x04\n                  add\n                  tag_126\n                  swap2\n                  swap1\n                  tag_38\n                  jump\t// in\n                    /* \"@openzeppelin/contracts/token/ERC721/ERC721.sol\":15694:15785  if (operator == address(0)) {... */\n                tag_218:\n                  sub(shl(0xa0, 0x01), 0x01)\n                    /* \"@openzeppelin/contracts/token/ERC721/ERC721.sol\":15794:15819  _operatorApprovals[owner] */\n                  dup4\n                  dup2\n                  and\n                  0x00\n                  dup2\n                  dup2\n                  mstore\n                    /* \"@openzeppelin/contracts/token/ERC721/ERC721.sol\":15794:15812  _operatorApprovals */\n                  0x05\n                    /* \"@openzeppelin/contracts/token/ERC721/ERC721.sol\":15794:15819  _operatorApprovals[owner] */\n                  0x20\n                  swap1\n                  dup2\n                  mstore\n                  0x40\n                  dup1\n                  dup4\n                  keccak256\n                    /* \"@openzeppelin/contracts/token/ERC721/ERC721.sol\":15794:15829  _operatorApprovals[owner][operator] */\n                  swap5\n                  dup8\n                  and\n                  dup1\n                  dup5\n                  mstore\n                  swap5\n                  dup3\n                  mstore\n                  swap2\n                  dup3\n                  swap1\n                  keccak256\n                    /* \"@openzeppelin/contracts/token/ERC721/ERC721.sol\":15794:15840  _operatorApprovals[owner][operator] = approved */\n                  dup1\n                  sload\n                  not(0xff)\n                  and\n                  dup7\n                  iszero\n                  iszero\n                  swap1\n                  dup2\n                  or\n                  swap1\n                  swap2\n                  sstore\n                    /* \"@openzeppelin/contracts/token/ERC721/ERC721.sol\":15855:15896  ApprovalForAll(owner, operator, approved) */\n                  swap2\n                  mload\n                    /* \"#utility.yul\":540:581   */\n                  swap2\n                  dup3\n                  mstore\n                    /* \"@openzeppelin/contracts/token/ERC721/ERC721.sol\":15855:15896  ApprovalForAll(owner, operator, approved) */\n                  0x17307eab39ab6107e8899845ad3d59bd9653f200f220920489ca2b5937696c31\n                  swap2\n                    /* \"#utility.yul\":513:531   */\n                  add\n                    /* \"@openzeppelin/contracts/token/ERC721/ERC721.sol\":15855:15896  ApprovalForAll(owner, operator, approved) */\n                  mload(0x40)\n                  dup1\n                  swap2\n                  sub\n                  swap1\n                  log3\n                    /* \"@openzeppelin/contracts/token/ERC721/ERC721.sol\":15591:15903  function _setApprovalForAll(address owner, address operator, bool approved) internal virtual {... */\n                  pop\n                  pop\n                  pop\n                  jump\t// out\n                    /* \"@openzeppelin/contracts/token/ERC721/ERC721.sol\":16918:17700  function _checkOnERC721Received(address from, address to, uint256 tokenId, bytes memory data) private {... */\n                tag_173:\n                  sub(shl(0xa0, 0x01), 0x01)\n                    /* \"@openzeppelin/contracts/token/ERC721/ERC721.sol\":17034:17048  to.code.length */\n                  dup4\n                  and\n                  extcodesize\n                    /* \"@openzeppelin/contracts/token/ERC721/ERC721.sol\":17034:17052  to.code.length > 0 */\n                  iszero\n                    /* \"@openzeppelin/contracts/token/ERC721/ERC721.sol\":17030:17694  if (to.code.length > 0) {... */\n                  tag_130\n                  jumpi\n                    /* \"@openzeppelin/contracts/token/ERC721/ERC721.sol\":17072:17143  IERC721Receiver(to).onERC721Received(_msgSender(), from, tokenId, data) */\n                  mload(0x40)\n                  shl(0xe1, 0x0a85bd01)\n                  dup2\n                  mstore\n                  sub(shl(0xa0, 0x01), 0x01)\n                    /* \"@openzeppelin/contracts/token/ERC721/ERC721.sol\":17072:17108  IERC721Receiver(to).onERC721Received */\n                  dup5\n                  and\n                  swap1\n                  0x150b7a02\n                  swap1\n                    /* \"@openzeppelin/contracts/token/ERC721/ERC721.sol\":17072:17143  IERC721Receiver(to).onERC721Received(_msgSender(), from, tokenId, data) */\n                  tag_224\n                  swap1\n                    /* \"@openzeppelin/contracts/utils/Context.sol\":735:745  msg.sender */\n                  caller\n                  swap1\n                    /* \"@openzeppelin/contracts/token/ERC721/ERC721.sol\":17123:17127  from */\n                  dup9\n                  swap1\n                    /* \"@openzeppelin/contracts/token/ERC721/ERC721.sol\":17129:17136  tokenId */\n                  dup8\n                  swap1\n                    /* \"@openzeppelin/contracts/token/ERC721/ERC721.sol\":17138:17142  data */\n                  dup8\n                  swap1\n                    /* \"@openzeppelin/contracts/token/ERC721/ERC721.sol\":17072:17143  IERC721Receiver(to).onERC721Received(_msgSender(), from, tokenId, data) */\n                  0x04\n                  add\n                  tag_225\n                  jump\t// in\n                tag_224:\n                  0x20\n                  mload(0x40)\n                  dup1\n                  dup4\n                  sub\n                  dup2\n                  0x00\n                  dup8\n                  gas\n                  call\n                  swap3\n                  pop\n                  pop\n                  pop\n                  dup1\n                  iszero\n                  tag_226\n                  jumpi\n                  pop\n                  0x40\n                  dup1\n                  mload\n                  0x1f\n                  returndatasize\n                  swap1\n                  dup2\n                  add\n                  not(0x1f)\n                  and\n                  dup3\n                  add\n                  swap1\n                  swap3\n                  mstore\n                  tag_227\n                  swap2\n                  dup2\n                  add\n                  swap1\n                  tag_228\n                  jump\t// in\n                tag_227:\n                  0x01\n                tag_226:\n                    /* \"@openzeppelin/contracts/token/ERC721/ERC721.sol\":17068:17684  try IERC721Receiver(to).onERC721Received(_msgSender(), from, tokenId, data) returns (bytes4 retval) {... */\n                  tag_229\n                  jumpi\n                  returndatasize\n                  dup1\n                  dup1\n                  iszero\n                  tag_234\n                  jumpi\n                  mload(0x40)\n                  swap2\n                  pop\n                  and(add(returndatasize, 0x3f), not(0x1f))\n                  dup3\n                  add\n                  0x40\n                  mstore\n                  returndatasize\n                  dup3\n                  mstore\n                  returndatasize\n                  0x00\n                  0x20\n                  dup5\n                  add\n                  returndatacopy\n                  jump(tag_233)\n                tag_234:\n                  0x60\n                  swap2\n                  pop\n                tag_233:\n                  pop\n                    /* \"@openzeppelin/contracts/token/ERC721/ERC721.sol\":17381:17387  reason */\n                  dup1\n                    /* \"@openzeppelin/contracts/token/ERC721/ERC721.sol\":17381:17394  reason.length */\n                  mload\n                    /* \"@openzeppelin/contracts/token/ERC721/ERC721.sol\":17398:17399  0 */\n                  0x00\n                    /* \"@openzeppelin/contracts/token/ERC721/ERC721.sol\":17381:17399  reason.length == 0 */\n                  sub\n                    /* \"@openzeppelin/contracts/token/ERC721/ERC721.sol\":17377:17670  if (reason.length == 0) {... */\n                  tag_235\n                  jumpi\n                    /* \"@openzeppelin/contracts/token/ERC721/ERC721.sol\":17452:17454  to */\n                  dup4\n                    /* \"@openzeppelin/contracts/token/ERC721/ERC721.sol\":17430:17455  ERC721InvalidReceiver(to) */\n                  mload(0x40)\n                  shl(0xe1, 0x32505749)\n                  dup2\n                  mstore\n                  0x04\n                  add\n                  tag_126\n                  swap2\n                  swap1\n                  tag_38\n                  jump\t// in\n                    /* \"@openzeppelin/contracts/token/ERC721/ERC721.sol\":17377:17670  if (reason.length == 0) {... */\n                tag_235:\n                    /* \"@openzeppelin/contracts/token/ERC721/ERC721.sol\":17622:17628  reason */\n                  dup1\n                    /* \"@openzeppelin/contracts/token/ERC721/ERC721.sol\":17616:17629  mload(reason) */\n                  mload\n                    /* \"@openzeppelin/contracts/token/ERC721/ERC721.sol\":17607:17613  reason */\n                  dup2\n                    /* \"@openzeppelin/contracts/token/ERC721/ERC721.sol\":17603:17605  32 */\n                  0x20\n                    /* \"@openzeppelin/contracts/token/ERC721/ERC721.sol\":17599:17614  add(32, reason) */\n                  add\n                    /* \"@openzeppelin/contracts/token/ERC721/ERC721.sol\":17592:17630  revert(add(32, reason), mload(reason)) */\n                  revert\n                    /* \"@openzeppelin/contracts/token/ERC721/ERC721.sol\":17068:17684  try IERC721Receiver(to).onERC721Received(_msgSender(), from, tokenId, data) returns (bytes4 retval) {... */\n                tag_229:\n                  not(sub(shl(0xe0, 0x01), 0x01))\n                    /* \"@openzeppelin/contracts/token/ERC721/ERC721.sol\":17190:17241  retval != IERC721Receiver.onERC721Received.selector */\n                  dup2\n                  and\n                  shl(0xe1, 0x0a85bd01)\n                  eq\n                    /* \"@openzeppelin/contracts/token/ERC721/ERC721.sol\":17186:17316  if (retval != IERC721Receiver.onERC721Received.selector) {... */\n                  tag_239\n                  jumpi\n                    /* \"@openzeppelin/contracts/token/ERC721/ERC721.sol\":17294:17296  to */\n                  dup4\n                    /* \"@openzeppelin/contracts/token/ERC721/ERC721.sol\":17272:17297  ERC721InvalidReceiver(to) */\n                  mload(0x40)\n                  shl(0xe1, 0x32505749)\n                  dup2\n                  mstore\n                  0x04\n                  add\n                  tag_126\n                  swap2\n                  swap1\n                  tag_38\n                  jump\t// in\n                    /* \"@openzeppelin/contracts/token/ERC721/ERC721.sol\":17186:17316  if (retval != IERC721Receiver.onERC721Received.selector) {... */\n                tag_239:\n                    /* \"@openzeppelin/contracts/token/ERC721/ERC721.sol\":17144:17330  returns (bytes4 retval) {... */\n                  pop\n                    /* \"@openzeppelin/contracts/token/ERC721/ERC721.sol\":16918:17700  function _checkOnERC721Received(address from, address to, uint256 tokenId, bytes memory data) private {... */\n                  pop\n                  pop\n                  pop\n                  pop\n                  jump\t// out\n                    /* \"@openzeppelin/contracts/token/ERC721/extensions/ERC721URIStorage.sol\":1210:1803  function tokenURI(uint256 tokenId) public view virtual override returns (string memory) {... */\n                tag_176:\n                    /* \"@openzeppelin/contracts/token/ERC721/extensions/ERC721URIStorage.sol\":1283:1296  string memory */\n                  0x60\n                    /* \"@openzeppelin/contracts/token/ERC721/extensions/ERC721URIStorage.sol\":1308:1330  _requireOwned(tokenId) */\n                  tag_242\n                    /* \"@openzeppelin/contracts/token/ERC721/extensions/ERC721URIStorage.sol\":1322:1329  tokenId */\n                  dup3\n                    /* \"@openzeppelin/contracts/token/ERC721/extensions/ERC721URIStorage.sol\":1308:1321  _requireOwned */\n                  tag_115\n                    /* \"@openzeppelin/contracts/token/ERC721/extensions/ERC721URIStorage.sol\":1308:1330  _requireOwned(tokenId) */\n                  jump\t// in\n                tag_242:\n                  pop\n                    /* \"@openzeppelin/contracts/token/ERC721/extensions/ERC721URIStorage.sol\":1341:1364  string memory _tokenURI */\n                  0x00\n                    /* \"@openzeppelin/contracts/token/ERC721/extensions/ERC721URIStorage.sol\":1367:1386  _tokenURIs[tokenId] */\n                  dup3\n                  dup2\n                  mstore\n                    /* \"@openzeppelin/contracts/token/ERC721/extensions/ERC721URIStorage.sol\":1367:1377  _tokenURIs */\n                  0x0a\n                    /* \"@openzeppelin/contracts/token/ERC721/extensions/ERC721URIStorage.sol\":1367:1386  _tokenURIs[tokenId] */\n                  0x20\n                  mstore\n                  0x40\n                  dup2\n                  keccak256\n                    /* \"@openzeppelin/contracts/token/ERC721/extensions/ERC721URIStorage.sol\":1341:1386  string memory _tokenURI = _tokenURIs[tokenId] */\n                  dup1\n                  sload\n                  tag_243\n                  swap1\n                  tag_108\n                  jump\t// in\n                tag_243:\n                  dup1\n                  0x1f\n                  add\n                  0x20\n                  dup1\n                  swap2\n                  div\n                  mul\n                  0x20\n                  add\n                  mload(0x40)\n                  swap1\n                  dup2\n                  add\n                  0x40\n                  mstore\n                  dup1\n                  swap3\n                  swap2\n                  swap1\n                  dup2\n                  dup2\n                  mstore\n                  0x20\n                  add\n                  dup3\n                  dup1\n                  sload\n                  tag_244\n                  swap1\n                  tag_108\n                  jump\t// in\n                tag_244:\n                  dup1\n                  iszero\n                  tag_245\n                  jumpi\n                  dup1\n                  0x1f\n                  lt\n                  tag_246\n                  jumpi\n                  0x0100\n                  dup1\n                  dup4\n                  sload\n                  div\n                  mul\n                  dup4\n                  mstore\n                  swap2\n                  0x20\n                  add\n                  swap2\n                  jump(tag_245)\n                tag_246:\n                  dup3\n                  add\n                  swap2\n                  swap1\n                  0x00\n                  mstore\n                  keccak256(0x00, 0x20)\n                  swap1\n                tag_247:\n                  dup2\n                  sload\n                  dup2\n                  mstore\n                  swap1\n                  0x01\n                  add\n                  swap1\n                  0x20\n                  add\n                  dup1\n                  dup4\n                  gt\n                  tag_247\n                  jumpi\n                  dup3\n                  swap1\n                  sub\n                  0x1f\n                  and\n                  dup3\n                  add\n                  swap2\n                tag_245:\n                  pop\n                  pop\n                  pop\n                  pop\n                  pop\n                  swap1\n                  pop\n                    /* \"@openzeppelin/contracts/token/ERC721/extensions/ERC721URIStorage.sol\":1396:1414  string memory base */\n                  0x00\n                    /* \"@openzeppelin/contracts/token/ERC721/extensions/ERC721URIStorage.sol\":1417:1427  _baseURI() */\n                  tag_248\n                    /* \"@openzeppelin/contracts/token/ERC721/ERC721.sol\":3250:3259  return \"\" */\n                  0x40\n                  dup1\n                  mload\n                  0x20\n                  dup2\n                  add\n                  swap1\n                  swap2\n                  mstore\n                  0x00\n                  dup2\n                  mstore\n                  swap1\n                    /* \"@openzeppelin/contracts/token/ERC721/ERC721.sol\":3174:3266  function _baseURI() internal view virtual returns (string memory) {... */\n                  jump\n                    /* \"@openzeppelin/contracts/token/ERC721/extensions/ERC721URIStorage.sol\":1417:1427  _baseURI() */\n                tag_248:\n                    /* \"@openzeppelin/contracts/token/ERC721/extensions/ERC721URIStorage.sol\":1396:1427  string memory base = _baseURI() */\n                  swap1\n                  pop\n                    /* \"@openzeppelin/contracts/token/ERC721/extensions/ERC721URIStorage.sol\":1506:1510  base */\n                  dup1\n                    /* \"@openzeppelin/contracts/token/ERC721/extensions/ERC721URIStorage.sol\":1500:1518  bytes(base).length */\n                  mload\n                    /* \"@openzeppelin/contracts/token/ERC721/extensions/ERC721URIStorage.sol\":1522:1523  0 */\n                  0x00\n                    /* \"@openzeppelin/contracts/token/ERC721/extensions/ERC721URIStorage.sol\":1500:1523  bytes(base).length == 0 */\n                  sub\n                    /* \"@openzeppelin/contracts/token/ERC721/extensions/ERC721URIStorage.sol\":1496:1566  if (bytes(base).length == 0) {... */\n                  tag_250\n                  jumpi\n                  pop\n                    /* \"@openzeppelin/contracts/token/ERC721/extensions/ERC721URIStorage.sol\":1546:1555  _tokenURI */\n                  swap3\n                    /* \"@openzeppelin/contracts/token/ERC721/extensions/ERC721URIStorage.sol\":1210:1803  function tokenURI(uint256 tokenId) public view virtual override returns (string memory) {... */\n                  swap2\n                  pop\n                  pop\n                  jump\t// out\n                    /* \"@openzeppelin/contracts/token/ERC721/extensions/ERC721URIStorage.sol\":1496:1566  if (bytes(base).length == 0) {... */\n                tag_250:\n                    /* \"@openzeppelin/contracts/token/ERC721/extensions/ERC721URIStorage.sol\":1665:1688  bytes(_tokenURI).length */\n                  dup2\n                  mload\n                    /* \"@openzeppelin/contracts/token/ERC721/extensions/ERC721URIStorage.sol\":1665:1692  bytes(_tokenURI).length > 0 */\n                  iszero\n                    /* \"@openzeppelin/contracts/token/ERC721/extensions/ERC721URIStorage.sol\":1661:1756  if (bytes(_tokenURI).length > 0) {... */\n                  tag_251\n                  jumpi\n                    /* \"@openzeppelin/contracts/token/ERC721/extensions/ERC721URIStorage.sol\":1729:1733  base */\n                  dup1\n                    /* \"@openzeppelin/contracts/token/ERC721/extensions/ERC721URIStorage.sol\":1735:1744  _tokenURI */\n                  dup3\n                    /* \"@openzeppelin/contracts/token/ERC721/extensions/ERC721URIStorage.sol\":1715:1745  string.concat(base, _tokenURI) */\n                  add(0x20, mload(0x40))\n                  tag_252\n                  swap3\n                  swap2\n                  swap1\n                  tag_253\n                  jump\t// in\n                tag_252:\n                  mload(0x40)\n                  0x20\n                  dup2\n                  dup4\n                  sub\n                  sub\n                  dup2\n                  mstore\n                  swap1\n                  0x40\n                  mstore\n                    /* \"@openzeppelin/contracts/token/ERC721/extensions/ERC721URIStorage.sol\":1708:1745  return string.concat(base, _tokenURI) */\n                  swap3\n                  pop\n                  pop\n                  pop\n                    /* \"@openzeppelin/contracts/token/ERC721/extensions/ERC721URIStorage.sol\":1210:1803  function tokenURI(uint256 tokenId) public view virtual override returns (string memory) {... */\n                  swap2\n                  swap1\n                  pop\n                  jump\t// out\n                    /* \"@openzeppelin/contracts/token/ERC721/extensions/ERC721URIStorage.sol\":1661:1756  if (bytes(_tokenURI).length > 0) {... */\n                tag_251:\n                    /* \"@openzeppelin/contracts/token/ERC721/extensions/ERC721URIStorage.sol\":1773:1796  super.tokenURI(tokenId) */\n                  tag_208\n                    /* \"@openzeppelin/contracts/token/ERC721/extensions/ERC721URIStorage.sol\":1788:1795  tokenId */\n                  dup5\n                    /* \"@openzeppelin/contracts/token/ERC721/extensions/ERC721URIStorage.sol\":1773:1787  super.tokenURI */\n                  tag_255\n                    /* \"@openzeppelin/contracts/token/ERC721/extensions/ERC721URIStorage.sol\":1773:1796  super.tokenURI(tokenId) */\n                  jump\t// in\n                    /* \"@openzeppelin/contracts/token/ERC721/ERC721.sol\":10633:10733  function _safeMint(address to, uint256 tokenId) internal {... */\n                tag_183:\n                    /* \"@openzeppelin/contracts/token/ERC721/ERC721.sol\":10700:10726  _safeMint(to, tokenId, \"\") */\n                  tag_119\n                    /* \"@openzeppelin/contracts/token/ERC721/ERC721.sol\":10710:10712  to */\n                  dup3\n                    /* \"@openzeppelin/contracts/token/ERC721/ERC721.sol\":10714:10721  tokenId */\n                  dup3\n                    /* \"@openzeppelin/contracts/token/ERC721/ERC721.sol\":10700:10726  _safeMint(to, tokenId, \"\") */\n                  mload(0x40)\n                  dup1\n                  0x20\n                  add\n                  0x40\n                  mstore\n                  dup1\n                  0x00\n                  dup2\n                  mstore\n                  pop\n                    /* \"@openzeppelin/contracts/token/ERC721/ERC721.sol\":10700:10709  _safeMint */\n                  tag_258\n                    /* \"@openzeppelin/contracts/token/ERC721/ERC721.sol\":10700:10726  _safeMint(to, tokenId, \"\") */\n                  jump\t// in\n                    /* \"@openzeppelin/contracts/token/ERC721/extensions/ERC721URIStorage.sol\":1922:2089  function _setTokenURI(uint256 tokenId, string memory _tokenURI) internal virtual {... */\n                tag_185:\n                    /* \"@openzeppelin/contracts/token/ERC721/extensions/ERC721URIStorage.sol\":2013:2032  _tokenURIs[tokenId] */\n                  0x00\n                  dup3\n                  dup2\n                  mstore\n                    /* \"@openzeppelin/contracts/token/ERC721/extensions/ERC721URIStorage.sol\":2013:2023  _tokenURIs */\n                  0x0a\n                    /* \"@openzeppelin/contracts/token/ERC721/extensions/ERC721URIStorage.sol\":2013:2032  _tokenURIs[tokenId] */\n                  0x20\n                  mstore\n                  0x40\n                  swap1\n                  keccak256\n                    /* \"@openzeppelin/contracts/token/ERC721/extensions/ERC721URIStorage.sol\":2013:2044  _tokenURIs[tokenId] = _tokenURI */\n                  tag_260\n                    /* \"@openzeppelin/contracts/token/ERC721/extensions/ERC721URIStorage.sol\":2035:2044  _tokenURI */\n                  dup3\n                    /* \"@openzeppelin/contracts/token/ERC721/extensions/ERC721URIStorage.sol\":2013:2032  _tokenURIs[tokenId] */\n                  dup3\n                    /* \"@openzeppelin/contracts/token/ERC721/extensions/ERC721URIStorage.sol\":2013:2044  _tokenURIs[tokenId] = _tokenURI */\n                  tag_261\n                  jump\t// in\n                tag_260:\n                  pop\n                    /* \"@openzeppelin/contracts/token/ERC721/extensions/ERC721URIStorage.sol\":2059:2082  MetadataUpdate(tokenId) */\n                  mload(0x40)\n                    /* \"#utility.yul\":2324:2349   */\n                  dup3\n                  dup2\n                  mstore\n                    /* \"@openzeppelin/contracts/token/ERC721/extensions/ERC721URIStorage.sol\":2059:2082  MetadataUpdate(tokenId) */\n                  0xf8e1a15aba9398e019f0b49df1a4fde98ee17ae345cb5f6b5e2c27f5033e8ce7\n                  swap1\n                    /* \"#utility.yul\":2312:2314   */\n                  0x20\n                    /* \"#utility.yul\":2297:2315   */\n                  add\n                    /* \"@openzeppelin/contracts/token/ERC721/extensions/ERC721URIStorage.sol\":2059:2082  MetadataUpdate(tokenId) */\n                  mload(0x40)\n                  dup1\n                  swap2\n                  sub\n                  swap1\n                  log1\n                    /* \"@openzeppelin/contracts/token/ERC721/extensions/ERC721URIStorage.sol\":1922:2089  function _setTokenURI(uint256 tokenId, string memory _tokenURI) internal virtual {... */\n                  pop\n                  pop\n                  jump\t// out\n                    /* \"@openzeppelin/contracts/token/ERC721/extensions/ERC721Enumerable.sol\":1435:1657  function supportsInterface(bytes4 interfaceId) public view virtual override(IERC165, ERC721) returns (bool) {... */\n                tag_196:\n                    /* \"@openzeppelin/contracts/token/ERC721/extensions/ERC721Enumerable.sol\":1537:1541  bool */\n                  0x00\n                  not(sub(shl(0xe0, 0x01), 0x01))\n                    /* \"@openzeppelin/contracts/token/ERC721/extensions/ERC721Enumerable.sol\":1560:1610  interfaceId == type(IERC721Enumerable).interfaceId */\n                  dup3\n                  and\n                  shl(0xe0, 0x780e9d63)\n                  eq\n                  dup1\n                    /* \"@openzeppelin/contracts/token/ERC721/extensions/ERC721Enumerable.sol\":1560:1650  interfaceId == type(IERC721Enumerable).interfaceId || super.supportsInterface(interfaceId) */\n                  tag_104\n                  jumpi\n                  pop\n                    /* \"@openzeppelin/contracts/token/ERC721/extensions/ERC721Enumerable.sol\":1614:1650  super.supportsInterface(interfaceId) */\n                  tag_104\n                    /* \"@openzeppelin/contracts/token/ERC721/extensions/ERC721Enumerable.sol\":1638:1649  interfaceId */\n                  dup3\n                    /* \"@openzeppelin/contracts/token/ERC721/extensions/ERC721Enumerable.sol\":1614:1637  super.supportsInterface */\n                  tag_266\n                    /* \"@openzeppelin/contracts/token/ERC721/extensions/ERC721Enumerable.sol\":1614:1650  super.supportsInterface(interfaceId) */\n                  jump\t// in\n                    /* \"@openzeppelin/contracts/token/ERC721/ERC721.sol\":5707:5822  function _ownerOf(uint256 tokenId) internal view virtual returns (address) {... */\n                tag_199:\n                    /* \"@openzeppelin/contracts/token/ERC721/ERC721.sol\":5773:5780  address */\n                  0x00\n                    /* \"@openzeppelin/contracts/token/ERC721/ERC721.sol\":5799:5815  _owners[tokenId] */\n                  swap1\n                  dup2\n                  mstore\n                    /* \"@openzeppelin/contracts/token/ERC721/ERC721.sol\":5799:5806  _owners */\n                  0x02\n                    /* \"@openzeppelin/contracts/token/ERC721/ERC721.sol\":5799:5815  _owners[tokenId] */\n                  0x20\n                  mstore\n                  0x40\n                  swap1\n                  keccak256\n                  sload\n                  sub(shl(0xa0, 0x01), 0x01)\n                  and\n                  swap1\n                    /* \"@openzeppelin/contracts/token/ERC721/ERC721.sol\":5707:5822  function _ownerOf(uint256 tokenId) internal view virtual returns (address) {... */\n                  jump\t// out\n                    /* \"@openzeppelin/contracts/token/ERC721/ERC721.sol\":14720:15382  function _approve(address to, uint256 tokenId, address auth, bool emitEvent) internal virtual {... */\n                tag_206:\n                    /* \"@openzeppelin/contracts/token/ERC721/ERC721.sol\":14880:14889  emitEvent */\n                  dup1\n                    /* \"@openzeppelin/contracts/token/ERC721/ERC721.sol\":14880:14911  emitEvent || auth != address(0) */\n                  dup1\n                  tag_269\n                  jumpi\n                  pop\n                  sub(shl(0xa0, 0x01), 0x01)\n                    /* \"@openzeppelin/contracts/token/ERC721/ERC721.sol\":14893:14911  auth != address(0) */\n                  dup3\n                  and\n                  iszero\n                  iszero\n                    /* \"@openzeppelin/contracts/token/ERC721/ERC721.sol\":14880:14911  emitEvent || auth != address(0) */\n                tag_269:\n                    /* \"@openzeppelin/contracts/token/ERC721/ERC721.sol\":14876:15336  if (emitEvent || auth != address(0)) {... */\n                  iszero\n                  tag_270\n                  jumpi\n                    /* \"@openzeppelin/contracts/token/ERC721/ERC721.sol\":14927:14940  address owner */\n                  0x00\n                    /* \"@openzeppelin/contracts/token/ERC721/ERC721.sol\":14943:14965  _requireOwned(tokenId) */\n                  tag_271\n                    /* \"@openzeppelin/contracts/token/ERC721/ERC721.sol\":14957:14964  tokenId */\n                  dup5\n                    /* \"@openzeppelin/contracts/token/ERC721/ERC721.sol\":14943:14956  _requireOwned */\n                  tag_115\n                    /* \"@openzeppelin/contracts/token/ERC721/ERC721.sol\":14943:14965  _requireOwned(tokenId) */\n                  jump\t// in\n                tag_271:\n                    /* \"@openzeppelin/contracts/token/ERC721/ERC721.sol\":14927:14965  address owner = _requireOwned(tokenId) */\n                  swap1\n                  pop\n                  sub(shl(0xa0, 0x01), 0x01)\n                    /* \"@openzeppelin/contracts/token/ERC721/ERC721.sol\":15093:15111  auth != address(0) */\n                  dup4\n                  and\n                  iszero\n                  dup1\n                  iszero\n                  swap1\n                    /* \"@openzeppelin/contracts/token/ERC721/ERC721.sol\":15093:15128  auth != address(0) && owner != auth */\n                  tag_272\n                  jumpi\n                  pop\n                    /* \"@openzeppelin/contracts/token/ERC721/ERC721.sol\":15124:15128  auth */\n                  dup3\n                  sub(shl(0xa0, 0x01), 0x01)\n                    /* \"@openzeppelin/contracts/token/ERC721/ERC721.sol\":15115:15128  owner != auth */\n                  and\n                    /* \"@openzeppelin/contracts/token/ERC721/ERC721.sol\":15115:15120  owner */\n                  dup2\n                  sub(shl(0xa0, 0x01), 0x01)\n                    /* \"@openzeppelin/contracts/token/ERC721/ERC721.sol\":15115:15128  owner != auth */\n                  and\n                  eq\n                  iszero\n                    /* \"@openzeppelin/contracts/token/ERC721/ERC721.sol\":15093:15128  auth != address(0) && owner != auth */\n                tag_272:\n                    /* \"@openzeppelin/contracts/token/ERC721/ERC721.sol\":15093:15162  auth != address(0) && owner != auth && !isApprovedForAll(owner, auth) */\n                  dup1\n                  iszero\n                  tag_273\n                  jumpi\n                  pop\n                    /* \"@openzeppelin/contracts/token/ERC721/ERC721.sol\":15133:15162  isApprovedForAll(owner, auth) */\n                  tag_274\n                    /* \"@openzeppelin/contracts/token/ERC721/ERC721.sol\":15150:15155  owner */\n                  dup2\n                    /* \"@openzeppelin/contracts/token/ERC721/ERC721.sol\":15157:15161  auth */\n                  dup5\n                    /* \"@openzeppelin/contracts/token/ERC721/ERC721.sol\":15133:15149  isApprovedForAll */\n                  tag_98\n                    /* \"@openzeppelin/contracts/token/ERC721/ERC721.sol\":15133:15162  isApprovedForAll(owner, auth) */\n                  jump\t// in\n                tag_274:\n                    /* \"@openzeppelin/contracts/token/ERC721/ERC721.sol\":15132:15162  !isApprovedForAll(owner, auth) */\n                  iszero\n                    /* \"@openzeppelin/contracts/token/ERC721/ERC721.sol\":15093:15162  auth != address(0) && owner != auth && !isApprovedForAll(owner, auth) */\n                tag_273:\n                    /* \"@openzeppelin/contracts/token/ERC721/ERC721.sol\":15089:15231  if (auth != address(0) && owner != auth && !isApprovedForAll(owner, auth)) {... */\n                  iszero\n                  tag_275\n                  jumpi\n                    /* \"@openzeppelin/contracts/token/ERC721/ERC721.sol\":15211:15215  auth */\n                  dup3\n                    /* \"@openzeppelin/contracts/token/ERC721/ERC721.sol\":15189:15216  ERC721InvalidApprover(auth) */\n                  mload(0x40)\n                  shl(0xe0, 0xa9fbf51f)\n                  dup2\n                  mstore\n                  0x04\n                  add\n                  tag_126\n                  swap2\n                  swap1\n                  tag_38\n                  jump\t// in\n                    /* \"@openzeppelin/contracts/token/ERC721/ERC721.sol\":15089:15231  if (auth != address(0) && owner != auth && !isApprovedForAll(owner, auth)) {... */\n                tag_275:\n                    /* \"@openzeppelin/contracts/token/ERC721/ERC721.sol\":15249:15258  emitEvent */\n                  dup2\n                    /* \"@openzeppelin/contracts/token/ERC721/ERC721.sol\":15245:15326  if (emitEvent) {... */\n                  iszero\n                  tag_277\n                  jumpi\n                    /* \"@openzeppelin/contracts/token/ERC721/ERC721.sol\":15303:15310  tokenId */\n                  dup4\n                    /* \"@openzeppelin/contracts/token/ERC721/ERC721.sol\":15299:15301  to */\n                  dup6\n                  sub(shl(0xa0, 0x01), 0x01)\n                    /* \"@openzeppelin/contracts/token/ERC721/ERC721.sol\":15283:15311  Approval(owner, to, tokenId) */\n                  and\n                    /* \"@openzeppelin/contracts/token/ERC721/ERC721.sol\":15292:15297  owner */\n                  dup3\n                  sub(shl(0xa0, 0x01), 0x01)\n                    /* \"@openzeppelin/contracts/token/ERC721/ERC721.sol\":15283:15311  Approval(owner, to, tokenId) */\n                  and\n                  0x8c5be1e5ebec7d5bd14f71427d1e84f3dd0314c0f7b2291e5b200ac8c7c3b925\n                  mload(0x40)\n                  mload(0x40)\n                  dup1\n                  swap2\n                  sub\n                  swap1\n                  log4\n                    /* \"@openzeppelin/contracts/token/ERC721/ERC721.sol\":15245:15326  if (emitEvent) {... */\n                tag_277:\n                    /* \"@openzeppelin/contracts/token/ERC721/ERC721.sol\":14913:15336  {... */\n                  pop\n                    /* \"@openzeppelin/contracts/token/ERC721/ERC721.sol\":14876:15336  if (emitEvent || auth != address(0)) {... */\n                tag_270:\n                  pop\n                  pop\n                    /* \"@openzeppelin/contracts/token/ERC721/ERC721.sol\":15346:15370  _tokenApprovals[tokenId] */\n                  0x00\n                  swap1\n                  dup2\n                  mstore\n                    /* \"@openzeppelin/contracts/token/ERC721/ERC721.sol\":15346:15361  _tokenApprovals */\n                  0x04\n                    /* \"@openzeppelin/contracts/token/ERC721/ERC721.sol\":15346:15370  _tokenApprovals[tokenId] */\n                  0x20\n                  mstore\n                  0x40\n                  swap1\n                  keccak256\n                    /* \"@openzeppelin/contracts/token/ERC721/ERC721.sol\":15346:15375  _tokenApprovals[tokenId] = to */\n                  dup1\n                  sload\n                  not(sub(shl(0xa0, 0x01), 0x01))\n                  and\n                  sub(shl(0xa0, 0x01), 0x01)\n                  swap3\n                  swap1\n                  swap3\n                  and\n                  swap2\n                  swap1\n                  swap2\n                  or\n                  swap1\n                  sstore\n                    /* \"@openzeppelin/contracts/token/ERC721/ERC721.sol\":14720:15382  function _approve(address to, uint256 tokenId, address auth, bool emitEvent) internal virtual {... */\n                  jump\t// out\n                    /* \"@openzeppelin/contracts/token/ERC721/extensions/ERC721Enumerable.sol\":2518:3143  function _update(address to, uint256 tokenId, address auth) internal virtual override returns (address) {... */\n                tag_209:\n                    /* \"@openzeppelin/contracts/token/ERC721/extensions/ERC721Enumerable.sol\":2613:2620  address */\n                  0x00\n                    /* \"@openzeppelin/contracts/token/ERC721/extensions/ERC721Enumerable.sol\":2632:2653  address previousOwner */\n                  dup1\n                    /* \"@openzeppelin/contracts/token/ERC721/extensions/ERC721Enumerable.sol\":2656:2688  super._update(to, tokenId, auth) */\n                  tag_279\n                    /* \"@openzeppelin/contracts/token/ERC721/extensions/ERC721Enumerable.sol\":2670:2672  to */\n                  dup6\n                    /* \"@openzeppelin/contracts/token/ERC721/extensions/ERC721Enumerable.sol\":2674:2681  tokenId */\n                  dup6\n                    /* \"@openzeppelin/contracts/token/ERC721/extensions/ERC721Enumerable.sol\":2683:2687  auth */\n                  dup6\n                    /* \"@openzeppelin/contracts/token/ERC721/extensions/ERC721Enumerable.sol\":2656:2669  super._update */\n                  tag_280\n                    /* \"@openzeppelin/contracts/token/ERC721/extensions/ERC721Enumerable.sol\":2656:2688  super._update(to, tokenId, auth) */\n                  jump\t// in\n                tag_279:\n                    /* \"@openzeppelin/contracts/token/ERC721/extensions/ERC721Enumerable.sol\":2632:2688  address previousOwner = super._update(to, tokenId, auth) */\n                  swap1\n                  pop\n                  sub(shl(0xa0, 0x01), 0x01)\n                    /* \"@openzeppelin/contracts/token/ERC721/extensions/ERC721Enumerable.sol\":2703:2730  previousOwner == address(0) */\n                  dup2\n                  and\n                    /* \"@openzeppelin/contracts/token/ERC721/extensions/ERC721Enumerable.sol\":2699:2909  if (previousOwner == address(0)) {... */\n                  tag_281\n                  jumpi\n                    /* \"@openzeppelin/contracts/token/ERC721/extensions/ERC721Enumerable.sol\":2746:2786  _addTokenToAllTokensEnumeration(tokenId) */\n                  tag_282\n                    /* \"@openzeppelin/contracts/token/ERC721/extensions/ERC721Enumerable.sol\":2778:2785  tokenId */\n                  dup5\n                    /* \"@openzeppelin/contracts/token/ERC721/extensions/ERC721Enumerable.sol\":3949:3959  _allTokens */\n                  0x08\n                    /* \"@openzeppelin/contracts/token/ERC721/extensions/ERC721Enumerable.sol\":3949:3966  _allTokens.length */\n                  dup1\n                  sload\n                    /* \"@openzeppelin/contracts/token/ERC721/extensions/ERC721Enumerable.sol\":3922:3946  _allTokensIndex[tokenId] */\n                  0x00\n                  dup4\n                  dup2\n                  mstore\n                    /* \"@openzeppelin/contracts/token/ERC721/extensions/ERC721Enumerable.sol\":3922:3937  _allTokensIndex */\n                  0x09\n                    /* \"@openzeppelin/contracts/token/ERC721/extensions/ERC721Enumerable.sol\":3922:3946  _allTokensIndex[tokenId] */\n                  0x20\n                  mstore\n                  0x40\n                  dup2\n                  keccak256\n                    /* \"@openzeppelin/contracts/token/ERC721/extensions/ERC721Enumerable.sol\":3922:3966  _allTokensIndex[tokenId] = _allTokens.length */\n                  dup3\n                  swap1\n                  sstore\n                    /* \"@openzeppelin/contracts/token/ERC721/extensions/ERC721Enumerable.sol\":3976:4000  _allTokens.push(tokenId) */\n                  0x01\n                  dup3\n                  add\n                  dup4\n                  sstore\n                  swap2\n                  swap1\n                  swap2\n                  mstore\n                  0xf3f7a9fe364faab93b216da50a3214154f22a0a2b415b23a84c8169e8b636ee3\n                  add\n                  sstore\n                    /* \"@openzeppelin/contracts/token/ERC721/extensions/ERC721Enumerable.sol\":3846:4007  function _addTokenToAllTokensEnumeration(uint256 tokenId) private {... */\n                  jump\n                    /* \"@openzeppelin/contracts/token/ERC721/extensions/ERC721Enumerable.sol\":2746:2786  _addTokenToAllTokensEnumeration(tokenId) */\n                tag_282:\n                    /* \"@openzeppelin/contracts/token/ERC721/extensions/ERC721Enumerable.sol\":2699:2909  if (previousOwner == address(0)) {... */\n                  jump(tag_286)\n                tag_281:\n                    /* \"@openzeppelin/contracts/token/ERC721/extensions/ERC721Enumerable.sol\":2824:2826  to */\n                  dup5\n                  sub(shl(0xa0, 0x01), 0x01)\n                    /* \"@openzeppelin/contracts/token/ERC721/extensions/ERC721Enumerable.sol\":2807:2826  previousOwner != to */\n                  and\n                    /* \"@openzeppelin/contracts/token/ERC721/extensions/ERC721Enumerable.sol\":2807:2820  previousOwner */\n                  dup2\n                  sub(shl(0xa0, 0x01), 0x01)\n                    /* \"@openzeppelin/contracts/token/ERC721/extensions/ERC721Enumerable.sol\":2807:2826  previousOwner != to */\n                  and\n                  eq\n                    /* \"@openzeppelin/contracts/token/ERC721/extensions/ERC721Enumerable.sol\":2803:2909  if (previousOwner != to) {... */\n                  tag_286\n                  jumpi\n                    /* \"@openzeppelin/contracts/token/ERC721/extensions/ERC721Enumerable.sol\":2842:2898  _removeTokenFromOwnerEnumeration(previousOwner, tokenId) */\n                  tag_286\n                    /* \"@openzeppelin/contracts/token/ERC721/extensions/ERC721Enumerable.sol\":2875:2888  previousOwner */\n                  dup2\n                    /* \"@openzeppelin/contracts/token/ERC721/extensions/ERC721Enumerable.sol\":2890:2897  tokenId */\n                  dup6\n                    /* \"@openzeppelin/contracts/token/ERC721/extensions/ERC721Enumerable.sol\":2842:2874  _removeTokenFromOwnerEnumeration */\n                  tag_287\n                    /* \"@openzeppelin/contracts/token/ERC721/extensions/ERC721Enumerable.sol\":2842:2898  _removeTokenFromOwnerEnumeration(previousOwner, tokenId) */\n                  jump\t// in\n                tag_286:\n                  sub(shl(0xa0, 0x01), 0x01)\n                    /* \"@openzeppelin/contracts/token/ERC721/extensions/ERC721Enumerable.sol\":2922:2938  to == address(0) */\n                  dup6\n                  and\n                    /* \"@openzeppelin/contracts/token/ERC721/extensions/ERC721Enumerable.sol\":2918:3106  if (to == address(0)) {... */\n                  tag_288\n                  jumpi\n                    /* \"@openzeppelin/contracts/token/ERC721/extensions/ERC721Enumerable.sol\":2954:2999  _removeTokenFromAllTokensEnumeration(tokenId) */\n                  tag_289\n                    /* \"@openzeppelin/contracts/token/ERC721/extensions/ERC721Enumerable.sol\":2991:2998  tokenId */\n                  dup5\n                    /* \"@openzeppelin/contracts/token/ERC721/extensions/ERC721Enumerable.sol\":2954:2990  _removeTokenFromAllTokensEnumeration */\n                  tag_290\n                    /* \"@openzeppelin/contracts/token/ERC721/extensions/ERC721Enumerable.sol\":2954:2999  _removeTokenFromAllTokensEnumeration(tokenId) */\n                  jump\t// in\n                tag_289:\n                    /* \"@openzeppelin/contracts/token/ERC721/extensions/ERC721Enumerable.sol\":2918:3106  if (to == address(0)) {... */\n                  jump(tag_208)\n                tag_288:\n                    /* \"@openzeppelin/contracts/token/ERC721/extensions/ERC721Enumerable.sol\":3037:3039  to */\n                  dup5\n                  sub(shl(0xa0, 0x01), 0x01)\n                    /* \"@openzeppelin/contracts/token/ERC721/extensions/ERC721Enumerable.sol\":3020:3039  previousOwner != to */\n                  and\n                    /* \"@openzeppelin/contracts/token/ERC721/extensions/ERC721Enumerable.sol\":3020:3033  previousOwner */\n                  dup2\n                  sub(shl(0xa0, 0x01), 0x01)\n                    /* \"@openzeppelin/contracts/token/ERC721/extensions/ERC721Enumerable.sol\":3020:3039  previousOwner != to */\n                  and\n                  eq\n                    /* \"@openzeppelin/contracts/token/ERC721/extensions/ERC721Enumerable.sol\":3016:3106  if (previousOwner != to) {... */\n                  tag_208\n                  jumpi\n                    /* \"@openzeppelin/contracts/token/ERC721/extensions/ERC721Enumerable.sol\":3055:3095  _addTokenToOwnerEnumeration(to, tokenId) */\n                  tag_208\n                    /* \"@openzeppelin/contracts/token/ERC721/extensions/ERC721Enumerable.sol\":3083:3085  to */\n                  dup6\n                    /* \"@openzeppelin/contracts/token/ERC721/extensions/ERC721Enumerable.sol\":3087:3094  tokenId */\n                  dup6\n                    /* \"@openzeppelin/contracts/token/ERC721/extensions/ERC721Enumerable.sol\":3055:3082  _addTokenToOwnerEnumeration */\n                  tag_294\n                    /* \"@openzeppelin/contracts/token/ERC721/extensions/ERC721Enumerable.sol\":3055:3095  _addTokenToOwnerEnumeration(to, tokenId) */\n                  jump\t// in\n                    /* \"@openzeppelin/contracts/token/ERC721/ERC721.sol\":2677:2932  function tokenURI(uint256 tokenId) public view virtual returns (string memory) {... */\n                tag_255:\n                    /* \"@openzeppelin/contracts/token/ERC721/ERC721.sol\":2741:2754  string memory */\n                  0x60\n                    /* \"@openzeppelin/contracts/token/ERC721/ERC721.sol\":2766:2788  _requireOwned(tokenId) */\n                  tag_297\n                    /* \"@openzeppelin/contracts/token/ERC721/ERC721.sol\":2780:2787  tokenId */\n                  dup3\n                    /* \"@openzeppelin/contracts/token/ERC721/ERC721.sol\":2766:2779  _requireOwned */\n                  tag_115\n                    /* \"@openzeppelin/contracts/token/ERC721/ERC721.sol\":2766:2788  _requireOwned(tokenId) */\n                  jump\t// in\n                tag_297:\n                  pop\n                    /* \"@openzeppelin/contracts/token/ERC721/ERC721.sol\":2799:2820  string memory baseURI */\n                  0x00\n                    /* \"@openzeppelin/contracts/token/ERC721/ERC721.sol\":2823:2833  _baseURI() */\n                  tag_298\n                    /* \"@openzeppelin/contracts/token/ERC721/ERC721.sol\":3250:3259  return \"\" */\n                  0x40\n                  dup1\n                  mload\n                  0x20\n                  dup2\n                  add\n                  swap1\n                  swap2\n                  mstore\n                  0x00\n                  dup2\n                  mstore\n                  swap1\n                    /* \"@openzeppelin/contracts/token/ERC721/ERC721.sol\":3174:3266  function _baseURI() internal view virtual returns (string memory) {... */\n                  jump\n                    /* \"@openzeppelin/contracts/token/ERC721/ERC721.sol\":2823:2833  _baseURI() */\n                tag_298:\n                    /* \"@openzeppelin/contracts/token/ERC721/ERC721.sol\":2799:2833  string memory baseURI = _baseURI() */\n                  swap1\n                  pop\n                    /* \"@openzeppelin/contracts/token/ERC721/ERC721.sol\":2874:2875  0 */\n                  0x00\n                    /* \"@openzeppelin/contracts/token/ERC721/ERC721.sol\":2856:2863  baseURI */\n                  dup2\n                    /* \"@openzeppelin/contracts/token/ERC721/ERC721.sol\":2850:2871  bytes(baseURI).length */\n                  mload\n                    /* \"@openzeppelin/contracts/token/ERC721/ERC721.sol\":2850:2875  bytes(baseURI).length > 0 */\n                  gt\n                    /* \"@openzeppelin/contracts/token/ERC721/ERC721.sol\":2850:2925  bytes(baseURI).length > 0 ? string.concat(baseURI, tokenId.toString()) : \"\" */\n                  tag_299\n                  jumpi\n                  mload(0x40)\n                  dup1\n                  0x20\n                  add\n                  0x40\n                  mstore\n                  dup1\n                  0x00\n                  dup2\n                  mstore\n                  pop\n                  jump(tag_300)\n                tag_299:\n                    /* \"@openzeppelin/contracts/token/ERC721/ERC721.sol\":2892:2899  baseURI */\n                  dup1\n                    /* \"@openzeppelin/contracts/token/ERC721/ERC721.sol\":2901:2919  tokenId.toString() */\n                  tag_301\n                    /* \"@openzeppelin/contracts/token/ERC721/ERC721.sol\":2901:2908  tokenId */\n                  dup5\n                    /* \"@openzeppelin/contracts/token/ERC721/ERC721.sol\":2901:2917  tokenId.toString */\n                  tag_302\n                    /* \"@openzeppelin/contracts/token/ERC721/ERC721.sol\":2901:2919  tokenId.toString() */\n                  jump\t// in\n                tag_301:\n                    /* \"@openzeppelin/contracts/token/ERC721/ERC721.sol\":2878:2920  string.concat(baseURI, tokenId.toString()) */\n                  add(0x20, mload(0x40))\n                  tag_303\n                  swap3\n                  swap2\n                  swap1\n                  tag_253\n                  jump\t// in\n                tag_303:\n                  mload(0x40)\n                  0x20\n                  dup2\n                  dup4\n                  sub\n                  sub\n                  dup2\n                  mstore\n                  swap1\n                  0x40\n                  mstore\n                    /* \"@openzeppelin/contracts/token/ERC721/ERC721.sol\":2850:2925  bytes(baseURI).length > 0 ? string.concat(baseURI, tokenId.toString()) : \"\" */\n                tag_300:\n                    /* \"@openzeppelin/contracts/token/ERC721/ERC721.sol\":2843:2925  return bytes(baseURI).length > 0 ? string.concat(baseURI, tokenId.toString()) : \"\" */\n                  swap4\n                    /* \"@openzeppelin/contracts/token/ERC721/ERC721.sol\":2677:2932  function tokenURI(uint256 tokenId) public view virtual returns (string memory) {... */\n                  swap3\n                  pop\n                  pop\n                  pop\n                  jump\t// out\n                    /* \"@openzeppelin/contracts/token/ERC721/ERC721.sol\":10954:11136  function _safeMint(address to, uint256 tokenId, bytes memory data) internal virtual {... */\n                tag_258:\n                    /* \"@openzeppelin/contracts/token/ERC721/ERC721.sol\":11048:11066  _mint(to, tokenId) */\n                  tag_305\n                    /* \"@openzeppelin/contracts/token/ERC721/ERC721.sol\":11054:11056  to */\n                  dup4\n                    /* \"@openzeppelin/contracts/token/ERC721/ERC721.sol\":11058:11065  tokenId */\n                  dup4\n                    /* \"@openzeppelin/contracts/token/ERC721/ERC721.sol\":11048:11053  _mint */\n                  tag_306\n                    /* \"@openzeppelin/contracts/token/ERC721/ERC721.sol\":11048:11066  _mint(to, tokenId) */\n                  jump\t// in\n                tag_305:\n                    /* \"@openzeppelin/contracts/token/ERC721/ERC721.sol\":11076:11129  _checkOnERC721Received(address(0), to, tokenId, data) */\n                  tag_139\n                    /* \"@openzeppelin/contracts/token/ERC721/ERC721.sol\":11107:11108  0 */\n                  0x00\n                    /* \"@openzeppelin/contracts/token/ERC721/ERC721.sol\":11111:11113  to */\n                  dup5\n                    /* \"@openzeppelin/contracts/token/ERC721/ERC721.sol\":11115:11122  tokenId */\n                  dup5\n                    /* \"@openzeppelin/contracts/token/ERC721/ERC721.sol\":11124:11128  data */\n                  dup5\n                    /* \"@openzeppelin/contracts/token/ERC721/ERC721.sol\":11076:11098  _checkOnERC721Received */\n                  tag_173\n                    /* \"@openzeppelin/contracts/token/ERC721/ERC721.sol\":11076:11129  _checkOnERC721Received(address(0), to, tokenId, data) */\n                  jump\t// in\n                    /* \"@openzeppelin/contracts/token/ERC721/ERC721.sol\":1561:1861  function supportsInterface(bytes4 interfaceId) public view virtual override(ERC165, IERC165) returns (bool) {... */\n                tag_266:\n                    /* \"@openzeppelin/contracts/token/ERC721/ERC721.sol\":1663:1667  bool */\n                  0x00\n                  not(sub(shl(0xe0, 0x01), 0x01))\n                    /* \"@openzeppelin/contracts/token/ERC721/ERC721.sol\":1698:1738  interfaceId == type(IERC721).interfaceId */\n                  dup3\n                  and\n                  shl(0xe0, 0x80ac58cd)\n                  eq\n                  dup1\n                    /* \"@openzeppelin/contracts/token/ERC721/ERC721.sol\":1698:1802  interfaceId == type(IERC721).interfaceId ||... */\n                  tag_309\n                  jumpi\n                  pop\n                  not(sub(shl(0xe0, 0x01), 0x01))\n                    /* \"@openzeppelin/contracts/token/ERC721/ERC721.sol\":1754:1802  interfaceId == type(IERC721Metadata).interfaceId */\n                  dup3\n                  and\n                  shl(0xe0, 0x5b5e139f)\n                  eq\n                    /* \"@openzeppelin/contracts/token/ERC721/ERC721.sol\":1698:1802  interfaceId == type(IERC721).interfaceId ||... */\n                tag_309:\n                    /* \"@openzeppelin/contracts/token/ERC721/ERC721.sol\":1698:1854  interfaceId == type(IERC721).interfaceId ||... */\n                  dup1\n                  tag_104\n                  jumpi\n                  pop\n                  shl(0xe0, 0x01ffc9a7)\n                  not(sub(shl(0xe0, 0x01), 0x01))\n                    /* \"@openzeppelin/contracts/utils/introspection/ERC165.sol\":861:901  interfaceId == type(IERC165).interfaceId */\n                  dup4\n                  and\n                  eq\n                    /* \"@openzeppelin/contracts/token/ERC721/ERC721.sol\":1818:1854  super.supportsInterface(interfaceId) */\n                  tag_104\n                    /* \"@openzeppelin/contracts/utils/introspection/ERC165.sol\":762:908  function supportsInterface(bytes4 interfaceId) public view virtual returns (bool) {... */\n                  jump\n                    /* \"@openzeppelin/contracts/token/ERC721/ERC721.sol\":8838:9633  function _update(address to, uint256 tokenId, address auth) internal virtual returns (address) {... */\n                tag_280:\n                    /* \"@openzeppelin/contracts/token/ERC721/ERC721.sol\":8924:8931  address */\n                  0x00\n                    /* \"@openzeppelin/contracts/token/ERC721/ERC721.sol\":8943:8955  address from */\n                  dup1\n                    /* \"@openzeppelin/contracts/token/ERC721/ERC721.sol\":8958:8975  _ownerOf(tokenId) */\n                  tag_314\n                    /* \"@openzeppelin/contracts/token/ERC721/ERC721.sol\":8967:8974  tokenId */\n                  dup5\n                    /* \"@openzeppelin/contracts/token/ERC721/ERC721.sol\":8958:8966  _ownerOf */\n                  tag_199\n                    /* \"@openzeppelin/contracts/token/ERC721/ERC721.sol\":8958:8975  _ownerOf(tokenId) */\n                  jump\t// in\n                tag_314:\n                    /* \"@openzeppelin/contracts/token/ERC721/ERC721.sol\":8943:8975  address from = _ownerOf(tokenId) */\n                  swap1\n                  pop\n                  sub(shl(0xa0, 0x01), 0x01)\n                    /* \"@openzeppelin/contracts/token/ERC721/ERC721.sol\":9035:9053  auth != address(0) */\n                  dup4\n                  and\n                  iszero\n                    /* \"@openzeppelin/contracts/token/ERC721/ERC721.sol\":9031:9117  if (auth != address(0)) {... */\n                  tag_316\n                  jumpi\n                    /* \"@openzeppelin/contracts/token/ERC721/ERC721.sol\":9069:9106  _checkAuthorized(from, auth, tokenId) */\n                  tag_316\n                    /* \"@openzeppelin/contracts/token/ERC721/ERC721.sol\":9086:9090  from */\n                  dup2\n                    /* \"@openzeppelin/contracts/token/ERC721/ERC721.sol\":9092:9096  auth */\n                  dup5\n                    /* \"@openzeppelin/contracts/token/ERC721/ERC721.sol\":9098:9105  tokenId */\n                  dup7\n                    /* \"@openzeppelin/contracts/token/ERC721/ERC721.sol\":9069:9085  _checkAuthorized */\n                  tag_317\n                    /* \"@openzeppelin/contracts/token/ERC721/ERC721.sol\":9069:9106  _checkAuthorized(from, auth, tokenId) */\n                  jump\t// in\n                tag_316:\n                  sub(shl(0xa0, 0x01), 0x01)\n                    /* \"@openzeppelin/contracts/token/ERC721/ERC721.sol\":9161:9179  from != address(0) */\n                  dup2\n                  and\n                  iszero\n                    /* \"@openzeppelin/contracts/token/ERC721/ERC721.sol\":9157:9413  if (from != address(0)) {... */\n                  tag_318\n                  jumpi\n                    /* \"@openzeppelin/contracts/token/ERC721/ERC721.sol\":9277:9325  _approve(address(0), tokenId, address(0), false) */\n                  tag_319\n                    /* \"@openzeppelin/contracts/token/ERC721/ERC721.sol\":9294:9295  0 */\n                  0x00\n                    /* \"@openzeppelin/contracts/token/ERC721/ERC721.sol\":9298:9305  tokenId */\n                  dup6\n                    /* \"@openzeppelin/contracts/token/ERC721/ERC721.sol\":9315:9316  0 */\n                  0x00\n                    /* \"@openzeppelin/contracts/token/ERC721/ERC721.sol\":9319:9324  false */\n                  dup1\n                    /* \"@openzeppelin/contracts/token/ERC721/ERC721.sol\":9277:9285  _approve */\n                  tag_206\n                    /* \"@openzeppelin/contracts/token/ERC721/ERC721.sol\":9277:9325  _approve(address(0), tokenId, address(0), false) */\n                  jump\t// in\n                tag_319:\n                  sub(shl(0xa0, 0x01), 0x01)\n                    /* \"@openzeppelin/contracts/token/ERC721/ERC721.sol\":9368:9383  _balances[from] */\n                  dup2\n                  and\n                  0x00\n                  swap1\n                  dup2\n                  mstore\n                    /* \"@openzeppelin/contracts/token/ERC721/ERC721.sol\":9368:9377  _balances */\n                  0x03\n                    /* \"@openzeppelin/contracts/token/ERC721/ERC721.sol\":9368:9383  _balances[from] */\n                  0x20\n                  mstore\n                  0x40\n                  swap1\n                  keccak256\n                    /* \"@openzeppelin/contracts/token/ERC721/ERC721.sol\":9368:9388  _balances[from] -= 1 */\n                  dup1\n                  sload\n                  not(0x00)\n                  add\n                  swap1\n                  sstore\n                    /* \"@openzeppelin/contracts/token/ERC721/ERC721.sol\":9157:9413  if (from != address(0)) {... */\n                tag_318:\n                  sub(shl(0xa0, 0x01), 0x01)\n                    /* \"@openzeppelin/contracts/token/ERC721/ERC721.sol\":9427:9443  to != address(0) */\n                  dup6\n                  and\n                  iszero\n                    /* \"@openzeppelin/contracts/token/ERC721/ERC721.sol\":9423:9530  if (to != address(0)) {... */\n                  tag_320\n                  jumpi\n                  sub(shl(0xa0, 0x01), 0x01)\n                    /* \"@openzeppelin/contracts/token/ERC721/ERC721.sol\":9487:9500  _balances[to] */\n                  dup6\n                  and\n                  0x00\n                  swap1\n                  dup2\n                  mstore\n                    /* \"@openzeppelin/contracts/token/ERC721/ERC721.sol\":9487:9496  _balances */\n                  0x03\n                    /* \"@openzeppelin/contracts/token/ERC721/ERC721.sol\":9487:9500  _balances[to] */\n                  0x20\n                  mstore\n                  0x40\n                  swap1\n                  keccak256\n                    /* \"@openzeppelin/contracts/token/ERC721/ERC721.sol\":9487:9505  _balances[to] += 1 */\n                  dup1\n                  sload\n                    /* \"@openzeppelin/contracts/token/ERC721/ERC721.sol\":9504:9505  1 */\n                  0x01\n                    /* \"@openzeppelin/contracts/token/ERC721/ERC721.sol\":9487:9505  _balances[to] += 1 */\n                  add\n                  swap1\n                  sstore\n                    /* \"@openzeppelin/contracts/token/ERC721/ERC721.sol\":9423:9530  if (to != address(0)) {... */\n                tag_320:\n                    /* \"@openzeppelin/contracts/token/ERC721/ERC721.sol\":9540:9556  _owners[tokenId] */\n                  0x00\n                  dup5\n                  dup2\n                  mstore\n                    /* \"@openzeppelin/contracts/token/ERC721/ERC721.sol\":9540:9547  _owners */\n                  0x02\n                    /* \"@openzeppelin/contracts/token/ERC721/ERC721.sol\":9540:9556  _owners[tokenId] */\n                  0x20\n                  mstore\n                  0x40\n                  dup1\n                  dup3\n                  keccak256\n                    /* \"@openzeppelin/contracts/token/ERC721/ERC721.sol\":9540:9561  _owners[tokenId] = to */\n                  dup1\n                  sload\n                  not(sub(shl(0xa0, 0x01), 0x01))\n                  and\n                  sub(shl(0xa0, 0x01), 0x01)\n                  dup10\n                  dup2\n                  and\n                  swap2\n                  dup3\n                  or\n                  swap1\n                  swap3\n                  sstore\n                    /* \"@openzeppelin/contracts/token/ERC721/ERC721.sol\":9577:9604  Transfer(from, to, tokenId) */\n                  swap2\n                  mload\n                    /* \"@openzeppelin/contracts/token/ERC721/ERC721.sol\":9540:9556  _owners[tokenId] */\n                  dup8\n                  swap4\n                    /* \"@openzeppelin/contracts/token/ERC721/ERC721.sol\":9577:9604  Transfer(from, to, tokenId) */\n                  swap2\n                  dup6\n                  and\n                  swap2\n                  0xddf252ad1be2c89b69c2b068fc378daa952ba7f163c4a11628f55a4df523b3ef\n                  swap2\n                  log4\n                    /* \"@openzeppelin/contracts/token/ERC721/ERC721.sol\":9622:9626  from */\n                  swap5\n                    /* \"@openzeppelin/contracts/token/ERC721/ERC721.sol\":8838:9633  function _update(address to, uint256 tokenId, address auth) internal virtual returns (address) {... */\n                  swap4\n                  pop\n                  pop\n                  pop\n                  pop\n                  jump\t// out\n                    /* \"@openzeppelin/contracts/token/ERC721/extensions/ERC721Enumerable.sol\":4624:5583  function _removeTokenFromOwnerEnumeration(address from, uint256 tokenId) private {... */\n                tag_287:\n                    /* \"@openzeppelin/contracts/token/ERC721/extensions/ERC721Enumerable.sol\":4886:4908  uint256 lastTokenIndex */\n                  0x00\n                    /* \"@openzeppelin/contracts/token/ERC721/extensions/ERC721Enumerable.sol\":4911:4926  balanceOf(from) */\n                  tag_324\n                    /* \"@openzeppelin/contracts/token/ERC721/extensions/ERC721Enumerable.sol\":4921:4925  from */\n                  dup4\n                    /* \"@openzeppelin/contracts/token/ERC721/extensions/ERC721Enumerable.sol\":4911:4920  balanceOf */\n                  tag_69\n                    /* \"@openzeppelin/contracts/token/ERC721/extensions/ERC721Enumerable.sol\":4911:4926  balanceOf(from) */\n                  jump\t// in\n                tag_324:\n                    /* \"@openzeppelin/contracts/token/ERC721/extensions/ERC721Enumerable.sol\":4936:4954  uint256 tokenIndex */\n                  0x00\n                    /* \"@openzeppelin/contracts/token/ERC721/extensions/ERC721Enumerable.sol\":4957:4983  _ownedTokensIndex[tokenId] */\n                  dup4\n                  dup2\n                  mstore\n                    /* \"@openzeppelin/contracts/token/ERC721/extensions/ERC721Enumerable.sol\":4957:4974  _ownedTokensIndex */\n                  0x07\n                    /* \"@openzeppelin/contracts/token/ERC721/extensions/ERC721Enumerable.sol\":4957:4983  _ownedTokensIndex[tokenId] */\n                  0x20\n                  mstore\n                  0x40\n                  swap1\n                  keccak256\n                  sload\n                    /* \"@openzeppelin/contracts/token/ERC721/extensions/ERC721Enumerable.sol\":4886:4926  uint256 lastTokenIndex = balanceOf(from) */\n                  swap1\n                  swap2\n                  pop\n                    /* \"@openzeppelin/contracts/token/ERC721/extensions/ERC721Enumerable.sol\":5087:5115  tokenIndex != lastTokenIndex */\n                  dup1\n                  dup3\n                  eq\n                    /* \"@openzeppelin/contracts/token/ERC721/extensions/ERC721Enumerable.sol\":5083:5406  if (tokenIndex != lastTokenIndex) {... */\n                  tag_325\n                  jumpi\n                  sub(shl(0xa0, 0x01), 0x01)\n                    /* \"@openzeppelin/contracts/token/ERC721/extensions/ERC721Enumerable.sol\":5153:5171  _ownedTokens[from] */\n                  dup5\n                  and\n                    /* \"@openzeppelin/contracts/token/ERC721/extensions/ERC721Enumerable.sol\":5131:5150  uint256 lastTokenId */\n                  0x00\n                    /* \"@openzeppelin/contracts/token/ERC721/extensions/ERC721Enumerable.sol\":5153:5171  _ownedTokens[from] */\n                  swap1\n                  dup2\n                  mstore\n                    /* \"@openzeppelin/contracts/token/ERC721/extensions/ERC721Enumerable.sol\":5153:5165  _ownedTokens */\n                  0x06\n                    /* \"@openzeppelin/contracts/token/ERC721/extensions/ERC721Enumerable.sol\":5153:5171  _ownedTokens[from] */\n                  0x20\n                  swap1\n                  dup2\n                  mstore\n                  0x40\n                  dup1\n                  dup4\n                  keccak256\n                    /* \"@openzeppelin/contracts/token/ERC721/extensions/ERC721Enumerable.sol\":5153:5187  _ownedTokens[from][lastTokenIndex] */\n                  dup6\n                  dup5\n                  mstore\n                  dup3\n                  mstore\n                  dup1\n                  dup4\n                  keccak256\n                  sload\n                    /* \"@openzeppelin/contracts/token/ERC721/extensions/ERC721Enumerable.sol\":5202:5232  _ownedTokens[from][tokenIndex] */\n                  dup5\n                  dup5\n                  mstore\n                  dup2\n                  dup5\n                  keccak256\n                    /* \"@openzeppelin/contracts/token/ERC721/extensions/ERC721Enumerable.sol\":5202:5246  _ownedTokens[from][tokenIndex] = lastTokenId */\n                  dup2\n                  swap1\n                  sstore\n                    /* \"@openzeppelin/contracts/token/ERC721/extensions/ERC721Enumerable.sol\":5318:5348  _ownedTokensIndex[lastTokenId] */\n                  dup4\n                  mstore\n                    /* \"@openzeppelin/contracts/token/ERC721/extensions/ERC721Enumerable.sol\":5318:5335  _ownedTokensIndex */\n                  0x07\n                    /* \"@openzeppelin/contracts/token/ERC721/extensions/ERC721Enumerable.sol\":5318:5348  _ownedTokensIndex[lastTokenId] */\n                  swap1\n                  swap2\n                  mstore\n                  swap1\n                  keccak256\n                    /* \"@openzeppelin/contracts/token/ERC721/extensions/ERC721Enumerable.sol\":5318:5361  _ownedTokensIndex[lastTokenId] = tokenIndex */\n                  dup2\n                  swap1\n                  sstore\n                    /* \"@openzeppelin/contracts/token/ERC721/extensions/ERC721Enumerable.sol\":5083:5406  if (tokenIndex != lastTokenIndex) {... */\n                tag_325:\n                  pop\n                    /* \"@openzeppelin/contracts/token/ERC721/extensions/ERC721Enumerable.sol\":5499:5525  _ownedTokensIndex[tokenId] */\n                  0x00\n                  swap2\n                  dup3\n                  mstore\n                    /* \"@openzeppelin/contracts/token/ERC721/extensions/ERC721Enumerable.sol\":5499:5516  _ownedTokensIndex */\n                  0x07\n                    /* \"@openzeppelin/contracts/token/ERC721/extensions/ERC721Enumerable.sol\":5499:5525  _ownedTokensIndex[tokenId] */\n                  0x20\n                  swap1\n                  dup2\n                  mstore\n                  0x40\n                  dup1\n                  dup5\n                  keccak256\n                    /* \"@openzeppelin/contracts/token/ERC721/extensions/ERC721Enumerable.sol\":5492:5525  delete _ownedTokensIndex[tokenId] */\n                  dup5\n                  swap1\n                  sstore\n                  sub(shl(0xa0, 0x01), 0x01)\n                    /* \"@openzeppelin/contracts/token/ERC721/extensions/ERC721Enumerable.sol\":5542:5560  _ownedTokens[from] */\n                  swap1\n                  swap5\n                  and\n                  dup4\n                  mstore\n                    /* \"@openzeppelin/contracts/token/ERC721/extensions/ERC721Enumerable.sol\":5542:5554  _ownedTokens */\n                  0x06\n                    /* \"@openzeppelin/contracts/token/ERC721/extensions/ERC721Enumerable.sol\":5542:5560  _ownedTokens[from] */\n                  dup2\n                  mstore\n                  dup4\n                  dup4\n                  keccak256\n                    /* \"@openzeppelin/contracts/token/ERC721/extensions/ERC721Enumerable.sol\":5542:5576  _ownedTokens[from][lastTokenIndex] */\n                  swap2\n                  dup4\n                  mstore\n                  mstore\n                  swap1\n                  dup2\n                  keccak256\n                    /* \"@openzeppelin/contracts/token/ERC721/extensions/ERC721Enumerable.sol\":5535:5576  delete _ownedTokens[from][lastTokenIndex] */\n                  sstore\n                    /* \"@openzeppelin/contracts/token/ERC721/extensions/ERC721Enumerable.sol\":4624:5583  function _removeTokenFromOwnerEnumeration(address from, uint256 tokenId) private {... */\n                  jump\t// out\n                    /* \"@openzeppelin/contracts/token/ERC721/extensions/ERC721Enumerable.sol\":5871:6932  function _removeTokenFromAllTokensEnumeration(uint256 tokenId) private {... */\n                tag_290:\n                    /* \"@openzeppelin/contracts/token/ERC721/extensions/ERC721Enumerable.sol\":6145:6155  _allTokens */\n                  0x08\n                    /* \"@openzeppelin/contracts/token/ERC721/extensions/ERC721Enumerable.sol\":6145:6162  _allTokens.length */\n                  sload\n                    /* \"@openzeppelin/contracts/token/ERC721/extensions/ERC721Enumerable.sol\":6120:6142  uint256 lastTokenIndex */\n                  0x00\n                  swap1\n                    /* \"@openzeppelin/contracts/token/ERC721/extensions/ERC721Enumerable.sol\":6145:6166  _allTokens.length - 1 */\n                  tag_327\n                  swap1\n                    /* \"@openzeppelin/contracts/token/ERC721/extensions/ERC721Enumerable.sol\":6165:6166  1 */\n                  0x01\n                  swap1\n                    /* \"@openzeppelin/contracts/token/ERC721/extensions/ERC721Enumerable.sol\":6145:6166  _allTokens.length - 1 */\n                  tag_328\n                  jump\t// in\n                tag_327:\n                    /* \"@openzeppelin/contracts/token/ERC721/extensions/ERC721Enumerable.sol\":6176:6194  uint256 tokenIndex */\n                  0x00\n                    /* \"@openzeppelin/contracts/token/ERC721/extensions/ERC721Enumerable.sol\":6197:6221  _allTokensIndex[tokenId] */\n                  dup4\n                  dup2\n                  mstore\n                    /* \"@openzeppelin/contracts/token/ERC721/extensions/ERC721Enumerable.sol\":6197:6212  _allTokensIndex */\n                  0x09\n                    /* \"@openzeppelin/contracts/token/ERC721/extensions/ERC721Enumerable.sol\":6197:6221  _allTokensIndex[tokenId] */\n                  0x20\n                  mstore\n                  0x40\n                  dup2\n                  keccak256\n                  sload\n                    /* \"@openzeppelin/contracts/token/ERC721/extensions/ERC721Enumerable.sol\":6565:6575  _allTokens */\n                  0x08\n                    /* \"@openzeppelin/contracts/token/ERC721/extensions/ERC721Enumerable.sol\":6565:6591  _allTokens[lastTokenIndex] */\n                  dup1\n                  sload\n                    /* \"@openzeppelin/contracts/token/ERC721/extensions/ERC721Enumerable.sol\":6120:6166  uint256 lastTokenIndex = _allTokens.length - 1 */\n                  swap4\n                  swap5\n                  pop\n                    /* \"@openzeppelin/contracts/token/ERC721/extensions/ERC721Enumerable.sol\":6197:6221  _allTokensIndex[tokenId] */\n                  swap1\n                  swap3\n                    /* \"@openzeppelin/contracts/token/ERC721/extensions/ERC721Enumerable.sol\":6120:6166  uint256 lastTokenIndex = _allTokens.length - 1 */\n                  dup5\n                  swap1\n                    /* \"@openzeppelin/contracts/token/ERC721/extensions/ERC721Enumerable.sol\":6565:6591  _allTokens[lastTokenIndex] */\n                  dup2\n                  lt\n                  tag_330\n                  jumpi\n                  tag_330\n                  tag_146\n                  jump\t// in\n                tag_330:\n                  swap1\n                  0x00\n                  mstore\n                  keccak256(0x00, 0x20)\n                  add\n                  sload\n                    /* \"@openzeppelin/contracts/token/ERC721/extensions/ERC721Enumerable.sol\":6543:6591  uint256 lastTokenId = _allTokens[lastTokenIndex] */\n                  swap1\n                  pop\n                    /* \"@openzeppelin/contracts/token/ERC721/extensions/ERC721Enumerable.sol\":6627:6638  lastTokenId */\n                  dup1\n                    /* \"@openzeppelin/contracts/token/ERC721/extensions/ERC721Enumerable.sol\":6602:6612  _allTokens */\n                  0x08\n                    /* \"@openzeppelin/contracts/token/ERC721/extensions/ERC721Enumerable.sol\":6613:6623  tokenIndex */\n                  dup4\n                    /* \"@openzeppelin/contracts/token/ERC721/extensions/ERC721Enumerable.sol\":6602:6624  _allTokens[tokenIndex] */\n                  dup2\n                  sload\n                  dup2\n                  lt\n                  tag_333\n                  jumpi\n                  tag_333\n                  tag_146\n                  jump\t// in\n                tag_333:\n                  0x00\n                  swap2\n                  dup3\n                  mstore\n                  0x20\n                  dup1\n                  dup4\n                  keccak256\n                  swap1\n                  swap2\n                  add\n                    /* \"@openzeppelin/contracts/token/ERC721/extensions/ERC721Enumerable.sol\":6602:6638  _allTokens[tokenIndex] = lastTokenId */\n                  swap3\n                  swap1\n                  swap3\n                  sstore\n                    /* \"@openzeppelin/contracts/token/ERC721/extensions/ERC721Enumerable.sol\":6706:6734  _allTokensIndex[lastTokenId] */\n                  dup3\n                  dup2\n                  mstore\n                    /* \"@openzeppelin/contracts/token/ERC721/extensions/ERC721Enumerable.sol\":6706:6721  _allTokensIndex */\n                  0x09\n                    /* \"@openzeppelin/contracts/token/ERC721/extensions/ERC721Enumerable.sol\":6706:6734  _allTokensIndex[lastTokenId] */\n                  swap1\n                  swap2\n                  mstore\n                  0x40\n                  dup1\n                  dup3\n                  keccak256\n                    /* \"@openzeppelin/contracts/token/ERC721/extensions/ERC721Enumerable.sol\":6706:6747  _allTokensIndex[lastTokenId] = tokenIndex */\n                  dup5\n                  swap1\n                  sstore\n                    /* \"@openzeppelin/contracts/token/ERC721/extensions/ERC721Enumerable.sol\":6875:6899  _allTokensIndex[tokenId] */\n                  dup6\n                  dup3\n                  mstore\n                  dup2\n                  keccak256\n                    /* \"@openzeppelin/contracts/token/ERC721/extensions/ERC721Enumerable.sol\":6868:6899  delete _allTokensIndex[tokenId] */\n                  sstore\n                    /* \"@openzeppelin/contracts/token/ERC721/extensions/ERC721Enumerable.sol\":6909:6919  _allTokens */\n                  0x08\n                    /* \"@openzeppelin/contracts/token/ERC721/extensions/ERC721Enumerable.sol\":6909:6925  _allTokens.pop() */\n                  dup1\n                  sload\n                  dup1\n                  tag_336\n                  jumpi\n                  tag_336\n                  tag_337\n                  jump\t// in\n                tag_336:\n                  0x01\n                  swap1\n                  sub\n                  dup2\n                  dup2\n                  swap1\n                  0x00\n                  mstore\n                  keccak256(0x00, 0x20)\n                  add\n                  0x00\n                  swap1\n                  sstore\n                  swap1\n                  sstore\n                    /* \"@openzeppelin/contracts/token/ERC721/extensions/ERC721Enumerable.sol\":5942:6932  {... */\n                  pop\n                  pop\n                  pop\n                    /* \"@openzeppelin/contracts/token/ERC721/extensions/ERC721Enumerable.sol\":5871:6932  function _removeTokenFromAllTokensEnumeration(uint256 tokenId) private {... */\n                  pop\n                  jump\t// out\n                    /* \"@openzeppelin/contracts/token/ERC721/extensions/ERC721Enumerable.sol\":3437:3651  function _addTokenToOwnerEnumeration(address to, uint256 tokenId) private {... */\n                tag_294:\n                    /* \"@openzeppelin/contracts/token/ERC721/extensions/ERC721Enumerable.sol\":3521:3535  uint256 length */\n                  0x00\n                    /* \"@openzeppelin/contracts/token/ERC721/extensions/ERC721Enumerable.sol\":3554:3555  1 */\n                  0x01\n                    /* \"@openzeppelin/contracts/token/ERC721/extensions/ERC721Enumerable.sol\":3538:3551  balanceOf(to) */\n                  tag_340\n                    /* \"@openzeppelin/contracts/token/ERC721/extensions/ERC721Enumerable.sol\":3548:3550  to */\n                  dup5\n                    /* \"@openzeppelin/contracts/token/ERC721/extensions/ERC721Enumerable.sol\":3538:3547  balanceOf */\n                  tag_69\n                    /* \"@openzeppelin/contracts/token/ERC721/extensions/ERC721Enumerable.sol\":3538:3551  balanceOf(to) */\n                  jump\t// in\n                tag_340:\n                    /* \"@openzeppelin/contracts/token/ERC721/extensions/ERC721Enumerable.sol\":3538:3555  balanceOf(to) - 1 */\n                  tag_341\n                  swap2\n                  swap1\n                  tag_328\n                  jump\t// in\n                tag_341:\n                  sub(shl(0xa0, 0x01), 0x01)\n                    /* \"@openzeppelin/contracts/token/ERC721/extensions/ERC721Enumerable.sol\":3565:3581  _ownedTokens[to] */\n                  swap1\n                  swap4\n                  and\n                  0x00\n                  swap1\n                  dup2\n                  mstore\n                    /* \"@openzeppelin/contracts/token/ERC721/extensions/ERC721Enumerable.sol\":3565:3577  _ownedTokens */\n                  0x06\n                    /* \"@openzeppelin/contracts/token/ERC721/extensions/ERC721Enumerable.sol\":3565:3581  _ownedTokens[to] */\n                  0x20\n                  swap1\n                  dup2\n                  mstore\n                  0x40\n                  dup1\n                  dup4\n                  keccak256\n                    /* \"@openzeppelin/contracts/token/ERC721/extensions/ERC721Enumerable.sol\":3565:3589  _ownedTokens[to][length] */\n                  dup7\n                  dup5\n                  mstore\n                  dup3\n                  mstore\n                  dup1\n                  dup4\n                  keccak256\n                    /* \"@openzeppelin/contracts/token/ERC721/extensions/ERC721Enumerable.sol\":3565:3599  _ownedTokens[to][length] = tokenId */\n                  dup6\n                  swap1\n                  sstore\n                    /* \"@openzeppelin/contracts/token/ERC721/extensions/ERC721Enumerable.sol\":3609:3635  _ownedTokensIndex[tokenId] */\n                  swap4\n                  dup3\n                  mstore\n                    /* \"@openzeppelin/contracts/token/ERC721/extensions/ERC721Enumerable.sol\":3609:3626  _ownedTokensIndex */\n                  0x07\n                    /* \"@openzeppelin/contracts/token/ERC721/extensions/ERC721Enumerable.sol\":3609:3635  _ownedTokensIndex[tokenId] */\n                  swap1\n                  mstore\n                  swap2\n                  swap1\n                  swap2\n                  keccak256\n                    /* \"@openzeppelin/contracts/token/ERC721/extensions/ERC721Enumerable.sol\":3609:3644  _ownedTokensIndex[tokenId] = length */\n                  swap2\n                  swap1\n                  swap2\n                  sstore\n                  pop\n                    /* \"@openzeppelin/contracts/token/ERC721/extensions/ERC721Enumerable.sol\":3437:3651  function _addTokenToOwnerEnumeration(address to, uint256 tokenId) private {... */\n                  jump\t// out\n                    /* \"@openzeppelin/contracts/utils/Strings.sol\":637:1335  function toString(uint256 value) internal pure returns (string memory) {... */\n                tag_302:\n                    /* \"@openzeppelin/contracts/utils/Strings.sol\":693:706  string memory */\n                  0x60\n                    /* \"@openzeppelin/contracts/utils/Strings.sol\":742:756  uint256 length */\n                  0x00\n                    /* \"@openzeppelin/contracts/utils/Strings.sol\":759:776  Math.log10(value) */\n                  tag_343\n                    /* \"@openzeppelin/contracts/utils/Strings.sol\":770:775  value */\n                  dup4\n                    /* \"@openzeppelin/contracts/utils/Strings.sol\":759:769  Math.log10 */\n                  tag_344\n                    /* \"@openzeppelin/contracts/utils/Strings.sol\":759:776  Math.log10(value) */\n                  jump\t// in\n                tag_343:\n                    /* \"@openzeppelin/contracts/utils/Strings.sol\":779:780  1 */\n                  0x01\n                    /* \"@openzeppelin/contracts/utils/Strings.sol\":759:780  Math.log10(value) + 1 */\n                  add\n                    /* \"@openzeppelin/contracts/utils/Strings.sol\":742:780  uint256 length = Math.log10(value) + 1 */\n                  swap1\n                  pop\n                    /* \"@openzeppelin/contracts/utils/Strings.sol\":794:814  string memory buffer */\n                  0x00\n                    /* \"@openzeppelin/contracts/utils/Strings.sol\":828:834  length */\n                  dup2\n                  sub(shl(0x40, 0x01), 0x01)\n                    /* \"@openzeppelin/contracts/utils/Strings.sol\":817:835  new string(length) */\n                  dup2\n                  gt\n                  iszero\n                  tag_346\n                  jumpi\n                  tag_346\n                  tag_347\n                  jump\t// in\n                tag_346:\n                  mload(0x40)\n                  swap1\n                  dup1\n                  dup3\n                  mstore\n                  dup1\n                  0x1f\n                  add\n                  not(0x1f)\n                  and\n                  0x20\n                  add\n                  dup3\n                  add\n                  0x40\n                  mstore\n                  dup1\n                  iszero\n                  tag_348\n                  jumpi\n                  0x20\n                  dup3\n                  add\n                  dup2\n                  dup1\n                  calldatasize\n                  dup4\n                  calldatacopy\n                  add\n                  swap1\n                  pop\n                tag_348:\n                  pop\n                    /* \"@openzeppelin/contracts/utils/Strings.sol\":794:835  string memory buffer = new string(length) */\n                  swap1\n                  pop\n                    /* \"@openzeppelin/contracts/utils/Strings.sol\":955:983  add(buffer, add(32, length)) */\n                  dup2\n                  dup2\n                  add\n                    /* \"@openzeppelin/contracts/utils/Strings.sol\":971:973  32 */\n                  0x20\n                    /* \"@openzeppelin/contracts/utils/Strings.sol\":955:983  add(buffer, add(32, length)) */\n                  add\n                    /* \"@openzeppelin/contracts/utils/Strings.sol\":1010:1292  while (true) {... */\n                tag_349:\n                  not(0x00)\n                    /* \"@openzeppelin/contracts/utils/Strings.sol\":1041:1046  ptr-- */\n                  add\n                  shl(0x81, 0x181899199a1a9b1b9c1cb0b131b232b3)\n                    /* \"@openzeppelin/contracts/utils/Strings.sol\":1175:1177  10 */\n                  0x0a\n                    /* \"@openzeppelin/contracts/utils/Strings.sol\":1164:1178  mod(value, 10) */\n                  dup7\n                  mod\n                    /* \"@openzeppelin/contracts/utils/Strings.sol\":1159:1191  byte(mod(value, 10), HEX_DIGITS) */\n                  byte\n                    /* \"@openzeppelin/contracts/utils/Strings.sol\":1041:1046  ptr-- */\n                  dup2\n                    /* \"@openzeppelin/contracts/utils/Strings.sol\":1146:1192  mstore8(ptr, byte(mod(value, 10), HEX_DIGITS)) */\n                  mstore8\n                    /* \"@openzeppelin/contracts/utils/Strings.sol\":1236:1238  10 */\n                  0x0a\n                    /* \"@openzeppelin/contracts/utils/Strings.sol\":1227:1238  value /= 10 */\n                  dup6\n                  div\n                  swap5\n                  pop\n                    /* \"@openzeppelin/contracts/utils/Strings.sol\":1256:1277  if (value == 0) break */\n                  dup5\n                    /* \"@openzeppelin/contracts/utils/Strings.sol\":1010:1292  while (true) {... */\n                  tag_349\n                    /* \"@openzeppelin/contracts/utils/Strings.sol\":1256:1277  if (value == 0) break */\n                  jumpi\n                  pop\n                    /* \"@openzeppelin/contracts/utils/Strings.sol\":1312:1318  buffer */\n                  swap4\n                    /* \"@openzeppelin/contracts/utils/Strings.sol\":637:1335  function toString(uint256 value) internal pure returns (string memory) {... */\n                  swap3\n                  pop\n                  pop\n                  pop\n                  jump\t// out\n                    /* \"@openzeppelin/contracts/token/ERC721/ERC721.sol\":9955:10282  function _mint(address to, uint256 tokenId) internal {... */\n                tag_306:\n                  sub(shl(0xa0, 0x01), 0x01)\n                    /* \"@openzeppelin/contracts/token/ERC721/ERC721.sol\":10022:10038  to == address(0) */\n                  dup3\n                  and\n                    /* \"@openzeppelin/contracts/token/ERC721/ERC721.sol\":10018:10105  if (to == address(0)) {... */\n                  tag_356\n                  jumpi\n                    /* \"@openzeppelin/contracts/token/ERC721/ERC721.sol\":10091:10092  0 */\n                  0x00\n                    /* \"@openzeppelin/contracts/token/ERC721/ERC721.sol\":10061:10094  ERC721InvalidReceiver(address(0)) */\n                  mload(0x40)\n                  shl(0xe1, 0x32505749)\n                  dup2\n                  mstore\n                  0x04\n                  add\n                  tag_126\n                  swap2\n                  swap1\n                  tag_38\n                  jump\t// in\n                    /* \"@openzeppelin/contracts/token/ERC721/ERC721.sol\":10018:10105  if (to == address(0)) {... */\n                tag_356:\n                    /* \"@openzeppelin/contracts/token/ERC721/ERC721.sol\":10114:10135  address previousOwner */\n                  0x00\n                    /* \"@openzeppelin/contracts/token/ERC721/ERC721.sol\":10138:10170  _update(to, tokenId, address(0)) */\n                  tag_358\n                    /* \"@openzeppelin/contracts/token/ERC721/ERC721.sol\":10146:10148  to */\n                  dup4\n                    /* \"@openzeppelin/contracts/token/ERC721/ERC721.sol\":10150:10157  tokenId */\n                  dup4\n                    /* \"@openzeppelin/contracts/token/ERC721/ERC721.sol\":10167:10168  0 */\n                  0x00\n                    /* \"@openzeppelin/contracts/token/ERC721/ERC721.sol\":10138:10145  _update */\n                  tag_129\n                    /* \"@openzeppelin/contracts/token/ERC721/ERC721.sol\":10138:10170  _update(to, tokenId, address(0)) */\n                  jump\t// in\n                tag_358:\n                    /* \"@openzeppelin/contracts/token/ERC721/ERC721.sol\":10114:10170  address previousOwner = _update(to, tokenId, address(0)) */\n                  swap1\n                  pop\n                  sub(shl(0xa0, 0x01), 0x01)\n                    /* \"@openzeppelin/contracts/token/ERC721/ERC721.sol\":10184:10211  previousOwner != address(0) */\n                  dup2\n                  and\n                  iszero\n                    /* \"@openzeppelin/contracts/token/ERC721/ERC721.sol\":10180:10276  if (previousOwner != address(0)) {... */\n                  tag_139\n                  jumpi\n                    /* \"@openzeppelin/contracts/token/ERC721/ERC721.sol\":10262:10263  0 */\n                  0x00\n                    /* \"@openzeppelin/contracts/token/ERC721/ERC721.sol\":10234:10265  ERC721InvalidSender(address(0)) */\n                  mload(0x40)\n                  shl(0xe1, 0x39e35637)\n                  dup2\n                  mstore\n                  0x04\n                  add\n                  tag_126\n                  swap2\n                  swap1\n                  tag_38\n                  jump\t// in\n                    /* \"@openzeppelin/contracts/token/ERC721/ERC721.sol\":7082:7450  function _checkAuthorized(address owner, address spender, uint256 tokenId) internal view virtual {... */\n                tag_317:\n                    /* \"@openzeppelin/contracts/token/ERC721/ERC721.sol\":7194:7232  _isAuthorized(owner, spender, tokenId) */\n                  tag_363\n                    /* \"@openzeppelin/contracts/token/ERC721/ERC721.sol\":7208:7213  owner */\n                  dup4\n                    /* \"@openzeppelin/contracts/token/ERC721/ERC721.sol\":7215:7222  spender */\n                  dup4\n                    /* \"@openzeppelin/contracts/token/ERC721/ERC721.sol\":7224:7231  tokenId */\n                  dup4\n                    /* \"@openzeppelin/contracts/token/ERC721/ERC721.sol\":7194:7207  _isAuthorized */\n                  tag_364\n                    /* \"@openzeppelin/contracts/token/ERC721/ERC721.sol\":7194:7232  _isAuthorized(owner, spender, tokenId) */\n                  jump\t// in\n                tag_363:\n                    /* \"@openzeppelin/contracts/token/ERC721/ERC721.sol\":7189:7444  if (!_isAuthorized(owner, spender, tokenId)) {... */\n                  tag_139\n                  jumpi\n                  sub(shl(0xa0, 0x01), 0x01)\n                    /* \"@openzeppelin/contracts/token/ERC721/ERC721.sol\":7252:7271  owner == address(0) */\n                  dup4\n                  and\n                    /* \"@openzeppelin/contracts/token/ERC721/ERC721.sol\":7248:7434  if (owner == address(0)) {... */\n                  tag_366\n                  jumpi\n                    /* \"@openzeppelin/contracts/token/ERC721/ERC721.sol\":7298:7329  ERC721NonexistentToken(tokenId) */\n                  mload(0x40)\n                  shl(0xe0, 0x7e273289)\n                  dup2\n                  mstore\n                  0x04\n                  dup2\n                  add\n                    /* \"#utility.yul\":2324:2349   */\n                  dup3\n                  swap1\n                  mstore\n                    /* \"#utility.yul\":2297:2315   */\n                  0x24\n                  add\n                    /* \"@openzeppelin/contracts/token/ERC721/ERC721.sol\":7298:7329  ERC721NonexistentToken(tokenId) */\n                  tag_126\n                    /* \"#utility.yul\":2178:2355   */\n                  jump\n                    /* \"@openzeppelin/contracts/token/ERC721/ERC721.sol\":7248:7434  if (owner == address(0)) {... */\n                tag_366:\n                    /* \"@openzeppelin/contracts/token/ERC721/ERC721.sol\":7402:7409  spender */\n                  dup2\n                    /* \"@openzeppelin/contracts/token/ERC721/ERC721.sol\":7411:7418  tokenId */\n                  dup2\n                    /* \"@openzeppelin/contracts/token/ERC721/ERC721.sol\":7375:7419  ERC721InsufficientApproval(spender, tokenId) */\n                  mload(0x40)\n                  shl(0xe0, 0x177e802f)\n                  dup2\n                  mstore\n                  0x04\n                  add\n                  tag_126\n                  swap3\n                  swap2\n                  swap1\n                  tag_137\n                  jump\t// in\n                    /* \"@openzeppelin/contracts/utils/math/Math.sol\":12214:13130  function log10(uint256 value) internal pure returns (uint256) {... */\n                tag_344:\n                    /* \"@openzeppelin/contracts/utils/math/Math.sol\":12267:12274  uint256 */\n                  0x00\n                  dup1\n                  shl(0x40, 0x184f03e93ff9f4daa797ed6e38ed64bf6a1f01)\n                    /* \"@openzeppelin/contracts/utils/math/Math.sol\":12342:12359  value >= 10 ** 64 */\n                  dup4\n                  lt\n                    /* \"@openzeppelin/contracts/utils/math/Math.sol\":12338:12441  if (value >= 10 ** 64) {... */\n                  tag_371\n                  jumpi\n                  shl(0x40, 0x184f03e93ff9f4daa797ed6e38ed64bf6a1f01)\n                    /* \"@openzeppelin/contracts/utils/math/Math.sol\":12379:12396  value /= 10 ** 64 */\n                  dup4\n                  div\n                  swap3\n                  pop\n                    /* \"@openzeppelin/contracts/utils/math/Math.sol\":12424:12426  64 */\n                  0x40\n                    /* \"@openzeppelin/contracts/utils/math/Math.sol\":12414:12426  result += 64 */\n                  add\n                    /* \"@openzeppelin/contracts/utils/math/Math.sol\":12338:12441  if (value >= 10 ** 64) {... */\n                tag_371:\n                  shl(0x20, 0x04ee2d6d415b85acef81)\n                    /* \"@openzeppelin/contracts/utils/math/Math.sol\":12458:12463  value */\n                  dup4\n                    /* \"@openzeppelin/contracts/utils/math/Math.sol\":12458:12475  value >= 10 ** 32 */\n                  lt\n                    /* \"@openzeppelin/contracts/utils/math/Math.sol\":12454:12557  if (value >= 10 ** 32) {... */\n                  tag_374\n                  jumpi\n                  shl(0x20, 0x04ee2d6d415b85acef81)\n                    /* \"@openzeppelin/contracts/utils/math/Math.sol\":12495:12512  value /= 10 ** 32 */\n                  dup4\n                  div\n                  swap3\n                  pop\n                    /* \"@openzeppelin/contracts/utils/math/Math.sol\":12540:12542  32 */\n                  0x20\n                    /* \"@openzeppelin/contracts/utils/math/Math.sol\":12530:12542  result += 32 */\n                  add\n                    /* \"@openzeppelin/contracts/utils/math/Math.sol\":12454:12557  if (value >= 10 ** 32) {... */\n                tag_374:\n                    /* \"@openzeppelin/contracts/utils/math/Math.sol\":12583:12591  10 ** 16 */\n                  0x2386f26fc10000\n                    /* \"@openzeppelin/contracts/utils/math/Math.sol\":12574:12579  value */\n                  dup4\n                    /* \"@openzeppelin/contracts/utils/math/Math.sol\":12574:12591  value >= 10 ** 16 */\n                  lt\n                    /* \"@openzeppelin/contracts/utils/math/Math.sol\":12570:12673  if (value >= 10 ** 16) {... */\n                  tag_377\n                  jumpi\n                    /* \"@openzeppelin/contracts/utils/math/Math.sol\":12620:12628  10 ** 16 */\n                  0x2386f26fc10000\n                    /* \"@openzeppelin/contracts/utils/math/Math.sol\":12611:12628  value /= 10 ** 16 */\n                  dup4\n                  div\n                  swap3\n                  pop\n                    /* \"@openzeppelin/contracts/utils/math/Math.sol\":12656:12658  16 */\n                  0x10\n                    /* \"@openzeppelin/contracts/utils/math/Math.sol\":12646:12658  result += 16 */\n                  add\n                    /* \"@openzeppelin/contracts/utils/math/Math.sol\":12570:12673  if (value >= 10 ** 16) {... */\n                tag_377:\n                    /* \"@openzeppelin/contracts/utils/math/Math.sol\":12699:12706  10 ** 8 */\n                  0x05f5e100\n                    /* \"@openzeppelin/contracts/utils/math/Math.sol\":12690:12695  value */\n                  dup4\n                    /* \"@openzeppelin/contracts/utils/math/Math.sol\":12690:12706  value >= 10 ** 8 */\n                  lt\n                    /* \"@openzeppelin/contracts/utils/math/Math.sol\":12686:12786  if (value >= 10 ** 8) {... */\n                  tag_380\n                  jumpi\n                    /* \"@openzeppelin/contracts/utils/math/Math.sol\":12735:12742  10 ** 8 */\n                  0x05f5e100\n                    /* \"@openzeppelin/contracts/utils/math/Math.sol\":12726:12742  value /= 10 ** 8 */\n                  dup4\n                  div\n                  swap3\n                  pop\n                    /* \"@openzeppelin/contracts/utils/math/Math.sol\":12770:12771  8 */\n                  0x08\n                    /* \"@openzeppelin/contracts/utils/math/Math.sol\":12760:12771  result += 8 */\n                  add\n                    /* \"@openzeppelin/contracts/utils/math/Math.sol\":12686:12786  if (value >= 10 ** 8) {... */\n                tag_380:\n                    /* \"@openzeppelin/contracts/utils/math/Math.sol\":12812:12819  10 ** 4 */\n                  0x2710\n                    /* \"@openzeppelin/contracts/utils/math/Math.sol\":12803:12808  value */\n                  dup4\n                    /* \"@openzeppelin/contracts/utils/math/Math.sol\":12803:12819  value >= 10 ** 4 */\n                  lt\n                    /* \"@openzeppelin/contracts/utils/math/Math.sol\":12799:12899  if (value >= 10 ** 4) {... */\n                  tag_383\n                  jumpi\n                    /* \"@openzeppelin/contracts/utils/math/Math.sol\":12848:12855  10 ** 4 */\n                  0x2710\n                    /* \"@openzeppelin/contracts/utils/math/Math.sol\":12839:12855  value /= 10 ** 4 */\n                  dup4\n                  div\n                  swap3\n                  pop\n                    /* \"@openzeppelin/contracts/utils/math/Math.sol\":12883:12884  4 */\n                  0x04\n                    /* \"@openzeppelin/contracts/utils/math/Math.sol\":12873:12884  result += 4 */\n                  add\n                    /* \"@openzeppelin/contracts/utils/math/Math.sol\":12799:12899  if (value >= 10 ** 4) {... */\n                tag_383:\n                    /* \"@openzeppelin/contracts/utils/math/Math.sol\":12925:12932  10 ** 2 */\n                  0x64\n                    /* \"@openzeppelin/contracts/utils/math/Math.sol\":12916:12921  value */\n                  dup4\n                    /* \"@openzeppelin/contracts/utils/math/Math.sol\":12916:12932  value >= 10 ** 2 */\n                  lt\n                    /* \"@openzeppelin/contracts/utils/math/Math.sol\":12912:13012  if (value >= 10 ** 2) {... */\n                  tag_386\n                  jumpi\n                    /* \"@openzeppelin/contracts/utils/math/Math.sol\":12961:12968  10 ** 2 */\n                  0x64\n                    /* \"@openzeppelin/contracts/utils/math/Math.sol\":12952:12968  value /= 10 ** 2 */\n                  dup4\n                  div\n                  swap3\n                  pop\n                    /* \"@openzeppelin/contracts/utils/math/Math.sol\":12996:12997  2 */\n                  0x02\n                    /* \"@openzeppelin/contracts/utils/math/Math.sol\":12986:12997  result += 2 */\n                  add\n                    /* \"@openzeppelin/contracts/utils/math/Math.sol\":12912:13012  if (value >= 10 ** 2) {... */\n                tag_386:\n                    /* \"@openzeppelin/contracts/utils/math/Math.sol\":13038:13045  10 ** 1 */\n                  0x0a\n                    /* \"@openzeppelin/contracts/utils/math/Math.sol\":13029:13034  value */\n                  dup4\n                    /* \"@openzeppelin/contracts/utils/math/Math.sol\":13029:13045  value >= 10 ** 1 */\n                  lt\n                    /* \"@openzeppelin/contracts/utils/math/Math.sol\":13025:13091  if (value >= 10 ** 1) {... */\n                  tag_104\n                  jumpi\n                    /* \"@openzeppelin/contracts/utils/math/Math.sol\":13075:13076  1 */\n                  0x01\n                    /* \"@openzeppelin/contracts/utils/math/Math.sol\":13065:13076  result += 1 */\n                  add\n                    /* \"@openzeppelin/contracts/utils/math/Math.sol\":13117:13123  result */\n                  swap3\n                    /* \"@openzeppelin/contracts/utils/math/Math.sol\":12214:13130  function log10(uint256 value) internal pure returns (uint256) {... */\n                  swap2\n                  pop\n                  pop\n                  jump\t// out\n                    /* \"@openzeppelin/contracts/token/ERC721/ERC721.sol\":6376:6648  function _isAuthorized(address owner, address spender, uint256 tokenId) internal view virtual returns (bool) {... */\n                tag_364:\n                    /* \"@openzeppelin/contracts/token/ERC721/ERC721.sol\":6479:6483  bool */\n                  0x00\n                  sub(shl(0xa0, 0x01), 0x01)\n                    /* \"@openzeppelin/contracts/token/ERC721/ERC721.sol\":6514:6535  spender != address(0) */\n                  dup4\n                  and\n                  iszero\n                  dup1\n                  iszero\n                  swap1\n                    /* \"@openzeppelin/contracts/token/ERC721/ERC721.sol\":6514:6641  spender != address(0) &&... */\n                  tag_208\n                  jumpi\n                  pop\n                    /* \"@openzeppelin/contracts/token/ERC721/ERC721.sol\":6561:6568  spender */\n                  dup3\n                  sub(shl(0xa0, 0x01), 0x01)\n                    /* \"@openzeppelin/contracts/token/ERC721/ERC721.sol\":6552:6568  owner == spender */\n                  and\n                    /* \"@openzeppelin/contracts/token/ERC721/ERC721.sol\":6552:6557  owner */\n                  dup5\n                  sub(shl(0xa0, 0x01), 0x01)\n                    /* \"@openzeppelin/contracts/token/ERC721/ERC721.sol\":6552:6568  owner == spender */\n                  and\n                  eq\n                    /* \"@openzeppelin/contracts/token/ERC721/ERC721.sol\":6552:6604  owner == spender || isApprovedForAll(owner, spender) */\n                  dup1\n                  tag_393\n                  jumpi\n                  pop\n                    /* \"@openzeppelin/contracts/token/ERC721/ERC721.sol\":6572:6604  isApprovedForAll(owner, spender) */\n                  tag_393\n                    /* \"@openzeppelin/contracts/token/ERC721/ERC721.sol\":6589:6594  owner */\n                  dup5\n                    /* \"@openzeppelin/contracts/token/ERC721/ERC721.sol\":6596:6603  spender */\n                  dup5\n                    /* \"@openzeppelin/contracts/token/ERC721/ERC721.sol\":6572:6588  isApprovedForAll */\n                  tag_98\n                    /* \"@openzeppelin/contracts/token/ERC721/ERC721.sol\":6572:6604  isApprovedForAll(owner, spender) */\n                  jump\t// in\n                tag_393:\n                    /* \"@openzeppelin/contracts/token/ERC721/ERC721.sol\":6552:6640  owner == spender || isApprovedForAll(owner, spender) || _getApproved(tokenId) == spender */\n                  dup1\n                  tag_208\n                  jumpi\n                  pop\n                    /* \"@openzeppelin/contracts/token/ERC721/ERC721.sol\":6633:6640  spender */\n                  dup3\n                  sub(shl(0xa0, 0x01), 0x01)\n                    /* \"@openzeppelin/contracts/token/ERC721/ERC721.sol\":6608:6640  _getApproved(tokenId) == spender */\n                  and\n                    /* \"@openzeppelin/contracts/token/ERC721/ERC721.sol\":6608:6629  _getApproved(tokenId) */\n                  tag_395\n                    /* \"@openzeppelin/contracts/token/ERC721/ERC721.sol\":6621:6628  tokenId */\n                  dup4\n                    /* \"@openzeppelin/contracts/token/ERC721/ERC721.sol\":6608:6620  _getApproved */\n                  tag_117\n                    /* \"@openzeppelin/contracts/token/ERC721/ERC721.sol\":6608:6629  _getApproved(tokenId) */\n                  jump\t// in\n                tag_395:\n                  sub(shl(0xa0, 0x01), 0x01)\n                    /* \"@openzeppelin/contracts/token/ERC721/ERC721.sol\":6608:6640  _getApproved(tokenId) == spender */\n                  and\n                  eq\n                  swap5\n                    /* \"@openzeppelin/contracts/token/ERC721/ERC721.sol\":6376:6648  function _isAuthorized(address owner, address spender, uint256 tokenId) internal view virtual returns (bool) {... */\n                  swap4\n                  pop\n                  pop\n                  pop\n                  pop\n                  jump\t// out\n                    /* \"#utility.yul\":14:145   */\n                tag_396:\n                  not(sub(shl(0xe0, 0x01), 0x01))\n                    /* \"#utility.yul\":88:120   */\n                  dup2\n                  and\n                    /* \"#utility.yul\":78:121   */\n                  dup2\n                  eq\n                    /* \"#utility.yul\":68:139   */\n                  tag_192\n                  jumpi\n                    /* \"#utility.yul\":135:136   */\n                  0x00\n                    /* \"#utility.yul\":132:133   */\n                  dup1\n                    /* \"#utility.yul\":125:137   */\n                  revert\n                    /* \"#utility.yul\":150:395   */\n                tag_25:\n                    /* \"#utility.yul\":208:214   */\n                  0x00\n                    /* \"#utility.yul\":261:263   */\n                  0x20\n                    /* \"#utility.yul\":249:258   */\n                  dup3\n                    /* \"#utility.yul\":240:247   */\n                  dup5\n                    /* \"#utility.yul\":236:259   */\n                  sub\n                    /* \"#utility.yul\":232:264   */\n                  slt\n                    /* \"#utility.yul\":229:281   */\n                  iszero\n                  tag_409\n                  jumpi\n                    /* \"#utility.yul\":277:278   */\n                  0x00\n                    /* \"#utility.yul\":274:275   */\n                  dup1\n                    /* \"#utility.yul\":267:279   */\n                  revert\n                    /* \"#utility.yul\":229:281   */\n                tag_409:\n                    /* \"#utility.yul\":316:325   */\n                  dup2\n                    /* \"#utility.yul\":303:326   */\n                  calldataload\n                    /* \"#utility.yul\":335:365   */\n                  tag_300\n                    /* \"#utility.yul\":359:364   */\n                  dup2\n                    /* \"#utility.yul\":335:365   */\n                  tag_396\n                  jump\t// in\n                    /* \"#utility.yul\":592:842   */\n                tag_397:\n                    /* \"#utility.yul\":677:678   */\n                  0x00\n                    /* \"#utility.yul\":687:800   */\n                tag_413:\n                    /* \"#utility.yul\":701:707   */\n                  dup4\n                    /* \"#utility.yul\":698:699   */\n                  dup2\n                    /* \"#utility.yul\":695:708   */\n                  lt\n                    /* \"#utility.yul\":687:800   */\n                  iszero\n                  tag_415\n                  jumpi\n                    /* \"#utility.yul\":777:788   */\n                  dup2\n                  dup2\n                  add\n                    /* \"#utility.yul\":771:789   */\n                  mload\n                    /* \"#utility.yul\":758:769   */\n                  dup4\n                  dup3\n                  add\n                    /* \"#utility.yul\":751:790   */\n                  mstore\n                    /* \"#utility.yul\":723:725   */\n                  0x20\n                    /* \"#utility.yul\":716:726   */\n                  add\n                    /* \"#utility.yul\":687:800   */\n                  jump(tag_413)\n                tag_415:\n                  pop\n                  pop\n                    /* \"#utility.yul\":834:835   */\n                  0x00\n                    /* \"#utility.yul\":816:832   */\n                  swap2\n                  add\n                    /* \"#utility.yul\":809:836   */\n                  mstore\n                    /* \"#utility.yul\":592:842   */\n                  jump\t// out\n                    /* \"#utility.yul\":847:1118   */\n                tag_398:\n                    /* \"#utility.yul\":889:892   */\n                  0x00\n                    /* \"#utility.yul\":927:932   */\n                  dup2\n                    /* \"#utility.yul\":921:933   */\n                  mload\n                    /* \"#utility.yul\":954:960   */\n                  dup1\n                    /* \"#utility.yul\":949:952   */\n                  dup5\n                    /* \"#utility.yul\":942:961   */\n                  mstore\n                    /* \"#utility.yul\":970:1046   */\n                  tag_417\n                    /* \"#utility.yul\":1039:1045   */\n                  dup2\n                    /* \"#utility.yul\":1032:1036   */\n                  0x20\n                    /* \"#utility.yul\":1027:1030   */\n                  dup7\n                    /* \"#utility.yul\":1023:1037   */\n                  add\n                    /* \"#utility.yul\":1016:1020   */\n                  0x20\n                    /* \"#utility.yul\":1009:1014   */\n                  dup7\n                    /* \"#utility.yul\":1005:1021   */\n                  add\n                    /* \"#utility.yul\":970:1046   */\n                  tag_397\n                  jump\t// in\n                tag_417:\n                    /* \"#utility.yul\":1100:1102   */\n                  0x1f\n                    /* \"#utility.yul\":1079:1094   */\n                  add\n                  not(0x1f)\n                    /* \"#utility.yul\":1075:1104   */\n                  and\n                    /* \"#utility.yul\":1066:1105   */\n                  swap3\n                  swap1\n                  swap3\n                  add\n                    /* \"#utility.yul\":1107:1111   */\n                  0x20\n                    /* \"#utility.yul\":1062:1112   */\n                  add\n                  swap3\n                    /* \"#utility.yul\":847:1118   */\n                  swap2\n                  pop\n                  pop\n                  jump\t// out\n                    /* \"#utility.yul\":1123:1343   */\n                tag_32:\n                    /* \"#utility.yul\":1272:1274   */\n                  0x20\n                    /* \"#utility.yul\":1261:1270   */\n                  dup2\n                    /* \"#utility.yul\":1254:1275   */\n                  mstore\n                    /* \"#utility.yul\":1235:1239   */\n                  0x00\n                    /* \"#utility.yul\":1292:1337   */\n                  tag_300\n                    /* \"#utility.yul\":1333:1335   */\n                  0x20\n                    /* \"#utility.yul\":1322:1331   */\n                  dup4\n                    /* \"#utility.yul\":1318:1336   */\n                  add\n                    /* \"#utility.yul\":1310:1316   */\n                  dup5\n                    /* \"#utility.yul\":1292:1337   */\n                  tag_398\n                  jump\t// in\n                    /* \"#utility.yul\":1348:1528   */\n                tag_35:\n                    /* \"#utility.yul\":1407:1413   */\n                  0x00\n                    /* \"#utility.yul\":1460:1462   */\n                  0x20\n                    /* \"#utility.yul\":1448:1457   */\n                  dup3\n                    /* \"#utility.yul\":1439:1446   */\n                  dup5\n                    /* \"#utility.yul\":1435:1458   */\n                  sub\n                    /* \"#utility.yul\":1431:1463   */\n                  slt\n                    /* \"#utility.yul\":1428:1480   */\n                  iszero\n                  tag_421\n                  jumpi\n                    /* \"#utility.yul\":1476:1477   */\n                  0x00\n                    /* \"#utility.yul\":1473:1474   */\n                  dup1\n                    /* \"#utility.yul\":1466:1478   */\n                  revert\n                    /* \"#utility.yul\":1428:1480   */\n                tag_421:\n                  pop\n                    /* \"#utility.yul\":1499:1522   */\n                  calldataload\n                  swap2\n                    /* \"#utility.yul\":1348:1528   */\n                  swap1\n                  pop\n                  jump\t// out\n                    /* \"#utility.yul\":1533:1736   */\n                tag_38:\n                  sub(shl(0xa0, 0x01), 0x01)\n                    /* \"#utility.yul\":1697:1729   */\n                  swap2\n                  swap1\n                  swap2\n                  and\n                    /* \"#utility.yul\":1679:1730   */\n                  dup2\n                  mstore\n                    /* \"#utility.yul\":1667:1669   */\n                  0x20\n                    /* \"#utility.yul\":1652:1670   */\n                  add\n                  swap1\n                    /* \"#utility.yul\":1533:1736   */\n                  jump\t// out\n                    /* \"#utility.yul\":1741:1914   */\n                tag_399:\n                    /* \"#utility.yul\":1809:1829   */\n                  dup1\n                  calldataload\n                  sub(shl(0xa0, 0x01), 0x01)\n                    /* \"#utility.yul\":1858:1889   */\n                  dup2\n                  and\n                    /* \"#utility.yul\":1848:1890   */\n                  dup2\n                  eq\n                    /* \"#utility.yul\":1838:1908   */\n                  tag_424\n                  jumpi\n                    /* \"#utility.yul\":1904:1905   */\n                  0x00\n                    /* \"#utility.yul\":1901:1902   */\n                  dup1\n                    /* \"#utility.yul\":1894:1906   */\n                  revert\n                    /* \"#utility.yul\":1838:1908   */\n                tag_424:\n                    /* \"#utility.yul\":1741:1914   */\n                  swap2\n                  swap1\n                  pop\n                  jump\t// out\n                    /* \"#utility.yul\":1919:2173   */\n                tag_41:\n                    /* \"#utility.yul\":1987:1993   */\n                  0x00\n                    /* \"#utility.yul\":1995:2001   */\n                  dup1\n                    /* \"#utility.yul\":2048:2050   */\n                  0x40\n                    /* \"#utility.yul\":2036:2045   */\n                  dup4\n                    /* \"#utility.yul\":2027:2034   */\n                  dup6\n                    /* \"#utility.yul\":2023:2046   */\n                  sub\n                    /* \"#utility.yul\":2019:2051   */\n                  slt\n                    /* \"#utility.yul\":2016:2068   */\n                  iszero\n                  tag_426\n                  jumpi\n                    /* \"#utility.yul\":2064:2065   */\n                  0x00\n                    /* \"#utility.yul\":2061:2062   */\n                  dup1\n                    /* \"#utility.yul\":2054:2066   */\n                  revert\n                    /* \"#utility.yul\":2016:2068   */\n                tag_426:\n                    /* \"#utility.yul\":2087:2116   */\n                  tag_427\n                    /* \"#utility.yul\":2106:2115   */\n                  dup4\n                    /* \"#utility.yul\":2087:2116   */\n                  tag_399\n                  jump\t// in\n                tag_427:\n                    /* \"#utility.yul\":2077:2116   */\n                  swap5\n                    /* \"#utility.yul\":2163:2165   */\n                  0x20\n                    /* \"#utility.yul\":2148:2166   */\n                  swap4\n                  swap1\n                  swap4\n                  add\n                    /* \"#utility.yul\":2135:2167   */\n                  calldataload\n                  swap4\n                  pop\n                  pop\n                  pop\n                    /* \"#utility.yul\":1919:2173   */\n                  jump\t// out\n                    /* \"#utility.yul\":2360:2688   */\n                tag_49:\n                    /* \"#utility.yul\":2437:2443   */\n                  0x00\n                    /* \"#utility.yul\":2445:2451   */\n                  dup1\n                    /* \"#utility.yul\":2453:2459   */\n                  0x00\n                    /* \"#utility.yul\":2506:2508   */\n                  0x60\n                    /* \"#utility.yul\":2494:2503   */\n                  dup5\n                    /* \"#utility.yul\":2485:2492   */\n                  dup7\n                    /* \"#utility.yul\":2481:2504   */\n                  sub\n                    /* \"#utility.yul\":2477:2509   */\n                  slt\n                    /* \"#utility.yul\":2474:2526   */\n                  iszero\n                  tag_430\n                  jumpi\n                    /* \"#utility.yul\":2522:2523   */\n                  0x00\n                    /* \"#utility.yul\":2519:2520   */\n                  dup1\n                    /* \"#utility.yul\":2512:2524   */\n                  revert\n                    /* \"#utility.yul\":2474:2526   */\n                tag_430:\n                    /* \"#utility.yul\":2545:2574   */\n                  tag_431\n                    /* \"#utility.yul\":2564:2573   */\n                  dup5\n                    /* \"#utility.yul\":2545:2574   */\n                  tag_399\n                  jump\t// in\n                tag_431:\n                    /* \"#utility.yul\":2535:2574   */\n                  swap3\n                  pop\n                    /* \"#utility.yul\":2593:2631   */\n                  tag_432\n                    /* \"#utility.yul\":2627:2629   */\n                  0x20\n                    /* \"#utility.yul\":2616:2625   */\n                  dup6\n                    /* \"#utility.yul\":2612:2630   */\n                  add\n                    /* \"#utility.yul\":2593:2631   */\n                  tag_399\n                  jump\t// in\n                tag_432:\n                    /* \"#utility.yul\":2583:2631   */\n                  swap2\n                  pop\n                    /* \"#utility.yul\":2678:2680   */\n                  0x40\n                    /* \"#utility.yul\":2667:2676   */\n                  dup5\n                    /* \"#utility.yul\":2663:2681   */\n                  add\n                    /* \"#utility.yul\":2650:2682   */\n                  calldataload\n                    /* \"#utility.yul\":2640:2682   */\n                  swap1\n                  pop\n                    /* \"#utility.yul\":2360:2688   */\n                  swap3\n                  pop\n                  swap3\n                  pop\n                  swap3\n                  jump\t// out\n                    /* \"#utility.yul\":2693:2879   */\n                tag_68:\n                    /* \"#utility.yul\":2752:2758   */\n                  0x00\n                    /* \"#utility.yul\":2805:2807   */\n                  0x20\n                    /* \"#utility.yul\":2793:2802   */\n                  dup3\n                    /* \"#utility.yul\":2784:2791   */\n                  dup5\n                    /* \"#utility.yul\":2780:2803   */\n                  sub\n                    /* \"#utility.yul\":2776:2808   */\n                  slt\n                    /* \"#utility.yul\":2773:2825   */\n                  iszero\n                  tag_434\n                  jumpi\n                    /* \"#utility.yul\":2821:2822   */\n                  0x00\n                    /* \"#utility.yul\":2818:2819   */\n                  dup1\n                    /* \"#utility.yul\":2811:2823   */\n                  revert\n                    /* \"#utility.yul\":2773:2825   */\n                tag_434:\n                    /* \"#utility.yul\":2844:2873   */\n                  tag_300\n                    /* \"#utility.yul\":2863:2872   */\n                  dup3\n                    /* \"#utility.yul\":2844:2873   */\n                  tag_399\n                  jump\t// in\n                    /* \"#utility.yul\":2884:3231   */\n                tag_81:\n                    /* \"#utility.yul\":2949:2955   */\n                  0x00\n                    /* \"#utility.yul\":2957:2963   */\n                  dup1\n                    /* \"#utility.yul\":3010:3012   */\n                  0x40\n                    /* \"#utility.yul\":2998:3007   */\n                  dup4\n                    /* \"#utility.yul\":2989:2996   */\n                  dup6\n                    /* \"#utility.yul\":2985:3008   */\n                  sub\n                    /* \"#utility.yul\":2981:3013   */\n                  slt\n                    /* \"#utility.yul\":2978:3030   */\n                  iszero\n                  tag_437\n                  jumpi\n                    /* \"#utility.yul\":3026:3027   */\n                  0x00\n                    /* \"#utility.yul\":3023:3024   */\n                  dup1\n                    /* \"#utility.yul\":3016:3028   */\n                  revert\n                    /* \"#utility.yul\":2978:3030   */\n                tag_437:\n                    /* \"#utility.yul\":3049:3078   */\n                  tag_438\n                    /* \"#utility.yul\":3068:3077   */\n                  dup4\n                    /* \"#utility.yul\":3049:3078   */\n                  tag_399\n                  jump\t// in\n                tag_438:\n                    /* \"#utility.yul\":3039:3078   */\n                  swap2\n                  pop\n                    /* \"#utility.yul\":3128:3130   */\n                  0x20\n                    /* \"#utility.yul\":3117:3126   */\n                  dup4\n                    /* \"#utility.yul\":3113:3131   */\n                  add\n                    /* \"#utility.yul\":3100:3132   */\n                  calldataload\n                    /* \"#utility.yul\":3175:3180   */\n                  dup1\n                    /* \"#utility.yul\":3168:3181   */\n                  iszero\n                    /* \"#utility.yul\":3161:3182   */\n                  iszero\n                    /* \"#utility.yul\":3154:3159   */\n                  dup2\n                    /* \"#utility.yul\":3151:3183   */\n                  eq\n                    /* \"#utility.yul\":3141:3201   */\n                  tag_439\n                  jumpi\n                    /* \"#utility.yul\":3197:3198   */\n                  0x00\n                    /* \"#utility.yul\":3194:3195   */\n                  dup1\n                    /* \"#utility.yul\":3187:3199   */\n                  revert\n                    /* \"#utility.yul\":3141:3201   */\n                tag_439:\n                    /* \"#utility.yul\":3220:3225   */\n                  dup1\n                    /* \"#utility.yul\":3210:3225   */\n                  swap2\n                  pop\n                  pop\n                    /* \"#utility.yul\":2884:3231   */\n                  swap3\n                  pop\n                  swap3\n                  swap1\n                  pop\n                  jump\t// out\n                    /* \"#utility.yul\":3236:3363   */\n                tag_347:\n                    /* \"#utility.yul\":3297:3307   */\n                  0x4e487b71\n                    /* \"#utility.yul\":3292:3295   */\n                  0xe0\n                    /* \"#utility.yul\":3288:3308   */\n                  shl\n                    /* \"#utility.yul\":3285:3286   */\n                  0x00\n                    /* \"#utility.yul\":3278:3309   */\n                  mstore\n                    /* \"#utility.yul\":3328:3332   */\n                  0x41\n                    /* \"#utility.yul\":3325:3326   */\n                  0x04\n                    /* \"#utility.yul\":3318:3333   */\n                  mstore\n                    /* \"#utility.yul\":3352:3356   */\n                  0x24\n                    /* \"#utility.yul\":3349:3350   */\n                  0x00\n                    /* \"#utility.yul\":3342:3357   */\n                  revert\n                    /* \"#utility.yul\":3368:3999   */\n                tag_400:\n                    /* \"#utility.yul\":3432:3437   */\n                  0x00\n                  sub(shl(0x40, 0x01), 0x01)\n                    /* \"#utility.yul\":3492:3506   */\n                  dup1\n                  dup5\n                  gt\n                    /* \"#utility.yul\":3489:3529   */\n                  iszero\n                  tag_443\n                  jumpi\n                    /* \"#utility.yul\":3509:3527   */\n                  tag_443\n                  tag_347\n                  jump\t// in\n                tag_443:\n                    /* \"#utility.yul\":3584:3586   */\n                  0x40\n                    /* \"#utility.yul\":3578:3587   */\n                  mload\n                    /* \"#utility.yul\":3552:3554   */\n                  0x1f\n                    /* \"#utility.yul\":3638:3653   */\n                  dup6\n                  add\n                  not(0x1f)\n                    /* \"#utility.yul\":3634:3658   */\n                  swap1\n                  dup2\n                  and\n                    /* \"#utility.yul\":3660:3662   */\n                  0x3f\n                    /* \"#utility.yul\":3630:3663   */\n                  add\n                    /* \"#utility.yul\":3626:3668   */\n                  and\n                    /* \"#utility.yul\":3614:3669   */\n                  dup2\n                  add\n                  swap1\n                    /* \"#utility.yul\":3684:3702   */\n                  dup3\n                  dup3\n                  gt\n                    /* \"#utility.yul\":3704:3726   */\n                  dup2\n                  dup4\n                  lt\n                    /* \"#utility.yul\":3681:3727   */\n                  or\n                    /* \"#utility.yul\":3678:3750   */\n                  iszero\n                  tag_445\n                  jumpi\n                    /* \"#utility.yul\":3730:3748   */\n                  tag_445\n                  tag_347\n                  jump\t// in\n                tag_445:\n                    /* \"#utility.yul\":3770:3780   */\n                  dup2\n                    /* \"#utility.yul\":3766:3768   */\n                  0x40\n                    /* \"#utility.yul\":3759:3781   */\n                  mstore\n                    /* \"#utility.yul\":3799:3805   */\n                  dup1\n                    /* \"#utility.yul\":3790:3805   */\n                  swap4\n                  pop\n                    /* \"#utility.yul\":3829:3835   */\n                  dup6\n                    /* \"#utility.yul\":3821:3827   */\n                  dup2\n                    /* \"#utility.yul\":3814:3836   */\n                  mstore\n                    /* \"#utility.yul\":3869:3872   */\n                  dup7\n                    /* \"#utility.yul\":3860:3866   */\n                  dup7\n                    /* \"#utility.yul\":3855:3858   */\n                  dup7\n                    /* \"#utility.yul\":3851:3867   */\n                  add\n                    /* \"#utility.yul\":3848:3873   */\n                  gt\n                    /* \"#utility.yul\":3845:3890   */\n                  iszero\n                  tag_446\n                  jumpi\n                    /* \"#utility.yul\":3886:3887   */\n                  0x00\n                    /* \"#utility.yul\":3883:3884   */\n                  dup1\n                    /* \"#utility.yul\":3876:3888   */\n                  revert\n                    /* \"#utility.yul\":3845:3890   */\n                tag_446:\n                    /* \"#utility.yul\":3936:3942   */\n                  dup6\n                    /* \"#utility.yul\":3931:3934   */\n                  dup6\n                    /* \"#utility.yul\":3924:3928   */\n                  0x20\n                    /* \"#utility.yul\":3916:3922   */\n                  dup4\n                    /* \"#utility.yul\":3912:3929   */\n                  add\n                    /* \"#utility.yul\":3899:3943   */\n                  calldatacopy\n                    /* \"#utility.yul\":3991:3992   */\n                  0x00\n                    /* \"#utility.yul\":3984:3988   */\n                  0x20\n                    /* \"#utility.yul\":3975:3981   */\n                  dup8\n                    /* \"#utility.yul\":3967:3973   */\n                  dup4\n                    /* \"#utility.yul\":3963:3982   */\n                  add\n                    /* \"#utility.yul\":3959:3989   */\n                  add\n                    /* \"#utility.yul\":3952:3993   */\n                  mstore\n                  pop\n                  pop\n                  pop\n                    /* \"#utility.yul\":3368:3999   */\n                  swap4\n                  swap3\n                  pop\n                  pop\n                  pop\n                  jump\t// out\n                    /* \"#utility.yul\":4004:4670   */\n                tag_85:\n                    /* \"#utility.yul\":4099:4105   */\n                  0x00\n                    /* \"#utility.yul\":4107:4113   */\n                  dup1\n                    /* \"#utility.yul\":4115:4121   */\n                  0x00\n                    /* \"#utility.yul\":4123:4129   */\n                  dup1\n                    /* \"#utility.yul\":4176:4179   */\n                  0x80\n                    /* \"#utility.yul\":4164:4173   */\n                  dup6\n                    /* \"#utility.yul\":4155:4162   */\n                  dup8\n                    /* \"#utility.yul\":4151:4174   */\n                  sub\n                    /* \"#utility.yul\":4147:4180   */\n                  slt\n                    /* \"#utility.yul\":4144:4197   */\n                  iszero\n                  tag_448\n                  jumpi\n                    /* \"#utility.yul\":4193:4194   */\n                  0x00\n                    /* \"#utility.yul\":4190:4191   */\n                  dup1\n                    /* \"#utility.yul\":4183:4195   */\n                  revert\n                    /* \"#utility.yul\":4144:4197   */\n                tag_448:\n                    /* \"#utility.yul\":4216:4245   */\n                  tag_449\n                    /* \"#utility.yul\":4235:4244   */\n                  dup6\n                    /* \"#utility.yul\":4216:4245   */\n                  tag_399\n                  jump\t// in\n                tag_449:\n                    /* \"#utility.yul\":4206:4245   */\n                  swap4\n                  pop\n                    /* \"#utility.yul\":4264:4302   */\n                  tag_450\n                    /* \"#utility.yul\":4298:4300   */\n                  0x20\n                    /* \"#utility.yul\":4287:4296   */\n                  dup7\n                    /* \"#utility.yul\":4283:4301   */\n                  add\n                    /* \"#utility.yul\":4264:4302   */\n                  tag_399\n                  jump\t// in\n                tag_450:\n                    /* \"#utility.yul\":4254:4302   */\n                  swap3\n                  pop\n                    /* \"#utility.yul\":4349:4351   */\n                  0x40\n                    /* \"#utility.yul\":4334:4352   */\n                  dup6\n                  add\n                    /* \"#utility.yul\":4321:4353   */\n                  calldataload\n                  swap2\n                  pop\n                    /* \"#utility.yul\":4404:4406   */\n                  0x60\n                    /* \"#utility.yul\":4389:4407   */\n                  dup6\n                  add\n                    /* \"#utility.yul\":4376:4408   */\n                  calldataload\n                  sub(shl(0x40, 0x01), 0x01)\n                    /* \"#utility.yul\":4420:4450   */\n                  dup2\n                  gt\n                    /* \"#utility.yul\":4417:4467   */\n                  iszero\n                  tag_451\n                  jumpi\n                    /* \"#utility.yul\":4463:4464   */\n                  0x00\n                    /* \"#utility.yul\":4460:4461   */\n                  dup1\n                    /* \"#utility.yul\":4453:4465   */\n                  revert\n                    /* \"#utility.yul\":4417:4467   */\n                tag_451:\n                    /* \"#utility.yul\":4486:4508   */\n                  dup6\n                  add\n                    /* \"#utility.yul\":4539:4543   */\n                  0x1f\n                    /* \"#utility.yul\":4531:4544   */\n                  dup2\n                  add\n                    /* \"#utility.yul\":4527:4554   */\n                  dup8\n                  sgt\n                    /* \"#utility.yul\":4517:4572   */\n                  tag_452\n                  jumpi\n                    /* \"#utility.yul\":4568:4569   */\n                  0x00\n                    /* \"#utility.yul\":4565:4566   */\n                  dup1\n                    /* \"#utility.yul\":4558:4570   */\n                  revert\n                    /* \"#utility.yul\":4517:4572   */\n                tag_452:\n                    /* \"#utility.yul\":4591:4664   */\n                  tag_453\n                    /* \"#utility.yul\":4656:4663   */\n                  dup8\n                    /* \"#utility.yul\":4651:4653   */\n                  dup3\n                    /* \"#utility.yul\":4638:4654   */\n                  calldataload\n                    /* \"#utility.yul\":4633:4635   */\n                  0x20\n                    /* \"#utility.yul\":4629:4631   */\n                  dup5\n                    /* \"#utility.yul\":4625:4636   */\n                  add\n                    /* \"#utility.yul\":4591:4664   */\n                  tag_400\n                  jump\t// in\n                tag_453:\n                    /* \"#utility.yul\":4581:4664   */\n                  swap2\n                  pop\n                  pop\n                    /* \"#utility.yul\":4004:4670   */\n                  swap3\n                  swap6\n                  swap2\n                  swap5\n                  pop\n                  swap3\n                  pop\n                  jump\t// out\n                    /* \"#utility.yul\":4675:5199   */\n                tag_93:\n                    /* \"#utility.yul\":4753:4759   */\n                  0x00\n                    /* \"#utility.yul\":4761:4767   */\n                  dup1\n                    /* \"#utility.yul\":4814:4816   */\n                  0x40\n                    /* \"#utility.yul\":4802:4811   */\n                  dup4\n                    /* \"#utility.yul\":4793:4800   */\n                  dup6\n                    /* \"#utility.yul\":4789:4812   */\n                  sub\n                    /* \"#utility.yul\":4785:4817   */\n                  slt\n                    /* \"#utility.yul\":4782:4834   */\n                  iszero\n                  tag_455\n                  jumpi\n                    /* \"#utility.yul\":4830:4831   */\n                  0x00\n                    /* \"#utility.yul\":4827:4828   */\n                  dup1\n                    /* \"#utility.yul\":4820:4832   */\n                  revert\n                    /* \"#utility.yul\":4782:4834   */\n                tag_455:\n                    /* \"#utility.yul\":4853:4882   */\n                  tag_456\n                    /* \"#utility.yul\":4872:4881   */\n                  dup4\n                    /* \"#utility.yul\":4853:4882   */\n                  tag_399\n                  jump\t// in\n                tag_456:\n                    /* \"#utility.yul\":4843:4882   */\n                  swap2\n                  pop\n                    /* \"#utility.yul\":4933:4935   */\n                  0x20\n                    /* \"#utility.yul\":4918:4936   */\n                  dup4\n                  add\n                    /* \"#utility.yul\":4905:4937   */\n                  calldataload\n                  sub(shl(0x40, 0x01), 0x01)\n                    /* \"#utility.yul\":4949:4979   */\n                  dup2\n                  gt\n                    /* \"#utility.yul\":4946:4996   */\n                  iszero\n                  tag_457\n                  jumpi\n                    /* \"#utility.yul\":4992:4993   */\n                  0x00\n                    /* \"#utility.yul\":4989:4990   */\n                  dup1\n                    /* \"#utility.yul\":4982:4994   */\n                  revert\n                    /* \"#utility.yul\":4946:4996   */\n                tag_457:\n                    /* \"#utility.yul\":5015:5037   */\n                  dup4\n                  add\n                    /* \"#utility.yul\":5068:5072   */\n                  0x1f\n                    /* \"#utility.yul\":5060:5073   */\n                  dup2\n                  add\n                    /* \"#utility.yul\":5056:5083   */\n                  dup6\n                  sgt\n                    /* \"#utility.yul\":5046:5101   */\n                  tag_458\n                  jumpi\n                    /* \"#utility.yul\":5097:5098   */\n                  0x00\n                    /* \"#utility.yul\":5094:5095   */\n                  dup1\n                    /* \"#utility.yul\":5087:5099   */\n                  revert\n                    /* \"#utility.yul\":5046:5101   */\n                tag_458:\n                    /* \"#utility.yul\":5120:5193   */\n                  tag_459\n                    /* \"#utility.yul\":5185:5192   */\n                  dup6\n                    /* \"#utility.yul\":5180:5182   */\n                  dup3\n                    /* \"#utility.yul\":5167:5183   */\n                  calldataload\n                    /* \"#utility.yul\":5162:5164   */\n                  0x20\n                    /* \"#utility.yul\":5158:5160   */\n                  dup5\n                    /* \"#utility.yul\":5154:5165   */\n                  add\n                    /* \"#utility.yul\":5120:5193   */\n                  tag_400\n                  jump\t// in\n                tag_459:\n                    /* \"#utility.yul\":5110:5193   */\n                  swap2\n                  pop\n                  pop\n                    /* \"#utility.yul\":4675:5199   */\n                  swap3\n                  pop\n                  swap3\n                  swap1\n                  pop\n                  jump\t// out\n                    /* \"#utility.yul\":5204:5464   */\n                tag_97:\n                    /* \"#utility.yul\":5272:5278   */\n                  0x00\n                    /* \"#utility.yul\":5280:5286   */\n                  dup1\n                    /* \"#utility.yul\":5333:5335   */\n                  0x40\n                    /* \"#utility.yul\":5321:5330   */\n                  dup4\n                    /* \"#utility.yul\":5312:5319   */\n                  dup6\n                    /* \"#utility.yul\":5308:5331   */\n                  sub\n                    /* \"#utility.yul\":5304:5336   */\n                  slt\n                    /* \"#utility.yul\":5301:5353   */\n                  iszero\n                  tag_461\n                  jumpi\n                    /* \"#utility.yul\":5349:5350   */\n                  0x00\n                    /* \"#utility.yul\":5346:5347   */\n                  dup1\n                    /* \"#utility.yul\":5339:5351   */\n                  revert\n                    /* \"#utility.yul\":5301:5353   */\n                tag_461:\n                    /* \"#utility.yul\":5372:5401   */\n                  tag_462\n                    /* \"#utility.yul\":5391:5400   */\n                  dup4\n                    /* \"#utility.yul\":5372:5401   */\n                  tag_399\n                  jump\t// in\n                tag_462:\n                    /* \"#utility.yul\":5362:5401   */\n                  swap2\n                  pop\n                    /* \"#utility.yul\":5420:5458   */\n                  tag_463\n                    /* \"#utility.yul\":5454:5456   */\n                  0x20\n                    /* \"#utility.yul\":5443:5452   */\n                  dup5\n                    /* \"#utility.yul\":5439:5457   */\n                  add\n                    /* \"#utility.yul\":5420:5458   */\n                  tag_399\n                  jump\t// in\n                tag_463:\n                    /* \"#utility.yul\":5410:5458   */\n                  swap1\n                  pop\n                    /* \"#utility.yul\":5204:5464   */\n                  swap3\n                  pop\n                  swap3\n                  swap1\n                  pop\n                  jump\t// out\n                    /* \"#utility.yul\":5469:5849   */\n                tag_108:\n                    /* \"#utility.yul\":5548:5549   */\n                  0x01\n                    /* \"#utility.yul\":5544:5556   */\n                  dup2\n                  dup2\n                  shr\n                  swap1\n                    /* \"#utility.yul\":5591:5603   */\n                  dup3\n                  and\n                  dup1\n                    /* \"#utility.yul\":5612:5673   */\n                  tag_465\n                  jumpi\n                    /* \"#utility.yul\":5666:5670   */\n                  0x7f\n                    /* \"#utility.yul\":5658:5664   */\n                  dup3\n                    /* \"#utility.yul\":5654:5671   */\n                  and\n                    /* \"#utility.yul\":5644:5671   */\n                  swap2\n                  pop\n                    /* \"#utility.yul\":5612:5673   */\n                tag_465:\n                    /* \"#utility.yul\":5719:5721   */\n                  0x20\n                    /* \"#utility.yul\":5711:5717   */\n                  dup3\n                    /* \"#utility.yul\":5708:5722   */\n                  lt\n                    /* \"#utility.yul\":5688:5706   */\n                  dup2\n                    /* \"#utility.yul\":5685:5723   */\n                  sub\n                    /* \"#utility.yul\":5682:5843   */\n                  tag_466\n                  jumpi\n                    /* \"#utility.yul\":5765:5775   */\n                  0x4e487b71\n                    /* \"#utility.yul\":5760:5763   */\n                  0xe0\n                    /* \"#utility.yul\":5756:5776   */\n                  shl\n                    /* \"#utility.yul\":5753:5754   */\n                  0x00\n                    /* \"#utility.yul\":5746:5777   */\n                  mstore\n                    /* \"#utility.yul\":5800:5804   */\n                  0x22\n                    /* \"#utility.yul\":5797:5798   */\n                  0x04\n                    /* \"#utility.yul\":5790:5805   */\n                  mstore\n                    /* \"#utility.yul\":5828:5832   */\n                  0x24\n                    /* \"#utility.yul\":5825:5826   */\n                  0x00\n                    /* \"#utility.yul\":5818:5833   */\n                  revert\n                    /* \"#utility.yul\":5682:5843   */\n                tag_466:\n                  pop\n                    /* \"#utility.yul\":5469:5849   */\n                  swap2\n                  swap1\n                  pop\n                  jump\t// out\n                    /* \"#utility.yul\":6234:6508   */\n                tag_137:\n                  sub(shl(0xa0, 0x01), 0x01)\n                    /* \"#utility.yul\":6426:6458   */\n                  swap3\n                  swap1\n                  swap3\n                  and\n                    /* \"#utility.yul\":6408:6459   */\n                  dup3\n                  mstore\n                    /* \"#utility.yul\":6490:6492   */\n                  0x20\n                    /* \"#utility.yul\":6475:6493   */\n                  dup3\n                  add\n                    /* \"#utility.yul\":6468:6502   */\n                  mstore\n                    /* \"#utility.yul\":6396:6398   */\n                  0x40\n                    /* \"#utility.yul\":6381:6399   */\n                  add\n                  swap1\n                    /* \"#utility.yul\":6234:6508   */\n                  jump\t// out\n                    /* \"#utility.yul\":6513:6640   */\n                tag_146:\n                    /* \"#utility.yul\":6574:6584   */\n                  0x4e487b71\n                    /* \"#utility.yul\":6569:6572   */\n                  0xe0\n                    /* \"#utility.yul\":6565:6585   */\n                  shl\n                    /* \"#utility.yul\":6562:6563   */\n                  0x00\n                    /* \"#utility.yul\":6555:6586   */\n                  mstore\n                    /* \"#utility.yul\":6605:6609   */\n                  0x32\n                    /* \"#utility.yul\":6602:6603   */\n                  0x04\n                    /* \"#utility.yul\":6595:6610   */\n                  mstore\n                    /* \"#utility.yul\":6629:6633   */\n                  0x24\n                    /* \"#utility.yul\":6626:6627   */\n                  0x00\n                    /* \"#utility.yul\":6619:6634   */\n                  revert\n                    /* \"#utility.yul\":6645:6772   */\n                tag_401:\n                    /* \"#utility.yul\":6706:6716   */\n                  0x4e487b71\n                    /* \"#utility.yul\":6701:6704   */\n                  0xe0\n                    /* \"#utility.yul\":6697:6717   */\n                  shl\n                    /* \"#utility.yul\":6694:6695   */\n                  0x00\n                    /* \"#utility.yul\":6687:6718   */\n                  mstore\n                    /* \"#utility.yul\":6737:6741   */\n                  0x11\n                    /* \"#utility.yul\":6734:6735   */\n                  0x04\n                    /* \"#utility.yul\":6727:6742   */\n                  mstore\n                    /* \"#utility.yul\":6761:6765   */\n                  0x24\n                    /* \"#utility.yul\":6758:6759   */\n                  0x00\n                    /* \"#utility.yul\":6751:6766   */\n                  revert\n                    /* \"#utility.yul\":6777:6912   */\n                tag_181:\n                    /* \"#utility.yul\":6816:6819   */\n                  0x00\n                    /* \"#utility.yul\":6837:6854   */\n                  0x01\n                  dup3\n                  add\n                    /* \"#utility.yul\":6834:6877   */\n                  tag_473\n                  jumpi\n                    /* \"#utility.yul\":6857:6875   */\n                  tag_473\n                  tag_401\n                  jump\t// in\n                tag_473:\n                  pop\n                    /* \"#utility.yul\":6904:6905   */\n                  0x01\n                    /* \"#utility.yul\":6893:6906   */\n                  add\n                  swap1\n                    /* \"#utility.yul\":6777:6912   */\n                  jump\t// out\n                    /* \"#utility.yul\":6917:7406   */\n                tag_225:\n                  sub(shl(0xa0, 0x01), 0x01)\n                    /* \"#utility.yul\":7186:7201   */\n                  dup6\n                  dup2\n                  and\n                    /* \"#utility.yul\":7168:7202   */\n                  dup3\n                  mstore\n                    /* \"#utility.yul\":7238:7253   */\n                  dup5\n                  and\n                    /* \"#utility.yul\":7233:7235   */\n                  0x20\n                    /* \"#utility.yul\":7218:7236   */\n                  dup3\n                  add\n                    /* \"#utility.yul\":7211:7254   */\n                  mstore\n                    /* \"#utility.yul\":7285:7287   */\n                  0x40\n                    /* \"#utility.yul\":7270:7288   */\n                  dup2\n                  add\n                    /* \"#utility.yul\":7263:7297   */\n                  dup4\n                  swap1\n                  mstore\n                    /* \"#utility.yul\":7333:7336   */\n                  0x80\n                    /* \"#utility.yul\":7328:7330   */\n                  0x60\n                    /* \"#utility.yul\":7313:7331   */\n                  dup3\n                  add\n                    /* \"#utility.yul\":7306:7337   */\n                  dup2\n                  swap1\n                  mstore\n                    /* \"#utility.yul\":7111:7115   */\n                  0x00\n                  swap1\n                    /* \"#utility.yul\":7354:7400   */\n                  tag_475\n                  swap1\n                    /* \"#utility.yul\":7380:7399   */\n                  dup4\n                  add\n                    /* \"#utility.yul\":7372:7378   */\n                  dup5\n                    /* \"#utility.yul\":7354:7400   */\n                  tag_398\n                  jump\t// in\n                tag_475:\n                    /* \"#utility.yul\":7346:7400   */\n                  swap7\n                    /* \"#utility.yul\":6917:7406   */\n                  swap6\n                  pop\n                  pop\n                  pop\n                  pop\n                  pop\n                  pop\n                  jump\t// out\n                    /* \"#utility.yul\":7411:7660   */\n                tag_228:\n                    /* \"#utility.yul\":7480:7486   */\n                  0x00\n                    /* \"#utility.yul\":7533:7535   */\n                  0x20\n                    /* \"#utility.yul\":7521:7530   */\n                  dup3\n                    /* \"#utility.yul\":7512:7519   */\n                  dup5\n                    /* \"#utility.yul\":7508:7531   */\n                  sub\n                    /* \"#utility.yul\":7504:7536   */\n                  slt\n                    /* \"#utility.yul\":7501:7553   */\n                  iszero\n                  tag_477\n                  jumpi\n                    /* \"#utility.yul\":7549:7550   */\n                  0x00\n                    /* \"#utility.yul\":7546:7547   */\n                  dup1\n                    /* \"#utility.yul\":7539:7551   */\n                  revert\n                    /* \"#utility.yul\":7501:7553   */\n                tag_477:\n                    /* \"#utility.yul\":7581:7590   */\n                  dup2\n                    /* \"#utility.yul\":7575:7591   */\n                  mload\n                    /* \"#utility.yul\":7600:7630   */\n                  tag_300\n                    /* \"#utility.yul\":7624:7629   */\n                  dup2\n                    /* \"#utility.yul\":7600:7630   */\n                  tag_396\n                  jump\t// in\n                    /* \"#utility.yul\":7665:8161   */\n                tag_253:\n                    /* \"#utility.yul\":7844:7847   */\n                  0x00\n                    /* \"#utility.yul\":7882:7888   */\n                  dup4\n                    /* \"#utility.yul\":7876:7889   */\n                  mload\n                    /* \"#utility.yul\":7898:7964   */\n                  tag_480\n                    /* \"#utility.yul\":7957:7963   */\n                  dup2\n                    /* \"#utility.yul\":7952:7955   */\n                  dup5\n                    /* \"#utility.yul\":7945:7949   */\n                  0x20\n                    /* \"#utility.yul\":7937:7943   */\n                  dup9\n                    /* \"#utility.yul\":7933:7950   */\n                  add\n                    /* \"#utility.yul\":7898:7964   */\n                  tag_397\n                  jump\t// in\n                tag_480:\n                    /* \"#utility.yul\":8027:8040   */\n                  dup4\n                  mload\n                    /* \"#utility.yul\":7986:8002   */\n                  swap1\n                  dup4\n                  add\n                  swap1\n                    /* \"#utility.yul\":8049:8119   */\n                  tag_481\n                    /* \"#utility.yul\":8027:8040   */\n                  dup2\n                    /* \"#utility.yul\":7986:8002   */\n                  dup4\n                    /* \"#utility.yul\":8096:8100   */\n                  0x20\n                    /* \"#utility.yul\":8084:8101   */\n                  dup9\n                  add\n                    /* \"#utility.yul\":8049:8119   */\n                  tag_397\n                  jump\t// in\n                tag_481:\n                    /* \"#utility.yul\":8135:8155   */\n                  add\n                  swap5\n                    /* \"#utility.yul\":7665:8161   */\n                  swap4\n                  pop\n                  pop\n                  pop\n                  pop\n                  jump\t// out\n                    /* \"#utility.yul\":8292:8810   */\n                tag_403:\n                    /* \"#utility.yul\":8394:8396   */\n                  0x1f\n                    /* \"#utility.yul\":8389:8392   */\n                  dup3\n                    /* \"#utility.yul\":8386:8397   */\n                  gt\n                    /* \"#utility.yul\":8383:8804   */\n                  iszero\n                  tag_139\n                  jumpi\n                    /* \"#utility.yul\":8430:8435   */\n                  dup1\n                    /* \"#utility.yul\":8427:8428   */\n                  0x00\n                    /* \"#utility.yul\":8420:8436   */\n                  mstore\n                    /* \"#utility.yul\":8474:8478   */\n                  0x20\n                    /* \"#utility.yul\":8471:8472   */\n                  0x00\n                    /* \"#utility.yul\":8461:8479   */\n                  keccak256\n                    /* \"#utility.yul\":8544:8546   */\n                  0x1f\n                    /* \"#utility.yul\":8532:8542   */\n                  dup5\n                    /* \"#utility.yul\":8528:8547   */\n                  add\n                    /* \"#utility.yul\":8525:8526   */\n                  0x05\n                    /* \"#utility.yul\":8521:8548   */\n                  shr\n                    /* \"#utility.yul\":8515:8519   */\n                  dup2\n                    /* \"#utility.yul\":8511:8549   */\n                  add\n                    /* \"#utility.yul\":8580:8584   */\n                  0x20\n                    /* \"#utility.yul\":8568:8578   */\n                  dup6\n                    /* \"#utility.yul\":8565:8585   */\n                  lt\n                    /* \"#utility.yul\":8562:8609   */\n                  iszero\n                  tag_485\n                  jumpi\n                  pop\n                    /* \"#utility.yul\":8603:8607   */\n                  dup1\n                    /* \"#utility.yul\":8562:8609   */\n                tag_485:\n                    /* \"#utility.yul\":8658:8660   */\n                  0x1f\n                    /* \"#utility.yul\":8653:8656   */\n                  dup5\n                    /* \"#utility.yul\":8649:8661   */\n                  add\n                    /* \"#utility.yul\":8646:8647   */\n                  0x05\n                    /* \"#utility.yul\":8642:8662   */\n                  shr\n                    /* \"#utility.yul\":8636:8640   */\n                  dup3\n                    /* \"#utility.yul\":8632:8663   */\n                  add\n                    /* \"#utility.yul\":8622:8663   */\n                  swap2\n                  pop\n                    /* \"#utility.yul\":8713:8794   */\n                tag_486:\n                    /* \"#utility.yul\":8731:8733   */\n                  dup2\n                    /* \"#utility.yul\":8724:8729   */\n                  dup2\n                    /* \"#utility.yul\":8721:8734   */\n                  lt\n                    /* \"#utility.yul\":8713:8794   */\n                  iszero\n                  tag_239\n                  jumpi\n                    /* \"#utility.yul\":8790:8791   */\n                  0x00\n                    /* \"#utility.yul\":8776:8792   */\n                  dup2\n                  sstore\n                    /* \"#utility.yul\":8757:8758   */\n                  0x01\n                    /* \"#utility.yul\":8746:8759   */\n                  add\n                    /* \"#utility.yul\":8713:8794   */\n                  jump(tag_486)\n                    /* \"#utility.yul\":8986:10331   */\n                tag_261:\n                    /* \"#utility.yul\":9106:9116   */\n                  dup2\n                  mload\n                  sub(shl(0x40, 0x01), 0x01)\n                    /* \"#utility.yul\":9128:9158   */\n                  dup2\n                  gt\n                    /* \"#utility.yul\":9125:9181   */\n                  iszero\n                  tag_492\n                  jumpi\n                    /* \"#utility.yul\":9161:9179   */\n                  tag_492\n                  tag_347\n                  jump\t// in\n                tag_492:\n                    /* \"#utility.yul\":9190:9287   */\n                  tag_493\n                    /* \"#utility.yul\":9280:9286   */\n                  dup2\n                    /* \"#utility.yul\":9240:9278   */\n                  tag_494\n                    /* \"#utility.yul\":9272:9276   */\n                  dup5\n                    /* \"#utility.yul\":9266:9277   */\n                  sload\n                    /* \"#utility.yul\":9240:9278   */\n                  tag_108\n                  jump\t// in\n                tag_494:\n                    /* \"#utility.yul\":9234:9238   */\n                  dup5\n                    /* \"#utility.yul\":9190:9287   */\n                  tag_403\n                  jump\t// in\n                tag_493:\n                    /* \"#utility.yul\":9342:9346   */\n                  0x20\n                  dup1\n                    /* \"#utility.yul\":9399:9401   */\n                  0x1f\n                    /* \"#utility.yul\":9388:9402   */\n                  dup4\n                  gt\n                    /* \"#utility.yul\":9416:9417   */\n                  0x01\n                    /* \"#utility.yul\":9411:10074   */\n                  dup2\n                  eq\n                  tag_496\n                  jumpi\n                    /* \"#utility.yul\":10118:10119   */\n                  0x00\n                    /* \"#utility.yul\":10135:10141   */\n                  dup5\n                    /* \"#utility.yul\":10132:10221   */\n                  iszero\n                  tag_497\n                  jumpi\n                  pop\n                    /* \"#utility.yul\":10187:10206   */\n                  dup6\n                  dup4\n                  add\n                    /* \"#utility.yul\":10181:10207   */\n                  mload\n                    /* \"#utility.yul\":10132:10221   */\n                tag_497:\n                  not(0x00)\n                    /* \"#utility.yul\":8943:8944   */\n                  0x03\n                    /* \"#utility.yul\":8939:8950   */\n                  dup7\n                  swap1\n                  shl\n                    /* \"#utility.yul\":8935:8959   */\n                  shr\n                    /* \"#utility.yul\":8931:8960   */\n                  not\n                    /* \"#utility.yul\":8921:8961   */\n                  and\n                    /* \"#utility.yul\":8967:8968   */\n                  0x01\n                    /* \"#utility.yul\":8963:8974   */\n                  dup6\n                  swap1\n                  shl\n                    /* \"#utility.yul\":8918:8975   */\n                  or\n                    /* \"#utility.yul\":10234:10315   */\n                  dup6\n                  sstore\n                    /* \"#utility.yul\":9381:10325   */\n                  jump(tag_495)\n                    /* \"#utility.yul\":9411:10074   */\n                tag_496:\n                    /* \"#utility.yul\":8239:8240   */\n                  0x00\n                    /* \"#utility.yul\":8232:8246   */\n                  dup6\n                  dup2\n                  mstore\n                    /* \"#utility.yul\":8276:8280   */\n                  0x20\n                    /* \"#utility.yul\":8263:8281   */\n                  dup2\n                  keccak256\n                  not(0x1f)\n                    /* \"#utility.yul\":9447:9467   */\n                  dup7\n                  and\n                  swap2\n                    /* \"#utility.yul\":9565:9801   */\n                tag_500:\n                    /* \"#utility.yul\":9579:9586   */\n                  dup3\n                    /* \"#utility.yul\":9576:9577   */\n                  dup2\n                    /* \"#utility.yul\":9573:9587   */\n                  lt\n                    /* \"#utility.yul\":9565:9801   */\n                  iszero\n                  tag_502\n                  jumpi\n                    /* \"#utility.yul\":9668:9687   */\n                  dup9\n                  dup7\n                  add\n                    /* \"#utility.yul\":9662:9688   */\n                  mload\n                    /* \"#utility.yul\":9647:9689   */\n                  dup3\n                  sstore\n                    /* \"#utility.yul\":9760:9787   */\n                  swap5\n                  dup5\n                  add\n                  swap5\n                    /* \"#utility.yul\":9728:9729   */\n                  0x01\n                    /* \"#utility.yul\":9716:9730   */\n                  swap1\n                  swap2\n                  add\n                  swap1\n                    /* \"#utility.yul\":9595:9614   */\n                  dup5\n                  add\n                    /* \"#utility.yul\":9565:9801   */\n                  jump(tag_500)\n                tag_502:\n                    /* \"#utility.yul\":9569:9572   */\n                  pop\n                    /* \"#utility.yul\":9829:9835   */\n                  dup6\n                    /* \"#utility.yul\":9820:9827   */\n                  dup3\n                    /* \"#utility.yul\":9817:9836   */\n                  lt\n                    /* \"#utility.yul\":9814:10015   */\n                  iszero\n                  tag_503\n                  jumpi\n                    /* \"#utility.yul\":9890:9909   */\n                  dup8\n                  dup6\n                  add\n                    /* \"#utility.yul\":9884:9910   */\n                  mload\n                  not(0x00)\n                    /* \"#utility.yul\":9973:9974   */\n                  0x03\n                    /* \"#utility.yul\":9969:9983   */\n                  dup9\n                  swap1\n                  shl\n                    /* \"#utility.yul\":9985:9988   */\n                  0xf8\n                    /* \"#utility.yul\":9965:9989   */\n                  and\n                    /* \"#utility.yul\":9961:9998   */\n                  shr\n                    /* \"#utility.yul\":9957:9999   */\n                  not\n                    /* \"#utility.yul\":9942:10000   */\n                  and\n                    /* \"#utility.yul\":9927:10001   */\n                  dup2\n                  sstore\n                    /* \"#utility.yul\":9814:10015   */\n                tag_503:\n                  pop\n                  pop\n                    /* \"#utility.yul\":10061:10062   */\n                  0x01\n                    /* \"#utility.yul\":10052:10058   */\n                  dup5\n                    /* \"#utility.yul\":10049:10050   */\n                  0x01\n                    /* \"#utility.yul\":10045:10059   */\n                  shl\n                    /* \"#utility.yul\":10041:10063   */\n                  add\n                    /* \"#utility.yul\":10035:10039   */\n                  dup6\n                    /* \"#utility.yul\":10028:10064   */\n                  sstore\n                    /* \"#utility.yul\":9381:10325   */\n                tag_495:\n                  pop\n                  pop\n                  pop\n                  pop\n                    /* \"#utility.yul\":8986:10331   */\n                  pop\n                  pop\n                  jump\t// out\n                    /* \"#utility.yul\":10336:10464   */\n                tag_328:\n                    /* \"#utility.yul\":10403:10412   */\n                  dup2\n                  dup2\n                  sub\n                    /* \"#utility.yul\":10424:10435   */\n                  dup2\n                  dup2\n                  gt\n                    /* \"#utility.yul\":10421:10458   */\n                  iszero\n                  tag_104\n                  jumpi\n                    /* \"#utility.yul\":10438:10456   */\n                  tag_104\n                  tag_401\n                  jump\t// in\n                    /* \"#utility.yul\":10469:10596   */\n                tag_337:\n                    /* \"#utility.yul\":10530:10540   */\n                  0x4e487b71\n                    /* \"#utility.yul\":10525:10528   */\n                  0xe0\n                    /* \"#utility.yul\":10521:10541   */\n                  shl\n                    /* \"#utility.yul\":10518:10519   */\n                  0x00\n                    /* \"#utility.yul\":10511:10542   */\n                  mstore\n                    /* \"#utility.yul\":10561:10565   */\n                  0x31\n                    /* \"#utility.yul\":10558:10559   */\n                  0x04\n                    /* \"#utility.yul\":10551:10566   */\n                  mstore\n                    /* \"#utility.yul\":10585:10589   */\n                  0x24\n                    /* \"#utility.yul\":10582:10583   */\n                  0x00\n                    /* \"#utility.yul\":10575:10590   */\n                  revert\n\n                auxdata: 0xa2646970667358221220e529bfe2e1be774d82aead2a29daeccff3d6b6f5ed388f64539bae71963f07af64736f6c63430008180033\n            }\n        }\n    }\n\n    auxdata: 0xa26469706673582212203fb9ab098533d87057b191e6976dee88dd7e674d67dd9b4fd6dd4aea0774ad1464736f6c63430008180033\n}\n","bytecode":{"linkReferences":{},"object":"608060405234801561000f575f80fd5b50613dff8061001d5f395ff3fe608060405234801562000010575f80fd5b50600436106200005c575f3560e01c80632fa9c00714620000605780637ac3886e146200008f5780639ec6deaf14620000a8578063c73d702414620000bf578063f08a64e614620000d8575b5f80fd5b62000077620000713660046200033f565b620000e2565b6040516200008691906200036a565b60405180910390f35b6200009962000117565b6040516200008691906200037e565b62000077620000b9366004620003cc565b62000178565b620000d6620000d036600462000488565b620001a0565b005b62000099620002ad565b6001602052815f5260405f208181548110620000fc575f80fd5b5f918252602090912001546001600160a01b03169150829050565b60605f8054806020026020016040519081016040528092919081815260200182805480156200016e57602002820191905f5260205f20905b81546001600160a01b031681526001909101906020018083116200014f575b5050505050905090565b5f818154811062000187575f80fd5b5f918252602090912001546001600160a01b0316905081565b5f8054620001b090600162000541565b3389898989898989604051620001c69062000315565b620001da99989796959493929190620005ac565b604051809103905ff080158015620001f4573d5f803e3d5ffd5b505f8054600181810183557f290decd9548b62a8d60345a988386fc84ba6bc95484008f6362f93160ef3e56390910180546001600160a01b0385166001600160a01b0319918216811790925533808552602084815260408087208054968701815587529520909301805490911690911790559051919250907f8cb1f5e0b7508307e592a641586f535256dba226b02388100691c6133f65e22e906200029b9084906200036a565b60405180910390a25050505050505050565b335f908152600160209081526040918290208054835181840281018401909452808452606093928301828280156200016e57602002820191905f5260205f209081546001600160a01b031681526001909101906020018083116200014f575050505050905090565b61379a806200063083390190565b80356001600160a01b03811681146200033a575f80fd5b919050565b5f806040838503121562000351575f80fd5b6200035c8362000323565b946020939093013593505050565b6001600160a01b0391909116815260200190565b602080825282518282018190525f9190848201906040850190845b81811015620003c05783516001600160a01b03168352928401929184019160010162000399565b50909695505050505050565b5f60208284031215620003dd575f80fd5b5035919050565b634e487b7160e01b5f52604160045260245ffd5b5f82601f83011262000408575f80fd5b81356001600160401b0380821115620004255762000425620003e4565b604051601f8301601f19908116603f01168101908282118183101715620004505762000450620003e4565b8160405283815286602085880101111562000469575f80fd5b836020870160208301375f602085830101528094505050505092915050565b5f805f805f805f60e0888a0312156200049f575f80fd5b620004aa8862000323565b965060208801356001600160401b0380821115620004c6575f80fd5b620004d48b838c01620003f8565b975060408a0135965060608a0135955060808a0135945060a08a0135915080821115620004ff575f80fd5b6200050d8b838c01620003f8565b935060c08a013591508082111562000523575f80fd5b50620005328a828b01620003f8565b91505092959891949750929550565b808201808211156200056157634e487b7160e01b5f52601160045260245ffd5b92915050565b5f81518084525f5b818110156200058d576020818501810151868301820152016200056f565b505f602082860101526020601f19601f83011685010191505092915050565b8981526001600160a01b03898116602083015288166040820152610120606082018190525f90620005e08382018a62000567565b90508760808401528660a08401528560c084015282810360e084015262000608818662000567565b90508281036101008401526200061f818562000567565b9c9b50505050505050505050505056fe608060405234801562000010575f80fd5b506040516200379a3803806200379a8339810160408190526200003391620003c9565b5f899055600180546001600160a01b0319166001600160a01b038a16179055600362000060878262000529565b50600485905560058490556006839055600280546001600160a01b0319166001600160a01b0389161790555f54309083906200009c906200015a565b604051602001620000af929190620005f5565b60405160208183030381529060405282620000d15f546200015a60201b60201c565b604051602001620000e4929190620005f5565b6040516020818303038152906040526040516200010190620002d9565b6200010f9392919062000654565b604051809103905ff08015801562000129573d5f803e3d5ffd5b50601280546001600160a01b0319166001600160a01b0392909216919091179055506200068d975050505050505050565b60605f6200016883620001f0565b60010190505f816001600160401b0381111562000189576200018962000303565b6040519080825280601f01601f191660200182016040528015620001b4576020820181803683370190505b5090508181016020015b5f19016f181899199a1a9b1b9c1cb0b131b232b360811b600a86061a8153600a8504945084620001be57509392505050565b5f807a184f03e93ff9f4daa797ed6e38ed64bf6a1f010000000000000000831062000239577a184f03e93ff9f4daa797ed6e38ed64bf6a1f010000000000000000830492506040015b6d04ee2d6d415b85acef8100000000831062000266576d04ee2d6d415b85acef8100000000830492506020015b662386f26fc1000083106200028557662386f26fc10000830492506010015b6305f5e10083106200029e576305f5e100830492506008015b6127108310620002b357612710830492506004015b60648310620002c6576064830492506002015b600a8310620002d3576001015b92915050565b611aee8062001cac83390190565b80516001600160a01b0381168114620002fe575f80fd5b919050565b634e487b7160e01b5f52604160045260245ffd5b5f5b838110156200033357818101518382015260200162000319565b50505f910152565b5f82601f8301126200034b575f80fd5b81516001600160401b038082111562000368576200036862000303565b604051601f8301601f19908116603f0116810190828211818310171562000393576200039362000303565b81604052838152866020858801011115620003ac575f80fd5b620003bf84602083016020890162000317565b9695505050505050565b5f805f805f805f805f6101208a8c031215620003e3575f80fd5b89519850620003f560208b01620002e7565b97506200040560408b01620002e7565b60608b01519097506001600160401b038082111562000422575f80fd5b620004308d838e016200033b565b975060808c0151965060a08c0151955060c08c0151945060e08c01519150808211156200045b575f80fd5b620004698d838e016200033b565b93506101008c015191508082111562000480575f80fd5b506200048f8c828d016200033b565b9150509295985092959850929598565b600181811c90821680620004b457607f821691505b602082108103620004d357634e487b7160e01b5f52602260045260245ffd5b50919050565b601f8211156200052457805f5260205f20601f840160051c81016020851015620005005750805b601f840160051c820191505b8181101562000521575f81556001016200050c565b50505b505050565b81516001600160401b0381111562000545576200054562000303565b6200055d816200055684546200049f565b84620004d9565b602080601f83116001811462000593575f84156200057b5750858301515b5f19600386901b1c1916600185901b178555620005ed565b5f85815260208120601f198616915b82811015620005c357888601518255948401946001909101908401620005a2565b5085821015620005e157878501515f19600388901b60f8161c191681555b505060018460011b0185555b505050505050565b5f83516200060881846020880162000317565b8351908301906200061e81836020880162000317565b01949350505050565b5f81518084526200064081602086016020860162000317565b601f01601f19169290920160200192915050565b6001600160a01b03841681526060602082018190525f90620006799083018562000627565b8281036040840152620003bf818562000627565b611611806200069b5f395ff3fe608060405260043610610125575f3560e01c80630b49351c1461012957806312424e3f1461014c5780631f6d494214610162578063200d2ed21461018d57806321eff7fc146101e557806327b0229e1461021957806329dcb0cf146102385780632b7d782f1461024d5780633ccfd60b1461026c5780634051ddac1461028057806347ccca02146102ac57806366d003ac146102e35780637569b3d7146103025780638da5cb5b14610317578063937e09b114610336578063aa3ec0a91461034b578063b82c86d61461036c578063c00007b014610381578063c438b40f146103ae578063c5451232146103cd578063d7bb99ba146103ec578063da076a87146103f4578063e89e4ed614610428578063eb599e4314610456578063ed556ce214610475575b5f80fd5b348015610134575f80fd5b506010545b6040519081526020015b60405180910390f35b348015610157575f80fd5b50610160610494565b005b34801561016d575f80fd5b5061013961017c366004610eff565b60086020525f908152604090205481565b348015610198575f80fd5b50600954600a54600b54600d54600e546101b99460ff908116949392169085565b60408051951515865260208601949094529284019190915215156060830152608082015260a001610143565b3480156101f0575f80fd5b506101396101ff366004610eff565b6001600160a01b03165f9081526008602052604090205490565b348015610224575f80fd5b50610160610233366004610fdb565b610564565b348015610243575f80fd5b5061013960065481565b348015610258575f80fd5b50610160610267366004611100565b61062e565b348015610277575f80fd5b506101606106cd565b34801561028b575f80fd5b50610294610781565b6040516101439c9b9a9998979695949392919061123a565b3480156102b7575f80fd5b506012546102cb906001600160a01b031681565b6040516001600160a01b039091168152602001610143565b3480156102ee575f80fd5b506002546102cb906001600160a01b031681565b34801561030d575f80fd5b5061013960075481565b348015610322575f80fd5b506001546102cb906001600160a01b031681565b348015610341575f80fd5b5061013960045481565b348015610356575f80fd5b5061035f610897565b60405161014391906112b0565b348015610377575f80fd5b5061013960055481565b34801561038c575f80fd5b506103a061039b366004610eff565b610923565b6040516101439291906112c2565b3480156103b9575f80fd5b506101606103c83660046112da565b610a4c565b3480156103d8575f80fd5b506101606103e73660046112f1565b610b2b565b610160610c4d565b3480156103ff575f80fd5b5061013961040e366004610eff565b6001600160a01b03165f908152600c602052604090205490565b348015610433575f80fd5b506104476104423660046112da565b610ca5565b60405161014393929190611343565b348015610461575f80fd5b506101606104703660046112da565b610d69565b348015610480575f80fd5b506101b961048f3660046112da565b610e9f565b6005544710156104a2575f80fd5b335f908152600860205260409020546104b9575f80fd5b335f908152600c6020526040902054156104d1575f80fd5b5f5b60115481101561051357601181815481106104f0576104f0611376565b5f91825260209091206007909102015460ff1661050b575f80fd5b6001016104d3565b50335f908152600c60205260408120429055600b8054916105338361139e565b9190505550600260075461054791906113b6565b600b541115610562576009805460ff1916600117905542600a555b565b600d5460ff1615610573575f80fd5b60095460ff16610581575f80fd5b335f90815260086020526040902054610598575f80fd5b335f908152600f602052604090205460ff16156105b3575f80fd5b601254604051636902622f60e11b81526001600160a01b039091169063d204c45e906105e590339085906004016113d5565b5f604051808303815f87803b1580156105fc575f80fd5b505af115801561060e573d5f803e3d5ffd5b5050335f908152600f60205260409020805460ff19166001179055505050565b6001546001600160a01b03163314610644575f80fd5b81518351148015610656575080518251145b61065e575f80fd5b5f5b83518110156106c7576106bf84828151811061067e5761067e611376565b602002602001015184838151811061069857610698611376565b60200260200101518484815181106106b2576106b2611376565b6020026020010151610b2b565b600101610660565b50505050565b6001546001600160a01b031633146106e3575f80fd5b60095460ff166106f1575f80fd5b5f5b601154811015610736576011818154811061071057610710611376565b5f91825260209091206004600790920201015460ff1661072e575f80fd5b6001016106f3565b506002546040516001600160a01b03909116904780156108fc02915f818181858888f1935050505015801561076d573d5f803e3d5ffd5b50600d805460ff1916600117905542600e55565b5f8060605f805f805f805f805f4760025f9054906101000a90046001600160a01b0316600360045460055460065460075460095f015f9054906101000a900460ff1660096001015460096002015460096004015f9054906101000a900460ff166009600501548980546107f3906113f8565b80601f016020809104026020016040519081016040528092919081815260200182805461081f906113f8565b801561086a5780601f106108415761010080835404028352916020019161086a565b820191905f5260205f20905b81548152906001019060200180831161084d57829003601f168201915b505050505099509b509b509b509b509b509b509b509b509b509b509b509b50909192939495969798999a9b565b600380546108a4906113f8565b80601f01602080910402602001604051908101604052809291908181526020018280546108d0906113f8565b801561091b5780601f106108f25761010080835404028352916020019161091b565b820191905f5260205f20905b8154815290600101906020018083116108fe57829003601f168201915b505050505081565b6001600160a01b0381165f908152600f602052604081205460609060ff1615610a3557601254604051632f745c5960e01b81526001600160a01b0385811660048301525f60248301819052921690632f745c5990604401602060405180830381865afa158015610995573d5f803e3d5ffd5b505050506040513d601f19601f820116820180604052508101906109b99190611430565b60125460405163c87b56dd60e01b81526004810183905291925082916001600160a01b039091169063c87b56dd906024015f60405180830381865afa158015610a04573d5f803e3d5ffd5b505050506040513d5f823e601f3d908101601f19168201604052610a2b9190810190611447565b9250925050915091565b505060408051602081019091525f80825292909150565b5f60108281548110610a6057610a60611376565b905f5260205f20906003020190505f60118381548110610a8257610a82611376565b905f5260205f20906007020190508160020154471015610aa0575f80fd5b335f90815260086020526040902054610ab7575f80fd5b335f90815260038201602052604090205415610ad1575f80fd5b335f908152600382016020526040812042905560028201805491610af48361139e565b91905055506002600754610b0891906113b6565b81600201541115610b2657805460ff19166001908117825542908201555b505050565b6001546001600160a01b03163314610b41575f80fd5b5f835111610b4d575f80fd5b5f8211610b58575f80fd5b6005548210610b65575f80fd5b6001600160a01b038116610b77575f80fd5b60105415610bb95760108054610b8f906001906114b8565b81548110610b9f57610b9f611376565b905f5260205f209060030201600201548211610bb9575f80fd5b601080546001810182555f919091526003027f1b6847dc741a1b0cd08d278845f9d819d87b734759afb55fe2de5cb82a9ae6728101907f1b6847dc741a1b0cd08d278845f9d819d87b734759afb55fe2de5cb82a9ae67301610c1b858261151c565b50600281019290925581546001600160a01b0319166001600160a01b0391909116179055506011805460010181555f52565b600454341015610c5b575f80fd5b6006544210610c68575f80fd5b335f908152600860205260408120549003610c925760078054905f610c8c8361139e565b91905055505b335f908152600860205260409020429055565b60108181548110610cb4575f80fd5b5f918252602090912060039091020180546001820180546001600160a01b03909216935090610ce2906113f8565b80601f0160208091040260200160405190810160405280929190818152602001828054610d0e906113f8565b8015610d595780601f10610d3057610100808354040283529160200191610d59565b820191905f5260205f20905b815481529060010190602001808311610d3c57829003601f168201915b5050505050908060020154905083565b6001546001600160a01b03163314610d7f575f80fd5b5f60108281548110610d9357610d93611376565b905f5260205f20906003020190505f60118381548110610db557610db5611376565b5f9182526020909120600790910201805490915060ff16610dd4575f80fd5b60028201545f5b84811015610e4c5760118181548110610df657610df6611376565b5f91825260209091206004600790920201015460ff16610e14575f80fd5b60108181548110610e2757610e27611376565b905f5260205f2090600302016002015482610e4291906114b8565b9150600101610ddb565b5082546040516001600160a01b039091169082156108fc029083905f818181858888f19350505050158015610e83573d5f803e3d5ffd5b505060048101805460ff19166001179055426005909101555050565b60118181548110610eae575f80fd5b5f9182526020909120600790910201805460018201546002830154600484015460059094015460ff938416955091939092169085565b80356001600160a01b0381168114610efa575f80fd5b919050565b5f60208284031215610f0f575f80fd5b610f1882610ee4565b9392505050565b634e487b7160e01b5f52604160045260245ffd5b604051601f8201601f191681016001600160401b0381118282101715610f5b57610f5b610f1f565b604052919050565b5f6001600160401b03821115610f7b57610f7b610f1f565b50601f01601f191660200190565b5f82601f830112610f98575f80fd5b8135610fab610fa682610f63565b610f33565b818152846020838601011115610fbf575f80fd5b816020850160208301375f918101602001919091529392505050565b5f60208284031215610feb575f80fd5b81356001600160401b03811115611000575f80fd5b61100c84828501610f89565b949350505050565b5f6001600160401b0382111561102c5761102c610f1f565b5060051b60200190565b5f82601f830112611045575f80fd5b81356020611055610fa683611014565b8083825260208201915060208460051b870101935086841115611076575f80fd5b602086015b84811015611092578035835291830191830161107b565b509695505050505050565b5f82601f8301126110ac575f80fd5b813560206110bc610fa683611014565b8083825260208201915060208460051b8701019350868411156110dd575f80fd5b602086015b84811015611092576110f381610ee4565b83529183019183016110e2565b5f805f60608486031215611112575f80fd5b83356001600160401b0380821115611128575f80fd5b818601915086601f83011261113b575f80fd5b8135602061114b610fa683611014565b82815260059290921b8401810191818101908a841115611169575f80fd5b8286015b8481101561119f57803586811115611183575f80fd5b6111918d86838b0101610f89565b84525091830191830161116d565b50975050870135925050808211156111b5575f80fd5b6111c187838801611036565b935060408601359150808211156111d6575f80fd5b506111e38682870161109d565b9150509250925092565b5f5b838110156112075781810151838201526020016111ef565b50505f910152565b5f81518084526112268160208601602086016111ed565b601f01601f19169290920160200192915050565b8c81526001600160a01b038c166020820152610180604082018190525f906112648382018e61120f565b606084019c909c525050608081019890985260a088019690965260c087019490945291151560e08601526101008501526101208401521515610140830152610160909101529392505050565b602081525f610f18602083018461120f565b828152604060208201525f61100c604083018461120f565b5f602082840312156112ea575f80fd5b5035919050565b5f805f60608486031215611303575f80fd5b83356001600160401b03811115611318575f80fd5b61132486828701610f89565b9350506020840135915061133a60408501610ee4565b90509250925092565b6001600160a01b03841681526060602082018190525f906113669083018561120f565b9050826040830152949350505050565b634e487b7160e01b5f52603260045260245ffd5b634e487b7160e01b5f52601160045260245ffd5b5f600182016113af576113af61138a565b5060010190565b5f826113d057634e487b7160e01b5f52601260045260245ffd5b500490565b6001600160a01b03831681526040602082018190525f9061100c9083018461120f565b600181811c9082168061140c57607f821691505b60208210810361142a57634e487b7160e01b5f52602260045260245ffd5b50919050565b5f60208284031215611440575f80fd5b5051919050565b5f60208284031215611457575f80fd5b81516001600160401b0381111561146c575f80fd5b8201601f8101841361147c575f80fd5b805161148a610fa682610f63565b81815285602083850101111561149e575f80fd5b6114af8260208301602086016111ed565b95945050505050565b818103818111156114cb576114cb61138a565b92915050565b601f821115610b2657805f5260205f20601f840160051c810160208510156114f65750805b601f840160051c820191505b81811015611515575f8155600101611502565b5050505050565b81516001600160401b0381111561153557611535610f1f565b6115498161154384546113f8565b846114d1565b602080601f83116001811461157c575f84156115655750858301515b5f19600386901b1c1916600185901b1785556115d3565b5f85815260208120601f198616915b828110156115aa5788860151825594840194600190910190840161158b565b50858210156115c757878501515f19600388901b60f8161c191681555b505060018460011b0185555b50505050505056fea2646970667358221220500330d95dca0231915a005133b9f6c9eb6f120b35056837e7b05ecf89e8e0f464736f6c63430008180033608060405234801562000010575f80fd5b5060405162001aee38038062001aee8339810160408190526200003391620001aa565b8282825f620000438382620002b8565b506001620000528282620002b8565b5050506001600160a01b0381166200008357604051631e4fbdf760e01b81525f600482015260240160405180910390fd5b6200008e8162000098565b5050505062000384565b600b80546001600160a01b038381166001600160a01b0319831681179093556040519116919082907f8be0079c531659141344cd1fd0a4f28419497f9722a3daafe3b4186f6b6457e0905f90a35050565b634e487b7160e01b5f52604160045260245ffd5b5f82601f8301126200010d575f80fd5b81516001600160401b03808211156200012a576200012a620000e9565b604051601f8301601f19908116603f01168101908282118183101715620001555762000155620000e9565b816040528381526020925086602085880101111562000172575f80fd5b5f91505b8382101562000195578582018301518183018401529082019062000176565b5f602085830101528094505050505092915050565b5f805f60608486031215620001bd575f80fd5b83516001600160a01b0381168114620001d4575f80fd5b60208501519093506001600160401b0380821115620001f1575f80fd5b620001ff87838801620000fd565b9350604086015191508082111562000215575f80fd5b506200022486828701620000fd565b9150509250925092565b600181811c908216806200024357607f821691505b6020821081036200026257634e487b7160e01b5f52602260045260245ffd5b50919050565b601f821115620002b357805f5260205f20601f840160051c810160208510156200028f5750805b601f840160051c820191505b81811015620002b0575f81556001016200029b565b50505b505050565b81516001600160401b03811115620002d457620002d4620000e9565b620002ec81620002e584546200022e565b8462000268565b602080601f83116001811462000322575f84156200030a5750858301515b5f19600386901b1c1916600185901b1785556200037c565b5f85815260208120601f198616915b82811015620003525788860151825594840194600190910190840162000331565b50858210156200037057878501515f19600388901b60f8161c191681555b505060018460011b0185555b505050505050565b61175c80620003925f395ff3fe608060405234801561000f575f80fd5b50600436106100fa575f3560e01c806301ffc9a7146100fe57806306fdde0314610126578063081812fc1461013b578063095ea7b31461015b57806318160ddd1461017057806323b872dd146101825780632f745c591461019557806342842e0e146101a85780634f6ccce7146101bb5780636352211e146101ce57806370a08231146101e1578063715018a6146101f45780638da5cb5b146101fc57806395d89b4114610204578063a22cb4651461020c578063b88d4fde1461021f578063c87b56dd14610232578063d204c45e14610245578063e985e9c514610258578063f2fde38b1461026b575b5f80fd5b61011161010c3660046111e9565b61027e565b60405190151581526020015b60405180910390f35b61012e61028e565b60405161011d9190611251565b61014e610149366004611263565b61031d565b60405161011d919061127a565b61016e6101693660046112a9565b610331565b005b6008545b60405190815260200161011d565b61016e6101903660046112d1565b610340565b6101746101a33660046112a9565b6103d2565b61016e6101b63660046112d1565b610427565b6101746101c9366004611263565b610446565b61014e6101dc366004611263565b610496565b6101746101ef36600461130a565b6104a0565b61016e6104e5565b61014e6104f8565b61012e610507565b61016e61021a366004611323565b610516565b61016e61022d3660046113e2565b610521565b61012e610240366004611263565b610538565b61016e610253366004611458565b610543565b6101116102663660046114b5565b610575565b61016e61027936600461130a565b6105a2565b5f610288826105df565b92915050565b60605f805461029c906114e6565b80601f01602080910402602001604051908101604052809291908181526020018280546102c8906114e6565b80156103135780601f106102ea57610100808354040283529160200191610313565b820191905f5260205f20905b8154815290600101906020018083116102f657829003601f168201915b5050505050905090565b5f61032782610603565b506102888261063a565b61033c828233610654565b5050565b6001600160a01b038216610372575f604051633250574960e11b8152600401610369919061127a565b60405180910390fd5b5f61037e838333610661565b9050836001600160a01b0316816001600160a01b0316146103cc576040516364283d7b60e01b81526001600160a01b0380861660048301526024820184905282166044820152606401610369565b50505050565b5f6103dc836104a0565b82106103ff57828260405163295f44f760e21b815260040161036992919061151e565b506001600160a01b03919091165f908152600660209081526040808320938352929052205490565b61044183838360405180602001604052805f815250610521565b505050565b5f61045060085490565b8210610473575f8260405163295f44f760e21b815260040161036992919061151e565b6008828154811061048657610486611537565b905f5260205f2001549050919050565b5f61028882610603565b5f6001600160a01b0382166104ca575f6040516322718ad960e21b8152600401610369919061127a565b506001600160a01b03165f9081526003602052604090205490565b6104ed610675565b6104f65f6106a7565b565b600b546001600160a01b031690565b60606001805461029c906114e6565b61033c3383836106f8565b61052c848484610340565b6103cc8484848461078d565b6060610288826108a1565b61054b610675565b600c80545f918261055b8361155f565b91905055905061056b83826109a4565b61044181836109bd565b6001600160a01b039182165f90815260056020908152604080832093909416825291909152205460ff1690565b6105aa610675565b6001600160a01b0381166105d3575f604051631e4fbdf760e01b8152600401610369919061127a565b6105dc816106a7565b50565b5f6001600160e01b03198216632483248360e11b1480610288575061028882610a0c565b5f8061060e83610a30565b90506001600160a01b03811661028857604051637e27328960e01b815260048101849052602401610369565b5f908152600460205260409020546001600160a01b031690565b6104418383836001610a4a565b5f61066d848484610b45565b949350505050565b3361067e6104f8565b6001600160a01b0316146104f6573360405163118cdaa760e01b8152600401610369919061127a565b600b80546001600160a01b038381166001600160a01b0319831681179093556040519116919082907f8be0079c531659141344cd1fd0a4f28419497f9722a3daafe3b4186f6b6457e0905f90a35050565b6001600160a01b0382166107215781604051630b61174360e31b8152600401610369919061127a565b6001600160a01b038381165f81815260056020908152604080832094871680845294825291829020805460ff191686151590811790915591519182527f17307eab39ab6107e8899845ad3d59bd9653f200f220920489ca2b5937696c31910160405180910390a3505050565b6001600160a01b0383163b156103cc57604051630a85bd0160e11b81526001600160a01b0384169063150b7a02906107cf903390889087908790600401611577565b6020604051808303815f875af1925050508015610809575060408051601f3d908101601f19168201909252610806918101906115b3565b60015b610867573d808015610836576040519150601f19603f3d011682016040523d82523d5f602084013e61083b565b606091505b5080515f0361085f5783604051633250574960e11b8152600401610369919061127a565b805181602001fd5b6001600160e01b03198116630a85bd0160e11b1461089a5783604051633250574960e11b8152600401610369919061127a565b5050505050565b60606108ac82610603565b505f828152600a6020526040812080546108c5906114e6565b80601f01602080910402602001604051908101604052809291908181526020018280546108f1906114e6565b801561093c5780601f106109135761010080835404028352916020019161093c565b820191905f5260205f20905b81548152906001019060200180831161091f57829003601f168201915b505050505090505f61095860408051602081019091525f815290565b905080515f03610969575092915050565b81511561099b5780826040516020016109839291906115ce565b60405160208183030381529060405292505050919050565b61066d84610c10565b61033c828260405180602001604052805f815250610c81565b5f828152600a602052604090206109d48282611640565b506040518281527ff8e1a15aba9398e019f0b49df1a4fde98ee17ae345cb5f6b5e2c27f5033e8ce79060200160405180910390a15050565b5f6001600160e01b0319821663780e9d6360e01b1480610288575061028882610c97565b5f908152600260205260409020546001600160a01b031690565b8080610a5e57506001600160a01b03821615155b15610b16575f610a6d84610603565b90506001600160a01b03831615801590610a995750826001600160a01b0316816001600160a01b031614155b8015610aac5750610aaa8184610575565b155b15610acc578260405163a9fbf51f60e01b8152600401610369919061127a565b8115610b145783856001600160a01b0316826001600160a01b03167f8c5be1e5ebec7d5bd14f71427d1e84f3dd0314c0f7b2291e5b200ac8c7c3b92560405160405180910390a45b505b50505f90815260046020526040902080546001600160a01b0319166001600160a01b0392909216919091179055565b5f80610b52858585610ce6565b90506001600160a01b038116610bae57610ba984600880545f838152600960205260408120829055600182018355919091527ff3f7a9fe364faab93b216da50a3214154f22a0a2b415b23a84c8169e8b636ee30155565b610bd1565b846001600160a01b0316816001600160a01b031614610bd157610bd18185610dd3565b6001600160a01b038516610bed57610be884610e60565b61066d565b846001600160a01b0316816001600160a01b03161461066d5761066d8585610f07565b6060610c1b82610603565b505f610c3160408051602081019091525f815290565b90505f815111610c4f5760405180602001604052805f815250610c7a565b80610c5984610f55565b604051602001610c6a9291906115ce565b6040516020818303038152906040525b9392505050565b610c8b8383610fe4565b6104415f84848461078d565b5f6001600160e01b031982166380ac58cd60e01b1480610cc757506001600160e01b03198216635b5e139f60e01b145b8061028857506301ffc9a760e01b6001600160e01b0319831614610288565b5f80610cf184610a30565b90506001600160a01b03831615610d0d57610d0d818486611045565b6001600160a01b03811615610d4757610d285f855f80610a4a565b6001600160a01b0381165f90815260036020526040902080545f190190555b6001600160a01b03851615610d75576001600160a01b0385165f908152600360205260409020805460010190555b5f8481526002602052604080822080546001600160a01b0319166001600160a01b0389811691821790925591518793918516917fddf252ad1be2c89b69c2b068fc378daa952ba7f163c4a11628f55a4df523b3ef91a4949350505050565b5f610ddd836104a0565b5f83815260076020526040902054909150808214610e2e576001600160a01b0384165f9081526006602090815260408083208584528252808320548484528184208190558352600790915290208190555b505f9182526007602090815260408084208490556001600160a01b039094168352600681528383209183525290812055565b6008545f90610e71906001906116ff565b5f8381526009602052604081205460088054939450909284908110610e9857610e98611537565b905f5260205f20015490508060088381548110610eb757610eb7611537565b5f918252602080832090910192909255828152600990915260408082208490558582528120556008805480610eee57610eee611712565b600190038181905f5260205f20015f9055905550505050565b5f6001610f13846104a0565b610f1d91906116ff565b6001600160a01b039093165f908152600660209081526040808320868452825280832085905593825260079052919091209190915550565b60605f610f618361109b565b60010190505f816001600160401b03811115610f7f57610f7f61135c565b6040519080825280601f01601f191660200182016040528015610fa9576020820181803683370190505b5090508181016020015b5f19016f181899199a1a9b1b9c1cb0b131b232b360811b600a86061a8153600a8504945084610fb357509392505050565b6001600160a01b03821661100d575f604051633250574960e11b8152600401610369919061127a565b5f61101983835f610661565b90506001600160a01b03811615610441575f6040516339e3563760e11b8152600401610369919061127a565b611050838383611170565b610441576001600160a01b03831661107e57604051637e27328960e01b815260048101829052602401610369565b818160405163177e802f60e01b815260040161036992919061151e565b5f8072184f03e93ff9f4daa797ed6e38ed64bf6a1f0160401b83106110d95772184f03e93ff9f4daa797ed6e38ed64bf6a1f0160401b830492506040015b6904ee2d6d415b85acef8160201b8310611103576904ee2d6d415b85acef8160201b830492506020015b662386f26fc10000831061112157662386f26fc10000830492506010015b6305f5e1008310611139576305f5e100830492506008015b612710831061114d57612710830492506004015b6064831061115f576064830492506002015b600a83106102885760010192915050565b5f6001600160a01b0383161580159061066d5750826001600160a01b0316846001600160a01b031614806111a957506111a98484610575565b8061066d5750826001600160a01b03166111c28361063a565b6001600160a01b031614949350505050565b6001600160e01b0319811681146105dc575f80fd5b5f602082840312156111f9575f80fd5b8135610c7a816111d4565b5f5b8381101561121e578181015183820152602001611206565b50505f910152565b5f815180845261123d816020860160208601611204565b601f01601f19169290920160200192915050565b602081525f610c7a6020830184611226565b5f60208284031215611273575f80fd5b5035919050565b6001600160a01b0391909116815260200190565b80356001600160a01b03811681146112a4575f80fd5b919050565b5f80604083850312156112ba575f80fd5b6112c38361128e565b946020939093013593505050565b5f805f606084860312156112e3575f80fd5b6112ec8461128e565b92506112fa6020850161128e565b9150604084013590509250925092565b5f6020828403121561131a575f80fd5b610c7a8261128e565b5f8060408385031215611334575f80fd5b61133d8361128e565b915060208301358015158114611351575f80fd5b809150509250929050565b634e487b7160e01b5f52604160045260245ffd5b5f6001600160401b03808411156113895761138961135c565b604051601f8501601f19908116603f011681019082821181831017156113b1576113b161135c565b816040528093508581528686860111156113c9575f80fd5b858560208301375f602087830101525050509392505050565b5f805f80608085870312156113f5575f80fd5b6113fe8561128e565b935061140c6020860161128e565b92506040850135915060608501356001600160401b0381111561142d575f80fd5b8501601f8101871361143d575f80fd5b61144c87823560208401611370565b91505092959194509250565b5f8060408385031215611469575f80fd5b6114728361128e565b915060208301356001600160401b0381111561148c575f80fd5b8301601f8101851361149c575f80fd5b6114ab85823560208401611370565b9150509250929050565b5f80604083850312156114c6575f80fd5b6114cf8361128e565b91506114dd6020840161128e565b90509250929050565b600181811c908216806114fa57607f821691505b60208210810361151857634e487b7160e01b5f52602260045260245ffd5b50919050565b6001600160a01b03929092168252602082015260400190565b634e487b7160e01b5f52603260045260245ffd5b634e487b7160e01b5f52601160045260245ffd5b5f600182016115705761157061154b565b5060010190565b6001600160a01b03858116825284166020820152604081018390526080606082018190525f906115a990830184611226565b9695505050505050565b5f602082840312156115c3575f80fd5b8151610c7a816111d4565b5f83516115df818460208801611204565b8351908301906115f3818360208801611204565b01949350505050565b601f82111561044157805f5260205f20601f840160051c810160208510156116215750805b601f840160051c820191505b8181101561089a575f815560010161162d565b81516001600160401b038111156116595761165961135c565b61166d8161166784546114e6565b846115fc565b602080601f8311600181146116a0575f84156116895750858301515b5f19600386901b1c1916600185901b1785556116f7565b5f85815260208120601f198616915b828110156116ce578886015182559484019460019091019084016116af565b50858210156116eb57878501515f19600388901b60f8161c191681555b505060018460011b0185555b505050505050565b818103818111156102885761028861154b565b634e487b7160e01b5f52603160045260245ffdfea2646970667358221220e529bfe2e1be774d82aead2a29daeccff3d6b6f5ed388f64539bae71963f07af64736f6c63430008180033a26469706673582212203fb9ab098533d87057b191e6976dee88dd7e674d67dd9b4fd6dd4aea0774ad1464736f6c63430008180033","opcodes":"PUSH1 0x80 PUSH1 0x40 MSTORE CALLVALUE DUP1 ISZERO PUSH2 0xF JUMPI PUSH0 DUP1 REVERT JUMPDEST POP PUSH2 0x3DFF DUP1 PUSH2 0x1D PUSH0 CODECOPY PUSH0 RETURN INVALID PUSH1 0x80 PUSH1 0x40 MSTORE CALLVALUE DUP1 ISZERO PUSH3 0x10 JUMPI PUSH0 DUP1 REVERT JUMPDEST POP PUSH1 0x4 CALLDATASIZE LT PUSH3 0x5C JUMPI PUSH0 CALLDATALOAD PUSH1 0xE0 SHR DUP1 PUSH4 0x2FA9C007 EQ PUSH3 0x60 JUMPI DUP1 PUSH4 0x7AC3886E EQ PUSH3 0x8F JUMPI DUP1 PUSH4 0x9EC6DEAF EQ PUSH3 0xA8 JUMPI DUP1 PUSH4 0xC73D7024 EQ PUSH3 0xBF JUMPI DUP1 PUSH4 0xF08A64E6 EQ PUSH3 0xD8 JUMPI JUMPDEST PUSH0 DUP1 REVERT JUMPDEST PUSH3 0x77 PUSH3 0x71 CALLDATASIZE PUSH1 0x4 PUSH3 0x33F JUMP JUMPDEST PUSH3 0xE2 JUMP JUMPDEST PUSH1 0x40 MLOAD PUSH3 0x86 SWAP2 SWAP1 PUSH3 0x36A JUMP JUMPDEST PUSH1 0x40 MLOAD DUP1 SWAP2 SUB SWAP1 RETURN JUMPDEST PUSH3 0x99 PUSH3 0x117 JUMP JUMPDEST PUSH1 0x40 MLOAD PUSH3 0x86 SWAP2 SWAP1 PUSH3 0x37E JUMP JUMPDEST PUSH3 0x77 PUSH3 0xB9 CALLDATASIZE PUSH1 0x4 PUSH3 0x3CC JUMP JUMPDEST PUSH3 0x178 JUMP JUMPDEST PUSH3 0xD6 PUSH3 0xD0 CALLDATASIZE PUSH1 0x4 PUSH3 0x488 JUMP JUMPDEST PUSH3 0x1A0 JUMP JUMPDEST STOP JUMPDEST PUSH3 0x99 PUSH3 0x2AD JUMP JUMPDEST PUSH1 0x1 PUSH1 0x20 MSTORE DUP2 PUSH0 MSTORE PUSH1 0x40 PUSH0 KECCAK256 DUP2 DUP2 SLOAD DUP2 LT PUSH3 0xFC JUMPI PUSH0 DUP1 REVERT JUMPDEST PUSH0 SWAP2 DUP3 MSTORE PUSH1 0x20 SWAP1 SWAP2 KECCAK256 ADD SLOAD PUSH1 0x1 PUSH1 0x1 PUSH1 0xA0 SHL SUB AND SWAP2 POP DUP3 SWAP1 POP JUMP JUMPDEST PUSH1 0x60 PUSH0 DUP1 SLOAD DUP1 PUSH1 0x20 MUL PUSH1 0x20 ADD PUSH1 0x40 MLOAD SWAP1 DUP2 ADD PUSH1 0x40 MSTORE DUP1 SWAP3 SWAP2 SWAP1 DUP2 DUP2 MSTORE PUSH1 0x20 ADD DUP3 DUP1 SLOAD DUP1 ISZERO PUSH3 0x16E JUMPI PUSH1 0x20 MUL DUP3 ADD SWAP2 SWAP1 PUSH0 MSTORE PUSH1 0x20 PUSH0 KECCAK256 SWAP1 JUMPDEST DUP2 SLOAD PUSH1 0x1 PUSH1 0x1 PUSH1 0xA0 SHL SUB AND DUP2 MSTORE PUSH1 0x1 SWAP1 SWAP2 ADD SWAP1 PUSH1 0x20 ADD DUP1 DUP4 GT PUSH3 0x14F JUMPI JUMPDEST POP POP POP POP POP SWAP1 POP SWAP1 JUMP JUMPDEST PUSH0 DUP2 DUP2 SLOAD DUP2 LT PUSH3 0x187 JUMPI PUSH0 DUP1 REVERT JUMPDEST PUSH0 SWAP2 DUP3 MSTORE PUSH1 0x20 SWAP1 SWAP2 KECCAK256 ADD SLOAD PUSH1 0x1 PUSH1 0x1 PUSH1 0xA0 SHL SUB AND SWAP1 POP DUP2 JUMP JUMPDEST PUSH0 DUP1 SLOAD PUSH3 0x1B0 SWAP1 PUSH1 0x1 PUSH3 0x541 JUMP JUMPDEST CALLER DUP10 DUP10 DUP10 DUP10 DUP10 DUP10 DUP10 PUSH1 0x40 MLOAD PUSH3 0x1C6 SWAP1 PUSH3 0x315 JUMP JUMPDEST PUSH3 0x1DA SWAP10 SWAP9 SWAP8 SWAP7 SWAP6 SWAP5 SWAP4 SWAP3 SWAP2 SWAP1 PUSH3 0x5AC JUMP JUMPDEST PUSH1 0x40 MLOAD DUP1 SWAP2 SUB SWAP1 PUSH0 CREATE DUP1 ISZERO DUP1 ISZERO PUSH3 0x1F4 JUMPI RETURNDATASIZE PUSH0 DUP1 RETURNDATACOPY RETURNDATASIZE PUSH0 REVERT JUMPDEST POP PUSH0 DUP1 SLOAD PUSH1 0x1 DUP2 DUP2 ADD DUP4 SSTORE PUSH32 0x290DECD9548B62A8D60345A988386FC84BA6BC95484008F6362F93160EF3E563 SWAP1 SWAP2 ADD DUP1 SLOAD PUSH1 0x1 PUSH1 0x1 PUSH1 0xA0 SHL SUB DUP6 AND PUSH1 0x1 PUSH1 0x1 PUSH1 0xA0 SHL SUB NOT SWAP2 DUP3 AND DUP2 OR SWAP1 SWAP3 SSTORE CALLER DUP1 DUP6 MSTORE PUSH1 0x20 DUP5 DUP2 MSTORE PUSH1 0x40 DUP1 DUP8 KECCAK256 DUP1 SLOAD SWAP7 DUP8 ADD DUP2 SSTORE DUP8 MSTORE SWAP6 KECCAK256 SWAP1 SWAP4 ADD DUP1 SLOAD SWAP1 SWAP2 AND SWAP1 SWAP2 OR SWAP1 SSTORE SWAP1 MLOAD SWAP2 SWAP3 POP SWAP1 PUSH32 0x8CB1F5E0B7508307E592A641586F535256DBA226B02388100691C6133F65E22E SWAP1 PUSH3 0x29B SWAP1 DUP5 SWAP1 PUSH3 0x36A JUMP JUMPDEST PUSH1 0x40 MLOAD DUP1 SWAP2 SUB SWAP1 LOG2 POP POP POP POP POP POP POP POP JUMP JUMPDEST CALLER PUSH0 SWAP1 DUP2 MSTORE PUSH1 0x1 PUSH1 0x20 SWAP1 DUP2 MSTORE PUSH1 0x40 SWAP2 DUP3 SWAP1 KECCAK256 DUP1 SLOAD DUP4 MLOAD DUP2 DUP5 MUL DUP2 ADD DUP5 ADD SWAP1 SWAP5 MSTORE DUP1 DUP5 MSTORE PUSH1 0x60 SWAP4 SWAP3 DUP4 ADD DUP3 DUP3 DUP1 ISZERO PUSH3 0x16E JUMPI PUSH1 0x20 MUL DUP3 ADD SWAP2 SWAP1 PUSH0 MSTORE PUSH1 0x20 PUSH0 KECCAK256 SWAP1 DUP2 SLOAD PUSH1 0x1 PUSH1 0x1 PUSH1 0xA0 SHL SUB AND DUP2 MSTORE PUSH1 0x1 SWAP1 SWAP2 ADD SWAP1 PUSH1 0x20 ADD DUP1 DUP4 GT PUSH3 0x14F JUMPI POP POP POP POP POP SWAP1 POP SWAP1 JUMP JUMPDEST PUSH2 0x379A DUP1 PUSH3 0x630 DUP4 CODECOPY ADD SWAP1 JUMP JUMPDEST DUP1 CALLDATALOAD PUSH1 0x1 PUSH1 0x1 PUSH1 0xA0 SHL SUB DUP2 AND DUP2 EQ PUSH3 0x33A JUMPI PUSH0 DUP1 REVERT JUMPDEST SWAP2 SWAP1 POP JUMP JUMPDEST PUSH0 DUP1 PUSH1 0x40 DUP4 DUP6 SUB SLT ISZERO PUSH3 0x351 JUMPI PUSH0 DUP1 REVERT JUMPDEST PUSH3 0x35C DUP4 PUSH3 0x323 JUMP JUMPDEST SWAP5 PUSH1 0x20 SWAP4 SWAP1 SWAP4 ADD CALLDATALOAD SWAP4 POP POP POP JUMP JUMPDEST PUSH1 0x1 PUSH1 0x1 PUSH1 0xA0 SHL SUB SWAP2 SWAP1 SWAP2 AND DUP2 MSTORE PUSH1 0x20 ADD SWAP1 JUMP JUMPDEST PUSH1 0x20 DUP1 DUP3 MSTORE DUP3 MLOAD DUP3 DUP3 ADD DUP2 SWAP1 MSTORE PUSH0 SWAP2 SWAP1 DUP5 DUP3 ADD SWAP1 PUSH1 0x40 DUP6 ADD SWAP1 DUP5 JUMPDEST DUP2 DUP2 LT ISZERO PUSH3 0x3C0 JUMPI DUP4 MLOAD PUSH1 0x1 PUSH1 0x1 PUSH1 0xA0 SHL SUB AND DUP4 MSTORE SWAP3 DUP5 ADD SWAP3 SWAP2 DUP5 ADD SWAP2 PUSH1 0x1 ADD PUSH3 0x399 JUMP JUMPDEST POP SWAP1 SWAP7 SWAP6 POP POP POP POP POP POP JUMP JUMPDEST PUSH0 PUSH1 0x20 DUP3 DUP5 SUB SLT ISZERO PUSH3 0x3DD JUMPI PUSH0 DUP1 REVERT JUMPDEST POP CALLDATALOAD SWAP2 SWAP1 POP JUMP JUMPDEST PUSH4 0x4E487B71 PUSH1 0xE0 SHL PUSH0 MSTORE PUSH1 0x41 PUSH1 0x4 MSTORE PUSH1 0x24 PUSH0 REVERT JUMPDEST PUSH0 DUP3 PUSH1 0x1F DUP4 ADD SLT PUSH3 0x408 JUMPI PUSH0 DUP1 REVERT JUMPDEST DUP2 CALLDATALOAD PUSH1 0x1 PUSH1 0x1 PUSH1 0x40 SHL SUB DUP1 DUP3 GT ISZERO PUSH3 0x425 JUMPI PUSH3 0x425 PUSH3 0x3E4 JUMP JUMPDEST PUSH1 0x40 MLOAD PUSH1 0x1F DUP4 ADD PUSH1 0x1F NOT SWAP1 DUP2 AND PUSH1 0x3F ADD AND DUP2 ADD SWAP1 DUP3 DUP3 GT DUP2 DUP4 LT OR ISZERO PUSH3 0x450 JUMPI PUSH3 0x450 PUSH3 0x3E4 JUMP JUMPDEST DUP2 PUSH1 0x40 MSTORE DUP4 DUP2 MSTORE DUP7 PUSH1 0x20 DUP6 DUP9 ADD ADD GT ISZERO PUSH3 0x469 JUMPI PUSH0 DUP1 REVERT JUMPDEST DUP4 PUSH1 0x20 DUP8 ADD PUSH1 0x20 DUP4 ADD CALLDATACOPY PUSH0 PUSH1 0x20 DUP6 DUP4 ADD ADD MSTORE DUP1 SWAP5 POP POP POP POP POP SWAP3 SWAP2 POP POP JUMP JUMPDEST PUSH0 DUP1 PUSH0 DUP1 PUSH0 DUP1 PUSH0 PUSH1 0xE0 DUP9 DUP11 SUB SLT ISZERO PUSH3 0x49F JUMPI PUSH0 DUP1 REVERT JUMPDEST PUSH3 0x4AA DUP9 PUSH3 0x323 JUMP JUMPDEST SWAP7 POP PUSH1 0x20 DUP9 ADD CALLDATALOAD PUSH1 0x1 PUSH1 0x1 PUSH1 0x40 SHL SUB DUP1 DUP3 GT ISZERO PUSH3 0x4C6 JUMPI PUSH0 DUP1 REVERT JUMPDEST PUSH3 0x4D4 DUP12 DUP4 DUP13 ADD PUSH3 0x3F8 JUMP JUMPDEST SWAP8 POP PUSH1 0x40 DUP11 ADD CALLDATALOAD SWAP7 POP PUSH1 0x60 DUP11 ADD CALLDATALOAD SWAP6 POP PUSH1 0x80 DUP11 ADD CALLDATALOAD SWAP5 POP PUSH1 0xA0 DUP11 ADD CALLDATALOAD SWAP2 POP DUP1 DUP3 GT ISZERO PUSH3 0x4FF JUMPI PUSH0 DUP1 REVERT JUMPDEST PUSH3 0x50D DUP12 DUP4 DUP13 ADD PUSH3 0x3F8 JUMP JUMPDEST SWAP4 POP PUSH1 0xC0 DUP11 ADD CALLDATALOAD SWAP2 POP DUP1 DUP3 GT ISZERO PUSH3 0x523 JUMPI PUSH0 DUP1 REVERT JUMPDEST POP PUSH3 0x532 DUP11 DUP3 DUP12 ADD PUSH3 0x3F8 JUMP JUMPDEST SWAP2 POP POP SWAP3 SWAP6 SWAP9 SWAP2 SWAP5 SWAP8 POP SWAP3 SWAP6 POP JUMP JUMPDEST DUP1 DUP3 ADD DUP1 DUP3 GT ISZERO PUSH3 0x561 JUMPI PUSH4 0x4E487B71 PUSH1 0xE0 SHL PUSH0 MSTORE PUSH1 0x11 PUSH1 0x4 MSTORE PUSH1 0x24 PUSH0 REVERT JUMPDEST SWAP3 SWAP2 POP POP JUMP JUMPDEST PUSH0 DUP2 MLOAD DUP1 DUP5 MSTORE PUSH0 JUMPDEST DUP2 DUP2 LT ISZERO PUSH3 0x58D JUMPI PUSH1 0x20 DUP2 DUP6 ADD DUP2 ADD MLOAD DUP7 DUP4 ADD DUP3 ADD MSTORE ADD PUSH3 0x56F JUMP JUMPDEST POP PUSH0 PUSH1 0x20 DUP3 DUP7 ADD ADD MSTORE PUSH1 0x20 PUSH1 0x1F NOT PUSH1 0x1F DUP4 ADD AND DUP6 ADD ADD SWAP2 POP POP SWAP3 SWAP2 POP POP JUMP JUMPDEST DUP10 DUP2 MSTORE PUSH1 0x1 PUSH1 0x1 PUSH1 0xA0 SHL SUB DUP10 DUP2 AND PUSH1 0x20 DUP4 ADD MSTORE DUP9 AND PUSH1 0x40 DUP3 ADD MSTORE PUSH2 0x120 PUSH1 0x60 DUP3 ADD DUP2 SWAP1 MSTORE PUSH0 SWAP1 PUSH3 0x5E0 DUP4 DUP3 ADD DUP11 PUSH3 0x567 JUMP JUMPDEST SWAP1 POP DUP8 PUSH1 0x80 DUP5 ADD MSTORE DUP7 PUSH1 0xA0 DUP5 ADD MSTORE DUP6 PUSH1 0xC0 DUP5 ADD MSTORE DUP3 DUP2 SUB PUSH1 0xE0 DUP5 ADD MSTORE PUSH3 0x608 DUP2 DUP7 PUSH3 0x567 JUMP JUMPDEST SWAP1 POP DUP3 DUP2 SUB PUSH2 0x100 DUP5 ADD MSTORE PUSH3 0x61F DUP2 DUP6 PUSH3 0x567 JUMP JUMPDEST SWAP13 SWAP12 POP POP POP POP POP POP POP POP POP POP POP POP JUMP INVALID PUSH1 0x80 PUSH1 0x40 MSTORE CALLVALUE DUP1 ISZERO PUSH3 0x10 JUMPI PUSH0 DUP1 REVERT JUMPDEST POP PUSH1 0x40 MLOAD PUSH3 0x379A CODESIZE SUB DUP1 PUSH3 0x379A DUP4 CODECOPY DUP2 ADD PUSH1 0x40 DUP2 SWAP1 MSTORE PUSH3 0x33 SWAP2 PUSH3 0x3C9 JUMP JUMPDEST PUSH0 DUP10 SWAP1 SSTORE PUSH1 0x1 DUP1 SLOAD PUSH1 0x1 PUSH1 0x1 PUSH1 0xA0 SHL SUB NOT AND PUSH1 0x1 PUSH1 0x1 PUSH1 0xA0 SHL SUB DUP11 AND OR SWAP1 SSTORE PUSH1 0x3 PUSH3 0x60 DUP8 DUP3 PUSH3 0x529 JUMP JUMPDEST POP PUSH1 0x4 DUP6 SWAP1 SSTORE PUSH1 0x5 DUP5 SWAP1 SSTORE PUSH1 0x6 DUP4 SWAP1 SSTORE PUSH1 0x2 DUP1 SLOAD PUSH1 0x1 PUSH1 0x1 PUSH1 0xA0 SHL SUB NOT AND PUSH1 0x1 PUSH1 0x1 PUSH1 0xA0 SHL SUB DUP10 AND OR SWAP1 SSTORE PUSH0 SLOAD ADDRESS SWAP1 DUP4 SWAP1 PUSH3 0x9C SWAP1 PUSH3 0x15A JUMP JUMPDEST PUSH1 0x40 MLOAD PUSH1 0x20 ADD PUSH3 0xAF SWAP3 SWAP2 SWAP1 PUSH3 0x5F5 JUMP JUMPDEST PUSH1 0x40 MLOAD PUSH1 0x20 DUP2 DUP4 SUB SUB DUP2 MSTORE SWAP1 PUSH1 0x40 MSTORE DUP3 PUSH3 0xD1 PUSH0 SLOAD PUSH3 0x15A PUSH1 0x20 SHL PUSH1 0x20 SHR JUMP JUMPDEST PUSH1 0x40 MLOAD PUSH1 0x20 ADD PUSH3 0xE4 SWAP3 SWAP2 SWAP1 PUSH3 0x5F5 JUMP JUMPDEST PUSH1 0x40 MLOAD PUSH1 0x20 DUP2 DUP4 SUB SUB DUP2 MSTORE SWAP1 PUSH1 0x40 MSTORE PUSH1 0x40 MLOAD PUSH3 0x101 SWAP1 PUSH3 0x2D9 JUMP JUMPDEST PUSH3 0x10F SWAP4 SWAP3 SWAP2 SWAP1 PUSH3 0x654 JUMP JUMPDEST PUSH1 0x40 MLOAD DUP1 SWAP2 SUB SWAP1 PUSH0 CREATE DUP1 ISZERO DUP1 ISZERO PUSH3 0x129 JUMPI RETURNDATASIZE PUSH0 DUP1 RETURNDATACOPY RETURNDATASIZE PUSH0 REVERT JUMPDEST POP PUSH1 0x12 DUP1 SLOAD PUSH1 0x1 PUSH1 0x1 PUSH1 0xA0 SHL SUB NOT AND PUSH1 0x1 PUSH1 0x1 PUSH1 0xA0 SHL SUB SWAP3 SWAP1 SWAP3 AND SWAP2 SWAP1 SWAP2 OR SWAP1 SSTORE POP PUSH3 0x68D SWAP8 POP POP POP POP POP POP POP POP JUMP JUMPDEST PUSH1 0x60 PUSH0 PUSH3 0x168 DUP4 PUSH3 0x1F0 JUMP JUMPDEST PUSH1 0x1 ADD SWAP1 POP PUSH0 DUP2 PUSH1 0x1 PUSH1 0x1 PUSH1 0x40 SHL SUB DUP2 GT ISZERO PUSH3 0x189 JUMPI PUSH3 0x189 PUSH3 0x303 JUMP JUMPDEST PUSH1 0x40 MLOAD SWAP1 DUP1 DUP3 MSTORE DUP1 PUSH1 0x1F ADD PUSH1 0x1F NOT AND PUSH1 0x20 ADD DUP3 ADD PUSH1 0x40 MSTORE DUP1 ISZERO PUSH3 0x1B4 JUMPI PUSH1 0x20 DUP3 ADD DUP2 DUP1 CALLDATASIZE DUP4 CALLDATACOPY ADD SWAP1 POP JUMPDEST POP SWAP1 POP DUP2 DUP2 ADD PUSH1 0x20 ADD JUMPDEST PUSH0 NOT ADD PUSH16 0x181899199A1A9B1B9C1CB0B131B232B3 PUSH1 0x81 SHL PUSH1 0xA DUP7 MOD BYTE DUP2 MSTORE8 PUSH1 0xA DUP6 DIV SWAP5 POP DUP5 PUSH3 0x1BE JUMPI POP SWAP4 SWAP3 POP POP POP JUMP JUMPDEST PUSH0 DUP1 PUSH27 0x184F03E93FF9F4DAA797ED6E38ED64BF6A1F010000000000000000 DUP4 LT PUSH3 0x239 JUMPI PUSH27 0x184F03E93FF9F4DAA797ED6E38ED64BF6A1F010000000000000000 DUP4 DIV SWAP3 POP PUSH1 0x40 ADD JUMPDEST PUSH14 0x4EE2D6D415B85ACEF8100000000 DUP4 LT PUSH3 0x266 JUMPI PUSH14 0x4EE2D6D415B85ACEF8100000000 DUP4 DIV SWAP3 POP PUSH1 0x20 ADD JUMPDEST PUSH7 0x2386F26FC10000 DUP4 LT PUSH3 0x285 JUMPI PUSH7 0x2386F26FC10000 DUP4 DIV SWAP3 POP PUSH1 0x10 ADD JUMPDEST PUSH4 0x5F5E100 DUP4 LT PUSH3 0x29E JUMPI PUSH4 0x5F5E100 DUP4 DIV SWAP3 POP PUSH1 0x8 ADD JUMPDEST PUSH2 0x2710 DUP4 LT PUSH3 0x2B3 JUMPI PUSH2 0x2710 DUP4 DIV SWAP3 POP PUSH1 0x4 ADD JUMPDEST PUSH1 0x64 DUP4 LT PUSH3 0x2C6 JUMPI PUSH1 0x64 DUP4 DIV SWAP3 POP PUSH1 0x2 ADD JUMPDEST PUSH1 0xA DUP4 LT PUSH3 0x2D3 JUMPI PUSH1 0x1 ADD JUMPDEST SWAP3 SWAP2 POP POP JUMP JUMPDEST PUSH2 0x1AEE DUP1 PUSH3 0x1CAC DUP4 CODECOPY ADD SWAP1 JUMP JUMPDEST DUP1 MLOAD PUSH1 0x1 PUSH1 0x1 PUSH1 0xA0 SHL SUB DUP2 AND DUP2 EQ PUSH3 0x2FE JUMPI PUSH0 DUP1 REVERT JUMPDEST SWAP2 SWAP1 POP JUMP JUMPDEST PUSH4 0x4E487B71 PUSH1 0xE0 SHL PUSH0 MSTORE PUSH1 0x41 PUSH1 0x4 MSTORE PUSH1 0x24 PUSH0 REVERT JUMPDEST PUSH0 JUMPDEST DUP4 DUP2 LT ISZERO PUSH3 0x333 JUMPI DUP2 DUP2 ADD MLOAD DUP4 DUP3 ADD MSTORE PUSH1 0x20 ADD PUSH3 0x319 JUMP JUMPDEST POP POP PUSH0 SWAP2 ADD MSTORE JUMP JUMPDEST PUSH0 DUP3 PUSH1 0x1F DUP4 ADD SLT PUSH3 0x34B JUMPI PUSH0 DUP1 REVERT JUMPDEST DUP2 MLOAD PUSH1 0x1 PUSH1 0x1 PUSH1 0x40 SHL SUB DUP1 DUP3 GT ISZERO PUSH3 0x368 JUMPI PUSH3 0x368 PUSH3 0x303 JUMP JUMPDEST PUSH1 0x40 MLOAD PUSH1 0x1F DUP4 ADD PUSH1 0x1F NOT SWAP1 DUP2 AND PUSH1 0x3F ADD AND DUP2 ADD SWAP1 DUP3 DUP3 GT DUP2 DUP4 LT OR ISZERO PUSH3 0x393 JUMPI PUSH3 0x393 PUSH3 0x303 JUMP JUMPDEST DUP2 PUSH1 0x40 MSTORE DUP4 DUP2 MSTORE DUP7 PUSH1 0x20 DUP6 DUP9 ADD ADD GT ISZERO PUSH3 0x3AC JUMPI PUSH0 DUP1 REVERT JUMPDEST PUSH3 0x3BF DUP5 PUSH1 0x20 DUP4 ADD PUSH1 0x20 DUP10 ADD PUSH3 0x317 JUMP JUMPDEST SWAP7 SWAP6 POP POP POP POP POP POP JUMP JUMPDEST PUSH0 DUP1 PUSH0 DUP1 PUSH0 DUP1 PUSH0 DUP1 PUSH0 PUSH2 0x120 DUP11 DUP13 SUB SLT ISZERO PUSH3 0x3E3 JUMPI PUSH0 DUP1 REVERT JUMPDEST DUP10 MLOAD SWAP9 POP PUSH3 0x3F5 PUSH1 0x20 DUP12 ADD PUSH3 0x2E7 JUMP JUMPDEST SWAP8 POP PUSH3 0x405 PUSH1 0x40 DUP12 ADD PUSH3 0x2E7 JUMP JUMPDEST PUSH1 0x60 DUP12 ADD MLOAD SWAP1 SWAP8 POP PUSH1 0x1 PUSH1 0x1 PUSH1 0x40 SHL SUB DUP1 DUP3 GT ISZERO PUSH3 0x422 JUMPI PUSH0 DUP1 REVERT JUMPDEST PUSH3 0x430 DUP14 DUP4 DUP15 ADD PUSH3 0x33B JUMP JUMPDEST SWAP8 POP PUSH1 0x80 DUP13 ADD MLOAD SWAP7 POP PUSH1 0xA0 DUP13 ADD MLOAD SWAP6 POP PUSH1 0xC0 DUP13 ADD MLOAD SWAP5 POP PUSH1 0xE0 DUP13 ADD MLOAD SWAP2 POP DUP1 DUP3 GT ISZERO PUSH3 0x45B JUMPI PUSH0 DUP1 REVERT JUMPDEST PUSH3 0x469 DUP14 DUP4 DUP15 ADD PUSH3 0x33B JUMP JUMPDEST SWAP4 POP PUSH2 0x100 DUP13 ADD MLOAD SWAP2 POP DUP1 DUP3 GT ISZERO PUSH3 0x480 JUMPI PUSH0 DUP1 REVERT JUMPDEST POP PUSH3 0x48F DUP13 DUP3 DUP14 ADD PUSH3 0x33B JUMP JUMPDEST SWAP2 POP POP SWAP3 SWAP6 SWAP9 POP SWAP3 SWAP6 SWAP9 POP SWAP3 SWAP6 SWAP9 JUMP JUMPDEST PUSH1 0x1 DUP2 DUP2 SHR SWAP1 DUP3 AND DUP1 PUSH3 0x4B4 JUMPI PUSH1 0x7F DUP3 AND SWAP2 POP JUMPDEST PUSH1 0x20 DUP3 LT DUP2 SUB PUSH3 0x4D3 JUMPI PUSH4 0x4E487B71 PUSH1 0xE0 SHL PUSH0 MSTORE PUSH1 0x22 PUSH1 0x4 MSTORE PUSH1 0x24 PUSH0 REVERT JUMPDEST POP SWAP2 SWAP1 POP JUMP JUMPDEST PUSH1 0x1F DUP3 GT ISZERO PUSH3 0x524 JUMPI DUP1 PUSH0 MSTORE PUSH1 0x20 PUSH0 KECCAK256 PUSH1 0x1F DUP5 ADD PUSH1 0x5 SHR DUP2 ADD PUSH1 0x20 DUP6 LT ISZERO PUSH3 0x500 JUMPI POP DUP1 JUMPDEST PUSH1 0x1F DUP5 ADD PUSH1 0x5 SHR DUP3 ADD SWAP2 POP JUMPDEST DUP2 DUP2 LT ISZERO PUSH3 0x521 JUMPI PUSH0 DUP2 SSTORE PUSH1 0x1 ADD PUSH3 0x50C JUMP JUMPDEST POP POP JUMPDEST POP POP POP JUMP JUMPDEST DUP2 MLOAD PUSH1 0x1 PUSH1 0x1 PUSH1 0x40 SHL SUB DUP2 GT ISZERO PUSH3 0x545 JUMPI PUSH3 0x545 PUSH3 0x303 JUMP JUMPDEST PUSH3 0x55D DUP2 PUSH3 0x556 DUP5 SLOAD PUSH3 0x49F JUMP JUMPDEST DUP5 PUSH3 0x4D9 JUMP JUMPDEST PUSH1 0x20 DUP1 PUSH1 0x1F DUP4 GT PUSH1 0x1 DUP2 EQ PUSH3 0x593 JUMPI PUSH0 DUP5 ISZERO PUSH3 0x57B JUMPI POP DUP6 DUP4 ADD MLOAD JUMPDEST PUSH0 NOT PUSH1 0x3 DUP7 SWAP1 SHL SHR NOT AND PUSH1 0x1 DUP6 SWAP1 SHL OR DUP6 SSTORE PUSH3 0x5ED JUMP JUMPDEST PUSH0 DUP6 DUP2 MSTORE PUSH1 0x20 DUP2 KECCAK256 PUSH1 0x1F NOT DUP7 AND SWAP2 JUMPDEST DUP3 DUP2 LT ISZERO PUSH3 0x5C3 JUMPI DUP9 DUP7 ADD MLOAD DUP3 SSTORE SWAP5 DUP5 ADD SWAP5 PUSH1 0x1 SWAP1 SWAP2 ADD SWAP1 DUP5 ADD PUSH3 0x5A2 JUMP JUMPDEST POP DUP6 DUP3 LT ISZERO PUSH3 0x5E1 JUMPI DUP8 DUP6 ADD MLOAD PUSH0 NOT PUSH1 0x3 DUP9 SWAP1 SHL PUSH1 0xF8 AND SHR NOT AND DUP2 SSTORE JUMPDEST POP POP PUSH1 0x1 DUP5 PUSH1 0x1 SHL ADD DUP6 SSTORE JUMPDEST POP POP POP POP POP POP JUMP JUMPDEST PUSH0 DUP4 MLOAD PUSH3 0x608 DUP2 DUP5 PUSH1 0x20 DUP9 ADD PUSH3 0x317 JUMP JUMPDEST DUP4 MLOAD SWAP1 DUP4 ADD SWAP1 PUSH3 0x61E DUP2 DUP4 PUSH1 0x20 DUP9 ADD PUSH3 0x317 JUMP JUMPDEST ADD SWAP5 SWAP4 POP POP POP POP JUMP JUMPDEST PUSH0 DUP2 MLOAD DUP1 DUP5 MSTORE PUSH3 0x640 DUP2 PUSH1 0x20 DUP7 ADD PUSH1 0x20 DUP7 ADD PUSH3 0x317 JUMP JUMPDEST PUSH1 0x1F ADD PUSH1 0x1F NOT AND SWAP3 SWAP1 SWAP3 ADD PUSH1 0x20 ADD SWAP3 SWAP2 POP POP JUMP JUMPDEST PUSH1 0x1 PUSH1 0x1 PUSH1 0xA0 SHL SUB DUP5 AND DUP2 MSTORE PUSH1 0x60 PUSH1 0x20 DUP3 ADD DUP2 SWAP1 MSTORE PUSH0 SWAP1 PUSH3 0x679 SWAP1 DUP4 ADD DUP6 PUSH3 0x627 JUMP JUMPDEST DUP3 DUP2 SUB PUSH1 0x40 DUP5 ADD MSTORE PUSH3 0x3BF DUP2 DUP6 PUSH3 0x627 JUMP JUMPDEST PUSH2 0x1611 DUP1 PUSH3 0x69B PUSH0 CODECOPY PUSH0 RETURN INVALID PUSH1 0x80 PUSH1 0x40 MSTORE PUSH1 0x4 CALLDATASIZE LT PUSH2 0x125 JUMPI PUSH0 CALLDATALOAD PUSH1 0xE0 SHR DUP1 PUSH4 0xB49351C EQ PUSH2 0x129 JUMPI DUP1 PUSH4 0x12424E3F EQ PUSH2 0x14C JUMPI DUP1 PUSH4 0x1F6D4942 EQ PUSH2 0x162 JUMPI DUP1 PUSH4 0x200D2ED2 EQ PUSH2 0x18D JUMPI DUP1 PUSH4 0x21EFF7FC EQ PUSH2 0x1E5 JUMPI DUP1 PUSH4 0x27B0229E EQ PUSH2 0x219 JUMPI DUP1 PUSH4 0x29DCB0CF EQ PUSH2 0x238 JUMPI DUP1 PUSH4 0x2B7D782F EQ PUSH2 0x24D JUMPI DUP1 PUSH4 0x3CCFD60B EQ PUSH2 0x26C JUMPI DUP1 PUSH4 0x4051DDAC EQ PUSH2 0x280 JUMPI DUP1 PUSH4 0x47CCCA02 EQ PUSH2 0x2AC JUMPI DUP1 PUSH4 0x66D003AC EQ PUSH2 0x2E3 JUMPI DUP1 PUSH4 0x7569B3D7 EQ PUSH2 0x302 JUMPI DUP1 PUSH4 0x8DA5CB5B EQ PUSH2 0x317 JUMPI DUP1 PUSH4 0x937E09B1 EQ PUSH2 0x336 JUMPI DUP1 PUSH4 0xAA3EC0A9 EQ PUSH2 0x34B JUMPI DUP1 PUSH4 0xB82C86D6 EQ PUSH2 0x36C JUMPI DUP1 PUSH4 0xC00007B0 EQ PUSH2 0x381 JUMPI DUP1 PUSH4 0xC438B40F EQ PUSH2 0x3AE JUMPI DUP1 PUSH4 0xC5451232 EQ PUSH2 0x3CD JUMPI DUP1 PUSH4 0xD7BB99BA EQ PUSH2 0x3EC JUMPI DUP1 PUSH4 0xDA076A87 EQ PUSH2 0x3F4 JUMPI DUP1 PUSH4 0xE89E4ED6 EQ PUSH2 0x428 JUMPI DUP1 PUSH4 0xEB599E43 EQ PUSH2 0x456 JUMPI DUP1 PUSH4 0xED556CE2 EQ PUSH2 0x475 JUMPI JUMPDEST PUSH0 DUP1 REVERT JUMPDEST CALLVALUE DUP1 ISZERO PUSH2 0x134 JUMPI PUSH0 DUP1 REVERT JUMPDEST POP PUSH1 0x10 SLOAD JUMPDEST PUSH1 0x40 MLOAD SWAP1 DUP2 MSTORE PUSH1 0x20 ADD JUMPDEST PUSH1 0x40 MLOAD DUP1 SWAP2 SUB SWAP1 RETURN JUMPDEST CALLVALUE DUP1 ISZERO PUSH2 0x157 JUMPI PUSH0 DUP1 REVERT JUMPDEST POP PUSH2 0x160 PUSH2 0x494 JUMP JUMPDEST STOP JUMPDEST CALLVALUE DUP1 ISZERO PUSH2 0x16D JUMPI PUSH0 DUP1 REVERT JUMPDEST POP PUSH2 0x139 PUSH2 0x17C CALLDATASIZE PUSH1 0x4 PUSH2 0xEFF JUMP JUMPDEST PUSH1 0x8 PUSH1 0x20 MSTORE PUSH0 SWAP1 DUP2 MSTORE PUSH1 0x40 SWAP1 KECCAK256 SLOAD DUP2 JUMP JUMPDEST CALLVALUE DUP1 ISZERO PUSH2 0x198 JUMPI PUSH0 DUP1 REVERT JUMPDEST POP PUSH1 0x9 SLOAD PUSH1 0xA SLOAD PUSH1 0xB SLOAD PUSH1 0xD SLOAD PUSH1 0xE SLOAD PUSH2 0x1B9 SWAP5 PUSH1 0xFF SWAP1 DUP2 AND SWAP5 SWAP4 SWAP3 AND SWAP1 DUP6 JUMP JUMPDEST PUSH1 0x40 DUP1 MLOAD SWAP6 ISZERO ISZERO DUP7 MSTORE PUSH1 0x20 DUP7 ADD SWAP5 SWAP1 SWAP5 MSTORE SWAP3 DUP5 ADD SWAP2 SWAP1 SWAP2 MSTORE ISZERO ISZERO PUSH1 0x60 DUP4 ADD MSTORE PUSH1 0x80 DUP3 ADD MSTORE PUSH1 0xA0 ADD PUSH2 0x143 JUMP JUMPDEST CALLVALUE DUP1 ISZERO PUSH2 0x1F0 JUMPI PUSH0 DUP1 REVERT JUMPDEST POP PUSH2 0x139 PUSH2 0x1FF CALLDATASIZE PUSH1 0x4 PUSH2 0xEFF JUMP JUMPDEST PUSH1 0x1 PUSH1 0x1 PUSH1 0xA0 SHL SUB AND PUSH0 SWAP1 DUP2 MSTORE PUSH1 0x8 PUSH1 0x20 MSTORE PUSH1 0x40 SWAP1 KECCAK256 SLOAD SWAP1 JUMP JUMPDEST CALLVALUE DUP1 ISZERO PUSH2 0x224 JUMPI PUSH0 DUP1 REVERT JUMPDEST POP PUSH2 0x160 PUSH2 0x233 CALLDATASIZE PUSH1 0x4 PUSH2 0xFDB JUMP JUMPDEST PUSH2 0x564 JUMP JUMPDEST CALLVALUE DUP1 ISZERO PUSH2 0x243 JUMPI PUSH0 DUP1 REVERT JUMPDEST POP PUSH2 0x139 PUSH1 0x6 SLOAD DUP2 JUMP JUMPDEST CALLVALUE DUP1 ISZERO PUSH2 0x258 JUMPI PUSH0 DUP1 REVERT JUMPDEST POP PUSH2 0x160 PUSH2 0x267 CALLDATASIZE PUSH1 0x4 PUSH2 0x1100 JUMP JUMPDEST PUSH2 0x62E JUMP JUMPDEST CALLVALUE DUP1 ISZERO PUSH2 0x277 JUMPI PUSH0 DUP1 REVERT JUMPDEST POP PUSH2 0x160 PUSH2 0x6CD JUMP JUMPDEST CALLVALUE DUP1 ISZERO PUSH2 0x28B JUMPI PUSH0 DUP1 REVERT JUMPDEST POP PUSH2 0x294 PUSH2 0x781 JUMP JUMPDEST PUSH1 0x40 MLOAD PUSH2 0x143 SWAP13 SWAP12 SWAP11 SWAP10 SWAP9 SWAP8 SWAP7 SWAP6 SWAP5 SWAP4 SWAP3 SWAP2 SWAP1 PUSH2 0x123A JUMP JUMPDEST CALLVALUE DUP1 ISZERO PUSH2 0x2B7 JUMPI PUSH0 DUP1 REVERT JUMPDEST POP PUSH1 0x12 SLOAD PUSH2 0x2CB SWAP1 PUSH1 0x1 PUSH1 0x1 PUSH1 0xA0 SHL SUB AND DUP2 JUMP JUMPDEST PUSH1 0x40 MLOAD PUSH1 0x1 PUSH1 0x1 PUSH1 0xA0 SHL SUB SWAP1 SWAP2 AND DUP2 MSTORE PUSH1 0x20 ADD PUSH2 0x143 JUMP JUMPDEST CALLVALUE DUP1 ISZERO PUSH2 0x2EE JUMPI PUSH0 DUP1 REVERT JUMPDEST POP PUSH1 0x2 SLOAD PUSH2 0x2CB SWAP1 PUSH1 0x1 PUSH1 0x1 PUSH1 0xA0 SHL SUB AND DUP2 JUMP JUMPDEST CALLVALUE DUP1 ISZERO PUSH2 0x30D JUMPI PUSH0 DUP1 REVERT JUMPDEST POP PUSH2 0x139 PUSH1 0x7 SLOAD DUP2 JUMP JUMPDEST CALLVALUE DUP1 ISZERO PUSH2 0x322 JUMPI PUSH0 DUP1 REVERT JUMPDEST POP PUSH1 0x1 SLOAD PUSH2 0x2CB SWAP1 PUSH1 0x1 PUSH1 0x1 PUSH1 0xA0 SHL SUB AND DUP2 JUMP JUMPDEST CALLVALUE DUP1 ISZERO PUSH2 0x341 JUMPI PUSH0 DUP1 REVERT JUMPDEST POP PUSH2 0x139 PUSH1 0x4 SLOAD DUP2 JUMP JUMPDEST CALLVALUE DUP1 ISZERO PUSH2 0x356 JUMPI PUSH0 DUP1 REVERT JUMPDEST POP PUSH2 0x35F PUSH2 0x897 JUMP JUMPDEST PUSH1 0x40 MLOAD PUSH2 0x143 SWAP2 SWAP1 PUSH2 0x12B0 JUMP JUMPDEST CALLVALUE DUP1 ISZERO PUSH2 0x377 JUMPI PUSH0 DUP1 REVERT JUMPDEST POP PUSH2 0x139 PUSH1 0x5 SLOAD DUP2 JUMP JUMPDEST CALLVALUE DUP1 ISZERO PUSH2 0x38C JUMPI PUSH0 DUP1 REVERT JUMPDEST POP PUSH2 0x3A0 PUSH2 0x39B CALLDATASIZE PUSH1 0x4 PUSH2 0xEFF JUMP JUMPDEST PUSH2 0x923 JUMP JUMPDEST PUSH1 0x40 MLOAD PUSH2 0x143 SWAP3 SWAP2 SWAP1 PUSH2 0x12C2 JUMP JUMPDEST CALLVALUE DUP1 ISZERO PUSH2 0x3B9 JUMPI PUSH0 DUP1 REVERT JUMPDEST POP PUSH2 0x160 PUSH2 0x3C8 CALLDATASIZE PUSH1 0x4 PUSH2 0x12DA JUMP JUMPDEST PUSH2 0xA4C JUMP JUMPDEST CALLVALUE DUP1 ISZERO PUSH2 0x3D8 JUMPI PUSH0 DUP1 REVERT JUMPDEST POP PUSH2 0x160 PUSH2 0x3E7 CALLDATASIZE PUSH1 0x4 PUSH2 0x12F1 JUMP JUMPDEST PUSH2 0xB2B JUMP JUMPDEST PUSH2 0x160 PUSH2 0xC4D JUMP JUMPDEST CALLVALUE DUP1 ISZERO PUSH2 0x3FF JUMPI PUSH0 DUP1 REVERT JUMPDEST POP PUSH2 0x139 PUSH2 0x40E CALLDATASIZE PUSH1 0x4 PUSH2 0xEFF JUMP JUMPDEST PUSH1 0x1 PUSH1 0x1 PUSH1 0xA0 SHL SUB AND PUSH0 SWAP1 DUP2 MSTORE PUSH1 0xC PUSH1 0x20 MSTORE PUSH1 0x40 SWAP1 KECCAK256 SLOAD SWAP1 JUMP JUMPDEST CALLVALUE DUP1 ISZERO PUSH2 0x433 JUMPI PUSH0 DUP1 REVERT JUMPDEST POP PUSH2 0x447 PUSH2 0x442 CALLDATASIZE PUSH1 0x4 PUSH2 0x12DA JUMP JUMPDEST PUSH2 0xCA5 JUMP JUMPDEST PUSH1 0x40 MLOAD PUSH2 0x143 SWAP4 SWAP3 SWAP2 SWAP1 PUSH2 0x1343 JUMP JUMPDEST CALLVALUE DUP1 ISZERO PUSH2 0x461 JUMPI PUSH0 DUP1 REVERT JUMPDEST POP PUSH2 0x160 PUSH2 0x470 CALLDATASIZE PUSH1 0x4 PUSH2 0x12DA JUMP JUMPDEST PUSH2 0xD69 JUMP JUMPDEST CALLVALUE DUP1 ISZERO PUSH2 0x480 JUMPI PUSH0 DUP1 REVERT JUMPDEST POP PUSH2 0x1B9 PUSH2 0x48F CALLDATASIZE PUSH1 0x4 PUSH2 0x12DA JUMP JUMPDEST PUSH2 0xE9F JUMP JUMPDEST PUSH1 0x5 SLOAD SELFBALANCE LT ISZERO PUSH2 0x4A2 JUMPI PUSH0 DUP1 REVERT JUMPDEST CALLER PUSH0 SWAP1 DUP2 MSTORE PUSH1 0x8 PUSH1 0x20 MSTORE PUSH1 0x40 SWAP1 KECCAK256 SLOAD PUSH2 0x4B9 JUMPI PUSH0 DUP1 REVERT JUMPDEST CALLER PUSH0 SWAP1 DUP2 MSTORE PUSH1 0xC PUSH1 0x20 MSTORE PUSH1 0x40 SWAP1 KECCAK256 SLOAD ISZERO PUSH2 0x4D1 JUMPI PUSH0 DUP1 REVERT JUMPDEST PUSH0 JUMPDEST PUSH1 0x11 SLOAD DUP2 LT ISZERO PUSH2 0x513 JUMPI PUSH1 0x11 DUP2 DUP2 SLOAD DUP2 LT PUSH2 0x4F0 JUMPI PUSH2 0x4F0 PUSH2 0x1376 JUMP JUMPDEST PUSH0 SWAP2 DUP3 MSTORE PUSH1 0x20 SWAP1 SWAP2 KECCAK256 PUSH1 0x7 SWAP1 SWAP2 MUL ADD SLOAD PUSH1 0xFF AND PUSH2 0x50B JUMPI PUSH0 DUP1 REVERT JUMPDEST PUSH1 0x1 ADD PUSH2 0x4D3 JUMP JUMPDEST POP CALLER PUSH0 SWAP1 DUP2 MSTORE PUSH1 0xC PUSH1 0x20 MSTORE PUSH1 0x40 DUP2 KECCAK256 TIMESTAMP SWAP1 SSTORE PUSH1 0xB DUP1 SLOAD SWAP2 PUSH2 0x533 DUP4 PUSH2 0x139E JUMP JUMPDEST SWAP2 SWAP1 POP SSTORE POP PUSH1 0x2 PUSH1 0x7 SLOAD PUSH2 0x547 SWAP2 SWAP1 PUSH2 0x13B6 JUMP JUMPDEST PUSH1 0xB SLOAD GT ISZERO PUSH2 0x562 JUMPI PUSH1 0x9 DUP1 SLOAD PUSH1 0xFF NOT AND PUSH1 0x1 OR SWAP1 SSTORE TIMESTAMP PUSH1 0xA SSTORE JUMPDEST JUMP JUMPDEST PUSH1 0xD SLOAD PUSH1 0xFF AND ISZERO PUSH2 0x573 JUMPI PUSH0 DUP1 REVERT JUMPDEST PUSH1 0x9 SLOAD PUSH1 0xFF AND PUSH2 0x581 JUMPI PUSH0 DUP1 REVERT JUMPDEST CALLER PUSH0 SWAP1 DUP2 MSTORE PUSH1 0x8 PUSH1 0x20 MSTORE PUSH1 0x40 SWAP1 KECCAK256 SLOAD PUSH2 0x598 JUMPI PUSH0 DUP1 REVERT JUMPDEST CALLER PUSH0 SWAP1 DUP2 MSTORE PUSH1 0xF PUSH1 0x20 MSTORE PUSH1 0x40 SWAP1 KECCAK256 SLOAD PUSH1 0xFF AND ISZERO PUSH2 0x5B3 JUMPI PUSH0 DUP1 REVERT JUMPDEST PUSH1 0x12 SLOAD PUSH1 0x40 MLOAD PUSH4 0x6902622F PUSH1 0xE1 SHL DUP2 MSTORE PUSH1 0x1 PUSH1 0x1 PUSH1 0xA0 SHL SUB SWAP1 SWAP2 AND SWAP1 PUSH4 0xD204C45E SWAP1 PUSH2 0x5E5 SWAP1 CALLER SWAP1 DUP6 SWAP1 PUSH1 0x4 ADD PUSH2 0x13D5 JUMP JUMPDEST PUSH0 PUSH1 0x40 MLOAD DUP1 DUP4 SUB DUP2 PUSH0 DUP8 DUP1 EXTCODESIZE ISZERO DUP1 ISZERO PUSH2 0x5FC JUMPI PUSH0 DUP1 REVERT JUMPDEST POP GAS CALL ISZERO DUP1 ISZERO PUSH2 0x60E JUMPI RETURNDATASIZE PUSH0 DUP1 RETURNDATACOPY RETURNDATASIZE PUSH0 REVERT JUMPDEST POP POP CALLER PUSH0 SWAP1 DUP2 MSTORE PUSH1 0xF PUSH1 0x20 MSTORE PUSH1 0x40 SWAP1 KECCAK256 DUP1 SLOAD PUSH1 0xFF NOT AND PUSH1 0x1 OR SWAP1 SSTORE POP POP POP JUMP JUMPDEST PUSH1 0x1 SLOAD PUSH1 0x1 PUSH1 0x1 PUSH1 0xA0 SHL SUB AND CALLER EQ PUSH2 0x644 JUMPI PUSH0 DUP1 REVERT JUMPDEST DUP2 MLOAD DUP4 MLOAD EQ DUP1 ISZERO PUSH2 0x656 JUMPI POP DUP1 MLOAD DUP3 MLOAD EQ JUMPDEST PUSH2 0x65E JUMPI PUSH0 DUP1 REVERT JUMPDEST PUSH0 JUMPDEST DUP4 MLOAD DUP2 LT ISZERO PUSH2 0x6C7 JUMPI PUSH2 0x6BF DUP5 DUP3 DUP2 MLOAD DUP2 LT PUSH2 0x67E JUMPI PUSH2 0x67E PUSH2 0x1376 JUMP JUMPDEST PUSH1 0x20 MUL PUSH1 0x20 ADD ADD MLOAD DUP5 DUP4 DUP2 MLOAD DUP2 LT PUSH2 0x698 JUMPI PUSH2 0x698 PUSH2 0x1376 JUMP JUMPDEST PUSH1 0x20 MUL PUSH1 0x20 ADD ADD MLOAD DUP5 DUP5 DUP2 MLOAD DUP2 LT PUSH2 0x6B2 JUMPI PUSH2 0x6B2 PUSH2 0x1376 JUMP JUMPDEST PUSH1 0x20 MUL PUSH1 0x20 ADD ADD MLOAD PUSH2 0xB2B JUMP JUMPDEST PUSH1 0x1 ADD PUSH2 0x660 JUMP JUMPDEST POP POP POP POP JUMP JUMPDEST PUSH1 0x1 SLOAD PUSH1 0x1 PUSH1 0x1 PUSH1 0xA0 SHL SUB AND CALLER EQ PUSH2 0x6E3 JUMPI PUSH0 DUP1 REVERT JUMPDEST PUSH1 0x9 SLOAD PUSH1 0xFF AND PUSH2 0x6F1 JUMPI PUSH0 DUP1 REVERT JUMPDEST PUSH0 JUMPDEST PUSH1 0x11 SLOAD DUP2 LT ISZERO PUSH2 0x736 JUMPI PUSH1 0x11 DUP2 DUP2 SLOAD DUP2 LT PUSH2 0x710 JUMPI PUSH2 0x710 PUSH2 0x1376 JUMP JUMPDEST PUSH0 SWAP2 DUP3 MSTORE PUSH1 0x20 SWAP1 SWAP2 KECCAK256 PUSH1 0x4 PUSH1 0x7 SWAP1 SWAP3 MUL ADD ADD SLOAD PUSH1 0xFF AND PUSH2 0x72E JUMPI PUSH0 DUP1 REVERT JUMPDEST PUSH1 0x1 ADD PUSH2 0x6F3 JUMP JUMPDEST POP PUSH1 0x2 SLOAD PUSH1 0x40 MLOAD PUSH1 0x1 PUSH1 0x1 PUSH1 0xA0 SHL SUB SWAP1 SWAP2 AND SWAP1 SELFBALANCE DUP1 ISZERO PUSH2 0x8FC MUL SWAP2 PUSH0 DUP2 DUP2 DUP2 DUP6 DUP9 DUP9 CALL SWAP4 POP POP POP POP ISZERO DUP1 ISZERO PUSH2 0x76D JUMPI RETURNDATASIZE PUSH0 DUP1 RETURNDATACOPY RETURNDATASIZE PUSH0 REVERT JUMPDEST POP PUSH1 0xD DUP1 SLOAD PUSH1 0xFF NOT AND PUSH1 0x1 OR SWAP1 SSTORE TIMESTAMP PUSH1 0xE SSTORE JUMP JUMPDEST PUSH0 DUP1 PUSH1 0x60 PUSH0 DUP1 PUSH0 DUP1 PUSH0 DUP1 PUSH0 DUP1 PUSH0 SELFBALANCE PUSH1 0x2 PUSH0 SWAP1 SLOAD SWAP1 PUSH2 0x100 EXP SWAP1 DIV PUSH1 0x1 PUSH1 0x1 PUSH1 0xA0 SHL SUB AND PUSH1 0x3 PUSH1 0x4 SLOAD PUSH1 0x5 SLOAD PUSH1 0x6 SLOAD PUSH1 0x7 SLOAD PUSH1 0x9 PUSH0 ADD PUSH0 SWAP1 SLOAD SWAP1 PUSH2 0x100 EXP SWAP1 DIV PUSH1 0xFF AND PUSH1 0x9 PUSH1 0x1 ADD SLOAD PUSH1 0x9 PUSH1 0x2 ADD SLOAD PUSH1 0x9 PUSH1 0x4 ADD PUSH0 SWAP1 SLOAD SWAP1 PUSH2 0x100 EXP SWAP1 DIV PUSH1 0xFF AND PUSH1 0x9 PUSH1 0x5 ADD SLOAD DUP10 DUP1 SLOAD PUSH2 0x7F3 SWAP1 PUSH2 0x13F8 JUMP JUMPDEST DUP1 PUSH1 0x1F ADD PUSH1 0x20 DUP1 SWAP2 DIV MUL PUSH1 0x20 ADD PUSH1 0x40 MLOAD SWAP1 DUP2 ADD PUSH1 0x40 MSTORE DUP1 SWAP3 SWAP2 SWAP1 DUP2 DUP2 MSTORE PUSH1 0x20 ADD DUP3 DUP1 SLOAD PUSH2 0x81F SWAP1 PUSH2 0x13F8 JUMP JUMPDEST DUP1 ISZERO PUSH2 0x86A JUMPI DUP1 PUSH1 0x1F LT PUSH2 0x841 JUMPI PUSH2 0x100 DUP1 DUP4 SLOAD DIV MUL DUP4 MSTORE SWAP2 PUSH1 0x20 ADD SWAP2 PUSH2 0x86A JUMP JUMPDEST DUP3 ADD SWAP2 SWAP1 PUSH0 MSTORE PUSH1 0x20 PUSH0 KECCAK256 SWAP1 JUMPDEST DUP2 SLOAD DUP2 MSTORE SWAP1 PUSH1 0x1 ADD SWAP1 PUSH1 0x20 ADD DUP1 DUP4 GT PUSH2 0x84D JUMPI DUP3 SWAP1 SUB PUSH1 0x1F AND DUP3 ADD SWAP2 JUMPDEST POP POP POP POP POP SWAP10 POP SWAP12 POP SWAP12 POP SWAP12 POP SWAP12 POP SWAP12 POP SWAP12 POP SWAP12 POP SWAP12 POP SWAP12 POP SWAP12 POP SWAP12 POP SWAP12 POP SWAP1 SWAP2 SWAP3 SWAP4 SWAP5 SWAP6 SWAP7 SWAP8 SWAP9 SWAP10 SWAP11 SWAP12 JUMP JUMPDEST PUSH1 0x3 DUP1 SLOAD PUSH2 0x8A4 SWAP1 PUSH2 0x13F8 JUMP JUMPDEST DUP1 PUSH1 0x1F ADD PUSH1 0x20 DUP1 SWAP2 DIV MUL PUSH1 0x20 ADD PUSH1 0x40 MLOAD SWAP1 DUP2 ADD PUSH1 0x40 MSTORE DUP1 SWAP3 SWAP2 SWAP1 DUP2 DUP2 MSTORE PUSH1 0x20 ADD DUP3 DUP1 SLOAD PUSH2 0x8D0 SWAP1 PUSH2 0x13F8 JUMP JUMPDEST DUP1 ISZERO PUSH2 0x91B JUMPI DUP1 PUSH1 0x1F LT PUSH2 0x8F2 JUMPI PUSH2 0x100 DUP1 DUP4 SLOAD DIV MUL DUP4 MSTORE SWAP2 PUSH1 0x20 ADD SWAP2 PUSH2 0x91B JUMP JUMPDEST DUP3 ADD SWAP2 SWAP1 PUSH0 MSTORE PUSH1 0x20 PUSH0 KECCAK256 SWAP1 JUMPDEST DUP2 SLOAD DUP2 MSTORE SWAP1 PUSH1 0x1 ADD SWAP1 PUSH1 0x20 ADD DUP1 DUP4 GT PUSH2 0x8FE JUMPI DUP3 SWAP1 SUB PUSH1 0x1F AND DUP3 ADD SWAP2 JUMPDEST POP POP POP POP POP DUP2 JUMP JUMPDEST PUSH1 0x1 PUSH1 0x1 PUSH1 0xA0 SHL SUB DUP2 AND PUSH0 SWAP1 DUP2 MSTORE PUSH1 0xF PUSH1 0x20 MSTORE PUSH1 0x40 DUP2 KECCAK256 SLOAD PUSH1 0x60 SWAP1 PUSH1 0xFF AND ISZERO PUSH2 0xA35 JUMPI PUSH1 0x12 SLOAD PUSH1 0x40 MLOAD PUSH4 0x2F745C59 PUSH1 0xE0 SHL DUP2 MSTORE PUSH1 0x1 PUSH1 0x1 PUSH1 0xA0 SHL SUB DUP6 DUP2 AND PUSH1 0x4 DUP4 ADD MSTORE PUSH0 PUSH1 0x24 DUP4 ADD DUP2 SWAP1 MSTORE SWAP3 AND SWAP1 PUSH4 0x2F745C59 SWAP1 PUSH1 0x44 ADD PUSH1 0x20 PUSH1 0x40 MLOAD DUP1 DUP4 SUB DUP2 DUP7 GAS STATICCALL ISZERO DUP1 ISZERO PUSH2 0x995 JUMPI RETURNDATASIZE PUSH0 DUP1 RETURNDATACOPY RETURNDATASIZE PUSH0 REVERT JUMPDEST POP POP POP POP PUSH1 0x40 MLOAD RETURNDATASIZE PUSH1 0x1F NOT PUSH1 0x1F DUP3 ADD AND DUP3 ADD DUP1 PUSH1 0x40 MSTORE POP DUP2 ADD SWAP1 PUSH2 0x9B9 SWAP2 SWAP1 PUSH2 0x1430 JUMP JUMPDEST PUSH1 0x12 SLOAD PUSH1 0x40 MLOAD PUSH4 0xC87B56DD PUSH1 0xE0 SHL DUP2 MSTORE PUSH1 0x4 DUP2 ADD DUP4 SWAP1 MSTORE SWAP2 SWAP3 POP DUP3 SWAP2 PUSH1 0x1 PUSH1 0x1 PUSH1 0xA0 SHL SUB SWAP1 SWAP2 AND SWAP1 PUSH4 0xC87B56DD SWAP1 PUSH1 0x24 ADD PUSH0 PUSH1 0x40 MLOAD DUP1 DUP4 SUB DUP2 DUP7 GAS STATICCALL ISZERO DUP1 ISZERO PUSH2 0xA04 JUMPI RETURNDATASIZE PUSH0 DUP1 RETURNDATACOPY RETURNDATASIZE PUSH0 REVERT JUMPDEST POP POP POP POP PUSH1 0x40 MLOAD RETURNDATASIZE PUSH0 DUP3 RETURNDATACOPY PUSH1 0x1F RETURNDATASIZE SWAP1 DUP2 ADD PUSH1 0x1F NOT AND DUP3 ADD PUSH1 0x40 MSTORE PUSH2 0xA2B SWAP2 SWAP1 DUP2 ADD SWAP1 PUSH2 0x1447 JUMP JUMPDEST SWAP3 POP SWAP3 POP POP SWAP2 POP SWAP2 JUMP JUMPDEST POP POP PUSH1 0x40 DUP1 MLOAD PUSH1 0x20 DUP2 ADD SWAP1 SWAP2 MSTORE PUSH0 DUP1 DUP3 MSTORE SWAP3 SWAP1 SWAP2 POP JUMP JUMPDEST PUSH0 PUSH1 0x10 DUP3 DUP2 SLOAD DUP2 LT PUSH2 0xA60 JUMPI PUSH2 0xA60 PUSH2 0x1376 JUMP JUMPDEST SWAP1 PUSH0 MSTORE PUSH1 0x20 PUSH0 KECCAK256 SWAP1 PUSH1 0x3 MUL ADD SWAP1 POP PUSH0 PUSH1 0x11 DUP4 DUP2 SLOAD DUP2 LT PUSH2 0xA82 JUMPI PUSH2 0xA82 PUSH2 0x1376 JUMP JUMPDEST SWAP1 PUSH0 MSTORE PUSH1 0x20 PUSH0 KECCAK256 SWAP1 PUSH1 0x7 MUL ADD SWAP1 POP DUP2 PUSH1 0x2 ADD SLOAD SELFBALANCE LT ISZERO PUSH2 0xAA0 JUMPI PUSH0 DUP1 REVERT JUMPDEST CALLER PUSH0 SWAP1 DUP2 MSTORE PUSH1 0x8 PUSH1 0x20 MSTORE PUSH1 0x40 SWAP1 KECCAK256 SLOAD PUSH2 0xAB7 JUMPI PUSH0 DUP1 REVERT JUMPDEST CALLER PUSH0 SWAP1 DUP2 MSTORE PUSH1 0x3 DUP3 ADD PUSH1 0x20 MSTORE PUSH1 0x40 SWAP1 KECCAK256 SLOAD ISZERO PUSH2 0xAD1 JUMPI PUSH0 DUP1 REVERT JUMPDEST CALLER PUSH0 SWAP1 DUP2 MSTORE PUSH1 0x3 DUP3 ADD PUSH1 0x20 MSTORE PUSH1 0x40 DUP2 KECCAK256 TIMESTAMP SWAP1 SSTORE PUSH1 0x2 DUP3 ADD DUP1 SLOAD SWAP2 PUSH2 0xAF4 DUP4 PUSH2 0x139E JUMP JUMPDEST SWAP2 SWAP1 POP SSTORE POP PUSH1 0x2 PUSH1 0x7 SLOAD PUSH2 0xB08 SWAP2 SWAP1 PUSH2 0x13B6 JUMP JUMPDEST DUP2 PUSH1 0x2 ADD SLOAD GT ISZERO PUSH2 0xB26 JUMPI DUP1 SLOAD PUSH1 0xFF NOT AND PUSH1 0x1 SWAP1 DUP2 OR DUP3 SSTORE TIMESTAMP SWAP1 DUP3 ADD SSTORE JUMPDEST POP POP POP JUMP JUMPDEST PUSH1 0x1 SLOAD PUSH1 0x1 PUSH1 0x1 PUSH1 0xA0 SHL SUB AND CALLER EQ PUSH2 0xB41 JUMPI PUSH0 DUP1 REVERT JUMPDEST PUSH0 DUP4 MLOAD GT PUSH2 0xB4D JUMPI PUSH0 DUP1 REVERT JUMPDEST PUSH0 DUP3 GT PUSH2 0xB58 JUMPI PUSH0 DUP1 REVERT JUMPDEST PUSH1 0x5 SLOAD DUP3 LT PUSH2 0xB65 JUMPI PUSH0 DUP1 REVERT JUMPDEST PUSH1 0x1 PUSH1 0x1 PUSH1 0xA0 SHL SUB DUP2 AND PUSH2 0xB77 JUMPI PUSH0 DUP1 REVERT JUMPDEST PUSH1 0x10 SLOAD ISZERO PUSH2 0xBB9 JUMPI PUSH1 0x10 DUP1 SLOAD PUSH2 0xB8F SWAP1 PUSH1 0x1 SWAP1 PUSH2 0x14B8 JUMP JUMPDEST DUP2 SLOAD DUP2 LT PUSH2 0xB9F JUMPI PUSH2 0xB9F PUSH2 0x1376 JUMP JUMPDEST SWAP1 PUSH0 MSTORE PUSH1 0x20 PUSH0 KECCAK256 SWAP1 PUSH1 0x3 MUL ADD PUSH1 0x2 ADD SLOAD DUP3 GT PUSH2 0xBB9 JUMPI PUSH0 DUP1 REVERT JUMPDEST PUSH1 0x10 DUP1 SLOAD PUSH1 0x1 DUP2 ADD DUP3 SSTORE PUSH0 SWAP2 SWAP1 SWAP2 MSTORE PUSH1 0x3 MUL PUSH32 0x1B6847DC741A1B0CD08D278845F9D819D87B734759AFB55FE2DE5CB82A9AE672 DUP2 ADD SWAP1 PUSH32 0x1B6847DC741A1B0CD08D278845F9D819D87B734759AFB55FE2DE5CB82A9AE673 ADD PUSH2 0xC1B DUP6 DUP3 PUSH2 0x151C JUMP JUMPDEST POP PUSH1 0x2 DUP2 ADD SWAP3 SWAP1 SWAP3 SSTORE DUP2 SLOAD PUSH1 0x1 PUSH1 0x1 PUSH1 0xA0 SHL SUB NOT AND PUSH1 0x1 PUSH1 0x1 PUSH1 0xA0 SHL SUB SWAP2 SWAP1 SWAP2 AND OR SWAP1 SSTORE POP PUSH1 0x11 DUP1 SLOAD PUSH1 0x1 ADD DUP2 SSTORE PUSH0 MSTORE JUMP JUMPDEST PUSH1 0x4 SLOAD CALLVALUE LT ISZERO PUSH2 0xC5B JUMPI PUSH0 DUP1 REVERT JUMPDEST PUSH1 0x6 SLOAD TIMESTAMP LT PUSH2 0xC68 JUMPI PUSH0 DUP1 REVERT JUMPDEST CALLER PUSH0 SWAP1 DUP2 MSTORE PUSH1 0x8 PUSH1 0x20 MSTORE PUSH1 0x40 DUP2 KECCAK256 SLOAD SWAP1 SUB PUSH2 0xC92 JUMPI PUSH1 0x7 DUP1 SLOAD SWAP1 PUSH0 PUSH2 0xC8C DUP4 PUSH2 0x139E JUMP JUMPDEST SWAP2 SWAP1 POP SSTORE POP JUMPDEST CALLER PUSH0 SWAP1 DUP2 MSTORE PUSH1 0x8 PUSH1 0x20 MSTORE PUSH1 0x40 SWAP1 KECCAK256 TIMESTAMP SWAP1 SSTORE JUMP JUMPDEST PUSH1 0x10 DUP2 DUP2 SLOAD DUP2 LT PUSH2 0xCB4 JUMPI PUSH0 DUP1 REVERT JUMPDEST PUSH0 SWAP2 DUP3 MSTORE PUSH1 0x20 SWAP1 SWAP2 KECCAK256 PUSH1 0x3 SWAP1 SWAP2 MUL ADD DUP1 SLOAD PUSH1 0x1 DUP3 ADD DUP1 SLOAD PUSH1 0x1 PUSH1 0x1 PUSH1 0xA0 SHL SUB SWAP1 SWAP3 AND SWAP4 POP SWAP1 PUSH2 0xCE2 SWAP1 PUSH2 0x13F8 JUMP JUMPDEST DUP1 PUSH1 0x1F ADD PUSH1 0x20 DUP1 SWAP2 DIV MUL PUSH1 0x20 ADD PUSH1 0x40 MLOAD SWAP1 DUP2 ADD PUSH1 0x40 MSTORE DUP1 SWAP3 SWAP2 SWAP1 DUP2 DUP2 MSTORE PUSH1 0x20 ADD DUP3 DUP1 SLOAD PUSH2 0xD0E SWAP1 PUSH2 0x13F8 JUMP JUMPDEST DUP1 ISZERO PUSH2 0xD59 JUMPI DUP1 PUSH1 0x1F LT PUSH2 0xD30 JUMPI PUSH2 0x100 DUP1 DUP4 SLOAD DIV MUL DUP4 MSTORE SWAP2 PUSH1 0x20 ADD SWAP2 PUSH2 0xD59 JUMP JUMPDEST DUP3 ADD SWAP2 SWAP1 PUSH0 MSTORE PUSH1 0x20 PUSH0 KECCAK256 SWAP1 JUMPDEST DUP2 SLOAD DUP2 MSTORE SWAP1 PUSH1 0x1 ADD SWAP1 PUSH1 0x20 ADD DUP1 DUP4 GT PUSH2 0xD3C JUMPI DUP3 SWAP1 SUB PUSH1 0x1F AND DUP3 ADD SWAP2 JUMPDEST POP POP POP POP POP SWAP1 DUP1 PUSH1 0x2 ADD SLOAD SWAP1 POP DUP4 JUMP JUMPDEST PUSH1 0x1 SLOAD PUSH1 0x1 PUSH1 0x1 PUSH1 0xA0 SHL SUB AND CALLER EQ PUSH2 0xD7F JUMPI PUSH0 DUP1 REVERT JUMPDEST PUSH0 PUSH1 0x10 DUP3 DUP2 SLOAD DUP2 LT PUSH2 0xD93 JUMPI PUSH2 0xD93 PUSH2 0x1376 JUMP JUMPDEST SWAP1 PUSH0 MSTORE PUSH1 0x20 PUSH0 KECCAK256 SWAP1 PUSH1 0x3 MUL ADD SWAP1 POP PUSH0 PUSH1 0x11 DUP4 DUP2 SLOAD DUP2 LT PUSH2 0xDB5 JUMPI PUSH2 0xDB5 PUSH2 0x1376 JUMP JUMPDEST PUSH0 SWAP2 DUP3 MSTORE PUSH1 0x20 SWAP1 SWAP2 KECCAK256 PUSH1 0x7 SWAP1 SWAP2 MUL ADD DUP1 SLOAD SWAP1 SWAP2 POP PUSH1 0xFF AND PUSH2 0xDD4 JUMPI PUSH0 DUP1 REVERT JUMPDEST PUSH1 0x2 DUP3 ADD SLOAD PUSH0 JUMPDEST DUP5 DUP2 LT ISZERO PUSH2 0xE4C JUMPI PUSH1 0x11 DUP2 DUP2 SLOAD DUP2 LT PUSH2 0xDF6 JUMPI PUSH2 0xDF6 PUSH2 0x1376 JUMP JUMPDEST PUSH0 SWAP2 DUP3 MSTORE PUSH1 0x20 SWAP1 SWAP2 KECCAK256 PUSH1 0x4 PUSH1 0x7 SWAP1 SWAP3 MUL ADD ADD SLOAD PUSH1 0xFF AND PUSH2 0xE14 JUMPI PUSH0 DUP1 REVERT JUMPDEST PUSH1 0x10 DUP2 DUP2 SLOAD DUP2 LT PUSH2 0xE27 JUMPI PUSH2 0xE27 PUSH2 0x1376 JUMP JUMPDEST SWAP1 PUSH0 MSTORE PUSH1 0x20 PUSH0 KECCAK256 SWAP1 PUSH1 0x3 MUL ADD PUSH1 0x2 ADD SLOAD DUP3 PUSH2 0xE42 SWAP2 SWAP1 PUSH2 0x14B8 JUMP JUMPDEST SWAP2 POP PUSH1 0x1 ADD PUSH2 0xDDB JUMP JUMPDEST POP DUP3 SLOAD PUSH1 0x40 MLOAD PUSH1 0x1 PUSH1 0x1 PUSH1 0xA0 SHL SUB SWAP1 SWAP2 AND SWAP1 DUP3 ISZERO PUSH2 0x8FC MUL SWAP1 DUP4 SWAP1 PUSH0 DUP2 DUP2 DUP2 DUP6 DUP9 DUP9 CALL SWAP4 POP POP POP POP ISZERO DUP1 ISZERO PUSH2 0xE83 JUMPI RETURNDATASIZE PUSH0 DUP1 RETURNDATACOPY RETURNDATASIZE PUSH0 REVERT JUMPDEST POP POP PUSH1 0x4 DUP2 ADD DUP1 SLOAD PUSH1 0xFF NOT AND PUSH1 0x1 OR SWAP1 SSTORE TIMESTAMP PUSH1 0x5 SWAP1 SWAP2 ADD SSTORE POP POP JUMP JUMPDEST PUSH1 0x11 DUP2 DUP2 SLOAD DUP2 LT PUSH2 0xEAE JUMPI PUSH0 DUP1 REVERT JUMPDEST PUSH0 SWAP2 DUP3 MSTORE PUSH1 0x20 SWAP1 SWAP2 KECCAK256 PUSH1 0x7 SWAP1 SWAP2 MUL ADD DUP1 SLOAD PUSH1 0x1 DUP3 ADD SLOAD PUSH1 0x2 DUP4 ADD SLOAD PUSH1 0x4 DUP5 ADD SLOAD PUSH1 0x5 SWAP1 SWAP5 ADD SLOAD PUSH1 0xFF SWAP4 DUP5 AND SWAP6 POP SWAP2 SWAP4 SWAP1 SWAP3 AND SWAP1 DUP6 JUMP JUMPDEST DUP1 CALLDATALOAD PUSH1 0x1 PUSH1 0x1 PUSH1 0xA0 SHL SUB DUP2 AND DUP2 EQ PUSH2 0xEFA JUMPI PUSH0 DUP1 REVERT JUMPDEST SWAP2 SWAP1 POP JUMP JUMPDEST PUSH0 PUSH1 0x20 DUP3 DUP5 SUB SLT ISZERO PUSH2 0xF0F JUMPI PUSH0 DUP1 REVERT JUMPDEST PUSH2 0xF18 DUP3 PUSH2 0xEE4 JUMP JUMPDEST SWAP4 SWAP3 POP POP POP JUMP JUMPDEST PUSH4 0x4E487B71 PUSH1 0xE0 SHL PUSH0 MSTORE PUSH1 0x41 PUSH1 0x4 MSTORE PUSH1 0x24 PUSH0 REVERT JUMPDEST PUSH1 0x40 MLOAD PUSH1 0x1F DUP3 ADD PUSH1 0x1F NOT AND DUP2 ADD PUSH1 0x1 PUSH1 0x1 PUSH1 0x40 SHL SUB DUP2 GT DUP3 DUP3 LT OR ISZERO PUSH2 0xF5B JUMPI PUSH2 0xF5B PUSH2 0xF1F JUMP JUMPDEST PUSH1 0x40 MSTORE SWAP2 SWAP1 POP JUMP JUMPDEST PUSH0 PUSH1 0x1 PUSH1 0x1 PUSH1 0x40 SHL SUB DUP3 GT ISZERO PUSH2 0xF7B JUMPI PUSH2 0xF7B PUSH2 0xF1F JUMP JUMPDEST POP PUSH1 0x1F ADD PUSH1 0x1F NOT AND PUSH1 0x20 ADD SWAP1 JUMP JUMPDEST PUSH0 DUP3 PUSH1 0x1F DUP4 ADD SLT PUSH2 0xF98 JUMPI PUSH0 DUP1 REVERT JUMPDEST DUP2 CALLDATALOAD PUSH2 0xFAB PUSH2 0xFA6 DUP3 PUSH2 0xF63 JUMP JUMPDEST PUSH2 0xF33 JUMP JUMPDEST DUP2 DUP2 MSTORE DUP5 PUSH1 0x20 DUP4 DUP7 ADD ADD GT ISZERO PUSH2 0xFBF JUMPI PUSH0 DUP1 REVERT JUMPDEST DUP2 PUSH1 0x20 DUP6 ADD PUSH1 0x20 DUP4 ADD CALLDATACOPY PUSH0 SWAP2 DUP2 ADD PUSH1 0x20 ADD SWAP2 SWAP1 SWAP2 MSTORE SWAP4 SWAP3 POP POP POP JUMP JUMPDEST PUSH0 PUSH1 0x20 DUP3 DUP5 SUB SLT ISZERO PUSH2 0xFEB JUMPI PUSH0 DUP1 REVERT JUMPDEST DUP2 CALLDATALOAD PUSH1 0x1 PUSH1 0x1 PUSH1 0x40 SHL SUB DUP2 GT ISZERO PUSH2 0x1000 JUMPI PUSH0 DUP1 REVERT JUMPDEST PUSH2 0x100C DUP5 DUP3 DUP6 ADD PUSH2 0xF89 JUMP JUMPDEST SWAP5 SWAP4 POP POP POP POP JUMP JUMPDEST PUSH0 PUSH1 0x1 PUSH1 0x1 PUSH1 0x40 SHL SUB DUP3 GT ISZERO PUSH2 0x102C JUMPI PUSH2 0x102C PUSH2 0xF1F JUMP JUMPDEST POP PUSH1 0x5 SHL PUSH1 0x20 ADD SWAP1 JUMP JUMPDEST PUSH0 DUP3 PUSH1 0x1F DUP4 ADD SLT PUSH2 0x1045 JUMPI PUSH0 DUP1 REVERT JUMPDEST DUP2 CALLDATALOAD PUSH1 0x20 PUSH2 0x1055 PUSH2 0xFA6 DUP4 PUSH2 0x1014 JUMP JUMPDEST DUP1 DUP4 DUP3 MSTORE PUSH1 0x20 DUP3 ADD SWAP2 POP PUSH1 0x20 DUP5 PUSH1 0x5 SHL DUP8 ADD ADD SWAP4 POP DUP7 DUP5 GT ISZERO PUSH2 0x1076 JUMPI PUSH0 DUP1 REVERT JUMPDEST PUSH1 0x20 DUP7 ADD JUMPDEST DUP5 DUP2 LT ISZERO PUSH2 0x1092 JUMPI DUP1 CALLDATALOAD DUP4 MSTORE SWAP2 DUP4 ADD SWAP2 DUP4 ADD PUSH2 0x107B JUMP JUMPDEST POP SWAP7 SWAP6 POP POP POP POP POP POP JUMP JUMPDEST PUSH0 DUP3 PUSH1 0x1F DUP4 ADD SLT PUSH2 0x10AC JUMPI PUSH0 DUP1 REVERT JUMPDEST DUP2 CALLDATALOAD PUSH1 0x20 PUSH2 0x10BC PUSH2 0xFA6 DUP4 PUSH2 0x1014 JUMP JUMPDEST DUP1 DUP4 DUP3 MSTORE PUSH1 0x20 DUP3 ADD SWAP2 POP PUSH1 0x20 DUP5 PUSH1 0x5 SHL DUP8 ADD ADD SWAP4 POP DUP7 DUP5 GT ISZERO PUSH2 0x10DD JUMPI PUSH0 DUP1 REVERT JUMPDEST PUSH1 0x20 DUP7 ADD JUMPDEST DUP5 DUP2 LT ISZERO PUSH2 0x1092 JUMPI PUSH2 0x10F3 DUP2 PUSH2 0xEE4 JUMP JUMPDEST DUP4 MSTORE SWAP2 DUP4 ADD SWAP2 DUP4 ADD PUSH2 0x10E2 JUMP JUMPDEST PUSH0 DUP1 PUSH0 PUSH1 0x60 DUP5 DUP7 SUB SLT ISZERO PUSH2 0x1112 JUMPI PUSH0 DUP1 REVERT JUMPDEST DUP4 CALLDATALOAD PUSH1 0x1 PUSH1 0x1 PUSH1 0x40 SHL SUB DUP1 DUP3 GT ISZERO PUSH2 0x1128 JUMPI PUSH0 DUP1 REVERT JUMPDEST DUP2 DUP7 ADD SWAP2 POP DUP7 PUSH1 0x1F DUP4 ADD SLT PUSH2 0x113B JUMPI PUSH0 DUP1 REVERT JUMPDEST DUP2 CALLDATALOAD PUSH1 0x20 PUSH2 0x114B PUSH2 0xFA6 DUP4 PUSH2 0x1014 JUMP JUMPDEST DUP3 DUP2 MSTORE PUSH1 0x5 SWAP3 SWAP1 SWAP3 SHL DUP5 ADD DUP2 ADD SWAP2 DUP2 DUP2 ADD SWAP1 DUP11 DUP5 GT ISZERO PUSH2 0x1169 JUMPI PUSH0 DUP1 REVERT JUMPDEST DUP3 DUP7 ADD JUMPDEST DUP5 DUP2 LT ISZERO PUSH2 0x119F JUMPI DUP1 CALLDATALOAD DUP7 DUP2 GT ISZERO PUSH2 0x1183 JUMPI PUSH0 DUP1 REVERT JUMPDEST PUSH2 0x1191 DUP14 DUP7 DUP4 DUP12 ADD ADD PUSH2 0xF89 JUMP JUMPDEST DUP5 MSTORE POP SWAP2 DUP4 ADD SWAP2 DUP4 ADD PUSH2 0x116D JUMP JUMPDEST POP SWAP8 POP POP DUP8 ADD CALLDATALOAD SWAP3 POP POP DUP1 DUP3 GT ISZERO PUSH2 0x11B5 JUMPI PUSH0 DUP1 REVERT JUMPDEST PUSH2 0x11C1 DUP8 DUP4 DUP9 ADD PUSH2 0x1036 JUMP JUMPDEST SWAP4 POP PUSH1 0x40 DUP7 ADD CALLDATALOAD SWAP2 POP DUP1 DUP3 GT ISZERO PUSH2 0x11D6 JUMPI PUSH0 DUP1 REVERT JUMPDEST POP PUSH2 0x11E3 DUP7 DUP3 DUP8 ADD PUSH2 0x109D JUMP JUMPDEST SWAP2 POP POP SWAP3 POP SWAP3 POP SWAP3 JUMP JUMPDEST PUSH0 JUMPDEST DUP4 DUP2 LT ISZERO PUSH2 0x1207 JUMPI DUP2 DUP2 ADD MLOAD DUP4 DUP3 ADD MSTORE PUSH1 0x20 ADD PUSH2 0x11EF JUMP JUMPDEST POP POP PUSH0 SWAP2 ADD MSTORE JUMP JUMPDEST PUSH0 DUP2 MLOAD DUP1 DUP5 MSTORE PUSH2 0x1226 DUP2 PUSH1 0x20 DUP7 ADD PUSH1 0x20 DUP7 ADD PUSH2 0x11ED JUMP JUMPDEST PUSH1 0x1F ADD PUSH1 0x1F NOT AND SWAP3 SWAP1 SWAP3 ADD PUSH1 0x20 ADD SWAP3 SWAP2 POP POP JUMP JUMPDEST DUP13 DUP2 MSTORE PUSH1 0x1 PUSH1 0x1 PUSH1 0xA0 SHL SUB DUP13 AND PUSH1 0x20 DUP3 ADD MSTORE PUSH2 0x180 PUSH1 0x40 DUP3 ADD DUP2 SWAP1 MSTORE PUSH0 SWAP1 PUSH2 0x1264 DUP4 DUP3 ADD DUP15 PUSH2 0x120F JUMP JUMPDEST PUSH1 0x60 DUP5 ADD SWAP13 SWAP1 SWAP13 MSTORE POP POP PUSH1 0x80 DUP2 ADD SWAP9 SWAP1 SWAP9 MSTORE PUSH1 0xA0 DUP9 ADD SWAP7 SWAP1 SWAP7 MSTORE PUSH1 0xC0 DUP8 ADD SWAP5 SWAP1 SWAP5 MSTORE SWAP2 ISZERO ISZERO PUSH1 0xE0 DUP7 ADD MSTORE PUSH2 0x100 DUP6 ADD MSTORE PUSH2 0x120 DUP5 ADD MSTORE ISZERO ISZERO PUSH2 0x140 DUP4 ADD MSTORE PUSH2 0x160 SWAP1 SWAP2 ADD MSTORE SWAP4 SWAP3 POP POP POP JUMP JUMPDEST PUSH1 0x20 DUP2 MSTORE PUSH0 PUSH2 0xF18 PUSH1 0x20 DUP4 ADD DUP5 PUSH2 0x120F JUMP JUMPDEST DUP3 DUP2 MSTORE PUSH1 0x40 PUSH1 0x20 DUP3 ADD MSTORE PUSH0 PUSH2 0x100C PUSH1 0x40 DUP4 ADD DUP5 PUSH2 0x120F JUMP JUMPDEST PUSH0 PUSH1 0x20 DUP3 DUP5 SUB SLT ISZERO PUSH2 0x12EA JUMPI PUSH0 DUP1 REVERT JUMPDEST POP CALLDATALOAD SWAP2 SWAP1 POP JUMP JUMPDEST PUSH0 DUP1 PUSH0 PUSH1 0x60 DUP5 DUP7 SUB SLT ISZERO PUSH2 0x1303 JUMPI PUSH0 DUP1 REVERT JUMPDEST DUP4 CALLDATALOAD PUSH1 0x1 PUSH1 0x1 PUSH1 0x40 SHL SUB DUP2 GT ISZERO PUSH2 0x1318 JUMPI PUSH0 DUP1 REVERT JUMPDEST PUSH2 0x1324 DUP7 DUP3 DUP8 ADD PUSH2 0xF89 JUMP JUMPDEST SWAP4 POP POP PUSH1 0x20 DUP5 ADD CALLDATALOAD SWAP2 POP PUSH2 0x133A PUSH1 0x40 DUP6 ADD PUSH2 0xEE4 JUMP JUMPDEST SWAP1 POP SWAP3 POP SWAP3 POP SWAP3 JUMP JUMPDEST PUSH1 0x1 PUSH1 0x1 PUSH1 0xA0 SHL SUB DUP5 AND DUP2 MSTORE PUSH1 0x60 PUSH1 0x20 DUP3 ADD DUP2 SWAP1 MSTORE PUSH0 SWAP1 PUSH2 0x1366 SWAP1 DUP4 ADD DUP6 PUSH2 0x120F JUMP JUMPDEST SWAP1 POP DUP3 PUSH1 0x40 DUP4 ADD MSTORE SWAP5 SWAP4 POP POP POP POP JUMP JUMPDEST PUSH4 0x4E487B71 PUSH1 0xE0 SHL PUSH0 MSTORE PUSH1 0x32 PUSH1 0x4 MSTORE PUSH1 0x24 PUSH0 REVERT JUMPDEST PUSH4 0x4E487B71 PUSH1 0xE0 SHL PUSH0 MSTORE PUSH1 0x11 PUSH1 0x4 MSTORE PUSH1 0x24 PUSH0 REVERT JUMPDEST PUSH0 PUSH1 0x1 DUP3 ADD PUSH2 0x13AF JUMPI PUSH2 0x13AF PUSH2 0x138A JUMP JUMPDEST POP PUSH1 0x1 ADD SWAP1 JUMP JUMPDEST PUSH0 DUP3 PUSH2 0x13D0 JUMPI PUSH4 0x4E487B71 PUSH1 0xE0 SHL PUSH0 MSTORE PUSH1 0x12 PUSH1 0x4 MSTORE PUSH1 0x24 PUSH0 REVERT JUMPDEST POP DIV SWAP1 JUMP JUMPDEST PUSH1 0x1 PUSH1 0x1 PUSH1 0xA0 SHL SUB DUP4 AND DUP2 MSTORE PUSH1 0x40 PUSH1 0x20 DUP3 ADD DUP2 SWAP1 MSTORE PUSH0 SWAP1 PUSH2 0x100C SWAP1 DUP4 ADD DUP5 PUSH2 0x120F JUMP JUMPDEST PUSH1 0x1 DUP2 DUP2 SHR SWAP1 DUP3 AND DUP1 PUSH2 0x140C JUMPI PUSH1 0x7F DUP3 AND SWAP2 POP JUMPDEST PUSH1 0x20 DUP3 LT DUP2 SUB PUSH2 0x142A JUMPI PUSH4 0x4E487B71 PUSH1 0xE0 SHL PUSH0 MSTORE PUSH1 0x22 PUSH1 0x4 MSTORE PUSH1 0x24 PUSH0 REVERT JUMPDEST POP SWAP2 SWAP1 POP JUMP JUMPDEST PUSH0 PUSH1 0x20 DUP3 DUP5 SUB SLT ISZERO PUSH2 0x1440 JUMPI PUSH0 DUP1 REVERT JUMPDEST POP MLOAD SWAP2 SWAP1 POP JUMP JUMPDEST PUSH0 PUSH1 0x20 DUP3 DUP5 SUB SLT ISZERO PUSH2 0x1457 JUMPI PUSH0 DUP1 REVERT JUMPDEST DUP2 MLOAD PUSH1 0x1 PUSH1 0x1 PUSH1 0x40 SHL SUB DUP2 GT ISZERO PUSH2 0x146C JUMPI PUSH0 DUP1 REVERT JUMPDEST DUP3 ADD PUSH1 0x1F DUP2 ADD DUP5 SGT PUSH2 0x147C JUMPI PUSH0 DUP1 REVERT JUMPDEST DUP1 MLOAD PUSH2 0x148A PUSH2 0xFA6 DUP3 PUSH2 0xF63 JUMP JUMPDEST DUP2 DUP2 MSTORE DUP6 PUSH1 0x20 DUP4 DUP6 ADD ADD GT ISZERO PUSH2 0x149E JUMPI PUSH0 DUP1 REVERT JUMPDEST PUSH2 0x14AF DUP3 PUSH1 0x20 DUP4 ADD PUSH1 0x20 DUP7 ADD PUSH2 0x11ED JUMP JUMPDEST SWAP6 SWAP5 POP POP POP POP POP JUMP JUMPDEST DUP2 DUP2 SUB DUP2 DUP2 GT ISZERO PUSH2 0x14CB JUMPI PUSH2 0x14CB PUSH2 0x138A JUMP JUMPDEST SWAP3 SWAP2 POP POP JUMP JUMPDEST PUSH1 0x1F DUP3 GT ISZERO PUSH2 0xB26 JUMPI DUP1 PUSH0 MSTORE PUSH1 0x20 PUSH0 KECCAK256 PUSH1 0x1F DUP5 ADD PUSH1 0x5 SHR DUP2 ADD PUSH1 0x20 DUP6 LT ISZERO PUSH2 0x14F6 JUMPI POP DUP1 JUMPDEST PUSH1 0x1F DUP5 ADD PUSH1 0x5 SHR DUP3 ADD SWAP2 POP JUMPDEST DUP2 DUP2 LT ISZERO PUSH2 0x1515 JUMPI PUSH0 DUP2 SSTORE PUSH1 0x1 ADD PUSH2 0x1502 JUMP JUMPDEST POP POP POP POP POP JUMP JUMPDEST DUP2 MLOAD PUSH1 0x1 PUSH1 0x1 PUSH1 0x40 SHL SUB DUP2 GT ISZERO PUSH2 0x1535 JUMPI PUSH2 0x1535 PUSH2 0xF1F JUMP JUMPDEST PUSH2 0x1549 DUP2 PUSH2 0x1543 DUP5 SLOAD PUSH2 0x13F8 JUMP JUMPDEST DUP5 PUSH2 0x14D1 JUMP JUMPDEST PUSH1 0x20 DUP1 PUSH1 0x1F DUP4 GT PUSH1 0x1 DUP2 EQ PUSH2 0x157C JUMPI PUSH0 DUP5 ISZERO PUSH2 0x1565 JUMPI POP DUP6 DUP4 ADD MLOAD JUMPDEST PUSH0 NOT PUSH1 0x3 DUP7 SWAP1 SHL SHR NOT AND PUSH1 0x1 DUP6 SWAP1 SHL OR DUP6 SSTORE PUSH2 0x15D3 JUMP JUMPDEST PUSH0 DUP6 DUP2 MSTORE PUSH1 0x20 DUP2 KECCAK256 PUSH1 0x1F NOT DUP7 AND SWAP2 JUMPDEST DUP3 DUP2 LT ISZERO PUSH2 0x15AA JUMPI DUP9 DUP7 ADD MLOAD DUP3 SSTORE SWAP5 DUP5 ADD SWAP5 PUSH1 0x1 SWAP1 SWAP2 ADD SWAP1 DUP5 ADD PUSH2 0x158B JUMP JUMPDEST POP DUP6 DUP3 LT ISZERO PUSH2 0x15C7 JUMPI DUP8 DUP6 ADD MLOAD PUSH0 NOT PUSH1 0x3 DUP9 SWAP1 SHL PUSH1 0xF8 AND SHR NOT AND DUP2 SSTORE JUMPDEST POP POP PUSH1 0x1 DUP5 PUSH1 0x1 SHL ADD DUP6 SSTORE JUMPDEST POP POP POP POP POP POP JUMP INVALID LOG2 PUSH5 0x6970667358 0x22 SLT KECCAK256 POP SUB ADDRESS 0xD9 TSTORE 0xCA MUL BALANCE SWAP2 GAS STOP MLOAD CALLER 0xB9 0xF6 0xC9 0xEB PUSH16 0x120B35056837E7B05ECF89E8E0F46473 PUSH16 0x6C634300081800336080604052348015 PUSH3 0x10 JUMPI PUSH0 DUP1 REVERT JUMPDEST POP PUSH1 0x40 MLOAD PUSH3 0x1AEE CODESIZE SUB DUP1 PUSH3 0x1AEE DUP4 CODECOPY DUP2 ADD PUSH1 0x40 DUP2 SWAP1 MSTORE PUSH3 0x33 SWAP2 PUSH3 0x1AA JUMP JUMPDEST DUP3 DUP3 DUP3 PUSH0 PUSH3 0x43 DUP4 DUP3 PUSH3 0x2B8 JUMP JUMPDEST POP PUSH1 0x1 PUSH3 0x52 DUP3 DUP3 PUSH3 0x2B8 JUMP JUMPDEST POP POP POP PUSH1 0x1 PUSH1 0x1 PUSH1 0xA0 SHL SUB DUP2 AND PUSH3 0x83 JUMPI PUSH1 0x40 MLOAD PUSH4 0x1E4FBDF7 PUSH1 0xE0 SHL DUP2 MSTORE PUSH0 PUSH1 0x4 DUP3 ADD MSTORE PUSH1 0x24 ADD PUSH1 0x40 MLOAD DUP1 SWAP2 SUB SWAP1 REVERT JUMPDEST PUSH3 0x8E DUP2 PUSH3 0x98 JUMP JUMPDEST POP POP POP POP PUSH3 0x384 JUMP JUMPDEST PUSH1 0xB DUP1 SLOAD PUSH1 0x1 PUSH1 0x1 PUSH1 0xA0 SHL SUB DUP4 DUP2 AND PUSH1 0x1 PUSH1 0x1 PUSH1 0xA0 SHL SUB NOT DUP4 AND DUP2 OR SWAP1 SWAP4 SSTORE PUSH1 0x40 MLOAD SWAP2 AND SWAP2 SWAP1 DUP3 SWAP1 PUSH32 0x8BE0079C531659141344CD1FD0A4F28419497F9722A3DAAFE3B4186F6B6457E0 SWAP1 PUSH0 SWAP1 LOG3 POP POP JUMP JUMPDEST PUSH4 0x4E487B71 PUSH1 0xE0 SHL PUSH0 MSTORE PUSH1 0x41 PUSH1 0x4 MSTORE PUSH1 0x24 PUSH0 REVERT JUMPDEST PUSH0 DUP3 PUSH1 0x1F DUP4 ADD SLT PUSH3 0x10D JUMPI PUSH0 DUP1 REVERT JUMPDEST DUP2 MLOAD PUSH1 0x1 PUSH1 0x1 PUSH1 0x40 SHL SUB DUP1 DUP3 GT ISZERO PUSH3 0x12A JUMPI PUSH3 0x12A PUSH3 0xE9 JUMP JUMPDEST PUSH1 0x40 MLOAD PUSH1 0x1F DUP4 ADD PUSH1 0x1F NOT SWAP1 DUP2 AND PUSH1 0x3F ADD AND DUP2 ADD SWAP1 DUP3 DUP3 GT DUP2 DUP4 LT OR ISZERO PUSH3 0x155 JUMPI PUSH3 0x155 PUSH3 0xE9 JUMP JUMPDEST DUP2 PUSH1 0x40 MSTORE DUP4 DUP2 MSTORE PUSH1 0x20 SWAP3 POP DUP7 PUSH1 0x20 DUP6 DUP9 ADD ADD GT ISZERO PUSH3 0x172 JUMPI PUSH0 DUP1 REVERT JUMPDEST PUSH0 SWAP2 POP JUMPDEST DUP4 DUP3 LT ISZERO PUSH3 0x195 JUMPI DUP6 DUP3 ADD DUP4 ADD MLOAD DUP2 DUP4 ADD DUP5 ADD MSTORE SWAP1 DUP3 ADD SWAP1 PUSH3 0x176 JUMP JUMPDEST PUSH0 PUSH1 0x20 DUP6 DUP4 ADD ADD MSTORE DUP1 SWAP5 POP POP POP POP POP SWAP3 SWAP2 POP POP JUMP JUMPDEST PUSH0 DUP1 PUSH0 PUSH1 0x60 DUP5 DUP7 SUB SLT ISZERO PUSH3 0x1BD JUMPI PUSH0 DUP1 REVERT JUMPDEST DUP4 MLOAD PUSH1 0x1 PUSH1 0x1 PUSH1 0xA0 SHL SUB DUP2 AND DUP2 EQ PUSH3 0x1D4 JUMPI PUSH0 DUP1 REVERT JUMPDEST PUSH1 0x20 DUP6 ADD MLOAD SWAP1 SWAP4 POP PUSH1 0x1 PUSH1 0x1 PUSH1 0x40 SHL SUB DUP1 DUP3 GT ISZERO PUSH3 0x1F1 JUMPI PUSH0 DUP1 REVERT JUMPDEST PUSH3 0x1FF DUP8 DUP4 DUP9 ADD PUSH3 0xFD JUMP JUMPDEST SWAP4 POP PUSH1 0x40 DUP7 ADD MLOAD SWAP2 POP DUP1 DUP3 GT ISZERO PUSH3 0x215 JUMPI PUSH0 DUP1 REVERT JUMPDEST POP PUSH3 0x224 DUP7 DUP3 DUP8 ADD PUSH3 0xFD JUMP JUMPDEST SWAP2 POP POP SWAP3 POP SWAP3 POP SWAP3 JUMP JUMPDEST PUSH1 0x1 DUP2 DUP2 SHR SWAP1 DUP3 AND DUP1 PUSH3 0x243 JUMPI PUSH1 0x7F DUP3 AND SWAP2 POP JUMPDEST PUSH1 0x20 DUP3 LT DUP2 SUB PUSH3 0x262 JUMPI PUSH4 0x4E487B71 PUSH1 0xE0 SHL PUSH0 MSTORE PUSH1 0x22 PUSH1 0x4 MSTORE PUSH1 0x24 PUSH0 REVERT JUMPDEST POP SWAP2 SWAP1 POP JUMP JUMPDEST PUSH1 0x1F DUP3 GT ISZERO PUSH3 0x2B3 JUMPI DUP1 PUSH0 MSTORE PUSH1 0x20 PUSH0 KECCAK256 PUSH1 0x1F DUP5 ADD PUSH1 0x5 SHR DUP2 ADD PUSH1 0x20 DUP6 LT ISZERO PUSH3 0x28F JUMPI POP DUP1 JUMPDEST PUSH1 0x1F DUP5 ADD PUSH1 0x5 SHR DUP3 ADD SWAP2 POP JUMPDEST DUP2 DUP2 LT ISZERO PUSH3 0x2B0 JUMPI PUSH0 DUP2 SSTORE PUSH1 0x1 ADD PUSH3 0x29B JUMP JUMPDEST POP POP JUMPDEST POP POP POP JUMP JUMPDEST DUP2 MLOAD PUSH1 0x1 PUSH1 0x1 PUSH1 0x40 SHL SUB DUP2 GT ISZERO PUSH3 0x2D4 JUMPI PUSH3 0x2D4 PUSH3 0xE9 JUMP JUMPDEST PUSH3 0x2EC DUP2 PUSH3 0x2E5 DUP5 SLOAD PUSH3 0x22E JUMP JUMPDEST DUP5 PUSH3 0x268 JUMP JUMPDEST PUSH1 0x20 DUP1 PUSH1 0x1F DUP4 GT PUSH1 0x1 DUP2 EQ PUSH3 0x322 JUMPI PUSH0 DUP5 ISZERO PUSH3 0x30A JUMPI POP DUP6 DUP4 ADD MLOAD JUMPDEST PUSH0 NOT PUSH1 0x3 DUP7 SWAP1 SHL SHR NOT AND PUSH1 0x1 DUP6 SWAP1 SHL OR DUP6 SSTORE PUSH3 0x37C JUMP JUMPDEST PUSH0 DUP6 DUP2 MSTORE PUSH1 0x20 DUP2 KECCAK256 PUSH1 0x1F NOT DUP7 AND SWAP2 JUMPDEST DUP3 DUP2 LT ISZERO PUSH3 0x352 JUMPI DUP9 DUP7 ADD MLOAD DUP3 SSTORE SWAP5 DUP5 ADD SWAP5 PUSH1 0x1 SWAP1 SWAP2 ADD SWAP1 DUP5 ADD PUSH3 0x331 JUMP JUMPDEST POP DUP6 DUP3 LT ISZERO PUSH3 0x370 JUMPI DUP8 DUP6 ADD MLOAD PUSH0 NOT PUSH1 0x3 DUP9 SWAP1 SHL PUSH1 0xF8 AND SHR NOT AND DUP2 SSTORE JUMPDEST POP POP PUSH1 0x1 DUP5 PUSH1 0x1 SHL ADD DUP6 SSTORE JUMPDEST POP POP POP POP POP POP JUMP JUMPDEST PUSH2 0x175C DUP1 PUSH3 0x392 PUSH0 CODECOPY PUSH0 RETURN INVALID PUSH1 0x80 PUSH1 0x40 MSTORE CALLVALUE DUP1 ISZERO PUSH2 0xF JUMPI PUSH0 DUP1 REVERT JUMPDEST POP PUSH1 0x4 CALLDATASIZE LT PUSH2 0xFA JUMPI PUSH0 CALLDATALOAD PUSH1 0xE0 SHR DUP1 PUSH4 0x1FFC9A7 EQ PUSH2 0xFE JUMPI DUP1 PUSH4 0x6FDDE03 EQ PUSH2 0x126 JUMPI DUP1 PUSH4 0x81812FC EQ PUSH2 0x13B JUMPI DUP1 PUSH4 0x95EA7B3 EQ PUSH2 0x15B JUMPI DUP1 PUSH4 0x18160DDD EQ PUSH2 0x170 JUMPI DUP1 PUSH4 0x23B872DD EQ PUSH2 0x182 JUMPI DUP1 PUSH4 0x2F745C59 EQ PUSH2 0x195 JUMPI DUP1 PUSH4 0x42842E0E EQ PUSH2 0x1A8 JUMPI DUP1 PUSH4 0x4F6CCCE7 EQ PUSH2 0x1BB JUMPI DUP1 PUSH4 0x6352211E EQ PUSH2 0x1CE JUMPI DUP1 PUSH4 0x70A08231 EQ PUSH2 0x1E1 JUMPI DUP1 PUSH4 0x715018A6 EQ PUSH2 0x1F4 JUMPI DUP1 PUSH4 0x8DA5CB5B EQ PUSH2 0x1FC JUMPI DUP1 PUSH4 0x95D89B41 EQ PUSH2 0x204 JUMPI DUP1 PUSH4 0xA22CB465 EQ PUSH2 0x20C JUMPI DUP1 PUSH4 0xB88D4FDE EQ PUSH2 0x21F JUMPI DUP1 PUSH4 0xC87B56DD EQ PUSH2 0x232 JUMPI DUP1 PUSH4 0xD204C45E EQ PUSH2 0x245 JUMPI DUP1 PUSH4 0xE985E9C5 EQ PUSH2 0x258 JUMPI DUP1 PUSH4 0xF2FDE38B EQ PUSH2 0x26B JUMPI JUMPDEST PUSH0 DUP1 REVERT JUMPDEST PUSH2 0x111 PUSH2 0x10C CALLDATASIZE PUSH1 0x4 PUSH2 0x11E9 JUMP JUMPDEST PUSH2 0x27E JUMP JUMPDEST PUSH1 0x40 MLOAD SWAP1 ISZERO ISZERO DUP2 MSTORE PUSH1 0x20 ADD JUMPDEST PUSH1 0x40 MLOAD DUP1 SWAP2 SUB SWAP1 RETURN JUMPDEST PUSH2 0x12E PUSH2 0x28E JUMP JUMPDEST PUSH1 0x40 MLOAD PUSH2 0x11D SWAP2 SWAP1 PUSH2 0x1251 JUMP JUMPDEST PUSH2 0x14E PUSH2 0x149 CALLDATASIZE PUSH1 0x4 PUSH2 0x1263 JUMP JUMPDEST PUSH2 0x31D JUMP JUMPDEST PUSH1 0x40 MLOAD PUSH2 0x11D SWAP2 SWAP1 PUSH2 0x127A JUMP JUMPDEST PUSH2 0x16E PUSH2 0x169 CALLDATASIZE PUSH1 0x4 PUSH2 0x12A9 JUMP JUMPDEST PUSH2 0x331 JUMP JUMPDEST STOP JUMPDEST PUSH1 0x8 SLOAD JUMPDEST PUSH1 0x40 MLOAD SWAP1 DUP2 MSTORE PUSH1 0x20 ADD PUSH2 0x11D JUMP JUMPDEST PUSH2 0x16E PUSH2 0x190 CALLDATASIZE PUSH1 0x4 PUSH2 0x12D1 JUMP JUMPDEST PUSH2 0x340 JUMP JUMPDEST PUSH2 0x174 PUSH2 0x1A3 CALLDATASIZE PUSH1 0x4 PUSH2 0x12A9 JUMP JUMPDEST PUSH2 0x3D2 JUMP JUMPDEST PUSH2 0x16E PUSH2 0x1B6 CALLDATASIZE PUSH1 0x4 PUSH2 0x12D1 JUMP JUMPDEST PUSH2 0x427 JUMP JUMPDEST PUSH2 0x174 PUSH2 0x1C9 CALLDATASIZE PUSH1 0x4 PUSH2 0x1263 JUMP JUMPDEST PUSH2 0x446 JUMP JUMPDEST PUSH2 0x14E PUSH2 0x1DC CALLDATASIZE PUSH1 0x4 PUSH2 0x1263 JUMP JUMPDEST PUSH2 0x496 JUMP JUMPDEST PUSH2 0x174 PUSH2 0x1EF CALLDATASIZE PUSH1 0x4 PUSH2 0x130A JUMP JUMPDEST PUSH2 0x4A0 JUMP JUMPDEST PUSH2 0x16E PUSH2 0x4E5 JUMP JUMPDEST PUSH2 0x14E PUSH2 0x4F8 JUMP JUMPDEST PUSH2 0x12E PUSH2 0x507 JUMP JUMPDEST PUSH2 0x16E PUSH2 0x21A CALLDATASIZE PUSH1 0x4 PUSH2 0x1323 JUMP JUMPDEST PUSH2 0x516 JUMP JUMPDEST PUSH2 0x16E PUSH2 0x22D CALLDATASIZE PUSH1 0x4 PUSH2 0x13E2 JUMP JUMPDEST PUSH2 0x521 JUMP JUMPDEST PUSH2 0x12E PUSH2 0x240 CALLDATASIZE PUSH1 0x4 PUSH2 0x1263 JUMP JUMPDEST PUSH2 0x538 JUMP JUMPDEST PUSH2 0x16E PUSH2 0x253 CALLDATASIZE PUSH1 0x4 PUSH2 0x1458 JUMP JUMPDEST PUSH2 0x543 JUMP JUMPDEST PUSH2 0x111 PUSH2 0x266 CALLDATASIZE PUSH1 0x4 PUSH2 0x14B5 JUMP JUMPDEST PUSH2 0x575 JUMP JUMPDEST PUSH2 0x16E PUSH2 0x279 CALLDATASIZE PUSH1 0x4 PUSH2 0x130A JUMP JUMPDEST PUSH2 0x5A2 JUMP JUMPDEST PUSH0 PUSH2 0x288 DUP3 PUSH2 0x5DF JUMP JUMPDEST SWAP3 SWAP2 POP POP JUMP JUMPDEST PUSH1 0x60 PUSH0 DUP1 SLOAD PUSH2 0x29C SWAP1 PUSH2 0x14E6 JUMP JUMPDEST DUP1 PUSH1 0x1F ADD PUSH1 0x20 DUP1 SWAP2 DIV MUL PUSH1 0x20 ADD PUSH1 0x40 MLOAD SWAP1 DUP2 ADD PUSH1 0x40 MSTORE DUP1 SWAP3 SWAP2 SWAP1 DUP2 DUP2 MSTORE PUSH1 0x20 ADD DUP3 DUP1 SLOAD PUSH2 0x2C8 SWAP1 PUSH2 0x14E6 JUMP JUMPDEST DUP1 ISZERO PUSH2 0x313 JUMPI DUP1 PUSH1 0x1F LT PUSH2 0x2EA JUMPI PUSH2 0x100 DUP1 DUP4 SLOAD DIV MUL DUP4 MSTORE SWAP2 PUSH1 0x20 ADD SWAP2 PUSH2 0x313 JUMP JUMPDEST DUP3 ADD SWAP2 SWAP1 PUSH0 MSTORE PUSH1 0x20 PUSH0 KECCAK256 SWAP1 JUMPDEST DUP2 SLOAD DUP2 MSTORE SWAP1 PUSH1 0x1 ADD SWAP1 PUSH1 0x20 ADD DUP1 DUP4 GT PUSH2 0x2F6 JUMPI DUP3 SWAP1 SUB PUSH1 0x1F AND DUP3 ADD SWAP2 JUMPDEST POP POP POP POP POP SWAP1 POP SWAP1 JUMP JUMPDEST PUSH0 PUSH2 0x327 DUP3 PUSH2 0x603 JUMP JUMPDEST POP PUSH2 0x288 DUP3 PUSH2 0x63A JUMP JUMPDEST PUSH2 0x33C DUP3 DUP3 CALLER PUSH2 0x654 JUMP JUMPDEST POP POP JUMP JUMPDEST PUSH1 0x1 PUSH1 0x1 PUSH1 0xA0 SHL SUB DUP3 AND PUSH2 0x372 JUMPI PUSH0 PUSH1 0x40 MLOAD PUSH4 0x32505749 PUSH1 0xE1 SHL DUP2 MSTORE PUSH1 0x4 ADD PUSH2 0x369 SWAP2 SWAP1 PUSH2 0x127A JUMP JUMPDEST PUSH1 0x40 MLOAD DUP1 SWAP2 SUB SWAP1 REVERT JUMPDEST PUSH0 PUSH2 0x37E DUP4 DUP4 CALLER PUSH2 0x661 JUMP JUMPDEST SWAP1 POP DUP4 PUSH1 0x1 PUSH1 0x1 PUSH1 0xA0 SHL SUB AND DUP2 PUSH1 0x1 PUSH1 0x1 PUSH1 0xA0 SHL SUB AND EQ PUSH2 0x3CC JUMPI PUSH1 0x40 MLOAD PUSH4 0x64283D7B PUSH1 0xE0 SHL DUP2 MSTORE PUSH1 0x1 PUSH1 0x1 PUSH1 0xA0 SHL SUB DUP1 DUP7 AND PUSH1 0x4 DUP4 ADD MSTORE PUSH1 0x24 DUP3 ADD DUP5 SWAP1 MSTORE DUP3 AND PUSH1 0x44 DUP3 ADD MSTORE PUSH1 0x64 ADD PUSH2 0x369 JUMP JUMPDEST POP POP POP POP JUMP JUMPDEST PUSH0 PUSH2 0x3DC DUP4 PUSH2 0x4A0 JUMP JUMPDEST DUP3 LT PUSH2 0x3FF JUMPI DUP3 DUP3 PUSH1 0x40 MLOAD PUSH4 0x295F44F7 PUSH1 0xE2 SHL DUP2 MSTORE PUSH1 0x4 ADD PUSH2 0x369 SWAP3 SWAP2 SWAP1 PUSH2 0x151E JUMP JUMPDEST POP PUSH1 0x1 PUSH1 0x1 PUSH1 0xA0 SHL SUB SWAP2 SWAP1 SWAP2 AND PUSH0 SWAP1 DUP2 MSTORE PUSH1 0x6 PUSH1 0x20 SWAP1 DUP2 MSTORE PUSH1 0x40 DUP1 DUP4 KECCAK256 SWAP4 DUP4 MSTORE SWAP3 SWAP1 MSTORE KECCAK256 SLOAD SWAP1 JUMP JUMPDEST PUSH2 0x441 DUP4 DUP4 DUP4 PUSH1 0x40 MLOAD DUP1 PUSH1 0x20 ADD PUSH1 0x40 MSTORE DUP1 PUSH0 DUP2 MSTORE POP PUSH2 0x521 JUMP JUMPDEST POP POP POP JUMP JUMPDEST PUSH0 PUSH2 0x450 PUSH1 0x8 SLOAD SWAP1 JUMP JUMPDEST DUP3 LT PUSH2 0x473 JUMPI PUSH0 DUP3 PUSH1 0x40 MLOAD PUSH4 0x295F44F7 PUSH1 0xE2 SHL DUP2 MSTORE PUSH1 0x4 ADD PUSH2 0x369 SWAP3 SWAP2 SWAP1 PUSH2 0x151E JUMP JUMPDEST PUSH1 0x8 DUP3 DUP2 SLOAD DUP2 LT PUSH2 0x486 JUMPI PUSH2 0x486 PUSH2 0x1537 JUMP JUMPDEST SWAP1 PUSH0 MSTORE PUSH1 0x20 PUSH0 KECCAK256 ADD SLOAD SWAP1 POP SWAP2 SWAP1 POP JUMP JUMPDEST PUSH0 PUSH2 0x288 DUP3 PUSH2 0x603 JUMP JUMPDEST PUSH0 PUSH1 0x1 PUSH1 0x1 PUSH1 0xA0 SHL SUB DUP3 AND PUSH2 0x4CA JUMPI PUSH0 PUSH1 0x40 MLOAD PUSH4 0x22718AD9 PUSH1 0xE2 SHL DUP2 MSTORE PUSH1 0x4 ADD PUSH2 0x369 SWAP2 SWAP1 PUSH2 0x127A JUMP JUMPDEST POP PUSH1 0x1 PUSH1 0x1 PUSH1 0xA0 SHL SUB AND PUSH0 SWAP1 DUP2 MSTORE PUSH1 0x3 PUSH1 0x20 MSTORE PUSH1 0x40 SWAP1 KECCAK256 SLOAD SWAP1 JUMP JUMPDEST PUSH2 0x4ED PUSH2 0x675 JUMP JUMPDEST PUSH2 0x4F6 PUSH0 PUSH2 0x6A7 JUMP JUMPDEST JUMP JUMPDEST PUSH1 0xB SLOAD PUSH1 0x1 PUSH1 0x1 PUSH1 0xA0 SHL SUB AND SWAP1 JUMP JUMPDEST PUSH1 0x60 PUSH1 0x1 DUP1 SLOAD PUSH2 0x29C SWAP1 PUSH2 0x14E6 JUMP JUMPDEST PUSH2 0x33C CALLER DUP4 DUP4 PUSH2 0x6F8 JUMP JUMPDEST PUSH2 0x52C DUP5 DUP5 DUP5 PUSH2 0x340 JUMP JUMPDEST PUSH2 0x3CC DUP5 DUP5 DUP5 DUP5 PUSH2 0x78D JUMP JUMPDEST PUSH1 0x60 PUSH2 0x288 DUP3 PUSH2 0x8A1 JUMP JUMPDEST PUSH2 0x54B PUSH2 0x675 JUMP JUMPDEST PUSH1 0xC DUP1 SLOAD PUSH0 SWAP2 DUP3 PUSH2 0x55B DUP4 PUSH2 0x155F JUMP JUMPDEST SWAP2 SWAP1 POP SSTORE SWAP1 POP PUSH2 0x56B DUP4 DUP3 PUSH2 0x9A4 JUMP JUMPDEST PUSH2 0x441 DUP2 DUP4 PUSH2 0x9BD JUMP JUMPDEST PUSH1 0x1 PUSH1 0x1 PUSH1 0xA0 SHL SUB SWAP2 DUP3 AND PUSH0 SWAP1 DUP2 MSTORE PUSH1 0x5 PUSH1 0x20 SWAP1 DUP2 MSTORE PUSH1 0x40 DUP1 DUP4 KECCAK256 SWAP4 SWAP1 SWAP5 AND DUP3 MSTORE SWAP2 SWAP1 SWAP2 MSTORE KECCAK256 SLOAD PUSH1 0xFF AND SWAP1 JUMP JUMPDEST PUSH2 0x5AA PUSH2 0x675 JUMP JUMPDEST PUSH1 0x1 PUSH1 0x1 PUSH1 0xA0 SHL SUB DUP2 AND PUSH2 0x5D3 JUMPI PUSH0 PUSH1 0x40 MLOAD PUSH4 0x1E4FBDF7 PUSH1 0xE0 SHL DUP2 MSTORE PUSH1 0x4 ADD PUSH2 0x369 SWAP2 SWAP1 PUSH2 0x127A JUMP JUMPDEST PUSH2 0x5DC DUP2 PUSH2 0x6A7 JUMP JUMPDEST POP JUMP JUMPDEST PUSH0 PUSH1 0x1 PUSH1 0x1 PUSH1 0xE0 SHL SUB NOT DUP3 AND PUSH4 0x24832483 PUSH1 0xE1 SHL EQ DUP1 PUSH2 0x288 JUMPI POP PUSH2 0x288 DUP3 PUSH2 0xA0C JUMP JUMPDEST PUSH0 DUP1 PUSH2 0x60E DUP4 PUSH2 0xA30 JUMP JUMPDEST SWAP1 POP PUSH1 0x1 PUSH1 0x1 PUSH1 0xA0 SHL SUB DUP2 AND PUSH2 0x288 JUMPI PUSH1 0x40 MLOAD PUSH4 0x7E273289 PUSH1 0xE0 SHL DUP2 MSTORE PUSH1 0x4 DUP2 ADD DUP5 SWAP1 MSTORE PUSH1 0x24 ADD PUSH2 0x369 JUMP JUMPDEST PUSH0 SWAP1 DUP2 MSTORE PUSH1 0x4 PUSH1 0x20 MSTORE PUSH1 0x40 SWAP1 KECCAK256 SLOAD PUSH1 0x1 PUSH1 0x1 PUSH1 0xA0 SHL SUB AND SWAP1 JUMP JUMPDEST PUSH2 0x441 DUP4 DUP4 DUP4 PUSH1 0x1 PUSH2 0xA4A JUMP JUMPDEST PUSH0 PUSH2 0x66D DUP5 DUP5 DUP5 PUSH2 0xB45 JUMP JUMPDEST SWAP5 SWAP4 POP POP POP POP JUMP JUMPDEST CALLER PUSH2 0x67E PUSH2 0x4F8 JUMP JUMPDEST PUSH1 0x1 PUSH1 0x1 PUSH1 0xA0 SHL SUB AND EQ PUSH2 0x4F6 JUMPI CALLER PUSH1 0x40 MLOAD PUSH4 0x118CDAA7 PUSH1 0xE0 SHL DUP2 MSTORE PUSH1 0x4 ADD PUSH2 0x369 SWAP2 SWAP1 PUSH2 0x127A JUMP JUMPDEST PUSH1 0xB DUP1 SLOAD PUSH1 0x1 PUSH1 0x1 PUSH1 0xA0 SHL SUB DUP4 DUP2 AND PUSH1 0x1 PUSH1 0x1 PUSH1 0xA0 SHL SUB NOT DUP4 AND DUP2 OR SWAP1 SWAP4 SSTORE PUSH1 0x40 MLOAD SWAP2 AND SWAP2 SWAP1 DUP3 SWAP1 PUSH32 0x8BE0079C531659141344CD1FD0A4F28419497F9722A3DAAFE3B4186F6B6457E0 SWAP1 PUSH0 SWAP1 LOG3 POP POP JUMP JUMPDEST PUSH1 0x1 PUSH1 0x1 PUSH1 0xA0 SHL SUB DUP3 AND PUSH2 0x721 JUMPI DUP2 PUSH1 0x40 MLOAD PUSH4 0xB611743 PUSH1 0xE3 SHL DUP2 MSTORE PUSH1 0x4 ADD PUSH2 0x369 SWAP2 SWAP1 PUSH2 0x127A JUMP JUMPDEST PUSH1 0x1 PUSH1 0x1 PUSH1 0xA0 SHL SUB DUP4 DUP2 AND PUSH0 DUP2 DUP2 MSTORE PUSH1 0x5 PUSH1 0x20 SWAP1 DUP2 MSTORE PUSH1 0x40 DUP1 DUP4 KECCAK256 SWAP5 DUP8 AND DUP1 DUP5 MSTORE SWAP5 DUP3 MSTORE SWAP2 DUP3 SWAP1 KECCAK256 DUP1 SLOAD PUSH1 0xFF NOT AND DUP7 ISZERO ISZERO SWAP1 DUP2 OR SWAP1 SWAP2 SSTORE SWAP2 MLOAD SWAP2 DUP3 MSTORE PUSH32 0x17307EAB39AB6107E8899845AD3D59BD9653F200F220920489CA2B5937696C31 SWAP2 ADD PUSH1 0x40 MLOAD DUP1 SWAP2 SUB SWAP1 LOG3 POP POP POP JUMP JUMPDEST PUSH1 0x1 PUSH1 0x1 PUSH1 0xA0 SHL SUB DUP4 AND EXTCODESIZE ISZERO PUSH2 0x3CC JUMPI PUSH1 0x40 MLOAD PUSH4 0xA85BD01 PUSH1 0xE1 SHL DUP2 MSTORE PUSH1 0x1 PUSH1 0x1 PUSH1 0xA0 SHL SUB DUP5 AND SWAP1 PUSH4 0x150B7A02 SWAP1 PUSH2 0x7CF SWAP1 CALLER SWAP1 DUP9 SWAP1 DUP8 SWAP1 DUP8 SWAP1 PUSH1 0x4 ADD PUSH2 0x1577 JUMP JUMPDEST PUSH1 0x20 PUSH1 0x40 MLOAD DUP1 DUP4 SUB DUP2 PUSH0 DUP8 GAS CALL SWAP3 POP POP POP DUP1 ISZERO PUSH2 0x809 JUMPI POP PUSH1 0x40 DUP1 MLOAD PUSH1 0x1F RETURNDATASIZE SWAP1 DUP2 ADD PUSH1 0x1F NOT AND DUP3 ADD SWAP1 SWAP3 MSTORE PUSH2 0x806 SWAP2 DUP2 ADD SWAP1 PUSH2 0x15B3 JUMP JUMPDEST PUSH1 0x1 JUMPDEST PUSH2 0x867 JUMPI RETURNDATASIZE DUP1 DUP1 ISZERO PUSH2 0x836 JUMPI PUSH1 0x40 MLOAD SWAP2 POP PUSH1 0x1F NOT PUSH1 0x3F RETURNDATASIZE ADD AND DUP3 ADD PUSH1 0x40 MSTORE RETURNDATASIZE DUP3 MSTORE RETURNDATASIZE PUSH0 PUSH1 0x20 DUP5 ADD RETURNDATACOPY PUSH2 0x83B JUMP JUMPDEST PUSH1 0x60 SWAP2 POP JUMPDEST POP DUP1 MLOAD PUSH0 SUB PUSH2 0x85F JUMPI DUP4 PUSH1 0x40 MLOAD PUSH4 0x32505749 PUSH1 0xE1 SHL DUP2 MSTORE PUSH1 0x4 ADD PUSH2 0x369 SWAP2 SWAP1 PUSH2 0x127A JUMP JUMPDEST DUP1 MLOAD DUP2 PUSH1 0x20 ADD REVERT JUMPDEST PUSH1 0x1 PUSH1 0x1 PUSH1 0xE0 SHL SUB NOT DUP2 AND PUSH4 0xA85BD01 PUSH1 0xE1 SHL EQ PUSH2 0x89A JUMPI DUP4 PUSH1 0x40 MLOAD PUSH4 0x32505749 PUSH1 0xE1 SHL DUP2 MSTORE PUSH1 0x4 ADD PUSH2 0x369 SWAP2 SWAP1 PUSH2 0x127A JUMP JUMPDEST POP POP POP POP POP JUMP JUMPDEST PUSH1 0x60 PUSH2 0x8AC DUP3 PUSH2 0x603 JUMP JUMPDEST POP PUSH0 DUP3 DUP2 MSTORE PUSH1 0xA PUSH1 0x20 MSTORE PUSH1 0x40 DUP2 KECCAK256 DUP1 SLOAD PUSH2 0x8C5 SWAP1 PUSH2 0x14E6 JUMP JUMPDEST DUP1 PUSH1 0x1F ADD PUSH1 0x20 DUP1 SWAP2 DIV MUL PUSH1 0x20 ADD PUSH1 0x40 MLOAD SWAP1 DUP2 ADD PUSH1 0x40 MSTORE DUP1 SWAP3 SWAP2 SWAP1 DUP2 DUP2 MSTORE PUSH1 0x20 ADD DUP3 DUP1 SLOAD PUSH2 0x8F1 SWAP1 PUSH2 0x14E6 JUMP JUMPDEST DUP1 ISZERO PUSH2 0x93C JUMPI DUP1 PUSH1 0x1F LT PUSH2 0x913 JUMPI PUSH2 0x100 DUP1 DUP4 SLOAD DIV MUL DUP4 MSTORE SWAP2 PUSH1 0x20 ADD SWAP2 PUSH2 0x93C JUMP JUMPDEST DUP3 ADD SWAP2 SWAP1 PUSH0 MSTORE PUSH1 0x20 PUSH0 KECCAK256 SWAP1 JUMPDEST DUP2 SLOAD DUP2 MSTORE SWAP1 PUSH1 0x1 ADD SWAP1 PUSH1 0x20 ADD DUP1 DUP4 GT PUSH2 0x91F JUMPI DUP3 SWAP1 SUB PUSH1 0x1F AND DUP3 ADD SWAP2 JUMPDEST POP POP POP POP POP SWAP1 POP PUSH0 PUSH2 0x958 PUSH1 0x40 DUP1 MLOAD PUSH1 0x20 DUP2 ADD SWAP1 SWAP2 MSTORE PUSH0 DUP2 MSTORE SWAP1 JUMP JUMPDEST SWAP1 POP DUP1 MLOAD PUSH0 SUB PUSH2 0x969 JUMPI POP SWAP3 SWAP2 POP POP JUMP JUMPDEST DUP2 MLOAD ISZERO PUSH2 0x99B JUMPI DUP1 DUP3 PUSH1 0x40 MLOAD PUSH1 0x20 ADD PUSH2 0x983 SWAP3 SWAP2 SWAP1 PUSH2 0x15CE JUMP JUMPDEST PUSH1 0x40 MLOAD PUSH1 0x20 DUP2 DUP4 SUB SUB DUP2 MSTORE SWAP1 PUSH1 0x40 MSTORE SWAP3 POP POP POP SWAP2 SWAP1 POP JUMP JUMPDEST PUSH2 0x66D DUP5 PUSH2 0xC10 JUMP JUMPDEST PUSH2 0x33C DUP3 DUP3 PUSH1 0x40 MLOAD DUP1 PUSH1 0x20 ADD PUSH1 0x40 MSTORE DUP1 PUSH0 DUP2 MSTORE POP PUSH2 0xC81 JUMP JUMPDEST PUSH0 DUP3 DUP2 MSTORE PUSH1 0xA PUSH1 0x20 MSTORE PUSH1 0x40 SWAP1 KECCAK256 PUSH2 0x9D4 DUP3 DUP3 PUSH2 0x1640 JUMP JUMPDEST POP PUSH1 0x40 MLOAD DUP3 DUP2 MSTORE PUSH32 0xF8E1A15ABA9398E019F0B49DF1A4FDE98EE17AE345CB5F6B5E2C27F5033E8CE7 SWAP1 PUSH1 0x20 ADD PUSH1 0x40 MLOAD DUP1 SWAP2 SUB SWAP1 LOG1 POP POP JUMP JUMPDEST PUSH0 PUSH1 0x1 PUSH1 0x1 PUSH1 0xE0 SHL SUB NOT DUP3 AND PUSH4 0x780E9D63 PUSH1 0xE0 SHL EQ DUP1 PUSH2 0x288 JUMPI POP PUSH2 0x288 DUP3 PUSH2 0xC97 JUMP JUMPDEST PUSH0 SWAP1 DUP2 MSTORE PUSH1 0x2 PUSH1 0x20 MSTORE PUSH1 0x40 SWAP1 KECCAK256 SLOAD PUSH1 0x1 PUSH1 0x1 PUSH1 0xA0 SHL SUB AND SWAP1 JUMP JUMPDEST DUP1 DUP1 PUSH2 0xA5E JUMPI POP PUSH1 0x1 PUSH1 0x1 PUSH1 0xA0 SHL SUB DUP3 AND ISZERO ISZERO JUMPDEST ISZERO PUSH2 0xB16 JUMPI PUSH0 PUSH2 0xA6D DUP5 PUSH2 0x603 JUMP JUMPDEST SWAP1 POP PUSH1 0x1 PUSH1 0x1 PUSH1 0xA0 SHL SUB DUP4 AND ISZERO DUP1 ISZERO SWAP1 PUSH2 0xA99 JUMPI POP DUP3 PUSH1 0x1 PUSH1 0x1 PUSH1 0xA0 SHL SUB AND DUP2 PUSH1 0x1 PUSH1 0x1 PUSH1 0xA0 SHL SUB AND EQ ISZERO JUMPDEST DUP1 ISZERO PUSH2 0xAAC JUMPI POP PUSH2 0xAAA DUP2 DUP5 PUSH2 0x575 JUMP JUMPDEST ISZERO JUMPDEST ISZERO PUSH2 0xACC JUMPI DUP3 PUSH1 0x40 MLOAD PUSH4 0xA9FBF51F PUSH1 0xE0 SHL DUP2 MSTORE PUSH1 0x4 ADD PUSH2 0x369 SWAP2 SWAP1 PUSH2 0x127A JUMP JUMPDEST DUP2 ISZERO PUSH2 0xB14 JUMPI DUP4 DUP6 PUSH1 0x1 PUSH1 0x1 PUSH1 0xA0 SHL SUB AND DUP3 PUSH1 0x1 PUSH1 0x1 PUSH1 0xA0 SHL SUB AND PUSH32 0x8C5BE1E5EBEC7D5BD14F71427D1E84F3DD0314C0F7B2291E5B200AC8C7C3B925 PUSH1 0x40 MLOAD PUSH1 0x40 MLOAD DUP1 SWAP2 SUB SWAP1 LOG4 JUMPDEST POP JUMPDEST POP POP PUSH0 SWAP1 DUP2 MSTORE PUSH1 0x4 PUSH1 0x20 MSTORE PUSH1 0x40 SWAP1 KECCAK256 DUP1 SLOAD PUSH1 0x1 PUSH1 0x1 PUSH1 0xA0 SHL SUB NOT AND PUSH1 0x1 PUSH1 0x1 PUSH1 0xA0 SHL SUB SWAP3 SWAP1 SWAP3 AND SWAP2 SWAP1 SWAP2 OR SWAP1 SSTORE JUMP JUMPDEST PUSH0 DUP1 PUSH2 0xB52 DUP6 DUP6 DUP6 PUSH2 0xCE6 JUMP JUMPDEST SWAP1 POP PUSH1 0x1 PUSH1 0x1 PUSH1 0xA0 SHL SUB DUP2 AND PUSH2 0xBAE JUMPI PUSH2 0xBA9 DUP5 PUSH1 0x8 DUP1 SLOAD PUSH0 DUP4 DUP2 MSTORE PUSH1 0x9 PUSH1 0x20 MSTORE PUSH1 0x40 DUP2 KECCAK256 DUP3 SWAP1 SSTORE PUSH1 0x1 DUP3 ADD DUP4 SSTORE SWAP2 SWAP1 SWAP2 MSTORE PUSH32 0xF3F7A9FE364FAAB93B216DA50A3214154F22A0A2B415B23A84C8169E8B636EE3 ADD SSTORE JUMP JUMPDEST PUSH2 0xBD1 JUMP JUMPDEST DUP5 PUSH1 0x1 PUSH1 0x1 PUSH1 0xA0 SHL SUB AND DUP2 PUSH1 0x1 PUSH1 0x1 PUSH1 0xA0 SHL SUB AND EQ PUSH2 0xBD1 JUMPI PUSH2 0xBD1 DUP2 DUP6 PUSH2 0xDD3 JUMP JUMPDEST PUSH1 0x1 PUSH1 0x1 PUSH1 0xA0 SHL SUB DUP6 AND PUSH2 0xBED JUMPI PUSH2 0xBE8 DUP5 PUSH2 0xE60 JUMP JUMPDEST PUSH2 0x66D JUMP JUMPDEST DUP5 PUSH1 0x1 PUSH1 0x1 PUSH1 0xA0 SHL SUB AND DUP2 PUSH1 0x1 PUSH1 0x1 PUSH1 0xA0 SHL SUB AND EQ PUSH2 0x66D JUMPI PUSH2 0x66D DUP6 DUP6 PUSH2 0xF07 JUMP JUMPDEST PUSH1 0x60 PUSH2 0xC1B DUP3 PUSH2 0x603 JUMP JUMPDEST POP PUSH0 PUSH2 0xC31 PUSH1 0x40 DUP1 MLOAD PUSH1 0x20 DUP2 ADD SWAP1 SWAP2 MSTORE PUSH0 DUP2 MSTORE SWAP1 JUMP JUMPDEST SWAP1 POP PUSH0 DUP2 MLOAD GT PUSH2 0xC4F JUMPI PUSH1 0x40 MLOAD DUP1 PUSH1 0x20 ADD PUSH1 0x40 MSTORE DUP1 PUSH0 DUP2 MSTORE POP PUSH2 0xC7A JUMP JUMPDEST DUP1 PUSH2 0xC59 DUP5 PUSH2 0xF55 JUMP JUMPDEST PUSH1 0x40 MLOAD PUSH1 0x20 ADD PUSH2 0xC6A SWAP3 SWAP2 SWAP1 PUSH2 0x15CE JUMP JUMPDEST PUSH1 0x40 MLOAD PUSH1 0x20 DUP2 DUP4 SUB SUB DUP2 MSTORE SWAP1 PUSH1 0x40 MSTORE JUMPDEST SWAP4 SWAP3 POP POP POP JUMP JUMPDEST PUSH2 0xC8B DUP4 DUP4 PUSH2 0xFE4 JUMP JUMPDEST PUSH2 0x441 PUSH0 DUP5 DUP5 DUP5 PUSH2 0x78D JUMP JUMPDEST PUSH0 PUSH1 0x1 PUSH1 0x1 PUSH1 0xE0 SHL SUB NOT DUP3 AND PUSH4 0x80AC58CD PUSH1 0xE0 SHL EQ DUP1 PUSH2 0xCC7 JUMPI POP PUSH1 0x1 PUSH1 0x1 PUSH1 0xE0 SHL SUB NOT DUP3 AND PUSH4 0x5B5E139F PUSH1 0xE0 SHL EQ JUMPDEST DUP1 PUSH2 0x288 JUMPI POP PUSH4 0x1FFC9A7 PUSH1 0xE0 SHL PUSH1 0x1 PUSH1 0x1 PUSH1 0xE0 SHL SUB NOT DUP4 AND EQ PUSH2 0x288 JUMP JUMPDEST PUSH0 DUP1 PUSH2 0xCF1 DUP5 PUSH2 0xA30 JUMP JUMPDEST SWAP1 POP PUSH1 0x1 PUSH1 0x1 PUSH1 0xA0 SHL SUB DUP4 AND ISZERO PUSH2 0xD0D JUMPI PUSH2 0xD0D DUP2 DUP5 DUP7 PUSH2 0x1045 JUMP JUMPDEST PUSH1 0x1 PUSH1 0x1 PUSH1 0xA0 SHL SUB DUP2 AND ISZERO PUSH2 0xD47 JUMPI PUSH2 0xD28 PUSH0 DUP6 PUSH0 DUP1 PUSH2 0xA4A JUMP JUMPDEST PUSH1 0x1 PUSH1 0x1 PUSH1 0xA0 SHL SUB DUP2 AND PUSH0 SWAP1 DUP2 MSTORE PUSH1 0x3 PUSH1 0x20 MSTORE PUSH1 0x40 SWAP1 KECCAK256 DUP1 SLOAD PUSH0 NOT ADD SWAP1 SSTORE JUMPDEST PUSH1 0x1 PUSH1 0x1 PUSH1 0xA0 SHL SUB DUP6 AND ISZERO PUSH2 0xD75 JUMPI PUSH1 0x1 PUSH1 0x1 PUSH1 0xA0 SHL SUB DUP6 AND PUSH0 SWAP1 DUP2 MSTORE PUSH1 0x3 PUSH1 0x20 MSTORE PUSH1 0x40 SWAP1 KECCAK256 DUP1 SLOAD PUSH1 0x1 ADD SWAP1 SSTORE JUMPDEST PUSH0 DUP5 DUP2 MSTORE PUSH1 0x2 PUSH1 0x20 MSTORE PUSH1 0x40 DUP1 DUP3 KECCAK256 DUP1 SLOAD PUSH1 0x1 PUSH1 0x1 PUSH1 0xA0 SHL SUB NOT AND PUSH1 0x1 PUSH1 0x1 PUSH1 0xA0 SHL SUB DUP10 DUP2 AND SWAP2 DUP3 OR SWAP1 SWAP3 SSTORE SWAP2 MLOAD DUP8 SWAP4 SWAP2 DUP6 AND SWAP2 PUSH32 0xDDF252AD1BE2C89B69C2B068FC378DAA952BA7F163C4A11628F55A4DF523B3EF SWAP2 LOG4 SWAP5 SWAP4 POP POP POP POP JUMP JUMPDEST PUSH0 PUSH2 0xDDD DUP4 PUSH2 0x4A0 JUMP JUMPDEST PUSH0 DUP4 DUP2 MSTORE PUSH1 0x7 PUSH1 0x20 MSTORE PUSH1 0x40 SWAP1 KECCAK256 SLOAD SWAP1 SWAP2 POP DUP1 DUP3 EQ PUSH2 0xE2E JUMPI PUSH1 0x1 PUSH1 0x1 PUSH1 0xA0 SHL SUB DUP5 AND PUSH0 SWAP1 DUP2 MSTORE PUSH1 0x6 PUSH1 0x20 SWAP1 DUP2 MSTORE PUSH1 0x40 DUP1 DUP4 KECCAK256 DUP6 DUP5 MSTORE DUP3 MSTORE DUP1 DUP4 KECCAK256 SLOAD DUP5 DUP5 MSTORE DUP2 DUP5 KECCAK256 DUP2 SWAP1 SSTORE DUP4 MSTORE PUSH1 0x7 SWAP1 SWAP2 MSTORE SWAP1 KECCAK256 DUP2 SWAP1 SSTORE JUMPDEST POP PUSH0 SWAP2 DUP3 MSTORE PUSH1 0x7 PUSH1 0x20 SWAP1 DUP2 MSTORE PUSH1 0x40 DUP1 DUP5 KECCAK256 DUP5 SWAP1 SSTORE PUSH1 0x1 PUSH1 0x1 PUSH1 0xA0 SHL SUB SWAP1 SWAP5 AND DUP4 MSTORE PUSH1 0x6 DUP2 MSTORE DUP4 DUP4 KECCAK256 SWAP2 DUP4 MSTORE MSTORE SWAP1 DUP2 KECCAK256 SSTORE JUMP JUMPDEST PUSH1 0x8 SLOAD PUSH0 SWAP1 PUSH2 0xE71 SWAP1 PUSH1 0x1 SWAP1 PUSH2 0x16FF JUMP JUMPDEST PUSH0 DUP4 DUP2 MSTORE PUSH1 0x9 PUSH1 0x20 MSTORE PUSH1 0x40 DUP2 KECCAK256 SLOAD PUSH1 0x8 DUP1 SLOAD SWAP4 SWAP5 POP SWAP1 SWAP3 DUP5 SWAP1 DUP2 LT PUSH2 0xE98 JUMPI PUSH2 0xE98 PUSH2 0x1537 JUMP JUMPDEST SWAP1 PUSH0 MSTORE PUSH1 0x20 PUSH0 KECCAK256 ADD SLOAD SWAP1 POP DUP1 PUSH1 0x8 DUP4 DUP2 SLOAD DUP2 LT PUSH2 0xEB7 JUMPI PUSH2 0xEB7 PUSH2 0x1537 JUMP JUMPDEST PUSH0 SWAP2 DUP3 MSTORE PUSH1 0x20 DUP1 DUP4 KECCAK256 SWAP1 SWAP2 ADD SWAP3 SWAP1 SWAP3 SSTORE DUP3 DUP2 MSTORE PUSH1 0x9 SWAP1 SWAP2 MSTORE PUSH1 0x40 DUP1 DUP3 KECCAK256 DUP5 SWAP1 SSTORE DUP6 DUP3 MSTORE DUP2 KECCAK256 SSTORE PUSH1 0x8 DUP1 SLOAD DUP1 PUSH2 0xEEE JUMPI PUSH2 0xEEE PUSH2 0x1712 JUMP JUMPDEST PUSH1 0x1 SWAP1 SUB DUP2 DUP2 SWAP1 PUSH0 MSTORE PUSH1 0x20 PUSH0 KECCAK256 ADD PUSH0 SWAP1 SSTORE SWAP1 SSTORE POP POP POP POP JUMP JUMPDEST PUSH0 PUSH1 0x1 PUSH2 0xF13 DUP5 PUSH2 0x4A0 JUMP JUMPDEST PUSH2 0xF1D SWAP2 SWAP1 PUSH2 0x16FF JUMP JUMPDEST PUSH1 0x1 PUSH1 0x1 PUSH1 0xA0 SHL SUB SWAP1 SWAP4 AND PUSH0 SWAP1 DUP2 MSTORE PUSH1 0x6 PUSH1 0x20 SWAP1 DUP2 MSTORE PUSH1 0x40 DUP1 DUP4 KECCAK256 DUP7 DUP5 MSTORE DUP3 MSTORE DUP1 DUP4 KECCAK256 DUP6 SWAP1 SSTORE SWAP4 DUP3 MSTORE PUSH1 0x7 SWAP1 MSTORE SWAP2 SWAP1 SWAP2 KECCAK256 SWAP2 SWAP1 SWAP2 SSTORE POP JUMP JUMPDEST PUSH1 0x60 PUSH0 PUSH2 0xF61 DUP4 PUSH2 0x109B JUMP JUMPDEST PUSH1 0x1 ADD SWAP1 POP PUSH0 DUP2 PUSH1 0x1 PUSH1 0x1 PUSH1 0x40 SHL SUB DUP2 GT ISZERO PUSH2 0xF7F JUMPI PUSH2 0xF7F PUSH2 0x135C JUMP JUMPDEST PUSH1 0x40 MLOAD SWAP1 DUP1 DUP3 MSTORE DUP1 PUSH1 0x1F ADD PUSH1 0x1F NOT AND PUSH1 0x20 ADD DUP3 ADD PUSH1 0x40 MSTORE DUP1 ISZERO PUSH2 0xFA9 JUMPI PUSH1 0x20 DUP3 ADD DUP2 DUP1 CALLDATASIZE DUP4 CALLDATACOPY ADD SWAP1 POP JUMPDEST POP SWAP1 POP DUP2 DUP2 ADD PUSH1 0x20 ADD JUMPDEST PUSH0 NOT ADD PUSH16 0x181899199A1A9B1B9C1CB0B131B232B3 PUSH1 0x81 SHL PUSH1 0xA DUP7 MOD BYTE DUP2 MSTORE8 PUSH1 0xA DUP6 DIV SWAP5 POP DUP5 PUSH2 0xFB3 JUMPI POP SWAP4 SWAP3 POP POP POP JUMP JUMPDEST PUSH1 0x1 PUSH1 0x1 PUSH1 0xA0 SHL SUB DUP3 AND PUSH2 0x100D JUMPI PUSH0 PUSH1 0x40 MLOAD PUSH4 0x32505749 PUSH1 0xE1 SHL DUP2 MSTORE PUSH1 0x4 ADD PUSH2 0x369 SWAP2 SWAP1 PUSH2 0x127A JUMP JUMPDEST PUSH0 PUSH2 0x1019 DUP4 DUP4 PUSH0 PUSH2 0x661 JUMP JUMPDEST SWAP1 POP PUSH1 0x1 PUSH1 0x1 PUSH1 0xA0 SHL SUB DUP2 AND ISZERO PUSH2 0x441 JUMPI PUSH0 PUSH1 0x40 MLOAD PUSH4 0x39E35637 PUSH1 0xE1 SHL DUP2 MSTORE PUSH1 0x4 ADD PUSH2 0x369 SWAP2 SWAP1 PUSH2 0x127A JUMP JUMPDEST PUSH2 0x1050 DUP4 DUP4 DUP4 PUSH2 0x1170 JUMP JUMPDEST PUSH2 0x441 JUMPI PUSH1 0x1 PUSH1 0x1 PUSH1 0xA0 SHL SUB DUP4 AND PUSH2 0x107E JUMPI PUSH1 0x40 MLOAD PUSH4 0x7E273289 PUSH1 0xE0 SHL DUP2 MSTORE PUSH1 0x4 DUP2 ADD DUP3 SWAP1 MSTORE PUSH1 0x24 ADD PUSH2 0x369 JUMP JUMPDEST DUP2 DUP2 PUSH1 0x40 MLOAD PUSH4 0x177E802F PUSH1 0xE0 SHL DUP2 MSTORE PUSH1 0x4 ADD PUSH2 0x369 SWAP3 SWAP2 SWAP1 PUSH2 0x151E JUMP JUMPDEST PUSH0 DUP1 PUSH19 0x184F03E93FF9F4DAA797ED6E38ED64BF6A1F01 PUSH1 0x40 SHL DUP4 LT PUSH2 0x10D9 JUMPI PUSH19 0x184F03E93FF9F4DAA797ED6E38ED64BF6A1F01 PUSH1 0x40 SHL DUP4 DIV SWAP3 POP PUSH1 0x40 ADD JUMPDEST PUSH10 0x4EE2D6D415B85ACEF81 PUSH1 0x20 SHL DUP4 LT PUSH2 0x1103 JUMPI PUSH10 0x4EE2D6D415B85ACEF81 PUSH1 0x20 SHL DUP4 DIV SWAP3 POP PUSH1 0x20 ADD JUMPDEST PUSH7 0x2386F26FC10000 DUP4 LT PUSH2 0x1121 JUMPI PUSH7 0x2386F26FC10000 DUP4 DIV SWAP3 POP PUSH1 0x10 ADD JUMPDEST PUSH4 0x5F5E100 DUP4 LT PUSH2 0x1139 JUMPI PUSH4 0x5F5E100 DUP4 DIV SWAP3 POP PUSH1 0x8 ADD JUMPDEST PUSH2 0x2710 DUP4 LT PUSH2 0x114D JUMPI PUSH2 0x2710 DUP4 DIV SWAP3 POP PUSH1 0x4 ADD JUMPDEST PUSH1 0x64 DUP4 LT PUSH2 0x115F JUMPI PUSH1 0x64 DUP4 DIV SWAP3 POP PUSH1 0x2 ADD JUMPDEST PUSH1 0xA DUP4 LT PUSH2 0x288 JUMPI PUSH1 0x1 ADD SWAP3 SWAP2 POP POP JUMP JUMPDEST PUSH0 PUSH1 0x1 PUSH1 0x1 PUSH1 0xA0 SHL SUB DUP4 AND ISZERO DUP1 ISZERO SWAP1 PUSH2 0x66D JUMPI POP DUP3 PUSH1 0x1 PUSH1 0x1 PUSH1 0xA0 SHL SUB AND DUP5 PUSH1 0x1 PUSH1 0x1 PUSH1 0xA0 SHL SUB AND EQ DUP1 PUSH2 0x11A9 JUMPI POP PUSH2 0x11A9 DUP5 DUP5 PUSH2 0x575 JUMP JUMPDEST DUP1 PUSH2 0x66D JUMPI POP DUP3 PUSH1 0x1 PUSH1 0x1 PUSH1 0xA0 SHL SUB AND PUSH2 0x11C2 DUP4 PUSH2 0x63A JUMP JUMPDEST PUSH1 0x1 PUSH1 0x1 PUSH1 0xA0 SHL SUB AND EQ SWAP5 SWAP4 POP POP POP POP JUMP JUMPDEST PUSH1 0x1 PUSH1 0x1 PUSH1 0xE0 SHL SUB NOT DUP2 AND DUP2 EQ PUSH2 0x5DC JUMPI PUSH0 DUP1 REVERT JUMPDEST PUSH0 PUSH1 0x20 DUP3 DUP5 SUB SLT ISZERO PUSH2 0x11F9 JUMPI PUSH0 DUP1 REVERT JUMPDEST DUP2 CALLDATALOAD PUSH2 0xC7A DUP2 PUSH2 0x11D4 JUMP JUMPDEST PUSH0 JUMPDEST DUP4 DUP2 LT ISZERO PUSH2 0x121E JUMPI DUP2 DUP2 ADD MLOAD DUP4 DUP3 ADD MSTORE PUSH1 0x20 ADD PUSH2 0x1206 JUMP JUMPDEST POP POP PUSH0 SWAP2 ADD MSTORE JUMP JUMPDEST PUSH0 DUP2 MLOAD DUP1 DUP5 MSTORE PUSH2 0x123D DUP2 PUSH1 0x20 DUP7 ADD PUSH1 0x20 DUP7 ADD PUSH2 0x1204 JUMP JUMPDEST PUSH1 0x1F ADD PUSH1 0x1F NOT AND SWAP3 SWAP1 SWAP3 ADD PUSH1 0x20 ADD SWAP3 SWAP2 POP POP JUMP JUMPDEST PUSH1 0x20 DUP2 MSTORE PUSH0 PUSH2 0xC7A PUSH1 0x20 DUP4 ADD DUP5 PUSH2 0x1226 JUMP JUMPDEST PUSH0 PUSH1 0x20 DUP3 DUP5 SUB SLT ISZERO PUSH2 0x1273 JUMPI PUSH0 DUP1 REVERT JUMPDEST POP CALLDATALOAD SWAP2 SWAP1 POP JUMP JUMPDEST PUSH1 0x1 PUSH1 0x1 PUSH1 0xA0 SHL SUB SWAP2 SWAP1 SWAP2 AND DUP2 MSTORE PUSH1 0x20 ADD SWAP1 JUMP JUMPDEST DUP1 CALLDATALOAD PUSH1 0x1 PUSH1 0x1 PUSH1 0xA0 SHL SUB DUP2 AND DUP2 EQ PUSH2 0x12A4 JUMPI PUSH0 DUP1 REVERT JUMPDEST SWAP2 SWAP1 POP JUMP JUMPDEST PUSH0 DUP1 PUSH1 0x40 DUP4 DUP6 SUB SLT ISZERO PUSH2 0x12BA JUMPI PUSH0 DUP1 REVERT JUMPDEST PUSH2 0x12C3 DUP4 PUSH2 0x128E JUMP JUMPDEST SWAP5 PUSH1 0x20 SWAP4 SWAP1 SWAP4 ADD CALLDATALOAD SWAP4 POP POP POP JUMP JUMPDEST PUSH0 DUP1 PUSH0 PUSH1 0x60 DUP5 DUP7 SUB SLT ISZERO PUSH2 0x12E3 JUMPI PUSH0 DUP1 REVERT JUMPDEST PUSH2 0x12EC DUP5 PUSH2 0x128E JUMP JUMPDEST SWAP3 POP PUSH2 0x12FA PUSH1 0x20 DUP6 ADD PUSH2 0x128E JUMP JUMPDEST SWAP2 POP PUSH1 0x40 DUP5 ADD CALLDATALOAD SWAP1 POP SWAP3 POP SWAP3 POP SWAP3 JUMP JUMPDEST PUSH0 PUSH1 0x20 DUP3 DUP5 SUB SLT ISZERO PUSH2 0x131A JUMPI PUSH0 DUP1 REVERT JUMPDEST PUSH2 0xC7A DUP3 PUSH2 0x128E JUMP JUMPDEST PUSH0 DUP1 PUSH1 0x40 DUP4 DUP6 SUB SLT ISZERO PUSH2 0x1334 JUMPI PUSH0 DUP1 REVERT JUMPDEST PUSH2 0x133D DUP4 PUSH2 0x128E JUMP JUMPDEST SWAP2 POP PUSH1 0x20 DUP4 ADD CALLDATALOAD DUP1 ISZERO ISZERO DUP2 EQ PUSH2 0x1351 JUMPI PUSH0 DUP1 REVERT JUMPDEST DUP1 SWAP2 POP POP SWAP3 POP SWAP3 SWAP1 POP JUMP JUMPDEST PUSH4 0x4E487B71 PUSH1 0xE0 SHL PUSH0 MSTORE PUSH1 0x41 PUSH1 0x4 MSTORE PUSH1 0x24 PUSH0 REVERT JUMPDEST PUSH0 PUSH1 0x1 PUSH1 0x1 PUSH1 0x40 SHL SUB DUP1 DUP5 GT ISZERO PUSH2 0x1389 JUMPI PUSH2 0x1389 PUSH2 0x135C JUMP JUMPDEST PUSH1 0x40 MLOAD PUSH1 0x1F DUP6 ADD PUSH1 0x1F NOT SWAP1 DUP2 AND PUSH1 0x3F ADD AND DUP2 ADD SWAP1 DUP3 DUP3 GT DUP2 DUP4 LT OR ISZERO PUSH2 0x13B1 JUMPI PUSH2 0x13B1 PUSH2 0x135C JUMP JUMPDEST DUP2 PUSH1 0x40 MSTORE DUP1 SWAP4 POP DUP6 DUP2 MSTORE DUP7 DUP7 DUP7 ADD GT ISZERO PUSH2 0x13C9 JUMPI PUSH0 DUP1 REVERT JUMPDEST DUP6 DUP6 PUSH1 0x20 DUP4 ADD CALLDATACOPY PUSH0 PUSH1 0x20 DUP8 DUP4 ADD ADD MSTORE POP POP POP SWAP4 SWAP3 POP POP POP JUMP JUMPDEST PUSH0 DUP1 PUSH0 DUP1 PUSH1 0x80 DUP6 DUP8 SUB SLT ISZERO PUSH2 0x13F5 JUMPI PUSH0 DUP1 REVERT JUMPDEST PUSH2 0x13FE DUP6 PUSH2 0x128E JUMP JUMPDEST SWAP4 POP PUSH2 0x140C PUSH1 0x20 DUP7 ADD PUSH2 0x128E JUMP JUMPDEST SWAP3 POP PUSH1 0x40 DUP6 ADD CALLDATALOAD SWAP2 POP PUSH1 0x60 DUP6 ADD CALLDATALOAD PUSH1 0x1 PUSH1 0x1 PUSH1 0x40 SHL SUB DUP2 GT ISZERO PUSH2 0x142D JUMPI PUSH0 DUP1 REVERT JUMPDEST DUP6 ADD PUSH1 0x1F DUP2 ADD DUP8 SGT PUSH2 0x143D JUMPI PUSH0 DUP1 REVERT JUMPDEST PUSH2 0x144C DUP8 DUP3 CALLDATALOAD PUSH1 0x20 DUP5 ADD PUSH2 0x1370 JUMP JUMPDEST SWAP2 POP POP SWAP3 SWAP6 SWAP2 SWAP5 POP SWAP3 POP JUMP JUMPDEST PUSH0 DUP1 PUSH1 0x40 DUP4 DUP6 SUB SLT ISZERO PUSH2 0x1469 JUMPI PUSH0 DUP1 REVERT JUMPDEST PUSH2 0x1472 DUP4 PUSH2 0x128E JUMP JUMPDEST SWAP2 POP PUSH1 0x20 DUP4 ADD CALLDATALOAD PUSH1 0x1 PUSH1 0x1 PUSH1 0x40 SHL SUB DUP2 GT ISZERO PUSH2 0x148C JUMPI PUSH0 DUP1 REVERT JUMPDEST DUP4 ADD PUSH1 0x1F DUP2 ADD DUP6 SGT PUSH2 0x149C JUMPI PUSH0 DUP1 REVERT JUMPDEST PUSH2 0x14AB DUP6 DUP3 CALLDATALOAD PUSH1 0x20 DUP5 ADD PUSH2 0x1370 JUMP JUMPDEST SWAP2 POP POP SWAP3 POP SWAP3 SWAP1 POP JUMP JUMPDEST PUSH0 DUP1 PUSH1 0x40 DUP4 DUP6 SUB SLT ISZERO PUSH2 0x14C6 JUMPI PUSH0 DUP1 REVERT JUMPDEST PUSH2 0x14CF DUP4 PUSH2 0x128E JUMP JUMPDEST SWAP2 POP PUSH2 0x14DD PUSH1 0x20 DUP5 ADD PUSH2 0x128E JUMP JUMPDEST SWAP1 POP SWAP3 POP SWAP3 SWAP1 POP JUMP JUMPDEST PUSH1 0x1 DUP2 DUP2 SHR SWAP1 DUP3 AND DUP1 PUSH2 0x14FA JUMPI PUSH1 0x7F DUP3 AND SWAP2 POP JUMPDEST PUSH1 0x20 DUP3 LT DUP2 SUB PUSH2 0x1518 JUMPI PUSH4 0x4E487B71 PUSH1 0xE0 SHL PUSH0 MSTORE PUSH1 0x22 PUSH1 0x4 MSTORE PUSH1 0x24 PUSH0 REVERT JUMPDEST POP SWAP2 SWAP1 POP JUMP JUMPDEST PUSH1 0x1 PUSH1 0x1 PUSH1 0xA0 SHL SUB SWAP3 SWAP1 SWAP3 AND DUP3 MSTORE PUSH1 0x20 DUP3 ADD MSTORE PUSH1 0x40 ADD SWAP1 JUMP JUMPDEST PUSH4 0x4E487B71 PUSH1 0xE0 SHL PUSH0 MSTORE PUSH1 0x32 PUSH1 0x4 MSTORE PUSH1 0x24 PUSH0 REVERT JUMPDEST PUSH4 0x4E487B71 PUSH1 0xE0 SHL PUSH0 MSTORE PUSH1 0x11 PUSH1 0x4 MSTORE PUSH1 0x24 PUSH0 REVERT JUMPDEST PUSH0 PUSH1 0x1 DUP3 ADD PUSH2 0x1570 JUMPI PUSH2 0x1570 PUSH2 0x154B JUMP JUMPDEST POP PUSH1 0x1 ADD SWAP1 JUMP JUMPDEST PUSH1 0x1 PUSH1 0x1 PUSH1 0xA0 SHL SUB DUP6 DUP2 AND DUP3 MSTORE DUP5 AND PUSH1 0x20 DUP3 ADD MSTORE PUSH1 0x40 DUP2 ADD DUP4 SWAP1 MSTORE PUSH1 0x80 PUSH1 0x60 DUP3 ADD DUP2 SWAP1 MSTORE PUSH0 SWAP1 PUSH2 0x15A9 SWAP1 DUP4 ADD DUP5 PUSH2 0x1226 JUMP JUMPDEST SWAP7 SWAP6 POP POP POP POP POP POP JUMP JUMPDEST PUSH0 PUSH1 0x20 DUP3 DUP5 SUB SLT ISZERO PUSH2 0x15C3 JUMPI PUSH0 DUP1 REVERT JUMPDEST DUP2 MLOAD PUSH2 0xC7A DUP2 PUSH2 0x11D4 JUMP JUMPDEST PUSH0 DUP4 MLOAD PUSH2 0x15DF DUP2 DUP5 PUSH1 0x20 DUP9 ADD PUSH2 0x1204 JUMP JUMPDEST DUP4 MLOAD SWAP1 DUP4 ADD SWAP1 PUSH2 0x15F3 DUP2 DUP4 PUSH1 0x20 DUP9 ADD PUSH2 0x1204 JUMP JUMPDEST ADD SWAP5 SWAP4 POP POP POP POP JUMP JUMPDEST PUSH1 0x1F DUP3 GT ISZERO PUSH2 0x441 JUMPI DUP1 PUSH0 MSTORE PUSH1 0x20 PUSH0 KECCAK256 PUSH1 0x1F DUP5 ADD PUSH1 0x5 SHR DUP2 ADD PUSH1 0x20 DUP6 LT ISZERO PUSH2 0x1621 JUMPI POP DUP1 JUMPDEST PUSH1 0x1F DUP5 ADD PUSH1 0x5 SHR DUP3 ADD SWAP2 POP JUMPDEST DUP2 DUP2 LT ISZERO PUSH2 0x89A JUMPI PUSH0 DUP2 SSTORE PUSH1 0x1 ADD PUSH2 0x162D JUMP JUMPDEST DUP2 MLOAD PUSH1 0x1 PUSH1 0x1 PUSH1 0x40 SHL SUB DUP2 GT ISZERO PUSH2 0x1659 JUMPI PUSH2 0x1659 PUSH2 0x135C JUMP JUMPDEST PUSH2 0x166D DUP2 PUSH2 0x1667 DUP5 SLOAD PUSH2 0x14E6 JUMP JUMPDEST DUP5 PUSH2 0x15FC JUMP JUMPDEST PUSH1 0x20 DUP1 PUSH1 0x1F DUP4 GT PUSH1 0x1 DUP2 EQ PUSH2 0x16A0 JUMPI PUSH0 DUP5 ISZERO PUSH2 0x1689 JUMPI POP DUP6 DUP4 ADD MLOAD JUMPDEST PUSH0 NOT PUSH1 0x3 DUP7 SWAP1 SHL SHR NOT AND PUSH1 0x1 DUP6 SWAP1 SHL OR DUP6 SSTORE PUSH2 0x16F7 JUMP JUMPDEST PUSH0 DUP6 DUP2 MSTORE PUSH1 0x20 DUP2 KECCAK256 PUSH1 0x1F NOT DUP7 AND SWAP2 JUMPDEST DUP3 DUP2 LT ISZERO PUSH2 0x16CE JUMPI DUP9 DUP7 ADD MLOAD DUP3 SSTORE SWAP5 DUP5 ADD SWAP5 PUSH1 0x1 SWAP1 SWAP2 ADD SWAP1 DUP5 ADD PUSH2 0x16AF JUMP JUMPDEST POP DUP6 DUP3 LT ISZERO PUSH2 0x16EB JUMPI DUP8 DUP6 ADD MLOAD PUSH0 NOT PUSH1 0x3 DUP9 SWAP1 SHL PUSH1 0xF8 AND SHR NOT AND DUP2 SSTORE JUMPDEST POP POP PUSH1 0x1 DUP5 PUSH1 0x1 SHL ADD DUP6 SSTORE JUMPDEST POP POP POP POP POP POP JUMP JUMPDEST DUP2 DUP2 SUB DUP2 DUP2 GT ISZERO PUSH2 0x288 JUMPI PUSH2 0x288 PUSH2 0x154B JUMP JUMPDEST PUSH4 0x4E487B71 PUSH1 0xE0 SHL PUSH0 MSTORE PUSH1 0x31 PUSH1 0x4 MSTORE PUSH1 0x24 PUSH0 REVERT INVALID LOG2 PUSH5 0x6970667358 0x22 SLT KECCAK256 0xE5 0x29 0xBF 0xE2 0xE1 0xBE PUSH24 0x4D82AEAD2A29DAECCFF3D6B6F5ED388F64539BAE71963F07 0xAF PUSH5 0x736F6C6343 STOP ADDMOD XOR STOP CALLER LOG2 PUSH5 0x6970667358 0x22 SLT KECCAK256 EXTCODEHASH 0xB9 0xAB MULMOD DUP6 CALLER 0xD8 PUSH17 0x57B191E6976DEE88DD7E674D67DD9B4FD6 0xDD BLOBBASEFEE 0xEA SMOD PUSH21 0xAD1464736F6C634300081800330000000000000000 "},"gasEstimates":{"creation":{"codeDepositCost":"3174200","executionCost":"3505","totalCost":"3177705"},"external":{"createProject(address,string,uint256,uint256,uint256,string,string)":"infinite","deployedProjects(uint256)":"4656","getDeployedProjects()":"infinite","getUserProjects()":"infinite","userProjects(address,uint256)":"4781"}},"methodIdentifiers":{"createProject(address,string,uint256,uint256,uint256,string,string)":"c73d7024","deployedProjects(uint256)":"9ec6deaf","getDeployedProjects()":"7ac3886e","getUserProjects()":"f08a64e6","userProjects(address,uint256)":"2fa9c007"}},"storageLayout":{"storage":[{"astId":32161,"contract":"ProjectFactory.sol:ProjectFactory","label":"deployedProjects","offset":0,"slot":"0","type":"t_array(t_address)dyn_storage"},{"astId":32166,"contract":"ProjectFactory.sol:ProjectFactory","label":"userProjects","offset":0,"slot":"1","type":"t_mapping(t_address,t_array(t_address)dyn_storage)"}],"types":{"t_address":{"encoding":"inplace","label":"address","numberOfBytes":"20"},"t_array(t_address)dyn_storage":{"base":"t_address","encoding":"dynamic_array","label":"address[]","numberOfBytes":"32"},"t_mapping(t_address,t_array(t_address)dyn_storage)":{"encoding":"mapping","key":"t_address","label":"mapping(address => address[])","numberOfBytes":"32","value":"t_array(t_address)dyn_storage"}}},"userdoc":{"kind":"user","methods":{},"version":1}}