{"abi":[{"inputs":[{"internalType":"address","name":"recipient","type":"address"},{"internalType":"string","name":"cid","type":"string"},{"internalType":"uint256","name":"minimumContribution","type":"uint256"},{"internalType":"uint256","name":"targetContribution","type":"uint256"},{"internalType":"uint256","name":"deadline","type":"uint256"},{"internalType":"string","name":"nftNamePrefix","type":"string"},{"internalType":"string","name":"nftSymbolPrefix","type":"string"}],"name":"createProject","outputs":[],"stateMutability":"nonpayable","type":"function"},{"inputs":[{"internalType":"uint256","name":"","type":"uint256"}],"name":"deployedProjects","outputs":[{"internalType":"address","name":"","type":"address"}],"stateMutability":"view","type":"function"},{"inputs":[],"name":"getDeployedProjects","outputs":[{"internalType":"address[]","name":"","type":"address[]"}],"stateMutability":"view","type":"function"}],"devdoc":{"kind":"dev","methods":{},"version":1},"evm":{"assembly":"    /* \"ProjectFactory.sol\":94:969  contract ProjectFactory {... */\n  mstore(0x40, 0x80)\n  callvalue\n  dup1\n  iszero\n  tag_1\n  jumpi\n  0x00\n  dup1\n  revert\ntag_1:\n  pop\n  dataSize(sub_0)\n  dup1\n  dataOffset(sub_0)\n  0x00\n  codecopy\n  0x00\n  return\nstop\n\nsub_0: assembly {\n        /* \"ProjectFactory.sol\":94:969  contract ProjectFactory {... */\n      mstore(0x40, 0x80)\n      callvalue\n      dup1\n      iszero\n      tag_1\n      jumpi\n      0x00\n      dup1\n      revert\n    tag_1:\n      pop\n      jumpi(tag_2, lt(calldatasize, 0x04))\n      shr(0xe0, calldataload(0x00))\n      dup1\n      0x7ac3886e\n      eq\n      tag_3\n      jumpi\n      dup1\n      0x9ec6deaf\n      eq\n      tag_4\n      jumpi\n      dup1\n      0xc73d7024\n      eq\n      tag_5\n      jumpi\n    tag_2:\n      0x00\n      dup1\n      revert\n        /* \"ProjectFactory.sol\":857:967  function getDeployedProjects() public view returns (address[] memory) {... */\n    tag_3:\n      tag_6\n      tag_7\n      jump\t// in\n    tag_6:\n      mload(0x40)\n      tag_8\n      swap2\n      swap1\n      tag_9\n      jump\t// in\n    tag_8:\n      mload(0x40)\n      dup1\n      swap2\n      sub\n      swap1\n      return\n        /* \"ProjectFactory.sol\":124:157  address[] public deployedProjects */\n    tag_4:\n      tag_10\n      tag_11\n      calldatasize\n      0x04\n      tag_12\n      jump\t// in\n    tag_11:\n      tag_13\n      jump\t// in\n    tag_10:\n      mload(0x40)\n      sub(shl(0xa0, 0x01), 0x01)\n        /* \"#utility.yul\":1026:1058   */\n      swap1\n      swap2\n      and\n        /* \"#utility.yul\":1008:1059   */\n      dup2\n      mstore\n        /* \"#utility.yul\":996:998   */\n      0x20\n        /* \"#utility.yul\":981:999   */\n      add\n        /* \"ProjectFactory.sol\":124:157  address[] public deployedProjects */\n      tag_8\n        /* \"#utility.yul\":862:1065   */\n      jump\n        /* \"ProjectFactory.sol\":164:851  function createProject(... */\n    tag_5:\n      tag_16\n      tag_17\n      calldatasize\n      0x04\n      tag_18\n      jump\t// in\n    tag_17:\n      tag_19\n      jump\t// in\n    tag_16:\n      stop\n        /* \"ProjectFactory.sol\":857:967  function getDeployedProjects() public view returns (address[] memory) {... */\n    tag_7:\n        /* \"ProjectFactory.sol\":909:925  address[] memory */\n      0x60\n        /* \"ProjectFactory.sol\":944:960  deployedProjects */\n      0x00\n        /* \"ProjectFactory.sol\":937:960  return deployedProjects */\n      dup1\n      sload\n      dup1\n      0x20\n      mul\n      0x20\n      add\n      mload(0x40)\n      swap1\n      dup2\n      add\n      0x40\n      mstore\n      dup1\n      swap3\n      swap2\n      swap1\n      dup2\n      dup2\n      mstore\n      0x20\n      add\n      dup3\n      dup1\n      sload\n      dup1\n      iszero\n      tag_21\n      jumpi\n      0x20\n      mul\n      dup3\n      add\n      swap2\n      swap1\n      0x00\n      mstore\n      keccak256(0x00, 0x20)\n      swap1\n    tag_22:\n      dup2\n      sload\n      sub(shl(0xa0, 0x01), 0x01)\n      and\n      dup2\n      mstore\n      0x01\n      swap1\n      swap2\n      add\n      swap1\n      0x20\n      add\n      dup1\n      dup4\n      gt\n      tag_22\n      jumpi\n    tag_21:\n      pop\n      pop\n      pop\n      pop\n      pop\n      swap1\n      pop\n        /* \"ProjectFactory.sol\":857:967  function getDeployedProjects() public view returns (address[] memory) {... */\n      swap1\n      jump\t// out\n        /* \"ProjectFactory.sol\":124:157  address[] public deployedProjects */\n    tag_13:\n      0x00\n      dup2\n      dup2\n      sload\n      dup2\n      lt\n      tag_23\n      jumpi\n      0x00\n      dup1\n      revert\n    tag_23:\n      0x00\n      swap2\n      dup3\n      mstore\n      0x20\n      swap1\n      swap2\n      keccak256\n      add\n      sload\n      sub(shl(0xa0, 0x01), 0x01)\n      and\n      swap1\n      pop\n      dup2\n      jump\t// out\n        /* \"ProjectFactory.sol\":164:851  function createProject(... */\n    tag_19:\n        /* \"ProjectFactory.sol\":439:457  address newProject */\n      0x00\n        /* \"ProjectFactory.sol\":510:533  deployedProjects.length */\n      dup1\n      sload\n        /* \"ProjectFactory.sol\":510:537  deployedProjects.length + 1 */\n      tag_26\n      swap1\n        /* \"ProjectFactory.sol\":536:537  1 */\n      0x01\n        /* \"ProjectFactory.sol\":510:537  deployedProjects.length + 1 */\n      tag_27\n      jump\t// in\n    tag_26:\n        /* \"ProjectFactory.sol\":555:565  msg.sender */\n      caller\n        /* \"ProjectFactory.sol\":583:592  recipient */\n      dup10\n        /* \"ProjectFactory.sol\":610:613  cid */\n      dup10\n        /* \"ProjectFactory.sol\":631:650  minimumContribution */\n      dup10\n        /* \"ProjectFactory.sol\":668:686  targetContribution */\n      dup10\n        /* \"ProjectFactory.sol\":704:712  deadline */\n      dup10\n        /* \"ProjectFactory.sol\":730:743  nftNamePrefix */\n      dup10\n        /* \"ProjectFactory.sol\":761:776  nftSymbolPrefix */\n      dup10\n        /* \"ProjectFactory.sol\":481:790  new Project(... */\n      mload(0x40)\n      tag_28\n      swap1\n      tag_29\n      jump\t// in\n    tag_28:\n      tag_30\n      swap10\n      swap9\n      swap8\n      swap7\n      swap6\n      swap5\n      swap4\n      swap3\n      swap2\n      swap1\n      tag_31\n      jump\t// in\n    tag_30:\n      mload(0x40)\n      dup1\n      swap2\n      sub\n      swap1\n      0x00\n      create\n      dup1\n      iszero\n      dup1\n      iszero\n      tag_32\n      jumpi\n      returndatasize\n      0x00\n      dup1\n      returndatacopy\n      revert(0x00, returndatasize)\n    tag_32:\n      pop\n        /* \"ProjectFactory.sol\":811:827  deployedProjects */\n      0x00\n        /* \"ProjectFactory.sol\":811:844  deployedProjects.push(newProject) */\n      dup1\n      sload\n      0x01\n      dup2\n      add\n      dup3\n      sstore\n      swap1\n      dup1\n      mstore\n      0x290decd9548b62a8d60345a988386fc84ba6bc95484008f6362f93160ef3e563\n      add\n      dup1\n      sload\n      not(sub(shl(0xa0, 0x01), 0x01))\n      and\n      sub(shl(0xa0, 0x01), 0x01)\n      swap3\n      swap1\n      swap3\n      and\n      swap2\n      swap1\n      swap2\n      or\n      swap1\n      sstore\n      pop\n      pop\n      pop\n      pop\n      pop\n      pop\n      pop\n      pop\n        /* \"ProjectFactory.sol\":164:851  function createProject(... */\n      jump\t// out\n    tag_29:\n      dataSize(sub_0)\n      dup1\n      dataOffset(sub_0)\n      dup4\n      codecopy\n      add\n      swap1\n      jump\t// out\n        /* \"#utility.yul\":14:672   */\n    tag_9:\n        /* \"#utility.yul\":185:187   */\n      0x20\n        /* \"#utility.yul\":237:258   */\n      dup1\n      dup3\n      mstore\n        /* \"#utility.yul\":307:320   */\n      dup3\n      mload\n        /* \"#utility.yul\":210:228   */\n      dup3\n      dup3\n      add\n        /* \"#utility.yul\":329:351   */\n      dup2\n      swap1\n      mstore\n        /* \"#utility.yul\":156:160   */\n      0x00\n      swap2\n        /* \"#utility.yul\":185:187   */\n      swap1\n        /* \"#utility.yul\":408:423   */\n      dup5\n      dup3\n      add\n      swap1\n        /* \"#utility.yul\":382:384   */\n      0x40\n        /* \"#utility.yul\":367:385   */\n      dup6\n      add\n      swap1\n        /* \"#utility.yul\":156:160   */\n      dup5\n        /* \"#utility.yul\":451:646   */\n    tag_39:\n        /* \"#utility.yul\":465:471   */\n      dup2\n        /* \"#utility.yul\":462:463   */\n      dup2\n        /* \"#utility.yul\":459:472   */\n      lt\n        /* \"#utility.yul\":451:646   */\n      iszero\n      tag_41\n      jumpi\n        /* \"#utility.yul\":530:543   */\n      dup4\n      mload\n      sub(shl(0xa0, 0x01), 0x01)\n        /* \"#utility.yul\":526:565   */\n      and\n        /* \"#utility.yul\":514:566   */\n      dup4\n      mstore\n        /* \"#utility.yul\":621:636   */\n      swap3\n      dup5\n      add\n      swap3\n        /* \"#utility.yul\":586:598   */\n      swap2\n      dup5\n      add\n      swap2\n        /* \"#utility.yul\":562:563   */\n      0x01\n        /* \"#utility.yul\":480:489   */\n      add\n        /* \"#utility.yul\":451:646   */\n      jump(tag_39)\n    tag_41:\n      pop\n        /* \"#utility.yul\":663:666   */\n      swap1\n      swap7\n        /* \"#utility.yul\":14:672   */\n      swap6\n      pop\n      pop\n      pop\n      pop\n      pop\n      pop\n      jump\t// out\n        /* \"#utility.yul\":677:857   */\n    tag_12:\n        /* \"#utility.yul\":736:742   */\n      0x00\n        /* \"#utility.yul\":789:791   */\n      0x20\n        /* \"#utility.yul\":777:786   */\n      dup3\n        /* \"#utility.yul\":768:775   */\n      dup5\n        /* \"#utility.yul\":764:787   */\n      sub\n        /* \"#utility.yul\":760:792   */\n      slt\n        /* \"#utility.yul\":757:809   */\n      iszero\n      tag_43\n      jumpi\n        /* \"#utility.yul\":805:806   */\n      0x00\n        /* \"#utility.yul\":802:803   */\n      dup1\n        /* \"#utility.yul\":795:807   */\n      revert\n        /* \"#utility.yul\":757:809   */\n    tag_43:\n      pop\n        /* \"#utility.yul\":828:851   */\n      calldataload\n      swap2\n        /* \"#utility.yul\":677:857   */\n      swap1\n      pop\n      jump\t// out\n        /* \"#utility.yul\":1070:1197   */\n    tag_34:\n        /* \"#utility.yul\":1131:1141   */\n      0x4e487b71\n        /* \"#utility.yul\":1126:1129   */\n      0xe0\n        /* \"#utility.yul\":1122:1142   */\n      shl\n        /* \"#utility.yul\":1119:1120   */\n      0x00\n        /* \"#utility.yul\":1112:1143   */\n      mstore\n        /* \"#utility.yul\":1162:1166   */\n      0x41\n        /* \"#utility.yul\":1159:1160   */\n      0x04\n        /* \"#utility.yul\":1152:1167   */\n      mstore\n        /* \"#utility.yul\":1186:1190   */\n      0x24\n        /* \"#utility.yul\":1183:1184   */\n      0x00\n        /* \"#utility.yul\":1176:1191   */\n      revert\n        /* \"#utility.yul\":1202:1921   */\n    tag_35:\n        /* \"#utility.yul\":1245:1250   */\n      0x00\n        /* \"#utility.yul\":1298:1301   */\n      dup3\n        /* \"#utility.yul\":1291:1295   */\n      0x1f\n        /* \"#utility.yul\":1283:1289   */\n      dup4\n        /* \"#utility.yul\":1279:1296   */\n      add\n        /* \"#utility.yul\":1275:1302   */\n      slt\n        /* \"#utility.yul\":1265:1320   */\n      tag_47\n      jumpi\n        /* \"#utility.yul\":1316:1317   */\n      0x00\n        /* \"#utility.yul\":1313:1314   */\n      dup1\n        /* \"#utility.yul\":1306:1318   */\n      revert\n        /* \"#utility.yul\":1265:1320   */\n    tag_47:\n        /* \"#utility.yul\":1339:1359   */\n      dup2\n      calldataload\n      sub(shl(0x40, 0x01), 0x01)\n        /* \"#utility.yul\":1408:1418   */\n      dup1\n      dup3\n      gt\n        /* \"#utility.yul\":1405:1441   */\n      iszero\n      tag_49\n      jumpi\n        /* \"#utility.yul\":1421:1439   */\n      tag_49\n      tag_34\n      jump\t// in\n    tag_49:\n        /* \"#utility.yul\":1496:1498   */\n      0x40\n        /* \"#utility.yul\":1490:1499   */\n      mload\n        /* \"#utility.yul\":1464:1466   */\n      0x1f\n        /* \"#utility.yul\":1550:1563   */\n      dup4\n      add\n      not(0x1f)\n        /* \"#utility.yul\":1546:1568   */\n      swap1\n      dup2\n      and\n        /* \"#utility.yul\":1570:1572   */\n      0x3f\n        /* \"#utility.yul\":1542:1573   */\n      add\n        /* \"#utility.yul\":1538:1578   */\n      and\n        /* \"#utility.yul\":1526:1579   */\n      dup2\n      add\n      swap1\n        /* \"#utility.yul\":1594:1612   */\n      dup3\n      dup3\n      gt\n        /* \"#utility.yul\":1614:1636   */\n      dup2\n      dup4\n      lt\n        /* \"#utility.yul\":1591:1637   */\n      or\n        /* \"#utility.yul\":1588:1660   */\n      iszero\n      tag_51\n      jumpi\n        /* \"#utility.yul\":1640:1658   */\n      tag_51\n      tag_34\n      jump\t// in\n    tag_51:\n        /* \"#utility.yul\":1680:1690   */\n      dup2\n        /* \"#utility.yul\":1676:1678   */\n      0x40\n        /* \"#utility.yul\":1669:1691   */\n      mstore\n        /* \"#utility.yul\":1715:1717   */\n      dup4\n        /* \"#utility.yul\":1707:1713   */\n      dup2\n        /* \"#utility.yul\":1700:1718   */\n      mstore\n        /* \"#utility.yul\":1761:1764   */\n      dup7\n        /* \"#utility.yul\":1754:1758   */\n      0x20\n        /* \"#utility.yul\":1749:1751   */\n      dup6\n        /* \"#utility.yul\":1741:1747   */\n      dup9\n        /* \"#utility.yul\":1737:1752   */\n      add\n        /* \"#utility.yul\":1733:1759   */\n      add\n        /* \"#utility.yul\":1730:1765   */\n      gt\n        /* \"#utility.yul\":1727:1782   */\n      iszero\n      tag_52\n      jumpi\n        /* \"#utility.yul\":1778:1779   */\n      0x00\n        /* \"#utility.yul\":1775:1776   */\n      dup1\n        /* \"#utility.yul\":1768:1780   */\n      revert\n        /* \"#utility.yul\":1727:1782   */\n    tag_52:\n        /* \"#utility.yul\":1842:1844   */\n      dup4\n        /* \"#utility.yul\":1835:1839   */\n      0x20\n        /* \"#utility.yul\":1827:1833   */\n      dup8\n        /* \"#utility.yul\":1823:1840   */\n      add\n        /* \"#utility.yul\":1816:1820   */\n      0x20\n        /* \"#utility.yul\":1808:1814   */\n      dup4\n        /* \"#utility.yul\":1804:1821   */\n      add\n        /* \"#utility.yul\":1791:1845   */\n      calldatacopy\n        /* \"#utility.yul\":1889:1890   */\n      0x00\n        /* \"#utility.yul\":1882:1886   */\n      0x20\n        /* \"#utility.yul\":1877:1879   */\n      dup6\n        /* \"#utility.yul\":1869:1875   */\n      dup4\n        /* \"#utility.yul\":1865:1880   */\n      add\n        /* \"#utility.yul\":1861:1887   */\n      add\n        /* \"#utility.yul\":1854:1891   */\n      mstore\n        /* \"#utility.yul\":1909:1915   */\n      dup1\n        /* \"#utility.yul\":1900:1915   */\n      swap5\n      pop\n      pop\n      pop\n      pop\n      pop\n        /* \"#utility.yul\":1202:1921   */\n      swap3\n      swap2\n      pop\n      pop\n      jump\t// out\n        /* \"#utility.yul\":1926:3051   */\n    tag_18:\n        /* \"#utility.yul\":2069:2075   */\n      0x00\n        /* \"#utility.yul\":2077:2083   */\n      dup1\n        /* \"#utility.yul\":2085:2091   */\n      0x00\n        /* \"#utility.yul\":2093:2099   */\n      dup1\n        /* \"#utility.yul\":2101:2107   */\n      0x00\n        /* \"#utility.yul\":2109:2115   */\n      dup1\n        /* \"#utility.yul\":2117:2123   */\n      0x00\n        /* \"#utility.yul\":2170:2173   */\n      0xe0\n        /* \"#utility.yul\":2158:2167   */\n      dup9\n        /* \"#utility.yul\":2149:2156   */\n      dup11\n        /* \"#utility.yul\":2145:2168   */\n      sub\n        /* \"#utility.yul\":2141:2174   */\n      slt\n        /* \"#utility.yul\":2138:2191   */\n      iszero\n      tag_54\n      jumpi\n        /* \"#utility.yul\":2187:2188   */\n      0x00\n        /* \"#utility.yul\":2184:2185   */\n      dup1\n        /* \"#utility.yul\":2177:2189   */\n      revert\n        /* \"#utility.yul\":2138:2191   */\n    tag_54:\n        /* \"#utility.yul\":2213:2236   */\n      dup8\n      calldataload\n      sub(shl(0xa0, 0x01), 0x01)\n        /* \"#utility.yul\":2265:2296   */\n      dup2\n      and\n        /* \"#utility.yul\":2255:2297   */\n      dup2\n      eq\n        /* \"#utility.yul\":2245:2315   */\n      tag_55\n      jumpi\n        /* \"#utility.yul\":2311:2312   */\n      0x00\n        /* \"#utility.yul\":2308:2309   */\n      dup1\n        /* \"#utility.yul\":2301:2313   */\n      revert\n        /* \"#utility.yul\":2245:2315   */\n    tag_55:\n        /* \"#utility.yul\":2334:2339   */\n      swap7\n      pop\n        /* \"#utility.yul\":2390:2392   */\n      0x20\n        /* \"#utility.yul\":2375:2393   */\n      dup9\n      add\n        /* \"#utility.yul\":2362:2394   */\n      calldataload\n      sub(shl(0x40, 0x01), 0x01)\n        /* \"#utility.yul\":2443:2457   */\n      dup1\n      dup3\n      gt\n        /* \"#utility.yul\":2440:2474   */\n      iszero\n      tag_56\n      jumpi\n        /* \"#utility.yul\":2470:2471   */\n      0x00\n        /* \"#utility.yul\":2467:2468   */\n      dup1\n        /* \"#utility.yul\":2460:2472   */\n      revert\n        /* \"#utility.yul\":2440:2474   */\n    tag_56:\n        /* \"#utility.yul\":2493:2543   */\n      tag_57\n        /* \"#utility.yul\":2535:2542   */\n      dup12\n        /* \"#utility.yul\":2526:2532   */\n      dup4\n        /* \"#utility.yul\":2515:2524   */\n      dup13\n        /* \"#utility.yul\":2511:2533   */\n      add\n        /* \"#utility.yul\":2493:2543   */\n      tag_35\n      jump\t// in\n    tag_57:\n        /* \"#utility.yul\":2483:2543   */\n      swap8\n      pop\n        /* \"#utility.yul\":2590:2592   */\n      0x40\n        /* \"#utility.yul\":2579:2588   */\n      dup11\n        /* \"#utility.yul\":2575:2593   */\n      add\n        /* \"#utility.yul\":2562:2594   */\n      calldataload\n        /* \"#utility.yul\":2552:2594   */\n      swap7\n      pop\n        /* \"#utility.yul\":2641:2643   */\n      0x60\n        /* \"#utility.yul\":2630:2639   */\n      dup11\n        /* \"#utility.yul\":2626:2644   */\n      add\n        /* \"#utility.yul\":2613:2645   */\n      calldataload\n        /* \"#utility.yul\":2603:2645   */\n      swap6\n      pop\n        /* \"#utility.yul\":2692:2695   */\n      0x80\n        /* \"#utility.yul\":2681:2690   */\n      dup11\n        /* \"#utility.yul\":2677:2696   */\n      add\n        /* \"#utility.yul\":2664:2697   */\n      calldataload\n        /* \"#utility.yul\":2654:2697   */\n      swap5\n      pop\n        /* \"#utility.yul\":2750:2753   */\n      0xa0\n        /* \"#utility.yul\":2739:2748   */\n      dup11\n        /* \"#utility.yul\":2735:2754   */\n      add\n        /* \"#utility.yul\":2722:2755   */\n      calldataload\n        /* \"#utility.yul\":2706:2755   */\n      swap2\n      pop\n        /* \"#utility.yul\":2780:2782   */\n      dup1\n        /* \"#utility.yul\":2770:2778   */\n      dup3\n        /* \"#utility.yul\":2767:2783   */\n      gt\n        /* \"#utility.yul\":2764:2800   */\n      iszero\n      tag_58\n      jumpi\n        /* \"#utility.yul\":2796:2797   */\n      0x00\n        /* \"#utility.yul\":2793:2794   */\n      dup1\n        /* \"#utility.yul\":2786:2798   */\n      revert\n        /* \"#utility.yul\":2764:2800   */\n    tag_58:\n        /* \"#utility.yul\":2819:2871   */\n      tag_59\n        /* \"#utility.yul\":2863:2870   */\n      dup12\n        /* \"#utility.yul\":2852:2860   */\n      dup4\n        /* \"#utility.yul\":2841:2850   */\n      dup13\n        /* \"#utility.yul\":2837:2861   */\n      add\n        /* \"#utility.yul\":2819:2871   */\n      tag_35\n      jump\t// in\n    tag_59:\n        /* \"#utility.yul\":2809:2871   */\n      swap4\n      pop\n        /* \"#utility.yul\":2924:2927   */\n      0xc0\n        /* \"#utility.yul\":2913:2922   */\n      dup11\n        /* \"#utility.yul\":2909:2928   */\n      add\n        /* \"#utility.yul\":2896:2929   */\n      calldataload\n        /* \"#utility.yul\":2880:2929   */\n      swap2\n      pop\n        /* \"#utility.yul\":2954:2956   */\n      dup1\n        /* \"#utility.yul\":2944:2952   */\n      dup3\n        /* \"#utility.yul\":2941:2957   */\n      gt\n        /* \"#utility.yul\":2938:2974   */\n      iszero\n      tag_60\n      jumpi\n        /* \"#utility.yul\":2970:2971   */\n      0x00\n        /* \"#utility.yul\":2967:2968   */\n      dup1\n        /* \"#utility.yul\":2960:2972   */\n      revert\n        /* \"#utility.yul\":2938:2974   */\n    tag_60:\n      pop\n        /* \"#utility.yul\":2993:3045   */\n      tag_61\n        /* \"#utility.yul\":3037:3044   */\n      dup11\n        /* \"#utility.yul\":3026:3034   */\n      dup3\n        /* \"#utility.yul\":3015:3024   */\n      dup12\n        /* \"#utility.yul\":3011:3035   */\n      add\n        /* \"#utility.yul\":2993:3045   */\n      tag_35\n      jump\t// in\n    tag_61:\n        /* \"#utility.yul\":2983:3045   */\n      swap2\n      pop\n      pop\n        /* \"#utility.yul\":1926:3051   */\n      swap3\n      swap6\n      swap9\n      swap2\n      swap5\n      swap8\n      pop\n      swap3\n      swap6\n      pop\n      jump\t// out\n        /* \"#utility.yul\":3056:3278   */\n    tag_27:\n        /* \"#utility.yul\":3121:3130   */\n      dup1\n      dup3\n      add\n        /* \"#utility.yul\":3142:3152   */\n      dup1\n      dup3\n      gt\n        /* \"#utility.yul\":3139:3272   */\n      iszero\n      tag_63\n      jumpi\n        /* \"#utility.yul\":3194:3204   */\n      0x4e487b71\n        /* \"#utility.yul\":3189:3192   */\n      0xe0\n        /* \"#utility.yul\":3185:3205   */\n      shl\n        /* \"#utility.yul\":3182:3183   */\n      0x00\n        /* \"#utility.yul\":3175:3206   */\n      mstore\n        /* \"#utility.yul\":3229:3233   */\n      0x11\n        /* \"#utility.yul\":3226:3227   */\n      0x04\n        /* \"#utility.yul\":3219:3234   */\n      mstore\n        /* \"#utility.yul\":3257:3261   */\n      0x24\n        /* \"#utility.yul\":3254:3255   */\n      0x00\n        /* \"#utility.yul\":3247:3262   */\n      revert\n        /* \"#utility.yul\":3139:3272   */\n    tag_63:\n        /* \"#utility.yul\":3056:3278   */\n      swap3\n      swap2\n      pop\n      pop\n      jump\t// out\n        /* \"#utility.yul\":3283:3706   */\n    tag_36:\n        /* \"#utility.yul\":3325:3328   */\n      0x00\n        /* \"#utility.yul\":3363:3368   */\n      dup2\n        /* \"#utility.yul\":3357:3369   */\n      mload\n        /* \"#utility.yul\":3390:3396   */\n      dup1\n        /* \"#utility.yul\":3385:3388   */\n      dup5\n        /* \"#utility.yul\":3378:3397   */\n      mstore\n        /* \"#utility.yul\":3415:3416   */\n      0x00\n        /* \"#utility.yul\":3425:3587   */\n    tag_65:\n        /* \"#utility.yul\":3439:3445   */\n      dup2\n        /* \"#utility.yul\":3436:3437   */\n      dup2\n        /* \"#utility.yul\":3433:3446   */\n      lt\n        /* \"#utility.yul\":3425:3587   */\n      iszero\n      tag_67\n      jumpi\n        /* \"#utility.yul\":3501:3505   */\n      0x20\n        /* \"#utility.yul\":3557:3570   */\n      dup2\n      dup6\n      add\n        /* \"#utility.yul\":3553:3575   */\n      dup2\n      add\n        /* \"#utility.yul\":3547:3576   */\n      mload\n        /* \"#utility.yul\":3529:3540   */\n      dup7\n      dup4\n      add\n        /* \"#utility.yul\":3525:3545   */\n      dup3\n      add\n        /* \"#utility.yul\":3518:3577   */\n      mstore\n        /* \"#utility.yul\":3454:3466   */\n      add\n        /* \"#utility.yul\":3425:3587   */\n      jump(tag_65)\n    tag_67:\n        /* \"#utility.yul\":3429:3432   */\n      pop\n        /* \"#utility.yul\":3632:3633   */\n      0x00\n        /* \"#utility.yul\":3625:3629   */\n      0x20\n        /* \"#utility.yul\":3616:3622   */\n      dup3\n        /* \"#utility.yul\":3611:3614   */\n      dup7\n        /* \"#utility.yul\":3607:3623   */\n      add\n        /* \"#utility.yul\":3603:3630   */\n      add\n        /* \"#utility.yul\":3596:3634   */\n      mstore\n        /* \"#utility.yul\":3695:3699   */\n      0x20\n        /* \"#utility.yul\":3688:3690   */\n      0x1f\n        /* \"#utility.yul\":3684:3691   */\n      not\n        /* \"#utility.yul\":3679:3681   */\n      0x1f\n        /* \"#utility.yul\":3671:3677   */\n      dup4\n        /* \"#utility.yul\":3667:3682   */\n      add\n        /* \"#utility.yul\":3663:3692   */\n      and\n        /* \"#utility.yul\":3658:3661   */\n      dup6\n        /* \"#utility.yul\":3654:3693   */\n      add\n        /* \"#utility.yul\":3650:3700   */\n      add\n        /* \"#utility.yul\":3643:3700   */\n      swap2\n      pop\n      pop\n        /* \"#utility.yul\":3283:3706   */\n      swap3\n      swap2\n      pop\n      pop\n      jump\t// out\n        /* \"#utility.yul\":3711:4766   */\n    tag_31:\n        /* \"#utility.yul\":4128:4153   */\n      dup10\n      dup2\n      mstore\n      sub(shl(0xa0, 0x01), 0x01)\n        /* \"#utility.yul\":4227:4242   */\n      dup10\n      dup2\n      and\n        /* \"#utility.yul\":4222:4224   */\n      0x20\n        /* \"#utility.yul\":4207:4225   */\n      dup4\n      add\n        /* \"#utility.yul\":4200:4243   */\n      mstore\n        /* \"#utility.yul\":4279:4294   */\n      dup9\n      and\n        /* \"#utility.yul\":4274:4276   */\n      0x40\n        /* \"#utility.yul\":4259:4277   */\n      dup3\n      add\n        /* \"#utility.yul\":4252:4295   */\n      mstore\n        /* \"#utility.yul\":4116:4119   */\n      0x0120\n        /* \"#utility.yul\":4326:4328   */\n      0x60\n        /* \"#utility.yul\":4311:4329   */\n      dup3\n      add\n        /* \"#utility.yul\":4304:4334   */\n      dup2\n      swap1\n      mstore\n        /* \"#utility.yul\":4087:4091   */\n      0x00\n      swap1\n        /* \"#utility.yul\":4357:4402   */\n      tag_69\n        /* \"#utility.yul\":4383:4401   */\n      dup4\n      dup3\n      add\n        /* \"#utility.yul\":4375:4381   */\n      dup11\n        /* \"#utility.yul\":4357:4402   */\n      tag_36\n      jump\t// in\n    tag_69:\n        /* \"#utility.yul\":4343:4402   */\n      swap1\n      pop\n        /* \"#utility.yul\":4439:4445   */\n      dup8\n        /* \"#utility.yul\":4433:4436   */\n      0x80\n        /* \"#utility.yul\":4422:4431   */\n      dup5\n        /* \"#utility.yul\":4418:4437   */\n      add\n        /* \"#utility.yul\":4411:4446   */\n      mstore\n        /* \"#utility.yul\":4483:4489   */\n      dup7\n        /* \"#utility.yul\":4477:4480   */\n      0xa0\n        /* \"#utility.yul\":4466:4475   */\n      dup5\n        /* \"#utility.yul\":4462:4481   */\n      add\n        /* \"#utility.yul\":4455:4490   */\n      mstore\n        /* \"#utility.yul\":4527:4533   */\n      dup6\n        /* \"#utility.yul\":4521:4524   */\n      0xc0\n        /* \"#utility.yul\":4510:4519   */\n      dup5\n        /* \"#utility.yul\":4506:4525   */\n      add\n        /* \"#utility.yul\":4499:4534   */\n      mstore\n        /* \"#utility.yul\":4583:4592   */\n      dup3\n        /* \"#utility.yul\":4575:4581   */\n      dup2\n        /* \"#utility.yul\":4571:4593   */\n      sub\n        /* \"#utility.yul\":4565:4568   */\n      0xe0\n        /* \"#utility.yul\":4554:4563   */\n      dup5\n        /* \"#utility.yul\":4550:4569   */\n      add\n        /* \"#utility.yul\":4543:4594   */\n      mstore\n        /* \"#utility.yul\":4617:4650   */\n      tag_70\n        /* \"#utility.yul\":4643:4649   */\n      dup2\n        /* \"#utility.yul\":4635:4641   */\n      dup7\n        /* \"#utility.yul\":4617:4650   */\n      tag_36\n      jump\t// in\n    tag_70:\n        /* \"#utility.yul\":4603:4650   */\n      swap1\n      pop\n        /* \"#utility.yul\":4699:4708   */\n      dup3\n        /* \"#utility.yul\":4691:4697   */\n      dup2\n        /* \"#utility.yul\":4687:4709   */\n      sub\n        /* \"#utility.yul\":4681:4684   */\n      0x0100\n        /* \"#utility.yul\":4670:4679   */\n      dup5\n        /* \"#utility.yul\":4666:4685   */\n      add\n        /* \"#utility.yul\":4659:4710   */\n      mstore\n        /* \"#utility.yul\":4727:4760   */\n      tag_71\n        /* \"#utility.yul\":4753:4759   */\n      dup2\n        /* \"#utility.yul\":4745:4751   */\n      dup6\n        /* \"#utility.yul\":4727:4760   */\n      tag_36\n      jump\t// in\n    tag_71:\n        /* \"#utility.yul\":4719:4760   */\n      swap13\n        /* \"#utility.yul\":3711:4766   */\n      swap12\n      pop\n      pop\n      pop\n      pop\n      pop\n      pop\n      pop\n      pop\n      pop\n      pop\n      pop\n      pop\n      jump\t// out\n    stop\n\n    sub_0: assembly {\n            /* \"Project.sol\":172:8579  contract Project {... */\n          mstore(0x40, 0x80)\n            /* \"Project.sol\":752:1499  constructor(... */\n          callvalue\n          dup1\n          iszero\n          tag_1\n          jumpi\n          0x00\n          dup1\n          revert\n        tag_1:\n          pop\n          mload(0x40)\n          sub(codesize, bytecodeSize)\n          dup1\n          bytecodeSize\n          dup4\n          codecopy\n          dup2\n          add\n          0x40\n          dup2\n          swap1\n          mstore\n          tag_2\n          swap2\n          tag_3\n          jump\t// in\n        tag_2:\n            /* \"Project.sol\":1047:1049  id */\n          0x00\n            /* \"Project.sol\":1047:1055  id = _id */\n          dup10\n          swap1\n          sstore\n            /* \"Project.sol\":1065:1070  owner */\n          0x01\n            /* \"Project.sol\":1065:1079  owner = _owner */\n          dup1\n          sload\n          not(sub(shl(0xa0, 0x01), 0x01))\n          and\n          sub(shl(0xa0, 0x01), 0x01)\n          dup11\n          and\n          or\n          swap1\n          sstore\n            /* \"Project.sol\":1089:1092  cid */\n          0x03\n            /* \"Project.sol\":1089:1099  cid = _cid */\n          tag_6\n            /* \"Project.sol\":1095:1099  _cid */\n          dup8\n            /* \"Project.sol\":1089:1092  cid */\n          dup3\n            /* \"Project.sol\":1089:1099  cid = _cid */\n          tag_7\n          jump\t// in\n        tag_6:\n          pop\n            /* \"Project.sol\":1109:1128  minimumContribution */\n          0x04\n            /* \"Project.sol\":1109:1151  minimumContribution = _minimumContribution */\n          dup6\n          swap1\n          sstore\n            /* \"Project.sol\":1161:1179  targetContribution */\n          0x05\n            /* \"Project.sol\":1161:1201  targetContribution = _targetContribution */\n          dup5\n          swap1\n          sstore\n            /* \"Project.sol\":1211:1219  deadline */\n          0x06\n            /* \"Project.sol\":1211:1231  deadline = _deadline */\n          dup4\n          swap1\n          sstore\n            /* \"Project.sol\":1241:1250  recipient */\n          0x02\n            /* \"Project.sol\":1241:1272  recipient = payable(_recipient) */\n          dup1\n          sload\n          not(sub(shl(0xa0, 0x01), 0x01))\n          and\n          sub(shl(0xa0, 0x01), 0x01)\n          dup10\n          and\n          or\n          swap1\n          sstore\n          0x00\n            /* \"Project.sol\":1400:1402  id */\n          sload\n            /* \"Project.sol\":1325:1329  this */\n          address\n          swap1\n            /* \"Project.sol\":1368:1381  nftNamePrefix */\n          dup4\n          swap1\n            /* \"Project.sol\":1383:1403  Strings.toString(id) */\n          tag_8\n          swap1\n            /* \"Project.sol\":1383:1399  Strings.toString */\n          tag_9\n            /* \"Project.sol\":1383:1403  Strings.toString(id) */\n          jump\t// in\n        tag_8:\n            /* \"Project.sol\":1351:1404  abi.encodePacked(nftNamePrefix, Strings.toString(id)) */\n          add(0x20, mload(0x40))\n          tag_10\n          swap3\n          swap2\n          swap1\n          tag_11\n          jump\t// in\n        tag_10:\n          mload(0x40)\n          0x20\n          dup2\n          dup4\n          sub\n          sub\n          dup2\n          mstore\n          swap1\n          0x40\n          mstore\n            /* \"Project.sol\":1443:1458  nftSymbolPrefix */\n          dup3\n            /* \"Project.sol\":1460:1480  Strings.toString(id) */\n          tag_12\n            /* \"Project.sol\":1477:1479  id */\n          sload(0x00)\n            /* \"Project.sol\":1460:1476  Strings.toString */\n          shl(0x20, tag_9)\n            /* \"Project.sol\":1460:1480  Strings.toString(id) */\n          0x20\n          shr\n          jump\t// in\n        tag_12:\n            /* \"Project.sol\":1426:1481  abi.encodePacked(nftSymbolPrefix, Strings.toString(id)) */\n          add(0x20, mload(0x40))\n          tag_13\n          swap3\n          swap2\n          swap1\n          tag_11\n          jump\t// in\n        tag_13:\n          mload(0x40)\n          0x20\n          dup2\n          dup4\n          sub\n          sub\n          dup2\n          mstore\n          swap1\n          0x40\n          mstore\n            /* \"Project.sol\":1289:1492  new ProjectNFT(... */\n          mload(0x40)\n          tag_14\n          swap1\n          tag_15\n          jump\t// in\n        tag_14:\n          tag_16\n          swap4\n          swap3\n          swap2\n          swap1\n          tag_17\n          jump\t// in\n        tag_16:\n          mload(0x40)\n          dup1\n          swap2\n          sub\n          swap1\n          0x00\n          create\n          dup1\n          iszero\n          dup1\n          iszero\n          tag_18\n          jumpi\n          returndatasize\n          0x00\n          dup1\n          returndatacopy\n          revert(0x00, returndatasize)\n        tag_18:\n          pop\n            /* \"Project.sol\":1283:1286  nft */\n          0x12\n            /* \"Project.sol\":1283:1492  nft = new ProjectNFT(... */\n          dup1\n          sload\n          not(sub(shl(0xa0, 0x01), 0x01))\n          and\n          sub(shl(0xa0, 0x01), 0x01)\n          swap3\n          swap1\n          swap3\n          and\n          swap2\n          swap1\n          swap2\n          or\n          swap1\n          sstore\n          pop\n            /* \"Project.sol\":172:8579  contract Project {... */\n          tag_61\n          swap8\n          pop\n          pop\n          pop\n          pop\n          pop\n          pop\n          pop\n          pop\n          jump\n            /* \"@openzeppelin/contracts/utils/Strings.sol\":637:1335  function toString(uint256 value) internal pure returns (string memory) {... */\n        tag_9:\n            /* \"@openzeppelin/contracts/utils/Strings.sol\":693:706  string memory */\n          0x60\n            /* \"@openzeppelin/contracts/utils/Strings.sol\":742:756  uint256 length */\n          0x00\n            /* \"@openzeppelin/contracts/utils/Strings.sol\":759:776  Math.log10(value) */\n          tag_21\n            /* \"@openzeppelin/contracts/utils/Strings.sol\":770:775  value */\n          dup4\n            /* \"@openzeppelin/contracts/utils/Strings.sol\":759:769  Math.log10 */\n          tag_22\n            /* \"@openzeppelin/contracts/utils/Strings.sol\":759:776  Math.log10(value) */\n          jump\t// in\n        tag_21:\n            /* \"@openzeppelin/contracts/utils/Strings.sol\":779:780  1 */\n          0x01\n            /* \"@openzeppelin/contracts/utils/Strings.sol\":759:780  Math.log10(value) + 1 */\n          add\n            /* \"@openzeppelin/contracts/utils/Strings.sol\":742:780  uint256 length = Math.log10(value) + 1 */\n          swap1\n          pop\n            /* \"@openzeppelin/contracts/utils/Strings.sol\":794:814  string memory buffer */\n          0x00\n            /* \"@openzeppelin/contracts/utils/Strings.sol\":828:834  length */\n          dup2\n          sub(shl(0x40, 0x01), 0x01)\n            /* \"@openzeppelin/contracts/utils/Strings.sol\":817:835  new string(length) */\n          dup2\n          gt\n          iszero\n          tag_24\n          jumpi\n          tag_24\n          tag_25\n          jump\t// in\n        tag_24:\n          mload(0x40)\n          swap1\n          dup1\n          dup3\n          mstore\n          dup1\n          0x1f\n          add\n          not(0x1f)\n          and\n          0x20\n          add\n          dup3\n          add\n          0x40\n          mstore\n          dup1\n          iszero\n          tag_26\n          jumpi\n          0x20\n          dup3\n          add\n          dup2\n          dup1\n          calldatasize\n          dup4\n          calldatacopy\n          add\n          swap1\n          pop\n        tag_26:\n          pop\n            /* \"@openzeppelin/contracts/utils/Strings.sol\":794:835  string memory buffer = new string(length) */\n          swap1\n          pop\n            /* \"@openzeppelin/contracts/utils/Strings.sol\":955:983  add(buffer, add(32, length)) */\n          dup2\n          dup2\n          add\n            /* \"@openzeppelin/contracts/utils/Strings.sol\":971:973  32 */\n          0x20\n            /* \"@openzeppelin/contracts/utils/Strings.sol\":955:983  add(buffer, add(32, length)) */\n          add\n            /* \"@openzeppelin/contracts/utils/Strings.sol\":1010:1292  while (true) {... */\n        tag_27:\n          not(0x00)\n            /* \"@openzeppelin/contracts/utils/Strings.sol\":1041:1046  ptr-- */\n          add\n          shl(0x81, 0x181899199a1a9b1b9c1cb0b131b232b3)\n            /* \"@openzeppelin/contracts/utils/Strings.sol\":1175:1177  10 */\n          0x0a\n            /* \"@openzeppelin/contracts/utils/Strings.sol\":1164:1178  mod(value, 10) */\n          dup7\n          mod\n            /* \"@openzeppelin/contracts/utils/Strings.sol\":1159:1191  byte(mod(value, 10), HEX_DIGITS) */\n          byte\n            /* \"@openzeppelin/contracts/utils/Strings.sol\":1041:1046  ptr-- */\n          dup2\n            /* \"@openzeppelin/contracts/utils/Strings.sol\":1146:1192  mstore8(ptr, byte(mod(value, 10), HEX_DIGITS)) */\n          mstore8\n            /* \"@openzeppelin/contracts/utils/Strings.sol\":1236:1238  10 */\n          0x0a\n            /* \"@openzeppelin/contracts/utils/Strings.sol\":1227:1238  value /= 10 */\n          dup6\n          div\n          swap5\n          pop\n            /* \"@openzeppelin/contracts/utils/Strings.sol\":1256:1277  if (value == 0) break */\n          dup5\n            /* \"@openzeppelin/contracts/utils/Strings.sol\":1010:1292  while (true) {... */\n          tag_27\n            /* \"@openzeppelin/contracts/utils/Strings.sol\":1256:1277  if (value == 0) break */\n          jumpi\n          pop\n            /* \"@openzeppelin/contracts/utils/Strings.sol\":1312:1318  buffer */\n          swap4\n            /* \"@openzeppelin/contracts/utils/Strings.sol\":637:1335  function toString(uint256 value) internal pure returns (string memory) {... */\n          swap3\n          pop\n          pop\n          pop\n          jump\t// out\n            /* \"@openzeppelin/contracts/utils/math/Math.sol\":12214:13130  function log10(uint256 value) internal pure returns (uint256) {... */\n        tag_22:\n            /* \"@openzeppelin/contracts/utils/math/Math.sol\":12267:12274  uint256 */\n          0x00\n          dup1\n            /* \"@openzeppelin/contracts/utils/math/Math.sol\":12351:12359  10 ** 64 */\n          0x184f03e93ff9f4daa797ed6e38ed64bf6a1f010000000000000000\n            /* \"@openzeppelin/contracts/utils/math/Math.sol\":12342:12359  value >= 10 ** 64 */\n          dup4\n          lt\n            /* \"@openzeppelin/contracts/utils/math/Math.sol\":12338:12441  if (value >= 10 ** 64) {... */\n          tag_34\n          jumpi\n            /* \"@openzeppelin/contracts/utils/math/Math.sol\":12388:12396  10 ** 64 */\n          0x184f03e93ff9f4daa797ed6e38ed64bf6a1f010000000000000000\n            /* \"@openzeppelin/contracts/utils/math/Math.sol\":12379:12396  value /= 10 ** 64 */\n          dup4\n          div\n          swap3\n          pop\n            /* \"@openzeppelin/contracts/utils/math/Math.sol\":12424:12426  64 */\n          0x40\n            /* \"@openzeppelin/contracts/utils/math/Math.sol\":12414:12426  result += 64 */\n          add\n            /* \"@openzeppelin/contracts/utils/math/Math.sol\":12338:12441  if (value >= 10 ** 64) {... */\n        tag_34:\n            /* \"@openzeppelin/contracts/utils/math/Math.sol\":12467:12475  10 ** 32 */\n          0x04ee2d6d415b85acef8100000000\n            /* \"@openzeppelin/contracts/utils/math/Math.sol\":12458:12463  value */\n          dup4\n            /* \"@openzeppelin/contracts/utils/math/Math.sol\":12458:12475  value >= 10 ** 32 */\n          lt\n            /* \"@openzeppelin/contracts/utils/math/Math.sol\":12454:12557  if (value >= 10 ** 32) {... */\n          tag_37\n          jumpi\n            /* \"@openzeppelin/contracts/utils/math/Math.sol\":12504:12512  10 ** 32 */\n          0x04ee2d6d415b85acef8100000000\n            /* \"@openzeppelin/contracts/utils/math/Math.sol\":12495:12512  value /= 10 ** 32 */\n          dup4\n          div\n          swap3\n          pop\n            /* \"@openzeppelin/contracts/utils/math/Math.sol\":12540:12542  32 */\n          0x20\n            /* \"@openzeppelin/contracts/utils/math/Math.sol\":12530:12542  result += 32 */\n          add\n            /* \"@openzeppelin/contracts/utils/math/Math.sol\":12454:12557  if (value >= 10 ** 32) {... */\n        tag_37:\n            /* \"@openzeppelin/contracts/utils/math/Math.sol\":12583:12591  10 ** 16 */\n          0x2386f26fc10000\n            /* \"@openzeppelin/contracts/utils/math/Math.sol\":12574:12579  value */\n          dup4\n            /* \"@openzeppelin/contracts/utils/math/Math.sol\":12574:12591  value >= 10 ** 16 */\n          lt\n            /* \"@openzeppelin/contracts/utils/math/Math.sol\":12570:12673  if (value >= 10 ** 16) {... */\n          tag_40\n          jumpi\n            /* \"@openzeppelin/contracts/utils/math/Math.sol\":12620:12628  10 ** 16 */\n          0x2386f26fc10000\n            /* \"@openzeppelin/contracts/utils/math/Math.sol\":12611:12628  value /= 10 ** 16 */\n          dup4\n          div\n          swap3\n          pop\n            /* \"@openzeppelin/contracts/utils/math/Math.sol\":12656:12658  16 */\n          0x10\n            /* \"@openzeppelin/contracts/utils/math/Math.sol\":12646:12658  result += 16 */\n          add\n            /* \"@openzeppelin/contracts/utils/math/Math.sol\":12570:12673  if (value >= 10 ** 16) {... */\n        tag_40:\n            /* \"@openzeppelin/contracts/utils/math/Math.sol\":12699:12706  10 ** 8 */\n          0x05f5e100\n            /* \"@openzeppelin/contracts/utils/math/Math.sol\":12690:12695  value */\n          dup4\n            /* \"@openzeppelin/contracts/utils/math/Math.sol\":12690:12706  value >= 10 ** 8 */\n          lt\n            /* \"@openzeppelin/contracts/utils/math/Math.sol\":12686:12786  if (value >= 10 ** 8) {... */\n          tag_43\n          jumpi\n            /* \"@openzeppelin/contracts/utils/math/Math.sol\":12735:12742  10 ** 8 */\n          0x05f5e100\n            /* \"@openzeppelin/contracts/utils/math/Math.sol\":12726:12742  value /= 10 ** 8 */\n          dup4\n          div\n          swap3\n          pop\n            /* \"@openzeppelin/contracts/utils/math/Math.sol\":12770:12771  8 */\n          0x08\n            /* \"@openzeppelin/contracts/utils/math/Math.sol\":12760:12771  result += 8 */\n          add\n            /* \"@openzeppelin/contracts/utils/math/Math.sol\":12686:12786  if (value >= 10 ** 8) {... */\n        tag_43:\n            /* \"@openzeppelin/contracts/utils/math/Math.sol\":12812:12819  10 ** 4 */\n          0x2710\n            /* \"@openzeppelin/contracts/utils/math/Math.sol\":12803:12808  value */\n          dup4\n            /* \"@openzeppelin/contracts/utils/math/Math.sol\":12803:12819  value >= 10 ** 4 */\n          lt\n            /* \"@openzeppelin/contracts/utils/math/Math.sol\":12799:12899  if (value >= 10 ** 4) {... */\n          tag_46\n          jumpi\n            /* \"@openzeppelin/contracts/utils/math/Math.sol\":12848:12855  10 ** 4 */\n          0x2710\n            /* \"@openzeppelin/contracts/utils/math/Math.sol\":12839:12855  value /= 10 ** 4 */\n          dup4\n          div\n          swap3\n          pop\n            /* \"@openzeppelin/contracts/utils/math/Math.sol\":12883:12884  4 */\n          0x04\n            /* \"@openzeppelin/contracts/utils/math/Math.sol\":12873:12884  result += 4 */\n          add\n            /* \"@openzeppelin/contracts/utils/math/Math.sol\":12799:12899  if (value >= 10 ** 4) {... */\n        tag_46:\n            /* \"@openzeppelin/contracts/utils/math/Math.sol\":12925:12932  10 ** 2 */\n          0x64\n            /* \"@openzeppelin/contracts/utils/math/Math.sol\":12916:12921  value */\n          dup4\n            /* \"@openzeppelin/contracts/utils/math/Math.sol\":12916:12932  value >= 10 ** 2 */\n          lt\n            /* \"@openzeppelin/contracts/utils/math/Math.sol\":12912:13012  if (value >= 10 ** 2) {... */\n          tag_49\n          jumpi\n            /* \"@openzeppelin/contracts/utils/math/Math.sol\":12961:12968  10 ** 2 */\n          0x64\n            /* \"@openzeppelin/contracts/utils/math/Math.sol\":12952:12968  value /= 10 ** 2 */\n          dup4\n          div\n          swap3\n          pop\n            /* \"@openzeppelin/contracts/utils/math/Math.sol\":12996:12997  2 */\n          0x02\n            /* \"@openzeppelin/contracts/utils/math/Math.sol\":12986:12997  result += 2 */\n          add\n            /* \"@openzeppelin/contracts/utils/math/Math.sol\":12912:13012  if (value >= 10 ** 2) {... */\n        tag_49:\n            /* \"@openzeppelin/contracts/utils/math/Math.sol\":13038:13045  10 ** 1 */\n          0x0a\n            /* \"@openzeppelin/contracts/utils/math/Math.sol\":13029:13034  value */\n          dup4\n            /* \"@openzeppelin/contracts/utils/math/Math.sol\":13029:13045  value >= 10 ** 1 */\n          lt\n            /* \"@openzeppelin/contracts/utils/math/Math.sol\":13025:13091  if (value >= 10 ** 1) {... */\n          tag_52\n          jumpi\n            /* \"@openzeppelin/contracts/utils/math/Math.sol\":13075:13076  1 */\n          0x01\n            /* \"@openzeppelin/contracts/utils/math/Math.sol\":13065:13076  result += 1 */\n          add\n            /* \"@openzeppelin/contracts/utils/math/Math.sol\":13025:13091  if (value >= 10 ** 1) {... */\n        tag_52:\n            /* \"@openzeppelin/contracts/utils/math/Math.sol\":13117:13123  result */\n          swap3\n            /* \"@openzeppelin/contracts/utils/math/Math.sol\":12214:13130  function log10(uint256 value) internal pure returns (uint256) {... */\n          swap2\n          pop\n          pop\n          jump\t// out\n            /* \"Project.sol\":172:8579  contract Project {... */\n        tag_15:\n          dataSize(sub_1)\n          dup1\n          dataOffset(sub_1)\n          dup4\n          codecopy\n          add\n          swap1\n          jump\t// out\n            /* \"#utility.yul\":14:191   */\n        tag_53:\n            /* \"#utility.yul\":93:106   */\n          dup1\n          mload\n          sub(shl(0xa0, 0x01), 0x01)\n            /* \"#utility.yul\":135:166   */\n          dup2\n          and\n            /* \"#utility.yul\":125:167   */\n          dup2\n          eq\n            /* \"#utility.yul\":115:185   */\n          tag_63\n          jumpi\n            /* \"#utility.yul\":181:182   */\n          0x00\n            /* \"#utility.yul\":178:179   */\n          dup1\n            /* \"#utility.yul\":171:183   */\n          revert\n            /* \"#utility.yul\":115:185   */\n        tag_63:\n            /* \"#utility.yul\":14:191   */\n          swap2\n          swap1\n          pop\n          jump\t// out\n            /* \"#utility.yul\":196:323   */\n        tag_25:\n            /* \"#utility.yul\":257:267   */\n          0x4e487b71\n            /* \"#utility.yul\":252:255   */\n          0xe0\n            /* \"#utility.yul\":248:268   */\n          shl\n            /* \"#utility.yul\":245:246   */\n          0x00\n            /* \"#utility.yul\":238:269   */\n          mstore\n            /* \"#utility.yul\":288:292   */\n          0x41\n            /* \"#utility.yul\":285:286   */\n          0x04\n            /* \"#utility.yul\":278:293   */\n          mstore\n            /* \"#utility.yul\":312:316   */\n          0x24\n            /* \"#utility.yul\":309:310   */\n          0x00\n            /* \"#utility.yul\":302:317   */\n          revert\n            /* \"#utility.yul\":328:578   */\n        tag_54:\n            /* \"#utility.yul\":413:414   */\n          0x00\n            /* \"#utility.yul\":423:536   */\n        tag_66:\n            /* \"#utility.yul\":437:443   */\n          dup4\n            /* \"#utility.yul\":434:435   */\n          dup2\n            /* \"#utility.yul\":431:444   */\n          lt\n            /* \"#utility.yul\":423:536   */\n          iszero\n          tag_68\n          jumpi\n            /* \"#utility.yul\":513:524   */\n          dup2\n          dup2\n          add\n            /* \"#utility.yul\":507:525   */\n          mload\n            /* \"#utility.yul\":494:505   */\n          dup4\n          dup3\n          add\n            /* \"#utility.yul\":487:526   */\n          mstore\n            /* \"#utility.yul\":459:461   */\n          0x20\n            /* \"#utility.yul\":452:462   */\n          add\n            /* \"#utility.yul\":423:536   */\n          jump(tag_66)\n        tag_68:\n          pop\n          pop\n            /* \"#utility.yul\":570:571   */\n          0x00\n            /* \"#utility.yul\":552:568   */\n          swap2\n          add\n            /* \"#utility.yul\":545:572   */\n          mstore\n            /* \"#utility.yul\":328:578   */\n          jump\t// out\n            /* \"#utility.yul\":583:1282   */\n        tag_55:\n            /* \"#utility.yul\":637:642   */\n          0x00\n            /* \"#utility.yul\":690:693   */\n          dup3\n            /* \"#utility.yul\":683:687   */\n          0x1f\n            /* \"#utility.yul\":675:681   */\n          dup4\n            /* \"#utility.yul\":671:688   */\n          add\n            /* \"#utility.yul\":667:694   */\n          slt\n            /* \"#utility.yul\":657:712   */\n          tag_70\n          jumpi\n            /* \"#utility.yul\":708:709   */\n          0x00\n            /* \"#utility.yul\":705:706   */\n          dup1\n            /* \"#utility.yul\":698:710   */\n          revert\n            /* \"#utility.yul\":657:712   */\n        tag_70:\n            /* \"#utility.yul\":731:744   */\n          dup2\n          mload\n          sub(shl(0x40, 0x01), 0x01)\n            /* \"#utility.yul\":793:803   */\n          dup1\n          dup3\n          gt\n            /* \"#utility.yul\":790:826   */\n          iszero\n          tag_72\n          jumpi\n            /* \"#utility.yul\":806:824   */\n          tag_72\n          tag_25\n          jump\t// in\n        tag_72:\n            /* \"#utility.yul\":881:883   */\n          0x40\n            /* \"#utility.yul\":875:884   */\n          mload\n            /* \"#utility.yul\":849:851   */\n          0x1f\n            /* \"#utility.yul\":935:948   */\n          dup4\n          add\n          not(0x1f)\n            /* \"#utility.yul\":931:953   */\n          swap1\n          dup2\n          and\n            /* \"#utility.yul\":955:957   */\n          0x3f\n            /* \"#utility.yul\":927:958   */\n          add\n            /* \"#utility.yul\":923:963   */\n          and\n            /* \"#utility.yul\":911:964   */\n          dup2\n          add\n          swap1\n            /* \"#utility.yul\":979:997   */\n          dup3\n          dup3\n          gt\n            /* \"#utility.yul\":999:1021   */\n          dup2\n          dup4\n          lt\n            /* \"#utility.yul\":976:1022   */\n          or\n            /* \"#utility.yul\":973:1045   */\n          iszero\n          tag_74\n          jumpi\n            /* \"#utility.yul\":1025:1043   */\n          tag_74\n          tag_25\n          jump\t// in\n        tag_74:\n            /* \"#utility.yul\":1065:1075   */\n          dup2\n            /* \"#utility.yul\":1061:1063   */\n          0x40\n            /* \"#utility.yul\":1054:1076   */\n          mstore\n            /* \"#utility.yul\":1100:1102   */\n          dup4\n            /* \"#utility.yul\":1092:1098   */\n          dup2\n            /* \"#utility.yul\":1085:1103   */\n          mstore\n            /* \"#utility.yul\":1146:1149   */\n          dup7\n            /* \"#utility.yul\":1139:1143   */\n          0x20\n            /* \"#utility.yul\":1134:1136   */\n          dup6\n            /* \"#utility.yul\":1126:1132   */\n          dup9\n            /* \"#utility.yul\":1122:1137   */\n          add\n            /* \"#utility.yul\":1118:1144   */\n          add\n            /* \"#utility.yul\":1115:1150   */\n          gt\n            /* \"#utility.yul\":1112:1167   */\n          iszero\n          tag_75\n          jumpi\n            /* \"#utility.yul\":1163:1164   */\n          0x00\n            /* \"#utility.yul\":1160:1161   */\n          dup1\n            /* \"#utility.yul\":1153:1165   */\n          revert\n            /* \"#utility.yul\":1112:1167   */\n        tag_75:\n            /* \"#utility.yul\":1176:1252   */\n          tag_76\n            /* \"#utility.yul\":1249:1251   */\n          dup5\n            /* \"#utility.yul\":1242:1246   */\n          0x20\n            /* \"#utility.yul\":1234:1240   */\n          dup4\n            /* \"#utility.yul\":1230:1247   */\n          add\n            /* \"#utility.yul\":1223:1227   */\n          0x20\n            /* \"#utility.yul\":1215:1221   */\n          dup10\n            /* \"#utility.yul\":1211:1228   */\n          add\n            /* \"#utility.yul\":1176:1252   */\n          tag_54\n          jump\t// in\n        tag_76:\n            /* \"#utility.yul\":1270:1276   */\n          swap7\n            /* \"#utility.yul\":583:1282   */\n          swap6\n          pop\n          pop\n          pop\n          pop\n          pop\n          pop\n          jump\t// out\n            /* \"#utility.yul\":1287:2473   */\n        tag_3:\n            /* \"#utility.yul\":1459:1465   */\n          0x00\n            /* \"#utility.yul\":1467:1473   */\n          dup1\n            /* \"#utility.yul\":1475:1481   */\n          0x00\n            /* \"#utility.yul\":1483:1489   */\n          dup1\n            /* \"#utility.yul\":1491:1497   */\n          0x00\n            /* \"#utility.yul\":1499:1505   */\n          dup1\n            /* \"#utility.yul\":1507:1513   */\n          0x00\n            /* \"#utility.yul\":1515:1521   */\n          dup1\n            /* \"#utility.yul\":1523:1529   */\n          0x00\n            /* \"#utility.yul\":1576:1579   */\n          0x0120\n            /* \"#utility.yul\":1564:1573   */\n          dup11\n            /* \"#utility.yul\":1555:1562   */\n          dup13\n            /* \"#utility.yul\":1551:1574   */\n          sub\n            /* \"#utility.yul\":1547:1580   */\n          slt\n            /* \"#utility.yul\":1544:1597   */\n          iszero\n          tag_78\n          jumpi\n            /* \"#utility.yul\":1593:1594   */\n          0x00\n            /* \"#utility.yul\":1590:1591   */\n          dup1\n            /* \"#utility.yul\":1583:1595   */\n          revert\n            /* \"#utility.yul\":1544:1597   */\n        tag_78:\n            /* \"#utility.yul\":1622:1631   */\n          dup10\n            /* \"#utility.yul\":1616:1632   */\n          mload\n            /* \"#utility.yul\":1606:1632   */\n          swap9\n          pop\n            /* \"#utility.yul\":1651:1700   */\n          tag_79\n            /* \"#utility.yul\":1696:1698   */\n          0x20\n            /* \"#utility.yul\":1685:1694   */\n          dup12\n            /* \"#utility.yul\":1681:1699   */\n          add\n            /* \"#utility.yul\":1651:1700   */\n          tag_53\n          jump\t// in\n        tag_79:\n            /* \"#utility.yul\":1641:1700   */\n          swap8\n          pop\n            /* \"#utility.yul\":1719:1768   */\n          tag_80\n            /* \"#utility.yul\":1764:1766   */\n          0x40\n            /* \"#utility.yul\":1753:1762   */\n          dup12\n            /* \"#utility.yul\":1749:1767   */\n          add\n            /* \"#utility.yul\":1719:1768   */\n          tag_53\n          jump\t// in\n        tag_80:\n            /* \"#utility.yul\":1812:1814   */\n          0x60\n            /* \"#utility.yul\":1797:1815   */\n          dup12\n          add\n            /* \"#utility.yul\":1791:1816   */\n          mload\n            /* \"#utility.yul\":1709:1768   */\n          swap1\n          swap8\n          pop\n          sub(shl(0x40, 0x01), 0x01)\n            /* \"#utility.yul\":1865:1879   */\n          dup1\n          dup3\n          gt\n            /* \"#utility.yul\":1862:1896   */\n          iszero\n          tag_81\n          jumpi\n            /* \"#utility.yul\":1892:1893   */\n          0x00\n            /* \"#utility.yul\":1889:1890   */\n          dup1\n            /* \"#utility.yul\":1882:1894   */\n          revert\n            /* \"#utility.yul\":1862:1896   */\n        tag_81:\n            /* \"#utility.yul\":1915:1976   */\n          tag_82\n            /* \"#utility.yul\":1968:1975   */\n          dup14\n            /* \"#utility.yul\":1959:1965   */\n          dup4\n            /* \"#utility.yul\":1948:1957   */\n          dup15\n            /* \"#utility.yul\":1944:1966   */\n          add\n            /* \"#utility.yul\":1915:1976   */\n          tag_55\n          jump\t// in\n        tag_82:\n            /* \"#utility.yul\":1905:1976   */\n          swap8\n          pop\n            /* \"#utility.yul\":2016:2019   */\n          0x80\n            /* \"#utility.yul\":2005:2014   */\n          dup13\n            /* \"#utility.yul\":2001:2020   */\n          add\n            /* \"#utility.yul\":1995:2021   */\n          mload\n            /* \"#utility.yul\":1985:2021   */\n          swap7\n          pop\n            /* \"#utility.yul\":2061:2064   */\n          0xa0\n            /* \"#utility.yul\":2050:2059   */\n          dup13\n            /* \"#utility.yul\":2046:2065   */\n          add\n            /* \"#utility.yul\":2040:2066   */\n          mload\n            /* \"#utility.yul\":2030:2066   */\n          swap6\n          pop\n            /* \"#utility.yul\":2106:2109   */\n          0xc0\n            /* \"#utility.yul\":2095:2104   */\n          dup13\n            /* \"#utility.yul\":2091:2110   */\n          add\n            /* \"#utility.yul\":2085:2111   */\n          mload\n            /* \"#utility.yul\":2075:2111   */\n          swap5\n          pop\n            /* \"#utility.yul\":2157:2160   */\n          0xe0\n            /* \"#utility.yul\":2146:2155   */\n          dup13\n            /* \"#utility.yul\":2142:2161   */\n          add\n            /* \"#utility.yul\":2136:2162   */\n          mload\n            /* \"#utility.yul\":2120:2162   */\n          swap2\n          pop\n            /* \"#utility.yul\":2187:2189   */\n          dup1\n            /* \"#utility.yul\":2177:2185   */\n          dup3\n            /* \"#utility.yul\":2174:2190   */\n          gt\n            /* \"#utility.yul\":2171:2207   */\n          iszero\n          tag_83\n          jumpi\n            /* \"#utility.yul\":2203:2204   */\n          0x00\n            /* \"#utility.yul\":2200:2201   */\n          dup1\n            /* \"#utility.yul\":2193:2205   */\n          revert\n            /* \"#utility.yul\":2171:2207   */\n        tag_83:\n            /* \"#utility.yul\":2226:2289   */\n          tag_84\n            /* \"#utility.yul\":2281:2288   */\n          dup14\n            /* \"#utility.yul\":2270:2278   */\n          dup4\n            /* \"#utility.yul\":2259:2268   */\n          dup15\n            /* \"#utility.yul\":2255:2279   */\n          add\n            /* \"#utility.yul\":2226:2289   */\n          tag_55\n          jump\t// in\n        tag_84:\n            /* \"#utility.yul\":2216:2289   */\n          swap4\n          pop\n            /* \"#utility.yul\":2335:2338   */\n          0x0100\n            /* \"#utility.yul\":2324:2333   */\n          dup13\n            /* \"#utility.yul\":2320:2339   */\n          add\n            /* \"#utility.yul\":2314:2340   */\n          mload\n            /* \"#utility.yul\":2298:2340   */\n          swap2\n          pop\n            /* \"#utility.yul\":2365:2367   */\n          dup1\n            /* \"#utility.yul\":2355:2363   */\n          dup3\n            /* \"#utility.yul\":2352:2368   */\n          gt\n            /* \"#utility.yul\":2349:2385   */\n          iszero\n          tag_85\n          jumpi\n            /* \"#utility.yul\":2381:2382   */\n          0x00\n            /* \"#utility.yul\":2378:2379   */\n          dup1\n            /* \"#utility.yul\":2371:2383   */\n          revert\n            /* \"#utility.yul\":2349:2385   */\n        tag_85:\n          pop\n            /* \"#utility.yul\":2404:2467   */\n          tag_86\n            /* \"#utility.yul\":2459:2466   */\n          dup13\n            /* \"#utility.yul\":2448:2456   */\n          dup3\n            /* \"#utility.yul\":2437:2446   */\n          dup14\n            /* \"#utility.yul\":2433:2457   */\n          add\n            /* \"#utility.yul\":2404:2467   */\n          tag_55\n          jump\t// in\n        tag_86:\n            /* \"#utility.yul\":2394:2467   */\n          swap2\n          pop\n          pop\n            /* \"#utility.yul\":1287:2473   */\n          swap3\n          swap6\n          swap9\n          pop\n          swap3\n          swap6\n          swap9\n          pop\n          swap3\n          swap6\n          swap9\n          jump\t// out\n            /* \"#utility.yul\":2478:2858   */\n        tag_56:\n            /* \"#utility.yul\":2557:2558   */\n          0x01\n            /* \"#utility.yul\":2553:2565   */\n          dup2\n          dup2\n          shr\n          swap1\n            /* \"#utility.yul\":2600:2612   */\n          dup3\n          and\n          dup1\n            /* \"#utility.yul\":2621:2682   */\n          tag_88\n          jumpi\n            /* \"#utility.yul\":2675:2679   */\n          0x7f\n            /* \"#utility.yul\":2667:2673   */\n          dup3\n            /* \"#utility.yul\":2663:2680   */\n          and\n            /* \"#utility.yul\":2653:2680   */\n          swap2\n          pop\n            /* \"#utility.yul\":2621:2682   */\n        tag_88:\n            /* \"#utility.yul\":2728:2730   */\n          0x20\n            /* \"#utility.yul\":2720:2726   */\n          dup3\n            /* \"#utility.yul\":2717:2731   */\n          lt\n            /* \"#utility.yul\":2697:2715   */\n          dup2\n            /* \"#utility.yul\":2694:2732   */\n          sub\n            /* \"#utility.yul\":2691:2852   */\n          tag_89\n          jumpi\n            /* \"#utility.yul\":2774:2784   */\n          0x4e487b71\n            /* \"#utility.yul\":2769:2772   */\n          0xe0\n            /* \"#utility.yul\":2765:2785   */\n          shl\n            /* \"#utility.yul\":2762:2763   */\n          0x00\n            /* \"#utility.yul\":2755:2786   */\n          mstore\n            /* \"#utility.yul\":2809:2813   */\n          0x22\n            /* \"#utility.yul\":2806:2807   */\n          0x04\n            /* \"#utility.yul\":2799:2814   */\n          mstore\n            /* \"#utility.yul\":2837:2841   */\n          0x24\n            /* \"#utility.yul\":2834:2835   */\n          0x00\n            /* \"#utility.yul\":2827:2842   */\n          revert\n            /* \"#utility.yul\":2691:2852   */\n        tag_89:\n          pop\n            /* \"#utility.yul\":2478:2858   */\n          swap2\n          swap1\n          pop\n          jump\t// out\n            /* \"#utility.yul\":2989:3507   */\n        tag_58:\n            /* \"#utility.yul\":3091:3093   */\n          0x1f\n            /* \"#utility.yul\":3086:3089   */\n          dup3\n            /* \"#utility.yul\":3083:3094   */\n          gt\n            /* \"#utility.yul\":3080:3501   */\n          iszero\n          tag_92\n          jumpi\n            /* \"#utility.yul\":3127:3132   */\n          dup1\n            /* \"#utility.yul\":3124:3125   */\n          0x00\n            /* \"#utility.yul\":3117:3133   */\n          mstore\n            /* \"#utility.yul\":3171:3175   */\n          0x20\n            /* \"#utility.yul\":3168:3169   */\n          0x00\n            /* \"#utility.yul\":3158:3176   */\n          keccak256\n            /* \"#utility.yul\":3241:3243   */\n          0x1f\n            /* \"#utility.yul\":3229:3239   */\n          dup5\n            /* \"#utility.yul\":3225:3244   */\n          add\n            /* \"#utility.yul\":3222:3223   */\n          0x05\n            /* \"#utility.yul\":3218:3245   */\n          shr\n            /* \"#utility.yul\":3212:3216   */\n          dup2\n            /* \"#utility.yul\":3208:3246   */\n          add\n            /* \"#utility.yul\":3277:3281   */\n          0x20\n            /* \"#utility.yul\":3265:3275   */\n          dup6\n            /* \"#utility.yul\":3262:3282   */\n          lt\n            /* \"#utility.yul\":3259:3306   */\n          iszero\n          tag_93\n          jumpi\n          pop\n            /* \"#utility.yul\":3300:3304   */\n          dup1\n            /* \"#utility.yul\":3259:3306   */\n        tag_93:\n            /* \"#utility.yul\":3355:3357   */\n          0x1f\n            /* \"#utility.yul\":3350:3353   */\n          dup5\n            /* \"#utility.yul\":3346:3358   */\n          add\n            /* \"#utility.yul\":3343:3344   */\n          0x05\n            /* \"#utility.yul\":3339:3359   */\n          shr\n            /* \"#utility.yul\":3333:3337   */\n          dup3\n            /* \"#utility.yul\":3329:3360   */\n          add\n            /* \"#utility.yul\":3319:3360   */\n          swap2\n          pop\n            /* \"#utility.yul\":3410:3491   */\n        tag_94:\n            /* \"#utility.yul\":3428:3430   */\n          dup2\n            /* \"#utility.yul\":3421:3426   */\n          dup2\n            /* \"#utility.yul\":3418:3431   */\n          lt\n            /* \"#utility.yul\":3410:3491   */\n          iszero\n          tag_96\n          jumpi\n            /* \"#utility.yul\":3487:3488   */\n          0x00\n            /* \"#utility.yul\":3473:3489   */\n          dup2\n          sstore\n            /* \"#utility.yul\":3454:3455   */\n          0x01\n            /* \"#utility.yul\":3443:3456   */\n          add\n            /* \"#utility.yul\":3410:3491   */\n          jump(tag_94)\n        tag_96:\n            /* \"#utility.yul\":3414:3417   */\n          pop\n          pop\n            /* \"#utility.yul\":3080:3501   */\n        tag_92:\n            /* \"#utility.yul\":2989:3507   */\n          pop\n          pop\n          pop\n          jump\t// out\n            /* \"#utility.yul\":3683:5028   */\n        tag_7:\n            /* \"#utility.yul\":3803:3813   */\n          dup2\n          mload\n          sub(shl(0x40, 0x01), 0x01)\n            /* \"#utility.yul\":3825:3855   */\n          dup2\n          gt\n            /* \"#utility.yul\":3822:3878   */\n          iszero\n          tag_100\n          jumpi\n            /* \"#utility.yul\":3858:3876   */\n          tag_100\n          tag_25\n          jump\t// in\n        tag_100:\n            /* \"#utility.yul\":3887:3984   */\n          tag_101\n            /* \"#utility.yul\":3977:3983   */\n          dup2\n            /* \"#utility.yul\":3937:3975   */\n          tag_102\n            /* \"#utility.yul\":3969:3973   */\n          dup5\n            /* \"#utility.yul\":3963:3974   */\n          sload\n            /* \"#utility.yul\":3937:3975   */\n          tag_56\n          jump\t// in\n        tag_102:\n            /* \"#utility.yul\":3931:3935   */\n          dup5\n            /* \"#utility.yul\":3887:3984   */\n          tag_58\n          jump\t// in\n        tag_101:\n            /* \"#utility.yul\":4039:4043   */\n          0x20\n          dup1\n            /* \"#utility.yul\":4096:4098   */\n          0x1f\n            /* \"#utility.yul\":4085:4099   */\n          dup4\n          gt\n            /* \"#utility.yul\":4113:4114   */\n          0x01\n            /* \"#utility.yul\":4108:4771   */\n          dup2\n          eq\n          tag_104\n          jumpi\n            /* \"#utility.yul\":4815:4816   */\n          0x00\n            /* \"#utility.yul\":4832:4838   */\n          dup5\n            /* \"#utility.yul\":4829:4918   */\n          iszero\n          tag_105\n          jumpi\n          pop\n            /* \"#utility.yul\":4884:4903   */\n          dup6\n          dup4\n          add\n            /* \"#utility.yul\":4878:4904   */\n          mload\n            /* \"#utility.yul\":4829:4918   */\n        tag_105:\n          not(0x00)\n            /* \"#utility.yul\":3640:3641   */\n          0x03\n            /* \"#utility.yul\":3636:3647   */\n          dup7\n          swap1\n          shl\n            /* \"#utility.yul\":3632:3656   */\n          shr\n            /* \"#utility.yul\":3628:3657   */\n          not\n            /* \"#utility.yul\":3618:3658   */\n          and\n            /* \"#utility.yul\":3664:3665   */\n          0x01\n            /* \"#utility.yul\":3660:3671   */\n          dup6\n          swap1\n          shl\n            /* \"#utility.yul\":3615:3672   */\n          or\n            /* \"#utility.yul\":4931:5012   */\n          dup6\n          sstore\n            /* \"#utility.yul\":4078:5022   */\n          jump(tag_103)\n            /* \"#utility.yul\":4108:4771   */\n        tag_104:\n            /* \"#utility.yul\":2936:2937   */\n          0x00\n            /* \"#utility.yul\":2929:2943   */\n          dup6\n          dup2\n          mstore\n            /* \"#utility.yul\":2973:2977   */\n          0x20\n            /* \"#utility.yul\":2960:2978   */\n          dup2\n          keccak256\n          not(0x1f)\n            /* \"#utility.yul\":4144:4164   */\n          dup7\n          and\n          swap2\n            /* \"#utility.yul\":4262:4498   */\n        tag_108:\n            /* \"#utility.yul\":4276:4283   */\n          dup3\n            /* \"#utility.yul\":4273:4274   */\n          dup2\n            /* \"#utility.yul\":4270:4284   */\n          lt\n            /* \"#utility.yul\":4262:4498   */\n          iszero\n          tag_110\n          jumpi\n            /* \"#utility.yul\":4365:4384   */\n          dup9\n          dup7\n          add\n            /* \"#utility.yul\":4359:4385   */\n          mload\n            /* \"#utility.yul\":4344:4386   */\n          dup3\n          sstore\n            /* \"#utility.yul\":4457:4484   */\n          swap5\n          dup5\n          add\n          swap5\n            /* \"#utility.yul\":4425:4426   */\n          0x01\n            /* \"#utility.yul\":4413:4427   */\n          swap1\n          swap2\n          add\n          swap1\n            /* \"#utility.yul\":4292:4311   */\n          dup5\n          add\n            /* \"#utility.yul\":4262:4498   */\n          jump(tag_108)\n        tag_110:\n            /* \"#utility.yul\":4266:4269   */\n          pop\n            /* \"#utility.yul\":4526:4532   */\n          dup6\n            /* \"#utility.yul\":4517:4524   */\n          dup3\n            /* \"#utility.yul\":4514:4533   */\n          lt\n            /* \"#utility.yul\":4511:4712   */\n          iszero\n          tag_111\n          jumpi\n            /* \"#utility.yul\":4587:4606   */\n          dup8\n          dup6\n          add\n            /* \"#utility.yul\":4581:4607   */\n          mload\n          not(0x00)\n            /* \"#utility.yul\":4670:4671   */\n          0x03\n            /* \"#utility.yul\":4666:4680   */\n          dup9\n          swap1\n          shl\n            /* \"#utility.yul\":4682:4685   */\n          0xf8\n            /* \"#utility.yul\":4662:4686   */\n          and\n            /* \"#utility.yul\":4658:4695   */\n          shr\n            /* \"#utility.yul\":4654:4696   */\n          not\n            /* \"#utility.yul\":4639:4697   */\n          and\n            /* \"#utility.yul\":4624:4698   */\n          dup2\n          sstore\n            /* \"#utility.yul\":4511:4712   */\n        tag_111:\n          pop\n          pop\n            /* \"#utility.yul\":4758:4759   */\n          0x01\n            /* \"#utility.yul\":4749:4755   */\n          dup5\n            /* \"#utility.yul\":4746:4747   */\n          0x01\n            /* \"#utility.yul\":4742:4756   */\n          shl\n            /* \"#utility.yul\":4738:4760   */\n          add\n            /* \"#utility.yul\":4732:4736   */\n          dup6\n            /* \"#utility.yul\":4725:4761   */\n          sstore\n            /* \"#utility.yul\":4078:5022   */\n        tag_103:\n          pop\n          pop\n          pop\n          pop\n            /* \"#utility.yul\":3683:5028   */\n          pop\n          pop\n          jump\t// out\n            /* \"#utility.yul\":5033:5529   */\n        tag_11:\n            /* \"#utility.yul\":5212:5215   */\n          0x00\n            /* \"#utility.yul\":5250:5256   */\n          dup4\n            /* \"#utility.yul\":5244:5257   */\n          mload\n            /* \"#utility.yul\":5266:5332   */\n          tag_113\n            /* \"#utility.yul\":5325:5331   */\n          dup2\n            /* \"#utility.yul\":5320:5323   */\n          dup5\n            /* \"#utility.yul\":5313:5317   */\n          0x20\n            /* \"#utility.yul\":5305:5311   */\n          dup9\n            /* \"#utility.yul\":5301:5318   */\n          add\n            /* \"#utility.yul\":5266:5332   */\n          tag_54\n          jump\t// in\n        tag_113:\n            /* \"#utility.yul\":5395:5408   */\n          dup4\n          mload\n            /* \"#utility.yul\":5354:5370   */\n          swap1\n          dup4\n          add\n          swap1\n            /* \"#utility.yul\":5417:5487   */\n          tag_114\n            /* \"#utility.yul\":5395:5408   */\n          dup2\n            /* \"#utility.yul\":5354:5370   */\n          dup4\n            /* \"#utility.yul\":5464:5468   */\n          0x20\n            /* \"#utility.yul\":5452:5469   */\n          dup9\n          add\n            /* \"#utility.yul\":5417:5487   */\n          tag_54\n          jump\t// in\n        tag_114:\n            /* \"#utility.yul\":5503:5523   */\n          add\n          swap5\n            /* \"#utility.yul\":5033:5529   */\n          swap4\n          pop\n          pop\n          pop\n          pop\n          jump\t// out\n            /* \"#utility.yul\":5534:5805   */\n        tag_60:\n            /* \"#utility.yul\":5576:5579   */\n          0x00\n            /* \"#utility.yul\":5614:5619   */\n          dup2\n            /* \"#utility.yul\":5608:5620   */\n          mload\n            /* \"#utility.yul\":5641:5647   */\n          dup1\n            /* \"#utility.yul\":5636:5639   */\n          dup5\n            /* \"#utility.yul\":5629:5648   */\n          mstore\n            /* \"#utility.yul\":5657:5733   */\n          tag_116\n            /* \"#utility.yul\":5726:5732   */\n          dup2\n            /* \"#utility.yul\":5719:5723   */\n          0x20\n            /* \"#utility.yul\":5714:5717   */\n          dup7\n            /* \"#utility.yul\":5710:5724   */\n          add\n            /* \"#utility.yul\":5703:5707   */\n          0x20\n            /* \"#utility.yul\":5696:5701   */\n          dup7\n            /* \"#utility.yul\":5692:5708   */\n          add\n            /* \"#utility.yul\":5657:5733   */\n          tag_54\n          jump\t// in\n        tag_116:\n            /* \"#utility.yul\":5787:5789   */\n          0x1f\n            /* \"#utility.yul\":5766:5781   */\n          add\n          not(0x1f)\n            /* \"#utility.yul\":5762:5791   */\n          and\n            /* \"#utility.yul\":5753:5792   */\n          swap3\n          swap1\n          swap3\n          add\n            /* \"#utility.yul\":5794:5798   */\n          0x20\n            /* \"#utility.yul\":5749:5799   */\n          add\n          swap3\n            /* \"#utility.yul\":5534:5805   */\n          swap2\n          pop\n          pop\n          jump\t// out\n            /* \"#utility.yul\":5810:6290   */\n        tag_17:\n          sub(shl(0xa0, 0x01), 0x01)\n            /* \"#utility.yul\":6035:6067   */\n          dup5\n          and\n            /* \"#utility.yul\":6017:6068   */\n          dup2\n          mstore\n            /* \"#utility.yul\":6104:6106   */\n          0x60\n            /* \"#utility.yul\":6099:6101   */\n          0x20\n            /* \"#utility.yul\":6084:6102   */\n          dup3\n          add\n            /* \"#utility.yul\":6077:6107   */\n          dup2\n          swap1\n          mstore\n          0x00\n          swap1\n            /* \"#utility.yul\":6130:6175   */\n          tag_118\n          swap1\n            /* \"#utility.yul\":6156:6174   */\n          dup4\n          add\n            /* \"#utility.yul\":6148:6154   */\n          dup6\n            /* \"#utility.yul\":6130:6175   */\n          tag_60\n          jump\t// in\n        tag_118:\n            /* \"#utility.yul\":6223:6232   */\n          dup3\n            /* \"#utility.yul\":6215:6221   */\n          dup2\n            /* \"#utility.yul\":6211:6233   */\n          sub\n            /* \"#utility.yul\":6206:6208   */\n          0x40\n            /* \"#utility.yul\":6195:6204   */\n          dup5\n            /* \"#utility.yul\":6191:6209   */\n          add\n            /* \"#utility.yul\":6184:6234   */\n          mstore\n            /* \"#utility.yul\":6251:6284   */\n          tag_76\n            /* \"#utility.yul\":6277:6283   */\n          dup2\n            /* \"#utility.yul\":6269:6275   */\n          dup6\n            /* \"#utility.yul\":6251:6284   */\n          tag_60\n          jump\t// in\n            /* \"#utility.yul\":6295:6422   */\n        tag_61:\n            /* \"Project.sol\":172:8579  contract Project {... */\n          dataSize(sub_0)\n          dup1\n          dataOffset(sub_0)\n          0x00\n          codecopy\n          0x00\n          return\n        stop\n\n        sub_0: assembly {\n                /* \"Project.sol\":172:8579  contract Project {... */\n              mstore(0x40, 0x80)\n              jumpi(tag_1, lt(calldatasize, 0x04))\n              shr(0xe0, calldataload(0x00))\n              dup1\n              0x0b49351c\n              eq\n              tag_2\n              jumpi\n              dup1\n              0x12424e3f\n              eq\n              tag_3\n              jumpi\n              dup1\n              0x1bb05f73\n              eq\n              tag_4\n              jumpi\n              dup1\n              0x1f6d4942\n              eq\n              tag_5\n              jumpi\n              dup1\n              0x200d2ed2\n              eq\n              tag_6\n              jumpi\n              dup1\n              0x27b0229e\n              eq\n              tag_7\n              jumpi\n              dup1\n              0x29dcb0cf\n              eq\n              tag_8\n              jumpi\n              dup1\n              0x2b7d782f\n              eq\n              tag_9\n              jumpi\n              dup1\n              0x3ccfd60b\n              eq\n              tag_10\n              jumpi\n              dup1\n              0x4051ddac\n              eq\n              tag_11\n              jumpi\n              dup1\n              0x47ccca02\n              eq\n              tag_12\n              jumpi\n              dup1\n              0x66d003ac\n              eq\n              tag_13\n              jumpi\n              dup1\n              0x7569b3d7\n              eq\n              tag_14\n              jumpi\n              dup1\n              0x8da5cb5b\n              eq\n              tag_15\n              jumpi\n              dup1\n              0x937e09b1\n              eq\n              tag_16\n              jumpi\n              dup1\n              0xaa3ec0a9\n              eq\n              tag_17\n              jumpi\n              dup1\n              0xb82c86d6\n              eq\n              tag_18\n              jumpi\n              dup1\n              0xc438b40f\n              eq\n              tag_19\n              jumpi\n              dup1\n              0xc5451232\n              eq\n              tag_20\n              jumpi\n              dup1\n              0xd7bb99ba\n              eq\n              tag_21\n              jumpi\n              dup1\n              0xda076a87\n              eq\n              tag_22\n              jumpi\n              dup1\n              0xe89e4ed6\n              eq\n              tag_23\n              jumpi\n              dup1\n              0xeb599e43\n              eq\n              tag_24\n              jumpi\n              dup1\n              0xed556ce2\n              eq\n              tag_25\n              jumpi\n            tag_1:\n              0x00\n              dup1\n              revert\n                /* \"Project.sol\":4844:4942  function getMilestonesCount() public view returns (uint) {... */\n            tag_2:\n              callvalue\n              dup1\n              iszero\n              tag_26\n              jumpi\n              0x00\n              dup1\n              revert\n            tag_26:\n              pop\n                /* \"Project.sol\":4918:4928  milestones */\n              0x10\n                /* \"Project.sol\":4918:4935  milestones.length */\n              sload\n                /* \"Project.sol\":4844:4942  function getMilestonesCount() public view returns (uint) {... */\n            tag_27:\n              mload(0x40)\n                /* \"#utility.yul\":160:185   */\n              swap1\n              dup2\n              mstore\n                /* \"#utility.yul\":148:150   */\n              0x20\n                /* \"#utility.yul\":133:151   */\n              add\n                /* \"Project.sol\":4844:4942  function getMilestonesCount() public view returns (uint) {... */\n            tag_29:\n              mload(0x40)\n              dup1\n              swap2\n              sub\n              swap1\n              return\n                /* \"Project.sol\":2943:3811  function approve() public {... */\n            tag_3:\n              callvalue\n              dup1\n              iszero\n              tag_31\n              jumpi\n              0x00\n              dup1\n              revert\n            tag_31:\n              pop\n              tag_32\n              tag_33\n              jump\t// in\n            tag_32:\n              stop\n                /* \"Project.sol\":7091:7584  function rewardMilestone(uint index, string memory tokenURI) public {... */\n            tag_4:\n              callvalue\n              dup1\n              iszero\n              tag_34\n              jumpi\n              0x00\n              dup1\n              revert\n            tag_34:\n              pop\n              tag_32\n              tag_36\n              calldatasize\n              0x04\n              tag_37\n              jump\t// in\n            tag_36:\n              tag_38\n              jump\t// in\n                /* \"Project.sol\":437:481  mapping(address => uint) public contributors */\n            tag_5:\n              callvalue\n              dup1\n              iszero\n              tag_39\n              jumpi\n              0x00\n              dup1\n              revert\n            tag_39:\n              pop\n              tag_27\n              tag_41\n              calldatasize\n              0x04\n              tag_42\n              jump\t// in\n            tag_41:\n              mstore(0x20, 0x08)\n              0x00\n              swap1\n              dup2\n              mstore\n              0x40\n              swap1\n              keccak256\n              sload\n              dup2\n              jump\n                /* \"Project.sol\":520:546  Model.Status public status */\n            tag_6:\n              callvalue\n              dup1\n              iszero\n              tag_45\n              jumpi\n              0x00\n              dup1\n              revert\n            tag_45:\n              pop\n              sload(0x09)\n              sload(0x0a)\n              sload(0x0b)\n              sload(0x0d)\n              sload(0x0e)\n              tag_46\n              swap5\n              0xff\n              swap1\n              dup2\n              and\n              swap5\n              swap4\n              swap3\n              and\n              swap1\n              dup6\n              jump\n            tag_46:\n              0x40\n              dup1\n              mload\n                /* \"#utility.yul\":2180:2194   */\n              swap6\n              iszero\n                /* \"#utility.yul\":2173:2195   */\n              iszero\n                /* \"#utility.yul\":2155:2196   */\n              dup7\n              mstore\n                /* \"#utility.yul\":2227:2229   */\n              0x20\n                /* \"#utility.yul\":2212:2230   */\n              dup7\n              add\n                /* \"#utility.yul\":2205:2239   */\n              swap5\n              swap1\n              swap5\n              mstore\n                /* \"#utility.yul\":2255:2273   */\n              swap3\n              dup5\n              add\n                /* \"#utility.yul\":2248:2282   */\n              swap2\n              swap1\n              swap2\n              mstore\n                /* \"#utility.yul\":2325:2339   */\n              iszero\n                /* \"#utility.yul\":2318:2340   */\n              iszero\n                /* \"#utility.yul\":2313:2315   */\n              0x60\n                /* \"#utility.yul\":2298:2316   */\n              dup4\n              add\n                /* \"#utility.yul\":2291:2341   */\n              mstore\n                /* \"#utility.yul\":2372:2375   */\n              0x80\n                /* \"#utility.yul\":2357:2376   */\n              dup3\n              add\n                /* \"#utility.yul\":2350:2385   */\n              mstore\n                /* \"#utility.yul\":2142:2145   */\n              0xa0\n                /* \"#utility.yul\":2127:2146   */\n              add\n                /* \"Project.sol\":520:546  Model.Status public status */\n              tag_29\n                /* \"#utility.yul\":1908:2391   */\n              jump\n                /* \"Project.sol\":3817:4269  function reward(string memory tokenURI) public {... */\n            tag_7:\n              callvalue\n              dup1\n              iszero\n              tag_50\n              jumpi\n              0x00\n              dup1\n              revert\n            tag_50:\n              pop\n              tag_32\n              tag_52\n              calldatasize\n              0x04\n              tag_53\n              jump\t// in\n            tag_52:\n              tag_54\n              jump\t// in\n                /* \"Project.sol\":376:396  uint public deadline */\n            tag_8:\n              callvalue\n              dup1\n              iszero\n              tag_55\n              jumpi\n              0x00\n              dup1\n              revert\n            tag_55:\n              pop\n              tag_27\n              sload(0x06)\n              dup2\n              jump\n                /* \"Project.sol\":4948:5447  function createMilestones(... */\n            tag_9:\n              callvalue\n              dup1\n              iszero\n              tag_59\n              jumpi\n              0x00\n              dup1\n              revert\n            tag_59:\n              pop\n              tag_32\n              tag_61\n              calldatasize\n              0x04\n              tag_62\n              jump\t// in\n            tag_61:\n              tag_63\n              jump\t// in\n                /* \"Project.sol\":4275:4745  function withdraw() public restricted {... */\n            tag_10:\n              callvalue\n              dup1\n              iszero\n              tag_64\n              jumpi\n              0x00\n              dup1\n              revert\n            tag_64:\n              pop\n              tag_32\n              tag_66\n              jump\t// in\n                /* \"Project.sol\":1505:2198  function getSummary()... */\n            tag_11:\n              callvalue\n              dup1\n              iszero\n              tag_67\n              jumpi\n              0x00\n              dup1\n              revert\n            tag_67:\n              pop\n              tag_68\n              tag_69\n              jump\t// in\n            tag_68:\n              mload(0x40)\n              tag_29\n              swap13\n              swap12\n              swap11\n              swap10\n              swap9\n              swap8\n              swap7\n              swap6\n              swap5\n              swap4\n              swap3\n              swap2\n              swap1\n              tag_71\n              jump\t// in\n                /* \"Project.sol\":640:661  ProjectNFT public nft */\n            tag_12:\n              callvalue\n              dup1\n              iszero\n              tag_72\n              jumpi\n              0x00\n              dup1\n              revert\n            tag_72:\n              pop\n              sload(0x12)\n              tag_73\n              swap1\n              sub(shl(0xa0, 0x01), 0x01)\n              and\n              dup2\n              jump\n            tag_73:\n              mload(0x40)\n              sub(shl(0xa0, 0x01), 0x01)\n                /* \"#utility.yul\":7479:7511   */\n              swap1\n              swap2\n              and\n                /* \"#utility.yul\":7461:7512   */\n              dup2\n              mstore\n                /* \"#utility.yul\":7449:7451   */\n              0x20\n                /* \"#utility.yul\":7434:7452   */\n              add\n                /* \"Project.sol\":640:661  ProjectNFT public nft */\n              tag_29\n                /* \"#utility.yul\":7295:7518   */\n              jump\n                /* \"Project.sol\":242:274  address payable public recipient */\n            tag_13:\n              callvalue\n              dup1\n              iszero\n              tag_77\n              jumpi\n              0x00\n              dup1\n              revert\n            tag_77:\n              pop\n              sload(0x02)\n              tag_73\n              swap1\n              sub(shl(0xa0, 0x01), 0x01)\n              and\n              dup2\n              jump\n                /* \"Project.sol\":402:431  uint public contributorsCount */\n            tag_14:\n              callvalue\n              dup1\n              iszero\n              tag_82\n              jumpi\n              0x00\n              dup1\n              revert\n            tag_82:\n              pop\n              tag_27\n              sload(0x07)\n              dup2\n              jump\n                /* \"Project.sol\":216:236  address public owner */\n            tag_15:\n              callvalue\n              dup1\n              iszero\n              tag_86\n              jumpi\n              0x00\n              dup1\n              revert\n            tag_86:\n              pop\n              sload(0x01)\n              tag_73\n              swap1\n              sub(shl(0xa0, 0x01), 0x01)\n              and\n              dup2\n              jump\n                /* \"Project.sol\":303:334  uint public minimumContribution */\n            tag_16:\n              callvalue\n              dup1\n              iszero\n              tag_91\n              jumpi\n              0x00\n              dup1\n              revert\n            tag_91:\n              pop\n              tag_27\n              sload(0x04)\n              dup2\n              jump\n                /* \"Project.sol\":280:297  string public cid */\n            tag_17:\n              callvalue\n              dup1\n              iszero\n              tag_95\n              jumpi\n              0x00\n              dup1\n              revert\n            tag_95:\n              pop\n              tag_96\n              tag_97\n              jump\t// in\n            tag_96:\n              mload(0x40)\n              tag_29\n              swap2\n              swap1\n              tag_99\n              jump\t// in\n                /* \"Project.sol\":340:370  uint public targetContribution */\n            tag_18:\n              callvalue\n              dup1\n              iszero\n              tag_100\n              jumpi\n              0x00\n              dup1\n              revert\n            tag_100:\n              pop\n              tag_27\n              sload(0x05)\n              dup2\n              jump\n                /* \"Project.sol\":6293:7085  function approveMilestone(uint index) public {... */\n            tag_19:\n              callvalue\n              dup1\n              iszero\n              tag_104\n              jumpi\n              0x00\n              dup1\n              revert\n            tag_104:\n              pop\n              tag_32\n              tag_106\n              calldatasize\n              0x04\n              tag_107\n              jump\t// in\n            tag_106:\n              tag_108\n              jump\t// in\n                /* \"Project.sol\":5453:6287  function createMilestone(... */\n            tag_20:\n              callvalue\n              dup1\n              iszero\n              tag_109\n              jumpi\n              0x00\n              dup1\n              revert\n            tag_109:\n              pop\n              tag_32\n              tag_111\n              calldatasize\n              0x04\n              tag_112\n              jump\t// in\n            tag_111:\n              tag_113\n              jump\t// in\n                /* \"Project.sol\":2326:2937  function contribute() public payable {... */\n            tag_21:\n              tag_32\n              tag_115\n              jump\t// in\n                /* \"Project.sol\":2204:2320  function getApproval(address _address) public view returns (uint) {... */\n            tag_22:\n              callvalue\n              dup1\n              iszero\n              tag_116\n              jumpi\n              0x00\n              dup1\n              revert\n            tag_116:\n              pop\n              tag_27\n              tag_118\n              calldatasize\n              0x04\n              tag_42\n              jump\t// in\n            tag_118:\n              sub(shl(0xa0, 0x01), 0x01)\n                /* \"Project.sol\":2287:2313  status.approvals[_address] */\n              and\n                /* \"Project.sol\":2264:2268  uint */\n              0x00\n                /* \"Project.sol\":2287:2313  status.approvals[_address] */\n              swap1\n              dup2\n              mstore\n                /* \"Project.sol\":2287:2303  status.approvals */\n              0x0c\n                /* \"Project.sol\":2287:2313  status.approvals[_address] */\n              0x20\n              mstore\n              0x40\n              swap1\n              keccak256\n              sload\n              swap1\n                /* \"Project.sol\":2204:2320  function getApproval(address _address) public view returns (uint) {... */\n              jump\n                /* \"Project.sol\":553:588  Model.Milestone[] public milestones */\n            tag_23:\n              callvalue\n              dup1\n              iszero\n              tag_121\n              jumpi\n              0x00\n              dup1\n              revert\n            tag_121:\n              pop\n              tag_122\n              tag_123\n              calldatasize\n              0x04\n              tag_107\n              jump\t// in\n            tag_123:\n              tag_124\n              jump\t// in\n            tag_122:\n              mload(0x40)\n              tag_29\n              swap4\n              swap3\n              swap2\n              swap1\n              tag_126\n              jump\t// in\n                /* \"Project.sol\":7590:8577  function withdrawMilestone(uint index) public restricted {... */\n            tag_24:\n              callvalue\n              dup1\n              iszero\n              tag_127\n              jumpi\n              0x00\n              dup1\n              revert\n            tag_127:\n              pop\n              tag_32\n              tag_129\n              calldatasize\n              0x04\n              tag_107\n              jump\t// in\n            tag_129:\n              tag_130\n              jump\t// in\n                /* \"Project.sol\":594:633  Model.Status[] public milestoneStatuses */\n            tag_25:\n              callvalue\n              dup1\n              iszero\n              tag_131\n              jumpi\n              0x00\n              dup1\n              revert\n            tag_131:\n              pop\n              tag_46\n              tag_133\n              calldatasize\n              0x04\n              tag_107\n              jump\t// in\n            tag_133:\n              tag_134\n              jump\t// in\n                /* \"Project.sol\":2943:3811  function approve() public {... */\n            tag_33:\n                /* \"Project.sol\":3096:3114  targetContribution */\n              sload(0x05)\n                /* \"Project.sol\":3071:3092  address(this).balance */\n              selfbalance\n                /* \"Project.sol\":3071:3114  address(this).balance >= targetContribution */\n              lt\n              iszero\n                /* \"Project.sol\":3063:3115  require(address(this).balance >= targetContribution) */\n              tag_138\n              jumpi\n              0x00\n              dup1\n              revert\n            tag_138:\n                /* \"Project.sol\":3209:3219  msg.sender */\n              caller\n                /* \"Project.sol\":3223:3224  0 */\n              0x00\n                /* \"Project.sol\":3196:3220  contributors[msg.sender] */\n              swap1\n              dup2\n              mstore\n                /* \"Project.sol\":3196:3208  contributors */\n              0x08\n                /* \"Project.sol\":3196:3220  contributors[msg.sender] */\n              0x20\n              mstore\n              0x40\n              swap1\n              keccak256\n              sload\n                /* \"Project.sol\":3188:3225  require(contributors[msg.sender] > 0) */\n              tag_139\n              jumpi\n              0x00\n              dup1\n              revert\n            tag_139:\n                /* \"Project.sol\":3327:3337  msg.sender */\n              caller\n                /* \"Project.sol\":3310:3338  status.approvals[msg.sender] */\n              0x00\n              swap1\n              dup2\n              mstore\n                /* \"Project.sol\":3310:3326  status.approvals */\n              0x0c\n                /* \"Project.sol\":3310:3338  status.approvals[msg.sender] */\n              0x20\n              mstore\n              0x40\n              swap1\n              keccak256\n              sload\n                /* \"Project.sol\":3310:3343  status.approvals[msg.sender] == 0 */\n              iszero\n                /* \"Project.sol\":3302:3344  require(status.approvals[msg.sender] == 0) */\n              tag_140\n              jumpi\n              0x00\n              dup1\n              revert\n            tag_140:\n                /* \"Project.sol\":3446:3452  uint i */\n              0x00\n                /* \"Project.sol\":3441:3556  for (uint i = 0; i < milestoneStatuses.length; i++) {... */\n            tag_141:\n                /* \"Project.sol\":3462:3479  milestoneStatuses */\n              0x11\n                /* \"Project.sol\":3462:3486  milestoneStatuses.length */\n              sload\n                /* \"Project.sol\":3458:3486  i < milestoneStatuses.length */\n              dup2\n              lt\n                /* \"Project.sol\":3441:3556  for (uint i = 0; i < milestoneStatuses.length; i++) {... */\n              iszero\n              tag_142\n              jumpi\n                /* \"Project.sol\":3515:3532  milestoneStatuses */\n              0x11\n                /* \"Project.sol\":3533:3534  i */\n              dup2\n                /* \"Project.sol\":3515:3535  milestoneStatuses[i] */\n              dup2\n              sload\n              dup2\n              lt\n              tag_145\n              jumpi\n              tag_145\n              tag_146\n              jump\t// in\n            tag_145:\n              0x00\n              swap2\n              dup3\n              mstore\n              0x20\n              swap1\n              swap2\n              keccak256\n              0x07\n              swap1\n              swap2\n              mul\n              add\n                /* \"Project.sol\":3515:3544  milestoneStatuses[i].approved */\n              sload\n              0xff\n              and\n                /* \"Project.sol\":3507:3545  require(milestoneStatuses[i].approved) */\n              tag_148\n              jumpi\n              0x00\n              dup1\n              revert\n            tag_148:\n                /* \"Project.sol\":3488:3491  i++ */\n              0x01\n              add\n                /* \"Project.sol\":3441:3556  for (uint i = 0; i < milestoneStatuses.length; i++) {... */\n              jump(tag_141)\n            tag_142:\n              pop\n                /* \"Project.sol\":3583:3593  msg.sender */\n              caller\n                /* \"Project.sol\":3566:3594  status.approvals[msg.sender] */\n              0x00\n              swap1\n              dup2\n              mstore\n                /* \"Project.sol\":3566:3582  status.approvals */\n              0x0c\n                /* \"Project.sol\":3566:3594  status.approvals[msg.sender] */\n              0x20\n              mstore\n              0x40\n              dup2\n              keccak256\n                /* \"Project.sol\":3597:3612  block.timestamp */\n              timestamp\n                /* \"Project.sol\":3566:3612  status.approvals[msg.sender] = block.timestamp */\n              swap1\n              sstore\n                /* \"Project.sol\":3622:3643  status.approvalsCount */\n              0x0b\n                /* \"Project.sol\":3622:3645  status.approvalsCount++ */\n              dup1\n              sload\n              swap2\n              tag_149\n              dup4\n              tag_150\n              jump\t// in\n            tag_149:\n              swap2\n              swap1\n              pop\n              sstore\n              pop\n                /* \"Project.sol\":3705:3706  2 */\n              0x02\n                /* \"Project.sol\":3685:3702  contributorsCount */\n              sload(0x07)\n                /* \"Project.sol\":3685:3706  contributorsCount / 2 */\n              tag_151\n              swap2\n              swap1\n              tag_152\n              jump\t// in\n            tag_151:\n                /* \"Project.sol\":3660:3681  status.approvalsCount */\n              sload(0x0b)\n                /* \"Project.sol\":3660:3707  status.approvalsCount > (contributorsCount / 2) */\n              gt\n                /* \"Project.sol\":3656:3805  if (status.approvalsCount > (contributorsCount / 2)) {... */\n              iszero\n              tag_153\n              jumpi\n                /* \"Project.sol\":3723:3729  status */\n              0x09\n                /* \"Project.sol\":3723:3745  status.approved = true */\n              dup1\n              sload\n              not(0xff)\n              and\n                /* \"Project.sol\":3741:3745  true */\n              0x01\n                /* \"Project.sol\":3723:3745  status.approved = true */\n              or\n              swap1\n              sstore\n                /* \"Project.sol\":3779:3794  block.timestamp */\n              timestamp\n                /* \"Project.sol\":3759:3776  status.approvedAt */\n              0x0a\n                /* \"Project.sol\":3759:3794  status.approvedAt = block.timestamp */\n              sstore\n                /* \"Project.sol\":3656:3805  if (status.approvalsCount > (contributorsCount / 2)) {... */\n            tag_153:\n                /* \"Project.sol\":2943:3811  function approve() public {... */\n              jump\t// out\n                /* \"Project.sol\":7091:7584  function rewardMilestone(uint index, string memory tokenURI) public {... */\n            tag_38:\n                /* \"Project.sol\":7169:7197  Model.Status storage mStatus */\n              0x00\n                /* \"Project.sol\":7200:7217  milestoneStatuses */\n              0x11\n                /* \"Project.sol\":7218:7223  index */\n              dup4\n                /* \"Project.sol\":7200:7224  milestoneStatuses[index] */\n              dup2\n              sload\n              dup2\n              lt\n              tag_156\n              jumpi\n              tag_156\n              tag_146\n              jump\t// in\n            tag_156:\n              0x00\n              swap2\n              dup3\n              mstore\n              0x20\n              dup1\n              dup4\n              keccak256\n                /* \"Project.sol\":7328:7338  msg.sender */\n              caller\n                /* \"Project.sol\":7310:7339  mStatus.approvals[msg.sender] */\n              dup5\n              mstore\n                /* \"Project.sol\":7310:7327  mStatus.approvals */\n              0x03\n                /* \"Project.sol\":7200:7224  milestoneStatuses[index] */\n              0x07\n              swap1\n              swap4\n              mul\n              add\n                /* \"Project.sol\":7310:7327  mStatus.approvals */\n              swap2\n              dup3\n              add\n                /* \"Project.sol\":7310:7339  mStatus.approvals[msg.sender] */\n              swap1\n              mstore\n              0x40\n              swap1\n              swap2\n              keccak256\n              sload\n                /* \"Project.sol\":7200:7224  milestoneStatuses[index] */\n              swap1\n              swap2\n              pop\n                /* \"Project.sol\":7357:7369  approval > 0 */\n              dup1\n                /* \"Project.sol\":7349:7370  require(approval > 0) */\n              tag_158\n              jumpi\n              0x00\n              dup1\n              revert\n            tag_158:\n                /* \"Project.sol\":7476:7486  msg.sender */\n              caller\n                /* \"Project.sol\":7460:7487  mStatus.rewards[msg.sender] */\n              0x00\n              swap1\n              dup2\n              mstore\n                /* \"Project.sol\":7460:7475  mStatus.rewards */\n              0x06\n              dup4\n              add\n                /* \"Project.sol\":7460:7487  mStatus.rewards[msg.sender] */\n              0x20\n              mstore\n              0x40\n              swap1\n              keccak256\n              sload\n              0xff\n              and\n                /* \"Project.sol\":7459:7487  !mStatus.rewards[msg.sender] */\n              iszero\n                /* \"Project.sol\":7451:7488  require(!mStatus.rewards[msg.sender]) */\n              tag_159\n              jumpi\n              0x00\n              dup1\n              revert\n            tag_159:\n                /* \"Project.sol\":7515:7525  msg.sender */\n              caller\n                /* \"Project.sol\":7499:7526  mStatus.rewards[msg.sender] */\n              0x00\n              dup2\n              dup2\n              mstore\n                /* \"Project.sol\":7499:7514  mStatus.rewards */\n              0x06\n              dup5\n              add\n                /* \"Project.sol\":7499:7526  mStatus.rewards[msg.sender] */\n              0x20\n              mstore\n              0x40\n              swap1\n              dup2\n              swap1\n              keccak256\n                /* \"Project.sol\":7499:7533  mStatus.rewards[msg.sender] = true */\n              dup1\n              sload\n              not(0xff)\n              and\n                /* \"Project.sol\":7529:7533  true */\n              0x01\n                /* \"Project.sol\":7499:7533  mStatus.rewards[msg.sender] = true */\n              or\n              swap1\n              sstore\n                /* \"Project.sol\":7543:7546  nft */\n              sload(0x12)\n                /* \"Project.sol\":7543:7577  nft.safeMint(msg.sender, tokenURI) */\n              swap1\n              mload\n              shl(0xe1, 0x6902622f)\n              dup2\n              mstore\n              sub(shl(0xa0, 0x01), 0x01)\n                /* \"Project.sol\":7543:7546  nft */\n              swap2\n              swap1\n              swap2\n              and\n              swap2\n                /* \"Project.sol\":7543:7555  nft.safeMint */\n              0xd204c45e\n              swap2\n                /* \"Project.sol\":7543:7577  nft.safeMint(msg.sender, tokenURI) */\n              tag_160\n              swap2\n                /* \"Project.sol\":7515:7525  msg.sender */\n              swap1\n                /* \"Project.sol\":7568:7576  tokenURI */\n              dup8\n              swap1\n                /* \"Project.sol\":7543:7577  nft.safeMint(msg.sender, tokenURI) */\n              0x04\n              add\n              tag_161\n              jump\t// in\n            tag_160:\n              0x00\n              mload(0x40)\n              dup1\n              dup4\n              sub\n              dup2\n              0x00\n              dup8\n              dup1\n              extcodesize\n              iszero\n              dup1\n              iszero\n              tag_162\n              jumpi\n              0x00\n              dup1\n              revert\n            tag_162:\n              pop\n              gas\n              call\n              iszero\n              dup1\n              iszero\n              tag_164\n              jumpi\n              returndatasize\n              0x00\n              dup1\n              returndatacopy\n              revert(0x00, returndatasize)\n            tag_164:\n              pop\n              pop\n              pop\n              pop\n                /* \"Project.sol\":7159:7584  {... */\n              pop\n              pop\n                /* \"Project.sol\":7091:7584  function rewardMilestone(uint index, string memory tokenURI) public {... */\n              pop\n              pop\n              jump\t// out\n                /* \"Project.sol\":3817:4269  function reward(string memory tokenURI) public {... */\n            tag_54:\n                /* \"Project.sol\":3882:3888  status */\n              0x09\n                /* \"Project.sol\":3882:3897  status.approved */\n              sload\n              0xff\n              and\n                /* \"Project.sol\":3874:3898  require(status.approved) */\n              tag_166\n              jumpi\n              0x00\n              dup1\n              revert\n            tag_166:\n                /* \"Project.sol\":4011:4021  msg.sender */\n              caller\n                /* \"Project.sol\":3978:3991  uint approval */\n              0x00\n                /* \"Project.sol\":3994:4022  status.approvals[msg.sender] */\n              swap1\n              dup2\n              mstore\n                /* \"Project.sol\":3994:4010  status.approvals */\n              0x0c\n                /* \"Project.sol\":3994:4022  status.approvals[msg.sender] */\n              0x20\n              mstore\n              0x40\n              swap1\n              keccak256\n              sload\n                /* \"Project.sol\":4040:4052  approval > 0 */\n              dup1\n                /* \"Project.sol\":4032:4053  require(approval > 0) */\n              tag_167\n              jumpi\n              0x00\n              dup1\n              revert\n            tag_167:\n                /* \"Project.sol\":4162:4172  msg.sender */\n              caller\n                /* \"Project.sol\":4147:4173  status.rewards[msg.sender] */\n              0x00\n              swap1\n              dup2\n              mstore\n                /* \"Project.sol\":4147:4161  status.rewards */\n              0x0f\n                /* \"Project.sol\":4147:4173  status.rewards[msg.sender] */\n              0x20\n              mstore\n              0x40\n              swap1\n              keccak256\n              sload\n              0xff\n              and\n                /* \"Project.sol\":4146:4173  !status.rewards[msg.sender] */\n              iszero\n                /* \"Project.sol\":4138:4174  require(!status.rewards[msg.sender]) */\n              tag_168\n              jumpi\n              0x00\n              dup1\n              revert\n            tag_168:\n                /* \"Project.sol\":4200:4210  msg.sender */\n              caller\n                /* \"Project.sol\":4185:4211  status.rewards[msg.sender] */\n              0x00\n              dup2\n              dup2\n              mstore\n                /* \"Project.sol\":4185:4199  status.rewards */\n              0x0f\n                /* \"Project.sol\":4185:4211  status.rewards[msg.sender] */\n              0x20\n              mstore\n              0x40\n              swap1\n              dup2\n              swap1\n              keccak256\n                /* \"Project.sol\":4185:4218  status.rewards[msg.sender] = true */\n              dup1\n              sload\n              not(0xff)\n              and\n                /* \"Project.sol\":4214:4218  true */\n              0x01\n                /* \"Project.sol\":4185:4218  status.rewards[msg.sender] = true */\n              or\n              swap1\n              sstore\n                /* \"Project.sol\":4228:4231  nft */\n              sload(0x12)\n                /* \"Project.sol\":4228:4262  nft.safeMint(msg.sender, tokenURI) */\n              swap1\n              mload\n              shl(0xe1, 0x6902622f)\n              dup2\n              mstore\n              sub(shl(0xa0, 0x01), 0x01)\n                /* \"Project.sol\":4228:4231  nft */\n              swap2\n              swap1\n              swap2\n              and\n              swap2\n                /* \"Project.sol\":4228:4240  nft.safeMint */\n              0xd204c45e\n              swap2\n                /* \"Project.sol\":4228:4262  nft.safeMint(msg.sender, tokenURI) */\n              tag_169\n              swap2\n                /* \"Project.sol\":4200:4210  msg.sender */\n              swap1\n                /* \"Project.sol\":4253:4261  tokenURI */\n              dup7\n              swap1\n                /* \"Project.sol\":4228:4262  nft.safeMint(msg.sender, tokenURI) */\n              0x04\n              add\n              tag_161\n              jump\t// in\n            tag_169:\n              0x00\n              mload(0x40)\n              dup1\n              dup4\n              sub\n              dup2\n              0x00\n              dup8\n              dup1\n              extcodesize\n              iszero\n              dup1\n              iszero\n              tag_170\n              jumpi\n              0x00\n              dup1\n              revert\n            tag_170:\n              pop\n              gas\n              call\n              iszero\n              dup1\n              iszero\n              tag_172\n              jumpi\n              returndatasize\n              0x00\n              dup1\n              returndatacopy\n              revert(0x00, returndatasize)\n            tag_172:\n              pop\n              pop\n              pop\n              pop\n                /* \"Project.sol\":3864:4269  {... */\n              pop\n                /* \"Project.sol\":3817:4269  function reward(string memory tokenURI) public {... */\n              pop\n              jump\t// out\n                /* \"Project.sol\":4948:5447  function createMilestones(... */\n            tag_63:\n                /* \"Project.sol\":722:727  owner */\n              and(sub(shl(0xa0, 0x01), 0x01), sload(0x01))\n                /* \"Project.sol\":708:718  msg.sender */\n              caller\n                /* \"Project.sol\":708:727  msg.sender == owner */\n              eq\n                /* \"Project.sol\":700:728  require(msg.sender == owner) */\n              tag_174\n              jumpi\n              0x00\n              dup1\n              revert\n            tag_174:\n                /* \"Project.sol\":5211:5221  thresholds */\n              dup2\n                /* \"Project.sol\":5211:5228  thresholds.length */\n              mload\n                /* \"Project.sol\":5188:5200  descriptions */\n              dup4\n                /* \"Project.sol\":5188:5207  descriptions.length */\n              mload\n                /* \"Project.sol\":5188:5228  descriptions.length == thresholds.length */\n              eq\n                /* \"Project.sol\":5188:5286  descriptions.length == thresholds.length &&... */\n              dup1\n              iszero\n              tag_176\n              jumpi\n              pop\n                /* \"Project.sol\":5269:5279  recipients */\n              dup1\n                /* \"Project.sol\":5269:5286  recipients.length */\n              mload\n                /* \"Project.sol\":5248:5258  thresholds */\n              dup3\n                /* \"Project.sol\":5248:5265  thresholds.length */\n              mload\n                /* \"Project.sol\":5248:5286  thresholds.length == recipients.length */\n              eq\n                /* \"Project.sol\":5188:5286  descriptions.length == thresholds.length &&... */\n            tag_176:\n                /* \"Project.sol\":5167:5296  require(... */\n              tag_177\n              jumpi\n              0x00\n              dup1\n              revert\n            tag_177:\n                /* \"Project.sol\":5312:5318  uint i */\n              0x00\n                /* \"Project.sol\":5307:5441  for (uint i = 0; i < descriptions.length; i++) {... */\n            tag_178:\n                /* \"Project.sol\":5328:5340  descriptions */\n              dup4\n                /* \"Project.sol\":5328:5347  descriptions.length */\n              mload\n                /* \"Project.sol\":5324:5325  i */\n              dup2\n                /* \"Project.sol\":5324:5347  i < descriptions.length */\n              lt\n                /* \"Project.sol\":5307:5441  for (uint i = 0; i < descriptions.length; i++) {... */\n              iszero\n              tag_179\n              jumpi\n                /* \"Project.sol\":5368:5430  createMilestone(descriptions[i], thresholds[i], recipients[i]) */\n              tag_181\n                /* \"Project.sol\":5384:5396  descriptions */\n              dup5\n                /* \"Project.sol\":5397:5398  i */\n              dup3\n                /* \"Project.sol\":5384:5399  descriptions[i] */\n              dup2\n              mload\n              dup2\n              lt\n              tag_183\n              jumpi\n              tag_183\n              tag_146\n              jump\t// in\n            tag_183:\n              0x20\n              mul\n              0x20\n              add\n              add\n              mload\n                /* \"Project.sol\":5401:5411  thresholds */\n              dup5\n                /* \"Project.sol\":5412:5413  i */\n              dup4\n                /* \"Project.sol\":5401:5414  thresholds[i] */\n              dup2\n              mload\n              dup2\n              lt\n              tag_185\n              jumpi\n              tag_185\n              tag_146\n              jump\t// in\n            tag_185:\n              0x20\n              mul\n              0x20\n              add\n              add\n              mload\n                /* \"Project.sol\":5416:5426  recipients */\n              dup5\n                /* \"Project.sol\":5427:5428  i */\n              dup5\n                /* \"Project.sol\":5416:5429  recipients[i] */\n              dup2\n              mload\n              dup2\n              lt\n              tag_187\n              jumpi\n              tag_187\n              tag_146\n              jump\t// in\n            tag_187:\n              0x20\n              mul\n              0x20\n              add\n              add\n              mload\n                /* \"Project.sol\":5368:5383  createMilestone */\n              tag_113\n                /* \"Project.sol\":5368:5430  createMilestone(descriptions[i], thresholds[i], recipients[i]) */\n              jump\t// in\n            tag_181:\n                /* \"Project.sol\":5349:5352  i++ */\n              0x01\n              add\n                /* \"Project.sol\":5307:5441  for (uint i = 0; i < descriptions.length; i++) {... */\n              jump(tag_178)\n            tag_179:\n              pop\n                /* \"Project.sol\":4948:5447  function createMilestones(... */\n              pop\n              pop\n              pop\n              jump\t// out\n                /* \"Project.sol\":4275:4745  function withdraw() public restricted {... */\n            tag_66:\n                /* \"Project.sol\":722:727  owner */\n              and(sub(shl(0xa0, 0x01), 0x01), sload(0x01))\n                /* \"Project.sol\":708:718  msg.sender */\n              caller\n                /* \"Project.sol\":708:727  msg.sender == owner */\n              eq\n                /* \"Project.sol\":700:728  require(msg.sender == owner) */\n              tag_189\n              jumpi\n              0x00\n              dup1\n              revert\n            tag_189:\n                /* \"Project.sol\":4466:4472  status */\n              0x09\n                /* \"Project.sol\":4466:4481  status.approved */\n              sload\n              0xff\n              and\n                /* \"Project.sol\":4458:4482  require(status.approved) */\n              tag_191\n              jumpi\n              0x00\n              dup1\n              revert\n            tag_191:\n                /* \"Project.sol\":4497:4503  uint i */\n              0x00\n                /* \"Project.sol\":4492:4608  for (uint i = 0; i < milestoneStatuses.length; i++) {... */\n            tag_192:\n                /* \"Project.sol\":4513:4530  milestoneStatuses */\n              0x11\n                /* \"Project.sol\":4513:4537  milestoneStatuses.length */\n              sload\n                /* \"Project.sol\":4509:4537  i < milestoneStatuses.length */\n              dup2\n              lt\n                /* \"Project.sol\":4492:4608  for (uint i = 0; i < milestoneStatuses.length; i++) {... */\n              iszero\n              tag_193\n              jumpi\n                /* \"Project.sol\":4566:4583  milestoneStatuses */\n              0x11\n                /* \"Project.sol\":4584:4585  i */\n              dup2\n                /* \"Project.sol\":4566:4586  milestoneStatuses[i] */\n              dup2\n              sload\n              dup2\n              lt\n              tag_196\n              jumpi\n              tag_196\n              tag_146\n              jump\t// in\n            tag_196:\n              0x00\n              swap2\n              dup3\n              mstore\n              0x20\n              swap1\n              swap2\n              keccak256\n                /* \"Project.sol\":4566:4596  milestoneStatuses[i].completed */\n              0x04\n                /* \"Project.sol\":4566:4586  milestoneStatuses[i] */\n              0x07\n              swap1\n              swap3\n              mul\n              add\n                /* \"Project.sol\":4566:4596  milestoneStatuses[i].completed */\n              add\n              sload\n              0xff\n              and\n                /* \"Project.sol\":4558:4597  require(milestoneStatuses[i].completed) */\n              tag_198\n              jumpi\n              0x00\n              dup1\n              revert\n            tag_198:\n                /* \"Project.sol\":4539:4542  i++ */\n              0x01\n              add\n                /* \"Project.sol\":4492:4608  for (uint i = 0; i < milestoneStatuses.length; i++) {... */\n              jump(tag_192)\n            tag_193:\n              pop\n                /* \"Project.sol\":4618:4627  recipient */\n              sload(0x02)\n                /* \"Project.sol\":4618:4659  recipient.transfer(address(this).balance) */\n              mload(0x40)\n              sub(shl(0xa0, 0x01), 0x01)\n                /* \"Project.sol\":4618:4627  recipient */\n              swap1\n              swap2\n              and\n              swap1\n                /* \"Project.sol\":4637:4658  address(this).balance */\n              selfbalance\n                /* \"Project.sol\":4618:4659  recipient.transfer(address(this).balance) */\n              dup1\n              iszero\n              0x08fc\n              mul\n              swap2\n                /* \"Project.sol\":4618:4627  recipient */\n              0x00\n                /* \"Project.sol\":4618:4659  recipient.transfer(address(this).balance) */\n              dup2\n                /* \"Project.sol\":4618:4627  recipient */\n              dup2\n                /* \"Project.sol\":4618:4659  recipient.transfer(address(this).balance) */\n              dup2\n                /* \"Project.sol\":4637:4658  address(this).balance */\n              dup6\n                /* \"Project.sol\":4618:4627  recipient */\n              dup9\n                /* \"Project.sol\":4618:4659  recipient.transfer(address(this).balance) */\n              dup9\n              call\n              swap4\n              pop\n              pop\n              pop\n              pop\n              iszero\n              dup1\n              iszero\n              tag_200\n              jumpi\n              returndatasize\n              0x00\n              dup1\n              returndatacopy\n              revert(0x00, returndatasize)\n            tag_200:\n              pop\n                /* \"Project.sol\":4669:4685  status.completed */\n              0x0d\n                /* \"Project.sol\":4669:4692  status.completed = true */\n              dup1\n              sload\n              not(0xff)\n              and\n                /* \"Project.sol\":4688:4692  true */\n              0x01\n                /* \"Project.sol\":4669:4692  status.completed = true */\n              or\n              swap1\n              sstore\n                /* \"Project.sol\":4723:4738  block.timestamp */\n              timestamp\n                /* \"Project.sol\":4702:4720  status.completedAt */\n              0x0e\n                /* \"Project.sol\":4702:4738  status.completedAt = block.timestamp */\n              sstore\n                /* \"Project.sol\":4275:4745  function withdraw() public restricted {... */\n              jump\t// out\n                /* \"Project.sol\":1505:2198  function getSummary()... */\n            tag_69:\n                /* \"Project.sol\":1585:1589  uint */\n              0x00\n                /* \"Project.sol\":1603:1610  address */\n              dup1\n                /* \"Project.sol\":1624:1637  string memory */\n              0x60\n                /* \"Project.sol\":1651:1655  uint */\n              0x00\n                /* \"Project.sol\":1669:1673  uint */\n              dup1\n                /* \"Project.sol\":1687:1691  uint */\n              0x00\n                /* \"Project.sol\":1705:1709  uint */\n              dup1\n                /* \"Project.sol\":1723:1727  bool */\n              0x00\n                /* \"Project.sol\":1741:1745  uint */\n              dup1\n                /* \"Project.sol\":1759:1763  uint */\n              0x00\n                /* \"Project.sol\":1777:1781  bool */\n              dup1\n                /* \"Project.sol\":1795:1799  uint */\n              0x00\n                /* \"Project.sol\":1845:1866  address(this).balance */\n              selfbalance\n                /* \"Project.sol\":1880:1889  recipient */\n              0x02\n              0x00\n              swap1\n              sload\n              swap1\n              0x0100\n              exp\n              swap1\n              div\n              sub(shl(0xa0, 0x01), 0x01)\n              and\n                /* \"Project.sol\":1903:1906  cid */\n              0x03\n                /* \"Project.sol\":1920:1939  minimumContribution */\n              sload(0x04)\n                /* \"Project.sol\":1953:1971  targetContribution */\n              sload(0x05)\n                /* \"Project.sol\":1985:1993  deadline */\n              sload(0x06)\n                /* \"Project.sol\":2007:2024  contributorsCount */\n              sload(0x07)\n                /* \"Project.sol\":2038:2044  status */\n              0x09\n                /* \"Project.sol\":2038:2053  status.approved */\n              0x00\n              add\n              0x00\n              swap1\n              sload\n              swap1\n              0x0100\n              exp\n              swap1\n              div\n              0xff\n              and\n                /* \"Project.sol\":2067:2073  status */\n              0x09\n                /* \"Project.sol\":2067:2084  status.approvedAt */\n              0x01\n              add\n              sload\n                /* \"Project.sol\":2098:2104  status */\n              0x09\n                /* \"Project.sol\":2098:2119  status.approvalsCount */\n              0x02\n              add\n              sload\n                /* \"Project.sol\":2133:2139  status */\n              0x09\n                /* \"Project.sol\":2133:2149  status.completed */\n              0x04\n              add\n              0x00\n              swap1\n              sload\n              swap1\n              0x0100\n              exp\n              swap1\n              div\n              0xff\n              and\n                /* \"Project.sol\":2163:2169  status */\n              0x09\n                /* \"Project.sol\":2163:2181  status.completedAt */\n              0x05\n              add\n              sload\n                /* \"Project.sol\":1824:2191  return (... */\n              dup10\n              dup1\n              sload\n              tag_202\n              swap1\n              tag_203\n              jump\t// in\n            tag_202:\n              dup1\n              0x1f\n              add\n              0x20\n              dup1\n              swap2\n              div\n              mul\n              0x20\n              add\n              mload(0x40)\n              swap1\n              dup2\n              add\n              0x40\n              mstore\n              dup1\n              swap3\n              swap2\n              swap1\n              dup2\n              dup2\n              mstore\n              0x20\n              add\n              dup3\n              dup1\n              sload\n              tag_204\n              swap1\n              tag_203\n              jump\t// in\n            tag_204:\n              dup1\n              iszero\n              tag_205\n              jumpi\n              dup1\n              0x1f\n              lt\n              tag_206\n              jumpi\n              0x0100\n              dup1\n              dup4\n              sload\n              div\n              mul\n              dup4\n              mstore\n              swap2\n              0x20\n              add\n              swap2\n              jump(tag_205)\n            tag_206:\n              dup3\n              add\n              swap2\n              swap1\n              0x00\n              mstore\n              keccak256(0x00, 0x20)\n              swap1\n            tag_207:\n              dup2\n              sload\n              dup2\n              mstore\n              swap1\n              0x01\n              add\n              swap1\n              0x20\n              add\n              dup1\n              dup4\n              gt\n              tag_207\n              jumpi\n              dup3\n              swap1\n              sub\n              0x1f\n              and\n              dup3\n              add\n              swap2\n            tag_205:\n              pop\n              pop\n              pop\n              pop\n              pop\n              swap10\n              pop\n              swap12\n              pop\n              swap12\n              pop\n              swap12\n              pop\n              swap12\n              pop\n              swap12\n              pop\n              swap12\n              pop\n              swap12\n              pop\n              swap12\n              pop\n              swap12\n              pop\n              swap12\n              pop\n              swap12\n              pop\n              swap12\n              pop\n                /* \"Project.sol\":1505:2198  function getSummary()... */\n              swap1\n              swap2\n              swap3\n              swap4\n              swap5\n              swap6\n              swap7\n              swap8\n              swap9\n              swap10\n              swap11\n              swap12\n              jump\t// out\n                /* \"Project.sol\":280:297  string public cid */\n            tag_97:\n              0x03\n              dup1\n              sload\n              tag_208\n              swap1\n              tag_203\n              jump\t// in\n            tag_208:\n              dup1\n              0x1f\n              add\n              0x20\n              dup1\n              swap2\n              div\n              mul\n              0x20\n              add\n              mload(0x40)\n              swap1\n              dup2\n              add\n              0x40\n              mstore\n              dup1\n              swap3\n              swap2\n              swap1\n              dup2\n              dup2\n              mstore\n              0x20\n              add\n              dup3\n              dup1\n              sload\n              tag_209\n              swap1\n              tag_203\n              jump\t// in\n            tag_209:\n              dup1\n              iszero\n              tag_210\n              jumpi\n              dup1\n              0x1f\n              lt\n              tag_211\n              jumpi\n              0x0100\n              dup1\n              dup4\n              sload\n              div\n              mul\n              dup4\n              mstore\n              swap2\n              0x20\n              add\n              swap2\n              jump(tag_210)\n            tag_211:\n              dup3\n              add\n              swap2\n              swap1\n              0x00\n              mstore\n              keccak256(0x00, 0x20)\n              swap1\n            tag_212:\n              dup2\n              sload\n              dup2\n              mstore\n              swap1\n              0x01\n              add\n              swap1\n              0x20\n              add\n              dup1\n              dup4\n              gt\n              tag_212\n              jumpi\n              dup3\n              swap1\n              sub\n              0x1f\n              and\n              dup3\n              add\n              swap2\n            tag_210:\n              pop\n              pop\n              pop\n              pop\n              pop\n              dup2\n              jump\t// out\n                /* \"Project.sol\":6293:7085  function approveMilestone(uint index) public {... */\n            tag_108:\n                /* \"Project.sol\":6348:6381  Model.Milestone storage milestone */\n              0x00\n                /* \"Project.sol\":6384:6394  milestones */\n              0x10\n                /* \"Project.sol\":6395:6400  index */\n              dup3\n                /* \"Project.sol\":6384:6401  milestones[index] */\n              dup2\n              sload\n              dup2\n              lt\n              tag_215\n              jumpi\n              tag_215\n              tag_146\n              jump\t// in\n            tag_215:\n              swap1\n              0x00\n              mstore\n              keccak256(0x00, 0x20)\n              swap1\n              0x03\n              mul\n              add\n                /* \"Project.sol\":6348:6401  Model.Milestone storage milestone = milestones[index] */\n              swap1\n              pop\n                /* \"Project.sol\":6411:6439  Model.Status storage mStatus */\n              0x00\n                /* \"Project.sol\":6442:6459  milestoneStatuses */\n              0x11\n                /* \"Project.sol\":6460:6465  index */\n              dup4\n                /* \"Project.sol\":6442:6466  milestoneStatuses[index] */\n              dup2\n              sload\n              dup2\n              lt\n              tag_218\n              jumpi\n              tag_218\n              tag_146\n              jump\t// in\n            tag_218:\n              swap1\n              0x00\n              mstore\n              keccak256(0x00, 0x20)\n              swap1\n              0x07\n              mul\n              add\n                /* \"Project.sol\":6411:6466  Model.Status storage mStatus = milestoneStatuses[index] */\n              swap1\n              pop\n                /* \"Project.sol\":6574:6583  milestone */\n              dup2\n                /* \"Project.sol\":6574:6593  milestone.threshold */\n              0x02\n              add\n              sload\n                /* \"Project.sol\":6549:6570  address(this).balance */\n              selfbalance\n                /* \"Project.sol\":6549:6593  address(this).balance >= milestone.threshold */\n              lt\n              iszero\n                /* \"Project.sol\":6541:6594  require(address(this).balance >= milestone.threshold) */\n              tag_220\n              jumpi\n              0x00\n              dup1\n              revert\n            tag_220:\n                /* \"Project.sol\":6688:6698  msg.sender */\n              caller\n                /* \"Project.sol\":6702:6703  0 */\n              0x00\n                /* \"Project.sol\":6675:6699  contributors[msg.sender] */\n              swap1\n              dup2\n              mstore\n                /* \"Project.sol\":6675:6687  contributors */\n              0x08\n                /* \"Project.sol\":6675:6699  contributors[msg.sender] */\n              0x20\n              mstore\n              0x40\n              swap1\n              keccak256\n              sload\n                /* \"Project.sol\":6667:6704  require(contributors[msg.sender] > 0) */\n              tag_221\n              jumpi\n              0x00\n              dup1\n              revert\n            tag_221:\n                /* \"Project.sol\":6807:6817  msg.sender */\n              caller\n                /* \"Project.sol\":6789:6818  mStatus.approvals[msg.sender] */\n              0x00\n              swap1\n              dup2\n              mstore\n                /* \"Project.sol\":6789:6806  mStatus.approvals */\n              0x03\n              dup3\n              add\n                /* \"Project.sol\":6789:6818  mStatus.approvals[msg.sender] */\n              0x20\n              mstore\n              0x40\n              swap1\n              keccak256\n              sload\n                /* \"Project.sol\":6789:6823  mStatus.approvals[msg.sender] == 0 */\n              iszero\n                /* \"Project.sol\":6781:6824  require(mStatus.approvals[msg.sender] == 0) */\n              tag_222\n              jumpi\n              0x00\n              dup1\n              revert\n            tag_222:\n                /* \"Project.sol\":6853:6863  msg.sender */\n              caller\n                /* \"Project.sol\":6835:6864  mStatus.approvals[msg.sender] */\n              0x00\n              swap1\n              dup2\n              mstore\n                /* \"Project.sol\":6835:6852  mStatus.approvals */\n              0x03\n              dup3\n              add\n                /* \"Project.sol\":6835:6864  mStatus.approvals[msg.sender] */\n              0x20\n              mstore\n              0x40\n              dup2\n              keccak256\n                /* \"Project.sol\":6867:6882  block.timestamp */\n              timestamp\n                /* \"Project.sol\":6835:6882  mStatus.approvals[msg.sender] = block.timestamp */\n              swap1\n              sstore\n                /* \"Project.sol\":6892:6914  mStatus.approvalsCount */\n              0x02\n              dup3\n              add\n                /* \"Project.sol\":6892:6916  mStatus.approvalsCount++ */\n              dup1\n              sload\n              swap2\n              tag_223\n              dup4\n              tag_150\n              jump\t// in\n            tag_223:\n              swap2\n              swap1\n              pop\n              sstore\n              pop\n                /* \"Project.sol\":6977:6978  2 */\n              0x02\n                /* \"Project.sol\":6957:6974  contributorsCount */\n              sload(0x07)\n                /* \"Project.sol\":6957:6978  contributorsCount / 2 */\n              tag_224\n              swap2\n              swap1\n              tag_152\n              jump\t// in\n            tag_224:\n                /* \"Project.sol\":6931:6938  mStatus */\n              dup2\n                /* \"Project.sol\":6931:6953  mStatus.approvalsCount */\n              0x02\n              add\n              sload\n                /* \"Project.sol\":6931:6979  mStatus.approvalsCount > (contributorsCount / 2) */\n              gt\n                /* \"Project.sol\":6927:7079  if (mStatus.approvalsCount > (contributorsCount / 2)) {... */\n              iszero\n              tag_225\n              jumpi\n                /* \"Project.sol\":6995:7018  mStatus.approved = true */\n              dup1\n              sload\n              not(0xff)\n              and\n                /* \"Project.sol\":7014:7018  true */\n              0x01\n                /* \"Project.sol\":6995:7018  mStatus.approved = true */\n              swap1\n              dup2\n              or\n              dup3\n              sstore\n                /* \"Project.sol\":7053:7068  block.timestamp */\n              timestamp\n                /* \"Project.sol\":7032:7050  mStatus.approvedAt */\n              swap1\n              dup3\n              add\n                /* \"Project.sol\":7032:7068  mStatus.approvedAt = block.timestamp */\n              sstore\n                /* \"Project.sol\":6927:7079  if (mStatus.approvalsCount > (contributorsCount / 2)) {... */\n            tag_225:\n                /* \"Project.sol\":6338:7085  {... */\n              pop\n              pop\n                /* \"Project.sol\":6293:7085  function approveMilestone(uint index) public {... */\n              pop\n              jump\t// out\n                /* \"Project.sol\":5453:6287  function createMilestone(... */\n            tag_113:\n                /* \"Project.sol\":722:727  owner */\n              and(sub(shl(0xa0, 0x01), 0x01), sload(0x01))\n                /* \"Project.sol\":708:718  msg.sender */\n              caller\n                /* \"Project.sol\":708:727  msg.sender == owner */\n              eq\n                /* \"Project.sol\":700:728  require(msg.sender == owner) */\n              tag_227\n              jumpi\n              0x00\n              dup1\n              revert\n            tag_227:\n                /* \"Project.sol\":5638:5639  0 */\n              0x00\n                /* \"Project.sol\":5615:5627  _description */\n              dup4\n                /* \"Project.sol\":5609:5635  bytes(_description).length */\n              mload\n                /* \"Project.sol\":5609:5639  bytes(_description).length > 0 */\n              gt\n                /* \"Project.sol\":5601:5640  require(bytes(_description).length > 0) */\n              tag_229\n              jumpi\n              0x00\n              dup1\n              revert\n            tag_229:\n                /* \"Project.sol\":5671:5672  0 */\n              0x00\n                /* \"Project.sol\":5658:5668  _threshold */\n              dup3\n                /* \"Project.sol\":5658:5672  _threshold > 0 */\n              gt\n                /* \"Project.sol\":5650:5673  require(_threshold > 0) */\n              tag_230\n              jumpi\n              0x00\n              dup1\n              revert\n            tag_230:\n                /* \"Project.sol\":5704:5722  targetContribution */\n              sload(0x05)\n                /* \"Project.sol\":5691:5701  _threshold */\n              dup3\n                /* \"Project.sol\":5691:5722  _threshold < targetContribution */\n              lt\n                /* \"Project.sol\":5683:5723  require(_threshold < targetContribution) */\n              tag_231\n              jumpi\n              0x00\n              dup1\n              revert\n            tag_231:\n              sub(shl(0xa0, 0x01), 0x01)\n                /* \"Project.sol\":5741:5765  _recipient != address(0) */\n              dup2\n              and\n                /* \"Project.sol\":5733:5766  require(_recipient != address(0)) */\n              tag_232\n              jumpi\n              0x00\n              dup1\n              revert\n            tag_232:\n                /* \"Project.sol\":5919:5929  milestones */\n              0x10\n                /* \"Project.sol\":5919:5936  milestones.length */\n              sload\n                /* \"Project.sol\":5919:5940  milestones.length > 0 */\n              iszero\n                /* \"Project.sol\":5915:6032  if (milestones.length > 0) {... */\n              tag_239\n              jumpi\n                /* \"Project.sol\":5977:5987  milestones */\n              0x10\n                /* \"Project.sol\":5988:6005  milestones.length */\n              dup1\n              sload\n                /* \"Project.sol\":5988:6009  milestones.length - 1 */\n              tag_234\n              swap1\n                /* \"Project.sol\":6008:6009  1 */\n              0x01\n              swap1\n                /* \"Project.sol\":5988:6009  milestones.length - 1 */\n              tag_235\n              jump\t// in\n            tag_234:\n                /* \"Project.sol\":5977:6010  milestones[milestones.length - 1] */\n              dup2\n              sload\n              dup2\n              lt\n              tag_237\n              jumpi\n              tag_237\n              tag_146\n              jump\t// in\n            tag_237:\n              swap1\n              0x00\n              mstore\n              keccak256(0x00, 0x20)\n              swap1\n              0x03\n              mul\n              add\n                /* \"Project.sol\":5977:6020  milestones[milestones.length - 1].threshold */\n              0x02\n              add\n              sload\n                /* \"Project.sol\":5964:5974  _threshold */\n              dup3\n                /* \"Project.sol\":5964:6020  _threshold > milestones[milestones.length - 1].threshold */\n              gt\n                /* \"Project.sol\":5956:6021  require(_threshold > milestones[milestones.length - 1].threshold) */\n              tag_239\n              jumpi\n              0x00\n              dup1\n              revert\n            tag_239:\n                /* \"Project.sol\":6081:6091  milestones */\n              0x10\n                /* \"Project.sol\":6081:6098  milestones.push() */\n              dup1\n              sload\n              0x01\n              dup2\n              add\n              dup3\n              sstore\n                /* \"Project.sol\":6042:6078  Model.Milestone storage newMilestone */\n              0x00\n                /* \"Project.sol\":6081:6098  milestones.push() */\n              swap2\n              swap1\n              swap2\n              mstore\n              0x03\n              mul\n              0x1b6847dc741a1b0cd08d278845f9d819d87b734759afb55fe2de5cb82a9ae672\n              dup2\n              add\n              swap1\n                /* \"Project.sol\":6108:6132  newMilestone.description */\n              0x1b6847dc741a1b0cd08d278845f9d819d87b734759afb55fe2de5cb82a9ae673\n              add\n                /* \"Project.sol\":6108:6147  newMilestone.description = _description */\n              tag_241\n                /* \"Project.sol\":6135:6147  _description */\n              dup6\n                /* \"Project.sol\":6108:6132  newMilestone.description */\n              dup3\n                /* \"Project.sol\":6108:6147  newMilestone.description = _description */\n              tag_242\n              jump\t// in\n            tag_241:\n              pop\n                /* \"Project.sol\":6157:6179  newMilestone.threshold */\n              0x02\n              dup2\n              add\n                /* \"Project.sol\":6157:6192  newMilestone.threshold = _threshold */\n              swap3\n              swap1\n              swap3\n              sstore\n                /* \"Project.sol\":6202:6246  newMilestone.recipient = payable(_recipient) */\n              dup2\n              sload\n              not(sub(shl(0xa0, 0x01), 0x01))\n              and\n              sub(shl(0xa0, 0x01), 0x01)\n              swap2\n              swap1\n              swap2\n              and\n              or\n              swap1\n              sstore\n              pop\n                /* \"Project.sol\":6256:6273  milestoneStatuses */\n              0x11\n                /* \"Project.sol\":6256:6280  milestoneStatuses.push() */\n              dup1\n              sload\n              0x01\n              add\n              dup2\n              sstore\n              0x00\n              mstore\n                /* \"Project.sol\":5453:6287  function createMilestone(... */\n              jump\t// out\n                /* \"Project.sol\":2326:2937  function contribute() public payable {... */\n            tag_115:\n                /* \"Project.sol\":2488:2507  minimumContribution */\n              sload(0x04)\n                /* \"Project.sol\":2476:2485  msg.value */\n              callvalue\n                /* \"Project.sol\":2476:2507  msg.value > minimumContribution */\n              gt\n                /* \"Project.sol\":2468:2508  require(msg.value > minimumContribution) */\n              tag_245\n              jumpi\n              0x00\n              dup1\n              revert\n            tag_245:\n                /* \"Project.sol\":2632:2650  targetContribution */\n              sload(0x05)\n                /* \"Project.sol\":2620:2629  msg.value */\n              callvalue\n                /* \"Project.sol\":2620:2650  msg.value < targetContribution */\n              lt\n                /* \"Project.sol\":2612:2651  require(msg.value < targetContribution) */\n              tag_246\n              jumpi\n              0x00\n              dup1\n              revert\n            tag_246:\n                /* \"Project.sol\":2779:2787  deadline */\n              sload(0x06)\n                /* \"Project.sol\":2761:2776  block.timestamp */\n              timestamp\n                /* \"Project.sol\":2761:2787  block.timestamp < deadline */\n              lt\n                /* \"Project.sol\":2753:2788  require(block.timestamp < deadline) */\n              tag_247\n              jumpi\n              0x00\n              dup1\n              revert\n            tag_247:\n                /* \"Project.sol\":2816:2826  msg.sender */\n              caller\n                /* \"Project.sol\":2803:2827  contributors[msg.sender] */\n              0x00\n              swap1\n              dup2\n              mstore\n                /* \"Project.sol\":2803:2815  contributors */\n              0x08\n                /* \"Project.sol\":2803:2827  contributors[msg.sender] */\n              0x20\n              mstore\n              0x40\n              dup2\n              keccak256\n              sload\n                /* \"Project.sol\":2803:2832  contributors[msg.sender] == 0 */\n              swap1\n              sub\n                /* \"Project.sol\":2799:2878  if (contributors[msg.sender] == 0) {... */\n              tag_248\n              jumpi\n                /* \"Project.sol\":2848:2865  contributorsCount */\n              0x07\n                /* \"Project.sol\":2848:2867  contributorsCount++ */\n              dup1\n              sload\n              swap1\n                /* \"Project.sol\":2848:2865  contributorsCount */\n              0x00\n                /* \"Project.sol\":2848:2867  contributorsCount++ */\n              tag_249\n              dup4\n              tag_150\n              jump\t// in\n            tag_249:\n              swap2\n              swap1\n              pop\n              sstore\n              pop\n                /* \"Project.sol\":2799:2878  if (contributors[msg.sender] == 0) {... */\n            tag_248:\n                /* \"Project.sol\":2901:2911  msg.sender */\n              caller\n                /* \"Project.sol\":2888:2912  contributors[msg.sender] */\n              0x00\n              swap1\n              dup2\n              mstore\n                /* \"Project.sol\":2888:2900  contributors */\n              0x08\n                /* \"Project.sol\":2888:2912  contributors[msg.sender] */\n              0x20\n              mstore\n              0x40\n              swap1\n              keccak256\n                /* \"Project.sol\":2915:2930  block.timestamp */\n              timestamp\n                /* \"Project.sol\":2888:2930  contributors[msg.sender] = block.timestamp */\n              swap1\n              sstore\n                /* \"Project.sol\":2326:2937  function contribute() public payable {... */\n              jump\t// out\n                /* \"Project.sol\":553:588  Model.Milestone[] public milestones */\n            tag_124:\n              0x10\n              dup2\n              dup2\n              sload\n              dup2\n              lt\n              tag_251\n              jumpi\n              0x00\n              dup1\n              revert\n            tag_251:\n              0x00\n              swap2\n              dup3\n              mstore\n              0x20\n              swap1\n              swap2\n              keccak256\n              0x03\n              swap1\n              swap2\n              mul\n              add\n              dup1\n              sload\n              0x01\n              dup3\n              add\n              dup1\n              sload\n              sub(shl(0xa0, 0x01), 0x01)\n              swap1\n              swap3\n              and\n              swap4\n              pop\n              swap1\n              tag_253\n              swap1\n              tag_203\n              jump\t// in\n            tag_253:\n              dup1\n              0x1f\n              add\n              0x20\n              dup1\n              swap2\n              div\n              mul\n              0x20\n              add\n              mload(0x40)\n              swap1\n              dup2\n              add\n              0x40\n              mstore\n              dup1\n              swap3\n              swap2\n              swap1\n              dup2\n              dup2\n              mstore\n              0x20\n              add\n              dup3\n              dup1\n              sload\n              tag_254\n              swap1\n              tag_203\n              jump\t// in\n            tag_254:\n              dup1\n              iszero\n              tag_255\n              jumpi\n              dup1\n              0x1f\n              lt\n              tag_256\n              jumpi\n              0x0100\n              dup1\n              dup4\n              sload\n              div\n              mul\n              dup4\n              mstore\n              swap2\n              0x20\n              add\n              swap2\n              jump(tag_255)\n            tag_256:\n              dup3\n              add\n              swap2\n              swap1\n              0x00\n              mstore\n              keccak256(0x00, 0x20)\n              swap1\n            tag_257:\n              dup2\n              sload\n              dup2\n              mstore\n              swap1\n              0x01\n              add\n              swap1\n              0x20\n              add\n              dup1\n              dup4\n              gt\n              tag_257\n              jumpi\n              dup3\n              swap1\n              sub\n              0x1f\n              and\n              dup3\n              add\n              swap2\n            tag_255:\n              pop\n              pop\n              pop\n              pop\n              pop\n              swap1\n              dup1\n              0x02\n              add\n              sload\n              swap1\n              pop\n              dup4\n              jump\t// out\n                /* \"Project.sol\":7590:8577  function withdrawMilestone(uint index) public restricted {... */\n            tag_130:\n                /* \"Project.sol\":722:727  owner */\n              and(sub(shl(0xa0, 0x01), 0x01), sload(0x01))\n                /* \"Project.sol\":708:718  msg.sender */\n              caller\n                /* \"Project.sol\":708:727  msg.sender == owner */\n              eq\n                /* \"Project.sol\":700:728  require(msg.sender == owner) */\n              tag_259\n              jumpi\n              0x00\n              dup1\n              revert\n            tag_259:\n                /* \"Project.sol\":7720:7730  milestones */\n              0x10\n                /* \"Project.sol\":7720:7737  milestones.length */\n              sload\n                /* \"Project.sol\":7712:7737  index < milestones.length */\n              dup2\n              lt\n                /* \"Project.sol\":7704:7738  require(index < milestones.length) */\n              tag_261\n              jumpi\n              0x00\n              dup1\n              revert\n            tag_261:\n                /* \"Project.sol\":7749:7782  Model.Milestone storage milestone */\n              0x00\n                /* \"Project.sol\":7785:7795  milestones */\n              0x10\n                /* \"Project.sol\":7796:7801  index */\n              dup3\n                /* \"Project.sol\":7785:7802  milestones[index] */\n              dup2\n              sload\n              dup2\n              lt\n              tag_263\n              jumpi\n              tag_263\n              tag_146\n              jump\t// in\n            tag_263:\n              swap1\n              0x00\n              mstore\n              keccak256(0x00, 0x20)\n              swap1\n              0x03\n              mul\n              add\n                /* \"Project.sol\":7749:7802  Model.Milestone storage milestone = milestones[index] */\n              swap1\n              pop\n                /* \"Project.sol\":7812:7840  Model.Status storage mStatus */\n              0x00\n                /* \"Project.sol\":7843:7860  milestoneStatuses */\n              0x11\n                /* \"Project.sol\":7861:7866  index */\n              dup4\n                /* \"Project.sol\":7843:7867  milestoneStatuses[index] */\n              dup2\n              sload\n              dup2\n              lt\n              tag_266\n              jumpi\n              tag_266\n              tag_146\n              jump\t// in\n            tag_266:\n              0x00\n              swap2\n              dup3\n              mstore\n              0x20\n              swap1\n              swap2\n              keccak256\n              0x07\n              swap1\n              swap2\n              mul\n              add\n                /* \"Project.sol\":7965:7981  mStatus.approved */\n              dup1\n              sload\n                /* \"Project.sol\":7843:7867  milestoneStatuses[index] */\n              swap1\n              swap2\n              pop\n                /* \"Project.sol\":7965:7981  mStatus.approved */\n              0xff\n              and\n                /* \"Project.sol\":7957:7982  require(mStatus.approved) */\n              tag_268\n              jumpi\n              0x00\n              dup1\n              revert\n            tag_268:\n                /* \"Project.sol\":8179:8198  milestone.threshold */\n              0x02\n              dup3\n              add\n              sload\n                /* \"Project.sol\":8157:8176  uint withdrawAmount */\n              0x00\n                /* \"Project.sol\":8208:8435  for (uint i = 0; i < index; i++) {... */\n            tag_269:\n                /* \"Project.sol\":8229:8234  index */\n              dup5\n                /* \"Project.sol\":8225:8226  i */\n              dup2\n                /* \"Project.sol\":8225:8234  i < index */\n              lt\n                /* \"Project.sol\":8208:8435  for (uint i = 0; i < index; i++) {... */\n              iszero\n              tag_270\n              jumpi\n                /* \"Project.sol\":8322:8339  milestoneStatuses */\n              0x11\n                /* \"Project.sol\":8340:8341  i */\n              dup2\n                /* \"Project.sol\":8322:8342  milestoneStatuses[i] */\n              dup2\n              sload\n              dup2\n              lt\n              tag_273\n              jumpi\n              tag_273\n              tag_146\n              jump\t// in\n            tag_273:\n              0x00\n              swap2\n              dup3\n              mstore\n              0x20\n              swap1\n              swap2\n              keccak256\n                /* \"Project.sol\":8322:8352  milestoneStatuses[i].completed */\n              0x04\n                /* \"Project.sol\":8322:8342  milestoneStatuses[i] */\n              0x07\n              swap1\n              swap3\n              mul\n              add\n                /* \"Project.sol\":8322:8352  milestoneStatuses[i].completed */\n              add\n              sload\n              0xff\n              and\n                /* \"Project.sol\":8314:8353  require(milestoneStatuses[i].completed) */\n              tag_275\n              jumpi\n              0x00\n              dup1\n              revert\n            tag_275:\n                /* \"Project.sol\":8401:8411  milestones */\n              0x10\n                /* \"Project.sol\":8412:8413  i */\n              dup2\n                /* \"Project.sol\":8401:8414  milestones[i] */\n              dup2\n              sload\n              dup2\n              lt\n              tag_277\n              jumpi\n              tag_277\n              tag_146\n              jump\t// in\n            tag_277:\n              swap1\n              0x00\n              mstore\n              keccak256(0x00, 0x20)\n              swap1\n              0x03\n              mul\n              add\n                /* \"Project.sol\":8401:8424  milestones[i].threshold */\n              0x02\n              add\n              sload\n                /* \"Project.sol\":8384:8398  withdrawAmount */\n              dup3\n                /* \"Project.sol\":8384:8424  withdrawAmount - milestones[i].threshold */\n              tag_279\n              swap2\n              swap1\n              tag_235\n              jump\t// in\n            tag_279:\n                /* \"Project.sol\":8367:8424  withdrawAmount = withdrawAmount - milestones[i].threshold */\n              swap2\n              pop\n                /* \"Project.sol\":8236:8239  i++ */\n              0x01\n              add\n                /* \"Project.sol\":8208:8435  for (uint i = 0; i < index; i++) {... */\n              jump(tag_269)\n            tag_270:\n              pop\n                /* \"Project.sol\":8445:8464  milestone.recipient */\n              dup3\n              sload\n                /* \"Project.sol\":8445:8489  milestone.recipient.transfer(withdrawAmount) */\n              mload(0x40)\n              sub(shl(0xa0, 0x01), 0x01)\n                /* \"Project.sol\":8445:8464  milestone.recipient */\n              swap1\n              swap2\n              and\n              swap1\n                /* \"Project.sol\":8445:8489  milestone.recipient.transfer(withdrawAmount) */\n              dup3\n              iszero\n              0x08fc\n              mul\n              swap1\n                /* \"Project.sol\":8474:8488  withdrawAmount */\n              dup4\n              swap1\n                /* \"Project.sol\":8445:8464  milestone.recipient */\n              0x00\n                /* \"Project.sol\":8445:8489  milestone.recipient.transfer(withdrawAmount) */\n              dup2\n                /* \"Project.sol\":8445:8464  milestone.recipient */\n              dup2\n                /* \"Project.sol\":8445:8489  milestone.recipient.transfer(withdrawAmount) */\n              dup2\n                /* \"Project.sol\":8474:8488  withdrawAmount */\n              dup6\n                /* \"Project.sol\":8445:8464  milestone.recipient */\n              dup9\n                /* \"Project.sol\":8445:8489  milestone.recipient.transfer(withdrawAmount) */\n              dup9\n              call\n              swap4\n              pop\n              pop\n              pop\n              pop\n              iszero\n              dup1\n              iszero\n              tag_281\n              jumpi\n              returndatasize\n              0x00\n              dup1\n              returndatacopy\n              revert(0x00, returndatasize)\n            tag_281:\n              pop\n              pop\n                /* \"Project.sol\":8499:8516  mStatus.completed */\n              0x04\n              dup2\n              add\n                /* \"Project.sol\":8499:8523  mStatus.completed = true */\n              dup1\n              sload\n              not(0xff)\n              and\n                /* \"Project.sol\":8519:8523  true */\n              0x01\n                /* \"Project.sol\":8499:8523  mStatus.completed = true */\n              or\n              swap1\n              sstore\n                /* \"Project.sol\":8555:8570  block.timestamp */\n              timestamp\n                /* \"Project.sol\":8533:8552  mStatus.completedAt */\n              0x05\n              swap1\n              swap2\n              add\n                /* \"Project.sol\":8533:8570  mStatus.completedAt = block.timestamp */\n              sstore\n              pop\n              pop\n                /* \"Project.sol\":7590:8577  function withdrawMilestone(uint index) public restricted {... */\n              jump\t// out\n                /* \"Project.sol\":594:633  Model.Status[] public milestoneStatuses */\n            tag_134:\n              0x11\n              dup2\n              dup2\n              sload\n              dup2\n              lt\n              tag_282\n              jumpi\n              0x00\n              dup1\n              revert\n            tag_282:\n              0x00\n              swap2\n              dup3\n              mstore\n              0x20\n              swap1\n              swap2\n              keccak256\n              0x07\n              swap1\n              swap2\n              mul\n              add\n              dup1\n              sload\n              0x01\n              dup3\n              add\n              sload\n              0x02\n              dup4\n              add\n              sload\n              0x04\n              dup5\n              add\n              sload\n              0x05\n              swap1\n              swap5\n              add\n              sload\n              0xff\n              swap4\n              dup5\n              and\n              swap6\n              pop\n              swap2\n              swap4\n              swap1\n              swap3\n              and\n              swap1\n              dup6\n              jump\t// out\n                /* \"#utility.yul\":196:323   */\n            tag_284:\n                /* \"#utility.yul\":257:267   */\n              0x4e487b71\n                /* \"#utility.yul\":252:255   */\n              0xe0\n                /* \"#utility.yul\":248:268   */\n              shl\n                /* \"#utility.yul\":245:246   */\n              0x00\n                /* \"#utility.yul\":238:269   */\n              mstore\n                /* \"#utility.yul\":288:292   */\n              0x41\n                /* \"#utility.yul\":285:286   */\n              0x04\n                /* \"#utility.yul\":278:293   */\n              mstore\n                /* \"#utility.yul\":312:316   */\n              0x24\n                /* \"#utility.yul\":309:310   */\n              0x00\n                /* \"#utility.yul\":302:317   */\n              revert\n                /* \"#utility.yul\":328:603   */\n            tag_285:\n                /* \"#utility.yul\":399:401   */\n              0x40\n                /* \"#utility.yul\":393:402   */\n              mload\n                /* \"#utility.yul\":464:466   */\n              0x1f\n                /* \"#utility.yul\":445:458   */\n              dup3\n              add\n              not(0x1f)\n                /* \"#utility.yul\":441:468   */\n              and\n                /* \"#utility.yul\":429:469   */\n              dup2\n              add\n              sub(shl(0x40, 0x01), 0x01)\n                /* \"#utility.yul\":484:518   */\n              dup2\n              gt\n                /* \"#utility.yul\":520:542   */\n              dup3\n              dup3\n              lt\n                /* \"#utility.yul\":481:543   */\n              or\n                /* \"#utility.yul\":478:566   */\n              iszero\n              tag_301\n              jumpi\n                /* \"#utility.yul\":546:564   */\n              tag_301\n              tag_284\n              jump\t// in\n            tag_301:\n                /* \"#utility.yul\":582:584   */\n              0x40\n                /* \"#utility.yul\":575:597   */\n              mstore\n                /* \"#utility.yul\":328:603   */\n              swap2\n              swap1\n              pop\n              jump\t// out\n                /* \"#utility.yul\":608:1139   */\n            tag_286:\n                /* \"#utility.yul\":651:656   */\n              0x00\n                /* \"#utility.yul\":704:707   */\n              dup3\n                /* \"#utility.yul\":697:701   */\n              0x1f\n                /* \"#utility.yul\":689:695   */\n              dup4\n                /* \"#utility.yul\":685:702   */\n              add\n                /* \"#utility.yul\":681:708   */\n              slt\n                /* \"#utility.yul\":671:726   */\n              tag_303\n              jumpi\n                /* \"#utility.yul\":722:723   */\n              0x00\n                /* \"#utility.yul\":719:720   */\n              dup1\n                /* \"#utility.yul\":712:724   */\n              revert\n                /* \"#utility.yul\":671:726   */\n            tag_303:\n                /* \"#utility.yul\":745:765   */\n              dup2\n              calldataload\n              sub(shl(0x40, 0x01), 0x01)\n                /* \"#utility.yul\":777:803   */\n              dup2\n              gt\n                /* \"#utility.yul\":774:826   */\n              iszero\n              tag_305\n              jumpi\n                /* \"#utility.yul\":806:824   */\n              tag_305\n              tag_284\n              jump\t// in\n            tag_305:\n                /* \"#utility.yul\":850:905   */\n              tag_306\n                /* \"#utility.yul\":893:895   */\n              0x1f\n                /* \"#utility.yul\":874:887   */\n              dup3\n              add\n              not(0x1f)\n                /* \"#utility.yul\":870:897   */\n              and\n                /* \"#utility.yul\":899:903   */\n              0x20\n                /* \"#utility.yul\":866:904   */\n              add\n                /* \"#utility.yul\":850:905   */\n              tag_285\n              jump\t// in\n            tag_306:\n                /* \"#utility.yul\":930:932   */\n              dup2\n                /* \"#utility.yul\":921:928   */\n              dup2\n                /* \"#utility.yul\":914:933   */\n              mstore\n                /* \"#utility.yul\":976:979   */\n              dup5\n                /* \"#utility.yul\":969:973   */\n              0x20\n                /* \"#utility.yul\":964:966   */\n              dup4\n                /* \"#utility.yul\":956:962   */\n              dup7\n                /* \"#utility.yul\":952:967   */\n              add\n                /* \"#utility.yul\":948:974   */\n              add\n                /* \"#utility.yul\":945:980   */\n              gt\n                /* \"#utility.yul\":942:997   */\n              iszero\n              tag_307\n              jumpi\n                /* \"#utility.yul\":993:994   */\n              0x00\n                /* \"#utility.yul\":990:991   */\n              dup1\n                /* \"#utility.yul\":983:995   */\n              revert\n                /* \"#utility.yul\":942:997   */\n            tag_307:\n                /* \"#utility.yul\":1058:1060   */\n              dup2\n                /* \"#utility.yul\":1051:1055   */\n              0x20\n                /* \"#utility.yul\":1043:1049   */\n              dup6\n                /* \"#utility.yul\":1039:1056   */\n              add\n                /* \"#utility.yul\":1032:1036   */\n              0x20\n                /* \"#utility.yul\":1023:1030   */\n              dup4\n                /* \"#utility.yul\":1019:1037   */\n              add\n                /* \"#utility.yul\":1006:1061   */\n              calldatacopy\n                /* \"#utility.yul\":1106:1107   */\n              0x00\n                /* \"#utility.yul\":1081:1097   */\n              swap2\n              dup2\n              add\n                /* \"#utility.yul\":1099:1103   */\n              0x20\n                /* \"#utility.yul\":1077:1104   */\n              add\n                /* \"#utility.yul\":1070:1108   */\n              swap2\n              swap1\n              swap2\n              mstore\n                /* \"#utility.yul\":1085:1092   */\n              swap4\n                /* \"#utility.yul\":608:1139   */\n              swap3\n              pop\n              pop\n              pop\n              jump\t// out\n                /* \"#utility.yul\":1144:1534   */\n            tag_37:\n                /* \"#utility.yul\":1222:1228   */\n              0x00\n                /* \"#utility.yul\":1230:1236   */\n              dup1\n                /* \"#utility.yul\":1283:1285   */\n              0x40\n                /* \"#utility.yul\":1271:1280   */\n              dup4\n                /* \"#utility.yul\":1262:1269   */\n              dup6\n                /* \"#utility.yul\":1258:1281   */\n              sub\n                /* \"#utility.yul\":1254:1286   */\n              slt\n                /* \"#utility.yul\":1251:1303   */\n              iszero\n              tag_309\n              jumpi\n                /* \"#utility.yul\":1299:1300   */\n              0x00\n                /* \"#utility.yul\":1296:1297   */\n              dup1\n                /* \"#utility.yul\":1289:1301   */\n              revert\n                /* \"#utility.yul\":1251:1303   */\n            tag_309:\n                /* \"#utility.yul\":1322:1345   */\n              dup3\n              calldataload\n              swap2\n              pop\n                /* \"#utility.yul\":1396:1398   */\n              0x20\n                /* \"#utility.yul\":1381:1399   */\n              dup4\n              add\n                /* \"#utility.yul\":1368:1400   */\n              calldataload\n              sub(shl(0x40, 0x01), 0x01)\n                /* \"#utility.yul\":1412:1442   */\n              dup2\n              gt\n                /* \"#utility.yul\":1409:1459   */\n              iszero\n              tag_310\n              jumpi\n                /* \"#utility.yul\":1455:1456   */\n              0x00\n                /* \"#utility.yul\":1452:1453   */\n              dup1\n                /* \"#utility.yul\":1445:1457   */\n              revert\n                /* \"#utility.yul\":1409:1459   */\n            tag_310:\n                /* \"#utility.yul\":1478:1528   */\n              tag_311\n                /* \"#utility.yul\":1520:1527   */\n              dup6\n                /* \"#utility.yul\":1511:1517   */\n              dup3\n                /* \"#utility.yul\":1500:1509   */\n              dup7\n                /* \"#utility.yul\":1496:1518   */\n              add\n                /* \"#utility.yul\":1478:1528   */\n              tag_286\n              jump\t// in\n            tag_311:\n                /* \"#utility.yul\":1468:1528   */\n              swap2\n              pop\n              pop\n                /* \"#utility.yul\":1144:1534   */\n              swap3\n              pop\n              swap3\n              swap1\n              pop\n              jump\t// out\n                /* \"#utility.yul\":1539:1712   */\n            tag_287:\n                /* \"#utility.yul\":1607:1627   */\n              dup1\n              calldataload\n              sub(shl(0xa0, 0x01), 0x01)\n                /* \"#utility.yul\":1656:1687   */\n              dup2\n              and\n                /* \"#utility.yul\":1646:1688   */\n              dup2\n              eq\n                /* \"#utility.yul\":1636:1706   */\n              tag_313\n              jumpi\n                /* \"#utility.yul\":1702:1703   */\n              0x00\n                /* \"#utility.yul\":1699:1700   */\n              dup1\n                /* \"#utility.yul\":1692:1704   */\n              revert\n                /* \"#utility.yul\":1636:1706   */\n            tag_313:\n                /* \"#utility.yul\":1539:1712   */\n              swap2\n              swap1\n              pop\n              jump\t// out\n                /* \"#utility.yul\":1717:1903   */\n            tag_42:\n                /* \"#utility.yul\":1776:1782   */\n              0x00\n                /* \"#utility.yul\":1829:1831   */\n              0x20\n                /* \"#utility.yul\":1817:1826   */\n              dup3\n                /* \"#utility.yul\":1808:1815   */\n              dup5\n                /* \"#utility.yul\":1804:1827   */\n              sub\n                /* \"#utility.yul\":1800:1832   */\n              slt\n                /* \"#utility.yul\":1797:1849   */\n              iszero\n              tag_315\n              jumpi\n                /* \"#utility.yul\":1845:1846   */\n              0x00\n                /* \"#utility.yul\":1842:1843   */\n              dup1\n                /* \"#utility.yul\":1835:1847   */\n              revert\n                /* \"#utility.yul\":1797:1849   */\n            tag_315:\n                /* \"#utility.yul\":1868:1897   */\n              tag_316\n                /* \"#utility.yul\":1887:1896   */\n              dup3\n                /* \"#utility.yul\":1868:1897   */\n              tag_287\n              jump\t// in\n            tag_316:\n                /* \"#utility.yul\":1858:1897   */\n              swap4\n                /* \"#utility.yul\":1717:1903   */\n              swap3\n              pop\n              pop\n              pop\n              jump\t// out\n                /* \"#utility.yul\":2396:2718   */\n            tag_53:\n                /* \"#utility.yul\":2465:2471   */\n              0x00\n                /* \"#utility.yul\":2518:2520   */\n              0x20\n                /* \"#utility.yul\":2506:2515   */\n              dup3\n                /* \"#utility.yul\":2497:2504   */\n              dup5\n                /* \"#utility.yul\":2493:2516   */\n              sub\n                /* \"#utility.yul\":2489:2521   */\n              slt\n                /* \"#utility.yul\":2486:2538   */\n              iszero\n              tag_319\n              jumpi\n                /* \"#utility.yul\":2534:2535   */\n              0x00\n                /* \"#utility.yul\":2531:2532   */\n              dup1\n                /* \"#utility.yul\":2524:2536   */\n              revert\n                /* \"#utility.yul\":2486:2538   */\n            tag_319:\n                /* \"#utility.yul\":2561:2584   */\n              dup2\n              calldataload\n              sub(shl(0x40, 0x01), 0x01)\n                /* \"#utility.yul\":2596:2626   */\n              dup2\n              gt\n                /* \"#utility.yul\":2593:2643   */\n              iszero\n              tag_320\n              jumpi\n                /* \"#utility.yul\":2639:2640   */\n              0x00\n                /* \"#utility.yul\":2636:2637   */\n              dup1\n                /* \"#utility.yul\":2629:2641   */\n              revert\n                /* \"#utility.yul\":2593:2643   */\n            tag_320:\n                /* \"#utility.yul\":2662:2712   */\n              tag_321\n                /* \"#utility.yul\":2704:2711   */\n              dup5\n                /* \"#utility.yul\":2695:2701   */\n              dup3\n                /* \"#utility.yul\":2684:2693   */\n              dup6\n                /* \"#utility.yul\":2680:2702   */\n              add\n                /* \"#utility.yul\":2662:2712   */\n              tag_286\n              jump\t// in\n            tag_321:\n                /* \"#utility.yul\":2652:2712   */\n              swap5\n                /* \"#utility.yul\":2396:2718   */\n              swap4\n              pop\n              pop\n              pop\n              pop\n              jump\t// out\n                /* \"#utility.yul\":2723:2905   */\n            tag_288:\n                /* \"#utility.yul\":2782:2786   */\n              0x00\n              sub(shl(0x40, 0x01), 0x01)\n                /* \"#utility.yul\":2804:2834   */\n              dup3\n              gt\n                /* \"#utility.yul\":2801:2857   */\n              iszero\n              tag_324\n              jumpi\n                /* \"#utility.yul\":2837:2855   */\n              tag_324\n              tag_284\n              jump\t// in\n            tag_324:\n              pop\n                /* \"#utility.yul\":2882:2883   */\n              0x05\n                /* \"#utility.yul\":2878:2892   */\n              shl\n                /* \"#utility.yul\":2894:2898   */\n              0x20\n                /* \"#utility.yul\":2874:2899   */\n              add\n              swap1\n                /* \"#utility.yul\":2723:2905   */\n              jump\t// out\n                /* \"#utility.yul\":2910:3577   */\n            tag_289:\n                /* \"#utility.yul\":2964:2969   */\n              0x00\n                /* \"#utility.yul\":3017:3020   */\n              dup3\n                /* \"#utility.yul\":3010:3014   */\n              0x1f\n                /* \"#utility.yul\":3002:3008   */\n              dup4\n                /* \"#utility.yul\":2998:3015   */\n              add\n                /* \"#utility.yul\":2994:3021   */\n              slt\n                /* \"#utility.yul\":2984:3039   */\n              tag_326\n              jumpi\n                /* \"#utility.yul\":3035:3036   */\n              0x00\n                /* \"#utility.yul\":3032:3033   */\n              dup1\n                /* \"#utility.yul\":3025:3037   */\n              revert\n                /* \"#utility.yul\":2984:3039   */\n            tag_326:\n                /* \"#utility.yul\":3071:3077   */\n              dup2\n                /* \"#utility.yul\":3058:3078   */\n              calldataload\n                /* \"#utility.yul\":3097:3101   */\n              0x20\n                /* \"#utility.yul\":3121:3180   */\n              tag_327\n                /* \"#utility.yul\":3137:3179   */\n              tag_328\n                /* \"#utility.yul\":3176:3178   */\n              dup4\n                /* \"#utility.yul\":3137:3179   */\n              tag_288\n              jump\t// in\n            tag_328:\n                /* \"#utility.yul\":3121:3180   */\n              tag_285\n              jump\t// in\n            tag_327:\n                /* \"#utility.yul\":3202:3205   */\n              dup1\n                /* \"#utility.yul\":3226:3228   */\n              dup4\n                /* \"#utility.yul\":3221:3224   */\n              dup3\n                /* \"#utility.yul\":3214:3229   */\n              mstore\n                /* \"#utility.yul\":3254:3258   */\n              0x20\n                /* \"#utility.yul\":3249:3252   */\n              dup3\n                /* \"#utility.yul\":3245:3259   */\n              add\n                /* \"#utility.yul\":3238:3259   */\n              swap2\n              pop\n                /* \"#utility.yul\":3311:3315   */\n              0x20\n                /* \"#utility.yul\":3305:3307   */\n              dup5\n                /* \"#utility.yul\":3302:3303   */\n              0x05\n                /* \"#utility.yul\":3298:3308   */\n              shl\n                /* \"#utility.yul\":3290:3296   */\n              dup8\n                /* \"#utility.yul\":3286:3309   */\n              add\n                /* \"#utility.yul\":3282:3316   */\n              add\n                /* \"#utility.yul\":3268:3316   */\n              swap4\n              pop\n                /* \"#utility.yul\":3339:3342   */\n              dup7\n                /* \"#utility.yul\":3331:3337   */\n              dup5\n                /* \"#utility.yul\":3328:3343   */\n              gt\n                /* \"#utility.yul\":3325:3360   */\n              iszero\n              tag_329\n              jumpi\n                /* \"#utility.yul\":3356:3357   */\n              0x00\n                /* \"#utility.yul\":3353:3354   */\n              dup1\n                /* \"#utility.yul\":3346:3358   */\n              revert\n                /* \"#utility.yul\":3325:3360   */\n            tag_329:\n                /* \"#utility.yul\":3392:3396   */\n              0x20\n                /* \"#utility.yul\":3384:3390   */\n              dup7\n                /* \"#utility.yul\":3380:3397   */\n              add\n                /* \"#utility.yul\":3406:3548   */\n            tag_330:\n                /* \"#utility.yul\":3422:3428   */\n              dup5\n                /* \"#utility.yul\":3417:3420   */\n              dup2\n                /* \"#utility.yul\":3414:3429   */\n              lt\n                /* \"#utility.yul\":3406:3548   */\n              iszero\n              tag_332\n              jumpi\n                /* \"#utility.yul\":3488:3505   */\n              dup1\n              calldataload\n                /* \"#utility.yul\":3476:3506   */\n              dup4\n              mstore\n                /* \"#utility.yul\":3526:3538   */\n              swap2\n              dup4\n              add\n              swap2\n                /* \"#utility.yul\":3439:3451   */\n              dup4\n              add\n                /* \"#utility.yul\":3406:3548   */\n              jump(tag_330)\n            tag_332:\n              pop\n                /* \"#utility.yul\":3566:3571   */\n              swap7\n                /* \"#utility.yul\":2910:3577   */\n              swap6\n              pop\n              pop\n              pop\n              pop\n              pop\n              pop\n              jump\t// out\n                /* \"#utility.yul\":3582:4255   */\n            tag_290:\n                /* \"#utility.yul\":3636:3641   */\n              0x00\n                /* \"#utility.yul\":3689:3692   */\n              dup3\n                /* \"#utility.yul\":3682:3686   */\n              0x1f\n                /* \"#utility.yul\":3674:3680   */\n              dup4\n                /* \"#utility.yul\":3670:3687   */\n              add\n                /* \"#utility.yul\":3666:3693   */\n              slt\n                /* \"#utility.yul\":3656:3711   */\n              tag_334\n              jumpi\n                /* \"#utility.yul\":3707:3708   */\n              0x00\n                /* \"#utility.yul\":3704:3705   */\n              dup1\n                /* \"#utility.yul\":3697:3709   */\n              revert\n                /* \"#utility.yul\":3656:3711   */\n            tag_334:\n                /* \"#utility.yul\":3743:3749   */\n              dup2\n                /* \"#utility.yul\":3730:3750   */\n              calldataload\n                /* \"#utility.yul\":3769:3773   */\n              0x20\n                /* \"#utility.yul\":3793:3852   */\n              tag_335\n                /* \"#utility.yul\":3809:3851   */\n              tag_328\n                /* \"#utility.yul\":3848:3850   */\n              dup4\n                /* \"#utility.yul\":3809:3851   */\n              tag_288\n              jump\t// in\n                /* \"#utility.yul\":3793:3852   */\n            tag_335:\n                /* \"#utility.yul\":3874:3877   */\n              dup1\n                /* \"#utility.yul\":3898:3900   */\n              dup4\n                /* \"#utility.yul\":3893:3896   */\n              dup3\n                /* \"#utility.yul\":3886:3901   */\n              mstore\n                /* \"#utility.yul\":3926:3930   */\n              0x20\n                /* \"#utility.yul\":3921:3924   */\n              dup3\n                /* \"#utility.yul\":3917:3931   */\n              add\n                /* \"#utility.yul\":3910:3931   */\n              swap2\n              pop\n                /* \"#utility.yul\":3983:3987   */\n              0x20\n                /* \"#utility.yul\":3977:3979   */\n              dup5\n                /* \"#utility.yul\":3974:3975   */\n              0x05\n                /* \"#utility.yul\":3970:3980   */\n              shl\n                /* \"#utility.yul\":3962:3968   */\n              dup8\n                /* \"#utility.yul\":3958:3981   */\n              add\n                /* \"#utility.yul\":3954:3988   */\n              add\n                /* \"#utility.yul\":3940:3988   */\n              swap4\n              pop\n                /* \"#utility.yul\":4011:4014   */\n              dup7\n                /* \"#utility.yul\":4003:4009   */\n              dup5\n                /* \"#utility.yul\":4000:4015   */\n              gt\n                /* \"#utility.yul\":3997:4032   */\n              iszero\n              tag_337\n              jumpi\n                /* \"#utility.yul\":4028:4029   */\n              0x00\n                /* \"#utility.yul\":4025:4026   */\n              dup1\n                /* \"#utility.yul\":4018:4030   */\n              revert\n                /* \"#utility.yul\":3997:4032   */\n            tag_337:\n                /* \"#utility.yul\":4064:4068   */\n              0x20\n                /* \"#utility.yul\":4056:4062   */\n              dup7\n                /* \"#utility.yul\":4052:4069   */\n              add\n                /* \"#utility.yul\":4078:4226   */\n            tag_338:\n                /* \"#utility.yul\":4094:4100   */\n              dup5\n                /* \"#utility.yul\":4089:4092   */\n              dup2\n                /* \"#utility.yul\":4086:4101   */\n              lt\n                /* \"#utility.yul\":4078:4226   */\n              iszero\n              tag_332\n              jumpi\n                /* \"#utility.yul\":4160:4183   */\n              tag_341\n                /* \"#utility.yul\":4179:4182   */\n              dup2\n                /* \"#utility.yul\":4160:4183   */\n              tag_287\n              jump\t// in\n            tag_341:\n                /* \"#utility.yul\":4148:4184   */\n              dup4\n              mstore\n                /* \"#utility.yul\":4204:4216   */\n              swap2\n              dup4\n              add\n              swap2\n                /* \"#utility.yul\":4111:4123   */\n              dup4\n              add\n                /* \"#utility.yul\":4078:4226   */\n              jump(tag_338)\n                /* \"#utility.yul\":4260:5776   */\n            tag_62:\n                /* \"#utility.yul\":4422:4428   */\n              0x00\n                /* \"#utility.yul\":4430:4436   */\n              dup1\n                /* \"#utility.yul\":4438:4444   */\n              0x00\n                /* \"#utility.yul\":4491:4493   */\n              0x60\n                /* \"#utility.yul\":4479:4488   */\n              dup5\n                /* \"#utility.yul\":4470:4477   */\n              dup7\n                /* \"#utility.yul\":4466:4489   */\n              sub\n                /* \"#utility.yul\":4462:4494   */\n              slt\n                /* \"#utility.yul\":4459:4511   */\n              iszero\n              tag_343\n              jumpi\n                /* \"#utility.yul\":4507:4508   */\n              0x00\n                /* \"#utility.yul\":4504:4505   */\n              dup1\n                /* \"#utility.yul\":4497:4509   */\n              revert\n                /* \"#utility.yul\":4459:4511   */\n            tag_343:\n                /* \"#utility.yul\":4534:4557   */\n              dup4\n              calldataload\n              sub(shl(0x40, 0x01), 0x01)\n                /* \"#utility.yul\":4606:4620   */\n              dup1\n              dup3\n              gt\n                /* \"#utility.yul\":4603:4637   */\n              iszero\n              tag_344\n              jumpi\n                /* \"#utility.yul\":4633:4634   */\n              0x00\n                /* \"#utility.yul\":4630:4631   */\n              dup1\n                /* \"#utility.yul\":4623:4635   */\n              revert\n                /* \"#utility.yul\":4603:4637   */\n            tag_344:\n                /* \"#utility.yul\":4671:4677   */\n              dup2\n                /* \"#utility.yul\":4660:4669   */\n              dup7\n                /* \"#utility.yul\":4656:4678   */\n              add\n                /* \"#utility.yul\":4646:4678   */\n              swap2\n              pop\n                /* \"#utility.yul\":4716:4723   */\n              dup7\n                /* \"#utility.yul\":4709:4713   */\n              0x1f\n                /* \"#utility.yul\":4705:4707   */\n              dup4\n                /* \"#utility.yul\":4701:4714   */\n              add\n                /* \"#utility.yul\":4697:4724   */\n              slt\n                /* \"#utility.yul\":4687:4742   */\n              tag_345\n              jumpi\n                /* \"#utility.yul\":4738:4739   */\n              0x00\n                /* \"#utility.yul\":4735:4736   */\n              dup1\n                /* \"#utility.yul\":4728:4740   */\n              revert\n                /* \"#utility.yul\":4687:4742   */\n            tag_345:\n                /* \"#utility.yul\":4774:4776   */\n              dup2\n                /* \"#utility.yul\":4761:4777   */\n              calldataload\n                /* \"#utility.yul\":4796:4800   */\n              0x20\n                /* \"#utility.yul\":4820:4879   */\n              tag_346\n                /* \"#utility.yul\":4836:4878   */\n              tag_328\n                /* \"#utility.yul\":4875:4877   */\n              dup4\n                /* \"#utility.yul\":4836:4878   */\n              tag_288\n              jump\t// in\n                /* \"#utility.yul\":4820:4879   */\n            tag_346:\n                /* \"#utility.yul\":4913:4928   */\n              dup3\n              dup2\n              mstore\n                /* \"#utility.yul\":4995:4996   */\n              0x05\n                /* \"#utility.yul\":4991:5001   */\n              swap3\n              swap1\n              swap3\n              shl\n                /* \"#utility.yul\":4983:5002   */\n              dup5\n              add\n                /* \"#utility.yul\":4979:5007   */\n              dup2\n              add\n              swap2\n                /* \"#utility.yul\":4944:4956   */\n              dup2\n              dup2\n              add\n              swap1\n                /* \"#utility.yul\":5019:5038   */\n              dup11\n              dup5\n              gt\n                /* \"#utility.yul\":5016:5055   */\n              iszero\n              tag_348\n              jumpi\n                /* \"#utility.yul\":5051:5052   */\n              0x00\n                /* \"#utility.yul\":5048:5049   */\n              dup1\n                /* \"#utility.yul\":5041:5053   */\n              revert\n                /* \"#utility.yul\":5016:5055   */\n            tag_348:\n                /* \"#utility.yul\":5083:5085   */\n              dup3\n                /* \"#utility.yul\":5079:5081   */\n              dup7\n                /* \"#utility.yul\":5075:5086   */\n              add\n                /* \"#utility.yul\":5095:5378   */\n            tag_349:\n                /* \"#utility.yul\":5111:5117   */\n              dup5\n                /* \"#utility.yul\":5106:5109   */\n              dup2\n                /* \"#utility.yul\":5103:5118   */\n              lt\n                /* \"#utility.yul\":5095:5378   */\n              iszero\n              tag_351\n              jumpi\n                /* \"#utility.yul\":5197:5200   */\n              dup1\n                /* \"#utility.yul\":5184:5201   */\n              calldataload\n                /* \"#utility.yul\":5233:5235   */\n              dup7\n                /* \"#utility.yul\":5220:5231   */\n              dup2\n                /* \"#utility.yul\":5217:5236   */\n              gt\n                /* \"#utility.yul\":5214:5253   */\n              iszero\n              tag_352\n              jumpi\n                /* \"#utility.yul\":5249:5250   */\n              0x00\n                /* \"#utility.yul\":5246:5247   */\n              dup1\n                /* \"#utility.yul\":5239:5251   */\n              revert\n                /* \"#utility.yul\":5214:5253   */\n            tag_352:\n                /* \"#utility.yul\":5278:5335   */\n              tag_353\n                /* \"#utility.yul\":5327:5334   */\n              dup14\n                /* \"#utility.yul\":5322:5324   */\n              dup7\n                /* \"#utility.yul\":5308:5319   */\n              dup4\n                /* \"#utility.yul\":5304:5306   */\n              dup12\n                /* \"#utility.yul\":5300:5320   */\n              add\n                /* \"#utility.yul\":5296:5325   */\n              add\n                /* \"#utility.yul\":5278:5335   */\n              tag_286\n              jump\t// in\n            tag_353:\n                /* \"#utility.yul\":5266:5336   */\n              dup5\n              mstore\n              pop\n                /* \"#utility.yul\":5356:5368   */\n              swap2\n              dup4\n              add\n              swap2\n                /* \"#utility.yul\":5128:5140   */\n              dup4\n              add\n                /* \"#utility.yul\":5095:5378   */\n              jump(tag_349)\n            tag_351:\n              pop\n                /* \"#utility.yul\":5397:5402   */\n              swap8\n              pop\n              pop\n                /* \"#utility.yul\":5440:5458   */\n              dup8\n              add\n                /* \"#utility.yul\":5427:5459   */\n              calldataload\n              swap3\n              pop\n              pop\n                /* \"#utility.yul\":5471:5487   */\n              dup1\n              dup3\n              gt\n                /* \"#utility.yul\":5468:5504   */\n              iszero\n              tag_354\n              jumpi\n                /* \"#utility.yul\":5500:5501   */\n              0x00\n                /* \"#utility.yul\":5497:5498   */\n              dup1\n                /* \"#utility.yul\":5490:5502   */\n              revert\n                /* \"#utility.yul\":5468:5504   */\n            tag_354:\n                /* \"#utility.yul\":5523:5586   */\n              tag_355\n                /* \"#utility.yul\":5578:5585   */\n              dup8\n                /* \"#utility.yul\":5567:5575   */\n              dup4\n                /* \"#utility.yul\":5556:5565   */\n              dup9\n                /* \"#utility.yul\":5552:5576   */\n              add\n                /* \"#utility.yul\":5523:5586   */\n              tag_289\n              jump\t// in\n            tag_355:\n                /* \"#utility.yul\":5513:5586   */\n              swap4\n              pop\n                /* \"#utility.yul\":5639:5641   */\n              0x40\n                /* \"#utility.yul\":5628:5637   */\n              dup7\n                /* \"#utility.yul\":5624:5642   */\n              add\n                /* \"#utility.yul\":5611:5643   */\n              calldataload\n                /* \"#utility.yul\":5595:5643   */\n              swap2\n              pop\n                /* \"#utility.yul\":5668:5670   */\n              dup1\n                /* \"#utility.yul\":5658:5666   */\n              dup3\n                /* \"#utility.yul\":5655:5671   */\n              gt\n                /* \"#utility.yul\":5652:5688   */\n              iszero\n              tag_356\n              jumpi\n                /* \"#utility.yul\":5684:5685   */\n              0x00\n                /* \"#utility.yul\":5681:5682   */\n              dup1\n                /* \"#utility.yul\":5674:5686   */\n              revert\n                /* \"#utility.yul\":5652:5688   */\n            tag_356:\n              pop\n                /* \"#utility.yul\":5707:5770   */\n              tag_357\n                /* \"#utility.yul\":5762:5769   */\n              dup7\n                /* \"#utility.yul\":5751:5759   */\n              dup3\n                /* \"#utility.yul\":5740:5749   */\n              dup8\n                /* \"#utility.yul\":5736:5760   */\n              add\n                /* \"#utility.yul\":5707:5770   */\n              tag_290\n              jump\t// in\n            tag_357:\n                /* \"#utility.yul\":5697:5770   */\n              swap2\n              pop\n              pop\n                /* \"#utility.yul\":4260:5776   */\n              swap3\n              pop\n              swap3\n              pop\n              swap3\n              jump\t// out\n                /* \"#utility.yul\":5781:6204   */\n            tag_291:\n                /* \"#utility.yul\":5823:5826   */\n              0x00\n                /* \"#utility.yul\":5861:5866   */\n              dup2\n                /* \"#utility.yul\":5855:5867   */\n              mload\n                /* \"#utility.yul\":5888:5894   */\n              dup1\n                /* \"#utility.yul\":5883:5886   */\n              dup5\n                /* \"#utility.yul\":5876:5895   */\n              mstore\n                /* \"#utility.yul\":5913:5914   */\n              0x00\n                /* \"#utility.yul\":5923:6085   */\n            tag_359:\n                /* \"#utility.yul\":5937:5943   */\n              dup2\n                /* \"#utility.yul\":5934:5935   */\n              dup2\n                /* \"#utility.yul\":5931:5944   */\n              lt\n                /* \"#utility.yul\":5923:6085   */\n              iszero\n              tag_361\n              jumpi\n                /* \"#utility.yul\":5999:6003   */\n              0x20\n                /* \"#utility.yul\":6055:6068   */\n              dup2\n              dup6\n              add\n                /* \"#utility.yul\":6051:6073   */\n              dup2\n              add\n                /* \"#utility.yul\":6045:6074   */\n              mload\n                /* \"#utility.yul\":6027:6038   */\n              dup7\n              dup4\n              add\n                /* \"#utility.yul\":6023:6043   */\n              dup3\n              add\n                /* \"#utility.yul\":6016:6075   */\n              mstore\n                /* \"#utility.yul\":5952:5964   */\n              add\n                /* \"#utility.yul\":5923:6085   */\n              jump(tag_359)\n            tag_361:\n                /* \"#utility.yul\":5927:5930   */\n              pop\n                /* \"#utility.yul\":6130:6131   */\n              0x00\n                /* \"#utility.yul\":6123:6127   */\n              0x20\n                /* \"#utility.yul\":6114:6120   */\n              dup3\n                /* \"#utility.yul\":6109:6112   */\n              dup7\n                /* \"#utility.yul\":6105:6121   */\n              add\n                /* \"#utility.yul\":6101:6128   */\n              add\n                /* \"#utility.yul\":6094:6132   */\n              mstore\n                /* \"#utility.yul\":6193:6197   */\n              0x20\n                /* \"#utility.yul\":6186:6188   */\n              0x1f\n                /* \"#utility.yul\":6182:6189   */\n              not\n                /* \"#utility.yul\":6177:6179   */\n              0x1f\n                /* \"#utility.yul\":6169:6175   */\n              dup4\n                /* \"#utility.yul\":6165:6180   */\n              add\n                /* \"#utility.yul\":6161:6190   */\n              and\n                /* \"#utility.yul\":6156:6159   */\n              dup6\n                /* \"#utility.yul\":6152:6191   */\n              add\n                /* \"#utility.yul\":6148:6198   */\n              add\n                /* \"#utility.yul\":6141:6198   */\n              swap2\n              pop\n              pop\n                /* \"#utility.yul\":5781:6204   */\n              swap3\n              swap2\n              pop\n              pop\n              jump\t// out\n                /* \"#utility.yul\":6209:7290   */\n            tag_71:\n                /* \"#utility.yul\":6660:6685   */\n              dup13\n              dup2\n              mstore\n              sub(shl(0xa0, 0x01), 0x01)\n                /* \"#utility.yul\":6721:6753   */\n              dup13\n              and\n                /* \"#utility.yul\":6716:6718   */\n              0x20\n                /* \"#utility.yul\":6701:6719   */\n              dup3\n              add\n                /* \"#utility.yul\":6694:6754   */\n              mstore\n                /* \"#utility.yul\":6648:6651   */\n              0x0180\n                /* \"#utility.yul\":6785:6787   */\n              0x40\n                /* \"#utility.yul\":6770:6788   */\n              dup3\n              add\n                /* \"#utility.yul\":6763:6793   */\n              dup2\n              swap1\n              mstore\n                /* \"#utility.yul\":6619:6623   */\n              0x00\n              swap1\n                /* \"#utility.yul\":6810:6855   */\n              tag_363\n                /* \"#utility.yul\":6836:6854   */\n              dup4\n              dup3\n              add\n                /* \"#utility.yul\":6828:6834   */\n              dup15\n                /* \"#utility.yul\":6810:6855   */\n              tag_291\n              jump\t// in\n            tag_363:\n                /* \"#utility.yul\":6886:6888   */\n              0x60\n                /* \"#utility.yul\":6871:6889   */\n              dup5\n              add\n                /* \"#utility.yul\":6864:6898   */\n              swap13\n              swap1\n              swap13\n              mstore\n              pop\n              pop\n                /* \"#utility.yul\":6929:6932   */\n              0x80\n                /* \"#utility.yul\":6914:6933   */\n              dup2\n              add\n                /* \"#utility.yul\":6907:6942   */\n              swap9\n              swap1\n              swap9\n              mstore\n                /* \"#utility.yul\":6973:6976   */\n              0xa0\n                /* \"#utility.yul\":6958:6977   */\n              dup9\n              add\n                /* \"#utility.yul\":6951:6986   */\n              swap7\n              swap1\n              swap7\n              mstore\n                /* \"#utility.yul\":7017:7020   */\n              0xc0\n                /* \"#utility.yul\":7002:7021   */\n              dup8\n              add\n                /* \"#utility.yul\":6995:7030   */\n              swap5\n              swap1\n              swap5\n              mstore\n                /* \"#utility.yul\":7074:7088   */\n              swap2\n              iszero\n                /* \"#utility.yul\":7067:7089   */\n              iszero\n                /* \"#utility.yul\":7061:7064   */\n              0xe0\n                /* \"#utility.yul\":7046:7065   */\n              dup7\n              add\n                /* \"#utility.yul\":7039:7090   */\n              mstore\n                /* \"#utility.yul\":7121:7124   */\n              0x0100\n                /* \"#utility.yul\":7106:7125   */\n              dup6\n              add\n                /* \"#utility.yul\":7099:7134   */\n              mstore\n                /* \"#utility.yul\":7165:7168   */\n              0x0120\n                /* \"#utility.yul\":7150:7169   */\n              dup5\n              add\n                /* \"#utility.yul\":7143:7178   */\n              mstore\n                /* \"#utility.yul\":7222:7237   */\n              iszero\n                /* \"#utility.yul\":7215:7238   */\n              iszero\n                /* \"#utility.yul\":7209:7212   */\n              0x0140\n                /* \"#utility.yul\":7194:7213   */\n              dup4\n              add\n                /* \"#utility.yul\":7187:7239   */\n              mstore\n                /* \"#utility.yul\":7270:7273   */\n              0x0160\n                /* \"#utility.yul\":7255:7274   */\n              swap1\n              swap2\n              add\n                /* \"#utility.yul\":7248:7284   */\n              mstore\n                /* \"#utility.yul\":6802:6855   */\n              swap4\n                /* \"#utility.yul\":6209:7290   */\n              swap3\n              pop\n              pop\n              pop\n              jump\t// out\n                /* \"#utility.yul\":7955:8175   */\n            tag_99:\n                /* \"#utility.yul\":8104:8106   */\n              0x20\n                /* \"#utility.yul\":8093:8102   */\n              dup2\n                /* \"#utility.yul\":8086:8107   */\n              mstore\n                /* \"#utility.yul\":8067:8071   */\n              0x00\n                /* \"#utility.yul\":8124:8169   */\n              tag_316\n                /* \"#utility.yul\":8165:8167   */\n              0x20\n                /* \"#utility.yul\":8154:8163   */\n              dup4\n                /* \"#utility.yul\":8150:8168   */\n              add\n                /* \"#utility.yul\":8142:8148   */\n              dup5\n                /* \"#utility.yul\":8124:8169   */\n              tag_291\n              jump\t// in\n                /* \"#utility.yul\":8180:8360   */\n            tag_107:\n                /* \"#utility.yul\":8239:8245   */\n              0x00\n                /* \"#utility.yul\":8292:8294   */\n              0x20\n                /* \"#utility.yul\":8280:8289   */\n              dup3\n                /* \"#utility.yul\":8271:8278   */\n              dup5\n                /* \"#utility.yul\":8267:8290   */\n              sub\n                /* \"#utility.yul\":8263:8295   */\n              slt\n                /* \"#utility.yul\":8260:8312   */\n              iszero\n              tag_370\n              jumpi\n                /* \"#utility.yul\":8308:8309   */\n              0x00\n                /* \"#utility.yul\":8305:8306   */\n              dup1\n                /* \"#utility.yul\":8298:8310   */\n              revert\n                /* \"#utility.yul\":8260:8312   */\n            tag_370:\n              pop\n                /* \"#utility.yul\":8331:8354   */\n              calldataload\n              swap2\n                /* \"#utility.yul\":8180:8360   */\n              swap1\n              pop\n              jump\t// out\n                /* \"#utility.yul\":8365:8829   */\n            tag_112:\n                /* \"#utility.yul\":8452:8458   */\n              0x00\n                /* \"#utility.yul\":8460:8466   */\n              dup1\n                /* \"#utility.yul\":8468:8474   */\n              0x00\n                /* \"#utility.yul\":8521:8523   */\n              0x60\n                /* \"#utility.yul\":8509:8518   */\n              dup5\n                /* \"#utility.yul\":8500:8507   */\n              dup7\n                /* \"#utility.yul\":8496:8519   */\n              sub\n                /* \"#utility.yul\":8492:8524   */\n              slt\n                /* \"#utility.yul\":8489:8541   */\n              iszero\n              tag_372\n              jumpi\n                /* \"#utility.yul\":8537:8538   */\n              0x00\n                /* \"#utility.yul\":8534:8535   */\n              dup1\n                /* \"#utility.yul\":8527:8539   */\n              revert\n                /* \"#utility.yul\":8489:8541   */\n            tag_372:\n                /* \"#utility.yul\":8564:8587   */\n              dup4\n              calldataload\n              sub(shl(0x40, 0x01), 0x01)\n                /* \"#utility.yul\":8599:8629   */\n              dup2\n              gt\n                /* \"#utility.yul\":8596:8646   */\n              iszero\n              tag_373\n              jumpi\n                /* \"#utility.yul\":8642:8643   */\n              0x00\n                /* \"#utility.yul\":8639:8640   */\n              dup1\n                /* \"#utility.yul\":8632:8644   */\n              revert\n                /* \"#utility.yul\":8596:8646   */\n            tag_373:\n                /* \"#utility.yul\":8665:8715   */\n              tag_374\n                /* \"#utility.yul\":8707:8714   */\n              dup7\n                /* \"#utility.yul\":8698:8704   */\n              dup3\n                /* \"#utility.yul\":8687:8696   */\n              dup8\n                /* \"#utility.yul\":8683:8705   */\n              add\n                /* \"#utility.yul\":8665:8715   */\n              tag_286\n              jump\t// in\n            tag_374:\n                /* \"#utility.yul\":8655:8715   */\n              swap4\n              pop\n              pop\n                /* \"#utility.yul\":8762:8764   */\n              0x20\n                /* \"#utility.yul\":8751:8760   */\n              dup5\n                /* \"#utility.yul\":8747:8765   */\n              add\n                /* \"#utility.yul\":8734:8766   */\n              calldataload\n                /* \"#utility.yul\":8724:8766   */\n              swap2\n              pop\n                /* \"#utility.yul\":8785:8823   */\n              tag_375\n                /* \"#utility.yul\":8819:8821   */\n              0x40\n                /* \"#utility.yul\":8808:8817   */\n              dup6\n                /* \"#utility.yul\":8804:8822   */\n              add\n                /* \"#utility.yul\":8785:8823   */\n              tag_287\n              jump\t// in\n            tag_375:\n                /* \"#utility.yul\":8775:8823   */\n              swap1\n              pop\n                /* \"#utility.yul\":8365:8829   */\n              swap3\n              pop\n              swap3\n              pop\n              swap3\n              jump\t// out\n                /* \"#utility.yul\":8834:9238   */\n            tag_126:\n              sub(shl(0xa0, 0x01), 0x01)\n                /* \"#utility.yul\":9055:9087   */\n              dup5\n              and\n                /* \"#utility.yul\":9037:9088   */\n              dup2\n              mstore\n                /* \"#utility.yul\":9124:9126   */\n              0x60\n                /* \"#utility.yul\":9119:9121   */\n              0x20\n                /* \"#utility.yul\":9104:9122   */\n              dup3\n              add\n                /* \"#utility.yul\":9097:9127   */\n              dup2\n              swap1\n              mstore\n              0x00\n              swap1\n                /* \"#utility.yul\":9144:9189   */\n              tag_377\n              swap1\n                /* \"#utility.yul\":9170:9188   */\n              dup4\n              add\n                /* \"#utility.yul\":9162:9168   */\n              dup6\n                /* \"#utility.yul\":9144:9189   */\n              tag_291\n              jump\t// in\n            tag_377:\n                /* \"#utility.yul\":9136:9189   */\n              swap1\n              pop\n                /* \"#utility.yul\":9225:9231   */\n              dup3\n                /* \"#utility.yul\":9220:9222   */\n              0x40\n                /* \"#utility.yul\":9209:9218   */\n              dup4\n                /* \"#utility.yul\":9205:9223   */\n              add\n                /* \"#utility.yul\":9198:9232   */\n              mstore\n                /* \"#utility.yul\":8834:9238   */\n              swap5\n              swap4\n              pop\n              pop\n              pop\n              pop\n              jump\t// out\n                /* \"#utility.yul\":9243:9370   */\n            tag_146:\n                /* \"#utility.yul\":9304:9314   */\n              0x4e487b71\n                /* \"#utility.yul\":9299:9302   */\n              0xe0\n                /* \"#utility.yul\":9295:9315   */\n              shl\n                /* \"#utility.yul\":9292:9293   */\n              0x00\n                /* \"#utility.yul\":9285:9316   */\n              mstore\n                /* \"#utility.yul\":9335:9339   */\n              0x32\n                /* \"#utility.yul\":9332:9333   */\n              0x04\n                /* \"#utility.yul\":9325:9340   */\n              mstore\n                /* \"#utility.yul\":9359:9363   */\n              0x24\n                /* \"#utility.yul\":9356:9357   */\n              0x00\n                /* \"#utility.yul\":9349:9364   */\n              revert\n                /* \"#utility.yul\":9375:9502   */\n            tag_292:\n                /* \"#utility.yul\":9436:9446   */\n              0x4e487b71\n                /* \"#utility.yul\":9431:9434   */\n              0xe0\n                /* \"#utility.yul\":9427:9447   */\n              shl\n                /* \"#utility.yul\":9424:9425   */\n              0x00\n                /* \"#utility.yul\":9417:9448   */\n              mstore\n                /* \"#utility.yul\":9467:9471   */\n              0x11\n                /* \"#utility.yul\":9464:9465   */\n              0x04\n                /* \"#utility.yul\":9457:9472   */\n              mstore\n                /* \"#utility.yul\":9491:9495   */\n              0x24\n                /* \"#utility.yul\":9488:9489   */\n              0x00\n                /* \"#utility.yul\":9481:9496   */\n              revert\n                /* \"#utility.yul\":9507:9642   */\n            tag_150:\n                /* \"#utility.yul\":9546:9549   */\n              0x00\n                /* \"#utility.yul\":9567:9584   */\n              0x01\n              dup3\n              add\n                /* \"#utility.yul\":9564:9607   */\n              tag_382\n              jumpi\n                /* \"#utility.yul\":9587:9605   */\n              tag_382\n              tag_292\n              jump\t// in\n            tag_382:\n              pop\n                /* \"#utility.yul\":9634:9635   */\n              0x01\n                /* \"#utility.yul\":9623:9636   */\n              add\n              swap1\n                /* \"#utility.yul\":9507:9642   */\n              jump\t// out\n                /* \"#utility.yul\":9647:9864   */\n            tag_152:\n                /* \"#utility.yul\":9687:9688   */\n              0x00\n                /* \"#utility.yul\":9713:9714   */\n              dup3\n                /* \"#utility.yul\":9703:9835   */\n              tag_384\n              jumpi\n                /* \"#utility.yul\":9757:9767   */\n              0x4e487b71\n                /* \"#utility.yul\":9752:9755   */\n              0xe0\n                /* \"#utility.yul\":9748:9768   */\n              shl\n                /* \"#utility.yul\":9745:9746   */\n              0x00\n                /* \"#utility.yul\":9738:9769   */\n              mstore\n                /* \"#utility.yul\":9792:9796   */\n              0x12\n                /* \"#utility.yul\":9789:9790   */\n              0x04\n                /* \"#utility.yul\":9782:9797   */\n              mstore\n                /* \"#utility.yul\":9820:9824   */\n              0x24\n                /* \"#utility.yul\":9817:9818   */\n              0x00\n                /* \"#utility.yul\":9810:9825   */\n              revert\n                /* \"#utility.yul\":9703:9835   */\n            tag_384:\n              pop\n                /* \"#utility.yul\":9849:9858   */\n              div\n              swap1\n                /* \"#utility.yul\":9647:9864   */\n              jump\t// out\n                /* \"#utility.yul\":9869:10186   */\n            tag_161:\n              sub(shl(0xa0, 0x01), 0x01)\n                /* \"#utility.yul\":10046:10078   */\n              dup4\n              and\n                /* \"#utility.yul\":10028:10079   */\n              dup2\n              mstore\n                /* \"#utility.yul\":10115:10117   */\n              0x40\n                /* \"#utility.yul\":10110:10112   */\n              0x20\n                /* \"#utility.yul\":10095:10113   */\n              dup3\n              add\n                /* \"#utility.yul\":10088:10118   */\n              dup2\n              swap1\n              mstore\n              0x00\n              swap1\n                /* \"#utility.yul\":10135:10180   */\n              tag_321\n              swap1\n                /* \"#utility.yul\":10161:10179   */\n              dup4\n              add\n                /* \"#utility.yul\":10153:10159   */\n              dup5\n                /* \"#utility.yul\":10135:10180   */\n              tag_291\n              jump\t// in\n                /* \"#utility.yul\":10191:10571   */\n            tag_203:\n                /* \"#utility.yul\":10270:10271   */\n              0x01\n                /* \"#utility.yul\":10266:10278   */\n              dup2\n              dup2\n              shr\n              swap1\n                /* \"#utility.yul\":10313:10325   */\n              dup3\n              and\n              dup1\n                /* \"#utility.yul\":10334:10395   */\n              tag_388\n              jumpi\n                /* \"#utility.yul\":10388:10392   */\n              0x7f\n                /* \"#utility.yul\":10380:10386   */\n              dup3\n                /* \"#utility.yul\":10376:10393   */\n              and\n                /* \"#utility.yul\":10366:10393   */\n              swap2\n              pop\n                /* \"#utility.yul\":10334:10395   */\n            tag_388:\n                /* \"#utility.yul\":10441:10443   */\n              0x20\n                /* \"#utility.yul\":10433:10439   */\n              dup3\n                /* \"#utility.yul\":10430:10444   */\n              lt\n                /* \"#utility.yul\":10410:10428   */\n              dup2\n                /* \"#utility.yul\":10407:10445   */\n              sub\n                /* \"#utility.yul\":10404:10565   */\n              tag_389\n              jumpi\n                /* \"#utility.yul\":10487:10497   */\n              0x4e487b71\n                /* \"#utility.yul\":10482:10485   */\n              0xe0\n                /* \"#utility.yul\":10478:10498   */\n              shl\n                /* \"#utility.yul\":10475:10476   */\n              0x00\n                /* \"#utility.yul\":10468:10499   */\n              mstore\n                /* \"#utility.yul\":10522:10526   */\n              0x22\n                /* \"#utility.yul\":10519:10520   */\n              0x04\n                /* \"#utility.yul\":10512:10527   */\n              mstore\n                /* \"#utility.yul\":10550:10554   */\n              0x24\n                /* \"#utility.yul\":10547:10548   */\n              0x00\n                /* \"#utility.yul\":10540:10555   */\n              revert\n                /* \"#utility.yul\":10404:10565   */\n            tag_389:\n              pop\n                /* \"#utility.yul\":10191:10571   */\n              swap2\n              swap1\n              pop\n              jump\t// out\n                /* \"#utility.yul\":10576:10704   */\n            tag_235:\n                /* \"#utility.yul\":10643:10652   */\n              dup2\n              dup2\n              sub\n                /* \"#utility.yul\":10664:10675   */\n              dup2\n              dup2\n              gt\n                /* \"#utility.yul\":10661:10698   */\n              iszero\n              tag_392\n              jumpi\n                /* \"#utility.yul\":10678:10696   */\n              tag_392\n              tag_292\n              jump\t// in\n            tag_392:\n                /* \"#utility.yul\":10576:10704   */\n              swap3\n              swap2\n              pop\n              pop\n              jump\t// out\n                /* \"#utility.yul\":10835:11353   */\n            tag_294:\n                /* \"#utility.yul\":10937:10939   */\n              0x1f\n                /* \"#utility.yul\":10932:10935   */\n              dup3\n                /* \"#utility.yul\":10929:10940   */\n              gt\n                /* \"#utility.yul\":10926:11347   */\n              iszero\n              tag_225\n              jumpi\n                /* \"#utility.yul\":10973:10978   */\n              dup1\n                /* \"#utility.yul\":10970:10971   */\n              0x00\n                /* \"#utility.yul\":10963:10979   */\n              mstore\n                /* \"#utility.yul\":11017:11021   */\n              0x20\n                /* \"#utility.yul\":11014:11015   */\n              0x00\n                /* \"#utility.yul\":11004:11022   */\n              keccak256\n                /* \"#utility.yul\":11087:11089   */\n              0x1f\n                /* \"#utility.yul\":11075:11085   */\n              dup5\n                /* \"#utility.yul\":11071:11090   */\n              add\n                /* \"#utility.yul\":11068:11069   */\n              0x05\n                /* \"#utility.yul\":11064:11091   */\n              shr\n                /* \"#utility.yul\":11058:11062   */\n              dup2\n                /* \"#utility.yul\":11054:11092   */\n              add\n                /* \"#utility.yul\":11123:11127   */\n              0x20\n                /* \"#utility.yul\":11111:11121   */\n              dup6\n                /* \"#utility.yul\":11108:11128   */\n              lt\n                /* \"#utility.yul\":11105:11152   */\n              iszero\n              tag_396\n              jumpi\n              pop\n                /* \"#utility.yul\":11146:11150   */\n              dup1\n                /* \"#utility.yul\":11105:11152   */\n            tag_396:\n                /* \"#utility.yul\":11201:11203   */\n              0x1f\n                /* \"#utility.yul\":11196:11199   */\n              dup5\n                /* \"#utility.yul\":11192:11204   */\n              add\n                /* \"#utility.yul\":11189:11190   */\n              0x05\n                /* \"#utility.yul\":11185:11205   */\n              shr\n                /* \"#utility.yul\":11179:11183   */\n              dup3\n                /* \"#utility.yul\":11175:11206   */\n              add\n                /* \"#utility.yul\":11165:11206   */\n              swap2\n              pop\n                /* \"#utility.yul\":11256:11337   */\n            tag_397:\n                /* \"#utility.yul\":11274:11276   */\n              dup2\n                /* \"#utility.yul\":11267:11272   */\n              dup2\n                /* \"#utility.yul\":11264:11277   */\n              lt\n                /* \"#utility.yul\":11256:11337   */\n              iszero\n              tag_399\n              jumpi\n                /* \"#utility.yul\":11333:11334   */\n              0x00\n                /* \"#utility.yul\":11319:11335   */\n              dup2\n              sstore\n                /* \"#utility.yul\":11300:11301   */\n              0x01\n                /* \"#utility.yul\":11289:11302   */\n              add\n                /* \"#utility.yul\":11256:11337   */\n              jump(tag_397)\n            tag_399:\n                /* \"#utility.yul\":11260:11263   */\n              pop\n              pop\n                /* \"#utility.yul\":10835:11353   */\n              pop\n              pop\n              pop\n              jump\t// out\n                /* \"#utility.yul\":11529:12874   */\n            tag_242:\n                /* \"#utility.yul\":11649:11659   */\n              dup2\n              mload\n              sub(shl(0x40, 0x01), 0x01)\n                /* \"#utility.yul\":11671:11701   */\n              dup2\n              gt\n                /* \"#utility.yul\":11668:11724   */\n              iszero\n              tag_403\n              jumpi\n                /* \"#utility.yul\":11704:11722   */\n              tag_403\n              tag_284\n              jump\t// in\n            tag_403:\n                /* \"#utility.yul\":11733:11830   */\n              tag_404\n                /* \"#utility.yul\":11823:11829   */\n              dup2\n                /* \"#utility.yul\":11783:11821   */\n              tag_405\n                /* \"#utility.yul\":11815:11819   */\n              dup5\n                /* \"#utility.yul\":11809:11820   */\n              sload\n                /* \"#utility.yul\":11783:11821   */\n              tag_203\n              jump\t// in\n            tag_405:\n                /* \"#utility.yul\":11777:11781   */\n              dup5\n                /* \"#utility.yul\":11733:11830   */\n              tag_294\n              jump\t// in\n            tag_404:\n                /* \"#utility.yul\":11885:11889   */\n              0x20\n              dup1\n                /* \"#utility.yul\":11942:11944   */\n              0x1f\n                /* \"#utility.yul\":11931:11945   */\n              dup4\n              gt\n                /* \"#utility.yul\":11959:11960   */\n              0x01\n                /* \"#utility.yul\":11954:12617   */\n              dup2\n              eq\n              tag_407\n              jumpi\n                /* \"#utility.yul\":12661:12662   */\n              0x00\n                /* \"#utility.yul\":12678:12684   */\n              dup5\n                /* \"#utility.yul\":12675:12764   */\n              iszero\n              tag_408\n              jumpi\n              pop\n                /* \"#utility.yul\":12730:12749   */\n              dup6\n              dup4\n              add\n                /* \"#utility.yul\":12724:12750   */\n              mload\n                /* \"#utility.yul\":12675:12764   */\n            tag_408:\n              not(0x00)\n                /* \"#utility.yul\":11486:11487   */\n              0x03\n                /* \"#utility.yul\":11482:11493   */\n              dup7\n              swap1\n              shl\n                /* \"#utility.yul\":11478:11502   */\n              shr\n                /* \"#utility.yul\":11474:11503   */\n              not\n                /* \"#utility.yul\":11464:11504   */\n              and\n                /* \"#utility.yul\":11510:11511   */\n              0x01\n                /* \"#utility.yul\":11506:11517   */\n              dup6\n              swap1\n              shl\n                /* \"#utility.yul\":11461:11518   */\n              or\n                /* \"#utility.yul\":12777:12858   */\n              dup6\n              sstore\n                /* \"#utility.yul\":11924:12868   */\n              jump(tag_172)\n                /* \"#utility.yul\":11954:12617   */\n            tag_407:\n                /* \"#utility.yul\":10782:10783   */\n              0x00\n                /* \"#utility.yul\":10775:10789   */\n              dup6\n              dup2\n              mstore\n                /* \"#utility.yul\":10819:10823   */\n              0x20\n                /* \"#utility.yul\":10806:10824   */\n              dup2\n              keccak256\n              not(0x1f)\n                /* \"#utility.yul\":11990:12010   */\n              dup7\n              and\n              swap2\n                /* \"#utility.yul\":12108:12344   */\n            tag_411:\n                /* \"#utility.yul\":12122:12129   */\n              dup3\n                /* \"#utility.yul\":12119:12120   */\n              dup2\n                /* \"#utility.yul\":12116:12130   */\n              lt\n                /* \"#utility.yul\":12108:12344   */\n              iszero\n              tag_413\n              jumpi\n                /* \"#utility.yul\":12211:12230   */\n              dup9\n              dup7\n              add\n                /* \"#utility.yul\":12205:12231   */\n              mload\n                /* \"#utility.yul\":12190:12232   */\n              dup3\n              sstore\n                /* \"#utility.yul\":12303:12330   */\n              swap5\n              dup5\n              add\n              swap5\n                /* \"#utility.yul\":12271:12272   */\n              0x01\n                /* \"#utility.yul\":12259:12273   */\n              swap1\n              swap2\n              add\n              swap1\n                /* \"#utility.yul\":12138:12157   */\n              dup5\n              add\n                /* \"#utility.yul\":12108:12344   */\n              jump(tag_411)\n            tag_413:\n                /* \"#utility.yul\":12112:12115   */\n              pop\n                /* \"#utility.yul\":12372:12378   */\n              dup6\n                /* \"#utility.yul\":12363:12370   */\n              dup3\n                /* \"#utility.yul\":12360:12379   */\n              lt\n                /* \"#utility.yul\":12357:12558   */\n              iszero\n              tag_414\n              jumpi\n                /* \"#utility.yul\":12433:12452   */\n              dup8\n              dup6\n              add\n                /* \"#utility.yul\":12427:12453   */\n              mload\n              not(0x00)\n                /* \"#utility.yul\":12516:12517   */\n              0x03\n                /* \"#utility.yul\":12512:12526   */\n              dup9\n              swap1\n              shl\n                /* \"#utility.yul\":12528:12531   */\n              0xf8\n                /* \"#utility.yul\":12508:12532   */\n              and\n                /* \"#utility.yul\":12504:12541   */\n              shr\n                /* \"#utility.yul\":12500:12542   */\n              not\n                /* \"#utility.yul\":12485:12543   */\n              and\n                /* \"#utility.yul\":12470:12544   */\n              dup2\n              sstore\n                /* \"#utility.yul\":12357:12558   */\n            tag_414:\n              pop\n              pop\n              pop\n              pop\n              pop\n                /* \"#utility.yul\":12604:12605   */\n              0x01\n                /* \"#utility.yul\":12588:12602   */\n              swap1\n              dup2\n              shl\n                /* \"#utility.yul\":12584:12606   */\n              add\n                /* \"#utility.yul\":12571:12607   */\n              swap1\n              sstore\n              pop\n                /* \"#utility.yul\":11529:12874   */\n              jump\t// out\n\n            auxdata: 0xa26469706673582212204c622a64c9132c3806ae243c13a47fee0d7a0349a55a42c8ab0b71e3e51c6ff064736f6c63430008170033\n        }\n\n        sub_1: assembly {\n                /* \"ProjectNFT.sol\":339:1680  contract ProjectNFT is ERC721, ERC721Enumerable, ERC721URIStorage, Ownable {... */\n              mstore(0x40, 0x80)\n                /* \"ProjectNFT.sol\":455:606  constructor(... */\n              callvalue\n              dup1\n              iszero\n              tag_1\n              jumpi\n              0x00\n              dup1\n              revert\n            tag_1:\n              pop\n              mload(0x40)\n              sub(codesize, bytecodeSize)\n              dup1\n              bytecodeSize\n              dup4\n              codecopy\n              dup2\n              add\n              0x40\n              dup2\n              swap1\n              mstore\n              tag_2\n              swap2\n              tag_3\n              jump\t// in\n            tag_2:\n                /* \"ProjectNFT.sol\":590:602  initialOwner */\n              dup3\n                /* \"ProjectNFT.sol\":568:572  name */\n              dup3\n                /* \"ProjectNFT.sol\":574:580  symbol */\n              dup3\n                /* \"@openzeppelin/contracts/token/ERC721/ERC721.sol\":1447:1452  _name */\n              0x00\n                /* \"@openzeppelin/contracts/token/ERC721/ERC721.sol\":1447:1460  _name = name_ */\n              tag_8\n                /* \"ProjectNFT.sol\":568:572  name */\n              dup4\n                /* \"@openzeppelin/contracts/token/ERC721/ERC721.sol\":1447:1452  _name */\n              dup3\n                /* \"@openzeppelin/contracts/token/ERC721/ERC721.sol\":1447:1460  _name = name_ */\n              tag_9\n              jump\t// in\n            tag_8:\n              pop\n                /* \"@openzeppelin/contracts/token/ERC721/ERC721.sol\":1470:1477  _symbol */\n              0x01\n                /* \"@openzeppelin/contracts/token/ERC721/ERC721.sol\":1470:1487  _symbol = symbol_ */\n              tag_10\n                /* \"@openzeppelin/contracts/token/ERC721/ERC721.sol\":1480:1487  symbol_ */\n              dup3\n                /* \"@openzeppelin/contracts/token/ERC721/ERC721.sol\":1470:1477  _symbol */\n              dup3\n                /* \"@openzeppelin/contracts/token/ERC721/ERC721.sol\":1470:1487  _symbol = symbol_ */\n              tag_9\n              jump\t// in\n            tag_10:\n              pop\n              pop\n              pop\n              sub(shl(0xa0, 0x01), 0x01)\n                /* \"@openzeppelin/contracts/access/Ownable.sol\":1273:1299  initialOwner == address(0) */\n              dup2\n              and\n                /* \"@openzeppelin/contracts/access/Ownable.sol\":1269:1364  if (initialOwner == address(0)) {... */\n              tag_12\n              jumpi\n                /* \"@openzeppelin/contracts/access/Ownable.sol\":1322:1353  OwnableInvalidOwner(address(0)) */\n              mload(0x40)\n              shl(0xe0, 0x1e4fbdf7)\n              dup2\n              mstore\n                /* \"@openzeppelin/contracts/access/Ownable.sol\":1350:1351  0 */\n              0x00\n                /* \"@openzeppelin/contracts/access/Ownable.sol\":1322:1353  OwnableInvalidOwner(address(0)) */\n              0x04\n              dup3\n              add\n                /* \"#utility.yul\":4430:4481   */\n              mstore\n                /* \"#utility.yul\":4403:4421   */\n              0x24\n              add\n                /* \"@openzeppelin/contracts/access/Ownable.sol\":1322:1353  OwnableInvalidOwner(address(0)) */\n              mload(0x40)\n              dup1\n              swap2\n              sub\n              swap1\n              revert\n                /* \"@openzeppelin/contracts/access/Ownable.sol\":1269:1364  if (initialOwner == address(0)) {... */\n            tag_12:\n                /* \"@openzeppelin/contracts/access/Ownable.sol\":1373:1405  _transferOwnership(initialOwner) */\n              tag_15\n                /* \"@openzeppelin/contracts/access/Ownable.sol\":1392:1404  initialOwner */\n              dup2\n                /* \"@openzeppelin/contracts/access/Ownable.sol\":1373:1391  _transferOwnership */\n              tag_16\n                /* \"@openzeppelin/contracts/access/Ownable.sol\":1373:1405  _transferOwnership(initialOwner) */\n              jump\t// in\n            tag_15:\n                /* \"@openzeppelin/contracts/access/Ownable.sol\":1225:1412  constructor(address initialOwner) {... */\n              pop\n                /* \"ProjectNFT.sol\":455:606  constructor(... */\n              pop\n              pop\n              pop\n                /* \"ProjectNFT.sol\":339:1680  contract ProjectNFT is ERC721, ERC721Enumerable, ERC721URIStorage, Ownable {... */\n              jump(tag_26)\n                /* \"@openzeppelin/contracts/access/Ownable.sol\":2912:3099  function _transferOwnership(address newOwner) internal virtual {... */\n            tag_16:\n                /* \"@openzeppelin/contracts/access/Ownable.sol\":3004:3010  _owner */\n              0x0b\n              dup1\n              sload\n              sub(shl(0xa0, 0x01), 0x01)\n                /* \"@openzeppelin/contracts/access/Ownable.sol\":3020:3037  _owner = newOwner */\n              dup4\n              dup2\n              and\n              not(sub(shl(0xa0, 0x01), 0x01))\n              dup4\n              and\n              dup2\n              or\n              swap1\n              swap4\n              sstore\n                /* \"@openzeppelin/contracts/access/Ownable.sol\":3052:3092  OwnershipTransferred(oldOwner, newOwner) */\n              mload(0x40)\n                /* \"@openzeppelin/contracts/access/Ownable.sol\":3004:3010  _owner */\n              swap2\n              and\n              swap2\n                /* \"@openzeppelin/contracts/access/Ownable.sol\":3020:3037  _owner = newOwner */\n              swap1\n                /* \"@openzeppelin/contracts/access/Ownable.sol\":3004:3010  _owner */\n              dup3\n              swap1\n                /* \"@openzeppelin/contracts/access/Ownable.sol\":3052:3092  OwnershipTransferred(oldOwner, newOwner) */\n              0x8be0079c531659141344cd1fd0a4f28419497f9722a3daafe3b4186f6b6457e0\n              swap1\n                /* \"@openzeppelin/contracts/access/Ownable.sol\":2985:3001  address oldOwner */\n              0x00\n              swap1\n                /* \"@openzeppelin/contracts/access/Ownable.sol\":3052:3092  OwnershipTransferred(oldOwner, newOwner) */\n              log3\n                /* \"@openzeppelin/contracts/access/Ownable.sol\":2975:3099  {... */\n              pop\n                /* \"@openzeppelin/contracts/access/Ownable.sol\":2912:3099  function _transferOwnership(address newOwner) internal virtual {... */\n              pop\n              jump\t// out\n                /* \"#utility.yul\":14:141   */\n            tag_20:\n                /* \"#utility.yul\":75:85   */\n              0x4e487b71\n                /* \"#utility.yul\":70:73   */\n              0xe0\n                /* \"#utility.yul\":66:86   */\n              shl\n                /* \"#utility.yul\":63:64   */\n              0x00\n                /* \"#utility.yul\":56:87   */\n              mstore\n                /* \"#utility.yul\":106:110   */\n              0x41\n                /* \"#utility.yul\":103:104   */\n              0x04\n                /* \"#utility.yul\":96:111   */\n              mstore\n                /* \"#utility.yul\":130:134   */\n              0x24\n                /* \"#utility.yul\":127:128   */\n              0x00\n                /* \"#utility.yul\":120:135   */\n              revert\n                /* \"#utility.yul\":146:990   */\n            tag_21:\n                /* \"#utility.yul\":200:205   */\n              0x00\n                /* \"#utility.yul\":253:256   */\n              dup3\n                /* \"#utility.yul\":246:250   */\n              0x1f\n                /* \"#utility.yul\":238:244   */\n              dup4\n                /* \"#utility.yul\":234:251   */\n              add\n                /* \"#utility.yul\":230:257   */\n              slt\n                /* \"#utility.yul\":220:275   */\n              tag_29\n              jumpi\n                /* \"#utility.yul\":271:272   */\n              0x00\n                /* \"#utility.yul\":268:269   */\n              dup1\n                /* \"#utility.yul\":261:273   */\n              revert\n                /* \"#utility.yul\":220:275   */\n            tag_29:\n                /* \"#utility.yul\":294:307   */\n              dup2\n              mload\n              sub(shl(0x40, 0x01), 0x01)\n                /* \"#utility.yul\":356:366   */\n              dup1\n              dup3\n              gt\n                /* \"#utility.yul\":353:389   */\n              iszero\n              tag_31\n              jumpi\n                /* \"#utility.yul\":369:387   */\n              tag_31\n              tag_20\n              jump\t// in\n            tag_31:\n                /* \"#utility.yul\":444:446   */\n              0x40\n                /* \"#utility.yul\":438:447   */\n              mload\n                /* \"#utility.yul\":412:414   */\n              0x1f\n                /* \"#utility.yul\":498:511   */\n              dup4\n              add\n              not(0x1f)\n                /* \"#utility.yul\":494:516   */\n              swap1\n              dup2\n              and\n                /* \"#utility.yul\":518:520   */\n              0x3f\n                /* \"#utility.yul\":490:521   */\n              add\n                /* \"#utility.yul\":486:526   */\n              and\n                /* \"#utility.yul\":474:527   */\n              dup2\n              add\n              swap1\n                /* \"#utility.yul\":542:560   */\n              dup3\n              dup3\n              gt\n                /* \"#utility.yul\":562:584   */\n              dup2\n              dup4\n              lt\n                /* \"#utility.yul\":539:585   */\n              or\n                /* \"#utility.yul\":536:608   */\n              iszero\n              tag_33\n              jumpi\n                /* \"#utility.yul\":588:606   */\n              tag_33\n              tag_20\n              jump\t// in\n            tag_33:\n                /* \"#utility.yul\":628:638   */\n              dup2\n                /* \"#utility.yul\":624:626   */\n              0x40\n                /* \"#utility.yul\":617:639   */\n              mstore\n                /* \"#utility.yul\":663:665   */\n              dup4\n                /* \"#utility.yul\":655:661   */\n              dup2\n                /* \"#utility.yul\":648:666   */\n              mstore\n                /* \"#utility.yul\":685:689   */\n              0x20\n                /* \"#utility.yul\":675:689   */\n              swap3\n              pop\n                /* \"#utility.yul\":732:735   */\n              dup7\n                /* \"#utility.yul\":725:729   */\n              0x20\n                /* \"#utility.yul\":720:722   */\n              dup6\n                /* \"#utility.yul\":712:718   */\n              dup9\n                /* \"#utility.yul\":708:723   */\n              add\n                /* \"#utility.yul\":704:730   */\n              add\n                /* \"#utility.yul\":701:736   */\n              gt\n                /* \"#utility.yul\":698:753   */\n              iszero\n              tag_34\n              jumpi\n                /* \"#utility.yul\":749:750   */\n              0x00\n                /* \"#utility.yul\":746:747   */\n              dup1\n                /* \"#utility.yul\":739:751   */\n              revert\n                /* \"#utility.yul\":698:753   */\n            tag_34:\n                /* \"#utility.yul\":771:772   */\n              0x00\n                /* \"#utility.yul\":762:772   */\n              swap2\n              pop\n                /* \"#utility.yul\":781:914   */\n            tag_35:\n                /* \"#utility.yul\":795:797   */\n              dup4\n                /* \"#utility.yul\":792:793   */\n              dup3\n                /* \"#utility.yul\":789:798   */\n              lt\n                /* \"#utility.yul\":781:914   */\n              iszero\n              tag_37\n              jumpi\n                /* \"#utility.yul\":883:897   */\n              dup6\n              dup3\n              add\n                /* \"#utility.yul\":879:902   */\n              dup4\n              add\n                /* \"#utility.yul\":873:903   */\n              mload\n                /* \"#utility.yul\":852:866   */\n              dup2\n              dup4\n              add\n                /* \"#utility.yul\":848:871   */\n              dup5\n              add\n                /* \"#utility.yul\":841:904   */\n              mstore\n                /* \"#utility.yul\":806:816   */\n              swap1\n              dup3\n              add\n              swap1\n                /* \"#utility.yul\":781:914   */\n              jump(tag_35)\n            tag_37:\n                /* \"#utility.yul\":958:959   */\n              0x00\n                /* \"#utility.yul\":951:955   */\n              0x20\n                /* \"#utility.yul\":946:948   */\n              dup6\n                /* \"#utility.yul\":938:944   */\n              dup4\n                /* \"#utility.yul\":934:949   */\n              add\n                /* \"#utility.yul\":930:956   */\n              add\n                /* \"#utility.yul\":923:960   */\n              mstore\n                /* \"#utility.yul\":978:984   */\n              dup1\n                /* \"#utility.yul\":969:984   */\n              swap5\n              pop\n              pop\n              pop\n              pop\n              pop\n                /* \"#utility.yul\":146:990   */\n              swap3\n              swap2\n              pop\n              pop\n              jump\t// out\n                /* \"#utility.yul\":995:1724   */\n            tag_3:\n                /* \"#utility.yul\":1103:1109   */\n              0x00\n                /* \"#utility.yul\":1111:1117   */\n              dup1\n                /* \"#utility.yul\":1119:1125   */\n              0x00\n                /* \"#utility.yul\":1172:1174   */\n              0x60\n                /* \"#utility.yul\":1160:1169   */\n              dup5\n                /* \"#utility.yul\":1151:1158   */\n              dup7\n                /* \"#utility.yul\":1147:1170   */\n              sub\n                /* \"#utility.yul\":1143:1175   */\n              slt\n                /* \"#utility.yul\":1140:1192   */\n              iszero\n              tag_39\n              jumpi\n                /* \"#utility.yul\":1188:1189   */\n              0x00\n                /* \"#utility.yul\":1185:1186   */\n              dup1\n                /* \"#utility.yul\":1178:1190   */\n              revert\n                /* \"#utility.yul\":1140:1192   */\n            tag_39:\n                /* \"#utility.yul\":1214:1230   */\n              dup4\n              mload\n              sub(shl(0xa0, 0x01), 0x01)\n                /* \"#utility.yul\":1259:1290   */\n              dup2\n              and\n                /* \"#utility.yul\":1249:1291   */\n              dup2\n              eq\n                /* \"#utility.yul\":1239:1309   */\n              tag_40\n              jumpi\n                /* \"#utility.yul\":1305:1306   */\n              0x00\n                /* \"#utility.yul\":1302:1303   */\n              dup1\n                /* \"#utility.yul\":1295:1307   */\n              revert\n                /* \"#utility.yul\":1239:1309   */\n            tag_40:\n                /* \"#utility.yul\":1377:1379   */\n              0x20\n                /* \"#utility.yul\":1362:1380   */\n              dup6\n              add\n                /* \"#utility.yul\":1356:1381   */\n              mload\n                /* \"#utility.yul\":1328:1333   */\n              swap1\n              swap4\n              pop\n              sub(shl(0x40, 0x01), 0x01)\n                /* \"#utility.yul\":1430:1444   */\n              dup1\n              dup3\n              gt\n                /* \"#utility.yul\":1427:1461   */\n              iszero\n              tag_41\n              jumpi\n                /* \"#utility.yul\":1457:1458   */\n              0x00\n                /* \"#utility.yul\":1454:1455   */\n              dup1\n                /* \"#utility.yul\":1447:1459   */\n              revert\n                /* \"#utility.yul\":1427:1461   */\n            tag_41:\n                /* \"#utility.yul\":1480:1541   */\n              tag_42\n                /* \"#utility.yul\":1533:1540   */\n              dup8\n                /* \"#utility.yul\":1524:1530   */\n              dup4\n                /* \"#utility.yul\":1513:1522   */\n              dup9\n                /* \"#utility.yul\":1509:1531   */\n              add\n                /* \"#utility.yul\":1480:1541   */\n              tag_21\n              jump\t// in\n            tag_42:\n                /* \"#utility.yul\":1470:1541   */\n              swap4\n              pop\n                /* \"#utility.yul\":1587:1589   */\n              0x40\n                /* \"#utility.yul\":1576:1585   */\n              dup7\n                /* \"#utility.yul\":1572:1590   */\n              add\n                /* \"#utility.yul\":1566:1591   */\n              mload\n                /* \"#utility.yul\":1550:1591   */\n              swap2\n              pop\n                /* \"#utility.yul\":1616:1618   */\n              dup1\n                /* \"#utility.yul\":1606:1614   */\n              dup3\n                /* \"#utility.yul\":1603:1619   */\n              gt\n                /* \"#utility.yul\":1600:1636   */\n              iszero\n              tag_43\n              jumpi\n                /* \"#utility.yul\":1632:1633   */\n              0x00\n                /* \"#utility.yul\":1629:1630   */\n              dup1\n                /* \"#utility.yul\":1622:1634   */\n              revert\n                /* \"#utility.yul\":1600:1636   */\n            tag_43:\n              pop\n                /* \"#utility.yul\":1655:1718   */\n              tag_44\n                /* \"#utility.yul\":1710:1717   */\n              dup7\n                /* \"#utility.yul\":1699:1707   */\n              dup3\n                /* \"#utility.yul\":1688:1697   */\n              dup8\n                /* \"#utility.yul\":1684:1708   */\n              add\n                /* \"#utility.yul\":1655:1718   */\n              tag_21\n              jump\t// in\n            tag_44:\n                /* \"#utility.yul\":1645:1718   */\n              swap2\n              pop\n              pop\n                /* \"#utility.yul\":995:1724   */\n              swap3\n              pop\n              swap3\n              pop\n              swap3\n              jump\t// out\n                /* \"#utility.yul\":1729:2109   */\n            tag_22:\n                /* \"#utility.yul\":1808:1809   */\n              0x01\n                /* \"#utility.yul\":1804:1816   */\n              dup2\n              dup2\n              shr\n              swap1\n                /* \"#utility.yul\":1851:1863   */\n              dup3\n              and\n              dup1\n                /* \"#utility.yul\":1872:1933   */\n              tag_46\n              jumpi\n                /* \"#utility.yul\":1926:1930   */\n              0x7f\n                /* \"#utility.yul\":1918:1924   */\n              dup3\n                /* \"#utility.yul\":1914:1931   */\n              and\n                /* \"#utility.yul\":1904:1931   */\n              swap2\n              pop\n                /* \"#utility.yul\":1872:1933   */\n            tag_46:\n                /* \"#utility.yul\":1979:1981   */\n              0x20\n                /* \"#utility.yul\":1971:1977   */\n              dup3\n                /* \"#utility.yul\":1968:1982   */\n              lt\n                /* \"#utility.yul\":1948:1966   */\n              dup2\n                /* \"#utility.yul\":1945:1983   */\n              sub\n                /* \"#utility.yul\":1942:2103   */\n              tag_47\n              jumpi\n                /* \"#utility.yul\":2025:2035   */\n              0x4e487b71\n                /* \"#utility.yul\":2020:2023   */\n              0xe0\n                /* \"#utility.yul\":2016:2036   */\n              shl\n                /* \"#utility.yul\":2013:2014   */\n              0x00\n                /* \"#utility.yul\":2006:2037   */\n              mstore\n                /* \"#utility.yul\":2060:2064   */\n              0x22\n                /* \"#utility.yul\":2057:2058   */\n              0x04\n                /* \"#utility.yul\":2050:2065   */\n              mstore\n                /* \"#utility.yul\":2088:2092   */\n              0x24\n                /* \"#utility.yul\":2085:2086   */\n              0x00\n                /* \"#utility.yul\":2078:2093   */\n              revert\n                /* \"#utility.yul\":1942:2103   */\n            tag_47:\n              pop\n                /* \"#utility.yul\":1729:2109   */\n              swap2\n              swap1\n              pop\n              jump\t// out\n                /* \"#utility.yul\":2240:2758   */\n            tag_24:\n                /* \"#utility.yul\":2342:2344   */\n              0x1f\n                /* \"#utility.yul\":2337:2340   */\n              dup3\n                /* \"#utility.yul\":2334:2345   */\n              gt\n                /* \"#utility.yul\":2331:2752   */\n              iszero\n              tag_50\n              jumpi\n                /* \"#utility.yul\":2378:2383   */\n              dup1\n                /* \"#utility.yul\":2375:2376   */\n              0x00\n                /* \"#utility.yul\":2368:2384   */\n              mstore\n                /* \"#utility.yul\":2422:2426   */\n              0x20\n                /* \"#utility.yul\":2419:2420   */\n              0x00\n                /* \"#utility.yul\":2409:2427   */\n              keccak256\n                /* \"#utility.yul\":2492:2494   */\n              0x1f\n                /* \"#utility.yul\":2480:2490   */\n              dup5\n                /* \"#utility.yul\":2476:2495   */\n              add\n                /* \"#utility.yul\":2473:2474   */\n              0x05\n                /* \"#utility.yul\":2469:2496   */\n              shr\n                /* \"#utility.yul\":2463:2467   */\n              dup2\n                /* \"#utility.yul\":2459:2497   */\n              add\n                /* \"#utility.yul\":2528:2532   */\n              0x20\n                /* \"#utility.yul\":2516:2526   */\n              dup6\n                /* \"#utility.yul\":2513:2533   */\n              lt\n                /* \"#utility.yul\":2510:2557   */\n              iszero\n              tag_51\n              jumpi\n              pop\n                /* \"#utility.yul\":2551:2555   */\n              dup1\n                /* \"#utility.yul\":2510:2557   */\n            tag_51:\n                /* \"#utility.yul\":2606:2608   */\n              0x1f\n                /* \"#utility.yul\":2601:2604   */\n              dup5\n                /* \"#utility.yul\":2597:2609   */\n              add\n                /* \"#utility.yul\":2594:2595   */\n              0x05\n                /* \"#utility.yul\":2590:2610   */\n              shr\n                /* \"#utility.yul\":2584:2588   */\n              dup3\n                /* \"#utility.yul\":2580:2611   */\n              add\n                /* \"#utility.yul\":2570:2611   */\n              swap2\n              pop\n                /* \"#utility.yul\":2661:2742   */\n            tag_52:\n                /* \"#utility.yul\":2679:2681   */\n              dup2\n                /* \"#utility.yul\":2672:2677   */\n              dup2\n                /* \"#utility.yul\":2669:2682   */\n              lt\n                /* \"#utility.yul\":2661:2742   */\n              iszero\n              tag_54\n              jumpi\n                /* \"#utility.yul\":2738:2739   */\n              0x00\n                /* \"#utility.yul\":2724:2740   */\n              dup2\n              sstore\n                /* \"#utility.yul\":2705:2706   */\n              0x01\n                /* \"#utility.yul\":2694:2707   */\n              add\n                /* \"#utility.yul\":2661:2742   */\n              jump(tag_52)\n            tag_54:\n                /* \"#utility.yul\":2665:2668   */\n              pop\n              pop\n                /* \"#utility.yul\":2331:2752   */\n            tag_50:\n                /* \"#utility.yul\":2240:2758   */\n              pop\n              pop\n              pop\n              jump\t// out\n                /* \"#utility.yul\":2934:4279   */\n            tag_9:\n                /* \"#utility.yul\":3054:3064   */\n              dup2\n              mload\n              sub(shl(0x40, 0x01), 0x01)\n                /* \"#utility.yul\":3076:3106   */\n              dup2\n              gt\n                /* \"#utility.yul\":3073:3129   */\n              iszero\n              tag_58\n              jumpi\n                /* \"#utility.yul\":3109:3127   */\n              tag_58\n              tag_20\n              jump\t// in\n            tag_58:\n                /* \"#utility.yul\":3138:3235   */\n              tag_59\n                /* \"#utility.yul\":3228:3234   */\n              dup2\n                /* \"#utility.yul\":3188:3226   */\n              tag_60\n                /* \"#utility.yul\":3220:3224   */\n              dup5\n                /* \"#utility.yul\":3214:3225   */\n              sload\n                /* \"#utility.yul\":3188:3226   */\n              tag_22\n              jump\t// in\n            tag_60:\n                /* \"#utility.yul\":3182:3186   */\n              dup5\n                /* \"#utility.yul\":3138:3235   */\n              tag_24\n              jump\t// in\n            tag_59:\n                /* \"#utility.yul\":3290:3294   */\n              0x20\n              dup1\n                /* \"#utility.yul\":3347:3349   */\n              0x1f\n                /* \"#utility.yul\":3336:3350   */\n              dup4\n              gt\n                /* \"#utility.yul\":3364:3365   */\n              0x01\n                /* \"#utility.yul\":3359:4022   */\n              dup2\n              eq\n              tag_62\n              jumpi\n                /* \"#utility.yul\":4066:4067   */\n              0x00\n                /* \"#utility.yul\":4083:4089   */\n              dup5\n                /* \"#utility.yul\":4080:4169   */\n              iszero\n              tag_63\n              jumpi\n              pop\n                /* \"#utility.yul\":4135:4154   */\n              dup6\n              dup4\n              add\n                /* \"#utility.yul\":4129:4155   */\n              mload\n                /* \"#utility.yul\":4080:4169   */\n            tag_63:\n              not(0x00)\n                /* \"#utility.yul\":2891:2892   */\n              0x03\n                /* \"#utility.yul\":2887:2898   */\n              dup7\n              swap1\n              shl\n                /* \"#utility.yul\":2883:2907   */\n              shr\n                /* \"#utility.yul\":2879:2908   */\n              not\n                /* \"#utility.yul\":2869:2909   */\n              and\n                /* \"#utility.yul\":2915:2916   */\n              0x01\n                /* \"#utility.yul\":2911:2922   */\n              dup6\n              swap1\n              shl\n                /* \"#utility.yul\":2866:2923   */\n              or\n                /* \"#utility.yul\":4182:4263   */\n              dup6\n              sstore\n                /* \"#utility.yul\":3329:4273   */\n              jump(tag_61)\n                /* \"#utility.yul\":3359:4022   */\n            tag_62:\n                /* \"#utility.yul\":2187:2188   */\n              0x00\n                /* \"#utility.yul\":2180:2194   */\n              dup6\n              dup2\n              mstore\n                /* \"#utility.yul\":2224:2228   */\n              0x20\n                /* \"#utility.yul\":2211:2229   */\n              dup2\n              keccak256\n              not(0x1f)\n                /* \"#utility.yul\":3395:3415   */\n              dup7\n              and\n              swap2\n                /* \"#utility.yul\":3513:3749   */\n            tag_66:\n                /* \"#utility.yul\":3527:3534   */\n              dup3\n                /* \"#utility.yul\":3524:3525   */\n              dup2\n                /* \"#utility.yul\":3521:3535   */\n              lt\n                /* \"#utility.yul\":3513:3749   */\n              iszero\n              tag_68\n              jumpi\n                /* \"#utility.yul\":3616:3635   */\n              dup9\n              dup7\n              add\n                /* \"#utility.yul\":3610:3636   */\n              mload\n                /* \"#utility.yul\":3595:3637   */\n              dup3\n              sstore\n                /* \"#utility.yul\":3708:3735   */\n              swap5\n              dup5\n              add\n              swap5\n                /* \"#utility.yul\":3676:3677   */\n              0x01\n                /* \"#utility.yul\":3664:3678   */\n              swap1\n              swap2\n              add\n              swap1\n                /* \"#utility.yul\":3543:3562   */\n              dup5\n              add\n                /* \"#utility.yul\":3513:3749   */\n              jump(tag_66)\n            tag_68:\n                /* \"#utility.yul\":3517:3520   */\n              pop\n                /* \"#utility.yul\":3777:3783   */\n              dup6\n                /* \"#utility.yul\":3768:3775   */\n              dup3\n                /* \"#utility.yul\":3765:3784   */\n              lt\n                /* \"#utility.yul\":3762:3963   */\n              iszero\n              tag_69\n              jumpi\n                /* \"#utility.yul\":3838:3857   */\n              dup8\n              dup6\n              add\n                /* \"#utility.yul\":3832:3858   */\n              mload\n              not(0x00)\n                /* \"#utility.yul\":3921:3922   */\n              0x03\n                /* \"#utility.yul\":3917:3931   */\n              dup9\n              swap1\n              shl\n                /* \"#utility.yul\":3933:3936   */\n              0xf8\n                /* \"#utility.yul\":3913:3937   */\n              and\n                /* \"#utility.yul\":3909:3946   */\n              shr\n                /* \"#utility.yul\":3905:3947   */\n              not\n                /* \"#utility.yul\":3890:3948   */\n              and\n                /* \"#utility.yul\":3875:3949   */\n              dup2\n              sstore\n                /* \"#utility.yul\":3762:3963   */\n            tag_69:\n              pop\n              pop\n                /* \"#utility.yul\":4009:4010   */\n              0x01\n                /* \"#utility.yul\":4000:4006   */\n              dup5\n                /* \"#utility.yul\":3997:3998   */\n              0x01\n                /* \"#utility.yul\":3993:4007   */\n              shl\n                /* \"#utility.yul\":3989:4011   */\n              add\n                /* \"#utility.yul\":3983:3987   */\n              dup6\n                /* \"#utility.yul\":3976:4012   */\n              sstore\n                /* \"#utility.yul\":3329:4273   */\n            tag_61:\n              pop\n              pop\n              pop\n              pop\n                /* \"#utility.yul\":2934:4279   */\n              pop\n              pop\n              jump\t// out\n                /* \"#utility.yul\":4284:4487   */\n            tag_26:\n                /* \"ProjectNFT.sol\":339:1680  contract ProjectNFT is ERC721, ERC721Enumerable, ERC721URIStorage, Ownable {... */\n              dataSize(sub_0)\n              dup1\n              dataOffset(sub_0)\n              0x00\n              codecopy\n              0x00\n              return\n            stop\n\n            sub_0: assembly {\n                    /* \"ProjectNFT.sol\":339:1680  contract ProjectNFT is ERC721, ERC721Enumerable, ERC721URIStorage, Ownable {... */\n                  mstore(0x40, 0x80)\n                  callvalue\n                  dup1\n                  iszero\n                  tag_1\n                  jumpi\n                  0x00\n                  dup1\n                  revert\n                tag_1:\n                  pop\n                  jumpi(tag_2, lt(calldatasize, 0x04))\n                  shr(0xe0, calldataload(0x00))\n                  dup1\n                  0x01ffc9a7\n                  eq\n                  tag_3\n                  jumpi\n                  dup1\n                  0x06fdde03\n                  eq\n                  tag_4\n                  jumpi\n                  dup1\n                  0x081812fc\n                  eq\n                  tag_5\n                  jumpi\n                  dup1\n                  0x095ea7b3\n                  eq\n                  tag_6\n                  jumpi\n                  dup1\n                  0x18160ddd\n                  eq\n                  tag_7\n                  jumpi\n                  dup1\n                  0x23b872dd\n                  eq\n                  tag_8\n                  jumpi\n                  dup1\n                  0x2f745c59\n                  eq\n                  tag_9\n                  jumpi\n                  dup1\n                  0x42842e0e\n                  eq\n                  tag_10\n                  jumpi\n                  dup1\n                  0x4f6ccce7\n                  eq\n                  tag_11\n                  jumpi\n                  dup1\n                  0x6352211e\n                  eq\n                  tag_12\n                  jumpi\n                  dup1\n                  0x70a08231\n                  eq\n                  tag_13\n                  jumpi\n                  dup1\n                  0x715018a6\n                  eq\n                  tag_14\n                  jumpi\n                  dup1\n                  0x8da5cb5b\n                  eq\n                  tag_15\n                  jumpi\n                  dup1\n                  0x95d89b41\n                  eq\n                  tag_16\n                  jumpi\n                  dup1\n                  0xa22cb465\n                  eq\n                  tag_17\n                  jumpi\n                  dup1\n                  0xb88d4fde\n                  eq\n                  tag_18\n                  jumpi\n                  dup1\n                  0xc87b56dd\n                  eq\n                  tag_19\n                  jumpi\n                  dup1\n                  0xd204c45e\n                  eq\n                  tag_20\n                  jumpi\n                  dup1\n                  0xe985e9c5\n                  eq\n                  tag_21\n                  jumpi\n                  dup1\n                  0xf2fde38b\n                  eq\n                  tag_22\n                  jumpi\n                tag_2:\n                  0x00\n                  dup1\n                  revert\n                    /* \"ProjectNFT.sol\":1441:1678  function supportsInterface(... */\n                tag_3:\n                  tag_23\n                  tag_24\n                  calldatasize\n                  0x04\n                  tag_25\n                  jump\t// in\n                tag_24:\n                  tag_26\n                  jump\t// in\n                tag_23:\n                  mload(0x40)\n                    /* \"#utility.yul\":565:579   */\n                  swap1\n                  iszero\n                    /* \"#utility.yul\":558:580   */\n                  iszero\n                    /* \"#utility.yul\":540:581   */\n                  dup2\n                  mstore\n                    /* \"#utility.yul\":528:530   */\n                  0x20\n                    /* \"#utility.yul\":513:531   */\n                  add\n                    /* \"ProjectNFT.sol\":1441:1678  function supportsInterface(... */\n                tag_27:\n                  mload(0x40)\n                  dup1\n                  swap2\n                  sub\n                  swap1\n                  return\n                    /* \"@openzeppelin/contracts/token/ERC721/ERC721.sol\":2365:2454  function name() public view virtual returns (string memory) {... */\n                tag_4:\n                  tag_29\n                  tag_30\n                  jump\t// in\n                tag_29:\n                  mload(0x40)\n                  tag_27\n                  swap2\n                  swap1\n                  tag_32\n                  jump\t// in\n                    /* \"@openzeppelin/contracts/token/ERC721/ERC721.sol\":3497:3651  function getApproved(uint256 tokenId) public view virtual returns (address) {... */\n                tag_5:\n                  tag_33\n                  tag_34\n                  calldatasize\n                  0x04\n                  tag_35\n                  jump\t// in\n                tag_34:\n                  tag_36\n                  jump\t// in\n                tag_33:\n                  mload(0x40)\n                  tag_27\n                  swap2\n                  swap1\n                  tag_38\n                  jump\t// in\n                    /* \"@openzeppelin/contracts/token/ERC721/ERC721.sol\":3323:3436  function approve(address to, uint256 tokenId) public virtual {... */\n                tag_6:\n                  tag_39\n                  tag_40\n                  calldatasize\n                  0x04\n                  tag_41\n                  jump\t// in\n                tag_40:\n                  tag_42\n                  jump\t// in\n                tag_39:\n                  stop\n                    /* \"@openzeppelin/contracts/token/ERC721/extensions/ERC721Enumerable.sol\":2062:2164  function totalSupply() public view virtual returns (uint256) {... */\n                tag_7:\n                    /* \"@openzeppelin/contracts/token/ERC721/extensions/ERC721Enumerable.sol\":2140:2150  _allTokens */\n                  0x08\n                    /* \"@openzeppelin/contracts/token/ERC721/extensions/ERC721Enumerable.sol\":2140:2157  _allTokens.length */\n                  sload\n                    /* \"@openzeppelin/contracts/token/ERC721/extensions/ERC721Enumerable.sol\":2062:2164  function totalSupply() public view virtual returns (uint256) {... */\n                tag_43:\n                  mload(0x40)\n                    /* \"#utility.yul\":2324:2349   */\n                  swap1\n                  dup2\n                  mstore\n                    /* \"#utility.yul\":2312:2314   */\n                  0x20\n                    /* \"#utility.yul\":2297:2315   */\n                  add\n                    /* \"@openzeppelin/contracts/token/ERC721/extensions/ERC721Enumerable.sol\":2062:2164  function totalSupply() public view virtual returns (uint256) {... */\n                  tag_27\n                    /* \"#utility.yul\":2178:2355   */\n                  jump\n                    /* \"@openzeppelin/contracts/token/ERC721/ERC721.sol\":4143:4721  function transferFrom(address from, address to, uint256 tokenId) public virtual {... */\n                tag_8:\n                  tag_39\n                  tag_48\n                  calldatasize\n                  0x04\n                  tag_49\n                  jump\t// in\n                tag_48:\n                  tag_50\n                  jump\t// in\n                    /* \"@openzeppelin/contracts/token/ERC721/extensions/ERC721Enumerable.sol\":1736:1991  function tokenOfOwnerByIndex(address owner, uint256 index) public view virtual returns (uint256) {... */\n                tag_9:\n                  tag_43\n                  tag_52\n                  calldatasize\n                  0x04\n                  tag_41\n                  jump\t// in\n                tag_52:\n                  tag_53\n                  jump\t// in\n                    /* \"@openzeppelin/contracts/token/ERC721/ERC721.sol\":4787:4919  function safeTransferFrom(address from, address to, uint256 tokenId) public {... */\n                tag_10:\n                  tag_39\n                  tag_56\n                  calldatasize\n                  0x04\n                  tag_49\n                  jump\t// in\n                tag_56:\n                  tag_57\n                  jump\t// in\n                    /* \"@openzeppelin/contracts/token/ERC721/extensions/ERC721Enumerable.sol\":2236:2462  function tokenByIndex(uint256 index) public view virtual returns (uint256) {... */\n                tag_11:\n                  tag_43\n                  tag_59\n                  calldatasize\n                  0x04\n                  tag_35\n                  jump\t// in\n                tag_59:\n                  tag_60\n                  jump\t// in\n                    /* \"@openzeppelin/contracts/token/ERC721/ERC721.sol\":2185:2303  function ownerOf(uint256 tokenId) public view virtual returns (address) {... */\n                tag_12:\n                  tag_33\n                  tag_63\n                  calldatasize\n                  0x04\n                  tag_35\n                  jump\t// in\n                tag_63:\n                  tag_64\n                  jump\t// in\n                    /* \"@openzeppelin/contracts/token/ERC721/ERC721.sol\":1920:2128  function balanceOf(address owner) public view virtual returns (uint256) {... */\n                tag_13:\n                  tag_43\n                  tag_67\n                  calldatasize\n                  0x04\n                  tag_68\n                  jump\t// in\n                tag_67:\n                  tag_69\n                  jump\t// in\n                    /* \"@openzeppelin/contracts/access/Ownable.sol\":2293:2394  function renounceOwnership() public virtual onlyOwner {... */\n                tag_14:\n                  tag_39\n                  tag_72\n                  jump\t// in\n                    /* \"@openzeppelin/contracts/access/Ownable.sol\":1638:1723  function owner() public view virtual returns (address) {... */\n                tag_15:\n                  tag_33\n                  tag_74\n                  jump\t// in\n                    /* \"@openzeppelin/contracts/token/ERC721/ERC721.sol\":2518:2611  function symbol() public view virtual returns (string memory) {... */\n                tag_16:\n                  tag_29\n                  tag_77\n                  jump\t// in\n                    /* \"@openzeppelin/contracts/token/ERC721/ERC721.sol\":3718:3862  function setApprovalForAll(address operator, bool approved) public virtual {... */\n                tag_17:\n                  tag_39\n                  tag_80\n                  calldatasize\n                  0x04\n                  tag_81\n                  jump\t// in\n                tag_80:\n                  tag_82\n                  jump\t// in\n                    /* \"@openzeppelin/contracts/token/ERC721/ERC721.sol\":4985:5193  function safeTransferFrom(address from, address to, uint256 tokenId, bytes memory data) public virtual {... */\n                tag_18:\n                  tag_39\n                  tag_84\n                  calldatasize\n                  0x04\n                  tag_85\n                  jump\t// in\n                tag_84:\n                  tag_86\n                  jump\t// in\n                    /* \"ProjectNFT.sol\":1268:1435  function tokenURI(... */\n                tag_19:\n                  tag_29\n                  tag_88\n                  calldatasize\n                  0x04\n                  tag_35\n                  jump\t// in\n                tag_88:\n                  tag_89\n                  jump\t// in\n                    /* \"ProjectNFT.sol\":612:795  function safeMint(address to, string memory uri) public onlyOwner {... */\n                tag_20:\n                  tag_39\n                  tag_92\n                  calldatasize\n                  0x04\n                  tag_93\n                  jump\t// in\n                tag_92:\n                  tag_94\n                  jump\t// in\n                    /* \"@openzeppelin/contracts/token/ERC721/ERC721.sol\":3928:4081  function isApprovedForAll(address owner, address operator) public view virtual returns (bool) {... */\n                tag_21:\n                  tag_23\n                  tag_96\n                  calldatasize\n                  0x04\n                  tag_97\n                  jump\t// in\n                tag_96:\n                  tag_98\n                  jump\t// in\n                    /* \"@openzeppelin/contracts/access/Ownable.sol\":2543:2758  function transferOwnership(address newOwner) public virtual onlyOwner {... */\n                tag_22:\n                  tag_39\n                  tag_101\n                  calldatasize\n                  0x04\n                  tag_68\n                  jump\t// in\n                tag_101:\n                  tag_102\n                  jump\t// in\n                    /* \"ProjectNFT.sol\":1441:1678  function supportsInterface(... */\n                tag_26:\n                    /* \"ProjectNFT.sol\":1608:1612  bool */\n                  0x00\n                    /* \"ProjectNFT.sol\":1635:1671  super.supportsInterface(interfaceId) */\n                  tag_104\n                    /* \"ProjectNFT.sol\":1659:1670  interfaceId */\n                  dup3\n                    /* \"ProjectNFT.sol\":1635:1658  super.supportsInterface */\n                  tag_105\n                    /* \"ProjectNFT.sol\":1635:1671  super.supportsInterface(interfaceId) */\n                  jump\t// in\n                tag_104:\n                    /* \"ProjectNFT.sol\":1628:1671  return super.supportsInterface(interfaceId) */\n                  swap3\n                    /* \"ProjectNFT.sol\":1441:1678  function supportsInterface(... */\n                  swap2\n                  pop\n                  pop\n                  jump\t// out\n                    /* \"@openzeppelin/contracts/token/ERC721/ERC721.sol\":2365:2454  function name() public view virtual returns (string memory) {... */\n                tag_30:\n                    /* \"@openzeppelin/contracts/token/ERC721/ERC721.sol\":2410:2423  string memory */\n                  0x60\n                    /* \"@openzeppelin/contracts/token/ERC721/ERC721.sol\":2442:2447  _name */\n                  0x00\n                    /* \"@openzeppelin/contracts/token/ERC721/ERC721.sol\":2435:2447  return _name */\n                  dup1\n                  sload\n                  tag_107\n                  swap1\n                  tag_108\n                  jump\t// in\n                tag_107:\n                  dup1\n                  0x1f\n                  add\n                  0x20\n                  dup1\n                  swap2\n                  div\n                  mul\n                  0x20\n                  add\n                  mload(0x40)\n                  swap1\n                  dup2\n                  add\n                  0x40\n                  mstore\n                  dup1\n                  swap3\n                  swap2\n                  swap1\n                  dup2\n                  dup2\n                  mstore\n                  0x20\n                  add\n                  dup3\n                  dup1\n                  sload\n                  tag_109\n                  swap1\n                  tag_108\n                  jump\t// in\n                tag_109:\n                  dup1\n                  iszero\n                  tag_110\n                  jumpi\n                  dup1\n                  0x1f\n                  lt\n                  tag_111\n                  jumpi\n                  0x0100\n                  dup1\n                  dup4\n                  sload\n                  div\n                  mul\n                  dup4\n                  mstore\n                  swap2\n                  0x20\n                  add\n                  swap2\n                  jump(tag_110)\n                tag_111:\n                  dup3\n                  add\n                  swap2\n                  swap1\n                  0x00\n                  mstore\n                  keccak256(0x00, 0x20)\n                  swap1\n                tag_112:\n                  dup2\n                  sload\n                  dup2\n                  mstore\n                  swap1\n                  0x01\n                  add\n                  swap1\n                  0x20\n                  add\n                  dup1\n                  dup4\n                  gt\n                  tag_112\n                  jumpi\n                  dup3\n                  swap1\n                  sub\n                  0x1f\n                  and\n                  dup3\n                  add\n                  swap2\n                tag_110:\n                  pop\n                  pop\n                  pop\n                  pop\n                  pop\n                  swap1\n                  pop\n                    /* \"@openzeppelin/contracts/token/ERC721/ERC721.sol\":2365:2454  function name() public view virtual returns (string memory) {... */\n                  swap1\n                  jump\t// out\n                    /* \"@openzeppelin/contracts/token/ERC721/ERC721.sol\":3497:3651  function getApproved(uint256 tokenId) public view virtual returns (address) {... */\n                tag_36:\n                    /* \"@openzeppelin/contracts/token/ERC721/ERC721.sol\":3564:3571  address */\n                  0x00\n                    /* \"@openzeppelin/contracts/token/ERC721/ERC721.sol\":3583:3605  _requireOwned(tokenId) */\n                  tag_114\n                    /* \"@openzeppelin/contracts/token/ERC721/ERC721.sol\":3597:3604  tokenId */\n                  dup3\n                    /* \"@openzeppelin/contracts/token/ERC721/ERC721.sol\":3583:3596  _requireOwned */\n                  tag_115\n                    /* \"@openzeppelin/contracts/token/ERC721/ERC721.sol\":3583:3605  _requireOwned(tokenId) */\n                  jump\t// in\n                tag_114:\n                  pop\n                    /* \"@openzeppelin/contracts/token/ERC721/ERC721.sol\":3623:3644  _getApproved(tokenId) */\n                  tag_104\n                    /* \"@openzeppelin/contracts/token/ERC721/ERC721.sol\":3636:3643  tokenId */\n                  dup3\n                    /* \"@openzeppelin/contracts/token/ERC721/ERC721.sol\":3623:3635  _getApproved */\n                  tag_117\n                    /* \"@openzeppelin/contracts/token/ERC721/ERC721.sol\":3623:3644  _getApproved(tokenId) */\n                  jump\t// in\n                    /* \"@openzeppelin/contracts/token/ERC721/ERC721.sol\":3323:3436  function approve(address to, uint256 tokenId) public virtual {... */\n                tag_42:\n                    /* \"@openzeppelin/contracts/token/ERC721/ERC721.sol\":3394:3429  _approve(to, tokenId, _msgSender()) */\n                  tag_119\n                    /* \"@openzeppelin/contracts/token/ERC721/ERC721.sol\":3403:3405  to */\n                  dup3\n                    /* \"@openzeppelin/contracts/token/ERC721/ERC721.sol\":3407:3414  tokenId */\n                  dup3\n                    /* \"@openzeppelin/contracts/utils/Context.sol\":735:745  msg.sender */\n                  caller\n                    /* \"@openzeppelin/contracts/token/ERC721/ERC721.sol\":3394:3402  _approve */\n                  tag_122\n                    /* \"@openzeppelin/contracts/token/ERC721/ERC721.sol\":3394:3429  _approve(to, tokenId, _msgSender()) */\n                  jump\t// in\n                tag_119:\n                    /* \"@openzeppelin/contracts/token/ERC721/ERC721.sol\":3323:3436  function approve(address to, uint256 tokenId) public virtual {... */\n                  pop\n                  pop\n                  jump\t// out\n                    /* \"@openzeppelin/contracts/token/ERC721/ERC721.sol\":4143:4721  function transferFrom(address from, address to, uint256 tokenId) public virtual {... */\n                tag_50:\n                  sub(shl(0xa0, 0x01), 0x01)\n                    /* \"@openzeppelin/contracts/token/ERC721/ERC721.sol\":4237:4253  to == address(0) */\n                  dup3\n                  and\n                    /* \"@openzeppelin/contracts/token/ERC721/ERC721.sol\":4233:4320  if (to == address(0)) {... */\n                  tag_125\n                  jumpi\n                    /* \"@openzeppelin/contracts/token/ERC721/ERC721.sol\":4306:4307  0 */\n                  0x00\n                    /* \"@openzeppelin/contracts/token/ERC721/ERC721.sol\":4276:4309  ERC721InvalidReceiver(address(0)) */\n                  mload(0x40)\n                  shl(0xe1, 0x32505749)\n                  dup2\n                  mstore\n                  0x04\n                  add\n                  tag_126\n                  swap2\n                  swap1\n                  tag_38\n                  jump\t// in\n                tag_126:\n                  mload(0x40)\n                  dup1\n                  swap2\n                  sub\n                  swap1\n                  revert\n                    /* \"@openzeppelin/contracts/token/ERC721/ERC721.sol\":4233:4320  if (to == address(0)) {... */\n                tag_125:\n                    /* \"@openzeppelin/contracts/token/ERC721/ERC721.sol\":4538:4559  address previousOwner */\n                  0x00\n                    /* \"@openzeppelin/contracts/token/ERC721/ERC721.sol\":4562:4596  _update(to, tokenId, _msgSender()) */\n                  tag_127\n                    /* \"@openzeppelin/contracts/token/ERC721/ERC721.sol\":4570:4572  to */\n                  dup4\n                    /* \"@openzeppelin/contracts/token/ERC721/ERC721.sol\":4574:4581  tokenId */\n                  dup4\n                    /* \"@openzeppelin/contracts/utils/Context.sol\":735:745  msg.sender */\n                  caller\n                    /* \"@openzeppelin/contracts/token/ERC721/ERC721.sol\":4562:4569  _update */\n                  tag_129\n                    /* \"@openzeppelin/contracts/token/ERC721/ERC721.sol\":4562:4596  _update(to, tokenId, _msgSender()) */\n                  jump\t// in\n                tag_127:\n                    /* \"@openzeppelin/contracts/token/ERC721/ERC721.sol\":4538:4596  address previousOwner = _update(to, tokenId, _msgSender()) */\n                  swap1\n                  pop\n                    /* \"@openzeppelin/contracts/token/ERC721/ERC721.sol\":4627:4631  from */\n                  dup4\n                  sub(shl(0xa0, 0x01), 0x01)\n                    /* \"@openzeppelin/contracts/token/ERC721/ERC721.sol\":4610:4631  previousOwner != from */\n                  and\n                    /* \"@openzeppelin/contracts/token/ERC721/ERC721.sol\":4610:4623  previousOwner */\n                  dup2\n                  sub(shl(0xa0, 0x01), 0x01)\n                    /* \"@openzeppelin/contracts/token/ERC721/ERC721.sol\":4610:4631  previousOwner != from */\n                  and\n                  eq\n                    /* \"@openzeppelin/contracts/token/ERC721/ERC721.sol\":4606:4715  if (previousOwner != from) {... */\n                  tag_130\n                  jumpi\n                    /* \"@openzeppelin/contracts/token/ERC721/ERC721.sol\":4654:4704  ERC721IncorrectOwner(from, tokenId, previousOwner) */\n                  mload(0x40)\n                  shl(0xe0, 0x64283d7b)\n                  dup2\n                  mstore\n                  sub(shl(0xa0, 0x01), 0x01)\n                    /* \"#utility.yul\":6112:6127   */\n                  dup1\n                  dup7\n                  and\n                    /* \"@openzeppelin/contracts/token/ERC721/ERC721.sol\":4654:4704  ERC721IncorrectOwner(from, tokenId, previousOwner) */\n                  0x04\n                  dup4\n                  add\n                    /* \"#utility.yul\":6094:6128   */\n                  mstore\n                    /* \"#utility.yul\":6144:6162   */\n                  0x24\n                  dup3\n                  add\n                    /* \"#utility.yul\":6137:6171   */\n                  dup5\n                  swap1\n                  mstore\n                    /* \"#utility.yul\":6207:6222   */\n                  dup3\n                  and\n                    /* \"#utility.yul\":6187:6205   */\n                  0x44\n                  dup3\n                  add\n                    /* \"#utility.yul\":6180:6223   */\n                  mstore\n                    /* \"#utility.yul\":6029:6047   */\n                  0x64\n                  add\n                    /* \"@openzeppelin/contracts/token/ERC721/ERC721.sol\":4654:4704  ERC721IncorrectOwner(from, tokenId, previousOwner) */\n                  tag_126\n                    /* \"#utility.yul\":5854:6229   */\n                  jump\n                    /* \"@openzeppelin/contracts/token/ERC721/ERC721.sol\":4606:4715  if (previousOwner != from) {... */\n                tag_130:\n                    /* \"@openzeppelin/contracts/token/ERC721/ERC721.sol\":4223:4721  {... */\n                  pop\n                    /* \"@openzeppelin/contracts/token/ERC721/ERC721.sol\":4143:4721  function transferFrom(address from, address to, uint256 tokenId) public virtual {... */\n                  pop\n                  pop\n                  pop\n                  jump\t// out\n                    /* \"@openzeppelin/contracts/token/ERC721/extensions/ERC721Enumerable.sol\":1736:1991  function tokenOfOwnerByIndex(address owner, uint256 index) public view virtual returns (uint256) {... */\n                tag_53:\n                    /* \"@openzeppelin/contracts/token/ERC721/extensions/ERC721Enumerable.sol\":1824:1831  uint256 */\n                  0x00\n                    /* \"@openzeppelin/contracts/token/ERC721/extensions/ERC721Enumerable.sol\":1856:1872  balanceOf(owner) */\n                  tag_134\n                    /* \"@openzeppelin/contracts/token/ERC721/extensions/ERC721Enumerable.sol\":1866:1871  owner */\n                  dup4\n                    /* \"@openzeppelin/contracts/token/ERC721/extensions/ERC721Enumerable.sol\":1856:1865  balanceOf */\n                  tag_69\n                    /* \"@openzeppelin/contracts/token/ERC721/extensions/ERC721Enumerable.sol\":1856:1872  balanceOf(owner) */\n                  jump\t// in\n                tag_134:\n                    /* \"@openzeppelin/contracts/token/ERC721/extensions/ERC721Enumerable.sol\":1847:1852  index */\n                  dup3\n                    /* \"@openzeppelin/contracts/token/ERC721/extensions/ERC721Enumerable.sol\":1847:1872  index >= balanceOf(owner) */\n                  lt\n                    /* \"@openzeppelin/contracts/token/ERC721/extensions/ERC721Enumerable.sol\":1843:1942  if (index >= balanceOf(owner)) {... */\n                  tag_135\n                  jumpi\n                    /* \"@openzeppelin/contracts/token/ERC721/extensions/ERC721Enumerable.sol\":1918:1923  owner */\n                  dup3\n                    /* \"@openzeppelin/contracts/token/ERC721/extensions/ERC721Enumerable.sol\":1925:1930  index */\n                  dup3\n                    /* \"@openzeppelin/contracts/token/ERC721/extensions/ERC721Enumerable.sol\":1895:1931  ERC721OutOfBoundsIndex(owner, index) */\n                  mload(0x40)\n                  shl(0xe2, 0x295f44f7)\n                  dup2\n                  mstore\n                  0x04\n                  add\n                  tag_126\n                  swap3\n                  swap2\n                  swap1\n                  tag_137\n                  jump\t// in\n                    /* \"@openzeppelin/contracts/token/ERC721/extensions/ERC721Enumerable.sol\":1843:1942  if (index >= balanceOf(owner)) {... */\n                tag_135:\n                  pop\n                  sub(shl(0xa0, 0x01), 0x01)\n                    /* \"@openzeppelin/contracts/token/ERC721/extensions/ERC721Enumerable.sol\":1958:1977  _ownedTokens[owner] */\n                  swap2\n                  swap1\n                  swap2\n                  and\n                  0x00\n                  swap1\n                  dup2\n                  mstore\n                    /* \"@openzeppelin/contracts/token/ERC721/extensions/ERC721Enumerable.sol\":1958:1970  _ownedTokens */\n                  0x06\n                    /* \"@openzeppelin/contracts/token/ERC721/extensions/ERC721Enumerable.sol\":1958:1977  _ownedTokens[owner] */\n                  0x20\n                  swap1\n                  dup2\n                  mstore\n                  0x40\n                  dup1\n                  dup4\n                  keccak256\n                    /* \"@openzeppelin/contracts/token/ERC721/extensions/ERC721Enumerable.sol\":1958:1984  _ownedTokens[owner][index] */\n                  swap4\n                  dup4\n                  mstore\n                  swap3\n                  swap1\n                  mstore\n                  keccak256\n                  sload\n                  swap1\n                    /* \"@openzeppelin/contracts/token/ERC721/extensions/ERC721Enumerable.sol\":1736:1991  function tokenOfOwnerByIndex(address owner, uint256 index) public view virtual returns (uint256) {... */\n                  jump\t// out\n                    /* \"@openzeppelin/contracts/token/ERC721/ERC721.sol\":4787:4919  function safeTransferFrom(address from, address to, uint256 tokenId) public {... */\n                tag_57:\n                    /* \"@openzeppelin/contracts/token/ERC721/ERC721.sol\":4873:4912  safeTransferFrom(from, to, tokenId, \"\") */\n                  tag_139\n                    /* \"@openzeppelin/contracts/token/ERC721/ERC721.sol\":4890:4894  from */\n                  dup4\n                    /* \"@openzeppelin/contracts/token/ERC721/ERC721.sol\":4896:4898  to */\n                  dup4\n                    /* \"@openzeppelin/contracts/token/ERC721/ERC721.sol\":4900:4907  tokenId */\n                  dup4\n                    /* \"@openzeppelin/contracts/token/ERC721/ERC721.sol\":4873:4912  safeTransferFrom(from, to, tokenId, \"\") */\n                  mload(0x40)\n                  dup1\n                  0x20\n                  add\n                  0x40\n                  mstore\n                  dup1\n                  0x00\n                  dup2\n                  mstore\n                  pop\n                    /* \"@openzeppelin/contracts/token/ERC721/ERC721.sol\":4873:4889  safeTransferFrom */\n                  tag_86\n                    /* \"@openzeppelin/contracts/token/ERC721/ERC721.sol\":4873:4912  safeTransferFrom(from, to, tokenId, \"\") */\n                  jump\t// in\n                tag_139:\n                    /* \"@openzeppelin/contracts/token/ERC721/ERC721.sol\":4787:4919  function safeTransferFrom(address from, address to, uint256 tokenId) public {... */\n                  pop\n                  pop\n                  pop\n                  jump\t// out\n                    /* \"@openzeppelin/contracts/token/ERC721/extensions/ERC721Enumerable.sol\":2236:2462  function tokenByIndex(uint256 index) public view virtual returns (uint256) {... */\n                tag_60:\n                    /* \"@openzeppelin/contracts/token/ERC721/extensions/ERC721Enumerable.sol\":2302:2309  uint256 */\n                  0x00\n                    /* \"@openzeppelin/contracts/token/ERC721/extensions/ERC721Enumerable.sol\":2334:2347  totalSupply() */\n                  tag_141\n                    /* \"@openzeppelin/contracts/token/ERC721/extensions/ERC721Enumerable.sol\":2140:2150  _allTokens */\n                  0x08\n                    /* \"@openzeppelin/contracts/token/ERC721/extensions/ERC721Enumerable.sol\":2140:2157  _allTokens.length */\n                  sload\n                  swap1\n                    /* \"@openzeppelin/contracts/token/ERC721/extensions/ERC721Enumerable.sol\":2062:2164  function totalSupply() public view virtual returns (uint256) {... */\n                  jump\n                    /* \"@openzeppelin/contracts/token/ERC721/extensions/ERC721Enumerable.sol\":2334:2347  totalSupply() */\n                tag_141:\n                    /* \"@openzeppelin/contracts/token/ERC721/extensions/ERC721Enumerable.sol\":2325:2330  index */\n                  dup3\n                    /* \"@openzeppelin/contracts/token/ERC721/extensions/ERC721Enumerable.sol\":2325:2347  index >= totalSupply() */\n                  lt\n                    /* \"@openzeppelin/contracts/token/ERC721/extensions/ERC721Enumerable.sol\":2321:2422  if (index >= totalSupply()) {... */\n                  tag_142\n                  jumpi\n                    /* \"@openzeppelin/contracts/token/ERC721/extensions/ERC721Enumerable.sol\":2401:2402  0 */\n                  0x00\n                    /* \"@openzeppelin/contracts/token/ERC721/extensions/ERC721Enumerable.sol\":2405:2410  index */\n                  dup3\n                    /* \"@openzeppelin/contracts/token/ERC721/extensions/ERC721Enumerable.sol\":2370:2411  ERC721OutOfBoundsIndex(address(0), index) */\n                  mload(0x40)\n                  shl(0xe2, 0x295f44f7)\n                  dup2\n                  mstore\n                  0x04\n                  add\n                  tag_126\n                  swap3\n                  swap2\n                  swap1\n                  tag_137\n                  jump\t// in\n                    /* \"@openzeppelin/contracts/token/ERC721/extensions/ERC721Enumerable.sol\":2321:2422  if (index >= totalSupply()) {... */\n                tag_142:\n                    /* \"@openzeppelin/contracts/token/ERC721/extensions/ERC721Enumerable.sol\":2438:2448  _allTokens */\n                  0x08\n                    /* \"@openzeppelin/contracts/token/ERC721/extensions/ERC721Enumerable.sol\":2449:2454  index */\n                  dup3\n                    /* \"@openzeppelin/contracts/token/ERC721/extensions/ERC721Enumerable.sol\":2438:2455  _allTokens[index] */\n                  dup2\n                  sload\n                  dup2\n                  lt\n                  tag_145\n                  jumpi\n                  tag_145\n                  tag_146\n                  jump\t// in\n                tag_145:\n                  swap1\n                  0x00\n                  mstore\n                  keccak256(0x00, 0x20)\n                  add\n                  sload\n                    /* \"@openzeppelin/contracts/token/ERC721/extensions/ERC721Enumerable.sol\":2431:2455  return _allTokens[index] */\n                  swap1\n                  pop\n                    /* \"@openzeppelin/contracts/token/ERC721/extensions/ERC721Enumerable.sol\":2236:2462  function tokenByIndex(uint256 index) public view virtual returns (uint256) {... */\n                  swap2\n                  swap1\n                  pop\n                  jump\t// out\n                    /* \"@openzeppelin/contracts/token/ERC721/ERC721.sol\":2185:2303  function ownerOf(uint256 tokenId) public view virtual returns (address) {... */\n                tag_64:\n                    /* \"@openzeppelin/contracts/token/ERC721/ERC721.sol\":2248:2255  address */\n                  0x00\n                    /* \"@openzeppelin/contracts/token/ERC721/ERC721.sol\":2274:2296  _requireOwned(tokenId) */\n                  tag_104\n                    /* \"@openzeppelin/contracts/token/ERC721/ERC721.sol\":2288:2295  tokenId */\n                  dup3\n                    /* \"@openzeppelin/contracts/token/ERC721/ERC721.sol\":2274:2287  _requireOwned */\n                  tag_115\n                    /* \"@openzeppelin/contracts/token/ERC721/ERC721.sol\":2274:2296  _requireOwned(tokenId) */\n                  jump\t// in\n                    /* \"@openzeppelin/contracts/token/ERC721/ERC721.sol\":1920:2128  function balanceOf(address owner) public view virtual returns (uint256) {... */\n                tag_69:\n                    /* \"@openzeppelin/contracts/token/ERC721/ERC721.sol\":1983:1990  uint256 */\n                  0x00\n                  sub(shl(0xa0, 0x01), 0x01)\n                    /* \"@openzeppelin/contracts/token/ERC721/ERC721.sol\":2006:2025  owner == address(0) */\n                  dup3\n                  and\n                    /* \"@openzeppelin/contracts/token/ERC721/ERC721.sol\":2002:2089  if (owner == address(0)) {... */\n                  tag_151\n                  jumpi\n                    /* \"@openzeppelin/contracts/token/ERC721/ERC721.sol\":2075:2076  0 */\n                  0x00\n                    /* \"@openzeppelin/contracts/token/ERC721/ERC721.sol\":2048:2078  ERC721InvalidOwner(address(0)) */\n                  mload(0x40)\n                  shl(0xe2, 0x22718ad9)\n                  dup2\n                  mstore\n                  0x04\n                  add\n                  tag_126\n                  swap2\n                  swap1\n                  tag_38\n                  jump\t// in\n                    /* \"@openzeppelin/contracts/token/ERC721/ERC721.sol\":2002:2089  if (owner == address(0)) {... */\n                tag_151:\n                  pop\n                  sub(shl(0xa0, 0x01), 0x01)\n                    /* \"@openzeppelin/contracts/token/ERC721/ERC721.sol\":2105:2121  _balances[owner] */\n                  and\n                  0x00\n                  swap1\n                  dup2\n                  mstore\n                    /* \"@openzeppelin/contracts/token/ERC721/ERC721.sol\":2105:2114  _balances */\n                  0x03\n                    /* \"@openzeppelin/contracts/token/ERC721/ERC721.sol\":2105:2121  _balances[owner] */\n                  0x20\n                  mstore\n                  0x40\n                  swap1\n                  keccak256\n                  sload\n                  swap1\n                    /* \"@openzeppelin/contracts/token/ERC721/ERC721.sol\":1920:2128  function balanceOf(address owner) public view virtual returns (uint256) {... */\n                  jump\t// out\n                    /* \"@openzeppelin/contracts/access/Ownable.sol\":2293:2394  function renounceOwnership() public virtual onlyOwner {... */\n                tag_72:\n                    /* \"@openzeppelin/contracts/access/Ownable.sol\":1531:1544  _checkOwner() */\n                  tag_154\n                    /* \"@openzeppelin/contracts/access/Ownable.sol\":1531:1542  _checkOwner */\n                  tag_155\n                    /* \"@openzeppelin/contracts/access/Ownable.sol\":1531:1544  _checkOwner() */\n                  jump\t// in\n                tag_154:\n                    /* \"@openzeppelin/contracts/access/Ownable.sol\":2357:2387  _transferOwnership(address(0)) */\n                  tag_157\n                    /* \"@openzeppelin/contracts/access/Ownable.sol\":2384:2385  0 */\n                  0x00\n                    /* \"@openzeppelin/contracts/access/Ownable.sol\":2357:2375  _transferOwnership */\n                  tag_158\n                    /* \"@openzeppelin/contracts/access/Ownable.sol\":2357:2387  _transferOwnership(address(0)) */\n                  jump\t// in\n                tag_157:\n                    /* \"@openzeppelin/contracts/access/Ownable.sol\":2293:2394  function renounceOwnership() public virtual onlyOwner {... */\n                  jump\t// out\n                    /* \"@openzeppelin/contracts/access/Ownable.sol\":1638:1723  function owner() public view virtual returns (address) {... */\n                tag_74:\n                    /* \"@openzeppelin/contracts/access/Ownable.sol\":1710:1716  _owner */\n                  and(sub(shl(0xa0, 0x01), 0x01), sload(0x0b))\n                  swap1\n                    /* \"@openzeppelin/contracts/access/Ownable.sol\":1638:1723  function owner() public view virtual returns (address) {... */\n                  jump\t// out\n                    /* \"@openzeppelin/contracts/token/ERC721/ERC721.sol\":2518:2611  function symbol() public view virtual returns (string memory) {... */\n                tag_77:\n                    /* \"@openzeppelin/contracts/token/ERC721/ERC721.sol\":2565:2578  string memory */\n                  0x60\n                    /* \"@openzeppelin/contracts/token/ERC721/ERC721.sol\":2597:2604  _symbol */\n                  0x01\n                    /* \"@openzeppelin/contracts/token/ERC721/ERC721.sol\":2590:2604  return _symbol */\n                  dup1\n                  sload\n                  tag_107\n                  swap1\n                  tag_108\n                  jump\t// in\n                    /* \"@openzeppelin/contracts/token/ERC721/ERC721.sol\":3718:3862  function setApprovalForAll(address operator, bool approved) public virtual {... */\n                tag_82:\n                    /* \"@openzeppelin/contracts/token/ERC721/ERC721.sol\":3803:3855  _setApprovalForAll(_msgSender(), operator, approved) */\n                  tag_119\n                    /* \"@openzeppelin/contracts/utils/Context.sol\":735:745  msg.sender */\n                  caller\n                    /* \"@openzeppelin/contracts/token/ERC721/ERC721.sol\":3836:3844  operator */\n                  dup4\n                    /* \"@openzeppelin/contracts/token/ERC721/ERC721.sol\":3846:3854  approved */\n                  dup4\n                    /* \"@openzeppelin/contracts/token/ERC721/ERC721.sol\":3803:3821  _setApprovalForAll */\n                  tag_169\n                    /* \"@openzeppelin/contracts/token/ERC721/ERC721.sol\":3803:3855  _setApprovalForAll(_msgSender(), operator, approved) */\n                  jump\t// in\n                    /* \"@openzeppelin/contracts/token/ERC721/ERC721.sol\":4985:5193  function safeTransferFrom(address from, address to, uint256 tokenId, bytes memory data) public virtual {... */\n                tag_86:\n                    /* \"@openzeppelin/contracts/token/ERC721/ERC721.sol\":5098:5129  transferFrom(from, to, tokenId) */\n                  tag_171\n                    /* \"@openzeppelin/contracts/token/ERC721/ERC721.sol\":5111:5115  from */\n                  dup5\n                    /* \"@openzeppelin/contracts/token/ERC721/ERC721.sol\":5117:5119  to */\n                  dup5\n                    /* \"@openzeppelin/contracts/token/ERC721/ERC721.sol\":5121:5128  tokenId */\n                  dup5\n                    /* \"@openzeppelin/contracts/token/ERC721/ERC721.sol\":5098:5110  transferFrom */\n                  tag_50\n                    /* \"@openzeppelin/contracts/token/ERC721/ERC721.sol\":5098:5129  transferFrom(from, to, tokenId) */\n                  jump\t// in\n                tag_171:\n                    /* \"@openzeppelin/contracts/token/ERC721/ERC721.sol\":5139:5186  _checkOnERC721Received(from, to, tokenId, data) */\n                  tag_130\n                    /* \"@openzeppelin/contracts/token/ERC721/ERC721.sol\":5162:5166  from */\n                  dup5\n                    /* \"@openzeppelin/contracts/token/ERC721/ERC721.sol\":5168:5170  to */\n                  dup5\n                    /* \"@openzeppelin/contracts/token/ERC721/ERC721.sol\":5172:5179  tokenId */\n                  dup5\n                    /* \"@openzeppelin/contracts/token/ERC721/ERC721.sol\":5181:5185  data */\n                  dup5\n                    /* \"@openzeppelin/contracts/token/ERC721/ERC721.sol\":5139:5161  _checkOnERC721Received */\n                  tag_173\n                    /* \"@openzeppelin/contracts/token/ERC721/ERC721.sol\":5139:5186  _checkOnERC721Received(from, to, tokenId, data) */\n                  jump\t// in\n                    /* \"ProjectNFT.sol\":1268:1435  function tokenURI(... */\n                tag_89:\n                    /* \"ProjectNFT.sol\":1373:1386  string memory */\n                  0x60\n                    /* \"ProjectNFT.sol\":1405:1428  super.tokenURI(tokenId) */\n                  tag_104\n                    /* \"ProjectNFT.sol\":1420:1427  tokenId */\n                  dup3\n                    /* \"ProjectNFT.sol\":1405:1419  super.tokenURI */\n                  tag_176\n                    /* \"ProjectNFT.sol\":1405:1428  super.tokenURI(tokenId) */\n                  jump\t// in\n                    /* \"ProjectNFT.sol\":612:795  function safeMint(address to, string memory uri) public onlyOwner {... */\n                tag_94:\n                    /* \"@openzeppelin/contracts/access/Ownable.sol\":1531:1544  _checkOwner() */\n                  tag_178\n                    /* \"@openzeppelin/contracts/access/Ownable.sol\":1531:1542  _checkOwner */\n                  tag_155\n                    /* \"@openzeppelin/contracts/access/Ownable.sol\":1531:1544  _checkOwner() */\n                  jump\t// in\n                tag_178:\n                    /* \"ProjectNFT.sol\":706:718  _nextTokenId */\n                  0x0c\n                    /* \"ProjectNFT.sol\":706:720  _nextTokenId++ */\n                  dup1\n                  sload\n                    /* \"ProjectNFT.sol\":688:703  uint256 tokenId */\n                  0x00\n                  swap2\n                  dup3\n                    /* \"ProjectNFT.sol\":706:720  _nextTokenId++ */\n                  tag_180\n                  dup4\n                  tag_181\n                  jump\t// in\n                tag_180:\n                  swap2\n                  swap1\n                  pop\n                  sstore\n                    /* \"ProjectNFT.sol\":688:720  uint256 tokenId = _nextTokenId++ */\n                  swap1\n                  pop\n                    /* \"ProjectNFT.sol\":730:752  _safeMint(to, tokenId) */\n                  tag_182\n                    /* \"ProjectNFT.sol\":740:742  to */\n                  dup4\n                    /* \"ProjectNFT.sol\":744:751  tokenId */\n                  dup3\n                    /* \"ProjectNFT.sol\":730:739  _safeMint */\n                  tag_183\n                    /* \"ProjectNFT.sol\":730:752  _safeMint(to, tokenId) */\n                  jump\t// in\n                tag_182:\n                    /* \"ProjectNFT.sol\":762:788  _setTokenURI(tokenId, uri) */\n                  tag_139\n                    /* \"ProjectNFT.sol\":775:782  tokenId */\n                  dup2\n                    /* \"ProjectNFT.sol\":784:787  uri */\n                  dup4\n                    /* \"ProjectNFT.sol\":762:774  _setTokenURI */\n                  tag_185\n                    /* \"ProjectNFT.sol\":762:788  _setTokenURI(tokenId, uri) */\n                  jump\t// in\n                    /* \"@openzeppelin/contracts/token/ERC721/ERC721.sol\":3928:4081  function isApprovedForAll(address owner, address operator) public view virtual returns (bool) {... */\n                tag_98:\n                  sub(shl(0xa0, 0x01), 0x01)\n                    /* \"@openzeppelin/contracts/token/ERC721/ERC721.sol\":4039:4064  _operatorApprovals[owner] */\n                  swap2\n                  dup3\n                  and\n                    /* \"@openzeppelin/contracts/token/ERC721/ERC721.sol\":4016:4020  bool */\n                  0x00\n                    /* \"@openzeppelin/contracts/token/ERC721/ERC721.sol\":4039:4064  _operatorApprovals[owner] */\n                  swap1\n                  dup2\n                  mstore\n                    /* \"@openzeppelin/contracts/token/ERC721/ERC721.sol\":4039:4057  _operatorApprovals */\n                  0x05\n                    /* \"@openzeppelin/contracts/token/ERC721/ERC721.sol\":4039:4064  _operatorApprovals[owner] */\n                  0x20\n                  swap1\n                  dup2\n                  mstore\n                  0x40\n                  dup1\n                  dup4\n                  keccak256\n                    /* \"@openzeppelin/contracts/token/ERC721/ERC721.sol\":4039:4074  _operatorApprovals[owner][operator] */\n                  swap4\n                  swap1\n                  swap5\n                  and\n                  dup3\n                  mstore\n                  swap2\n                  swap1\n                  swap2\n                  mstore\n                  keccak256\n                  sload\n                  0xff\n                  and\n                  swap1\n                    /* \"@openzeppelin/contracts/token/ERC721/ERC721.sol\":3928:4081  function isApprovedForAll(address owner, address operator) public view virtual returns (bool) {... */\n                  jump\t// out\n                    /* \"@openzeppelin/contracts/access/Ownable.sol\":2543:2758  function transferOwnership(address newOwner) public virtual onlyOwner {... */\n                tag_102:\n                    /* \"@openzeppelin/contracts/access/Ownable.sol\":1531:1544  _checkOwner() */\n                  tag_188\n                    /* \"@openzeppelin/contracts/access/Ownable.sol\":1531:1542  _checkOwner */\n                  tag_155\n                    /* \"@openzeppelin/contracts/access/Ownable.sol\":1531:1544  _checkOwner() */\n                  jump\t// in\n                tag_188:\n                  sub(shl(0xa0, 0x01), 0x01)\n                    /* \"@openzeppelin/contracts/access/Ownable.sol\":2627:2649  newOwner == address(0) */\n                  dup2\n                  and\n                    /* \"@openzeppelin/contracts/access/Ownable.sol\":2623:2714  if (newOwner == address(0)) {... */\n                  tag_190\n                  jumpi\n                    /* \"@openzeppelin/contracts/access/Ownable.sol\":2700:2701  0 */\n                  0x00\n                    /* \"@openzeppelin/contracts/access/Ownable.sol\":2672:2703  OwnableInvalidOwner(address(0)) */\n                  mload(0x40)\n                  shl(0xe0, 0x1e4fbdf7)\n                  dup2\n                  mstore\n                  0x04\n                  add\n                  tag_126\n                  swap2\n                  swap1\n                  tag_38\n                  jump\t// in\n                    /* \"@openzeppelin/contracts/access/Ownable.sol\":2623:2714  if (newOwner == address(0)) {... */\n                tag_190:\n                    /* \"@openzeppelin/contracts/access/Ownable.sol\":2723:2751  _transferOwnership(newOwner) */\n                  tag_192\n                    /* \"@openzeppelin/contracts/access/Ownable.sol\":2742:2750  newOwner */\n                  dup2\n                    /* \"@openzeppelin/contracts/access/Ownable.sol\":2723:2741  _transferOwnership */\n                  tag_158\n                    /* \"@openzeppelin/contracts/access/Ownable.sol\":2723:2751  _transferOwnership(newOwner) */\n                  jump\t// in\n                tag_192:\n                    /* \"@openzeppelin/contracts/access/Ownable.sol\":2543:2758  function transferOwnership(address newOwner) public virtual onlyOwner {... */\n                  pop\n                  jump\t// out\n                    /* \"@openzeppelin/contracts/token/ERC721/extensions/ERC721URIStorage.sol\":937:1144  function supportsInterface(bytes4 interfaceId) public view virtual override(ERC721, IERC165) returns (bool) {... */\n                tag_105:\n                    /* \"@openzeppelin/contracts/token/ERC721/extensions/ERC721URIStorage.sol\":1039:1043  bool */\n                  0x00\n                  not(sub(shl(0xe0, 0x01), 0x01))\n                    /* \"@openzeppelin/contracts/token/ERC721/extensions/ERC721URIStorage.sol\":1062:1097  interfaceId == ERC4906_INTERFACE_ID */\n                  dup3\n                  and\n                  shl(0xe1, 0x24832483)\n                  eq\n                  dup1\n                    /* \"@openzeppelin/contracts/token/ERC721/extensions/ERC721URIStorage.sol\":1062:1137  interfaceId == ERC4906_INTERFACE_ID || super.supportsInterface(interfaceId) */\n                  tag_104\n                  jumpi\n                  pop\n                    /* \"@openzeppelin/contracts/token/ERC721/extensions/ERC721URIStorage.sol\":1101:1137  super.supportsInterface(interfaceId) */\n                  tag_104\n                    /* \"@openzeppelin/contracts/token/ERC721/extensions/ERC721URIStorage.sol\":1125:1136  interfaceId */\n                  dup3\n                    /* \"@openzeppelin/contracts/token/ERC721/extensions/ERC721URIStorage.sol\":1101:1124  super.supportsInterface */\n                  tag_196\n                    /* \"@openzeppelin/contracts/token/ERC721/extensions/ERC721URIStorage.sol\":1101:1137  super.supportsInterface(interfaceId) */\n                  jump\t// in\n                    /* \"@openzeppelin/contracts/token/ERC721/ERC721.sol\":16138:16379  function _requireOwned(uint256 tokenId) internal view returns (address) {... */\n                tag_115:\n                    /* \"@openzeppelin/contracts/token/ERC721/ERC721.sol\":16201:16208  address */\n                  0x00\n                    /* \"@openzeppelin/contracts/token/ERC721/ERC721.sol\":16220:16233  address owner */\n                  dup1\n                    /* \"@openzeppelin/contracts/token/ERC721/ERC721.sol\":16236:16253  _ownerOf(tokenId) */\n                  tag_198\n                    /* \"@openzeppelin/contracts/token/ERC721/ERC721.sol\":16245:16252  tokenId */\n                  dup4\n                    /* \"@openzeppelin/contracts/token/ERC721/ERC721.sol\":16236:16244  _ownerOf */\n                  tag_199\n                    /* \"@openzeppelin/contracts/token/ERC721/ERC721.sol\":16236:16253  _ownerOf(tokenId) */\n                  jump\t// in\n                tag_198:\n                    /* \"@openzeppelin/contracts/token/ERC721/ERC721.sol\":16220:16253  address owner = _ownerOf(tokenId) */\n                  swap1\n                  pop\n                  sub(shl(0xa0, 0x01), 0x01)\n                    /* \"@openzeppelin/contracts/token/ERC721/ERC721.sol\":16267:16286  owner == address(0) */\n                  dup2\n                  and\n                    /* \"@openzeppelin/contracts/token/ERC721/ERC721.sol\":16263:16351  if (owner == address(0)) {... */\n                  tag_104\n                  jumpi\n                    /* \"@openzeppelin/contracts/token/ERC721/ERC721.sol\":16309:16340  ERC721NonexistentToken(tokenId) */\n                  mload(0x40)\n                  shl(0xe0, 0x7e273289)\n                  dup2\n                  mstore\n                  0x04\n                  dup2\n                  add\n                    /* \"#utility.yul\":2324:2349   */\n                  dup5\n                  swap1\n                  mstore\n                    /* \"#utility.yul\":2297:2315   */\n                  0x24\n                  add\n                    /* \"@openzeppelin/contracts/token/ERC721/ERC721.sol\":16309:16340  ERC721NonexistentToken(tokenId) */\n                  tag_126\n                    /* \"#utility.yul\":2178:2355   */\n                  jump\n                    /* \"@openzeppelin/contracts/token/ERC721/ERC721.sol\":5938:6065  function _getApproved(uint256 tokenId) internal view virtual returns (address) {... */\n                tag_117:\n                    /* \"@openzeppelin/contracts/token/ERC721/ERC721.sol\":6008:6015  address */\n                  0x00\n                    /* \"@openzeppelin/contracts/token/ERC721/ERC721.sol\":6034:6058  _tokenApprovals[tokenId] */\n                  swap1\n                  dup2\n                  mstore\n                    /* \"@openzeppelin/contracts/token/ERC721/ERC721.sol\":6034:6049  _tokenApprovals */\n                  0x04\n                    /* \"@openzeppelin/contracts/token/ERC721/ERC721.sol\":6034:6058  _tokenApprovals[tokenId] */\n                  0x20\n                  mstore\n                  0x40\n                  swap1\n                  keccak256\n                  sload\n                  sub(shl(0xa0, 0x01), 0x01)\n                  and\n                  swap1\n                    /* \"@openzeppelin/contracts/token/ERC721/ERC721.sol\":5938:6065  function _getApproved(uint256 tokenId) internal view virtual returns (address) {... */\n                  jump\t// out\n                    /* \"@openzeppelin/contracts/token/ERC721/ERC721.sol\":14418:14538  function _approve(address to, uint256 tokenId, address auth) internal {... */\n                tag_122:\n                    /* \"@openzeppelin/contracts/token/ERC721/ERC721.sol\":14498:14531  _approve(to, tokenId, auth, true) */\n                  tag_139\n                    /* \"@openzeppelin/contracts/token/ERC721/ERC721.sol\":14507:14509  to */\n                  dup4\n                    /* \"@openzeppelin/contracts/token/ERC721/ERC721.sol\":14511:14518  tokenId */\n                  dup4\n                    /* \"@openzeppelin/contracts/token/ERC721/ERC721.sol\":14520:14524  auth */\n                  dup4\n                    /* \"@openzeppelin/contracts/token/ERC721/ERC721.sol\":14526:14530  true */\n                  0x01\n                    /* \"@openzeppelin/contracts/token/ERC721/ERC721.sol\":14498:14506  _approve */\n                  tag_206\n                    /* \"@openzeppelin/contracts/token/ERC721/ERC721.sol\":14498:14531  _approve(to, tokenId, auth, true) */\n                  jump\t// in\n                    /* \"ProjectNFT.sol\":869:1077  function _update(... */\n                tag_129:\n                    /* \"ProjectNFT.sol\":1012:1019  address */\n                  0x00\n                    /* \"ProjectNFT.sol\":1038:1070  super._update(to, tokenId, auth) */\n                  tag_208\n                    /* \"ProjectNFT.sol\":1052:1054  to */\n                  dup5\n                    /* \"ProjectNFT.sol\":1056:1063  tokenId */\n                  dup5\n                    /* \"ProjectNFT.sol\":1065:1069  auth */\n                  dup5\n                    /* \"ProjectNFT.sol\":1038:1051  super._update */\n                  tag_209\n                    /* \"ProjectNFT.sol\":1038:1070  super._update(to, tokenId, auth) */\n                  jump\t// in\n                tag_208:\n                    /* \"ProjectNFT.sol\":1031:1070  return super._update(to, tokenId, auth) */\n                  swap5\n                    /* \"ProjectNFT.sol\":869:1077  function _update(... */\n                  swap4\n                  pop\n                  pop\n                  pop\n                  pop\n                  jump\t// out\n                    /* \"@openzeppelin/contracts/access/Ownable.sol\":1796:1958  function _checkOwner() internal view virtual {... */\n                tag_155:\n                    /* \"@openzeppelin/contracts/utils/Context.sol\":735:745  msg.sender */\n                  caller\n                    /* \"@openzeppelin/contracts/access/Ownable.sol\":1855:1862  owner() */\n                  tag_212\n                    /* \"@openzeppelin/contracts/access/Ownable.sol\":1855:1860  owner */\n                  tag_74\n                    /* \"@openzeppelin/contracts/access/Ownable.sol\":1855:1862  owner() */\n                  jump\t// in\n                tag_212:\n                  sub(shl(0xa0, 0x01), 0x01)\n                    /* \"@openzeppelin/contracts/access/Ownable.sol\":1855:1878  owner() != _msgSender() */\n                  and\n                  eq\n                    /* \"@openzeppelin/contracts/access/Ownable.sol\":1851:1952  if (owner() != _msgSender()) {... */\n                  tag_157\n                  jumpi\n                    /* \"@openzeppelin/contracts/utils/Context.sol\":735:745  msg.sender */\n                  caller\n                    /* \"@openzeppelin/contracts/access/Ownable.sol\":1901:1941  OwnableUnauthorizedAccount(_msgSender()) */\n                  mload(0x40)\n                  shl(0xe0, 0x118cdaa7)\n                  dup2\n                  mstore\n                  0x04\n                  add\n                  tag_126\n                  swap2\n                  swap1\n                  tag_38\n                  jump\t// in\n                    /* \"@openzeppelin/contracts/access/Ownable.sol\":2912:3099  function _transferOwnership(address newOwner) internal virtual {... */\n                tag_158:\n                    /* \"@openzeppelin/contracts/access/Ownable.sol\":3004:3010  _owner */\n                  0x0b\n                  dup1\n                  sload\n                  sub(shl(0xa0, 0x01), 0x01)\n                    /* \"@openzeppelin/contracts/access/Ownable.sol\":3020:3037  _owner = newOwner */\n                  dup4\n                  dup2\n                  and\n                  not(sub(shl(0xa0, 0x01), 0x01))\n                  dup4\n                  and\n                  dup2\n                  or\n                  swap1\n                  swap4\n                  sstore\n                    /* \"@openzeppelin/contracts/access/Ownable.sol\":3052:3092  OwnershipTransferred(oldOwner, newOwner) */\n                  mload(0x40)\n                    /* \"@openzeppelin/contracts/access/Ownable.sol\":3004:3010  _owner */\n                  swap2\n                  and\n                  swap2\n                    /* \"@openzeppelin/contracts/access/Ownable.sol\":3020:3037  _owner = newOwner */\n                  swap1\n                    /* \"@openzeppelin/contracts/access/Ownable.sol\":3004:3010  _owner */\n                  dup3\n                  swap1\n                    /* \"@openzeppelin/contracts/access/Ownable.sol\":3052:3092  OwnershipTransferred(oldOwner, newOwner) */\n                  0x8be0079c531659141344cd1fd0a4f28419497f9722a3daafe3b4186f6b6457e0\n                  swap1\n                    /* \"@openzeppelin/contracts/access/Ownable.sol\":2985:3001  address oldOwner */\n                  0x00\n                  swap1\n                    /* \"@openzeppelin/contracts/access/Ownable.sol\":3052:3092  OwnershipTransferred(oldOwner, newOwner) */\n                  log3\n                    /* \"@openzeppelin/contracts/access/Ownable.sol\":2975:3099  {... */\n                  pop\n                    /* \"@openzeppelin/contracts/access/Ownable.sol\":2912:3099  function _transferOwnership(address newOwner) internal virtual {... */\n                  pop\n                  jump\t// out\n                    /* \"@openzeppelin/contracts/token/ERC721/ERC721.sol\":15591:15903  function _setApprovalForAll(address owner, address operator, bool approved) internal virtual {... */\n                tag_169:\n                  sub(shl(0xa0, 0x01), 0x01)\n                    /* \"@openzeppelin/contracts/token/ERC721/ERC721.sol\":15698:15720  operator == address(0) */\n                  dup3\n                  and\n                    /* \"@openzeppelin/contracts/token/ERC721/ERC721.sol\":15694:15785  if (operator == address(0)) {... */\n                  tag_218\n                  jumpi\n                    /* \"@openzeppelin/contracts/token/ERC721/ERC721.sol\":15765:15773  operator */\n                  dup2\n                    /* \"@openzeppelin/contracts/token/ERC721/ERC721.sol\":15743:15774  ERC721InvalidOperator(operator) */\n                  mload(0x40)\n                  shl(0xe3, 0x0b611743)\n                  dup2\n                  mstore\n                  0x04\n                  add\n                  tag_126\n                  swap2\n                  swap1\n                  tag_38\n                  jump\t// in\n                    /* \"@openzeppelin/contracts/token/ERC721/ERC721.sol\":15694:15785  if (operator == address(0)) {... */\n                tag_218:\n                  sub(shl(0xa0, 0x01), 0x01)\n                    /* \"@openzeppelin/contracts/token/ERC721/ERC721.sol\":15794:15819  _operatorApprovals[owner] */\n                  dup4\n                  dup2\n                  and\n                  0x00\n                  dup2\n                  dup2\n                  mstore\n                    /* \"@openzeppelin/contracts/token/ERC721/ERC721.sol\":15794:15812  _operatorApprovals */\n                  0x05\n                    /* \"@openzeppelin/contracts/token/ERC721/ERC721.sol\":15794:15819  _operatorApprovals[owner] */\n                  0x20\n                  swap1\n                  dup2\n                  mstore\n                  0x40\n                  dup1\n                  dup4\n                  keccak256\n                    /* \"@openzeppelin/contracts/token/ERC721/ERC721.sol\":15794:15829  _operatorApprovals[owner][operator] */\n                  swap5\n                  dup8\n                  and\n                  dup1\n                  dup5\n                  mstore\n                  swap5\n                  dup3\n                  mstore\n                  swap2\n                  dup3\n                  swap1\n                  keccak256\n                    /* \"@openzeppelin/contracts/token/ERC721/ERC721.sol\":15794:15840  _operatorApprovals[owner][operator] = approved */\n                  dup1\n                  sload\n                  not(0xff)\n                  and\n                  dup7\n                  iszero\n                  iszero\n                  swap1\n                  dup2\n                  or\n                  swap1\n                  swap2\n                  sstore\n                    /* \"@openzeppelin/contracts/token/ERC721/ERC721.sol\":15855:15896  ApprovalForAll(owner, operator, approved) */\n                  swap2\n                  mload\n                    /* \"#utility.yul\":540:581   */\n                  swap2\n                  dup3\n                  mstore\n                    /* \"@openzeppelin/contracts/token/ERC721/ERC721.sol\":15855:15896  ApprovalForAll(owner, operator, approved) */\n                  0x17307eab39ab6107e8899845ad3d59bd9653f200f220920489ca2b5937696c31\n                  swap2\n                    /* \"#utility.yul\":513:531   */\n                  add\n                    /* \"@openzeppelin/contracts/token/ERC721/ERC721.sol\":15855:15896  ApprovalForAll(owner, operator, approved) */\n                  mload(0x40)\n                  dup1\n                  swap2\n                  sub\n                  swap1\n                  log3\n                    /* \"@openzeppelin/contracts/token/ERC721/ERC721.sol\":15591:15903  function _setApprovalForAll(address owner, address operator, bool approved) internal virtual {... */\n                  pop\n                  pop\n                  pop\n                  jump\t// out\n                    /* \"@openzeppelin/contracts/token/ERC721/ERC721.sol\":16918:17700  function _checkOnERC721Received(address from, address to, uint256 tokenId, bytes memory data) private {... */\n                tag_173:\n                  sub(shl(0xa0, 0x01), 0x01)\n                    /* \"@openzeppelin/contracts/token/ERC721/ERC721.sol\":17034:17048  to.code.length */\n                  dup4\n                  and\n                  extcodesize\n                    /* \"@openzeppelin/contracts/token/ERC721/ERC721.sol\":17034:17052  to.code.length > 0 */\n                  iszero\n                    /* \"@openzeppelin/contracts/token/ERC721/ERC721.sol\":17030:17694  if (to.code.length > 0) {... */\n                  tag_130\n                  jumpi\n                    /* \"@openzeppelin/contracts/token/ERC721/ERC721.sol\":17072:17143  IERC721Receiver(to).onERC721Received(_msgSender(), from, tokenId, data) */\n                  mload(0x40)\n                  shl(0xe1, 0x0a85bd01)\n                  dup2\n                  mstore\n                  sub(shl(0xa0, 0x01), 0x01)\n                    /* \"@openzeppelin/contracts/token/ERC721/ERC721.sol\":17072:17108  IERC721Receiver(to).onERC721Received */\n                  dup5\n                  and\n                  swap1\n                  0x150b7a02\n                  swap1\n                    /* \"@openzeppelin/contracts/token/ERC721/ERC721.sol\":17072:17143  IERC721Receiver(to).onERC721Received(_msgSender(), from, tokenId, data) */\n                  tag_224\n                  swap1\n                    /* \"@openzeppelin/contracts/utils/Context.sol\":735:745  msg.sender */\n                  caller\n                  swap1\n                    /* \"@openzeppelin/contracts/token/ERC721/ERC721.sol\":17123:17127  from */\n                  dup9\n                  swap1\n                    /* \"@openzeppelin/contracts/token/ERC721/ERC721.sol\":17129:17136  tokenId */\n                  dup8\n                  swap1\n                    /* \"@openzeppelin/contracts/token/ERC721/ERC721.sol\":17138:17142  data */\n                  dup8\n                  swap1\n                    /* \"@openzeppelin/contracts/token/ERC721/ERC721.sol\":17072:17143  IERC721Receiver(to).onERC721Received(_msgSender(), from, tokenId, data) */\n                  0x04\n                  add\n                  tag_225\n                  jump\t// in\n                tag_224:\n                  0x20\n                  mload(0x40)\n                  dup1\n                  dup4\n                  sub\n                  dup2\n                  0x00\n                  dup8\n                  gas\n                  call\n                  swap3\n                  pop\n                  pop\n                  pop\n                  dup1\n                  iszero\n                  tag_226\n                  jumpi\n                  pop\n                  0x40\n                  dup1\n                  mload\n                  0x1f\n                  returndatasize\n                  swap1\n                  dup2\n                  add\n                  not(0x1f)\n                  and\n                  dup3\n                  add\n                  swap1\n                  swap3\n                  mstore\n                  tag_227\n                  swap2\n                  dup2\n                  add\n                  swap1\n                  tag_228\n                  jump\t// in\n                tag_227:\n                  0x01\n                tag_226:\n                    /* \"@openzeppelin/contracts/token/ERC721/ERC721.sol\":17068:17684  try IERC721Receiver(to).onERC721Received(_msgSender(), from, tokenId, data) returns (bytes4 retval) {... */\n                  tag_229\n                  jumpi\n                  returndatasize\n                  dup1\n                  dup1\n                  iszero\n                  tag_234\n                  jumpi\n                  mload(0x40)\n                  swap2\n                  pop\n                  and(add(returndatasize, 0x3f), not(0x1f))\n                  dup3\n                  add\n                  0x40\n                  mstore\n                  returndatasize\n                  dup3\n                  mstore\n                  returndatasize\n                  0x00\n                  0x20\n                  dup5\n                  add\n                  returndatacopy\n                  jump(tag_233)\n                tag_234:\n                  0x60\n                  swap2\n                  pop\n                tag_233:\n                  pop\n                    /* \"@openzeppelin/contracts/token/ERC721/ERC721.sol\":17381:17387  reason */\n                  dup1\n                    /* \"@openzeppelin/contracts/token/ERC721/ERC721.sol\":17381:17394  reason.length */\n                  mload\n                    /* \"@openzeppelin/contracts/token/ERC721/ERC721.sol\":17398:17399  0 */\n                  0x00\n                    /* \"@openzeppelin/contracts/token/ERC721/ERC721.sol\":17381:17399  reason.length == 0 */\n                  sub\n                    /* \"@openzeppelin/contracts/token/ERC721/ERC721.sol\":17377:17670  if (reason.length == 0) {... */\n                  tag_235\n                  jumpi\n                    /* \"@openzeppelin/contracts/token/ERC721/ERC721.sol\":17452:17454  to */\n                  dup4\n                    /* \"@openzeppelin/contracts/token/ERC721/ERC721.sol\":17430:17455  ERC721InvalidReceiver(to) */\n                  mload(0x40)\n                  shl(0xe1, 0x32505749)\n                  dup2\n                  mstore\n                  0x04\n                  add\n                  tag_126\n                  swap2\n                  swap1\n                  tag_38\n                  jump\t// in\n                    /* \"@openzeppelin/contracts/token/ERC721/ERC721.sol\":17377:17670  if (reason.length == 0) {... */\n                tag_235:\n                    /* \"@openzeppelin/contracts/token/ERC721/ERC721.sol\":17622:17628  reason */\n                  dup1\n                    /* \"@openzeppelin/contracts/token/ERC721/ERC721.sol\":17616:17629  mload(reason) */\n                  mload\n                    /* \"@openzeppelin/contracts/token/ERC721/ERC721.sol\":17607:17613  reason */\n                  dup2\n                    /* \"@openzeppelin/contracts/token/ERC721/ERC721.sol\":17603:17605  32 */\n                  0x20\n                    /* \"@openzeppelin/contracts/token/ERC721/ERC721.sol\":17599:17614  add(32, reason) */\n                  add\n                    /* \"@openzeppelin/contracts/token/ERC721/ERC721.sol\":17592:17630  revert(add(32, reason), mload(reason)) */\n                  revert\n                    /* \"@openzeppelin/contracts/token/ERC721/ERC721.sol\":17068:17684  try IERC721Receiver(to).onERC721Received(_msgSender(), from, tokenId, data) returns (bytes4 retval) {... */\n                tag_229:\n                  not(sub(shl(0xe0, 0x01), 0x01))\n                    /* \"@openzeppelin/contracts/token/ERC721/ERC721.sol\":17190:17241  retval != IERC721Receiver.onERC721Received.selector */\n                  dup2\n                  and\n                  shl(0xe1, 0x0a85bd01)\n                  eq\n                    /* \"@openzeppelin/contracts/token/ERC721/ERC721.sol\":17186:17316  if (retval != IERC721Receiver.onERC721Received.selector) {... */\n                  tag_239\n                  jumpi\n                    /* \"@openzeppelin/contracts/token/ERC721/ERC721.sol\":17294:17296  to */\n                  dup4\n                    /* \"@openzeppelin/contracts/token/ERC721/ERC721.sol\":17272:17297  ERC721InvalidReceiver(to) */\n                  mload(0x40)\n                  shl(0xe1, 0x32505749)\n                  dup2\n                  mstore\n                  0x04\n                  add\n                  tag_126\n                  swap2\n                  swap1\n                  tag_38\n                  jump\t// in\n                    /* \"@openzeppelin/contracts/token/ERC721/ERC721.sol\":17186:17316  if (retval != IERC721Receiver.onERC721Received.selector) {... */\n                tag_239:\n                    /* \"@openzeppelin/contracts/token/ERC721/ERC721.sol\":17144:17330  returns (bytes4 retval) {... */\n                  pop\n                    /* \"@openzeppelin/contracts/token/ERC721/ERC721.sol\":16918:17700  function _checkOnERC721Received(address from, address to, uint256 tokenId, bytes memory data) private {... */\n                  pop\n                  pop\n                  pop\n                  pop\n                  jump\t// out\n                    /* \"@openzeppelin/contracts/token/ERC721/extensions/ERC721URIStorage.sol\":1210:1803  function tokenURI(uint256 tokenId) public view virtual override returns (string memory) {... */\n                tag_176:\n                    /* \"@openzeppelin/contracts/token/ERC721/extensions/ERC721URIStorage.sol\":1283:1296  string memory */\n                  0x60\n                    /* \"@openzeppelin/contracts/token/ERC721/extensions/ERC721URIStorage.sol\":1308:1330  _requireOwned(tokenId) */\n                  tag_242\n                    /* \"@openzeppelin/contracts/token/ERC721/extensions/ERC721URIStorage.sol\":1322:1329  tokenId */\n                  dup3\n                    /* \"@openzeppelin/contracts/token/ERC721/extensions/ERC721URIStorage.sol\":1308:1321  _requireOwned */\n                  tag_115\n                    /* \"@openzeppelin/contracts/token/ERC721/extensions/ERC721URIStorage.sol\":1308:1330  _requireOwned(tokenId) */\n                  jump\t// in\n                tag_242:\n                  pop\n                    /* \"@openzeppelin/contracts/token/ERC721/extensions/ERC721URIStorage.sol\":1341:1364  string memory _tokenURI */\n                  0x00\n                    /* \"@openzeppelin/contracts/token/ERC721/extensions/ERC721URIStorage.sol\":1367:1386  _tokenURIs[tokenId] */\n                  dup3\n                  dup2\n                  mstore\n                    /* \"@openzeppelin/contracts/token/ERC721/extensions/ERC721URIStorage.sol\":1367:1377  _tokenURIs */\n                  0x0a\n                    /* \"@openzeppelin/contracts/token/ERC721/extensions/ERC721URIStorage.sol\":1367:1386  _tokenURIs[tokenId] */\n                  0x20\n                  mstore\n                  0x40\n                  dup2\n                  keccak256\n                    /* \"@openzeppelin/contracts/token/ERC721/extensions/ERC721URIStorage.sol\":1341:1386  string memory _tokenURI = _tokenURIs[tokenId] */\n                  dup1\n                  sload\n                  tag_243\n                  swap1\n                  tag_108\n                  jump\t// in\n                tag_243:\n                  dup1\n                  0x1f\n                  add\n                  0x20\n                  dup1\n                  swap2\n                  div\n                  mul\n                  0x20\n                  add\n                  mload(0x40)\n                  swap1\n                  dup2\n                  add\n                  0x40\n                  mstore\n                  dup1\n                  swap3\n                  swap2\n                  swap1\n                  dup2\n                  dup2\n                  mstore\n                  0x20\n                  add\n                  dup3\n                  dup1\n                  sload\n                  tag_244\n                  swap1\n                  tag_108\n                  jump\t// in\n                tag_244:\n                  dup1\n                  iszero\n                  tag_245\n                  jumpi\n                  dup1\n                  0x1f\n                  lt\n                  tag_246\n                  jumpi\n                  0x0100\n                  dup1\n                  dup4\n                  sload\n                  div\n                  mul\n                  dup4\n                  mstore\n                  swap2\n                  0x20\n                  add\n                  swap2\n                  jump(tag_245)\n                tag_246:\n                  dup3\n                  add\n                  swap2\n                  swap1\n                  0x00\n                  mstore\n                  keccak256(0x00, 0x20)\n                  swap1\n                tag_247:\n                  dup2\n                  sload\n                  dup2\n                  mstore\n                  swap1\n                  0x01\n                  add\n                  swap1\n                  0x20\n                  add\n                  dup1\n                  dup4\n                  gt\n                  tag_247\n                  jumpi\n                  dup3\n                  swap1\n                  sub\n                  0x1f\n                  and\n                  dup3\n                  add\n                  swap2\n                tag_245:\n                  pop\n                  pop\n                  pop\n                  pop\n                  pop\n                  swap1\n                  pop\n                    /* \"@openzeppelin/contracts/token/ERC721/extensions/ERC721URIStorage.sol\":1396:1414  string memory base */\n                  0x00\n                    /* \"@openzeppelin/contracts/token/ERC721/extensions/ERC721URIStorage.sol\":1417:1427  _baseURI() */\n                  tag_248\n                    /* \"@openzeppelin/contracts/token/ERC721/ERC721.sol\":3250:3259  return \"\" */\n                  0x40\n                  dup1\n                  mload\n                  0x20\n                  dup2\n                  add\n                  swap1\n                  swap2\n                  mstore\n                  0x00\n                  dup2\n                  mstore\n                  swap1\n                    /* \"@openzeppelin/contracts/token/ERC721/ERC721.sol\":3174:3266  function _baseURI() internal view virtual returns (string memory) {... */\n                  jump\n                    /* \"@openzeppelin/contracts/token/ERC721/extensions/ERC721URIStorage.sol\":1417:1427  _baseURI() */\n                tag_248:\n                    /* \"@openzeppelin/contracts/token/ERC721/extensions/ERC721URIStorage.sol\":1396:1427  string memory base = _baseURI() */\n                  swap1\n                  pop\n                    /* \"@openzeppelin/contracts/token/ERC721/extensions/ERC721URIStorage.sol\":1506:1510  base */\n                  dup1\n                    /* \"@openzeppelin/contracts/token/ERC721/extensions/ERC721URIStorage.sol\":1500:1518  bytes(base).length */\n                  mload\n                    /* \"@openzeppelin/contracts/token/ERC721/extensions/ERC721URIStorage.sol\":1522:1523  0 */\n                  0x00\n                    /* \"@openzeppelin/contracts/token/ERC721/extensions/ERC721URIStorage.sol\":1500:1523  bytes(base).length == 0 */\n                  sub\n                    /* \"@openzeppelin/contracts/token/ERC721/extensions/ERC721URIStorage.sol\":1496:1566  if (bytes(base).length == 0) {... */\n                  tag_250\n                  jumpi\n                  pop\n                    /* \"@openzeppelin/contracts/token/ERC721/extensions/ERC721URIStorage.sol\":1546:1555  _tokenURI */\n                  swap3\n                    /* \"@openzeppelin/contracts/token/ERC721/extensions/ERC721URIStorage.sol\":1210:1803  function tokenURI(uint256 tokenId) public view virtual override returns (string memory) {... */\n                  swap2\n                  pop\n                  pop\n                  jump\t// out\n                    /* \"@openzeppelin/contracts/token/ERC721/extensions/ERC721URIStorage.sol\":1496:1566  if (bytes(base).length == 0) {... */\n                tag_250:\n                    /* \"@openzeppelin/contracts/token/ERC721/extensions/ERC721URIStorage.sol\":1665:1688  bytes(_tokenURI).length */\n                  dup2\n                  mload\n                    /* \"@openzeppelin/contracts/token/ERC721/extensions/ERC721URIStorage.sol\":1665:1692  bytes(_tokenURI).length > 0 */\n                  iszero\n                    /* \"@openzeppelin/contracts/token/ERC721/extensions/ERC721URIStorage.sol\":1661:1756  if (bytes(_tokenURI).length > 0) {... */\n                  tag_251\n                  jumpi\n                    /* \"@openzeppelin/contracts/token/ERC721/extensions/ERC721URIStorage.sol\":1729:1733  base */\n                  dup1\n                    /* \"@openzeppelin/contracts/token/ERC721/extensions/ERC721URIStorage.sol\":1735:1744  _tokenURI */\n                  dup3\n                    /* \"@openzeppelin/contracts/token/ERC721/extensions/ERC721URIStorage.sol\":1715:1745  string.concat(base, _tokenURI) */\n                  add(0x20, mload(0x40))\n                  tag_252\n                  swap3\n                  swap2\n                  swap1\n                  tag_253\n                  jump\t// in\n                tag_252:\n                  mload(0x40)\n                  0x20\n                  dup2\n                  dup4\n                  sub\n                  sub\n                  dup2\n                  mstore\n                  swap1\n                  0x40\n                  mstore\n                    /* \"@openzeppelin/contracts/token/ERC721/extensions/ERC721URIStorage.sol\":1708:1745  return string.concat(base, _tokenURI) */\n                  swap3\n                  pop\n                  pop\n                  pop\n                    /* \"@openzeppelin/contracts/token/ERC721/extensions/ERC721URIStorage.sol\":1210:1803  function tokenURI(uint256 tokenId) public view virtual override returns (string memory) {... */\n                  swap2\n                  swap1\n                  pop\n                  jump\t// out\n                    /* \"@openzeppelin/contracts/token/ERC721/extensions/ERC721URIStorage.sol\":1661:1756  if (bytes(_tokenURI).length > 0) {... */\n                tag_251:\n                    /* \"@openzeppelin/contracts/token/ERC721/extensions/ERC721URIStorage.sol\":1773:1796  super.tokenURI(tokenId) */\n                  tag_208\n                    /* \"@openzeppelin/contracts/token/ERC721/extensions/ERC721URIStorage.sol\":1788:1795  tokenId */\n                  dup5\n                    /* \"@openzeppelin/contracts/token/ERC721/extensions/ERC721URIStorage.sol\":1773:1787  super.tokenURI */\n                  tag_255\n                    /* \"@openzeppelin/contracts/token/ERC721/extensions/ERC721URIStorage.sol\":1773:1796  super.tokenURI(tokenId) */\n                  jump\t// in\n                    /* \"@openzeppelin/contracts/token/ERC721/ERC721.sol\":10633:10733  function _safeMint(address to, uint256 tokenId) internal {... */\n                tag_183:\n                    /* \"@openzeppelin/contracts/token/ERC721/ERC721.sol\":10700:10726  _safeMint(to, tokenId, \"\") */\n                  tag_119\n                    /* \"@openzeppelin/contracts/token/ERC721/ERC721.sol\":10710:10712  to */\n                  dup3\n                    /* \"@openzeppelin/contracts/token/ERC721/ERC721.sol\":10714:10721  tokenId */\n                  dup3\n                    /* \"@openzeppelin/contracts/token/ERC721/ERC721.sol\":10700:10726  _safeMint(to, tokenId, \"\") */\n                  mload(0x40)\n                  dup1\n                  0x20\n                  add\n                  0x40\n                  mstore\n                  dup1\n                  0x00\n                  dup2\n                  mstore\n                  pop\n                    /* \"@openzeppelin/contracts/token/ERC721/ERC721.sol\":10700:10709  _safeMint */\n                  tag_258\n                    /* \"@openzeppelin/contracts/token/ERC721/ERC721.sol\":10700:10726  _safeMint(to, tokenId, \"\") */\n                  jump\t// in\n                    /* \"@openzeppelin/contracts/token/ERC721/extensions/ERC721URIStorage.sol\":1922:2089  function _setTokenURI(uint256 tokenId, string memory _tokenURI) internal virtual {... */\n                tag_185:\n                    /* \"@openzeppelin/contracts/token/ERC721/extensions/ERC721URIStorage.sol\":2013:2032  _tokenURIs[tokenId] */\n                  0x00\n                  dup3\n                  dup2\n                  mstore\n                    /* \"@openzeppelin/contracts/token/ERC721/extensions/ERC721URIStorage.sol\":2013:2023  _tokenURIs */\n                  0x0a\n                    /* \"@openzeppelin/contracts/token/ERC721/extensions/ERC721URIStorage.sol\":2013:2032  _tokenURIs[tokenId] */\n                  0x20\n                  mstore\n                  0x40\n                  swap1\n                  keccak256\n                    /* \"@openzeppelin/contracts/token/ERC721/extensions/ERC721URIStorage.sol\":2013:2044  _tokenURIs[tokenId] = _tokenURI */\n                  tag_260\n                    /* \"@openzeppelin/contracts/token/ERC721/extensions/ERC721URIStorage.sol\":2035:2044  _tokenURI */\n                  dup3\n                    /* \"@openzeppelin/contracts/token/ERC721/extensions/ERC721URIStorage.sol\":2013:2032  _tokenURIs[tokenId] */\n                  dup3\n                    /* \"@openzeppelin/contracts/token/ERC721/extensions/ERC721URIStorage.sol\":2013:2044  _tokenURIs[tokenId] = _tokenURI */\n                  tag_261\n                  jump\t// in\n                tag_260:\n                  pop\n                    /* \"@openzeppelin/contracts/token/ERC721/extensions/ERC721URIStorage.sol\":2059:2082  MetadataUpdate(tokenId) */\n                  mload(0x40)\n                    /* \"#utility.yul\":2324:2349   */\n                  dup3\n                  dup2\n                  mstore\n                    /* \"@openzeppelin/contracts/token/ERC721/extensions/ERC721URIStorage.sol\":2059:2082  MetadataUpdate(tokenId) */\n                  0xf8e1a15aba9398e019f0b49df1a4fde98ee17ae345cb5f6b5e2c27f5033e8ce7\n                  swap1\n                    /* \"#utility.yul\":2312:2314   */\n                  0x20\n                    /* \"#utility.yul\":2297:2315   */\n                  add\n                    /* \"@openzeppelin/contracts/token/ERC721/extensions/ERC721URIStorage.sol\":2059:2082  MetadataUpdate(tokenId) */\n                  mload(0x40)\n                  dup1\n                  swap2\n                  sub\n                  swap1\n                  log1\n                    /* \"@openzeppelin/contracts/token/ERC721/extensions/ERC721URIStorage.sol\":1922:2089  function _setTokenURI(uint256 tokenId, string memory _tokenURI) internal virtual {... */\n                  pop\n                  pop\n                  jump\t// out\n                    /* \"@openzeppelin/contracts/token/ERC721/extensions/ERC721Enumerable.sol\":1435:1657  function supportsInterface(bytes4 interfaceId) public view virtual override(IERC165, ERC721) returns (bool) {... */\n                tag_196:\n                    /* \"@openzeppelin/contracts/token/ERC721/extensions/ERC721Enumerable.sol\":1537:1541  bool */\n                  0x00\n                  not(sub(shl(0xe0, 0x01), 0x01))\n                    /* \"@openzeppelin/contracts/token/ERC721/extensions/ERC721Enumerable.sol\":1560:1610  interfaceId == type(IERC721Enumerable).interfaceId */\n                  dup3\n                  and\n                  shl(0xe0, 0x780e9d63)\n                  eq\n                  dup1\n                    /* \"@openzeppelin/contracts/token/ERC721/extensions/ERC721Enumerable.sol\":1560:1650  interfaceId == type(IERC721Enumerable).interfaceId || super.supportsInterface(interfaceId) */\n                  tag_104\n                  jumpi\n                  pop\n                    /* \"@openzeppelin/contracts/token/ERC721/extensions/ERC721Enumerable.sol\":1614:1650  super.supportsInterface(interfaceId) */\n                  tag_104\n                    /* \"@openzeppelin/contracts/token/ERC721/extensions/ERC721Enumerable.sol\":1638:1649  interfaceId */\n                  dup3\n                    /* \"@openzeppelin/contracts/token/ERC721/extensions/ERC721Enumerable.sol\":1614:1637  super.supportsInterface */\n                  tag_266\n                    /* \"@openzeppelin/contracts/token/ERC721/extensions/ERC721Enumerable.sol\":1614:1650  super.supportsInterface(interfaceId) */\n                  jump\t// in\n                    /* \"@openzeppelin/contracts/token/ERC721/ERC721.sol\":5707:5822  function _ownerOf(uint256 tokenId) internal view virtual returns (address) {... */\n                tag_199:\n                    /* \"@openzeppelin/contracts/token/ERC721/ERC721.sol\":5773:5780  address */\n                  0x00\n                    /* \"@openzeppelin/contracts/token/ERC721/ERC721.sol\":5799:5815  _owners[tokenId] */\n                  swap1\n                  dup2\n                  mstore\n                    /* \"@openzeppelin/contracts/token/ERC721/ERC721.sol\":5799:5806  _owners */\n                  0x02\n                    /* \"@openzeppelin/contracts/token/ERC721/ERC721.sol\":5799:5815  _owners[tokenId] */\n                  0x20\n                  mstore\n                  0x40\n                  swap1\n                  keccak256\n                  sload\n                  sub(shl(0xa0, 0x01), 0x01)\n                  and\n                  swap1\n                    /* \"@openzeppelin/contracts/token/ERC721/ERC721.sol\":5707:5822  function _ownerOf(uint256 tokenId) internal view virtual returns (address) {... */\n                  jump\t// out\n                    /* \"@openzeppelin/contracts/token/ERC721/ERC721.sol\":14720:15382  function _approve(address to, uint256 tokenId, address auth, bool emitEvent) internal virtual {... */\n                tag_206:\n                    /* \"@openzeppelin/contracts/token/ERC721/ERC721.sol\":14880:14889  emitEvent */\n                  dup1\n                    /* \"@openzeppelin/contracts/token/ERC721/ERC721.sol\":14880:14911  emitEvent || auth != address(0) */\n                  dup1\n                  tag_269\n                  jumpi\n                  pop\n                  sub(shl(0xa0, 0x01), 0x01)\n                    /* \"@openzeppelin/contracts/token/ERC721/ERC721.sol\":14893:14911  auth != address(0) */\n                  dup3\n                  and\n                  iszero\n                  iszero\n                    /* \"@openzeppelin/contracts/token/ERC721/ERC721.sol\":14880:14911  emitEvent || auth != address(0) */\n                tag_269:\n                    /* \"@openzeppelin/contracts/token/ERC721/ERC721.sol\":14876:15336  if (emitEvent || auth != address(0)) {... */\n                  iszero\n                  tag_270\n                  jumpi\n                    /* \"@openzeppelin/contracts/token/ERC721/ERC721.sol\":14927:14940  address owner */\n                  0x00\n                    /* \"@openzeppelin/contracts/token/ERC721/ERC721.sol\":14943:14965  _requireOwned(tokenId) */\n                  tag_271\n                    /* \"@openzeppelin/contracts/token/ERC721/ERC721.sol\":14957:14964  tokenId */\n                  dup5\n                    /* \"@openzeppelin/contracts/token/ERC721/ERC721.sol\":14943:14956  _requireOwned */\n                  tag_115\n                    /* \"@openzeppelin/contracts/token/ERC721/ERC721.sol\":14943:14965  _requireOwned(tokenId) */\n                  jump\t// in\n                tag_271:\n                    /* \"@openzeppelin/contracts/token/ERC721/ERC721.sol\":14927:14965  address owner = _requireOwned(tokenId) */\n                  swap1\n                  pop\n                  sub(shl(0xa0, 0x01), 0x01)\n                    /* \"@openzeppelin/contracts/token/ERC721/ERC721.sol\":15093:15111  auth != address(0) */\n                  dup4\n                  and\n                  iszero\n                  dup1\n                  iszero\n                  swap1\n                    /* \"@openzeppelin/contracts/token/ERC721/ERC721.sol\":15093:15128  auth != address(0) && owner != auth */\n                  tag_272\n                  jumpi\n                  pop\n                    /* \"@openzeppelin/contracts/token/ERC721/ERC721.sol\":15124:15128  auth */\n                  dup3\n                  sub(shl(0xa0, 0x01), 0x01)\n                    /* \"@openzeppelin/contracts/token/ERC721/ERC721.sol\":15115:15128  owner != auth */\n                  and\n                    /* \"@openzeppelin/contracts/token/ERC721/ERC721.sol\":15115:15120  owner */\n                  dup2\n                  sub(shl(0xa0, 0x01), 0x01)\n                    /* \"@openzeppelin/contracts/token/ERC721/ERC721.sol\":15115:15128  owner != auth */\n                  and\n                  eq\n                  iszero\n                    /* \"@openzeppelin/contracts/token/ERC721/ERC721.sol\":15093:15128  auth != address(0) && owner != auth */\n                tag_272:\n                    /* \"@openzeppelin/contracts/token/ERC721/ERC721.sol\":15093:15162  auth != address(0) && owner != auth && !isApprovedForAll(owner, auth) */\n                  dup1\n                  iszero\n                  tag_273\n                  jumpi\n                  pop\n                    /* \"@openzeppelin/contracts/token/ERC721/ERC721.sol\":15133:15162  isApprovedForAll(owner, auth) */\n                  tag_274\n                    /* \"@openzeppelin/contracts/token/ERC721/ERC721.sol\":15150:15155  owner */\n                  dup2\n                    /* \"@openzeppelin/contracts/token/ERC721/ERC721.sol\":15157:15161  auth */\n                  dup5\n                    /* \"@openzeppelin/contracts/token/ERC721/ERC721.sol\":15133:15149  isApprovedForAll */\n                  tag_98\n                    /* \"@openzeppelin/contracts/token/ERC721/ERC721.sol\":15133:15162  isApprovedForAll(owner, auth) */\n                  jump\t// in\n                tag_274:\n                    /* \"@openzeppelin/contracts/token/ERC721/ERC721.sol\":15132:15162  !isApprovedForAll(owner, auth) */\n                  iszero\n                    /* \"@openzeppelin/contracts/token/ERC721/ERC721.sol\":15093:15162  auth != address(0) && owner != auth && !isApprovedForAll(owner, auth) */\n                tag_273:\n                    /* \"@openzeppelin/contracts/token/ERC721/ERC721.sol\":15089:15231  if (auth != address(0) && owner != auth && !isApprovedForAll(owner, auth)) {... */\n                  iszero\n                  tag_275\n                  jumpi\n                    /* \"@openzeppelin/contracts/token/ERC721/ERC721.sol\":15211:15215  auth */\n                  dup3\n                    /* \"@openzeppelin/contracts/token/ERC721/ERC721.sol\":15189:15216  ERC721InvalidApprover(auth) */\n                  mload(0x40)\n                  shl(0xe0, 0xa9fbf51f)\n                  dup2\n                  mstore\n                  0x04\n                  add\n                  tag_126\n                  swap2\n                  swap1\n                  tag_38\n                  jump\t// in\n                    /* \"@openzeppelin/contracts/token/ERC721/ERC721.sol\":15089:15231  if (auth != address(0) && owner != auth && !isApprovedForAll(owner, auth)) {... */\n                tag_275:\n                    /* \"@openzeppelin/contracts/token/ERC721/ERC721.sol\":15249:15258  emitEvent */\n                  dup2\n                    /* \"@openzeppelin/contracts/token/ERC721/ERC721.sol\":15245:15326  if (emitEvent) {... */\n                  iszero\n                  tag_277\n                  jumpi\n                    /* \"@openzeppelin/contracts/token/ERC721/ERC721.sol\":15303:15310  tokenId */\n                  dup4\n                    /* \"@openzeppelin/contracts/token/ERC721/ERC721.sol\":15299:15301  to */\n                  dup6\n                  sub(shl(0xa0, 0x01), 0x01)\n                    /* \"@openzeppelin/contracts/token/ERC721/ERC721.sol\":15283:15311  Approval(owner, to, tokenId) */\n                  and\n                    /* \"@openzeppelin/contracts/token/ERC721/ERC721.sol\":15292:15297  owner */\n                  dup3\n                  sub(shl(0xa0, 0x01), 0x01)\n                    /* \"@openzeppelin/contracts/token/ERC721/ERC721.sol\":15283:15311  Approval(owner, to, tokenId) */\n                  and\n                  0x8c5be1e5ebec7d5bd14f71427d1e84f3dd0314c0f7b2291e5b200ac8c7c3b925\n                  mload(0x40)\n                  mload(0x40)\n                  dup1\n                  swap2\n                  sub\n                  swap1\n                  log4\n                    /* \"@openzeppelin/contracts/token/ERC721/ERC721.sol\":15245:15326  if (emitEvent) {... */\n                tag_277:\n                    /* \"@openzeppelin/contracts/token/ERC721/ERC721.sol\":14913:15336  {... */\n                  pop\n                    /* \"@openzeppelin/contracts/token/ERC721/ERC721.sol\":14876:15336  if (emitEvent || auth != address(0)) {... */\n                tag_270:\n                  pop\n                  pop\n                    /* \"@openzeppelin/contracts/token/ERC721/ERC721.sol\":15346:15370  _tokenApprovals[tokenId] */\n                  0x00\n                  swap1\n                  dup2\n                  mstore\n                    /* \"@openzeppelin/contracts/token/ERC721/ERC721.sol\":15346:15361  _tokenApprovals */\n                  0x04\n                    /* \"@openzeppelin/contracts/token/ERC721/ERC721.sol\":15346:15370  _tokenApprovals[tokenId] */\n                  0x20\n                  mstore\n                  0x40\n                  swap1\n                  keccak256\n                    /* \"@openzeppelin/contracts/token/ERC721/ERC721.sol\":15346:15375  _tokenApprovals[tokenId] = to */\n                  dup1\n                  sload\n                  not(sub(shl(0xa0, 0x01), 0x01))\n                  and\n                  sub(shl(0xa0, 0x01), 0x01)\n                  swap3\n                  swap1\n                  swap3\n                  and\n                  swap2\n                  swap1\n                  swap2\n                  or\n                  swap1\n                  sstore\n                    /* \"@openzeppelin/contracts/token/ERC721/ERC721.sol\":14720:15382  function _approve(address to, uint256 tokenId, address auth, bool emitEvent) internal virtual {... */\n                  jump\t// out\n                    /* \"@openzeppelin/contracts/token/ERC721/extensions/ERC721Enumerable.sol\":2518:3143  function _update(address to, uint256 tokenId, address auth) internal virtual override returns (address) {... */\n                tag_209:\n                    /* \"@openzeppelin/contracts/token/ERC721/extensions/ERC721Enumerable.sol\":2613:2620  address */\n                  0x00\n                    /* \"@openzeppelin/contracts/token/ERC721/extensions/ERC721Enumerable.sol\":2632:2653  address previousOwner */\n                  dup1\n                    /* \"@openzeppelin/contracts/token/ERC721/extensions/ERC721Enumerable.sol\":2656:2688  super._update(to, tokenId, auth) */\n                  tag_279\n                    /* \"@openzeppelin/contracts/token/ERC721/extensions/ERC721Enumerable.sol\":2670:2672  to */\n                  dup6\n                    /* \"@openzeppelin/contracts/token/ERC721/extensions/ERC721Enumerable.sol\":2674:2681  tokenId */\n                  dup6\n                    /* \"@openzeppelin/contracts/token/ERC721/extensions/ERC721Enumerable.sol\":2683:2687  auth */\n                  dup6\n                    /* \"@openzeppelin/contracts/token/ERC721/extensions/ERC721Enumerable.sol\":2656:2669  super._update */\n                  tag_280\n                    /* \"@openzeppelin/contracts/token/ERC721/extensions/ERC721Enumerable.sol\":2656:2688  super._update(to, tokenId, auth) */\n                  jump\t// in\n                tag_279:\n                    /* \"@openzeppelin/contracts/token/ERC721/extensions/ERC721Enumerable.sol\":2632:2688  address previousOwner = super._update(to, tokenId, auth) */\n                  swap1\n                  pop\n                  sub(shl(0xa0, 0x01), 0x01)\n                    /* \"@openzeppelin/contracts/token/ERC721/extensions/ERC721Enumerable.sol\":2703:2730  previousOwner == address(0) */\n                  dup2\n                  and\n                    /* \"@openzeppelin/contracts/token/ERC721/extensions/ERC721Enumerable.sol\":2699:2909  if (previousOwner == address(0)) {... */\n                  tag_281\n                  jumpi\n                    /* \"@openzeppelin/contracts/token/ERC721/extensions/ERC721Enumerable.sol\":2746:2786  _addTokenToAllTokensEnumeration(tokenId) */\n                  tag_282\n                    /* \"@openzeppelin/contracts/token/ERC721/extensions/ERC721Enumerable.sol\":2778:2785  tokenId */\n                  dup5\n                    /* \"@openzeppelin/contracts/token/ERC721/extensions/ERC721Enumerable.sol\":3949:3959  _allTokens */\n                  0x08\n                    /* \"@openzeppelin/contracts/token/ERC721/extensions/ERC721Enumerable.sol\":3949:3966  _allTokens.length */\n                  dup1\n                  sload\n                    /* \"@openzeppelin/contracts/token/ERC721/extensions/ERC721Enumerable.sol\":3922:3946  _allTokensIndex[tokenId] */\n                  0x00\n                  dup4\n                  dup2\n                  mstore\n                    /* \"@openzeppelin/contracts/token/ERC721/extensions/ERC721Enumerable.sol\":3922:3937  _allTokensIndex */\n                  0x09\n                    /* \"@openzeppelin/contracts/token/ERC721/extensions/ERC721Enumerable.sol\":3922:3946  _allTokensIndex[tokenId] */\n                  0x20\n                  mstore\n                  0x40\n                  dup2\n                  keccak256\n                    /* \"@openzeppelin/contracts/token/ERC721/extensions/ERC721Enumerable.sol\":3922:3966  _allTokensIndex[tokenId] = _allTokens.length */\n                  dup3\n                  swap1\n                  sstore\n                    /* \"@openzeppelin/contracts/token/ERC721/extensions/ERC721Enumerable.sol\":3976:4000  _allTokens.push(tokenId) */\n                  0x01\n                  dup3\n                  add\n                  dup4\n                  sstore\n                  swap2\n                  swap1\n                  swap2\n                  mstore\n                  0xf3f7a9fe364faab93b216da50a3214154f22a0a2b415b23a84c8169e8b636ee3\n                  add\n                  sstore\n                    /* \"@openzeppelin/contracts/token/ERC721/extensions/ERC721Enumerable.sol\":3846:4007  function _addTokenToAllTokensEnumeration(uint256 tokenId) private {... */\n                  jump\n                    /* \"@openzeppelin/contracts/token/ERC721/extensions/ERC721Enumerable.sol\":2746:2786  _addTokenToAllTokensEnumeration(tokenId) */\n                tag_282:\n                    /* \"@openzeppelin/contracts/token/ERC721/extensions/ERC721Enumerable.sol\":2699:2909  if (previousOwner == address(0)) {... */\n                  jump(tag_286)\n                tag_281:\n                    /* \"@openzeppelin/contracts/token/ERC721/extensions/ERC721Enumerable.sol\":2824:2826  to */\n                  dup5\n                  sub(shl(0xa0, 0x01), 0x01)\n                    /* \"@openzeppelin/contracts/token/ERC721/extensions/ERC721Enumerable.sol\":2807:2826  previousOwner != to */\n                  and\n                    /* \"@openzeppelin/contracts/token/ERC721/extensions/ERC721Enumerable.sol\":2807:2820  previousOwner */\n                  dup2\n                  sub(shl(0xa0, 0x01), 0x01)\n                    /* \"@openzeppelin/contracts/token/ERC721/extensions/ERC721Enumerable.sol\":2807:2826  previousOwner != to */\n                  and\n                  eq\n                    /* \"@openzeppelin/contracts/token/ERC721/extensions/ERC721Enumerable.sol\":2803:2909  if (previousOwner != to) {... */\n                  tag_286\n                  jumpi\n                    /* \"@openzeppelin/contracts/token/ERC721/extensions/ERC721Enumerable.sol\":2842:2898  _removeTokenFromOwnerEnumeration(previousOwner, tokenId) */\n                  tag_286\n                    /* \"@openzeppelin/contracts/token/ERC721/extensions/ERC721Enumerable.sol\":2875:2888  previousOwner */\n                  dup2\n                    /* \"@openzeppelin/contracts/token/ERC721/extensions/ERC721Enumerable.sol\":2890:2897  tokenId */\n                  dup6\n                    /* \"@openzeppelin/contracts/token/ERC721/extensions/ERC721Enumerable.sol\":2842:2874  _removeTokenFromOwnerEnumeration */\n                  tag_287\n                    /* \"@openzeppelin/contracts/token/ERC721/extensions/ERC721Enumerable.sol\":2842:2898  _removeTokenFromOwnerEnumeration(previousOwner, tokenId) */\n                  jump\t// in\n                tag_286:\n                  sub(shl(0xa0, 0x01), 0x01)\n                    /* \"@openzeppelin/contracts/token/ERC721/extensions/ERC721Enumerable.sol\":2922:2938  to == address(0) */\n                  dup6\n                  and\n                    /* \"@openzeppelin/contracts/token/ERC721/extensions/ERC721Enumerable.sol\":2918:3106  if (to == address(0)) {... */\n                  tag_288\n                  jumpi\n                    /* \"@openzeppelin/contracts/token/ERC721/extensions/ERC721Enumerable.sol\":2954:2999  _removeTokenFromAllTokensEnumeration(tokenId) */\n                  tag_289\n                    /* \"@openzeppelin/contracts/token/ERC721/extensions/ERC721Enumerable.sol\":2991:2998  tokenId */\n                  dup5\n                    /* \"@openzeppelin/contracts/token/ERC721/extensions/ERC721Enumerable.sol\":2954:2990  _removeTokenFromAllTokensEnumeration */\n                  tag_290\n                    /* \"@openzeppelin/contracts/token/ERC721/extensions/ERC721Enumerable.sol\":2954:2999  _removeTokenFromAllTokensEnumeration(tokenId) */\n                  jump\t// in\n                tag_289:\n                    /* \"@openzeppelin/contracts/token/ERC721/extensions/ERC721Enumerable.sol\":2918:3106  if (to == address(0)) {... */\n                  jump(tag_208)\n                tag_288:\n                    /* \"@openzeppelin/contracts/token/ERC721/extensions/ERC721Enumerable.sol\":3037:3039  to */\n                  dup5\n                  sub(shl(0xa0, 0x01), 0x01)\n                    /* \"@openzeppelin/contracts/token/ERC721/extensions/ERC721Enumerable.sol\":3020:3039  previousOwner != to */\n                  and\n                    /* \"@openzeppelin/contracts/token/ERC721/extensions/ERC721Enumerable.sol\":3020:3033  previousOwner */\n                  dup2\n                  sub(shl(0xa0, 0x01), 0x01)\n                    /* \"@openzeppelin/contracts/token/ERC721/extensions/ERC721Enumerable.sol\":3020:3039  previousOwner != to */\n                  and\n                  eq\n                    /* \"@openzeppelin/contracts/token/ERC721/extensions/ERC721Enumerable.sol\":3016:3106  if (previousOwner != to) {... */\n                  tag_208\n                  jumpi\n                    /* \"@openzeppelin/contracts/token/ERC721/extensions/ERC721Enumerable.sol\":3055:3095  _addTokenToOwnerEnumeration(to, tokenId) */\n                  tag_208\n                    /* \"@openzeppelin/contracts/token/ERC721/extensions/ERC721Enumerable.sol\":3083:3085  to */\n                  dup6\n                    /* \"@openzeppelin/contracts/token/ERC721/extensions/ERC721Enumerable.sol\":3087:3094  tokenId */\n                  dup6\n                    /* \"@openzeppelin/contracts/token/ERC721/extensions/ERC721Enumerable.sol\":3055:3082  _addTokenToOwnerEnumeration */\n                  tag_294\n                    /* \"@openzeppelin/contracts/token/ERC721/extensions/ERC721Enumerable.sol\":3055:3095  _addTokenToOwnerEnumeration(to, tokenId) */\n                  jump\t// in\n                    /* \"@openzeppelin/contracts/token/ERC721/ERC721.sol\":2677:2932  function tokenURI(uint256 tokenId) public view virtual returns (string memory) {... */\n                tag_255:\n                    /* \"@openzeppelin/contracts/token/ERC721/ERC721.sol\":2741:2754  string memory */\n                  0x60\n                    /* \"@openzeppelin/contracts/token/ERC721/ERC721.sol\":2766:2788  _requireOwned(tokenId) */\n                  tag_297\n                    /* \"@openzeppelin/contracts/token/ERC721/ERC721.sol\":2780:2787  tokenId */\n                  dup3\n                    /* \"@openzeppelin/contracts/token/ERC721/ERC721.sol\":2766:2779  _requireOwned */\n                  tag_115\n                    /* \"@openzeppelin/contracts/token/ERC721/ERC721.sol\":2766:2788  _requireOwned(tokenId) */\n                  jump\t// in\n                tag_297:\n                  pop\n                    /* \"@openzeppelin/contracts/token/ERC721/ERC721.sol\":2799:2820  string memory baseURI */\n                  0x00\n                    /* \"@openzeppelin/contracts/token/ERC721/ERC721.sol\":2823:2833  _baseURI() */\n                  tag_298\n                    /* \"@openzeppelin/contracts/token/ERC721/ERC721.sol\":3250:3259  return \"\" */\n                  0x40\n                  dup1\n                  mload\n                  0x20\n                  dup2\n                  add\n                  swap1\n                  swap2\n                  mstore\n                  0x00\n                  dup2\n                  mstore\n                  swap1\n                    /* \"@openzeppelin/contracts/token/ERC721/ERC721.sol\":3174:3266  function _baseURI() internal view virtual returns (string memory) {... */\n                  jump\n                    /* \"@openzeppelin/contracts/token/ERC721/ERC721.sol\":2823:2833  _baseURI() */\n                tag_298:\n                    /* \"@openzeppelin/contracts/token/ERC721/ERC721.sol\":2799:2833  string memory baseURI = _baseURI() */\n                  swap1\n                  pop\n                    /* \"@openzeppelin/contracts/token/ERC721/ERC721.sol\":2874:2875  0 */\n                  0x00\n                    /* \"@openzeppelin/contracts/token/ERC721/ERC721.sol\":2856:2863  baseURI */\n                  dup2\n                    /* \"@openzeppelin/contracts/token/ERC721/ERC721.sol\":2850:2871  bytes(baseURI).length */\n                  mload\n                    /* \"@openzeppelin/contracts/token/ERC721/ERC721.sol\":2850:2875  bytes(baseURI).length > 0 */\n                  gt\n                    /* \"@openzeppelin/contracts/token/ERC721/ERC721.sol\":2850:2925  bytes(baseURI).length > 0 ? string.concat(baseURI, tokenId.toString()) : \"\" */\n                  tag_299\n                  jumpi\n                  mload(0x40)\n                  dup1\n                  0x20\n                  add\n                  0x40\n                  mstore\n                  dup1\n                  0x00\n                  dup2\n                  mstore\n                  pop\n                  jump(tag_300)\n                tag_299:\n                    /* \"@openzeppelin/contracts/token/ERC721/ERC721.sol\":2892:2899  baseURI */\n                  dup1\n                    /* \"@openzeppelin/contracts/token/ERC721/ERC721.sol\":2901:2919  tokenId.toString() */\n                  tag_301\n                    /* \"@openzeppelin/contracts/token/ERC721/ERC721.sol\":2901:2908  tokenId */\n                  dup5\n                    /* \"@openzeppelin/contracts/token/ERC721/ERC721.sol\":2901:2917  tokenId.toString */\n                  tag_302\n                    /* \"@openzeppelin/contracts/token/ERC721/ERC721.sol\":2901:2919  tokenId.toString() */\n                  jump\t// in\n                tag_301:\n                    /* \"@openzeppelin/contracts/token/ERC721/ERC721.sol\":2878:2920  string.concat(baseURI, tokenId.toString()) */\n                  add(0x20, mload(0x40))\n                  tag_303\n                  swap3\n                  swap2\n                  swap1\n                  tag_253\n                  jump\t// in\n                tag_303:\n                  mload(0x40)\n                  0x20\n                  dup2\n                  dup4\n                  sub\n                  sub\n                  dup2\n                  mstore\n                  swap1\n                  0x40\n                  mstore\n                    /* \"@openzeppelin/contracts/token/ERC721/ERC721.sol\":2850:2925  bytes(baseURI).length > 0 ? string.concat(baseURI, tokenId.toString()) : \"\" */\n                tag_300:\n                    /* \"@openzeppelin/contracts/token/ERC721/ERC721.sol\":2843:2925  return bytes(baseURI).length > 0 ? string.concat(baseURI, tokenId.toString()) : \"\" */\n                  swap4\n                    /* \"@openzeppelin/contracts/token/ERC721/ERC721.sol\":2677:2932  function tokenURI(uint256 tokenId) public view virtual returns (string memory) {... */\n                  swap3\n                  pop\n                  pop\n                  pop\n                  jump\t// out\n                    /* \"@openzeppelin/contracts/token/ERC721/ERC721.sol\":10954:11136  function _safeMint(address to, uint256 tokenId, bytes memory data) internal virtual {... */\n                tag_258:\n                    /* \"@openzeppelin/contracts/token/ERC721/ERC721.sol\":11048:11066  _mint(to, tokenId) */\n                  tag_305\n                    /* \"@openzeppelin/contracts/token/ERC721/ERC721.sol\":11054:11056  to */\n                  dup4\n                    /* \"@openzeppelin/contracts/token/ERC721/ERC721.sol\":11058:11065  tokenId */\n                  dup4\n                    /* \"@openzeppelin/contracts/token/ERC721/ERC721.sol\":11048:11053  _mint */\n                  tag_306\n                    /* \"@openzeppelin/contracts/token/ERC721/ERC721.sol\":11048:11066  _mint(to, tokenId) */\n                  jump\t// in\n                tag_305:\n                    /* \"@openzeppelin/contracts/token/ERC721/ERC721.sol\":11076:11129  _checkOnERC721Received(address(0), to, tokenId, data) */\n                  tag_139\n                    /* \"@openzeppelin/contracts/token/ERC721/ERC721.sol\":11107:11108  0 */\n                  0x00\n                    /* \"@openzeppelin/contracts/token/ERC721/ERC721.sol\":11111:11113  to */\n                  dup5\n                    /* \"@openzeppelin/contracts/token/ERC721/ERC721.sol\":11115:11122  tokenId */\n                  dup5\n                    /* \"@openzeppelin/contracts/token/ERC721/ERC721.sol\":11124:11128  data */\n                  dup5\n                    /* \"@openzeppelin/contracts/token/ERC721/ERC721.sol\":11076:11098  _checkOnERC721Received */\n                  tag_173\n                    /* \"@openzeppelin/contracts/token/ERC721/ERC721.sol\":11076:11129  _checkOnERC721Received(address(0), to, tokenId, data) */\n                  jump\t// in\n                    /* \"@openzeppelin/contracts/token/ERC721/ERC721.sol\":1561:1861  function supportsInterface(bytes4 interfaceId) public view virtual override(ERC165, IERC165) returns (bool) {... */\n                tag_266:\n                    /* \"@openzeppelin/contracts/token/ERC721/ERC721.sol\":1663:1667  bool */\n                  0x00\n                  not(sub(shl(0xe0, 0x01), 0x01))\n                    /* \"@openzeppelin/contracts/token/ERC721/ERC721.sol\":1698:1738  interfaceId == type(IERC721).interfaceId */\n                  dup3\n                  and\n                  shl(0xe0, 0x80ac58cd)\n                  eq\n                  dup1\n                    /* \"@openzeppelin/contracts/token/ERC721/ERC721.sol\":1698:1802  interfaceId == type(IERC721).interfaceId ||... */\n                  tag_309\n                  jumpi\n                  pop\n                  not(sub(shl(0xe0, 0x01), 0x01))\n                    /* \"@openzeppelin/contracts/token/ERC721/ERC721.sol\":1754:1802  interfaceId == type(IERC721Metadata).interfaceId */\n                  dup3\n                  and\n                  shl(0xe0, 0x5b5e139f)\n                  eq\n                    /* \"@openzeppelin/contracts/token/ERC721/ERC721.sol\":1698:1802  interfaceId == type(IERC721).interfaceId ||... */\n                tag_309:\n                    /* \"@openzeppelin/contracts/token/ERC721/ERC721.sol\":1698:1854  interfaceId == type(IERC721).interfaceId ||... */\n                  dup1\n                  tag_104\n                  jumpi\n                  pop\n                  shl(0xe0, 0x01ffc9a7)\n                  not(sub(shl(0xe0, 0x01), 0x01))\n                    /* \"@openzeppelin/contracts/utils/introspection/ERC165.sol\":861:901  interfaceId == type(IERC165).interfaceId */\n                  dup4\n                  and\n                  eq\n                    /* \"@openzeppelin/contracts/token/ERC721/ERC721.sol\":1818:1854  super.supportsInterface(interfaceId) */\n                  tag_104\n                    /* \"@openzeppelin/contracts/utils/introspection/ERC165.sol\":762:908  function supportsInterface(bytes4 interfaceId) public view virtual returns (bool) {... */\n                  jump\n                    /* \"@openzeppelin/contracts/token/ERC721/ERC721.sol\":8838:9633  function _update(address to, uint256 tokenId, address auth) internal virtual returns (address) {... */\n                tag_280:\n                    /* \"@openzeppelin/contracts/token/ERC721/ERC721.sol\":8924:8931  address */\n                  0x00\n                    /* \"@openzeppelin/contracts/token/ERC721/ERC721.sol\":8943:8955  address from */\n                  dup1\n                    /* \"@openzeppelin/contracts/token/ERC721/ERC721.sol\":8958:8975  _ownerOf(tokenId) */\n                  tag_314\n                    /* \"@openzeppelin/contracts/token/ERC721/ERC721.sol\":8967:8974  tokenId */\n                  dup5\n                    /* \"@openzeppelin/contracts/token/ERC721/ERC721.sol\":8958:8966  _ownerOf */\n                  tag_199\n                    /* \"@openzeppelin/contracts/token/ERC721/ERC721.sol\":8958:8975  _ownerOf(tokenId) */\n                  jump\t// in\n                tag_314:\n                    /* \"@openzeppelin/contracts/token/ERC721/ERC721.sol\":8943:8975  address from = _ownerOf(tokenId) */\n                  swap1\n                  pop\n                  sub(shl(0xa0, 0x01), 0x01)\n                    /* \"@openzeppelin/contracts/token/ERC721/ERC721.sol\":9035:9053  auth != address(0) */\n                  dup4\n                  and\n                  iszero\n                    /* \"@openzeppelin/contracts/token/ERC721/ERC721.sol\":9031:9117  if (auth != address(0)) {... */\n                  tag_316\n                  jumpi\n                    /* \"@openzeppelin/contracts/token/ERC721/ERC721.sol\":9069:9106  _checkAuthorized(from, auth, tokenId) */\n                  tag_316\n                    /* \"@openzeppelin/contracts/token/ERC721/ERC721.sol\":9086:9090  from */\n                  dup2\n                    /* \"@openzeppelin/contracts/token/ERC721/ERC721.sol\":9092:9096  auth */\n                  dup5\n                    /* \"@openzeppelin/contracts/token/ERC721/ERC721.sol\":9098:9105  tokenId */\n                  dup7\n                    /* \"@openzeppelin/contracts/token/ERC721/ERC721.sol\":9069:9085  _checkAuthorized */\n                  tag_317\n                    /* \"@openzeppelin/contracts/token/ERC721/ERC721.sol\":9069:9106  _checkAuthorized(from, auth, tokenId) */\n                  jump\t// in\n                tag_316:\n                  sub(shl(0xa0, 0x01), 0x01)\n                    /* \"@openzeppelin/contracts/token/ERC721/ERC721.sol\":9161:9179  from != address(0) */\n                  dup2\n                  and\n                  iszero\n                    /* \"@openzeppelin/contracts/token/ERC721/ERC721.sol\":9157:9413  if (from != address(0)) {... */\n                  tag_318\n                  jumpi\n                    /* \"@openzeppelin/contracts/token/ERC721/ERC721.sol\":9277:9325  _approve(address(0), tokenId, address(0), false) */\n                  tag_319\n                    /* \"@openzeppelin/contracts/token/ERC721/ERC721.sol\":9294:9295  0 */\n                  0x00\n                    /* \"@openzeppelin/contracts/token/ERC721/ERC721.sol\":9298:9305  tokenId */\n                  dup6\n                    /* \"@openzeppelin/contracts/token/ERC721/ERC721.sol\":9315:9316  0 */\n                  0x00\n                    /* \"@openzeppelin/contracts/token/ERC721/ERC721.sol\":9319:9324  false */\n                  dup1\n                    /* \"@openzeppelin/contracts/token/ERC721/ERC721.sol\":9277:9285  _approve */\n                  tag_206\n                    /* \"@openzeppelin/contracts/token/ERC721/ERC721.sol\":9277:9325  _approve(address(0), tokenId, address(0), false) */\n                  jump\t// in\n                tag_319:\n                  sub(shl(0xa0, 0x01), 0x01)\n                    /* \"@openzeppelin/contracts/token/ERC721/ERC721.sol\":9368:9383  _balances[from] */\n                  dup2\n                  and\n                  0x00\n                  swap1\n                  dup2\n                  mstore\n                    /* \"@openzeppelin/contracts/token/ERC721/ERC721.sol\":9368:9377  _balances */\n                  0x03\n                    /* \"@openzeppelin/contracts/token/ERC721/ERC721.sol\":9368:9383  _balances[from] */\n                  0x20\n                  mstore\n                  0x40\n                  swap1\n                  keccak256\n                    /* \"@openzeppelin/contracts/token/ERC721/ERC721.sol\":9368:9388  _balances[from] -= 1 */\n                  dup1\n                  sload\n                  not(0x00)\n                  add\n                  swap1\n                  sstore\n                    /* \"@openzeppelin/contracts/token/ERC721/ERC721.sol\":9157:9413  if (from != address(0)) {... */\n                tag_318:\n                  sub(shl(0xa0, 0x01), 0x01)\n                    /* \"@openzeppelin/contracts/token/ERC721/ERC721.sol\":9427:9443  to != address(0) */\n                  dup6\n                  and\n                  iszero\n                    /* \"@openzeppelin/contracts/token/ERC721/ERC721.sol\":9423:9530  if (to != address(0)) {... */\n                  tag_320\n                  jumpi\n                  sub(shl(0xa0, 0x01), 0x01)\n                    /* \"@openzeppelin/contracts/token/ERC721/ERC721.sol\":9487:9500  _balances[to] */\n                  dup6\n                  and\n                  0x00\n                  swap1\n                  dup2\n                  mstore\n                    /* \"@openzeppelin/contracts/token/ERC721/ERC721.sol\":9487:9496  _balances */\n                  0x03\n                    /* \"@openzeppelin/contracts/token/ERC721/ERC721.sol\":9487:9500  _balances[to] */\n                  0x20\n                  mstore\n                  0x40\n                  swap1\n                  keccak256\n                    /* \"@openzeppelin/contracts/token/ERC721/ERC721.sol\":9487:9505  _balances[to] += 1 */\n                  dup1\n                  sload\n                    /* \"@openzeppelin/contracts/token/ERC721/ERC721.sol\":9504:9505  1 */\n                  0x01\n                    /* \"@openzeppelin/contracts/token/ERC721/ERC721.sol\":9487:9505  _balances[to] += 1 */\n                  add\n                  swap1\n                  sstore\n                    /* \"@openzeppelin/contracts/token/ERC721/ERC721.sol\":9423:9530  if (to != address(0)) {... */\n                tag_320:\n                    /* \"@openzeppelin/contracts/token/ERC721/ERC721.sol\":9540:9556  _owners[tokenId] */\n                  0x00\n                  dup5\n                  dup2\n                  mstore\n                    /* \"@openzeppelin/contracts/token/ERC721/ERC721.sol\":9540:9547  _owners */\n                  0x02\n                    /* \"@openzeppelin/contracts/token/ERC721/ERC721.sol\":9540:9556  _owners[tokenId] */\n                  0x20\n                  mstore\n                  0x40\n                  dup1\n                  dup3\n                  keccak256\n                    /* \"@openzeppelin/contracts/token/ERC721/ERC721.sol\":9540:9561  _owners[tokenId] = to */\n                  dup1\n                  sload\n                  not(sub(shl(0xa0, 0x01), 0x01))\n                  and\n                  sub(shl(0xa0, 0x01), 0x01)\n                  dup10\n                  dup2\n                  and\n                  swap2\n                  dup3\n                  or\n                  swap1\n                  swap3\n                  sstore\n                    /* \"@openzeppelin/contracts/token/ERC721/ERC721.sol\":9577:9604  Transfer(from, to, tokenId) */\n                  swap2\n                  mload\n                    /* \"@openzeppelin/contracts/token/ERC721/ERC721.sol\":9540:9556  _owners[tokenId] */\n                  dup8\n                  swap4\n                    /* \"@openzeppelin/contracts/token/ERC721/ERC721.sol\":9577:9604  Transfer(from, to, tokenId) */\n                  swap2\n                  dup6\n                  and\n                  swap2\n                  0xddf252ad1be2c89b69c2b068fc378daa952ba7f163c4a11628f55a4df523b3ef\n                  swap2\n                  log4\n                    /* \"@openzeppelin/contracts/token/ERC721/ERC721.sol\":9622:9626  from */\n                  swap5\n                    /* \"@openzeppelin/contracts/token/ERC721/ERC721.sol\":8838:9633  function _update(address to, uint256 tokenId, address auth) internal virtual returns (address) {... */\n                  swap4\n                  pop\n                  pop\n                  pop\n                  pop\n                  jump\t// out\n                    /* \"@openzeppelin/contracts/token/ERC721/extensions/ERC721Enumerable.sol\":4624:5583  function _removeTokenFromOwnerEnumeration(address from, uint256 tokenId) private {... */\n                tag_287:\n                    /* \"@openzeppelin/contracts/token/ERC721/extensions/ERC721Enumerable.sol\":4886:4908  uint256 lastTokenIndex */\n                  0x00\n                    /* \"@openzeppelin/contracts/token/ERC721/extensions/ERC721Enumerable.sol\":4911:4926  balanceOf(from) */\n                  tag_324\n                    /* \"@openzeppelin/contracts/token/ERC721/extensions/ERC721Enumerable.sol\":4921:4925  from */\n                  dup4\n                    /* \"@openzeppelin/contracts/token/ERC721/extensions/ERC721Enumerable.sol\":4911:4920  balanceOf */\n                  tag_69\n                    /* \"@openzeppelin/contracts/token/ERC721/extensions/ERC721Enumerable.sol\":4911:4926  balanceOf(from) */\n                  jump\t// in\n                tag_324:\n                    /* \"@openzeppelin/contracts/token/ERC721/extensions/ERC721Enumerable.sol\":4936:4954  uint256 tokenIndex */\n                  0x00\n                    /* \"@openzeppelin/contracts/token/ERC721/extensions/ERC721Enumerable.sol\":4957:4983  _ownedTokensIndex[tokenId] */\n                  dup4\n                  dup2\n                  mstore\n                    /* \"@openzeppelin/contracts/token/ERC721/extensions/ERC721Enumerable.sol\":4957:4974  _ownedTokensIndex */\n                  0x07\n                    /* \"@openzeppelin/contracts/token/ERC721/extensions/ERC721Enumerable.sol\":4957:4983  _ownedTokensIndex[tokenId] */\n                  0x20\n                  mstore\n                  0x40\n                  swap1\n                  keccak256\n                  sload\n                    /* \"@openzeppelin/contracts/token/ERC721/extensions/ERC721Enumerable.sol\":4886:4926  uint256 lastTokenIndex = balanceOf(from) */\n                  swap1\n                  swap2\n                  pop\n                    /* \"@openzeppelin/contracts/token/ERC721/extensions/ERC721Enumerable.sol\":5087:5115  tokenIndex != lastTokenIndex */\n                  dup1\n                  dup3\n                  eq\n                    /* \"@openzeppelin/contracts/token/ERC721/extensions/ERC721Enumerable.sol\":5083:5406  if (tokenIndex != lastTokenIndex) {... */\n                  tag_325\n                  jumpi\n                  sub(shl(0xa0, 0x01), 0x01)\n                    /* \"@openzeppelin/contracts/token/ERC721/extensions/ERC721Enumerable.sol\":5153:5171  _ownedTokens[from] */\n                  dup5\n                  and\n                    /* \"@openzeppelin/contracts/token/ERC721/extensions/ERC721Enumerable.sol\":5131:5150  uint256 lastTokenId */\n                  0x00\n                    /* \"@openzeppelin/contracts/token/ERC721/extensions/ERC721Enumerable.sol\":5153:5171  _ownedTokens[from] */\n                  swap1\n                  dup2\n                  mstore\n                    /* \"@openzeppelin/contracts/token/ERC721/extensions/ERC721Enumerable.sol\":5153:5165  _ownedTokens */\n                  0x06\n                    /* \"@openzeppelin/contracts/token/ERC721/extensions/ERC721Enumerable.sol\":5153:5171  _ownedTokens[from] */\n                  0x20\n                  swap1\n                  dup2\n                  mstore\n                  0x40\n                  dup1\n                  dup4\n                  keccak256\n                    /* \"@openzeppelin/contracts/token/ERC721/extensions/ERC721Enumerable.sol\":5153:5187  _ownedTokens[from][lastTokenIndex] */\n                  dup6\n                  dup5\n                  mstore\n                  dup3\n                  mstore\n                  dup1\n                  dup4\n                  keccak256\n                  sload\n                    /* \"@openzeppelin/contracts/token/ERC721/extensions/ERC721Enumerable.sol\":5202:5232  _ownedTokens[from][tokenIndex] */\n                  dup5\n                  dup5\n                  mstore\n                  dup2\n                  dup5\n                  keccak256\n                    /* \"@openzeppelin/contracts/token/ERC721/extensions/ERC721Enumerable.sol\":5202:5246  _ownedTokens[from][tokenIndex] = lastTokenId */\n                  dup2\n                  swap1\n                  sstore\n                    /* \"@openzeppelin/contracts/token/ERC721/extensions/ERC721Enumerable.sol\":5318:5348  _ownedTokensIndex[lastTokenId] */\n                  dup4\n                  mstore\n                    /* \"@openzeppelin/contracts/token/ERC721/extensions/ERC721Enumerable.sol\":5318:5335  _ownedTokensIndex */\n                  0x07\n                    /* \"@openzeppelin/contracts/token/ERC721/extensions/ERC721Enumerable.sol\":5318:5348  _ownedTokensIndex[lastTokenId] */\n                  swap1\n                  swap2\n                  mstore\n                  swap1\n                  keccak256\n                    /* \"@openzeppelin/contracts/token/ERC721/extensions/ERC721Enumerable.sol\":5318:5361  _ownedTokensIndex[lastTokenId] = tokenIndex */\n                  dup2\n                  swap1\n                  sstore\n                    /* \"@openzeppelin/contracts/token/ERC721/extensions/ERC721Enumerable.sol\":5083:5406  if (tokenIndex != lastTokenIndex) {... */\n                tag_325:\n                  pop\n                    /* \"@openzeppelin/contracts/token/ERC721/extensions/ERC721Enumerable.sol\":5499:5525  _ownedTokensIndex[tokenId] */\n                  0x00\n                  swap2\n                  dup3\n                  mstore\n                    /* \"@openzeppelin/contracts/token/ERC721/extensions/ERC721Enumerable.sol\":5499:5516  _ownedTokensIndex */\n                  0x07\n                    /* \"@openzeppelin/contracts/token/ERC721/extensions/ERC721Enumerable.sol\":5499:5525  _ownedTokensIndex[tokenId] */\n                  0x20\n                  swap1\n                  dup2\n                  mstore\n                  0x40\n                  dup1\n                  dup5\n                  keccak256\n                    /* \"@openzeppelin/contracts/token/ERC721/extensions/ERC721Enumerable.sol\":5492:5525  delete _ownedTokensIndex[tokenId] */\n                  dup5\n                  swap1\n                  sstore\n                  sub(shl(0xa0, 0x01), 0x01)\n                    /* \"@openzeppelin/contracts/token/ERC721/extensions/ERC721Enumerable.sol\":5542:5560  _ownedTokens[from] */\n                  swap1\n                  swap5\n                  and\n                  dup4\n                  mstore\n                    /* \"@openzeppelin/contracts/token/ERC721/extensions/ERC721Enumerable.sol\":5542:5554  _ownedTokens */\n                  0x06\n                    /* \"@openzeppelin/contracts/token/ERC721/extensions/ERC721Enumerable.sol\":5542:5560  _ownedTokens[from] */\n                  dup2\n                  mstore\n                  dup4\n                  dup4\n                  keccak256\n                    /* \"@openzeppelin/contracts/token/ERC721/extensions/ERC721Enumerable.sol\":5542:5576  _ownedTokens[from][lastTokenIndex] */\n                  swap2\n                  dup4\n                  mstore\n                  mstore\n                  swap1\n                  dup2\n                  keccak256\n                    /* \"@openzeppelin/contracts/token/ERC721/extensions/ERC721Enumerable.sol\":5535:5576  delete _ownedTokens[from][lastTokenIndex] */\n                  sstore\n                    /* \"@openzeppelin/contracts/token/ERC721/extensions/ERC721Enumerable.sol\":4624:5583  function _removeTokenFromOwnerEnumeration(address from, uint256 tokenId) private {... */\n                  jump\t// out\n                    /* \"@openzeppelin/contracts/token/ERC721/extensions/ERC721Enumerable.sol\":5871:6932  function _removeTokenFromAllTokensEnumeration(uint256 tokenId) private {... */\n                tag_290:\n                    /* \"@openzeppelin/contracts/token/ERC721/extensions/ERC721Enumerable.sol\":6145:6155  _allTokens */\n                  0x08\n                    /* \"@openzeppelin/contracts/token/ERC721/extensions/ERC721Enumerable.sol\":6145:6162  _allTokens.length */\n                  sload\n                    /* \"@openzeppelin/contracts/token/ERC721/extensions/ERC721Enumerable.sol\":6120:6142  uint256 lastTokenIndex */\n                  0x00\n                  swap1\n                    /* \"@openzeppelin/contracts/token/ERC721/extensions/ERC721Enumerable.sol\":6145:6166  _allTokens.length - 1 */\n                  tag_327\n                  swap1\n                    /* \"@openzeppelin/contracts/token/ERC721/extensions/ERC721Enumerable.sol\":6165:6166  1 */\n                  0x01\n                  swap1\n                    /* \"@openzeppelin/contracts/token/ERC721/extensions/ERC721Enumerable.sol\":6145:6166  _allTokens.length - 1 */\n                  tag_328\n                  jump\t// in\n                tag_327:\n                    /* \"@openzeppelin/contracts/token/ERC721/extensions/ERC721Enumerable.sol\":6176:6194  uint256 tokenIndex */\n                  0x00\n                    /* \"@openzeppelin/contracts/token/ERC721/extensions/ERC721Enumerable.sol\":6197:6221  _allTokensIndex[tokenId] */\n                  dup4\n                  dup2\n                  mstore\n                    /* \"@openzeppelin/contracts/token/ERC721/extensions/ERC721Enumerable.sol\":6197:6212  _allTokensIndex */\n                  0x09\n                    /* \"@openzeppelin/contracts/token/ERC721/extensions/ERC721Enumerable.sol\":6197:6221  _allTokensIndex[tokenId] */\n                  0x20\n                  mstore\n                  0x40\n                  dup2\n                  keccak256\n                  sload\n                    /* \"@openzeppelin/contracts/token/ERC721/extensions/ERC721Enumerable.sol\":6565:6575  _allTokens */\n                  0x08\n                    /* \"@openzeppelin/contracts/token/ERC721/extensions/ERC721Enumerable.sol\":6565:6591  _allTokens[lastTokenIndex] */\n                  dup1\n                  sload\n                    /* \"@openzeppelin/contracts/token/ERC721/extensions/ERC721Enumerable.sol\":6120:6166  uint256 lastTokenIndex = _allTokens.length - 1 */\n                  swap4\n                  swap5\n                  pop\n                    /* \"@openzeppelin/contracts/token/ERC721/extensions/ERC721Enumerable.sol\":6197:6221  _allTokensIndex[tokenId] */\n                  swap1\n                  swap3\n                    /* \"@openzeppelin/contracts/token/ERC721/extensions/ERC721Enumerable.sol\":6120:6166  uint256 lastTokenIndex = _allTokens.length - 1 */\n                  dup5\n                  swap1\n                    /* \"@openzeppelin/contracts/token/ERC721/extensions/ERC721Enumerable.sol\":6565:6591  _allTokens[lastTokenIndex] */\n                  dup2\n                  lt\n                  tag_330\n                  jumpi\n                  tag_330\n                  tag_146\n                  jump\t// in\n                tag_330:\n                  swap1\n                  0x00\n                  mstore\n                  keccak256(0x00, 0x20)\n                  add\n                  sload\n                    /* \"@openzeppelin/contracts/token/ERC721/extensions/ERC721Enumerable.sol\":6543:6591  uint256 lastTokenId = _allTokens[lastTokenIndex] */\n                  swap1\n                  pop\n                    /* \"@openzeppelin/contracts/token/ERC721/extensions/ERC721Enumerable.sol\":6627:6638  lastTokenId */\n                  dup1\n                    /* \"@openzeppelin/contracts/token/ERC721/extensions/ERC721Enumerable.sol\":6602:6612  _allTokens */\n                  0x08\n                    /* \"@openzeppelin/contracts/token/ERC721/extensions/ERC721Enumerable.sol\":6613:6623  tokenIndex */\n                  dup4\n                    /* \"@openzeppelin/contracts/token/ERC721/extensions/ERC721Enumerable.sol\":6602:6624  _allTokens[tokenIndex] */\n                  dup2\n                  sload\n                  dup2\n                  lt\n                  tag_333\n                  jumpi\n                  tag_333\n                  tag_146\n                  jump\t// in\n                tag_333:\n                  0x00\n                  swap2\n                  dup3\n                  mstore\n                  0x20\n                  dup1\n                  dup4\n                  keccak256\n                  swap1\n                  swap2\n                  add\n                    /* \"@openzeppelin/contracts/token/ERC721/extensions/ERC721Enumerable.sol\":6602:6638  _allTokens[tokenIndex] = lastTokenId */\n                  swap3\n                  swap1\n                  swap3\n                  sstore\n                    /* \"@openzeppelin/contracts/token/ERC721/extensions/ERC721Enumerable.sol\":6706:6734  _allTokensIndex[lastTokenId] */\n                  dup3\n                  dup2\n                  mstore\n                    /* \"@openzeppelin/contracts/token/ERC721/extensions/ERC721Enumerable.sol\":6706:6721  _allTokensIndex */\n                  0x09\n                    /* \"@openzeppelin/contracts/token/ERC721/extensions/ERC721Enumerable.sol\":6706:6734  _allTokensIndex[lastTokenId] */\n                  swap1\n                  swap2\n                  mstore\n                  0x40\n                  dup1\n                  dup3\n                  keccak256\n                    /* \"@openzeppelin/contracts/token/ERC721/extensions/ERC721Enumerable.sol\":6706:6747  _allTokensIndex[lastTokenId] = tokenIndex */\n                  dup5\n                  swap1\n                  sstore\n                    /* \"@openzeppelin/contracts/token/ERC721/extensions/ERC721Enumerable.sol\":6875:6899  _allTokensIndex[tokenId] */\n                  dup6\n                  dup3\n                  mstore\n                  dup2\n                  keccak256\n                    /* \"@openzeppelin/contracts/token/ERC721/extensions/ERC721Enumerable.sol\":6868:6899  delete _allTokensIndex[tokenId] */\n                  sstore\n                    /* \"@openzeppelin/contracts/token/ERC721/extensions/ERC721Enumerable.sol\":6909:6919  _allTokens */\n                  0x08\n                    /* \"@openzeppelin/contracts/token/ERC721/extensions/ERC721Enumerable.sol\":6909:6925  _allTokens.pop() */\n                  dup1\n                  sload\n                  dup1\n                  tag_336\n                  jumpi\n                  tag_336\n                  tag_337\n                  jump\t// in\n                tag_336:\n                  0x01\n                  swap1\n                  sub\n                  dup2\n                  dup2\n                  swap1\n                  0x00\n                  mstore\n                  keccak256(0x00, 0x20)\n                  add\n                  0x00\n                  swap1\n                  sstore\n                  swap1\n                  sstore\n                    /* \"@openzeppelin/contracts/token/ERC721/extensions/ERC721Enumerable.sol\":5942:6932  {... */\n                  pop\n                  pop\n                  pop\n                    /* \"@openzeppelin/contracts/token/ERC721/extensions/ERC721Enumerable.sol\":5871:6932  function _removeTokenFromAllTokensEnumeration(uint256 tokenId) private {... */\n                  pop\n                  jump\t// out\n                    /* \"@openzeppelin/contracts/token/ERC721/extensions/ERC721Enumerable.sol\":3437:3651  function _addTokenToOwnerEnumeration(address to, uint256 tokenId) private {... */\n                tag_294:\n                    /* \"@openzeppelin/contracts/token/ERC721/extensions/ERC721Enumerable.sol\":3521:3535  uint256 length */\n                  0x00\n                    /* \"@openzeppelin/contracts/token/ERC721/extensions/ERC721Enumerable.sol\":3554:3555  1 */\n                  0x01\n                    /* \"@openzeppelin/contracts/token/ERC721/extensions/ERC721Enumerable.sol\":3538:3551  balanceOf(to) */\n                  tag_340\n                    /* \"@openzeppelin/contracts/token/ERC721/extensions/ERC721Enumerable.sol\":3548:3550  to */\n                  dup5\n                    /* \"@openzeppelin/contracts/token/ERC721/extensions/ERC721Enumerable.sol\":3538:3547  balanceOf */\n                  tag_69\n                    /* \"@openzeppelin/contracts/token/ERC721/extensions/ERC721Enumerable.sol\":3538:3551  balanceOf(to) */\n                  jump\t// in\n                tag_340:\n                    /* \"@openzeppelin/contracts/token/ERC721/extensions/ERC721Enumerable.sol\":3538:3555  balanceOf(to) - 1 */\n                  tag_341\n                  swap2\n                  swap1\n                  tag_328\n                  jump\t// in\n                tag_341:\n                  sub(shl(0xa0, 0x01), 0x01)\n                    /* \"@openzeppelin/contracts/token/ERC721/extensions/ERC721Enumerable.sol\":3565:3581  _ownedTokens[to] */\n                  swap1\n                  swap4\n                  and\n                  0x00\n                  swap1\n                  dup2\n                  mstore\n                    /* \"@openzeppelin/contracts/token/ERC721/extensions/ERC721Enumerable.sol\":3565:3577  _ownedTokens */\n                  0x06\n                    /* \"@openzeppelin/contracts/token/ERC721/extensions/ERC721Enumerable.sol\":3565:3581  _ownedTokens[to] */\n                  0x20\n                  swap1\n                  dup2\n                  mstore\n                  0x40\n                  dup1\n                  dup4\n                  keccak256\n                    /* \"@openzeppelin/contracts/token/ERC721/extensions/ERC721Enumerable.sol\":3565:3589  _ownedTokens[to][length] */\n                  dup7\n                  dup5\n                  mstore\n                  dup3\n                  mstore\n                  dup1\n                  dup4\n                  keccak256\n                    /* \"@openzeppelin/contracts/token/ERC721/extensions/ERC721Enumerable.sol\":3565:3599  _ownedTokens[to][length] = tokenId */\n                  dup6\n                  swap1\n                  sstore\n                    /* \"@openzeppelin/contracts/token/ERC721/extensions/ERC721Enumerable.sol\":3609:3635  _ownedTokensIndex[tokenId] */\n                  swap4\n                  dup3\n                  mstore\n                    /* \"@openzeppelin/contracts/token/ERC721/extensions/ERC721Enumerable.sol\":3609:3626  _ownedTokensIndex */\n                  0x07\n                    /* \"@openzeppelin/contracts/token/ERC721/extensions/ERC721Enumerable.sol\":3609:3635  _ownedTokensIndex[tokenId] */\n                  swap1\n                  mstore\n                  swap2\n                  swap1\n                  swap2\n                  keccak256\n                    /* \"@openzeppelin/contracts/token/ERC721/extensions/ERC721Enumerable.sol\":3609:3644  _ownedTokensIndex[tokenId] = length */\n                  swap2\n                  swap1\n                  swap2\n                  sstore\n                  pop\n                    /* \"@openzeppelin/contracts/token/ERC721/extensions/ERC721Enumerable.sol\":3437:3651  function _addTokenToOwnerEnumeration(address to, uint256 tokenId) private {... */\n                  jump\t// out\n                    /* \"@openzeppelin/contracts/utils/Strings.sol\":637:1335  function toString(uint256 value) internal pure returns (string memory) {... */\n                tag_302:\n                    /* \"@openzeppelin/contracts/utils/Strings.sol\":693:706  string memory */\n                  0x60\n                    /* \"@openzeppelin/contracts/utils/Strings.sol\":742:756  uint256 length */\n                  0x00\n                    /* \"@openzeppelin/contracts/utils/Strings.sol\":759:776  Math.log10(value) */\n                  tag_343\n                    /* \"@openzeppelin/contracts/utils/Strings.sol\":770:775  value */\n                  dup4\n                    /* \"@openzeppelin/contracts/utils/Strings.sol\":759:769  Math.log10 */\n                  tag_344\n                    /* \"@openzeppelin/contracts/utils/Strings.sol\":759:776  Math.log10(value) */\n                  jump\t// in\n                tag_343:\n                    /* \"@openzeppelin/contracts/utils/Strings.sol\":779:780  1 */\n                  0x01\n                    /* \"@openzeppelin/contracts/utils/Strings.sol\":759:780  Math.log10(value) + 1 */\n                  add\n                    /* \"@openzeppelin/contracts/utils/Strings.sol\":742:780  uint256 length = Math.log10(value) + 1 */\n                  swap1\n                  pop\n                    /* \"@openzeppelin/contracts/utils/Strings.sol\":794:814  string memory buffer */\n                  0x00\n                    /* \"@openzeppelin/contracts/utils/Strings.sol\":828:834  length */\n                  dup2\n                  sub(shl(0x40, 0x01), 0x01)\n                    /* \"@openzeppelin/contracts/utils/Strings.sol\":817:835  new string(length) */\n                  dup2\n                  gt\n                  iszero\n                  tag_346\n                  jumpi\n                  tag_346\n                  tag_347\n                  jump\t// in\n                tag_346:\n                  mload(0x40)\n                  swap1\n                  dup1\n                  dup3\n                  mstore\n                  dup1\n                  0x1f\n                  add\n                  not(0x1f)\n                  and\n                  0x20\n                  add\n                  dup3\n                  add\n                  0x40\n                  mstore\n                  dup1\n                  iszero\n                  tag_348\n                  jumpi\n                  0x20\n                  dup3\n                  add\n                  dup2\n                  dup1\n                  calldatasize\n                  dup4\n                  calldatacopy\n                  add\n                  swap1\n                  pop\n                tag_348:\n                  pop\n                    /* \"@openzeppelin/contracts/utils/Strings.sol\":794:835  string memory buffer = new string(length) */\n                  swap1\n                  pop\n                    /* \"@openzeppelin/contracts/utils/Strings.sol\":955:983  add(buffer, add(32, length)) */\n                  dup2\n                  dup2\n                  add\n                    /* \"@openzeppelin/contracts/utils/Strings.sol\":971:973  32 */\n                  0x20\n                    /* \"@openzeppelin/contracts/utils/Strings.sol\":955:983  add(buffer, add(32, length)) */\n                  add\n                    /* \"@openzeppelin/contracts/utils/Strings.sol\":1010:1292  while (true) {... */\n                tag_349:\n                  not(0x00)\n                    /* \"@openzeppelin/contracts/utils/Strings.sol\":1041:1046  ptr-- */\n                  add\n                  shl(0x81, 0x181899199a1a9b1b9c1cb0b131b232b3)\n                    /* \"@openzeppelin/contracts/utils/Strings.sol\":1175:1177  10 */\n                  0x0a\n                    /* \"@openzeppelin/contracts/utils/Strings.sol\":1164:1178  mod(value, 10) */\n                  dup7\n                  mod\n                    /* \"@openzeppelin/contracts/utils/Strings.sol\":1159:1191  byte(mod(value, 10), HEX_DIGITS) */\n                  byte\n                    /* \"@openzeppelin/contracts/utils/Strings.sol\":1041:1046  ptr-- */\n                  dup2\n                    /* \"@openzeppelin/contracts/utils/Strings.sol\":1146:1192  mstore8(ptr, byte(mod(value, 10), HEX_DIGITS)) */\n                  mstore8\n                    /* \"@openzeppelin/contracts/utils/Strings.sol\":1236:1238  10 */\n                  0x0a\n                    /* \"@openzeppelin/contracts/utils/Strings.sol\":1227:1238  value /= 10 */\n                  dup6\n                  div\n                  swap5\n                  pop\n                    /* \"@openzeppelin/contracts/utils/Strings.sol\":1256:1277  if (value == 0) break */\n                  dup5\n                    /* \"@openzeppelin/contracts/utils/Strings.sol\":1010:1292  while (true) {... */\n                  tag_349\n                    /* \"@openzeppelin/contracts/utils/Strings.sol\":1256:1277  if (value == 0) break */\n                  jumpi\n                  pop\n                    /* \"@openzeppelin/contracts/utils/Strings.sol\":1312:1318  buffer */\n                  swap4\n                    /* \"@openzeppelin/contracts/utils/Strings.sol\":637:1335  function toString(uint256 value) internal pure returns (string memory) {... */\n                  swap3\n                  pop\n                  pop\n                  pop\n                  jump\t// out\n                    /* \"@openzeppelin/contracts/token/ERC721/ERC721.sol\":9955:10282  function _mint(address to, uint256 tokenId) internal {... */\n                tag_306:\n                  sub(shl(0xa0, 0x01), 0x01)\n                    /* \"@openzeppelin/contracts/token/ERC721/ERC721.sol\":10022:10038  to == address(0) */\n                  dup3\n                  and\n                    /* \"@openzeppelin/contracts/token/ERC721/ERC721.sol\":10018:10105  if (to == address(0)) {... */\n                  tag_356\n                  jumpi\n                    /* \"@openzeppelin/contracts/token/ERC721/ERC721.sol\":10091:10092  0 */\n                  0x00\n                    /* \"@openzeppelin/contracts/token/ERC721/ERC721.sol\":10061:10094  ERC721InvalidReceiver(address(0)) */\n                  mload(0x40)\n                  shl(0xe1, 0x32505749)\n                  dup2\n                  mstore\n                  0x04\n                  add\n                  tag_126\n                  swap2\n                  swap1\n                  tag_38\n                  jump\t// in\n                    /* \"@openzeppelin/contracts/token/ERC721/ERC721.sol\":10018:10105  if (to == address(0)) {... */\n                tag_356:\n                    /* \"@openzeppelin/contracts/token/ERC721/ERC721.sol\":10114:10135  address previousOwner */\n                  0x00\n                    /* \"@openzeppelin/contracts/token/ERC721/ERC721.sol\":10138:10170  _update(to, tokenId, address(0)) */\n                  tag_358\n                    /* \"@openzeppelin/contracts/token/ERC721/ERC721.sol\":10146:10148  to */\n                  dup4\n                    /* \"@openzeppelin/contracts/token/ERC721/ERC721.sol\":10150:10157  tokenId */\n                  dup4\n                    /* \"@openzeppelin/contracts/token/ERC721/ERC721.sol\":10167:10168  0 */\n                  0x00\n                    /* \"@openzeppelin/contracts/token/ERC721/ERC721.sol\":10138:10145  _update */\n                  tag_129\n                    /* \"@openzeppelin/contracts/token/ERC721/ERC721.sol\":10138:10170  _update(to, tokenId, address(0)) */\n                  jump\t// in\n                tag_358:\n                    /* \"@openzeppelin/contracts/token/ERC721/ERC721.sol\":10114:10170  address previousOwner = _update(to, tokenId, address(0)) */\n                  swap1\n                  pop\n                  sub(shl(0xa0, 0x01), 0x01)\n                    /* \"@openzeppelin/contracts/token/ERC721/ERC721.sol\":10184:10211  previousOwner != address(0) */\n                  dup2\n                  and\n                  iszero\n                    /* \"@openzeppelin/contracts/token/ERC721/ERC721.sol\":10180:10276  if (previousOwner != address(0)) {... */\n                  tag_139\n                  jumpi\n                    /* \"@openzeppelin/contracts/token/ERC721/ERC721.sol\":10262:10263  0 */\n                  0x00\n                    /* \"@openzeppelin/contracts/token/ERC721/ERC721.sol\":10234:10265  ERC721InvalidSender(address(0)) */\n                  mload(0x40)\n                  shl(0xe1, 0x39e35637)\n                  dup2\n                  mstore\n                  0x04\n                  add\n                  tag_126\n                  swap2\n                  swap1\n                  tag_38\n                  jump\t// in\n                    /* \"@openzeppelin/contracts/token/ERC721/ERC721.sol\":7082:7450  function _checkAuthorized(address owner, address spender, uint256 tokenId) internal view virtual {... */\n                tag_317:\n                    /* \"@openzeppelin/contracts/token/ERC721/ERC721.sol\":7194:7232  _isAuthorized(owner, spender, tokenId) */\n                  tag_363\n                    /* \"@openzeppelin/contracts/token/ERC721/ERC721.sol\":7208:7213  owner */\n                  dup4\n                    /* \"@openzeppelin/contracts/token/ERC721/ERC721.sol\":7215:7222  spender */\n                  dup4\n                    /* \"@openzeppelin/contracts/token/ERC721/ERC721.sol\":7224:7231  tokenId */\n                  dup4\n                    /* \"@openzeppelin/contracts/token/ERC721/ERC721.sol\":7194:7207  _isAuthorized */\n                  tag_364\n                    /* \"@openzeppelin/contracts/token/ERC721/ERC721.sol\":7194:7232  _isAuthorized(owner, spender, tokenId) */\n                  jump\t// in\n                tag_363:\n                    /* \"@openzeppelin/contracts/token/ERC721/ERC721.sol\":7189:7444  if (!_isAuthorized(owner, spender, tokenId)) {... */\n                  tag_139\n                  jumpi\n                  sub(shl(0xa0, 0x01), 0x01)\n                    /* \"@openzeppelin/contracts/token/ERC721/ERC721.sol\":7252:7271  owner == address(0) */\n                  dup4\n                  and\n                    /* \"@openzeppelin/contracts/token/ERC721/ERC721.sol\":7248:7434  if (owner == address(0)) {... */\n                  tag_366\n                  jumpi\n                    /* \"@openzeppelin/contracts/token/ERC721/ERC721.sol\":7298:7329  ERC721NonexistentToken(tokenId) */\n                  mload(0x40)\n                  shl(0xe0, 0x7e273289)\n                  dup2\n                  mstore\n                  0x04\n                  dup2\n                  add\n                    /* \"#utility.yul\":2324:2349   */\n                  dup3\n                  swap1\n                  mstore\n                    /* \"#utility.yul\":2297:2315   */\n                  0x24\n                  add\n                    /* \"@openzeppelin/contracts/token/ERC721/ERC721.sol\":7298:7329  ERC721NonexistentToken(tokenId) */\n                  tag_126\n                    /* \"#utility.yul\":2178:2355   */\n                  jump\n                    /* \"@openzeppelin/contracts/token/ERC721/ERC721.sol\":7248:7434  if (owner == address(0)) {... */\n                tag_366:\n                    /* \"@openzeppelin/contracts/token/ERC721/ERC721.sol\":7402:7409  spender */\n                  dup2\n                    /* \"@openzeppelin/contracts/token/ERC721/ERC721.sol\":7411:7418  tokenId */\n                  dup2\n                    /* \"@openzeppelin/contracts/token/ERC721/ERC721.sol\":7375:7419  ERC721InsufficientApproval(spender, tokenId) */\n                  mload(0x40)\n                  shl(0xe0, 0x177e802f)\n                  dup2\n                  mstore\n                  0x04\n                  add\n                  tag_126\n                  swap3\n                  swap2\n                  swap1\n                  tag_137\n                  jump\t// in\n                    /* \"@openzeppelin/contracts/utils/math/Math.sol\":12214:13130  function log10(uint256 value) internal pure returns (uint256) {... */\n                tag_344:\n                    /* \"@openzeppelin/contracts/utils/math/Math.sol\":12267:12274  uint256 */\n                  0x00\n                  dup1\n                  shl(0x40, 0x184f03e93ff9f4daa797ed6e38ed64bf6a1f01)\n                    /* \"@openzeppelin/contracts/utils/math/Math.sol\":12342:12359  value >= 10 ** 64 */\n                  dup4\n                  lt\n                    /* \"@openzeppelin/contracts/utils/math/Math.sol\":12338:12441  if (value >= 10 ** 64) {... */\n                  tag_371\n                  jumpi\n                  shl(0x40, 0x184f03e93ff9f4daa797ed6e38ed64bf6a1f01)\n                    /* \"@openzeppelin/contracts/utils/math/Math.sol\":12379:12396  value /= 10 ** 64 */\n                  dup4\n                  div\n                  swap3\n                  pop\n                    /* \"@openzeppelin/contracts/utils/math/Math.sol\":12424:12426  64 */\n                  0x40\n                    /* \"@openzeppelin/contracts/utils/math/Math.sol\":12414:12426  result += 64 */\n                  add\n                    /* \"@openzeppelin/contracts/utils/math/Math.sol\":12338:12441  if (value >= 10 ** 64) {... */\n                tag_371:\n                  shl(0x20, 0x04ee2d6d415b85acef81)\n                    /* \"@openzeppelin/contracts/utils/math/Math.sol\":12458:12463  value */\n                  dup4\n                    /* \"@openzeppelin/contracts/utils/math/Math.sol\":12458:12475  value >= 10 ** 32 */\n                  lt\n                    /* \"@openzeppelin/contracts/utils/math/Math.sol\":12454:12557  if (value >= 10 ** 32) {... */\n                  tag_374\n                  jumpi\n                  shl(0x20, 0x04ee2d6d415b85acef81)\n                    /* \"@openzeppelin/contracts/utils/math/Math.sol\":12495:12512  value /= 10 ** 32 */\n                  dup4\n                  div\n                  swap3\n                  pop\n                    /* \"@openzeppelin/contracts/utils/math/Math.sol\":12540:12542  32 */\n                  0x20\n                    /* \"@openzeppelin/contracts/utils/math/Math.sol\":12530:12542  result += 32 */\n                  add\n                    /* \"@openzeppelin/contracts/utils/math/Math.sol\":12454:12557  if (value >= 10 ** 32) {... */\n                tag_374:\n                    /* \"@openzeppelin/contracts/utils/math/Math.sol\":12583:12591  10 ** 16 */\n                  0x2386f26fc10000\n                    /* \"@openzeppelin/contracts/utils/math/Math.sol\":12574:12579  value */\n                  dup4\n                    /* \"@openzeppelin/contracts/utils/math/Math.sol\":12574:12591  value >= 10 ** 16 */\n                  lt\n                    /* \"@openzeppelin/contracts/utils/math/Math.sol\":12570:12673  if (value >= 10 ** 16) {... */\n                  tag_377\n                  jumpi\n                    /* \"@openzeppelin/contracts/utils/math/Math.sol\":12620:12628  10 ** 16 */\n                  0x2386f26fc10000\n                    /* \"@openzeppelin/contracts/utils/math/Math.sol\":12611:12628  value /= 10 ** 16 */\n                  dup4\n                  div\n                  swap3\n                  pop\n                    /* \"@openzeppelin/contracts/utils/math/Math.sol\":12656:12658  16 */\n                  0x10\n                    /* \"@openzeppelin/contracts/utils/math/Math.sol\":12646:12658  result += 16 */\n                  add\n                    /* \"@openzeppelin/contracts/utils/math/Math.sol\":12570:12673  if (value >= 10 ** 16) {... */\n                tag_377:\n                    /* \"@openzeppelin/contracts/utils/math/Math.sol\":12699:12706  10 ** 8 */\n                  0x05f5e100\n                    /* \"@openzeppelin/contracts/utils/math/Math.sol\":12690:12695  value */\n                  dup4\n                    /* \"@openzeppelin/contracts/utils/math/Math.sol\":12690:12706  value >= 10 ** 8 */\n                  lt\n                    /* \"@openzeppelin/contracts/utils/math/Math.sol\":12686:12786  if (value >= 10 ** 8) {... */\n                  tag_380\n                  jumpi\n                    /* \"@openzeppelin/contracts/utils/math/Math.sol\":12735:12742  10 ** 8 */\n                  0x05f5e100\n                    /* \"@openzeppelin/contracts/utils/math/Math.sol\":12726:12742  value /= 10 ** 8 */\n                  dup4\n                  div\n                  swap3\n                  pop\n                    /* \"@openzeppelin/contracts/utils/math/Math.sol\":12770:12771  8 */\n                  0x08\n                    /* \"@openzeppelin/contracts/utils/math/Math.sol\":12760:12771  result += 8 */\n                  add\n                    /* \"@openzeppelin/contracts/utils/math/Math.sol\":12686:12786  if (value >= 10 ** 8) {... */\n                tag_380:\n                    /* \"@openzeppelin/contracts/utils/math/Math.sol\":12812:12819  10 ** 4 */\n                  0x2710\n                    /* \"@openzeppelin/contracts/utils/math/Math.sol\":12803:12808  value */\n                  dup4\n                    /* \"@openzeppelin/contracts/utils/math/Math.sol\":12803:12819  value >= 10 ** 4 */\n                  lt\n                    /* \"@openzeppelin/contracts/utils/math/Math.sol\":12799:12899  if (value >= 10 ** 4) {... */\n                  tag_383\n                  jumpi\n                    /* \"@openzeppelin/contracts/utils/math/Math.sol\":12848:12855  10 ** 4 */\n                  0x2710\n                    /* \"@openzeppelin/contracts/utils/math/Math.sol\":12839:12855  value /= 10 ** 4 */\n                  dup4\n                  div\n                  swap3\n                  pop\n                    /* \"@openzeppelin/contracts/utils/math/Math.sol\":12883:12884  4 */\n                  0x04\n                    /* \"@openzeppelin/contracts/utils/math/Math.sol\":12873:12884  result += 4 */\n                  add\n                    /* \"@openzeppelin/contracts/utils/math/Math.sol\":12799:12899  if (value >= 10 ** 4) {... */\n                tag_383:\n                    /* \"@openzeppelin/contracts/utils/math/Math.sol\":12925:12932  10 ** 2 */\n                  0x64\n                    /* \"@openzeppelin/contracts/utils/math/Math.sol\":12916:12921  value */\n                  dup4\n                    /* \"@openzeppelin/contracts/utils/math/Math.sol\":12916:12932  value >= 10 ** 2 */\n                  lt\n                    /* \"@openzeppelin/contracts/utils/math/Math.sol\":12912:13012  if (value >= 10 ** 2) {... */\n                  tag_386\n                  jumpi\n                    /* \"@openzeppelin/contracts/utils/math/Math.sol\":12961:12968  10 ** 2 */\n                  0x64\n                    /* \"@openzeppelin/contracts/utils/math/Math.sol\":12952:12968  value /= 10 ** 2 */\n                  dup4\n                  div\n                  swap3\n                  pop\n                    /* \"@openzeppelin/contracts/utils/math/Math.sol\":12996:12997  2 */\n                  0x02\n                    /* \"@openzeppelin/contracts/utils/math/Math.sol\":12986:12997  result += 2 */\n                  add\n                    /* \"@openzeppelin/contracts/utils/math/Math.sol\":12912:13012  if (value >= 10 ** 2) {... */\n                tag_386:\n                    /* \"@openzeppelin/contracts/utils/math/Math.sol\":13038:13045  10 ** 1 */\n                  0x0a\n                    /* \"@openzeppelin/contracts/utils/math/Math.sol\":13029:13034  value */\n                  dup4\n                    /* \"@openzeppelin/contracts/utils/math/Math.sol\":13029:13045  value >= 10 ** 1 */\n                  lt\n                    /* \"@openzeppelin/contracts/utils/math/Math.sol\":13025:13091  if (value >= 10 ** 1) {... */\n                  tag_104\n                  jumpi\n                    /* \"@openzeppelin/contracts/utils/math/Math.sol\":13075:13076  1 */\n                  0x01\n                    /* \"@openzeppelin/contracts/utils/math/Math.sol\":13065:13076  result += 1 */\n                  add\n                    /* \"@openzeppelin/contracts/utils/math/Math.sol\":13117:13123  result */\n                  swap3\n                    /* \"@openzeppelin/contracts/utils/math/Math.sol\":12214:13130  function log10(uint256 value) internal pure returns (uint256) {... */\n                  swap2\n                  pop\n                  pop\n                  jump\t// out\n                    /* \"@openzeppelin/contracts/token/ERC721/ERC721.sol\":6376:6648  function _isAuthorized(address owner, address spender, uint256 tokenId) internal view virtual returns (bool) {... */\n                tag_364:\n                    /* \"@openzeppelin/contracts/token/ERC721/ERC721.sol\":6479:6483  bool */\n                  0x00\n                  sub(shl(0xa0, 0x01), 0x01)\n                    /* \"@openzeppelin/contracts/token/ERC721/ERC721.sol\":6514:6535  spender != address(0) */\n                  dup4\n                  and\n                  iszero\n                  dup1\n                  iszero\n                  swap1\n                    /* \"@openzeppelin/contracts/token/ERC721/ERC721.sol\":6514:6641  spender != address(0) &&... */\n                  tag_208\n                  jumpi\n                  pop\n                    /* \"@openzeppelin/contracts/token/ERC721/ERC721.sol\":6561:6568  spender */\n                  dup3\n                  sub(shl(0xa0, 0x01), 0x01)\n                    /* \"@openzeppelin/contracts/token/ERC721/ERC721.sol\":6552:6568  owner == spender */\n                  and\n                    /* \"@openzeppelin/contracts/token/ERC721/ERC721.sol\":6552:6557  owner */\n                  dup5\n                  sub(shl(0xa0, 0x01), 0x01)\n                    /* \"@openzeppelin/contracts/token/ERC721/ERC721.sol\":6552:6568  owner == spender */\n                  and\n                  eq\n                    /* \"@openzeppelin/contracts/token/ERC721/ERC721.sol\":6552:6604  owner == spender || isApprovedForAll(owner, spender) */\n                  dup1\n                  tag_393\n                  jumpi\n                  pop\n                    /* \"@openzeppelin/contracts/token/ERC721/ERC721.sol\":6572:6604  isApprovedForAll(owner, spender) */\n                  tag_393\n                    /* \"@openzeppelin/contracts/token/ERC721/ERC721.sol\":6589:6594  owner */\n                  dup5\n                    /* \"@openzeppelin/contracts/token/ERC721/ERC721.sol\":6596:6603  spender */\n                  dup5\n                    /* \"@openzeppelin/contracts/token/ERC721/ERC721.sol\":6572:6588  isApprovedForAll */\n                  tag_98\n                    /* \"@openzeppelin/contracts/token/ERC721/ERC721.sol\":6572:6604  isApprovedForAll(owner, spender) */\n                  jump\t// in\n                tag_393:\n                    /* \"@openzeppelin/contracts/token/ERC721/ERC721.sol\":6552:6640  owner == spender || isApprovedForAll(owner, spender) || _getApproved(tokenId) == spender */\n                  dup1\n                  tag_208\n                  jumpi\n                  pop\n                    /* \"@openzeppelin/contracts/token/ERC721/ERC721.sol\":6633:6640  spender */\n                  dup3\n                  sub(shl(0xa0, 0x01), 0x01)\n                    /* \"@openzeppelin/contracts/token/ERC721/ERC721.sol\":6608:6640  _getApproved(tokenId) == spender */\n                  and\n                    /* \"@openzeppelin/contracts/token/ERC721/ERC721.sol\":6608:6629  _getApproved(tokenId) */\n                  tag_395\n                    /* \"@openzeppelin/contracts/token/ERC721/ERC721.sol\":6621:6628  tokenId */\n                  dup4\n                    /* \"@openzeppelin/contracts/token/ERC721/ERC721.sol\":6608:6620  _getApproved */\n                  tag_117\n                    /* \"@openzeppelin/contracts/token/ERC721/ERC721.sol\":6608:6629  _getApproved(tokenId) */\n                  jump\t// in\n                tag_395:\n                  sub(shl(0xa0, 0x01), 0x01)\n                    /* \"@openzeppelin/contracts/token/ERC721/ERC721.sol\":6608:6640  _getApproved(tokenId) == spender */\n                  and\n                  eq\n                  swap5\n                    /* \"@openzeppelin/contracts/token/ERC721/ERC721.sol\":6376:6648  function _isAuthorized(address owner, address spender, uint256 tokenId) internal view virtual returns (bool) {... */\n                  swap4\n                  pop\n                  pop\n                  pop\n                  pop\n                  jump\t// out\n                    /* \"#utility.yul\":14:145   */\n                tag_396:\n                  not(sub(shl(0xe0, 0x01), 0x01))\n                    /* \"#utility.yul\":88:120   */\n                  dup2\n                  and\n                    /* \"#utility.yul\":78:121   */\n                  dup2\n                  eq\n                    /* \"#utility.yul\":68:139   */\n                  tag_192\n                  jumpi\n                    /* \"#utility.yul\":135:136   */\n                  0x00\n                    /* \"#utility.yul\":132:133   */\n                  dup1\n                    /* \"#utility.yul\":125:137   */\n                  revert\n                    /* \"#utility.yul\":150:395   */\n                tag_25:\n                    /* \"#utility.yul\":208:214   */\n                  0x00\n                    /* \"#utility.yul\":261:263   */\n                  0x20\n                    /* \"#utility.yul\":249:258   */\n                  dup3\n                    /* \"#utility.yul\":240:247   */\n                  dup5\n                    /* \"#utility.yul\":236:259   */\n                  sub\n                    /* \"#utility.yul\":232:264   */\n                  slt\n                    /* \"#utility.yul\":229:281   */\n                  iszero\n                  tag_409\n                  jumpi\n                    /* \"#utility.yul\":277:278   */\n                  0x00\n                    /* \"#utility.yul\":274:275   */\n                  dup1\n                    /* \"#utility.yul\":267:279   */\n                  revert\n                    /* \"#utility.yul\":229:281   */\n                tag_409:\n                    /* \"#utility.yul\":316:325   */\n                  dup2\n                    /* \"#utility.yul\":303:326   */\n                  calldataload\n                    /* \"#utility.yul\":335:365   */\n                  tag_300\n                    /* \"#utility.yul\":359:364   */\n                  dup2\n                    /* \"#utility.yul\":335:365   */\n                  tag_396\n                  jump\t// in\n                    /* \"#utility.yul\":592:842   */\n                tag_397:\n                    /* \"#utility.yul\":677:678   */\n                  0x00\n                    /* \"#utility.yul\":687:800   */\n                tag_413:\n                    /* \"#utility.yul\":701:707   */\n                  dup4\n                    /* \"#utility.yul\":698:699   */\n                  dup2\n                    /* \"#utility.yul\":695:708   */\n                  lt\n                    /* \"#utility.yul\":687:800   */\n                  iszero\n                  tag_415\n                  jumpi\n                    /* \"#utility.yul\":777:788   */\n                  dup2\n                  dup2\n                  add\n                    /* \"#utility.yul\":771:789   */\n                  mload\n                    /* \"#utility.yul\":758:769   */\n                  dup4\n                  dup3\n                  add\n                    /* \"#utility.yul\":751:790   */\n                  mstore\n                    /* \"#utility.yul\":723:725   */\n                  0x20\n                    /* \"#utility.yul\":716:726   */\n                  add\n                    /* \"#utility.yul\":687:800   */\n                  jump(tag_413)\n                tag_415:\n                  pop\n                  pop\n                    /* \"#utility.yul\":834:835   */\n                  0x00\n                    /* \"#utility.yul\":816:832   */\n                  swap2\n                  add\n                    /* \"#utility.yul\":809:836   */\n                  mstore\n                    /* \"#utility.yul\":592:842   */\n                  jump\t// out\n                    /* \"#utility.yul\":847:1118   */\n                tag_398:\n                    /* \"#utility.yul\":889:892   */\n                  0x00\n                    /* \"#utility.yul\":927:932   */\n                  dup2\n                    /* \"#utility.yul\":921:933   */\n                  mload\n                    /* \"#utility.yul\":954:960   */\n                  dup1\n                    /* \"#utility.yul\":949:952   */\n                  dup5\n                    /* \"#utility.yul\":942:961   */\n                  mstore\n                    /* \"#utility.yul\":970:1046   */\n                  tag_417\n                    /* \"#utility.yul\":1039:1045   */\n                  dup2\n                    /* \"#utility.yul\":1032:1036   */\n                  0x20\n                    /* \"#utility.yul\":1027:1030   */\n                  dup7\n                    /* \"#utility.yul\":1023:1037   */\n                  add\n                    /* \"#utility.yul\":1016:1020   */\n                  0x20\n                    /* \"#utility.yul\":1009:1014   */\n                  dup7\n                    /* \"#utility.yul\":1005:1021   */\n                  add\n                    /* \"#utility.yul\":970:1046   */\n                  tag_397\n                  jump\t// in\n                tag_417:\n                    /* \"#utility.yul\":1100:1102   */\n                  0x1f\n                    /* \"#utility.yul\":1079:1094   */\n                  add\n                  not(0x1f)\n                    /* \"#utility.yul\":1075:1104   */\n                  and\n                    /* \"#utility.yul\":1066:1105   */\n                  swap3\n                  swap1\n                  swap3\n                  add\n                    /* \"#utility.yul\":1107:1111   */\n                  0x20\n                    /* \"#utility.yul\":1062:1112   */\n                  add\n                  swap3\n                    /* \"#utility.yul\":847:1118   */\n                  swap2\n                  pop\n                  pop\n                  jump\t// out\n                    /* \"#utility.yul\":1123:1343   */\n                tag_32:\n                    /* \"#utility.yul\":1272:1274   */\n                  0x20\n                    /* \"#utility.yul\":1261:1270   */\n                  dup2\n                    /* \"#utility.yul\":1254:1275   */\n                  mstore\n                    /* \"#utility.yul\":1235:1239   */\n                  0x00\n                    /* \"#utility.yul\":1292:1337   */\n                  tag_300\n                    /* \"#utility.yul\":1333:1335   */\n                  0x20\n                    /* \"#utility.yul\":1322:1331   */\n                  dup4\n                    /* \"#utility.yul\":1318:1336   */\n                  add\n                    /* \"#utility.yul\":1310:1316   */\n                  dup5\n                    /* \"#utility.yul\":1292:1337   */\n                  tag_398\n                  jump\t// in\n                    /* \"#utility.yul\":1348:1528   */\n                tag_35:\n                    /* \"#utility.yul\":1407:1413   */\n                  0x00\n                    /* \"#utility.yul\":1460:1462   */\n                  0x20\n                    /* \"#utility.yul\":1448:1457   */\n                  dup3\n                    /* \"#utility.yul\":1439:1446   */\n                  dup5\n                    /* \"#utility.yul\":1435:1458   */\n                  sub\n                    /* \"#utility.yul\":1431:1463   */\n                  slt\n                    /* \"#utility.yul\":1428:1480   */\n                  iszero\n                  tag_421\n                  jumpi\n                    /* \"#utility.yul\":1476:1477   */\n                  0x00\n                    /* \"#utility.yul\":1473:1474   */\n                  dup1\n                    /* \"#utility.yul\":1466:1478   */\n                  revert\n                    /* \"#utility.yul\":1428:1480   */\n                tag_421:\n                  pop\n                    /* \"#utility.yul\":1499:1522   */\n                  calldataload\n                  swap2\n                    /* \"#utility.yul\":1348:1528   */\n                  swap1\n                  pop\n                  jump\t// out\n                    /* \"#utility.yul\":1533:1736   */\n                tag_38:\n                  sub(shl(0xa0, 0x01), 0x01)\n                    /* \"#utility.yul\":1697:1729   */\n                  swap2\n                  swap1\n                  swap2\n                  and\n                    /* \"#utility.yul\":1679:1730   */\n                  dup2\n                  mstore\n                    /* \"#utility.yul\":1667:1669   */\n                  0x20\n                    /* \"#utility.yul\":1652:1670   */\n                  add\n                  swap1\n                    /* \"#utility.yul\":1533:1736   */\n                  jump\t// out\n                    /* \"#utility.yul\":1741:1914   */\n                tag_399:\n                    /* \"#utility.yul\":1809:1829   */\n                  dup1\n                  calldataload\n                  sub(shl(0xa0, 0x01), 0x01)\n                    /* \"#utility.yul\":1858:1889   */\n                  dup2\n                  and\n                    /* \"#utility.yul\":1848:1890   */\n                  dup2\n                  eq\n                    /* \"#utility.yul\":1838:1908   */\n                  tag_424\n                  jumpi\n                    /* \"#utility.yul\":1904:1905   */\n                  0x00\n                    /* \"#utility.yul\":1901:1902   */\n                  dup1\n                    /* \"#utility.yul\":1894:1906   */\n                  revert\n                    /* \"#utility.yul\":1838:1908   */\n                tag_424:\n                    /* \"#utility.yul\":1741:1914   */\n                  swap2\n                  swap1\n                  pop\n                  jump\t// out\n                    /* \"#utility.yul\":1919:2173   */\n                tag_41:\n                    /* \"#utility.yul\":1987:1993   */\n                  0x00\n                    /* \"#utility.yul\":1995:2001   */\n                  dup1\n                    /* \"#utility.yul\":2048:2050   */\n                  0x40\n                    /* \"#utility.yul\":2036:2045   */\n                  dup4\n                    /* \"#utility.yul\":2027:2034   */\n                  dup6\n                    /* \"#utility.yul\":2023:2046   */\n                  sub\n                    /* \"#utility.yul\":2019:2051   */\n                  slt\n                    /* \"#utility.yul\":2016:2068   */\n                  iszero\n                  tag_426\n                  jumpi\n                    /* \"#utility.yul\":2064:2065   */\n                  0x00\n                    /* \"#utility.yul\":2061:2062   */\n                  dup1\n                    /* \"#utility.yul\":2054:2066   */\n                  revert\n                    /* \"#utility.yul\":2016:2068   */\n                tag_426:\n                    /* \"#utility.yul\":2087:2116   */\n                  tag_427\n                    /* \"#utility.yul\":2106:2115   */\n                  dup4\n                    /* \"#utility.yul\":2087:2116   */\n                  tag_399\n                  jump\t// in\n                tag_427:\n                    /* \"#utility.yul\":2077:2116   */\n                  swap5\n                    /* \"#utility.yul\":2163:2165   */\n                  0x20\n                    /* \"#utility.yul\":2148:2166   */\n                  swap4\n                  swap1\n                  swap4\n                  add\n                    /* \"#utility.yul\":2135:2167   */\n                  calldataload\n                  swap4\n                  pop\n                  pop\n                  pop\n                    /* \"#utility.yul\":1919:2173   */\n                  jump\t// out\n                    /* \"#utility.yul\":2360:2688   */\n                tag_49:\n                    /* \"#utility.yul\":2437:2443   */\n                  0x00\n                    /* \"#utility.yul\":2445:2451   */\n                  dup1\n                    /* \"#utility.yul\":2453:2459   */\n                  0x00\n                    /* \"#utility.yul\":2506:2508   */\n                  0x60\n                    /* \"#utility.yul\":2494:2503   */\n                  dup5\n                    /* \"#utility.yul\":2485:2492   */\n                  dup7\n                    /* \"#utility.yul\":2481:2504   */\n                  sub\n                    /* \"#utility.yul\":2477:2509   */\n                  slt\n                    /* \"#utility.yul\":2474:2526   */\n                  iszero\n                  tag_430\n                  jumpi\n                    /* \"#utility.yul\":2522:2523   */\n                  0x00\n                    /* \"#utility.yul\":2519:2520   */\n                  dup1\n                    /* \"#utility.yul\":2512:2524   */\n                  revert\n                    /* \"#utility.yul\":2474:2526   */\n                tag_430:\n                    /* \"#utility.yul\":2545:2574   */\n                  tag_431\n                    /* \"#utility.yul\":2564:2573   */\n                  dup5\n                    /* \"#utility.yul\":2545:2574   */\n                  tag_399\n                  jump\t// in\n                tag_431:\n                    /* \"#utility.yul\":2535:2574   */\n                  swap3\n                  pop\n                    /* \"#utility.yul\":2593:2631   */\n                  tag_432\n                    /* \"#utility.yul\":2627:2629   */\n                  0x20\n                    /* \"#utility.yul\":2616:2625   */\n                  dup6\n                    /* \"#utility.yul\":2612:2630   */\n                  add\n                    /* \"#utility.yul\":2593:2631   */\n                  tag_399\n                  jump\t// in\n                tag_432:\n                    /* \"#utility.yul\":2583:2631   */\n                  swap2\n                  pop\n                    /* \"#utility.yul\":2678:2680   */\n                  0x40\n                    /* \"#utility.yul\":2667:2676   */\n                  dup5\n                    /* \"#utility.yul\":2663:2681   */\n                  add\n                    /* \"#utility.yul\":2650:2682   */\n                  calldataload\n                    /* \"#utility.yul\":2640:2682   */\n                  swap1\n                  pop\n                    /* \"#utility.yul\":2360:2688   */\n                  swap3\n                  pop\n                  swap3\n                  pop\n                  swap3\n                  jump\t// out\n                    /* \"#utility.yul\":2693:2879   */\n                tag_68:\n                    /* \"#utility.yul\":2752:2758   */\n                  0x00\n                    /* \"#utility.yul\":2805:2807   */\n                  0x20\n                    /* \"#utility.yul\":2793:2802   */\n                  dup3\n                    /* \"#utility.yul\":2784:2791   */\n                  dup5\n                    /* \"#utility.yul\":2780:2803   */\n                  sub\n                    /* \"#utility.yul\":2776:2808   */\n                  slt\n                    /* \"#utility.yul\":2773:2825   */\n                  iszero\n                  tag_434\n                  jumpi\n                    /* \"#utility.yul\":2821:2822   */\n                  0x00\n                    /* \"#utility.yul\":2818:2819   */\n                  dup1\n                    /* \"#utility.yul\":2811:2823   */\n                  revert\n                    /* \"#utility.yul\":2773:2825   */\n                tag_434:\n                    /* \"#utility.yul\":2844:2873   */\n                  tag_300\n                    /* \"#utility.yul\":2863:2872   */\n                  dup3\n                    /* \"#utility.yul\":2844:2873   */\n                  tag_399\n                  jump\t// in\n                    /* \"#utility.yul\":2884:3231   */\n                tag_81:\n                    /* \"#utility.yul\":2949:2955   */\n                  0x00\n                    /* \"#utility.yul\":2957:2963   */\n                  dup1\n                    /* \"#utility.yul\":3010:3012   */\n                  0x40\n                    /* \"#utility.yul\":2998:3007   */\n                  dup4\n                    /* \"#utility.yul\":2989:2996   */\n                  dup6\n                    /* \"#utility.yul\":2985:3008   */\n                  sub\n                    /* \"#utility.yul\":2981:3013   */\n                  slt\n                    /* \"#utility.yul\":2978:3030   */\n                  iszero\n                  tag_437\n                  jumpi\n                    /* \"#utility.yul\":3026:3027   */\n                  0x00\n                    /* \"#utility.yul\":3023:3024   */\n                  dup1\n                    /* \"#utility.yul\":3016:3028   */\n                  revert\n                    /* \"#utility.yul\":2978:3030   */\n                tag_437:\n                    /* \"#utility.yul\":3049:3078   */\n                  tag_438\n                    /* \"#utility.yul\":3068:3077   */\n                  dup4\n                    /* \"#utility.yul\":3049:3078   */\n                  tag_399\n                  jump\t// in\n                tag_438:\n                    /* \"#utility.yul\":3039:3078   */\n                  swap2\n                  pop\n                    /* \"#utility.yul\":3128:3130   */\n                  0x20\n                    /* \"#utility.yul\":3117:3126   */\n                  dup4\n                    /* \"#utility.yul\":3113:3131   */\n                  add\n                    /* \"#utility.yul\":3100:3132   */\n                  calldataload\n                    /* \"#utility.yul\":3175:3180   */\n                  dup1\n                    /* \"#utility.yul\":3168:3181   */\n                  iszero\n                    /* \"#utility.yul\":3161:3182   */\n                  iszero\n                    /* \"#utility.yul\":3154:3159   */\n                  dup2\n                    /* \"#utility.yul\":3151:3183   */\n                  eq\n                    /* \"#utility.yul\":3141:3201   */\n                  tag_439\n                  jumpi\n                    /* \"#utility.yul\":3197:3198   */\n                  0x00\n                    /* \"#utility.yul\":3194:3195   */\n                  dup1\n                    /* \"#utility.yul\":3187:3199   */\n                  revert\n                    /* \"#utility.yul\":3141:3201   */\n                tag_439:\n                    /* \"#utility.yul\":3220:3225   */\n                  dup1\n                    /* \"#utility.yul\":3210:3225   */\n                  swap2\n                  pop\n                  pop\n                    /* \"#utility.yul\":2884:3231   */\n                  swap3\n                  pop\n                  swap3\n                  swap1\n                  pop\n                  jump\t// out\n                    /* \"#utility.yul\":3236:3363   */\n                tag_347:\n                    /* \"#utility.yul\":3297:3307   */\n                  0x4e487b71\n                    /* \"#utility.yul\":3292:3295   */\n                  0xe0\n                    /* \"#utility.yul\":3288:3308   */\n                  shl\n                    /* \"#utility.yul\":3285:3286   */\n                  0x00\n                    /* \"#utility.yul\":3278:3309   */\n                  mstore\n                    /* \"#utility.yul\":3328:3332   */\n                  0x41\n                    /* \"#utility.yul\":3325:3326   */\n                  0x04\n                    /* \"#utility.yul\":3318:3333   */\n                  mstore\n                    /* \"#utility.yul\":3352:3356   */\n                  0x24\n                    /* \"#utility.yul\":3349:3350   */\n                  0x00\n                    /* \"#utility.yul\":3342:3357   */\n                  revert\n                    /* \"#utility.yul\":3368:3999   */\n                tag_400:\n                    /* \"#utility.yul\":3432:3437   */\n                  0x00\n                  sub(shl(0x40, 0x01), 0x01)\n                    /* \"#utility.yul\":3492:3506   */\n                  dup1\n                  dup5\n                  gt\n                    /* \"#utility.yul\":3489:3529   */\n                  iszero\n                  tag_443\n                  jumpi\n                    /* \"#utility.yul\":3509:3527   */\n                  tag_443\n                  tag_347\n                  jump\t// in\n                tag_443:\n                    /* \"#utility.yul\":3584:3586   */\n                  0x40\n                    /* \"#utility.yul\":3578:3587   */\n                  mload\n                    /* \"#utility.yul\":3552:3554   */\n                  0x1f\n                    /* \"#utility.yul\":3638:3653   */\n                  dup6\n                  add\n                  not(0x1f)\n                    /* \"#utility.yul\":3634:3658   */\n                  swap1\n                  dup2\n                  and\n                    /* \"#utility.yul\":3660:3662   */\n                  0x3f\n                    /* \"#utility.yul\":3630:3663   */\n                  add\n                    /* \"#utility.yul\":3626:3668   */\n                  and\n                    /* \"#utility.yul\":3614:3669   */\n                  dup2\n                  add\n                  swap1\n                    /* \"#utility.yul\":3684:3702   */\n                  dup3\n                  dup3\n                  gt\n                    /* \"#utility.yul\":3704:3726   */\n                  dup2\n                  dup4\n                  lt\n                    /* \"#utility.yul\":3681:3727   */\n                  or\n                    /* \"#utility.yul\":3678:3750   */\n                  iszero\n                  tag_445\n                  jumpi\n                    /* \"#utility.yul\":3730:3748   */\n                  tag_445\n                  tag_347\n                  jump\t// in\n                tag_445:\n                    /* \"#utility.yul\":3770:3780   */\n                  dup2\n                    /* \"#utility.yul\":3766:3768   */\n                  0x40\n                    /* \"#utility.yul\":3759:3781   */\n                  mstore\n                    /* \"#utility.yul\":3799:3805   */\n                  dup1\n                    /* \"#utility.yul\":3790:3805   */\n                  swap4\n                  pop\n                    /* \"#utility.yul\":3829:3835   */\n                  dup6\n                    /* \"#utility.yul\":3821:3827   */\n                  dup2\n                    /* \"#utility.yul\":3814:3836   */\n                  mstore\n                    /* \"#utility.yul\":3869:3872   */\n                  dup7\n                    /* \"#utility.yul\":3860:3866   */\n                  dup7\n                    /* \"#utility.yul\":3855:3858   */\n                  dup7\n                    /* \"#utility.yul\":3851:3867   */\n                  add\n                    /* \"#utility.yul\":3848:3873   */\n                  gt\n                    /* \"#utility.yul\":3845:3890   */\n                  iszero\n                  tag_446\n                  jumpi\n                    /* \"#utility.yul\":3886:3887   */\n                  0x00\n                    /* \"#utility.yul\":3883:3884   */\n                  dup1\n                    /* \"#utility.yul\":3876:3888   */\n                  revert\n                    /* \"#utility.yul\":3845:3890   */\n                tag_446:\n                    /* \"#utility.yul\":3936:3942   */\n                  dup6\n                    /* \"#utility.yul\":3931:3934   */\n                  dup6\n                    /* \"#utility.yul\":3924:3928   */\n                  0x20\n                    /* \"#utility.yul\":3916:3922   */\n                  dup4\n                    /* \"#utility.yul\":3912:3929   */\n                  add\n                    /* \"#utility.yul\":3899:3943   */\n                  calldatacopy\n                    /* \"#utility.yul\":3991:3992   */\n                  0x00\n                    /* \"#utility.yul\":3984:3988   */\n                  0x20\n                    /* \"#utility.yul\":3975:3981   */\n                  dup8\n                    /* \"#utility.yul\":3967:3973   */\n                  dup4\n                    /* \"#utility.yul\":3963:3982   */\n                  add\n                    /* \"#utility.yul\":3959:3989   */\n                  add\n                    /* \"#utility.yul\":3952:3993   */\n                  mstore\n                  pop\n                  pop\n                  pop\n                    /* \"#utility.yul\":3368:3999   */\n                  swap4\n                  swap3\n                  pop\n                  pop\n                  pop\n                  jump\t// out\n                    /* \"#utility.yul\":4004:4670   */\n                tag_85:\n                    /* \"#utility.yul\":4099:4105   */\n                  0x00\n                    /* \"#utility.yul\":4107:4113   */\n                  dup1\n                    /* \"#utility.yul\":4115:4121   */\n                  0x00\n                    /* \"#utility.yul\":4123:4129   */\n                  dup1\n                    /* \"#utility.yul\":4176:4179   */\n                  0x80\n                    /* \"#utility.yul\":4164:4173   */\n                  dup6\n                    /* \"#utility.yul\":4155:4162   */\n                  dup8\n                    /* \"#utility.yul\":4151:4174   */\n                  sub\n                    /* \"#utility.yul\":4147:4180   */\n                  slt\n                    /* \"#utility.yul\":4144:4197   */\n                  iszero\n                  tag_448\n                  jumpi\n                    /* \"#utility.yul\":4193:4194   */\n                  0x00\n                    /* \"#utility.yul\":4190:4191   */\n                  dup1\n                    /* \"#utility.yul\":4183:4195   */\n                  revert\n                    /* \"#utility.yul\":4144:4197   */\n                tag_448:\n                    /* \"#utility.yul\":4216:4245   */\n                  tag_449\n                    /* \"#utility.yul\":4235:4244   */\n                  dup6\n                    /* \"#utility.yul\":4216:4245   */\n                  tag_399\n                  jump\t// in\n                tag_449:\n                    /* \"#utility.yul\":4206:4245   */\n                  swap4\n                  pop\n                    /* \"#utility.yul\":4264:4302   */\n                  tag_450\n                    /* \"#utility.yul\":4298:4300   */\n                  0x20\n                    /* \"#utility.yul\":4287:4296   */\n                  dup7\n                    /* \"#utility.yul\":4283:4301   */\n                  add\n                    /* \"#utility.yul\":4264:4302   */\n                  tag_399\n                  jump\t// in\n                tag_450:\n                    /* \"#utility.yul\":4254:4302   */\n                  swap3\n                  pop\n                    /* \"#utility.yul\":4349:4351   */\n                  0x40\n                    /* \"#utility.yul\":4334:4352   */\n                  dup6\n                  add\n                    /* \"#utility.yul\":4321:4353   */\n                  calldataload\n                  swap2\n                  pop\n                    /* \"#utility.yul\":4404:4406   */\n                  0x60\n                    /* \"#utility.yul\":4389:4407   */\n                  dup6\n                  add\n                    /* \"#utility.yul\":4376:4408   */\n                  calldataload\n                  sub(shl(0x40, 0x01), 0x01)\n                    /* \"#utility.yul\":4420:4450   */\n                  dup2\n                  gt\n                    /* \"#utility.yul\":4417:4467   */\n                  iszero\n                  tag_451\n                  jumpi\n                    /* \"#utility.yul\":4463:4464   */\n                  0x00\n                    /* \"#utility.yul\":4460:4461   */\n                  dup1\n                    /* \"#utility.yul\":4453:4465   */\n                  revert\n                    /* \"#utility.yul\":4417:4467   */\n                tag_451:\n                    /* \"#utility.yul\":4486:4508   */\n                  dup6\n                  add\n                    /* \"#utility.yul\":4539:4543   */\n                  0x1f\n                    /* \"#utility.yul\":4531:4544   */\n                  dup2\n                  add\n                    /* \"#utility.yul\":4527:4554   */\n                  dup8\n                  sgt\n                    /* \"#utility.yul\":4517:4572   */\n                  tag_452\n                  jumpi\n                    /* \"#utility.yul\":4568:4569   */\n                  0x00\n                    /* \"#utility.yul\":4565:4566   */\n                  dup1\n                    /* \"#utility.yul\":4558:4570   */\n                  revert\n                    /* \"#utility.yul\":4517:4572   */\n                tag_452:\n                    /* \"#utility.yul\":4591:4664   */\n                  tag_453\n                    /* \"#utility.yul\":4656:4663   */\n                  dup8\n                    /* \"#utility.yul\":4651:4653   */\n                  dup3\n                    /* \"#utility.yul\":4638:4654   */\n                  calldataload\n                    /* \"#utility.yul\":4633:4635   */\n                  0x20\n                    /* \"#utility.yul\":4629:4631   */\n                  dup5\n                    /* \"#utility.yul\":4625:4636   */\n                  add\n                    /* \"#utility.yul\":4591:4664   */\n                  tag_400\n                  jump\t// in\n                tag_453:\n                    /* \"#utility.yul\":4581:4664   */\n                  swap2\n                  pop\n                  pop\n                    /* \"#utility.yul\":4004:4670   */\n                  swap3\n                  swap6\n                  swap2\n                  swap5\n                  pop\n                  swap3\n                  pop\n                  jump\t// out\n                    /* \"#utility.yul\":4675:5199   */\n                tag_93:\n                    /* \"#utility.yul\":4753:4759   */\n                  0x00\n                    /* \"#utility.yul\":4761:4767   */\n                  dup1\n                    /* \"#utility.yul\":4814:4816   */\n                  0x40\n                    /* \"#utility.yul\":4802:4811   */\n                  dup4\n                    /* \"#utility.yul\":4793:4800   */\n                  dup6\n                    /* \"#utility.yul\":4789:4812   */\n                  sub\n                    /* \"#utility.yul\":4785:4817   */\n                  slt\n                    /* \"#utility.yul\":4782:4834   */\n                  iszero\n                  tag_455\n                  jumpi\n                    /* \"#utility.yul\":4830:4831   */\n                  0x00\n                    /* \"#utility.yul\":4827:4828   */\n                  dup1\n                    /* \"#utility.yul\":4820:4832   */\n                  revert\n                    /* \"#utility.yul\":4782:4834   */\n                tag_455:\n                    /* \"#utility.yul\":4853:4882   */\n                  tag_456\n                    /* \"#utility.yul\":4872:4881   */\n                  dup4\n                    /* \"#utility.yul\":4853:4882   */\n                  tag_399\n                  jump\t// in\n                tag_456:\n                    /* \"#utility.yul\":4843:4882   */\n                  swap2\n                  pop\n                    /* \"#utility.yul\":4933:4935   */\n                  0x20\n                    /* \"#utility.yul\":4918:4936   */\n                  dup4\n                  add\n                    /* \"#utility.yul\":4905:4937   */\n                  calldataload\n                  sub(shl(0x40, 0x01), 0x01)\n                    /* \"#utility.yul\":4949:4979   */\n                  dup2\n                  gt\n                    /* \"#utility.yul\":4946:4996   */\n                  iszero\n                  tag_457\n                  jumpi\n                    /* \"#utility.yul\":4992:4993   */\n                  0x00\n                    /* \"#utility.yul\":4989:4990   */\n                  dup1\n                    /* \"#utility.yul\":4982:4994   */\n                  revert\n                    /* \"#utility.yul\":4946:4996   */\n                tag_457:\n                    /* \"#utility.yul\":5015:5037   */\n                  dup4\n                  add\n                    /* \"#utility.yul\":5068:5072   */\n                  0x1f\n                    /* \"#utility.yul\":5060:5073   */\n                  dup2\n                  add\n                    /* \"#utility.yul\":5056:5083   */\n                  dup6\n                  sgt\n                    /* \"#utility.yul\":5046:5101   */\n                  tag_458\n                  jumpi\n                    /* \"#utility.yul\":5097:5098   */\n                  0x00\n                    /* \"#utility.yul\":5094:5095   */\n                  dup1\n                    /* \"#utility.yul\":5087:5099   */\n                  revert\n                    /* \"#utility.yul\":5046:5101   */\n                tag_458:\n                    /* \"#utility.yul\":5120:5193   */\n                  tag_459\n                    /* \"#utility.yul\":5185:5192   */\n                  dup6\n                    /* \"#utility.yul\":5180:5182   */\n                  dup3\n                    /* \"#utility.yul\":5167:5183   */\n                  calldataload\n                    /* \"#utility.yul\":5162:5164   */\n                  0x20\n                    /* \"#utility.yul\":5158:5160   */\n                  dup5\n                    /* \"#utility.yul\":5154:5165   */\n                  add\n                    /* \"#utility.yul\":5120:5193   */\n                  tag_400\n                  jump\t// in\n                tag_459:\n                    /* \"#utility.yul\":5110:5193   */\n                  swap2\n                  pop\n                  pop\n                    /* \"#utility.yul\":4675:5199   */\n                  swap3\n                  pop\n                  swap3\n                  swap1\n                  pop\n                  jump\t// out\n                    /* \"#utility.yul\":5204:5464   */\n                tag_97:\n                    /* \"#utility.yul\":5272:5278   */\n                  0x00\n                    /* \"#utility.yul\":5280:5286   */\n                  dup1\n                    /* \"#utility.yul\":5333:5335   */\n                  0x40\n                    /* \"#utility.yul\":5321:5330   */\n                  dup4\n                    /* \"#utility.yul\":5312:5319   */\n                  dup6\n                    /* \"#utility.yul\":5308:5331   */\n                  sub\n                    /* \"#utility.yul\":5304:5336   */\n                  slt\n                    /* \"#utility.yul\":5301:5353   */\n                  iszero\n                  tag_461\n                  jumpi\n                    /* \"#utility.yul\":5349:5350   */\n                  0x00\n                    /* \"#utility.yul\":5346:5347   */\n                  dup1\n                    /* \"#utility.yul\":5339:5351   */\n                  revert\n                    /* \"#utility.yul\":5301:5353   */\n                tag_461:\n                    /* \"#utility.yul\":5372:5401   */\n                  tag_462\n                    /* \"#utility.yul\":5391:5400   */\n                  dup4\n                    /* \"#utility.yul\":5372:5401   */\n                  tag_399\n                  jump\t// in\n                tag_462:\n                    /* \"#utility.yul\":5362:5401   */\n                  swap2\n                  pop\n                    /* \"#utility.yul\":5420:5458   */\n                  tag_463\n                    /* \"#utility.yul\":5454:5456   */\n                  0x20\n                    /* \"#utility.yul\":5443:5452   */\n                  dup5\n                    /* \"#utility.yul\":5439:5457   */\n                  add\n                    /* \"#utility.yul\":5420:5458   */\n                  tag_399\n                  jump\t// in\n                tag_463:\n                    /* \"#utility.yul\":5410:5458   */\n                  swap1\n                  pop\n                    /* \"#utility.yul\":5204:5464   */\n                  swap3\n                  pop\n                  swap3\n                  swap1\n                  pop\n                  jump\t// out\n                    /* \"#utility.yul\":5469:5849   */\n                tag_108:\n                    /* \"#utility.yul\":5548:5549   */\n                  0x01\n                    /* \"#utility.yul\":5544:5556   */\n                  dup2\n                  dup2\n                  shr\n                  swap1\n                    /* \"#utility.yul\":5591:5603   */\n                  dup3\n                  and\n                  dup1\n                    /* \"#utility.yul\":5612:5673   */\n                  tag_465\n                  jumpi\n                    /* \"#utility.yul\":5666:5670   */\n                  0x7f\n                    /* \"#utility.yul\":5658:5664   */\n                  dup3\n                    /* \"#utility.yul\":5654:5671   */\n                  and\n                    /* \"#utility.yul\":5644:5671   */\n                  swap2\n                  pop\n                    /* \"#utility.yul\":5612:5673   */\n                tag_465:\n                    /* \"#utility.yul\":5719:5721   */\n                  0x20\n                    /* \"#utility.yul\":5711:5717   */\n                  dup3\n                    /* \"#utility.yul\":5708:5722   */\n                  lt\n                    /* \"#utility.yul\":5688:5706   */\n                  dup2\n                    /* \"#utility.yul\":5685:5723   */\n                  sub\n                    /* \"#utility.yul\":5682:5843   */\n                  tag_466\n                  jumpi\n                    /* \"#utility.yul\":5765:5775   */\n                  0x4e487b71\n                    /* \"#utility.yul\":5760:5763   */\n                  0xe0\n                    /* \"#utility.yul\":5756:5776   */\n                  shl\n                    /* \"#utility.yul\":5753:5754   */\n                  0x00\n                    /* \"#utility.yul\":5746:5777   */\n                  mstore\n                    /* \"#utility.yul\":5800:5804   */\n                  0x22\n                    /* \"#utility.yul\":5797:5798   */\n                  0x04\n                    /* \"#utility.yul\":5790:5805   */\n                  mstore\n                    /* \"#utility.yul\":5828:5832   */\n                  0x24\n                    /* \"#utility.yul\":5825:5826   */\n                  0x00\n                    /* \"#utility.yul\":5818:5833   */\n                  revert\n                    /* \"#utility.yul\":5682:5843   */\n                tag_466:\n                  pop\n                    /* \"#utility.yul\":5469:5849   */\n                  swap2\n                  swap1\n                  pop\n                  jump\t// out\n                    /* \"#utility.yul\":6234:6508   */\n                tag_137:\n                  sub(shl(0xa0, 0x01), 0x01)\n                    /* \"#utility.yul\":6426:6458   */\n                  swap3\n                  swap1\n                  swap3\n                  and\n                    /* \"#utility.yul\":6408:6459   */\n                  dup3\n                  mstore\n                    /* \"#utility.yul\":6490:6492   */\n                  0x20\n                    /* \"#utility.yul\":6475:6493   */\n                  dup3\n                  add\n                    /* \"#utility.yul\":6468:6502   */\n                  mstore\n                    /* \"#utility.yul\":6396:6398   */\n                  0x40\n                    /* \"#utility.yul\":6381:6399   */\n                  add\n                  swap1\n                    /* \"#utility.yul\":6234:6508   */\n                  jump\t// out\n                    /* \"#utility.yul\":6513:6640   */\n                tag_146:\n                    /* \"#utility.yul\":6574:6584   */\n                  0x4e487b71\n                    /* \"#utility.yul\":6569:6572   */\n                  0xe0\n                    /* \"#utility.yul\":6565:6585   */\n                  shl\n                    /* \"#utility.yul\":6562:6563   */\n                  0x00\n                    /* \"#utility.yul\":6555:6586   */\n                  mstore\n                    /* \"#utility.yul\":6605:6609   */\n                  0x32\n                    /* \"#utility.yul\":6602:6603   */\n                  0x04\n                    /* \"#utility.yul\":6595:6610   */\n                  mstore\n                    /* \"#utility.yul\":6629:6633   */\n                  0x24\n                    /* \"#utility.yul\":6626:6627   */\n                  0x00\n                    /* \"#utility.yul\":6619:6634   */\n                  revert\n                    /* \"#utility.yul\":6645:6772   */\n                tag_401:\n                    /* \"#utility.yul\":6706:6716   */\n                  0x4e487b71\n                    /* \"#utility.yul\":6701:6704   */\n                  0xe0\n                    /* \"#utility.yul\":6697:6717   */\n                  shl\n                    /* \"#utility.yul\":6694:6695   */\n                  0x00\n                    /* \"#utility.yul\":6687:6718   */\n                  mstore\n                    /* \"#utility.yul\":6737:6741   */\n                  0x11\n                    /* \"#utility.yul\":6734:6735   */\n                  0x04\n                    /* \"#utility.yul\":6727:6742   */\n                  mstore\n                    /* \"#utility.yul\":6761:6765   */\n                  0x24\n                    /* \"#utility.yul\":6758:6759   */\n                  0x00\n                    /* \"#utility.yul\":6751:6766   */\n                  revert\n                    /* \"#utility.yul\":6777:6912   */\n                tag_181:\n                    /* \"#utility.yul\":6816:6819   */\n                  0x00\n                    /* \"#utility.yul\":6837:6854   */\n                  0x01\n                  dup3\n                  add\n                    /* \"#utility.yul\":6834:6877   */\n                  tag_473\n                  jumpi\n                    /* \"#utility.yul\":6857:6875   */\n                  tag_473\n                  tag_401\n                  jump\t// in\n                tag_473:\n                  pop\n                    /* \"#utility.yul\":6904:6905   */\n                  0x01\n                    /* \"#utility.yul\":6893:6906   */\n                  add\n                  swap1\n                    /* \"#utility.yul\":6777:6912   */\n                  jump\t// out\n                    /* \"#utility.yul\":6917:7406   */\n                tag_225:\n                  sub(shl(0xa0, 0x01), 0x01)\n                    /* \"#utility.yul\":7186:7201   */\n                  dup6\n                  dup2\n                  and\n                    /* \"#utility.yul\":7168:7202   */\n                  dup3\n                  mstore\n                    /* \"#utility.yul\":7238:7253   */\n                  dup5\n                  and\n                    /* \"#utility.yul\":7233:7235   */\n                  0x20\n                    /* \"#utility.yul\":7218:7236   */\n                  dup3\n                  add\n                    /* \"#utility.yul\":7211:7254   */\n                  mstore\n                    /* \"#utility.yul\":7285:7287   */\n                  0x40\n                    /* \"#utility.yul\":7270:7288   */\n                  dup2\n                  add\n                    /* \"#utility.yul\":7263:7297   */\n                  dup4\n                  swap1\n                  mstore\n                    /* \"#utility.yul\":7333:7336   */\n                  0x80\n                    /* \"#utility.yul\":7328:7330   */\n                  0x60\n                    /* \"#utility.yul\":7313:7331   */\n                  dup3\n                  add\n                    /* \"#utility.yul\":7306:7337   */\n                  dup2\n                  swap1\n                  mstore\n                    /* \"#utility.yul\":7111:7115   */\n                  0x00\n                  swap1\n                    /* \"#utility.yul\":7354:7400   */\n                  tag_475\n                  swap1\n                    /* \"#utility.yul\":7380:7399   */\n                  dup4\n                  add\n                    /* \"#utility.yul\":7372:7378   */\n                  dup5\n                    /* \"#utility.yul\":7354:7400   */\n                  tag_398\n                  jump\t// in\n                tag_475:\n                    /* \"#utility.yul\":7346:7400   */\n                  swap7\n                    /* \"#utility.yul\":6917:7406   */\n                  swap6\n                  pop\n                  pop\n                  pop\n                  pop\n                  pop\n                  pop\n                  jump\t// out\n                    /* \"#utility.yul\":7411:7660   */\n                tag_228:\n                    /* \"#utility.yul\":7480:7486   */\n                  0x00\n                    /* \"#utility.yul\":7533:7535   */\n                  0x20\n                    /* \"#utility.yul\":7521:7530   */\n                  dup3\n                    /* \"#utility.yul\":7512:7519   */\n                  dup5\n                    /* \"#utility.yul\":7508:7531   */\n                  sub\n                    /* \"#utility.yul\":7504:7536   */\n                  slt\n                    /* \"#utility.yul\":7501:7553   */\n                  iszero\n                  tag_477\n                  jumpi\n                    /* \"#utility.yul\":7549:7550   */\n                  0x00\n                    /* \"#utility.yul\":7546:7547   */\n                  dup1\n                    /* \"#utility.yul\":7539:7551   */\n                  revert\n                    /* \"#utility.yul\":7501:7553   */\n                tag_477:\n                    /* \"#utility.yul\":7581:7590   */\n                  dup2\n                    /* \"#utility.yul\":7575:7591   */\n                  mload\n                    /* \"#utility.yul\":7600:7630   */\n                  tag_300\n                    /* \"#utility.yul\":7624:7629   */\n                  dup2\n                    /* \"#utility.yul\":7600:7630   */\n                  tag_396\n                  jump\t// in\n                    /* \"#utility.yul\":7665:8161   */\n                tag_253:\n                    /* \"#utility.yul\":7844:7847   */\n                  0x00\n                    /* \"#utility.yul\":7882:7888   */\n                  dup4\n                    /* \"#utility.yul\":7876:7889   */\n                  mload\n                    /* \"#utility.yul\":7898:7964   */\n                  tag_480\n                    /* \"#utility.yul\":7957:7963   */\n                  dup2\n                    /* \"#utility.yul\":7952:7955   */\n                  dup5\n                    /* \"#utility.yul\":7945:7949   */\n                  0x20\n                    /* \"#utility.yul\":7937:7943   */\n                  dup9\n                    /* \"#utility.yul\":7933:7950   */\n                  add\n                    /* \"#utility.yul\":7898:7964   */\n                  tag_397\n                  jump\t// in\n                tag_480:\n                    /* \"#utility.yul\":8027:8040   */\n                  dup4\n                  mload\n                    /* \"#utility.yul\":7986:8002   */\n                  swap1\n                  dup4\n                  add\n                  swap1\n                    /* \"#utility.yul\":8049:8119   */\n                  tag_481\n                    /* \"#utility.yul\":8027:8040   */\n                  dup2\n                    /* \"#utility.yul\":7986:8002   */\n                  dup4\n                    /* \"#utility.yul\":8096:8100   */\n                  0x20\n                    /* \"#utility.yul\":8084:8101   */\n                  dup9\n                  add\n                    /* \"#utility.yul\":8049:8119   */\n                  tag_397\n                  jump\t// in\n                tag_481:\n                    /* \"#utility.yul\":8135:8155   */\n                  add\n                  swap5\n                    /* \"#utility.yul\":7665:8161   */\n                  swap4\n                  pop\n                  pop\n                  pop\n                  pop\n                  jump\t// out\n                    /* \"#utility.yul\":8292:8810   */\n                tag_403:\n                    /* \"#utility.yul\":8394:8396   */\n                  0x1f\n                    /* \"#utility.yul\":8389:8392   */\n                  dup3\n                    /* \"#utility.yul\":8386:8397   */\n                  gt\n                    /* \"#utility.yul\":8383:8804   */\n                  iszero\n                  tag_139\n                  jumpi\n                    /* \"#utility.yul\":8430:8435   */\n                  dup1\n                    /* \"#utility.yul\":8427:8428   */\n                  0x00\n                    /* \"#utility.yul\":8420:8436   */\n                  mstore\n                    /* \"#utility.yul\":8474:8478   */\n                  0x20\n                    /* \"#utility.yul\":8471:8472   */\n                  0x00\n                    /* \"#utility.yul\":8461:8479   */\n                  keccak256\n                    /* \"#utility.yul\":8544:8546   */\n                  0x1f\n                    /* \"#utility.yul\":8532:8542   */\n                  dup5\n                    /* \"#utility.yul\":8528:8547   */\n                  add\n                    /* \"#utility.yul\":8525:8526   */\n                  0x05\n                    /* \"#utility.yul\":8521:8548   */\n                  shr\n                    /* \"#utility.yul\":8515:8519   */\n                  dup2\n                    /* \"#utility.yul\":8511:8549   */\n                  add\n                    /* \"#utility.yul\":8580:8584   */\n                  0x20\n                    /* \"#utility.yul\":8568:8578   */\n                  dup6\n                    /* \"#utility.yul\":8565:8585   */\n                  lt\n                    /* \"#utility.yul\":8562:8609   */\n                  iszero\n                  tag_485\n                  jumpi\n                  pop\n                    /* \"#utility.yul\":8603:8607   */\n                  dup1\n                    /* \"#utility.yul\":8562:8609   */\n                tag_485:\n                    /* \"#utility.yul\":8658:8660   */\n                  0x1f\n                    /* \"#utility.yul\":8653:8656   */\n                  dup5\n                    /* \"#utility.yul\":8649:8661   */\n                  add\n                    /* \"#utility.yul\":8646:8647   */\n                  0x05\n                    /* \"#utility.yul\":8642:8662   */\n                  shr\n                    /* \"#utility.yul\":8636:8640   */\n                  dup3\n                    /* \"#utility.yul\":8632:8663   */\n                  add\n                    /* \"#utility.yul\":8622:8663   */\n                  swap2\n                  pop\n                    /* \"#utility.yul\":8713:8794   */\n                tag_486:\n                    /* \"#utility.yul\":8731:8733   */\n                  dup2\n                    /* \"#utility.yul\":8724:8729   */\n                  dup2\n                    /* \"#utility.yul\":8721:8734   */\n                  lt\n                    /* \"#utility.yul\":8713:8794   */\n                  iszero\n                  tag_239\n                  jumpi\n                    /* \"#utility.yul\":8790:8791   */\n                  0x00\n                    /* \"#utility.yul\":8776:8792   */\n                  dup2\n                  sstore\n                    /* \"#utility.yul\":8757:8758   */\n                  0x01\n                    /* \"#utility.yul\":8746:8759   */\n                  add\n                    /* \"#utility.yul\":8713:8794   */\n                  jump(tag_486)\n                    /* \"#utility.yul\":8986:10331   */\n                tag_261:\n                    /* \"#utility.yul\":9106:9116   */\n                  dup2\n                  mload\n                  sub(shl(0x40, 0x01), 0x01)\n                    /* \"#utility.yul\":9128:9158   */\n                  dup2\n                  gt\n                    /* \"#utility.yul\":9125:9181   */\n                  iszero\n                  tag_492\n                  jumpi\n                    /* \"#utility.yul\":9161:9179   */\n                  tag_492\n                  tag_347\n                  jump\t// in\n                tag_492:\n                    /* \"#utility.yul\":9190:9287   */\n                  tag_493\n                    /* \"#utility.yul\":9280:9286   */\n                  dup2\n                    /* \"#utility.yul\":9240:9278   */\n                  tag_494\n                    /* \"#utility.yul\":9272:9276   */\n                  dup5\n                    /* \"#utility.yul\":9266:9277   */\n                  sload\n                    /* \"#utility.yul\":9240:9278   */\n                  tag_108\n                  jump\t// in\n                tag_494:\n                    /* \"#utility.yul\":9234:9238   */\n                  dup5\n                    /* \"#utility.yul\":9190:9287   */\n                  tag_403\n                  jump\t// in\n                tag_493:\n                    /* \"#utility.yul\":9342:9346   */\n                  0x20\n                  dup1\n                    /* \"#utility.yul\":9399:9401   */\n                  0x1f\n                    /* \"#utility.yul\":9388:9402   */\n                  dup4\n                  gt\n                    /* \"#utility.yul\":9416:9417   */\n                  0x01\n                    /* \"#utility.yul\":9411:10074   */\n                  dup2\n                  eq\n                  tag_496\n                  jumpi\n                    /* \"#utility.yul\":10118:10119   */\n                  0x00\n                    /* \"#utility.yul\":10135:10141   */\n                  dup5\n                    /* \"#utility.yul\":10132:10221   */\n                  iszero\n                  tag_497\n                  jumpi\n                  pop\n                    /* \"#utility.yul\":10187:10206   */\n                  dup6\n                  dup4\n                  add\n                    /* \"#utility.yul\":10181:10207   */\n                  mload\n                    /* \"#utility.yul\":10132:10221   */\n                tag_497:\n                  not(0x00)\n                    /* \"#utility.yul\":8943:8944   */\n                  0x03\n                    /* \"#utility.yul\":8939:8950   */\n                  dup7\n                  swap1\n                  shl\n                    /* \"#utility.yul\":8935:8959   */\n                  shr\n                    /* \"#utility.yul\":8931:8960   */\n                  not\n                    /* \"#utility.yul\":8921:8961   */\n                  and\n                    /* \"#utility.yul\":8967:8968   */\n                  0x01\n                    /* \"#utility.yul\":8963:8974   */\n                  dup6\n                  swap1\n                  shl\n                    /* \"#utility.yul\":8918:8975   */\n                  or\n                    /* \"#utility.yul\":10234:10315   */\n                  dup6\n                  sstore\n                    /* \"#utility.yul\":9381:10325   */\n                  jump(tag_495)\n                    /* \"#utility.yul\":9411:10074   */\n                tag_496:\n                    /* \"#utility.yul\":8239:8240   */\n                  0x00\n                    /* \"#utility.yul\":8232:8246   */\n                  dup6\n                  dup2\n                  mstore\n                    /* \"#utility.yul\":8276:8280   */\n                  0x20\n                    /* \"#utility.yul\":8263:8281   */\n                  dup2\n                  keccak256\n                  not(0x1f)\n                    /* \"#utility.yul\":9447:9467   */\n                  dup7\n                  and\n                  swap2\n                    /* \"#utility.yul\":9565:9801   */\n                tag_500:\n                    /* \"#utility.yul\":9579:9586   */\n                  dup3\n                    /* \"#utility.yul\":9576:9577   */\n                  dup2\n                    /* \"#utility.yul\":9573:9587   */\n                  lt\n                    /* \"#utility.yul\":9565:9801   */\n                  iszero\n                  tag_502\n                  jumpi\n                    /* \"#utility.yul\":9668:9687   */\n                  dup9\n                  dup7\n                  add\n                    /* \"#utility.yul\":9662:9688   */\n                  mload\n                    /* \"#utility.yul\":9647:9689   */\n                  dup3\n                  sstore\n                    /* \"#utility.yul\":9760:9787   */\n                  swap5\n                  dup5\n                  add\n                  swap5\n                    /* \"#utility.yul\":9728:9729   */\n                  0x01\n                    /* \"#utility.yul\":9716:9730   */\n                  swap1\n                  swap2\n                  add\n                  swap1\n                    /* \"#utility.yul\":9595:9614   */\n                  dup5\n                  add\n                    /* \"#utility.yul\":9565:9801   */\n                  jump(tag_500)\n                tag_502:\n                    /* \"#utility.yul\":9569:9572   */\n                  pop\n                    /* \"#utility.yul\":9829:9835   */\n                  dup6\n                    /* \"#utility.yul\":9820:9827   */\n                  dup3\n                    /* \"#utility.yul\":9817:9836   */\n                  lt\n                    /* \"#utility.yul\":9814:10015   */\n                  iszero\n                  tag_503\n                  jumpi\n                    /* \"#utility.yul\":9890:9909   */\n                  dup8\n                  dup6\n                  add\n                    /* \"#utility.yul\":9884:9910   */\n                  mload\n                  not(0x00)\n                    /* \"#utility.yul\":9973:9974   */\n                  0x03\n                    /* \"#utility.yul\":9969:9983   */\n                  dup9\n                  swap1\n                  shl\n                    /* \"#utility.yul\":9985:9988   */\n                  0xf8\n                    /* \"#utility.yul\":9965:9989   */\n                  and\n                    /* \"#utility.yul\":9961:9998   */\n                  shr\n                    /* \"#utility.yul\":9957:9999   */\n                  not\n                    /* \"#utility.yul\":9942:10000   */\n                  and\n                    /* \"#utility.yul\":9927:10001   */\n                  dup2\n                  sstore\n                    /* \"#utility.yul\":9814:10015   */\n                tag_503:\n                  pop\n                  pop\n                    /* \"#utility.yul\":10061:10062   */\n                  0x01\n                    /* \"#utility.yul\":10052:10058   */\n                  dup5\n                    /* \"#utility.yul\":10049:10050   */\n                  0x01\n                    /* \"#utility.yul\":10045:10059   */\n                  shl\n                    /* \"#utility.yul\":10041:10063   */\n                  add\n                    /* \"#utility.yul\":10035:10039   */\n                  dup6\n                    /* \"#utility.yul\":10028:10064   */\n                  sstore\n                    /* \"#utility.yul\":9381:10325   */\n                tag_495:\n                  pop\n                  pop\n                  pop\n                  pop\n                    /* \"#utility.yul\":8986:10331   */\n                  pop\n                  pop\n                  jump\t// out\n                    /* \"#utility.yul\":10336:10464   */\n                tag_328:\n                    /* \"#utility.yul\":10403:10412   */\n                  dup2\n                  dup2\n                  sub\n                    /* \"#utility.yul\":10424:10435   */\n                  dup2\n                  dup2\n                  gt\n                    /* \"#utility.yul\":10421:10458   */\n                  iszero\n                  tag_104\n                  jumpi\n                    /* \"#utility.yul\":10438:10456   */\n                  tag_104\n                  tag_401\n                  jump\t// in\n                    /* \"#utility.yul\":10469:10596   */\n                tag_337:\n                    /* \"#utility.yul\":10530:10540   */\n                  0x4e487b71\n                    /* \"#utility.yul\":10525:10528   */\n                  0xe0\n                    /* \"#utility.yul\":10521:10541   */\n                  shl\n                    /* \"#utility.yul\":10518:10519   */\n                  0x00\n                    /* \"#utility.yul\":10511:10542   */\n                  mstore\n                    /* \"#utility.yul\":10561:10565   */\n                  0x31\n                    /* \"#utility.yul\":10558:10559   */\n                  0x04\n                    /* \"#utility.yul\":10551:10566   */\n                  mstore\n                    /* \"#utility.yul\":10585:10589   */\n                  0x24\n                    /* \"#utility.yul\":10582:10583   */\n                  0x00\n                    /* \"#utility.yul\":10575:10590   */\n                  revert\n\n                auxdata: 0xa264697066735822122075303e5ded82325f9cd7912530dd6e894b683456724c4104bc7ba078de7e154264736f6c63430008170033\n            }\n        }\n    }\n\n    auxdata: 0xa2646970667358221220a585e05cce87fe5df234ee33a5a38fe9c6ac7873d5826fc257ddcf10996240d964736f6c63430008170033\n}\n","bytecode":{"linkReferences":{},"object":"608060405234801561000f575f80fd5b50613b838061001d5f395ff3fe608060405234801562000010575f80fd5b506004361062000044575f3560e01c80637ac3886e14620000485780639ec6deaf146200006a578063c73d7024146200009a575b5f80fd5b62000052620000b3565b604051620000619190620001f5565b60405180910390f35b620000816200007b36600462000243565b62000114565b6040516001600160a01b03909116815260200162000061565b620000b1620000ab366004620002ff565b6200013c565b005b60605f8054806020026020016040519081016040528092919081815260200182805480156200010a57602002820191905f5260205f20905b81546001600160a01b03168152600190910190602001808311620000eb575b5050505050905090565b5f818154811062000123575f80fd5b5f918252602090912001546001600160a01b0316905081565b5f80546200014c906001620003c4565b33898989898989896040516200016290620001e7565b62000176999897969594939291906200042f565b604051809103905ff08015801562000190573d5f803e3d5ffd5b505f80546001810182559080527f290decd9548b62a8d60345a988386fc84ba6bc95484008f6362f93160ef3e5630180546001600160a01b0319166001600160a01b03929092169190911790555050505050505050565b61369b80620004b383390190565b602080825282518282018190525f9190848201906040850190845b81811015620002375783516001600160a01b03168352928401929184019160010162000210565b50909695505050505050565b5f6020828403121562000254575f80fd5b5035919050565b634e487b7160e01b5f52604160045260245ffd5b5f82601f8301126200027f575f80fd5b81356001600160401b03808211156200029c576200029c6200025b565b604051601f8301601f19908116603f01168101908282118183101715620002c757620002c76200025b565b81604052838152866020858801011115620002e0575f80fd5b836020870160208301375f602085830101528094505050505092915050565b5f805f805f805f60e0888a03121562000316575f80fd5b87356001600160a01b03811681146200032d575f80fd5b965060208801356001600160401b038082111562000349575f80fd5b620003578b838c016200026f565b975060408a0135965060608a0135955060808a0135945060a08a013591508082111562000382575f80fd5b620003908b838c016200026f565b935060c08a0135915080821115620003a6575f80fd5b50620003b58a828b016200026f565b91505092959891949750929550565b80820180821115620003e457634e487b7160e01b5f52601160045260245ffd5b92915050565b5f81518084525f5b818110156200041057602081850181015186830182015201620003f2565b505f602082860101526020601f19601f83011685010191505092915050565b8981526001600160a01b03898116602083015288166040820152610120606082018190525f90620004638382018a620003ea565b90508760808401528660a08401528560c084015282810360e08401526200048b8186620003ea565b9050828103610100840152620004a28185620003ea565b9c9b50505050505050505050505056fe608060405234801562000010575f80fd5b506040516200369b3803806200369b8339810160408190526200003391620003c9565b5f899055600180546001600160a01b0319166001600160a01b038a16179055600362000060878262000529565b50600485905560058490556006839055600280546001600160a01b0319166001600160a01b0389161790555f54309083906200009c906200015a565b604051602001620000af929190620005f5565b60405160208183030381529060405282620000d15f546200015a60201b60201c565b604051602001620000e4929190620005f5565b6040516020818303038152906040526040516200010190620002d9565b6200010f9392919062000654565b604051809103905ff08015801562000129573d5f803e3d5ffd5b50601280546001600160a01b0319166001600160a01b0392909216919091179055506200068d975050505050505050565b60605f6200016883620001f0565b60010190505f816001600160401b0381111562000189576200018962000303565b6040519080825280601f01601f191660200182016040528015620001b4576020820181803683370190505b5090508181016020015b5f19016f181899199a1a9b1b9c1cb0b131b232b360811b600a86061a8153600a8504945084620001be57509392505050565b5f807a184f03e93ff9f4daa797ed6e38ed64bf6a1f010000000000000000831062000239577a184f03e93ff9f4daa797ed6e38ed64bf6a1f010000000000000000830492506040015b6d04ee2d6d415b85acef8100000000831062000266576d04ee2d6d415b85acef8100000000830492506020015b662386f26fc1000083106200028557662386f26fc10000830492506010015b6305f5e10083106200029e576305f5e100830492506008015b6127108310620002b357612710830492506004015b60648310620002c6576064830492506002015b600a8310620002d3576001015b92915050565b611aee8062001bad83390190565b80516001600160a01b0381168114620002fe575f80fd5b919050565b634e487b7160e01b5f52604160045260245ffd5b5f5b838110156200033357818101518382015260200162000319565b50505f910152565b5f82601f8301126200034b575f80fd5b81516001600160401b038082111562000368576200036862000303565b604051601f8301601f19908116603f0116810190828211818310171562000393576200039362000303565b81604052838152866020858801011115620003ac575f80fd5b620003bf84602083016020890162000317565b9695505050505050565b5f805f805f805f805f6101208a8c031215620003e3575f80fd5b89519850620003f560208b01620002e7565b97506200040560408b01620002e7565b60608b01519097506001600160401b038082111562000422575f80fd5b620004308d838e016200033b565b975060808c0151965060a08c0151955060c08c0151945060e08c01519150808211156200045b575f80fd5b620004698d838e016200033b565b93506101008c015191508082111562000480575f80fd5b506200048f8c828d016200033b565b9150509295985092959850929598565b600181811c90821680620004b457607f821691505b602082108103620004d357634e487b7160e01b5f52602260045260245ffd5b50919050565b601f8211156200052457805f5260205f20601f840160051c81016020851015620005005750805b601f840160051c820191505b8181101562000521575f81556001016200050c565b50505b505050565b81516001600160401b0381111562000545576200054562000303565b6200055d816200055684546200049f565b84620004d9565b602080601f83116001811462000593575f84156200057b5750858301515b5f19600386901b1c1916600185901b178555620005ed565b5f85815260208120601f198616915b82811015620005c357888601518255948401946001909101908401620005a2565b5085821015620005e157878501515f19600388901b60f8161c191681555b505060018460011b0185555b505050505050565b5f83516200060881846020880162000317565b8351908301906200061e81836020880162000317565b01949350505050565b5f81518084526200064081602086016020860162000317565b601f01601f19169290920160200192915050565b6001600160a01b03841681526060602082018190525f90620006799083018562000627565b8281036040840152620003bf818562000627565b611512806200069b5f395ff3fe60806040526004361061011a575f3560e01c80630b49351c1461011e57806312424e3f146101415780631bb05f73146101575780631f6d494214610176578063200d2ed2146101a157806327b0229e146101f957806329dcb0cf146102185780632b7d782f1461022d5780633ccfd60b1461024c5780634051ddac1461026057806347ccca021461028c57806366d003ac146102c35780637569b3d7146102e25780638da5cb5b146102f7578063937e09b114610316578063aa3ec0a91461032b578063b82c86d61461034c578063c438b40f14610361578063c545123214610380578063d7bb99ba1461039f578063da076a87146103a7578063e89e4ed6146103db578063eb599e4314610409578063ed556ce214610428575b5f80fd5b348015610129575f80fd5b506010545b6040519081526020015b60405180910390f35b34801561014c575f80fd5b50610155610447565b005b348015610162575f80fd5b50610155610171366004610f07565b610517565b348015610181575f80fd5b5061012e610190366004610f65565b60086020525f908152604090205481565b3480156101ac575f80fd5b50600954600a54600b54600d54600e546101cd9460ff908116949392169085565b60408051951515865260208601949094529284019190915215156060830152608082015260a001610138565b348015610204575f80fd5b50610155610213366004610f85565b6105f4565b348015610223575f80fd5b5061012e60065481565b348015610238575f80fd5b506101556102473660046110af565b6106b2565b348015610257575f80fd5b50610155610751565b34801561026b575f80fd5b50610274610805565b6040516101389c9b9a999897969594939291906111df565b348015610297575f80fd5b506012546102ab906001600160a01b031681565b6040516001600160a01b039091168152602001610138565b3480156102ce575f80fd5b506002546102ab906001600160a01b031681565b3480156102ed575f80fd5b5061012e60075481565b348015610302575f80fd5b506001546102ab906001600160a01b031681565b348015610321575f80fd5b5061012e60045481565b348015610336575f80fd5b5061033f61091b565b6040516101389190611255565b348015610357575f80fd5b5061012e60055481565b34801561036c575f80fd5b5061015561037b366004611267565b6109a7565b34801561038b575f80fd5b5061015561039a36600461127e565b610a86565b610155610ba8565b3480156103b2575f80fd5b5061012e6103c1366004610f65565b6001600160a01b03165f908152600c602052604090205490565b3480156103e6575f80fd5b506103fa6103f5366004611267565b610c0c565b604051610138939291906112d0565b348015610414575f80fd5b50610155610423366004611267565b610cd0565b348015610433575f80fd5b506101cd610442366004611267565b610e13565b600554471015610455575f80fd5b335f9081526008602052604090205461046c575f80fd5b335f908152600c602052604090205415610484575f80fd5b5f5b6011548110156104c657601181815481106104a3576104a3611303565b5f91825260209091206007909102015460ff166104be575f80fd5b600101610486565b50335f908152600c60205260408120429055600b8054916104e68361132b565b919050555060026007546104fa9190611343565b600b541115610515576009805460ff1916600117905542600a555b565b5f6011838154811061052b5761052b611303565b5f91825260208083203384526003600790930201918201905260409091205490915080610556575f80fd5b335f90815260068301602052604090205460ff1615610573575f80fd5b335f81815260068401602052604090819020805460ff191660011790556012549051636902622f60e11b81526001600160a01b03919091169163d204c45e916105c191908790600401611362565b5f604051808303815f87803b1580156105d8575f80fd5b505af11580156105ea573d5f803e3d5ffd5b5050505050505050565b60095460ff16610602575f80fd5b335f908152600c60205260409020548061061a575f80fd5b335f908152600f602052604090205460ff1615610635575f80fd5b335f818152600f602052604090819020805460ff191660011790556012549051636902622f60e11b81526001600160a01b03919091169163d204c45e9161068191908690600401611362565b5f604051808303815f87803b158015610698575f80fd5b505af11580156106aa573d5f803e3d5ffd5b505050505050565b6001546001600160a01b031633146106c8575f80fd5b815183511480156106da575080518251145b6106e2575f80fd5b5f5b835181101561074b5761074384828151811061070257610702611303565b602002602001015184838151811061071c5761071c611303565b602002602001015184848151811061073657610736611303565b6020026020010151610a86565b6001016106e4565b50505050565b6001546001600160a01b03163314610767575f80fd5b60095460ff16610775575f80fd5b5f5b6011548110156107ba576011818154811061079457610794611303565b5f91825260209091206004600790920201015460ff166107b2575f80fd5b600101610777565b506002546040516001600160a01b03909116904780156108fc02915f818181858888f193505050501580156107f1573d5f803e3d5ffd5b50600d805460ff1916600117905542600e55565b5f8060605f805f805f805f805f4760025f9054906101000a90046001600160a01b0316600360045460055460065460075460095f015f9054906101000a900460ff1660096001015460096002015460096004015f9054906101000a900460ff1660096005015489805461087790611385565b80601f01602080910402602001604051908101604052809291908181526020018280546108a390611385565b80156108ee5780601f106108c5576101008083540402835291602001916108ee565b820191905f5260205f20905b8154815290600101906020018083116108d157829003601f168201915b505050505099509b509b509b509b509b509b509b509b509b509b509b509b50909192939495969798999a9b565b6003805461092890611385565b80601f016020809104026020016040519081016040528092919081815260200182805461095490611385565b801561099f5780601f106109765761010080835404028352916020019161099f565b820191905f5260205f20905b81548152906001019060200180831161098257829003601f168201915b505050505081565b5f601082815481106109bb576109bb611303565b905f5260205f20906003020190505f601183815481106109dd576109dd611303565b905f5260205f209060070201905081600201544710156109fb575f80fd5b335f90815260086020526040902054610a12575f80fd5b335f90815260038201602052604090205415610a2c575f80fd5b335f908152600382016020526040812042905560028201805491610a4f8361132b565b91905055506002600754610a639190611343565b81600201541115610a8157805460ff19166001908117825542908201555b505050565b6001546001600160a01b03163314610a9c575f80fd5b5f835111610aa8575f80fd5b5f8211610ab3575f80fd5b6005548210610ac0575f80fd5b6001600160a01b038116610ad2575f80fd5b60105415610b145760108054610aea906001906113bd565b81548110610afa57610afa611303565b905f5260205f209060030201600201548211610b14575f80fd5b601080546001810182555f919091526003027f1b6847dc741a1b0cd08d278845f9d819d87b734759afb55fe2de5cb82a9ae6728101907f1b6847dc741a1b0cd08d278845f9d819d87b734759afb55fe2de5cb82a9ae67301610b768582611421565b50600281019290925581546001600160a01b0319166001600160a01b0391909116179055506011805460010181555f52565b6004543411610bb5575f80fd5b6005543410610bc2575f80fd5b6006544210610bcf575f80fd5b335f908152600860205260408120549003610bf95760078054905f610bf38361132b565b91905055505b335f908152600860205260409020429055565b60108181548110610c1b575f80fd5b5f918252602090912060039091020180546001820180546001600160a01b03909216935090610c4990611385565b80601f0160208091040260200160405190810160405280929190818152602001828054610c7590611385565b8015610cc05780601f10610c9757610100808354040283529160200191610cc0565b820191905f5260205f20905b815481529060010190602001808311610ca357829003601f168201915b5050505050908060020154905083565b6001546001600160a01b03163314610ce6575f80fd5b6010548110610cf3575f80fd5b5f60108281548110610d0757610d07611303565b905f5260205f20906003020190505f60118381548110610d2957610d29611303565b5f9182526020909120600790910201805490915060ff16610d48575f80fd5b60028201545f5b84811015610dc05760118181548110610d6a57610d6a611303565b5f91825260209091206004600790920201015460ff16610d88575f80fd5b60108181548110610d9b57610d9b611303565b905f5260205f2090600302016002015482610db691906113bd565b9150600101610d4f565b5082546040516001600160a01b039091169082156108fc029083905f818181858888f19350505050158015610df7573d5f803e3d5ffd5b505060048101805460ff19166001179055426005909101555050565b60118181548110610e22575f80fd5b5f9182526020909120600790910201805460018201546002830154600484015460059094015460ff938416955091939092169085565b634e487b7160e01b5f52604160045260245ffd5b604051601f8201601f191681016001600160401b0381118282101715610e9457610e94610e58565b604052919050565b5f82601f830112610eab575f80fd5b81356001600160401b03811115610ec457610ec4610e58565b610ed7601f8201601f1916602001610e6c565b818152846020838601011115610eeb575f80fd5b816020850160208301375f918101602001919091529392505050565b5f8060408385031215610f18575f80fd5b8235915060208301356001600160401b03811115610f34575f80fd5b610f4085828601610e9c565b9150509250929050565b80356001600160a01b0381168114610f60575f80fd5b919050565b5f60208284031215610f75575f80fd5b610f7e82610f4a565b9392505050565b5f60208284031215610f95575f80fd5b81356001600160401b03811115610faa575f80fd5b610fb684828501610e9c565b949350505050565b5f6001600160401b03821115610fd657610fd6610e58565b5060051b60200190565b5f82601f830112610fef575f80fd5b81356020611004610fff83610fbe565b610e6c565b8083825260208201915060208460051b870101935086841115611025575f80fd5b602086015b84811015611041578035835291830191830161102a565b509695505050505050565b5f82601f83011261105b575f80fd5b8135602061106b610fff83610fbe565b8083825260208201915060208460051b87010193508684111561108c575f80fd5b602086015b84811015611041576110a281610f4a565b8352918301918301611091565b5f805f606084860312156110c1575f80fd5b83356001600160401b03808211156110d7575f80fd5b818601915086601f8301126110ea575f80fd5b813560206110fa610fff83610fbe565b82815260059290921b8401810191818101908a841115611118575f80fd5b8286015b8481101561114e57803586811115611132575f80fd5b6111408d86838b0101610e9c565b84525091830191830161111c565b5097505087013592505080821115611164575f80fd5b61117087838801610fe0565b93506040860135915080821115611185575f80fd5b506111928682870161104c565b9150509250925092565b5f81518084525f5b818110156111c0576020818501810151868301820152016111a4565b505f602082860101526020601f19601f83011685010191505092915050565b8c81526001600160a01b038c166020820152610180604082018190525f906112098382018e61119c565b606084019c909c525050608081019890985260a088019690965260c087019490945291151560e08601526101008501526101208401521515610140830152610160909101529392505050565b602081525f610f7e602083018461119c565b5f60208284031215611277575f80fd5b5035919050565b5f805f60608486031215611290575f80fd5b83356001600160401b038111156112a5575f80fd5b6112b186828701610e9c565b935050602084013591506112c760408501610f4a565b90509250925092565b6001600160a01b03841681526060602082018190525f906112f39083018561119c565b9050826040830152949350505050565b634e487b7160e01b5f52603260045260245ffd5b634e487b7160e01b5f52601160045260245ffd5b5f6001820161133c5761133c611317565b5060010190565b5f8261135d57634e487b7160e01b5f52601260045260245ffd5b500490565b6001600160a01b03831681526040602082018190525f90610fb69083018461119c565b600181811c9082168061139957607f821691505b6020821081036113b757634e487b7160e01b5f52602260045260245ffd5b50919050565b818103818111156113d0576113d0611317565b92915050565b601f821115610a8157805f5260205f20601f840160051c810160208510156113fb5750805b601f840160051c820191505b8181101561141a575f8155600101611407565b5050505050565b81516001600160401b0381111561143a5761143a610e58565b61144e816114488454611385565b846113d6565b602080601f831160018114611481575f841561146a5750858301515b5f19600386901b1c1916600185901b1785556106aa565b5f85815260208120601f198616915b828110156114af57888601518255948401946001909101908401611490565b50858210156114cc57878501515f19600388901b60f8161c191681555b5050505050600190811b0190555056fea26469706673582212204c622a64c9132c3806ae243c13a47fee0d7a0349a55a42c8ab0b71e3e51c6ff064736f6c63430008170033608060405234801562000010575f80fd5b5060405162001aee38038062001aee8339810160408190526200003391620001aa565b8282825f620000438382620002b8565b506001620000528282620002b8565b5050506001600160a01b0381166200008357604051631e4fbdf760e01b81525f600482015260240160405180910390fd5b6200008e8162000098565b5050505062000384565b600b80546001600160a01b038381166001600160a01b0319831681179093556040519116919082907f8be0079c531659141344cd1fd0a4f28419497f9722a3daafe3b4186f6b6457e0905f90a35050565b634e487b7160e01b5f52604160045260245ffd5b5f82601f8301126200010d575f80fd5b81516001600160401b03808211156200012a576200012a620000e9565b604051601f8301601f19908116603f01168101908282118183101715620001555762000155620000e9565b816040528381526020925086602085880101111562000172575f80fd5b5f91505b8382101562000195578582018301518183018401529082019062000176565b5f602085830101528094505050505092915050565b5f805f60608486031215620001bd575f80fd5b83516001600160a01b0381168114620001d4575f80fd5b60208501519093506001600160401b0380821115620001f1575f80fd5b620001ff87838801620000fd565b9350604086015191508082111562000215575f80fd5b506200022486828701620000fd565b9150509250925092565b600181811c908216806200024357607f821691505b6020821081036200026257634e487b7160e01b5f52602260045260245ffd5b50919050565b601f821115620002b357805f5260205f20601f840160051c810160208510156200028f5750805b601f840160051c820191505b81811015620002b0575f81556001016200029b565b50505b505050565b81516001600160401b03811115620002d457620002d4620000e9565b620002ec81620002e584546200022e565b8462000268565b602080601f83116001811462000322575f84156200030a5750858301515b5f19600386901b1c1916600185901b1785556200037c565b5f85815260208120601f198616915b82811015620003525788860151825594840194600190910190840162000331565b50858210156200037057878501515f19600388901b60f8161c191681555b505060018460011b0185555b505050505050565b61175c80620003925f395ff3fe608060405234801561000f575f80fd5b50600436106100fa575f3560e01c806301ffc9a7146100fe57806306fdde0314610126578063081812fc1461013b578063095ea7b31461015b57806318160ddd1461017057806323b872dd146101825780632f745c591461019557806342842e0e146101a85780634f6ccce7146101bb5780636352211e146101ce57806370a08231146101e1578063715018a6146101f45780638da5cb5b146101fc57806395d89b4114610204578063a22cb4651461020c578063b88d4fde1461021f578063c87b56dd14610232578063d204c45e14610245578063e985e9c514610258578063f2fde38b1461026b575b5f80fd5b61011161010c3660046111e9565b61027e565b60405190151581526020015b60405180910390f35b61012e61028e565b60405161011d9190611251565b61014e610149366004611263565b61031d565b60405161011d919061127a565b61016e6101693660046112a9565b610331565b005b6008545b60405190815260200161011d565b61016e6101903660046112d1565b610340565b6101746101a33660046112a9565b6103d2565b61016e6101b63660046112d1565b610427565b6101746101c9366004611263565b610446565b61014e6101dc366004611263565b610496565b6101746101ef36600461130a565b6104a0565b61016e6104e5565b61014e6104f8565b61012e610507565b61016e61021a366004611323565b610516565b61016e61022d3660046113e2565b610521565b61012e610240366004611263565b610538565b61016e610253366004611458565b610543565b6101116102663660046114b5565b610575565b61016e61027936600461130a565b6105a2565b5f610288826105df565b92915050565b60605f805461029c906114e6565b80601f01602080910402602001604051908101604052809291908181526020018280546102c8906114e6565b80156103135780601f106102ea57610100808354040283529160200191610313565b820191905f5260205f20905b8154815290600101906020018083116102f657829003601f168201915b5050505050905090565b5f61032782610603565b506102888261063a565b61033c828233610654565b5050565b6001600160a01b038216610372575f604051633250574960e11b8152600401610369919061127a565b60405180910390fd5b5f61037e838333610661565b9050836001600160a01b0316816001600160a01b0316146103cc576040516364283d7b60e01b81526001600160a01b0380861660048301526024820184905282166044820152606401610369565b50505050565b5f6103dc836104a0565b82106103ff57828260405163295f44f760e21b815260040161036992919061151e565b506001600160a01b03919091165f908152600660209081526040808320938352929052205490565b61044183838360405180602001604052805f815250610521565b505050565b5f61045060085490565b8210610473575f8260405163295f44f760e21b815260040161036992919061151e565b6008828154811061048657610486611537565b905f5260205f2001549050919050565b5f61028882610603565b5f6001600160a01b0382166104ca575f6040516322718ad960e21b8152600401610369919061127a565b506001600160a01b03165f9081526003602052604090205490565b6104ed610675565b6104f65f6106a7565b565b600b546001600160a01b031690565b60606001805461029c906114e6565b61033c3383836106f8565b61052c848484610340565b6103cc8484848461078d565b6060610288826108a1565b61054b610675565b600c80545f918261055b8361155f565b91905055905061056b83826109a4565b61044181836109bd565b6001600160a01b039182165f90815260056020908152604080832093909416825291909152205460ff1690565b6105aa610675565b6001600160a01b0381166105d3575f604051631e4fbdf760e01b8152600401610369919061127a565b6105dc816106a7565b50565b5f6001600160e01b03198216632483248360e11b1480610288575061028882610a0c565b5f8061060e83610a30565b90506001600160a01b03811661028857604051637e27328960e01b815260048101849052602401610369565b5f908152600460205260409020546001600160a01b031690565b6104418383836001610a4a565b5f61066d848484610b45565b949350505050565b3361067e6104f8565b6001600160a01b0316146104f6573360405163118cdaa760e01b8152600401610369919061127a565b600b80546001600160a01b038381166001600160a01b0319831681179093556040519116919082907f8be0079c531659141344cd1fd0a4f28419497f9722a3daafe3b4186f6b6457e0905f90a35050565b6001600160a01b0382166107215781604051630b61174360e31b8152600401610369919061127a565b6001600160a01b038381165f81815260056020908152604080832094871680845294825291829020805460ff191686151590811790915591519182527f17307eab39ab6107e8899845ad3d59bd9653f200f220920489ca2b5937696c31910160405180910390a3505050565b6001600160a01b0383163b156103cc57604051630a85bd0160e11b81526001600160a01b0384169063150b7a02906107cf903390889087908790600401611577565b6020604051808303815f875af1925050508015610809575060408051601f3d908101601f19168201909252610806918101906115b3565b60015b610867573d808015610836576040519150601f19603f3d011682016040523d82523d5f602084013e61083b565b606091505b5080515f0361085f5783604051633250574960e11b8152600401610369919061127a565b805181602001fd5b6001600160e01b03198116630a85bd0160e11b1461089a5783604051633250574960e11b8152600401610369919061127a565b5050505050565b60606108ac82610603565b505f828152600a6020526040812080546108c5906114e6565b80601f01602080910402602001604051908101604052809291908181526020018280546108f1906114e6565b801561093c5780601f106109135761010080835404028352916020019161093c565b820191905f5260205f20905b81548152906001019060200180831161091f57829003601f168201915b505050505090505f61095860408051602081019091525f815290565b905080515f03610969575092915050565b81511561099b5780826040516020016109839291906115ce565b60405160208183030381529060405292505050919050565b61066d84610c10565b61033c828260405180602001604052805f815250610c81565b5f828152600a602052604090206109d48282611640565b506040518281527ff8e1a15aba9398e019f0b49df1a4fde98ee17ae345cb5f6b5e2c27f5033e8ce79060200160405180910390a15050565b5f6001600160e01b0319821663780e9d6360e01b1480610288575061028882610c97565b5f908152600260205260409020546001600160a01b031690565b8080610a5e57506001600160a01b03821615155b15610b16575f610a6d84610603565b90506001600160a01b03831615801590610a995750826001600160a01b0316816001600160a01b031614155b8015610aac5750610aaa8184610575565b155b15610acc578260405163a9fbf51f60e01b8152600401610369919061127a565b8115610b145783856001600160a01b0316826001600160a01b03167f8c5be1e5ebec7d5bd14f71427d1e84f3dd0314c0f7b2291e5b200ac8c7c3b92560405160405180910390a45b505b50505f90815260046020526040902080546001600160a01b0319166001600160a01b0392909216919091179055565b5f80610b52858585610ce6565b90506001600160a01b038116610bae57610ba984600880545f838152600960205260408120829055600182018355919091527ff3f7a9fe364faab93b216da50a3214154f22a0a2b415b23a84c8169e8b636ee30155565b610bd1565b846001600160a01b0316816001600160a01b031614610bd157610bd18185610dd3565b6001600160a01b038516610bed57610be884610e60565b61066d565b846001600160a01b0316816001600160a01b03161461066d5761066d8585610f07565b6060610c1b82610603565b505f610c3160408051602081019091525f815290565b90505f815111610c4f5760405180602001604052805f815250610c7a565b80610c5984610f55565b604051602001610c6a9291906115ce565b6040516020818303038152906040525b9392505050565b610c8b8383610fe4565b6104415f84848461078d565b5f6001600160e01b031982166380ac58cd60e01b1480610cc757506001600160e01b03198216635b5e139f60e01b145b8061028857506301ffc9a760e01b6001600160e01b0319831614610288565b5f80610cf184610a30565b90506001600160a01b03831615610d0d57610d0d818486611045565b6001600160a01b03811615610d4757610d285f855f80610a4a565b6001600160a01b0381165f90815260036020526040902080545f190190555b6001600160a01b03851615610d75576001600160a01b0385165f908152600360205260409020805460010190555b5f8481526002602052604080822080546001600160a01b0319166001600160a01b0389811691821790925591518793918516917fddf252ad1be2c89b69c2b068fc378daa952ba7f163c4a11628f55a4df523b3ef91a4949350505050565b5f610ddd836104a0565b5f83815260076020526040902054909150808214610e2e576001600160a01b0384165f9081526006602090815260408083208584528252808320548484528184208190558352600790915290208190555b505f9182526007602090815260408084208490556001600160a01b039094168352600681528383209183525290812055565b6008545f90610e71906001906116ff565b5f8381526009602052604081205460088054939450909284908110610e9857610e98611537565b905f5260205f20015490508060088381548110610eb757610eb7611537565b5f918252602080832090910192909255828152600990915260408082208490558582528120556008805480610eee57610eee611712565b600190038181905f5260205f20015f9055905550505050565b5f6001610f13846104a0565b610f1d91906116ff565b6001600160a01b039093165f908152600660209081526040808320868452825280832085905593825260079052919091209190915550565b60605f610f618361109b565b60010190505f816001600160401b03811115610f7f57610f7f61135c565b6040519080825280601f01601f191660200182016040528015610fa9576020820181803683370190505b5090508181016020015b5f19016f181899199a1a9b1b9c1cb0b131b232b360811b600a86061a8153600a8504945084610fb357509392505050565b6001600160a01b03821661100d575f604051633250574960e11b8152600401610369919061127a565b5f61101983835f610661565b90506001600160a01b03811615610441575f6040516339e3563760e11b8152600401610369919061127a565b611050838383611170565b610441576001600160a01b03831661107e57604051637e27328960e01b815260048101829052602401610369565b818160405163177e802f60e01b815260040161036992919061151e565b5f8072184f03e93ff9f4daa797ed6e38ed64bf6a1f0160401b83106110d95772184f03e93ff9f4daa797ed6e38ed64bf6a1f0160401b830492506040015b6904ee2d6d415b85acef8160201b8310611103576904ee2d6d415b85acef8160201b830492506020015b662386f26fc10000831061112157662386f26fc10000830492506010015b6305f5e1008310611139576305f5e100830492506008015b612710831061114d57612710830492506004015b6064831061115f576064830492506002015b600a83106102885760010192915050565b5f6001600160a01b0383161580159061066d5750826001600160a01b0316846001600160a01b031614806111a957506111a98484610575565b8061066d5750826001600160a01b03166111c28361063a565b6001600160a01b031614949350505050565b6001600160e01b0319811681146105dc575f80fd5b5f602082840312156111f9575f80fd5b8135610c7a816111d4565b5f5b8381101561121e578181015183820152602001611206565b50505f910152565b5f815180845261123d816020860160208601611204565b601f01601f19169290920160200192915050565b602081525f610c7a6020830184611226565b5f60208284031215611273575f80fd5b5035919050565b6001600160a01b0391909116815260200190565b80356001600160a01b03811681146112a4575f80fd5b919050565b5f80604083850312156112ba575f80fd5b6112c38361128e565b946020939093013593505050565b5f805f606084860312156112e3575f80fd5b6112ec8461128e565b92506112fa6020850161128e565b9150604084013590509250925092565b5f6020828403121561131a575f80fd5b610c7a8261128e565b5f8060408385031215611334575f80fd5b61133d8361128e565b915060208301358015158114611351575f80fd5b809150509250929050565b634e487b7160e01b5f52604160045260245ffd5b5f6001600160401b03808411156113895761138961135c565b604051601f8501601f19908116603f011681019082821181831017156113b1576113b161135c565b816040528093508581528686860111156113c9575f80fd5b858560208301375f602087830101525050509392505050565b5f805f80608085870312156113f5575f80fd5b6113fe8561128e565b935061140c6020860161128e565b92506040850135915060608501356001600160401b0381111561142d575f80fd5b8501601f8101871361143d575f80fd5b61144c87823560208401611370565b91505092959194509250565b5f8060408385031215611469575f80fd5b6114728361128e565b915060208301356001600160401b0381111561148c575f80fd5b8301601f8101851361149c575f80fd5b6114ab85823560208401611370565b9150509250929050565b5f80604083850312156114c6575f80fd5b6114cf8361128e565b91506114dd6020840161128e565b90509250929050565b600181811c908216806114fa57607f821691505b60208210810361151857634e487b7160e01b5f52602260045260245ffd5b50919050565b6001600160a01b03929092168252602082015260400190565b634e487b7160e01b5f52603260045260245ffd5b634e487b7160e01b5f52601160045260245ffd5b5f600182016115705761157061154b565b5060010190565b6001600160a01b03858116825284166020820152604081018390526080606082018190525f906115a990830184611226565b9695505050505050565b5f602082840312156115c3575f80fd5b8151610c7a816111d4565b5f83516115df818460208801611204565b8351908301906115f3818360208801611204565b01949350505050565b601f82111561044157805f5260205f20601f840160051c810160208510156116215750805b601f840160051c820191505b8181101561089a575f815560010161162d565b81516001600160401b038111156116595761165961135c565b61166d8161166784546114e6565b846115fc565b602080601f8311600181146116a0575f84156116895750858301515b5f19600386901b1c1916600185901b1785556116f7565b5f85815260208120601f198616915b828110156116ce578886015182559484019460019091019084016116af565b50858210156116eb57878501515f19600388901b60f8161c191681555b505060018460011b0185555b505050505050565b818103818111156102885761028861154b565b634e487b7160e01b5f52603160045260245ffdfea264697066735822122075303e5ded82325f9cd7912530dd6e894b683456724c4104bc7ba078de7e154264736f6c63430008170033a2646970667358221220a585e05cce87fe5df234ee33a5a38fe9c6ac7873d5826fc257ddcf10996240d964736f6c63430008170033","opcodes":"PUSH1 0x80 PUSH1 0x40 MSTORE CALLVALUE DUP1 ISZERO PUSH2 0xF JUMPI PUSH0 DUP1 REVERT JUMPDEST POP PUSH2 0x3B83 DUP1 PUSH2 0x1D PUSH0 CODECOPY PUSH0 RETURN INVALID PUSH1 0x80 PUSH1 0x40 MSTORE CALLVALUE DUP1 ISZERO PUSH3 0x10 JUMPI PUSH0 DUP1 REVERT JUMPDEST POP PUSH1 0x4 CALLDATASIZE LT PUSH3 0x44 JUMPI PUSH0 CALLDATALOAD PUSH1 0xE0 SHR DUP1 PUSH4 0x7AC3886E EQ PUSH3 0x48 JUMPI DUP1 PUSH4 0x9EC6DEAF EQ PUSH3 0x6A JUMPI DUP1 PUSH4 0xC73D7024 EQ PUSH3 0x9A JUMPI JUMPDEST PUSH0 DUP1 REVERT JUMPDEST PUSH3 0x52 PUSH3 0xB3 JUMP JUMPDEST PUSH1 0x40 MLOAD PUSH3 0x61 SWAP2 SWAP1 PUSH3 0x1F5 JUMP JUMPDEST PUSH1 0x40 MLOAD DUP1 SWAP2 SUB SWAP1 RETURN JUMPDEST PUSH3 0x81 PUSH3 0x7B CALLDATASIZE PUSH1 0x4 PUSH3 0x243 JUMP JUMPDEST PUSH3 0x114 JUMP JUMPDEST PUSH1 0x40 MLOAD PUSH1 0x1 PUSH1 0x1 PUSH1 0xA0 SHL SUB SWAP1 SWAP2 AND DUP2 MSTORE PUSH1 0x20 ADD PUSH3 0x61 JUMP JUMPDEST PUSH3 0xB1 PUSH3 0xAB CALLDATASIZE PUSH1 0x4 PUSH3 0x2FF JUMP JUMPDEST PUSH3 0x13C JUMP JUMPDEST STOP JUMPDEST PUSH1 0x60 PUSH0 DUP1 SLOAD DUP1 PUSH1 0x20 MUL PUSH1 0x20 ADD PUSH1 0x40 MLOAD SWAP1 DUP2 ADD PUSH1 0x40 MSTORE DUP1 SWAP3 SWAP2 SWAP1 DUP2 DUP2 MSTORE PUSH1 0x20 ADD DUP3 DUP1 SLOAD DUP1 ISZERO PUSH3 0x10A JUMPI PUSH1 0x20 MUL DUP3 ADD SWAP2 SWAP1 PUSH0 MSTORE PUSH1 0x20 PUSH0 KECCAK256 SWAP1 JUMPDEST DUP2 SLOAD PUSH1 0x1 PUSH1 0x1 PUSH1 0xA0 SHL SUB AND DUP2 MSTORE PUSH1 0x1 SWAP1 SWAP2 ADD SWAP1 PUSH1 0x20 ADD DUP1 DUP4 GT PUSH3 0xEB JUMPI JUMPDEST POP POP POP POP POP SWAP1 POP SWAP1 JUMP JUMPDEST PUSH0 DUP2 DUP2 SLOAD DUP2 LT PUSH3 0x123 JUMPI PUSH0 DUP1 REVERT JUMPDEST PUSH0 SWAP2 DUP3 MSTORE PUSH1 0x20 SWAP1 SWAP2 KECCAK256 ADD SLOAD PUSH1 0x1 PUSH1 0x1 PUSH1 0xA0 SHL SUB AND SWAP1 POP DUP2 JUMP JUMPDEST PUSH0 DUP1 SLOAD PUSH3 0x14C SWAP1 PUSH1 0x1 PUSH3 0x3C4 JUMP JUMPDEST CALLER DUP10 DUP10 DUP10 DUP10 DUP10 DUP10 DUP10 PUSH1 0x40 MLOAD PUSH3 0x162 SWAP1 PUSH3 0x1E7 JUMP JUMPDEST PUSH3 0x176 SWAP10 SWAP9 SWAP8 SWAP7 SWAP6 SWAP5 SWAP4 SWAP3 SWAP2 SWAP1 PUSH3 0x42F JUMP JUMPDEST PUSH1 0x40 MLOAD DUP1 SWAP2 SUB SWAP1 PUSH0 CREATE DUP1 ISZERO DUP1 ISZERO PUSH3 0x190 JUMPI RETURNDATASIZE PUSH0 DUP1 RETURNDATACOPY RETURNDATASIZE PUSH0 REVERT JUMPDEST POP PUSH0 DUP1 SLOAD PUSH1 0x1 DUP2 ADD DUP3 SSTORE SWAP1 DUP1 MSTORE PUSH32 0x290DECD9548B62A8D60345A988386FC84BA6BC95484008F6362F93160EF3E563 ADD DUP1 SLOAD PUSH1 0x1 PUSH1 0x1 PUSH1 0xA0 SHL SUB NOT AND PUSH1 0x1 PUSH1 0x1 PUSH1 0xA0 SHL SUB SWAP3 SWAP1 SWAP3 AND SWAP2 SWAP1 SWAP2 OR SWAP1 SSTORE POP POP POP POP POP POP POP POP JUMP JUMPDEST PUSH2 0x369B DUP1 PUSH3 0x4B3 DUP4 CODECOPY ADD SWAP1 JUMP JUMPDEST PUSH1 0x20 DUP1 DUP3 MSTORE DUP3 MLOAD DUP3 DUP3 ADD DUP2 SWAP1 MSTORE PUSH0 SWAP2 SWAP1 DUP5 DUP3 ADD SWAP1 PUSH1 0x40 DUP6 ADD SWAP1 DUP5 JUMPDEST DUP2 DUP2 LT ISZERO PUSH3 0x237 JUMPI DUP4 MLOAD PUSH1 0x1 PUSH1 0x1 PUSH1 0xA0 SHL SUB AND DUP4 MSTORE SWAP3 DUP5 ADD SWAP3 SWAP2 DUP5 ADD SWAP2 PUSH1 0x1 ADD PUSH3 0x210 JUMP JUMPDEST POP SWAP1 SWAP7 SWAP6 POP POP POP POP POP POP JUMP JUMPDEST PUSH0 PUSH1 0x20 DUP3 DUP5 SUB SLT ISZERO PUSH3 0x254 JUMPI PUSH0 DUP1 REVERT JUMPDEST POP CALLDATALOAD SWAP2 SWAP1 POP JUMP JUMPDEST PUSH4 0x4E487B71 PUSH1 0xE0 SHL PUSH0 MSTORE PUSH1 0x41 PUSH1 0x4 MSTORE PUSH1 0x24 PUSH0 REVERT JUMPDEST PUSH0 DUP3 PUSH1 0x1F DUP4 ADD SLT PUSH3 0x27F JUMPI PUSH0 DUP1 REVERT JUMPDEST DUP2 CALLDATALOAD PUSH1 0x1 PUSH1 0x1 PUSH1 0x40 SHL SUB DUP1 DUP3 GT ISZERO PUSH3 0x29C JUMPI PUSH3 0x29C PUSH3 0x25B JUMP JUMPDEST PUSH1 0x40 MLOAD PUSH1 0x1F DUP4 ADD PUSH1 0x1F NOT SWAP1 DUP2 AND PUSH1 0x3F ADD AND DUP2 ADD SWAP1 DUP3 DUP3 GT DUP2 DUP4 LT OR ISZERO PUSH3 0x2C7 JUMPI PUSH3 0x2C7 PUSH3 0x25B JUMP JUMPDEST DUP2 PUSH1 0x40 MSTORE DUP4 DUP2 MSTORE DUP7 PUSH1 0x20 DUP6 DUP9 ADD ADD GT ISZERO PUSH3 0x2E0 JUMPI PUSH0 DUP1 REVERT JUMPDEST DUP4 PUSH1 0x20 DUP8 ADD PUSH1 0x20 DUP4 ADD CALLDATACOPY PUSH0 PUSH1 0x20 DUP6 DUP4 ADD ADD MSTORE DUP1 SWAP5 POP POP POP POP POP SWAP3 SWAP2 POP POP JUMP JUMPDEST PUSH0 DUP1 PUSH0 DUP1 PUSH0 DUP1 PUSH0 PUSH1 0xE0 DUP9 DUP11 SUB SLT ISZERO PUSH3 0x316 JUMPI PUSH0 DUP1 REVERT JUMPDEST DUP8 CALLDATALOAD PUSH1 0x1 PUSH1 0x1 PUSH1 0xA0 SHL SUB DUP2 AND DUP2 EQ PUSH3 0x32D JUMPI PUSH0 DUP1 REVERT JUMPDEST SWAP7 POP PUSH1 0x20 DUP9 ADD CALLDATALOAD PUSH1 0x1 PUSH1 0x1 PUSH1 0x40 SHL SUB DUP1 DUP3 GT ISZERO PUSH3 0x349 JUMPI PUSH0 DUP1 REVERT JUMPDEST PUSH3 0x357 DUP12 DUP4 DUP13 ADD PUSH3 0x26F JUMP JUMPDEST SWAP8 POP PUSH1 0x40 DUP11 ADD CALLDATALOAD SWAP7 POP PUSH1 0x60 DUP11 ADD CALLDATALOAD SWAP6 POP PUSH1 0x80 DUP11 ADD CALLDATALOAD SWAP5 POP PUSH1 0xA0 DUP11 ADD CALLDATALOAD SWAP2 POP DUP1 DUP3 GT ISZERO PUSH3 0x382 JUMPI PUSH0 DUP1 REVERT JUMPDEST PUSH3 0x390 DUP12 DUP4 DUP13 ADD PUSH3 0x26F JUMP JUMPDEST SWAP4 POP PUSH1 0xC0 DUP11 ADD CALLDATALOAD SWAP2 POP DUP1 DUP3 GT ISZERO PUSH3 0x3A6 JUMPI PUSH0 DUP1 REVERT JUMPDEST POP PUSH3 0x3B5 DUP11 DUP3 DUP12 ADD PUSH3 0x26F JUMP JUMPDEST SWAP2 POP POP SWAP3 SWAP6 SWAP9 SWAP2 SWAP5 SWAP8 POP SWAP3 SWAP6 POP JUMP JUMPDEST DUP1 DUP3 ADD DUP1 DUP3 GT ISZERO PUSH3 0x3E4 JUMPI PUSH4 0x4E487B71 PUSH1 0xE0 SHL PUSH0 MSTORE PUSH1 0x11 PUSH1 0x4 MSTORE PUSH1 0x24 PUSH0 REVERT JUMPDEST SWAP3 SWAP2 POP POP JUMP JUMPDEST PUSH0 DUP2 MLOAD DUP1 DUP5 MSTORE PUSH0 JUMPDEST DUP2 DUP2 LT ISZERO PUSH3 0x410 JUMPI PUSH1 0x20 DUP2 DUP6 ADD DUP2 ADD MLOAD DUP7 DUP4 ADD DUP3 ADD MSTORE ADD PUSH3 0x3F2 JUMP JUMPDEST POP PUSH0 PUSH1 0x20 DUP3 DUP7 ADD ADD MSTORE PUSH1 0x20 PUSH1 0x1F NOT PUSH1 0x1F DUP4 ADD AND DUP6 ADD ADD SWAP2 POP POP SWAP3 SWAP2 POP POP JUMP JUMPDEST DUP10 DUP2 MSTORE PUSH1 0x1 PUSH1 0x1 PUSH1 0xA0 SHL SUB DUP10 DUP2 AND PUSH1 0x20 DUP4 ADD MSTORE DUP9 AND PUSH1 0x40 DUP3 ADD MSTORE PUSH2 0x120 PUSH1 0x60 DUP3 ADD DUP2 SWAP1 MSTORE PUSH0 SWAP1 PUSH3 0x463 DUP4 DUP3 ADD DUP11 PUSH3 0x3EA JUMP JUMPDEST SWAP1 POP DUP8 PUSH1 0x80 DUP5 ADD MSTORE DUP7 PUSH1 0xA0 DUP5 ADD MSTORE DUP6 PUSH1 0xC0 DUP5 ADD MSTORE DUP3 DUP2 SUB PUSH1 0xE0 DUP5 ADD MSTORE PUSH3 0x48B DUP2 DUP7 PUSH3 0x3EA JUMP JUMPDEST SWAP1 POP DUP3 DUP2 SUB PUSH2 0x100 DUP5 ADD MSTORE PUSH3 0x4A2 DUP2 DUP6 PUSH3 0x3EA JUMP JUMPDEST SWAP13 SWAP12 POP POP POP POP POP POP POP POP POP POP POP POP JUMP INVALID PUSH1 0x80 PUSH1 0x40 MSTORE CALLVALUE DUP1 ISZERO PUSH3 0x10 JUMPI PUSH0 DUP1 REVERT JUMPDEST POP PUSH1 0x40 MLOAD PUSH3 0x369B CODESIZE SUB DUP1 PUSH3 0x369B DUP4 CODECOPY DUP2 ADD PUSH1 0x40 DUP2 SWAP1 MSTORE PUSH3 0x33 SWAP2 PUSH3 0x3C9 JUMP JUMPDEST PUSH0 DUP10 SWAP1 SSTORE PUSH1 0x1 DUP1 SLOAD PUSH1 0x1 PUSH1 0x1 PUSH1 0xA0 SHL SUB NOT AND PUSH1 0x1 PUSH1 0x1 PUSH1 0xA0 SHL SUB DUP11 AND OR SWAP1 SSTORE PUSH1 0x3 PUSH3 0x60 DUP8 DUP3 PUSH3 0x529 JUMP JUMPDEST POP PUSH1 0x4 DUP6 SWAP1 SSTORE PUSH1 0x5 DUP5 SWAP1 SSTORE PUSH1 0x6 DUP4 SWAP1 SSTORE PUSH1 0x2 DUP1 SLOAD PUSH1 0x1 PUSH1 0x1 PUSH1 0xA0 SHL SUB NOT AND PUSH1 0x1 PUSH1 0x1 PUSH1 0xA0 SHL SUB DUP10 AND OR SWAP1 SSTORE PUSH0 SLOAD ADDRESS SWAP1 DUP4 SWAP1 PUSH3 0x9C SWAP1 PUSH3 0x15A JUMP JUMPDEST PUSH1 0x40 MLOAD PUSH1 0x20 ADD PUSH3 0xAF SWAP3 SWAP2 SWAP1 PUSH3 0x5F5 JUMP JUMPDEST PUSH1 0x40 MLOAD PUSH1 0x20 DUP2 DUP4 SUB SUB DUP2 MSTORE SWAP1 PUSH1 0x40 MSTORE DUP3 PUSH3 0xD1 PUSH0 SLOAD PUSH3 0x15A PUSH1 0x20 SHL PUSH1 0x20 SHR JUMP JUMPDEST PUSH1 0x40 MLOAD PUSH1 0x20 ADD PUSH3 0xE4 SWAP3 SWAP2 SWAP1 PUSH3 0x5F5 JUMP JUMPDEST PUSH1 0x40 MLOAD PUSH1 0x20 DUP2 DUP4 SUB SUB DUP2 MSTORE SWAP1 PUSH1 0x40 MSTORE PUSH1 0x40 MLOAD PUSH3 0x101 SWAP1 PUSH3 0x2D9 JUMP JUMPDEST PUSH3 0x10F SWAP4 SWAP3 SWAP2 SWAP1 PUSH3 0x654 JUMP JUMPDEST PUSH1 0x40 MLOAD DUP1 SWAP2 SUB SWAP1 PUSH0 CREATE DUP1 ISZERO DUP1 ISZERO PUSH3 0x129 JUMPI RETURNDATASIZE PUSH0 DUP1 RETURNDATACOPY RETURNDATASIZE PUSH0 REVERT JUMPDEST POP PUSH1 0x12 DUP1 SLOAD PUSH1 0x1 PUSH1 0x1 PUSH1 0xA0 SHL SUB NOT AND PUSH1 0x1 PUSH1 0x1 PUSH1 0xA0 SHL SUB SWAP3 SWAP1 SWAP3 AND SWAP2 SWAP1 SWAP2 OR SWAP1 SSTORE POP PUSH3 0x68D SWAP8 POP POP POP POP POP POP POP POP JUMP JUMPDEST PUSH1 0x60 PUSH0 PUSH3 0x168 DUP4 PUSH3 0x1F0 JUMP JUMPDEST PUSH1 0x1 ADD SWAP1 POP PUSH0 DUP2 PUSH1 0x1 PUSH1 0x1 PUSH1 0x40 SHL SUB DUP2 GT ISZERO PUSH3 0x189 JUMPI PUSH3 0x189 PUSH3 0x303 JUMP JUMPDEST PUSH1 0x40 MLOAD SWAP1 DUP1 DUP3 MSTORE DUP1 PUSH1 0x1F ADD PUSH1 0x1F NOT AND PUSH1 0x20 ADD DUP3 ADD PUSH1 0x40 MSTORE DUP1 ISZERO PUSH3 0x1B4 JUMPI PUSH1 0x20 DUP3 ADD DUP2 DUP1 CALLDATASIZE DUP4 CALLDATACOPY ADD SWAP1 POP JUMPDEST POP SWAP1 POP DUP2 DUP2 ADD PUSH1 0x20 ADD JUMPDEST PUSH0 NOT ADD PUSH16 0x181899199A1A9B1B9C1CB0B131B232B3 PUSH1 0x81 SHL PUSH1 0xA DUP7 MOD BYTE DUP2 MSTORE8 PUSH1 0xA DUP6 DIV SWAP5 POP DUP5 PUSH3 0x1BE JUMPI POP SWAP4 SWAP3 POP POP POP JUMP JUMPDEST PUSH0 DUP1 PUSH27 0x184F03E93FF9F4DAA797ED6E38ED64BF6A1F010000000000000000 DUP4 LT PUSH3 0x239 JUMPI PUSH27 0x184F03E93FF9F4DAA797ED6E38ED64BF6A1F010000000000000000 DUP4 DIV SWAP3 POP PUSH1 0x40 ADD JUMPDEST PUSH14 0x4EE2D6D415B85ACEF8100000000 DUP4 LT PUSH3 0x266 JUMPI PUSH14 0x4EE2D6D415B85ACEF8100000000 DUP4 DIV SWAP3 POP PUSH1 0x20 ADD JUMPDEST PUSH7 0x2386F26FC10000 DUP4 LT PUSH3 0x285 JUMPI PUSH7 0x2386F26FC10000 DUP4 DIV SWAP3 POP PUSH1 0x10 ADD JUMPDEST PUSH4 0x5F5E100 DUP4 LT PUSH3 0x29E JUMPI PUSH4 0x5F5E100 DUP4 DIV SWAP3 POP PUSH1 0x8 ADD JUMPDEST PUSH2 0x2710 DUP4 LT PUSH3 0x2B3 JUMPI PUSH2 0x2710 DUP4 DIV SWAP3 POP PUSH1 0x4 ADD JUMPDEST PUSH1 0x64 DUP4 LT PUSH3 0x2C6 JUMPI PUSH1 0x64 DUP4 DIV SWAP3 POP PUSH1 0x2 ADD JUMPDEST PUSH1 0xA DUP4 LT PUSH3 0x2D3 JUMPI PUSH1 0x1 ADD JUMPDEST SWAP3 SWAP2 POP POP JUMP JUMPDEST PUSH2 0x1AEE DUP1 PUSH3 0x1BAD DUP4 CODECOPY ADD SWAP1 JUMP JUMPDEST DUP1 MLOAD PUSH1 0x1 PUSH1 0x1 PUSH1 0xA0 SHL SUB DUP2 AND DUP2 EQ PUSH3 0x2FE JUMPI PUSH0 DUP1 REVERT JUMPDEST SWAP2 SWAP1 POP JUMP JUMPDEST PUSH4 0x4E487B71 PUSH1 0xE0 SHL PUSH0 MSTORE PUSH1 0x41 PUSH1 0x4 MSTORE PUSH1 0x24 PUSH0 REVERT JUMPDEST PUSH0 JUMPDEST DUP4 DUP2 LT ISZERO PUSH3 0x333 JUMPI DUP2 DUP2 ADD MLOAD DUP4 DUP3 ADD MSTORE PUSH1 0x20 ADD PUSH3 0x319 JUMP JUMPDEST POP POP PUSH0 SWAP2 ADD MSTORE JUMP JUMPDEST PUSH0 DUP3 PUSH1 0x1F DUP4 ADD SLT PUSH3 0x34B JUMPI PUSH0 DUP1 REVERT JUMPDEST DUP2 MLOAD PUSH1 0x1 PUSH1 0x1 PUSH1 0x40 SHL SUB DUP1 DUP3 GT ISZERO PUSH3 0x368 JUMPI PUSH3 0x368 PUSH3 0x303 JUMP JUMPDEST PUSH1 0x40 MLOAD PUSH1 0x1F DUP4 ADD PUSH1 0x1F NOT SWAP1 DUP2 AND PUSH1 0x3F ADD AND DUP2 ADD SWAP1 DUP3 DUP3 GT DUP2 DUP4 LT OR ISZERO PUSH3 0x393 JUMPI PUSH3 0x393 PUSH3 0x303 JUMP JUMPDEST DUP2 PUSH1 0x40 MSTORE DUP4 DUP2 MSTORE DUP7 PUSH1 0x20 DUP6 DUP9 ADD ADD GT ISZERO PUSH3 0x3AC JUMPI PUSH0 DUP1 REVERT JUMPDEST PUSH3 0x3BF DUP5 PUSH1 0x20 DUP4 ADD PUSH1 0x20 DUP10 ADD PUSH3 0x317 JUMP JUMPDEST SWAP7 SWAP6 POP POP POP POP POP POP JUMP JUMPDEST PUSH0 DUP1 PUSH0 DUP1 PUSH0 DUP1 PUSH0 DUP1 PUSH0 PUSH2 0x120 DUP11 DUP13 SUB SLT ISZERO PUSH3 0x3E3 JUMPI PUSH0 DUP1 REVERT JUMPDEST DUP10 MLOAD SWAP9 POP PUSH3 0x3F5 PUSH1 0x20 DUP12 ADD PUSH3 0x2E7 JUMP JUMPDEST SWAP8 POP PUSH3 0x405 PUSH1 0x40 DUP12 ADD PUSH3 0x2E7 JUMP JUMPDEST PUSH1 0x60 DUP12 ADD MLOAD SWAP1 SWAP8 POP PUSH1 0x1 PUSH1 0x1 PUSH1 0x40 SHL SUB DUP1 DUP3 GT ISZERO PUSH3 0x422 JUMPI PUSH0 DUP1 REVERT JUMPDEST PUSH3 0x430 DUP14 DUP4 DUP15 ADD PUSH3 0x33B JUMP JUMPDEST SWAP8 POP PUSH1 0x80 DUP13 ADD MLOAD SWAP7 POP PUSH1 0xA0 DUP13 ADD MLOAD SWAP6 POP PUSH1 0xC0 DUP13 ADD MLOAD SWAP5 POP PUSH1 0xE0 DUP13 ADD MLOAD SWAP2 POP DUP1 DUP3 GT ISZERO PUSH3 0x45B JUMPI PUSH0 DUP1 REVERT JUMPDEST PUSH3 0x469 DUP14 DUP4 DUP15 ADD PUSH3 0x33B JUMP JUMPDEST SWAP4 POP PUSH2 0x100 DUP13 ADD MLOAD SWAP2 POP DUP1 DUP3 GT ISZERO PUSH3 0x480 JUMPI PUSH0 DUP1 REVERT JUMPDEST POP PUSH3 0x48F DUP13 DUP3 DUP14 ADD PUSH3 0x33B JUMP JUMPDEST SWAP2 POP POP SWAP3 SWAP6 SWAP9 POP SWAP3 SWAP6 SWAP9 POP SWAP3 SWAP6 SWAP9 JUMP JUMPDEST PUSH1 0x1 DUP2 DUP2 SHR SWAP1 DUP3 AND DUP1 PUSH3 0x4B4 JUMPI PUSH1 0x7F DUP3 AND SWAP2 POP JUMPDEST PUSH1 0x20 DUP3 LT DUP2 SUB PUSH3 0x4D3 JUMPI PUSH4 0x4E487B71 PUSH1 0xE0 SHL PUSH0 MSTORE PUSH1 0x22 PUSH1 0x4 MSTORE PUSH1 0x24 PUSH0 REVERT JUMPDEST POP SWAP2 SWAP1 POP JUMP JUMPDEST PUSH1 0x1F DUP3 GT ISZERO PUSH3 0x524 JUMPI DUP1 PUSH0 MSTORE PUSH1 0x20 PUSH0 KECCAK256 PUSH1 0x1F DUP5 ADD PUSH1 0x5 SHR DUP2 ADD PUSH1 0x20 DUP6 LT ISZERO PUSH3 0x500 JUMPI POP DUP1 JUMPDEST PUSH1 0x1F DUP5 ADD PUSH1 0x5 SHR DUP3 ADD SWAP2 POP JUMPDEST DUP2 DUP2 LT ISZERO PUSH3 0x521 JUMPI PUSH0 DUP2 SSTORE PUSH1 0x1 ADD PUSH3 0x50C JUMP JUMPDEST POP POP JUMPDEST POP POP POP JUMP JUMPDEST DUP2 MLOAD PUSH1 0x1 PUSH1 0x1 PUSH1 0x40 SHL SUB DUP2 GT ISZERO PUSH3 0x545 JUMPI PUSH3 0x545 PUSH3 0x303 JUMP JUMPDEST PUSH3 0x55D DUP2 PUSH3 0x556 DUP5 SLOAD PUSH3 0x49F JUMP JUMPDEST DUP5 PUSH3 0x4D9 JUMP JUMPDEST PUSH1 0x20 DUP1 PUSH1 0x1F DUP4 GT PUSH1 0x1 DUP2 EQ PUSH3 0x593 JUMPI PUSH0 DUP5 ISZERO PUSH3 0x57B JUMPI POP DUP6 DUP4 ADD MLOAD JUMPDEST PUSH0 NOT PUSH1 0x3 DUP7 SWAP1 SHL SHR NOT AND PUSH1 0x1 DUP6 SWAP1 SHL OR DUP6 SSTORE PUSH3 0x5ED JUMP JUMPDEST PUSH0 DUP6 DUP2 MSTORE PUSH1 0x20 DUP2 KECCAK256 PUSH1 0x1F NOT DUP7 AND SWAP2 JUMPDEST DUP3 DUP2 LT ISZERO PUSH3 0x5C3 JUMPI DUP9 DUP7 ADD MLOAD DUP3 SSTORE SWAP5 DUP5 ADD SWAP5 PUSH1 0x1 SWAP1 SWAP2 ADD SWAP1 DUP5 ADD PUSH3 0x5A2 JUMP JUMPDEST POP DUP6 DUP3 LT ISZERO PUSH3 0x5E1 JUMPI DUP8 DUP6 ADD MLOAD PUSH0 NOT PUSH1 0x3 DUP9 SWAP1 SHL PUSH1 0xF8 AND SHR NOT AND DUP2 SSTORE JUMPDEST POP POP PUSH1 0x1 DUP5 PUSH1 0x1 SHL ADD DUP6 SSTORE JUMPDEST POP POP POP POP POP POP JUMP JUMPDEST PUSH0 DUP4 MLOAD PUSH3 0x608 DUP2 DUP5 PUSH1 0x20 DUP9 ADD PUSH3 0x317 JUMP JUMPDEST DUP4 MLOAD SWAP1 DUP4 ADD SWAP1 PUSH3 0x61E DUP2 DUP4 PUSH1 0x20 DUP9 ADD PUSH3 0x317 JUMP JUMPDEST ADD SWAP5 SWAP4 POP POP POP POP JUMP JUMPDEST PUSH0 DUP2 MLOAD DUP1 DUP5 MSTORE PUSH3 0x640 DUP2 PUSH1 0x20 DUP7 ADD PUSH1 0x20 DUP7 ADD PUSH3 0x317 JUMP JUMPDEST PUSH1 0x1F ADD PUSH1 0x1F NOT AND SWAP3 SWAP1 SWAP3 ADD PUSH1 0x20 ADD SWAP3 SWAP2 POP POP JUMP JUMPDEST PUSH1 0x1 PUSH1 0x1 PUSH1 0xA0 SHL SUB DUP5 AND DUP2 MSTORE PUSH1 0x60 PUSH1 0x20 DUP3 ADD DUP2 SWAP1 MSTORE PUSH0 SWAP1 PUSH3 0x679 SWAP1 DUP4 ADD DUP6 PUSH3 0x627 JUMP JUMPDEST DUP3 DUP2 SUB PUSH1 0x40 DUP5 ADD MSTORE PUSH3 0x3BF DUP2 DUP6 PUSH3 0x627 JUMP JUMPDEST PUSH2 0x1512 DUP1 PUSH3 0x69B PUSH0 CODECOPY PUSH0 RETURN INVALID PUSH1 0x80 PUSH1 0x40 MSTORE PUSH1 0x4 CALLDATASIZE LT PUSH2 0x11A JUMPI PUSH0 CALLDATALOAD PUSH1 0xE0 SHR DUP1 PUSH4 0xB49351C EQ PUSH2 0x11E JUMPI DUP1 PUSH4 0x12424E3F EQ PUSH2 0x141 JUMPI DUP1 PUSH4 0x1BB05F73 EQ PUSH2 0x157 JUMPI DUP1 PUSH4 0x1F6D4942 EQ PUSH2 0x176 JUMPI DUP1 PUSH4 0x200D2ED2 EQ PUSH2 0x1A1 JUMPI DUP1 PUSH4 0x27B0229E EQ PUSH2 0x1F9 JUMPI DUP1 PUSH4 0x29DCB0CF EQ PUSH2 0x218 JUMPI DUP1 PUSH4 0x2B7D782F EQ PUSH2 0x22D JUMPI DUP1 PUSH4 0x3CCFD60B EQ PUSH2 0x24C JUMPI DUP1 PUSH4 0x4051DDAC EQ PUSH2 0x260 JUMPI DUP1 PUSH4 0x47CCCA02 EQ PUSH2 0x28C JUMPI DUP1 PUSH4 0x66D003AC EQ PUSH2 0x2C3 JUMPI DUP1 PUSH4 0x7569B3D7 EQ PUSH2 0x2E2 JUMPI DUP1 PUSH4 0x8DA5CB5B EQ PUSH2 0x2F7 JUMPI DUP1 PUSH4 0x937E09B1 EQ PUSH2 0x316 JUMPI DUP1 PUSH4 0xAA3EC0A9 EQ PUSH2 0x32B JUMPI DUP1 PUSH4 0xB82C86D6 EQ PUSH2 0x34C JUMPI DUP1 PUSH4 0xC438B40F EQ PUSH2 0x361 JUMPI DUP1 PUSH4 0xC5451232 EQ PUSH2 0x380 JUMPI DUP1 PUSH4 0xD7BB99BA EQ PUSH2 0x39F JUMPI DUP1 PUSH4 0xDA076A87 EQ PUSH2 0x3A7 JUMPI DUP1 PUSH4 0xE89E4ED6 EQ PUSH2 0x3DB JUMPI DUP1 PUSH4 0xEB599E43 EQ PUSH2 0x409 JUMPI DUP1 PUSH4 0xED556CE2 EQ PUSH2 0x428 JUMPI JUMPDEST PUSH0 DUP1 REVERT JUMPDEST CALLVALUE DUP1 ISZERO PUSH2 0x129 JUMPI PUSH0 DUP1 REVERT JUMPDEST POP PUSH1 0x10 SLOAD JUMPDEST PUSH1 0x40 MLOAD SWAP1 DUP2 MSTORE PUSH1 0x20 ADD JUMPDEST PUSH1 0x40 MLOAD DUP1 SWAP2 SUB SWAP1 RETURN JUMPDEST CALLVALUE DUP1 ISZERO PUSH2 0x14C JUMPI PUSH0 DUP1 REVERT JUMPDEST POP PUSH2 0x155 PUSH2 0x447 JUMP JUMPDEST STOP JUMPDEST CALLVALUE DUP1 ISZERO PUSH2 0x162 JUMPI PUSH0 DUP1 REVERT JUMPDEST POP PUSH2 0x155 PUSH2 0x171 CALLDATASIZE PUSH1 0x4 PUSH2 0xF07 JUMP JUMPDEST PUSH2 0x517 JUMP JUMPDEST CALLVALUE DUP1 ISZERO PUSH2 0x181 JUMPI PUSH0 DUP1 REVERT JUMPDEST POP PUSH2 0x12E PUSH2 0x190 CALLDATASIZE PUSH1 0x4 PUSH2 0xF65 JUMP JUMPDEST PUSH1 0x8 PUSH1 0x20 MSTORE PUSH0 SWAP1 DUP2 MSTORE PUSH1 0x40 SWAP1 KECCAK256 SLOAD DUP2 JUMP JUMPDEST CALLVALUE DUP1 ISZERO PUSH2 0x1AC JUMPI PUSH0 DUP1 REVERT JUMPDEST POP PUSH1 0x9 SLOAD PUSH1 0xA SLOAD PUSH1 0xB SLOAD PUSH1 0xD SLOAD PUSH1 0xE SLOAD PUSH2 0x1CD SWAP5 PUSH1 0xFF SWAP1 DUP2 AND SWAP5 SWAP4 SWAP3 AND SWAP1 DUP6 JUMP JUMPDEST PUSH1 0x40 DUP1 MLOAD SWAP6 ISZERO ISZERO DUP7 MSTORE PUSH1 0x20 DUP7 ADD SWAP5 SWAP1 SWAP5 MSTORE SWAP3 DUP5 ADD SWAP2 SWAP1 SWAP2 MSTORE ISZERO ISZERO PUSH1 0x60 DUP4 ADD MSTORE PUSH1 0x80 DUP3 ADD MSTORE PUSH1 0xA0 ADD PUSH2 0x138 JUMP JUMPDEST CALLVALUE DUP1 ISZERO PUSH2 0x204 JUMPI PUSH0 DUP1 REVERT JUMPDEST POP PUSH2 0x155 PUSH2 0x213 CALLDATASIZE PUSH1 0x4 PUSH2 0xF85 JUMP JUMPDEST PUSH2 0x5F4 JUMP JUMPDEST CALLVALUE DUP1 ISZERO PUSH2 0x223 JUMPI PUSH0 DUP1 REVERT JUMPDEST POP PUSH2 0x12E PUSH1 0x6 SLOAD DUP2 JUMP JUMPDEST CALLVALUE DUP1 ISZERO PUSH2 0x238 JUMPI PUSH0 DUP1 REVERT JUMPDEST POP PUSH2 0x155 PUSH2 0x247 CALLDATASIZE PUSH1 0x4 PUSH2 0x10AF JUMP JUMPDEST PUSH2 0x6B2 JUMP JUMPDEST CALLVALUE DUP1 ISZERO PUSH2 0x257 JUMPI PUSH0 DUP1 REVERT JUMPDEST POP PUSH2 0x155 PUSH2 0x751 JUMP JUMPDEST CALLVALUE DUP1 ISZERO PUSH2 0x26B JUMPI PUSH0 DUP1 REVERT JUMPDEST POP PUSH2 0x274 PUSH2 0x805 JUMP JUMPDEST PUSH1 0x40 MLOAD PUSH2 0x138 SWAP13 SWAP12 SWAP11 SWAP10 SWAP9 SWAP8 SWAP7 SWAP6 SWAP5 SWAP4 SWAP3 SWAP2 SWAP1 PUSH2 0x11DF JUMP JUMPDEST CALLVALUE DUP1 ISZERO PUSH2 0x297 JUMPI PUSH0 DUP1 REVERT JUMPDEST POP PUSH1 0x12 SLOAD PUSH2 0x2AB SWAP1 PUSH1 0x1 PUSH1 0x1 PUSH1 0xA0 SHL SUB AND DUP2 JUMP JUMPDEST PUSH1 0x40 MLOAD PUSH1 0x1 PUSH1 0x1 PUSH1 0xA0 SHL SUB SWAP1 SWAP2 AND DUP2 MSTORE PUSH1 0x20 ADD PUSH2 0x138 JUMP JUMPDEST CALLVALUE DUP1 ISZERO PUSH2 0x2CE JUMPI PUSH0 DUP1 REVERT JUMPDEST POP PUSH1 0x2 SLOAD PUSH2 0x2AB SWAP1 PUSH1 0x1 PUSH1 0x1 PUSH1 0xA0 SHL SUB AND DUP2 JUMP JUMPDEST CALLVALUE DUP1 ISZERO PUSH2 0x2ED JUMPI PUSH0 DUP1 REVERT JUMPDEST POP PUSH2 0x12E PUSH1 0x7 SLOAD DUP2 JUMP JUMPDEST CALLVALUE DUP1 ISZERO PUSH2 0x302 JUMPI PUSH0 DUP1 REVERT JUMPDEST POP PUSH1 0x1 SLOAD PUSH2 0x2AB SWAP1 PUSH1 0x1 PUSH1 0x1 PUSH1 0xA0 SHL SUB AND DUP2 JUMP JUMPDEST CALLVALUE DUP1 ISZERO PUSH2 0x321 JUMPI PUSH0 DUP1 REVERT JUMPDEST POP PUSH2 0x12E PUSH1 0x4 SLOAD DUP2 JUMP JUMPDEST CALLVALUE DUP1 ISZERO PUSH2 0x336 JUMPI PUSH0 DUP1 REVERT JUMPDEST POP PUSH2 0x33F PUSH2 0x91B JUMP JUMPDEST PUSH1 0x40 MLOAD PUSH2 0x138 SWAP2 SWAP1 PUSH2 0x1255 JUMP JUMPDEST CALLVALUE DUP1 ISZERO PUSH2 0x357 JUMPI PUSH0 DUP1 REVERT JUMPDEST POP PUSH2 0x12E PUSH1 0x5 SLOAD DUP2 JUMP JUMPDEST CALLVALUE DUP1 ISZERO PUSH2 0x36C JUMPI PUSH0 DUP1 REVERT JUMPDEST POP PUSH2 0x155 PUSH2 0x37B CALLDATASIZE PUSH1 0x4 PUSH2 0x1267 JUMP JUMPDEST PUSH2 0x9A7 JUMP JUMPDEST CALLVALUE DUP1 ISZERO PUSH2 0x38B JUMPI PUSH0 DUP1 REVERT JUMPDEST POP PUSH2 0x155 PUSH2 0x39A CALLDATASIZE PUSH1 0x4 PUSH2 0x127E JUMP JUMPDEST PUSH2 0xA86 JUMP JUMPDEST PUSH2 0x155 PUSH2 0xBA8 JUMP JUMPDEST CALLVALUE DUP1 ISZERO PUSH2 0x3B2 JUMPI PUSH0 DUP1 REVERT JUMPDEST POP PUSH2 0x12E PUSH2 0x3C1 CALLDATASIZE PUSH1 0x4 PUSH2 0xF65 JUMP JUMPDEST PUSH1 0x1 PUSH1 0x1 PUSH1 0xA0 SHL SUB AND PUSH0 SWAP1 DUP2 MSTORE PUSH1 0xC PUSH1 0x20 MSTORE PUSH1 0x40 SWAP1 KECCAK256 SLOAD SWAP1 JUMP JUMPDEST CALLVALUE DUP1 ISZERO PUSH2 0x3E6 JUMPI PUSH0 DUP1 REVERT JUMPDEST POP PUSH2 0x3FA PUSH2 0x3F5 CALLDATASIZE PUSH1 0x4 PUSH2 0x1267 JUMP JUMPDEST PUSH2 0xC0C JUMP JUMPDEST PUSH1 0x40 MLOAD PUSH2 0x138 SWAP4 SWAP3 SWAP2 SWAP1 PUSH2 0x12D0 JUMP JUMPDEST CALLVALUE DUP1 ISZERO PUSH2 0x414 JUMPI PUSH0 DUP1 REVERT JUMPDEST POP PUSH2 0x155 PUSH2 0x423 CALLDATASIZE PUSH1 0x4 PUSH2 0x1267 JUMP JUMPDEST PUSH2 0xCD0 JUMP JUMPDEST CALLVALUE DUP1 ISZERO PUSH2 0x433 JUMPI PUSH0 DUP1 REVERT JUMPDEST POP PUSH2 0x1CD PUSH2 0x442 CALLDATASIZE PUSH1 0x4 PUSH2 0x1267 JUMP JUMPDEST PUSH2 0xE13 JUMP JUMPDEST PUSH1 0x5 SLOAD SELFBALANCE LT ISZERO PUSH2 0x455 JUMPI PUSH0 DUP1 REVERT JUMPDEST CALLER PUSH0 SWAP1 DUP2 MSTORE PUSH1 0x8 PUSH1 0x20 MSTORE PUSH1 0x40 SWAP1 KECCAK256 SLOAD PUSH2 0x46C JUMPI PUSH0 DUP1 REVERT JUMPDEST CALLER PUSH0 SWAP1 DUP2 MSTORE PUSH1 0xC PUSH1 0x20 MSTORE PUSH1 0x40 SWAP1 KECCAK256 SLOAD ISZERO PUSH2 0x484 JUMPI PUSH0 DUP1 REVERT JUMPDEST PUSH0 JUMPDEST PUSH1 0x11 SLOAD DUP2 LT ISZERO PUSH2 0x4C6 JUMPI PUSH1 0x11 DUP2 DUP2 SLOAD DUP2 LT PUSH2 0x4A3 JUMPI PUSH2 0x4A3 PUSH2 0x1303 JUMP JUMPDEST PUSH0 SWAP2 DUP3 MSTORE PUSH1 0x20 SWAP1 SWAP2 KECCAK256 PUSH1 0x7 SWAP1 SWAP2 MUL ADD SLOAD PUSH1 0xFF AND PUSH2 0x4BE JUMPI PUSH0 DUP1 REVERT JUMPDEST PUSH1 0x1 ADD PUSH2 0x486 JUMP JUMPDEST POP CALLER PUSH0 SWAP1 DUP2 MSTORE PUSH1 0xC PUSH1 0x20 MSTORE PUSH1 0x40 DUP2 KECCAK256 TIMESTAMP SWAP1 SSTORE PUSH1 0xB DUP1 SLOAD SWAP2 PUSH2 0x4E6 DUP4 PUSH2 0x132B JUMP JUMPDEST SWAP2 SWAP1 POP SSTORE POP PUSH1 0x2 PUSH1 0x7 SLOAD PUSH2 0x4FA SWAP2 SWAP1 PUSH2 0x1343 JUMP JUMPDEST PUSH1 0xB SLOAD GT ISZERO PUSH2 0x515 JUMPI PUSH1 0x9 DUP1 SLOAD PUSH1 0xFF NOT AND PUSH1 0x1 OR SWAP1 SSTORE TIMESTAMP PUSH1 0xA SSTORE JUMPDEST JUMP JUMPDEST PUSH0 PUSH1 0x11 DUP4 DUP2 SLOAD DUP2 LT PUSH2 0x52B JUMPI PUSH2 0x52B PUSH2 0x1303 JUMP JUMPDEST PUSH0 SWAP2 DUP3 MSTORE PUSH1 0x20 DUP1 DUP4 KECCAK256 CALLER DUP5 MSTORE PUSH1 0x3 PUSH1 0x7 SWAP1 SWAP4 MUL ADD SWAP2 DUP3 ADD SWAP1 MSTORE PUSH1 0x40 SWAP1 SWAP2 KECCAK256 SLOAD SWAP1 SWAP2 POP DUP1 PUSH2 0x556 JUMPI PUSH0 DUP1 REVERT JUMPDEST CALLER PUSH0 SWAP1 DUP2 MSTORE PUSH1 0x6 DUP4 ADD PUSH1 0x20 MSTORE PUSH1 0x40 SWAP1 KECCAK256 SLOAD PUSH1 0xFF AND ISZERO PUSH2 0x573 JUMPI PUSH0 DUP1 REVERT JUMPDEST CALLER PUSH0 DUP2 DUP2 MSTORE PUSH1 0x6 DUP5 ADD PUSH1 0x20 MSTORE PUSH1 0x40 SWAP1 DUP2 SWAP1 KECCAK256 DUP1 SLOAD PUSH1 0xFF NOT AND PUSH1 0x1 OR SWAP1 SSTORE PUSH1 0x12 SLOAD SWAP1 MLOAD PUSH4 0x6902622F PUSH1 0xE1 SHL DUP2 MSTORE PUSH1 0x1 PUSH1 0x1 PUSH1 0xA0 SHL SUB SWAP2 SWAP1 SWAP2 AND SWAP2 PUSH4 0xD204C45E SWAP2 PUSH2 0x5C1 SWAP2 SWAP1 DUP8 SWAP1 PUSH1 0x4 ADD PUSH2 0x1362 JUMP JUMPDEST PUSH0 PUSH1 0x40 MLOAD DUP1 DUP4 SUB DUP2 PUSH0 DUP8 DUP1 EXTCODESIZE ISZERO DUP1 ISZERO PUSH2 0x5D8 JUMPI PUSH0 DUP1 REVERT JUMPDEST POP GAS CALL ISZERO DUP1 ISZERO PUSH2 0x5EA JUMPI RETURNDATASIZE PUSH0 DUP1 RETURNDATACOPY RETURNDATASIZE PUSH0 REVERT JUMPDEST POP POP POP POP POP POP POP POP JUMP JUMPDEST PUSH1 0x9 SLOAD PUSH1 0xFF AND PUSH2 0x602 JUMPI PUSH0 DUP1 REVERT JUMPDEST CALLER PUSH0 SWAP1 DUP2 MSTORE PUSH1 0xC PUSH1 0x20 MSTORE PUSH1 0x40 SWAP1 KECCAK256 SLOAD DUP1 PUSH2 0x61A JUMPI PUSH0 DUP1 REVERT JUMPDEST CALLER PUSH0 SWAP1 DUP2 MSTORE PUSH1 0xF PUSH1 0x20 MSTORE PUSH1 0x40 SWAP1 KECCAK256 SLOAD PUSH1 0xFF AND ISZERO PUSH2 0x635 JUMPI PUSH0 DUP1 REVERT JUMPDEST CALLER PUSH0 DUP2 DUP2 MSTORE PUSH1 0xF PUSH1 0x20 MSTORE PUSH1 0x40 SWAP1 DUP2 SWAP1 KECCAK256 DUP1 SLOAD PUSH1 0xFF NOT AND PUSH1 0x1 OR SWAP1 SSTORE PUSH1 0x12 SLOAD SWAP1 MLOAD PUSH4 0x6902622F PUSH1 0xE1 SHL DUP2 MSTORE PUSH1 0x1 PUSH1 0x1 PUSH1 0xA0 SHL SUB SWAP2 SWAP1 SWAP2 AND SWAP2 PUSH4 0xD204C45E SWAP2 PUSH2 0x681 SWAP2 SWAP1 DUP7 SWAP1 PUSH1 0x4 ADD PUSH2 0x1362 JUMP JUMPDEST PUSH0 PUSH1 0x40 MLOAD DUP1 DUP4 SUB DUP2 PUSH0 DUP8 DUP1 EXTCODESIZE ISZERO DUP1 ISZERO PUSH2 0x698 JUMPI PUSH0 DUP1 REVERT JUMPDEST POP GAS CALL ISZERO DUP1 ISZERO PUSH2 0x6AA JUMPI RETURNDATASIZE PUSH0 DUP1 RETURNDATACOPY RETURNDATASIZE PUSH0 REVERT JUMPDEST POP POP POP POP POP POP JUMP JUMPDEST PUSH1 0x1 SLOAD PUSH1 0x1 PUSH1 0x1 PUSH1 0xA0 SHL SUB AND CALLER EQ PUSH2 0x6C8 JUMPI PUSH0 DUP1 REVERT JUMPDEST DUP2 MLOAD DUP4 MLOAD EQ DUP1 ISZERO PUSH2 0x6DA JUMPI POP DUP1 MLOAD DUP3 MLOAD EQ JUMPDEST PUSH2 0x6E2 JUMPI PUSH0 DUP1 REVERT JUMPDEST PUSH0 JUMPDEST DUP4 MLOAD DUP2 LT ISZERO PUSH2 0x74B JUMPI PUSH2 0x743 DUP5 DUP3 DUP2 MLOAD DUP2 LT PUSH2 0x702 JUMPI PUSH2 0x702 PUSH2 0x1303 JUMP JUMPDEST PUSH1 0x20 MUL PUSH1 0x20 ADD ADD MLOAD DUP5 DUP4 DUP2 MLOAD DUP2 LT PUSH2 0x71C JUMPI PUSH2 0x71C PUSH2 0x1303 JUMP JUMPDEST PUSH1 0x20 MUL PUSH1 0x20 ADD ADD MLOAD DUP5 DUP5 DUP2 MLOAD DUP2 LT PUSH2 0x736 JUMPI PUSH2 0x736 PUSH2 0x1303 JUMP JUMPDEST PUSH1 0x20 MUL PUSH1 0x20 ADD ADD MLOAD PUSH2 0xA86 JUMP JUMPDEST PUSH1 0x1 ADD PUSH2 0x6E4 JUMP JUMPDEST POP POP POP POP JUMP JUMPDEST PUSH1 0x1 SLOAD PUSH1 0x1 PUSH1 0x1 PUSH1 0xA0 SHL SUB AND CALLER EQ PUSH2 0x767 JUMPI PUSH0 DUP1 REVERT JUMPDEST PUSH1 0x9 SLOAD PUSH1 0xFF AND PUSH2 0x775 JUMPI PUSH0 DUP1 REVERT JUMPDEST PUSH0 JUMPDEST PUSH1 0x11 SLOAD DUP2 LT ISZERO PUSH2 0x7BA JUMPI PUSH1 0x11 DUP2 DUP2 SLOAD DUP2 LT PUSH2 0x794 JUMPI PUSH2 0x794 PUSH2 0x1303 JUMP JUMPDEST PUSH0 SWAP2 DUP3 MSTORE PUSH1 0x20 SWAP1 SWAP2 KECCAK256 PUSH1 0x4 PUSH1 0x7 SWAP1 SWAP3 MUL ADD ADD SLOAD PUSH1 0xFF AND PUSH2 0x7B2 JUMPI PUSH0 DUP1 REVERT JUMPDEST PUSH1 0x1 ADD PUSH2 0x777 JUMP JUMPDEST POP PUSH1 0x2 SLOAD PUSH1 0x40 MLOAD PUSH1 0x1 PUSH1 0x1 PUSH1 0xA0 SHL SUB SWAP1 SWAP2 AND SWAP1 SELFBALANCE DUP1 ISZERO PUSH2 0x8FC MUL SWAP2 PUSH0 DUP2 DUP2 DUP2 DUP6 DUP9 DUP9 CALL SWAP4 POP POP POP POP ISZERO DUP1 ISZERO PUSH2 0x7F1 JUMPI RETURNDATASIZE PUSH0 DUP1 RETURNDATACOPY RETURNDATASIZE PUSH0 REVERT JUMPDEST POP PUSH1 0xD DUP1 SLOAD PUSH1 0xFF NOT AND PUSH1 0x1 OR SWAP1 SSTORE TIMESTAMP PUSH1 0xE SSTORE JUMP JUMPDEST PUSH0 DUP1 PUSH1 0x60 PUSH0 DUP1 PUSH0 DUP1 PUSH0 DUP1 PUSH0 DUP1 PUSH0 SELFBALANCE PUSH1 0x2 PUSH0 SWAP1 SLOAD SWAP1 PUSH2 0x100 EXP SWAP1 DIV PUSH1 0x1 PUSH1 0x1 PUSH1 0xA0 SHL SUB AND PUSH1 0x3 PUSH1 0x4 SLOAD PUSH1 0x5 SLOAD PUSH1 0x6 SLOAD PUSH1 0x7 SLOAD PUSH1 0x9 PUSH0 ADD PUSH0 SWAP1 SLOAD SWAP1 PUSH2 0x100 EXP SWAP1 DIV PUSH1 0xFF AND PUSH1 0x9 PUSH1 0x1 ADD SLOAD PUSH1 0x9 PUSH1 0x2 ADD SLOAD PUSH1 0x9 PUSH1 0x4 ADD PUSH0 SWAP1 SLOAD SWAP1 PUSH2 0x100 EXP SWAP1 DIV PUSH1 0xFF AND PUSH1 0x9 PUSH1 0x5 ADD SLOAD DUP10 DUP1 SLOAD PUSH2 0x877 SWAP1 PUSH2 0x1385 JUMP JUMPDEST DUP1 PUSH1 0x1F ADD PUSH1 0x20 DUP1 SWAP2 DIV MUL PUSH1 0x20 ADD PUSH1 0x40 MLOAD SWAP1 DUP2 ADD PUSH1 0x40 MSTORE DUP1 SWAP3 SWAP2 SWAP1 DUP2 DUP2 MSTORE PUSH1 0x20 ADD DUP3 DUP1 SLOAD PUSH2 0x8A3 SWAP1 PUSH2 0x1385 JUMP JUMPDEST DUP1 ISZERO PUSH2 0x8EE JUMPI DUP1 PUSH1 0x1F LT PUSH2 0x8C5 JUMPI PUSH2 0x100 DUP1 DUP4 SLOAD DIV MUL DUP4 MSTORE SWAP2 PUSH1 0x20 ADD SWAP2 PUSH2 0x8EE JUMP JUMPDEST DUP3 ADD SWAP2 SWAP1 PUSH0 MSTORE PUSH1 0x20 PUSH0 KECCAK256 SWAP1 JUMPDEST DUP2 SLOAD DUP2 MSTORE SWAP1 PUSH1 0x1 ADD SWAP1 PUSH1 0x20 ADD DUP1 DUP4 GT PUSH2 0x8D1 JUMPI DUP3 SWAP1 SUB PUSH1 0x1F AND DUP3 ADD SWAP2 JUMPDEST POP POP POP POP POP SWAP10 POP SWAP12 POP SWAP12 POP SWAP12 POP SWAP12 POP SWAP12 POP SWAP12 POP SWAP12 POP SWAP12 POP SWAP12 POP SWAP12 POP SWAP12 POP SWAP12 POP SWAP1 SWAP2 SWAP3 SWAP4 SWAP5 SWAP6 SWAP7 SWAP8 SWAP9 SWAP10 SWAP11 SWAP12 JUMP JUMPDEST PUSH1 0x3 DUP1 SLOAD PUSH2 0x928 SWAP1 PUSH2 0x1385 JUMP JUMPDEST DUP1 PUSH1 0x1F ADD PUSH1 0x20 DUP1 SWAP2 DIV MUL PUSH1 0x20 ADD PUSH1 0x40 MLOAD SWAP1 DUP2 ADD PUSH1 0x40 MSTORE DUP1 SWAP3 SWAP2 SWAP1 DUP2 DUP2 MSTORE PUSH1 0x20 ADD DUP3 DUP1 SLOAD PUSH2 0x954 SWAP1 PUSH2 0x1385 JUMP JUMPDEST DUP1 ISZERO PUSH2 0x99F JUMPI DUP1 PUSH1 0x1F LT PUSH2 0x976 JUMPI PUSH2 0x100 DUP1 DUP4 SLOAD DIV MUL DUP4 MSTORE SWAP2 PUSH1 0x20 ADD SWAP2 PUSH2 0x99F JUMP JUMPDEST DUP3 ADD SWAP2 SWAP1 PUSH0 MSTORE PUSH1 0x20 PUSH0 KECCAK256 SWAP1 JUMPDEST DUP2 SLOAD DUP2 MSTORE SWAP1 PUSH1 0x1 ADD SWAP1 PUSH1 0x20 ADD DUP1 DUP4 GT PUSH2 0x982 JUMPI DUP3 SWAP1 SUB PUSH1 0x1F AND DUP3 ADD SWAP2 JUMPDEST POP POP POP POP POP DUP2 JUMP JUMPDEST PUSH0 PUSH1 0x10 DUP3 DUP2 SLOAD DUP2 LT PUSH2 0x9BB JUMPI PUSH2 0x9BB PUSH2 0x1303 JUMP JUMPDEST SWAP1 PUSH0 MSTORE PUSH1 0x20 PUSH0 KECCAK256 SWAP1 PUSH1 0x3 MUL ADD SWAP1 POP PUSH0 PUSH1 0x11 DUP4 DUP2 SLOAD DUP2 LT PUSH2 0x9DD JUMPI PUSH2 0x9DD PUSH2 0x1303 JUMP JUMPDEST SWAP1 PUSH0 MSTORE PUSH1 0x20 PUSH0 KECCAK256 SWAP1 PUSH1 0x7 MUL ADD SWAP1 POP DUP2 PUSH1 0x2 ADD SLOAD SELFBALANCE LT ISZERO PUSH2 0x9FB JUMPI PUSH0 DUP1 REVERT JUMPDEST CALLER PUSH0 SWAP1 DUP2 MSTORE PUSH1 0x8 PUSH1 0x20 MSTORE PUSH1 0x40 SWAP1 KECCAK256 SLOAD PUSH2 0xA12 JUMPI PUSH0 DUP1 REVERT JUMPDEST CALLER PUSH0 SWAP1 DUP2 MSTORE PUSH1 0x3 DUP3 ADD PUSH1 0x20 MSTORE PUSH1 0x40 SWAP1 KECCAK256 SLOAD ISZERO PUSH2 0xA2C JUMPI PUSH0 DUP1 REVERT JUMPDEST CALLER PUSH0 SWAP1 DUP2 MSTORE PUSH1 0x3 DUP3 ADD PUSH1 0x20 MSTORE PUSH1 0x40 DUP2 KECCAK256 TIMESTAMP SWAP1 SSTORE PUSH1 0x2 DUP3 ADD DUP1 SLOAD SWAP2 PUSH2 0xA4F DUP4 PUSH2 0x132B JUMP JUMPDEST SWAP2 SWAP1 POP SSTORE POP PUSH1 0x2 PUSH1 0x7 SLOAD PUSH2 0xA63 SWAP2 SWAP1 PUSH2 0x1343 JUMP JUMPDEST DUP2 PUSH1 0x2 ADD SLOAD GT ISZERO PUSH2 0xA81 JUMPI DUP1 SLOAD PUSH1 0xFF NOT AND PUSH1 0x1 SWAP1 DUP2 OR DUP3 SSTORE TIMESTAMP SWAP1 DUP3 ADD SSTORE JUMPDEST POP POP POP JUMP JUMPDEST PUSH1 0x1 SLOAD PUSH1 0x1 PUSH1 0x1 PUSH1 0xA0 SHL SUB AND CALLER EQ PUSH2 0xA9C JUMPI PUSH0 DUP1 REVERT JUMPDEST PUSH0 DUP4 MLOAD GT PUSH2 0xAA8 JUMPI PUSH0 DUP1 REVERT JUMPDEST PUSH0 DUP3 GT PUSH2 0xAB3 JUMPI PUSH0 DUP1 REVERT JUMPDEST PUSH1 0x5 SLOAD DUP3 LT PUSH2 0xAC0 JUMPI PUSH0 DUP1 REVERT JUMPDEST PUSH1 0x1 PUSH1 0x1 PUSH1 0xA0 SHL SUB DUP2 AND PUSH2 0xAD2 JUMPI PUSH0 DUP1 REVERT JUMPDEST PUSH1 0x10 SLOAD ISZERO PUSH2 0xB14 JUMPI PUSH1 0x10 DUP1 SLOAD PUSH2 0xAEA SWAP1 PUSH1 0x1 SWAP1 PUSH2 0x13BD JUMP JUMPDEST DUP2 SLOAD DUP2 LT PUSH2 0xAFA JUMPI PUSH2 0xAFA PUSH2 0x1303 JUMP JUMPDEST SWAP1 PUSH0 MSTORE PUSH1 0x20 PUSH0 KECCAK256 SWAP1 PUSH1 0x3 MUL ADD PUSH1 0x2 ADD SLOAD DUP3 GT PUSH2 0xB14 JUMPI PUSH0 DUP1 REVERT JUMPDEST PUSH1 0x10 DUP1 SLOAD PUSH1 0x1 DUP2 ADD DUP3 SSTORE PUSH0 SWAP2 SWAP1 SWAP2 MSTORE PUSH1 0x3 MUL PUSH32 0x1B6847DC741A1B0CD08D278845F9D819D87B734759AFB55FE2DE5CB82A9AE672 DUP2 ADD SWAP1 PUSH32 0x1B6847DC741A1B0CD08D278845F9D819D87B734759AFB55FE2DE5CB82A9AE673 ADD PUSH2 0xB76 DUP6 DUP3 PUSH2 0x1421 JUMP JUMPDEST POP PUSH1 0x2 DUP2 ADD SWAP3 SWAP1 SWAP3 SSTORE DUP2 SLOAD PUSH1 0x1 PUSH1 0x1 PUSH1 0xA0 SHL SUB NOT AND PUSH1 0x1 PUSH1 0x1 PUSH1 0xA0 SHL SUB SWAP2 SWAP1 SWAP2 AND OR SWAP1 SSTORE POP PUSH1 0x11 DUP1 SLOAD PUSH1 0x1 ADD DUP2 SSTORE PUSH0 MSTORE JUMP JUMPDEST PUSH1 0x4 SLOAD CALLVALUE GT PUSH2 0xBB5 JUMPI PUSH0 DUP1 REVERT JUMPDEST PUSH1 0x5 SLOAD CALLVALUE LT PUSH2 0xBC2 JUMPI PUSH0 DUP1 REVERT JUMPDEST PUSH1 0x6 SLOAD TIMESTAMP LT PUSH2 0xBCF JUMPI PUSH0 DUP1 REVERT JUMPDEST CALLER PUSH0 SWAP1 DUP2 MSTORE PUSH1 0x8 PUSH1 0x20 MSTORE PUSH1 0x40 DUP2 KECCAK256 SLOAD SWAP1 SUB PUSH2 0xBF9 JUMPI PUSH1 0x7 DUP1 SLOAD SWAP1 PUSH0 PUSH2 0xBF3 DUP4 PUSH2 0x132B JUMP JUMPDEST SWAP2 SWAP1 POP SSTORE POP JUMPDEST CALLER PUSH0 SWAP1 DUP2 MSTORE PUSH1 0x8 PUSH1 0x20 MSTORE PUSH1 0x40 SWAP1 KECCAK256 TIMESTAMP SWAP1 SSTORE JUMP JUMPDEST PUSH1 0x10 DUP2 DUP2 SLOAD DUP2 LT PUSH2 0xC1B JUMPI PUSH0 DUP1 REVERT JUMPDEST PUSH0 SWAP2 DUP3 MSTORE PUSH1 0x20 SWAP1 SWAP2 KECCAK256 PUSH1 0x3 SWAP1 SWAP2 MUL ADD DUP1 SLOAD PUSH1 0x1 DUP3 ADD DUP1 SLOAD PUSH1 0x1 PUSH1 0x1 PUSH1 0xA0 SHL SUB SWAP1 SWAP3 AND SWAP4 POP SWAP1 PUSH2 0xC49 SWAP1 PUSH2 0x1385 JUMP JUMPDEST DUP1 PUSH1 0x1F ADD PUSH1 0x20 DUP1 SWAP2 DIV MUL PUSH1 0x20 ADD PUSH1 0x40 MLOAD SWAP1 DUP2 ADD PUSH1 0x40 MSTORE DUP1 SWAP3 SWAP2 SWAP1 DUP2 DUP2 MSTORE PUSH1 0x20 ADD DUP3 DUP1 SLOAD PUSH2 0xC75 SWAP1 PUSH2 0x1385 JUMP JUMPDEST DUP1 ISZERO PUSH2 0xCC0 JUMPI DUP1 PUSH1 0x1F LT PUSH2 0xC97 JUMPI PUSH2 0x100 DUP1 DUP4 SLOAD DIV MUL DUP4 MSTORE SWAP2 PUSH1 0x20 ADD SWAP2 PUSH2 0xCC0 JUMP JUMPDEST DUP3 ADD SWAP2 SWAP1 PUSH0 MSTORE PUSH1 0x20 PUSH0 KECCAK256 SWAP1 JUMPDEST DUP2 SLOAD DUP2 MSTORE SWAP1 PUSH1 0x1 ADD SWAP1 PUSH1 0x20 ADD DUP1 DUP4 GT PUSH2 0xCA3 JUMPI DUP3 SWAP1 SUB PUSH1 0x1F AND DUP3 ADD SWAP2 JUMPDEST POP POP POP POP POP SWAP1 DUP1 PUSH1 0x2 ADD SLOAD SWAP1 POP DUP4 JUMP JUMPDEST PUSH1 0x1 SLOAD PUSH1 0x1 PUSH1 0x1 PUSH1 0xA0 SHL SUB AND CALLER EQ PUSH2 0xCE6 JUMPI PUSH0 DUP1 REVERT JUMPDEST PUSH1 0x10 SLOAD DUP2 LT PUSH2 0xCF3 JUMPI PUSH0 DUP1 REVERT JUMPDEST PUSH0 PUSH1 0x10 DUP3 DUP2 SLOAD DUP2 LT PUSH2 0xD07 JUMPI PUSH2 0xD07 PUSH2 0x1303 JUMP JUMPDEST SWAP1 PUSH0 MSTORE PUSH1 0x20 PUSH0 KECCAK256 SWAP1 PUSH1 0x3 MUL ADD SWAP1 POP PUSH0 PUSH1 0x11 DUP4 DUP2 SLOAD DUP2 LT PUSH2 0xD29 JUMPI PUSH2 0xD29 PUSH2 0x1303 JUMP JUMPDEST PUSH0 SWAP2 DUP3 MSTORE PUSH1 0x20 SWAP1 SWAP2 KECCAK256 PUSH1 0x7 SWAP1 SWAP2 MUL ADD DUP1 SLOAD SWAP1 SWAP2 POP PUSH1 0xFF AND PUSH2 0xD48 JUMPI PUSH0 DUP1 REVERT JUMPDEST PUSH1 0x2 DUP3 ADD SLOAD PUSH0 JUMPDEST DUP5 DUP2 LT ISZERO PUSH2 0xDC0 JUMPI PUSH1 0x11 DUP2 DUP2 SLOAD DUP2 LT PUSH2 0xD6A JUMPI PUSH2 0xD6A PUSH2 0x1303 JUMP JUMPDEST PUSH0 SWAP2 DUP3 MSTORE PUSH1 0x20 SWAP1 SWAP2 KECCAK256 PUSH1 0x4 PUSH1 0x7 SWAP1 SWAP3 MUL ADD ADD SLOAD PUSH1 0xFF AND PUSH2 0xD88 JUMPI PUSH0 DUP1 REVERT JUMPDEST PUSH1 0x10 DUP2 DUP2 SLOAD DUP2 LT PUSH2 0xD9B JUMPI PUSH2 0xD9B PUSH2 0x1303 JUMP JUMPDEST SWAP1 PUSH0 MSTORE PUSH1 0x20 PUSH0 KECCAK256 SWAP1 PUSH1 0x3 MUL ADD PUSH1 0x2 ADD SLOAD DUP3 PUSH2 0xDB6 SWAP2 SWAP1 PUSH2 0x13BD JUMP JUMPDEST SWAP2 POP PUSH1 0x1 ADD PUSH2 0xD4F JUMP JUMPDEST POP DUP3 SLOAD PUSH1 0x40 MLOAD PUSH1 0x1 PUSH1 0x1 PUSH1 0xA0 SHL SUB SWAP1 SWAP2 AND SWAP1 DUP3 ISZERO PUSH2 0x8FC MUL SWAP1 DUP4 SWAP1 PUSH0 DUP2 DUP2 DUP2 DUP6 DUP9 DUP9 CALL SWAP4 POP POP POP POP ISZERO DUP1 ISZERO PUSH2 0xDF7 JUMPI RETURNDATASIZE PUSH0 DUP1 RETURNDATACOPY RETURNDATASIZE PUSH0 REVERT JUMPDEST POP POP PUSH1 0x4 DUP2 ADD DUP1 SLOAD PUSH1 0xFF NOT AND PUSH1 0x1 OR SWAP1 SSTORE TIMESTAMP PUSH1 0x5 SWAP1 SWAP2 ADD SSTORE POP POP JUMP JUMPDEST PUSH1 0x11 DUP2 DUP2 SLOAD DUP2 LT PUSH2 0xE22 JUMPI PUSH0 DUP1 REVERT JUMPDEST PUSH0 SWAP2 DUP3 MSTORE PUSH1 0x20 SWAP1 SWAP2 KECCAK256 PUSH1 0x7 SWAP1 SWAP2 MUL ADD DUP1 SLOAD PUSH1 0x1 DUP3 ADD SLOAD PUSH1 0x2 DUP4 ADD SLOAD PUSH1 0x4 DUP5 ADD SLOAD PUSH1 0x5 SWAP1 SWAP5 ADD SLOAD PUSH1 0xFF SWAP4 DUP5 AND SWAP6 POP SWAP2 SWAP4 SWAP1 SWAP3 AND SWAP1 DUP6 JUMP JUMPDEST PUSH4 0x4E487B71 PUSH1 0xE0 SHL PUSH0 MSTORE PUSH1 0x41 PUSH1 0x4 MSTORE PUSH1 0x24 PUSH0 REVERT JUMPDEST PUSH1 0x40 MLOAD PUSH1 0x1F DUP3 ADD PUSH1 0x1F NOT AND DUP2 ADD PUSH1 0x1 PUSH1 0x1 PUSH1 0x40 SHL SUB DUP2 GT DUP3 DUP3 LT OR ISZERO PUSH2 0xE94 JUMPI PUSH2 0xE94 PUSH2 0xE58 JUMP JUMPDEST PUSH1 0x40 MSTORE SWAP2 SWAP1 POP JUMP JUMPDEST PUSH0 DUP3 PUSH1 0x1F DUP4 ADD SLT PUSH2 0xEAB JUMPI PUSH0 DUP1 REVERT JUMPDEST DUP2 CALLDATALOAD PUSH1 0x1 PUSH1 0x1 PUSH1 0x40 SHL SUB DUP2 GT ISZERO PUSH2 0xEC4 JUMPI PUSH2 0xEC4 PUSH2 0xE58 JUMP JUMPDEST PUSH2 0xED7 PUSH1 0x1F DUP3 ADD PUSH1 0x1F NOT AND PUSH1 0x20 ADD PUSH2 0xE6C JUMP JUMPDEST DUP2 DUP2 MSTORE DUP5 PUSH1 0x20 DUP4 DUP7 ADD ADD GT ISZERO PUSH2 0xEEB JUMPI PUSH0 DUP1 REVERT JUMPDEST DUP2 PUSH1 0x20 DUP6 ADD PUSH1 0x20 DUP4 ADD CALLDATACOPY PUSH0 SWAP2 DUP2 ADD PUSH1 0x20 ADD SWAP2 SWAP1 SWAP2 MSTORE SWAP4 SWAP3 POP POP POP JUMP JUMPDEST PUSH0 DUP1 PUSH1 0x40 DUP4 DUP6 SUB SLT ISZERO PUSH2 0xF18 JUMPI PUSH0 DUP1 REVERT JUMPDEST DUP3 CALLDATALOAD SWAP2 POP PUSH1 0x20 DUP4 ADD CALLDATALOAD PUSH1 0x1 PUSH1 0x1 PUSH1 0x40 SHL SUB DUP2 GT ISZERO PUSH2 0xF34 JUMPI PUSH0 DUP1 REVERT JUMPDEST PUSH2 0xF40 DUP6 DUP3 DUP7 ADD PUSH2 0xE9C JUMP JUMPDEST SWAP2 POP POP SWAP3 POP SWAP3 SWAP1 POP JUMP JUMPDEST DUP1 CALLDATALOAD PUSH1 0x1 PUSH1 0x1 PUSH1 0xA0 SHL SUB DUP2 AND DUP2 EQ PUSH2 0xF60 JUMPI PUSH0 DUP1 REVERT JUMPDEST SWAP2 SWAP1 POP JUMP JUMPDEST PUSH0 PUSH1 0x20 DUP3 DUP5 SUB SLT ISZERO PUSH2 0xF75 JUMPI PUSH0 DUP1 REVERT JUMPDEST PUSH2 0xF7E DUP3 PUSH2 0xF4A JUMP JUMPDEST SWAP4 SWAP3 POP POP POP JUMP JUMPDEST PUSH0 PUSH1 0x20 DUP3 DUP5 SUB SLT ISZERO PUSH2 0xF95 JUMPI PUSH0 DUP1 REVERT JUMPDEST DUP2 CALLDATALOAD PUSH1 0x1 PUSH1 0x1 PUSH1 0x40 SHL SUB DUP2 GT ISZERO PUSH2 0xFAA JUMPI PUSH0 DUP1 REVERT JUMPDEST PUSH2 0xFB6 DUP5 DUP3 DUP6 ADD PUSH2 0xE9C JUMP JUMPDEST SWAP5 SWAP4 POP POP POP POP JUMP JUMPDEST PUSH0 PUSH1 0x1 PUSH1 0x1 PUSH1 0x40 SHL SUB DUP3 GT ISZERO PUSH2 0xFD6 JUMPI PUSH2 0xFD6 PUSH2 0xE58 JUMP JUMPDEST POP PUSH1 0x5 SHL PUSH1 0x20 ADD SWAP1 JUMP JUMPDEST PUSH0 DUP3 PUSH1 0x1F DUP4 ADD SLT PUSH2 0xFEF JUMPI PUSH0 DUP1 REVERT JUMPDEST DUP2 CALLDATALOAD PUSH1 0x20 PUSH2 0x1004 PUSH2 0xFFF DUP4 PUSH2 0xFBE JUMP JUMPDEST PUSH2 0xE6C JUMP JUMPDEST DUP1 DUP4 DUP3 MSTORE PUSH1 0x20 DUP3 ADD SWAP2 POP PUSH1 0x20 DUP5 PUSH1 0x5 SHL DUP8 ADD ADD SWAP4 POP DUP7 DUP5 GT ISZERO PUSH2 0x1025 JUMPI PUSH0 DUP1 REVERT JUMPDEST PUSH1 0x20 DUP7 ADD JUMPDEST DUP5 DUP2 LT ISZERO PUSH2 0x1041 JUMPI DUP1 CALLDATALOAD DUP4 MSTORE SWAP2 DUP4 ADD SWAP2 DUP4 ADD PUSH2 0x102A JUMP JUMPDEST POP SWAP7 SWAP6 POP POP POP POP POP POP JUMP JUMPDEST PUSH0 DUP3 PUSH1 0x1F DUP4 ADD SLT PUSH2 0x105B JUMPI PUSH0 DUP1 REVERT JUMPDEST DUP2 CALLDATALOAD PUSH1 0x20 PUSH2 0x106B PUSH2 0xFFF DUP4 PUSH2 0xFBE JUMP JUMPDEST DUP1 DUP4 DUP3 MSTORE PUSH1 0x20 DUP3 ADD SWAP2 POP PUSH1 0x20 DUP5 PUSH1 0x5 SHL DUP8 ADD ADD SWAP4 POP DUP7 DUP5 GT ISZERO PUSH2 0x108C JUMPI PUSH0 DUP1 REVERT JUMPDEST PUSH1 0x20 DUP7 ADD JUMPDEST DUP5 DUP2 LT ISZERO PUSH2 0x1041 JUMPI PUSH2 0x10A2 DUP2 PUSH2 0xF4A JUMP JUMPDEST DUP4 MSTORE SWAP2 DUP4 ADD SWAP2 DUP4 ADD PUSH2 0x1091 JUMP JUMPDEST PUSH0 DUP1 PUSH0 PUSH1 0x60 DUP5 DUP7 SUB SLT ISZERO PUSH2 0x10C1 JUMPI PUSH0 DUP1 REVERT JUMPDEST DUP4 CALLDATALOAD PUSH1 0x1 PUSH1 0x1 PUSH1 0x40 SHL SUB DUP1 DUP3 GT ISZERO PUSH2 0x10D7 JUMPI PUSH0 DUP1 REVERT JUMPDEST DUP2 DUP7 ADD SWAP2 POP DUP7 PUSH1 0x1F DUP4 ADD SLT PUSH2 0x10EA JUMPI PUSH0 DUP1 REVERT JUMPDEST DUP2 CALLDATALOAD PUSH1 0x20 PUSH2 0x10FA PUSH2 0xFFF DUP4 PUSH2 0xFBE JUMP JUMPDEST DUP3 DUP2 MSTORE PUSH1 0x5 SWAP3 SWAP1 SWAP3 SHL DUP5 ADD DUP2 ADD SWAP2 DUP2 DUP2 ADD SWAP1 DUP11 DUP5 GT ISZERO PUSH2 0x1118 JUMPI PUSH0 DUP1 REVERT JUMPDEST DUP3 DUP7 ADD JUMPDEST DUP5 DUP2 LT ISZERO PUSH2 0x114E JUMPI DUP1 CALLDATALOAD DUP7 DUP2 GT ISZERO PUSH2 0x1132 JUMPI PUSH0 DUP1 REVERT JUMPDEST PUSH2 0x1140 DUP14 DUP7 DUP4 DUP12 ADD ADD PUSH2 0xE9C JUMP JUMPDEST DUP5 MSTORE POP SWAP2 DUP4 ADD SWAP2 DUP4 ADD PUSH2 0x111C JUMP JUMPDEST POP SWAP8 POP POP DUP8 ADD CALLDATALOAD SWAP3 POP POP DUP1 DUP3 GT ISZERO PUSH2 0x1164 JUMPI PUSH0 DUP1 REVERT JUMPDEST PUSH2 0x1170 DUP8 DUP4 DUP9 ADD PUSH2 0xFE0 JUMP JUMPDEST SWAP4 POP PUSH1 0x40 DUP7 ADD CALLDATALOAD SWAP2 POP DUP1 DUP3 GT ISZERO PUSH2 0x1185 JUMPI PUSH0 DUP1 REVERT JUMPDEST POP PUSH2 0x1192 DUP7 DUP3 DUP8 ADD PUSH2 0x104C JUMP JUMPDEST SWAP2 POP POP SWAP3 POP SWAP3 POP SWAP3 JUMP JUMPDEST PUSH0 DUP2 MLOAD DUP1 DUP5 MSTORE PUSH0 JUMPDEST DUP2 DUP2 LT ISZERO PUSH2 0x11C0 JUMPI PUSH1 0x20 DUP2 DUP6 ADD DUP2 ADD MLOAD DUP7 DUP4 ADD DUP3 ADD MSTORE ADD PUSH2 0x11A4 JUMP JUMPDEST POP PUSH0 PUSH1 0x20 DUP3 DUP7 ADD ADD MSTORE PUSH1 0x20 PUSH1 0x1F NOT PUSH1 0x1F DUP4 ADD AND DUP6 ADD ADD SWAP2 POP POP SWAP3 SWAP2 POP POP JUMP JUMPDEST DUP13 DUP2 MSTORE PUSH1 0x1 PUSH1 0x1 PUSH1 0xA0 SHL SUB DUP13 AND PUSH1 0x20 DUP3 ADD MSTORE PUSH2 0x180 PUSH1 0x40 DUP3 ADD DUP2 SWAP1 MSTORE PUSH0 SWAP1 PUSH2 0x1209 DUP4 DUP3 ADD DUP15 PUSH2 0x119C JUMP JUMPDEST PUSH1 0x60 DUP5 ADD SWAP13 SWAP1 SWAP13 MSTORE POP POP PUSH1 0x80 DUP2 ADD SWAP9 SWAP1 SWAP9 MSTORE PUSH1 0xA0 DUP9 ADD SWAP7 SWAP1 SWAP7 MSTORE PUSH1 0xC0 DUP8 ADD SWAP5 SWAP1 SWAP5 MSTORE SWAP2 ISZERO ISZERO PUSH1 0xE0 DUP7 ADD MSTORE PUSH2 0x100 DUP6 ADD MSTORE PUSH2 0x120 DUP5 ADD MSTORE ISZERO ISZERO PUSH2 0x140 DUP4 ADD MSTORE PUSH2 0x160 SWAP1 SWAP2 ADD MSTORE SWAP4 SWAP3 POP POP POP JUMP JUMPDEST PUSH1 0x20 DUP2 MSTORE PUSH0 PUSH2 0xF7E PUSH1 0x20 DUP4 ADD DUP5 PUSH2 0x119C JUMP JUMPDEST PUSH0 PUSH1 0x20 DUP3 DUP5 SUB SLT ISZERO PUSH2 0x1277 JUMPI PUSH0 DUP1 REVERT JUMPDEST POP CALLDATALOAD SWAP2 SWAP1 POP JUMP JUMPDEST PUSH0 DUP1 PUSH0 PUSH1 0x60 DUP5 DUP7 SUB SLT ISZERO PUSH2 0x1290 JUMPI PUSH0 DUP1 REVERT JUMPDEST DUP4 CALLDATALOAD PUSH1 0x1 PUSH1 0x1 PUSH1 0x40 SHL SUB DUP2 GT ISZERO PUSH2 0x12A5 JUMPI PUSH0 DUP1 REVERT JUMPDEST PUSH2 0x12B1 DUP7 DUP3 DUP8 ADD PUSH2 0xE9C JUMP JUMPDEST SWAP4 POP POP PUSH1 0x20 DUP5 ADD CALLDATALOAD SWAP2 POP PUSH2 0x12C7 PUSH1 0x40 DUP6 ADD PUSH2 0xF4A JUMP JUMPDEST SWAP1 POP SWAP3 POP SWAP3 POP SWAP3 JUMP JUMPDEST PUSH1 0x1 PUSH1 0x1 PUSH1 0xA0 SHL SUB DUP5 AND DUP2 MSTORE PUSH1 0x60 PUSH1 0x20 DUP3 ADD DUP2 SWAP1 MSTORE PUSH0 SWAP1 PUSH2 0x12F3 SWAP1 DUP4 ADD DUP6 PUSH2 0x119C JUMP JUMPDEST SWAP1 POP DUP3 PUSH1 0x40 DUP4 ADD MSTORE SWAP5 SWAP4 POP POP POP POP JUMP JUMPDEST PUSH4 0x4E487B71 PUSH1 0xE0 SHL PUSH0 MSTORE PUSH1 0x32 PUSH1 0x4 MSTORE PUSH1 0x24 PUSH0 REVERT JUMPDEST PUSH4 0x4E487B71 PUSH1 0xE0 SHL PUSH0 MSTORE PUSH1 0x11 PUSH1 0x4 MSTORE PUSH1 0x24 PUSH0 REVERT JUMPDEST PUSH0 PUSH1 0x1 DUP3 ADD PUSH2 0x133C JUMPI PUSH2 0x133C PUSH2 0x1317 JUMP JUMPDEST POP PUSH1 0x1 ADD SWAP1 JUMP JUMPDEST PUSH0 DUP3 PUSH2 0x135D JUMPI PUSH4 0x4E487B71 PUSH1 0xE0 SHL PUSH0 MSTORE PUSH1 0x12 PUSH1 0x4 MSTORE PUSH1 0x24 PUSH0 REVERT JUMPDEST POP DIV SWAP1 JUMP JUMPDEST PUSH1 0x1 PUSH1 0x1 PUSH1 0xA0 SHL SUB DUP4 AND DUP2 MSTORE PUSH1 0x40 PUSH1 0x20 DUP3 ADD DUP2 SWAP1 MSTORE PUSH0 SWAP1 PUSH2 0xFB6 SWAP1 DUP4 ADD DUP5 PUSH2 0x119C JUMP JUMPDEST PUSH1 0x1 DUP2 DUP2 SHR SWAP1 DUP3 AND DUP1 PUSH2 0x1399 JUMPI PUSH1 0x7F DUP3 AND SWAP2 POP JUMPDEST PUSH1 0x20 DUP3 LT DUP2 SUB PUSH2 0x13B7 JUMPI PUSH4 0x4E487B71 PUSH1 0xE0 SHL PUSH0 MSTORE PUSH1 0x22 PUSH1 0x4 MSTORE PUSH1 0x24 PUSH0 REVERT JUMPDEST POP SWAP2 SWAP1 POP JUMP JUMPDEST DUP2 DUP2 SUB DUP2 DUP2 GT ISZERO PUSH2 0x13D0 JUMPI PUSH2 0x13D0 PUSH2 0x1317 JUMP JUMPDEST SWAP3 SWAP2 POP POP JUMP JUMPDEST PUSH1 0x1F DUP3 GT ISZERO PUSH2 0xA81 JUMPI DUP1 PUSH0 MSTORE PUSH1 0x20 PUSH0 KECCAK256 PUSH1 0x1F DUP5 ADD PUSH1 0x5 SHR DUP2 ADD PUSH1 0x20 DUP6 LT ISZERO PUSH2 0x13FB JUMPI POP DUP1 JUMPDEST PUSH1 0x1F DUP5 ADD PUSH1 0x5 SHR DUP3 ADD SWAP2 POP JUMPDEST DUP2 DUP2 LT ISZERO PUSH2 0x141A JUMPI PUSH0 DUP2 SSTORE PUSH1 0x1 ADD PUSH2 0x1407 JUMP JUMPDEST POP POP POP POP POP JUMP JUMPDEST DUP2 MLOAD PUSH1 0x1 PUSH1 0x1 PUSH1 0x40 SHL SUB DUP2 GT ISZERO PUSH2 0x143A JUMPI PUSH2 0x143A PUSH2 0xE58 JUMP JUMPDEST PUSH2 0x144E DUP2 PUSH2 0x1448 DUP5 SLOAD PUSH2 0x1385 JUMP JUMPDEST DUP5 PUSH2 0x13D6 JUMP JUMPDEST PUSH1 0x20 DUP1 PUSH1 0x1F DUP4 GT PUSH1 0x1 DUP2 EQ PUSH2 0x1481 JUMPI PUSH0 DUP5 ISZERO PUSH2 0x146A JUMPI POP DUP6 DUP4 ADD MLOAD JUMPDEST PUSH0 NOT PUSH1 0x3 DUP7 SWAP1 SHL SHR NOT AND PUSH1 0x1 DUP6 SWAP1 SHL OR DUP6 SSTORE PUSH2 0x6AA JUMP JUMPDEST PUSH0 DUP6 DUP2 MSTORE PUSH1 0x20 DUP2 KECCAK256 PUSH1 0x1F NOT DUP7 AND SWAP2 JUMPDEST DUP3 DUP2 LT ISZERO PUSH2 0x14AF JUMPI DUP9 DUP7 ADD MLOAD DUP3 SSTORE SWAP5 DUP5 ADD SWAP5 PUSH1 0x1 SWAP1 SWAP2 ADD SWAP1 DUP5 ADD PUSH2 0x1490 JUMP JUMPDEST POP DUP6 DUP3 LT ISZERO PUSH2 0x14CC JUMPI DUP8 DUP6 ADD MLOAD PUSH0 NOT PUSH1 0x3 DUP9 SWAP1 SHL PUSH1 0xF8 AND SHR NOT AND DUP2 SSTORE JUMPDEST POP POP POP POP POP PUSH1 0x1 SWAP1 DUP2 SHL ADD SWAP1 SSTORE POP JUMP INVALID LOG2 PUSH5 0x6970667358 0x22 SLT KECCAK256 0x4C PUSH3 0x2A64C9 SGT 0x2C CODESIZE MOD 0xAE 0x24 EXTCODECOPY SGT LOG4 PUSH32 0xEE0D7A0349A55A42C8AB0B71E3E51C6FF064736F6C6343000817003360806040 MSTORE CALLVALUE DUP1 ISZERO PUSH3 0x10 JUMPI PUSH0 DUP1 REVERT JUMPDEST POP PUSH1 0x40 MLOAD PUSH3 0x1AEE CODESIZE SUB DUP1 PUSH3 0x1AEE DUP4 CODECOPY DUP2 ADD PUSH1 0x40 DUP2 SWAP1 MSTORE PUSH3 0x33 SWAP2 PUSH3 0x1AA JUMP JUMPDEST DUP3 DUP3 DUP3 PUSH0 PUSH3 0x43 DUP4 DUP3 PUSH3 0x2B8 JUMP JUMPDEST POP PUSH1 0x1 PUSH3 0x52 DUP3 DUP3 PUSH3 0x2B8 JUMP JUMPDEST POP POP POP PUSH1 0x1 PUSH1 0x1 PUSH1 0xA0 SHL SUB DUP2 AND PUSH3 0x83 JUMPI PUSH1 0x40 MLOAD PUSH4 0x1E4FBDF7 PUSH1 0xE0 SHL DUP2 MSTORE PUSH0 PUSH1 0x4 DUP3 ADD MSTORE PUSH1 0x24 ADD PUSH1 0x40 MLOAD DUP1 SWAP2 SUB SWAP1 REVERT JUMPDEST PUSH3 0x8E DUP2 PUSH3 0x98 JUMP JUMPDEST POP POP POP POP PUSH3 0x384 JUMP JUMPDEST PUSH1 0xB DUP1 SLOAD PUSH1 0x1 PUSH1 0x1 PUSH1 0xA0 SHL SUB DUP4 DUP2 AND PUSH1 0x1 PUSH1 0x1 PUSH1 0xA0 SHL SUB NOT DUP4 AND DUP2 OR SWAP1 SWAP4 SSTORE PUSH1 0x40 MLOAD SWAP2 AND SWAP2 SWAP1 DUP3 SWAP1 PUSH32 0x8BE0079C531659141344CD1FD0A4F28419497F9722A3DAAFE3B4186F6B6457E0 SWAP1 PUSH0 SWAP1 LOG3 POP POP JUMP JUMPDEST PUSH4 0x4E487B71 PUSH1 0xE0 SHL PUSH0 MSTORE PUSH1 0x41 PUSH1 0x4 MSTORE PUSH1 0x24 PUSH0 REVERT JUMPDEST PUSH0 DUP3 PUSH1 0x1F DUP4 ADD SLT PUSH3 0x10D JUMPI PUSH0 DUP1 REVERT JUMPDEST DUP2 MLOAD PUSH1 0x1 PUSH1 0x1 PUSH1 0x40 SHL SUB DUP1 DUP3 GT ISZERO PUSH3 0x12A JUMPI PUSH3 0x12A PUSH3 0xE9 JUMP JUMPDEST PUSH1 0x40 MLOAD PUSH1 0x1F DUP4 ADD PUSH1 0x1F NOT SWAP1 DUP2 AND PUSH1 0x3F ADD AND DUP2 ADD SWAP1 DUP3 DUP3 GT DUP2 DUP4 LT OR ISZERO PUSH3 0x155 JUMPI PUSH3 0x155 PUSH3 0xE9 JUMP JUMPDEST DUP2 PUSH1 0x40 MSTORE DUP4 DUP2 MSTORE PUSH1 0x20 SWAP3 POP DUP7 PUSH1 0x20 DUP6 DUP9 ADD ADD GT ISZERO PUSH3 0x172 JUMPI PUSH0 DUP1 REVERT JUMPDEST PUSH0 SWAP2 POP JUMPDEST DUP4 DUP3 LT ISZERO PUSH3 0x195 JUMPI DUP6 DUP3 ADD DUP4 ADD MLOAD DUP2 DUP4 ADD DUP5 ADD MSTORE SWAP1 DUP3 ADD SWAP1 PUSH3 0x176 JUMP JUMPDEST PUSH0 PUSH1 0x20 DUP6 DUP4 ADD ADD MSTORE DUP1 SWAP5 POP POP POP POP POP SWAP3 SWAP2 POP POP JUMP JUMPDEST PUSH0 DUP1 PUSH0 PUSH1 0x60 DUP5 DUP7 SUB SLT ISZERO PUSH3 0x1BD JUMPI PUSH0 DUP1 REVERT JUMPDEST DUP4 MLOAD PUSH1 0x1 PUSH1 0x1 PUSH1 0xA0 SHL SUB DUP2 AND DUP2 EQ PUSH3 0x1D4 JUMPI PUSH0 DUP1 REVERT JUMPDEST PUSH1 0x20 DUP6 ADD MLOAD SWAP1 SWAP4 POP PUSH1 0x1 PUSH1 0x1 PUSH1 0x40 SHL SUB DUP1 DUP3 GT ISZERO PUSH3 0x1F1 JUMPI PUSH0 DUP1 REVERT JUMPDEST PUSH3 0x1FF DUP8 DUP4 DUP9 ADD PUSH3 0xFD JUMP JUMPDEST SWAP4 POP PUSH1 0x40 DUP7 ADD MLOAD SWAP2 POP DUP1 DUP3 GT ISZERO PUSH3 0x215 JUMPI PUSH0 DUP1 REVERT JUMPDEST POP PUSH3 0x224 DUP7 DUP3 DUP8 ADD PUSH3 0xFD JUMP JUMPDEST SWAP2 POP POP SWAP3 POP SWAP3 POP SWAP3 JUMP JUMPDEST PUSH1 0x1 DUP2 DUP2 SHR SWAP1 DUP3 AND DUP1 PUSH3 0x243 JUMPI PUSH1 0x7F DUP3 AND SWAP2 POP JUMPDEST PUSH1 0x20 DUP3 LT DUP2 SUB PUSH3 0x262 JUMPI PUSH4 0x4E487B71 PUSH1 0xE0 SHL PUSH0 MSTORE PUSH1 0x22 PUSH1 0x4 MSTORE PUSH1 0x24 PUSH0 REVERT JUMPDEST POP SWAP2 SWAP1 POP JUMP JUMPDEST PUSH1 0x1F DUP3 GT ISZERO PUSH3 0x2B3 JUMPI DUP1 PUSH0 MSTORE PUSH1 0x20 PUSH0 KECCAK256 PUSH1 0x1F DUP5 ADD PUSH1 0x5 SHR DUP2 ADD PUSH1 0x20 DUP6 LT ISZERO PUSH3 0x28F JUMPI POP DUP1 JUMPDEST PUSH1 0x1F DUP5 ADD PUSH1 0x5 SHR DUP3 ADD SWAP2 POP JUMPDEST DUP2 DUP2 LT ISZERO PUSH3 0x2B0 JUMPI PUSH0 DUP2 SSTORE PUSH1 0x1 ADD PUSH3 0x29B JUMP JUMPDEST POP POP JUMPDEST POP POP POP JUMP JUMPDEST DUP2 MLOAD PUSH1 0x1 PUSH1 0x1 PUSH1 0x40 SHL SUB DUP2 GT ISZERO PUSH3 0x2D4 JUMPI PUSH3 0x2D4 PUSH3 0xE9 JUMP JUMPDEST PUSH3 0x2EC DUP2 PUSH3 0x2E5 DUP5 SLOAD PUSH3 0x22E JUMP JUMPDEST DUP5 PUSH3 0x268 JUMP JUMPDEST PUSH1 0x20 DUP1 PUSH1 0x1F DUP4 GT PUSH1 0x1 DUP2 EQ PUSH3 0x322 JUMPI PUSH0 DUP5 ISZERO PUSH3 0x30A JUMPI POP DUP6 DUP4 ADD MLOAD JUMPDEST PUSH0 NOT PUSH1 0x3 DUP7 SWAP1 SHL SHR NOT AND PUSH1 0x1 DUP6 SWAP1 SHL OR DUP6 SSTORE PUSH3 0x37C JUMP JUMPDEST PUSH0 DUP6 DUP2 MSTORE PUSH1 0x20 DUP2 KECCAK256 PUSH1 0x1F NOT DUP7 AND SWAP2 JUMPDEST DUP3 DUP2 LT ISZERO PUSH3 0x352 JUMPI DUP9 DUP7 ADD MLOAD DUP3 SSTORE SWAP5 DUP5 ADD SWAP5 PUSH1 0x1 SWAP1 SWAP2 ADD SWAP1 DUP5 ADD PUSH3 0x331 JUMP JUMPDEST POP DUP6 DUP3 LT ISZERO PUSH3 0x370 JUMPI DUP8 DUP6 ADD MLOAD PUSH0 NOT PUSH1 0x3 DUP9 SWAP1 SHL PUSH1 0xF8 AND SHR NOT AND DUP2 SSTORE JUMPDEST POP POP PUSH1 0x1 DUP5 PUSH1 0x1 SHL ADD DUP6 SSTORE JUMPDEST POP POP POP POP POP POP JUMP JUMPDEST PUSH2 0x175C DUP1 PUSH3 0x392 PUSH0 CODECOPY PUSH0 RETURN INVALID PUSH1 0x80 PUSH1 0x40 MSTORE CALLVALUE DUP1 ISZERO PUSH2 0xF JUMPI PUSH0 DUP1 REVERT JUMPDEST POP PUSH1 0x4 CALLDATASIZE LT PUSH2 0xFA JUMPI PUSH0 CALLDATALOAD PUSH1 0xE0 SHR DUP1 PUSH4 0x1FFC9A7 EQ PUSH2 0xFE JUMPI DUP1 PUSH4 0x6FDDE03 EQ PUSH2 0x126 JUMPI DUP1 PUSH4 0x81812FC EQ PUSH2 0x13B JUMPI DUP1 PUSH4 0x95EA7B3 EQ PUSH2 0x15B JUMPI DUP1 PUSH4 0x18160DDD EQ PUSH2 0x170 JUMPI DUP1 PUSH4 0x23B872DD EQ PUSH2 0x182 JUMPI DUP1 PUSH4 0x2F745C59 EQ PUSH2 0x195 JUMPI DUP1 PUSH4 0x42842E0E EQ PUSH2 0x1A8 JUMPI DUP1 PUSH4 0x4F6CCCE7 EQ PUSH2 0x1BB JUMPI DUP1 PUSH4 0x6352211E EQ PUSH2 0x1CE JUMPI DUP1 PUSH4 0x70A08231 EQ PUSH2 0x1E1 JUMPI DUP1 PUSH4 0x715018A6 EQ PUSH2 0x1F4 JUMPI DUP1 PUSH4 0x8DA5CB5B EQ PUSH2 0x1FC JUMPI DUP1 PUSH4 0x95D89B41 EQ PUSH2 0x204 JUMPI DUP1 PUSH4 0xA22CB465 EQ PUSH2 0x20C JUMPI DUP1 PUSH4 0xB88D4FDE EQ PUSH2 0x21F JUMPI DUP1 PUSH4 0xC87B56DD EQ PUSH2 0x232 JUMPI DUP1 PUSH4 0xD204C45E EQ PUSH2 0x245 JUMPI DUP1 PUSH4 0xE985E9C5 EQ PUSH2 0x258 JUMPI DUP1 PUSH4 0xF2FDE38B EQ PUSH2 0x26B JUMPI JUMPDEST PUSH0 DUP1 REVERT JUMPDEST PUSH2 0x111 PUSH2 0x10C CALLDATASIZE PUSH1 0x4 PUSH2 0x11E9 JUMP JUMPDEST PUSH2 0x27E JUMP JUMPDEST PUSH1 0x40 MLOAD SWAP1 ISZERO ISZERO DUP2 MSTORE PUSH1 0x20 ADD JUMPDEST PUSH1 0x40 MLOAD DUP1 SWAP2 SUB SWAP1 RETURN JUMPDEST PUSH2 0x12E PUSH2 0x28E JUMP JUMPDEST PUSH1 0x40 MLOAD PUSH2 0x11D SWAP2 SWAP1 PUSH2 0x1251 JUMP JUMPDEST PUSH2 0x14E PUSH2 0x149 CALLDATASIZE PUSH1 0x4 PUSH2 0x1263 JUMP JUMPDEST PUSH2 0x31D JUMP JUMPDEST PUSH1 0x40 MLOAD PUSH2 0x11D SWAP2 SWAP1 PUSH2 0x127A JUMP JUMPDEST PUSH2 0x16E PUSH2 0x169 CALLDATASIZE PUSH1 0x4 PUSH2 0x12A9 JUMP JUMPDEST PUSH2 0x331 JUMP JUMPDEST STOP JUMPDEST PUSH1 0x8 SLOAD JUMPDEST PUSH1 0x40 MLOAD SWAP1 DUP2 MSTORE PUSH1 0x20 ADD PUSH2 0x11D JUMP JUMPDEST PUSH2 0x16E PUSH2 0x190 CALLDATASIZE PUSH1 0x4 PUSH2 0x12D1 JUMP JUMPDEST PUSH2 0x340 JUMP JUMPDEST PUSH2 0x174 PUSH2 0x1A3 CALLDATASIZE PUSH1 0x4 PUSH2 0x12A9 JUMP JUMPDEST PUSH2 0x3D2 JUMP JUMPDEST PUSH2 0x16E PUSH2 0x1B6 CALLDATASIZE PUSH1 0x4 PUSH2 0x12D1 JUMP JUMPDEST PUSH2 0x427 JUMP JUMPDEST PUSH2 0x174 PUSH2 0x1C9 CALLDATASIZE PUSH1 0x4 PUSH2 0x1263 JUMP JUMPDEST PUSH2 0x446 JUMP JUMPDEST PUSH2 0x14E PUSH2 0x1DC CALLDATASIZE PUSH1 0x4 PUSH2 0x1263 JUMP JUMPDEST PUSH2 0x496 JUMP JUMPDEST PUSH2 0x174 PUSH2 0x1EF CALLDATASIZE PUSH1 0x4 PUSH2 0x130A JUMP JUMPDEST PUSH2 0x4A0 JUMP JUMPDEST PUSH2 0x16E PUSH2 0x4E5 JUMP JUMPDEST PUSH2 0x14E PUSH2 0x4F8 JUMP JUMPDEST PUSH2 0x12E PUSH2 0x507 JUMP JUMPDEST PUSH2 0x16E PUSH2 0x21A CALLDATASIZE PUSH1 0x4 PUSH2 0x1323 JUMP JUMPDEST PUSH2 0x516 JUMP JUMPDEST PUSH2 0x16E PUSH2 0x22D CALLDATASIZE PUSH1 0x4 PUSH2 0x13E2 JUMP JUMPDEST PUSH2 0x521 JUMP JUMPDEST PUSH2 0x12E PUSH2 0x240 CALLDATASIZE PUSH1 0x4 PUSH2 0x1263 JUMP JUMPDEST PUSH2 0x538 JUMP JUMPDEST PUSH2 0x16E PUSH2 0x253 CALLDATASIZE PUSH1 0x4 PUSH2 0x1458 JUMP JUMPDEST PUSH2 0x543 JUMP JUMPDEST PUSH2 0x111 PUSH2 0x266 CALLDATASIZE PUSH1 0x4 PUSH2 0x14B5 JUMP JUMPDEST PUSH2 0x575 JUMP JUMPDEST PUSH2 0x16E PUSH2 0x279 CALLDATASIZE PUSH1 0x4 PUSH2 0x130A JUMP JUMPDEST PUSH2 0x5A2 JUMP JUMPDEST PUSH0 PUSH2 0x288 DUP3 PUSH2 0x5DF JUMP JUMPDEST SWAP3 SWAP2 POP POP JUMP JUMPDEST PUSH1 0x60 PUSH0 DUP1 SLOAD PUSH2 0x29C SWAP1 PUSH2 0x14E6 JUMP JUMPDEST DUP1 PUSH1 0x1F ADD PUSH1 0x20 DUP1 SWAP2 DIV MUL PUSH1 0x20 ADD PUSH1 0x40 MLOAD SWAP1 DUP2 ADD PUSH1 0x40 MSTORE DUP1 SWAP3 SWAP2 SWAP1 DUP2 DUP2 MSTORE PUSH1 0x20 ADD DUP3 DUP1 SLOAD PUSH2 0x2C8 SWAP1 PUSH2 0x14E6 JUMP JUMPDEST DUP1 ISZERO PUSH2 0x313 JUMPI DUP1 PUSH1 0x1F LT PUSH2 0x2EA JUMPI PUSH2 0x100 DUP1 DUP4 SLOAD DIV MUL DUP4 MSTORE SWAP2 PUSH1 0x20 ADD SWAP2 PUSH2 0x313 JUMP JUMPDEST DUP3 ADD SWAP2 SWAP1 PUSH0 MSTORE PUSH1 0x20 PUSH0 KECCAK256 SWAP1 JUMPDEST DUP2 SLOAD DUP2 MSTORE SWAP1 PUSH1 0x1 ADD SWAP1 PUSH1 0x20 ADD DUP1 DUP4 GT PUSH2 0x2F6 JUMPI DUP3 SWAP1 SUB PUSH1 0x1F AND DUP3 ADD SWAP2 JUMPDEST POP POP POP POP POP SWAP1 POP SWAP1 JUMP JUMPDEST PUSH0 PUSH2 0x327 DUP3 PUSH2 0x603 JUMP JUMPDEST POP PUSH2 0x288 DUP3 PUSH2 0x63A JUMP JUMPDEST PUSH2 0x33C DUP3 DUP3 CALLER PUSH2 0x654 JUMP JUMPDEST POP POP JUMP JUMPDEST PUSH1 0x1 PUSH1 0x1 PUSH1 0xA0 SHL SUB DUP3 AND PUSH2 0x372 JUMPI PUSH0 PUSH1 0x40 MLOAD PUSH4 0x32505749 PUSH1 0xE1 SHL DUP2 MSTORE PUSH1 0x4 ADD PUSH2 0x369 SWAP2 SWAP1 PUSH2 0x127A JUMP JUMPDEST PUSH1 0x40 MLOAD DUP1 SWAP2 SUB SWAP1 REVERT JUMPDEST PUSH0 PUSH2 0x37E DUP4 DUP4 CALLER PUSH2 0x661 JUMP JUMPDEST SWAP1 POP DUP4 PUSH1 0x1 PUSH1 0x1 PUSH1 0xA0 SHL SUB AND DUP2 PUSH1 0x1 PUSH1 0x1 PUSH1 0xA0 SHL SUB AND EQ PUSH2 0x3CC JUMPI PUSH1 0x40 MLOAD PUSH4 0x64283D7B PUSH1 0xE0 SHL DUP2 MSTORE PUSH1 0x1 PUSH1 0x1 PUSH1 0xA0 SHL SUB DUP1 DUP7 AND PUSH1 0x4 DUP4 ADD MSTORE PUSH1 0x24 DUP3 ADD DUP5 SWAP1 MSTORE DUP3 AND PUSH1 0x44 DUP3 ADD MSTORE PUSH1 0x64 ADD PUSH2 0x369 JUMP JUMPDEST POP POP POP POP JUMP JUMPDEST PUSH0 PUSH2 0x3DC DUP4 PUSH2 0x4A0 JUMP JUMPDEST DUP3 LT PUSH2 0x3FF JUMPI DUP3 DUP3 PUSH1 0x40 MLOAD PUSH4 0x295F44F7 PUSH1 0xE2 SHL DUP2 MSTORE PUSH1 0x4 ADD PUSH2 0x369 SWAP3 SWAP2 SWAP1 PUSH2 0x151E JUMP JUMPDEST POP PUSH1 0x1 PUSH1 0x1 PUSH1 0xA0 SHL SUB SWAP2 SWAP1 SWAP2 AND PUSH0 SWAP1 DUP2 MSTORE PUSH1 0x6 PUSH1 0x20 SWAP1 DUP2 MSTORE PUSH1 0x40 DUP1 DUP4 KECCAK256 SWAP4 DUP4 MSTORE SWAP3 SWAP1 MSTORE KECCAK256 SLOAD SWAP1 JUMP JUMPDEST PUSH2 0x441 DUP4 DUP4 DUP4 PUSH1 0x40 MLOAD DUP1 PUSH1 0x20 ADD PUSH1 0x40 MSTORE DUP1 PUSH0 DUP2 MSTORE POP PUSH2 0x521 JUMP JUMPDEST POP POP POP JUMP JUMPDEST PUSH0 PUSH2 0x450 PUSH1 0x8 SLOAD SWAP1 JUMP JUMPDEST DUP3 LT PUSH2 0x473 JUMPI PUSH0 DUP3 PUSH1 0x40 MLOAD PUSH4 0x295F44F7 PUSH1 0xE2 SHL DUP2 MSTORE PUSH1 0x4 ADD PUSH2 0x369 SWAP3 SWAP2 SWAP1 PUSH2 0x151E JUMP JUMPDEST PUSH1 0x8 DUP3 DUP2 SLOAD DUP2 LT PUSH2 0x486 JUMPI PUSH2 0x486 PUSH2 0x1537 JUMP JUMPDEST SWAP1 PUSH0 MSTORE PUSH1 0x20 PUSH0 KECCAK256 ADD SLOAD SWAP1 POP SWAP2 SWAP1 POP JUMP JUMPDEST PUSH0 PUSH2 0x288 DUP3 PUSH2 0x603 JUMP JUMPDEST PUSH0 PUSH1 0x1 PUSH1 0x1 PUSH1 0xA0 SHL SUB DUP3 AND PUSH2 0x4CA JUMPI PUSH0 PUSH1 0x40 MLOAD PUSH4 0x22718AD9 PUSH1 0xE2 SHL DUP2 MSTORE PUSH1 0x4 ADD PUSH2 0x369 SWAP2 SWAP1 PUSH2 0x127A JUMP JUMPDEST POP PUSH1 0x1 PUSH1 0x1 PUSH1 0xA0 SHL SUB AND PUSH0 SWAP1 DUP2 MSTORE PUSH1 0x3 PUSH1 0x20 MSTORE PUSH1 0x40 SWAP1 KECCAK256 SLOAD SWAP1 JUMP JUMPDEST PUSH2 0x4ED PUSH2 0x675 JUMP JUMPDEST PUSH2 0x4F6 PUSH0 PUSH2 0x6A7 JUMP JUMPDEST JUMP JUMPDEST PUSH1 0xB SLOAD PUSH1 0x1 PUSH1 0x1 PUSH1 0xA0 SHL SUB AND SWAP1 JUMP JUMPDEST PUSH1 0x60 PUSH1 0x1 DUP1 SLOAD PUSH2 0x29C SWAP1 PUSH2 0x14E6 JUMP JUMPDEST PUSH2 0x33C CALLER DUP4 DUP4 PUSH2 0x6F8 JUMP JUMPDEST PUSH2 0x52C DUP5 DUP5 DUP5 PUSH2 0x340 JUMP JUMPDEST PUSH2 0x3CC DUP5 DUP5 DUP5 DUP5 PUSH2 0x78D JUMP JUMPDEST PUSH1 0x60 PUSH2 0x288 DUP3 PUSH2 0x8A1 JUMP JUMPDEST PUSH2 0x54B PUSH2 0x675 JUMP JUMPDEST PUSH1 0xC DUP1 SLOAD PUSH0 SWAP2 DUP3 PUSH2 0x55B DUP4 PUSH2 0x155F JUMP JUMPDEST SWAP2 SWAP1 POP SSTORE SWAP1 POP PUSH2 0x56B DUP4 DUP3 PUSH2 0x9A4 JUMP JUMPDEST PUSH2 0x441 DUP2 DUP4 PUSH2 0x9BD JUMP JUMPDEST PUSH1 0x1 PUSH1 0x1 PUSH1 0xA0 SHL SUB SWAP2 DUP3 AND PUSH0 SWAP1 DUP2 MSTORE PUSH1 0x5 PUSH1 0x20 SWAP1 DUP2 MSTORE PUSH1 0x40 DUP1 DUP4 KECCAK256 SWAP4 SWAP1 SWAP5 AND DUP3 MSTORE SWAP2 SWAP1 SWAP2 MSTORE KECCAK256 SLOAD PUSH1 0xFF AND SWAP1 JUMP JUMPDEST PUSH2 0x5AA PUSH2 0x675 JUMP JUMPDEST PUSH1 0x1 PUSH1 0x1 PUSH1 0xA0 SHL SUB DUP2 AND PUSH2 0x5D3 JUMPI PUSH0 PUSH1 0x40 MLOAD PUSH4 0x1E4FBDF7 PUSH1 0xE0 SHL DUP2 MSTORE PUSH1 0x4 ADD PUSH2 0x369 SWAP2 SWAP1 PUSH2 0x127A JUMP JUMPDEST PUSH2 0x5DC DUP2 PUSH2 0x6A7 JUMP JUMPDEST POP JUMP JUMPDEST PUSH0 PUSH1 0x1 PUSH1 0x1 PUSH1 0xE0 SHL SUB NOT DUP3 AND PUSH4 0x24832483 PUSH1 0xE1 SHL EQ DUP1 PUSH2 0x288 JUMPI POP PUSH2 0x288 DUP3 PUSH2 0xA0C JUMP JUMPDEST PUSH0 DUP1 PUSH2 0x60E DUP4 PUSH2 0xA30 JUMP JUMPDEST SWAP1 POP PUSH1 0x1 PUSH1 0x1 PUSH1 0xA0 SHL SUB DUP2 AND PUSH2 0x288 JUMPI PUSH1 0x40 MLOAD PUSH4 0x7E273289 PUSH1 0xE0 SHL DUP2 MSTORE PUSH1 0x4 DUP2 ADD DUP5 SWAP1 MSTORE PUSH1 0x24 ADD PUSH2 0x369 JUMP JUMPDEST PUSH0 SWAP1 DUP2 MSTORE PUSH1 0x4 PUSH1 0x20 MSTORE PUSH1 0x40 SWAP1 KECCAK256 SLOAD PUSH1 0x1 PUSH1 0x1 PUSH1 0xA0 SHL SUB AND SWAP1 JUMP JUMPDEST PUSH2 0x441 DUP4 DUP4 DUP4 PUSH1 0x1 PUSH2 0xA4A JUMP JUMPDEST PUSH0 PUSH2 0x66D DUP5 DUP5 DUP5 PUSH2 0xB45 JUMP JUMPDEST SWAP5 SWAP4 POP POP POP POP JUMP JUMPDEST CALLER PUSH2 0x67E PUSH2 0x4F8 JUMP JUMPDEST PUSH1 0x1 PUSH1 0x1 PUSH1 0xA0 SHL SUB AND EQ PUSH2 0x4F6 JUMPI CALLER PUSH1 0x40 MLOAD PUSH4 0x118CDAA7 PUSH1 0xE0 SHL DUP2 MSTORE PUSH1 0x4 ADD PUSH2 0x369 SWAP2 SWAP1 PUSH2 0x127A JUMP JUMPDEST PUSH1 0xB DUP1 SLOAD PUSH1 0x1 PUSH1 0x1 PUSH1 0xA0 SHL SUB DUP4 DUP2 AND PUSH1 0x1 PUSH1 0x1 PUSH1 0xA0 SHL SUB NOT DUP4 AND DUP2 OR SWAP1 SWAP4 SSTORE PUSH1 0x40 MLOAD SWAP2 AND SWAP2 SWAP1 DUP3 SWAP1 PUSH32 0x8BE0079C531659141344CD1FD0A4F28419497F9722A3DAAFE3B4186F6B6457E0 SWAP1 PUSH0 SWAP1 LOG3 POP POP JUMP JUMPDEST PUSH1 0x1 PUSH1 0x1 PUSH1 0xA0 SHL SUB DUP3 AND PUSH2 0x721 JUMPI DUP2 PUSH1 0x40 MLOAD PUSH4 0xB611743 PUSH1 0xE3 SHL DUP2 MSTORE PUSH1 0x4 ADD PUSH2 0x369 SWAP2 SWAP1 PUSH2 0x127A JUMP JUMPDEST PUSH1 0x1 PUSH1 0x1 PUSH1 0xA0 SHL SUB DUP4 DUP2 AND PUSH0 DUP2 DUP2 MSTORE PUSH1 0x5 PUSH1 0x20 SWAP1 DUP2 MSTORE PUSH1 0x40 DUP1 DUP4 KECCAK256 SWAP5 DUP8 AND DUP1 DUP5 MSTORE SWAP5 DUP3 MSTORE SWAP2 DUP3 SWAP1 KECCAK256 DUP1 SLOAD PUSH1 0xFF NOT AND DUP7 ISZERO ISZERO SWAP1 DUP2 OR SWAP1 SWAP2 SSTORE SWAP2 MLOAD SWAP2 DUP3 MSTORE PUSH32 0x17307EAB39AB6107E8899845AD3D59BD9653F200F220920489CA2B5937696C31 SWAP2 ADD PUSH1 0x40 MLOAD DUP1 SWAP2 SUB SWAP1 LOG3 POP POP POP JUMP JUMPDEST PUSH1 0x1 PUSH1 0x1 PUSH1 0xA0 SHL SUB DUP4 AND EXTCODESIZE ISZERO PUSH2 0x3CC JUMPI PUSH1 0x40 MLOAD PUSH4 0xA85BD01 PUSH1 0xE1 SHL DUP2 MSTORE PUSH1 0x1 PUSH1 0x1 PUSH1 0xA0 SHL SUB DUP5 AND SWAP1 PUSH4 0x150B7A02 SWAP1 PUSH2 0x7CF SWAP1 CALLER SWAP1 DUP9 SWAP1 DUP8 SWAP1 DUP8 SWAP1 PUSH1 0x4 ADD PUSH2 0x1577 JUMP JUMPDEST PUSH1 0x20 PUSH1 0x40 MLOAD DUP1 DUP4 SUB DUP2 PUSH0 DUP8 GAS CALL SWAP3 POP POP POP DUP1 ISZERO PUSH2 0x809 JUMPI POP PUSH1 0x40 DUP1 MLOAD PUSH1 0x1F RETURNDATASIZE SWAP1 DUP2 ADD PUSH1 0x1F NOT AND DUP3 ADD SWAP1 SWAP3 MSTORE PUSH2 0x806 SWAP2 DUP2 ADD SWAP1 PUSH2 0x15B3 JUMP JUMPDEST PUSH1 0x1 JUMPDEST PUSH2 0x867 JUMPI RETURNDATASIZE DUP1 DUP1 ISZERO PUSH2 0x836 JUMPI PUSH1 0x40 MLOAD SWAP2 POP PUSH1 0x1F NOT PUSH1 0x3F RETURNDATASIZE ADD AND DUP3 ADD PUSH1 0x40 MSTORE RETURNDATASIZE DUP3 MSTORE RETURNDATASIZE PUSH0 PUSH1 0x20 DUP5 ADD RETURNDATACOPY PUSH2 0x83B JUMP JUMPDEST PUSH1 0x60 SWAP2 POP JUMPDEST POP DUP1 MLOAD PUSH0 SUB PUSH2 0x85F JUMPI DUP4 PUSH1 0x40 MLOAD PUSH4 0x32505749 PUSH1 0xE1 SHL DUP2 MSTORE PUSH1 0x4 ADD PUSH2 0x369 SWAP2 SWAP1 PUSH2 0x127A JUMP JUMPDEST DUP1 MLOAD DUP2 PUSH1 0x20 ADD REVERT JUMPDEST PUSH1 0x1 PUSH1 0x1 PUSH1 0xE0 SHL SUB NOT DUP2 AND PUSH4 0xA85BD01 PUSH1 0xE1 SHL EQ PUSH2 0x89A JUMPI DUP4 PUSH1 0x40 MLOAD PUSH4 0x32505749 PUSH1 0xE1 SHL DUP2 MSTORE PUSH1 0x4 ADD PUSH2 0x369 SWAP2 SWAP1 PUSH2 0x127A JUMP JUMPDEST POP POP POP POP POP JUMP JUMPDEST PUSH1 0x60 PUSH2 0x8AC DUP3 PUSH2 0x603 JUMP JUMPDEST POP PUSH0 DUP3 DUP2 MSTORE PUSH1 0xA PUSH1 0x20 MSTORE PUSH1 0x40 DUP2 KECCAK256 DUP1 SLOAD PUSH2 0x8C5 SWAP1 PUSH2 0x14E6 JUMP JUMPDEST DUP1 PUSH1 0x1F ADD PUSH1 0x20 DUP1 SWAP2 DIV MUL PUSH1 0x20 ADD PUSH1 0x40 MLOAD SWAP1 DUP2 ADD PUSH1 0x40 MSTORE DUP1 SWAP3 SWAP2 SWAP1 DUP2 DUP2 MSTORE PUSH1 0x20 ADD DUP3 DUP1 SLOAD PUSH2 0x8F1 SWAP1 PUSH2 0x14E6 JUMP JUMPDEST DUP1 ISZERO PUSH2 0x93C JUMPI DUP1 PUSH1 0x1F LT PUSH2 0x913 JUMPI PUSH2 0x100 DUP1 DUP4 SLOAD DIV MUL DUP4 MSTORE SWAP2 PUSH1 0x20 ADD SWAP2 PUSH2 0x93C JUMP JUMPDEST DUP3 ADD SWAP2 SWAP1 PUSH0 MSTORE PUSH1 0x20 PUSH0 KECCAK256 SWAP1 JUMPDEST DUP2 SLOAD DUP2 MSTORE SWAP1 PUSH1 0x1 ADD SWAP1 PUSH1 0x20 ADD DUP1 DUP4 GT PUSH2 0x91F JUMPI DUP3 SWAP1 SUB PUSH1 0x1F AND DUP3 ADD SWAP2 JUMPDEST POP POP POP POP POP SWAP1 POP PUSH0 PUSH2 0x958 PUSH1 0x40 DUP1 MLOAD PUSH1 0x20 DUP2 ADD SWAP1 SWAP2 MSTORE PUSH0 DUP2 MSTORE SWAP1 JUMP JUMPDEST SWAP1 POP DUP1 MLOAD PUSH0 SUB PUSH2 0x969 JUMPI POP SWAP3 SWAP2 POP POP JUMP JUMPDEST DUP2 MLOAD ISZERO PUSH2 0x99B JUMPI DUP1 DUP3 PUSH1 0x40 MLOAD PUSH1 0x20 ADD PUSH2 0x983 SWAP3 SWAP2 SWAP1 PUSH2 0x15CE JUMP JUMPDEST PUSH1 0x40 MLOAD PUSH1 0x20 DUP2 DUP4 SUB SUB DUP2 MSTORE SWAP1 PUSH1 0x40 MSTORE SWAP3 POP POP POP SWAP2 SWAP1 POP JUMP JUMPDEST PUSH2 0x66D DUP5 PUSH2 0xC10 JUMP JUMPDEST PUSH2 0x33C DUP3 DUP3 PUSH1 0x40 MLOAD DUP1 PUSH1 0x20 ADD PUSH1 0x40 MSTORE DUP1 PUSH0 DUP2 MSTORE POP PUSH2 0xC81 JUMP JUMPDEST PUSH0 DUP3 DUP2 MSTORE PUSH1 0xA PUSH1 0x20 MSTORE PUSH1 0x40 SWAP1 KECCAK256 PUSH2 0x9D4 DUP3 DUP3 PUSH2 0x1640 JUMP JUMPDEST POP PUSH1 0x40 MLOAD DUP3 DUP2 MSTORE PUSH32 0xF8E1A15ABA9398E019F0B49DF1A4FDE98EE17AE345CB5F6B5E2C27F5033E8CE7 SWAP1 PUSH1 0x20 ADD PUSH1 0x40 MLOAD DUP1 SWAP2 SUB SWAP1 LOG1 POP POP JUMP JUMPDEST PUSH0 PUSH1 0x1 PUSH1 0x1 PUSH1 0xE0 SHL SUB NOT DUP3 AND PUSH4 0x780E9D63 PUSH1 0xE0 SHL EQ DUP1 PUSH2 0x288 JUMPI POP PUSH2 0x288 DUP3 PUSH2 0xC97 JUMP JUMPDEST PUSH0 SWAP1 DUP2 MSTORE PUSH1 0x2 PUSH1 0x20 MSTORE PUSH1 0x40 SWAP1 KECCAK256 SLOAD PUSH1 0x1 PUSH1 0x1 PUSH1 0xA0 SHL SUB AND SWAP1 JUMP JUMPDEST DUP1 DUP1 PUSH2 0xA5E JUMPI POP PUSH1 0x1 PUSH1 0x1 PUSH1 0xA0 SHL SUB DUP3 AND ISZERO ISZERO JUMPDEST ISZERO PUSH2 0xB16 JUMPI PUSH0 PUSH2 0xA6D DUP5 PUSH2 0x603 JUMP JUMPDEST SWAP1 POP PUSH1 0x1 PUSH1 0x1 PUSH1 0xA0 SHL SUB DUP4 AND ISZERO DUP1 ISZERO SWAP1 PUSH2 0xA99 JUMPI POP DUP3 PUSH1 0x1 PUSH1 0x1 PUSH1 0xA0 SHL SUB AND DUP2 PUSH1 0x1 PUSH1 0x1 PUSH1 0xA0 SHL SUB AND EQ ISZERO JUMPDEST DUP1 ISZERO PUSH2 0xAAC JUMPI POP PUSH2 0xAAA DUP2 DUP5 PUSH2 0x575 JUMP JUMPDEST ISZERO JUMPDEST ISZERO PUSH2 0xACC JUMPI DUP3 PUSH1 0x40 MLOAD PUSH4 0xA9FBF51F PUSH1 0xE0 SHL DUP2 MSTORE PUSH1 0x4 ADD PUSH2 0x369 SWAP2 SWAP1 PUSH2 0x127A JUMP JUMPDEST DUP2 ISZERO PUSH2 0xB14 JUMPI DUP4 DUP6 PUSH1 0x1 PUSH1 0x1 PUSH1 0xA0 SHL SUB AND DUP3 PUSH1 0x1 PUSH1 0x1 PUSH1 0xA0 SHL SUB AND PUSH32 0x8C5BE1E5EBEC7D5BD14F71427D1E84F3DD0314C0F7B2291E5B200AC8C7C3B925 PUSH1 0x40 MLOAD PUSH1 0x40 MLOAD DUP1 SWAP2 SUB SWAP1 LOG4 JUMPDEST POP JUMPDEST POP POP PUSH0 SWAP1 DUP2 MSTORE PUSH1 0x4 PUSH1 0x20 MSTORE PUSH1 0x40 SWAP1 KECCAK256 DUP1 SLOAD PUSH1 0x1 PUSH1 0x1 PUSH1 0xA0 SHL SUB NOT AND PUSH1 0x1 PUSH1 0x1 PUSH1 0xA0 SHL SUB SWAP3 SWAP1 SWAP3 AND SWAP2 SWAP1 SWAP2 OR SWAP1 SSTORE JUMP JUMPDEST PUSH0 DUP1 PUSH2 0xB52 DUP6 DUP6 DUP6 PUSH2 0xCE6 JUMP JUMPDEST SWAP1 POP PUSH1 0x1 PUSH1 0x1 PUSH1 0xA0 SHL SUB DUP2 AND PUSH2 0xBAE JUMPI PUSH2 0xBA9 DUP5 PUSH1 0x8 DUP1 SLOAD PUSH0 DUP4 DUP2 MSTORE PUSH1 0x9 PUSH1 0x20 MSTORE PUSH1 0x40 DUP2 KECCAK256 DUP3 SWAP1 SSTORE PUSH1 0x1 DUP3 ADD DUP4 SSTORE SWAP2 SWAP1 SWAP2 MSTORE PUSH32 0xF3F7A9FE364FAAB93B216DA50A3214154F22A0A2B415B23A84C8169E8B636EE3 ADD SSTORE JUMP JUMPDEST PUSH2 0xBD1 JUMP JUMPDEST DUP5 PUSH1 0x1 PUSH1 0x1 PUSH1 0xA0 SHL SUB AND DUP2 PUSH1 0x1 PUSH1 0x1 PUSH1 0xA0 SHL SUB AND EQ PUSH2 0xBD1 JUMPI PUSH2 0xBD1 DUP2 DUP6 PUSH2 0xDD3 JUMP JUMPDEST PUSH1 0x1 PUSH1 0x1 PUSH1 0xA0 SHL SUB DUP6 AND PUSH2 0xBED JUMPI PUSH2 0xBE8 DUP5 PUSH2 0xE60 JUMP JUMPDEST PUSH2 0x66D JUMP JUMPDEST DUP5 PUSH1 0x1 PUSH1 0x1 PUSH1 0xA0 SHL SUB AND DUP2 PUSH1 0x1 PUSH1 0x1 PUSH1 0xA0 SHL SUB AND EQ PUSH2 0x66D JUMPI PUSH2 0x66D DUP6 DUP6 PUSH2 0xF07 JUMP JUMPDEST PUSH1 0x60 PUSH2 0xC1B DUP3 PUSH2 0x603 JUMP JUMPDEST POP PUSH0 PUSH2 0xC31 PUSH1 0x40 DUP1 MLOAD PUSH1 0x20 DUP2 ADD SWAP1 SWAP2 MSTORE PUSH0 DUP2 MSTORE SWAP1 JUMP JUMPDEST SWAP1 POP PUSH0 DUP2 MLOAD GT PUSH2 0xC4F JUMPI PUSH1 0x40 MLOAD DUP1 PUSH1 0x20 ADD PUSH1 0x40 MSTORE DUP1 PUSH0 DUP2 MSTORE POP PUSH2 0xC7A JUMP JUMPDEST DUP1 PUSH2 0xC59 DUP5 PUSH2 0xF55 JUMP JUMPDEST PUSH1 0x40 MLOAD PUSH1 0x20 ADD PUSH2 0xC6A SWAP3 SWAP2 SWAP1 PUSH2 0x15CE JUMP JUMPDEST PUSH1 0x40 MLOAD PUSH1 0x20 DUP2 DUP4 SUB SUB DUP2 MSTORE SWAP1 PUSH1 0x40 MSTORE JUMPDEST SWAP4 SWAP3 POP POP POP JUMP JUMPDEST PUSH2 0xC8B DUP4 DUP4 PUSH2 0xFE4 JUMP JUMPDEST PUSH2 0x441 PUSH0 DUP5 DUP5 DUP5 PUSH2 0x78D JUMP JUMPDEST PUSH0 PUSH1 0x1 PUSH1 0x1 PUSH1 0xE0 SHL SUB NOT DUP3 AND PUSH4 0x80AC58CD PUSH1 0xE0 SHL EQ DUP1 PUSH2 0xCC7 JUMPI POP PUSH1 0x1 PUSH1 0x1 PUSH1 0xE0 SHL SUB NOT DUP3 AND PUSH4 0x5B5E139F PUSH1 0xE0 SHL EQ JUMPDEST DUP1 PUSH2 0x288 JUMPI POP PUSH4 0x1FFC9A7 PUSH1 0xE0 SHL PUSH1 0x1 PUSH1 0x1 PUSH1 0xE0 SHL SUB NOT DUP4 AND EQ PUSH2 0x288 JUMP JUMPDEST PUSH0 DUP1 PUSH2 0xCF1 DUP5 PUSH2 0xA30 JUMP JUMPDEST SWAP1 POP PUSH1 0x1 PUSH1 0x1 PUSH1 0xA0 SHL SUB DUP4 AND ISZERO PUSH2 0xD0D JUMPI PUSH2 0xD0D DUP2 DUP5 DUP7 PUSH2 0x1045 JUMP JUMPDEST PUSH1 0x1 PUSH1 0x1 PUSH1 0xA0 SHL SUB DUP2 AND ISZERO PUSH2 0xD47 JUMPI PUSH2 0xD28 PUSH0 DUP6 PUSH0 DUP1 PUSH2 0xA4A JUMP JUMPDEST PUSH1 0x1 PUSH1 0x1 PUSH1 0xA0 SHL SUB DUP2 AND PUSH0 SWAP1 DUP2 MSTORE PUSH1 0x3 PUSH1 0x20 MSTORE PUSH1 0x40 SWAP1 KECCAK256 DUP1 SLOAD PUSH0 NOT ADD SWAP1 SSTORE JUMPDEST PUSH1 0x1 PUSH1 0x1 PUSH1 0xA0 SHL SUB DUP6 AND ISZERO PUSH2 0xD75 JUMPI PUSH1 0x1 PUSH1 0x1 PUSH1 0xA0 SHL SUB DUP6 AND PUSH0 SWAP1 DUP2 MSTORE PUSH1 0x3 PUSH1 0x20 MSTORE PUSH1 0x40 SWAP1 KECCAK256 DUP1 SLOAD PUSH1 0x1 ADD SWAP1 SSTORE JUMPDEST PUSH0 DUP5 DUP2 MSTORE PUSH1 0x2 PUSH1 0x20 MSTORE PUSH1 0x40 DUP1 DUP3 KECCAK256 DUP1 SLOAD PUSH1 0x1 PUSH1 0x1 PUSH1 0xA0 SHL SUB NOT AND PUSH1 0x1 PUSH1 0x1 PUSH1 0xA0 SHL SUB DUP10 DUP2 AND SWAP2 DUP3 OR SWAP1 SWAP3 SSTORE SWAP2 MLOAD DUP8 SWAP4 SWAP2 DUP6 AND SWAP2 PUSH32 0xDDF252AD1BE2C89B69C2B068FC378DAA952BA7F163C4A11628F55A4DF523B3EF SWAP2 LOG4 SWAP5 SWAP4 POP POP POP POP JUMP JUMPDEST PUSH0 PUSH2 0xDDD DUP4 PUSH2 0x4A0 JUMP JUMPDEST PUSH0 DUP4 DUP2 MSTORE PUSH1 0x7 PUSH1 0x20 MSTORE PUSH1 0x40 SWAP1 KECCAK256 SLOAD SWAP1 SWAP2 POP DUP1 DUP3 EQ PUSH2 0xE2E JUMPI PUSH1 0x1 PUSH1 0x1 PUSH1 0xA0 SHL SUB DUP5 AND PUSH0 SWAP1 DUP2 MSTORE PUSH1 0x6 PUSH1 0x20 SWAP1 DUP2 MSTORE PUSH1 0x40 DUP1 DUP4 KECCAK256 DUP6 DUP5 MSTORE DUP3 MSTORE DUP1 DUP4 KECCAK256 SLOAD DUP5 DUP5 MSTORE DUP2 DUP5 KECCAK256 DUP2 SWAP1 SSTORE DUP4 MSTORE PUSH1 0x7 SWAP1 SWAP2 MSTORE SWAP1 KECCAK256 DUP2 SWAP1 SSTORE JUMPDEST POP PUSH0 SWAP2 DUP3 MSTORE PUSH1 0x7 PUSH1 0x20 SWAP1 DUP2 MSTORE PUSH1 0x40 DUP1 DUP5 KECCAK256 DUP5 SWAP1 SSTORE PUSH1 0x1 PUSH1 0x1 PUSH1 0xA0 SHL SUB SWAP1 SWAP5 AND DUP4 MSTORE PUSH1 0x6 DUP2 MSTORE DUP4 DUP4 KECCAK256 SWAP2 DUP4 MSTORE MSTORE SWAP1 DUP2 KECCAK256 SSTORE JUMP JUMPDEST PUSH1 0x8 SLOAD PUSH0 SWAP1 PUSH2 0xE71 SWAP1 PUSH1 0x1 SWAP1 PUSH2 0x16FF JUMP JUMPDEST PUSH0 DUP4 DUP2 MSTORE PUSH1 0x9 PUSH1 0x20 MSTORE PUSH1 0x40 DUP2 KECCAK256 SLOAD PUSH1 0x8 DUP1 SLOAD SWAP4 SWAP5 POP SWAP1 SWAP3 DUP5 SWAP1 DUP2 LT PUSH2 0xE98 JUMPI PUSH2 0xE98 PUSH2 0x1537 JUMP JUMPDEST SWAP1 PUSH0 MSTORE PUSH1 0x20 PUSH0 KECCAK256 ADD SLOAD SWAP1 POP DUP1 PUSH1 0x8 DUP4 DUP2 SLOAD DUP2 LT PUSH2 0xEB7 JUMPI PUSH2 0xEB7 PUSH2 0x1537 JUMP JUMPDEST PUSH0 SWAP2 DUP3 MSTORE PUSH1 0x20 DUP1 DUP4 KECCAK256 SWAP1 SWAP2 ADD SWAP3 SWAP1 SWAP3 SSTORE DUP3 DUP2 MSTORE PUSH1 0x9 SWAP1 SWAP2 MSTORE PUSH1 0x40 DUP1 DUP3 KECCAK256 DUP5 SWAP1 SSTORE DUP6 DUP3 MSTORE DUP2 KECCAK256 SSTORE PUSH1 0x8 DUP1 SLOAD DUP1 PUSH2 0xEEE JUMPI PUSH2 0xEEE PUSH2 0x1712 JUMP JUMPDEST PUSH1 0x1 SWAP1 SUB DUP2 DUP2 SWAP1 PUSH0 MSTORE PUSH1 0x20 PUSH0 KECCAK256 ADD PUSH0 SWAP1 SSTORE SWAP1 SSTORE POP POP POP POP JUMP JUMPDEST PUSH0 PUSH1 0x1 PUSH2 0xF13 DUP5 PUSH2 0x4A0 JUMP JUMPDEST PUSH2 0xF1D SWAP2 SWAP1 PUSH2 0x16FF JUMP JUMPDEST PUSH1 0x1 PUSH1 0x1 PUSH1 0xA0 SHL SUB SWAP1 SWAP4 AND PUSH0 SWAP1 DUP2 MSTORE PUSH1 0x6 PUSH1 0x20 SWAP1 DUP2 MSTORE PUSH1 0x40 DUP1 DUP4 KECCAK256 DUP7 DUP5 MSTORE DUP3 MSTORE DUP1 DUP4 KECCAK256 DUP6 SWAP1 SSTORE SWAP4 DUP3 MSTORE PUSH1 0x7 SWAP1 MSTORE SWAP2 SWAP1 SWAP2 KECCAK256 SWAP2 SWAP1 SWAP2 SSTORE POP JUMP JUMPDEST PUSH1 0x60 PUSH0 PUSH2 0xF61 DUP4 PUSH2 0x109B JUMP JUMPDEST PUSH1 0x1 ADD SWAP1 POP PUSH0 DUP2 PUSH1 0x1 PUSH1 0x1 PUSH1 0x40 SHL SUB DUP2 GT ISZERO PUSH2 0xF7F JUMPI PUSH2 0xF7F PUSH2 0x135C JUMP JUMPDEST PUSH1 0x40 MLOAD SWAP1 DUP1 DUP3 MSTORE DUP1 PUSH1 0x1F ADD PUSH1 0x1F NOT AND PUSH1 0x20 ADD DUP3 ADD PUSH1 0x40 MSTORE DUP1 ISZERO PUSH2 0xFA9 JUMPI PUSH1 0x20 DUP3 ADD DUP2 DUP1 CALLDATASIZE DUP4 CALLDATACOPY ADD SWAP1 POP JUMPDEST POP SWAP1 POP DUP2 DUP2 ADD PUSH1 0x20 ADD JUMPDEST PUSH0 NOT ADD PUSH16 0x181899199A1A9B1B9C1CB0B131B232B3 PUSH1 0x81 SHL PUSH1 0xA DUP7 MOD BYTE DUP2 MSTORE8 PUSH1 0xA DUP6 DIV SWAP5 POP DUP5 PUSH2 0xFB3 JUMPI POP SWAP4 SWAP3 POP POP POP JUMP JUMPDEST PUSH1 0x1 PUSH1 0x1 PUSH1 0xA0 SHL SUB DUP3 AND PUSH2 0x100D JUMPI PUSH0 PUSH1 0x40 MLOAD PUSH4 0x32505749 PUSH1 0xE1 SHL DUP2 MSTORE PUSH1 0x4 ADD PUSH2 0x369 SWAP2 SWAP1 PUSH2 0x127A JUMP JUMPDEST PUSH0 PUSH2 0x1019 DUP4 DUP4 PUSH0 PUSH2 0x661 JUMP JUMPDEST SWAP1 POP PUSH1 0x1 PUSH1 0x1 PUSH1 0xA0 SHL SUB DUP2 AND ISZERO PUSH2 0x441 JUMPI PUSH0 PUSH1 0x40 MLOAD PUSH4 0x39E35637 PUSH1 0xE1 SHL DUP2 MSTORE PUSH1 0x4 ADD PUSH2 0x369 SWAP2 SWAP1 PUSH2 0x127A JUMP JUMPDEST PUSH2 0x1050 DUP4 DUP4 DUP4 PUSH2 0x1170 JUMP JUMPDEST PUSH2 0x441 JUMPI PUSH1 0x1 PUSH1 0x1 PUSH1 0xA0 SHL SUB DUP4 AND PUSH2 0x107E JUMPI PUSH1 0x40 MLOAD PUSH4 0x7E273289 PUSH1 0xE0 SHL DUP2 MSTORE PUSH1 0x4 DUP2 ADD DUP3 SWAP1 MSTORE PUSH1 0x24 ADD PUSH2 0x369 JUMP JUMPDEST DUP2 DUP2 PUSH1 0x40 MLOAD PUSH4 0x177E802F PUSH1 0xE0 SHL DUP2 MSTORE PUSH1 0x4 ADD PUSH2 0x369 SWAP3 SWAP2 SWAP1 PUSH2 0x151E JUMP JUMPDEST PUSH0 DUP1 PUSH19 0x184F03E93FF9F4DAA797ED6E38ED64BF6A1F01 PUSH1 0x40 SHL DUP4 LT PUSH2 0x10D9 JUMPI PUSH19 0x184F03E93FF9F4DAA797ED6E38ED64BF6A1F01 PUSH1 0x40 SHL DUP4 DIV SWAP3 POP PUSH1 0x40 ADD JUMPDEST PUSH10 0x4EE2D6D415B85ACEF81 PUSH1 0x20 SHL DUP4 LT PUSH2 0x1103 JUMPI PUSH10 0x4EE2D6D415B85ACEF81 PUSH1 0x20 SHL DUP4 DIV SWAP3 POP PUSH1 0x20 ADD JUMPDEST PUSH7 0x2386F26FC10000 DUP4 LT PUSH2 0x1121 JUMPI PUSH7 0x2386F26FC10000 DUP4 DIV SWAP3 POP PUSH1 0x10 ADD JUMPDEST PUSH4 0x5F5E100 DUP4 LT PUSH2 0x1139 JUMPI PUSH4 0x5F5E100 DUP4 DIV SWAP3 POP PUSH1 0x8 ADD JUMPDEST PUSH2 0x2710 DUP4 LT PUSH2 0x114D JUMPI PUSH2 0x2710 DUP4 DIV SWAP3 POP PUSH1 0x4 ADD JUMPDEST PUSH1 0x64 DUP4 LT PUSH2 0x115F JUMPI PUSH1 0x64 DUP4 DIV SWAP3 POP PUSH1 0x2 ADD JUMPDEST PUSH1 0xA DUP4 LT PUSH2 0x288 JUMPI PUSH1 0x1 ADD SWAP3 SWAP2 POP POP JUMP JUMPDEST PUSH0 PUSH1 0x1 PUSH1 0x1 PUSH1 0xA0 SHL SUB DUP4 AND ISZERO DUP1 ISZERO SWAP1 PUSH2 0x66D JUMPI POP DUP3 PUSH1 0x1 PUSH1 0x1 PUSH1 0xA0 SHL SUB AND DUP5 PUSH1 0x1 PUSH1 0x1 PUSH1 0xA0 SHL SUB AND EQ DUP1 PUSH2 0x11A9 JUMPI POP PUSH2 0x11A9 DUP5 DUP5 PUSH2 0x575 JUMP JUMPDEST DUP1 PUSH2 0x66D JUMPI POP DUP3 PUSH1 0x1 PUSH1 0x1 PUSH1 0xA0 SHL SUB AND PUSH2 0x11C2 DUP4 PUSH2 0x63A JUMP JUMPDEST PUSH1 0x1 PUSH1 0x1 PUSH1 0xA0 SHL SUB AND EQ SWAP5 SWAP4 POP POP POP POP JUMP JUMPDEST PUSH1 0x1 PUSH1 0x1 PUSH1 0xE0 SHL SUB NOT DUP2 AND DUP2 EQ PUSH2 0x5DC JUMPI PUSH0 DUP1 REVERT JUMPDEST PUSH0 PUSH1 0x20 DUP3 DUP5 SUB SLT ISZERO PUSH2 0x11F9 JUMPI PUSH0 DUP1 REVERT JUMPDEST DUP2 CALLDATALOAD PUSH2 0xC7A DUP2 PUSH2 0x11D4 JUMP JUMPDEST PUSH0 JUMPDEST DUP4 DUP2 LT ISZERO PUSH2 0x121E JUMPI DUP2 DUP2 ADD MLOAD DUP4 DUP3 ADD MSTORE PUSH1 0x20 ADD PUSH2 0x1206 JUMP JUMPDEST POP POP PUSH0 SWAP2 ADD MSTORE JUMP JUMPDEST PUSH0 DUP2 MLOAD DUP1 DUP5 MSTORE PUSH2 0x123D DUP2 PUSH1 0x20 DUP7 ADD PUSH1 0x20 DUP7 ADD PUSH2 0x1204 JUMP JUMPDEST PUSH1 0x1F ADD PUSH1 0x1F NOT AND SWAP3 SWAP1 SWAP3 ADD PUSH1 0x20 ADD SWAP3 SWAP2 POP POP JUMP JUMPDEST PUSH1 0x20 DUP2 MSTORE PUSH0 PUSH2 0xC7A PUSH1 0x20 DUP4 ADD DUP5 PUSH2 0x1226 JUMP JUMPDEST PUSH0 PUSH1 0x20 DUP3 DUP5 SUB SLT ISZERO PUSH2 0x1273 JUMPI PUSH0 DUP1 REVERT JUMPDEST POP CALLDATALOAD SWAP2 SWAP1 POP JUMP JUMPDEST PUSH1 0x1 PUSH1 0x1 PUSH1 0xA0 SHL SUB SWAP2 SWAP1 SWAP2 AND DUP2 MSTORE PUSH1 0x20 ADD SWAP1 JUMP JUMPDEST DUP1 CALLDATALOAD PUSH1 0x1 PUSH1 0x1 PUSH1 0xA0 SHL SUB DUP2 AND DUP2 EQ PUSH2 0x12A4 JUMPI PUSH0 DUP1 REVERT JUMPDEST SWAP2 SWAP1 POP JUMP JUMPDEST PUSH0 DUP1 PUSH1 0x40 DUP4 DUP6 SUB SLT ISZERO PUSH2 0x12BA JUMPI PUSH0 DUP1 REVERT JUMPDEST PUSH2 0x12C3 DUP4 PUSH2 0x128E JUMP JUMPDEST SWAP5 PUSH1 0x20 SWAP4 SWAP1 SWAP4 ADD CALLDATALOAD SWAP4 POP POP POP JUMP JUMPDEST PUSH0 DUP1 PUSH0 PUSH1 0x60 DUP5 DUP7 SUB SLT ISZERO PUSH2 0x12E3 JUMPI PUSH0 DUP1 REVERT JUMPDEST PUSH2 0x12EC DUP5 PUSH2 0x128E JUMP JUMPDEST SWAP3 POP PUSH2 0x12FA PUSH1 0x20 DUP6 ADD PUSH2 0x128E JUMP JUMPDEST SWAP2 POP PUSH1 0x40 DUP5 ADD CALLDATALOAD SWAP1 POP SWAP3 POP SWAP3 POP SWAP3 JUMP JUMPDEST PUSH0 PUSH1 0x20 DUP3 DUP5 SUB SLT ISZERO PUSH2 0x131A JUMPI PUSH0 DUP1 REVERT JUMPDEST PUSH2 0xC7A DUP3 PUSH2 0x128E JUMP JUMPDEST PUSH0 DUP1 PUSH1 0x40 DUP4 DUP6 SUB SLT ISZERO PUSH2 0x1334 JUMPI PUSH0 DUP1 REVERT JUMPDEST PUSH2 0x133D DUP4 PUSH2 0x128E JUMP JUMPDEST SWAP2 POP PUSH1 0x20 DUP4 ADD CALLDATALOAD DUP1 ISZERO ISZERO DUP2 EQ PUSH2 0x1351 JUMPI PUSH0 DUP1 REVERT JUMPDEST DUP1 SWAP2 POP POP SWAP3 POP SWAP3 SWAP1 POP JUMP JUMPDEST PUSH4 0x4E487B71 PUSH1 0xE0 SHL PUSH0 MSTORE PUSH1 0x41 PUSH1 0x4 MSTORE PUSH1 0x24 PUSH0 REVERT JUMPDEST PUSH0 PUSH1 0x1 PUSH1 0x1 PUSH1 0x40 SHL SUB DUP1 DUP5 GT ISZERO PUSH2 0x1389 JUMPI PUSH2 0x1389 PUSH2 0x135C JUMP JUMPDEST PUSH1 0x40 MLOAD PUSH1 0x1F DUP6 ADD PUSH1 0x1F NOT SWAP1 DUP2 AND PUSH1 0x3F ADD AND DUP2 ADD SWAP1 DUP3 DUP3 GT DUP2 DUP4 LT OR ISZERO PUSH2 0x13B1 JUMPI PUSH2 0x13B1 PUSH2 0x135C JUMP JUMPDEST DUP2 PUSH1 0x40 MSTORE DUP1 SWAP4 POP DUP6 DUP2 MSTORE DUP7 DUP7 DUP7 ADD GT ISZERO PUSH2 0x13C9 JUMPI PUSH0 DUP1 REVERT JUMPDEST DUP6 DUP6 PUSH1 0x20 DUP4 ADD CALLDATACOPY PUSH0 PUSH1 0x20 DUP8 DUP4 ADD ADD MSTORE POP POP POP SWAP4 SWAP3 POP POP POP JUMP JUMPDEST PUSH0 DUP1 PUSH0 DUP1 PUSH1 0x80 DUP6 DUP8 SUB SLT ISZERO PUSH2 0x13F5 JUMPI PUSH0 DUP1 REVERT JUMPDEST PUSH2 0x13FE DUP6 PUSH2 0x128E JUMP JUMPDEST SWAP4 POP PUSH2 0x140C PUSH1 0x20 DUP7 ADD PUSH2 0x128E JUMP JUMPDEST SWAP3 POP PUSH1 0x40 DUP6 ADD CALLDATALOAD SWAP2 POP PUSH1 0x60 DUP6 ADD CALLDATALOAD PUSH1 0x1 PUSH1 0x1 PUSH1 0x40 SHL SUB DUP2 GT ISZERO PUSH2 0x142D JUMPI PUSH0 DUP1 REVERT JUMPDEST DUP6 ADD PUSH1 0x1F DUP2 ADD DUP8 SGT PUSH2 0x143D JUMPI PUSH0 DUP1 REVERT JUMPDEST PUSH2 0x144C DUP8 DUP3 CALLDATALOAD PUSH1 0x20 DUP5 ADD PUSH2 0x1370 JUMP JUMPDEST SWAP2 POP POP SWAP3 SWAP6 SWAP2 SWAP5 POP SWAP3 POP JUMP JUMPDEST PUSH0 DUP1 PUSH1 0x40 DUP4 DUP6 SUB SLT ISZERO PUSH2 0x1469 JUMPI PUSH0 DUP1 REVERT JUMPDEST PUSH2 0x1472 DUP4 PUSH2 0x128E JUMP JUMPDEST SWAP2 POP PUSH1 0x20 DUP4 ADD CALLDATALOAD PUSH1 0x1 PUSH1 0x1 PUSH1 0x40 SHL SUB DUP2 GT ISZERO PUSH2 0x148C JUMPI PUSH0 DUP1 REVERT JUMPDEST DUP4 ADD PUSH1 0x1F DUP2 ADD DUP6 SGT PUSH2 0x149C JUMPI PUSH0 DUP1 REVERT JUMPDEST PUSH2 0x14AB DUP6 DUP3 CALLDATALOAD PUSH1 0x20 DUP5 ADD PUSH2 0x1370 JUMP JUMPDEST SWAP2 POP POP SWAP3 POP SWAP3 SWAP1 POP JUMP JUMPDEST PUSH0 DUP1 PUSH1 0x40 DUP4 DUP6 SUB SLT ISZERO PUSH2 0x14C6 JUMPI PUSH0 DUP1 REVERT JUMPDEST PUSH2 0x14CF DUP4 PUSH2 0x128E JUMP JUMPDEST SWAP2 POP PUSH2 0x14DD PUSH1 0x20 DUP5 ADD PUSH2 0x128E JUMP JUMPDEST SWAP1 POP SWAP3 POP SWAP3 SWAP1 POP JUMP JUMPDEST PUSH1 0x1 DUP2 DUP2 SHR SWAP1 DUP3 AND DUP1 PUSH2 0x14FA JUMPI PUSH1 0x7F DUP3 AND SWAP2 POP JUMPDEST PUSH1 0x20 DUP3 LT DUP2 SUB PUSH2 0x1518 JUMPI PUSH4 0x4E487B71 PUSH1 0xE0 SHL PUSH0 MSTORE PUSH1 0x22 PUSH1 0x4 MSTORE PUSH1 0x24 PUSH0 REVERT JUMPDEST POP SWAP2 SWAP1 POP JUMP JUMPDEST PUSH1 0x1 PUSH1 0x1 PUSH1 0xA0 SHL SUB SWAP3 SWAP1 SWAP3 AND DUP3 MSTORE PUSH1 0x20 DUP3 ADD MSTORE PUSH1 0x40 ADD SWAP1 JUMP JUMPDEST PUSH4 0x4E487B71 PUSH1 0xE0 SHL PUSH0 MSTORE PUSH1 0x32 PUSH1 0x4 MSTORE PUSH1 0x24 PUSH0 REVERT JUMPDEST PUSH4 0x4E487B71 PUSH1 0xE0 SHL PUSH0 MSTORE PUSH1 0x11 PUSH1 0x4 MSTORE PUSH1 0x24 PUSH0 REVERT JUMPDEST PUSH0 PUSH1 0x1 DUP3 ADD PUSH2 0x1570 JUMPI PUSH2 0x1570 PUSH2 0x154B JUMP JUMPDEST POP PUSH1 0x1 ADD SWAP1 JUMP JUMPDEST PUSH1 0x1 PUSH1 0x1 PUSH1 0xA0 SHL SUB DUP6 DUP2 AND DUP3 MSTORE DUP5 AND PUSH1 0x20 DUP3 ADD MSTORE PUSH1 0x40 DUP2 ADD DUP4 SWAP1 MSTORE PUSH1 0x80 PUSH1 0x60 DUP3 ADD DUP2 SWAP1 MSTORE PUSH0 SWAP1 PUSH2 0x15A9 SWAP1 DUP4 ADD DUP5 PUSH2 0x1226 JUMP JUMPDEST SWAP7 SWAP6 POP POP POP POP POP POP JUMP JUMPDEST PUSH0 PUSH1 0x20 DUP3 DUP5 SUB SLT ISZERO PUSH2 0x15C3 JUMPI PUSH0 DUP1 REVERT JUMPDEST DUP2 MLOAD PUSH2 0xC7A DUP2 PUSH2 0x11D4 JUMP JUMPDEST PUSH0 DUP4 MLOAD PUSH2 0x15DF DUP2 DUP5 PUSH1 0x20 DUP9 ADD PUSH2 0x1204 JUMP JUMPDEST DUP4 MLOAD SWAP1 DUP4 ADD SWAP1 PUSH2 0x15F3 DUP2 DUP4 PUSH1 0x20 DUP9 ADD PUSH2 0x1204 JUMP JUMPDEST ADD SWAP5 SWAP4 POP POP POP POP JUMP JUMPDEST PUSH1 0x1F DUP3 GT ISZERO PUSH2 0x441 JUMPI DUP1 PUSH0 MSTORE PUSH1 0x20 PUSH0 KECCAK256 PUSH1 0x1F DUP5 ADD PUSH1 0x5 SHR DUP2 ADD PUSH1 0x20 DUP6 LT ISZERO PUSH2 0x1621 JUMPI POP DUP1 JUMPDEST PUSH1 0x1F DUP5 ADD PUSH1 0x5 SHR DUP3 ADD SWAP2 POP JUMPDEST DUP2 DUP2 LT ISZERO PUSH2 0x89A JUMPI PUSH0 DUP2 SSTORE PUSH1 0x1 ADD PUSH2 0x162D JUMP JUMPDEST DUP2 MLOAD PUSH1 0x1 PUSH1 0x1 PUSH1 0x40 SHL SUB DUP2 GT ISZERO PUSH2 0x1659 JUMPI PUSH2 0x1659 PUSH2 0x135C JUMP JUMPDEST PUSH2 0x166D DUP2 PUSH2 0x1667 DUP5 SLOAD PUSH2 0x14E6 JUMP JUMPDEST DUP5 PUSH2 0x15FC JUMP JUMPDEST PUSH1 0x20 DUP1 PUSH1 0x1F DUP4 GT PUSH1 0x1 DUP2 EQ PUSH2 0x16A0 JUMPI PUSH0 DUP5 ISZERO PUSH2 0x1689 JUMPI POP DUP6 DUP4 ADD MLOAD JUMPDEST PUSH0 NOT PUSH1 0x3 DUP7 SWAP1 SHL SHR NOT AND PUSH1 0x1 DUP6 SWAP1 SHL OR DUP6 SSTORE PUSH2 0x16F7 JUMP JUMPDEST PUSH0 DUP6 DUP2 MSTORE PUSH1 0x20 DUP2 KECCAK256 PUSH1 0x1F NOT DUP7 AND SWAP2 JUMPDEST DUP3 DUP2 LT ISZERO PUSH2 0x16CE JUMPI DUP9 DUP7 ADD MLOAD DUP3 SSTORE SWAP5 DUP5 ADD SWAP5 PUSH1 0x1 SWAP1 SWAP2 ADD SWAP1 DUP5 ADD PUSH2 0x16AF JUMP JUMPDEST POP DUP6 DUP3 LT ISZERO PUSH2 0x16EB JUMPI DUP8 DUP6 ADD MLOAD PUSH0 NOT PUSH1 0x3 DUP9 SWAP1 SHL PUSH1 0xF8 AND SHR NOT AND DUP2 SSTORE JUMPDEST POP POP PUSH1 0x1 DUP5 PUSH1 0x1 SHL ADD DUP6 SSTORE JUMPDEST POP POP POP POP POP POP JUMP JUMPDEST DUP2 DUP2 SUB DUP2 DUP2 GT ISZERO PUSH2 0x288 JUMPI PUSH2 0x288 PUSH2 0x154B JUMP JUMPDEST PUSH4 0x4E487B71 PUSH1 0xE0 SHL PUSH0 MSTORE PUSH1 0x31 PUSH1 0x4 MSTORE PUSH1 0x24 PUSH0 REVERT INVALID LOG2 PUSH5 0x6970667358 0x22 SLT KECCAK256 PUSH22 0x303E5DED82325F9CD7912530DD6E894B683456724C41 DIV 0xBC PUSH28 0xA078DE7E154264736F6C63430008170033A2646970667358221220A5 DUP6 0xE0 0x5C 0xCE DUP8 INVALID 0x5D CALLCODE CALLVALUE 0xEE CALLER 0xA5 LOG3 DUP16 0xE9 0xC6 0xAC PUSH25 0x73D5826FC257DDCF10996240D964736F6C6343000817003300 "},"gasEstimates":{"creation":{"codeDepositCost":"3047000","executionCost":"3355","totalCost":"3050355"},"external":{"createProject(address,string,uint256,uint256,uint256,string,string)":"infinite","deployedProjects(uint256)":"4610","getDeployedProjects()":"infinite"}},"methodIdentifiers":{"createProject(address,string,uint256,uint256,uint256,string,string)":"c73d7024","deployedProjects(uint256)":"9ec6deaf","getDeployedProjects()":"7ac3886e"}},"storageLayout":{"storage":[{"astId":32184,"contract":"ProjectFactory.sol:ProjectFactory","label":"deployedProjects","offset":0,"slot":"0","type":"t_array(t_address)dyn_storage"}],"types":{"t_address":{"encoding":"inplace","label":"address","numberOfBytes":"20"},"t_array(t_address)dyn_storage":{"base":"t_address","encoding":"dynamic_array","label":"address[]","numberOfBytes":"32"}}},"userdoc":{"kind":"user","methods":{},"version":1}}