{"abi":[{"inputs":[{"internalType":"address","name":"recipient","type":"address"},{"internalType":"string","name":"cid","type":"string"},{"internalType":"uint256","name":"minimumContribution","type":"uint256"},{"internalType":"uint256","name":"targetContribution","type":"uint256"},{"internalType":"uint256","name":"deadline","type":"uint256"},{"internalType":"string","name":"completionDescription","type":"string"},{"internalType":"string","name":"nftNamePrefix","type":"string"},{"internalType":"string","name":"nftSymbolPrefix","type":"string"}],"name":"createProject","outputs":[],"stateMutability":"nonpayable","type":"function"},{"inputs":[{"internalType":"uint256","name":"","type":"uint256"}],"name":"deployedProjects","outputs":[{"internalType":"address","name":"","type":"address"}],"stateMutability":"view","type":"function"},{"inputs":[],"name":"getDeployedProjects","outputs":[{"internalType":"address[]","name":"","type":"address[]"}],"stateMutability":"view","type":"function"}],"devdoc":{"kind":"dev","methods":{},"version":1},"evm":{"assembly":"    /* \"ProjectFactory.sol\":94:1062  contract ProjectFactory {... */\n  mstore(0x40, 0x80)\n  callvalue\n  dup1\n  iszero\n  tag_1\n  jumpi\n  0x00\n  dup1\n  revert\ntag_1:\n  pop\n  dataSize(sub_0)\n  dup1\n  dataOffset(sub_0)\n  0x00\n  codecopy\n  0x00\n  return\nstop\n\nsub_0: assembly {\n        /* \"ProjectFactory.sol\":94:1062  contract ProjectFactory {... */\n      mstore(0x40, 0x80)\n      callvalue\n      dup1\n      iszero\n      tag_1\n      jumpi\n      0x00\n      dup1\n      revert\n    tag_1:\n      pop\n      jumpi(tag_2, lt(calldatasize, 0x04))\n      shr(0xe0, calldataload(0x00))\n      dup1\n      0x6f8aa6e2\n      eq\n      tag_3\n      jumpi\n      dup1\n      0x7ac3886e\n      eq\n      tag_4\n      jumpi\n      dup1\n      0x9ec6deaf\n      eq\n      tag_5\n      jumpi\n    tag_2:\n      0x00\n      dup1\n      revert\n        /* \"ProjectFactory.sol\":164:944  function createProject(... */\n    tag_3:\n      tag_6\n      tag_7\n      calldatasize\n      0x04\n      tag_8\n      jump\t// in\n    tag_7:\n      tag_9\n      jump\t// in\n    tag_6:\n      stop\n        /* \"ProjectFactory.sol\":950:1060  function getDeployedProjects() public view returns (address[] memory) {... */\n    tag_4:\n      tag_10\n      tag_11\n      jump\t// in\n    tag_10:\n      mload(0x40)\n      tag_12\n      swap2\n      swap1\n      tag_13\n      jump\t// in\n    tag_12:\n      mload(0x40)\n      dup1\n      swap2\n      sub\n      swap1\n      return\n        /* \"ProjectFactory.sol\":124:157  address[] public deployedProjects */\n    tag_5:\n      tag_14\n      tag_15\n      calldatasize\n      0x04\n      tag_16\n      jump\t// in\n    tag_15:\n      tag_17\n      jump\t// in\n    tag_14:\n      mload(0x40)\n      sub(shl(0xa0, 0x01), 0x01)\n        /* \"#utility.yul\":3291:3323   */\n      swap1\n      swap2\n      and\n        /* \"#utility.yul\":3273:3324   */\n      dup2\n      mstore\n        /* \"#utility.yul\":3261:3263   */\n      0x20\n        /* \"#utility.yul\":3246:3264   */\n      add\n        /* \"ProjectFactory.sol\":124:157  address[] public deployedProjects */\n      tag_12\n        /* \"#utility.yul\":3127:3330   */\n      jump\n        /* \"ProjectFactory.sol\":164:944  function createProject(... */\n    tag_9:\n        /* \"ProjectFactory.sol\":484:502  address newProject */\n      0x00\n        /* \"ProjectFactory.sol\":555:578  deployedProjects.length */\n      dup1\n      sload\n        /* \"ProjectFactory.sol\":555:582  deployedProjects.length + 1 */\n      tag_21\n      swap1\n        /* \"ProjectFactory.sol\":581:582  1 */\n      0x01\n        /* \"ProjectFactory.sol\":555:582  deployedProjects.length + 1 */\n      tag_22\n      jump\t// in\n    tag_21:\n        /* \"ProjectFactory.sol\":600:610  msg.sender */\n      caller\n        /* \"ProjectFactory.sol\":628:631  cid */\n      dup10\n        /* \"ProjectFactory.sol\":649:668  minimumContribution */\n      dup10\n        /* \"ProjectFactory.sol\":686:704  targetContribution */\n      dup10\n        /* \"ProjectFactory.sol\":722:730  deadline */\n      dup10\n        /* \"ProjectFactory.sol\":756:765  recipient */\n      dup15\n        /* \"ProjectFactory.sol\":784:805  completionDescription */\n      dup11\n        /* \"ProjectFactory.sol\":823:836  nftNamePrefix */\n      dup11\n        /* \"ProjectFactory.sol\":854:869  nftSymbolPrefix */\n      dup11\n        /* \"ProjectFactory.sol\":526:883  new Project(... */\n      mload(0x40)\n      tag_23\n      swap1\n      tag_24\n      jump\t// in\n    tag_23:\n      tag_25\n      swap11\n      swap10\n      swap9\n      swap8\n      swap7\n      swap6\n      swap5\n      swap4\n      swap3\n      swap2\n      swap1\n      tag_26\n      jump\t// in\n    tag_25:\n      mload(0x40)\n      dup1\n      swap2\n      sub\n      swap1\n      0x00\n      create\n      dup1\n      iszero\n      dup1\n      iszero\n      tag_27\n      jumpi\n      returndatasize\n      0x00\n      dup1\n      returndatacopy\n      revert(0x00, returndatasize)\n    tag_27:\n      pop\n        /* \"ProjectFactory.sol\":904:920  deployedProjects */\n      0x00\n        /* \"ProjectFactory.sol\":904:937  deployedProjects.push(newProject) */\n      dup1\n      sload\n      0x01\n      dup2\n      add\n      dup3\n      sstore\n      swap1\n      dup1\n      mstore\n      0x290decd9548b62a8d60345a988386fc84ba6bc95484008f6362f93160ef3e563\n      add\n      dup1\n      sload\n      not(sub(shl(0xa0, 0x01), 0x01))\n      and\n      sub(shl(0xa0, 0x01), 0x01)\n      swap3\n      swap1\n      swap3\n      and\n      swap2\n      swap1\n      swap2\n      or\n      swap1\n      sstore\n      pop\n      pop\n      pop\n      pop\n      pop\n      pop\n      pop\n      pop\n      pop\n        /* \"ProjectFactory.sol\":164:944  function createProject(... */\n      jump\t// out\n        /* \"ProjectFactory.sol\":950:1060  function getDeployedProjects() public view returns (address[] memory) {... */\n    tag_11:\n        /* \"ProjectFactory.sol\":1002:1018  address[] memory */\n      0x60\n        /* \"ProjectFactory.sol\":1037:1053  deployedProjects */\n      0x00\n        /* \"ProjectFactory.sol\":1030:1053  return deployedProjects */\n      dup1\n      sload\n      dup1\n      0x20\n      mul\n      0x20\n      add\n      mload(0x40)\n      swap1\n      dup2\n      add\n      0x40\n      mstore\n      dup1\n      swap3\n      swap2\n      swap1\n      dup2\n      dup2\n      mstore\n      0x20\n      add\n      dup3\n      dup1\n      sload\n      dup1\n      iszero\n      tag_30\n      jumpi\n      0x20\n      mul\n      dup3\n      add\n      swap2\n      swap1\n      0x00\n      mstore\n      keccak256(0x00, 0x20)\n      swap1\n    tag_31:\n      dup2\n      sload\n      sub(shl(0xa0, 0x01), 0x01)\n      and\n      dup2\n      mstore\n      0x01\n      swap1\n      swap2\n      add\n      swap1\n      0x20\n      add\n      dup1\n      dup4\n      gt\n      tag_31\n      jumpi\n    tag_30:\n      pop\n      pop\n      pop\n      pop\n      pop\n      swap1\n      pop\n        /* \"ProjectFactory.sol\":950:1060  function getDeployedProjects() public view returns (address[] memory) {... */\n      swap1\n      jump\t// out\n        /* \"ProjectFactory.sol\":124:157  address[] public deployedProjects */\n    tag_17:\n      0x00\n      dup2\n      dup2\n      sload\n      dup2\n      lt\n      tag_32\n      jumpi\n      0x00\n      dup1\n      revert\n    tag_32:\n      0x00\n      swap2\n      dup3\n      mstore\n      0x20\n      swap1\n      swap2\n      keccak256\n      add\n      sload\n      sub(shl(0xa0, 0x01), 0x01)\n      and\n      swap1\n      pop\n      dup2\n      jump\t// out\n    tag_24:\n      dataSize(sub_0)\n      dup1\n      dataOffset(sub_0)\n      dup4\n      codecopy\n      add\n      swap1\n      jump\t// out\n        /* \"#utility.yul\":14:187   */\n    tag_34:\n        /* \"#utility.yul\":82:102   */\n      dup1\n      calldataload\n      sub(shl(0xa0, 0x01), 0x01)\n        /* \"#utility.yul\":131:162   */\n      dup2\n      and\n        /* \"#utility.yul\":121:163   */\n      dup2\n      eq\n        /* \"#utility.yul\":111:181   */\n      tag_40\n      jumpi\n        /* \"#utility.yul\":177:178   */\n      0x00\n        /* \"#utility.yul\":174:175   */\n      dup1\n        /* \"#utility.yul\":167:179   */\n      revert\n        /* \"#utility.yul\":111:181   */\n    tag_40:\n        /* \"#utility.yul\":14:187   */\n      swap2\n      swap1\n      pop\n      jump\t// out\n        /* \"#utility.yul\":192:319   */\n    tag_35:\n        /* \"#utility.yul\":253:263   */\n      0x4e487b71\n        /* \"#utility.yul\":248:251   */\n      0xe0\n        /* \"#utility.yul\":244:264   */\n      shl\n        /* \"#utility.yul\":241:242   */\n      0x00\n        /* \"#utility.yul\":234:265   */\n      mstore\n        /* \"#utility.yul\":284:288   */\n      0x41\n        /* \"#utility.yul\":281:282   */\n      0x04\n        /* \"#utility.yul\":274:289   */\n      mstore\n        /* \"#utility.yul\":308:312   */\n      0x24\n        /* \"#utility.yul\":305:306   */\n      0x00\n        /* \"#utility.yul\":298:313   */\n      revert\n        /* \"#utility.yul\":324:1043   */\n    tag_36:\n        /* \"#utility.yul\":367:372   */\n      0x00\n        /* \"#utility.yul\":420:423   */\n      dup3\n        /* \"#utility.yul\":413:417   */\n      0x1f\n        /* \"#utility.yul\":405:411   */\n      dup4\n        /* \"#utility.yul\":401:418   */\n      add\n        /* \"#utility.yul\":397:424   */\n      slt\n        /* \"#utility.yul\":387:442   */\n      tag_43\n      jumpi\n        /* \"#utility.yul\":438:439   */\n      0x00\n        /* \"#utility.yul\":435:436   */\n      dup1\n        /* \"#utility.yul\":428:440   */\n      revert\n        /* \"#utility.yul\":387:442   */\n    tag_43:\n        /* \"#utility.yul\":461:481   */\n      dup2\n      calldataload\n      sub(shl(0x40, 0x01), 0x01)\n        /* \"#utility.yul\":530:540   */\n      dup1\n      dup3\n      gt\n        /* \"#utility.yul\":527:563   */\n      iszero\n      tag_45\n      jumpi\n        /* \"#utility.yul\":543:561   */\n      tag_45\n      tag_35\n      jump\t// in\n    tag_45:\n        /* \"#utility.yul\":618:620   */\n      0x40\n        /* \"#utility.yul\":612:621   */\n      mload\n        /* \"#utility.yul\":586:588   */\n      0x1f\n        /* \"#utility.yul\":672:685   */\n      dup4\n      add\n      not(0x1f)\n        /* \"#utility.yul\":668:690   */\n      swap1\n      dup2\n      and\n        /* \"#utility.yul\":692:694   */\n      0x3f\n        /* \"#utility.yul\":664:695   */\n      add\n        /* \"#utility.yul\":660:700   */\n      and\n        /* \"#utility.yul\":648:701   */\n      dup2\n      add\n      swap1\n        /* \"#utility.yul\":716:734   */\n      dup3\n      dup3\n      gt\n        /* \"#utility.yul\":736:758   */\n      dup2\n      dup4\n      lt\n        /* \"#utility.yul\":713:759   */\n      or\n        /* \"#utility.yul\":710:782   */\n      iszero\n      tag_47\n      jumpi\n        /* \"#utility.yul\":762:780   */\n      tag_47\n      tag_35\n      jump\t// in\n    tag_47:\n        /* \"#utility.yul\":802:812   */\n      dup2\n        /* \"#utility.yul\":798:800   */\n      0x40\n        /* \"#utility.yul\":791:813   */\n      mstore\n        /* \"#utility.yul\":837:839   */\n      dup4\n        /* \"#utility.yul\":829:835   */\n      dup2\n        /* \"#utility.yul\":822:840   */\n      mstore\n        /* \"#utility.yul\":883:886   */\n      dup7\n        /* \"#utility.yul\":876:880   */\n      0x20\n        /* \"#utility.yul\":871:873   */\n      dup6\n        /* \"#utility.yul\":863:869   */\n      dup9\n        /* \"#utility.yul\":859:874   */\n      add\n        /* \"#utility.yul\":855:881   */\n      add\n        /* \"#utility.yul\":852:887   */\n      gt\n        /* \"#utility.yul\":849:904   */\n      iszero\n      tag_48\n      jumpi\n        /* \"#utility.yul\":900:901   */\n      0x00\n        /* \"#utility.yul\":897:898   */\n      dup1\n        /* \"#utility.yul\":890:902   */\n      revert\n        /* \"#utility.yul\":849:904   */\n    tag_48:\n        /* \"#utility.yul\":964:966   */\n      dup4\n        /* \"#utility.yul\":957:961   */\n      0x20\n        /* \"#utility.yul\":949:955   */\n      dup8\n        /* \"#utility.yul\":945:962   */\n      add\n        /* \"#utility.yul\":938:942   */\n      0x20\n        /* \"#utility.yul\":930:936   */\n      dup4\n        /* \"#utility.yul\":926:943   */\n      add\n        /* \"#utility.yul\":913:967   */\n      calldatacopy\n        /* \"#utility.yul\":1011:1012   */\n      0x00\n        /* \"#utility.yul\":1004:1008   */\n      0x20\n        /* \"#utility.yul\":999:1001   */\n      dup6\n        /* \"#utility.yul\":991:997   */\n      dup4\n        /* \"#utility.yul\":987:1002   */\n      add\n        /* \"#utility.yul\":983:1009   */\n      add\n        /* \"#utility.yul\":976:1013   */\n      mstore\n        /* \"#utility.yul\":1031:1037   */\n      dup1\n        /* \"#utility.yul\":1022:1037   */\n      swap5\n      pop\n      pop\n      pop\n      pop\n      pop\n        /* \"#utility.yul\":324:1043   */\n      swap3\n      swap2\n      pop\n      pop\n      jump\t// out\n        /* \"#utility.yul\":1048:2274   */\n    tag_8:\n        /* \"#utility.yul\":1210:1216   */\n      0x00\n        /* \"#utility.yul\":1218:1224   */\n      dup1\n        /* \"#utility.yul\":1226:1232   */\n      0x00\n        /* \"#utility.yul\":1234:1240   */\n      dup1\n        /* \"#utility.yul\":1242:1248   */\n      0x00\n        /* \"#utility.yul\":1250:1256   */\n      dup1\n        /* \"#utility.yul\":1258:1264   */\n      0x00\n        /* \"#utility.yul\":1266:1272   */\n      dup1\n        /* \"#utility.yul\":1319:1322   */\n      0x0100\n        /* \"#utility.yul\":1307:1316   */\n      dup10\n        /* \"#utility.yul\":1298:1305   */\n      dup12\n        /* \"#utility.yul\":1294:1317   */\n      sub\n        /* \"#utility.yul\":1290:1323   */\n      slt\n        /* \"#utility.yul\":1287:1340   */\n      iszero\n      tag_50\n      jumpi\n        /* \"#utility.yul\":1336:1337   */\n      0x00\n        /* \"#utility.yul\":1333:1334   */\n      dup1\n        /* \"#utility.yul\":1326:1338   */\n      revert\n        /* \"#utility.yul\":1287:1340   */\n    tag_50:\n        /* \"#utility.yul\":1359:1388   */\n      tag_51\n        /* \"#utility.yul\":1378:1387   */\n      dup10\n        /* \"#utility.yul\":1359:1388   */\n      tag_34\n      jump\t// in\n    tag_51:\n        /* \"#utility.yul\":1349:1388   */\n      swap8\n      pop\n        /* \"#utility.yul\":1439:1441   */\n      0x20\n        /* \"#utility.yul\":1424:1442   */\n      dup10\n      add\n        /* \"#utility.yul\":1411:1443   */\n      calldataload\n      sub(shl(0x40, 0x01), 0x01)\n        /* \"#utility.yul\":1492:1506   */\n      dup1\n      dup3\n      gt\n        /* \"#utility.yul\":1489:1523   */\n      iszero\n      tag_52\n      jumpi\n        /* \"#utility.yul\":1519:1520   */\n      0x00\n        /* \"#utility.yul\":1516:1517   */\n      dup1\n        /* \"#utility.yul\":1509:1521   */\n      revert\n        /* \"#utility.yul\":1489:1523   */\n    tag_52:\n        /* \"#utility.yul\":1542:1592   */\n      tag_53\n        /* \"#utility.yul\":1584:1591   */\n      dup13\n        /* \"#utility.yul\":1575:1581   */\n      dup4\n        /* \"#utility.yul\":1564:1573   */\n      dup14\n        /* \"#utility.yul\":1560:1582   */\n      add\n        /* \"#utility.yul\":1542:1592   */\n      tag_36\n      jump\t// in\n    tag_53:\n        /* \"#utility.yul\":1532:1592   */\n      swap9\n      pop\n        /* \"#utility.yul\":1639:1641   */\n      0x40\n        /* \"#utility.yul\":1628:1637   */\n      dup12\n        /* \"#utility.yul\":1624:1642   */\n      add\n        /* \"#utility.yul\":1611:1643   */\n      calldataload\n        /* \"#utility.yul\":1601:1643   */\n      swap8\n      pop\n        /* \"#utility.yul\":1690:1692   */\n      0x60\n        /* \"#utility.yul\":1679:1688   */\n      dup12\n        /* \"#utility.yul\":1675:1693   */\n      add\n        /* \"#utility.yul\":1662:1694   */\n      calldataload\n        /* \"#utility.yul\":1652:1694   */\n      swap7\n      pop\n        /* \"#utility.yul\":1741:1744   */\n      0x80\n        /* \"#utility.yul\":1730:1739   */\n      dup12\n        /* \"#utility.yul\":1726:1745   */\n      add\n        /* \"#utility.yul\":1713:1746   */\n      calldataload\n        /* \"#utility.yul\":1703:1746   */\n      swap6\n      pop\n        /* \"#utility.yul\":1799:1802   */\n      0xa0\n        /* \"#utility.yul\":1788:1797   */\n      dup12\n        /* \"#utility.yul\":1784:1803   */\n      add\n        /* \"#utility.yul\":1771:1804   */\n      calldataload\n        /* \"#utility.yul\":1755:1804   */\n      swap2\n      pop\n        /* \"#utility.yul\":1829:1831   */\n      dup1\n        /* \"#utility.yul\":1819:1827   */\n      dup3\n        /* \"#utility.yul\":1816:1832   */\n      gt\n        /* \"#utility.yul\":1813:1849   */\n      iszero\n      tag_54\n      jumpi\n        /* \"#utility.yul\":1845:1846   */\n      0x00\n        /* \"#utility.yul\":1842:1843   */\n      dup1\n        /* \"#utility.yul\":1835:1847   */\n      revert\n        /* \"#utility.yul\":1813:1849   */\n    tag_54:\n        /* \"#utility.yul\":1868:1920   */\n      tag_55\n        /* \"#utility.yul\":1912:1919   */\n      dup13\n        /* \"#utility.yul\":1901:1909   */\n      dup4\n        /* \"#utility.yul\":1890:1899   */\n      dup14\n        /* \"#utility.yul\":1886:1910   */\n      add\n        /* \"#utility.yul\":1868:1920   */\n      tag_36\n      jump\t// in\n    tag_55:\n        /* \"#utility.yul\":1858:1920   */\n      swap5\n      pop\n        /* \"#utility.yul\":1973:1976   */\n      0xc0\n        /* \"#utility.yul\":1962:1971   */\n      dup12\n        /* \"#utility.yul\":1958:1977   */\n      add\n        /* \"#utility.yul\":1945:1978   */\n      calldataload\n        /* \"#utility.yul\":1929:1978   */\n      swap2\n      pop\n        /* \"#utility.yul\":2003:2005   */\n      dup1\n        /* \"#utility.yul\":1993:2001   */\n      dup3\n        /* \"#utility.yul\":1990:2006   */\n      gt\n        /* \"#utility.yul\":1987:2023   */\n      iszero\n      tag_56\n      jumpi\n        /* \"#utility.yul\":2019:2020   */\n      0x00\n        /* \"#utility.yul\":2016:2017   */\n      dup1\n        /* \"#utility.yul\":2009:2021   */\n      revert\n        /* \"#utility.yul\":1987:2023   */\n    tag_56:\n        /* \"#utility.yul\":2042:2094   */\n      tag_57\n        /* \"#utility.yul\":2086:2093   */\n      dup13\n        /* \"#utility.yul\":2075:2083   */\n      dup4\n        /* \"#utility.yul\":2064:2073   */\n      dup14\n        /* \"#utility.yul\":2060:2084   */\n      add\n        /* \"#utility.yul\":2042:2094   */\n      tag_36\n      jump\t// in\n    tag_57:\n        /* \"#utility.yul\":2032:2094   */\n      swap4\n      pop\n        /* \"#utility.yul\":2147:2150   */\n      0xe0\n        /* \"#utility.yul\":2136:2145   */\n      dup12\n        /* \"#utility.yul\":2132:2151   */\n      add\n        /* \"#utility.yul\":2119:2152   */\n      calldataload\n        /* \"#utility.yul\":2103:2152   */\n      swap2\n      pop\n        /* \"#utility.yul\":2177:2179   */\n      dup1\n        /* \"#utility.yul\":2167:2175   */\n      dup3\n        /* \"#utility.yul\":2164:2180   */\n      gt\n        /* \"#utility.yul\":2161:2197   */\n      iszero\n      tag_58\n      jumpi\n        /* \"#utility.yul\":2193:2194   */\n      0x00\n        /* \"#utility.yul\":2190:2191   */\n      dup1\n        /* \"#utility.yul\":2183:2195   */\n      revert\n        /* \"#utility.yul\":2161:2197   */\n    tag_58:\n      pop\n        /* \"#utility.yul\":2216:2268   */\n      tag_59\n        /* \"#utility.yul\":2260:2267   */\n      dup12\n        /* \"#utility.yul\":2249:2257   */\n      dup3\n        /* \"#utility.yul\":2238:2247   */\n      dup13\n        /* \"#utility.yul\":2234:2258   */\n      add\n        /* \"#utility.yul\":2216:2268   */\n      tag_36\n      jump\t// in\n    tag_59:\n        /* \"#utility.yul\":2206:2268   */\n      swap2\n      pop\n      pop\n        /* \"#utility.yul\":1048:2274   */\n      swap3\n      swap6\n      swap9\n      pop\n      swap3\n      swap6\n      swap9\n      swap1\n      swap4\n      swap7\n      pop\n      jump\t// out\n        /* \"#utility.yul\":2279:2937   */\n    tag_13:\n        /* \"#utility.yul\":2450:2452   */\n      0x20\n        /* \"#utility.yul\":2502:2523   */\n      dup1\n      dup3\n      mstore\n        /* \"#utility.yul\":2572:2585   */\n      dup3\n      mload\n        /* \"#utility.yul\":2475:2493   */\n      dup3\n      dup3\n      add\n        /* \"#utility.yul\":2594:2616   */\n      dup2\n      swap1\n      mstore\n        /* \"#utility.yul\":2421:2425   */\n      0x00\n      swap2\n        /* \"#utility.yul\":2450:2452   */\n      swap1\n        /* \"#utility.yul\":2673:2688   */\n      dup5\n      dup3\n      add\n      swap1\n        /* \"#utility.yul\":2647:2649   */\n      0x40\n        /* \"#utility.yul\":2632:2650   */\n      dup6\n      add\n      swap1\n        /* \"#utility.yul\":2421:2425   */\n      dup5\n        /* \"#utility.yul\":2716:2911   */\n    tag_61:\n        /* \"#utility.yul\":2730:2736   */\n      dup2\n        /* \"#utility.yul\":2727:2728   */\n      dup2\n        /* \"#utility.yul\":2724:2737   */\n      lt\n        /* \"#utility.yul\":2716:2911   */\n      iszero\n      tag_63\n      jumpi\n        /* \"#utility.yul\":2795:2808   */\n      dup4\n      mload\n      sub(shl(0xa0, 0x01), 0x01)\n        /* \"#utility.yul\":2791:2830   */\n      and\n        /* \"#utility.yul\":2779:2831   */\n      dup4\n      mstore\n        /* \"#utility.yul\":2886:2901   */\n      swap3\n      dup5\n      add\n      swap3\n        /* \"#utility.yul\":2851:2863   */\n      swap2\n      dup5\n      add\n      swap2\n        /* \"#utility.yul\":2827:2828   */\n      0x01\n        /* \"#utility.yul\":2745:2754   */\n      add\n        /* \"#utility.yul\":2716:2911   */\n      jump(tag_61)\n    tag_63:\n      pop\n        /* \"#utility.yul\":2928:2931   */\n      swap1\n      swap7\n        /* \"#utility.yul\":2279:2937   */\n      swap6\n      pop\n      pop\n      pop\n      pop\n      pop\n      pop\n      jump\t// out\n        /* \"#utility.yul\":2942:3122   */\n    tag_16:\n        /* \"#utility.yul\":3001:3007   */\n      0x00\n        /* \"#utility.yul\":3054:3056   */\n      0x20\n        /* \"#utility.yul\":3042:3051   */\n      dup3\n        /* \"#utility.yul\":3033:3040   */\n      dup5\n        /* \"#utility.yul\":3029:3052   */\n      sub\n        /* \"#utility.yul\":3025:3057   */\n      slt\n        /* \"#utility.yul\":3022:3074   */\n      iszero\n      tag_65\n      jumpi\n        /* \"#utility.yul\":3070:3071   */\n      0x00\n        /* \"#utility.yul\":3067:3068   */\n      dup1\n        /* \"#utility.yul\":3060:3072   */\n      revert\n        /* \"#utility.yul\":3022:3074   */\n    tag_65:\n      pop\n        /* \"#utility.yul\":3093:3116   */\n      calldataload\n      swap2\n        /* \"#utility.yul\":2942:3122   */\n      swap1\n      pop\n      jump\t// out\n        /* \"#utility.yul\":3335:3557   */\n    tag_22:\n        /* \"#utility.yul\":3400:3409   */\n      dup1\n      dup3\n      add\n        /* \"#utility.yul\":3421:3431   */\n      dup1\n      dup3\n      gt\n        /* \"#utility.yul\":3418:3551   */\n      iszero\n      tag_68\n      jumpi\n        /* \"#utility.yul\":3473:3483   */\n      0x4e487b71\n        /* \"#utility.yul\":3468:3471   */\n      0xe0\n        /* \"#utility.yul\":3464:3484   */\n      shl\n        /* \"#utility.yul\":3461:3462   */\n      0x00\n        /* \"#utility.yul\":3454:3485   */\n      mstore\n        /* \"#utility.yul\":3508:3512   */\n      0x11\n        /* \"#utility.yul\":3505:3506   */\n      0x04\n        /* \"#utility.yul\":3498:3513   */\n      mstore\n        /* \"#utility.yul\":3536:3540   */\n      0x24\n        /* \"#utility.yul\":3533:3534   */\n      0x00\n        /* \"#utility.yul\":3526:3541   */\n      revert\n        /* \"#utility.yul\":3418:3551   */\n    tag_68:\n        /* \"#utility.yul\":3335:3557   */\n      swap3\n      swap2\n      pop\n      pop\n      jump\t// out\n        /* \"#utility.yul\":3562:3985   */\n    tag_37:\n        /* \"#utility.yul\":3604:3607   */\n      0x00\n        /* \"#utility.yul\":3642:3647   */\n      dup2\n        /* \"#utility.yul\":3636:3648   */\n      mload\n        /* \"#utility.yul\":3669:3675   */\n      dup1\n        /* \"#utility.yul\":3664:3667   */\n      dup5\n        /* \"#utility.yul\":3657:3676   */\n      mstore\n        /* \"#utility.yul\":3694:3695   */\n      0x00\n        /* \"#utility.yul\":3704:3866   */\n    tag_70:\n        /* \"#utility.yul\":3718:3724   */\n      dup2\n        /* \"#utility.yul\":3715:3716   */\n      dup2\n        /* \"#utility.yul\":3712:3725   */\n      lt\n        /* \"#utility.yul\":3704:3866   */\n      iszero\n      tag_72\n      jumpi\n        /* \"#utility.yul\":3780:3784   */\n      0x20\n        /* \"#utility.yul\":3836:3849   */\n      dup2\n      dup6\n      add\n        /* \"#utility.yul\":3832:3854   */\n      dup2\n      add\n        /* \"#utility.yul\":3826:3855   */\n      mload\n        /* \"#utility.yul\":3808:3819   */\n      dup7\n      dup4\n      add\n        /* \"#utility.yul\":3804:3824   */\n      dup3\n      add\n        /* \"#utility.yul\":3797:3856   */\n      mstore\n        /* \"#utility.yul\":3733:3745   */\n      add\n        /* \"#utility.yul\":3704:3866   */\n      jump(tag_70)\n    tag_72:\n        /* \"#utility.yul\":3708:3711   */\n      pop\n        /* \"#utility.yul\":3911:3912   */\n      0x00\n        /* \"#utility.yul\":3904:3908   */\n      0x20\n        /* \"#utility.yul\":3895:3901   */\n      dup3\n        /* \"#utility.yul\":3890:3893   */\n      dup7\n        /* \"#utility.yul\":3886:3902   */\n      add\n        /* \"#utility.yul\":3882:3909   */\n      add\n        /* \"#utility.yul\":3875:3913   */\n      mstore\n        /* \"#utility.yul\":3974:3978   */\n      0x20\n        /* \"#utility.yul\":3967:3969   */\n      0x1f\n        /* \"#utility.yul\":3963:3970   */\n      not\n        /* \"#utility.yul\":3958:3960   */\n      0x1f\n        /* \"#utility.yul\":3950:3956   */\n      dup4\n        /* \"#utility.yul\":3946:3961   */\n      add\n        /* \"#utility.yul\":3942:3971   */\n      and\n        /* \"#utility.yul\":3937:3940   */\n      dup6\n        /* \"#utility.yul\":3933:3972   */\n      add\n        /* \"#utility.yul\":3929:3979   */\n      add\n        /* \"#utility.yul\":3922:3979   */\n      swap2\n      pop\n      pop\n        /* \"#utility.yul\":3562:3985   */\n      swap3\n      swap2\n      pop\n      pop\n      jump\t// out\n        /* \"#utility.yul\":3990:5225   */\n    tag_26:\n        /* \"#utility.yul\":4471:4496   */\n      dup11\n      dup2\n      mstore\n      sub(shl(0xa0, 0x01), 0x01)\n        /* \"#utility.yul\":4570:4585   */\n      dup11\n      dup2\n      and\n        /* \"#utility.yul\":4565:4567   */\n      0x20\n        /* \"#utility.yul\":4550:4568   */\n      dup4\n      add\n        /* \"#utility.yul\":4543:4586   */\n      mstore\n        /* \"#utility.yul\":4459:4462   */\n      0x0140\n        /* \"#utility.yul\":4617:4619   */\n      0x40\n        /* \"#utility.yul\":4602:4620   */\n      dup4\n      add\n        /* \"#utility.yul\":4595:4625   */\n      dup2\n      swap1\n      mstore\n        /* \"#utility.yul\":4430:4434   */\n      0x00\n      swap2\n        /* \"#utility.yul\":4648:4693   */\n      tag_74\n        /* \"#utility.yul\":4674:4692   */\n      dup5\n      dup4\n      add\n        /* \"#utility.yul\":4666:4672   */\n      dup14\n        /* \"#utility.yul\":4648:4693   */\n      tag_37\n      jump\t// in\n    tag_74:\n        /* \"#utility.yul\":4634:4693   */\n      swap2\n      pop\n        /* \"#utility.yul\":4729:4735   */\n      dup11\n        /* \"#utility.yul\":4724:4726   */\n      0x60\n        /* \"#utility.yul\":4713:4722   */\n      dup6\n        /* \"#utility.yul\":4709:4727   */\n      add\n        /* \"#utility.yul\":4702:4736   */\n      mstore\n        /* \"#utility.yul\":4773:4779   */\n      dup10\n        /* \"#utility.yul\":4767:4770   */\n      0x80\n        /* \"#utility.yul\":4756:4765   */\n      dup6\n        /* \"#utility.yul\":4752:4771   */\n      add\n        /* \"#utility.yul\":4745:4780   */\n      mstore\n        /* \"#utility.yul\":4817:4823   */\n      dup9\n        /* \"#utility.yul\":4811:4814   */\n      0xa0\n        /* \"#utility.yul\":4800:4809   */\n      dup6\n        /* \"#utility.yul\":4796:4815   */\n      add\n        /* \"#utility.yul\":4789:4824   */\n      mstore\n        /* \"#utility.yul\":4873:4875   */\n      dup1\n        /* \"#utility.yul\":4865:4871   */\n      dup9\n        /* \"#utility.yul\":4861:4876   */\n      and\n        /* \"#utility.yul\":4855:4858   */\n      0xc0\n        /* \"#utility.yul\":4844:4853   */\n      dup6\n        /* \"#utility.yul\":4840:4859   */\n      add\n        /* \"#utility.yul\":4833:4877   */\n      mstore\n      pop\n        /* \"#utility.yul\":4926:4935   */\n      dup3\n        /* \"#utility.yul\":4918:4924   */\n      dup2\n        /* \"#utility.yul\":4914:4936   */\n      sub\n        /* \"#utility.yul\":4908:4911   */\n      0xe0\n        /* \"#utility.yul\":4897:4906   */\n      dup5\n        /* \"#utility.yul\":4893:4912   */\n      add\n        /* \"#utility.yul\":4886:4937   */\n      mstore\n        /* \"#utility.yul\":4960:4993   */\n      tag_75\n        /* \"#utility.yul\":4986:4992   */\n      dup2\n        /* \"#utility.yul\":4978:4984   */\n      dup8\n        /* \"#utility.yul\":4960:4993   */\n      tag_37\n      jump\t// in\n    tag_75:\n        /* \"#utility.yul\":4946:4993   */\n      swap1\n      pop\n        /* \"#utility.yul\":5042:5051   */\n      dup3\n        /* \"#utility.yul\":5034:5040   */\n      dup2\n        /* \"#utility.yul\":5030:5052   */\n      sub\n        /* \"#utility.yul\":5024:5027   */\n      0x0100\n        /* \"#utility.yul\":5013:5022   */\n      dup5\n        /* \"#utility.yul\":5009:5028   */\n      add\n        /* \"#utility.yul\":5002:5053   */\n      mstore\n        /* \"#utility.yul\":5076:5109   */\n      tag_76\n        /* \"#utility.yul\":5102:5108   */\n      dup2\n        /* \"#utility.yul\":5094:5100   */\n      dup7\n        /* \"#utility.yul\":5076:5109   */\n      tag_37\n      jump\t// in\n    tag_76:\n        /* \"#utility.yul\":5062:5109   */\n      swap1\n      pop\n        /* \"#utility.yul\":5158:5167   */\n      dup3\n        /* \"#utility.yul\":5150:5156   */\n      dup2\n        /* \"#utility.yul\":5146:5168   */\n      sub\n        /* \"#utility.yul\":5140:5143   */\n      0x0120\n        /* \"#utility.yul\":5129:5138   */\n      dup5\n        /* \"#utility.yul\":5125:5144   */\n      add\n        /* \"#utility.yul\":5118:5169   */\n      mstore\n        /* \"#utility.yul\":5186:5219   */\n      tag_77\n        /* \"#utility.yul\":5212:5218   */\n      dup2\n        /* \"#utility.yul\":5204:5210   */\n      dup6\n        /* \"#utility.yul\":5186:5219   */\n      tag_37\n      jump\t// in\n    tag_77:\n        /* \"#utility.yul\":5178:5219   */\n      swap14\n        /* \"#utility.yul\":3990:5225   */\n      swap13\n      pop\n      pop\n      pop\n      pop\n      pop\n      pop\n      pop\n      pop\n      pop\n      pop\n      pop\n      pop\n      pop\n      jump\t// out\n    stop\n\n    sub_0: assembly {\n            /* \"Project.sol\":172:6521  contract Project {... */\n          mstore(0x40, 0x80)\n            /* \"Project.sol\":637:1477  constructor(... */\n          callvalue\n          dup1\n          iszero\n          tag_1\n          jumpi\n          0x00\n          dup1\n          revert\n        tag_1:\n          pop\n          mload(0x40)\n          sub(codesize, bytecodeSize)\n          dup1\n          bytecodeSize\n          dup4\n          codecopy\n          dup2\n          add\n          0x40\n          dup2\n          swap1\n          mstore\n          tag_2\n          swap2\n          tag_3\n          jump\t// in\n        tag_2:\n            /* \"Project.sol\":984:986  id */\n          0x00\n            /* \"Project.sol\":984:992  id = _id */\n          dup11\n          swap1\n          sstore\n            /* \"Project.sol\":1002:1007  owner */\n          0x01\n            /* \"Project.sol\":1002:1016  owner = _owner */\n          dup1\n          sload\n          not(sub(shl(0xa0, 0x01), 0x01))\n          and\n          sub(shl(0xa0, 0x01), 0x01)\n          dup12\n          and\n          or\n          swap1\n          sstore\n            /* \"Project.sol\":1026:1029  cid */\n          0x02\n            /* \"Project.sol\":1026:1036  cid = _cid */\n          tag_6\n            /* \"Project.sol\":1032:1036  _cid */\n          dup10\n            /* \"Project.sol\":1026:1029  cid */\n          dup3\n            /* \"Project.sol\":1026:1036  cid = _cid */\n          tag_7\n          jump\t// in\n        tag_6:\n          pop\n            /* \"Project.sol\":1046:1065  minimumContribution */\n          0x03\n            /* \"Project.sol\":1046:1088  minimumContribution = _minimumContribution */\n          dup8\n          swap1\n          sstore\n            /* \"Project.sol\":1098:1116  targetContribution */\n          0x04\n            /* \"Project.sol\":1098:1138  targetContribution = _targetContribution */\n          dup7\n          swap1\n          sstore\n            /* \"Project.sol\":1148:1156  deadline */\n          0x05\n            /* \"Project.sol\":1148:1168  deadline = _deadline */\n          dup6\n          swap1\n          sstore\n          0x00\n            /* \"Project.sol\":1296:1298  id */\n          sload\n            /* \"Project.sol\":1221:1225  this */\n          address\n          swap1\n            /* \"Project.sol\":1264:1277  nftNamePrefix */\n          dup4\n          swap1\n            /* \"Project.sol\":1279:1299  Strings.toString(id) */\n          tag_8\n          swap1\n            /* \"Project.sol\":1279:1295  Strings.toString */\n          tag_9\n            /* \"Project.sol\":1279:1299  Strings.toString(id) */\n          jump\t// in\n        tag_8:\n            /* \"Project.sol\":1247:1300  abi.encodePacked(nftNamePrefix, Strings.toString(id)) */\n          add(0x20, mload(0x40))\n          tag_10\n          swap3\n          swap2\n          swap1\n          tag_11\n          jump\t// in\n        tag_10:\n          mload(0x40)\n          0x20\n          dup2\n          dup4\n          sub\n          sub\n          dup2\n          mstore\n          swap1\n          0x40\n          mstore\n            /* \"Project.sol\":1339:1354  nftSymbolPrefix */\n          dup3\n            /* \"Project.sol\":1356:1376  Strings.toString(id) */\n          tag_12\n            /* \"Project.sol\":1373:1375  id */\n          sload(0x00)\n            /* \"Project.sol\":1356:1372  Strings.toString */\n          shl(0x20, tag_9)\n            /* \"Project.sol\":1356:1376  Strings.toString(id) */\n          0x20\n          shr\n          jump\t// in\n        tag_12:\n            /* \"Project.sol\":1322:1377  abi.encodePacked(nftSymbolPrefix, Strings.toString(id)) */\n          add(0x20, mload(0x40))\n          tag_13\n          swap3\n          swap2\n          swap1\n          tag_11\n          jump\t// in\n        tag_13:\n          mload(0x40)\n          0x20\n          dup2\n          dup4\n          sub\n          sub\n          dup2\n          mstore\n          swap1\n          0x40\n          mstore\n            /* \"Project.sol\":1185:1388  new ProjectNFT(... */\n          mload(0x40)\n          tag_14\n          swap1\n          tag_15\n          jump\t// in\n        tag_14:\n          tag_16\n          swap4\n          swap3\n          swap2\n          swap1\n          tag_17\n          jump\t// in\n        tag_16:\n          mload(0x40)\n          dup1\n          swap2\n          sub\n          swap1\n          0x00\n          create\n          dup1\n          iszero\n          dup1\n          iszero\n          tag_18\n          jumpi\n          returndatasize\n          0x00\n          dup1\n          returndatacopy\n          revert(0x00, returndatasize)\n        tag_18:\n          pop\n            /* \"Project.sol\":1179:1182  nft */\n          0x09\n            /* \"Project.sol\":1179:1388  nft = new ProjectNFT(... */\n          dup1\n          sload\n          not(sub(shl(0xa0, 0x01), 0x01))\n          and\n          sub(shl(0xa0, 0x01), 0x01)\n          swap3\n          swap1\n          swap3\n          and\n          swap2\n          swap1\n          swap2\n          or\n          swap1\n          sstore\n            /* \"Project.sol\":1399:1470  _createMilestone(completionDescription, _targetContribution, recipient) */\n          tag_19\n            /* \"Project.sol\":1416:1437  completionDescription */\n          dup4\n            /* \"Project.sol\":1439:1458  _targetContribution */\n          dup8\n            /* \"Project.sol\":1460:1469  recipient */\n          dup7\n            /* \"Project.sol\":1399:1415  _createMilestone */\n          tag_20\n            /* \"Project.sol\":1399:1470  _createMilestone(completionDescription, _targetContribution, recipient) */\n          jump\t// in\n        tag_19:\n            /* \"Project.sol\":637:1477  constructor(... */\n          pop\n          pop\n          pop\n          pop\n          pop\n          pop\n          pop\n          pop\n          pop\n          pop\n            /* \"Project.sol\":172:6521  contract Project {... */\n          jump(tag_74)\n            /* \"@openzeppelin/contracts/utils/Strings.sol\":637:1335  function toString(uint256 value) internal pure returns (string memory) {... */\n        tag_9:\n            /* \"@openzeppelin/contracts/utils/Strings.sol\":693:706  string memory */\n          0x60\n            /* \"@openzeppelin/contracts/utils/Strings.sol\":742:756  uint256 length */\n          0x00\n            /* \"@openzeppelin/contracts/utils/Strings.sol\":759:776  Math.log10(value) */\n          tag_23\n            /* \"@openzeppelin/contracts/utils/Strings.sol\":770:775  value */\n          dup4\n            /* \"@openzeppelin/contracts/utils/Strings.sol\":759:769  Math.log10 */\n          tag_24\n            /* \"@openzeppelin/contracts/utils/Strings.sol\":759:776  Math.log10(value) */\n          jump\t// in\n        tag_23:\n            /* \"@openzeppelin/contracts/utils/Strings.sol\":779:780  1 */\n          0x01\n            /* \"@openzeppelin/contracts/utils/Strings.sol\":759:780  Math.log10(value) + 1 */\n          add\n            /* \"@openzeppelin/contracts/utils/Strings.sol\":742:780  uint256 length = Math.log10(value) + 1 */\n          swap1\n          pop\n            /* \"@openzeppelin/contracts/utils/Strings.sol\":794:814  string memory buffer */\n          0x00\n            /* \"@openzeppelin/contracts/utils/Strings.sol\":828:834  length */\n          dup2\n          sub(shl(0x40, 0x01), 0x01)\n            /* \"@openzeppelin/contracts/utils/Strings.sol\":817:835  new string(length) */\n          dup2\n          gt\n          iszero\n          tag_26\n          jumpi\n          tag_26\n          tag_27\n          jump\t// in\n        tag_26:\n          mload(0x40)\n          swap1\n          dup1\n          dup3\n          mstore\n          dup1\n          0x1f\n          add\n          not(0x1f)\n          and\n          0x20\n          add\n          dup3\n          add\n          0x40\n          mstore\n          dup1\n          iszero\n          tag_28\n          jumpi\n          0x20\n          dup3\n          add\n          dup2\n          dup1\n          calldatasize\n          dup4\n          calldatacopy\n          add\n          swap1\n          pop\n        tag_28:\n          pop\n            /* \"@openzeppelin/contracts/utils/Strings.sol\":794:835  string memory buffer = new string(length) */\n          swap1\n          pop\n            /* \"@openzeppelin/contracts/utils/Strings.sol\":955:983  add(buffer, add(32, length)) */\n          dup2\n          dup2\n          add\n            /* \"@openzeppelin/contracts/utils/Strings.sol\":971:973  32 */\n          0x20\n            /* \"@openzeppelin/contracts/utils/Strings.sol\":955:983  add(buffer, add(32, length)) */\n          add\n            /* \"@openzeppelin/contracts/utils/Strings.sol\":1010:1292  while (true) {... */\n        tag_29:\n          not(0x00)\n            /* \"@openzeppelin/contracts/utils/Strings.sol\":1041:1046  ptr-- */\n          add\n          shl(0x81, 0x181899199a1a9b1b9c1cb0b131b232b3)\n            /* \"@openzeppelin/contracts/utils/Strings.sol\":1175:1177  10 */\n          0x0a\n            /* \"@openzeppelin/contracts/utils/Strings.sol\":1164:1178  mod(value, 10) */\n          dup7\n          mod\n            /* \"@openzeppelin/contracts/utils/Strings.sol\":1159:1191  byte(mod(value, 10), HEX_DIGITS) */\n          byte\n            /* \"@openzeppelin/contracts/utils/Strings.sol\":1041:1046  ptr-- */\n          dup2\n            /* \"@openzeppelin/contracts/utils/Strings.sol\":1146:1192  mstore8(ptr, byte(mod(value, 10), HEX_DIGITS)) */\n          mstore8\n            /* \"@openzeppelin/contracts/utils/Strings.sol\":1236:1238  10 */\n          0x0a\n            /* \"@openzeppelin/contracts/utils/Strings.sol\":1227:1238  value /= 10 */\n          dup6\n          div\n          swap5\n          pop\n            /* \"@openzeppelin/contracts/utils/Strings.sol\":1256:1277  if (value == 0) break */\n          dup5\n            /* \"@openzeppelin/contracts/utils/Strings.sol\":1010:1292  while (true) {... */\n          tag_29\n            /* \"@openzeppelin/contracts/utils/Strings.sol\":1256:1277  if (value == 0) break */\n          jumpi\n          pop\n            /* \"@openzeppelin/contracts/utils/Strings.sol\":1312:1318  buffer */\n          swap4\n            /* \"@openzeppelin/contracts/utils/Strings.sol\":637:1335  function toString(uint256 value) internal pure returns (string memory) {... */\n          swap3\n          pop\n          pop\n          pop\n          jump\t// out\n            /* \"Project.sol\":3396:4026  function _createMilestone(... */\n        tag_20:\n            /* \"Project.sol\":3537:3543  uint i */\n          0x00\n            /* \"Project.sol\":3532:3727  for (uint i = 0; i < milestones.length; i++) {... */\n        tag_36:\n            /* \"Project.sol\":3553:3563  milestones */\n          0x08\n            /* \"Project.sol\":3553:3570  milestones.length */\n          sload\n            /* \"Project.sol\":3549:3570  i < milestones.length */\n          dup2\n          lt\n            /* \"Project.sol\":3532:3727  for (uint i = 0; i < milestones.length; i++) {... */\n          iszero\n          tag_37\n          jumpi\n            /* \"Project.sol\":3706:3715  threshold */\n          dup3\n            /* \"Project.sol\":3679:3689  milestones */\n          0x08\n            /* \"Project.sol\":3690:3691  i */\n          dup3\n            /* \"Project.sol\":3679:3692  milestones[i] */\n          dup2\n          sload\n          dup2\n          lt\n          tag_40\n          jumpi\n          tag_40\n          tag_41\n          jump\t// in\n        tag_40:\n          swap1\n          0x00\n          mstore\n          keccak256(0x00, 0x20)\n          swap1\n          0x0a\n          mul\n          add\n            /* \"Project.sol\":3679:3702  milestones[i].threshold */\n          0x02\n          add\n          sload\n            /* \"Project.sol\":3679:3715  milestones[i].threshold >= threshold */\n          lt\n          iszero\n            /* \"Project.sol\":3671:3716  require(milestones[i].threshold >= threshold) */\n          tag_43\n          jumpi\n          0x00\n          dup1\n          revert\n        tag_43:\n            /* \"Project.sol\":3572:3575  i++ */\n          0x01\n          add\n            /* \"Project.sol\":3532:3727  for (uint i = 0; i < milestones.length; i++) {... */\n          jump(tag_36)\n        tag_37:\n          pop\n            /* \"Project.sol\":3776:3786  milestones */\n          0x08\n            /* \"Project.sol\":3776:3793  milestones.push() */\n          dup1\n          sload\n          0x01\n          dup2\n          add\n          dup3\n          sstore\n            /* \"Project.sol\":3737:3773  Model.Milestone storage newMilestone */\n          0x00\n            /* \"Project.sol\":3776:3793  milestones.push() */\n          swap2\n          swap1\n          swap2\n          mstore\n          0x0a\n          mul\n          0xf3f7a9fe364faab93b216da50a3214154f22a0a2b415b23a84c8169e8b636ee3\n          dup2\n          add\n          swap1\n            /* \"Project.sol\":3804:3828  newMilestone.description */\n          0xf3f7a9fe364faab93b216da50a3214154f22a0a2b415b23a84c8169e8b636ee4\n          add\n            /* \"Project.sol\":3804:3842  newMilestone.description = description */\n          tag_45\n            /* \"Project.sol\":3831:3842  description */\n          dup6\n            /* \"Project.sol\":3804:3828  newMilestone.description */\n          dup3\n            /* \"Project.sol\":3804:3842  newMilestone.description = description */\n          tag_7\n          jump\t// in\n        tag_45:\n          pop\n            /* \"Project.sol\":3852:3874  newMilestone.threshold */\n          0x02\n          dup2\n          add\n            /* \"Project.sol\":3852:3886  newMilestone.threshold = threshold */\n          swap3\n          swap1\n          swap3\n          sstore\n            /* \"Project.sol\":3896:3939  newMilestone.recipient = payable(recipient) */\n          dup2\n          sload\n          not(sub(shl(0xa0, 0x01), 0x01))\n          and\n          sub(shl(0xa0, 0x01), 0x01)\n          swap2\n          swap1\n          swap2\n          and\n          or\n          dup2\n          sstore\n            /* \"Project.sol\":3949:3970  newMilestone.approved */\n          0x03\n          dup2\n          add\n            /* \"Project.sol\":3949:3978  newMilestone.approved = false */\n          dup1\n          sload\n          not(0xff)\n          and\n          swap1\n          sstore\n          0x00\n            /* \"Project.sol\":3988:4015  newMilestone.approvalsCount */\n          0x05\n          swap1\n          swap2\n          add\n            /* \"Project.sol\":3988:4019  newMilestone.approvalsCount = 0 */\n          sstore\n          pop\n            /* \"Project.sol\":3396:4026  function _createMilestone(... */\n          jump\t// out\n            /* \"@openzeppelin/contracts/utils/math/Math.sol\":12214:13130  function log10(uint256 value) internal pure returns (uint256) {... */\n        tag_24:\n            /* \"@openzeppelin/contracts/utils/math/Math.sol\":12267:12274  uint256 */\n          0x00\n          dup1\n            /* \"@openzeppelin/contracts/utils/math/Math.sol\":12351:12359  10 ** 64 */\n          0x184f03e93ff9f4daa797ed6e38ed64bf6a1f010000000000000000\n            /* \"@openzeppelin/contracts/utils/math/Math.sol\":12342:12359  value >= 10 ** 64 */\n          dup4\n          lt\n            /* \"@openzeppelin/contracts/utils/math/Math.sol\":12338:12441  if (value >= 10 ** 64) {... */\n          tag_47\n          jumpi\n            /* \"@openzeppelin/contracts/utils/math/Math.sol\":12388:12396  10 ** 64 */\n          0x184f03e93ff9f4daa797ed6e38ed64bf6a1f010000000000000000\n            /* \"@openzeppelin/contracts/utils/math/Math.sol\":12379:12396  value /= 10 ** 64 */\n          dup4\n          div\n          swap3\n          pop\n            /* \"@openzeppelin/contracts/utils/math/Math.sol\":12424:12426  64 */\n          0x40\n            /* \"@openzeppelin/contracts/utils/math/Math.sol\":12414:12426  result += 64 */\n          add\n            /* \"@openzeppelin/contracts/utils/math/Math.sol\":12338:12441  if (value >= 10 ** 64) {... */\n        tag_47:\n            /* \"@openzeppelin/contracts/utils/math/Math.sol\":12467:12475  10 ** 32 */\n          0x04ee2d6d415b85acef8100000000\n            /* \"@openzeppelin/contracts/utils/math/Math.sol\":12458:12463  value */\n          dup4\n            /* \"@openzeppelin/contracts/utils/math/Math.sol\":12458:12475  value >= 10 ** 32 */\n          lt\n            /* \"@openzeppelin/contracts/utils/math/Math.sol\":12454:12557  if (value >= 10 ** 32) {... */\n          tag_50\n          jumpi\n            /* \"@openzeppelin/contracts/utils/math/Math.sol\":12504:12512  10 ** 32 */\n          0x04ee2d6d415b85acef8100000000\n            /* \"@openzeppelin/contracts/utils/math/Math.sol\":12495:12512  value /= 10 ** 32 */\n          dup4\n          div\n          swap3\n          pop\n            /* \"@openzeppelin/contracts/utils/math/Math.sol\":12540:12542  32 */\n          0x20\n            /* \"@openzeppelin/contracts/utils/math/Math.sol\":12530:12542  result += 32 */\n          add\n            /* \"@openzeppelin/contracts/utils/math/Math.sol\":12454:12557  if (value >= 10 ** 32) {... */\n        tag_50:\n            /* \"@openzeppelin/contracts/utils/math/Math.sol\":12583:12591  10 ** 16 */\n          0x2386f26fc10000\n            /* \"@openzeppelin/contracts/utils/math/Math.sol\":12574:12579  value */\n          dup4\n            /* \"@openzeppelin/contracts/utils/math/Math.sol\":12574:12591  value >= 10 ** 16 */\n          lt\n            /* \"@openzeppelin/contracts/utils/math/Math.sol\":12570:12673  if (value >= 10 ** 16) {... */\n          tag_53\n          jumpi\n            /* \"@openzeppelin/contracts/utils/math/Math.sol\":12620:12628  10 ** 16 */\n          0x2386f26fc10000\n            /* \"@openzeppelin/contracts/utils/math/Math.sol\":12611:12628  value /= 10 ** 16 */\n          dup4\n          div\n          swap3\n          pop\n            /* \"@openzeppelin/contracts/utils/math/Math.sol\":12656:12658  16 */\n          0x10\n            /* \"@openzeppelin/contracts/utils/math/Math.sol\":12646:12658  result += 16 */\n          add\n            /* \"@openzeppelin/contracts/utils/math/Math.sol\":12570:12673  if (value >= 10 ** 16) {... */\n        tag_53:\n            /* \"@openzeppelin/contracts/utils/math/Math.sol\":12699:12706  10 ** 8 */\n          0x05f5e100\n            /* \"@openzeppelin/contracts/utils/math/Math.sol\":12690:12695  value */\n          dup4\n            /* \"@openzeppelin/contracts/utils/math/Math.sol\":12690:12706  value >= 10 ** 8 */\n          lt\n            /* \"@openzeppelin/contracts/utils/math/Math.sol\":12686:12786  if (value >= 10 ** 8) {... */\n          tag_56\n          jumpi\n            /* \"@openzeppelin/contracts/utils/math/Math.sol\":12735:12742  10 ** 8 */\n          0x05f5e100\n            /* \"@openzeppelin/contracts/utils/math/Math.sol\":12726:12742  value /= 10 ** 8 */\n          dup4\n          div\n          swap3\n          pop\n            /* \"@openzeppelin/contracts/utils/math/Math.sol\":12770:12771  8 */\n          0x08\n            /* \"@openzeppelin/contracts/utils/math/Math.sol\":12760:12771  result += 8 */\n          add\n            /* \"@openzeppelin/contracts/utils/math/Math.sol\":12686:12786  if (value >= 10 ** 8) {... */\n        tag_56:\n            /* \"@openzeppelin/contracts/utils/math/Math.sol\":12812:12819  10 ** 4 */\n          0x2710\n            /* \"@openzeppelin/contracts/utils/math/Math.sol\":12803:12808  value */\n          dup4\n            /* \"@openzeppelin/contracts/utils/math/Math.sol\":12803:12819  value >= 10 ** 4 */\n          lt\n            /* \"@openzeppelin/contracts/utils/math/Math.sol\":12799:12899  if (value >= 10 ** 4) {... */\n          tag_59\n          jumpi\n            /* \"@openzeppelin/contracts/utils/math/Math.sol\":12848:12855  10 ** 4 */\n          0x2710\n            /* \"@openzeppelin/contracts/utils/math/Math.sol\":12839:12855  value /= 10 ** 4 */\n          dup4\n          div\n          swap3\n          pop\n            /* \"@openzeppelin/contracts/utils/math/Math.sol\":12883:12884  4 */\n          0x04\n            /* \"@openzeppelin/contracts/utils/math/Math.sol\":12873:12884  result += 4 */\n          add\n            /* \"@openzeppelin/contracts/utils/math/Math.sol\":12799:12899  if (value >= 10 ** 4) {... */\n        tag_59:\n            /* \"@openzeppelin/contracts/utils/math/Math.sol\":12925:12932  10 ** 2 */\n          0x64\n            /* \"@openzeppelin/contracts/utils/math/Math.sol\":12916:12921  value */\n          dup4\n            /* \"@openzeppelin/contracts/utils/math/Math.sol\":12916:12932  value >= 10 ** 2 */\n          lt\n            /* \"@openzeppelin/contracts/utils/math/Math.sol\":12912:13012  if (value >= 10 ** 2) {... */\n          tag_62\n          jumpi\n            /* \"@openzeppelin/contracts/utils/math/Math.sol\":12961:12968  10 ** 2 */\n          0x64\n            /* \"@openzeppelin/contracts/utils/math/Math.sol\":12952:12968  value /= 10 ** 2 */\n          dup4\n          div\n          swap3\n          pop\n            /* \"@openzeppelin/contracts/utils/math/Math.sol\":12996:12997  2 */\n          0x02\n            /* \"@openzeppelin/contracts/utils/math/Math.sol\":12986:12997  result += 2 */\n          add\n            /* \"@openzeppelin/contracts/utils/math/Math.sol\":12912:13012  if (value >= 10 ** 2) {... */\n        tag_62:\n            /* \"@openzeppelin/contracts/utils/math/Math.sol\":13038:13045  10 ** 1 */\n          0x0a\n            /* \"@openzeppelin/contracts/utils/math/Math.sol\":13029:13034  value */\n          dup4\n            /* \"@openzeppelin/contracts/utils/math/Math.sol\":13029:13045  value >= 10 ** 1 */\n          lt\n            /* \"@openzeppelin/contracts/utils/math/Math.sol\":13025:13091  if (value >= 10 ** 1) {... */\n          tag_65\n          jumpi\n            /* \"@openzeppelin/contracts/utils/math/Math.sol\":13075:13076  1 */\n          0x01\n            /* \"@openzeppelin/contracts/utils/math/Math.sol\":13065:13076  result += 1 */\n          add\n            /* \"@openzeppelin/contracts/utils/math/Math.sol\":13025:13091  if (value >= 10 ** 1) {... */\n        tag_65:\n            /* \"@openzeppelin/contracts/utils/math/Math.sol\":13117:13123  result */\n          swap3\n            /* \"@openzeppelin/contracts/utils/math/Math.sol\":12214:13130  function log10(uint256 value) internal pure returns (uint256) {... */\n          swap2\n          pop\n          pop\n          jump\t// out\n            /* \"Project.sol\":172:6521  contract Project {... */\n        tag_15:\n          dataSize(sub_1)\n          dup1\n          dataOffset(sub_1)\n          dup4\n          codecopy\n          add\n          swap1\n          jump\t// out\n            /* \"#utility.yul\":14:191   */\n        tag_66:\n            /* \"#utility.yul\":93:106   */\n          dup1\n          mload\n          sub(shl(0xa0, 0x01), 0x01)\n            /* \"#utility.yul\":135:166   */\n          dup2\n          and\n            /* \"#utility.yul\":125:167   */\n          dup2\n          eq\n            /* \"#utility.yul\":115:185   */\n          tag_76\n          jumpi\n            /* \"#utility.yul\":181:182   */\n          0x00\n            /* \"#utility.yul\":178:179   */\n          dup1\n            /* \"#utility.yul\":171:183   */\n          revert\n            /* \"#utility.yul\":115:185   */\n        tag_76:\n            /* \"#utility.yul\":14:191   */\n          swap2\n          swap1\n          pop\n          jump\t// out\n            /* \"#utility.yul\":196:323   */\n        tag_27:\n            /* \"#utility.yul\":257:267   */\n          0x4e487b71\n            /* \"#utility.yul\":252:255   */\n          0xe0\n            /* \"#utility.yul\":248:268   */\n          shl\n            /* \"#utility.yul\":245:246   */\n          0x00\n            /* \"#utility.yul\":238:269   */\n          mstore\n            /* \"#utility.yul\":288:292   */\n          0x41\n            /* \"#utility.yul\":285:286   */\n          0x04\n            /* \"#utility.yul\":278:293   */\n          mstore\n            /* \"#utility.yul\":312:316   */\n          0x24\n            /* \"#utility.yul\":309:310   */\n          0x00\n            /* \"#utility.yul\":302:317   */\n          revert\n            /* \"#utility.yul\":328:578   */\n        tag_67:\n            /* \"#utility.yul\":413:414   */\n          0x00\n            /* \"#utility.yul\":423:536   */\n        tag_79:\n            /* \"#utility.yul\":437:443   */\n          dup4\n            /* \"#utility.yul\":434:435   */\n          dup2\n            /* \"#utility.yul\":431:444   */\n          lt\n            /* \"#utility.yul\":423:536   */\n          iszero\n          tag_81\n          jumpi\n            /* \"#utility.yul\":513:524   */\n          dup2\n          dup2\n          add\n            /* \"#utility.yul\":507:525   */\n          mload\n            /* \"#utility.yul\":494:505   */\n          dup4\n          dup3\n          add\n            /* \"#utility.yul\":487:526   */\n          mstore\n            /* \"#utility.yul\":459:461   */\n          0x20\n            /* \"#utility.yul\":452:462   */\n          add\n            /* \"#utility.yul\":423:536   */\n          jump(tag_79)\n        tag_81:\n          pop\n          pop\n            /* \"#utility.yul\":570:571   */\n          0x00\n            /* \"#utility.yul\":552:568   */\n          swap2\n          add\n            /* \"#utility.yul\":545:572   */\n          mstore\n            /* \"#utility.yul\":328:578   */\n          jump\t// out\n            /* \"#utility.yul\":583:1282   */\n        tag_68:\n            /* \"#utility.yul\":637:642   */\n          0x00\n            /* \"#utility.yul\":690:693   */\n          dup3\n            /* \"#utility.yul\":683:687   */\n          0x1f\n            /* \"#utility.yul\":675:681   */\n          dup4\n            /* \"#utility.yul\":671:688   */\n          add\n            /* \"#utility.yul\":667:694   */\n          slt\n            /* \"#utility.yul\":657:712   */\n          tag_83\n          jumpi\n            /* \"#utility.yul\":708:709   */\n          0x00\n            /* \"#utility.yul\":705:706   */\n          dup1\n            /* \"#utility.yul\":698:710   */\n          revert\n            /* \"#utility.yul\":657:712   */\n        tag_83:\n            /* \"#utility.yul\":731:744   */\n          dup2\n          mload\n          sub(shl(0x40, 0x01), 0x01)\n            /* \"#utility.yul\":793:803   */\n          dup1\n          dup3\n          gt\n            /* \"#utility.yul\":790:826   */\n          iszero\n          tag_85\n          jumpi\n            /* \"#utility.yul\":806:824   */\n          tag_85\n          tag_27\n          jump\t// in\n        tag_85:\n            /* \"#utility.yul\":881:883   */\n          0x40\n            /* \"#utility.yul\":875:884   */\n          mload\n            /* \"#utility.yul\":849:851   */\n          0x1f\n            /* \"#utility.yul\":935:948   */\n          dup4\n          add\n          not(0x1f)\n            /* \"#utility.yul\":931:953   */\n          swap1\n          dup2\n          and\n            /* \"#utility.yul\":955:957   */\n          0x3f\n            /* \"#utility.yul\":927:958   */\n          add\n            /* \"#utility.yul\":923:963   */\n          and\n            /* \"#utility.yul\":911:964   */\n          dup2\n          add\n          swap1\n            /* \"#utility.yul\":979:997   */\n          dup3\n          dup3\n          gt\n            /* \"#utility.yul\":999:1021   */\n          dup2\n          dup4\n          lt\n            /* \"#utility.yul\":976:1022   */\n          or\n            /* \"#utility.yul\":973:1045   */\n          iszero\n          tag_87\n          jumpi\n            /* \"#utility.yul\":1025:1043   */\n          tag_87\n          tag_27\n          jump\t// in\n        tag_87:\n            /* \"#utility.yul\":1065:1075   */\n          dup2\n            /* \"#utility.yul\":1061:1063   */\n          0x40\n            /* \"#utility.yul\":1054:1076   */\n          mstore\n            /* \"#utility.yul\":1100:1102   */\n          dup4\n            /* \"#utility.yul\":1092:1098   */\n          dup2\n            /* \"#utility.yul\":1085:1103   */\n          mstore\n            /* \"#utility.yul\":1146:1149   */\n          dup7\n            /* \"#utility.yul\":1139:1143   */\n          0x20\n            /* \"#utility.yul\":1134:1136   */\n          dup6\n            /* \"#utility.yul\":1126:1132   */\n          dup9\n            /* \"#utility.yul\":1122:1137   */\n          add\n            /* \"#utility.yul\":1118:1144   */\n          add\n            /* \"#utility.yul\":1115:1150   */\n          gt\n            /* \"#utility.yul\":1112:1167   */\n          iszero\n          tag_88\n          jumpi\n            /* \"#utility.yul\":1163:1164   */\n          0x00\n            /* \"#utility.yul\":1160:1161   */\n          dup1\n            /* \"#utility.yul\":1153:1165   */\n          revert\n            /* \"#utility.yul\":1112:1167   */\n        tag_88:\n            /* \"#utility.yul\":1176:1252   */\n          tag_89\n            /* \"#utility.yul\":1249:1251   */\n          dup5\n            /* \"#utility.yul\":1242:1246   */\n          0x20\n            /* \"#utility.yul\":1234:1240   */\n          dup4\n            /* \"#utility.yul\":1230:1247   */\n          add\n            /* \"#utility.yul\":1223:1227   */\n          0x20\n            /* \"#utility.yul\":1215:1221   */\n          dup10\n            /* \"#utility.yul\":1211:1228   */\n          add\n            /* \"#utility.yul\":1176:1252   */\n          tag_67\n          jump\t// in\n        tag_89:\n            /* \"#utility.yul\":1270:1276   */\n          swap7\n            /* \"#utility.yul\":583:1282   */\n          swap6\n          pop\n          pop\n          pop\n          pop\n          pop\n          pop\n          jump\t// out\n            /* \"#utility.yul\":1287:2686   */\n        tag_3:\n            /* \"#utility.yul\":1486:1492   */\n          0x00\n            /* \"#utility.yul\":1494:1500   */\n          dup1\n            /* \"#utility.yul\":1502:1508   */\n          0x00\n            /* \"#utility.yul\":1510:1516   */\n          dup1\n            /* \"#utility.yul\":1518:1524   */\n          0x00\n            /* \"#utility.yul\":1526:1532   */\n          dup1\n            /* \"#utility.yul\":1534:1540   */\n          0x00\n            /* \"#utility.yul\":1542:1548   */\n          dup1\n            /* \"#utility.yul\":1550:1556   */\n          0x00\n            /* \"#utility.yul\":1558:1564   */\n          dup1\n            /* \"#utility.yul\":1611:1614   */\n          0x0140\n            /* \"#utility.yul\":1599:1608   */\n          dup12\n            /* \"#utility.yul\":1590:1597   */\n          dup14\n            /* \"#utility.yul\":1586:1609   */\n          sub\n            /* \"#utility.yul\":1582:1615   */\n          slt\n            /* \"#utility.yul\":1579:1632   */\n          iszero\n          tag_91\n          jumpi\n            /* \"#utility.yul\":1628:1629   */\n          0x00\n            /* \"#utility.yul\":1625:1626   */\n          dup1\n            /* \"#utility.yul\":1618:1630   */\n          revert\n            /* \"#utility.yul\":1579:1632   */\n        tag_91:\n            /* \"#utility.yul\":1657:1666   */\n          dup11\n            /* \"#utility.yul\":1651:1667   */\n          mload\n            /* \"#utility.yul\":1641:1667   */\n          swap10\n          pop\n            /* \"#utility.yul\":1686:1735   */\n          tag_92\n            /* \"#utility.yul\":1731:1733   */\n          0x20\n            /* \"#utility.yul\":1720:1729   */\n          dup13\n            /* \"#utility.yul\":1716:1734   */\n          add\n            /* \"#utility.yul\":1686:1735   */\n          tag_66\n          jump\t// in\n        tag_92:\n            /* \"#utility.yul\":1779:1781   */\n          0x40\n            /* \"#utility.yul\":1764:1782   */\n          dup13\n          add\n            /* \"#utility.yul\":1758:1783   */\n          mload\n            /* \"#utility.yul\":1676:1735   */\n          swap1\n          swap10\n          pop\n          sub(shl(0x40, 0x01), 0x01)\n            /* \"#utility.yul\":1832:1846   */\n          dup1\n          dup3\n          gt\n            /* \"#utility.yul\":1829:1863   */\n          iszero\n          tag_93\n          jumpi\n            /* \"#utility.yul\":1859:1860   */\n          0x00\n            /* \"#utility.yul\":1856:1857   */\n          dup1\n            /* \"#utility.yul\":1849:1861   */\n          revert\n            /* \"#utility.yul\":1829:1863   */\n        tag_93:\n            /* \"#utility.yul\":1882:1943   */\n          tag_94\n            /* \"#utility.yul\":1935:1942   */\n          dup15\n            /* \"#utility.yul\":1926:1932   */\n          dup4\n            /* \"#utility.yul\":1915:1924   */\n          dup16\n            /* \"#utility.yul\":1911:1933   */\n          add\n            /* \"#utility.yul\":1882:1943   */\n          tag_68\n          jump\t// in\n        tag_94:\n            /* \"#utility.yul\":1872:1943   */\n          swap10\n          pop\n            /* \"#utility.yul\":1983:1985   */\n          0x60\n            /* \"#utility.yul\":1972:1981   */\n          dup14\n            /* \"#utility.yul\":1968:1986   */\n          add\n            /* \"#utility.yul\":1962:1987   */\n          mload\n            /* \"#utility.yul\":1952:1987   */\n          swap9\n          pop\n            /* \"#utility.yul\":2027:2030   */\n          0x80\n            /* \"#utility.yul\":2016:2025   */\n          dup14\n            /* \"#utility.yul\":2012:2031   */\n          add\n            /* \"#utility.yul\":2006:2032   */\n          mload\n            /* \"#utility.yul\":1996:2032   */\n          swap8\n          pop\n            /* \"#utility.yul\":2072:2075   */\n          0xa0\n            /* \"#utility.yul\":2061:2070   */\n          dup14\n            /* \"#utility.yul\":2057:2076   */\n          add\n            /* \"#utility.yul\":2051:2077   */\n          mload\n            /* \"#utility.yul\":2041:2077   */\n          swap7\n          pop\n            /* \"#utility.yul\":2096:2146   */\n          tag_95\n            /* \"#utility.yul\":2141:2144   */\n          0xc0\n            /* \"#utility.yul\":2130:2139   */\n          dup15\n            /* \"#utility.yul\":2126:2145   */\n          add\n            /* \"#utility.yul\":2096:2146   */\n          tag_66\n          jump\t// in\n        tag_95:\n            /* \"#utility.yul\":2086:2146   */\n          swap6\n          pop\n            /* \"#utility.yul\":2192:2195   */\n          0xe0\n            /* \"#utility.yul\":2181:2190   */\n          dup14\n            /* \"#utility.yul\":2177:2196   */\n          add\n            /* \"#utility.yul\":2171:2197   */\n          mload\n            /* \"#utility.yul\":2155:2197   */\n          swap2\n          pop\n            /* \"#utility.yul\":2222:2224   */\n          dup1\n            /* \"#utility.yul\":2212:2220   */\n          dup3\n            /* \"#utility.yul\":2209:2225   */\n          gt\n            /* \"#utility.yul\":2206:2242   */\n          iszero\n          tag_96\n          jumpi\n            /* \"#utility.yul\":2238:2239   */\n          0x00\n            /* \"#utility.yul\":2235:2236   */\n          dup1\n            /* \"#utility.yul\":2228:2240   */\n          revert\n            /* \"#utility.yul\":2206:2242   */\n        tag_96:\n            /* \"#utility.yul\":2261:2324   */\n          tag_97\n            /* \"#utility.yul\":2316:2323   */\n          dup15\n            /* \"#utility.yul\":2305:2313   */\n          dup4\n            /* \"#utility.yul\":2294:2303   */\n          dup16\n            /* \"#utility.yul\":2290:2314   */\n          add\n            /* \"#utility.yul\":2261:2324   */\n          tag_68\n          jump\t// in\n        tag_97:\n            /* \"#utility.yul\":2251:2324   */\n          swap5\n          pop\n            /* \"#utility.yul\":2370:2373   */\n          0x0100\n            /* \"#utility.yul\":2359:2368   */\n          dup14\n            /* \"#utility.yul\":2355:2374   */\n          add\n            /* \"#utility.yul\":2349:2375   */\n          mload\n            /* \"#utility.yul\":2333:2375   */\n          swap2\n          pop\n            /* \"#utility.yul\":2400:2402   */\n          dup1\n            /* \"#utility.yul\":2390:2398   */\n          dup3\n            /* \"#utility.yul\":2387:2403   */\n          gt\n            /* \"#utility.yul\":2384:2420   */\n          iszero\n          tag_98\n          jumpi\n            /* \"#utility.yul\":2416:2417   */\n          0x00\n            /* \"#utility.yul\":2413:2414   */\n          dup1\n            /* \"#utility.yul\":2406:2418   */\n          revert\n            /* \"#utility.yul\":2384:2420   */\n        tag_98:\n            /* \"#utility.yul\":2439:2502   */\n          tag_99\n            /* \"#utility.yul\":2494:2501   */\n          dup15\n            /* \"#utility.yul\":2483:2491   */\n          dup4\n            /* \"#utility.yul\":2472:2481   */\n          dup16\n            /* \"#utility.yul\":2468:2492   */\n          add\n            /* \"#utility.yul\":2439:2502   */\n          tag_68\n          jump\t// in\n        tag_99:\n            /* \"#utility.yul\":2429:2502   */\n          swap4\n          pop\n            /* \"#utility.yul\":2548:2551   */\n          0x0120\n            /* \"#utility.yul\":2537:2546   */\n          dup14\n            /* \"#utility.yul\":2533:2552   */\n          add\n            /* \"#utility.yul\":2527:2553   */\n          mload\n            /* \"#utility.yul\":2511:2553   */\n          swap2\n          pop\n            /* \"#utility.yul\":2578:2580   */\n          dup1\n            /* \"#utility.yul\":2568:2576   */\n          dup3\n            /* \"#utility.yul\":2565:2581   */\n          gt\n            /* \"#utility.yul\":2562:2598   */\n          iszero\n          tag_100\n          jumpi\n            /* \"#utility.yul\":2594:2595   */\n          0x00\n            /* \"#utility.yul\":2591:2592   */\n          dup1\n            /* \"#utility.yul\":2584:2596   */\n          revert\n            /* \"#utility.yul\":2562:2598   */\n        tag_100:\n          pop\n            /* \"#utility.yul\":2617:2680   */\n          tag_101\n            /* \"#utility.yul\":2672:2679   */\n          dup14\n            /* \"#utility.yul\":2661:2669   */\n          dup3\n            /* \"#utility.yul\":2650:2659   */\n          dup15\n            /* \"#utility.yul\":2646:2670   */\n          add\n            /* \"#utility.yul\":2617:2680   */\n          tag_68\n          jump\t// in\n        tag_101:\n            /* \"#utility.yul\":2607:2680   */\n          swap2\n          pop\n          pop\n            /* \"#utility.yul\":1287:2686   */\n          swap3\n          swap6\n          swap9\n          swap12\n          swap2\n          swap5\n          swap8\n          swap11\n          pop\n          swap3\n          swap6\n          swap9\n          pop\n          jump\t// out\n            /* \"#utility.yul\":2691:3071   */\n        tag_69:\n            /* \"#utility.yul\":2770:2771   */\n          0x01\n            /* \"#utility.yul\":2766:2778   */\n          dup2\n          dup2\n          shr\n          swap1\n            /* \"#utility.yul\":2813:2825   */\n          dup3\n          and\n          dup1\n            /* \"#utility.yul\":2834:2895   */\n          tag_103\n          jumpi\n            /* \"#utility.yul\":2888:2892   */\n          0x7f\n            /* \"#utility.yul\":2880:2886   */\n          dup3\n            /* \"#utility.yul\":2876:2893   */\n          and\n            /* \"#utility.yul\":2866:2893   */\n          swap2\n          pop\n            /* \"#utility.yul\":2834:2895   */\n        tag_103:\n            /* \"#utility.yul\":2941:2943   */\n          0x20\n            /* \"#utility.yul\":2933:2939   */\n          dup3\n            /* \"#utility.yul\":2930:2944   */\n          lt\n            /* \"#utility.yul\":2910:2928   */\n          dup2\n            /* \"#utility.yul\":2907:2945   */\n          sub\n            /* \"#utility.yul\":2904:3065   */\n          tag_104\n          jumpi\n            /* \"#utility.yul\":2987:2997   */\n          0x4e487b71\n            /* \"#utility.yul\":2982:2985   */\n          0xe0\n            /* \"#utility.yul\":2978:2998   */\n          shl\n            /* \"#utility.yul\":2975:2976   */\n          0x00\n            /* \"#utility.yul\":2968:2999   */\n          mstore\n            /* \"#utility.yul\":3022:3026   */\n          0x22\n            /* \"#utility.yul\":3019:3020   */\n          0x04\n            /* \"#utility.yul\":3012:3027   */\n          mstore\n            /* \"#utility.yul\":3050:3054   */\n          0x24\n            /* \"#utility.yul\":3047:3048   */\n          0x00\n            /* \"#utility.yul\":3040:3055   */\n          revert\n            /* \"#utility.yul\":2904:3065   */\n        tag_104:\n          pop\n            /* \"#utility.yul\":2691:3071   */\n          swap2\n          swap1\n          pop\n          jump\t// out\n            /* \"#utility.yul\":3202:3720   */\n        tag_71:\n            /* \"#utility.yul\":3304:3306   */\n          0x1f\n            /* \"#utility.yul\":3299:3302   */\n          dup3\n            /* \"#utility.yul\":3296:3307   */\n          gt\n            /* \"#utility.yul\":3293:3714   */\n          iszero\n          tag_107\n          jumpi\n            /* \"#utility.yul\":3340:3345   */\n          dup1\n            /* \"#utility.yul\":3337:3338   */\n          0x00\n            /* \"#utility.yul\":3330:3346   */\n          mstore\n            /* \"#utility.yul\":3384:3388   */\n          0x20\n            /* \"#utility.yul\":3381:3382   */\n          0x00\n            /* \"#utility.yul\":3371:3389   */\n          keccak256\n            /* \"#utility.yul\":3454:3456   */\n          0x1f\n            /* \"#utility.yul\":3442:3452   */\n          dup5\n            /* \"#utility.yul\":3438:3457   */\n          add\n            /* \"#utility.yul\":3435:3436   */\n          0x05\n            /* \"#utility.yul\":3431:3458   */\n          shr\n            /* \"#utility.yul\":3425:3429   */\n          dup2\n            /* \"#utility.yul\":3421:3459   */\n          add\n            /* \"#utility.yul\":3490:3494   */\n          0x20\n            /* \"#utility.yul\":3478:3488   */\n          dup6\n            /* \"#utility.yul\":3475:3495   */\n          lt\n            /* \"#utility.yul\":3472:3519   */\n          iszero\n          tag_108\n          jumpi\n          pop\n            /* \"#utility.yul\":3513:3517   */\n          dup1\n            /* \"#utility.yul\":3472:3519   */\n        tag_108:\n            /* \"#utility.yul\":3568:3570   */\n          0x1f\n            /* \"#utility.yul\":3563:3566   */\n          dup5\n            /* \"#utility.yul\":3559:3571   */\n          add\n            /* \"#utility.yul\":3556:3557   */\n          0x05\n            /* \"#utility.yul\":3552:3572   */\n          shr\n            /* \"#utility.yul\":3546:3550   */\n          dup3\n            /* \"#utility.yul\":3542:3573   */\n          add\n            /* \"#utility.yul\":3532:3573   */\n          swap2\n          pop\n            /* \"#utility.yul\":3623:3704   */\n        tag_109:\n            /* \"#utility.yul\":3641:3643   */\n          dup2\n            /* \"#utility.yul\":3634:3639   */\n          dup2\n            /* \"#utility.yul\":3631:3644   */\n          lt\n            /* \"#utility.yul\":3623:3704   */\n          iszero\n          tag_111\n          jumpi\n            /* \"#utility.yul\":3700:3701   */\n          0x00\n            /* \"#utility.yul\":3686:3702   */\n          dup2\n          sstore\n            /* \"#utility.yul\":3667:3668   */\n          0x01\n            /* \"#utility.yul\":3656:3669   */\n          add\n            /* \"#utility.yul\":3623:3704   */\n          jump(tag_109)\n        tag_111:\n            /* \"#utility.yul\":3627:3630   */\n          pop\n          pop\n            /* \"#utility.yul\":3293:3714   */\n        tag_107:\n            /* \"#utility.yul\":3202:3720   */\n          pop\n          pop\n          pop\n          jump\t// out\n            /* \"#utility.yul\":3896:5241   */\n        tag_7:\n            /* \"#utility.yul\":4016:4026   */\n          dup2\n          mload\n          sub(shl(0x40, 0x01), 0x01)\n            /* \"#utility.yul\":4038:4068   */\n          dup2\n          gt\n            /* \"#utility.yul\":4035:4091   */\n          iszero\n          tag_115\n          jumpi\n            /* \"#utility.yul\":4071:4089   */\n          tag_115\n          tag_27\n          jump\t// in\n        tag_115:\n            /* \"#utility.yul\":4100:4197   */\n          tag_116\n            /* \"#utility.yul\":4190:4196   */\n          dup2\n            /* \"#utility.yul\":4150:4188   */\n          tag_117\n            /* \"#utility.yul\":4182:4186   */\n          dup5\n            /* \"#utility.yul\":4176:4187   */\n          sload\n            /* \"#utility.yul\":4150:4188   */\n          tag_69\n          jump\t// in\n        tag_117:\n            /* \"#utility.yul\":4144:4148   */\n          dup5\n            /* \"#utility.yul\":4100:4197   */\n          tag_71\n          jump\t// in\n        tag_116:\n            /* \"#utility.yul\":4252:4256   */\n          0x20\n          dup1\n            /* \"#utility.yul\":4309:4311   */\n          0x1f\n            /* \"#utility.yul\":4298:4312   */\n          dup4\n          gt\n            /* \"#utility.yul\":4326:4327   */\n          0x01\n            /* \"#utility.yul\":4321:4984   */\n          dup2\n          eq\n          tag_119\n          jumpi\n            /* \"#utility.yul\":5028:5029   */\n          0x00\n            /* \"#utility.yul\":5045:5051   */\n          dup5\n            /* \"#utility.yul\":5042:5131   */\n          iszero\n          tag_120\n          jumpi\n          pop\n            /* \"#utility.yul\":5097:5116   */\n          dup6\n          dup4\n          add\n            /* \"#utility.yul\":5091:5117   */\n          mload\n            /* \"#utility.yul\":5042:5131   */\n        tag_120:\n          not(0x00)\n            /* \"#utility.yul\":3853:3854   */\n          0x03\n            /* \"#utility.yul\":3849:3860   */\n          dup7\n          swap1\n          shl\n            /* \"#utility.yul\":3845:3869   */\n          shr\n            /* \"#utility.yul\":3841:3870   */\n          not\n            /* \"#utility.yul\":3831:3871   */\n          and\n            /* \"#utility.yul\":3877:3878   */\n          0x01\n            /* \"#utility.yul\":3873:3884   */\n          dup6\n          swap1\n          shl\n            /* \"#utility.yul\":3828:3885   */\n          or\n            /* \"#utility.yul\":5144:5225   */\n          dup6\n          sstore\n            /* \"#utility.yul\":4291:5235   */\n          jump(tag_118)\n            /* \"#utility.yul\":4321:4984   */\n        tag_119:\n            /* \"#utility.yul\":3149:3150   */\n          0x00\n            /* \"#utility.yul\":3142:3156   */\n          dup6\n          dup2\n          mstore\n            /* \"#utility.yul\":3186:3190   */\n          0x20\n            /* \"#utility.yul\":3173:3191   */\n          dup2\n          keccak256\n          not(0x1f)\n            /* \"#utility.yul\":4357:4377   */\n          dup7\n          and\n          swap2\n            /* \"#utility.yul\":4475:4711   */\n        tag_123:\n            /* \"#utility.yul\":4489:4496   */\n          dup3\n            /* \"#utility.yul\":4486:4487   */\n          dup2\n            /* \"#utility.yul\":4483:4497   */\n          lt\n            /* \"#utility.yul\":4475:4711   */\n          iszero\n          tag_125\n          jumpi\n            /* \"#utility.yul\":4578:4597   */\n          dup9\n          dup7\n          add\n            /* \"#utility.yul\":4572:4598   */\n          mload\n            /* \"#utility.yul\":4557:4599   */\n          dup3\n          sstore\n            /* \"#utility.yul\":4670:4697   */\n          swap5\n          dup5\n          add\n          swap5\n            /* \"#utility.yul\":4638:4639   */\n          0x01\n            /* \"#utility.yul\":4626:4640   */\n          swap1\n          swap2\n          add\n          swap1\n            /* \"#utility.yul\":4505:4524   */\n          dup5\n          add\n            /* \"#utility.yul\":4475:4711   */\n          jump(tag_123)\n        tag_125:\n            /* \"#utility.yul\":4479:4482   */\n          pop\n            /* \"#utility.yul\":4739:4745   */\n          dup6\n            /* \"#utility.yul\":4730:4737   */\n          dup3\n            /* \"#utility.yul\":4727:4746   */\n          lt\n            /* \"#utility.yul\":4724:4925   */\n          iszero\n          tag_126\n          jumpi\n            /* \"#utility.yul\":4800:4819   */\n          dup8\n          dup6\n          add\n            /* \"#utility.yul\":4794:4820   */\n          mload\n          not(0x00)\n            /* \"#utility.yul\":4883:4884   */\n          0x03\n            /* \"#utility.yul\":4879:4893   */\n          dup9\n          swap1\n          shl\n            /* \"#utility.yul\":4895:4898   */\n          0xf8\n            /* \"#utility.yul\":4875:4899   */\n          and\n            /* \"#utility.yul\":4871:4908   */\n          shr\n            /* \"#utility.yul\":4867:4909   */\n          not\n            /* \"#utility.yul\":4852:4910   */\n          and\n            /* \"#utility.yul\":4837:4911   */\n          dup2\n          sstore\n            /* \"#utility.yul\":4724:4925   */\n        tag_126:\n          pop\n          pop\n            /* \"#utility.yul\":4971:4972   */\n          0x01\n            /* \"#utility.yul\":4962:4968   */\n          dup5\n            /* \"#utility.yul\":4959:4960   */\n          0x01\n            /* \"#utility.yul\":4955:4969   */\n          shl\n            /* \"#utility.yul\":4951:4973   */\n          add\n            /* \"#utility.yul\":4945:4949   */\n          dup6\n            /* \"#utility.yul\":4938:4974   */\n          sstore\n            /* \"#utility.yul\":4291:5235   */\n        tag_118:\n          pop\n          pop\n          pop\n          pop\n            /* \"#utility.yul\":3896:5241   */\n          pop\n          pop\n          jump\t// out\n            /* \"#utility.yul\":5246:5742   */\n        tag_11:\n            /* \"#utility.yul\":5425:5428   */\n          0x00\n            /* \"#utility.yul\":5463:5469   */\n          dup4\n            /* \"#utility.yul\":5457:5470   */\n          mload\n            /* \"#utility.yul\":5479:5545   */\n          tag_128\n            /* \"#utility.yul\":5538:5544   */\n          dup2\n            /* \"#utility.yul\":5533:5536   */\n          dup5\n            /* \"#utility.yul\":5526:5530   */\n          0x20\n            /* \"#utility.yul\":5518:5524   */\n          dup9\n            /* \"#utility.yul\":5514:5531   */\n          add\n            /* \"#utility.yul\":5479:5545   */\n          tag_67\n          jump\t// in\n        tag_128:\n            /* \"#utility.yul\":5608:5621   */\n          dup4\n          mload\n            /* \"#utility.yul\":5567:5583   */\n          swap1\n          dup4\n          add\n          swap1\n            /* \"#utility.yul\":5630:5700   */\n          tag_129\n            /* \"#utility.yul\":5608:5621   */\n          dup2\n            /* \"#utility.yul\":5567:5583   */\n          dup4\n            /* \"#utility.yul\":5677:5681   */\n          0x20\n            /* \"#utility.yul\":5665:5682   */\n          dup9\n          add\n            /* \"#utility.yul\":5630:5700   */\n          tag_67\n          jump\t// in\n        tag_129:\n            /* \"#utility.yul\":5716:5736   */\n          add\n          swap5\n            /* \"#utility.yul\":5246:5742   */\n          swap4\n          pop\n          pop\n          pop\n          pop\n          jump\t// out\n            /* \"#utility.yul\":5747:6018   */\n        tag_73:\n            /* \"#utility.yul\":5789:5792   */\n          0x00\n            /* \"#utility.yul\":5827:5832   */\n          dup2\n            /* \"#utility.yul\":5821:5833   */\n          mload\n            /* \"#utility.yul\":5854:5860   */\n          dup1\n            /* \"#utility.yul\":5849:5852   */\n          dup5\n            /* \"#utility.yul\":5842:5861   */\n          mstore\n            /* \"#utility.yul\":5870:5946   */\n          tag_131\n            /* \"#utility.yul\":5939:5945   */\n          dup2\n            /* \"#utility.yul\":5932:5936   */\n          0x20\n            /* \"#utility.yul\":5927:5930   */\n          dup7\n            /* \"#utility.yul\":5923:5937   */\n          add\n            /* \"#utility.yul\":5916:5920   */\n          0x20\n            /* \"#utility.yul\":5909:5914   */\n          dup7\n            /* \"#utility.yul\":5905:5921   */\n          add\n            /* \"#utility.yul\":5870:5946   */\n          tag_67\n          jump\t// in\n        tag_131:\n            /* \"#utility.yul\":6000:6002   */\n          0x1f\n            /* \"#utility.yul\":5979:5994   */\n          add\n          not(0x1f)\n            /* \"#utility.yul\":5975:6004   */\n          and\n            /* \"#utility.yul\":5966:6005   */\n          swap3\n          swap1\n          swap3\n          add\n            /* \"#utility.yul\":6007:6011   */\n          0x20\n            /* \"#utility.yul\":5962:6012   */\n          add\n          swap3\n            /* \"#utility.yul\":5747:6018   */\n          swap2\n          pop\n          pop\n          jump\t// out\n            /* \"#utility.yul\":6023:6503   */\n        tag_17:\n          sub(shl(0xa0, 0x01), 0x01)\n            /* \"#utility.yul\":6248:6280   */\n          dup5\n          and\n            /* \"#utility.yul\":6230:6281   */\n          dup2\n          mstore\n            /* \"#utility.yul\":6317:6319   */\n          0x60\n            /* \"#utility.yul\":6312:6314   */\n          0x20\n            /* \"#utility.yul\":6297:6315   */\n          dup3\n          add\n            /* \"#utility.yul\":6290:6320   */\n          dup2\n          swap1\n          mstore\n          0x00\n          swap1\n            /* \"#utility.yul\":6343:6388   */\n          tag_133\n          swap1\n            /* \"#utility.yul\":6369:6387   */\n          dup4\n          add\n            /* \"#utility.yul\":6361:6367   */\n          dup6\n            /* \"#utility.yul\":6343:6388   */\n          tag_73\n          jump\t// in\n        tag_133:\n            /* \"#utility.yul\":6436:6445   */\n          dup3\n            /* \"#utility.yul\":6428:6434   */\n          dup2\n            /* \"#utility.yul\":6424:6446   */\n          sub\n            /* \"#utility.yul\":6419:6421   */\n          0x40\n            /* \"#utility.yul\":6408:6417   */\n          dup5\n            /* \"#utility.yul\":6404:6422   */\n          add\n            /* \"#utility.yul\":6397:6447   */\n          mstore\n            /* \"#utility.yul\":6464:6497   */\n          tag_89\n            /* \"#utility.yul\":6490:6496   */\n          dup2\n            /* \"#utility.yul\":6482:6488   */\n          dup6\n            /* \"#utility.yul\":6464:6497   */\n          tag_73\n          jump\t// in\n            /* \"#utility.yul\":6640:6767   */\n        tag_41:\n            /* \"#utility.yul\":6701:6711   */\n          0x4e487b71\n            /* \"#utility.yul\":6696:6699   */\n          0xe0\n            /* \"#utility.yul\":6692:6712   */\n          shl\n            /* \"#utility.yul\":6689:6690   */\n          0x00\n            /* \"#utility.yul\":6682:6713   */\n          mstore\n            /* \"#utility.yul\":6732:6736   */\n          0x32\n            /* \"#utility.yul\":6729:6730   */\n          0x04\n            /* \"#utility.yul\":6722:6737   */\n          mstore\n            /* \"#utility.yul\":6756:6760   */\n          0x24\n            /* \"#utility.yul\":6753:6754   */\n          0x00\n            /* \"#utility.yul\":6746:6761   */\n          revert\n            /* \"#utility.yul\":6640:6767   */\n        tag_74:\n            /* \"Project.sol\":172:6521  contract Project {... */\n          dataSize(sub_0)\n          dup1\n          dataOffset(sub_0)\n          0x00\n          codecopy\n          0x00\n          return\n        stop\n\n        sub_0: assembly {\n                /* \"Project.sol\":172:6521  contract Project {... */\n              mstore(0x40, 0x80)\n              jumpi(tag_1, lt(calldatasize, 0x04))\n              shr(0xe0, calldataload(0x00))\n              dup1\n              0x0b49351c\n              eq\n              tag_2\n              jumpi\n              dup1\n              0x1bb05f73\n              eq\n              tag_3\n              jumpi\n              dup1\n              0x1f6d4942\n              eq\n              tag_4\n              jumpi\n              dup1\n              0x29dcb0cf\n              eq\n              tag_5\n              jumpi\n              dup1\n              0x2b7d782f\n              eq\n              tag_6\n              jumpi\n              dup1\n              0x4051ddac\n              eq\n              tag_7\n              jumpi\n              dup1\n              0x47ccca02\n              eq\n              tag_8\n              jumpi\n              dup1\n              0x7569b3d7\n              eq\n              tag_9\n              jumpi\n              dup1\n              0x8da5cb5b\n              eq\n              tag_10\n              jumpi\n              dup1\n              0x937e09b1\n              eq\n              tag_11\n              jumpi\n              dup1\n              0xaa3ec0a9\n              eq\n              tag_12\n              jumpi\n              dup1\n              0xb82c86d6\n              eq\n              tag_13\n              jumpi\n              dup1\n              0xc438b40f\n              eq\n              tag_14\n              jumpi\n              dup1\n              0xc5451232\n              eq\n              tag_15\n              jumpi\n              dup1\n              0xd7bb99ba\n              eq\n              tag_16\n              jumpi\n              dup1\n              0xe89e4ed6\n              eq\n              tag_17\n              jumpi\n              dup1\n              0xeb599e43\n              eq\n              tag_18\n              jumpi\n            tag_1:\n              0x00\n              dup1\n              revert\n                /* \"Project.sol\":2454:2552  function getMilestonesCount() public view returns (uint) {... */\n            tag_2:\n              callvalue\n              dup1\n              iszero\n              tag_19\n              jumpi\n              0x00\n              dup1\n              revert\n            tag_19:\n              pop\n                /* \"Project.sol\":2528:2538  milestones */\n              0x08\n                /* \"Project.sol\":2528:2545  milestones.length */\n              sload\n                /* \"Project.sol\":2454:2552  function getMilestonesCount() public view returns (uint) {... */\n            tag_20:\n              mload(0x40)\n                /* \"#utility.yul\":160:185   */\n              swap1\n              dup2\n              mstore\n                /* \"#utility.yul\":148:150   */\n              0x20\n                /* \"#utility.yul\":133:151   */\n              add\n                /* \"Project.sol\":2454:2552  function getMilestonesCount() public view returns (uint) {... */\n            tag_22:\n              mload(0x40)\n              dup1\n              swap2\n              sub\n              swap1\n              return\n                /* \"Project.sol\":4851:5491  function rewardMilestone(uint index, string memory tokenURI) public {... */\n            tag_3:\n              callvalue\n              dup1\n              iszero\n              tag_24\n              jumpi\n              0x00\n              dup1\n              revert\n            tag_24:\n              pop\n              tag_25\n              tag_26\n              calldatasize\n              0x04\n              tag_27\n              jump\t// in\n            tag_26:\n              tag_28\n              jump\t// in\n            tag_25:\n              stop\n                /* \"Project.sol\":400:444  mapping(address => uint) public contributors */\n            tag_4:\n              callvalue\n              dup1\n              iszero\n              tag_29\n              jumpi\n              0x00\n              dup1\n              revert\n            tag_29:\n              pop\n              tag_20\n              tag_31\n              calldatasize\n              0x04\n              tag_32\n              jump\t// in\n            tag_31:\n              mstore(0x20, 0x07)\n              0x00\n              swap1\n              dup2\n              mstore\n              0x40\n              swap1\n              keccak256\n              sload\n              dup2\n              jump\n                /* \"Project.sol\":338:358  uint public deadline */\n            tag_5:\n              callvalue\n              dup1\n              iszero\n              tag_35\n              jumpi\n              0x00\n              dup1\n              revert\n            tag_35:\n              pop\n              tag_20\n              sload(0x05)\n              dup2\n              jump\n                /* \"Project.sol\":2891:3390  function createMilestones(... */\n            tag_6:\n              callvalue\n              dup1\n              iszero\n              tag_39\n              jumpi\n              0x00\n              dup1\n              revert\n            tag_39:\n              pop\n              tag_25\n              tag_41\n              calldatasize\n              0x04\n              tag_42\n              jump\t// in\n            tag_41:\n              tag_43\n              jump\t// in\n                /* \"Project.sol\":1483:1831  function getSummary()... */\n            tag_7:\n              callvalue\n              dup1\n              iszero\n              tag_44\n              jumpi\n              0x00\n              dup1\n              revert\n            tag_44:\n              pop\n              tag_45\n              tag_46\n              jump\t// in\n            tag_45:\n              mload(0x40)\n              tag_22\n              swap8\n              swap7\n              swap6\n              swap5\n              swap4\n              swap3\n              swap2\n              swap1\n              tag_48\n              jump\t// in\n                /* \"Project.sol\":525:546  ProjectNFT public nft */\n            tag_8:\n              callvalue\n              dup1\n              iszero\n              tag_49\n              jumpi\n              0x00\n              dup1\n              revert\n            tag_49:\n              pop\n              sload(0x09)\n              tag_50\n              swap1\n              sub(shl(0xa0, 0x01), 0x01)\n              and\n              dup2\n              jump\n            tag_50:\n              mload(0x40)\n              sub(shl(0xa0, 0x01), 0x01)\n                /* \"#utility.yul\":6260:6292   */\n              swap1\n              swap2\n              and\n                /* \"#utility.yul\":6242:6293   */\n              dup2\n              mstore\n                /* \"#utility.yul\":6230:6232   */\n              0x20\n                /* \"#utility.yul\":6215:6233   */\n              add\n                /* \"Project.sol\":525:546  ProjectNFT public nft */\n              tag_22\n                /* \"#utility.yul\":6076:6299   */\n              jump\n                /* \"Project.sol\":364:393  uint public contributorsCount */\n            tag_9:\n              callvalue\n              dup1\n              iszero\n              tag_54\n              jumpi\n              0x00\n              dup1\n              revert\n            tag_54:\n              pop\n              tag_20\n              sload(0x06)\n              dup2\n              jump\n                /* \"Project.sol\":216:236  address public owner */\n            tag_10:\n              callvalue\n              dup1\n              iszero\n              tag_58\n              jumpi\n              0x00\n              dup1\n              revert\n            tag_58:\n              pop\n              sload(0x01)\n              tag_50\n              swap1\n              sub(shl(0xa0, 0x01), 0x01)\n              and\n              dup2\n              jump\n                /* \"Project.sol\":265:296  uint public minimumContribution */\n            tag_11:\n              callvalue\n              dup1\n              iszero\n              tag_63\n              jumpi\n              0x00\n              dup1\n              revert\n            tag_63:\n              pop\n              tag_20\n              sload(0x03)\n              dup2\n              jump\n                /* \"Project.sol\":242:259  string public cid */\n            tag_12:\n              callvalue\n              dup1\n              iszero\n              tag_67\n              jumpi\n              0x00\n              dup1\n              revert\n            tag_67:\n              pop\n              tag_68\n              tag_69\n              jump\t// in\n            tag_68:\n              mload(0x40)\n              tag_22\n              swap2\n              swap1\n              tag_71\n              jump\t// in\n                /* \"Project.sol\":302:332  uint public targetContribution */\n            tag_13:\n              callvalue\n              dup1\n              iszero\n              tag_72\n              jumpi\n              0x00\n              dup1\n              revert\n            tag_72:\n              pop\n              tag_20\n              sload(0x04)\n              dup2\n              jump\n                /* \"Project.sol\":4032:4845  function approveMilestone(uint index) public payable {... */\n            tag_14:\n              tag_25\n              tag_77\n              calldatasize\n              0x04\n              tag_78\n              jump\t// in\n            tag_77:\n              tag_79\n              jump\t// in\n                /* \"Project.sol\":2558:2885  function createMilestone(... */\n            tag_15:\n              callvalue\n              dup1\n              iszero\n              tag_80\n              jumpi\n              0x00\n              dup1\n              revert\n            tag_80:\n              pop\n              tag_25\n              tag_82\n              calldatasize\n              0x04\n              tag_83\n              jump\t// in\n            tag_82:\n              tag_84\n              jump\t// in\n                /* \"Project.sol\":1837:2448  function contribute() public payable {... */\n            tag_16:\n              tag_25\n              tag_86\n              jump\t// in\n                /* \"Project.sol\":483:518  Model.Milestone[] public milestones */\n            tag_17:\n              callvalue\n              dup1\n              iszero\n              tag_87\n              jumpi\n              0x00\n              dup1\n              revert\n            tag_87:\n              pop\n              tag_88\n              tag_89\n              calldatasize\n              0x04\n              tag_78\n              jump\t// in\n            tag_89:\n              tag_90\n              jump\t// in\n            tag_88:\n              mload(0x40)\n              tag_22\n              swap9\n              swap8\n              swap7\n              swap6\n              swap5\n              swap4\n              swap3\n              swap2\n              swap1\n              tag_92\n              jump\t// in\n                /* \"Project.sol\":5497:6519  function withdrawMilestone(uint index) public restricted {... */\n            tag_18:\n              callvalue\n              dup1\n              iszero\n              tag_93\n              jumpi\n              0x00\n              dup1\n              revert\n            tag_93:\n              pop\n              tag_25\n              tag_95\n              calldatasize\n              0x04\n              tag_78\n              jump\t// in\n            tag_95:\n              tag_96\n              jump\t// in\n                /* \"Project.sol\":4851:5491  function rewardMilestone(uint index, string memory tokenURI) public {... */\n            tag_28:\n                /* \"Project.sol\":4929:4962  Model.Milestone storage milestone */\n              0x00\n                /* \"Project.sol\":4965:4975  milestones */\n              0x08\n                /* \"Project.sol\":4976:4981  index */\n              dup4\n                /* \"Project.sol\":4965:4982  milestones[index] */\n              dup2\n              sload\n              dup2\n              lt\n              tag_100\n              jumpi\n              tag_100\n              tag_101\n              jump\t// in\n            tag_100:\n              0x00\n              swap2\n              dup3\n              mstore\n              0x20\n              dup1\n              dup4\n              keccak256\n                /* \"Project.sol\":5028:5038  msg.sender */\n              caller\n                /* \"Project.sol\":5008:5039  milestone.approvals[msg.sender] */\n              dup5\n              mstore\n                /* \"Project.sol\":5008:5027  milestone.approvals */\n              0x06\n                /* \"Project.sol\":4965:4982  milestones[index] */\n              0x0a\n              swap1\n              swap4\n              mul\n              add\n                /* \"Project.sol\":5008:5027  milestone.approvals */\n              swap2\n              dup3\n              add\n                /* \"Project.sol\":5008:5039  milestone.approvals[msg.sender] */\n              swap1\n              mstore\n              0x40\n              swap1\n              swap2\n              keccak256\n              sload\n                /* \"Project.sol\":5077:5095  targetContribution */\n              sload(0x04)\n                /* \"Project.sol\":5054:5073  milestone.threshold */\n              0x02\n              dup4\n              add\n              sload\n                /* \"Project.sol\":4965:4982  milestones[index] */\n              swap3\n              swap4\n              pop\n                /* \"Project.sol\":5008:5039  milestone.approvals[msg.sender] */\n              swap1\n              swap2\n                /* \"Project.sol\":5054:5095  milestone.threshold != targetContribution */\n              eq\n                /* \"Project.sol\":5050:5274  if (milestone.threshold != targetContribution) {... */\n              tag_104\n              jumpi\n                /* \"Project.sol\":5261:5262  0 */\n              0x00\n                /* \"Project.sol\":5250:5258  approval */\n              dup2\n                /* \"Project.sol\":5250:5262  approval > 0 */\n              gt\n                /* \"Project.sol\":5242:5263  require(approval > 0) */\n              tag_104\n              jumpi\n              0x00\n              dup1\n              revert\n            tag_104:\n                /* \"Project.sol\":5381:5391  msg.sender */\n              caller\n                /* \"Project.sol\":5363:5392  milestone.rewards[msg.sender] */\n              0x00\n              swap1\n              dup2\n              mstore\n                /* \"Project.sol\":5363:5380  milestone.rewards */\n              0x09\n              dup4\n              add\n                /* \"Project.sol\":5363:5392  milestone.rewards[msg.sender] */\n              0x20\n              mstore\n              0x40\n              swap1\n              keccak256\n              sload\n              0xff\n              and\n                /* \"Project.sol\":5362:5392  !milestone.rewards[msg.sender] */\n              iszero\n                /* \"Project.sol\":5354:5393  require(!milestone.rewards[msg.sender]) */\n              tag_105\n              jumpi\n              0x00\n              dup1\n              revert\n            tag_105:\n                /* \"Project.sol\":5421:5431  msg.sender */\n              caller\n                /* \"Project.sol\":5403:5432  milestone.rewards[msg.sender] */\n              0x00\n              dup2\n              dup2\n              mstore\n                /* \"Project.sol\":5403:5420  milestone.rewards */\n              0x09\n              dup1\n              dup6\n              add\n                /* \"Project.sol\":5403:5432  milestone.rewards[msg.sender] */\n              0x20\n              mstore\n              0x40\n              swap2\n              dup3\n              swap1\n              keccak256\n                /* \"Project.sol\":5403:5439  milestone.rewards[msg.sender] = true */\n              dup1\n              sload\n              not(0xff)\n              and\n                /* \"Project.sol\":5435:5439  true */\n              0x01\n                /* \"Project.sol\":5403:5439  milestone.rewards[msg.sender] = true */\n              or\n              swap1\n              sstore\n                /* \"Project.sol\":5450:5453  nft */\n              sload\n                /* \"Project.sol\":5450:5484  nft.safeMint(msg.sender, tokenURI) */\n              swap1\n              mload\n              shl(0xe1, 0x6902622f)\n              dup2\n              mstore\n              sub(shl(0xa0, 0x01), 0x01)\n                /* \"Project.sol\":5450:5453  nft */\n              swap2\n              swap1\n              swap2\n              and\n              swap2\n                /* \"Project.sol\":5450:5462  nft.safeMint */\n              0xd204c45e\n              swap2\n                /* \"Project.sol\":5450:5484  nft.safeMint(msg.sender, tokenURI) */\n              tag_106\n              swap2\n                /* \"Project.sol\":5421:5431  msg.sender */\n              swap1\n                /* \"Project.sol\":5475:5483  tokenURI */\n              dup8\n              swap1\n                /* \"Project.sol\":5450:5484  nft.safeMint(msg.sender, tokenURI) */\n              0x04\n              add\n              tag_107\n              jump\t// in\n            tag_106:\n              0x00\n              mload(0x40)\n              dup1\n              dup4\n              sub\n              dup2\n              0x00\n              dup8\n              dup1\n              extcodesize\n              iszero\n              dup1\n              iszero\n              tag_108\n              jumpi\n              0x00\n              dup1\n              revert\n            tag_108:\n              pop\n              gas\n              call\n              iszero\n              dup1\n              iszero\n              tag_110\n              jumpi\n              returndatasize\n              0x00\n              dup1\n              returndatacopy\n              revert(0x00, returndatasize)\n            tag_110:\n              pop\n              pop\n              pop\n              pop\n                /* \"Project.sol\":4919:5491  {... */\n              pop\n              pop\n                /* \"Project.sol\":4851:5491  function rewardMilestone(uint index, string memory tokenURI) public {... */\n              pop\n              pop\n              jump\t// out\n                /* \"Project.sol\":2891:3390  function createMilestones(... */\n            tag_43:\n                /* \"Project.sol\":607:612  owner */\n              and(sub(shl(0xa0, 0x01), 0x01), sload(0x01))\n                /* \"Project.sol\":593:603  msg.sender */\n              caller\n                /* \"Project.sol\":593:612  msg.sender == owner */\n              eq\n                /* \"Project.sol\":585:613  require(msg.sender == owner) */\n              tag_112\n              jumpi\n              0x00\n              dup1\n              revert\n            tag_112:\n                /* \"Project.sol\":3154:3164  thresholds */\n              dup2\n                /* \"Project.sol\":3154:3171  thresholds.length */\n              mload\n                /* \"Project.sol\":3131:3143  descriptions */\n              dup4\n                /* \"Project.sol\":3131:3150  descriptions.length */\n              mload\n                /* \"Project.sol\":3131:3171  descriptions.length == thresholds.length */\n              eq\n                /* \"Project.sol\":3131:3229  descriptions.length == thresholds.length &&... */\n              dup1\n              iszero\n              tag_114\n              jumpi\n              pop\n                /* \"Project.sol\":3212:3222  recipients */\n              dup1\n                /* \"Project.sol\":3212:3229  recipients.length */\n              mload\n                /* \"Project.sol\":3191:3201  thresholds */\n              dup3\n                /* \"Project.sol\":3191:3208  thresholds.length */\n              mload\n                /* \"Project.sol\":3191:3229  thresholds.length == recipients.length */\n              eq\n                /* \"Project.sol\":3131:3229  descriptions.length == thresholds.length &&... */\n            tag_114:\n                /* \"Project.sol\":3110:3239  require(... */\n              tag_115\n              jumpi\n              0x00\n              dup1\n              revert\n            tag_115:\n                /* \"Project.sol\":3255:3261  uint i */\n              0x00\n                /* \"Project.sol\":3250:3384  for (uint i = 0; i < descriptions.length; i++) {... */\n            tag_116:\n                /* \"Project.sol\":3271:3283  descriptions */\n              dup4\n                /* \"Project.sol\":3271:3290  descriptions.length */\n              mload\n                /* \"Project.sol\":3267:3268  i */\n              dup2\n                /* \"Project.sol\":3267:3290  i < descriptions.length */\n              lt\n                /* \"Project.sol\":3250:3384  for (uint i = 0; i < descriptions.length; i++) {... */\n              iszero\n              tag_117\n              jumpi\n                /* \"Project.sol\":3311:3373  createMilestone(descriptions[i], thresholds[i], recipients[i]) */\n              tag_119\n                /* \"Project.sol\":3327:3339  descriptions */\n              dup5\n                /* \"Project.sol\":3340:3341  i */\n              dup3\n                /* \"Project.sol\":3327:3342  descriptions[i] */\n              dup2\n              mload\n              dup2\n              lt\n              tag_121\n              jumpi\n              tag_121\n              tag_101\n              jump\t// in\n            tag_121:\n              0x20\n              mul\n              0x20\n              add\n              add\n              mload\n                /* \"Project.sol\":3344:3354  thresholds */\n              dup5\n                /* \"Project.sol\":3355:3356  i */\n              dup4\n                /* \"Project.sol\":3344:3357  thresholds[i] */\n              dup2\n              mload\n              dup2\n              lt\n              tag_123\n              jumpi\n              tag_123\n              tag_101\n              jump\t// in\n            tag_123:\n              0x20\n              mul\n              0x20\n              add\n              add\n              mload\n                /* \"Project.sol\":3359:3369  recipients */\n              dup5\n                /* \"Project.sol\":3370:3371  i */\n              dup5\n                /* \"Project.sol\":3359:3372  recipients[i] */\n              dup2\n              mload\n              dup2\n              lt\n              tag_125\n              jumpi\n              tag_125\n              tag_101\n              jump\t// in\n            tag_125:\n              0x20\n              mul\n              0x20\n              add\n              add\n              mload\n                /* \"Project.sol\":3311:3326  createMilestone */\n              tag_84\n                /* \"Project.sol\":3311:3373  createMilestone(descriptions[i], thresholds[i], recipients[i]) */\n              jump\t// in\n            tag_119:\n                /* \"Project.sol\":3292:3295  i++ */\n              0x01\n              add\n                /* \"Project.sol\":3250:3384  for (uint i = 0; i < descriptions.length; i++) {... */\n              jump(tag_116)\n            tag_117:\n              pop\n                /* \"Project.sol\":2891:3390  function createMilestones(... */\n              pop\n              pop\n              pop\n              jump\t// out\n                /* \"Project.sol\":1483:1831  function getSummary()... */\n            tag_46:\n                /* \"Project.sol\":1550:1554  uint */\n              0x00\n                /* \"Project.sol\":1556:1563  address */\n              dup1\n                /* \"Project.sol\":1565:1578  string memory */\n              0x60\n                /* \"Project.sol\":1580:1584  uint */\n              0x00\n                /* \"Project.sol\":1586:1590  uint */\n              dup1\n                /* \"Project.sol\":1592:1596  uint */\n              0x00\n                /* \"Project.sol\":1598:1602  uint */\n              dup1\n                /* \"Project.sol\":1639:1660  address(this).balance */\n              selfbalance\n                /* \"Project.sol\":1674:1679  owner */\n              0x01\n              0x00\n              swap1\n              sload\n              swap1\n              0x0100\n              exp\n              swap1\n              div\n              sub(shl(0xa0, 0x01), 0x01)\n              and\n                /* \"Project.sol\":1693:1696  cid */\n              0x02\n                /* \"Project.sol\":1710:1729  minimumContribution */\n              sload(0x03)\n                /* \"Project.sol\":1743:1761  targetContribution */\n              sload(0x04)\n                /* \"Project.sol\":1775:1783  deadline */\n              sload(0x05)\n                /* \"Project.sol\":1797:1814  contributorsCount */\n              sload(0x06)\n                /* \"Project.sol\":1618:1824  return (... */\n              dup5\n              dup1\n              sload\n              tag_127\n              swap1\n              tag_128\n              jump\t// in\n            tag_127:\n              dup1\n              0x1f\n              add\n              0x20\n              dup1\n              swap2\n              div\n              mul\n              0x20\n              add\n              mload(0x40)\n              swap1\n              dup2\n              add\n              0x40\n              mstore\n              dup1\n              swap3\n              swap2\n              swap1\n              dup2\n              dup2\n              mstore\n              0x20\n              add\n              dup3\n              dup1\n              sload\n              tag_129\n              swap1\n              tag_128\n              jump\t// in\n            tag_129:\n              dup1\n              iszero\n              tag_130\n              jumpi\n              dup1\n              0x1f\n              lt\n              tag_131\n              jumpi\n              0x0100\n              dup1\n              dup4\n              sload\n              div\n              mul\n              dup4\n              mstore\n              swap2\n              0x20\n              add\n              swap2\n              jump(tag_130)\n            tag_131:\n              dup3\n              add\n              swap2\n              swap1\n              0x00\n              mstore\n              keccak256(0x00, 0x20)\n              swap1\n            tag_132:\n              dup2\n              sload\n              dup2\n              mstore\n              swap1\n              0x01\n              add\n              swap1\n              0x20\n              add\n              dup1\n              dup4\n              gt\n              tag_132\n              jumpi\n              dup3\n              swap1\n              sub\n              0x1f\n              and\n              dup3\n              add\n              swap2\n            tag_130:\n              pop\n              pop\n              pop\n              pop\n              pop\n              swap5\n              pop\n              swap7\n              pop\n              swap7\n              pop\n              swap7\n              pop\n              swap7\n              pop\n              swap7\n              pop\n              swap7\n              pop\n              swap7\n              pop\n                /* \"Project.sol\":1483:1831  function getSummary()... */\n              swap1\n              swap2\n              swap3\n              swap4\n              swap5\n              swap6\n              swap7\n              jump\t// out\n                /* \"Project.sol\":242:259  string public cid */\n            tag_69:\n              0x02\n              dup1\n              sload\n              tag_133\n              swap1\n              tag_128\n              jump\t// in\n            tag_133:\n              dup1\n              0x1f\n              add\n              0x20\n              dup1\n              swap2\n              div\n              mul\n              0x20\n              add\n              mload(0x40)\n              swap1\n              dup2\n              add\n              0x40\n              mstore\n              dup1\n              swap3\n              swap2\n              swap1\n              dup2\n              dup2\n              mstore\n              0x20\n              add\n              dup3\n              dup1\n              sload\n              tag_134\n              swap1\n              tag_128\n              jump\t// in\n            tag_134:\n              dup1\n              iszero\n              tag_135\n              jumpi\n              dup1\n              0x1f\n              lt\n              tag_136\n              jumpi\n              0x0100\n              dup1\n              dup4\n              sload\n              div\n              mul\n              dup4\n              mstore\n              swap2\n              0x20\n              add\n              swap2\n              jump(tag_135)\n            tag_136:\n              dup3\n              add\n              swap2\n              swap1\n              0x00\n              mstore\n              keccak256(0x00, 0x20)\n              swap1\n            tag_137:\n              dup2\n              sload\n              dup2\n              mstore\n              swap1\n              0x01\n              add\n              swap1\n              0x20\n              add\n              dup1\n              dup4\n              gt\n              tag_137\n              jumpi\n              dup3\n              swap1\n              sub\n              0x1f\n              and\n              dup3\n              add\n              swap2\n            tag_135:\n              pop\n              pop\n              pop\n              pop\n              pop\n              dup2\n              jump\t// out\n                /* \"Project.sol\":4032:4845  function approveMilestone(uint index) public payable {... */\n            tag_79:\n                /* \"Project.sol\":4099:4108  msg.value */\n              callvalue\n                /* \"Project.sol\":4099:4112  msg.value > 0 */\n              iszero\n                /* \"Project.sol\":4095:4151  if (msg.value > 0) {... */\n              tag_140\n              jumpi\n                /* \"Project.sol\":4128:4140  contribute() */\n              tag_140\n                /* \"Project.sol\":4128:4138  contribute */\n              tag_86\n                /* \"Project.sol\":4128:4140  contribute() */\n              jump\t// in\n            tag_140:\n                /* \"Project.sol\":4161:4194  Model.Milestone storage milestone */\n              0x00\n                /* \"Project.sol\":4197:4207  milestones */\n              0x08\n                /* \"Project.sol\":4208:4213  index */\n              dup3\n                /* \"Project.sol\":4197:4214  milestones[index] */\n              dup2\n              sload\n              dup2\n              lt\n              tag_142\n              jumpi\n              tag_142\n              tag_101\n              jump\t// in\n            tag_142:\n              swap1\n              0x00\n              mstore\n              keccak256(0x00, 0x20)\n              swap1\n              0x0a\n              mul\n              add\n                /* \"Project.sol\":4161:4214  Model.Milestone storage milestone = milestones[index] */\n              swap1\n              pop\n                /* \"Project.sol\":4322:4331  milestone */\n              dup1\n                /* \"Project.sol\":4322:4341  milestone.threshold */\n              0x02\n              add\n              sload\n                /* \"Project.sol\":4297:4318  address(this).balance */\n              selfbalance\n                /* \"Project.sol\":4297:4341  address(this).balance >= milestone.threshold */\n              lt\n              iszero\n                /* \"Project.sol\":4289:4342  require(address(this).balance >= milestone.threshold) */\n              tag_144\n              jumpi\n              0x00\n              dup1\n              revert\n            tag_144:\n                /* \"Project.sol\":4436:4446  msg.sender */\n              caller\n                /* \"Project.sol\":4450:4451  0 */\n              0x00\n                /* \"Project.sol\":4423:4447  contributors[msg.sender] */\n              swap1\n              dup2\n              mstore\n                /* \"Project.sol\":4423:4435  contributors */\n              0x07\n                /* \"Project.sol\":4423:4447  contributors[msg.sender] */\n              0x20\n              mstore\n              0x40\n              swap1\n              keccak256\n              sload\n                /* \"Project.sol\":4415:4452  require(contributors[msg.sender] > 0) */\n              tag_145\n              jumpi\n              0x00\n              dup1\n              revert\n            tag_145:\n                /* \"Project.sol\":4557:4567  msg.sender */\n              caller\n                /* \"Project.sol\":4537:4568  milestone.approvals[msg.sender] */\n              0x00\n              swap1\n              dup2\n              mstore\n                /* \"Project.sol\":4537:4556  milestone.approvals */\n              0x06\n              dup3\n              add\n                /* \"Project.sol\":4537:4568  milestone.approvals[msg.sender] */\n              0x20\n              mstore\n              0x40\n              swap1\n              keccak256\n              sload\n                /* \"Project.sol\":4537:4573  milestone.approvals[msg.sender] == 0 */\n              iszero\n                /* \"Project.sol\":4529:4574  require(milestone.approvals[msg.sender] == 0) */\n              tag_146\n              jumpi\n              0x00\n              dup1\n              revert\n            tag_146:\n                /* \"Project.sol\":4605:4615  msg.sender */\n              caller\n                /* \"Project.sol\":4585:4616  milestone.approvals[msg.sender] */\n              0x00\n              swap1\n              dup2\n              mstore\n                /* \"Project.sol\":4585:4604  milestone.approvals */\n              0x06\n              dup3\n              add\n                /* \"Project.sol\":4585:4616  milestone.approvals[msg.sender] */\n              0x20\n              mstore\n              0x40\n              dup2\n              keccak256\n                /* \"Project.sol\":4619:4634  block.timestamp */\n              timestamp\n                /* \"Project.sol\":4585:4634  milestone.approvals[msg.sender] = block.timestamp */\n              swap1\n              sstore\n                /* \"Project.sol\":4644:4668  milestone.approvalsCount */\n              0x05\n              dup3\n              add\n                /* \"Project.sol\":4644:4670  milestone.approvalsCount++ */\n              dup1\n              sload\n              swap2\n              tag_147\n              dup4\n              tag_148\n              jump\t// in\n            tag_147:\n              swap2\n              swap1\n              pop\n              sstore\n              pop\n                /* \"Project.sol\":4733:4734  2 */\n              0x02\n                /* \"Project.sol\":4713:4730  contributorsCount */\n              sload(0x06)\n                /* \"Project.sol\":4713:4734  contributorsCount / 2 */\n              tag_149\n              swap2\n              swap1\n              tag_150\n              jump\t// in\n            tag_149:\n                /* \"Project.sol\":4685:4694  milestone */\n              dup2\n                /* \"Project.sol\":4685:4709  milestone.approvalsCount */\n              0x05\n              add\n              sload\n                /* \"Project.sol\":4685:4735  milestone.approvalsCount > (contributorsCount / 2) */\n              gt\n                /* \"Project.sol\":4681:4839  if (milestone.approvalsCount > (contributorsCount / 2)) {... */\n              iszero\n              tag_151\n              jumpi\n                /* \"Project.sol\":4751:4769  milestone.approved */\n              0x03\n              dup2\n              add\n                /* \"Project.sol\":4751:4776  milestone.approved = true */\n              dup1\n              sload\n              not(0xff)\n              and\n                /* \"Project.sol\":4772:4776  true */\n              0x01\n                /* \"Project.sol\":4751:4776  milestone.approved = true */\n              or\n              swap1\n              sstore\n                /* \"Project.sol\":4813:4828  block.timestamp */\n              timestamp\n                /* \"Project.sol\":4790:4810  milestone.approvedAt */\n              0x04\n              dup3\n              add\n                /* \"Project.sol\":4790:4828  milestone.approvedAt = block.timestamp */\n              sstore\n                /* \"Project.sol\":4681:4839  if (milestone.approvalsCount > (contributorsCount / 2)) {... */\n            tag_151:\n                /* \"Project.sol\":4085:4845  {... */\n              pop\n                /* \"Project.sol\":4032:4845  function approveMilestone(uint index) public payable {... */\n              pop\n              jump\t// out\n                /* \"Project.sol\":2558:2885  function createMilestone(... */\n            tag_84:\n                /* \"Project.sol\":607:612  owner */\n              and(sub(shl(0xa0, 0x01), 0x01), sload(0x01))\n                /* \"Project.sol\":593:603  msg.sender */\n              caller\n                /* \"Project.sol\":593:612  msg.sender == owner */\n              eq\n                /* \"Project.sol\":585:613  require(msg.sender == owner) */\n              tag_153\n              jumpi\n              0x00\n              dup1\n              revert\n            tag_153:\n                /* \"Project.sol\":2796:2814  targetContribution */\n              sload(0x04)\n                /* \"Project.sol\":2784:2793  threshold */\n              dup3\n                /* \"Project.sol\":2784:2814  threshold < targetContribution */\n              lt\n                /* \"Project.sol\":2776:2815  require(threshold < targetContribution) */\n              tag_155\n              jumpi\n              0x00\n              dup1\n              revert\n            tag_155:\n                /* \"Project.sol\":2826:2878  _createMilestone(description, threshold, _recipient) */\n              tag_156\n                /* \"Project.sol\":2843:2854  description */\n              dup4\n                /* \"Project.sol\":2856:2865  threshold */\n              dup4\n                /* \"Project.sol\":2867:2877  _recipient */\n              dup4\n                /* \"Project.sol\":2826:2842  _createMilestone */\n              tag_157\n                /* \"Project.sol\":2826:2878  _createMilestone(description, threshold, _recipient) */\n              jump\t// in\n            tag_156:\n                /* \"Project.sol\":2558:2885  function createMilestone(... */\n              pop\n              pop\n              pop\n              jump\t// out\n                /* \"Project.sol\":1837:2448  function contribute() public payable {... */\n            tag_86:\n                /* \"Project.sol\":1999:2018  minimumContribution */\n              sload(0x03)\n                /* \"Project.sol\":1987:1996  msg.value */\n              callvalue\n                /* \"Project.sol\":1987:2018  msg.value > minimumContribution */\n              gt\n                /* \"Project.sol\":1979:2019  require(msg.value > minimumContribution) */\n              tag_159\n              jumpi\n              0x00\n              dup1\n              revert\n            tag_159:\n                /* \"Project.sol\":2143:2161  targetContribution */\n              sload(0x04)\n                /* \"Project.sol\":2131:2140  msg.value */\n              callvalue\n                /* \"Project.sol\":2131:2161  msg.value < targetContribution */\n              lt\n                /* \"Project.sol\":2123:2162  require(msg.value < targetContribution) */\n              tag_160\n              jumpi\n              0x00\n              dup1\n              revert\n            tag_160:\n                /* \"Project.sol\":2290:2298  deadline */\n              sload(0x05)\n                /* \"Project.sol\":2272:2287  block.timestamp */\n              timestamp\n                /* \"Project.sol\":2272:2298  block.timestamp < deadline */\n              lt\n                /* \"Project.sol\":2264:2299  require(block.timestamp < deadline) */\n              tag_161\n              jumpi\n              0x00\n              dup1\n              revert\n            tag_161:\n                /* \"Project.sol\":2327:2337  msg.sender */\n              caller\n                /* \"Project.sol\":2314:2338  contributors[msg.sender] */\n              0x00\n              swap1\n              dup2\n              mstore\n                /* \"Project.sol\":2314:2326  contributors */\n              0x07\n                /* \"Project.sol\":2314:2338  contributors[msg.sender] */\n              0x20\n              mstore\n              0x40\n              dup2\n              keccak256\n              sload\n                /* \"Project.sol\":2314:2343  contributors[msg.sender] == 0 */\n              swap1\n              sub\n                /* \"Project.sol\":2310:2389  if (contributors[msg.sender] == 0) {... */\n              tag_162\n              jumpi\n                /* \"Project.sol\":2359:2376  contributorsCount */\n              0x06\n                /* \"Project.sol\":2359:2378  contributorsCount++ */\n              dup1\n              sload\n              swap1\n                /* \"Project.sol\":2359:2376  contributorsCount */\n              0x00\n                /* \"Project.sol\":2359:2378  contributorsCount++ */\n              tag_163\n              dup4\n              tag_148\n              jump\t// in\n            tag_163:\n              swap2\n              swap1\n              pop\n              sstore\n              pop\n                /* \"Project.sol\":2310:2389  if (contributors[msg.sender] == 0) {... */\n            tag_162:\n                /* \"Project.sol\":2412:2422  msg.sender */\n              caller\n                /* \"Project.sol\":2399:2423  contributors[msg.sender] */\n              0x00\n              swap1\n              dup2\n              mstore\n                /* \"Project.sol\":2399:2411  contributors */\n              0x07\n                /* \"Project.sol\":2399:2423  contributors[msg.sender] */\n              0x20\n              mstore\n              0x40\n              swap1\n              keccak256\n                /* \"Project.sol\":2426:2441  block.timestamp */\n              timestamp\n                /* \"Project.sol\":2399:2441  contributors[msg.sender] = block.timestamp */\n              swap1\n              sstore\n                /* \"Project.sol\":1837:2448  function contribute() public payable {... */\n              jump\t// out\n                /* \"Project.sol\":483:518  Model.Milestone[] public milestones */\n            tag_90:\n              0x08\n              dup2\n              dup2\n              sload\n              dup2\n              lt\n              tag_164\n              jumpi\n              0x00\n              dup1\n              revert\n            tag_164:\n              0x00\n              swap2\n              dup3\n              mstore\n              0x20\n              swap1\n              swap2\n              keccak256\n              0x0a\n              swap1\n              swap2\n              mul\n              add\n              dup1\n              sload\n              0x01\n              dup3\n              add\n              dup1\n              sload\n              sub(shl(0xa0, 0x01), 0x01)\n              swap1\n              swap3\n              and\n              swap4\n              pop\n              swap1\n              tag_166\n              swap1\n              tag_128\n              jump\t// in\n            tag_166:\n              dup1\n              0x1f\n              add\n              0x20\n              dup1\n              swap2\n              div\n              mul\n              0x20\n              add\n              mload(0x40)\n              swap1\n              dup2\n              add\n              0x40\n              mstore\n              dup1\n              swap3\n              swap2\n              swap1\n              dup2\n              dup2\n              mstore\n              0x20\n              add\n              dup3\n              dup1\n              sload\n              tag_167\n              swap1\n              tag_128\n              jump\t// in\n            tag_167:\n              dup1\n              iszero\n              tag_168\n              jumpi\n              dup1\n              0x1f\n              lt\n              tag_169\n              jumpi\n              0x0100\n              dup1\n              dup4\n              sload\n              div\n              mul\n              dup4\n              mstore\n              swap2\n              0x20\n              add\n              swap2\n              jump(tag_168)\n            tag_169:\n              dup3\n              add\n              swap2\n              swap1\n              0x00\n              mstore\n              keccak256(0x00, 0x20)\n              swap1\n            tag_170:\n              dup2\n              sload\n              dup2\n              mstore\n              swap1\n              0x01\n              add\n              swap1\n              0x20\n              add\n              dup1\n              dup4\n              gt\n              tag_170\n              jumpi\n              dup3\n              swap1\n              sub\n              0x1f\n              and\n              dup3\n              add\n              swap2\n            tag_168:\n              pop\n              pop\n              pop\n              pop\n              0x02\n              dup4\n              add\n              sload\n              0x03\n              dup5\n              add\n              sload\n              0x04\n              dup6\n              add\n              sload\n              0x05\n              dup7\n              add\n              sload\n              0x07\n              dup8\n              add\n              sload\n              0x08\n              swap1\n              swap8\n              add\n              sload\n              swap6\n              swap7\n              swap4\n              swap6\n              0xff\n              swap4\n              dup5\n              and\n              swap6\n              pop\n              swap2\n              swap4\n              swap1\n              swap3\n              and\n              swap1\n              dup9\n              jump\t// out\n                /* \"Project.sol\":5497:6519  function withdrawMilestone(uint index) public restricted {... */\n            tag_96:\n                /* \"Project.sol\":607:612  owner */\n              and(sub(shl(0xa0, 0x01), 0x01), sload(0x01))\n                /* \"Project.sol\":593:603  msg.sender */\n              caller\n                /* \"Project.sol\":593:612  msg.sender == owner */\n              eq\n                /* \"Project.sol\":585:613  require(msg.sender == owner) */\n              tag_172\n              jumpi\n              0x00\n              dup1\n              revert\n            tag_172:\n                /* \"Project.sol\":5627:5637  milestones */\n              0x08\n                /* \"Project.sol\":5627:5644  milestones.length */\n              sload\n                /* \"Project.sol\":5619:5644  index < milestones.length */\n              dup2\n              lt\n                /* \"Project.sol\":5611:5645  require(index < milestones.length) */\n              tag_174\n              jumpi\n              0x00\n              dup1\n              revert\n            tag_174:\n                /* \"Project.sol\":5656:5689  Model.Milestone storage milestone */\n              0x00\n                /* \"Project.sol\":5692:5702  milestones */\n              0x08\n                /* \"Project.sol\":5703:5708  index */\n              dup3\n                /* \"Project.sol\":5692:5709  milestones[index] */\n              dup2\n              sload\n              dup2\n              lt\n              tag_176\n              jumpi\n              tag_176\n              tag_101\n              jump\t// in\n            tag_176:\n              swap1\n              0x00\n              mstore\n              keccak256(0x00, 0x20)\n              swap1\n              0x0a\n              mul\n              add\n                /* \"Project.sol\":5656:5709  Model.Milestone storage milestone = milestones[index] */\n              swap1\n              pop\n                /* \"Project.sol\":5889:5908  uint withdrawAmount */\n              0x00\n                /* \"Project.sol\":5911:5920  milestone */\n              dup2\n                /* \"Project.sol\":5911:5930  milestone.threshold */\n              0x02\n              add\n              sload\n                /* \"Project.sol\":5889:5930  uint withdrawAmount = milestone.threshold */\n              swap1\n              pop\n                /* \"Project.sol\":5945:5951  uint i */\n              0x00\n                /* \"Project.sol\":5940:6373  for (uint i = 0; i <= index; i++) {... */\n            tag_178:\n                /* \"Project.sol\":5962:5967  index */\n              dup4\n                /* \"Project.sol\":5957:5958  i */\n              dup2\n                /* \"Project.sol\":5957:5967  i <= index */\n              gt\n                /* \"Project.sol\":5940:6373  for (uint i = 0; i <= index; i++) {... */\n              tag_179\n              jumpi\n                /* \"Project.sol\":5996:6001  index */\n              dup4\n                /* \"Project.sol\":5992:5993  i */\n              dup2\n                /* \"Project.sol\":5992:6001  i < index */\n              lt\n                /* \"Project.sol\":5988:6363  if (i < index) {... */\n              iszero\n              tag_181\n              jumpi\n                /* \"Project.sol\":6092:6102  milestones */\n              0x08\n                /* \"Project.sol\":6103:6104  i */\n              dup2\n                /* \"Project.sol\":6092:6105  milestones[i] */\n              dup2\n              sload\n              dup2\n              lt\n              tag_183\n              jumpi\n              tag_183\n              tag_101\n              jump\t// in\n            tag_183:\n              0x00\n              swap2\n              dup3\n              mstore\n              0x20\n              swap1\n              swap2\n              keccak256\n                /* \"Project.sol\":6092:6115  milestones[i].completed */\n              0x07\n                /* \"Project.sol\":6092:6105  milestones[i] */\n              0x0a\n              swap1\n              swap3\n              mul\n              add\n                /* \"Project.sol\":6092:6115  milestones[i].completed */\n              add\n              sload\n              0xff\n              and\n                /* \"Project.sol\":6084:6116  require(milestones[i].completed) */\n              tag_185\n              jumpi\n              0x00\n              dup1\n              revert\n            tag_185:\n                /* \"Project.sol\":6168:6178  milestones */\n              0x08\n                /* \"Project.sol\":6179:6180  i */\n              dup2\n                /* \"Project.sol\":6168:6181  milestones[i] */\n              dup2\n              sload\n              dup2\n              lt\n              tag_187\n              jumpi\n              tag_187\n              tag_101\n              jump\t// in\n            tag_187:\n              swap1\n              0x00\n              mstore\n              keccak256(0x00, 0x20)\n              swap1\n              0x0a\n              mul\n              add\n                /* \"Project.sol\":6168:6191  milestones[i].threshold */\n              0x02\n              add\n              sload\n                /* \"Project.sol\":6151:6165  withdrawAmount */\n              dup3\n                /* \"Project.sol\":6151:6191  withdrawAmount - milestones[i].threshold */\n              tag_189\n              swap2\n              swap1\n              tag_190\n              jump\t// in\n            tag_189:\n                /* \"Project.sol\":6134:6191  withdrawAmount = withdrawAmount - milestones[i].threshold */\n              swap2\n              pop\n                /* \"Project.sol\":5988:6363  if (i < index) {... */\n              jump(tag_195)\n            tag_181:\n                /* \"Project.sol\":6325:6335  milestones */\n              0x08\n                /* \"Project.sol\":6336:6337  i */\n              dup2\n                /* \"Project.sol\":6325:6338  milestones[i] */\n              dup2\n              sload\n              dup2\n              lt\n              tag_193\n              jumpi\n              tag_193\n              tag_101\n              jump\t// in\n            tag_193:\n              0x00\n              swap2\n              dup3\n              mstore\n              0x20\n              swap1\n              swap2\n              keccak256\n                /* \"Project.sol\":6325:6347  milestones[i].approved */\n              0x03\n                /* \"Project.sol\":6325:6338  milestones[i] */\n              0x0a\n              swap1\n              swap3\n              mul\n              add\n                /* \"Project.sol\":6325:6347  milestones[i].approved */\n              add\n              sload\n              0xff\n              and\n                /* \"Project.sol\":6317:6348  require(milestones[i].approved) */\n              tag_195\n              jumpi\n              0x00\n              dup1\n              revert\n            tag_195:\n                /* \"Project.sol\":5969:5972  i++ */\n              dup1\n              tag_196\n              dup2\n              tag_148\n              jump\t// in\n            tag_196:\n              swap2\n              pop\n              pop\n                /* \"Project.sol\":5940:6373  for (uint i = 0; i <= index; i++) {... */\n              jump(tag_178)\n            tag_179:\n              pop\n                /* \"Project.sol\":6383:6402  milestone.recipient */\n              dup2\n              sload\n                /* \"Project.sol\":6383:6427  milestone.recipient.transfer(withdrawAmount) */\n              mload(0x40)\n              sub(shl(0xa0, 0x01), 0x01)\n                /* \"Project.sol\":6383:6402  milestone.recipient */\n              swap1\n              swap2\n              and\n              swap1\n                /* \"Project.sol\":6383:6427  milestone.recipient.transfer(withdrawAmount) */\n              dup3\n              iszero\n              0x08fc\n              mul\n              swap1\n                /* \"Project.sol\":6412:6426  withdrawAmount */\n              dup4\n              swap1\n                /* \"Project.sol\":6383:6402  milestone.recipient */\n              0x00\n                /* \"Project.sol\":6383:6427  milestone.recipient.transfer(withdrawAmount) */\n              dup2\n                /* \"Project.sol\":6383:6402  milestone.recipient */\n              dup2\n                /* \"Project.sol\":6383:6427  milestone.recipient.transfer(withdrawAmount) */\n              dup2\n                /* \"Project.sol\":6412:6426  withdrawAmount */\n              dup6\n                /* \"Project.sol\":6383:6402  milestone.recipient */\n              dup9\n                /* \"Project.sol\":6383:6427  milestone.recipient.transfer(withdrawAmount) */\n              dup9\n              call\n              swap4\n              pop\n              pop\n              pop\n              pop\n              iszero\n              dup1\n              iszero\n              tag_198\n              jumpi\n              returndatasize\n              0x00\n              dup1\n              returndatacopy\n              revert(0x00, returndatasize)\n            tag_198:\n              pop\n              pop\n                /* \"Project.sol\":6437:6456  milestone.completed */\n              0x07\n              dup2\n              add\n                /* \"Project.sol\":6437:6463  milestone.completed = true */\n              dup1\n              sload\n              not(0xff)\n              and\n                /* \"Project.sol\":6459:6463  true */\n              0x01\n                /* \"Project.sol\":6437:6463  milestone.completed = true */\n              or\n              swap1\n              sstore\n                /* \"Project.sol\":6497:6512  block.timestamp */\n              timestamp\n                /* \"Project.sol\":6473:6494  milestone.completedAt */\n              0x08\n              swap1\n              swap2\n              add\n                /* \"Project.sol\":6473:6512  milestone.completedAt = block.timestamp */\n              sstore\n              pop\n                /* \"Project.sol\":5497:6519  function withdrawMilestone(uint index) public restricted {... */\n              jump\t// out\n                /* \"Project.sol\":3396:4026  function _createMilestone(... */\n            tag_157:\n                /* \"Project.sol\":3537:3543  uint i */\n              0x00\n                /* \"Project.sol\":3532:3727  for (uint i = 0; i < milestones.length; i++) {... */\n            tag_200:\n                /* \"Project.sol\":3553:3563  milestones */\n              0x08\n                /* \"Project.sol\":3553:3570  milestones.length */\n              sload\n                /* \"Project.sol\":3549:3570  i < milestones.length */\n              dup2\n              lt\n                /* \"Project.sol\":3532:3727  for (uint i = 0; i < milestones.length; i++) {... */\n              iszero\n              tag_201\n              jumpi\n                /* \"Project.sol\":3706:3715  threshold */\n              dup3\n                /* \"Project.sol\":3679:3689  milestones */\n              0x08\n                /* \"Project.sol\":3690:3691  i */\n              dup3\n                /* \"Project.sol\":3679:3692  milestones[i] */\n              dup2\n              sload\n              dup2\n              lt\n              tag_204\n              jumpi\n              tag_204\n              tag_101\n              jump\t// in\n            tag_204:\n              swap1\n              0x00\n              mstore\n              keccak256(0x00, 0x20)\n              swap1\n              0x0a\n              mul\n              add\n                /* \"Project.sol\":3679:3702  milestones[i].threshold */\n              0x02\n              add\n              sload\n                /* \"Project.sol\":3679:3715  milestones[i].threshold >= threshold */\n              lt\n              iszero\n                /* \"Project.sol\":3671:3716  require(milestones[i].threshold >= threshold) */\n              tag_206\n              jumpi\n              0x00\n              dup1\n              revert\n            tag_206:\n                /* \"Project.sol\":3572:3575  i++ */\n              0x01\n              add\n                /* \"Project.sol\":3532:3727  for (uint i = 0; i < milestones.length; i++) {... */\n              jump(tag_200)\n            tag_201:\n              pop\n                /* \"Project.sol\":3776:3786  milestones */\n              0x08\n                /* \"Project.sol\":3776:3793  milestones.push() */\n              dup1\n              sload\n              0x01\n              dup2\n              add\n              dup3\n              sstore\n                /* \"Project.sol\":3737:3773  Model.Milestone storage newMilestone */\n              0x00\n                /* \"Project.sol\":3776:3793  milestones.push() */\n              swap2\n              swap1\n              swap2\n              mstore\n              0x0a\n              mul\n              0xf3f7a9fe364faab93b216da50a3214154f22a0a2b415b23a84c8169e8b636ee3\n              dup2\n              add\n              swap1\n                /* \"Project.sol\":3804:3828  newMilestone.description */\n              0xf3f7a9fe364faab93b216da50a3214154f22a0a2b415b23a84c8169e8b636ee4\n              add\n                /* \"Project.sol\":3804:3842  newMilestone.description = description */\n              tag_208\n                /* \"Project.sol\":3831:3842  description */\n              dup6\n                /* \"Project.sol\":3804:3828  newMilestone.description */\n              dup3\n                /* \"Project.sol\":3804:3842  newMilestone.description = description */\n              tag_209\n              jump\t// in\n            tag_208:\n              pop\n                /* \"Project.sol\":3852:3874  newMilestone.threshold */\n              0x02\n              dup2\n              add\n                /* \"Project.sol\":3852:3886  newMilestone.threshold = threshold */\n              swap3\n              swap1\n              swap3\n              sstore\n                /* \"Project.sol\":3896:3939  newMilestone.recipient = payable(recipient) */\n              dup2\n              sload\n              not(sub(shl(0xa0, 0x01), 0x01))\n              and\n              sub(shl(0xa0, 0x01), 0x01)\n              swap2\n              swap1\n              swap2\n              and\n              or\n              dup2\n              sstore\n                /* \"Project.sol\":3949:3970  newMilestone.approved */\n              0x03\n              dup2\n              add\n                /* \"Project.sol\":3949:3978  newMilestone.approved = false */\n              dup1\n              sload\n              not(0xff)\n              and\n              swap1\n              sstore\n              0x00\n                /* \"Project.sol\":3988:4015  newMilestone.approvalsCount */\n              0x05\n              swap1\n              swap2\n              add\n                /* \"Project.sol\":3988:4019  newMilestone.approvalsCount = 0 */\n              sstore\n              pop\n                /* \"Project.sol\":3396:4026  function _createMilestone(... */\n              jump\t// out\n                /* \"#utility.yul\":196:323   */\n            tag_210:\n                /* \"#utility.yul\":257:267   */\n              0x4e487b71\n                /* \"#utility.yul\":252:255   */\n              0xe0\n                /* \"#utility.yul\":248:268   */\n              shl\n                /* \"#utility.yul\":245:246   */\n              0x00\n                /* \"#utility.yul\":238:269   */\n              mstore\n                /* \"#utility.yul\":288:292   */\n              0x41\n                /* \"#utility.yul\":285:286   */\n              0x04\n                /* \"#utility.yul\":278:293   */\n              mstore\n                /* \"#utility.yul\":312:316   */\n              0x24\n                /* \"#utility.yul\":309:310   */\n              0x00\n                /* \"#utility.yul\":302:317   */\n              revert\n                /* \"#utility.yul\":328:603   */\n            tag_211:\n                /* \"#utility.yul\":399:401   */\n              0x40\n                /* \"#utility.yul\":393:402   */\n              mload\n                /* \"#utility.yul\":464:466   */\n              0x1f\n                /* \"#utility.yul\":445:458   */\n              dup3\n              add\n              not(0x1f)\n                /* \"#utility.yul\":441:468   */\n              and\n                /* \"#utility.yul\":429:469   */\n              dup2\n              add\n              sub(shl(0x40, 0x01), 0x01)\n                /* \"#utility.yul\":484:518   */\n              dup2\n              gt\n                /* \"#utility.yul\":520:542   */\n              dup3\n              dup3\n              lt\n                /* \"#utility.yul\":481:543   */\n              or\n                /* \"#utility.yul\":478:566   */\n              iszero\n              tag_227\n              jumpi\n                /* \"#utility.yul\":546:564   */\n              tag_227\n              tag_210\n              jump\t// in\n            tag_227:\n                /* \"#utility.yul\":582:584   */\n              0x40\n                /* \"#utility.yul\":575:597   */\n              mstore\n                /* \"#utility.yul\":328:603   */\n              swap2\n              swap1\n              pop\n              jump\t// out\n                /* \"#utility.yul\":608:1139   */\n            tag_212:\n                /* \"#utility.yul\":651:656   */\n              0x00\n                /* \"#utility.yul\":704:707   */\n              dup3\n                /* \"#utility.yul\":697:701   */\n              0x1f\n                /* \"#utility.yul\":689:695   */\n              dup4\n                /* \"#utility.yul\":685:702   */\n              add\n                /* \"#utility.yul\":681:708   */\n              slt\n                /* \"#utility.yul\":671:726   */\n              tag_229\n              jumpi\n                /* \"#utility.yul\":722:723   */\n              0x00\n                /* \"#utility.yul\":719:720   */\n              dup1\n                /* \"#utility.yul\":712:724   */\n              revert\n                /* \"#utility.yul\":671:726   */\n            tag_229:\n                /* \"#utility.yul\":745:765   */\n              dup2\n              calldataload\n              sub(shl(0x40, 0x01), 0x01)\n                /* \"#utility.yul\":777:803   */\n              dup2\n              gt\n                /* \"#utility.yul\":774:826   */\n              iszero\n              tag_231\n              jumpi\n                /* \"#utility.yul\":806:824   */\n              tag_231\n              tag_210\n              jump\t// in\n            tag_231:\n                /* \"#utility.yul\":850:905   */\n              tag_232\n                /* \"#utility.yul\":893:895   */\n              0x1f\n                /* \"#utility.yul\":874:887   */\n              dup3\n              add\n              not(0x1f)\n                /* \"#utility.yul\":870:897   */\n              and\n                /* \"#utility.yul\":899:903   */\n              0x20\n                /* \"#utility.yul\":866:904   */\n              add\n                /* \"#utility.yul\":850:905   */\n              tag_211\n              jump\t// in\n            tag_232:\n                /* \"#utility.yul\":930:932   */\n              dup2\n                /* \"#utility.yul\":921:928   */\n              dup2\n                /* \"#utility.yul\":914:933   */\n              mstore\n                /* \"#utility.yul\":976:979   */\n              dup5\n                /* \"#utility.yul\":969:973   */\n              0x20\n                /* \"#utility.yul\":964:966   */\n              dup4\n                /* \"#utility.yul\":956:962   */\n              dup7\n                /* \"#utility.yul\":952:967   */\n              add\n                /* \"#utility.yul\":948:974   */\n              add\n                /* \"#utility.yul\":945:980   */\n              gt\n                /* \"#utility.yul\":942:997   */\n              iszero\n              tag_233\n              jumpi\n                /* \"#utility.yul\":993:994   */\n              0x00\n                /* \"#utility.yul\":990:991   */\n              dup1\n                /* \"#utility.yul\":983:995   */\n              revert\n                /* \"#utility.yul\":942:997   */\n            tag_233:\n                /* \"#utility.yul\":1058:1060   */\n              dup2\n                /* \"#utility.yul\":1051:1055   */\n              0x20\n                /* \"#utility.yul\":1043:1049   */\n              dup6\n                /* \"#utility.yul\":1039:1056   */\n              add\n                /* \"#utility.yul\":1032:1036   */\n              0x20\n                /* \"#utility.yul\":1023:1030   */\n              dup4\n                /* \"#utility.yul\":1019:1037   */\n              add\n                /* \"#utility.yul\":1006:1061   */\n              calldatacopy\n                /* \"#utility.yul\":1106:1107   */\n              0x00\n                /* \"#utility.yul\":1081:1097   */\n              swap2\n              dup2\n              add\n                /* \"#utility.yul\":1099:1103   */\n              0x20\n                /* \"#utility.yul\":1077:1104   */\n              add\n                /* \"#utility.yul\":1070:1108   */\n              swap2\n              swap1\n              swap2\n              mstore\n                /* \"#utility.yul\":1085:1092   */\n              swap4\n                /* \"#utility.yul\":608:1139   */\n              swap3\n              pop\n              pop\n              pop\n              jump\t// out\n                /* \"#utility.yul\":1144:1534   */\n            tag_27:\n                /* \"#utility.yul\":1222:1228   */\n              0x00\n                /* \"#utility.yul\":1230:1236   */\n              dup1\n                /* \"#utility.yul\":1283:1285   */\n              0x40\n                /* \"#utility.yul\":1271:1280   */\n              dup4\n                /* \"#utility.yul\":1262:1269   */\n              dup6\n                /* \"#utility.yul\":1258:1281   */\n              sub\n                /* \"#utility.yul\":1254:1286   */\n              slt\n                /* \"#utility.yul\":1251:1303   */\n              iszero\n              tag_235\n              jumpi\n                /* \"#utility.yul\":1299:1300   */\n              0x00\n                /* \"#utility.yul\":1296:1297   */\n              dup1\n                /* \"#utility.yul\":1289:1301   */\n              revert\n                /* \"#utility.yul\":1251:1303   */\n            tag_235:\n                /* \"#utility.yul\":1322:1345   */\n              dup3\n              calldataload\n              swap2\n              pop\n                /* \"#utility.yul\":1396:1398   */\n              0x20\n                /* \"#utility.yul\":1381:1399   */\n              dup4\n              add\n                /* \"#utility.yul\":1368:1400   */\n              calldataload\n              sub(shl(0x40, 0x01), 0x01)\n                /* \"#utility.yul\":1412:1442   */\n              dup2\n              gt\n                /* \"#utility.yul\":1409:1459   */\n              iszero\n              tag_236\n              jumpi\n                /* \"#utility.yul\":1455:1456   */\n              0x00\n                /* \"#utility.yul\":1452:1453   */\n              dup1\n                /* \"#utility.yul\":1445:1457   */\n              revert\n                /* \"#utility.yul\":1409:1459   */\n            tag_236:\n                /* \"#utility.yul\":1478:1528   */\n              tag_237\n                /* \"#utility.yul\":1520:1527   */\n              dup6\n                /* \"#utility.yul\":1511:1517   */\n              dup3\n                /* \"#utility.yul\":1500:1509   */\n              dup7\n                /* \"#utility.yul\":1496:1518   */\n              add\n                /* \"#utility.yul\":1478:1528   */\n              tag_212\n              jump\t// in\n            tag_237:\n                /* \"#utility.yul\":1468:1528   */\n              swap2\n              pop\n              pop\n                /* \"#utility.yul\":1144:1534   */\n              swap3\n              pop\n              swap3\n              swap1\n              pop\n              jump\t// out\n                /* \"#utility.yul\":1539:1712   */\n            tag_213:\n                /* \"#utility.yul\":1607:1627   */\n              dup1\n              calldataload\n              sub(shl(0xa0, 0x01), 0x01)\n                /* \"#utility.yul\":1656:1687   */\n              dup2\n              and\n                /* \"#utility.yul\":1646:1688   */\n              dup2\n              eq\n                /* \"#utility.yul\":1636:1706   */\n              tag_239\n              jumpi\n                /* \"#utility.yul\":1702:1703   */\n              0x00\n                /* \"#utility.yul\":1699:1700   */\n              dup1\n                /* \"#utility.yul\":1692:1704   */\n              revert\n                /* \"#utility.yul\":1636:1706   */\n            tag_239:\n                /* \"#utility.yul\":1539:1712   */\n              swap2\n              swap1\n              pop\n              jump\t// out\n                /* \"#utility.yul\":1717:1903   */\n            tag_32:\n                /* \"#utility.yul\":1776:1782   */\n              0x00\n                /* \"#utility.yul\":1829:1831   */\n              0x20\n                /* \"#utility.yul\":1817:1826   */\n              dup3\n                /* \"#utility.yul\":1808:1815   */\n              dup5\n                /* \"#utility.yul\":1804:1827   */\n              sub\n                /* \"#utility.yul\":1800:1832   */\n              slt\n                /* \"#utility.yul\":1797:1849   */\n              iszero\n              tag_241\n              jumpi\n                /* \"#utility.yul\":1845:1846   */\n              0x00\n                /* \"#utility.yul\":1842:1843   */\n              dup1\n                /* \"#utility.yul\":1835:1847   */\n              revert\n                /* \"#utility.yul\":1797:1849   */\n            tag_241:\n                /* \"#utility.yul\":1868:1897   */\n              tag_242\n                /* \"#utility.yul\":1887:1896   */\n              dup3\n                /* \"#utility.yul\":1868:1897   */\n              tag_213\n              jump\t// in\n            tag_242:\n                /* \"#utility.yul\":1858:1897   */\n              swap4\n                /* \"#utility.yul\":1717:1903   */\n              swap3\n              pop\n              pop\n              pop\n              jump\t// out\n                /* \"#utility.yul\":1908:2090   */\n            tag_214:\n                /* \"#utility.yul\":1967:1971   */\n              0x00\n              sub(shl(0x40, 0x01), 0x01)\n                /* \"#utility.yul\":1989:2019   */\n              dup3\n              gt\n                /* \"#utility.yul\":1986:2042   */\n              iszero\n              tag_245\n              jumpi\n                /* \"#utility.yul\":2022:2040   */\n              tag_245\n              tag_210\n              jump\t// in\n            tag_245:\n              pop\n                /* \"#utility.yul\":2067:2068   */\n              0x05\n                /* \"#utility.yul\":2063:2077   */\n              shl\n                /* \"#utility.yul\":2079:2083   */\n              0x20\n                /* \"#utility.yul\":2059:2084   */\n              add\n              swap1\n                /* \"#utility.yul\":1908:2090   */\n              jump\t// out\n                /* \"#utility.yul\":2095:2762   */\n            tag_215:\n                /* \"#utility.yul\":2149:2154   */\n              0x00\n                /* \"#utility.yul\":2202:2205   */\n              dup3\n                /* \"#utility.yul\":2195:2199   */\n              0x1f\n                /* \"#utility.yul\":2187:2193   */\n              dup4\n                /* \"#utility.yul\":2183:2200   */\n              add\n                /* \"#utility.yul\":2179:2206   */\n              slt\n                /* \"#utility.yul\":2169:2224   */\n              tag_247\n              jumpi\n                /* \"#utility.yul\":2220:2221   */\n              0x00\n                /* \"#utility.yul\":2217:2218   */\n              dup1\n                /* \"#utility.yul\":2210:2222   */\n              revert\n                /* \"#utility.yul\":2169:2224   */\n            tag_247:\n                /* \"#utility.yul\":2256:2262   */\n              dup2\n                /* \"#utility.yul\":2243:2263   */\n              calldataload\n                /* \"#utility.yul\":2282:2286   */\n              0x20\n                /* \"#utility.yul\":2306:2365   */\n              tag_248\n                /* \"#utility.yul\":2322:2364   */\n              tag_249\n                /* \"#utility.yul\":2361:2363   */\n              dup4\n                /* \"#utility.yul\":2322:2364   */\n              tag_214\n              jump\t// in\n            tag_249:\n                /* \"#utility.yul\":2306:2365   */\n              tag_211\n              jump\t// in\n            tag_248:\n                /* \"#utility.yul\":2387:2390   */\n              dup1\n                /* \"#utility.yul\":2411:2413   */\n              dup4\n                /* \"#utility.yul\":2406:2409   */\n              dup3\n                /* \"#utility.yul\":2399:2414   */\n              mstore\n                /* \"#utility.yul\":2439:2443   */\n              0x20\n                /* \"#utility.yul\":2434:2437   */\n              dup3\n                /* \"#utility.yul\":2430:2444   */\n              add\n                /* \"#utility.yul\":2423:2444   */\n              swap2\n              pop\n                /* \"#utility.yul\":2496:2500   */\n              0x20\n                /* \"#utility.yul\":2490:2492   */\n              dup5\n                /* \"#utility.yul\":2487:2488   */\n              0x05\n                /* \"#utility.yul\":2483:2493   */\n              shl\n                /* \"#utility.yul\":2475:2481   */\n              dup8\n                /* \"#utility.yul\":2471:2494   */\n              add\n                /* \"#utility.yul\":2467:2501   */\n              add\n                /* \"#utility.yul\":2453:2501   */\n              swap4\n              pop\n                /* \"#utility.yul\":2524:2527   */\n              dup7\n                /* \"#utility.yul\":2516:2522   */\n              dup5\n                /* \"#utility.yul\":2513:2528   */\n              gt\n                /* \"#utility.yul\":2510:2545   */\n              iszero\n              tag_250\n              jumpi\n                /* \"#utility.yul\":2541:2542   */\n              0x00\n                /* \"#utility.yul\":2538:2539   */\n              dup1\n                /* \"#utility.yul\":2531:2543   */\n              revert\n                /* \"#utility.yul\":2510:2545   */\n            tag_250:\n                /* \"#utility.yul\":2577:2581   */\n              0x20\n                /* \"#utility.yul\":2569:2575   */\n              dup7\n                /* \"#utility.yul\":2565:2582   */\n              add\n                /* \"#utility.yul\":2591:2733   */\n            tag_251:\n                /* \"#utility.yul\":2607:2613   */\n              dup5\n                /* \"#utility.yul\":2602:2605   */\n              dup2\n                /* \"#utility.yul\":2599:2614   */\n              lt\n                /* \"#utility.yul\":2591:2733   */\n              iszero\n              tag_253\n              jumpi\n                /* \"#utility.yul\":2673:2690   */\n              dup1\n              calldataload\n                /* \"#utility.yul\":2661:2691   */\n              dup4\n              mstore\n                /* \"#utility.yul\":2711:2723   */\n              swap2\n              dup4\n              add\n              swap2\n                /* \"#utility.yul\":2624:2636   */\n              dup4\n              add\n                /* \"#utility.yul\":2591:2733   */\n              jump(tag_251)\n            tag_253:\n              pop\n                /* \"#utility.yul\":2751:2756   */\n              swap7\n                /* \"#utility.yul\":2095:2762   */\n              swap6\n              pop\n              pop\n              pop\n              pop\n              pop\n              pop\n              jump\t// out\n                /* \"#utility.yul\":2767:3440   */\n            tag_216:\n                /* \"#utility.yul\":2821:2826   */\n              0x00\n                /* \"#utility.yul\":2874:2877   */\n              dup3\n                /* \"#utility.yul\":2867:2871   */\n              0x1f\n                /* \"#utility.yul\":2859:2865   */\n              dup4\n                /* \"#utility.yul\":2855:2872   */\n              add\n                /* \"#utility.yul\":2851:2878   */\n              slt\n                /* \"#utility.yul\":2841:2896   */\n              tag_255\n              jumpi\n                /* \"#utility.yul\":2892:2893   */\n              0x00\n                /* \"#utility.yul\":2889:2890   */\n              dup1\n                /* \"#utility.yul\":2882:2894   */\n              revert\n                /* \"#utility.yul\":2841:2896   */\n            tag_255:\n                /* \"#utility.yul\":2928:2934   */\n              dup2\n                /* \"#utility.yul\":2915:2935   */\n              calldataload\n                /* \"#utility.yul\":2954:2958   */\n              0x20\n                /* \"#utility.yul\":2978:3037   */\n              tag_256\n                /* \"#utility.yul\":2994:3036   */\n              tag_249\n                /* \"#utility.yul\":3033:3035   */\n              dup4\n                /* \"#utility.yul\":2994:3036   */\n              tag_214\n              jump\t// in\n                /* \"#utility.yul\":2978:3037   */\n            tag_256:\n                /* \"#utility.yul\":3059:3062   */\n              dup1\n                /* \"#utility.yul\":3083:3085   */\n              dup4\n                /* \"#utility.yul\":3078:3081   */\n              dup3\n                /* \"#utility.yul\":3071:3086   */\n              mstore\n                /* \"#utility.yul\":3111:3115   */\n              0x20\n                /* \"#utility.yul\":3106:3109   */\n              dup3\n                /* \"#utility.yul\":3102:3116   */\n              add\n                /* \"#utility.yul\":3095:3116   */\n              swap2\n              pop\n                /* \"#utility.yul\":3168:3172   */\n              0x20\n                /* \"#utility.yul\":3162:3164   */\n              dup5\n                /* \"#utility.yul\":3159:3160   */\n              0x05\n                /* \"#utility.yul\":3155:3165   */\n              shl\n                /* \"#utility.yul\":3147:3153   */\n              dup8\n                /* \"#utility.yul\":3143:3166   */\n              add\n                /* \"#utility.yul\":3139:3173   */\n              add\n                /* \"#utility.yul\":3125:3173   */\n              swap4\n              pop\n                /* \"#utility.yul\":3196:3199   */\n              dup7\n                /* \"#utility.yul\":3188:3194   */\n              dup5\n                /* \"#utility.yul\":3185:3200   */\n              gt\n                /* \"#utility.yul\":3182:3217   */\n              iszero\n              tag_258\n              jumpi\n                /* \"#utility.yul\":3213:3214   */\n              0x00\n                /* \"#utility.yul\":3210:3211   */\n              dup1\n                /* \"#utility.yul\":3203:3215   */\n              revert\n                /* \"#utility.yul\":3182:3217   */\n            tag_258:\n                /* \"#utility.yul\":3249:3253   */\n              0x20\n                /* \"#utility.yul\":3241:3247   */\n              dup7\n                /* \"#utility.yul\":3237:3254   */\n              add\n                /* \"#utility.yul\":3263:3411   */\n            tag_259:\n                /* \"#utility.yul\":3279:3285   */\n              dup5\n                /* \"#utility.yul\":3274:3277   */\n              dup2\n                /* \"#utility.yul\":3271:3286   */\n              lt\n                /* \"#utility.yul\":3263:3411   */\n              iszero\n              tag_253\n              jumpi\n                /* \"#utility.yul\":3345:3368   */\n              tag_262\n                /* \"#utility.yul\":3364:3367   */\n              dup2\n                /* \"#utility.yul\":3345:3368   */\n              tag_213\n              jump\t// in\n            tag_262:\n                /* \"#utility.yul\":3333:3369   */\n              dup4\n              mstore\n                /* \"#utility.yul\":3389:3401   */\n              swap2\n              dup4\n              add\n              swap2\n                /* \"#utility.yul\":3296:3308   */\n              dup4\n              add\n                /* \"#utility.yul\":3263:3411   */\n              jump(tag_259)\n                /* \"#utility.yul\":3445:4961   */\n            tag_42:\n                /* \"#utility.yul\":3607:3613   */\n              0x00\n                /* \"#utility.yul\":3615:3621   */\n              dup1\n                /* \"#utility.yul\":3623:3629   */\n              0x00\n                /* \"#utility.yul\":3676:3678   */\n              0x60\n                /* \"#utility.yul\":3664:3673   */\n              dup5\n                /* \"#utility.yul\":3655:3662   */\n              dup7\n                /* \"#utility.yul\":3651:3674   */\n              sub\n                /* \"#utility.yul\":3647:3679   */\n              slt\n                /* \"#utility.yul\":3644:3696   */\n              iszero\n              tag_264\n              jumpi\n                /* \"#utility.yul\":3692:3693   */\n              0x00\n                /* \"#utility.yul\":3689:3690   */\n              dup1\n                /* \"#utility.yul\":3682:3694   */\n              revert\n                /* \"#utility.yul\":3644:3696   */\n            tag_264:\n                /* \"#utility.yul\":3719:3742   */\n              dup4\n              calldataload\n              sub(shl(0x40, 0x01), 0x01)\n                /* \"#utility.yul\":3791:3805   */\n              dup1\n              dup3\n              gt\n                /* \"#utility.yul\":3788:3822   */\n              iszero\n              tag_265\n              jumpi\n                /* \"#utility.yul\":3818:3819   */\n              0x00\n                /* \"#utility.yul\":3815:3816   */\n              dup1\n                /* \"#utility.yul\":3808:3820   */\n              revert\n                /* \"#utility.yul\":3788:3822   */\n            tag_265:\n                /* \"#utility.yul\":3856:3862   */\n              dup2\n                /* \"#utility.yul\":3845:3854   */\n              dup7\n                /* \"#utility.yul\":3841:3863   */\n              add\n                /* \"#utility.yul\":3831:3863   */\n              swap2\n              pop\n                /* \"#utility.yul\":3901:3908   */\n              dup7\n                /* \"#utility.yul\":3894:3898   */\n              0x1f\n                /* \"#utility.yul\":3890:3892   */\n              dup4\n                /* \"#utility.yul\":3886:3899   */\n              add\n                /* \"#utility.yul\":3882:3909   */\n              slt\n                /* \"#utility.yul\":3872:3927   */\n              tag_266\n              jumpi\n                /* \"#utility.yul\":3923:3924   */\n              0x00\n                /* \"#utility.yul\":3920:3921   */\n              dup1\n                /* \"#utility.yul\":3913:3925   */\n              revert\n                /* \"#utility.yul\":3872:3927   */\n            tag_266:\n                /* \"#utility.yul\":3959:3961   */\n              dup2\n                /* \"#utility.yul\":3946:3962   */\n              calldataload\n                /* \"#utility.yul\":3981:3985   */\n              0x20\n                /* \"#utility.yul\":4005:4064   */\n              tag_267\n                /* \"#utility.yul\":4021:4063   */\n              tag_249\n                /* \"#utility.yul\":4060:4062   */\n              dup4\n                /* \"#utility.yul\":4021:4063   */\n              tag_214\n              jump\t// in\n                /* \"#utility.yul\":4005:4064   */\n            tag_267:\n                /* \"#utility.yul\":4098:4113   */\n              dup3\n              dup2\n              mstore\n                /* \"#utility.yul\":4180:4181   */\n              0x05\n                /* \"#utility.yul\":4176:4186   */\n              swap3\n              swap1\n              swap3\n              shl\n                /* \"#utility.yul\":4168:4187   */\n              dup5\n              add\n                /* \"#utility.yul\":4164:4192   */\n              dup2\n              add\n              swap2\n                /* \"#utility.yul\":4129:4141   */\n              dup2\n              dup2\n              add\n              swap1\n                /* \"#utility.yul\":4204:4223   */\n              dup11\n              dup5\n              gt\n                /* \"#utility.yul\":4201:4240   */\n              iszero\n              tag_269\n              jumpi\n                /* \"#utility.yul\":4236:4237   */\n              0x00\n                /* \"#utility.yul\":4233:4234   */\n              dup1\n                /* \"#utility.yul\":4226:4238   */\n              revert\n                /* \"#utility.yul\":4201:4240   */\n            tag_269:\n                /* \"#utility.yul\":4268:4270   */\n              dup3\n                /* \"#utility.yul\":4264:4266   */\n              dup7\n                /* \"#utility.yul\":4260:4271   */\n              add\n                /* \"#utility.yul\":4280:4563   */\n            tag_270:\n                /* \"#utility.yul\":4296:4302   */\n              dup5\n                /* \"#utility.yul\":4291:4294   */\n              dup2\n                /* \"#utility.yul\":4288:4303   */\n              lt\n                /* \"#utility.yul\":4280:4563   */\n              iszero\n              tag_272\n              jumpi\n                /* \"#utility.yul\":4382:4385   */\n              dup1\n                /* \"#utility.yul\":4369:4386   */\n              calldataload\n                /* \"#utility.yul\":4418:4420   */\n              dup7\n                /* \"#utility.yul\":4405:4416   */\n              dup2\n                /* \"#utility.yul\":4402:4421   */\n              gt\n                /* \"#utility.yul\":4399:4438   */\n              iszero\n              tag_273\n              jumpi\n                /* \"#utility.yul\":4434:4435   */\n              0x00\n                /* \"#utility.yul\":4431:4432   */\n              dup1\n                /* \"#utility.yul\":4424:4436   */\n              revert\n                /* \"#utility.yul\":4399:4438   */\n            tag_273:\n                /* \"#utility.yul\":4463:4520   */\n              tag_274\n                /* \"#utility.yul\":4512:4519   */\n              dup14\n                /* \"#utility.yul\":4507:4509   */\n              dup7\n                /* \"#utility.yul\":4493:4504   */\n              dup4\n                /* \"#utility.yul\":4489:4491   */\n              dup12\n                /* \"#utility.yul\":4485:4505   */\n              add\n                /* \"#utility.yul\":4481:4510   */\n              add\n                /* \"#utility.yul\":4463:4520   */\n              tag_212\n              jump\t// in\n            tag_274:\n                /* \"#utility.yul\":4451:4521   */\n              dup5\n              mstore\n              pop\n                /* \"#utility.yul\":4541:4553   */\n              swap2\n              dup4\n              add\n              swap2\n                /* \"#utility.yul\":4313:4325   */\n              dup4\n              add\n                /* \"#utility.yul\":4280:4563   */\n              jump(tag_270)\n            tag_272:\n              pop\n                /* \"#utility.yul\":4582:4587   */\n              swap8\n              pop\n              pop\n                /* \"#utility.yul\":4625:4643   */\n              dup8\n              add\n                /* \"#utility.yul\":4612:4644   */\n              calldataload\n              swap3\n              pop\n              pop\n                /* \"#utility.yul\":4656:4672   */\n              dup1\n              dup3\n              gt\n                /* \"#utility.yul\":4653:4689   */\n              iszero\n              tag_275\n              jumpi\n                /* \"#utility.yul\":4685:4686   */\n              0x00\n                /* \"#utility.yul\":4682:4683   */\n              dup1\n                /* \"#utility.yul\":4675:4687   */\n              revert\n                /* \"#utility.yul\":4653:4689   */\n            tag_275:\n                /* \"#utility.yul\":4708:4771   */\n              tag_276\n                /* \"#utility.yul\":4763:4770   */\n              dup8\n                /* \"#utility.yul\":4752:4760   */\n              dup4\n                /* \"#utility.yul\":4741:4750   */\n              dup9\n                /* \"#utility.yul\":4737:4761   */\n              add\n                /* \"#utility.yul\":4708:4771   */\n              tag_215\n              jump\t// in\n            tag_276:\n                /* \"#utility.yul\":4698:4771   */\n              swap4\n              pop\n                /* \"#utility.yul\":4824:4826   */\n              0x40\n                /* \"#utility.yul\":4813:4822   */\n              dup7\n                /* \"#utility.yul\":4809:4827   */\n              add\n                /* \"#utility.yul\":4796:4828   */\n              calldataload\n                /* \"#utility.yul\":4780:4828   */\n              swap2\n              pop\n                /* \"#utility.yul\":4853:4855   */\n              dup1\n                /* \"#utility.yul\":4843:4851   */\n              dup3\n                /* \"#utility.yul\":4840:4856   */\n              gt\n                /* \"#utility.yul\":4837:4873   */\n              iszero\n              tag_277\n              jumpi\n                /* \"#utility.yul\":4869:4870   */\n              0x00\n                /* \"#utility.yul\":4866:4867   */\n              dup1\n                /* \"#utility.yul\":4859:4871   */\n              revert\n                /* \"#utility.yul\":4837:4873   */\n            tag_277:\n              pop\n                /* \"#utility.yul\":4892:4955   */\n              tag_278\n                /* \"#utility.yul\":4947:4954   */\n              dup7\n                /* \"#utility.yul\":4936:4944   */\n              dup3\n                /* \"#utility.yul\":4925:4934   */\n              dup8\n                /* \"#utility.yul\":4921:4945   */\n              add\n                /* \"#utility.yul\":4892:4955   */\n              tag_216\n              jump\t// in\n            tag_278:\n                /* \"#utility.yul\":4882:4955   */\n              swap2\n              pop\n              pop\n                /* \"#utility.yul\":3445:4961   */\n              swap3\n              pop\n              swap3\n              pop\n              swap3\n              jump\t// out\n                /* \"#utility.yul\":4966:5389   */\n            tag_217:\n                /* \"#utility.yul\":5008:5011   */\n              0x00\n                /* \"#utility.yul\":5046:5051   */\n              dup2\n                /* \"#utility.yul\":5040:5052   */\n              mload\n                /* \"#utility.yul\":5073:5079   */\n              dup1\n                /* \"#utility.yul\":5068:5071   */\n              dup5\n                /* \"#utility.yul\":5061:5080   */\n              mstore\n                /* \"#utility.yul\":5098:5099   */\n              0x00\n                /* \"#utility.yul\":5108:5270   */\n            tag_280:\n                /* \"#utility.yul\":5122:5128   */\n              dup2\n                /* \"#utility.yul\":5119:5120   */\n              dup2\n                /* \"#utility.yul\":5116:5129   */\n              lt\n                /* \"#utility.yul\":5108:5270   */\n              iszero\n              tag_282\n              jumpi\n                /* \"#utility.yul\":5184:5188   */\n              0x20\n                /* \"#utility.yul\":5240:5253   */\n              dup2\n              dup6\n              add\n                /* \"#utility.yul\":5236:5258   */\n              dup2\n              add\n                /* \"#utility.yul\":5230:5259   */\n              mload\n                /* \"#utility.yul\":5212:5223   */\n              dup7\n              dup4\n              add\n                /* \"#utility.yul\":5208:5228   */\n              dup3\n              add\n                /* \"#utility.yul\":5201:5260   */\n              mstore\n                /* \"#utility.yul\":5137:5149   */\n              add\n                /* \"#utility.yul\":5108:5270   */\n              jump(tag_280)\n            tag_282:\n                /* \"#utility.yul\":5112:5115   */\n              pop\n                /* \"#utility.yul\":5315:5316   */\n              0x00\n                /* \"#utility.yul\":5308:5312   */\n              0x20\n                /* \"#utility.yul\":5299:5305   */\n              dup3\n                /* \"#utility.yul\":5294:5297   */\n              dup7\n                /* \"#utility.yul\":5290:5306   */\n              add\n                /* \"#utility.yul\":5286:5313   */\n              add\n                /* \"#utility.yul\":5279:5317   */\n              mstore\n                /* \"#utility.yul\":5378:5382   */\n              0x20\n                /* \"#utility.yul\":5371:5373   */\n              0x1f\n                /* \"#utility.yul\":5367:5374   */\n              not\n                /* \"#utility.yul\":5362:5364   */\n              0x1f\n                /* \"#utility.yul\":5354:5360   */\n              dup4\n                /* \"#utility.yul\":5350:5365   */\n              add\n                /* \"#utility.yul\":5346:5375   */\n              and\n                /* \"#utility.yul\":5341:5344   */\n              dup6\n                /* \"#utility.yul\":5337:5376   */\n              add\n                /* \"#utility.yul\":5333:5383   */\n              add\n                /* \"#utility.yul\":5326:5383   */\n              swap2\n              pop\n              pop\n                /* \"#utility.yul\":4966:5389   */\n              swap3\n              swap2\n              pop\n              pop\n              jump\t// out\n                /* \"#utility.yul\":5394:6071   */\n            tag_48:\n                /* \"#utility.yul\":5693:5718   */\n              dup8\n              dup2\n              mstore\n              sub(shl(0xa0, 0x01), 0x01)\n                /* \"#utility.yul\":5754:5786   */\n              dup8\n              and\n                /* \"#utility.yul\":5749:5751   */\n              0x20\n                /* \"#utility.yul\":5734:5752   */\n              dup3\n              add\n                /* \"#utility.yul\":5727:5787   */\n              mstore\n                /* \"#utility.yul\":5823:5826   */\n              0xe0\n                /* \"#utility.yul\":5818:5820   */\n              0x40\n                /* \"#utility.yul\":5803:5821   */\n              dup3\n              add\n                /* \"#utility.yul\":5796:5827   */\n              dup2\n              swap1\n              mstore\n              0x00\n              swap1\n                /* \"#utility.yul\":5844:5890   */\n              tag_284\n              swap1\n                /* \"#utility.yul\":5870:5889   */\n              dup4\n              add\n                /* \"#utility.yul\":5862:5868   */\n              dup9\n                /* \"#utility.yul\":5844:5890   */\n              tag_217\n              jump\t// in\n            tag_284:\n                /* \"#utility.yul\":5836:5890   */\n              swap1\n              pop\n                /* \"#utility.yul\":5926:5932   */\n              dup6\n                /* \"#utility.yul\":5921:5923   */\n              0x60\n                /* \"#utility.yul\":5910:5919   */\n              dup4\n                /* \"#utility.yul\":5906:5924   */\n              add\n                /* \"#utility.yul\":5899:5933   */\n              mstore\n                /* \"#utility.yul\":5970:5976   */\n              dup5\n                /* \"#utility.yul\":5964:5967   */\n              0x80\n                /* \"#utility.yul\":5953:5962   */\n              dup4\n                /* \"#utility.yul\":5949:5968   */\n              add\n                /* \"#utility.yul\":5942:5977   */\n              mstore\n                /* \"#utility.yul\":6014:6020   */\n              dup4\n                /* \"#utility.yul\":6008:6011   */\n              0xa0\n                /* \"#utility.yul\":5997:6006   */\n              dup4\n                /* \"#utility.yul\":5993:6012   */\n              add\n                /* \"#utility.yul\":5986:6021   */\n              mstore\n                /* \"#utility.yul\":6058:6064   */\n              dup3\n                /* \"#utility.yul\":6052:6055   */\n              0xc0\n                /* \"#utility.yul\":6041:6050   */\n              dup4\n                /* \"#utility.yul\":6037:6056   */\n              add\n                /* \"#utility.yul\":6030:6065   */\n              mstore\n                /* \"#utility.yul\":5394:6071   */\n              swap9\n              swap8\n              pop\n              pop\n              pop\n              pop\n              pop\n              pop\n              pop\n              pop\n              jump\t// out\n                /* \"#utility.yul\":6512:6732   */\n            tag_71:\n                /* \"#utility.yul\":6661:6663   */\n              0x20\n                /* \"#utility.yul\":6650:6659   */\n              dup2\n                /* \"#utility.yul\":6643:6664   */\n              mstore\n                /* \"#utility.yul\":6624:6628   */\n              0x00\n                /* \"#utility.yul\":6681:6726   */\n              tag_242\n                /* \"#utility.yul\":6722:6724   */\n              0x20\n                /* \"#utility.yul\":6711:6720   */\n              dup4\n                /* \"#utility.yul\":6707:6725   */\n              add\n                /* \"#utility.yul\":6699:6705   */\n              dup5\n                /* \"#utility.yul\":6681:6726   */\n              tag_217\n              jump\t// in\n                /* \"#utility.yul\":6737:6917   */\n            tag_78:\n                /* \"#utility.yul\":6796:6802   */\n              0x00\n                /* \"#utility.yul\":6849:6851   */\n              0x20\n                /* \"#utility.yul\":6837:6846   */\n              dup3\n                /* \"#utility.yul\":6828:6835   */\n              dup5\n                /* \"#utility.yul\":6824:6847   */\n              sub\n                /* \"#utility.yul\":6820:6852   */\n              slt\n                /* \"#utility.yul\":6817:6869   */\n              iszero\n              tag_290\n              jumpi\n                /* \"#utility.yul\":6865:6866   */\n              0x00\n                /* \"#utility.yul\":6862:6863   */\n              dup1\n                /* \"#utility.yul\":6855:6867   */\n              revert\n                /* \"#utility.yul\":6817:6869   */\n            tag_290:\n              pop\n                /* \"#utility.yul\":6888:6911   */\n              calldataload\n              swap2\n                /* \"#utility.yul\":6737:6917   */\n              swap1\n              pop\n              jump\t// out\n                /* \"#utility.yul\":6922:7386   */\n            tag_83:\n                /* \"#utility.yul\":7009:7015   */\n              0x00\n                /* \"#utility.yul\":7017:7023   */\n              dup1\n                /* \"#utility.yul\":7025:7031   */\n              0x00\n                /* \"#utility.yul\":7078:7080   */\n              0x60\n                /* \"#utility.yul\":7066:7075   */\n              dup5\n                /* \"#utility.yul\":7057:7064   */\n              dup7\n                /* \"#utility.yul\":7053:7076   */\n              sub\n                /* \"#utility.yul\":7049:7081   */\n              slt\n                /* \"#utility.yul\":7046:7098   */\n              iszero\n              tag_292\n              jumpi\n                /* \"#utility.yul\":7094:7095   */\n              0x00\n                /* \"#utility.yul\":7091:7092   */\n              dup1\n                /* \"#utility.yul\":7084:7096   */\n              revert\n                /* \"#utility.yul\":7046:7098   */\n            tag_292:\n                /* \"#utility.yul\":7121:7144   */\n              dup4\n              calldataload\n              sub(shl(0x40, 0x01), 0x01)\n                /* \"#utility.yul\":7156:7186   */\n              dup2\n              gt\n                /* \"#utility.yul\":7153:7203   */\n              iszero\n              tag_293\n              jumpi\n                /* \"#utility.yul\":7199:7200   */\n              0x00\n                /* \"#utility.yul\":7196:7197   */\n              dup1\n                /* \"#utility.yul\":7189:7201   */\n              revert\n                /* \"#utility.yul\":7153:7203   */\n            tag_293:\n                /* \"#utility.yul\":7222:7272   */\n              tag_294\n                /* \"#utility.yul\":7264:7271   */\n              dup7\n                /* \"#utility.yul\":7255:7261   */\n              dup3\n                /* \"#utility.yul\":7244:7253   */\n              dup8\n                /* \"#utility.yul\":7240:7262   */\n              add\n                /* \"#utility.yul\":7222:7272   */\n              tag_212\n              jump\t// in\n            tag_294:\n                /* \"#utility.yul\":7212:7272   */\n              swap4\n              pop\n              pop\n                /* \"#utility.yul\":7319:7321   */\n              0x20\n                /* \"#utility.yul\":7308:7317   */\n              dup5\n                /* \"#utility.yul\":7304:7322   */\n              add\n                /* \"#utility.yul\":7291:7323   */\n              calldataload\n                /* \"#utility.yul\":7281:7323   */\n              swap2\n              pop\n                /* \"#utility.yul\":7342:7380   */\n              tag_295\n                /* \"#utility.yul\":7376:7378   */\n              0x40\n                /* \"#utility.yul\":7365:7374   */\n              dup6\n                /* \"#utility.yul\":7361:7379   */\n              add\n                /* \"#utility.yul\":7342:7380   */\n              tag_213\n              jump\t// in\n            tag_295:\n                /* \"#utility.yul\":7332:7380   */\n              swap1\n              pop\n                /* \"#utility.yul\":6922:7386   */\n              swap3\n              pop\n              swap3\n              pop\n              swap3\n              jump\t// out\n                /* \"#utility.yul\":7391:8196   */\n            tag_92:\n              sub(shl(0xa0, 0x01), 0x01)\n                /* \"#utility.yul\":7762:7794   */\n              dup10\n              and\n                /* \"#utility.yul\":7744:7795   */\n              dup2\n              mstore\n                /* \"#utility.yul\":7732:7735   */\n              0x0100\n                /* \"#utility.yul\":7826:7828   */\n              0x20\n                /* \"#utility.yul\":7811:7829   */\n              dup3\n              add\n                /* \"#utility.yul\":7804:7834   */\n              dup2\n              swap1\n              mstore\n                /* \"#utility.yul\":7703:7707   */\n              0x00\n              swap1\n                /* \"#utility.yul\":7851:7896   */\n              tag_297\n                /* \"#utility.yul\":7877:7895   */\n              dup4\n              dup3\n              add\n                /* \"#utility.yul\":7869:7875   */\n              dup12\n                /* \"#utility.yul\":7851:7896   */\n              tag_217\n              jump\t// in\n            tag_297:\n                /* \"#utility.yul\":7927:7929   */\n              0x40\n                /* \"#utility.yul\":7912:7930   */\n              dup5\n              add\n                /* \"#utility.yul\":7905:7939   */\n              swap10\n              swap1\n              swap10\n              mstore\n              pop\n              pop\n                /* \"#utility.yul\":7982:7996   */\n              swap5\n              iszero\n                /* \"#utility.yul\":7975:7997   */\n              iszero\n                /* \"#utility.yul\":7970:7972   */\n              0x60\n                /* \"#utility.yul\":7955:7973   */\n              dup7\n              add\n                /* \"#utility.yul\":7948:7998   */\n              mstore\n                /* \"#utility.yul\":8029:8032   */\n              0x80\n                /* \"#utility.yul\":8014:8033   */\n              dup6\n              add\n                /* \"#utility.yul\":8007:8042   */\n              swap4\n              swap1\n              swap4\n              mstore\n                /* \"#utility.yul\":8073:8076   */\n              0xa0\n                /* \"#utility.yul\":8058:8077   */\n              dup5\n              add\n                /* \"#utility.yul\":8051:8086   */\n              swap2\n              swap1\n              swap2\n              mstore\n                /* \"#utility.yul\":8130:8144   */\n              iszero\n                /* \"#utility.yul\":8123:8145   */\n              iszero\n                /* \"#utility.yul\":8117:8120   */\n              0xc0\n                /* \"#utility.yul\":8102:8121   */\n              dup4\n              add\n                /* \"#utility.yul\":8095:8146   */\n              mstore\n                /* \"#utility.yul\":8177:8180   */\n              0xe0\n                /* \"#utility.yul\":8162:8181   */\n              swap1\n              swap2\n              add\n                /* \"#utility.yul\":8155:8190   */\n              mstore\n                /* \"#utility.yul\":7843:7896   */\n              swap3\n                /* \"#utility.yul\":7391:8196   */\n              swap2\n              pop\n              pop\n              jump\t// out\n                /* \"#utility.yul\":8201:8328   */\n            tag_101:\n                /* \"#utility.yul\":8262:8272   */\n              0x4e487b71\n                /* \"#utility.yul\":8257:8260   */\n              0xe0\n                /* \"#utility.yul\":8253:8273   */\n              shl\n                /* \"#utility.yul\":8250:8251   */\n              0x00\n                /* \"#utility.yul\":8243:8274   */\n              mstore\n                /* \"#utility.yul\":8293:8297   */\n              0x32\n                /* \"#utility.yul\":8290:8291   */\n              0x04\n                /* \"#utility.yul\":8283:8298   */\n              mstore\n                /* \"#utility.yul\":8317:8321   */\n              0x24\n                /* \"#utility.yul\":8314:8315   */\n              0x00\n                /* \"#utility.yul\":8307:8322   */\n              revert\n                /* \"#utility.yul\":8333:8650   */\n            tag_107:\n              sub(shl(0xa0, 0x01), 0x01)\n                /* \"#utility.yul\":8510:8542   */\n              dup4\n              and\n                /* \"#utility.yul\":8492:8543   */\n              dup2\n              mstore\n                /* \"#utility.yul\":8579:8581   */\n              0x40\n                /* \"#utility.yul\":8574:8576   */\n              0x20\n                /* \"#utility.yul\":8559:8577   */\n              dup3\n              add\n                /* \"#utility.yul\":8552:8582   */\n              dup2\n              swap1\n              mstore\n              0x00\n              swap1\n                /* \"#utility.yul\":8599:8644   */\n              tag_300\n              swap1\n                /* \"#utility.yul\":8625:8643   */\n              dup4\n              add\n                /* \"#utility.yul\":8617:8623   */\n              dup5\n                /* \"#utility.yul\":8599:8644   */\n              tag_217\n              jump\t// in\n            tag_300:\n                /* \"#utility.yul\":8591:8644   */\n              swap5\n                /* \"#utility.yul\":8333:8650   */\n              swap4\n              pop\n              pop\n              pop\n              pop\n              jump\t// out\n                /* \"#utility.yul\":8655:9035   */\n            tag_128:\n                /* \"#utility.yul\":8734:8735   */\n              0x01\n                /* \"#utility.yul\":8730:8742   */\n              dup2\n              dup2\n              shr\n              swap1\n                /* \"#utility.yul\":8777:8789   */\n              dup3\n              and\n              dup1\n                /* \"#utility.yul\":8798:8859   */\n              tag_302\n              jumpi\n                /* \"#utility.yul\":8852:8856   */\n              0x7f\n                /* \"#utility.yul\":8844:8850   */\n              dup3\n                /* \"#utility.yul\":8840:8857   */\n              and\n                /* \"#utility.yul\":8830:8857   */\n              swap2\n              pop\n                /* \"#utility.yul\":8798:8859   */\n            tag_302:\n                /* \"#utility.yul\":8905:8907   */\n              0x20\n                /* \"#utility.yul\":8897:8903   */\n              dup3\n                /* \"#utility.yul\":8894:8908   */\n              lt\n                /* \"#utility.yul\":8874:8892   */\n              dup2\n                /* \"#utility.yul\":8871:8909   */\n              sub\n                /* \"#utility.yul\":8868:9029   */\n              tag_303\n              jumpi\n                /* \"#utility.yul\":8951:8961   */\n              0x4e487b71\n                /* \"#utility.yul\":8946:8949   */\n              0xe0\n                /* \"#utility.yul\":8942:8962   */\n              shl\n                /* \"#utility.yul\":8939:8940   */\n              0x00\n                /* \"#utility.yul\":8932:8963   */\n              mstore\n                /* \"#utility.yul\":8986:8990   */\n              0x22\n                /* \"#utility.yul\":8983:8984   */\n              0x04\n                /* \"#utility.yul\":8976:8991   */\n              mstore\n                /* \"#utility.yul\":9014:9018   */\n              0x24\n                /* \"#utility.yul\":9011:9012   */\n              0x00\n                /* \"#utility.yul\":9004:9019   */\n              revert\n                /* \"#utility.yul\":8868:9029   */\n            tag_303:\n              pop\n                /* \"#utility.yul\":8655:9035   */\n              swap2\n              swap1\n              pop\n              jump\t// out\n                /* \"#utility.yul\":9040:9167   */\n            tag_218:\n                /* \"#utility.yul\":9101:9111   */\n              0x4e487b71\n                /* \"#utility.yul\":9096:9099   */\n              0xe0\n                /* \"#utility.yul\":9092:9112   */\n              shl\n                /* \"#utility.yul\":9089:9090   */\n              0x00\n                /* \"#utility.yul\":9082:9113   */\n              mstore\n                /* \"#utility.yul\":9132:9136   */\n              0x11\n                /* \"#utility.yul\":9129:9130   */\n              0x04\n                /* \"#utility.yul\":9122:9137   */\n              mstore\n                /* \"#utility.yul\":9156:9160   */\n              0x24\n                /* \"#utility.yul\":9153:9154   */\n              0x00\n                /* \"#utility.yul\":9146:9161   */\n              revert\n                /* \"#utility.yul\":9172:9307   */\n            tag_148:\n                /* \"#utility.yul\":9211:9214   */\n              0x00\n                /* \"#utility.yul\":9232:9249   */\n              0x01\n              dup3\n              add\n                /* \"#utility.yul\":9229:9272   */\n              tag_307\n              jumpi\n                /* \"#utility.yul\":9252:9270   */\n              tag_307\n              tag_218\n              jump\t// in\n            tag_307:\n              pop\n                /* \"#utility.yul\":9299:9300   */\n              0x01\n                /* \"#utility.yul\":9288:9301   */\n              add\n              swap1\n                /* \"#utility.yul\":9172:9307   */\n              jump\t// out\n                /* \"#utility.yul\":9312:9529   */\n            tag_150:\n                /* \"#utility.yul\":9352:9353   */\n              0x00\n                /* \"#utility.yul\":9378:9379   */\n              dup3\n                /* \"#utility.yul\":9368:9500   */\n              tag_309\n              jumpi\n                /* \"#utility.yul\":9422:9432   */\n              0x4e487b71\n                /* \"#utility.yul\":9417:9420   */\n              0xe0\n                /* \"#utility.yul\":9413:9433   */\n              shl\n                /* \"#utility.yul\":9410:9411   */\n              0x00\n                /* \"#utility.yul\":9403:9434   */\n              mstore\n                /* \"#utility.yul\":9457:9461   */\n              0x12\n                /* \"#utility.yul\":9454:9455   */\n              0x04\n                /* \"#utility.yul\":9447:9462   */\n              mstore\n                /* \"#utility.yul\":9485:9489   */\n              0x24\n                /* \"#utility.yul\":9482:9483   */\n              0x00\n                /* \"#utility.yul\":9475:9490   */\n              revert\n                /* \"#utility.yul\":9368:9500   */\n            tag_309:\n              pop\n                /* \"#utility.yul\":9514:9523   */\n              div\n              swap1\n                /* \"#utility.yul\":9312:9529   */\n              jump\t// out\n                /* \"#utility.yul\":9534:9662   */\n            tag_190:\n                /* \"#utility.yul\":9601:9610   */\n              dup2\n              dup2\n              sub\n                /* \"#utility.yul\":9622:9633   */\n              dup2\n              dup2\n              gt\n                /* \"#utility.yul\":9619:9656   */\n              iszero\n              tag_312\n              jumpi\n                /* \"#utility.yul\":9636:9654   */\n              tag_312\n              tag_218\n              jump\t// in\n            tag_312:\n                /* \"#utility.yul\":9534:9662   */\n              swap3\n              swap2\n              pop\n              pop\n              jump\t// out\n                /* \"#utility.yul\":9793:10311   */\n            tag_220:\n                /* \"#utility.yul\":9895:9897   */\n              0x1f\n                /* \"#utility.yul\":9890:9893   */\n              dup3\n                /* \"#utility.yul\":9887:9898   */\n              gt\n                /* \"#utility.yul\":9884:10305   */\n              iszero\n              tag_156\n              jumpi\n                /* \"#utility.yul\":9931:9936   */\n              dup1\n                /* \"#utility.yul\":9928:9929   */\n              0x00\n                /* \"#utility.yul\":9921:9937   */\n              mstore\n                /* \"#utility.yul\":9975:9979   */\n              0x20\n                /* \"#utility.yul\":9972:9973   */\n              0x00\n                /* \"#utility.yul\":9962:9980   */\n              keccak256\n                /* \"#utility.yul\":10045:10047   */\n              0x1f\n                /* \"#utility.yul\":10033:10043   */\n              dup5\n                /* \"#utility.yul\":10029:10048   */\n              add\n                /* \"#utility.yul\":10026:10027   */\n              0x05\n                /* \"#utility.yul\":10022:10049   */\n              shr\n                /* \"#utility.yul\":10016:10020   */\n              dup2\n                /* \"#utility.yul\":10012:10050   */\n              add\n                /* \"#utility.yul\":10081:10085   */\n              0x20\n                /* \"#utility.yul\":10069:10079   */\n              dup6\n                /* \"#utility.yul\":10066:10086   */\n              lt\n                /* \"#utility.yul\":10063:10110   */\n              iszero\n              tag_316\n              jumpi\n              pop\n                /* \"#utility.yul\":10104:10108   */\n              dup1\n                /* \"#utility.yul\":10063:10110   */\n            tag_316:\n                /* \"#utility.yul\":10159:10161   */\n              0x1f\n                /* \"#utility.yul\":10154:10157   */\n              dup5\n                /* \"#utility.yul\":10150:10162   */\n              add\n                /* \"#utility.yul\":10147:10148   */\n              0x05\n                /* \"#utility.yul\":10143:10163   */\n              shr\n                /* \"#utility.yul\":10137:10141   */\n              dup3\n                /* \"#utility.yul\":10133:10164   */\n              add\n                /* \"#utility.yul\":10123:10164   */\n              swap2\n              pop\n                /* \"#utility.yul\":10214:10295   */\n            tag_317:\n                /* \"#utility.yul\":10232:10234   */\n              dup2\n                /* \"#utility.yul\":10225:10230   */\n              dup2\n                /* \"#utility.yul\":10222:10235   */\n              lt\n                /* \"#utility.yul\":10214:10295   */\n              iszero\n              tag_319\n              jumpi\n                /* \"#utility.yul\":10291:10292   */\n              0x00\n                /* \"#utility.yul\":10277:10293   */\n              dup2\n              sstore\n                /* \"#utility.yul\":10258:10259   */\n              0x01\n                /* \"#utility.yul\":10247:10260   */\n              add\n                /* \"#utility.yul\":10214:10295   */\n              jump(tag_317)\n            tag_319:\n                /* \"#utility.yul\":10218:10221   */\n              pop\n              pop\n                /* \"#utility.yul\":9793:10311   */\n              pop\n              pop\n              pop\n              jump\t// out\n                /* \"#utility.yul\":10487:11832   */\n            tag_209:\n                /* \"#utility.yul\":10607:10617   */\n              dup2\n              mload\n              sub(shl(0x40, 0x01), 0x01)\n                /* \"#utility.yul\":10629:10659   */\n              dup2\n              gt\n                /* \"#utility.yul\":10626:10682   */\n              iszero\n              tag_323\n              jumpi\n                /* \"#utility.yul\":10662:10680   */\n              tag_323\n              tag_210\n              jump\t// in\n            tag_323:\n                /* \"#utility.yul\":10691:10788   */\n              tag_324\n                /* \"#utility.yul\":10781:10787   */\n              dup2\n                /* \"#utility.yul\":10741:10779   */\n              tag_325\n                /* \"#utility.yul\":10773:10777   */\n              dup5\n                /* \"#utility.yul\":10767:10778   */\n              sload\n                /* \"#utility.yul\":10741:10779   */\n              tag_128\n              jump\t// in\n            tag_325:\n                /* \"#utility.yul\":10735:10739   */\n              dup5\n                /* \"#utility.yul\":10691:10788   */\n              tag_220\n              jump\t// in\n            tag_324:\n                /* \"#utility.yul\":10843:10847   */\n              0x20\n              dup1\n                /* \"#utility.yul\":10900:10902   */\n              0x1f\n                /* \"#utility.yul\":10889:10903   */\n              dup4\n              gt\n                /* \"#utility.yul\":10917:10918   */\n              0x01\n                /* \"#utility.yul\":10912:11575   */\n              dup2\n              eq\n              tag_327\n              jumpi\n                /* \"#utility.yul\":11619:11620   */\n              0x00\n                /* \"#utility.yul\":11636:11642   */\n              dup5\n                /* \"#utility.yul\":11633:11722   */\n              iszero\n              tag_328\n              jumpi\n              pop\n                /* \"#utility.yul\":11688:11707   */\n              dup6\n              dup4\n              add\n                /* \"#utility.yul\":11682:11708   */\n              mload\n                /* \"#utility.yul\":11633:11722   */\n            tag_328:\n              not(0x00)\n                /* \"#utility.yul\":10444:10445   */\n              0x03\n                /* \"#utility.yul\":10440:10451   */\n              dup7\n              swap1\n              shl\n                /* \"#utility.yul\":10436:10460   */\n              shr\n                /* \"#utility.yul\":10432:10461   */\n              not\n                /* \"#utility.yul\":10422:10462   */\n              and\n                /* \"#utility.yul\":10468:10469   */\n              0x01\n                /* \"#utility.yul\":10464:10475   */\n              dup6\n              swap1\n              shl\n                /* \"#utility.yul\":10419:10476   */\n              or\n                /* \"#utility.yul\":11735:11816   */\n              dup6\n              sstore\n                /* \"#utility.yul\":10882:11826   */\n              jump(tag_326)\n                /* \"#utility.yul\":10912:11575   */\n            tag_327:\n                /* \"#utility.yul\":9740:9741   */\n              0x00\n                /* \"#utility.yul\":9733:9747   */\n              dup6\n              dup2\n              mstore\n                /* \"#utility.yul\":9777:9781   */\n              0x20\n                /* \"#utility.yul\":9764:9782   */\n              dup2\n              keccak256\n              not(0x1f)\n                /* \"#utility.yul\":10948:10968   */\n              dup7\n              and\n              swap2\n                /* \"#utility.yul\":11066:11302   */\n            tag_331:\n                /* \"#utility.yul\":11080:11087   */\n              dup3\n                /* \"#utility.yul\":11077:11078   */\n              dup2\n                /* \"#utility.yul\":11074:11088   */\n              lt\n                /* \"#utility.yul\":11066:11302   */\n              iszero\n              tag_333\n              jumpi\n                /* \"#utility.yul\":11169:11188   */\n              dup9\n              dup7\n              add\n                /* \"#utility.yul\":11163:11189   */\n              mload\n                /* \"#utility.yul\":11148:11190   */\n              dup3\n              sstore\n                /* \"#utility.yul\":11261:11288   */\n              swap5\n              dup5\n              add\n              swap5\n                /* \"#utility.yul\":11229:11230   */\n              0x01\n                /* \"#utility.yul\":11217:11231   */\n              swap1\n              swap2\n              add\n              swap1\n                /* \"#utility.yul\":11096:11115   */\n              dup5\n              add\n                /* \"#utility.yul\":11066:11302   */\n              jump(tag_331)\n            tag_333:\n                /* \"#utility.yul\":11070:11073   */\n              pop\n                /* \"#utility.yul\":11330:11336   */\n              dup6\n                /* \"#utility.yul\":11321:11328   */\n              dup3\n                /* \"#utility.yul\":11318:11337   */\n              lt\n                /* \"#utility.yul\":11315:11516   */\n              iszero\n              tag_334\n              jumpi\n                /* \"#utility.yul\":11391:11410   */\n              dup8\n              dup6\n              add\n                /* \"#utility.yul\":11385:11411   */\n              mload\n              not(0x00)\n                /* \"#utility.yul\":11474:11475   */\n              0x03\n                /* \"#utility.yul\":11470:11484   */\n              dup9\n              swap1\n              shl\n                /* \"#utility.yul\":11486:11489   */\n              0xf8\n                /* \"#utility.yul\":11466:11490   */\n              and\n                /* \"#utility.yul\":11462:11499   */\n              shr\n                /* \"#utility.yul\":11458:11500   */\n              not\n                /* \"#utility.yul\":11443:11501   */\n              and\n                /* \"#utility.yul\":11428:11502   */\n              dup2\n              sstore\n                /* \"#utility.yul\":11315:11516   */\n            tag_334:\n              pop\n              pop\n                /* \"#utility.yul\":11562:11563   */\n              0x01\n                /* \"#utility.yul\":11553:11559   */\n              dup5\n                /* \"#utility.yul\":11550:11551   */\n              0x01\n                /* \"#utility.yul\":11546:11560   */\n              shl\n                /* \"#utility.yul\":11542:11564   */\n              add\n                /* \"#utility.yul\":11536:11540   */\n              dup6\n                /* \"#utility.yul\":11529:11565   */\n              sstore\n                /* \"#utility.yul\":10882:11826   */\n            tag_326:\n              pop\n              pop\n              pop\n              pop\n                /* \"#utility.yul\":10487:11832   */\n              pop\n              pop\n              jump\t// out\n\n            auxdata: 0xa2646970667358221220b57947e8572c22b0e368753ccbfe09b1b3a0c30f5e21e99b42c4a3ce01024d3564736f6c63430008170033\n        }\n\n        sub_1: assembly {\n                /* \"ProjectNFT.sol\":339:1680  contract ProjectNFT is ERC721, ERC721Enumerable, ERC721URIStorage, Ownable {... */\n              mstore(0x40, 0x80)\n                /* \"ProjectNFT.sol\":455:606  constructor(... */\n              callvalue\n              dup1\n              iszero\n              tag_1\n              jumpi\n              0x00\n              dup1\n              revert\n            tag_1:\n              pop\n              mload(0x40)\n              sub(codesize, bytecodeSize)\n              dup1\n              bytecodeSize\n              dup4\n              codecopy\n              dup2\n              add\n              0x40\n              dup2\n              swap1\n              mstore\n              tag_2\n              swap2\n              tag_3\n              jump\t// in\n            tag_2:\n                /* \"ProjectNFT.sol\":590:602  initialOwner */\n              dup3\n                /* \"ProjectNFT.sol\":568:572  name */\n              dup3\n                /* \"ProjectNFT.sol\":574:580  symbol */\n              dup3\n                /* \"@openzeppelin/contracts/token/ERC721/ERC721.sol\":1447:1452  _name */\n              0x00\n                /* \"@openzeppelin/contracts/token/ERC721/ERC721.sol\":1447:1460  _name = name_ */\n              tag_8\n                /* \"ProjectNFT.sol\":568:572  name */\n              dup4\n                /* \"@openzeppelin/contracts/token/ERC721/ERC721.sol\":1447:1452  _name */\n              dup3\n                /* \"@openzeppelin/contracts/token/ERC721/ERC721.sol\":1447:1460  _name = name_ */\n              tag_9\n              jump\t// in\n            tag_8:\n              pop\n                /* \"@openzeppelin/contracts/token/ERC721/ERC721.sol\":1470:1477  _symbol */\n              0x01\n                /* \"@openzeppelin/contracts/token/ERC721/ERC721.sol\":1470:1487  _symbol = symbol_ */\n              tag_10\n                /* \"@openzeppelin/contracts/token/ERC721/ERC721.sol\":1480:1487  symbol_ */\n              dup3\n                /* \"@openzeppelin/contracts/token/ERC721/ERC721.sol\":1470:1477  _symbol */\n              dup3\n                /* \"@openzeppelin/contracts/token/ERC721/ERC721.sol\":1470:1487  _symbol = symbol_ */\n              tag_9\n              jump\t// in\n            tag_10:\n              pop\n              pop\n              pop\n              sub(shl(0xa0, 0x01), 0x01)\n                /* \"@openzeppelin/contracts/access/Ownable.sol\":1273:1299  initialOwner == address(0) */\n              dup2\n              and\n                /* \"@openzeppelin/contracts/access/Ownable.sol\":1269:1364  if (initialOwner == address(0)) {... */\n              tag_12\n              jumpi\n                /* \"@openzeppelin/contracts/access/Ownable.sol\":1322:1353  OwnableInvalidOwner(address(0)) */\n              mload(0x40)\n              shl(0xe0, 0x1e4fbdf7)\n              dup2\n              mstore\n                /* \"@openzeppelin/contracts/access/Ownable.sol\":1350:1351  0 */\n              0x00\n                /* \"@openzeppelin/contracts/access/Ownable.sol\":1322:1353  OwnableInvalidOwner(address(0)) */\n              0x04\n              dup3\n              add\n                /* \"#utility.yul\":4430:4481   */\n              mstore\n                /* \"#utility.yul\":4403:4421   */\n              0x24\n              add\n                /* \"@openzeppelin/contracts/access/Ownable.sol\":1322:1353  OwnableInvalidOwner(address(0)) */\n              mload(0x40)\n              dup1\n              swap2\n              sub\n              swap1\n              revert\n                /* \"@openzeppelin/contracts/access/Ownable.sol\":1269:1364  if (initialOwner == address(0)) {... */\n            tag_12:\n                /* \"@openzeppelin/contracts/access/Ownable.sol\":1373:1405  _transferOwnership(initialOwner) */\n              tag_15\n                /* \"@openzeppelin/contracts/access/Ownable.sol\":1392:1404  initialOwner */\n              dup2\n                /* \"@openzeppelin/contracts/access/Ownable.sol\":1373:1391  _transferOwnership */\n              tag_16\n                /* \"@openzeppelin/contracts/access/Ownable.sol\":1373:1405  _transferOwnership(initialOwner) */\n              jump\t// in\n            tag_15:\n                /* \"@openzeppelin/contracts/access/Ownable.sol\":1225:1412  constructor(address initialOwner) {... */\n              pop\n                /* \"ProjectNFT.sol\":455:606  constructor(... */\n              pop\n              pop\n              pop\n                /* \"ProjectNFT.sol\":339:1680  contract ProjectNFT is ERC721, ERC721Enumerable, ERC721URIStorage, Ownable {... */\n              jump(tag_26)\n                /* \"@openzeppelin/contracts/access/Ownable.sol\":2912:3099  function _transferOwnership(address newOwner) internal virtual {... */\n            tag_16:\n                /* \"@openzeppelin/contracts/access/Ownable.sol\":3004:3010  _owner */\n              0x0b\n              dup1\n              sload\n              sub(shl(0xa0, 0x01), 0x01)\n                /* \"@openzeppelin/contracts/access/Ownable.sol\":3020:3037  _owner = newOwner */\n              dup4\n              dup2\n              and\n              not(sub(shl(0xa0, 0x01), 0x01))\n              dup4\n              and\n              dup2\n              or\n              swap1\n              swap4\n              sstore\n                /* \"@openzeppelin/contracts/access/Ownable.sol\":3052:3092  OwnershipTransferred(oldOwner, newOwner) */\n              mload(0x40)\n                /* \"@openzeppelin/contracts/access/Ownable.sol\":3004:3010  _owner */\n              swap2\n              and\n              swap2\n                /* \"@openzeppelin/contracts/access/Ownable.sol\":3020:3037  _owner = newOwner */\n              swap1\n                /* \"@openzeppelin/contracts/access/Ownable.sol\":3004:3010  _owner */\n              dup3\n              swap1\n                /* \"@openzeppelin/contracts/access/Ownable.sol\":3052:3092  OwnershipTransferred(oldOwner, newOwner) */\n              0x8be0079c531659141344cd1fd0a4f28419497f9722a3daafe3b4186f6b6457e0\n              swap1\n                /* \"@openzeppelin/contracts/access/Ownable.sol\":2985:3001  address oldOwner */\n              0x00\n              swap1\n                /* \"@openzeppelin/contracts/access/Ownable.sol\":3052:3092  OwnershipTransferred(oldOwner, newOwner) */\n              log3\n                /* \"@openzeppelin/contracts/access/Ownable.sol\":2975:3099  {... */\n              pop\n                /* \"@openzeppelin/contracts/access/Ownable.sol\":2912:3099  function _transferOwnership(address newOwner) internal virtual {... */\n              pop\n              jump\t// out\n                /* \"#utility.yul\":14:141   */\n            tag_20:\n                /* \"#utility.yul\":75:85   */\n              0x4e487b71\n                /* \"#utility.yul\":70:73   */\n              0xe0\n                /* \"#utility.yul\":66:86   */\n              shl\n                /* \"#utility.yul\":63:64   */\n              0x00\n                /* \"#utility.yul\":56:87   */\n              mstore\n                /* \"#utility.yul\":106:110   */\n              0x41\n                /* \"#utility.yul\":103:104   */\n              0x04\n                /* \"#utility.yul\":96:111   */\n              mstore\n                /* \"#utility.yul\":130:134   */\n              0x24\n                /* \"#utility.yul\":127:128   */\n              0x00\n                /* \"#utility.yul\":120:135   */\n              revert\n                /* \"#utility.yul\":146:990   */\n            tag_21:\n                /* \"#utility.yul\":200:205   */\n              0x00\n                /* \"#utility.yul\":253:256   */\n              dup3\n                /* \"#utility.yul\":246:250   */\n              0x1f\n                /* \"#utility.yul\":238:244   */\n              dup4\n                /* \"#utility.yul\":234:251   */\n              add\n                /* \"#utility.yul\":230:257   */\n              slt\n                /* \"#utility.yul\":220:275   */\n              tag_29\n              jumpi\n                /* \"#utility.yul\":271:272   */\n              0x00\n                /* \"#utility.yul\":268:269   */\n              dup1\n                /* \"#utility.yul\":261:273   */\n              revert\n                /* \"#utility.yul\":220:275   */\n            tag_29:\n                /* \"#utility.yul\":294:307   */\n              dup2\n              mload\n              sub(shl(0x40, 0x01), 0x01)\n                /* \"#utility.yul\":356:366   */\n              dup1\n              dup3\n              gt\n                /* \"#utility.yul\":353:389   */\n              iszero\n              tag_31\n              jumpi\n                /* \"#utility.yul\":369:387   */\n              tag_31\n              tag_20\n              jump\t// in\n            tag_31:\n                /* \"#utility.yul\":444:446   */\n              0x40\n                /* \"#utility.yul\":438:447   */\n              mload\n                /* \"#utility.yul\":412:414   */\n              0x1f\n                /* \"#utility.yul\":498:511   */\n              dup4\n              add\n              not(0x1f)\n                /* \"#utility.yul\":494:516   */\n              swap1\n              dup2\n              and\n                /* \"#utility.yul\":518:520   */\n              0x3f\n                /* \"#utility.yul\":490:521   */\n              add\n                /* \"#utility.yul\":486:526   */\n              and\n                /* \"#utility.yul\":474:527   */\n              dup2\n              add\n              swap1\n                /* \"#utility.yul\":542:560   */\n              dup3\n              dup3\n              gt\n                /* \"#utility.yul\":562:584   */\n              dup2\n              dup4\n              lt\n                /* \"#utility.yul\":539:585   */\n              or\n                /* \"#utility.yul\":536:608   */\n              iszero\n              tag_33\n              jumpi\n                /* \"#utility.yul\":588:606   */\n              tag_33\n              tag_20\n              jump\t// in\n            tag_33:\n                /* \"#utility.yul\":628:638   */\n              dup2\n                /* \"#utility.yul\":624:626   */\n              0x40\n                /* \"#utility.yul\":617:639   */\n              mstore\n                /* \"#utility.yul\":663:665   */\n              dup4\n                /* \"#utility.yul\":655:661   */\n              dup2\n                /* \"#utility.yul\":648:666   */\n              mstore\n                /* \"#utility.yul\":685:689   */\n              0x20\n                /* \"#utility.yul\":675:689   */\n              swap3\n              pop\n                /* \"#utility.yul\":732:735   */\n              dup7\n                /* \"#utility.yul\":725:729   */\n              0x20\n                /* \"#utility.yul\":720:722   */\n              dup6\n                /* \"#utility.yul\":712:718   */\n              dup9\n                /* \"#utility.yul\":708:723   */\n              add\n                /* \"#utility.yul\":704:730   */\n              add\n                /* \"#utility.yul\":701:736   */\n              gt\n                /* \"#utility.yul\":698:753   */\n              iszero\n              tag_34\n              jumpi\n                /* \"#utility.yul\":749:750   */\n              0x00\n                /* \"#utility.yul\":746:747   */\n              dup1\n                /* \"#utility.yul\":739:751   */\n              revert\n                /* \"#utility.yul\":698:753   */\n            tag_34:\n                /* \"#utility.yul\":771:772   */\n              0x00\n                /* \"#utility.yul\":762:772   */\n              swap2\n              pop\n                /* \"#utility.yul\":781:914   */\n            tag_35:\n                /* \"#utility.yul\":795:797   */\n              dup4\n                /* \"#utility.yul\":792:793   */\n              dup3\n                /* \"#utility.yul\":789:798   */\n              lt\n                /* \"#utility.yul\":781:914   */\n              iszero\n              tag_37\n              jumpi\n                /* \"#utility.yul\":883:897   */\n              dup6\n              dup3\n              add\n                /* \"#utility.yul\":879:902   */\n              dup4\n              add\n                /* \"#utility.yul\":873:903   */\n              mload\n                /* \"#utility.yul\":852:866   */\n              dup2\n              dup4\n              add\n                /* \"#utility.yul\":848:871   */\n              dup5\n              add\n                /* \"#utility.yul\":841:904   */\n              mstore\n                /* \"#utility.yul\":806:816   */\n              swap1\n              dup3\n              add\n              swap1\n                /* \"#utility.yul\":781:914   */\n              jump(tag_35)\n            tag_37:\n                /* \"#utility.yul\":958:959   */\n              0x00\n                /* \"#utility.yul\":951:955   */\n              0x20\n                /* \"#utility.yul\":946:948   */\n              dup6\n                /* \"#utility.yul\":938:944   */\n              dup4\n                /* \"#utility.yul\":934:949   */\n              add\n                /* \"#utility.yul\":930:956   */\n              add\n                /* \"#utility.yul\":923:960   */\n              mstore\n                /* \"#utility.yul\":978:984   */\n              dup1\n                /* \"#utility.yul\":969:984   */\n              swap5\n              pop\n              pop\n              pop\n              pop\n              pop\n                /* \"#utility.yul\":146:990   */\n              swap3\n              swap2\n              pop\n              pop\n              jump\t// out\n                /* \"#utility.yul\":995:1724   */\n            tag_3:\n                /* \"#utility.yul\":1103:1109   */\n              0x00\n                /* \"#utility.yul\":1111:1117   */\n              dup1\n                /* \"#utility.yul\":1119:1125   */\n              0x00\n                /* \"#utility.yul\":1172:1174   */\n              0x60\n                /* \"#utility.yul\":1160:1169   */\n              dup5\n                /* \"#utility.yul\":1151:1158   */\n              dup7\n                /* \"#utility.yul\":1147:1170   */\n              sub\n                /* \"#utility.yul\":1143:1175   */\n              slt\n                /* \"#utility.yul\":1140:1192   */\n              iszero\n              tag_39\n              jumpi\n                /* \"#utility.yul\":1188:1189   */\n              0x00\n                /* \"#utility.yul\":1185:1186   */\n              dup1\n                /* \"#utility.yul\":1178:1190   */\n              revert\n                /* \"#utility.yul\":1140:1192   */\n            tag_39:\n                /* \"#utility.yul\":1214:1230   */\n              dup4\n              mload\n              sub(shl(0xa0, 0x01), 0x01)\n                /* \"#utility.yul\":1259:1290   */\n              dup2\n              and\n                /* \"#utility.yul\":1249:1291   */\n              dup2\n              eq\n                /* \"#utility.yul\":1239:1309   */\n              tag_40\n              jumpi\n                /* \"#utility.yul\":1305:1306   */\n              0x00\n                /* \"#utility.yul\":1302:1303   */\n              dup1\n                /* \"#utility.yul\":1295:1307   */\n              revert\n                /* \"#utility.yul\":1239:1309   */\n            tag_40:\n                /* \"#utility.yul\":1377:1379   */\n              0x20\n                /* \"#utility.yul\":1362:1380   */\n              dup6\n              add\n                /* \"#utility.yul\":1356:1381   */\n              mload\n                /* \"#utility.yul\":1328:1333   */\n              swap1\n              swap4\n              pop\n              sub(shl(0x40, 0x01), 0x01)\n                /* \"#utility.yul\":1430:1444   */\n              dup1\n              dup3\n              gt\n                /* \"#utility.yul\":1427:1461   */\n              iszero\n              tag_41\n              jumpi\n                /* \"#utility.yul\":1457:1458   */\n              0x00\n                /* \"#utility.yul\":1454:1455   */\n              dup1\n                /* \"#utility.yul\":1447:1459   */\n              revert\n                /* \"#utility.yul\":1427:1461   */\n            tag_41:\n                /* \"#utility.yul\":1480:1541   */\n              tag_42\n                /* \"#utility.yul\":1533:1540   */\n              dup8\n                /* \"#utility.yul\":1524:1530   */\n              dup4\n                /* \"#utility.yul\":1513:1522   */\n              dup9\n                /* \"#utility.yul\":1509:1531   */\n              add\n                /* \"#utility.yul\":1480:1541   */\n              tag_21\n              jump\t// in\n            tag_42:\n                /* \"#utility.yul\":1470:1541   */\n              swap4\n              pop\n                /* \"#utility.yul\":1587:1589   */\n              0x40\n                /* \"#utility.yul\":1576:1585   */\n              dup7\n                /* \"#utility.yul\":1572:1590   */\n              add\n                /* \"#utility.yul\":1566:1591   */\n              mload\n                /* \"#utility.yul\":1550:1591   */\n              swap2\n              pop\n                /* \"#utility.yul\":1616:1618   */\n              dup1\n                /* \"#utility.yul\":1606:1614   */\n              dup3\n                /* \"#utility.yul\":1603:1619   */\n              gt\n                /* \"#utility.yul\":1600:1636   */\n              iszero\n              tag_43\n              jumpi\n                /* \"#utility.yul\":1632:1633   */\n              0x00\n                /* \"#utility.yul\":1629:1630   */\n              dup1\n                /* \"#utility.yul\":1622:1634   */\n              revert\n                /* \"#utility.yul\":1600:1636   */\n            tag_43:\n              pop\n                /* \"#utility.yul\":1655:1718   */\n              tag_44\n                /* \"#utility.yul\":1710:1717   */\n              dup7\n                /* \"#utility.yul\":1699:1707   */\n              dup3\n                /* \"#utility.yul\":1688:1697   */\n              dup8\n                /* \"#utility.yul\":1684:1708   */\n              add\n                /* \"#utility.yul\":1655:1718   */\n              tag_21\n              jump\t// in\n            tag_44:\n                /* \"#utility.yul\":1645:1718   */\n              swap2\n              pop\n              pop\n                /* \"#utility.yul\":995:1724   */\n              swap3\n              pop\n              swap3\n              pop\n              swap3\n              jump\t// out\n                /* \"#utility.yul\":1729:2109   */\n            tag_22:\n                /* \"#utility.yul\":1808:1809   */\n              0x01\n                /* \"#utility.yul\":1804:1816   */\n              dup2\n              dup2\n              shr\n              swap1\n                /* \"#utility.yul\":1851:1863   */\n              dup3\n              and\n              dup1\n                /* \"#utility.yul\":1872:1933   */\n              tag_46\n              jumpi\n                /* \"#utility.yul\":1926:1930   */\n              0x7f\n                /* \"#utility.yul\":1918:1924   */\n              dup3\n                /* \"#utility.yul\":1914:1931   */\n              and\n                /* \"#utility.yul\":1904:1931   */\n              swap2\n              pop\n                /* \"#utility.yul\":1872:1933   */\n            tag_46:\n                /* \"#utility.yul\":1979:1981   */\n              0x20\n                /* \"#utility.yul\":1971:1977   */\n              dup3\n                /* \"#utility.yul\":1968:1982   */\n              lt\n                /* \"#utility.yul\":1948:1966   */\n              dup2\n                /* \"#utility.yul\":1945:1983   */\n              sub\n                /* \"#utility.yul\":1942:2103   */\n              tag_47\n              jumpi\n                /* \"#utility.yul\":2025:2035   */\n              0x4e487b71\n                /* \"#utility.yul\":2020:2023   */\n              0xe0\n                /* \"#utility.yul\":2016:2036   */\n              shl\n                /* \"#utility.yul\":2013:2014   */\n              0x00\n                /* \"#utility.yul\":2006:2037   */\n              mstore\n                /* \"#utility.yul\":2060:2064   */\n              0x22\n                /* \"#utility.yul\":2057:2058   */\n              0x04\n                /* \"#utility.yul\":2050:2065   */\n              mstore\n                /* \"#utility.yul\":2088:2092   */\n              0x24\n                /* \"#utility.yul\":2085:2086   */\n              0x00\n                /* \"#utility.yul\":2078:2093   */\n              revert\n                /* \"#utility.yul\":1942:2103   */\n            tag_47:\n              pop\n                /* \"#utility.yul\":1729:2109   */\n              swap2\n              swap1\n              pop\n              jump\t// out\n                /* \"#utility.yul\":2240:2758   */\n            tag_24:\n                /* \"#utility.yul\":2342:2344   */\n              0x1f\n                /* \"#utility.yul\":2337:2340   */\n              dup3\n                /* \"#utility.yul\":2334:2345   */\n              gt\n                /* \"#utility.yul\":2331:2752   */\n              iszero\n              tag_50\n              jumpi\n                /* \"#utility.yul\":2378:2383   */\n              dup1\n                /* \"#utility.yul\":2375:2376   */\n              0x00\n                /* \"#utility.yul\":2368:2384   */\n              mstore\n                /* \"#utility.yul\":2422:2426   */\n              0x20\n                /* \"#utility.yul\":2419:2420   */\n              0x00\n                /* \"#utility.yul\":2409:2427   */\n              keccak256\n                /* \"#utility.yul\":2492:2494   */\n              0x1f\n                /* \"#utility.yul\":2480:2490   */\n              dup5\n                /* \"#utility.yul\":2476:2495   */\n              add\n                /* \"#utility.yul\":2473:2474   */\n              0x05\n                /* \"#utility.yul\":2469:2496   */\n              shr\n                /* \"#utility.yul\":2463:2467   */\n              dup2\n                /* \"#utility.yul\":2459:2497   */\n              add\n                /* \"#utility.yul\":2528:2532   */\n              0x20\n                /* \"#utility.yul\":2516:2526   */\n              dup6\n                /* \"#utility.yul\":2513:2533   */\n              lt\n                /* \"#utility.yul\":2510:2557   */\n              iszero\n              tag_51\n              jumpi\n              pop\n                /* \"#utility.yul\":2551:2555   */\n              dup1\n                /* \"#utility.yul\":2510:2557   */\n            tag_51:\n                /* \"#utility.yul\":2606:2608   */\n              0x1f\n                /* \"#utility.yul\":2601:2604   */\n              dup5\n                /* \"#utility.yul\":2597:2609   */\n              add\n                /* \"#utility.yul\":2594:2595   */\n              0x05\n                /* \"#utility.yul\":2590:2610   */\n              shr\n                /* \"#utility.yul\":2584:2588   */\n              dup3\n                /* \"#utility.yul\":2580:2611   */\n              add\n                /* \"#utility.yul\":2570:2611   */\n              swap2\n              pop\n                /* \"#utility.yul\":2661:2742   */\n            tag_52:\n                /* \"#utility.yul\":2679:2681   */\n              dup2\n                /* \"#utility.yul\":2672:2677   */\n              dup2\n                /* \"#utility.yul\":2669:2682   */\n              lt\n                /* \"#utility.yul\":2661:2742   */\n              iszero\n              tag_54\n              jumpi\n                /* \"#utility.yul\":2738:2739   */\n              0x00\n                /* \"#utility.yul\":2724:2740   */\n              dup2\n              sstore\n                /* \"#utility.yul\":2705:2706   */\n              0x01\n                /* \"#utility.yul\":2694:2707   */\n              add\n                /* \"#utility.yul\":2661:2742   */\n              jump(tag_52)\n            tag_54:\n                /* \"#utility.yul\":2665:2668   */\n              pop\n              pop\n                /* \"#utility.yul\":2331:2752   */\n            tag_50:\n                /* \"#utility.yul\":2240:2758   */\n              pop\n              pop\n              pop\n              jump\t// out\n                /* \"#utility.yul\":2934:4279   */\n            tag_9:\n                /* \"#utility.yul\":3054:3064   */\n              dup2\n              mload\n              sub(shl(0x40, 0x01), 0x01)\n                /* \"#utility.yul\":3076:3106   */\n              dup2\n              gt\n                /* \"#utility.yul\":3073:3129   */\n              iszero\n              tag_58\n              jumpi\n                /* \"#utility.yul\":3109:3127   */\n              tag_58\n              tag_20\n              jump\t// in\n            tag_58:\n                /* \"#utility.yul\":3138:3235   */\n              tag_59\n                /* \"#utility.yul\":3228:3234   */\n              dup2\n                /* \"#utility.yul\":3188:3226   */\n              tag_60\n                /* \"#utility.yul\":3220:3224   */\n              dup5\n                /* \"#utility.yul\":3214:3225   */\n              sload\n                /* \"#utility.yul\":3188:3226   */\n              tag_22\n              jump\t// in\n            tag_60:\n                /* \"#utility.yul\":3182:3186   */\n              dup5\n                /* \"#utility.yul\":3138:3235   */\n              tag_24\n              jump\t// in\n            tag_59:\n                /* \"#utility.yul\":3290:3294   */\n              0x20\n              dup1\n                /* \"#utility.yul\":3347:3349   */\n              0x1f\n                /* \"#utility.yul\":3336:3350   */\n              dup4\n              gt\n                /* \"#utility.yul\":3364:3365   */\n              0x01\n                /* \"#utility.yul\":3359:4022   */\n              dup2\n              eq\n              tag_62\n              jumpi\n                /* \"#utility.yul\":4066:4067   */\n              0x00\n                /* \"#utility.yul\":4083:4089   */\n              dup5\n                /* \"#utility.yul\":4080:4169   */\n              iszero\n              tag_63\n              jumpi\n              pop\n                /* \"#utility.yul\":4135:4154   */\n              dup6\n              dup4\n              add\n                /* \"#utility.yul\":4129:4155   */\n              mload\n                /* \"#utility.yul\":4080:4169   */\n            tag_63:\n              not(0x00)\n                /* \"#utility.yul\":2891:2892   */\n              0x03\n                /* \"#utility.yul\":2887:2898   */\n              dup7\n              swap1\n              shl\n                /* \"#utility.yul\":2883:2907   */\n              shr\n                /* \"#utility.yul\":2879:2908   */\n              not\n                /* \"#utility.yul\":2869:2909   */\n              and\n                /* \"#utility.yul\":2915:2916   */\n              0x01\n                /* \"#utility.yul\":2911:2922   */\n              dup6\n              swap1\n              shl\n                /* \"#utility.yul\":2866:2923   */\n              or\n                /* \"#utility.yul\":4182:4263   */\n              dup6\n              sstore\n                /* \"#utility.yul\":3329:4273   */\n              jump(tag_61)\n                /* \"#utility.yul\":3359:4022   */\n            tag_62:\n                /* \"#utility.yul\":2187:2188   */\n              0x00\n                /* \"#utility.yul\":2180:2194   */\n              dup6\n              dup2\n              mstore\n                /* \"#utility.yul\":2224:2228   */\n              0x20\n                /* \"#utility.yul\":2211:2229   */\n              dup2\n              keccak256\n              not(0x1f)\n                /* \"#utility.yul\":3395:3415   */\n              dup7\n              and\n              swap2\n                /* \"#utility.yul\":3513:3749   */\n            tag_66:\n                /* \"#utility.yul\":3527:3534   */\n              dup3\n                /* \"#utility.yul\":3524:3525   */\n              dup2\n                /* \"#utility.yul\":3521:3535   */\n              lt\n                /* \"#utility.yul\":3513:3749   */\n              iszero\n              tag_68\n              jumpi\n                /* \"#utility.yul\":3616:3635   */\n              dup9\n              dup7\n              add\n                /* \"#utility.yul\":3610:3636   */\n              mload\n                /* \"#utility.yul\":3595:3637   */\n              dup3\n              sstore\n                /* \"#utility.yul\":3708:3735   */\n              swap5\n              dup5\n              add\n              swap5\n                /* \"#utility.yul\":3676:3677   */\n              0x01\n                /* \"#utility.yul\":3664:3678   */\n              swap1\n              swap2\n              add\n              swap1\n                /* \"#utility.yul\":3543:3562   */\n              dup5\n              add\n                /* \"#utility.yul\":3513:3749   */\n              jump(tag_66)\n            tag_68:\n                /* \"#utility.yul\":3517:3520   */\n              pop\n                /* \"#utility.yul\":3777:3783   */\n              dup6\n                /* \"#utility.yul\":3768:3775   */\n              dup3\n                /* \"#utility.yul\":3765:3784   */\n              lt\n                /* \"#utility.yul\":3762:3963   */\n              iszero\n              tag_69\n              jumpi\n                /* \"#utility.yul\":3838:3857   */\n              dup8\n              dup6\n              add\n                /* \"#utility.yul\":3832:3858   */\n              mload\n              not(0x00)\n                /* \"#utility.yul\":3921:3922   */\n              0x03\n                /* \"#utility.yul\":3917:3931   */\n              dup9\n              swap1\n              shl\n                /* \"#utility.yul\":3933:3936   */\n              0xf8\n                /* \"#utility.yul\":3913:3937   */\n              and\n                /* \"#utility.yul\":3909:3946   */\n              shr\n                /* \"#utility.yul\":3905:3947   */\n              not\n                /* \"#utility.yul\":3890:3948   */\n              and\n                /* \"#utility.yul\":3875:3949   */\n              dup2\n              sstore\n                /* \"#utility.yul\":3762:3963   */\n            tag_69:\n              pop\n              pop\n                /* \"#utility.yul\":4009:4010   */\n              0x01\n                /* \"#utility.yul\":4000:4006   */\n              dup5\n                /* \"#utility.yul\":3997:3998   */\n              0x01\n                /* \"#utility.yul\":3993:4007   */\n              shl\n                /* \"#utility.yul\":3989:4011   */\n              add\n                /* \"#utility.yul\":3983:3987   */\n              dup6\n                /* \"#utility.yul\":3976:4012   */\n              sstore\n                /* \"#utility.yul\":3329:4273   */\n            tag_61:\n              pop\n              pop\n              pop\n              pop\n                /* \"#utility.yul\":2934:4279   */\n              pop\n              pop\n              jump\t// out\n                /* \"#utility.yul\":4284:4487   */\n            tag_26:\n                /* \"ProjectNFT.sol\":339:1680  contract ProjectNFT is ERC721, ERC721Enumerable, ERC721URIStorage, Ownable {... */\n              dataSize(sub_0)\n              dup1\n              dataOffset(sub_0)\n              0x00\n              codecopy\n              0x00\n              return\n            stop\n\n            sub_0: assembly {\n                    /* \"ProjectNFT.sol\":339:1680  contract ProjectNFT is ERC721, ERC721Enumerable, ERC721URIStorage, Ownable {... */\n                  mstore(0x40, 0x80)\n                  callvalue\n                  dup1\n                  iszero\n                  tag_1\n                  jumpi\n                  0x00\n                  dup1\n                  revert\n                tag_1:\n                  pop\n                  jumpi(tag_2, lt(calldatasize, 0x04))\n                  shr(0xe0, calldataload(0x00))\n                  dup1\n                  0x01ffc9a7\n                  eq\n                  tag_3\n                  jumpi\n                  dup1\n                  0x06fdde03\n                  eq\n                  tag_4\n                  jumpi\n                  dup1\n                  0x081812fc\n                  eq\n                  tag_5\n                  jumpi\n                  dup1\n                  0x095ea7b3\n                  eq\n                  tag_6\n                  jumpi\n                  dup1\n                  0x18160ddd\n                  eq\n                  tag_7\n                  jumpi\n                  dup1\n                  0x23b872dd\n                  eq\n                  tag_8\n                  jumpi\n                  dup1\n                  0x2f745c59\n                  eq\n                  tag_9\n                  jumpi\n                  dup1\n                  0x42842e0e\n                  eq\n                  tag_10\n                  jumpi\n                  dup1\n                  0x4f6ccce7\n                  eq\n                  tag_11\n                  jumpi\n                  dup1\n                  0x6352211e\n                  eq\n                  tag_12\n                  jumpi\n                  dup1\n                  0x70a08231\n                  eq\n                  tag_13\n                  jumpi\n                  dup1\n                  0x715018a6\n                  eq\n                  tag_14\n                  jumpi\n                  dup1\n                  0x8da5cb5b\n                  eq\n                  tag_15\n                  jumpi\n                  dup1\n                  0x95d89b41\n                  eq\n                  tag_16\n                  jumpi\n                  dup1\n                  0xa22cb465\n                  eq\n                  tag_17\n                  jumpi\n                  dup1\n                  0xb88d4fde\n                  eq\n                  tag_18\n                  jumpi\n                  dup1\n                  0xc87b56dd\n                  eq\n                  tag_19\n                  jumpi\n                  dup1\n                  0xd204c45e\n                  eq\n                  tag_20\n                  jumpi\n                  dup1\n                  0xe985e9c5\n                  eq\n                  tag_21\n                  jumpi\n                  dup1\n                  0xf2fde38b\n                  eq\n                  tag_22\n                  jumpi\n                tag_2:\n                  0x00\n                  dup1\n                  revert\n                    /* \"ProjectNFT.sol\":1441:1678  function supportsInterface(... */\n                tag_3:\n                  tag_23\n                  tag_24\n                  calldatasize\n                  0x04\n                  tag_25\n                  jump\t// in\n                tag_24:\n                  tag_26\n                  jump\t// in\n                tag_23:\n                  mload(0x40)\n                    /* \"#utility.yul\":565:579   */\n                  swap1\n                  iszero\n                    /* \"#utility.yul\":558:580   */\n                  iszero\n                    /* \"#utility.yul\":540:581   */\n                  dup2\n                  mstore\n                    /* \"#utility.yul\":528:530   */\n                  0x20\n                    /* \"#utility.yul\":513:531   */\n                  add\n                    /* \"ProjectNFT.sol\":1441:1678  function supportsInterface(... */\n                tag_27:\n                  mload(0x40)\n                  dup1\n                  swap2\n                  sub\n                  swap1\n                  return\n                    /* \"@openzeppelin/contracts/token/ERC721/ERC721.sol\":2365:2454  function name() public view virtual returns (string memory) {... */\n                tag_4:\n                  tag_29\n                  tag_30\n                  jump\t// in\n                tag_29:\n                  mload(0x40)\n                  tag_27\n                  swap2\n                  swap1\n                  tag_32\n                  jump\t// in\n                    /* \"@openzeppelin/contracts/token/ERC721/ERC721.sol\":3497:3651  function getApproved(uint256 tokenId) public view virtual returns (address) {... */\n                tag_5:\n                  tag_33\n                  tag_34\n                  calldatasize\n                  0x04\n                  tag_35\n                  jump\t// in\n                tag_34:\n                  tag_36\n                  jump\t// in\n                tag_33:\n                  mload(0x40)\n                  tag_27\n                  swap2\n                  swap1\n                  tag_38\n                  jump\t// in\n                    /* \"@openzeppelin/contracts/token/ERC721/ERC721.sol\":3323:3436  function approve(address to, uint256 tokenId) public virtual {... */\n                tag_6:\n                  tag_39\n                  tag_40\n                  calldatasize\n                  0x04\n                  tag_41\n                  jump\t// in\n                tag_40:\n                  tag_42\n                  jump\t// in\n                tag_39:\n                  stop\n                    /* \"@openzeppelin/contracts/token/ERC721/extensions/ERC721Enumerable.sol\":2062:2164  function totalSupply() public view virtual returns (uint256) {... */\n                tag_7:\n                    /* \"@openzeppelin/contracts/token/ERC721/extensions/ERC721Enumerable.sol\":2140:2150  _allTokens */\n                  0x08\n                    /* \"@openzeppelin/contracts/token/ERC721/extensions/ERC721Enumerable.sol\":2140:2157  _allTokens.length */\n                  sload\n                    /* \"@openzeppelin/contracts/token/ERC721/extensions/ERC721Enumerable.sol\":2062:2164  function totalSupply() public view virtual returns (uint256) {... */\n                tag_43:\n                  mload(0x40)\n                    /* \"#utility.yul\":2324:2349   */\n                  swap1\n                  dup2\n                  mstore\n                    /* \"#utility.yul\":2312:2314   */\n                  0x20\n                    /* \"#utility.yul\":2297:2315   */\n                  add\n                    /* \"@openzeppelin/contracts/token/ERC721/extensions/ERC721Enumerable.sol\":2062:2164  function totalSupply() public view virtual returns (uint256) {... */\n                  tag_27\n                    /* \"#utility.yul\":2178:2355   */\n                  jump\n                    /* \"@openzeppelin/contracts/token/ERC721/ERC721.sol\":4143:4721  function transferFrom(address from, address to, uint256 tokenId) public virtual {... */\n                tag_8:\n                  tag_39\n                  tag_48\n                  calldatasize\n                  0x04\n                  tag_49\n                  jump\t// in\n                tag_48:\n                  tag_50\n                  jump\t// in\n                    /* \"@openzeppelin/contracts/token/ERC721/extensions/ERC721Enumerable.sol\":1736:1991  function tokenOfOwnerByIndex(address owner, uint256 index) public view virtual returns (uint256) {... */\n                tag_9:\n                  tag_43\n                  tag_52\n                  calldatasize\n                  0x04\n                  tag_41\n                  jump\t// in\n                tag_52:\n                  tag_53\n                  jump\t// in\n                    /* \"@openzeppelin/contracts/token/ERC721/ERC721.sol\":4787:4919  function safeTransferFrom(address from, address to, uint256 tokenId) public {... */\n                tag_10:\n                  tag_39\n                  tag_56\n                  calldatasize\n                  0x04\n                  tag_49\n                  jump\t// in\n                tag_56:\n                  tag_57\n                  jump\t// in\n                    /* \"@openzeppelin/contracts/token/ERC721/extensions/ERC721Enumerable.sol\":2236:2462  function tokenByIndex(uint256 index) public view virtual returns (uint256) {... */\n                tag_11:\n                  tag_43\n                  tag_59\n                  calldatasize\n                  0x04\n                  tag_35\n                  jump\t// in\n                tag_59:\n                  tag_60\n                  jump\t// in\n                    /* \"@openzeppelin/contracts/token/ERC721/ERC721.sol\":2185:2303  function ownerOf(uint256 tokenId) public view virtual returns (address) {... */\n                tag_12:\n                  tag_33\n                  tag_63\n                  calldatasize\n                  0x04\n                  tag_35\n                  jump\t// in\n                tag_63:\n                  tag_64\n                  jump\t// in\n                    /* \"@openzeppelin/contracts/token/ERC721/ERC721.sol\":1920:2128  function balanceOf(address owner) public view virtual returns (uint256) {... */\n                tag_13:\n                  tag_43\n                  tag_67\n                  calldatasize\n                  0x04\n                  tag_68\n                  jump\t// in\n                tag_67:\n                  tag_69\n                  jump\t// in\n                    /* \"@openzeppelin/contracts/access/Ownable.sol\":2293:2394  function renounceOwnership() public virtual onlyOwner {... */\n                tag_14:\n                  tag_39\n                  tag_72\n                  jump\t// in\n                    /* \"@openzeppelin/contracts/access/Ownable.sol\":1638:1723  function owner() public view virtual returns (address) {... */\n                tag_15:\n                  tag_33\n                  tag_74\n                  jump\t// in\n                    /* \"@openzeppelin/contracts/token/ERC721/ERC721.sol\":2518:2611  function symbol() public view virtual returns (string memory) {... */\n                tag_16:\n                  tag_29\n                  tag_77\n                  jump\t// in\n                    /* \"@openzeppelin/contracts/token/ERC721/ERC721.sol\":3718:3862  function setApprovalForAll(address operator, bool approved) public virtual {... */\n                tag_17:\n                  tag_39\n                  tag_80\n                  calldatasize\n                  0x04\n                  tag_81\n                  jump\t// in\n                tag_80:\n                  tag_82\n                  jump\t// in\n                    /* \"@openzeppelin/contracts/token/ERC721/ERC721.sol\":4985:5193  function safeTransferFrom(address from, address to, uint256 tokenId, bytes memory data) public virtual {... */\n                tag_18:\n                  tag_39\n                  tag_84\n                  calldatasize\n                  0x04\n                  tag_85\n                  jump\t// in\n                tag_84:\n                  tag_86\n                  jump\t// in\n                    /* \"ProjectNFT.sol\":1268:1435  function tokenURI(... */\n                tag_19:\n                  tag_29\n                  tag_88\n                  calldatasize\n                  0x04\n                  tag_35\n                  jump\t// in\n                tag_88:\n                  tag_89\n                  jump\t// in\n                    /* \"ProjectNFT.sol\":612:795  function safeMint(address to, string memory uri) public onlyOwner {... */\n                tag_20:\n                  tag_39\n                  tag_92\n                  calldatasize\n                  0x04\n                  tag_93\n                  jump\t// in\n                tag_92:\n                  tag_94\n                  jump\t// in\n                    /* \"@openzeppelin/contracts/token/ERC721/ERC721.sol\":3928:4081  function isApprovedForAll(address owner, address operator) public view virtual returns (bool) {... */\n                tag_21:\n                  tag_23\n                  tag_96\n                  calldatasize\n                  0x04\n                  tag_97\n                  jump\t// in\n                tag_96:\n                  tag_98\n                  jump\t// in\n                    /* \"@openzeppelin/contracts/access/Ownable.sol\":2543:2758  function transferOwnership(address newOwner) public virtual onlyOwner {... */\n                tag_22:\n                  tag_39\n                  tag_101\n                  calldatasize\n                  0x04\n                  tag_68\n                  jump\t// in\n                tag_101:\n                  tag_102\n                  jump\t// in\n                    /* \"ProjectNFT.sol\":1441:1678  function supportsInterface(... */\n                tag_26:\n                    /* \"ProjectNFT.sol\":1608:1612  bool */\n                  0x00\n                    /* \"ProjectNFT.sol\":1635:1671  super.supportsInterface(interfaceId) */\n                  tag_104\n                    /* \"ProjectNFT.sol\":1659:1670  interfaceId */\n                  dup3\n                    /* \"ProjectNFT.sol\":1635:1658  super.supportsInterface */\n                  tag_105\n                    /* \"ProjectNFT.sol\":1635:1671  super.supportsInterface(interfaceId) */\n                  jump\t// in\n                tag_104:\n                    /* \"ProjectNFT.sol\":1628:1671  return super.supportsInterface(interfaceId) */\n                  swap3\n                    /* \"ProjectNFT.sol\":1441:1678  function supportsInterface(... */\n                  swap2\n                  pop\n                  pop\n                  jump\t// out\n                    /* \"@openzeppelin/contracts/token/ERC721/ERC721.sol\":2365:2454  function name() public view virtual returns (string memory) {... */\n                tag_30:\n                    /* \"@openzeppelin/contracts/token/ERC721/ERC721.sol\":2410:2423  string memory */\n                  0x60\n                    /* \"@openzeppelin/contracts/token/ERC721/ERC721.sol\":2442:2447  _name */\n                  0x00\n                    /* \"@openzeppelin/contracts/token/ERC721/ERC721.sol\":2435:2447  return _name */\n                  dup1\n                  sload\n                  tag_107\n                  swap1\n                  tag_108\n                  jump\t// in\n                tag_107:\n                  dup1\n                  0x1f\n                  add\n                  0x20\n                  dup1\n                  swap2\n                  div\n                  mul\n                  0x20\n                  add\n                  mload(0x40)\n                  swap1\n                  dup2\n                  add\n                  0x40\n                  mstore\n                  dup1\n                  swap3\n                  swap2\n                  swap1\n                  dup2\n                  dup2\n                  mstore\n                  0x20\n                  add\n                  dup3\n                  dup1\n                  sload\n                  tag_109\n                  swap1\n                  tag_108\n                  jump\t// in\n                tag_109:\n                  dup1\n                  iszero\n                  tag_110\n                  jumpi\n                  dup1\n                  0x1f\n                  lt\n                  tag_111\n                  jumpi\n                  0x0100\n                  dup1\n                  dup4\n                  sload\n                  div\n                  mul\n                  dup4\n                  mstore\n                  swap2\n                  0x20\n                  add\n                  swap2\n                  jump(tag_110)\n                tag_111:\n                  dup3\n                  add\n                  swap2\n                  swap1\n                  0x00\n                  mstore\n                  keccak256(0x00, 0x20)\n                  swap1\n                tag_112:\n                  dup2\n                  sload\n                  dup2\n                  mstore\n                  swap1\n                  0x01\n                  add\n                  swap1\n                  0x20\n                  add\n                  dup1\n                  dup4\n                  gt\n                  tag_112\n                  jumpi\n                  dup3\n                  swap1\n                  sub\n                  0x1f\n                  and\n                  dup3\n                  add\n                  swap2\n                tag_110:\n                  pop\n                  pop\n                  pop\n                  pop\n                  pop\n                  swap1\n                  pop\n                    /* \"@openzeppelin/contracts/token/ERC721/ERC721.sol\":2365:2454  function name() public view virtual returns (string memory) {... */\n                  swap1\n                  jump\t// out\n                    /* \"@openzeppelin/contracts/token/ERC721/ERC721.sol\":3497:3651  function getApproved(uint256 tokenId) public view virtual returns (address) {... */\n                tag_36:\n                    /* \"@openzeppelin/contracts/token/ERC721/ERC721.sol\":3564:3571  address */\n                  0x00\n                    /* \"@openzeppelin/contracts/token/ERC721/ERC721.sol\":3583:3605  _requireOwned(tokenId) */\n                  tag_114\n                    /* \"@openzeppelin/contracts/token/ERC721/ERC721.sol\":3597:3604  tokenId */\n                  dup3\n                    /* \"@openzeppelin/contracts/token/ERC721/ERC721.sol\":3583:3596  _requireOwned */\n                  tag_115\n                    /* \"@openzeppelin/contracts/token/ERC721/ERC721.sol\":3583:3605  _requireOwned(tokenId) */\n                  jump\t// in\n                tag_114:\n                  pop\n                    /* \"@openzeppelin/contracts/token/ERC721/ERC721.sol\":3623:3644  _getApproved(tokenId) */\n                  tag_104\n                    /* \"@openzeppelin/contracts/token/ERC721/ERC721.sol\":3636:3643  tokenId */\n                  dup3\n                    /* \"@openzeppelin/contracts/token/ERC721/ERC721.sol\":3623:3635  _getApproved */\n                  tag_117\n                    /* \"@openzeppelin/contracts/token/ERC721/ERC721.sol\":3623:3644  _getApproved(tokenId) */\n                  jump\t// in\n                    /* \"@openzeppelin/contracts/token/ERC721/ERC721.sol\":3323:3436  function approve(address to, uint256 tokenId) public virtual {... */\n                tag_42:\n                    /* \"@openzeppelin/contracts/token/ERC721/ERC721.sol\":3394:3429  _approve(to, tokenId, _msgSender()) */\n                  tag_119\n                    /* \"@openzeppelin/contracts/token/ERC721/ERC721.sol\":3403:3405  to */\n                  dup3\n                    /* \"@openzeppelin/contracts/token/ERC721/ERC721.sol\":3407:3414  tokenId */\n                  dup3\n                    /* \"@openzeppelin/contracts/utils/Context.sol\":735:745  msg.sender */\n                  caller\n                    /* \"@openzeppelin/contracts/token/ERC721/ERC721.sol\":3394:3402  _approve */\n                  tag_122\n                    /* \"@openzeppelin/contracts/token/ERC721/ERC721.sol\":3394:3429  _approve(to, tokenId, _msgSender()) */\n                  jump\t// in\n                tag_119:\n                    /* \"@openzeppelin/contracts/token/ERC721/ERC721.sol\":3323:3436  function approve(address to, uint256 tokenId) public virtual {... */\n                  pop\n                  pop\n                  jump\t// out\n                    /* \"@openzeppelin/contracts/token/ERC721/ERC721.sol\":4143:4721  function transferFrom(address from, address to, uint256 tokenId) public virtual {... */\n                tag_50:\n                  sub(shl(0xa0, 0x01), 0x01)\n                    /* \"@openzeppelin/contracts/token/ERC721/ERC721.sol\":4237:4253  to == address(0) */\n                  dup3\n                  and\n                    /* \"@openzeppelin/contracts/token/ERC721/ERC721.sol\":4233:4320  if (to == address(0)) {... */\n                  tag_125\n                  jumpi\n                    /* \"@openzeppelin/contracts/token/ERC721/ERC721.sol\":4306:4307  0 */\n                  0x00\n                    /* \"@openzeppelin/contracts/token/ERC721/ERC721.sol\":4276:4309  ERC721InvalidReceiver(address(0)) */\n                  mload(0x40)\n                  shl(0xe1, 0x32505749)\n                  dup2\n                  mstore\n                  0x04\n                  add\n                  tag_126\n                  swap2\n                  swap1\n                  tag_38\n                  jump\t// in\n                tag_126:\n                  mload(0x40)\n                  dup1\n                  swap2\n                  sub\n                  swap1\n                  revert\n                    /* \"@openzeppelin/contracts/token/ERC721/ERC721.sol\":4233:4320  if (to == address(0)) {... */\n                tag_125:\n                    /* \"@openzeppelin/contracts/token/ERC721/ERC721.sol\":4538:4559  address previousOwner */\n                  0x00\n                    /* \"@openzeppelin/contracts/token/ERC721/ERC721.sol\":4562:4596  _update(to, tokenId, _msgSender()) */\n                  tag_127\n                    /* \"@openzeppelin/contracts/token/ERC721/ERC721.sol\":4570:4572  to */\n                  dup4\n                    /* \"@openzeppelin/contracts/token/ERC721/ERC721.sol\":4574:4581  tokenId */\n                  dup4\n                    /* \"@openzeppelin/contracts/utils/Context.sol\":735:745  msg.sender */\n                  caller\n                    /* \"@openzeppelin/contracts/token/ERC721/ERC721.sol\":4562:4569  _update */\n                  tag_129\n                    /* \"@openzeppelin/contracts/token/ERC721/ERC721.sol\":4562:4596  _update(to, tokenId, _msgSender()) */\n                  jump\t// in\n                tag_127:\n                    /* \"@openzeppelin/contracts/token/ERC721/ERC721.sol\":4538:4596  address previousOwner = _update(to, tokenId, _msgSender()) */\n                  swap1\n                  pop\n                    /* \"@openzeppelin/contracts/token/ERC721/ERC721.sol\":4627:4631  from */\n                  dup4\n                  sub(shl(0xa0, 0x01), 0x01)\n                    /* \"@openzeppelin/contracts/token/ERC721/ERC721.sol\":4610:4631  previousOwner != from */\n                  and\n                    /* \"@openzeppelin/contracts/token/ERC721/ERC721.sol\":4610:4623  previousOwner */\n                  dup2\n                  sub(shl(0xa0, 0x01), 0x01)\n                    /* \"@openzeppelin/contracts/token/ERC721/ERC721.sol\":4610:4631  previousOwner != from */\n                  and\n                  eq\n                    /* \"@openzeppelin/contracts/token/ERC721/ERC721.sol\":4606:4715  if (previousOwner != from) {... */\n                  tag_130\n                  jumpi\n                    /* \"@openzeppelin/contracts/token/ERC721/ERC721.sol\":4654:4704  ERC721IncorrectOwner(from, tokenId, previousOwner) */\n                  mload(0x40)\n                  shl(0xe0, 0x64283d7b)\n                  dup2\n                  mstore\n                  sub(shl(0xa0, 0x01), 0x01)\n                    /* \"#utility.yul\":6112:6127   */\n                  dup1\n                  dup7\n                  and\n                    /* \"@openzeppelin/contracts/token/ERC721/ERC721.sol\":4654:4704  ERC721IncorrectOwner(from, tokenId, previousOwner) */\n                  0x04\n                  dup4\n                  add\n                    /* \"#utility.yul\":6094:6128   */\n                  mstore\n                    /* \"#utility.yul\":6144:6162   */\n                  0x24\n                  dup3\n                  add\n                    /* \"#utility.yul\":6137:6171   */\n                  dup5\n                  swap1\n                  mstore\n                    /* \"#utility.yul\":6207:6222   */\n                  dup3\n                  and\n                    /* \"#utility.yul\":6187:6205   */\n                  0x44\n                  dup3\n                  add\n                    /* \"#utility.yul\":6180:6223   */\n                  mstore\n                    /* \"#utility.yul\":6029:6047   */\n                  0x64\n                  add\n                    /* \"@openzeppelin/contracts/token/ERC721/ERC721.sol\":4654:4704  ERC721IncorrectOwner(from, tokenId, previousOwner) */\n                  tag_126\n                    /* \"#utility.yul\":5854:6229   */\n                  jump\n                    /* \"@openzeppelin/contracts/token/ERC721/ERC721.sol\":4606:4715  if (previousOwner != from) {... */\n                tag_130:\n                    /* \"@openzeppelin/contracts/token/ERC721/ERC721.sol\":4223:4721  {... */\n                  pop\n                    /* \"@openzeppelin/contracts/token/ERC721/ERC721.sol\":4143:4721  function transferFrom(address from, address to, uint256 tokenId) public virtual {... */\n                  pop\n                  pop\n                  pop\n                  jump\t// out\n                    /* \"@openzeppelin/contracts/token/ERC721/extensions/ERC721Enumerable.sol\":1736:1991  function tokenOfOwnerByIndex(address owner, uint256 index) public view virtual returns (uint256) {... */\n                tag_53:\n                    /* \"@openzeppelin/contracts/token/ERC721/extensions/ERC721Enumerable.sol\":1824:1831  uint256 */\n                  0x00\n                    /* \"@openzeppelin/contracts/token/ERC721/extensions/ERC721Enumerable.sol\":1856:1872  balanceOf(owner) */\n                  tag_134\n                    /* \"@openzeppelin/contracts/token/ERC721/extensions/ERC721Enumerable.sol\":1866:1871  owner */\n                  dup4\n                    /* \"@openzeppelin/contracts/token/ERC721/extensions/ERC721Enumerable.sol\":1856:1865  balanceOf */\n                  tag_69\n                    /* \"@openzeppelin/contracts/token/ERC721/extensions/ERC721Enumerable.sol\":1856:1872  balanceOf(owner) */\n                  jump\t// in\n                tag_134:\n                    /* \"@openzeppelin/contracts/token/ERC721/extensions/ERC721Enumerable.sol\":1847:1852  index */\n                  dup3\n                    /* \"@openzeppelin/contracts/token/ERC721/extensions/ERC721Enumerable.sol\":1847:1872  index >= balanceOf(owner) */\n                  lt\n                    /* \"@openzeppelin/contracts/token/ERC721/extensions/ERC721Enumerable.sol\":1843:1942  if (index >= balanceOf(owner)) {... */\n                  tag_135\n                  jumpi\n                    /* \"@openzeppelin/contracts/token/ERC721/extensions/ERC721Enumerable.sol\":1918:1923  owner */\n                  dup3\n                    /* \"@openzeppelin/contracts/token/ERC721/extensions/ERC721Enumerable.sol\":1925:1930  index */\n                  dup3\n                    /* \"@openzeppelin/contracts/token/ERC721/extensions/ERC721Enumerable.sol\":1895:1931  ERC721OutOfBoundsIndex(owner, index) */\n                  mload(0x40)\n                  shl(0xe2, 0x295f44f7)\n                  dup2\n                  mstore\n                  0x04\n                  add\n                  tag_126\n                  swap3\n                  swap2\n                  swap1\n                  tag_137\n                  jump\t// in\n                    /* \"@openzeppelin/contracts/token/ERC721/extensions/ERC721Enumerable.sol\":1843:1942  if (index >= balanceOf(owner)) {... */\n                tag_135:\n                  pop\n                  sub(shl(0xa0, 0x01), 0x01)\n                    /* \"@openzeppelin/contracts/token/ERC721/extensions/ERC721Enumerable.sol\":1958:1977  _ownedTokens[owner] */\n                  swap2\n                  swap1\n                  swap2\n                  and\n                  0x00\n                  swap1\n                  dup2\n                  mstore\n                    /* \"@openzeppelin/contracts/token/ERC721/extensions/ERC721Enumerable.sol\":1958:1970  _ownedTokens */\n                  0x06\n                    /* \"@openzeppelin/contracts/token/ERC721/extensions/ERC721Enumerable.sol\":1958:1977  _ownedTokens[owner] */\n                  0x20\n                  swap1\n                  dup2\n                  mstore\n                  0x40\n                  dup1\n                  dup4\n                  keccak256\n                    /* \"@openzeppelin/contracts/token/ERC721/extensions/ERC721Enumerable.sol\":1958:1984  _ownedTokens[owner][index] */\n                  swap4\n                  dup4\n                  mstore\n                  swap3\n                  swap1\n                  mstore\n                  keccak256\n                  sload\n                  swap1\n                    /* \"@openzeppelin/contracts/token/ERC721/extensions/ERC721Enumerable.sol\":1736:1991  function tokenOfOwnerByIndex(address owner, uint256 index) public view virtual returns (uint256) {... */\n                  jump\t// out\n                    /* \"@openzeppelin/contracts/token/ERC721/ERC721.sol\":4787:4919  function safeTransferFrom(address from, address to, uint256 tokenId) public {... */\n                tag_57:\n                    /* \"@openzeppelin/contracts/token/ERC721/ERC721.sol\":4873:4912  safeTransferFrom(from, to, tokenId, \"\") */\n                  tag_139\n                    /* \"@openzeppelin/contracts/token/ERC721/ERC721.sol\":4890:4894  from */\n                  dup4\n                    /* \"@openzeppelin/contracts/token/ERC721/ERC721.sol\":4896:4898  to */\n                  dup4\n                    /* \"@openzeppelin/contracts/token/ERC721/ERC721.sol\":4900:4907  tokenId */\n                  dup4\n                    /* \"@openzeppelin/contracts/token/ERC721/ERC721.sol\":4873:4912  safeTransferFrom(from, to, tokenId, \"\") */\n                  mload(0x40)\n                  dup1\n                  0x20\n                  add\n                  0x40\n                  mstore\n                  dup1\n                  0x00\n                  dup2\n                  mstore\n                  pop\n                    /* \"@openzeppelin/contracts/token/ERC721/ERC721.sol\":4873:4889  safeTransferFrom */\n                  tag_86\n                    /* \"@openzeppelin/contracts/token/ERC721/ERC721.sol\":4873:4912  safeTransferFrom(from, to, tokenId, \"\") */\n                  jump\t// in\n                tag_139:\n                    /* \"@openzeppelin/contracts/token/ERC721/ERC721.sol\":4787:4919  function safeTransferFrom(address from, address to, uint256 tokenId) public {... */\n                  pop\n                  pop\n                  pop\n                  jump\t// out\n                    /* \"@openzeppelin/contracts/token/ERC721/extensions/ERC721Enumerable.sol\":2236:2462  function tokenByIndex(uint256 index) public view virtual returns (uint256) {... */\n                tag_60:\n                    /* \"@openzeppelin/contracts/token/ERC721/extensions/ERC721Enumerable.sol\":2302:2309  uint256 */\n                  0x00\n                    /* \"@openzeppelin/contracts/token/ERC721/extensions/ERC721Enumerable.sol\":2334:2347  totalSupply() */\n                  tag_141\n                    /* \"@openzeppelin/contracts/token/ERC721/extensions/ERC721Enumerable.sol\":2140:2150  _allTokens */\n                  0x08\n                    /* \"@openzeppelin/contracts/token/ERC721/extensions/ERC721Enumerable.sol\":2140:2157  _allTokens.length */\n                  sload\n                  swap1\n                    /* \"@openzeppelin/contracts/token/ERC721/extensions/ERC721Enumerable.sol\":2062:2164  function totalSupply() public view virtual returns (uint256) {... */\n                  jump\n                    /* \"@openzeppelin/contracts/token/ERC721/extensions/ERC721Enumerable.sol\":2334:2347  totalSupply() */\n                tag_141:\n                    /* \"@openzeppelin/contracts/token/ERC721/extensions/ERC721Enumerable.sol\":2325:2330  index */\n                  dup3\n                    /* \"@openzeppelin/contracts/token/ERC721/extensions/ERC721Enumerable.sol\":2325:2347  index >= totalSupply() */\n                  lt\n                    /* \"@openzeppelin/contracts/token/ERC721/extensions/ERC721Enumerable.sol\":2321:2422  if (index >= totalSupply()) {... */\n                  tag_142\n                  jumpi\n                    /* \"@openzeppelin/contracts/token/ERC721/extensions/ERC721Enumerable.sol\":2401:2402  0 */\n                  0x00\n                    /* \"@openzeppelin/contracts/token/ERC721/extensions/ERC721Enumerable.sol\":2405:2410  index */\n                  dup3\n                    /* \"@openzeppelin/contracts/token/ERC721/extensions/ERC721Enumerable.sol\":2370:2411  ERC721OutOfBoundsIndex(address(0), index) */\n                  mload(0x40)\n                  shl(0xe2, 0x295f44f7)\n                  dup2\n                  mstore\n                  0x04\n                  add\n                  tag_126\n                  swap3\n                  swap2\n                  swap1\n                  tag_137\n                  jump\t// in\n                    /* \"@openzeppelin/contracts/token/ERC721/extensions/ERC721Enumerable.sol\":2321:2422  if (index >= totalSupply()) {... */\n                tag_142:\n                    /* \"@openzeppelin/contracts/token/ERC721/extensions/ERC721Enumerable.sol\":2438:2448  _allTokens */\n                  0x08\n                    /* \"@openzeppelin/contracts/token/ERC721/extensions/ERC721Enumerable.sol\":2449:2454  index */\n                  dup3\n                    /* \"@openzeppelin/contracts/token/ERC721/extensions/ERC721Enumerable.sol\":2438:2455  _allTokens[index] */\n                  dup2\n                  sload\n                  dup2\n                  lt\n                  tag_145\n                  jumpi\n                  tag_145\n                  tag_146\n                  jump\t// in\n                tag_145:\n                  swap1\n                  0x00\n                  mstore\n                  keccak256(0x00, 0x20)\n                  add\n                  sload\n                    /* \"@openzeppelin/contracts/token/ERC721/extensions/ERC721Enumerable.sol\":2431:2455  return _allTokens[index] */\n                  swap1\n                  pop\n                    /* \"@openzeppelin/contracts/token/ERC721/extensions/ERC721Enumerable.sol\":2236:2462  function tokenByIndex(uint256 index) public view virtual returns (uint256) {... */\n                  swap2\n                  swap1\n                  pop\n                  jump\t// out\n                    /* \"@openzeppelin/contracts/token/ERC721/ERC721.sol\":2185:2303  function ownerOf(uint256 tokenId) public view virtual returns (address) {... */\n                tag_64:\n                    /* \"@openzeppelin/contracts/token/ERC721/ERC721.sol\":2248:2255  address */\n                  0x00\n                    /* \"@openzeppelin/contracts/token/ERC721/ERC721.sol\":2274:2296  _requireOwned(tokenId) */\n                  tag_104\n                    /* \"@openzeppelin/contracts/token/ERC721/ERC721.sol\":2288:2295  tokenId */\n                  dup3\n                    /* \"@openzeppelin/contracts/token/ERC721/ERC721.sol\":2274:2287  _requireOwned */\n                  tag_115\n                    /* \"@openzeppelin/contracts/token/ERC721/ERC721.sol\":2274:2296  _requireOwned(tokenId) */\n                  jump\t// in\n                    /* \"@openzeppelin/contracts/token/ERC721/ERC721.sol\":1920:2128  function balanceOf(address owner) public view virtual returns (uint256) {... */\n                tag_69:\n                    /* \"@openzeppelin/contracts/token/ERC721/ERC721.sol\":1983:1990  uint256 */\n                  0x00\n                  sub(shl(0xa0, 0x01), 0x01)\n                    /* \"@openzeppelin/contracts/token/ERC721/ERC721.sol\":2006:2025  owner == address(0) */\n                  dup3\n                  and\n                    /* \"@openzeppelin/contracts/token/ERC721/ERC721.sol\":2002:2089  if (owner == address(0)) {... */\n                  tag_151\n                  jumpi\n                    /* \"@openzeppelin/contracts/token/ERC721/ERC721.sol\":2075:2076  0 */\n                  0x00\n                    /* \"@openzeppelin/contracts/token/ERC721/ERC721.sol\":2048:2078  ERC721InvalidOwner(address(0)) */\n                  mload(0x40)\n                  shl(0xe2, 0x22718ad9)\n                  dup2\n                  mstore\n                  0x04\n                  add\n                  tag_126\n                  swap2\n                  swap1\n                  tag_38\n                  jump\t// in\n                    /* \"@openzeppelin/contracts/token/ERC721/ERC721.sol\":2002:2089  if (owner == address(0)) {... */\n                tag_151:\n                  pop\n                  sub(shl(0xa0, 0x01), 0x01)\n                    /* \"@openzeppelin/contracts/token/ERC721/ERC721.sol\":2105:2121  _balances[owner] */\n                  and\n                  0x00\n                  swap1\n                  dup2\n                  mstore\n                    /* \"@openzeppelin/contracts/token/ERC721/ERC721.sol\":2105:2114  _balances */\n                  0x03\n                    /* \"@openzeppelin/contracts/token/ERC721/ERC721.sol\":2105:2121  _balances[owner] */\n                  0x20\n                  mstore\n                  0x40\n                  swap1\n                  keccak256\n                  sload\n                  swap1\n                    /* \"@openzeppelin/contracts/token/ERC721/ERC721.sol\":1920:2128  function balanceOf(address owner) public view virtual returns (uint256) {... */\n                  jump\t// out\n                    /* \"@openzeppelin/contracts/access/Ownable.sol\":2293:2394  function renounceOwnership() public virtual onlyOwner {... */\n                tag_72:\n                    /* \"@openzeppelin/contracts/access/Ownable.sol\":1531:1544  _checkOwner() */\n                  tag_154\n                    /* \"@openzeppelin/contracts/access/Ownable.sol\":1531:1542  _checkOwner */\n                  tag_155\n                    /* \"@openzeppelin/contracts/access/Ownable.sol\":1531:1544  _checkOwner() */\n                  jump\t// in\n                tag_154:\n                    /* \"@openzeppelin/contracts/access/Ownable.sol\":2357:2387  _transferOwnership(address(0)) */\n                  tag_157\n                    /* \"@openzeppelin/contracts/access/Ownable.sol\":2384:2385  0 */\n                  0x00\n                    /* \"@openzeppelin/contracts/access/Ownable.sol\":2357:2375  _transferOwnership */\n                  tag_158\n                    /* \"@openzeppelin/contracts/access/Ownable.sol\":2357:2387  _transferOwnership(address(0)) */\n                  jump\t// in\n                tag_157:\n                    /* \"@openzeppelin/contracts/access/Ownable.sol\":2293:2394  function renounceOwnership() public virtual onlyOwner {... */\n                  jump\t// out\n                    /* \"@openzeppelin/contracts/access/Ownable.sol\":1638:1723  function owner() public view virtual returns (address) {... */\n                tag_74:\n                    /* \"@openzeppelin/contracts/access/Ownable.sol\":1710:1716  _owner */\n                  and(sub(shl(0xa0, 0x01), 0x01), sload(0x0b))\n                  swap1\n                    /* \"@openzeppelin/contracts/access/Ownable.sol\":1638:1723  function owner() public view virtual returns (address) {... */\n                  jump\t// out\n                    /* \"@openzeppelin/contracts/token/ERC721/ERC721.sol\":2518:2611  function symbol() public view virtual returns (string memory) {... */\n                tag_77:\n                    /* \"@openzeppelin/contracts/token/ERC721/ERC721.sol\":2565:2578  string memory */\n                  0x60\n                    /* \"@openzeppelin/contracts/token/ERC721/ERC721.sol\":2597:2604  _symbol */\n                  0x01\n                    /* \"@openzeppelin/contracts/token/ERC721/ERC721.sol\":2590:2604  return _symbol */\n                  dup1\n                  sload\n                  tag_107\n                  swap1\n                  tag_108\n                  jump\t// in\n                    /* \"@openzeppelin/contracts/token/ERC721/ERC721.sol\":3718:3862  function setApprovalForAll(address operator, bool approved) public virtual {... */\n                tag_82:\n                    /* \"@openzeppelin/contracts/token/ERC721/ERC721.sol\":3803:3855  _setApprovalForAll(_msgSender(), operator, approved) */\n                  tag_119\n                    /* \"@openzeppelin/contracts/utils/Context.sol\":735:745  msg.sender */\n                  caller\n                    /* \"@openzeppelin/contracts/token/ERC721/ERC721.sol\":3836:3844  operator */\n                  dup4\n                    /* \"@openzeppelin/contracts/token/ERC721/ERC721.sol\":3846:3854  approved */\n                  dup4\n                    /* \"@openzeppelin/contracts/token/ERC721/ERC721.sol\":3803:3821  _setApprovalForAll */\n                  tag_169\n                    /* \"@openzeppelin/contracts/token/ERC721/ERC721.sol\":3803:3855  _setApprovalForAll(_msgSender(), operator, approved) */\n                  jump\t// in\n                    /* \"@openzeppelin/contracts/token/ERC721/ERC721.sol\":4985:5193  function safeTransferFrom(address from, address to, uint256 tokenId, bytes memory data) public virtual {... */\n                tag_86:\n                    /* \"@openzeppelin/contracts/token/ERC721/ERC721.sol\":5098:5129  transferFrom(from, to, tokenId) */\n                  tag_171\n                    /* \"@openzeppelin/contracts/token/ERC721/ERC721.sol\":5111:5115  from */\n                  dup5\n                    /* \"@openzeppelin/contracts/token/ERC721/ERC721.sol\":5117:5119  to */\n                  dup5\n                    /* \"@openzeppelin/contracts/token/ERC721/ERC721.sol\":5121:5128  tokenId */\n                  dup5\n                    /* \"@openzeppelin/contracts/token/ERC721/ERC721.sol\":5098:5110  transferFrom */\n                  tag_50\n                    /* \"@openzeppelin/contracts/token/ERC721/ERC721.sol\":5098:5129  transferFrom(from, to, tokenId) */\n                  jump\t// in\n                tag_171:\n                    /* \"@openzeppelin/contracts/token/ERC721/ERC721.sol\":5139:5186  _checkOnERC721Received(from, to, tokenId, data) */\n                  tag_130\n                    /* \"@openzeppelin/contracts/token/ERC721/ERC721.sol\":5162:5166  from */\n                  dup5\n                    /* \"@openzeppelin/contracts/token/ERC721/ERC721.sol\":5168:5170  to */\n                  dup5\n                    /* \"@openzeppelin/contracts/token/ERC721/ERC721.sol\":5172:5179  tokenId */\n                  dup5\n                    /* \"@openzeppelin/contracts/token/ERC721/ERC721.sol\":5181:5185  data */\n                  dup5\n                    /* \"@openzeppelin/contracts/token/ERC721/ERC721.sol\":5139:5161  _checkOnERC721Received */\n                  tag_173\n                    /* \"@openzeppelin/contracts/token/ERC721/ERC721.sol\":5139:5186  _checkOnERC721Received(from, to, tokenId, data) */\n                  jump\t// in\n                    /* \"ProjectNFT.sol\":1268:1435  function tokenURI(... */\n                tag_89:\n                    /* \"ProjectNFT.sol\":1373:1386  string memory */\n                  0x60\n                    /* \"ProjectNFT.sol\":1405:1428  super.tokenURI(tokenId) */\n                  tag_104\n                    /* \"ProjectNFT.sol\":1420:1427  tokenId */\n                  dup3\n                    /* \"ProjectNFT.sol\":1405:1419  super.tokenURI */\n                  tag_176\n                    /* \"ProjectNFT.sol\":1405:1428  super.tokenURI(tokenId) */\n                  jump\t// in\n                    /* \"ProjectNFT.sol\":612:795  function safeMint(address to, string memory uri) public onlyOwner {... */\n                tag_94:\n                    /* \"@openzeppelin/contracts/access/Ownable.sol\":1531:1544  _checkOwner() */\n                  tag_178\n                    /* \"@openzeppelin/contracts/access/Ownable.sol\":1531:1542  _checkOwner */\n                  tag_155\n                    /* \"@openzeppelin/contracts/access/Ownable.sol\":1531:1544  _checkOwner() */\n                  jump\t// in\n                tag_178:\n                    /* \"ProjectNFT.sol\":706:718  _nextTokenId */\n                  0x0c\n                    /* \"ProjectNFT.sol\":706:720  _nextTokenId++ */\n                  dup1\n                  sload\n                    /* \"ProjectNFT.sol\":688:703  uint256 tokenId */\n                  0x00\n                  swap2\n                  dup3\n                    /* \"ProjectNFT.sol\":706:720  _nextTokenId++ */\n                  tag_180\n                  dup4\n                  tag_181\n                  jump\t// in\n                tag_180:\n                  swap2\n                  swap1\n                  pop\n                  sstore\n                    /* \"ProjectNFT.sol\":688:720  uint256 tokenId = _nextTokenId++ */\n                  swap1\n                  pop\n                    /* \"ProjectNFT.sol\":730:752  _safeMint(to, tokenId) */\n                  tag_182\n                    /* \"ProjectNFT.sol\":740:742  to */\n                  dup4\n                    /* \"ProjectNFT.sol\":744:751  tokenId */\n                  dup3\n                    /* \"ProjectNFT.sol\":730:739  _safeMint */\n                  tag_183\n                    /* \"ProjectNFT.sol\":730:752  _safeMint(to, tokenId) */\n                  jump\t// in\n                tag_182:\n                    /* \"ProjectNFT.sol\":762:788  _setTokenURI(tokenId, uri) */\n                  tag_139\n                    /* \"ProjectNFT.sol\":775:782  tokenId */\n                  dup2\n                    /* \"ProjectNFT.sol\":784:787  uri */\n                  dup4\n                    /* \"ProjectNFT.sol\":762:774  _setTokenURI */\n                  tag_185\n                    /* \"ProjectNFT.sol\":762:788  _setTokenURI(tokenId, uri) */\n                  jump\t// in\n                    /* \"@openzeppelin/contracts/token/ERC721/ERC721.sol\":3928:4081  function isApprovedForAll(address owner, address operator) public view virtual returns (bool) {... */\n                tag_98:\n                  sub(shl(0xa0, 0x01), 0x01)\n                    /* \"@openzeppelin/contracts/token/ERC721/ERC721.sol\":4039:4064  _operatorApprovals[owner] */\n                  swap2\n                  dup3\n                  and\n                    /* \"@openzeppelin/contracts/token/ERC721/ERC721.sol\":4016:4020  bool */\n                  0x00\n                    /* \"@openzeppelin/contracts/token/ERC721/ERC721.sol\":4039:4064  _operatorApprovals[owner] */\n                  swap1\n                  dup2\n                  mstore\n                    /* \"@openzeppelin/contracts/token/ERC721/ERC721.sol\":4039:4057  _operatorApprovals */\n                  0x05\n                    /* \"@openzeppelin/contracts/token/ERC721/ERC721.sol\":4039:4064  _operatorApprovals[owner] */\n                  0x20\n                  swap1\n                  dup2\n                  mstore\n                  0x40\n                  dup1\n                  dup4\n                  keccak256\n                    /* \"@openzeppelin/contracts/token/ERC721/ERC721.sol\":4039:4074  _operatorApprovals[owner][operator] */\n                  swap4\n                  swap1\n                  swap5\n                  and\n                  dup3\n                  mstore\n                  swap2\n                  swap1\n                  swap2\n                  mstore\n                  keccak256\n                  sload\n                  0xff\n                  and\n                  swap1\n                    /* \"@openzeppelin/contracts/token/ERC721/ERC721.sol\":3928:4081  function isApprovedForAll(address owner, address operator) public view virtual returns (bool) {... */\n                  jump\t// out\n                    /* \"@openzeppelin/contracts/access/Ownable.sol\":2543:2758  function transferOwnership(address newOwner) public virtual onlyOwner {... */\n                tag_102:\n                    /* \"@openzeppelin/contracts/access/Ownable.sol\":1531:1544  _checkOwner() */\n                  tag_188\n                    /* \"@openzeppelin/contracts/access/Ownable.sol\":1531:1542  _checkOwner */\n                  tag_155\n                    /* \"@openzeppelin/contracts/access/Ownable.sol\":1531:1544  _checkOwner() */\n                  jump\t// in\n                tag_188:\n                  sub(shl(0xa0, 0x01), 0x01)\n                    /* \"@openzeppelin/contracts/access/Ownable.sol\":2627:2649  newOwner == address(0) */\n                  dup2\n                  and\n                    /* \"@openzeppelin/contracts/access/Ownable.sol\":2623:2714  if (newOwner == address(0)) {... */\n                  tag_190\n                  jumpi\n                    /* \"@openzeppelin/contracts/access/Ownable.sol\":2700:2701  0 */\n                  0x00\n                    /* \"@openzeppelin/contracts/access/Ownable.sol\":2672:2703  OwnableInvalidOwner(address(0)) */\n                  mload(0x40)\n                  shl(0xe0, 0x1e4fbdf7)\n                  dup2\n                  mstore\n                  0x04\n                  add\n                  tag_126\n                  swap2\n                  swap1\n                  tag_38\n                  jump\t// in\n                    /* \"@openzeppelin/contracts/access/Ownable.sol\":2623:2714  if (newOwner == address(0)) {... */\n                tag_190:\n                    /* \"@openzeppelin/contracts/access/Ownable.sol\":2723:2751  _transferOwnership(newOwner) */\n                  tag_192\n                    /* \"@openzeppelin/contracts/access/Ownable.sol\":2742:2750  newOwner */\n                  dup2\n                    /* \"@openzeppelin/contracts/access/Ownable.sol\":2723:2741  _transferOwnership */\n                  tag_158\n                    /* \"@openzeppelin/contracts/access/Ownable.sol\":2723:2751  _transferOwnership(newOwner) */\n                  jump\t// in\n                tag_192:\n                    /* \"@openzeppelin/contracts/access/Ownable.sol\":2543:2758  function transferOwnership(address newOwner) public virtual onlyOwner {... */\n                  pop\n                  jump\t// out\n                    /* \"@openzeppelin/contracts/token/ERC721/extensions/ERC721URIStorage.sol\":937:1144  function supportsInterface(bytes4 interfaceId) public view virtual override(ERC721, IERC165) returns (bool) {... */\n                tag_105:\n                    /* \"@openzeppelin/contracts/token/ERC721/extensions/ERC721URIStorage.sol\":1039:1043  bool */\n                  0x00\n                  not(sub(shl(0xe0, 0x01), 0x01))\n                    /* \"@openzeppelin/contracts/token/ERC721/extensions/ERC721URIStorage.sol\":1062:1097  interfaceId == ERC4906_INTERFACE_ID */\n                  dup3\n                  and\n                  shl(0xe1, 0x24832483)\n                  eq\n                  dup1\n                    /* \"@openzeppelin/contracts/token/ERC721/extensions/ERC721URIStorage.sol\":1062:1137  interfaceId == ERC4906_INTERFACE_ID || super.supportsInterface(interfaceId) */\n                  tag_104\n                  jumpi\n                  pop\n                    /* \"@openzeppelin/contracts/token/ERC721/extensions/ERC721URIStorage.sol\":1101:1137  super.supportsInterface(interfaceId) */\n                  tag_104\n                    /* \"@openzeppelin/contracts/token/ERC721/extensions/ERC721URIStorage.sol\":1125:1136  interfaceId */\n                  dup3\n                    /* \"@openzeppelin/contracts/token/ERC721/extensions/ERC721URIStorage.sol\":1101:1124  super.supportsInterface */\n                  tag_196\n                    /* \"@openzeppelin/contracts/token/ERC721/extensions/ERC721URIStorage.sol\":1101:1137  super.supportsInterface(interfaceId) */\n                  jump\t// in\n                    /* \"@openzeppelin/contracts/token/ERC721/ERC721.sol\":16138:16379  function _requireOwned(uint256 tokenId) internal view returns (address) {... */\n                tag_115:\n                    /* \"@openzeppelin/contracts/token/ERC721/ERC721.sol\":16201:16208  address */\n                  0x00\n                    /* \"@openzeppelin/contracts/token/ERC721/ERC721.sol\":16220:16233  address owner */\n                  dup1\n                    /* \"@openzeppelin/contracts/token/ERC721/ERC721.sol\":16236:16253  _ownerOf(tokenId) */\n                  tag_198\n                    /* \"@openzeppelin/contracts/token/ERC721/ERC721.sol\":16245:16252  tokenId */\n                  dup4\n                    /* \"@openzeppelin/contracts/token/ERC721/ERC721.sol\":16236:16244  _ownerOf */\n                  tag_199\n                    /* \"@openzeppelin/contracts/token/ERC721/ERC721.sol\":16236:16253  _ownerOf(tokenId) */\n                  jump\t// in\n                tag_198:\n                    /* \"@openzeppelin/contracts/token/ERC721/ERC721.sol\":16220:16253  address owner = _ownerOf(tokenId) */\n                  swap1\n                  pop\n                  sub(shl(0xa0, 0x01), 0x01)\n                    /* \"@openzeppelin/contracts/token/ERC721/ERC721.sol\":16267:16286  owner == address(0) */\n                  dup2\n                  and\n                    /* \"@openzeppelin/contracts/token/ERC721/ERC721.sol\":16263:16351  if (owner == address(0)) {... */\n                  tag_104\n                  jumpi\n                    /* \"@openzeppelin/contracts/token/ERC721/ERC721.sol\":16309:16340  ERC721NonexistentToken(tokenId) */\n                  mload(0x40)\n                  shl(0xe0, 0x7e273289)\n                  dup2\n                  mstore\n                  0x04\n                  dup2\n                  add\n                    /* \"#utility.yul\":2324:2349   */\n                  dup5\n                  swap1\n                  mstore\n                    /* \"#utility.yul\":2297:2315   */\n                  0x24\n                  add\n                    /* \"@openzeppelin/contracts/token/ERC721/ERC721.sol\":16309:16340  ERC721NonexistentToken(tokenId) */\n                  tag_126\n                    /* \"#utility.yul\":2178:2355   */\n                  jump\n                    /* \"@openzeppelin/contracts/token/ERC721/ERC721.sol\":5938:6065  function _getApproved(uint256 tokenId) internal view virtual returns (address) {... */\n                tag_117:\n                    /* \"@openzeppelin/contracts/token/ERC721/ERC721.sol\":6008:6015  address */\n                  0x00\n                    /* \"@openzeppelin/contracts/token/ERC721/ERC721.sol\":6034:6058  _tokenApprovals[tokenId] */\n                  swap1\n                  dup2\n                  mstore\n                    /* \"@openzeppelin/contracts/token/ERC721/ERC721.sol\":6034:6049  _tokenApprovals */\n                  0x04\n                    /* \"@openzeppelin/contracts/token/ERC721/ERC721.sol\":6034:6058  _tokenApprovals[tokenId] */\n                  0x20\n                  mstore\n                  0x40\n                  swap1\n                  keccak256\n                  sload\n                  sub(shl(0xa0, 0x01), 0x01)\n                  and\n                  swap1\n                    /* \"@openzeppelin/contracts/token/ERC721/ERC721.sol\":5938:6065  function _getApproved(uint256 tokenId) internal view virtual returns (address) {... */\n                  jump\t// out\n                    /* \"@openzeppelin/contracts/token/ERC721/ERC721.sol\":14418:14538  function _approve(address to, uint256 tokenId, address auth) internal {... */\n                tag_122:\n                    /* \"@openzeppelin/contracts/token/ERC721/ERC721.sol\":14498:14531  _approve(to, tokenId, auth, true) */\n                  tag_139\n                    /* \"@openzeppelin/contracts/token/ERC721/ERC721.sol\":14507:14509  to */\n                  dup4\n                    /* \"@openzeppelin/contracts/token/ERC721/ERC721.sol\":14511:14518  tokenId */\n                  dup4\n                    /* \"@openzeppelin/contracts/token/ERC721/ERC721.sol\":14520:14524  auth */\n                  dup4\n                    /* \"@openzeppelin/contracts/token/ERC721/ERC721.sol\":14526:14530  true */\n                  0x01\n                    /* \"@openzeppelin/contracts/token/ERC721/ERC721.sol\":14498:14506  _approve */\n                  tag_206\n                    /* \"@openzeppelin/contracts/token/ERC721/ERC721.sol\":14498:14531  _approve(to, tokenId, auth, true) */\n                  jump\t// in\n                    /* \"ProjectNFT.sol\":869:1077  function _update(... */\n                tag_129:\n                    /* \"ProjectNFT.sol\":1012:1019  address */\n                  0x00\n                    /* \"ProjectNFT.sol\":1038:1070  super._update(to, tokenId, auth) */\n                  tag_208\n                    /* \"ProjectNFT.sol\":1052:1054  to */\n                  dup5\n                    /* \"ProjectNFT.sol\":1056:1063  tokenId */\n                  dup5\n                    /* \"ProjectNFT.sol\":1065:1069  auth */\n                  dup5\n                    /* \"ProjectNFT.sol\":1038:1051  super._update */\n                  tag_209\n                    /* \"ProjectNFT.sol\":1038:1070  super._update(to, tokenId, auth) */\n                  jump\t// in\n                tag_208:\n                    /* \"ProjectNFT.sol\":1031:1070  return super._update(to, tokenId, auth) */\n                  swap5\n                    /* \"ProjectNFT.sol\":869:1077  function _update(... */\n                  swap4\n                  pop\n                  pop\n                  pop\n                  pop\n                  jump\t// out\n                    /* \"@openzeppelin/contracts/access/Ownable.sol\":1796:1958  function _checkOwner() internal view virtual {... */\n                tag_155:\n                    /* \"@openzeppelin/contracts/utils/Context.sol\":735:745  msg.sender */\n                  caller\n                    /* \"@openzeppelin/contracts/access/Ownable.sol\":1855:1862  owner() */\n                  tag_212\n                    /* \"@openzeppelin/contracts/access/Ownable.sol\":1855:1860  owner */\n                  tag_74\n                    /* \"@openzeppelin/contracts/access/Ownable.sol\":1855:1862  owner() */\n                  jump\t// in\n                tag_212:\n                  sub(shl(0xa0, 0x01), 0x01)\n                    /* \"@openzeppelin/contracts/access/Ownable.sol\":1855:1878  owner() != _msgSender() */\n                  and\n                  eq\n                    /* \"@openzeppelin/contracts/access/Ownable.sol\":1851:1952  if (owner() != _msgSender()) {... */\n                  tag_157\n                  jumpi\n                    /* \"@openzeppelin/contracts/utils/Context.sol\":735:745  msg.sender */\n                  caller\n                    /* \"@openzeppelin/contracts/access/Ownable.sol\":1901:1941  OwnableUnauthorizedAccount(_msgSender()) */\n                  mload(0x40)\n                  shl(0xe0, 0x118cdaa7)\n                  dup2\n                  mstore\n                  0x04\n                  add\n                  tag_126\n                  swap2\n                  swap1\n                  tag_38\n                  jump\t// in\n                    /* \"@openzeppelin/contracts/access/Ownable.sol\":2912:3099  function _transferOwnership(address newOwner) internal virtual {... */\n                tag_158:\n                    /* \"@openzeppelin/contracts/access/Ownable.sol\":3004:3010  _owner */\n                  0x0b\n                  dup1\n                  sload\n                  sub(shl(0xa0, 0x01), 0x01)\n                    /* \"@openzeppelin/contracts/access/Ownable.sol\":3020:3037  _owner = newOwner */\n                  dup4\n                  dup2\n                  and\n                  not(sub(shl(0xa0, 0x01), 0x01))\n                  dup4\n                  and\n                  dup2\n                  or\n                  swap1\n                  swap4\n                  sstore\n                    /* \"@openzeppelin/contracts/access/Ownable.sol\":3052:3092  OwnershipTransferred(oldOwner, newOwner) */\n                  mload(0x40)\n                    /* \"@openzeppelin/contracts/access/Ownable.sol\":3004:3010  _owner */\n                  swap2\n                  and\n                  swap2\n                    /* \"@openzeppelin/contracts/access/Ownable.sol\":3020:3037  _owner = newOwner */\n                  swap1\n                    /* \"@openzeppelin/contracts/access/Ownable.sol\":3004:3010  _owner */\n                  dup3\n                  swap1\n                    /* \"@openzeppelin/contracts/access/Ownable.sol\":3052:3092  OwnershipTransferred(oldOwner, newOwner) */\n                  0x8be0079c531659141344cd1fd0a4f28419497f9722a3daafe3b4186f6b6457e0\n                  swap1\n                    /* \"@openzeppelin/contracts/access/Ownable.sol\":2985:3001  address oldOwner */\n                  0x00\n                  swap1\n                    /* \"@openzeppelin/contracts/access/Ownable.sol\":3052:3092  OwnershipTransferred(oldOwner, newOwner) */\n                  log3\n                    /* \"@openzeppelin/contracts/access/Ownable.sol\":2975:3099  {... */\n                  pop\n                    /* \"@openzeppelin/contracts/access/Ownable.sol\":2912:3099  function _transferOwnership(address newOwner) internal virtual {... */\n                  pop\n                  jump\t// out\n                    /* \"@openzeppelin/contracts/token/ERC721/ERC721.sol\":15591:15903  function _setApprovalForAll(address owner, address operator, bool approved) internal virtual {... */\n                tag_169:\n                  sub(shl(0xa0, 0x01), 0x01)\n                    /* \"@openzeppelin/contracts/token/ERC721/ERC721.sol\":15698:15720  operator == address(0) */\n                  dup3\n                  and\n                    /* \"@openzeppelin/contracts/token/ERC721/ERC721.sol\":15694:15785  if (operator == address(0)) {... */\n                  tag_218\n                  jumpi\n                    /* \"@openzeppelin/contracts/token/ERC721/ERC721.sol\":15765:15773  operator */\n                  dup2\n                    /* \"@openzeppelin/contracts/token/ERC721/ERC721.sol\":15743:15774  ERC721InvalidOperator(operator) */\n                  mload(0x40)\n                  shl(0xe3, 0x0b611743)\n                  dup2\n                  mstore\n                  0x04\n                  add\n                  tag_126\n                  swap2\n                  swap1\n                  tag_38\n                  jump\t// in\n                    /* \"@openzeppelin/contracts/token/ERC721/ERC721.sol\":15694:15785  if (operator == address(0)) {... */\n                tag_218:\n                  sub(shl(0xa0, 0x01), 0x01)\n                    /* \"@openzeppelin/contracts/token/ERC721/ERC721.sol\":15794:15819  _operatorApprovals[owner] */\n                  dup4\n                  dup2\n                  and\n                  0x00\n                  dup2\n                  dup2\n                  mstore\n                    /* \"@openzeppelin/contracts/token/ERC721/ERC721.sol\":15794:15812  _operatorApprovals */\n                  0x05\n                    /* \"@openzeppelin/contracts/token/ERC721/ERC721.sol\":15794:15819  _operatorApprovals[owner] */\n                  0x20\n                  swap1\n                  dup2\n                  mstore\n                  0x40\n                  dup1\n                  dup4\n                  keccak256\n                    /* \"@openzeppelin/contracts/token/ERC721/ERC721.sol\":15794:15829  _operatorApprovals[owner][operator] */\n                  swap5\n                  dup8\n                  and\n                  dup1\n                  dup5\n                  mstore\n                  swap5\n                  dup3\n                  mstore\n                  swap2\n                  dup3\n                  swap1\n                  keccak256\n                    /* \"@openzeppelin/contracts/token/ERC721/ERC721.sol\":15794:15840  _operatorApprovals[owner][operator] = approved */\n                  dup1\n                  sload\n                  not(0xff)\n                  and\n                  dup7\n                  iszero\n                  iszero\n                  swap1\n                  dup2\n                  or\n                  swap1\n                  swap2\n                  sstore\n                    /* \"@openzeppelin/contracts/token/ERC721/ERC721.sol\":15855:15896  ApprovalForAll(owner, operator, approved) */\n                  swap2\n                  mload\n                    /* \"#utility.yul\":540:581   */\n                  swap2\n                  dup3\n                  mstore\n                    /* \"@openzeppelin/contracts/token/ERC721/ERC721.sol\":15855:15896  ApprovalForAll(owner, operator, approved) */\n                  0x17307eab39ab6107e8899845ad3d59bd9653f200f220920489ca2b5937696c31\n                  swap2\n                    /* \"#utility.yul\":513:531   */\n                  add\n                    /* \"@openzeppelin/contracts/token/ERC721/ERC721.sol\":15855:15896  ApprovalForAll(owner, operator, approved) */\n                  mload(0x40)\n                  dup1\n                  swap2\n                  sub\n                  swap1\n                  log3\n                    /* \"@openzeppelin/contracts/token/ERC721/ERC721.sol\":15591:15903  function _setApprovalForAll(address owner, address operator, bool approved) internal virtual {... */\n                  pop\n                  pop\n                  pop\n                  jump\t// out\n                    /* \"@openzeppelin/contracts/token/ERC721/ERC721.sol\":16918:17700  function _checkOnERC721Received(address from, address to, uint256 tokenId, bytes memory data) private {... */\n                tag_173:\n                  sub(shl(0xa0, 0x01), 0x01)\n                    /* \"@openzeppelin/contracts/token/ERC721/ERC721.sol\":17034:17048  to.code.length */\n                  dup4\n                  and\n                  extcodesize\n                    /* \"@openzeppelin/contracts/token/ERC721/ERC721.sol\":17034:17052  to.code.length > 0 */\n                  iszero\n                    /* \"@openzeppelin/contracts/token/ERC721/ERC721.sol\":17030:17694  if (to.code.length > 0) {... */\n                  tag_130\n                  jumpi\n                    /* \"@openzeppelin/contracts/token/ERC721/ERC721.sol\":17072:17143  IERC721Receiver(to).onERC721Received(_msgSender(), from, tokenId, data) */\n                  mload(0x40)\n                  shl(0xe1, 0x0a85bd01)\n                  dup2\n                  mstore\n                  sub(shl(0xa0, 0x01), 0x01)\n                    /* \"@openzeppelin/contracts/token/ERC721/ERC721.sol\":17072:17108  IERC721Receiver(to).onERC721Received */\n                  dup5\n                  and\n                  swap1\n                  0x150b7a02\n                  swap1\n                    /* \"@openzeppelin/contracts/token/ERC721/ERC721.sol\":17072:17143  IERC721Receiver(to).onERC721Received(_msgSender(), from, tokenId, data) */\n                  tag_224\n                  swap1\n                    /* \"@openzeppelin/contracts/utils/Context.sol\":735:745  msg.sender */\n                  caller\n                  swap1\n                    /* \"@openzeppelin/contracts/token/ERC721/ERC721.sol\":17123:17127  from */\n                  dup9\n                  swap1\n                    /* \"@openzeppelin/contracts/token/ERC721/ERC721.sol\":17129:17136  tokenId */\n                  dup8\n                  swap1\n                    /* \"@openzeppelin/contracts/token/ERC721/ERC721.sol\":17138:17142  data */\n                  dup8\n                  swap1\n                    /* \"@openzeppelin/contracts/token/ERC721/ERC721.sol\":17072:17143  IERC721Receiver(to).onERC721Received(_msgSender(), from, tokenId, data) */\n                  0x04\n                  add\n                  tag_225\n                  jump\t// in\n                tag_224:\n                  0x20\n                  mload(0x40)\n                  dup1\n                  dup4\n                  sub\n                  dup2\n                  0x00\n                  dup8\n                  gas\n                  call\n                  swap3\n                  pop\n                  pop\n                  pop\n                  dup1\n                  iszero\n                  tag_226\n                  jumpi\n                  pop\n                  0x40\n                  dup1\n                  mload\n                  0x1f\n                  returndatasize\n                  swap1\n                  dup2\n                  add\n                  not(0x1f)\n                  and\n                  dup3\n                  add\n                  swap1\n                  swap3\n                  mstore\n                  tag_227\n                  swap2\n                  dup2\n                  add\n                  swap1\n                  tag_228\n                  jump\t// in\n                tag_227:\n                  0x01\n                tag_226:\n                    /* \"@openzeppelin/contracts/token/ERC721/ERC721.sol\":17068:17684  try IERC721Receiver(to).onERC721Received(_msgSender(), from, tokenId, data) returns (bytes4 retval) {... */\n                  tag_229\n                  jumpi\n                  returndatasize\n                  dup1\n                  dup1\n                  iszero\n                  tag_234\n                  jumpi\n                  mload(0x40)\n                  swap2\n                  pop\n                  and(add(returndatasize, 0x3f), not(0x1f))\n                  dup3\n                  add\n                  0x40\n                  mstore\n                  returndatasize\n                  dup3\n                  mstore\n                  returndatasize\n                  0x00\n                  0x20\n                  dup5\n                  add\n                  returndatacopy\n                  jump(tag_233)\n                tag_234:\n                  0x60\n                  swap2\n                  pop\n                tag_233:\n                  pop\n                    /* \"@openzeppelin/contracts/token/ERC721/ERC721.sol\":17381:17387  reason */\n                  dup1\n                    /* \"@openzeppelin/contracts/token/ERC721/ERC721.sol\":17381:17394  reason.length */\n                  mload\n                    /* \"@openzeppelin/contracts/token/ERC721/ERC721.sol\":17398:17399  0 */\n                  0x00\n                    /* \"@openzeppelin/contracts/token/ERC721/ERC721.sol\":17381:17399  reason.length == 0 */\n                  sub\n                    /* \"@openzeppelin/contracts/token/ERC721/ERC721.sol\":17377:17670  if (reason.length == 0) {... */\n                  tag_235\n                  jumpi\n                    /* \"@openzeppelin/contracts/token/ERC721/ERC721.sol\":17452:17454  to */\n                  dup4\n                    /* \"@openzeppelin/contracts/token/ERC721/ERC721.sol\":17430:17455  ERC721InvalidReceiver(to) */\n                  mload(0x40)\n                  shl(0xe1, 0x32505749)\n                  dup2\n                  mstore\n                  0x04\n                  add\n                  tag_126\n                  swap2\n                  swap1\n                  tag_38\n                  jump\t// in\n                    /* \"@openzeppelin/contracts/token/ERC721/ERC721.sol\":17377:17670  if (reason.length == 0) {... */\n                tag_235:\n                    /* \"@openzeppelin/contracts/token/ERC721/ERC721.sol\":17622:17628  reason */\n                  dup1\n                    /* \"@openzeppelin/contracts/token/ERC721/ERC721.sol\":17616:17629  mload(reason) */\n                  mload\n                    /* \"@openzeppelin/contracts/token/ERC721/ERC721.sol\":17607:17613  reason */\n                  dup2\n                    /* \"@openzeppelin/contracts/token/ERC721/ERC721.sol\":17603:17605  32 */\n                  0x20\n                    /* \"@openzeppelin/contracts/token/ERC721/ERC721.sol\":17599:17614  add(32, reason) */\n                  add\n                    /* \"@openzeppelin/contracts/token/ERC721/ERC721.sol\":17592:17630  revert(add(32, reason), mload(reason)) */\n                  revert\n                    /* \"@openzeppelin/contracts/token/ERC721/ERC721.sol\":17068:17684  try IERC721Receiver(to).onERC721Received(_msgSender(), from, tokenId, data) returns (bytes4 retval) {... */\n                tag_229:\n                  not(sub(shl(0xe0, 0x01), 0x01))\n                    /* \"@openzeppelin/contracts/token/ERC721/ERC721.sol\":17190:17241  retval != IERC721Receiver.onERC721Received.selector */\n                  dup2\n                  and\n                  shl(0xe1, 0x0a85bd01)\n                  eq\n                    /* \"@openzeppelin/contracts/token/ERC721/ERC721.sol\":17186:17316  if (retval != IERC721Receiver.onERC721Received.selector) {... */\n                  tag_239\n                  jumpi\n                    /* \"@openzeppelin/contracts/token/ERC721/ERC721.sol\":17294:17296  to */\n                  dup4\n                    /* \"@openzeppelin/contracts/token/ERC721/ERC721.sol\":17272:17297  ERC721InvalidReceiver(to) */\n                  mload(0x40)\n                  shl(0xe1, 0x32505749)\n                  dup2\n                  mstore\n                  0x04\n                  add\n                  tag_126\n                  swap2\n                  swap1\n                  tag_38\n                  jump\t// in\n                    /* \"@openzeppelin/contracts/token/ERC721/ERC721.sol\":17186:17316  if (retval != IERC721Receiver.onERC721Received.selector) {... */\n                tag_239:\n                    /* \"@openzeppelin/contracts/token/ERC721/ERC721.sol\":17144:17330  returns (bytes4 retval) {... */\n                  pop\n                    /* \"@openzeppelin/contracts/token/ERC721/ERC721.sol\":16918:17700  function _checkOnERC721Received(address from, address to, uint256 tokenId, bytes memory data) private {... */\n                  pop\n                  pop\n                  pop\n                  pop\n                  jump\t// out\n                    /* \"@openzeppelin/contracts/token/ERC721/extensions/ERC721URIStorage.sol\":1210:1803  function tokenURI(uint256 tokenId) public view virtual override returns (string memory) {... */\n                tag_176:\n                    /* \"@openzeppelin/contracts/token/ERC721/extensions/ERC721URIStorage.sol\":1283:1296  string memory */\n                  0x60\n                    /* \"@openzeppelin/contracts/token/ERC721/extensions/ERC721URIStorage.sol\":1308:1330  _requireOwned(tokenId) */\n                  tag_242\n                    /* \"@openzeppelin/contracts/token/ERC721/extensions/ERC721URIStorage.sol\":1322:1329  tokenId */\n                  dup3\n                    /* \"@openzeppelin/contracts/token/ERC721/extensions/ERC721URIStorage.sol\":1308:1321  _requireOwned */\n                  tag_115\n                    /* \"@openzeppelin/contracts/token/ERC721/extensions/ERC721URIStorage.sol\":1308:1330  _requireOwned(tokenId) */\n                  jump\t// in\n                tag_242:\n                  pop\n                    /* \"@openzeppelin/contracts/token/ERC721/extensions/ERC721URIStorage.sol\":1341:1364  string memory _tokenURI */\n                  0x00\n                    /* \"@openzeppelin/contracts/token/ERC721/extensions/ERC721URIStorage.sol\":1367:1386  _tokenURIs[tokenId] */\n                  dup3\n                  dup2\n                  mstore\n                    /* \"@openzeppelin/contracts/token/ERC721/extensions/ERC721URIStorage.sol\":1367:1377  _tokenURIs */\n                  0x0a\n                    /* \"@openzeppelin/contracts/token/ERC721/extensions/ERC721URIStorage.sol\":1367:1386  _tokenURIs[tokenId] */\n                  0x20\n                  mstore\n                  0x40\n                  dup2\n                  keccak256\n                    /* \"@openzeppelin/contracts/token/ERC721/extensions/ERC721URIStorage.sol\":1341:1386  string memory _tokenURI = _tokenURIs[tokenId] */\n                  dup1\n                  sload\n                  tag_243\n                  swap1\n                  tag_108\n                  jump\t// in\n                tag_243:\n                  dup1\n                  0x1f\n                  add\n                  0x20\n                  dup1\n                  swap2\n                  div\n                  mul\n                  0x20\n                  add\n                  mload(0x40)\n                  swap1\n                  dup2\n                  add\n                  0x40\n                  mstore\n                  dup1\n                  swap3\n                  swap2\n                  swap1\n                  dup2\n                  dup2\n                  mstore\n                  0x20\n                  add\n                  dup3\n                  dup1\n                  sload\n                  tag_244\n                  swap1\n                  tag_108\n                  jump\t// in\n                tag_244:\n                  dup1\n                  iszero\n                  tag_245\n                  jumpi\n                  dup1\n                  0x1f\n                  lt\n                  tag_246\n                  jumpi\n                  0x0100\n                  dup1\n                  dup4\n                  sload\n                  div\n                  mul\n                  dup4\n                  mstore\n                  swap2\n                  0x20\n                  add\n                  swap2\n                  jump(tag_245)\n                tag_246:\n                  dup3\n                  add\n                  swap2\n                  swap1\n                  0x00\n                  mstore\n                  keccak256(0x00, 0x20)\n                  swap1\n                tag_247:\n                  dup2\n                  sload\n                  dup2\n                  mstore\n                  swap1\n                  0x01\n                  add\n                  swap1\n                  0x20\n                  add\n                  dup1\n                  dup4\n                  gt\n                  tag_247\n                  jumpi\n                  dup3\n                  swap1\n                  sub\n                  0x1f\n                  and\n                  dup3\n                  add\n                  swap2\n                tag_245:\n                  pop\n                  pop\n                  pop\n                  pop\n                  pop\n                  swap1\n                  pop\n                    /* \"@openzeppelin/contracts/token/ERC721/extensions/ERC721URIStorage.sol\":1396:1414  string memory base */\n                  0x00\n                    /* \"@openzeppelin/contracts/token/ERC721/extensions/ERC721URIStorage.sol\":1417:1427  _baseURI() */\n                  tag_248\n                    /* \"@openzeppelin/contracts/token/ERC721/ERC721.sol\":3250:3259  return \"\" */\n                  0x40\n                  dup1\n                  mload\n                  0x20\n                  dup2\n                  add\n                  swap1\n                  swap2\n                  mstore\n                  0x00\n                  dup2\n                  mstore\n                  swap1\n                    /* \"@openzeppelin/contracts/token/ERC721/ERC721.sol\":3174:3266  function _baseURI() internal view virtual returns (string memory) {... */\n                  jump\n                    /* \"@openzeppelin/contracts/token/ERC721/extensions/ERC721URIStorage.sol\":1417:1427  _baseURI() */\n                tag_248:\n                    /* \"@openzeppelin/contracts/token/ERC721/extensions/ERC721URIStorage.sol\":1396:1427  string memory base = _baseURI() */\n                  swap1\n                  pop\n                    /* \"@openzeppelin/contracts/token/ERC721/extensions/ERC721URIStorage.sol\":1506:1510  base */\n                  dup1\n                    /* \"@openzeppelin/contracts/token/ERC721/extensions/ERC721URIStorage.sol\":1500:1518  bytes(base).length */\n                  mload\n                    /* \"@openzeppelin/contracts/token/ERC721/extensions/ERC721URIStorage.sol\":1522:1523  0 */\n                  0x00\n                    /* \"@openzeppelin/contracts/token/ERC721/extensions/ERC721URIStorage.sol\":1500:1523  bytes(base).length == 0 */\n                  sub\n                    /* \"@openzeppelin/contracts/token/ERC721/extensions/ERC721URIStorage.sol\":1496:1566  if (bytes(base).length == 0) {... */\n                  tag_250\n                  jumpi\n                  pop\n                    /* \"@openzeppelin/contracts/token/ERC721/extensions/ERC721URIStorage.sol\":1546:1555  _tokenURI */\n                  swap3\n                    /* \"@openzeppelin/contracts/token/ERC721/extensions/ERC721URIStorage.sol\":1210:1803  function tokenURI(uint256 tokenId) public view virtual override returns (string memory) {... */\n                  swap2\n                  pop\n                  pop\n                  jump\t// out\n                    /* \"@openzeppelin/contracts/token/ERC721/extensions/ERC721URIStorage.sol\":1496:1566  if (bytes(base).length == 0) {... */\n                tag_250:\n                    /* \"@openzeppelin/contracts/token/ERC721/extensions/ERC721URIStorage.sol\":1665:1688  bytes(_tokenURI).length */\n                  dup2\n                  mload\n                    /* \"@openzeppelin/contracts/token/ERC721/extensions/ERC721URIStorage.sol\":1665:1692  bytes(_tokenURI).length > 0 */\n                  iszero\n                    /* \"@openzeppelin/contracts/token/ERC721/extensions/ERC721URIStorage.sol\":1661:1756  if (bytes(_tokenURI).length > 0) {... */\n                  tag_251\n                  jumpi\n                    /* \"@openzeppelin/contracts/token/ERC721/extensions/ERC721URIStorage.sol\":1729:1733  base */\n                  dup1\n                    /* \"@openzeppelin/contracts/token/ERC721/extensions/ERC721URIStorage.sol\":1735:1744  _tokenURI */\n                  dup3\n                    /* \"@openzeppelin/contracts/token/ERC721/extensions/ERC721URIStorage.sol\":1715:1745  string.concat(base, _tokenURI) */\n                  add(0x20, mload(0x40))\n                  tag_252\n                  swap3\n                  swap2\n                  swap1\n                  tag_253\n                  jump\t// in\n                tag_252:\n                  mload(0x40)\n                  0x20\n                  dup2\n                  dup4\n                  sub\n                  sub\n                  dup2\n                  mstore\n                  swap1\n                  0x40\n                  mstore\n                    /* \"@openzeppelin/contracts/token/ERC721/extensions/ERC721URIStorage.sol\":1708:1745  return string.concat(base, _tokenURI) */\n                  swap3\n                  pop\n                  pop\n                  pop\n                    /* \"@openzeppelin/contracts/token/ERC721/extensions/ERC721URIStorage.sol\":1210:1803  function tokenURI(uint256 tokenId) public view virtual override returns (string memory) {... */\n                  swap2\n                  swap1\n                  pop\n                  jump\t// out\n                    /* \"@openzeppelin/contracts/token/ERC721/extensions/ERC721URIStorage.sol\":1661:1756  if (bytes(_tokenURI).length > 0) {... */\n                tag_251:\n                    /* \"@openzeppelin/contracts/token/ERC721/extensions/ERC721URIStorage.sol\":1773:1796  super.tokenURI(tokenId) */\n                  tag_208\n                    /* \"@openzeppelin/contracts/token/ERC721/extensions/ERC721URIStorage.sol\":1788:1795  tokenId */\n                  dup5\n                    /* \"@openzeppelin/contracts/token/ERC721/extensions/ERC721URIStorage.sol\":1773:1787  super.tokenURI */\n                  tag_255\n                    /* \"@openzeppelin/contracts/token/ERC721/extensions/ERC721URIStorage.sol\":1773:1796  super.tokenURI(tokenId) */\n                  jump\t// in\n                    /* \"@openzeppelin/contracts/token/ERC721/ERC721.sol\":10633:10733  function _safeMint(address to, uint256 tokenId) internal {... */\n                tag_183:\n                    /* \"@openzeppelin/contracts/token/ERC721/ERC721.sol\":10700:10726  _safeMint(to, tokenId, \"\") */\n                  tag_119\n                    /* \"@openzeppelin/contracts/token/ERC721/ERC721.sol\":10710:10712  to */\n                  dup3\n                    /* \"@openzeppelin/contracts/token/ERC721/ERC721.sol\":10714:10721  tokenId */\n                  dup3\n                    /* \"@openzeppelin/contracts/token/ERC721/ERC721.sol\":10700:10726  _safeMint(to, tokenId, \"\") */\n                  mload(0x40)\n                  dup1\n                  0x20\n                  add\n                  0x40\n                  mstore\n                  dup1\n                  0x00\n                  dup2\n                  mstore\n                  pop\n                    /* \"@openzeppelin/contracts/token/ERC721/ERC721.sol\":10700:10709  _safeMint */\n                  tag_258\n                    /* \"@openzeppelin/contracts/token/ERC721/ERC721.sol\":10700:10726  _safeMint(to, tokenId, \"\") */\n                  jump\t// in\n                    /* \"@openzeppelin/contracts/token/ERC721/extensions/ERC721URIStorage.sol\":1922:2089  function _setTokenURI(uint256 tokenId, string memory _tokenURI) internal virtual {... */\n                tag_185:\n                    /* \"@openzeppelin/contracts/token/ERC721/extensions/ERC721URIStorage.sol\":2013:2032  _tokenURIs[tokenId] */\n                  0x00\n                  dup3\n                  dup2\n                  mstore\n                    /* \"@openzeppelin/contracts/token/ERC721/extensions/ERC721URIStorage.sol\":2013:2023  _tokenURIs */\n                  0x0a\n                    /* \"@openzeppelin/contracts/token/ERC721/extensions/ERC721URIStorage.sol\":2013:2032  _tokenURIs[tokenId] */\n                  0x20\n                  mstore\n                  0x40\n                  swap1\n                  keccak256\n                    /* \"@openzeppelin/contracts/token/ERC721/extensions/ERC721URIStorage.sol\":2013:2044  _tokenURIs[tokenId] = _tokenURI */\n                  tag_260\n                    /* \"@openzeppelin/contracts/token/ERC721/extensions/ERC721URIStorage.sol\":2035:2044  _tokenURI */\n                  dup3\n                    /* \"@openzeppelin/contracts/token/ERC721/extensions/ERC721URIStorage.sol\":2013:2032  _tokenURIs[tokenId] */\n                  dup3\n                    /* \"@openzeppelin/contracts/token/ERC721/extensions/ERC721URIStorage.sol\":2013:2044  _tokenURIs[tokenId] = _tokenURI */\n                  tag_261\n                  jump\t// in\n                tag_260:\n                  pop\n                    /* \"@openzeppelin/contracts/token/ERC721/extensions/ERC721URIStorage.sol\":2059:2082  MetadataUpdate(tokenId) */\n                  mload(0x40)\n                    /* \"#utility.yul\":2324:2349   */\n                  dup3\n                  dup2\n                  mstore\n                    /* \"@openzeppelin/contracts/token/ERC721/extensions/ERC721URIStorage.sol\":2059:2082  MetadataUpdate(tokenId) */\n                  0xf8e1a15aba9398e019f0b49df1a4fde98ee17ae345cb5f6b5e2c27f5033e8ce7\n                  swap1\n                    /* \"#utility.yul\":2312:2314   */\n                  0x20\n                    /* \"#utility.yul\":2297:2315   */\n                  add\n                    /* \"@openzeppelin/contracts/token/ERC721/extensions/ERC721URIStorage.sol\":2059:2082  MetadataUpdate(tokenId) */\n                  mload(0x40)\n                  dup1\n                  swap2\n                  sub\n                  swap1\n                  log1\n                    /* \"@openzeppelin/contracts/token/ERC721/extensions/ERC721URIStorage.sol\":1922:2089  function _setTokenURI(uint256 tokenId, string memory _tokenURI) internal virtual {... */\n                  pop\n                  pop\n                  jump\t// out\n                    /* \"@openzeppelin/contracts/token/ERC721/extensions/ERC721Enumerable.sol\":1435:1657  function supportsInterface(bytes4 interfaceId) public view virtual override(IERC165, ERC721) returns (bool) {... */\n                tag_196:\n                    /* \"@openzeppelin/contracts/token/ERC721/extensions/ERC721Enumerable.sol\":1537:1541  bool */\n                  0x00\n                  not(sub(shl(0xe0, 0x01), 0x01))\n                    /* \"@openzeppelin/contracts/token/ERC721/extensions/ERC721Enumerable.sol\":1560:1610  interfaceId == type(IERC721Enumerable).interfaceId */\n                  dup3\n                  and\n                  shl(0xe0, 0x780e9d63)\n                  eq\n                  dup1\n                    /* \"@openzeppelin/contracts/token/ERC721/extensions/ERC721Enumerable.sol\":1560:1650  interfaceId == type(IERC721Enumerable).interfaceId || super.supportsInterface(interfaceId) */\n                  tag_104\n                  jumpi\n                  pop\n                    /* \"@openzeppelin/contracts/token/ERC721/extensions/ERC721Enumerable.sol\":1614:1650  super.supportsInterface(interfaceId) */\n                  tag_104\n                    /* \"@openzeppelin/contracts/token/ERC721/extensions/ERC721Enumerable.sol\":1638:1649  interfaceId */\n                  dup3\n                    /* \"@openzeppelin/contracts/token/ERC721/extensions/ERC721Enumerable.sol\":1614:1637  super.supportsInterface */\n                  tag_266\n                    /* \"@openzeppelin/contracts/token/ERC721/extensions/ERC721Enumerable.sol\":1614:1650  super.supportsInterface(interfaceId) */\n                  jump\t// in\n                    /* \"@openzeppelin/contracts/token/ERC721/ERC721.sol\":5707:5822  function _ownerOf(uint256 tokenId) internal view virtual returns (address) {... */\n                tag_199:\n                    /* \"@openzeppelin/contracts/token/ERC721/ERC721.sol\":5773:5780  address */\n                  0x00\n                    /* \"@openzeppelin/contracts/token/ERC721/ERC721.sol\":5799:5815  _owners[tokenId] */\n                  swap1\n                  dup2\n                  mstore\n                    /* \"@openzeppelin/contracts/token/ERC721/ERC721.sol\":5799:5806  _owners */\n                  0x02\n                    /* \"@openzeppelin/contracts/token/ERC721/ERC721.sol\":5799:5815  _owners[tokenId] */\n                  0x20\n                  mstore\n                  0x40\n                  swap1\n                  keccak256\n                  sload\n                  sub(shl(0xa0, 0x01), 0x01)\n                  and\n                  swap1\n                    /* \"@openzeppelin/contracts/token/ERC721/ERC721.sol\":5707:5822  function _ownerOf(uint256 tokenId) internal view virtual returns (address) {... */\n                  jump\t// out\n                    /* \"@openzeppelin/contracts/token/ERC721/ERC721.sol\":14720:15382  function _approve(address to, uint256 tokenId, address auth, bool emitEvent) internal virtual {... */\n                tag_206:\n                    /* \"@openzeppelin/contracts/token/ERC721/ERC721.sol\":14880:14889  emitEvent */\n                  dup1\n                    /* \"@openzeppelin/contracts/token/ERC721/ERC721.sol\":14880:14911  emitEvent || auth != address(0) */\n                  dup1\n                  tag_269\n                  jumpi\n                  pop\n                  sub(shl(0xa0, 0x01), 0x01)\n                    /* \"@openzeppelin/contracts/token/ERC721/ERC721.sol\":14893:14911  auth != address(0) */\n                  dup3\n                  and\n                  iszero\n                  iszero\n                    /* \"@openzeppelin/contracts/token/ERC721/ERC721.sol\":14880:14911  emitEvent || auth != address(0) */\n                tag_269:\n                    /* \"@openzeppelin/contracts/token/ERC721/ERC721.sol\":14876:15336  if (emitEvent || auth != address(0)) {... */\n                  iszero\n                  tag_270\n                  jumpi\n                    /* \"@openzeppelin/contracts/token/ERC721/ERC721.sol\":14927:14940  address owner */\n                  0x00\n                    /* \"@openzeppelin/contracts/token/ERC721/ERC721.sol\":14943:14965  _requireOwned(tokenId) */\n                  tag_271\n                    /* \"@openzeppelin/contracts/token/ERC721/ERC721.sol\":14957:14964  tokenId */\n                  dup5\n                    /* \"@openzeppelin/contracts/token/ERC721/ERC721.sol\":14943:14956  _requireOwned */\n                  tag_115\n                    /* \"@openzeppelin/contracts/token/ERC721/ERC721.sol\":14943:14965  _requireOwned(tokenId) */\n                  jump\t// in\n                tag_271:\n                    /* \"@openzeppelin/contracts/token/ERC721/ERC721.sol\":14927:14965  address owner = _requireOwned(tokenId) */\n                  swap1\n                  pop\n                  sub(shl(0xa0, 0x01), 0x01)\n                    /* \"@openzeppelin/contracts/token/ERC721/ERC721.sol\":15093:15111  auth != address(0) */\n                  dup4\n                  and\n                  iszero\n                  dup1\n                  iszero\n                  swap1\n                    /* \"@openzeppelin/contracts/token/ERC721/ERC721.sol\":15093:15128  auth != address(0) && owner != auth */\n                  tag_272\n                  jumpi\n                  pop\n                    /* \"@openzeppelin/contracts/token/ERC721/ERC721.sol\":15124:15128  auth */\n                  dup3\n                  sub(shl(0xa0, 0x01), 0x01)\n                    /* \"@openzeppelin/contracts/token/ERC721/ERC721.sol\":15115:15128  owner != auth */\n                  and\n                    /* \"@openzeppelin/contracts/token/ERC721/ERC721.sol\":15115:15120  owner */\n                  dup2\n                  sub(shl(0xa0, 0x01), 0x01)\n                    /* \"@openzeppelin/contracts/token/ERC721/ERC721.sol\":15115:15128  owner != auth */\n                  and\n                  eq\n                  iszero\n                    /* \"@openzeppelin/contracts/token/ERC721/ERC721.sol\":15093:15128  auth != address(0) && owner != auth */\n                tag_272:\n                    /* \"@openzeppelin/contracts/token/ERC721/ERC721.sol\":15093:15162  auth != address(0) && owner != auth && !isApprovedForAll(owner, auth) */\n                  dup1\n                  iszero\n                  tag_273\n                  jumpi\n                  pop\n                    /* \"@openzeppelin/contracts/token/ERC721/ERC721.sol\":15133:15162  isApprovedForAll(owner, auth) */\n                  tag_274\n                    /* \"@openzeppelin/contracts/token/ERC721/ERC721.sol\":15150:15155  owner */\n                  dup2\n                    /* \"@openzeppelin/contracts/token/ERC721/ERC721.sol\":15157:15161  auth */\n                  dup5\n                    /* \"@openzeppelin/contracts/token/ERC721/ERC721.sol\":15133:15149  isApprovedForAll */\n                  tag_98\n                    /* \"@openzeppelin/contracts/token/ERC721/ERC721.sol\":15133:15162  isApprovedForAll(owner, auth) */\n                  jump\t// in\n                tag_274:\n                    /* \"@openzeppelin/contracts/token/ERC721/ERC721.sol\":15132:15162  !isApprovedForAll(owner, auth) */\n                  iszero\n                    /* \"@openzeppelin/contracts/token/ERC721/ERC721.sol\":15093:15162  auth != address(0) && owner != auth && !isApprovedForAll(owner, auth) */\n                tag_273:\n                    /* \"@openzeppelin/contracts/token/ERC721/ERC721.sol\":15089:15231  if (auth != address(0) && owner != auth && !isApprovedForAll(owner, auth)) {... */\n                  iszero\n                  tag_275\n                  jumpi\n                    /* \"@openzeppelin/contracts/token/ERC721/ERC721.sol\":15211:15215  auth */\n                  dup3\n                    /* \"@openzeppelin/contracts/token/ERC721/ERC721.sol\":15189:15216  ERC721InvalidApprover(auth) */\n                  mload(0x40)\n                  shl(0xe0, 0xa9fbf51f)\n                  dup2\n                  mstore\n                  0x04\n                  add\n                  tag_126\n                  swap2\n                  swap1\n                  tag_38\n                  jump\t// in\n                    /* \"@openzeppelin/contracts/token/ERC721/ERC721.sol\":15089:15231  if (auth != address(0) && owner != auth && !isApprovedForAll(owner, auth)) {... */\n                tag_275:\n                    /* \"@openzeppelin/contracts/token/ERC721/ERC721.sol\":15249:15258  emitEvent */\n                  dup2\n                    /* \"@openzeppelin/contracts/token/ERC721/ERC721.sol\":15245:15326  if (emitEvent) {... */\n                  iszero\n                  tag_277\n                  jumpi\n                    /* \"@openzeppelin/contracts/token/ERC721/ERC721.sol\":15303:15310  tokenId */\n                  dup4\n                    /* \"@openzeppelin/contracts/token/ERC721/ERC721.sol\":15299:15301  to */\n                  dup6\n                  sub(shl(0xa0, 0x01), 0x01)\n                    /* \"@openzeppelin/contracts/token/ERC721/ERC721.sol\":15283:15311  Approval(owner, to, tokenId) */\n                  and\n                    /* \"@openzeppelin/contracts/token/ERC721/ERC721.sol\":15292:15297  owner */\n                  dup3\n                  sub(shl(0xa0, 0x01), 0x01)\n                    /* \"@openzeppelin/contracts/token/ERC721/ERC721.sol\":15283:15311  Approval(owner, to, tokenId) */\n                  and\n                  0x8c5be1e5ebec7d5bd14f71427d1e84f3dd0314c0f7b2291e5b200ac8c7c3b925\n                  mload(0x40)\n                  mload(0x40)\n                  dup1\n                  swap2\n                  sub\n                  swap1\n                  log4\n                    /* \"@openzeppelin/contracts/token/ERC721/ERC721.sol\":15245:15326  if (emitEvent) {... */\n                tag_277:\n                    /* \"@openzeppelin/contracts/token/ERC721/ERC721.sol\":14913:15336  {... */\n                  pop\n                    /* \"@openzeppelin/contracts/token/ERC721/ERC721.sol\":14876:15336  if (emitEvent || auth != address(0)) {... */\n                tag_270:\n                  pop\n                  pop\n                    /* \"@openzeppelin/contracts/token/ERC721/ERC721.sol\":15346:15370  _tokenApprovals[tokenId] */\n                  0x00\n                  swap1\n                  dup2\n                  mstore\n                    /* \"@openzeppelin/contracts/token/ERC721/ERC721.sol\":15346:15361  _tokenApprovals */\n                  0x04\n                    /* \"@openzeppelin/contracts/token/ERC721/ERC721.sol\":15346:15370  _tokenApprovals[tokenId] */\n                  0x20\n                  mstore\n                  0x40\n                  swap1\n                  keccak256\n                    /* \"@openzeppelin/contracts/token/ERC721/ERC721.sol\":15346:15375  _tokenApprovals[tokenId] = to */\n                  dup1\n                  sload\n                  not(sub(shl(0xa0, 0x01), 0x01))\n                  and\n                  sub(shl(0xa0, 0x01), 0x01)\n                  swap3\n                  swap1\n                  swap3\n                  and\n                  swap2\n                  swap1\n                  swap2\n                  or\n                  swap1\n                  sstore\n                    /* \"@openzeppelin/contracts/token/ERC721/ERC721.sol\":14720:15382  function _approve(address to, uint256 tokenId, address auth, bool emitEvent) internal virtual {... */\n                  jump\t// out\n                    /* \"@openzeppelin/contracts/token/ERC721/extensions/ERC721Enumerable.sol\":2518:3143  function _update(address to, uint256 tokenId, address auth) internal virtual override returns (address) {... */\n                tag_209:\n                    /* \"@openzeppelin/contracts/token/ERC721/extensions/ERC721Enumerable.sol\":2613:2620  address */\n                  0x00\n                    /* \"@openzeppelin/contracts/token/ERC721/extensions/ERC721Enumerable.sol\":2632:2653  address previousOwner */\n                  dup1\n                    /* \"@openzeppelin/contracts/token/ERC721/extensions/ERC721Enumerable.sol\":2656:2688  super._update(to, tokenId, auth) */\n                  tag_279\n                    /* \"@openzeppelin/contracts/token/ERC721/extensions/ERC721Enumerable.sol\":2670:2672  to */\n                  dup6\n                    /* \"@openzeppelin/contracts/token/ERC721/extensions/ERC721Enumerable.sol\":2674:2681  tokenId */\n                  dup6\n                    /* \"@openzeppelin/contracts/token/ERC721/extensions/ERC721Enumerable.sol\":2683:2687  auth */\n                  dup6\n                    /* \"@openzeppelin/contracts/token/ERC721/extensions/ERC721Enumerable.sol\":2656:2669  super._update */\n                  tag_280\n                    /* \"@openzeppelin/contracts/token/ERC721/extensions/ERC721Enumerable.sol\":2656:2688  super._update(to, tokenId, auth) */\n                  jump\t// in\n                tag_279:\n                    /* \"@openzeppelin/contracts/token/ERC721/extensions/ERC721Enumerable.sol\":2632:2688  address previousOwner = super._update(to, tokenId, auth) */\n                  swap1\n                  pop\n                  sub(shl(0xa0, 0x01), 0x01)\n                    /* \"@openzeppelin/contracts/token/ERC721/extensions/ERC721Enumerable.sol\":2703:2730  previousOwner == address(0) */\n                  dup2\n                  and\n                    /* \"@openzeppelin/contracts/token/ERC721/extensions/ERC721Enumerable.sol\":2699:2909  if (previousOwner == address(0)) {... */\n                  tag_281\n                  jumpi\n                    /* \"@openzeppelin/contracts/token/ERC721/extensions/ERC721Enumerable.sol\":2746:2786  _addTokenToAllTokensEnumeration(tokenId) */\n                  tag_282\n                    /* \"@openzeppelin/contracts/token/ERC721/extensions/ERC721Enumerable.sol\":2778:2785  tokenId */\n                  dup5\n                    /* \"@openzeppelin/contracts/token/ERC721/extensions/ERC721Enumerable.sol\":3949:3959  _allTokens */\n                  0x08\n                    /* \"@openzeppelin/contracts/token/ERC721/extensions/ERC721Enumerable.sol\":3949:3966  _allTokens.length */\n                  dup1\n                  sload\n                    /* \"@openzeppelin/contracts/token/ERC721/extensions/ERC721Enumerable.sol\":3922:3946  _allTokensIndex[tokenId] */\n                  0x00\n                  dup4\n                  dup2\n                  mstore\n                    /* \"@openzeppelin/contracts/token/ERC721/extensions/ERC721Enumerable.sol\":3922:3937  _allTokensIndex */\n                  0x09\n                    /* \"@openzeppelin/contracts/token/ERC721/extensions/ERC721Enumerable.sol\":3922:3946  _allTokensIndex[tokenId] */\n                  0x20\n                  mstore\n                  0x40\n                  dup2\n                  keccak256\n                    /* \"@openzeppelin/contracts/token/ERC721/extensions/ERC721Enumerable.sol\":3922:3966  _allTokensIndex[tokenId] = _allTokens.length */\n                  dup3\n                  swap1\n                  sstore\n                    /* \"@openzeppelin/contracts/token/ERC721/extensions/ERC721Enumerable.sol\":3976:4000  _allTokens.push(tokenId) */\n                  0x01\n                  dup3\n                  add\n                  dup4\n                  sstore\n                  swap2\n                  swap1\n                  swap2\n                  mstore\n                  0xf3f7a9fe364faab93b216da50a3214154f22a0a2b415b23a84c8169e8b636ee3\n                  add\n                  sstore\n                    /* \"@openzeppelin/contracts/token/ERC721/extensions/ERC721Enumerable.sol\":3846:4007  function _addTokenToAllTokensEnumeration(uint256 tokenId) private {... */\n                  jump\n                    /* \"@openzeppelin/contracts/token/ERC721/extensions/ERC721Enumerable.sol\":2746:2786  _addTokenToAllTokensEnumeration(tokenId) */\n                tag_282:\n                    /* \"@openzeppelin/contracts/token/ERC721/extensions/ERC721Enumerable.sol\":2699:2909  if (previousOwner == address(0)) {... */\n                  jump(tag_286)\n                tag_281:\n                    /* \"@openzeppelin/contracts/token/ERC721/extensions/ERC721Enumerable.sol\":2824:2826  to */\n                  dup5\n                  sub(shl(0xa0, 0x01), 0x01)\n                    /* \"@openzeppelin/contracts/token/ERC721/extensions/ERC721Enumerable.sol\":2807:2826  previousOwner != to */\n                  and\n                    /* \"@openzeppelin/contracts/token/ERC721/extensions/ERC721Enumerable.sol\":2807:2820  previousOwner */\n                  dup2\n                  sub(shl(0xa0, 0x01), 0x01)\n                    /* \"@openzeppelin/contracts/token/ERC721/extensions/ERC721Enumerable.sol\":2807:2826  previousOwner != to */\n                  and\n                  eq\n                    /* \"@openzeppelin/contracts/token/ERC721/extensions/ERC721Enumerable.sol\":2803:2909  if (previousOwner != to) {... */\n                  tag_286\n                  jumpi\n                    /* \"@openzeppelin/contracts/token/ERC721/extensions/ERC721Enumerable.sol\":2842:2898  _removeTokenFromOwnerEnumeration(previousOwner, tokenId) */\n                  tag_286\n                    /* \"@openzeppelin/contracts/token/ERC721/extensions/ERC721Enumerable.sol\":2875:2888  previousOwner */\n                  dup2\n                    /* \"@openzeppelin/contracts/token/ERC721/extensions/ERC721Enumerable.sol\":2890:2897  tokenId */\n                  dup6\n                    /* \"@openzeppelin/contracts/token/ERC721/extensions/ERC721Enumerable.sol\":2842:2874  _removeTokenFromOwnerEnumeration */\n                  tag_287\n                    /* \"@openzeppelin/contracts/token/ERC721/extensions/ERC721Enumerable.sol\":2842:2898  _removeTokenFromOwnerEnumeration(previousOwner, tokenId) */\n                  jump\t// in\n                tag_286:\n                  sub(shl(0xa0, 0x01), 0x01)\n                    /* \"@openzeppelin/contracts/token/ERC721/extensions/ERC721Enumerable.sol\":2922:2938  to == address(0) */\n                  dup6\n                  and\n                    /* \"@openzeppelin/contracts/token/ERC721/extensions/ERC721Enumerable.sol\":2918:3106  if (to == address(0)) {... */\n                  tag_288\n                  jumpi\n                    /* \"@openzeppelin/contracts/token/ERC721/extensions/ERC721Enumerable.sol\":2954:2999  _removeTokenFromAllTokensEnumeration(tokenId) */\n                  tag_289\n                    /* \"@openzeppelin/contracts/token/ERC721/extensions/ERC721Enumerable.sol\":2991:2998  tokenId */\n                  dup5\n                    /* \"@openzeppelin/contracts/token/ERC721/extensions/ERC721Enumerable.sol\":2954:2990  _removeTokenFromAllTokensEnumeration */\n                  tag_290\n                    /* \"@openzeppelin/contracts/token/ERC721/extensions/ERC721Enumerable.sol\":2954:2999  _removeTokenFromAllTokensEnumeration(tokenId) */\n                  jump\t// in\n                tag_289:\n                    /* \"@openzeppelin/contracts/token/ERC721/extensions/ERC721Enumerable.sol\":2918:3106  if (to == address(0)) {... */\n                  jump(tag_208)\n                tag_288:\n                    /* \"@openzeppelin/contracts/token/ERC721/extensions/ERC721Enumerable.sol\":3037:3039  to */\n                  dup5\n                  sub(shl(0xa0, 0x01), 0x01)\n                    /* \"@openzeppelin/contracts/token/ERC721/extensions/ERC721Enumerable.sol\":3020:3039  previousOwner != to */\n                  and\n                    /* \"@openzeppelin/contracts/token/ERC721/extensions/ERC721Enumerable.sol\":3020:3033  previousOwner */\n                  dup2\n                  sub(shl(0xa0, 0x01), 0x01)\n                    /* \"@openzeppelin/contracts/token/ERC721/extensions/ERC721Enumerable.sol\":3020:3039  previousOwner != to */\n                  and\n                  eq\n                    /* \"@openzeppelin/contracts/token/ERC721/extensions/ERC721Enumerable.sol\":3016:3106  if (previousOwner != to) {... */\n                  tag_208\n                  jumpi\n                    /* \"@openzeppelin/contracts/token/ERC721/extensions/ERC721Enumerable.sol\":3055:3095  _addTokenToOwnerEnumeration(to, tokenId) */\n                  tag_208\n                    /* \"@openzeppelin/contracts/token/ERC721/extensions/ERC721Enumerable.sol\":3083:3085  to */\n                  dup6\n                    /* \"@openzeppelin/contracts/token/ERC721/extensions/ERC721Enumerable.sol\":3087:3094  tokenId */\n                  dup6\n                    /* \"@openzeppelin/contracts/token/ERC721/extensions/ERC721Enumerable.sol\":3055:3082  _addTokenToOwnerEnumeration */\n                  tag_294\n                    /* \"@openzeppelin/contracts/token/ERC721/extensions/ERC721Enumerable.sol\":3055:3095  _addTokenToOwnerEnumeration(to, tokenId) */\n                  jump\t// in\n                    /* \"@openzeppelin/contracts/token/ERC721/ERC721.sol\":2677:2932  function tokenURI(uint256 tokenId) public view virtual returns (string memory) {... */\n                tag_255:\n                    /* \"@openzeppelin/contracts/token/ERC721/ERC721.sol\":2741:2754  string memory */\n                  0x60\n                    /* \"@openzeppelin/contracts/token/ERC721/ERC721.sol\":2766:2788  _requireOwned(tokenId) */\n                  tag_297\n                    /* \"@openzeppelin/contracts/token/ERC721/ERC721.sol\":2780:2787  tokenId */\n                  dup3\n                    /* \"@openzeppelin/contracts/token/ERC721/ERC721.sol\":2766:2779  _requireOwned */\n                  tag_115\n                    /* \"@openzeppelin/contracts/token/ERC721/ERC721.sol\":2766:2788  _requireOwned(tokenId) */\n                  jump\t// in\n                tag_297:\n                  pop\n                    /* \"@openzeppelin/contracts/token/ERC721/ERC721.sol\":2799:2820  string memory baseURI */\n                  0x00\n                    /* \"@openzeppelin/contracts/token/ERC721/ERC721.sol\":2823:2833  _baseURI() */\n                  tag_298\n                    /* \"@openzeppelin/contracts/token/ERC721/ERC721.sol\":3250:3259  return \"\" */\n                  0x40\n                  dup1\n                  mload\n                  0x20\n                  dup2\n                  add\n                  swap1\n                  swap2\n                  mstore\n                  0x00\n                  dup2\n                  mstore\n                  swap1\n                    /* \"@openzeppelin/contracts/token/ERC721/ERC721.sol\":3174:3266  function _baseURI() internal view virtual returns (string memory) {... */\n                  jump\n                    /* \"@openzeppelin/contracts/token/ERC721/ERC721.sol\":2823:2833  _baseURI() */\n                tag_298:\n                    /* \"@openzeppelin/contracts/token/ERC721/ERC721.sol\":2799:2833  string memory baseURI = _baseURI() */\n                  swap1\n                  pop\n                    /* \"@openzeppelin/contracts/token/ERC721/ERC721.sol\":2874:2875  0 */\n                  0x00\n                    /* \"@openzeppelin/contracts/token/ERC721/ERC721.sol\":2856:2863  baseURI */\n                  dup2\n                    /* \"@openzeppelin/contracts/token/ERC721/ERC721.sol\":2850:2871  bytes(baseURI).length */\n                  mload\n                    /* \"@openzeppelin/contracts/token/ERC721/ERC721.sol\":2850:2875  bytes(baseURI).length > 0 */\n                  gt\n                    /* \"@openzeppelin/contracts/token/ERC721/ERC721.sol\":2850:2925  bytes(baseURI).length > 0 ? string.concat(baseURI, tokenId.toString()) : \"\" */\n                  tag_299\n                  jumpi\n                  mload(0x40)\n                  dup1\n                  0x20\n                  add\n                  0x40\n                  mstore\n                  dup1\n                  0x00\n                  dup2\n                  mstore\n                  pop\n                  jump(tag_300)\n                tag_299:\n                    /* \"@openzeppelin/contracts/token/ERC721/ERC721.sol\":2892:2899  baseURI */\n                  dup1\n                    /* \"@openzeppelin/contracts/token/ERC721/ERC721.sol\":2901:2919  tokenId.toString() */\n                  tag_301\n                    /* \"@openzeppelin/contracts/token/ERC721/ERC721.sol\":2901:2908  tokenId */\n                  dup5\n                    /* \"@openzeppelin/contracts/token/ERC721/ERC721.sol\":2901:2917  tokenId.toString */\n                  tag_302\n                    /* \"@openzeppelin/contracts/token/ERC721/ERC721.sol\":2901:2919  tokenId.toString() */\n                  jump\t// in\n                tag_301:\n                    /* \"@openzeppelin/contracts/token/ERC721/ERC721.sol\":2878:2920  string.concat(baseURI, tokenId.toString()) */\n                  add(0x20, mload(0x40))\n                  tag_303\n                  swap3\n                  swap2\n                  swap1\n                  tag_253\n                  jump\t// in\n                tag_303:\n                  mload(0x40)\n                  0x20\n                  dup2\n                  dup4\n                  sub\n                  sub\n                  dup2\n                  mstore\n                  swap1\n                  0x40\n                  mstore\n                    /* \"@openzeppelin/contracts/token/ERC721/ERC721.sol\":2850:2925  bytes(baseURI).length > 0 ? string.concat(baseURI, tokenId.toString()) : \"\" */\n                tag_300:\n                    /* \"@openzeppelin/contracts/token/ERC721/ERC721.sol\":2843:2925  return bytes(baseURI).length > 0 ? string.concat(baseURI, tokenId.toString()) : \"\" */\n                  swap4\n                    /* \"@openzeppelin/contracts/token/ERC721/ERC721.sol\":2677:2932  function tokenURI(uint256 tokenId) public view virtual returns (string memory) {... */\n                  swap3\n                  pop\n                  pop\n                  pop\n                  jump\t// out\n                    /* \"@openzeppelin/contracts/token/ERC721/ERC721.sol\":10954:11136  function _safeMint(address to, uint256 tokenId, bytes memory data) internal virtual {... */\n                tag_258:\n                    /* \"@openzeppelin/contracts/token/ERC721/ERC721.sol\":11048:11066  _mint(to, tokenId) */\n                  tag_305\n                    /* \"@openzeppelin/contracts/token/ERC721/ERC721.sol\":11054:11056  to */\n                  dup4\n                    /* \"@openzeppelin/contracts/token/ERC721/ERC721.sol\":11058:11065  tokenId */\n                  dup4\n                    /* \"@openzeppelin/contracts/token/ERC721/ERC721.sol\":11048:11053  _mint */\n                  tag_306\n                    /* \"@openzeppelin/contracts/token/ERC721/ERC721.sol\":11048:11066  _mint(to, tokenId) */\n                  jump\t// in\n                tag_305:\n                    /* \"@openzeppelin/contracts/token/ERC721/ERC721.sol\":11076:11129  _checkOnERC721Received(address(0), to, tokenId, data) */\n                  tag_139\n                    /* \"@openzeppelin/contracts/token/ERC721/ERC721.sol\":11107:11108  0 */\n                  0x00\n                    /* \"@openzeppelin/contracts/token/ERC721/ERC721.sol\":11111:11113  to */\n                  dup5\n                    /* \"@openzeppelin/contracts/token/ERC721/ERC721.sol\":11115:11122  tokenId */\n                  dup5\n                    /* \"@openzeppelin/contracts/token/ERC721/ERC721.sol\":11124:11128  data */\n                  dup5\n                    /* \"@openzeppelin/contracts/token/ERC721/ERC721.sol\":11076:11098  _checkOnERC721Received */\n                  tag_173\n                    /* \"@openzeppelin/contracts/token/ERC721/ERC721.sol\":11076:11129  _checkOnERC721Received(address(0), to, tokenId, data) */\n                  jump\t// in\n                    /* \"@openzeppelin/contracts/token/ERC721/ERC721.sol\":1561:1861  function supportsInterface(bytes4 interfaceId) public view virtual override(ERC165, IERC165) returns (bool) {... */\n                tag_266:\n                    /* \"@openzeppelin/contracts/token/ERC721/ERC721.sol\":1663:1667  bool */\n                  0x00\n                  not(sub(shl(0xe0, 0x01), 0x01))\n                    /* \"@openzeppelin/contracts/token/ERC721/ERC721.sol\":1698:1738  interfaceId == type(IERC721).interfaceId */\n                  dup3\n                  and\n                  shl(0xe0, 0x80ac58cd)\n                  eq\n                  dup1\n                    /* \"@openzeppelin/contracts/token/ERC721/ERC721.sol\":1698:1802  interfaceId == type(IERC721).interfaceId ||... */\n                  tag_309\n                  jumpi\n                  pop\n                  not(sub(shl(0xe0, 0x01), 0x01))\n                    /* \"@openzeppelin/contracts/token/ERC721/ERC721.sol\":1754:1802  interfaceId == type(IERC721Metadata).interfaceId */\n                  dup3\n                  and\n                  shl(0xe0, 0x5b5e139f)\n                  eq\n                    /* \"@openzeppelin/contracts/token/ERC721/ERC721.sol\":1698:1802  interfaceId == type(IERC721).interfaceId ||... */\n                tag_309:\n                    /* \"@openzeppelin/contracts/token/ERC721/ERC721.sol\":1698:1854  interfaceId == type(IERC721).interfaceId ||... */\n                  dup1\n                  tag_104\n                  jumpi\n                  pop\n                  shl(0xe0, 0x01ffc9a7)\n                  not(sub(shl(0xe0, 0x01), 0x01))\n                    /* \"@openzeppelin/contracts/utils/introspection/ERC165.sol\":861:901  interfaceId == type(IERC165).interfaceId */\n                  dup4\n                  and\n                  eq\n                    /* \"@openzeppelin/contracts/token/ERC721/ERC721.sol\":1818:1854  super.supportsInterface(interfaceId) */\n                  tag_104\n                    /* \"@openzeppelin/contracts/utils/introspection/ERC165.sol\":762:908  function supportsInterface(bytes4 interfaceId) public view virtual returns (bool) {... */\n                  jump\n                    /* \"@openzeppelin/contracts/token/ERC721/ERC721.sol\":8838:9633  function _update(address to, uint256 tokenId, address auth) internal virtual returns (address) {... */\n                tag_280:\n                    /* \"@openzeppelin/contracts/token/ERC721/ERC721.sol\":8924:8931  address */\n                  0x00\n                    /* \"@openzeppelin/contracts/token/ERC721/ERC721.sol\":8943:8955  address from */\n                  dup1\n                    /* \"@openzeppelin/contracts/token/ERC721/ERC721.sol\":8958:8975  _ownerOf(tokenId) */\n                  tag_314\n                    /* \"@openzeppelin/contracts/token/ERC721/ERC721.sol\":8967:8974  tokenId */\n                  dup5\n                    /* \"@openzeppelin/contracts/token/ERC721/ERC721.sol\":8958:8966  _ownerOf */\n                  tag_199\n                    /* \"@openzeppelin/contracts/token/ERC721/ERC721.sol\":8958:8975  _ownerOf(tokenId) */\n                  jump\t// in\n                tag_314:\n                    /* \"@openzeppelin/contracts/token/ERC721/ERC721.sol\":8943:8975  address from = _ownerOf(tokenId) */\n                  swap1\n                  pop\n                  sub(shl(0xa0, 0x01), 0x01)\n                    /* \"@openzeppelin/contracts/token/ERC721/ERC721.sol\":9035:9053  auth != address(0) */\n                  dup4\n                  and\n                  iszero\n                    /* \"@openzeppelin/contracts/token/ERC721/ERC721.sol\":9031:9117  if (auth != address(0)) {... */\n                  tag_316\n                  jumpi\n                    /* \"@openzeppelin/contracts/token/ERC721/ERC721.sol\":9069:9106  _checkAuthorized(from, auth, tokenId) */\n                  tag_316\n                    /* \"@openzeppelin/contracts/token/ERC721/ERC721.sol\":9086:9090  from */\n                  dup2\n                    /* \"@openzeppelin/contracts/token/ERC721/ERC721.sol\":9092:9096  auth */\n                  dup5\n                    /* \"@openzeppelin/contracts/token/ERC721/ERC721.sol\":9098:9105  tokenId */\n                  dup7\n                    /* \"@openzeppelin/contracts/token/ERC721/ERC721.sol\":9069:9085  _checkAuthorized */\n                  tag_317\n                    /* \"@openzeppelin/contracts/token/ERC721/ERC721.sol\":9069:9106  _checkAuthorized(from, auth, tokenId) */\n                  jump\t// in\n                tag_316:\n                  sub(shl(0xa0, 0x01), 0x01)\n                    /* \"@openzeppelin/contracts/token/ERC721/ERC721.sol\":9161:9179  from != address(0) */\n                  dup2\n                  and\n                  iszero\n                    /* \"@openzeppelin/contracts/token/ERC721/ERC721.sol\":9157:9413  if (from != address(0)) {... */\n                  tag_318\n                  jumpi\n                    /* \"@openzeppelin/contracts/token/ERC721/ERC721.sol\":9277:9325  _approve(address(0), tokenId, address(0), false) */\n                  tag_319\n                    /* \"@openzeppelin/contracts/token/ERC721/ERC721.sol\":9294:9295  0 */\n                  0x00\n                    /* \"@openzeppelin/contracts/token/ERC721/ERC721.sol\":9298:9305  tokenId */\n                  dup6\n                    /* \"@openzeppelin/contracts/token/ERC721/ERC721.sol\":9315:9316  0 */\n                  0x00\n                    /* \"@openzeppelin/contracts/token/ERC721/ERC721.sol\":9319:9324  false */\n                  dup1\n                    /* \"@openzeppelin/contracts/token/ERC721/ERC721.sol\":9277:9285  _approve */\n                  tag_206\n                    /* \"@openzeppelin/contracts/token/ERC721/ERC721.sol\":9277:9325  _approve(address(0), tokenId, address(0), false) */\n                  jump\t// in\n                tag_319:\n                  sub(shl(0xa0, 0x01), 0x01)\n                    /* \"@openzeppelin/contracts/token/ERC721/ERC721.sol\":9368:9383  _balances[from] */\n                  dup2\n                  and\n                  0x00\n                  swap1\n                  dup2\n                  mstore\n                    /* \"@openzeppelin/contracts/token/ERC721/ERC721.sol\":9368:9377  _balances */\n                  0x03\n                    /* \"@openzeppelin/contracts/token/ERC721/ERC721.sol\":9368:9383  _balances[from] */\n                  0x20\n                  mstore\n                  0x40\n                  swap1\n                  keccak256\n                    /* \"@openzeppelin/contracts/token/ERC721/ERC721.sol\":9368:9388  _balances[from] -= 1 */\n                  dup1\n                  sload\n                  not(0x00)\n                  add\n                  swap1\n                  sstore\n                    /* \"@openzeppelin/contracts/token/ERC721/ERC721.sol\":9157:9413  if (from != address(0)) {... */\n                tag_318:\n                  sub(shl(0xa0, 0x01), 0x01)\n                    /* \"@openzeppelin/contracts/token/ERC721/ERC721.sol\":9427:9443  to != address(0) */\n                  dup6\n                  and\n                  iszero\n                    /* \"@openzeppelin/contracts/token/ERC721/ERC721.sol\":9423:9530  if (to != address(0)) {... */\n                  tag_320\n                  jumpi\n                  sub(shl(0xa0, 0x01), 0x01)\n                    /* \"@openzeppelin/contracts/token/ERC721/ERC721.sol\":9487:9500  _balances[to] */\n                  dup6\n                  and\n                  0x00\n                  swap1\n                  dup2\n                  mstore\n                    /* \"@openzeppelin/contracts/token/ERC721/ERC721.sol\":9487:9496  _balances */\n                  0x03\n                    /* \"@openzeppelin/contracts/token/ERC721/ERC721.sol\":9487:9500  _balances[to] */\n                  0x20\n                  mstore\n                  0x40\n                  swap1\n                  keccak256\n                    /* \"@openzeppelin/contracts/token/ERC721/ERC721.sol\":9487:9505  _balances[to] += 1 */\n                  dup1\n                  sload\n                    /* \"@openzeppelin/contracts/token/ERC721/ERC721.sol\":9504:9505  1 */\n                  0x01\n                    /* \"@openzeppelin/contracts/token/ERC721/ERC721.sol\":9487:9505  _balances[to] += 1 */\n                  add\n                  swap1\n                  sstore\n                    /* \"@openzeppelin/contracts/token/ERC721/ERC721.sol\":9423:9530  if (to != address(0)) {... */\n                tag_320:\n                    /* \"@openzeppelin/contracts/token/ERC721/ERC721.sol\":9540:9556  _owners[tokenId] */\n                  0x00\n                  dup5\n                  dup2\n                  mstore\n                    /* \"@openzeppelin/contracts/token/ERC721/ERC721.sol\":9540:9547  _owners */\n                  0x02\n                    /* \"@openzeppelin/contracts/token/ERC721/ERC721.sol\":9540:9556  _owners[tokenId] */\n                  0x20\n                  mstore\n                  0x40\n                  dup1\n                  dup3\n                  keccak256\n                    /* \"@openzeppelin/contracts/token/ERC721/ERC721.sol\":9540:9561  _owners[tokenId] = to */\n                  dup1\n                  sload\n                  not(sub(shl(0xa0, 0x01), 0x01))\n                  and\n                  sub(shl(0xa0, 0x01), 0x01)\n                  dup10\n                  dup2\n                  and\n                  swap2\n                  dup3\n                  or\n                  swap1\n                  swap3\n                  sstore\n                    /* \"@openzeppelin/contracts/token/ERC721/ERC721.sol\":9577:9604  Transfer(from, to, tokenId) */\n                  swap2\n                  mload\n                    /* \"@openzeppelin/contracts/token/ERC721/ERC721.sol\":9540:9556  _owners[tokenId] */\n                  dup8\n                  swap4\n                    /* \"@openzeppelin/contracts/token/ERC721/ERC721.sol\":9577:9604  Transfer(from, to, tokenId) */\n                  swap2\n                  dup6\n                  and\n                  swap2\n                  0xddf252ad1be2c89b69c2b068fc378daa952ba7f163c4a11628f55a4df523b3ef\n                  swap2\n                  log4\n                    /* \"@openzeppelin/contracts/token/ERC721/ERC721.sol\":9622:9626  from */\n                  swap5\n                    /* \"@openzeppelin/contracts/token/ERC721/ERC721.sol\":8838:9633  function _update(address to, uint256 tokenId, address auth) internal virtual returns (address) {... */\n                  swap4\n                  pop\n                  pop\n                  pop\n                  pop\n                  jump\t// out\n                    /* \"@openzeppelin/contracts/token/ERC721/extensions/ERC721Enumerable.sol\":4624:5583  function _removeTokenFromOwnerEnumeration(address from, uint256 tokenId) private {... */\n                tag_287:\n                    /* \"@openzeppelin/contracts/token/ERC721/extensions/ERC721Enumerable.sol\":4886:4908  uint256 lastTokenIndex */\n                  0x00\n                    /* \"@openzeppelin/contracts/token/ERC721/extensions/ERC721Enumerable.sol\":4911:4926  balanceOf(from) */\n                  tag_324\n                    /* \"@openzeppelin/contracts/token/ERC721/extensions/ERC721Enumerable.sol\":4921:4925  from */\n                  dup4\n                    /* \"@openzeppelin/contracts/token/ERC721/extensions/ERC721Enumerable.sol\":4911:4920  balanceOf */\n                  tag_69\n                    /* \"@openzeppelin/contracts/token/ERC721/extensions/ERC721Enumerable.sol\":4911:4926  balanceOf(from) */\n                  jump\t// in\n                tag_324:\n                    /* \"@openzeppelin/contracts/token/ERC721/extensions/ERC721Enumerable.sol\":4936:4954  uint256 tokenIndex */\n                  0x00\n                    /* \"@openzeppelin/contracts/token/ERC721/extensions/ERC721Enumerable.sol\":4957:4983  _ownedTokensIndex[tokenId] */\n                  dup4\n                  dup2\n                  mstore\n                    /* \"@openzeppelin/contracts/token/ERC721/extensions/ERC721Enumerable.sol\":4957:4974  _ownedTokensIndex */\n                  0x07\n                    /* \"@openzeppelin/contracts/token/ERC721/extensions/ERC721Enumerable.sol\":4957:4983  _ownedTokensIndex[tokenId] */\n                  0x20\n                  mstore\n                  0x40\n                  swap1\n                  keccak256\n                  sload\n                    /* \"@openzeppelin/contracts/token/ERC721/extensions/ERC721Enumerable.sol\":4886:4926  uint256 lastTokenIndex = balanceOf(from) */\n                  swap1\n                  swap2\n                  pop\n                    /* \"@openzeppelin/contracts/token/ERC721/extensions/ERC721Enumerable.sol\":5087:5115  tokenIndex != lastTokenIndex */\n                  dup1\n                  dup3\n                  eq\n                    /* \"@openzeppelin/contracts/token/ERC721/extensions/ERC721Enumerable.sol\":5083:5406  if (tokenIndex != lastTokenIndex) {... */\n                  tag_325\n                  jumpi\n                  sub(shl(0xa0, 0x01), 0x01)\n                    /* \"@openzeppelin/contracts/token/ERC721/extensions/ERC721Enumerable.sol\":5153:5171  _ownedTokens[from] */\n                  dup5\n                  and\n                    /* \"@openzeppelin/contracts/token/ERC721/extensions/ERC721Enumerable.sol\":5131:5150  uint256 lastTokenId */\n                  0x00\n                    /* \"@openzeppelin/contracts/token/ERC721/extensions/ERC721Enumerable.sol\":5153:5171  _ownedTokens[from] */\n                  swap1\n                  dup2\n                  mstore\n                    /* \"@openzeppelin/contracts/token/ERC721/extensions/ERC721Enumerable.sol\":5153:5165  _ownedTokens */\n                  0x06\n                    /* \"@openzeppelin/contracts/token/ERC721/extensions/ERC721Enumerable.sol\":5153:5171  _ownedTokens[from] */\n                  0x20\n                  swap1\n                  dup2\n                  mstore\n                  0x40\n                  dup1\n                  dup4\n                  keccak256\n                    /* \"@openzeppelin/contracts/token/ERC721/extensions/ERC721Enumerable.sol\":5153:5187  _ownedTokens[from][lastTokenIndex] */\n                  dup6\n                  dup5\n                  mstore\n                  dup3\n                  mstore\n                  dup1\n                  dup4\n                  keccak256\n                  sload\n                    /* \"@openzeppelin/contracts/token/ERC721/extensions/ERC721Enumerable.sol\":5202:5232  _ownedTokens[from][tokenIndex] */\n                  dup5\n                  dup5\n                  mstore\n                  dup2\n                  dup5\n                  keccak256\n                    /* \"@openzeppelin/contracts/token/ERC721/extensions/ERC721Enumerable.sol\":5202:5246  _ownedTokens[from][tokenIndex] = lastTokenId */\n                  dup2\n                  swap1\n                  sstore\n                    /* \"@openzeppelin/contracts/token/ERC721/extensions/ERC721Enumerable.sol\":5318:5348  _ownedTokensIndex[lastTokenId] */\n                  dup4\n                  mstore\n                    /* \"@openzeppelin/contracts/token/ERC721/extensions/ERC721Enumerable.sol\":5318:5335  _ownedTokensIndex */\n                  0x07\n                    /* \"@openzeppelin/contracts/token/ERC721/extensions/ERC721Enumerable.sol\":5318:5348  _ownedTokensIndex[lastTokenId] */\n                  swap1\n                  swap2\n                  mstore\n                  swap1\n                  keccak256\n                    /* \"@openzeppelin/contracts/token/ERC721/extensions/ERC721Enumerable.sol\":5318:5361  _ownedTokensIndex[lastTokenId] = tokenIndex */\n                  dup2\n                  swap1\n                  sstore\n                    /* \"@openzeppelin/contracts/token/ERC721/extensions/ERC721Enumerable.sol\":5083:5406  if (tokenIndex != lastTokenIndex) {... */\n                tag_325:\n                  pop\n                    /* \"@openzeppelin/contracts/token/ERC721/extensions/ERC721Enumerable.sol\":5499:5525  _ownedTokensIndex[tokenId] */\n                  0x00\n                  swap2\n                  dup3\n                  mstore\n                    /* \"@openzeppelin/contracts/token/ERC721/extensions/ERC721Enumerable.sol\":5499:5516  _ownedTokensIndex */\n                  0x07\n                    /* \"@openzeppelin/contracts/token/ERC721/extensions/ERC721Enumerable.sol\":5499:5525  _ownedTokensIndex[tokenId] */\n                  0x20\n                  swap1\n                  dup2\n                  mstore\n                  0x40\n                  dup1\n                  dup5\n                  keccak256\n                    /* \"@openzeppelin/contracts/token/ERC721/extensions/ERC721Enumerable.sol\":5492:5525  delete _ownedTokensIndex[tokenId] */\n                  dup5\n                  swap1\n                  sstore\n                  sub(shl(0xa0, 0x01), 0x01)\n                    /* \"@openzeppelin/contracts/token/ERC721/extensions/ERC721Enumerable.sol\":5542:5560  _ownedTokens[from] */\n                  swap1\n                  swap5\n                  and\n                  dup4\n                  mstore\n                    /* \"@openzeppelin/contracts/token/ERC721/extensions/ERC721Enumerable.sol\":5542:5554  _ownedTokens */\n                  0x06\n                    /* \"@openzeppelin/contracts/token/ERC721/extensions/ERC721Enumerable.sol\":5542:5560  _ownedTokens[from] */\n                  dup2\n                  mstore\n                  dup4\n                  dup4\n                  keccak256\n                    /* \"@openzeppelin/contracts/token/ERC721/extensions/ERC721Enumerable.sol\":5542:5576  _ownedTokens[from][lastTokenIndex] */\n                  swap2\n                  dup4\n                  mstore\n                  mstore\n                  swap1\n                  dup2\n                  keccak256\n                    /* \"@openzeppelin/contracts/token/ERC721/extensions/ERC721Enumerable.sol\":5535:5576  delete _ownedTokens[from][lastTokenIndex] */\n                  sstore\n                    /* \"@openzeppelin/contracts/token/ERC721/extensions/ERC721Enumerable.sol\":4624:5583  function _removeTokenFromOwnerEnumeration(address from, uint256 tokenId) private {... */\n                  jump\t// out\n                    /* \"@openzeppelin/contracts/token/ERC721/extensions/ERC721Enumerable.sol\":5871:6932  function _removeTokenFromAllTokensEnumeration(uint256 tokenId) private {... */\n                tag_290:\n                    /* \"@openzeppelin/contracts/token/ERC721/extensions/ERC721Enumerable.sol\":6145:6155  _allTokens */\n                  0x08\n                    /* \"@openzeppelin/contracts/token/ERC721/extensions/ERC721Enumerable.sol\":6145:6162  _allTokens.length */\n                  sload\n                    /* \"@openzeppelin/contracts/token/ERC721/extensions/ERC721Enumerable.sol\":6120:6142  uint256 lastTokenIndex */\n                  0x00\n                  swap1\n                    /* \"@openzeppelin/contracts/token/ERC721/extensions/ERC721Enumerable.sol\":6145:6166  _allTokens.length - 1 */\n                  tag_327\n                  swap1\n                    /* \"@openzeppelin/contracts/token/ERC721/extensions/ERC721Enumerable.sol\":6165:6166  1 */\n                  0x01\n                  swap1\n                    /* \"@openzeppelin/contracts/token/ERC721/extensions/ERC721Enumerable.sol\":6145:6166  _allTokens.length - 1 */\n                  tag_328\n                  jump\t// in\n                tag_327:\n                    /* \"@openzeppelin/contracts/token/ERC721/extensions/ERC721Enumerable.sol\":6176:6194  uint256 tokenIndex */\n                  0x00\n                    /* \"@openzeppelin/contracts/token/ERC721/extensions/ERC721Enumerable.sol\":6197:6221  _allTokensIndex[tokenId] */\n                  dup4\n                  dup2\n                  mstore\n                    /* \"@openzeppelin/contracts/token/ERC721/extensions/ERC721Enumerable.sol\":6197:6212  _allTokensIndex */\n                  0x09\n                    /* \"@openzeppelin/contracts/token/ERC721/extensions/ERC721Enumerable.sol\":6197:6221  _allTokensIndex[tokenId] */\n                  0x20\n                  mstore\n                  0x40\n                  dup2\n                  keccak256\n                  sload\n                    /* \"@openzeppelin/contracts/token/ERC721/extensions/ERC721Enumerable.sol\":6565:6575  _allTokens */\n                  0x08\n                    /* \"@openzeppelin/contracts/token/ERC721/extensions/ERC721Enumerable.sol\":6565:6591  _allTokens[lastTokenIndex] */\n                  dup1\n                  sload\n                    /* \"@openzeppelin/contracts/token/ERC721/extensions/ERC721Enumerable.sol\":6120:6166  uint256 lastTokenIndex = _allTokens.length - 1 */\n                  swap4\n                  swap5\n                  pop\n                    /* \"@openzeppelin/contracts/token/ERC721/extensions/ERC721Enumerable.sol\":6197:6221  _allTokensIndex[tokenId] */\n                  swap1\n                  swap3\n                    /* \"@openzeppelin/contracts/token/ERC721/extensions/ERC721Enumerable.sol\":6120:6166  uint256 lastTokenIndex = _allTokens.length - 1 */\n                  dup5\n                  swap1\n                    /* \"@openzeppelin/contracts/token/ERC721/extensions/ERC721Enumerable.sol\":6565:6591  _allTokens[lastTokenIndex] */\n                  dup2\n                  lt\n                  tag_330\n                  jumpi\n                  tag_330\n                  tag_146\n                  jump\t// in\n                tag_330:\n                  swap1\n                  0x00\n                  mstore\n                  keccak256(0x00, 0x20)\n                  add\n                  sload\n                    /* \"@openzeppelin/contracts/token/ERC721/extensions/ERC721Enumerable.sol\":6543:6591  uint256 lastTokenId = _allTokens[lastTokenIndex] */\n                  swap1\n                  pop\n                    /* \"@openzeppelin/contracts/token/ERC721/extensions/ERC721Enumerable.sol\":6627:6638  lastTokenId */\n                  dup1\n                    /* \"@openzeppelin/contracts/token/ERC721/extensions/ERC721Enumerable.sol\":6602:6612  _allTokens */\n                  0x08\n                    /* \"@openzeppelin/contracts/token/ERC721/extensions/ERC721Enumerable.sol\":6613:6623  tokenIndex */\n                  dup4\n                    /* \"@openzeppelin/contracts/token/ERC721/extensions/ERC721Enumerable.sol\":6602:6624  _allTokens[tokenIndex] */\n                  dup2\n                  sload\n                  dup2\n                  lt\n                  tag_333\n                  jumpi\n                  tag_333\n                  tag_146\n                  jump\t// in\n                tag_333:\n                  0x00\n                  swap2\n                  dup3\n                  mstore\n                  0x20\n                  dup1\n                  dup4\n                  keccak256\n                  swap1\n                  swap2\n                  add\n                    /* \"@openzeppelin/contracts/token/ERC721/extensions/ERC721Enumerable.sol\":6602:6638  _allTokens[tokenIndex] = lastTokenId */\n                  swap3\n                  swap1\n                  swap3\n                  sstore\n                    /* \"@openzeppelin/contracts/token/ERC721/extensions/ERC721Enumerable.sol\":6706:6734  _allTokensIndex[lastTokenId] */\n                  dup3\n                  dup2\n                  mstore\n                    /* \"@openzeppelin/contracts/token/ERC721/extensions/ERC721Enumerable.sol\":6706:6721  _allTokensIndex */\n                  0x09\n                    /* \"@openzeppelin/contracts/token/ERC721/extensions/ERC721Enumerable.sol\":6706:6734  _allTokensIndex[lastTokenId] */\n                  swap1\n                  swap2\n                  mstore\n                  0x40\n                  dup1\n                  dup3\n                  keccak256\n                    /* \"@openzeppelin/contracts/token/ERC721/extensions/ERC721Enumerable.sol\":6706:6747  _allTokensIndex[lastTokenId] = tokenIndex */\n                  dup5\n                  swap1\n                  sstore\n                    /* \"@openzeppelin/contracts/token/ERC721/extensions/ERC721Enumerable.sol\":6875:6899  _allTokensIndex[tokenId] */\n                  dup6\n                  dup3\n                  mstore\n                  dup2\n                  keccak256\n                    /* \"@openzeppelin/contracts/token/ERC721/extensions/ERC721Enumerable.sol\":6868:6899  delete _allTokensIndex[tokenId] */\n                  sstore\n                    /* \"@openzeppelin/contracts/token/ERC721/extensions/ERC721Enumerable.sol\":6909:6919  _allTokens */\n                  0x08\n                    /* \"@openzeppelin/contracts/token/ERC721/extensions/ERC721Enumerable.sol\":6909:6925  _allTokens.pop() */\n                  dup1\n                  sload\n                  dup1\n                  tag_336\n                  jumpi\n                  tag_336\n                  tag_337\n                  jump\t// in\n                tag_336:\n                  0x01\n                  swap1\n                  sub\n                  dup2\n                  dup2\n                  swap1\n                  0x00\n                  mstore\n                  keccak256(0x00, 0x20)\n                  add\n                  0x00\n                  swap1\n                  sstore\n                  swap1\n                  sstore\n                    /* \"@openzeppelin/contracts/token/ERC721/extensions/ERC721Enumerable.sol\":5942:6932  {... */\n                  pop\n                  pop\n                  pop\n                    /* \"@openzeppelin/contracts/token/ERC721/extensions/ERC721Enumerable.sol\":5871:6932  function _removeTokenFromAllTokensEnumeration(uint256 tokenId) private {... */\n                  pop\n                  jump\t// out\n                    /* \"@openzeppelin/contracts/token/ERC721/extensions/ERC721Enumerable.sol\":3437:3651  function _addTokenToOwnerEnumeration(address to, uint256 tokenId) private {... */\n                tag_294:\n                    /* \"@openzeppelin/contracts/token/ERC721/extensions/ERC721Enumerable.sol\":3521:3535  uint256 length */\n                  0x00\n                    /* \"@openzeppelin/contracts/token/ERC721/extensions/ERC721Enumerable.sol\":3554:3555  1 */\n                  0x01\n                    /* \"@openzeppelin/contracts/token/ERC721/extensions/ERC721Enumerable.sol\":3538:3551  balanceOf(to) */\n                  tag_340\n                    /* \"@openzeppelin/contracts/token/ERC721/extensions/ERC721Enumerable.sol\":3548:3550  to */\n                  dup5\n                    /* \"@openzeppelin/contracts/token/ERC721/extensions/ERC721Enumerable.sol\":3538:3547  balanceOf */\n                  tag_69\n                    /* \"@openzeppelin/contracts/token/ERC721/extensions/ERC721Enumerable.sol\":3538:3551  balanceOf(to) */\n                  jump\t// in\n                tag_340:\n                    /* \"@openzeppelin/contracts/token/ERC721/extensions/ERC721Enumerable.sol\":3538:3555  balanceOf(to) - 1 */\n                  tag_341\n                  swap2\n                  swap1\n                  tag_328\n                  jump\t// in\n                tag_341:\n                  sub(shl(0xa0, 0x01), 0x01)\n                    /* \"@openzeppelin/contracts/token/ERC721/extensions/ERC721Enumerable.sol\":3565:3581  _ownedTokens[to] */\n                  swap1\n                  swap4\n                  and\n                  0x00\n                  swap1\n                  dup2\n                  mstore\n                    /* \"@openzeppelin/contracts/token/ERC721/extensions/ERC721Enumerable.sol\":3565:3577  _ownedTokens */\n                  0x06\n                    /* \"@openzeppelin/contracts/token/ERC721/extensions/ERC721Enumerable.sol\":3565:3581  _ownedTokens[to] */\n                  0x20\n                  swap1\n                  dup2\n                  mstore\n                  0x40\n                  dup1\n                  dup4\n                  keccak256\n                    /* \"@openzeppelin/contracts/token/ERC721/extensions/ERC721Enumerable.sol\":3565:3589  _ownedTokens[to][length] */\n                  dup7\n                  dup5\n                  mstore\n                  dup3\n                  mstore\n                  dup1\n                  dup4\n                  keccak256\n                    /* \"@openzeppelin/contracts/token/ERC721/extensions/ERC721Enumerable.sol\":3565:3599  _ownedTokens[to][length] = tokenId */\n                  dup6\n                  swap1\n                  sstore\n                    /* \"@openzeppelin/contracts/token/ERC721/extensions/ERC721Enumerable.sol\":3609:3635  _ownedTokensIndex[tokenId] */\n                  swap4\n                  dup3\n                  mstore\n                    /* \"@openzeppelin/contracts/token/ERC721/extensions/ERC721Enumerable.sol\":3609:3626  _ownedTokensIndex */\n                  0x07\n                    /* \"@openzeppelin/contracts/token/ERC721/extensions/ERC721Enumerable.sol\":3609:3635  _ownedTokensIndex[tokenId] */\n                  swap1\n                  mstore\n                  swap2\n                  swap1\n                  swap2\n                  keccak256\n                    /* \"@openzeppelin/contracts/token/ERC721/extensions/ERC721Enumerable.sol\":3609:3644  _ownedTokensIndex[tokenId] = length */\n                  swap2\n                  swap1\n                  swap2\n                  sstore\n                  pop\n                    /* \"@openzeppelin/contracts/token/ERC721/extensions/ERC721Enumerable.sol\":3437:3651  function _addTokenToOwnerEnumeration(address to, uint256 tokenId) private {... */\n                  jump\t// out\n                    /* \"@openzeppelin/contracts/utils/Strings.sol\":637:1335  function toString(uint256 value) internal pure returns (string memory) {... */\n                tag_302:\n                    /* \"@openzeppelin/contracts/utils/Strings.sol\":693:706  string memory */\n                  0x60\n                    /* \"@openzeppelin/contracts/utils/Strings.sol\":742:756  uint256 length */\n                  0x00\n                    /* \"@openzeppelin/contracts/utils/Strings.sol\":759:776  Math.log10(value) */\n                  tag_343\n                    /* \"@openzeppelin/contracts/utils/Strings.sol\":770:775  value */\n                  dup4\n                    /* \"@openzeppelin/contracts/utils/Strings.sol\":759:769  Math.log10 */\n                  tag_344\n                    /* \"@openzeppelin/contracts/utils/Strings.sol\":759:776  Math.log10(value) */\n                  jump\t// in\n                tag_343:\n                    /* \"@openzeppelin/contracts/utils/Strings.sol\":779:780  1 */\n                  0x01\n                    /* \"@openzeppelin/contracts/utils/Strings.sol\":759:780  Math.log10(value) + 1 */\n                  add\n                    /* \"@openzeppelin/contracts/utils/Strings.sol\":742:780  uint256 length = Math.log10(value) + 1 */\n                  swap1\n                  pop\n                    /* \"@openzeppelin/contracts/utils/Strings.sol\":794:814  string memory buffer */\n                  0x00\n                    /* \"@openzeppelin/contracts/utils/Strings.sol\":828:834  length */\n                  dup2\n                  sub(shl(0x40, 0x01), 0x01)\n                    /* \"@openzeppelin/contracts/utils/Strings.sol\":817:835  new string(length) */\n                  dup2\n                  gt\n                  iszero\n                  tag_346\n                  jumpi\n                  tag_346\n                  tag_347\n                  jump\t// in\n                tag_346:\n                  mload(0x40)\n                  swap1\n                  dup1\n                  dup3\n                  mstore\n                  dup1\n                  0x1f\n                  add\n                  not(0x1f)\n                  and\n                  0x20\n                  add\n                  dup3\n                  add\n                  0x40\n                  mstore\n                  dup1\n                  iszero\n                  tag_348\n                  jumpi\n                  0x20\n                  dup3\n                  add\n                  dup2\n                  dup1\n                  calldatasize\n                  dup4\n                  calldatacopy\n                  add\n                  swap1\n                  pop\n                tag_348:\n                  pop\n                    /* \"@openzeppelin/contracts/utils/Strings.sol\":794:835  string memory buffer = new string(length) */\n                  swap1\n                  pop\n                    /* \"@openzeppelin/contracts/utils/Strings.sol\":955:983  add(buffer, add(32, length)) */\n                  dup2\n                  dup2\n                  add\n                    /* \"@openzeppelin/contracts/utils/Strings.sol\":971:973  32 */\n                  0x20\n                    /* \"@openzeppelin/contracts/utils/Strings.sol\":955:983  add(buffer, add(32, length)) */\n                  add\n                    /* \"@openzeppelin/contracts/utils/Strings.sol\":1010:1292  while (true) {... */\n                tag_349:\n                  not(0x00)\n                    /* \"@openzeppelin/contracts/utils/Strings.sol\":1041:1046  ptr-- */\n                  add\n                  shl(0x81, 0x181899199a1a9b1b9c1cb0b131b232b3)\n                    /* \"@openzeppelin/contracts/utils/Strings.sol\":1175:1177  10 */\n                  0x0a\n                    /* \"@openzeppelin/contracts/utils/Strings.sol\":1164:1178  mod(value, 10) */\n                  dup7\n                  mod\n                    /* \"@openzeppelin/contracts/utils/Strings.sol\":1159:1191  byte(mod(value, 10), HEX_DIGITS) */\n                  byte\n                    /* \"@openzeppelin/contracts/utils/Strings.sol\":1041:1046  ptr-- */\n                  dup2\n                    /* \"@openzeppelin/contracts/utils/Strings.sol\":1146:1192  mstore8(ptr, byte(mod(value, 10), HEX_DIGITS)) */\n                  mstore8\n                    /* \"@openzeppelin/contracts/utils/Strings.sol\":1236:1238  10 */\n                  0x0a\n                    /* \"@openzeppelin/contracts/utils/Strings.sol\":1227:1238  value /= 10 */\n                  dup6\n                  div\n                  swap5\n                  pop\n                    /* \"@openzeppelin/contracts/utils/Strings.sol\":1256:1277  if (value == 0) break */\n                  dup5\n                    /* \"@openzeppelin/contracts/utils/Strings.sol\":1010:1292  while (true) {... */\n                  tag_349\n                    /* \"@openzeppelin/contracts/utils/Strings.sol\":1256:1277  if (value == 0) break */\n                  jumpi\n                  pop\n                    /* \"@openzeppelin/contracts/utils/Strings.sol\":1312:1318  buffer */\n                  swap4\n                    /* \"@openzeppelin/contracts/utils/Strings.sol\":637:1335  function toString(uint256 value) internal pure returns (string memory) {... */\n                  swap3\n                  pop\n                  pop\n                  pop\n                  jump\t// out\n                    /* \"@openzeppelin/contracts/token/ERC721/ERC721.sol\":9955:10282  function _mint(address to, uint256 tokenId) internal {... */\n                tag_306:\n                  sub(shl(0xa0, 0x01), 0x01)\n                    /* \"@openzeppelin/contracts/token/ERC721/ERC721.sol\":10022:10038  to == address(0) */\n                  dup3\n                  and\n                    /* \"@openzeppelin/contracts/token/ERC721/ERC721.sol\":10018:10105  if (to == address(0)) {... */\n                  tag_356\n                  jumpi\n                    /* \"@openzeppelin/contracts/token/ERC721/ERC721.sol\":10091:10092  0 */\n                  0x00\n                    /* \"@openzeppelin/contracts/token/ERC721/ERC721.sol\":10061:10094  ERC721InvalidReceiver(address(0)) */\n                  mload(0x40)\n                  shl(0xe1, 0x32505749)\n                  dup2\n                  mstore\n                  0x04\n                  add\n                  tag_126\n                  swap2\n                  swap1\n                  tag_38\n                  jump\t// in\n                    /* \"@openzeppelin/contracts/token/ERC721/ERC721.sol\":10018:10105  if (to == address(0)) {... */\n                tag_356:\n                    /* \"@openzeppelin/contracts/token/ERC721/ERC721.sol\":10114:10135  address previousOwner */\n                  0x00\n                    /* \"@openzeppelin/contracts/token/ERC721/ERC721.sol\":10138:10170  _update(to, tokenId, address(0)) */\n                  tag_358\n                    /* \"@openzeppelin/contracts/token/ERC721/ERC721.sol\":10146:10148  to */\n                  dup4\n                    /* \"@openzeppelin/contracts/token/ERC721/ERC721.sol\":10150:10157  tokenId */\n                  dup4\n                    /* \"@openzeppelin/contracts/token/ERC721/ERC721.sol\":10167:10168  0 */\n                  0x00\n                    /* \"@openzeppelin/contracts/token/ERC721/ERC721.sol\":10138:10145  _update */\n                  tag_129\n                    /* \"@openzeppelin/contracts/token/ERC721/ERC721.sol\":10138:10170  _update(to, tokenId, address(0)) */\n                  jump\t// in\n                tag_358:\n                    /* \"@openzeppelin/contracts/token/ERC721/ERC721.sol\":10114:10170  address previousOwner = _update(to, tokenId, address(0)) */\n                  swap1\n                  pop\n                  sub(shl(0xa0, 0x01), 0x01)\n                    /* \"@openzeppelin/contracts/token/ERC721/ERC721.sol\":10184:10211  previousOwner != address(0) */\n                  dup2\n                  and\n                  iszero\n                    /* \"@openzeppelin/contracts/token/ERC721/ERC721.sol\":10180:10276  if (previousOwner != address(0)) {... */\n                  tag_139\n                  jumpi\n                    /* \"@openzeppelin/contracts/token/ERC721/ERC721.sol\":10262:10263  0 */\n                  0x00\n                    /* \"@openzeppelin/contracts/token/ERC721/ERC721.sol\":10234:10265  ERC721InvalidSender(address(0)) */\n                  mload(0x40)\n                  shl(0xe1, 0x39e35637)\n                  dup2\n                  mstore\n                  0x04\n                  add\n                  tag_126\n                  swap2\n                  swap1\n                  tag_38\n                  jump\t// in\n                    /* \"@openzeppelin/contracts/token/ERC721/ERC721.sol\":7082:7450  function _checkAuthorized(address owner, address spender, uint256 tokenId) internal view virtual {... */\n                tag_317:\n                    /* \"@openzeppelin/contracts/token/ERC721/ERC721.sol\":7194:7232  _isAuthorized(owner, spender, tokenId) */\n                  tag_363\n                    /* \"@openzeppelin/contracts/token/ERC721/ERC721.sol\":7208:7213  owner */\n                  dup4\n                    /* \"@openzeppelin/contracts/token/ERC721/ERC721.sol\":7215:7222  spender */\n                  dup4\n                    /* \"@openzeppelin/contracts/token/ERC721/ERC721.sol\":7224:7231  tokenId */\n                  dup4\n                    /* \"@openzeppelin/contracts/token/ERC721/ERC721.sol\":7194:7207  _isAuthorized */\n                  tag_364\n                    /* \"@openzeppelin/contracts/token/ERC721/ERC721.sol\":7194:7232  _isAuthorized(owner, spender, tokenId) */\n                  jump\t// in\n                tag_363:\n                    /* \"@openzeppelin/contracts/token/ERC721/ERC721.sol\":7189:7444  if (!_isAuthorized(owner, spender, tokenId)) {... */\n                  tag_139\n                  jumpi\n                  sub(shl(0xa0, 0x01), 0x01)\n                    /* \"@openzeppelin/contracts/token/ERC721/ERC721.sol\":7252:7271  owner == address(0) */\n                  dup4\n                  and\n                    /* \"@openzeppelin/contracts/token/ERC721/ERC721.sol\":7248:7434  if (owner == address(0)) {... */\n                  tag_366\n                  jumpi\n                    /* \"@openzeppelin/contracts/token/ERC721/ERC721.sol\":7298:7329  ERC721NonexistentToken(tokenId) */\n                  mload(0x40)\n                  shl(0xe0, 0x7e273289)\n                  dup2\n                  mstore\n                  0x04\n                  dup2\n                  add\n                    /* \"#utility.yul\":2324:2349   */\n                  dup3\n                  swap1\n                  mstore\n                    /* \"#utility.yul\":2297:2315   */\n                  0x24\n                  add\n                    /* \"@openzeppelin/contracts/token/ERC721/ERC721.sol\":7298:7329  ERC721NonexistentToken(tokenId) */\n                  tag_126\n                    /* \"#utility.yul\":2178:2355   */\n                  jump\n                    /* \"@openzeppelin/contracts/token/ERC721/ERC721.sol\":7248:7434  if (owner == address(0)) {... */\n                tag_366:\n                    /* \"@openzeppelin/contracts/token/ERC721/ERC721.sol\":7402:7409  spender */\n                  dup2\n                    /* \"@openzeppelin/contracts/token/ERC721/ERC721.sol\":7411:7418  tokenId */\n                  dup2\n                    /* \"@openzeppelin/contracts/token/ERC721/ERC721.sol\":7375:7419  ERC721InsufficientApproval(spender, tokenId) */\n                  mload(0x40)\n                  shl(0xe0, 0x177e802f)\n                  dup2\n                  mstore\n                  0x04\n                  add\n                  tag_126\n                  swap3\n                  swap2\n                  swap1\n                  tag_137\n                  jump\t// in\n                    /* \"@openzeppelin/contracts/utils/math/Math.sol\":12214:13130  function log10(uint256 value) internal pure returns (uint256) {... */\n                tag_344:\n                    /* \"@openzeppelin/contracts/utils/math/Math.sol\":12267:12274  uint256 */\n                  0x00\n                  dup1\n                  shl(0x40, 0x184f03e93ff9f4daa797ed6e38ed64bf6a1f01)\n                    /* \"@openzeppelin/contracts/utils/math/Math.sol\":12342:12359  value >= 10 ** 64 */\n                  dup4\n                  lt\n                    /* \"@openzeppelin/contracts/utils/math/Math.sol\":12338:12441  if (value >= 10 ** 64) {... */\n                  tag_371\n                  jumpi\n                  shl(0x40, 0x184f03e93ff9f4daa797ed6e38ed64bf6a1f01)\n                    /* \"@openzeppelin/contracts/utils/math/Math.sol\":12379:12396  value /= 10 ** 64 */\n                  dup4\n                  div\n                  swap3\n                  pop\n                    /* \"@openzeppelin/contracts/utils/math/Math.sol\":12424:12426  64 */\n                  0x40\n                    /* \"@openzeppelin/contracts/utils/math/Math.sol\":12414:12426  result += 64 */\n                  add\n                    /* \"@openzeppelin/contracts/utils/math/Math.sol\":12338:12441  if (value >= 10 ** 64) {... */\n                tag_371:\n                  shl(0x20, 0x04ee2d6d415b85acef81)\n                    /* \"@openzeppelin/contracts/utils/math/Math.sol\":12458:12463  value */\n                  dup4\n                    /* \"@openzeppelin/contracts/utils/math/Math.sol\":12458:12475  value >= 10 ** 32 */\n                  lt\n                    /* \"@openzeppelin/contracts/utils/math/Math.sol\":12454:12557  if (value >= 10 ** 32) {... */\n                  tag_374\n                  jumpi\n                  shl(0x20, 0x04ee2d6d415b85acef81)\n                    /* \"@openzeppelin/contracts/utils/math/Math.sol\":12495:12512  value /= 10 ** 32 */\n                  dup4\n                  div\n                  swap3\n                  pop\n                    /* \"@openzeppelin/contracts/utils/math/Math.sol\":12540:12542  32 */\n                  0x20\n                    /* \"@openzeppelin/contracts/utils/math/Math.sol\":12530:12542  result += 32 */\n                  add\n                    /* \"@openzeppelin/contracts/utils/math/Math.sol\":12454:12557  if (value >= 10 ** 32) {... */\n                tag_374:\n                    /* \"@openzeppelin/contracts/utils/math/Math.sol\":12583:12591  10 ** 16 */\n                  0x2386f26fc10000\n                    /* \"@openzeppelin/contracts/utils/math/Math.sol\":12574:12579  value */\n                  dup4\n                    /* \"@openzeppelin/contracts/utils/math/Math.sol\":12574:12591  value >= 10 ** 16 */\n                  lt\n                    /* \"@openzeppelin/contracts/utils/math/Math.sol\":12570:12673  if (value >= 10 ** 16) {... */\n                  tag_377\n                  jumpi\n                    /* \"@openzeppelin/contracts/utils/math/Math.sol\":12620:12628  10 ** 16 */\n                  0x2386f26fc10000\n                    /* \"@openzeppelin/contracts/utils/math/Math.sol\":12611:12628  value /= 10 ** 16 */\n                  dup4\n                  div\n                  swap3\n                  pop\n                    /* \"@openzeppelin/contracts/utils/math/Math.sol\":12656:12658  16 */\n                  0x10\n                    /* \"@openzeppelin/contracts/utils/math/Math.sol\":12646:12658  result += 16 */\n                  add\n                    /* \"@openzeppelin/contracts/utils/math/Math.sol\":12570:12673  if (value >= 10 ** 16) {... */\n                tag_377:\n                    /* \"@openzeppelin/contracts/utils/math/Math.sol\":12699:12706  10 ** 8 */\n                  0x05f5e100\n                    /* \"@openzeppelin/contracts/utils/math/Math.sol\":12690:12695  value */\n                  dup4\n                    /* \"@openzeppelin/contracts/utils/math/Math.sol\":12690:12706  value >= 10 ** 8 */\n                  lt\n                    /* \"@openzeppelin/contracts/utils/math/Math.sol\":12686:12786  if (value >= 10 ** 8) {... */\n                  tag_380\n                  jumpi\n                    /* \"@openzeppelin/contracts/utils/math/Math.sol\":12735:12742  10 ** 8 */\n                  0x05f5e100\n                    /* \"@openzeppelin/contracts/utils/math/Math.sol\":12726:12742  value /= 10 ** 8 */\n                  dup4\n                  div\n                  swap3\n                  pop\n                    /* \"@openzeppelin/contracts/utils/math/Math.sol\":12770:12771  8 */\n                  0x08\n                    /* \"@openzeppelin/contracts/utils/math/Math.sol\":12760:12771  result += 8 */\n                  add\n                    /* \"@openzeppelin/contracts/utils/math/Math.sol\":12686:12786  if (value >= 10 ** 8) {... */\n                tag_380:\n                    /* \"@openzeppelin/contracts/utils/math/Math.sol\":12812:12819  10 ** 4 */\n                  0x2710\n                    /* \"@openzeppelin/contracts/utils/math/Math.sol\":12803:12808  value */\n                  dup4\n                    /* \"@openzeppelin/contracts/utils/math/Math.sol\":12803:12819  value >= 10 ** 4 */\n                  lt\n                    /* \"@openzeppelin/contracts/utils/math/Math.sol\":12799:12899  if (value >= 10 ** 4) {... */\n                  tag_383\n                  jumpi\n                    /* \"@openzeppelin/contracts/utils/math/Math.sol\":12848:12855  10 ** 4 */\n                  0x2710\n                    /* \"@openzeppelin/contracts/utils/math/Math.sol\":12839:12855  value /= 10 ** 4 */\n                  dup4\n                  div\n                  swap3\n                  pop\n                    /* \"@openzeppelin/contracts/utils/math/Math.sol\":12883:12884  4 */\n                  0x04\n                    /* \"@openzeppelin/contracts/utils/math/Math.sol\":12873:12884  result += 4 */\n                  add\n                    /* \"@openzeppelin/contracts/utils/math/Math.sol\":12799:12899  if (value >= 10 ** 4) {... */\n                tag_383:\n                    /* \"@openzeppelin/contracts/utils/math/Math.sol\":12925:12932  10 ** 2 */\n                  0x64\n                    /* \"@openzeppelin/contracts/utils/math/Math.sol\":12916:12921  value */\n                  dup4\n                    /* \"@openzeppelin/contracts/utils/math/Math.sol\":12916:12932  value >= 10 ** 2 */\n                  lt\n                    /* \"@openzeppelin/contracts/utils/math/Math.sol\":12912:13012  if (value >= 10 ** 2) {... */\n                  tag_386\n                  jumpi\n                    /* \"@openzeppelin/contracts/utils/math/Math.sol\":12961:12968  10 ** 2 */\n                  0x64\n                    /* \"@openzeppelin/contracts/utils/math/Math.sol\":12952:12968  value /= 10 ** 2 */\n                  dup4\n                  div\n                  swap3\n                  pop\n                    /* \"@openzeppelin/contracts/utils/math/Math.sol\":12996:12997  2 */\n                  0x02\n                    /* \"@openzeppelin/contracts/utils/math/Math.sol\":12986:12997  result += 2 */\n                  add\n                    /* \"@openzeppelin/contracts/utils/math/Math.sol\":12912:13012  if (value >= 10 ** 2) {... */\n                tag_386:\n                    /* \"@openzeppelin/contracts/utils/math/Math.sol\":13038:13045  10 ** 1 */\n                  0x0a\n                    /* \"@openzeppelin/contracts/utils/math/Math.sol\":13029:13034  value */\n                  dup4\n                    /* \"@openzeppelin/contracts/utils/math/Math.sol\":13029:13045  value >= 10 ** 1 */\n                  lt\n                    /* \"@openzeppelin/contracts/utils/math/Math.sol\":13025:13091  if (value >= 10 ** 1) {... */\n                  tag_104\n                  jumpi\n                    /* \"@openzeppelin/contracts/utils/math/Math.sol\":13075:13076  1 */\n                  0x01\n                    /* \"@openzeppelin/contracts/utils/math/Math.sol\":13065:13076  result += 1 */\n                  add\n                    /* \"@openzeppelin/contracts/utils/math/Math.sol\":13117:13123  result */\n                  swap3\n                    /* \"@openzeppelin/contracts/utils/math/Math.sol\":12214:13130  function log10(uint256 value) internal pure returns (uint256) {... */\n                  swap2\n                  pop\n                  pop\n                  jump\t// out\n                    /* \"@openzeppelin/contracts/token/ERC721/ERC721.sol\":6376:6648  function _isAuthorized(address owner, address spender, uint256 tokenId) internal view virtual returns (bool) {... */\n                tag_364:\n                    /* \"@openzeppelin/contracts/token/ERC721/ERC721.sol\":6479:6483  bool */\n                  0x00\n                  sub(shl(0xa0, 0x01), 0x01)\n                    /* \"@openzeppelin/contracts/token/ERC721/ERC721.sol\":6514:6535  spender != address(0) */\n                  dup4\n                  and\n                  iszero\n                  dup1\n                  iszero\n                  swap1\n                    /* \"@openzeppelin/contracts/token/ERC721/ERC721.sol\":6514:6641  spender != address(0) &&... */\n                  tag_208\n                  jumpi\n                  pop\n                    /* \"@openzeppelin/contracts/token/ERC721/ERC721.sol\":6561:6568  spender */\n                  dup3\n                  sub(shl(0xa0, 0x01), 0x01)\n                    /* \"@openzeppelin/contracts/token/ERC721/ERC721.sol\":6552:6568  owner == spender */\n                  and\n                    /* \"@openzeppelin/contracts/token/ERC721/ERC721.sol\":6552:6557  owner */\n                  dup5\n                  sub(shl(0xa0, 0x01), 0x01)\n                    /* \"@openzeppelin/contracts/token/ERC721/ERC721.sol\":6552:6568  owner == spender */\n                  and\n                  eq\n                    /* \"@openzeppelin/contracts/token/ERC721/ERC721.sol\":6552:6604  owner == spender || isApprovedForAll(owner, spender) */\n                  dup1\n                  tag_393\n                  jumpi\n                  pop\n                    /* \"@openzeppelin/contracts/token/ERC721/ERC721.sol\":6572:6604  isApprovedForAll(owner, spender) */\n                  tag_393\n                    /* \"@openzeppelin/contracts/token/ERC721/ERC721.sol\":6589:6594  owner */\n                  dup5\n                    /* \"@openzeppelin/contracts/token/ERC721/ERC721.sol\":6596:6603  spender */\n                  dup5\n                    /* \"@openzeppelin/contracts/token/ERC721/ERC721.sol\":6572:6588  isApprovedForAll */\n                  tag_98\n                    /* \"@openzeppelin/contracts/token/ERC721/ERC721.sol\":6572:6604  isApprovedForAll(owner, spender) */\n                  jump\t// in\n                tag_393:\n                    /* \"@openzeppelin/contracts/token/ERC721/ERC721.sol\":6552:6640  owner == spender || isApprovedForAll(owner, spender) || _getApproved(tokenId) == spender */\n                  dup1\n                  tag_208\n                  jumpi\n                  pop\n                    /* \"@openzeppelin/contracts/token/ERC721/ERC721.sol\":6633:6640  spender */\n                  dup3\n                  sub(shl(0xa0, 0x01), 0x01)\n                    /* \"@openzeppelin/contracts/token/ERC721/ERC721.sol\":6608:6640  _getApproved(tokenId) == spender */\n                  and\n                    /* \"@openzeppelin/contracts/token/ERC721/ERC721.sol\":6608:6629  _getApproved(tokenId) */\n                  tag_395\n                    /* \"@openzeppelin/contracts/token/ERC721/ERC721.sol\":6621:6628  tokenId */\n                  dup4\n                    /* \"@openzeppelin/contracts/token/ERC721/ERC721.sol\":6608:6620  _getApproved */\n                  tag_117\n                    /* \"@openzeppelin/contracts/token/ERC721/ERC721.sol\":6608:6629  _getApproved(tokenId) */\n                  jump\t// in\n                tag_395:\n                  sub(shl(0xa0, 0x01), 0x01)\n                    /* \"@openzeppelin/contracts/token/ERC721/ERC721.sol\":6608:6640  _getApproved(tokenId) == spender */\n                  and\n                  eq\n                  swap5\n                    /* \"@openzeppelin/contracts/token/ERC721/ERC721.sol\":6376:6648  function _isAuthorized(address owner, address spender, uint256 tokenId) internal view virtual returns (bool) {... */\n                  swap4\n                  pop\n                  pop\n                  pop\n                  pop\n                  jump\t// out\n                    /* \"#utility.yul\":14:145   */\n                tag_396:\n                  not(sub(shl(0xe0, 0x01), 0x01))\n                    /* \"#utility.yul\":88:120   */\n                  dup2\n                  and\n                    /* \"#utility.yul\":78:121   */\n                  dup2\n                  eq\n                    /* \"#utility.yul\":68:139   */\n                  tag_192\n                  jumpi\n                    /* \"#utility.yul\":135:136   */\n                  0x00\n                    /* \"#utility.yul\":132:133   */\n                  dup1\n                    /* \"#utility.yul\":125:137   */\n                  revert\n                    /* \"#utility.yul\":150:395   */\n                tag_25:\n                    /* \"#utility.yul\":208:214   */\n                  0x00\n                    /* \"#utility.yul\":261:263   */\n                  0x20\n                    /* \"#utility.yul\":249:258   */\n                  dup3\n                    /* \"#utility.yul\":240:247   */\n                  dup5\n                    /* \"#utility.yul\":236:259   */\n                  sub\n                    /* \"#utility.yul\":232:264   */\n                  slt\n                    /* \"#utility.yul\":229:281   */\n                  iszero\n                  tag_409\n                  jumpi\n                    /* \"#utility.yul\":277:278   */\n                  0x00\n                    /* \"#utility.yul\":274:275   */\n                  dup1\n                    /* \"#utility.yul\":267:279   */\n                  revert\n                    /* \"#utility.yul\":229:281   */\n                tag_409:\n                    /* \"#utility.yul\":316:325   */\n                  dup2\n                    /* \"#utility.yul\":303:326   */\n                  calldataload\n                    /* \"#utility.yul\":335:365   */\n                  tag_300\n                    /* \"#utility.yul\":359:364   */\n                  dup2\n                    /* \"#utility.yul\":335:365   */\n                  tag_396\n                  jump\t// in\n                    /* \"#utility.yul\":592:842   */\n                tag_397:\n                    /* \"#utility.yul\":677:678   */\n                  0x00\n                    /* \"#utility.yul\":687:800   */\n                tag_413:\n                    /* \"#utility.yul\":701:707   */\n                  dup4\n                    /* \"#utility.yul\":698:699   */\n                  dup2\n                    /* \"#utility.yul\":695:708   */\n                  lt\n                    /* \"#utility.yul\":687:800   */\n                  iszero\n                  tag_415\n                  jumpi\n                    /* \"#utility.yul\":777:788   */\n                  dup2\n                  dup2\n                  add\n                    /* \"#utility.yul\":771:789   */\n                  mload\n                    /* \"#utility.yul\":758:769   */\n                  dup4\n                  dup3\n                  add\n                    /* \"#utility.yul\":751:790   */\n                  mstore\n                    /* \"#utility.yul\":723:725   */\n                  0x20\n                    /* \"#utility.yul\":716:726   */\n                  add\n                    /* \"#utility.yul\":687:800   */\n                  jump(tag_413)\n                tag_415:\n                  pop\n                  pop\n                    /* \"#utility.yul\":834:835   */\n                  0x00\n                    /* \"#utility.yul\":816:832   */\n                  swap2\n                  add\n                    /* \"#utility.yul\":809:836   */\n                  mstore\n                    /* \"#utility.yul\":592:842   */\n                  jump\t// out\n                    /* \"#utility.yul\":847:1118   */\n                tag_398:\n                    /* \"#utility.yul\":889:892   */\n                  0x00\n                    /* \"#utility.yul\":927:932   */\n                  dup2\n                    /* \"#utility.yul\":921:933   */\n                  mload\n                    /* \"#utility.yul\":954:960   */\n                  dup1\n                    /* \"#utility.yul\":949:952   */\n                  dup5\n                    /* \"#utility.yul\":942:961   */\n                  mstore\n                    /* \"#utility.yul\":970:1046   */\n                  tag_417\n                    /* \"#utility.yul\":1039:1045   */\n                  dup2\n                    /* \"#utility.yul\":1032:1036   */\n                  0x20\n                    /* \"#utility.yul\":1027:1030   */\n                  dup7\n                    /* \"#utility.yul\":1023:1037   */\n                  add\n                    /* \"#utility.yul\":1016:1020   */\n                  0x20\n                    /* \"#utility.yul\":1009:1014   */\n                  dup7\n                    /* \"#utility.yul\":1005:1021   */\n                  add\n                    /* \"#utility.yul\":970:1046   */\n                  tag_397\n                  jump\t// in\n                tag_417:\n                    /* \"#utility.yul\":1100:1102   */\n                  0x1f\n                    /* \"#utility.yul\":1079:1094   */\n                  add\n                  not(0x1f)\n                    /* \"#utility.yul\":1075:1104   */\n                  and\n                    /* \"#utility.yul\":1066:1105   */\n                  swap3\n                  swap1\n                  swap3\n                  add\n                    /* \"#utility.yul\":1107:1111   */\n                  0x20\n                    /* \"#utility.yul\":1062:1112   */\n                  add\n                  swap3\n                    /* \"#utility.yul\":847:1118   */\n                  swap2\n                  pop\n                  pop\n                  jump\t// out\n                    /* \"#utility.yul\":1123:1343   */\n                tag_32:\n                    /* \"#utility.yul\":1272:1274   */\n                  0x20\n                    /* \"#utility.yul\":1261:1270   */\n                  dup2\n                    /* \"#utility.yul\":1254:1275   */\n                  mstore\n                    /* \"#utility.yul\":1235:1239   */\n                  0x00\n                    /* \"#utility.yul\":1292:1337   */\n                  tag_300\n                    /* \"#utility.yul\":1333:1335   */\n                  0x20\n                    /* \"#utility.yul\":1322:1331   */\n                  dup4\n                    /* \"#utility.yul\":1318:1336   */\n                  add\n                    /* \"#utility.yul\":1310:1316   */\n                  dup5\n                    /* \"#utility.yul\":1292:1337   */\n                  tag_398\n                  jump\t// in\n                    /* \"#utility.yul\":1348:1528   */\n                tag_35:\n                    /* \"#utility.yul\":1407:1413   */\n                  0x00\n                    /* \"#utility.yul\":1460:1462   */\n                  0x20\n                    /* \"#utility.yul\":1448:1457   */\n                  dup3\n                    /* \"#utility.yul\":1439:1446   */\n                  dup5\n                    /* \"#utility.yul\":1435:1458   */\n                  sub\n                    /* \"#utility.yul\":1431:1463   */\n                  slt\n                    /* \"#utility.yul\":1428:1480   */\n                  iszero\n                  tag_421\n                  jumpi\n                    /* \"#utility.yul\":1476:1477   */\n                  0x00\n                    /* \"#utility.yul\":1473:1474   */\n                  dup1\n                    /* \"#utility.yul\":1466:1478   */\n                  revert\n                    /* \"#utility.yul\":1428:1480   */\n                tag_421:\n                  pop\n                    /* \"#utility.yul\":1499:1522   */\n                  calldataload\n                  swap2\n                    /* \"#utility.yul\":1348:1528   */\n                  swap1\n                  pop\n                  jump\t// out\n                    /* \"#utility.yul\":1533:1736   */\n                tag_38:\n                  sub(shl(0xa0, 0x01), 0x01)\n                    /* \"#utility.yul\":1697:1729   */\n                  swap2\n                  swap1\n                  swap2\n                  and\n                    /* \"#utility.yul\":1679:1730   */\n                  dup2\n                  mstore\n                    /* \"#utility.yul\":1667:1669   */\n                  0x20\n                    /* \"#utility.yul\":1652:1670   */\n                  add\n                  swap1\n                    /* \"#utility.yul\":1533:1736   */\n                  jump\t// out\n                    /* \"#utility.yul\":1741:1914   */\n                tag_399:\n                    /* \"#utility.yul\":1809:1829   */\n                  dup1\n                  calldataload\n                  sub(shl(0xa0, 0x01), 0x01)\n                    /* \"#utility.yul\":1858:1889   */\n                  dup2\n                  and\n                    /* \"#utility.yul\":1848:1890   */\n                  dup2\n                  eq\n                    /* \"#utility.yul\":1838:1908   */\n                  tag_424\n                  jumpi\n                    /* \"#utility.yul\":1904:1905   */\n                  0x00\n                    /* \"#utility.yul\":1901:1902   */\n                  dup1\n                    /* \"#utility.yul\":1894:1906   */\n                  revert\n                    /* \"#utility.yul\":1838:1908   */\n                tag_424:\n                    /* \"#utility.yul\":1741:1914   */\n                  swap2\n                  swap1\n                  pop\n                  jump\t// out\n                    /* \"#utility.yul\":1919:2173   */\n                tag_41:\n                    /* \"#utility.yul\":1987:1993   */\n                  0x00\n                    /* \"#utility.yul\":1995:2001   */\n                  dup1\n                    /* \"#utility.yul\":2048:2050   */\n                  0x40\n                    /* \"#utility.yul\":2036:2045   */\n                  dup4\n                    /* \"#utility.yul\":2027:2034   */\n                  dup6\n                    /* \"#utility.yul\":2023:2046   */\n                  sub\n                    /* \"#utility.yul\":2019:2051   */\n                  slt\n                    /* \"#utility.yul\":2016:2068   */\n                  iszero\n                  tag_426\n                  jumpi\n                    /* \"#utility.yul\":2064:2065   */\n                  0x00\n                    /* \"#utility.yul\":2061:2062   */\n                  dup1\n                    /* \"#utility.yul\":2054:2066   */\n                  revert\n                    /* \"#utility.yul\":2016:2068   */\n                tag_426:\n                    /* \"#utility.yul\":2087:2116   */\n                  tag_427\n                    /* \"#utility.yul\":2106:2115   */\n                  dup4\n                    /* \"#utility.yul\":2087:2116   */\n                  tag_399\n                  jump\t// in\n                tag_427:\n                    /* \"#utility.yul\":2077:2116   */\n                  swap5\n                    /* \"#utility.yul\":2163:2165   */\n                  0x20\n                    /* \"#utility.yul\":2148:2166   */\n                  swap4\n                  swap1\n                  swap4\n                  add\n                    /* \"#utility.yul\":2135:2167   */\n                  calldataload\n                  swap4\n                  pop\n                  pop\n                  pop\n                    /* \"#utility.yul\":1919:2173   */\n                  jump\t// out\n                    /* \"#utility.yul\":2360:2688   */\n                tag_49:\n                    /* \"#utility.yul\":2437:2443   */\n                  0x00\n                    /* \"#utility.yul\":2445:2451   */\n                  dup1\n                    /* \"#utility.yul\":2453:2459   */\n                  0x00\n                    /* \"#utility.yul\":2506:2508   */\n                  0x60\n                    /* \"#utility.yul\":2494:2503   */\n                  dup5\n                    /* \"#utility.yul\":2485:2492   */\n                  dup7\n                    /* \"#utility.yul\":2481:2504   */\n                  sub\n                    /* \"#utility.yul\":2477:2509   */\n                  slt\n                    /* \"#utility.yul\":2474:2526   */\n                  iszero\n                  tag_430\n                  jumpi\n                    /* \"#utility.yul\":2522:2523   */\n                  0x00\n                    /* \"#utility.yul\":2519:2520   */\n                  dup1\n                    /* \"#utility.yul\":2512:2524   */\n                  revert\n                    /* \"#utility.yul\":2474:2526   */\n                tag_430:\n                    /* \"#utility.yul\":2545:2574   */\n                  tag_431\n                    /* \"#utility.yul\":2564:2573   */\n                  dup5\n                    /* \"#utility.yul\":2545:2574   */\n                  tag_399\n                  jump\t// in\n                tag_431:\n                    /* \"#utility.yul\":2535:2574   */\n                  swap3\n                  pop\n                    /* \"#utility.yul\":2593:2631   */\n                  tag_432\n                    /* \"#utility.yul\":2627:2629   */\n                  0x20\n                    /* \"#utility.yul\":2616:2625   */\n                  dup6\n                    /* \"#utility.yul\":2612:2630   */\n                  add\n                    /* \"#utility.yul\":2593:2631   */\n                  tag_399\n                  jump\t// in\n                tag_432:\n                    /* \"#utility.yul\":2583:2631   */\n                  swap2\n                  pop\n                    /* \"#utility.yul\":2678:2680   */\n                  0x40\n                    /* \"#utility.yul\":2667:2676   */\n                  dup5\n                    /* \"#utility.yul\":2663:2681   */\n                  add\n                    /* \"#utility.yul\":2650:2682   */\n                  calldataload\n                    /* \"#utility.yul\":2640:2682   */\n                  swap1\n                  pop\n                    /* \"#utility.yul\":2360:2688   */\n                  swap3\n                  pop\n                  swap3\n                  pop\n                  swap3\n                  jump\t// out\n                    /* \"#utility.yul\":2693:2879   */\n                tag_68:\n                    /* \"#utility.yul\":2752:2758   */\n                  0x00\n                    /* \"#utility.yul\":2805:2807   */\n                  0x20\n                    /* \"#utility.yul\":2793:2802   */\n                  dup3\n                    /* \"#utility.yul\":2784:2791   */\n                  dup5\n                    /* \"#utility.yul\":2780:2803   */\n                  sub\n                    /* \"#utility.yul\":2776:2808   */\n                  slt\n                    /* \"#utility.yul\":2773:2825   */\n                  iszero\n                  tag_434\n                  jumpi\n                    /* \"#utility.yul\":2821:2822   */\n                  0x00\n                    /* \"#utility.yul\":2818:2819   */\n                  dup1\n                    /* \"#utility.yul\":2811:2823   */\n                  revert\n                    /* \"#utility.yul\":2773:2825   */\n                tag_434:\n                    /* \"#utility.yul\":2844:2873   */\n                  tag_300\n                    /* \"#utility.yul\":2863:2872   */\n                  dup3\n                    /* \"#utility.yul\":2844:2873   */\n                  tag_399\n                  jump\t// in\n                    /* \"#utility.yul\":2884:3231   */\n                tag_81:\n                    /* \"#utility.yul\":2949:2955   */\n                  0x00\n                    /* \"#utility.yul\":2957:2963   */\n                  dup1\n                    /* \"#utility.yul\":3010:3012   */\n                  0x40\n                    /* \"#utility.yul\":2998:3007   */\n                  dup4\n                    /* \"#utility.yul\":2989:2996   */\n                  dup6\n                    /* \"#utility.yul\":2985:3008   */\n                  sub\n                    /* \"#utility.yul\":2981:3013   */\n                  slt\n                    /* \"#utility.yul\":2978:3030   */\n                  iszero\n                  tag_437\n                  jumpi\n                    /* \"#utility.yul\":3026:3027   */\n                  0x00\n                    /* \"#utility.yul\":3023:3024   */\n                  dup1\n                    /* \"#utility.yul\":3016:3028   */\n                  revert\n                    /* \"#utility.yul\":2978:3030   */\n                tag_437:\n                    /* \"#utility.yul\":3049:3078   */\n                  tag_438\n                    /* \"#utility.yul\":3068:3077   */\n                  dup4\n                    /* \"#utility.yul\":3049:3078   */\n                  tag_399\n                  jump\t// in\n                tag_438:\n                    /* \"#utility.yul\":3039:3078   */\n                  swap2\n                  pop\n                    /* \"#utility.yul\":3128:3130   */\n                  0x20\n                    /* \"#utility.yul\":3117:3126   */\n                  dup4\n                    /* \"#utility.yul\":3113:3131   */\n                  add\n                    /* \"#utility.yul\":3100:3132   */\n                  calldataload\n                    /* \"#utility.yul\":3175:3180   */\n                  dup1\n                    /* \"#utility.yul\":3168:3181   */\n                  iszero\n                    /* \"#utility.yul\":3161:3182   */\n                  iszero\n                    /* \"#utility.yul\":3154:3159   */\n                  dup2\n                    /* \"#utility.yul\":3151:3183   */\n                  eq\n                    /* \"#utility.yul\":3141:3201   */\n                  tag_439\n                  jumpi\n                    /* \"#utility.yul\":3197:3198   */\n                  0x00\n                    /* \"#utility.yul\":3194:3195   */\n                  dup1\n                    /* \"#utility.yul\":3187:3199   */\n                  revert\n                    /* \"#utility.yul\":3141:3201   */\n                tag_439:\n                    /* \"#utility.yul\":3220:3225   */\n                  dup1\n                    /* \"#utility.yul\":3210:3225   */\n                  swap2\n                  pop\n                  pop\n                    /* \"#utility.yul\":2884:3231   */\n                  swap3\n                  pop\n                  swap3\n                  swap1\n                  pop\n                  jump\t// out\n                    /* \"#utility.yul\":3236:3363   */\n                tag_347:\n                    /* \"#utility.yul\":3297:3307   */\n                  0x4e487b71\n                    /* \"#utility.yul\":3292:3295   */\n                  0xe0\n                    /* \"#utility.yul\":3288:3308   */\n                  shl\n                    /* \"#utility.yul\":3285:3286   */\n                  0x00\n                    /* \"#utility.yul\":3278:3309   */\n                  mstore\n                    /* \"#utility.yul\":3328:3332   */\n                  0x41\n                    /* \"#utility.yul\":3325:3326   */\n                  0x04\n                    /* \"#utility.yul\":3318:3333   */\n                  mstore\n                    /* \"#utility.yul\":3352:3356   */\n                  0x24\n                    /* \"#utility.yul\":3349:3350   */\n                  0x00\n                    /* \"#utility.yul\":3342:3357   */\n                  revert\n                    /* \"#utility.yul\":3368:3999   */\n                tag_400:\n                    /* \"#utility.yul\":3432:3437   */\n                  0x00\n                  sub(shl(0x40, 0x01), 0x01)\n                    /* \"#utility.yul\":3492:3506   */\n                  dup1\n                  dup5\n                  gt\n                    /* \"#utility.yul\":3489:3529   */\n                  iszero\n                  tag_443\n                  jumpi\n                    /* \"#utility.yul\":3509:3527   */\n                  tag_443\n                  tag_347\n                  jump\t// in\n                tag_443:\n                    /* \"#utility.yul\":3584:3586   */\n                  0x40\n                    /* \"#utility.yul\":3578:3587   */\n                  mload\n                    /* \"#utility.yul\":3552:3554   */\n                  0x1f\n                    /* \"#utility.yul\":3638:3653   */\n                  dup6\n                  add\n                  not(0x1f)\n                    /* \"#utility.yul\":3634:3658   */\n                  swap1\n                  dup2\n                  and\n                    /* \"#utility.yul\":3660:3662   */\n                  0x3f\n                    /* \"#utility.yul\":3630:3663   */\n                  add\n                    /* \"#utility.yul\":3626:3668   */\n                  and\n                    /* \"#utility.yul\":3614:3669   */\n                  dup2\n                  add\n                  swap1\n                    /* \"#utility.yul\":3684:3702   */\n                  dup3\n                  dup3\n                  gt\n                    /* \"#utility.yul\":3704:3726   */\n                  dup2\n                  dup4\n                  lt\n                    /* \"#utility.yul\":3681:3727   */\n                  or\n                    /* \"#utility.yul\":3678:3750   */\n                  iszero\n                  tag_445\n                  jumpi\n                    /* \"#utility.yul\":3730:3748   */\n                  tag_445\n                  tag_347\n                  jump\t// in\n                tag_445:\n                    /* \"#utility.yul\":3770:3780   */\n                  dup2\n                    /* \"#utility.yul\":3766:3768   */\n                  0x40\n                    /* \"#utility.yul\":3759:3781   */\n                  mstore\n                    /* \"#utility.yul\":3799:3805   */\n                  dup1\n                    /* \"#utility.yul\":3790:3805   */\n                  swap4\n                  pop\n                    /* \"#utility.yul\":3829:3835   */\n                  dup6\n                    /* \"#utility.yul\":3821:3827   */\n                  dup2\n                    /* \"#utility.yul\":3814:3836   */\n                  mstore\n                    /* \"#utility.yul\":3869:3872   */\n                  dup7\n                    /* \"#utility.yul\":3860:3866   */\n                  dup7\n                    /* \"#utility.yul\":3855:3858   */\n                  dup7\n                    /* \"#utility.yul\":3851:3867   */\n                  add\n                    /* \"#utility.yul\":3848:3873   */\n                  gt\n                    /* \"#utility.yul\":3845:3890   */\n                  iszero\n                  tag_446\n                  jumpi\n                    /* \"#utility.yul\":3886:3887   */\n                  0x00\n                    /* \"#utility.yul\":3883:3884   */\n                  dup1\n                    /* \"#utility.yul\":3876:3888   */\n                  revert\n                    /* \"#utility.yul\":3845:3890   */\n                tag_446:\n                    /* \"#utility.yul\":3936:3942   */\n                  dup6\n                    /* \"#utility.yul\":3931:3934   */\n                  dup6\n                    /* \"#utility.yul\":3924:3928   */\n                  0x20\n                    /* \"#utility.yul\":3916:3922   */\n                  dup4\n                    /* \"#utility.yul\":3912:3929   */\n                  add\n                    /* \"#utility.yul\":3899:3943   */\n                  calldatacopy\n                    /* \"#utility.yul\":3991:3992   */\n                  0x00\n                    /* \"#utility.yul\":3984:3988   */\n                  0x20\n                    /* \"#utility.yul\":3975:3981   */\n                  dup8\n                    /* \"#utility.yul\":3967:3973   */\n                  dup4\n                    /* \"#utility.yul\":3963:3982   */\n                  add\n                    /* \"#utility.yul\":3959:3989   */\n                  add\n                    /* \"#utility.yul\":3952:3993   */\n                  mstore\n                  pop\n                  pop\n                  pop\n                    /* \"#utility.yul\":3368:3999   */\n                  swap4\n                  swap3\n                  pop\n                  pop\n                  pop\n                  jump\t// out\n                    /* \"#utility.yul\":4004:4670   */\n                tag_85:\n                    /* \"#utility.yul\":4099:4105   */\n                  0x00\n                    /* \"#utility.yul\":4107:4113   */\n                  dup1\n                    /* \"#utility.yul\":4115:4121   */\n                  0x00\n                    /* \"#utility.yul\":4123:4129   */\n                  dup1\n                    /* \"#utility.yul\":4176:4179   */\n                  0x80\n                    /* \"#utility.yul\":4164:4173   */\n                  dup6\n                    /* \"#utility.yul\":4155:4162   */\n                  dup8\n                    /* \"#utility.yul\":4151:4174   */\n                  sub\n                    /* \"#utility.yul\":4147:4180   */\n                  slt\n                    /* \"#utility.yul\":4144:4197   */\n                  iszero\n                  tag_448\n                  jumpi\n                    /* \"#utility.yul\":4193:4194   */\n                  0x00\n                    /* \"#utility.yul\":4190:4191   */\n                  dup1\n                    /* \"#utility.yul\":4183:4195   */\n                  revert\n                    /* \"#utility.yul\":4144:4197   */\n                tag_448:\n                    /* \"#utility.yul\":4216:4245   */\n                  tag_449\n                    /* \"#utility.yul\":4235:4244   */\n                  dup6\n                    /* \"#utility.yul\":4216:4245   */\n                  tag_399\n                  jump\t// in\n                tag_449:\n                    /* \"#utility.yul\":4206:4245   */\n                  swap4\n                  pop\n                    /* \"#utility.yul\":4264:4302   */\n                  tag_450\n                    /* \"#utility.yul\":4298:4300   */\n                  0x20\n                    /* \"#utility.yul\":4287:4296   */\n                  dup7\n                    /* \"#utility.yul\":4283:4301   */\n                  add\n                    /* \"#utility.yul\":4264:4302   */\n                  tag_399\n                  jump\t// in\n                tag_450:\n                    /* \"#utility.yul\":4254:4302   */\n                  swap3\n                  pop\n                    /* \"#utility.yul\":4349:4351   */\n                  0x40\n                    /* \"#utility.yul\":4334:4352   */\n                  dup6\n                  add\n                    /* \"#utility.yul\":4321:4353   */\n                  calldataload\n                  swap2\n                  pop\n                    /* \"#utility.yul\":4404:4406   */\n                  0x60\n                    /* \"#utility.yul\":4389:4407   */\n                  dup6\n                  add\n                    /* \"#utility.yul\":4376:4408   */\n                  calldataload\n                  sub(shl(0x40, 0x01), 0x01)\n                    /* \"#utility.yul\":4420:4450   */\n                  dup2\n                  gt\n                    /* \"#utility.yul\":4417:4467   */\n                  iszero\n                  tag_451\n                  jumpi\n                    /* \"#utility.yul\":4463:4464   */\n                  0x00\n                    /* \"#utility.yul\":4460:4461   */\n                  dup1\n                    /* \"#utility.yul\":4453:4465   */\n                  revert\n                    /* \"#utility.yul\":4417:4467   */\n                tag_451:\n                    /* \"#utility.yul\":4486:4508   */\n                  dup6\n                  add\n                    /* \"#utility.yul\":4539:4543   */\n                  0x1f\n                    /* \"#utility.yul\":4531:4544   */\n                  dup2\n                  add\n                    /* \"#utility.yul\":4527:4554   */\n                  dup8\n                  sgt\n                    /* \"#utility.yul\":4517:4572   */\n                  tag_452\n                  jumpi\n                    /* \"#utility.yul\":4568:4569   */\n                  0x00\n                    /* \"#utility.yul\":4565:4566   */\n                  dup1\n                    /* \"#utility.yul\":4558:4570   */\n                  revert\n                    /* \"#utility.yul\":4517:4572   */\n                tag_452:\n                    /* \"#utility.yul\":4591:4664   */\n                  tag_453\n                    /* \"#utility.yul\":4656:4663   */\n                  dup8\n                    /* \"#utility.yul\":4651:4653   */\n                  dup3\n                    /* \"#utility.yul\":4638:4654   */\n                  calldataload\n                    /* \"#utility.yul\":4633:4635   */\n                  0x20\n                    /* \"#utility.yul\":4629:4631   */\n                  dup5\n                    /* \"#utility.yul\":4625:4636   */\n                  add\n                    /* \"#utility.yul\":4591:4664   */\n                  tag_400\n                  jump\t// in\n                tag_453:\n                    /* \"#utility.yul\":4581:4664   */\n                  swap2\n                  pop\n                  pop\n                    /* \"#utility.yul\":4004:4670   */\n                  swap3\n                  swap6\n                  swap2\n                  swap5\n                  pop\n                  swap3\n                  pop\n                  jump\t// out\n                    /* \"#utility.yul\":4675:5199   */\n                tag_93:\n                    /* \"#utility.yul\":4753:4759   */\n                  0x00\n                    /* \"#utility.yul\":4761:4767   */\n                  dup1\n                    /* \"#utility.yul\":4814:4816   */\n                  0x40\n                    /* \"#utility.yul\":4802:4811   */\n                  dup4\n                    /* \"#utility.yul\":4793:4800   */\n                  dup6\n                    /* \"#utility.yul\":4789:4812   */\n                  sub\n                    /* \"#utility.yul\":4785:4817   */\n                  slt\n                    /* \"#utility.yul\":4782:4834   */\n                  iszero\n                  tag_455\n                  jumpi\n                    /* \"#utility.yul\":4830:4831   */\n                  0x00\n                    /* \"#utility.yul\":4827:4828   */\n                  dup1\n                    /* \"#utility.yul\":4820:4832   */\n                  revert\n                    /* \"#utility.yul\":4782:4834   */\n                tag_455:\n                    /* \"#utility.yul\":4853:4882   */\n                  tag_456\n                    /* \"#utility.yul\":4872:4881   */\n                  dup4\n                    /* \"#utility.yul\":4853:4882   */\n                  tag_399\n                  jump\t// in\n                tag_456:\n                    /* \"#utility.yul\":4843:4882   */\n                  swap2\n                  pop\n                    /* \"#utility.yul\":4933:4935   */\n                  0x20\n                    /* \"#utility.yul\":4918:4936   */\n                  dup4\n                  add\n                    /* \"#utility.yul\":4905:4937   */\n                  calldataload\n                  sub(shl(0x40, 0x01), 0x01)\n                    /* \"#utility.yul\":4949:4979   */\n                  dup2\n                  gt\n                    /* \"#utility.yul\":4946:4996   */\n                  iszero\n                  tag_457\n                  jumpi\n                    /* \"#utility.yul\":4992:4993   */\n                  0x00\n                    /* \"#utility.yul\":4989:4990   */\n                  dup1\n                    /* \"#utility.yul\":4982:4994   */\n                  revert\n                    /* \"#utility.yul\":4946:4996   */\n                tag_457:\n                    /* \"#utility.yul\":5015:5037   */\n                  dup4\n                  add\n                    /* \"#utility.yul\":5068:5072   */\n                  0x1f\n                    /* \"#utility.yul\":5060:5073   */\n                  dup2\n                  add\n                    /* \"#utility.yul\":5056:5083   */\n                  dup6\n                  sgt\n                    /* \"#utility.yul\":5046:5101   */\n                  tag_458\n                  jumpi\n                    /* \"#utility.yul\":5097:5098   */\n                  0x00\n                    /* \"#utility.yul\":5094:5095   */\n                  dup1\n                    /* \"#utility.yul\":5087:5099   */\n                  revert\n                    /* \"#utility.yul\":5046:5101   */\n                tag_458:\n                    /* \"#utility.yul\":5120:5193   */\n                  tag_459\n                    /* \"#utility.yul\":5185:5192   */\n                  dup6\n                    /* \"#utility.yul\":5180:5182   */\n                  dup3\n                    /* \"#utility.yul\":5167:5183   */\n                  calldataload\n                    /* \"#utility.yul\":5162:5164   */\n                  0x20\n                    /* \"#utility.yul\":5158:5160   */\n                  dup5\n                    /* \"#utility.yul\":5154:5165   */\n                  add\n                    /* \"#utility.yul\":5120:5193   */\n                  tag_400\n                  jump\t// in\n                tag_459:\n                    /* \"#utility.yul\":5110:5193   */\n                  swap2\n                  pop\n                  pop\n                    /* \"#utility.yul\":4675:5199   */\n                  swap3\n                  pop\n                  swap3\n                  swap1\n                  pop\n                  jump\t// out\n                    /* \"#utility.yul\":5204:5464   */\n                tag_97:\n                    /* \"#utility.yul\":5272:5278   */\n                  0x00\n                    /* \"#utility.yul\":5280:5286   */\n                  dup1\n                    /* \"#utility.yul\":5333:5335   */\n                  0x40\n                    /* \"#utility.yul\":5321:5330   */\n                  dup4\n                    /* \"#utility.yul\":5312:5319   */\n                  dup6\n                    /* \"#utility.yul\":5308:5331   */\n                  sub\n                    /* \"#utility.yul\":5304:5336   */\n                  slt\n                    /* \"#utility.yul\":5301:5353   */\n                  iszero\n                  tag_461\n                  jumpi\n                    /* \"#utility.yul\":5349:5350   */\n                  0x00\n                    /* \"#utility.yul\":5346:5347   */\n                  dup1\n                    /* \"#utility.yul\":5339:5351   */\n                  revert\n                    /* \"#utility.yul\":5301:5353   */\n                tag_461:\n                    /* \"#utility.yul\":5372:5401   */\n                  tag_462\n                    /* \"#utility.yul\":5391:5400   */\n                  dup4\n                    /* \"#utility.yul\":5372:5401   */\n                  tag_399\n                  jump\t// in\n                tag_462:\n                    /* \"#utility.yul\":5362:5401   */\n                  swap2\n                  pop\n                    /* \"#utility.yul\":5420:5458   */\n                  tag_463\n                    /* \"#utility.yul\":5454:5456   */\n                  0x20\n                    /* \"#utility.yul\":5443:5452   */\n                  dup5\n                    /* \"#utility.yul\":5439:5457   */\n                  add\n                    /* \"#utility.yul\":5420:5458   */\n                  tag_399\n                  jump\t// in\n                tag_463:\n                    /* \"#utility.yul\":5410:5458   */\n                  swap1\n                  pop\n                    /* \"#utility.yul\":5204:5464   */\n                  swap3\n                  pop\n                  swap3\n                  swap1\n                  pop\n                  jump\t// out\n                    /* \"#utility.yul\":5469:5849   */\n                tag_108:\n                    /* \"#utility.yul\":5548:5549   */\n                  0x01\n                    /* \"#utility.yul\":5544:5556   */\n                  dup2\n                  dup2\n                  shr\n                  swap1\n                    /* \"#utility.yul\":5591:5603   */\n                  dup3\n                  and\n                  dup1\n                    /* \"#utility.yul\":5612:5673   */\n                  tag_465\n                  jumpi\n                    /* \"#utility.yul\":5666:5670   */\n                  0x7f\n                    /* \"#utility.yul\":5658:5664   */\n                  dup3\n                    /* \"#utility.yul\":5654:5671   */\n                  and\n                    /* \"#utility.yul\":5644:5671   */\n                  swap2\n                  pop\n                    /* \"#utility.yul\":5612:5673   */\n                tag_465:\n                    /* \"#utility.yul\":5719:5721   */\n                  0x20\n                    /* \"#utility.yul\":5711:5717   */\n                  dup3\n                    /* \"#utility.yul\":5708:5722   */\n                  lt\n                    /* \"#utility.yul\":5688:5706   */\n                  dup2\n                    /* \"#utility.yul\":5685:5723   */\n                  sub\n                    /* \"#utility.yul\":5682:5843   */\n                  tag_466\n                  jumpi\n                    /* \"#utility.yul\":5765:5775   */\n                  0x4e487b71\n                    /* \"#utility.yul\":5760:5763   */\n                  0xe0\n                    /* \"#utility.yul\":5756:5776   */\n                  shl\n                    /* \"#utility.yul\":5753:5754   */\n                  0x00\n                    /* \"#utility.yul\":5746:5777   */\n                  mstore\n                    /* \"#utility.yul\":5800:5804   */\n                  0x22\n                    /* \"#utility.yul\":5797:5798   */\n                  0x04\n                    /* \"#utility.yul\":5790:5805   */\n                  mstore\n                    /* \"#utility.yul\":5828:5832   */\n                  0x24\n                    /* \"#utility.yul\":5825:5826   */\n                  0x00\n                    /* \"#utility.yul\":5818:5833   */\n                  revert\n                    /* \"#utility.yul\":5682:5843   */\n                tag_466:\n                  pop\n                    /* \"#utility.yul\":5469:5849   */\n                  swap2\n                  swap1\n                  pop\n                  jump\t// out\n                    /* \"#utility.yul\":6234:6508   */\n                tag_137:\n                  sub(shl(0xa0, 0x01), 0x01)\n                    /* \"#utility.yul\":6426:6458   */\n                  swap3\n                  swap1\n                  swap3\n                  and\n                    /* \"#utility.yul\":6408:6459   */\n                  dup3\n                  mstore\n                    /* \"#utility.yul\":6490:6492   */\n                  0x20\n                    /* \"#utility.yul\":6475:6493   */\n                  dup3\n                  add\n                    /* \"#utility.yul\":6468:6502   */\n                  mstore\n                    /* \"#utility.yul\":6396:6398   */\n                  0x40\n                    /* \"#utility.yul\":6381:6399   */\n                  add\n                  swap1\n                    /* \"#utility.yul\":6234:6508   */\n                  jump\t// out\n                    /* \"#utility.yul\":6513:6640   */\n                tag_146:\n                    /* \"#utility.yul\":6574:6584   */\n                  0x4e487b71\n                    /* \"#utility.yul\":6569:6572   */\n                  0xe0\n                    /* \"#utility.yul\":6565:6585   */\n                  shl\n                    /* \"#utility.yul\":6562:6563   */\n                  0x00\n                    /* \"#utility.yul\":6555:6586   */\n                  mstore\n                    /* \"#utility.yul\":6605:6609   */\n                  0x32\n                    /* \"#utility.yul\":6602:6603   */\n                  0x04\n                    /* \"#utility.yul\":6595:6610   */\n                  mstore\n                    /* \"#utility.yul\":6629:6633   */\n                  0x24\n                    /* \"#utility.yul\":6626:6627   */\n                  0x00\n                    /* \"#utility.yul\":6619:6634   */\n                  revert\n                    /* \"#utility.yul\":6645:6772   */\n                tag_401:\n                    /* \"#utility.yul\":6706:6716   */\n                  0x4e487b71\n                    /* \"#utility.yul\":6701:6704   */\n                  0xe0\n                    /* \"#utility.yul\":6697:6717   */\n                  shl\n                    /* \"#utility.yul\":6694:6695   */\n                  0x00\n                    /* \"#utility.yul\":6687:6718   */\n                  mstore\n                    /* \"#utility.yul\":6737:6741   */\n                  0x11\n                    /* \"#utility.yul\":6734:6735   */\n                  0x04\n                    /* \"#utility.yul\":6727:6742   */\n                  mstore\n                    /* \"#utility.yul\":6761:6765   */\n                  0x24\n                    /* \"#utility.yul\":6758:6759   */\n                  0x00\n                    /* \"#utility.yul\":6751:6766   */\n                  revert\n                    /* \"#utility.yul\":6777:6912   */\n                tag_181:\n                    /* \"#utility.yul\":6816:6819   */\n                  0x00\n                    /* \"#utility.yul\":6837:6854   */\n                  0x01\n                  dup3\n                  add\n                    /* \"#utility.yul\":6834:6877   */\n                  tag_473\n                  jumpi\n                    /* \"#utility.yul\":6857:6875   */\n                  tag_473\n                  tag_401\n                  jump\t// in\n                tag_473:\n                  pop\n                    /* \"#utility.yul\":6904:6905   */\n                  0x01\n                    /* \"#utility.yul\":6893:6906   */\n                  add\n                  swap1\n                    /* \"#utility.yul\":6777:6912   */\n                  jump\t// out\n                    /* \"#utility.yul\":6917:7406   */\n                tag_225:\n                  sub(shl(0xa0, 0x01), 0x01)\n                    /* \"#utility.yul\":7186:7201   */\n                  dup6\n                  dup2\n                  and\n                    /* \"#utility.yul\":7168:7202   */\n                  dup3\n                  mstore\n                    /* \"#utility.yul\":7238:7253   */\n                  dup5\n                  and\n                    /* \"#utility.yul\":7233:7235   */\n                  0x20\n                    /* \"#utility.yul\":7218:7236   */\n                  dup3\n                  add\n                    /* \"#utility.yul\":7211:7254   */\n                  mstore\n                    /* \"#utility.yul\":7285:7287   */\n                  0x40\n                    /* \"#utility.yul\":7270:7288   */\n                  dup2\n                  add\n                    /* \"#utility.yul\":7263:7297   */\n                  dup4\n                  swap1\n                  mstore\n                    /* \"#utility.yul\":7333:7336   */\n                  0x80\n                    /* \"#utility.yul\":7328:7330   */\n                  0x60\n                    /* \"#utility.yul\":7313:7331   */\n                  dup3\n                  add\n                    /* \"#utility.yul\":7306:7337   */\n                  dup2\n                  swap1\n                  mstore\n                    /* \"#utility.yul\":7111:7115   */\n                  0x00\n                  swap1\n                    /* \"#utility.yul\":7354:7400   */\n                  tag_475\n                  swap1\n                    /* \"#utility.yul\":7380:7399   */\n                  dup4\n                  add\n                    /* \"#utility.yul\":7372:7378   */\n                  dup5\n                    /* \"#utility.yul\":7354:7400   */\n                  tag_398\n                  jump\t// in\n                tag_475:\n                    /* \"#utility.yul\":7346:7400   */\n                  swap7\n                    /* \"#utility.yul\":6917:7406   */\n                  swap6\n                  pop\n                  pop\n                  pop\n                  pop\n                  pop\n                  pop\n                  jump\t// out\n                    /* \"#utility.yul\":7411:7660   */\n                tag_228:\n                    /* \"#utility.yul\":7480:7486   */\n                  0x00\n                    /* \"#utility.yul\":7533:7535   */\n                  0x20\n                    /* \"#utility.yul\":7521:7530   */\n                  dup3\n                    /* \"#utility.yul\":7512:7519   */\n                  dup5\n                    /* \"#utility.yul\":7508:7531   */\n                  sub\n                    /* \"#utility.yul\":7504:7536   */\n                  slt\n                    /* \"#utility.yul\":7501:7553   */\n                  iszero\n                  tag_477\n                  jumpi\n                    /* \"#utility.yul\":7549:7550   */\n                  0x00\n                    /* \"#utility.yul\":7546:7547   */\n                  dup1\n                    /* \"#utility.yul\":7539:7551   */\n                  revert\n                    /* \"#utility.yul\":7501:7553   */\n                tag_477:\n                    /* \"#utility.yul\":7581:7590   */\n                  dup2\n                    /* \"#utility.yul\":7575:7591   */\n                  mload\n                    /* \"#utility.yul\":7600:7630   */\n                  tag_300\n                    /* \"#utility.yul\":7624:7629   */\n                  dup2\n                    /* \"#utility.yul\":7600:7630   */\n                  tag_396\n                  jump\t// in\n                    /* \"#utility.yul\":7665:8161   */\n                tag_253:\n                    /* \"#utility.yul\":7844:7847   */\n                  0x00\n                    /* \"#utility.yul\":7882:7888   */\n                  dup4\n                    /* \"#utility.yul\":7876:7889   */\n                  mload\n                    /* \"#utility.yul\":7898:7964   */\n                  tag_480\n                    /* \"#utility.yul\":7957:7963   */\n                  dup2\n                    /* \"#utility.yul\":7952:7955   */\n                  dup5\n                    /* \"#utility.yul\":7945:7949   */\n                  0x20\n                    /* \"#utility.yul\":7937:7943   */\n                  dup9\n                    /* \"#utility.yul\":7933:7950   */\n                  add\n                    /* \"#utility.yul\":7898:7964   */\n                  tag_397\n                  jump\t// in\n                tag_480:\n                    /* \"#utility.yul\":8027:8040   */\n                  dup4\n                  mload\n                    /* \"#utility.yul\":7986:8002   */\n                  swap1\n                  dup4\n                  add\n                  swap1\n                    /* \"#utility.yul\":8049:8119   */\n                  tag_481\n                    /* \"#utility.yul\":8027:8040   */\n                  dup2\n                    /* \"#utility.yul\":7986:8002   */\n                  dup4\n                    /* \"#utility.yul\":8096:8100   */\n                  0x20\n                    /* \"#utility.yul\":8084:8101   */\n                  dup9\n                  add\n                    /* \"#utility.yul\":8049:8119   */\n                  tag_397\n                  jump\t// in\n                tag_481:\n                    /* \"#utility.yul\":8135:8155   */\n                  add\n                  swap5\n                    /* \"#utility.yul\":7665:8161   */\n                  swap4\n                  pop\n                  pop\n                  pop\n                  pop\n                  jump\t// out\n                    /* \"#utility.yul\":8292:8810   */\n                tag_403:\n                    /* \"#utility.yul\":8394:8396   */\n                  0x1f\n                    /* \"#utility.yul\":8389:8392   */\n                  dup3\n                    /* \"#utility.yul\":8386:8397   */\n                  gt\n                    /* \"#utility.yul\":8383:8804   */\n                  iszero\n                  tag_139\n                  jumpi\n                    /* \"#utility.yul\":8430:8435   */\n                  dup1\n                    /* \"#utility.yul\":8427:8428   */\n                  0x00\n                    /* \"#utility.yul\":8420:8436   */\n                  mstore\n                    /* \"#utility.yul\":8474:8478   */\n                  0x20\n                    /* \"#utility.yul\":8471:8472   */\n                  0x00\n                    /* \"#utility.yul\":8461:8479   */\n                  keccak256\n                    /* \"#utility.yul\":8544:8546   */\n                  0x1f\n                    /* \"#utility.yul\":8532:8542   */\n                  dup5\n                    /* \"#utility.yul\":8528:8547   */\n                  add\n                    /* \"#utility.yul\":8525:8526   */\n                  0x05\n                    /* \"#utility.yul\":8521:8548   */\n                  shr\n                    /* \"#utility.yul\":8515:8519   */\n                  dup2\n                    /* \"#utility.yul\":8511:8549   */\n                  add\n                    /* \"#utility.yul\":8580:8584   */\n                  0x20\n                    /* \"#utility.yul\":8568:8578   */\n                  dup6\n                    /* \"#utility.yul\":8565:8585   */\n                  lt\n                    /* \"#utility.yul\":8562:8609   */\n                  iszero\n                  tag_485\n                  jumpi\n                  pop\n                    /* \"#utility.yul\":8603:8607   */\n                  dup1\n                    /* \"#utility.yul\":8562:8609   */\n                tag_485:\n                    /* \"#utility.yul\":8658:8660   */\n                  0x1f\n                    /* \"#utility.yul\":8653:8656   */\n                  dup5\n                    /* \"#utility.yul\":8649:8661   */\n                  add\n                    /* \"#utility.yul\":8646:8647   */\n                  0x05\n                    /* \"#utility.yul\":8642:8662   */\n                  shr\n                    /* \"#utility.yul\":8636:8640   */\n                  dup3\n                    /* \"#utility.yul\":8632:8663   */\n                  add\n                    /* \"#utility.yul\":8622:8663   */\n                  swap2\n                  pop\n                    /* \"#utility.yul\":8713:8794   */\n                tag_486:\n                    /* \"#utility.yul\":8731:8733   */\n                  dup2\n                    /* \"#utility.yul\":8724:8729   */\n                  dup2\n                    /* \"#utility.yul\":8721:8734   */\n                  lt\n                    /* \"#utility.yul\":8713:8794   */\n                  iszero\n                  tag_239\n                  jumpi\n                    /* \"#utility.yul\":8790:8791   */\n                  0x00\n                    /* \"#utility.yul\":8776:8792   */\n                  dup2\n                  sstore\n                    /* \"#utility.yul\":8757:8758   */\n                  0x01\n                    /* \"#utility.yul\":8746:8759   */\n                  add\n                    /* \"#utility.yul\":8713:8794   */\n                  jump(tag_486)\n                    /* \"#utility.yul\":8986:10331   */\n                tag_261:\n                    /* \"#utility.yul\":9106:9116   */\n                  dup2\n                  mload\n                  sub(shl(0x40, 0x01), 0x01)\n                    /* \"#utility.yul\":9128:9158   */\n                  dup2\n                  gt\n                    /* \"#utility.yul\":9125:9181   */\n                  iszero\n                  tag_492\n                  jumpi\n                    /* \"#utility.yul\":9161:9179   */\n                  tag_492\n                  tag_347\n                  jump\t// in\n                tag_492:\n                    /* \"#utility.yul\":9190:9287   */\n                  tag_493\n                    /* \"#utility.yul\":9280:9286   */\n                  dup2\n                    /* \"#utility.yul\":9240:9278   */\n                  tag_494\n                    /* \"#utility.yul\":9272:9276   */\n                  dup5\n                    /* \"#utility.yul\":9266:9277   */\n                  sload\n                    /* \"#utility.yul\":9240:9278   */\n                  tag_108\n                  jump\t// in\n                tag_494:\n                    /* \"#utility.yul\":9234:9238   */\n                  dup5\n                    /* \"#utility.yul\":9190:9287   */\n                  tag_403\n                  jump\t// in\n                tag_493:\n                    /* \"#utility.yul\":9342:9346   */\n                  0x20\n                  dup1\n                    /* \"#utility.yul\":9399:9401   */\n                  0x1f\n                    /* \"#utility.yul\":9388:9402   */\n                  dup4\n                  gt\n                    /* \"#utility.yul\":9416:9417   */\n                  0x01\n                    /* \"#utility.yul\":9411:10074   */\n                  dup2\n                  eq\n                  tag_496\n                  jumpi\n                    /* \"#utility.yul\":10118:10119   */\n                  0x00\n                    /* \"#utility.yul\":10135:10141   */\n                  dup5\n                    /* \"#utility.yul\":10132:10221   */\n                  iszero\n                  tag_497\n                  jumpi\n                  pop\n                    /* \"#utility.yul\":10187:10206   */\n                  dup6\n                  dup4\n                  add\n                    /* \"#utility.yul\":10181:10207   */\n                  mload\n                    /* \"#utility.yul\":10132:10221   */\n                tag_497:\n                  not(0x00)\n                    /* \"#utility.yul\":8943:8944   */\n                  0x03\n                    /* \"#utility.yul\":8939:8950   */\n                  dup7\n                  swap1\n                  shl\n                    /* \"#utility.yul\":8935:8959   */\n                  shr\n                    /* \"#utility.yul\":8931:8960   */\n                  not\n                    /* \"#utility.yul\":8921:8961   */\n                  and\n                    /* \"#utility.yul\":8967:8968   */\n                  0x01\n                    /* \"#utility.yul\":8963:8974   */\n                  dup6\n                  swap1\n                  shl\n                    /* \"#utility.yul\":8918:8975   */\n                  or\n                    /* \"#utility.yul\":10234:10315   */\n                  dup6\n                  sstore\n                    /* \"#utility.yul\":9381:10325   */\n                  jump(tag_495)\n                    /* \"#utility.yul\":9411:10074   */\n                tag_496:\n                    /* \"#utility.yul\":8239:8240   */\n                  0x00\n                    /* \"#utility.yul\":8232:8246   */\n                  dup6\n                  dup2\n                  mstore\n                    /* \"#utility.yul\":8276:8280   */\n                  0x20\n                    /* \"#utility.yul\":8263:8281   */\n                  dup2\n                  keccak256\n                  not(0x1f)\n                    /* \"#utility.yul\":9447:9467   */\n                  dup7\n                  and\n                  swap2\n                    /* \"#utility.yul\":9565:9801   */\n                tag_500:\n                    /* \"#utility.yul\":9579:9586   */\n                  dup3\n                    /* \"#utility.yul\":9576:9577   */\n                  dup2\n                    /* \"#utility.yul\":9573:9587   */\n                  lt\n                    /* \"#utility.yul\":9565:9801   */\n                  iszero\n                  tag_502\n                  jumpi\n                    /* \"#utility.yul\":9668:9687   */\n                  dup9\n                  dup7\n                  add\n                    /* \"#utility.yul\":9662:9688   */\n                  mload\n                    /* \"#utility.yul\":9647:9689   */\n                  dup3\n                  sstore\n                    /* \"#utility.yul\":9760:9787   */\n                  swap5\n                  dup5\n                  add\n                  swap5\n                    /* \"#utility.yul\":9728:9729   */\n                  0x01\n                    /* \"#utility.yul\":9716:9730   */\n                  swap1\n                  swap2\n                  add\n                  swap1\n                    /* \"#utility.yul\":9595:9614   */\n                  dup5\n                  add\n                    /* \"#utility.yul\":9565:9801   */\n                  jump(tag_500)\n                tag_502:\n                    /* \"#utility.yul\":9569:9572   */\n                  pop\n                    /* \"#utility.yul\":9829:9835   */\n                  dup6\n                    /* \"#utility.yul\":9820:9827   */\n                  dup3\n                    /* \"#utility.yul\":9817:9836   */\n                  lt\n                    /* \"#utility.yul\":9814:10015   */\n                  iszero\n                  tag_503\n                  jumpi\n                    /* \"#utility.yul\":9890:9909   */\n                  dup8\n                  dup6\n                  add\n                    /* \"#utility.yul\":9884:9910   */\n                  mload\n                  not(0x00)\n                    /* \"#utility.yul\":9973:9974   */\n                  0x03\n                    /* \"#utility.yul\":9969:9983   */\n                  dup9\n                  swap1\n                  shl\n                    /* \"#utility.yul\":9985:9988   */\n                  0xf8\n                    /* \"#utility.yul\":9965:9989   */\n                  and\n                    /* \"#utility.yul\":9961:9998   */\n                  shr\n                    /* \"#utility.yul\":9957:9999   */\n                  not\n                    /* \"#utility.yul\":9942:10000   */\n                  and\n                    /* \"#utility.yul\":9927:10001   */\n                  dup2\n                  sstore\n                    /* \"#utility.yul\":9814:10015   */\n                tag_503:\n                  pop\n                  pop\n                    /* \"#utility.yul\":10061:10062   */\n                  0x01\n                    /* \"#utility.yul\":10052:10058   */\n                  dup5\n                    /* \"#utility.yul\":10049:10050   */\n                  0x01\n                    /* \"#utility.yul\":10045:10059   */\n                  shl\n                    /* \"#utility.yul\":10041:10063   */\n                  add\n                    /* \"#utility.yul\":10035:10039   */\n                  dup6\n                    /* \"#utility.yul\":10028:10064   */\n                  sstore\n                    /* \"#utility.yul\":9381:10325   */\n                tag_495:\n                  pop\n                  pop\n                  pop\n                  pop\n                    /* \"#utility.yul\":8986:10331   */\n                  pop\n                  pop\n                  jump\t// out\n                    /* \"#utility.yul\":10336:10464   */\n                tag_328:\n                    /* \"#utility.yul\":10403:10412   */\n                  dup2\n                  dup2\n                  sub\n                    /* \"#utility.yul\":10424:10435   */\n                  dup2\n                  dup2\n                  gt\n                    /* \"#utility.yul\":10421:10458   */\n                  iszero\n                  tag_104\n                  jumpi\n                    /* \"#utility.yul\":10438:10456   */\n                  tag_104\n                  tag_401\n                  jump\t// in\n                    /* \"#utility.yul\":10469:10596   */\n                tag_337:\n                    /* \"#utility.yul\":10530:10540   */\n                  0x4e487b71\n                    /* \"#utility.yul\":10525:10528   */\n                  0xe0\n                    /* \"#utility.yul\":10521:10541   */\n                  shl\n                    /* \"#utility.yul\":10518:10519   */\n                  0x00\n                    /* \"#utility.yul\":10511:10542   */\n                  mstore\n                    /* \"#utility.yul\":10561:10565   */\n                  0x31\n                    /* \"#utility.yul\":10558:10559   */\n                  0x04\n                    /* \"#utility.yul\":10551:10566   */\n                  mstore\n                    /* \"#utility.yul\":10585:10589   */\n                  0x24\n                    /* \"#utility.yul\":10582:10583   */\n                  0x00\n                    /* \"#utility.yul\":10575:10590   */\n                  revert\n\n                auxdata: 0xa264697066735822122075303e5ded82325f9cd7912530dd6e894b683456724c4104bc7ba078de7e154264736f6c63430008170033\n            }\n        }\n    }\n\n    auxdata: 0xa2646970667358221220482f5a586f95541eb78a7692309a1f85e25975b2d9cbe2ded9406b00ee6dab9564736f6c63430008170033\n}\n","bytecode":{"linkReferences":{},"object":"608060405234801561000f575f80fd5b506138af8061001d5f395ff3fe608060405234801562000010575f80fd5b506004361062000044575f3560e01c80636f8aa6e214620000485780637ac3886e14620000615780639ec6deaf1462000083575b5f80fd5b6200005f62000059366004620002b8565b620000b3565b005b6200006b62000161565b6040516200007a919062000398565b60405180910390f35b6200009a62000094366004620003e6565b620001c2565b6040516001600160a01b0390911681526020016200007a565b5f8054620000c3906001620003fe565b33898989898e8a8a8a604051620000da90620001ea565b620000ef9a9998979695949392919062000469565b604051809103905ff08015801562000109573d5f803e3d5ffd5b505f80546001810182559080527f290decd9548b62a8d60345a988386fc84ba6bc95484008f6362f93160ef3e5630180546001600160a01b0319166001600160a01b0392909216919091179055505050505050505050565b60605f805480602002602001604051908101604052809291908181526020018280548015620001b857602002820191905f5260205f20905b81546001600160a01b0316815260019091019060200180831162000199575b5050505050905090565b5f8181548110620001d1575f80fd5b5f918252602090912001546001600160a01b0316905081565b613373806200050783390190565b80356001600160a01b03811681146200020f575f80fd5b919050565b634e487b7160e01b5f52604160045260245ffd5b5f82601f83011262000238575f80fd5b81356001600160401b038082111562000255576200025562000214565b604051601f8301601f19908116603f0116810190828211818310171562000280576200028062000214565b8160405283815286602085880101111562000299575f80fd5b836020870160208301375f602085830101528094505050505092915050565b5f805f805f805f80610100898b031215620002d1575f80fd5b620002dc89620001f8565b975060208901356001600160401b0380821115620002f8575f80fd5b620003068c838d0162000228565b985060408b0135975060608b0135965060808b0135955060a08b013591508082111562000331575f80fd5b6200033f8c838d0162000228565b945060c08b013591508082111562000355575f80fd5b620003638c838d0162000228565b935060e08b013591508082111562000379575f80fd5b50620003888b828c0162000228565b9150509295985092959890939650565b602080825282518282018190525f9190848201906040850190845b81811015620003da5783516001600160a01b031683529284019291840191600101620003b3565b50909695505050505050565b5f60208284031215620003f7575f80fd5b5035919050565b808201808211156200041e57634e487b7160e01b5f52601160045260245ffd5b92915050565b5f81518084525f5b818110156200044a576020818501810151868301820152016200042c565b505f602082860101526020601f19601f83011685010191505092915050565b8a81526001600160a01b038a81166020830152610140604083018190525f91620004968483018d62000424565b91508a60608501528960808501528860a085015280881660c08501525082810360e0840152620004c7818762000424565b9050828103610100840152620004de818662000424565b9050828103610120840152620004f5818562000424565b9d9c5050505050505050505050505056fe608060405234801562000010575f80fd5b5060405162003373380380620033738339810160408190526200003391620004a2565b5f8a9055600180546001600160a01b0319166001600160a01b038b1617905560026200006089826200062a565b506003879055600486905560058590555f543090839062000081906200014c565b60405160200162000094929190620006f6565b60405160208183030381529060405282620000b65f546200014c60201b60201c565b604051602001620000c9929190620006f6565b604051602081830303815290604052604051620000e690620003b2565b620000f49392919062000755565b604051809103905ff0801580156200010e573d5f803e3d5ffd5b50600980546001600160a01b0319166001600160a01b03929092169190911790556200013c838786620001e2565b50505050505050505050620007a2565b60605f6200015a83620002c9565b60010190505f816001600160401b038111156200017b576200017b620003dc565b6040519080825280601f01601f191660200182016040528015620001a6576020820181803683370190505b5090508181016020015b5f19016f181899199a1a9b1b9c1cb0b131b232b360811b600a86061a8153600a8504945084620001b057509392505050565b5f5b6008548110156200022a5782600882815481106200020657620002066200078e565b905f5260205f2090600a020160020154101562000221575f80fd5b600101620001e4565b50600880546001810182555f91909152600a027ff3f7a9fe364faab93b216da50a3214154f22a0a2b415b23a84c8169e8b636ee38101907ff3f7a9fe364faab93b216da50a3214154f22a0a2b415b23a84c8169e8b636ee4016200028f85826200062a565b50600281019290925581546001600160a01b0319166001600160a01b039190911617815560038101805460ff191690555f60059091015550565b5f807a184f03e93ff9f4daa797ed6e38ed64bf6a1f010000000000000000831062000312577a184f03e93ff9f4daa797ed6e38ed64bf6a1f010000000000000000830492506040015b6d04ee2d6d415b85acef810000000083106200033f576d04ee2d6d415b85acef8100000000830492506020015b662386f26fc1000083106200035e57662386f26fc10000830492506010015b6305f5e100831062000377576305f5e100830492506008015b61271083106200038c57612710830492506004015b606483106200039f576064830492506002015b600a8310620003ac576001015b92915050565b611aee806200188583390190565b80516001600160a01b0381168114620003d7575f80fd5b919050565b634e487b7160e01b5f52604160045260245ffd5b5f5b838110156200040c578181015183820152602001620003f2565b50505f910152565b5f82601f83011262000424575f80fd5b81516001600160401b0380821115620004415762000441620003dc565b604051601f8301601f19908116603f011681019082821181831017156200046c576200046c620003dc565b8160405283815286602085880101111562000485575f80fd5b62000498846020830160208901620003f0565b9695505050505050565b5f805f805f805f805f806101408b8d031215620004bd575f80fd5b8a519950620004cf60208c01620003c0565b60408c01519099506001600160401b0380821115620004ec575f80fd5b620004fa8e838f0162000414565b995060608d0151985060808d0151975060a08d015196506200051f60c08e01620003c0565b955060e08d015191508082111562000535575f80fd5b620005438e838f0162000414565b94506101008d01519150808211156200055a575f80fd5b620005688e838f0162000414565b93506101208d01519150808211156200057f575f80fd5b506200058e8d828e0162000414565b9150509295989b9194979a5092959850565b600181811c90821680620005b557607f821691505b602082108103620005d457634e487b7160e01b5f52602260045260245ffd5b50919050565b601f8211156200062557805f5260205f20601f840160051c81016020851015620006015750805b601f840160051c820191505b8181101562000622575f81556001016200060d565b50505b505050565b81516001600160401b03811115620006465762000646620003dc565b6200065e81620006578454620005a0565b84620005da565b602080601f83116001811462000694575f84156200067c5750858301515b5f19600386901b1c1916600185901b178555620006ee565b5f85815260208120601f198616915b82811015620006c457888601518255948401946001909101908401620006a3565b5085821015620006e257878501515f19600388901b60f8161c191681555b505060018460011b0185555b505050505050565b5f835162000709818460208801620003f0565b8351908301906200071f818360208801620003f0565b01949350505050565b5f815180845262000741816020860160208601620003f0565b601f01601f19169290920160200192915050565b6001600160a01b03841681526060602082018190525f906200077a9083018562000728565b828103604084015262000498818562000728565b634e487b7160e01b5f52603260045260245ffd5b6110d580620007b05f395ff3fe6080604052600436106100cd575f3560e01c80630b49351c146100d15780631bb05f73146100f45780631f6d49421461011557806329dcb0cf146101405780632b7d782f146101555780634051ddac1461017457806347ccca021461019b5780637569b3d7146101d25780638da5cb5b146101e7578063937e09b114610206578063aa3ec0a91461021b578063b82c86d61461023c578063c438b40f14610251578063c545123214610264578063d7bb99ba14610283578063e89e4ed61461028b578063eb599e43146102be575b5f80fd5b3480156100dc575f80fd5b506008545b6040519081526020015b60405180910390f35b3480156100ff575f80fd5b5061011361010e366004610af8565b6102dd565b005b348015610120575f80fd5b506100e161012f366004610b56565b60076020525f908152604090205481565b34801561014b575f80fd5b506100e160055481565b348015610160575f80fd5b5061011361016f366004610c67565b6103ca565b34801561017f575f80fd5b50610188610469565b6040516100eb9796959493929190610d97565b3480156101a6575f80fd5b506009546101ba906001600160a01b031681565b6040516001600160a01b0390911681526020016100eb565b3480156101dd575f80fd5b506100e160065481565b3480156101f2575f80fd5b506001546101ba906001600160a01b031681565b348015610211575f80fd5b506100e160035481565b348015610226575f80fd5b5061022f610536565b6040516100eb9190610de6565b348015610247575f80fd5b506100e160045481565b61011361025f366004610df8565b6105c2565b34801561026f575f80fd5b5061011361027e366004610e0f565b61068f565b6101136106c2565b348015610296575f80fd5b506102aa6102a5366004610df8565b610726565b6040516100eb989796959493929190610e61565b3480156102c9575f80fd5b506101136102d8366004610df8565b610811565b5f600883815481106102f1576102f1610eba565b5f91825260208083203384526006600a909302019182019052604090912054600454600283015492935090911461032d575f811161032d575f80fd5b335f90815260098301602052604090205460ff161561034a575f80fd5b335f8181526009808501602052604091829020805460ff19166001179055549051636902622f60e11b81526001600160a01b03919091169163d204c45e9161039791908790600401610ece565b5f604051808303815f87803b1580156103ae575f80fd5b505af11580156103c0573d5f803e3d5ffd5b5050505050505050565b6001546001600160a01b031633146103e0575f80fd5b815183511480156103f2575080518251145b6103fa575f80fd5b5f5b83518110156104635761045b84828151811061041a5761041a610eba565b602002602001015184838151811061043457610434610eba565b602002602001015184848151811061044e5761044e610eba565b602002602001015161068f565b6001016103fc565b50505050565b5f8060605f805f804760015f9054906101000a90046001600160a01b031660026003546004546005546006548480546104a190610ef9565b80601f01602080910402602001604051908101604052809291908181526020018280546104cd90610ef9565b80156105185780601f106104ef57610100808354040283529160200191610518565b820191905f5260205f20905b8154815290600101906020018083116104fb57829003601f168201915b50505050509450965096509650965096509650965090919293949596565b6002805461054390610ef9565b80601f016020809104026020016040519081016040528092919081815260200182805461056f90610ef9565b80156105ba5780601f10610591576101008083540402835291602001916105ba565b820191905f5260205f20905b81548152906001019060200180831161059d57829003601f168201915b505050505081565b34156105d0576105d06106c2565b5f600882815481106105e4576105e4610eba565b905f5260205f2090600a020190508060020154471015610602575f80fd5b335f90815260076020526040902054610619575f80fd5b335f90815260068201602052604090205415610633575f80fd5b335f90815260068201602052604081204290556005820180549161065683610f45565b9190505550600260065461066a9190610f5d565b8160050154111561068b5760038101805460ff191660011790554260048201555b5050565b6001546001600160a01b031633146106a5575f80fd5b60045482106106b2575f80fd5b6106bd83838361096a565b505050565b60035434116106cf575f80fd5b60045434106106dc575f80fd5b60055442106106e9575f80fd5b335f9081526007602052604081205490036107135760068054905f61070d83610f45565b91905055505b335f908152600760205260409020429055565b60088181548110610735575f80fd5b5f9182526020909120600a9091020180546001820180546001600160a01b0390921693509061076390610ef9565b80601f016020809104026020016040519081016040528092919081815260200182805461078f90610ef9565b80156107da5780601f106107b1576101008083540402835291602001916107da565b820191905f5260205f20905b8154815290600101906020018083116107bd57829003601f168201915b50505050600283015460038401546004850154600586015460078701546008909701549596939560ff938416955091939092169088565b6001546001600160a01b03163314610827575f80fd5b6008548110610834575f80fd5b5f6008828154811061084857610848610eba565b905f5260205f2090600a020190505f816002015490505f5b83811161091857838110156108d5576008818154811061088257610882610eba565b5f91825260209091206007600a90920201015460ff166108a0575f80fd5b600881815481106108b3576108b3610eba565b905f5260205f2090600a020160020154826108ce9190610f7c565b9150610906565b600881815481106108e8576108e8610eba565b5f91825260209091206003600a90920201015460ff16610906575f80fd5b8061091081610f45565b915050610860565b5081546040516001600160a01b039091169082156108fc029083905f818181858888f1935050505015801561094f573d5f803e3d5ffd5b505060078101805460ff191660011790554260089091015550565b5f5b6008548110156109ac57826008828154811061098a5761098a610eba565b905f5260205f2090600a02016002015410156109a4575f80fd5b60010161096c565b50600880546001810182555f91909152600a027ff3f7a9fe364faab93b216da50a3214154f22a0a2b415b23a84c8169e8b636ee38101907ff3f7a9fe364faab93b216da50a3214154f22a0a2b415b23a84c8169e8b636ee401610a0f8582610fe0565b50600281019290925581546001600160a01b0319166001600160a01b039190911617815560038101805460ff191690555f60059091015550565b634e487b7160e01b5f52604160045260245ffd5b604051601f8201601f191681016001600160401b0381118282101715610a8557610a85610a49565b604052919050565b5f82601f830112610a9c575f80fd5b81356001600160401b03811115610ab557610ab5610a49565b610ac8601f8201601f1916602001610a5d565b818152846020838601011115610adc575f80fd5b816020850160208301375f918101602001919091529392505050565b5f8060408385031215610b09575f80fd5b8235915060208301356001600160401b03811115610b25575f80fd5b610b3185828601610a8d565b9150509250929050565b80356001600160a01b0381168114610b51575f80fd5b919050565b5f60208284031215610b66575f80fd5b610b6f82610b3b565b9392505050565b5f6001600160401b03821115610b8e57610b8e610a49565b5060051b60200190565b5f82601f830112610ba7575f80fd5b81356020610bbc610bb783610b76565b610a5d565b8083825260208201915060208460051b870101935086841115610bdd575f80fd5b602086015b84811015610bf95780358352918301918301610be2565b509695505050505050565b5f82601f830112610c13575f80fd5b81356020610c23610bb783610b76565b8083825260208201915060208460051b870101935086841115610c44575f80fd5b602086015b84811015610bf957610c5a81610b3b565b8352918301918301610c49565b5f805f60608486031215610c79575f80fd5b83356001600160401b0380821115610c8f575f80fd5b818601915086601f830112610ca2575f80fd5b81356020610cb2610bb783610b76565b82815260059290921b8401810191818101908a841115610cd0575f80fd5b8286015b84811015610d0657803586811115610cea575f80fd5b610cf88d86838b0101610a8d565b845250918301918301610cd4565b5097505087013592505080821115610d1c575f80fd5b610d2887838801610b98565b93506040860135915080821115610d3d575f80fd5b50610d4a86828701610c04565b9150509250925092565b5f81518084525f5b81811015610d7857602081850181015186830182015201610d5c565b505f602082860101526020601f19601f83011685010191505092915050565b8781526001600160a01b038716602082015260e0604082018190525f90610dc090830188610d54565b90508560608301528460808301528360a08301528260c083015298975050505050505050565b602081525f610b6f6020830184610d54565b5f60208284031215610e08575f80fd5b5035919050565b5f805f60608486031215610e21575f80fd5b83356001600160401b03811115610e36575f80fd5b610e4286828701610a8d565b93505060208401359150610e5860408501610b3b565b90509250925092565b6001600160a01b0389168152610100602082018190525f90610e858382018b610d54565b604084019990995250509415156060860152608085019390935260a0840191909152151560c083015260e09091015292915050565b634e487b7160e01b5f52603260045260245ffd5b6001600160a01b03831681526040602082018190525f90610ef190830184610d54565b949350505050565b600181811c90821680610f0d57607f821691505b602082108103610f2b57634e487b7160e01b5f52602260045260245ffd5b50919050565b634e487b7160e01b5f52601160045260245ffd5b5f60018201610f5657610f56610f31565b5060010190565b5f82610f7757634e487b7160e01b5f52601260045260245ffd5b500490565b81810381811115610f8f57610f8f610f31565b92915050565b601f8211156106bd57805f5260205f20601f840160051c81016020851015610fba5750805b601f840160051c820191505b81811015610fd9575f8155600101610fc6565b5050505050565b81516001600160401b03811115610ff957610ff9610a49565b61100d816110078454610ef9565b84610f95565b602080601f831160018114611040575f84156110295750858301515b5f19600386901b1c1916600185901b178555611097565b5f85815260208120601f198616915b8281101561106e5788860151825594840194600190910190840161104f565b508582101561108b57878501515f19600388901b60f8161c191681555b505060018460011b0185555b50505050505056fea2646970667358221220b57947e8572c22b0e368753ccbfe09b1b3a0c30f5e21e99b42c4a3ce01024d3564736f6c63430008170033608060405234801562000010575f80fd5b5060405162001aee38038062001aee8339810160408190526200003391620001aa565b8282825f620000438382620002b8565b506001620000528282620002b8565b5050506001600160a01b0381166200008357604051631e4fbdf760e01b81525f600482015260240160405180910390fd5b6200008e8162000098565b5050505062000384565b600b80546001600160a01b038381166001600160a01b0319831681179093556040519116919082907f8be0079c531659141344cd1fd0a4f28419497f9722a3daafe3b4186f6b6457e0905f90a35050565b634e487b7160e01b5f52604160045260245ffd5b5f82601f8301126200010d575f80fd5b81516001600160401b03808211156200012a576200012a620000e9565b604051601f8301601f19908116603f01168101908282118183101715620001555762000155620000e9565b816040528381526020925086602085880101111562000172575f80fd5b5f91505b8382101562000195578582018301518183018401529082019062000176565b5f602085830101528094505050505092915050565b5f805f60608486031215620001bd575f80fd5b83516001600160a01b0381168114620001d4575f80fd5b60208501519093506001600160401b0380821115620001f1575f80fd5b620001ff87838801620000fd565b9350604086015191508082111562000215575f80fd5b506200022486828701620000fd565b9150509250925092565b600181811c908216806200024357607f821691505b6020821081036200026257634e487b7160e01b5f52602260045260245ffd5b50919050565b601f821115620002b357805f5260205f20601f840160051c810160208510156200028f5750805b601f840160051c820191505b81811015620002b0575f81556001016200029b565b50505b505050565b81516001600160401b03811115620002d457620002d4620000e9565b620002ec81620002e584546200022e565b8462000268565b602080601f83116001811462000322575f84156200030a5750858301515b5f19600386901b1c1916600185901b1785556200037c565b5f85815260208120601f198616915b82811015620003525788860151825594840194600190910190840162000331565b50858210156200037057878501515f19600388901b60f8161c191681555b505060018460011b0185555b505050505050565b61175c80620003925f395ff3fe608060405234801561000f575f80fd5b50600436106100fa575f3560e01c806301ffc9a7146100fe57806306fdde0314610126578063081812fc1461013b578063095ea7b31461015b57806318160ddd1461017057806323b872dd146101825780632f745c591461019557806342842e0e146101a85780634f6ccce7146101bb5780636352211e146101ce57806370a08231146101e1578063715018a6146101f45780638da5cb5b146101fc57806395d89b4114610204578063a22cb4651461020c578063b88d4fde1461021f578063c87b56dd14610232578063d204c45e14610245578063e985e9c514610258578063f2fde38b1461026b575b5f80fd5b61011161010c3660046111e9565b61027e565b60405190151581526020015b60405180910390f35b61012e61028e565b60405161011d9190611251565b61014e610149366004611263565b61031d565b60405161011d919061127a565b61016e6101693660046112a9565b610331565b005b6008545b60405190815260200161011d565b61016e6101903660046112d1565b610340565b6101746101a33660046112a9565b6103d2565b61016e6101b63660046112d1565b610427565b6101746101c9366004611263565b610446565b61014e6101dc366004611263565b610496565b6101746101ef36600461130a565b6104a0565b61016e6104e5565b61014e6104f8565b61012e610507565b61016e61021a366004611323565b610516565b61016e61022d3660046113e2565b610521565b61012e610240366004611263565b610538565b61016e610253366004611458565b610543565b6101116102663660046114b5565b610575565b61016e61027936600461130a565b6105a2565b5f610288826105df565b92915050565b60605f805461029c906114e6565b80601f01602080910402602001604051908101604052809291908181526020018280546102c8906114e6565b80156103135780601f106102ea57610100808354040283529160200191610313565b820191905f5260205f20905b8154815290600101906020018083116102f657829003601f168201915b5050505050905090565b5f61032782610603565b506102888261063a565b61033c828233610654565b5050565b6001600160a01b038216610372575f604051633250574960e11b8152600401610369919061127a565b60405180910390fd5b5f61037e838333610661565b9050836001600160a01b0316816001600160a01b0316146103cc576040516364283d7b60e01b81526001600160a01b0380861660048301526024820184905282166044820152606401610369565b50505050565b5f6103dc836104a0565b82106103ff57828260405163295f44f760e21b815260040161036992919061151e565b506001600160a01b03919091165f908152600660209081526040808320938352929052205490565b61044183838360405180602001604052805f815250610521565b505050565b5f61045060085490565b8210610473575f8260405163295f44f760e21b815260040161036992919061151e565b6008828154811061048657610486611537565b905f5260205f2001549050919050565b5f61028882610603565b5f6001600160a01b0382166104ca575f6040516322718ad960e21b8152600401610369919061127a565b506001600160a01b03165f9081526003602052604090205490565b6104ed610675565b6104f65f6106a7565b565b600b546001600160a01b031690565b60606001805461029c906114e6565b61033c3383836106f8565b61052c848484610340565b6103cc8484848461078d565b6060610288826108a1565b61054b610675565b600c80545f918261055b8361155f565b91905055905061056b83826109a4565b61044181836109bd565b6001600160a01b039182165f90815260056020908152604080832093909416825291909152205460ff1690565b6105aa610675565b6001600160a01b0381166105d3575f604051631e4fbdf760e01b8152600401610369919061127a565b6105dc816106a7565b50565b5f6001600160e01b03198216632483248360e11b1480610288575061028882610a0c565b5f8061060e83610a30565b90506001600160a01b03811661028857604051637e27328960e01b815260048101849052602401610369565b5f908152600460205260409020546001600160a01b031690565b6104418383836001610a4a565b5f61066d848484610b45565b949350505050565b3361067e6104f8565b6001600160a01b0316146104f6573360405163118cdaa760e01b8152600401610369919061127a565b600b80546001600160a01b038381166001600160a01b0319831681179093556040519116919082907f8be0079c531659141344cd1fd0a4f28419497f9722a3daafe3b4186f6b6457e0905f90a35050565b6001600160a01b0382166107215781604051630b61174360e31b8152600401610369919061127a565b6001600160a01b038381165f81815260056020908152604080832094871680845294825291829020805460ff191686151590811790915591519182527f17307eab39ab6107e8899845ad3d59bd9653f200f220920489ca2b5937696c31910160405180910390a3505050565b6001600160a01b0383163b156103cc57604051630a85bd0160e11b81526001600160a01b0384169063150b7a02906107cf903390889087908790600401611577565b6020604051808303815f875af1925050508015610809575060408051601f3d908101601f19168201909252610806918101906115b3565b60015b610867573d808015610836576040519150601f19603f3d011682016040523d82523d5f602084013e61083b565b606091505b5080515f0361085f5783604051633250574960e11b8152600401610369919061127a565b805181602001fd5b6001600160e01b03198116630a85bd0160e11b1461089a5783604051633250574960e11b8152600401610369919061127a565b5050505050565b60606108ac82610603565b505f828152600a6020526040812080546108c5906114e6565b80601f01602080910402602001604051908101604052809291908181526020018280546108f1906114e6565b801561093c5780601f106109135761010080835404028352916020019161093c565b820191905f5260205f20905b81548152906001019060200180831161091f57829003601f168201915b505050505090505f61095860408051602081019091525f815290565b905080515f03610969575092915050565b81511561099b5780826040516020016109839291906115ce565b60405160208183030381529060405292505050919050565b61066d84610c10565b61033c828260405180602001604052805f815250610c81565b5f828152600a602052604090206109d48282611640565b506040518281527ff8e1a15aba9398e019f0b49df1a4fde98ee17ae345cb5f6b5e2c27f5033e8ce79060200160405180910390a15050565b5f6001600160e01b0319821663780e9d6360e01b1480610288575061028882610c97565b5f908152600260205260409020546001600160a01b031690565b8080610a5e57506001600160a01b03821615155b15610b16575f610a6d84610603565b90506001600160a01b03831615801590610a995750826001600160a01b0316816001600160a01b031614155b8015610aac5750610aaa8184610575565b155b15610acc578260405163a9fbf51f60e01b8152600401610369919061127a565b8115610b145783856001600160a01b0316826001600160a01b03167f8c5be1e5ebec7d5bd14f71427d1e84f3dd0314c0f7b2291e5b200ac8c7c3b92560405160405180910390a45b505b50505f90815260046020526040902080546001600160a01b0319166001600160a01b0392909216919091179055565b5f80610b52858585610ce6565b90506001600160a01b038116610bae57610ba984600880545f838152600960205260408120829055600182018355919091527ff3f7a9fe364faab93b216da50a3214154f22a0a2b415b23a84c8169e8b636ee30155565b610bd1565b846001600160a01b0316816001600160a01b031614610bd157610bd18185610dd3565b6001600160a01b038516610bed57610be884610e60565b61066d565b846001600160a01b0316816001600160a01b03161461066d5761066d8585610f07565b6060610c1b82610603565b505f610c3160408051602081019091525f815290565b90505f815111610c4f5760405180602001604052805f815250610c7a565b80610c5984610f55565b604051602001610c6a9291906115ce565b6040516020818303038152906040525b9392505050565b610c8b8383610fe4565b6104415f84848461078d565b5f6001600160e01b031982166380ac58cd60e01b1480610cc757506001600160e01b03198216635b5e139f60e01b145b8061028857506301ffc9a760e01b6001600160e01b0319831614610288565b5f80610cf184610a30565b90506001600160a01b03831615610d0d57610d0d818486611045565b6001600160a01b03811615610d4757610d285f855f80610a4a565b6001600160a01b0381165f90815260036020526040902080545f190190555b6001600160a01b03851615610d75576001600160a01b0385165f908152600360205260409020805460010190555b5f8481526002602052604080822080546001600160a01b0319166001600160a01b0389811691821790925591518793918516917fddf252ad1be2c89b69c2b068fc378daa952ba7f163c4a11628f55a4df523b3ef91a4949350505050565b5f610ddd836104a0565b5f83815260076020526040902054909150808214610e2e576001600160a01b0384165f9081526006602090815260408083208584528252808320548484528184208190558352600790915290208190555b505f9182526007602090815260408084208490556001600160a01b039094168352600681528383209183525290812055565b6008545f90610e71906001906116ff565b5f8381526009602052604081205460088054939450909284908110610e9857610e98611537565b905f5260205f20015490508060088381548110610eb757610eb7611537565b5f918252602080832090910192909255828152600990915260408082208490558582528120556008805480610eee57610eee611712565b600190038181905f5260205f20015f9055905550505050565b5f6001610f13846104a0565b610f1d91906116ff565b6001600160a01b039093165f908152600660209081526040808320868452825280832085905593825260079052919091209190915550565b60605f610f618361109b565b60010190505f816001600160401b03811115610f7f57610f7f61135c565b6040519080825280601f01601f191660200182016040528015610fa9576020820181803683370190505b5090508181016020015b5f19016f181899199a1a9b1b9c1cb0b131b232b360811b600a86061a8153600a8504945084610fb357509392505050565b6001600160a01b03821661100d575f604051633250574960e11b8152600401610369919061127a565b5f61101983835f610661565b90506001600160a01b03811615610441575f6040516339e3563760e11b8152600401610369919061127a565b611050838383611170565b610441576001600160a01b03831661107e57604051637e27328960e01b815260048101829052602401610369565b818160405163177e802f60e01b815260040161036992919061151e565b5f8072184f03e93ff9f4daa797ed6e38ed64bf6a1f0160401b83106110d95772184f03e93ff9f4daa797ed6e38ed64bf6a1f0160401b830492506040015b6904ee2d6d415b85acef8160201b8310611103576904ee2d6d415b85acef8160201b830492506020015b662386f26fc10000831061112157662386f26fc10000830492506010015b6305f5e1008310611139576305f5e100830492506008015b612710831061114d57612710830492506004015b6064831061115f576064830492506002015b600a83106102885760010192915050565b5f6001600160a01b0383161580159061066d5750826001600160a01b0316846001600160a01b031614806111a957506111a98484610575565b8061066d5750826001600160a01b03166111c28361063a565b6001600160a01b031614949350505050565b6001600160e01b0319811681146105dc575f80fd5b5f602082840312156111f9575f80fd5b8135610c7a816111d4565b5f5b8381101561121e578181015183820152602001611206565b50505f910152565b5f815180845261123d816020860160208601611204565b601f01601f19169290920160200192915050565b602081525f610c7a6020830184611226565b5f60208284031215611273575f80fd5b5035919050565b6001600160a01b0391909116815260200190565b80356001600160a01b03811681146112a4575f80fd5b919050565b5f80604083850312156112ba575f80fd5b6112c38361128e565b946020939093013593505050565b5f805f606084860312156112e3575f80fd5b6112ec8461128e565b92506112fa6020850161128e565b9150604084013590509250925092565b5f6020828403121561131a575f80fd5b610c7a8261128e565b5f8060408385031215611334575f80fd5b61133d8361128e565b915060208301358015158114611351575f80fd5b809150509250929050565b634e487b7160e01b5f52604160045260245ffd5b5f6001600160401b03808411156113895761138961135c565b604051601f8501601f19908116603f011681019082821181831017156113b1576113b161135c565b816040528093508581528686860111156113c9575f80fd5b858560208301375f602087830101525050509392505050565b5f805f80608085870312156113f5575f80fd5b6113fe8561128e565b935061140c6020860161128e565b92506040850135915060608501356001600160401b0381111561142d575f80fd5b8501601f8101871361143d575f80fd5b61144c87823560208401611370565b91505092959194509250565b5f8060408385031215611469575f80fd5b6114728361128e565b915060208301356001600160401b0381111561148c575f80fd5b8301601f8101851361149c575f80fd5b6114ab85823560208401611370565b9150509250929050565b5f80604083850312156114c6575f80fd5b6114cf8361128e565b91506114dd6020840161128e565b90509250929050565b600181811c908216806114fa57607f821691505b60208210810361151857634e487b7160e01b5f52602260045260245ffd5b50919050565b6001600160a01b03929092168252602082015260400190565b634e487b7160e01b5f52603260045260245ffd5b634e487b7160e01b5f52601160045260245ffd5b5f600182016115705761157061154b565b5060010190565b6001600160a01b03858116825284166020820152604081018390526080606082018190525f906115a990830184611226565b9695505050505050565b5f602082840312156115c3575f80fd5b8151610c7a816111d4565b5f83516115df818460208801611204565b8351908301906115f3818360208801611204565b01949350505050565b601f82111561044157805f5260205f20601f840160051c810160208510156116215750805b601f840160051c820191505b8181101561089a575f815560010161162d565b81516001600160401b038111156116595761165961135c565b61166d8161166784546114e6565b846115fc565b602080601f8311600181146116a0575f84156116895750858301515b5f19600386901b1c1916600185901b1785556116f7565b5f85815260208120601f198616915b828110156116ce578886015182559484019460019091019084016116af565b50858210156116eb57878501515f19600388901b60f8161c191681555b505060018460011b0185555b505050505050565b818103818111156102885761028861154b565b634e487b7160e01b5f52603160045260245ffdfea264697066735822122075303e5ded82325f9cd7912530dd6e894b683456724c4104bc7ba078de7e154264736f6c63430008170033a2646970667358221220482f5a586f95541eb78a7692309a1f85e25975b2d9cbe2ded9406b00ee6dab9564736f6c63430008170033","opcodes":"PUSH1 0x80 PUSH1 0x40 MSTORE CALLVALUE DUP1 ISZERO PUSH2 0xF JUMPI PUSH0 DUP1 REVERT JUMPDEST POP PUSH2 0x38AF DUP1 PUSH2 0x1D PUSH0 CODECOPY PUSH0 RETURN INVALID PUSH1 0x80 PUSH1 0x40 MSTORE CALLVALUE DUP1 ISZERO PUSH3 0x10 JUMPI PUSH0 DUP1 REVERT JUMPDEST POP PUSH1 0x4 CALLDATASIZE LT PUSH3 0x44 JUMPI PUSH0 CALLDATALOAD PUSH1 0xE0 SHR DUP1 PUSH4 0x6F8AA6E2 EQ PUSH3 0x48 JUMPI DUP1 PUSH4 0x7AC3886E EQ PUSH3 0x61 JUMPI DUP1 PUSH4 0x9EC6DEAF EQ PUSH3 0x83 JUMPI JUMPDEST PUSH0 DUP1 REVERT JUMPDEST PUSH3 0x5F PUSH3 0x59 CALLDATASIZE PUSH1 0x4 PUSH3 0x2B8 JUMP JUMPDEST PUSH3 0xB3 JUMP JUMPDEST STOP JUMPDEST PUSH3 0x6B PUSH3 0x161 JUMP JUMPDEST PUSH1 0x40 MLOAD PUSH3 0x7A SWAP2 SWAP1 PUSH3 0x398 JUMP JUMPDEST PUSH1 0x40 MLOAD DUP1 SWAP2 SUB SWAP1 RETURN JUMPDEST PUSH3 0x9A PUSH3 0x94 CALLDATASIZE PUSH1 0x4 PUSH3 0x3E6 JUMP JUMPDEST PUSH3 0x1C2 JUMP JUMPDEST PUSH1 0x40 MLOAD PUSH1 0x1 PUSH1 0x1 PUSH1 0xA0 SHL SUB SWAP1 SWAP2 AND DUP2 MSTORE PUSH1 0x20 ADD PUSH3 0x7A JUMP JUMPDEST PUSH0 DUP1 SLOAD PUSH3 0xC3 SWAP1 PUSH1 0x1 PUSH3 0x3FE JUMP JUMPDEST CALLER DUP10 DUP10 DUP10 DUP10 DUP15 DUP11 DUP11 DUP11 PUSH1 0x40 MLOAD PUSH3 0xDA SWAP1 PUSH3 0x1EA JUMP JUMPDEST PUSH3 0xEF SWAP11 SWAP10 SWAP9 SWAP8 SWAP7 SWAP6 SWAP5 SWAP4 SWAP3 SWAP2 SWAP1 PUSH3 0x469 JUMP JUMPDEST PUSH1 0x40 MLOAD DUP1 SWAP2 SUB SWAP1 PUSH0 CREATE DUP1 ISZERO DUP1 ISZERO PUSH3 0x109 JUMPI RETURNDATASIZE PUSH0 DUP1 RETURNDATACOPY RETURNDATASIZE PUSH0 REVERT JUMPDEST POP PUSH0 DUP1 SLOAD PUSH1 0x1 DUP2 ADD DUP3 SSTORE SWAP1 DUP1 MSTORE PUSH32 0x290DECD9548B62A8D60345A988386FC84BA6BC95484008F6362F93160EF3E563 ADD DUP1 SLOAD PUSH1 0x1 PUSH1 0x1 PUSH1 0xA0 SHL SUB NOT AND PUSH1 0x1 PUSH1 0x1 PUSH1 0xA0 SHL SUB SWAP3 SWAP1 SWAP3 AND SWAP2 SWAP1 SWAP2 OR SWAP1 SSTORE POP POP POP POP POP POP POP POP POP JUMP JUMPDEST PUSH1 0x60 PUSH0 DUP1 SLOAD DUP1 PUSH1 0x20 MUL PUSH1 0x20 ADD PUSH1 0x40 MLOAD SWAP1 DUP2 ADD PUSH1 0x40 MSTORE DUP1 SWAP3 SWAP2 SWAP1 DUP2 DUP2 MSTORE PUSH1 0x20 ADD DUP3 DUP1 SLOAD DUP1 ISZERO PUSH3 0x1B8 JUMPI PUSH1 0x20 MUL DUP3 ADD SWAP2 SWAP1 PUSH0 MSTORE PUSH1 0x20 PUSH0 KECCAK256 SWAP1 JUMPDEST DUP2 SLOAD PUSH1 0x1 PUSH1 0x1 PUSH1 0xA0 SHL SUB AND DUP2 MSTORE PUSH1 0x1 SWAP1 SWAP2 ADD SWAP1 PUSH1 0x20 ADD DUP1 DUP4 GT PUSH3 0x199 JUMPI JUMPDEST POP POP POP POP POP SWAP1 POP SWAP1 JUMP JUMPDEST PUSH0 DUP2 DUP2 SLOAD DUP2 LT PUSH3 0x1D1 JUMPI PUSH0 DUP1 REVERT JUMPDEST PUSH0 SWAP2 DUP3 MSTORE PUSH1 0x20 SWAP1 SWAP2 KECCAK256 ADD SLOAD PUSH1 0x1 PUSH1 0x1 PUSH1 0xA0 SHL SUB AND SWAP1 POP DUP2 JUMP JUMPDEST PUSH2 0x3373 DUP1 PUSH3 0x507 DUP4 CODECOPY ADD SWAP1 JUMP JUMPDEST DUP1 CALLDATALOAD PUSH1 0x1 PUSH1 0x1 PUSH1 0xA0 SHL SUB DUP2 AND DUP2 EQ PUSH3 0x20F JUMPI PUSH0 DUP1 REVERT JUMPDEST SWAP2 SWAP1 POP JUMP JUMPDEST PUSH4 0x4E487B71 PUSH1 0xE0 SHL PUSH0 MSTORE PUSH1 0x41 PUSH1 0x4 MSTORE PUSH1 0x24 PUSH0 REVERT JUMPDEST PUSH0 DUP3 PUSH1 0x1F DUP4 ADD SLT PUSH3 0x238 JUMPI PUSH0 DUP1 REVERT JUMPDEST DUP2 CALLDATALOAD PUSH1 0x1 PUSH1 0x1 PUSH1 0x40 SHL SUB DUP1 DUP3 GT ISZERO PUSH3 0x255 JUMPI PUSH3 0x255 PUSH3 0x214 JUMP JUMPDEST PUSH1 0x40 MLOAD PUSH1 0x1F DUP4 ADD PUSH1 0x1F NOT SWAP1 DUP2 AND PUSH1 0x3F ADD AND DUP2 ADD SWAP1 DUP3 DUP3 GT DUP2 DUP4 LT OR ISZERO PUSH3 0x280 JUMPI PUSH3 0x280 PUSH3 0x214 JUMP JUMPDEST DUP2 PUSH1 0x40 MSTORE DUP4 DUP2 MSTORE DUP7 PUSH1 0x20 DUP6 DUP9 ADD ADD GT ISZERO PUSH3 0x299 JUMPI PUSH0 DUP1 REVERT JUMPDEST DUP4 PUSH1 0x20 DUP8 ADD PUSH1 0x20 DUP4 ADD CALLDATACOPY PUSH0 PUSH1 0x20 DUP6 DUP4 ADD ADD MSTORE DUP1 SWAP5 POP POP POP POP POP SWAP3 SWAP2 POP POP JUMP JUMPDEST PUSH0 DUP1 PUSH0 DUP1 PUSH0 DUP1 PUSH0 DUP1 PUSH2 0x100 DUP10 DUP12 SUB SLT ISZERO PUSH3 0x2D1 JUMPI PUSH0 DUP1 REVERT JUMPDEST PUSH3 0x2DC DUP10 PUSH3 0x1F8 JUMP JUMPDEST SWAP8 POP PUSH1 0x20 DUP10 ADD CALLDATALOAD PUSH1 0x1 PUSH1 0x1 PUSH1 0x40 SHL SUB DUP1 DUP3 GT ISZERO PUSH3 0x2F8 JUMPI PUSH0 DUP1 REVERT JUMPDEST PUSH3 0x306 DUP13 DUP4 DUP14 ADD PUSH3 0x228 JUMP JUMPDEST SWAP9 POP PUSH1 0x40 DUP12 ADD CALLDATALOAD SWAP8 POP PUSH1 0x60 DUP12 ADD CALLDATALOAD SWAP7 POP PUSH1 0x80 DUP12 ADD CALLDATALOAD SWAP6 POP PUSH1 0xA0 DUP12 ADD CALLDATALOAD SWAP2 POP DUP1 DUP3 GT ISZERO PUSH3 0x331 JUMPI PUSH0 DUP1 REVERT JUMPDEST PUSH3 0x33F DUP13 DUP4 DUP14 ADD PUSH3 0x228 JUMP JUMPDEST SWAP5 POP PUSH1 0xC0 DUP12 ADD CALLDATALOAD SWAP2 POP DUP1 DUP3 GT ISZERO PUSH3 0x355 JUMPI PUSH0 DUP1 REVERT JUMPDEST PUSH3 0x363 DUP13 DUP4 DUP14 ADD PUSH3 0x228 JUMP JUMPDEST SWAP4 POP PUSH1 0xE0 DUP12 ADD CALLDATALOAD SWAP2 POP DUP1 DUP3 GT ISZERO PUSH3 0x379 JUMPI PUSH0 DUP1 REVERT JUMPDEST POP PUSH3 0x388 DUP12 DUP3 DUP13 ADD PUSH3 0x228 JUMP JUMPDEST SWAP2 POP POP SWAP3 SWAP6 SWAP9 POP SWAP3 SWAP6 SWAP9 SWAP1 SWAP4 SWAP7 POP JUMP JUMPDEST PUSH1 0x20 DUP1 DUP3 MSTORE DUP3 MLOAD DUP3 DUP3 ADD DUP2 SWAP1 MSTORE PUSH0 SWAP2 SWAP1 DUP5 DUP3 ADD SWAP1 PUSH1 0x40 DUP6 ADD SWAP1 DUP5 JUMPDEST DUP2 DUP2 LT ISZERO PUSH3 0x3DA JUMPI DUP4 MLOAD PUSH1 0x1 PUSH1 0x1 PUSH1 0xA0 SHL SUB AND DUP4 MSTORE SWAP3 DUP5 ADD SWAP3 SWAP2 DUP5 ADD SWAP2 PUSH1 0x1 ADD PUSH3 0x3B3 JUMP JUMPDEST POP SWAP1 SWAP7 SWAP6 POP POP POP POP POP POP JUMP JUMPDEST PUSH0 PUSH1 0x20 DUP3 DUP5 SUB SLT ISZERO PUSH3 0x3F7 JUMPI PUSH0 DUP1 REVERT JUMPDEST POP CALLDATALOAD SWAP2 SWAP1 POP JUMP JUMPDEST DUP1 DUP3 ADD DUP1 DUP3 GT ISZERO PUSH3 0x41E JUMPI PUSH4 0x4E487B71 PUSH1 0xE0 SHL PUSH0 MSTORE PUSH1 0x11 PUSH1 0x4 MSTORE PUSH1 0x24 PUSH0 REVERT JUMPDEST SWAP3 SWAP2 POP POP JUMP JUMPDEST PUSH0 DUP2 MLOAD DUP1 DUP5 MSTORE PUSH0 JUMPDEST DUP2 DUP2 LT ISZERO PUSH3 0x44A JUMPI PUSH1 0x20 DUP2 DUP6 ADD DUP2 ADD MLOAD DUP7 DUP4 ADD DUP3 ADD MSTORE ADD PUSH3 0x42C JUMP JUMPDEST POP PUSH0 PUSH1 0x20 DUP3 DUP7 ADD ADD MSTORE PUSH1 0x20 PUSH1 0x1F NOT PUSH1 0x1F DUP4 ADD AND DUP6 ADD ADD SWAP2 POP POP SWAP3 SWAP2 POP POP JUMP JUMPDEST DUP11 DUP2 MSTORE PUSH1 0x1 PUSH1 0x1 PUSH1 0xA0 SHL SUB DUP11 DUP2 AND PUSH1 0x20 DUP4 ADD MSTORE PUSH2 0x140 PUSH1 0x40 DUP4 ADD DUP2 SWAP1 MSTORE PUSH0 SWAP2 PUSH3 0x496 DUP5 DUP4 ADD DUP14 PUSH3 0x424 JUMP JUMPDEST SWAP2 POP DUP11 PUSH1 0x60 DUP6 ADD MSTORE DUP10 PUSH1 0x80 DUP6 ADD MSTORE DUP9 PUSH1 0xA0 DUP6 ADD MSTORE DUP1 DUP9 AND PUSH1 0xC0 DUP6 ADD MSTORE POP DUP3 DUP2 SUB PUSH1 0xE0 DUP5 ADD MSTORE PUSH3 0x4C7 DUP2 DUP8 PUSH3 0x424 JUMP JUMPDEST SWAP1 POP DUP3 DUP2 SUB PUSH2 0x100 DUP5 ADD MSTORE PUSH3 0x4DE DUP2 DUP7 PUSH3 0x424 JUMP JUMPDEST SWAP1 POP DUP3 DUP2 SUB PUSH2 0x120 DUP5 ADD MSTORE PUSH3 0x4F5 DUP2 DUP6 PUSH3 0x424 JUMP JUMPDEST SWAP14 SWAP13 POP POP POP POP POP POP POP POP POP POP POP POP POP JUMP INVALID PUSH1 0x80 PUSH1 0x40 MSTORE CALLVALUE DUP1 ISZERO PUSH3 0x10 JUMPI PUSH0 DUP1 REVERT JUMPDEST POP PUSH1 0x40 MLOAD PUSH3 0x3373 CODESIZE SUB DUP1 PUSH3 0x3373 DUP4 CODECOPY DUP2 ADD PUSH1 0x40 DUP2 SWAP1 MSTORE PUSH3 0x33 SWAP2 PUSH3 0x4A2 JUMP JUMPDEST PUSH0 DUP11 SWAP1 SSTORE PUSH1 0x1 DUP1 SLOAD PUSH1 0x1 PUSH1 0x1 PUSH1 0xA0 SHL SUB NOT AND PUSH1 0x1 PUSH1 0x1 PUSH1 0xA0 SHL SUB DUP12 AND OR SWAP1 SSTORE PUSH1 0x2 PUSH3 0x60 DUP10 DUP3 PUSH3 0x62A JUMP JUMPDEST POP PUSH1 0x3 DUP8 SWAP1 SSTORE PUSH1 0x4 DUP7 SWAP1 SSTORE PUSH1 0x5 DUP6 SWAP1 SSTORE PUSH0 SLOAD ADDRESS SWAP1 DUP4 SWAP1 PUSH3 0x81 SWAP1 PUSH3 0x14C JUMP JUMPDEST PUSH1 0x40 MLOAD PUSH1 0x20 ADD PUSH3 0x94 SWAP3 SWAP2 SWAP1 PUSH3 0x6F6 JUMP JUMPDEST PUSH1 0x40 MLOAD PUSH1 0x20 DUP2 DUP4 SUB SUB DUP2 MSTORE SWAP1 PUSH1 0x40 MSTORE DUP3 PUSH3 0xB6 PUSH0 SLOAD PUSH3 0x14C PUSH1 0x20 SHL PUSH1 0x20 SHR JUMP JUMPDEST PUSH1 0x40 MLOAD PUSH1 0x20 ADD PUSH3 0xC9 SWAP3 SWAP2 SWAP1 PUSH3 0x6F6 JUMP JUMPDEST PUSH1 0x40 MLOAD PUSH1 0x20 DUP2 DUP4 SUB SUB DUP2 MSTORE SWAP1 PUSH1 0x40 MSTORE PUSH1 0x40 MLOAD PUSH3 0xE6 SWAP1 PUSH3 0x3B2 JUMP JUMPDEST PUSH3 0xF4 SWAP4 SWAP3 SWAP2 SWAP1 PUSH3 0x755 JUMP JUMPDEST PUSH1 0x40 MLOAD DUP1 SWAP2 SUB SWAP1 PUSH0 CREATE DUP1 ISZERO DUP1 ISZERO PUSH3 0x10E JUMPI RETURNDATASIZE PUSH0 DUP1 RETURNDATACOPY RETURNDATASIZE PUSH0 REVERT JUMPDEST POP PUSH1 0x9 DUP1 SLOAD PUSH1 0x1 PUSH1 0x1 PUSH1 0xA0 SHL SUB NOT AND PUSH1 0x1 PUSH1 0x1 PUSH1 0xA0 SHL SUB SWAP3 SWAP1 SWAP3 AND SWAP2 SWAP1 SWAP2 OR SWAP1 SSTORE PUSH3 0x13C DUP4 DUP8 DUP7 PUSH3 0x1E2 JUMP JUMPDEST POP POP POP POP POP POP POP POP POP POP PUSH3 0x7A2 JUMP JUMPDEST PUSH1 0x60 PUSH0 PUSH3 0x15A DUP4 PUSH3 0x2C9 JUMP JUMPDEST PUSH1 0x1 ADD SWAP1 POP PUSH0 DUP2 PUSH1 0x1 PUSH1 0x1 PUSH1 0x40 SHL SUB DUP2 GT ISZERO PUSH3 0x17B JUMPI PUSH3 0x17B PUSH3 0x3DC JUMP JUMPDEST PUSH1 0x40 MLOAD SWAP1 DUP1 DUP3 MSTORE DUP1 PUSH1 0x1F ADD PUSH1 0x1F NOT AND PUSH1 0x20 ADD DUP3 ADD PUSH1 0x40 MSTORE DUP1 ISZERO PUSH3 0x1A6 JUMPI PUSH1 0x20 DUP3 ADD DUP2 DUP1 CALLDATASIZE DUP4 CALLDATACOPY ADD SWAP1 POP JUMPDEST POP SWAP1 POP DUP2 DUP2 ADD PUSH1 0x20 ADD JUMPDEST PUSH0 NOT ADD PUSH16 0x181899199A1A9B1B9C1CB0B131B232B3 PUSH1 0x81 SHL PUSH1 0xA DUP7 MOD BYTE DUP2 MSTORE8 PUSH1 0xA DUP6 DIV SWAP5 POP DUP5 PUSH3 0x1B0 JUMPI POP SWAP4 SWAP3 POP POP POP JUMP JUMPDEST PUSH0 JUMPDEST PUSH1 0x8 SLOAD DUP2 LT ISZERO PUSH3 0x22A JUMPI DUP3 PUSH1 0x8 DUP3 DUP2 SLOAD DUP2 LT PUSH3 0x206 JUMPI PUSH3 0x206 PUSH3 0x78E JUMP JUMPDEST SWAP1 PUSH0 MSTORE PUSH1 0x20 PUSH0 KECCAK256 SWAP1 PUSH1 0xA MUL ADD PUSH1 0x2 ADD SLOAD LT ISZERO PUSH3 0x221 JUMPI PUSH0 DUP1 REVERT JUMPDEST PUSH1 0x1 ADD PUSH3 0x1E4 JUMP JUMPDEST POP PUSH1 0x8 DUP1 SLOAD PUSH1 0x1 DUP2 ADD DUP3 SSTORE PUSH0 SWAP2 SWAP1 SWAP2 MSTORE PUSH1 0xA MUL PUSH32 0xF3F7A9FE364FAAB93B216DA50A3214154F22A0A2B415B23A84C8169E8B636EE3 DUP2 ADD SWAP1 PUSH32 0xF3F7A9FE364FAAB93B216DA50A3214154F22A0A2B415B23A84C8169E8B636EE4 ADD PUSH3 0x28F DUP6 DUP3 PUSH3 0x62A JUMP JUMPDEST POP PUSH1 0x2 DUP2 ADD SWAP3 SWAP1 SWAP3 SSTORE DUP2 SLOAD PUSH1 0x1 PUSH1 0x1 PUSH1 0xA0 SHL SUB NOT AND PUSH1 0x1 PUSH1 0x1 PUSH1 0xA0 SHL SUB SWAP2 SWAP1 SWAP2 AND OR DUP2 SSTORE PUSH1 0x3 DUP2 ADD DUP1 SLOAD PUSH1 0xFF NOT AND SWAP1 SSTORE PUSH0 PUSH1 0x5 SWAP1 SWAP2 ADD SSTORE POP JUMP JUMPDEST PUSH0 DUP1 PUSH27 0x184F03E93FF9F4DAA797ED6E38ED64BF6A1F010000000000000000 DUP4 LT PUSH3 0x312 JUMPI PUSH27 0x184F03E93FF9F4DAA797ED6E38ED64BF6A1F010000000000000000 DUP4 DIV SWAP3 POP PUSH1 0x40 ADD JUMPDEST PUSH14 0x4EE2D6D415B85ACEF8100000000 DUP4 LT PUSH3 0x33F JUMPI PUSH14 0x4EE2D6D415B85ACEF8100000000 DUP4 DIV SWAP3 POP PUSH1 0x20 ADD JUMPDEST PUSH7 0x2386F26FC10000 DUP4 LT PUSH3 0x35E JUMPI PUSH7 0x2386F26FC10000 DUP4 DIV SWAP3 POP PUSH1 0x10 ADD JUMPDEST PUSH4 0x5F5E100 DUP4 LT PUSH3 0x377 JUMPI PUSH4 0x5F5E100 DUP4 DIV SWAP3 POP PUSH1 0x8 ADD JUMPDEST PUSH2 0x2710 DUP4 LT PUSH3 0x38C JUMPI PUSH2 0x2710 DUP4 DIV SWAP3 POP PUSH1 0x4 ADD JUMPDEST PUSH1 0x64 DUP4 LT PUSH3 0x39F JUMPI PUSH1 0x64 DUP4 DIV SWAP3 POP PUSH1 0x2 ADD JUMPDEST PUSH1 0xA DUP4 LT PUSH3 0x3AC JUMPI PUSH1 0x1 ADD JUMPDEST SWAP3 SWAP2 POP POP JUMP JUMPDEST PUSH2 0x1AEE DUP1 PUSH3 0x1885 DUP4 CODECOPY ADD SWAP1 JUMP JUMPDEST DUP1 MLOAD PUSH1 0x1 PUSH1 0x1 PUSH1 0xA0 SHL SUB DUP2 AND DUP2 EQ PUSH3 0x3D7 JUMPI PUSH0 DUP1 REVERT JUMPDEST SWAP2 SWAP1 POP JUMP JUMPDEST PUSH4 0x4E487B71 PUSH1 0xE0 SHL PUSH0 MSTORE PUSH1 0x41 PUSH1 0x4 MSTORE PUSH1 0x24 PUSH0 REVERT JUMPDEST PUSH0 JUMPDEST DUP4 DUP2 LT ISZERO PUSH3 0x40C JUMPI DUP2 DUP2 ADD MLOAD DUP4 DUP3 ADD MSTORE PUSH1 0x20 ADD PUSH3 0x3F2 JUMP JUMPDEST POP POP PUSH0 SWAP2 ADD MSTORE JUMP JUMPDEST PUSH0 DUP3 PUSH1 0x1F DUP4 ADD SLT PUSH3 0x424 JUMPI PUSH0 DUP1 REVERT JUMPDEST DUP2 MLOAD PUSH1 0x1 PUSH1 0x1 PUSH1 0x40 SHL SUB DUP1 DUP3 GT ISZERO PUSH3 0x441 JUMPI PUSH3 0x441 PUSH3 0x3DC JUMP JUMPDEST PUSH1 0x40 MLOAD PUSH1 0x1F DUP4 ADD PUSH1 0x1F NOT SWAP1 DUP2 AND PUSH1 0x3F ADD AND DUP2 ADD SWAP1 DUP3 DUP3 GT DUP2 DUP4 LT OR ISZERO PUSH3 0x46C JUMPI PUSH3 0x46C PUSH3 0x3DC JUMP JUMPDEST DUP2 PUSH1 0x40 MSTORE DUP4 DUP2 MSTORE DUP7 PUSH1 0x20 DUP6 DUP9 ADD ADD GT ISZERO PUSH3 0x485 JUMPI PUSH0 DUP1 REVERT JUMPDEST PUSH3 0x498 DUP5 PUSH1 0x20 DUP4 ADD PUSH1 0x20 DUP10 ADD PUSH3 0x3F0 JUMP JUMPDEST SWAP7 SWAP6 POP POP POP POP POP POP JUMP JUMPDEST PUSH0 DUP1 PUSH0 DUP1 PUSH0 DUP1 PUSH0 DUP1 PUSH0 DUP1 PUSH2 0x140 DUP12 DUP14 SUB SLT ISZERO PUSH3 0x4BD JUMPI PUSH0 DUP1 REVERT JUMPDEST DUP11 MLOAD SWAP10 POP PUSH3 0x4CF PUSH1 0x20 DUP13 ADD PUSH3 0x3C0 JUMP JUMPDEST PUSH1 0x40 DUP13 ADD MLOAD SWAP1 SWAP10 POP PUSH1 0x1 PUSH1 0x1 PUSH1 0x40 SHL SUB DUP1 DUP3 GT ISZERO PUSH3 0x4EC JUMPI PUSH0 DUP1 REVERT JUMPDEST PUSH3 0x4FA DUP15 DUP4 DUP16 ADD PUSH3 0x414 JUMP JUMPDEST SWAP10 POP PUSH1 0x60 DUP14 ADD MLOAD SWAP9 POP PUSH1 0x80 DUP14 ADD MLOAD SWAP8 POP PUSH1 0xA0 DUP14 ADD MLOAD SWAP7 POP PUSH3 0x51F PUSH1 0xC0 DUP15 ADD PUSH3 0x3C0 JUMP JUMPDEST SWAP6 POP PUSH1 0xE0 DUP14 ADD MLOAD SWAP2 POP DUP1 DUP3 GT ISZERO PUSH3 0x535 JUMPI PUSH0 DUP1 REVERT JUMPDEST PUSH3 0x543 DUP15 DUP4 DUP16 ADD PUSH3 0x414 JUMP JUMPDEST SWAP5 POP PUSH2 0x100 DUP14 ADD MLOAD SWAP2 POP DUP1 DUP3 GT ISZERO PUSH3 0x55A JUMPI PUSH0 DUP1 REVERT JUMPDEST PUSH3 0x568 DUP15 DUP4 DUP16 ADD PUSH3 0x414 JUMP JUMPDEST SWAP4 POP PUSH2 0x120 DUP14 ADD MLOAD SWAP2 POP DUP1 DUP3 GT ISZERO PUSH3 0x57F JUMPI PUSH0 DUP1 REVERT JUMPDEST POP PUSH3 0x58E DUP14 DUP3 DUP15 ADD PUSH3 0x414 JUMP JUMPDEST SWAP2 POP POP SWAP3 SWAP6 SWAP9 SWAP12 SWAP2 SWAP5 SWAP8 SWAP11 POP SWAP3 SWAP6 SWAP9 POP JUMP JUMPDEST PUSH1 0x1 DUP2 DUP2 SHR SWAP1 DUP3 AND DUP1 PUSH3 0x5B5 JUMPI PUSH1 0x7F DUP3 AND SWAP2 POP JUMPDEST PUSH1 0x20 DUP3 LT DUP2 SUB PUSH3 0x5D4 JUMPI PUSH4 0x4E487B71 PUSH1 0xE0 SHL PUSH0 MSTORE PUSH1 0x22 PUSH1 0x4 MSTORE PUSH1 0x24 PUSH0 REVERT JUMPDEST POP SWAP2 SWAP1 POP JUMP JUMPDEST PUSH1 0x1F DUP3 GT ISZERO PUSH3 0x625 JUMPI DUP1 PUSH0 MSTORE PUSH1 0x20 PUSH0 KECCAK256 PUSH1 0x1F DUP5 ADD PUSH1 0x5 SHR DUP2 ADD PUSH1 0x20 DUP6 LT ISZERO PUSH3 0x601 JUMPI POP DUP1 JUMPDEST PUSH1 0x1F DUP5 ADD PUSH1 0x5 SHR DUP3 ADD SWAP2 POP JUMPDEST DUP2 DUP2 LT ISZERO PUSH3 0x622 JUMPI PUSH0 DUP2 SSTORE PUSH1 0x1 ADD PUSH3 0x60D JUMP JUMPDEST POP POP JUMPDEST POP POP POP JUMP JUMPDEST DUP2 MLOAD PUSH1 0x1 PUSH1 0x1 PUSH1 0x40 SHL SUB DUP2 GT ISZERO PUSH3 0x646 JUMPI PUSH3 0x646 PUSH3 0x3DC JUMP JUMPDEST PUSH3 0x65E DUP2 PUSH3 0x657 DUP5 SLOAD PUSH3 0x5A0 JUMP JUMPDEST DUP5 PUSH3 0x5DA JUMP JUMPDEST PUSH1 0x20 DUP1 PUSH1 0x1F DUP4 GT PUSH1 0x1 DUP2 EQ PUSH3 0x694 JUMPI PUSH0 DUP5 ISZERO PUSH3 0x67C JUMPI POP DUP6 DUP4 ADD MLOAD JUMPDEST PUSH0 NOT PUSH1 0x3 DUP7 SWAP1 SHL SHR NOT AND PUSH1 0x1 DUP6 SWAP1 SHL OR DUP6 SSTORE PUSH3 0x6EE JUMP JUMPDEST PUSH0 DUP6 DUP2 MSTORE PUSH1 0x20 DUP2 KECCAK256 PUSH1 0x1F NOT DUP7 AND SWAP2 JUMPDEST DUP3 DUP2 LT ISZERO PUSH3 0x6C4 JUMPI DUP9 DUP7 ADD MLOAD DUP3 SSTORE SWAP5 DUP5 ADD SWAP5 PUSH1 0x1 SWAP1 SWAP2 ADD SWAP1 DUP5 ADD PUSH3 0x6A3 JUMP JUMPDEST POP DUP6 DUP3 LT ISZERO PUSH3 0x6E2 JUMPI DUP8 DUP6 ADD MLOAD PUSH0 NOT PUSH1 0x3 DUP9 SWAP1 SHL PUSH1 0xF8 AND SHR NOT AND DUP2 SSTORE JUMPDEST POP POP PUSH1 0x1 DUP5 PUSH1 0x1 SHL ADD DUP6 SSTORE JUMPDEST POP POP POP POP POP POP JUMP JUMPDEST PUSH0 DUP4 MLOAD PUSH3 0x709 DUP2 DUP5 PUSH1 0x20 DUP9 ADD PUSH3 0x3F0 JUMP JUMPDEST DUP4 MLOAD SWAP1 DUP4 ADD SWAP1 PUSH3 0x71F DUP2 DUP4 PUSH1 0x20 DUP9 ADD PUSH3 0x3F0 JUMP JUMPDEST ADD SWAP5 SWAP4 POP POP POP POP JUMP JUMPDEST PUSH0 DUP2 MLOAD DUP1 DUP5 MSTORE PUSH3 0x741 DUP2 PUSH1 0x20 DUP7 ADD PUSH1 0x20 DUP7 ADD PUSH3 0x3F0 JUMP JUMPDEST PUSH1 0x1F ADD PUSH1 0x1F NOT AND SWAP3 SWAP1 SWAP3 ADD PUSH1 0x20 ADD SWAP3 SWAP2 POP POP JUMP JUMPDEST PUSH1 0x1 PUSH1 0x1 PUSH1 0xA0 SHL SUB DUP5 AND DUP2 MSTORE PUSH1 0x60 PUSH1 0x20 DUP3 ADD DUP2 SWAP1 MSTORE PUSH0 SWAP1 PUSH3 0x77A SWAP1 DUP4 ADD DUP6 PUSH3 0x728 JUMP JUMPDEST DUP3 DUP2 SUB PUSH1 0x40 DUP5 ADD MSTORE PUSH3 0x498 DUP2 DUP6 PUSH3 0x728 JUMP JUMPDEST PUSH4 0x4E487B71 PUSH1 0xE0 SHL PUSH0 MSTORE PUSH1 0x32 PUSH1 0x4 MSTORE PUSH1 0x24 PUSH0 REVERT JUMPDEST PUSH2 0x10D5 DUP1 PUSH3 0x7B0 PUSH0 CODECOPY PUSH0 RETURN INVALID PUSH1 0x80 PUSH1 0x40 MSTORE PUSH1 0x4 CALLDATASIZE LT PUSH2 0xCD JUMPI PUSH0 CALLDATALOAD PUSH1 0xE0 SHR DUP1 PUSH4 0xB49351C EQ PUSH2 0xD1 JUMPI DUP1 PUSH4 0x1BB05F73 EQ PUSH2 0xF4 JUMPI DUP1 PUSH4 0x1F6D4942 EQ PUSH2 0x115 JUMPI DUP1 PUSH4 0x29DCB0CF EQ PUSH2 0x140 JUMPI DUP1 PUSH4 0x2B7D782F EQ PUSH2 0x155 JUMPI DUP1 PUSH4 0x4051DDAC EQ PUSH2 0x174 JUMPI DUP1 PUSH4 0x47CCCA02 EQ PUSH2 0x19B JUMPI DUP1 PUSH4 0x7569B3D7 EQ PUSH2 0x1D2 JUMPI DUP1 PUSH4 0x8DA5CB5B EQ PUSH2 0x1E7 JUMPI DUP1 PUSH4 0x937E09B1 EQ PUSH2 0x206 JUMPI DUP1 PUSH4 0xAA3EC0A9 EQ PUSH2 0x21B JUMPI DUP1 PUSH4 0xB82C86D6 EQ PUSH2 0x23C JUMPI DUP1 PUSH4 0xC438B40F EQ PUSH2 0x251 JUMPI DUP1 PUSH4 0xC5451232 EQ PUSH2 0x264 JUMPI DUP1 PUSH4 0xD7BB99BA EQ PUSH2 0x283 JUMPI DUP1 PUSH4 0xE89E4ED6 EQ PUSH2 0x28B JUMPI DUP1 PUSH4 0xEB599E43 EQ PUSH2 0x2BE JUMPI JUMPDEST PUSH0 DUP1 REVERT JUMPDEST CALLVALUE DUP1 ISZERO PUSH2 0xDC JUMPI PUSH0 DUP1 REVERT JUMPDEST POP PUSH1 0x8 SLOAD JUMPDEST PUSH1 0x40 MLOAD SWAP1 DUP2 MSTORE PUSH1 0x20 ADD JUMPDEST PUSH1 0x40 MLOAD DUP1 SWAP2 SUB SWAP1 RETURN JUMPDEST CALLVALUE DUP1 ISZERO PUSH2 0xFF JUMPI PUSH0 DUP1 REVERT JUMPDEST POP PUSH2 0x113 PUSH2 0x10E CALLDATASIZE PUSH1 0x4 PUSH2 0xAF8 JUMP JUMPDEST PUSH2 0x2DD JUMP JUMPDEST STOP JUMPDEST CALLVALUE DUP1 ISZERO PUSH2 0x120 JUMPI PUSH0 DUP1 REVERT JUMPDEST POP PUSH2 0xE1 PUSH2 0x12F CALLDATASIZE PUSH1 0x4 PUSH2 0xB56 JUMP JUMPDEST PUSH1 0x7 PUSH1 0x20 MSTORE PUSH0 SWAP1 DUP2 MSTORE PUSH1 0x40 SWAP1 KECCAK256 SLOAD DUP2 JUMP JUMPDEST CALLVALUE DUP1 ISZERO PUSH2 0x14B JUMPI PUSH0 DUP1 REVERT JUMPDEST POP PUSH2 0xE1 PUSH1 0x5 SLOAD DUP2 JUMP JUMPDEST CALLVALUE DUP1 ISZERO PUSH2 0x160 JUMPI PUSH0 DUP1 REVERT JUMPDEST POP PUSH2 0x113 PUSH2 0x16F CALLDATASIZE PUSH1 0x4 PUSH2 0xC67 JUMP JUMPDEST PUSH2 0x3CA JUMP JUMPDEST CALLVALUE DUP1 ISZERO PUSH2 0x17F JUMPI PUSH0 DUP1 REVERT JUMPDEST POP PUSH2 0x188 PUSH2 0x469 JUMP JUMPDEST PUSH1 0x40 MLOAD PUSH2 0xEB SWAP8 SWAP7 SWAP6 SWAP5 SWAP4 SWAP3 SWAP2 SWAP1 PUSH2 0xD97 JUMP JUMPDEST CALLVALUE DUP1 ISZERO PUSH2 0x1A6 JUMPI PUSH0 DUP1 REVERT JUMPDEST POP PUSH1 0x9 SLOAD PUSH2 0x1BA SWAP1 PUSH1 0x1 PUSH1 0x1 PUSH1 0xA0 SHL SUB AND DUP2 JUMP JUMPDEST PUSH1 0x40 MLOAD PUSH1 0x1 PUSH1 0x1 PUSH1 0xA0 SHL SUB SWAP1 SWAP2 AND DUP2 MSTORE PUSH1 0x20 ADD PUSH2 0xEB JUMP JUMPDEST CALLVALUE DUP1 ISZERO PUSH2 0x1DD JUMPI PUSH0 DUP1 REVERT JUMPDEST POP PUSH2 0xE1 PUSH1 0x6 SLOAD DUP2 JUMP JUMPDEST CALLVALUE DUP1 ISZERO PUSH2 0x1F2 JUMPI PUSH0 DUP1 REVERT JUMPDEST POP PUSH1 0x1 SLOAD PUSH2 0x1BA SWAP1 PUSH1 0x1 PUSH1 0x1 PUSH1 0xA0 SHL SUB AND DUP2 JUMP JUMPDEST CALLVALUE DUP1 ISZERO PUSH2 0x211 JUMPI PUSH0 DUP1 REVERT JUMPDEST POP PUSH2 0xE1 PUSH1 0x3 SLOAD DUP2 JUMP JUMPDEST CALLVALUE DUP1 ISZERO PUSH2 0x226 JUMPI PUSH0 DUP1 REVERT JUMPDEST POP PUSH2 0x22F PUSH2 0x536 JUMP JUMPDEST PUSH1 0x40 MLOAD PUSH2 0xEB SWAP2 SWAP1 PUSH2 0xDE6 JUMP JUMPDEST CALLVALUE DUP1 ISZERO PUSH2 0x247 JUMPI PUSH0 DUP1 REVERT JUMPDEST POP PUSH2 0xE1 PUSH1 0x4 SLOAD DUP2 JUMP JUMPDEST PUSH2 0x113 PUSH2 0x25F CALLDATASIZE PUSH1 0x4 PUSH2 0xDF8 JUMP JUMPDEST PUSH2 0x5C2 JUMP JUMPDEST CALLVALUE DUP1 ISZERO PUSH2 0x26F JUMPI PUSH0 DUP1 REVERT JUMPDEST POP PUSH2 0x113 PUSH2 0x27E CALLDATASIZE PUSH1 0x4 PUSH2 0xE0F JUMP JUMPDEST PUSH2 0x68F JUMP JUMPDEST PUSH2 0x113 PUSH2 0x6C2 JUMP JUMPDEST CALLVALUE DUP1 ISZERO PUSH2 0x296 JUMPI PUSH0 DUP1 REVERT JUMPDEST POP PUSH2 0x2AA PUSH2 0x2A5 CALLDATASIZE PUSH1 0x4 PUSH2 0xDF8 JUMP JUMPDEST PUSH2 0x726 JUMP JUMPDEST PUSH1 0x40 MLOAD PUSH2 0xEB SWAP9 SWAP8 SWAP7 SWAP6 SWAP5 SWAP4 SWAP3 SWAP2 SWAP1 PUSH2 0xE61 JUMP JUMPDEST CALLVALUE DUP1 ISZERO PUSH2 0x2C9 JUMPI PUSH0 DUP1 REVERT JUMPDEST POP PUSH2 0x113 PUSH2 0x2D8 CALLDATASIZE PUSH1 0x4 PUSH2 0xDF8 JUMP JUMPDEST PUSH2 0x811 JUMP JUMPDEST PUSH0 PUSH1 0x8 DUP4 DUP2 SLOAD DUP2 LT PUSH2 0x2F1 JUMPI PUSH2 0x2F1 PUSH2 0xEBA JUMP JUMPDEST PUSH0 SWAP2 DUP3 MSTORE PUSH1 0x20 DUP1 DUP4 KECCAK256 CALLER DUP5 MSTORE PUSH1 0x6 PUSH1 0xA SWAP1 SWAP4 MUL ADD SWAP2 DUP3 ADD SWAP1 MSTORE PUSH1 0x40 SWAP1 SWAP2 KECCAK256 SLOAD PUSH1 0x4 SLOAD PUSH1 0x2 DUP4 ADD SLOAD SWAP3 SWAP4 POP SWAP1 SWAP2 EQ PUSH2 0x32D JUMPI PUSH0 DUP2 GT PUSH2 0x32D JUMPI PUSH0 DUP1 REVERT JUMPDEST CALLER PUSH0 SWAP1 DUP2 MSTORE PUSH1 0x9 DUP4 ADD PUSH1 0x20 MSTORE PUSH1 0x40 SWAP1 KECCAK256 SLOAD PUSH1 0xFF AND ISZERO PUSH2 0x34A JUMPI PUSH0 DUP1 REVERT JUMPDEST CALLER PUSH0 DUP2 DUP2 MSTORE PUSH1 0x9 DUP1 DUP6 ADD PUSH1 0x20 MSTORE PUSH1 0x40 SWAP2 DUP3 SWAP1 KECCAK256 DUP1 SLOAD PUSH1 0xFF NOT AND PUSH1 0x1 OR SWAP1 SSTORE SLOAD SWAP1 MLOAD PUSH4 0x6902622F PUSH1 0xE1 SHL DUP2 MSTORE PUSH1 0x1 PUSH1 0x1 PUSH1 0xA0 SHL SUB SWAP2 SWAP1 SWAP2 AND SWAP2 PUSH4 0xD204C45E SWAP2 PUSH2 0x397 SWAP2 SWAP1 DUP8 SWAP1 PUSH1 0x4 ADD PUSH2 0xECE JUMP JUMPDEST PUSH0 PUSH1 0x40 MLOAD DUP1 DUP4 SUB DUP2 PUSH0 DUP8 DUP1 EXTCODESIZE ISZERO DUP1 ISZERO PUSH2 0x3AE JUMPI PUSH0 DUP1 REVERT JUMPDEST POP GAS CALL ISZERO DUP1 ISZERO PUSH2 0x3C0 JUMPI RETURNDATASIZE PUSH0 DUP1 RETURNDATACOPY RETURNDATASIZE PUSH0 REVERT JUMPDEST POP POP POP POP POP POP POP POP JUMP JUMPDEST PUSH1 0x1 SLOAD PUSH1 0x1 PUSH1 0x1 PUSH1 0xA0 SHL SUB AND CALLER EQ PUSH2 0x3E0 JUMPI PUSH0 DUP1 REVERT JUMPDEST DUP2 MLOAD DUP4 MLOAD EQ DUP1 ISZERO PUSH2 0x3F2 JUMPI POP DUP1 MLOAD DUP3 MLOAD EQ JUMPDEST PUSH2 0x3FA JUMPI PUSH0 DUP1 REVERT JUMPDEST PUSH0 JUMPDEST DUP4 MLOAD DUP2 LT ISZERO PUSH2 0x463 JUMPI PUSH2 0x45B DUP5 DUP3 DUP2 MLOAD DUP2 LT PUSH2 0x41A JUMPI PUSH2 0x41A PUSH2 0xEBA JUMP JUMPDEST PUSH1 0x20 MUL PUSH1 0x20 ADD ADD MLOAD DUP5 DUP4 DUP2 MLOAD DUP2 LT PUSH2 0x434 JUMPI PUSH2 0x434 PUSH2 0xEBA JUMP JUMPDEST PUSH1 0x20 MUL PUSH1 0x20 ADD ADD MLOAD DUP5 DUP5 DUP2 MLOAD DUP2 LT PUSH2 0x44E JUMPI PUSH2 0x44E PUSH2 0xEBA JUMP JUMPDEST PUSH1 0x20 MUL PUSH1 0x20 ADD ADD MLOAD PUSH2 0x68F JUMP JUMPDEST PUSH1 0x1 ADD PUSH2 0x3FC JUMP JUMPDEST POP POP POP POP JUMP JUMPDEST PUSH0 DUP1 PUSH1 0x60 PUSH0 DUP1 PUSH0 DUP1 SELFBALANCE PUSH1 0x1 PUSH0 SWAP1 SLOAD SWAP1 PUSH2 0x100 EXP SWAP1 DIV PUSH1 0x1 PUSH1 0x1 PUSH1 0xA0 SHL SUB AND PUSH1 0x2 PUSH1 0x3 SLOAD PUSH1 0x4 SLOAD PUSH1 0x5 SLOAD PUSH1 0x6 SLOAD DUP5 DUP1 SLOAD PUSH2 0x4A1 SWAP1 PUSH2 0xEF9 JUMP JUMPDEST DUP1 PUSH1 0x1F ADD PUSH1 0x20 DUP1 SWAP2 DIV MUL PUSH1 0x20 ADD PUSH1 0x40 MLOAD SWAP1 DUP2 ADD PUSH1 0x40 MSTORE DUP1 SWAP3 SWAP2 SWAP1 DUP2 DUP2 MSTORE PUSH1 0x20 ADD DUP3 DUP1 SLOAD PUSH2 0x4CD SWAP1 PUSH2 0xEF9 JUMP JUMPDEST DUP1 ISZERO PUSH2 0x518 JUMPI DUP1 PUSH1 0x1F LT PUSH2 0x4EF JUMPI PUSH2 0x100 DUP1 DUP4 SLOAD DIV MUL DUP4 MSTORE SWAP2 PUSH1 0x20 ADD SWAP2 PUSH2 0x518 JUMP JUMPDEST DUP3 ADD SWAP2 SWAP1 PUSH0 MSTORE PUSH1 0x20 PUSH0 KECCAK256 SWAP1 JUMPDEST DUP2 SLOAD DUP2 MSTORE SWAP1 PUSH1 0x1 ADD SWAP1 PUSH1 0x20 ADD DUP1 DUP4 GT PUSH2 0x4FB JUMPI DUP3 SWAP1 SUB PUSH1 0x1F AND DUP3 ADD SWAP2 JUMPDEST POP POP POP POP POP SWAP5 POP SWAP7 POP SWAP7 POP SWAP7 POP SWAP7 POP SWAP7 POP SWAP7 POP SWAP7 POP SWAP1 SWAP2 SWAP3 SWAP4 SWAP5 SWAP6 SWAP7 JUMP JUMPDEST PUSH1 0x2 DUP1 SLOAD PUSH2 0x543 SWAP1 PUSH2 0xEF9 JUMP JUMPDEST DUP1 PUSH1 0x1F ADD PUSH1 0x20 DUP1 SWAP2 DIV MUL PUSH1 0x20 ADD PUSH1 0x40 MLOAD SWAP1 DUP2 ADD PUSH1 0x40 MSTORE DUP1 SWAP3 SWAP2 SWAP1 DUP2 DUP2 MSTORE PUSH1 0x20 ADD DUP3 DUP1 SLOAD PUSH2 0x56F SWAP1 PUSH2 0xEF9 JUMP JUMPDEST DUP1 ISZERO PUSH2 0x5BA JUMPI DUP1 PUSH1 0x1F LT PUSH2 0x591 JUMPI PUSH2 0x100 DUP1 DUP4 SLOAD DIV MUL DUP4 MSTORE SWAP2 PUSH1 0x20 ADD SWAP2 PUSH2 0x5BA JUMP JUMPDEST DUP3 ADD SWAP2 SWAP1 PUSH0 MSTORE PUSH1 0x20 PUSH0 KECCAK256 SWAP1 JUMPDEST DUP2 SLOAD DUP2 MSTORE SWAP1 PUSH1 0x1 ADD SWAP1 PUSH1 0x20 ADD DUP1 DUP4 GT PUSH2 0x59D JUMPI DUP3 SWAP1 SUB PUSH1 0x1F AND DUP3 ADD SWAP2 JUMPDEST POP POP POP POP POP DUP2 JUMP JUMPDEST CALLVALUE ISZERO PUSH2 0x5D0 JUMPI PUSH2 0x5D0 PUSH2 0x6C2 JUMP JUMPDEST PUSH0 PUSH1 0x8 DUP3 DUP2 SLOAD DUP2 LT PUSH2 0x5E4 JUMPI PUSH2 0x5E4 PUSH2 0xEBA JUMP JUMPDEST SWAP1 PUSH0 MSTORE PUSH1 0x20 PUSH0 KECCAK256 SWAP1 PUSH1 0xA MUL ADD SWAP1 POP DUP1 PUSH1 0x2 ADD SLOAD SELFBALANCE LT ISZERO PUSH2 0x602 JUMPI PUSH0 DUP1 REVERT JUMPDEST CALLER PUSH0 SWAP1 DUP2 MSTORE PUSH1 0x7 PUSH1 0x20 MSTORE PUSH1 0x40 SWAP1 KECCAK256 SLOAD PUSH2 0x619 JUMPI PUSH0 DUP1 REVERT JUMPDEST CALLER PUSH0 SWAP1 DUP2 MSTORE PUSH1 0x6 DUP3 ADD PUSH1 0x20 MSTORE PUSH1 0x40 SWAP1 KECCAK256 SLOAD ISZERO PUSH2 0x633 JUMPI PUSH0 DUP1 REVERT JUMPDEST CALLER PUSH0 SWAP1 DUP2 MSTORE PUSH1 0x6 DUP3 ADD PUSH1 0x20 MSTORE PUSH1 0x40 DUP2 KECCAK256 TIMESTAMP SWAP1 SSTORE PUSH1 0x5 DUP3 ADD DUP1 SLOAD SWAP2 PUSH2 0x656 DUP4 PUSH2 0xF45 JUMP JUMPDEST SWAP2 SWAP1 POP SSTORE POP PUSH1 0x2 PUSH1 0x6 SLOAD PUSH2 0x66A SWAP2 SWAP1 PUSH2 0xF5D JUMP JUMPDEST DUP2 PUSH1 0x5 ADD SLOAD GT ISZERO PUSH2 0x68B JUMPI PUSH1 0x3 DUP2 ADD DUP1 SLOAD PUSH1 0xFF NOT AND PUSH1 0x1 OR SWAP1 SSTORE TIMESTAMP PUSH1 0x4 DUP3 ADD SSTORE JUMPDEST POP POP JUMP JUMPDEST PUSH1 0x1 SLOAD PUSH1 0x1 PUSH1 0x1 PUSH1 0xA0 SHL SUB AND CALLER EQ PUSH2 0x6A5 JUMPI PUSH0 DUP1 REVERT JUMPDEST PUSH1 0x4 SLOAD DUP3 LT PUSH2 0x6B2 JUMPI PUSH0 DUP1 REVERT JUMPDEST PUSH2 0x6BD DUP4 DUP4 DUP4 PUSH2 0x96A JUMP JUMPDEST POP POP POP JUMP JUMPDEST PUSH1 0x3 SLOAD CALLVALUE GT PUSH2 0x6CF JUMPI PUSH0 DUP1 REVERT JUMPDEST PUSH1 0x4 SLOAD CALLVALUE LT PUSH2 0x6DC JUMPI PUSH0 DUP1 REVERT JUMPDEST PUSH1 0x5 SLOAD TIMESTAMP LT PUSH2 0x6E9 JUMPI PUSH0 DUP1 REVERT JUMPDEST CALLER PUSH0 SWAP1 DUP2 MSTORE PUSH1 0x7 PUSH1 0x20 MSTORE PUSH1 0x40 DUP2 KECCAK256 SLOAD SWAP1 SUB PUSH2 0x713 JUMPI PUSH1 0x6 DUP1 SLOAD SWAP1 PUSH0 PUSH2 0x70D DUP4 PUSH2 0xF45 JUMP JUMPDEST SWAP2 SWAP1 POP SSTORE POP JUMPDEST CALLER PUSH0 SWAP1 DUP2 MSTORE PUSH1 0x7 PUSH1 0x20 MSTORE PUSH1 0x40 SWAP1 KECCAK256 TIMESTAMP SWAP1 SSTORE JUMP JUMPDEST PUSH1 0x8 DUP2 DUP2 SLOAD DUP2 LT PUSH2 0x735 JUMPI PUSH0 DUP1 REVERT JUMPDEST PUSH0 SWAP2 DUP3 MSTORE PUSH1 0x20 SWAP1 SWAP2 KECCAK256 PUSH1 0xA SWAP1 SWAP2 MUL ADD DUP1 SLOAD PUSH1 0x1 DUP3 ADD DUP1 SLOAD PUSH1 0x1 PUSH1 0x1 PUSH1 0xA0 SHL SUB SWAP1 SWAP3 AND SWAP4 POP SWAP1 PUSH2 0x763 SWAP1 PUSH2 0xEF9 JUMP JUMPDEST DUP1 PUSH1 0x1F ADD PUSH1 0x20 DUP1 SWAP2 DIV MUL PUSH1 0x20 ADD PUSH1 0x40 MLOAD SWAP1 DUP2 ADD PUSH1 0x40 MSTORE DUP1 SWAP3 SWAP2 SWAP1 DUP2 DUP2 MSTORE PUSH1 0x20 ADD DUP3 DUP1 SLOAD PUSH2 0x78F SWAP1 PUSH2 0xEF9 JUMP JUMPDEST DUP1 ISZERO PUSH2 0x7DA JUMPI DUP1 PUSH1 0x1F LT PUSH2 0x7B1 JUMPI PUSH2 0x100 DUP1 DUP4 SLOAD DIV MUL DUP4 MSTORE SWAP2 PUSH1 0x20 ADD SWAP2 PUSH2 0x7DA JUMP JUMPDEST DUP3 ADD SWAP2 SWAP1 PUSH0 MSTORE PUSH1 0x20 PUSH0 KECCAK256 SWAP1 JUMPDEST DUP2 SLOAD DUP2 MSTORE SWAP1 PUSH1 0x1 ADD SWAP1 PUSH1 0x20 ADD DUP1 DUP4 GT PUSH2 0x7BD JUMPI DUP3 SWAP1 SUB PUSH1 0x1F AND DUP3 ADD SWAP2 JUMPDEST POP POP POP POP PUSH1 0x2 DUP4 ADD SLOAD PUSH1 0x3 DUP5 ADD SLOAD PUSH1 0x4 DUP6 ADD SLOAD PUSH1 0x5 DUP7 ADD SLOAD PUSH1 0x7 DUP8 ADD SLOAD PUSH1 0x8 SWAP1 SWAP8 ADD SLOAD SWAP6 SWAP7 SWAP4 SWAP6 PUSH1 0xFF SWAP4 DUP5 AND SWAP6 POP SWAP2 SWAP4 SWAP1 SWAP3 AND SWAP1 DUP9 JUMP JUMPDEST PUSH1 0x1 SLOAD PUSH1 0x1 PUSH1 0x1 PUSH1 0xA0 SHL SUB AND CALLER EQ PUSH2 0x827 JUMPI PUSH0 DUP1 REVERT JUMPDEST PUSH1 0x8 SLOAD DUP2 LT PUSH2 0x834 JUMPI PUSH0 DUP1 REVERT JUMPDEST PUSH0 PUSH1 0x8 DUP3 DUP2 SLOAD DUP2 LT PUSH2 0x848 JUMPI PUSH2 0x848 PUSH2 0xEBA JUMP JUMPDEST SWAP1 PUSH0 MSTORE PUSH1 0x20 PUSH0 KECCAK256 SWAP1 PUSH1 0xA MUL ADD SWAP1 POP PUSH0 DUP2 PUSH1 0x2 ADD SLOAD SWAP1 POP PUSH0 JUMPDEST DUP4 DUP2 GT PUSH2 0x918 JUMPI DUP4 DUP2 LT ISZERO PUSH2 0x8D5 JUMPI PUSH1 0x8 DUP2 DUP2 SLOAD DUP2 LT PUSH2 0x882 JUMPI PUSH2 0x882 PUSH2 0xEBA JUMP JUMPDEST PUSH0 SWAP2 DUP3 MSTORE PUSH1 0x20 SWAP1 SWAP2 KECCAK256 PUSH1 0x7 PUSH1 0xA SWAP1 SWAP3 MUL ADD ADD SLOAD PUSH1 0xFF AND PUSH2 0x8A0 JUMPI PUSH0 DUP1 REVERT JUMPDEST PUSH1 0x8 DUP2 DUP2 SLOAD DUP2 LT PUSH2 0x8B3 JUMPI PUSH2 0x8B3 PUSH2 0xEBA JUMP JUMPDEST SWAP1 PUSH0 MSTORE PUSH1 0x20 PUSH0 KECCAK256 SWAP1 PUSH1 0xA MUL ADD PUSH1 0x2 ADD SLOAD DUP3 PUSH2 0x8CE SWAP2 SWAP1 PUSH2 0xF7C JUMP JUMPDEST SWAP2 POP PUSH2 0x906 JUMP JUMPDEST PUSH1 0x8 DUP2 DUP2 SLOAD DUP2 LT PUSH2 0x8E8 JUMPI PUSH2 0x8E8 PUSH2 0xEBA JUMP JUMPDEST PUSH0 SWAP2 DUP3 MSTORE PUSH1 0x20 SWAP1 SWAP2 KECCAK256 PUSH1 0x3 PUSH1 0xA SWAP1 SWAP3 MUL ADD ADD SLOAD PUSH1 0xFF AND PUSH2 0x906 JUMPI PUSH0 DUP1 REVERT JUMPDEST DUP1 PUSH2 0x910 DUP2 PUSH2 0xF45 JUMP JUMPDEST SWAP2 POP POP PUSH2 0x860 JUMP JUMPDEST POP DUP2 SLOAD PUSH1 0x40 MLOAD PUSH1 0x1 PUSH1 0x1 PUSH1 0xA0 SHL SUB SWAP1 SWAP2 AND SWAP1 DUP3 ISZERO PUSH2 0x8FC MUL SWAP1 DUP4 SWAP1 PUSH0 DUP2 DUP2 DUP2 DUP6 DUP9 DUP9 CALL SWAP4 POP POP POP POP ISZERO DUP1 ISZERO PUSH2 0x94F JUMPI RETURNDATASIZE PUSH0 DUP1 RETURNDATACOPY RETURNDATASIZE PUSH0 REVERT JUMPDEST POP POP PUSH1 0x7 DUP2 ADD DUP1 SLOAD PUSH1 0xFF NOT AND PUSH1 0x1 OR SWAP1 SSTORE TIMESTAMP PUSH1 0x8 SWAP1 SWAP2 ADD SSTORE POP JUMP JUMPDEST PUSH0 JUMPDEST PUSH1 0x8 SLOAD DUP2 LT ISZERO PUSH2 0x9AC JUMPI DUP3 PUSH1 0x8 DUP3 DUP2 SLOAD DUP2 LT PUSH2 0x98A JUMPI PUSH2 0x98A PUSH2 0xEBA JUMP JUMPDEST SWAP1 PUSH0 MSTORE PUSH1 0x20 PUSH0 KECCAK256 SWAP1 PUSH1 0xA MUL ADD PUSH1 0x2 ADD SLOAD LT ISZERO PUSH2 0x9A4 JUMPI PUSH0 DUP1 REVERT JUMPDEST PUSH1 0x1 ADD PUSH2 0x96C JUMP JUMPDEST POP PUSH1 0x8 DUP1 SLOAD PUSH1 0x1 DUP2 ADD DUP3 SSTORE PUSH0 SWAP2 SWAP1 SWAP2 MSTORE PUSH1 0xA MUL PUSH32 0xF3F7A9FE364FAAB93B216DA50A3214154F22A0A2B415B23A84C8169E8B636EE3 DUP2 ADD SWAP1 PUSH32 0xF3F7A9FE364FAAB93B216DA50A3214154F22A0A2B415B23A84C8169E8B636EE4 ADD PUSH2 0xA0F DUP6 DUP3 PUSH2 0xFE0 JUMP JUMPDEST POP PUSH1 0x2 DUP2 ADD SWAP3 SWAP1 SWAP3 SSTORE DUP2 SLOAD PUSH1 0x1 PUSH1 0x1 PUSH1 0xA0 SHL SUB NOT AND PUSH1 0x1 PUSH1 0x1 PUSH1 0xA0 SHL SUB SWAP2 SWAP1 SWAP2 AND OR DUP2 SSTORE PUSH1 0x3 DUP2 ADD DUP1 SLOAD PUSH1 0xFF NOT AND SWAP1 SSTORE PUSH0 PUSH1 0x5 SWAP1 SWAP2 ADD SSTORE POP JUMP JUMPDEST PUSH4 0x4E487B71 PUSH1 0xE0 SHL PUSH0 MSTORE PUSH1 0x41 PUSH1 0x4 MSTORE PUSH1 0x24 PUSH0 REVERT JUMPDEST PUSH1 0x40 MLOAD PUSH1 0x1F DUP3 ADD PUSH1 0x1F NOT AND DUP2 ADD PUSH1 0x1 PUSH1 0x1 PUSH1 0x40 SHL SUB DUP2 GT DUP3 DUP3 LT OR ISZERO PUSH2 0xA85 JUMPI PUSH2 0xA85 PUSH2 0xA49 JUMP JUMPDEST PUSH1 0x40 MSTORE SWAP2 SWAP1 POP JUMP JUMPDEST PUSH0 DUP3 PUSH1 0x1F DUP4 ADD SLT PUSH2 0xA9C JUMPI PUSH0 DUP1 REVERT JUMPDEST DUP2 CALLDATALOAD PUSH1 0x1 PUSH1 0x1 PUSH1 0x40 SHL SUB DUP2 GT ISZERO PUSH2 0xAB5 JUMPI PUSH2 0xAB5 PUSH2 0xA49 JUMP JUMPDEST PUSH2 0xAC8 PUSH1 0x1F DUP3 ADD PUSH1 0x1F NOT AND PUSH1 0x20 ADD PUSH2 0xA5D JUMP JUMPDEST DUP2 DUP2 MSTORE DUP5 PUSH1 0x20 DUP4 DUP7 ADD ADD GT ISZERO PUSH2 0xADC JUMPI PUSH0 DUP1 REVERT JUMPDEST DUP2 PUSH1 0x20 DUP6 ADD PUSH1 0x20 DUP4 ADD CALLDATACOPY PUSH0 SWAP2 DUP2 ADD PUSH1 0x20 ADD SWAP2 SWAP1 SWAP2 MSTORE SWAP4 SWAP3 POP POP POP JUMP JUMPDEST PUSH0 DUP1 PUSH1 0x40 DUP4 DUP6 SUB SLT ISZERO PUSH2 0xB09 JUMPI PUSH0 DUP1 REVERT JUMPDEST DUP3 CALLDATALOAD SWAP2 POP PUSH1 0x20 DUP4 ADD CALLDATALOAD PUSH1 0x1 PUSH1 0x1 PUSH1 0x40 SHL SUB DUP2 GT ISZERO PUSH2 0xB25 JUMPI PUSH0 DUP1 REVERT JUMPDEST PUSH2 0xB31 DUP6 DUP3 DUP7 ADD PUSH2 0xA8D JUMP JUMPDEST SWAP2 POP POP SWAP3 POP SWAP3 SWAP1 POP JUMP JUMPDEST DUP1 CALLDATALOAD PUSH1 0x1 PUSH1 0x1 PUSH1 0xA0 SHL SUB DUP2 AND DUP2 EQ PUSH2 0xB51 JUMPI PUSH0 DUP1 REVERT JUMPDEST SWAP2 SWAP1 POP JUMP JUMPDEST PUSH0 PUSH1 0x20 DUP3 DUP5 SUB SLT ISZERO PUSH2 0xB66 JUMPI PUSH0 DUP1 REVERT JUMPDEST PUSH2 0xB6F DUP3 PUSH2 0xB3B JUMP JUMPDEST SWAP4 SWAP3 POP POP POP JUMP JUMPDEST PUSH0 PUSH1 0x1 PUSH1 0x1 PUSH1 0x40 SHL SUB DUP3 GT ISZERO PUSH2 0xB8E JUMPI PUSH2 0xB8E PUSH2 0xA49 JUMP JUMPDEST POP PUSH1 0x5 SHL PUSH1 0x20 ADD SWAP1 JUMP JUMPDEST PUSH0 DUP3 PUSH1 0x1F DUP4 ADD SLT PUSH2 0xBA7 JUMPI PUSH0 DUP1 REVERT JUMPDEST DUP2 CALLDATALOAD PUSH1 0x20 PUSH2 0xBBC PUSH2 0xBB7 DUP4 PUSH2 0xB76 JUMP JUMPDEST PUSH2 0xA5D JUMP JUMPDEST DUP1 DUP4 DUP3 MSTORE PUSH1 0x20 DUP3 ADD SWAP2 POP PUSH1 0x20 DUP5 PUSH1 0x5 SHL DUP8 ADD ADD SWAP4 POP DUP7 DUP5 GT ISZERO PUSH2 0xBDD JUMPI PUSH0 DUP1 REVERT JUMPDEST PUSH1 0x20 DUP7 ADD JUMPDEST DUP5 DUP2 LT ISZERO PUSH2 0xBF9 JUMPI DUP1 CALLDATALOAD DUP4 MSTORE SWAP2 DUP4 ADD SWAP2 DUP4 ADD PUSH2 0xBE2 JUMP JUMPDEST POP SWAP7 SWAP6 POP POP POP POP POP POP JUMP JUMPDEST PUSH0 DUP3 PUSH1 0x1F DUP4 ADD SLT PUSH2 0xC13 JUMPI PUSH0 DUP1 REVERT JUMPDEST DUP2 CALLDATALOAD PUSH1 0x20 PUSH2 0xC23 PUSH2 0xBB7 DUP4 PUSH2 0xB76 JUMP JUMPDEST DUP1 DUP4 DUP3 MSTORE PUSH1 0x20 DUP3 ADD SWAP2 POP PUSH1 0x20 DUP5 PUSH1 0x5 SHL DUP8 ADD ADD SWAP4 POP DUP7 DUP5 GT ISZERO PUSH2 0xC44 JUMPI PUSH0 DUP1 REVERT JUMPDEST PUSH1 0x20 DUP7 ADD JUMPDEST DUP5 DUP2 LT ISZERO PUSH2 0xBF9 JUMPI PUSH2 0xC5A DUP2 PUSH2 0xB3B JUMP JUMPDEST DUP4 MSTORE SWAP2 DUP4 ADD SWAP2 DUP4 ADD PUSH2 0xC49 JUMP JUMPDEST PUSH0 DUP1 PUSH0 PUSH1 0x60 DUP5 DUP7 SUB SLT ISZERO PUSH2 0xC79 JUMPI PUSH0 DUP1 REVERT JUMPDEST DUP4 CALLDATALOAD PUSH1 0x1 PUSH1 0x1 PUSH1 0x40 SHL SUB DUP1 DUP3 GT ISZERO PUSH2 0xC8F JUMPI PUSH0 DUP1 REVERT JUMPDEST DUP2 DUP7 ADD SWAP2 POP DUP7 PUSH1 0x1F DUP4 ADD SLT PUSH2 0xCA2 JUMPI PUSH0 DUP1 REVERT JUMPDEST DUP2 CALLDATALOAD PUSH1 0x20 PUSH2 0xCB2 PUSH2 0xBB7 DUP4 PUSH2 0xB76 JUMP JUMPDEST DUP3 DUP2 MSTORE PUSH1 0x5 SWAP3 SWAP1 SWAP3 SHL DUP5 ADD DUP2 ADD SWAP2 DUP2 DUP2 ADD SWAP1 DUP11 DUP5 GT ISZERO PUSH2 0xCD0 JUMPI PUSH0 DUP1 REVERT JUMPDEST DUP3 DUP7 ADD JUMPDEST DUP5 DUP2 LT ISZERO PUSH2 0xD06 JUMPI DUP1 CALLDATALOAD DUP7 DUP2 GT ISZERO PUSH2 0xCEA JUMPI PUSH0 DUP1 REVERT JUMPDEST PUSH2 0xCF8 DUP14 DUP7 DUP4 DUP12 ADD ADD PUSH2 0xA8D JUMP JUMPDEST DUP5 MSTORE POP SWAP2 DUP4 ADD SWAP2 DUP4 ADD PUSH2 0xCD4 JUMP JUMPDEST POP SWAP8 POP POP DUP8 ADD CALLDATALOAD SWAP3 POP POP DUP1 DUP3 GT ISZERO PUSH2 0xD1C JUMPI PUSH0 DUP1 REVERT JUMPDEST PUSH2 0xD28 DUP8 DUP4 DUP9 ADD PUSH2 0xB98 JUMP JUMPDEST SWAP4 POP PUSH1 0x40 DUP7 ADD CALLDATALOAD SWAP2 POP DUP1 DUP3 GT ISZERO PUSH2 0xD3D JUMPI PUSH0 DUP1 REVERT JUMPDEST POP PUSH2 0xD4A DUP7 DUP3 DUP8 ADD PUSH2 0xC04 JUMP JUMPDEST SWAP2 POP POP SWAP3 POP SWAP3 POP SWAP3 JUMP JUMPDEST PUSH0 DUP2 MLOAD DUP1 DUP5 MSTORE PUSH0 JUMPDEST DUP2 DUP2 LT ISZERO PUSH2 0xD78 JUMPI PUSH1 0x20 DUP2 DUP6 ADD DUP2 ADD MLOAD DUP7 DUP4 ADD DUP3 ADD MSTORE ADD PUSH2 0xD5C JUMP JUMPDEST POP PUSH0 PUSH1 0x20 DUP3 DUP7 ADD ADD MSTORE PUSH1 0x20 PUSH1 0x1F NOT PUSH1 0x1F DUP4 ADD AND DUP6 ADD ADD SWAP2 POP POP SWAP3 SWAP2 POP POP JUMP JUMPDEST DUP8 DUP2 MSTORE PUSH1 0x1 PUSH1 0x1 PUSH1 0xA0 SHL SUB DUP8 AND PUSH1 0x20 DUP3 ADD MSTORE PUSH1 0xE0 PUSH1 0x40 DUP3 ADD DUP2 SWAP1 MSTORE PUSH0 SWAP1 PUSH2 0xDC0 SWAP1 DUP4 ADD DUP9 PUSH2 0xD54 JUMP JUMPDEST SWAP1 POP DUP6 PUSH1 0x60 DUP4 ADD MSTORE DUP5 PUSH1 0x80 DUP4 ADD MSTORE DUP4 PUSH1 0xA0 DUP4 ADD MSTORE DUP3 PUSH1 0xC0 DUP4 ADD MSTORE SWAP9 SWAP8 POP POP POP POP POP POP POP POP JUMP JUMPDEST PUSH1 0x20 DUP2 MSTORE PUSH0 PUSH2 0xB6F PUSH1 0x20 DUP4 ADD DUP5 PUSH2 0xD54 JUMP JUMPDEST PUSH0 PUSH1 0x20 DUP3 DUP5 SUB SLT ISZERO PUSH2 0xE08 JUMPI PUSH0 DUP1 REVERT JUMPDEST POP CALLDATALOAD SWAP2 SWAP1 POP JUMP JUMPDEST PUSH0 DUP1 PUSH0 PUSH1 0x60 DUP5 DUP7 SUB SLT ISZERO PUSH2 0xE21 JUMPI PUSH0 DUP1 REVERT JUMPDEST DUP4 CALLDATALOAD PUSH1 0x1 PUSH1 0x1 PUSH1 0x40 SHL SUB DUP2 GT ISZERO PUSH2 0xE36 JUMPI PUSH0 DUP1 REVERT JUMPDEST PUSH2 0xE42 DUP7 DUP3 DUP8 ADD PUSH2 0xA8D JUMP JUMPDEST SWAP4 POP POP PUSH1 0x20 DUP5 ADD CALLDATALOAD SWAP2 POP PUSH2 0xE58 PUSH1 0x40 DUP6 ADD PUSH2 0xB3B JUMP JUMPDEST SWAP1 POP SWAP3 POP SWAP3 POP SWAP3 JUMP JUMPDEST PUSH1 0x1 PUSH1 0x1 PUSH1 0xA0 SHL SUB DUP10 AND DUP2 MSTORE PUSH2 0x100 PUSH1 0x20 DUP3 ADD DUP2 SWAP1 MSTORE PUSH0 SWAP1 PUSH2 0xE85 DUP4 DUP3 ADD DUP12 PUSH2 0xD54 JUMP JUMPDEST PUSH1 0x40 DUP5 ADD SWAP10 SWAP1 SWAP10 MSTORE POP POP SWAP5 ISZERO ISZERO PUSH1 0x60 DUP7 ADD MSTORE PUSH1 0x80 DUP6 ADD SWAP4 SWAP1 SWAP4 MSTORE PUSH1 0xA0 DUP5 ADD SWAP2 SWAP1 SWAP2 MSTORE ISZERO ISZERO PUSH1 0xC0 DUP4 ADD MSTORE PUSH1 0xE0 SWAP1 SWAP2 ADD MSTORE SWAP3 SWAP2 POP POP JUMP JUMPDEST PUSH4 0x4E487B71 PUSH1 0xE0 SHL PUSH0 MSTORE PUSH1 0x32 PUSH1 0x4 MSTORE PUSH1 0x24 PUSH0 REVERT JUMPDEST PUSH1 0x1 PUSH1 0x1 PUSH1 0xA0 SHL SUB DUP4 AND DUP2 MSTORE PUSH1 0x40 PUSH1 0x20 DUP3 ADD DUP2 SWAP1 MSTORE PUSH0 SWAP1 PUSH2 0xEF1 SWAP1 DUP4 ADD DUP5 PUSH2 0xD54 JUMP JUMPDEST SWAP5 SWAP4 POP POP POP POP JUMP JUMPDEST PUSH1 0x1 DUP2 DUP2 SHR SWAP1 DUP3 AND DUP1 PUSH2 0xF0D JUMPI PUSH1 0x7F DUP3 AND SWAP2 POP JUMPDEST PUSH1 0x20 DUP3 LT DUP2 SUB PUSH2 0xF2B JUMPI PUSH4 0x4E487B71 PUSH1 0xE0 SHL PUSH0 MSTORE PUSH1 0x22 PUSH1 0x4 MSTORE PUSH1 0x24 PUSH0 REVERT JUMPDEST POP SWAP2 SWAP1 POP JUMP JUMPDEST PUSH4 0x4E487B71 PUSH1 0xE0 SHL PUSH0 MSTORE PUSH1 0x11 PUSH1 0x4 MSTORE PUSH1 0x24 PUSH0 REVERT JUMPDEST PUSH0 PUSH1 0x1 DUP3 ADD PUSH2 0xF56 JUMPI PUSH2 0xF56 PUSH2 0xF31 JUMP JUMPDEST POP PUSH1 0x1 ADD SWAP1 JUMP JUMPDEST PUSH0 DUP3 PUSH2 0xF77 JUMPI PUSH4 0x4E487B71 PUSH1 0xE0 SHL PUSH0 MSTORE PUSH1 0x12 PUSH1 0x4 MSTORE PUSH1 0x24 PUSH0 REVERT JUMPDEST POP DIV SWAP1 JUMP JUMPDEST DUP2 DUP2 SUB DUP2 DUP2 GT ISZERO PUSH2 0xF8F JUMPI PUSH2 0xF8F PUSH2 0xF31 JUMP JUMPDEST SWAP3 SWAP2 POP POP JUMP JUMPDEST PUSH1 0x1F DUP3 GT ISZERO PUSH2 0x6BD JUMPI DUP1 PUSH0 MSTORE PUSH1 0x20 PUSH0 KECCAK256 PUSH1 0x1F DUP5 ADD PUSH1 0x5 SHR DUP2 ADD PUSH1 0x20 DUP6 LT ISZERO PUSH2 0xFBA JUMPI POP DUP1 JUMPDEST PUSH1 0x1F DUP5 ADD PUSH1 0x5 SHR DUP3 ADD SWAP2 POP JUMPDEST DUP2 DUP2 LT ISZERO PUSH2 0xFD9 JUMPI PUSH0 DUP2 SSTORE PUSH1 0x1 ADD PUSH2 0xFC6 JUMP JUMPDEST POP POP POP POP POP JUMP JUMPDEST DUP2 MLOAD PUSH1 0x1 PUSH1 0x1 PUSH1 0x40 SHL SUB DUP2 GT ISZERO PUSH2 0xFF9 JUMPI PUSH2 0xFF9 PUSH2 0xA49 JUMP JUMPDEST PUSH2 0x100D DUP2 PUSH2 0x1007 DUP5 SLOAD PUSH2 0xEF9 JUMP JUMPDEST DUP5 PUSH2 0xF95 JUMP JUMPDEST PUSH1 0x20 DUP1 PUSH1 0x1F DUP4 GT PUSH1 0x1 DUP2 EQ PUSH2 0x1040 JUMPI PUSH0 DUP5 ISZERO PUSH2 0x1029 JUMPI POP DUP6 DUP4 ADD MLOAD JUMPDEST PUSH0 NOT PUSH1 0x3 DUP7 SWAP1 SHL SHR NOT AND PUSH1 0x1 DUP6 SWAP1 SHL OR DUP6 SSTORE PUSH2 0x1097 JUMP JUMPDEST PUSH0 DUP6 DUP2 MSTORE PUSH1 0x20 DUP2 KECCAK256 PUSH1 0x1F NOT DUP7 AND SWAP2 JUMPDEST DUP3 DUP2 LT ISZERO PUSH2 0x106E JUMPI DUP9 DUP7 ADD MLOAD DUP3 SSTORE SWAP5 DUP5 ADD SWAP5 PUSH1 0x1 SWAP1 SWAP2 ADD SWAP1 DUP5 ADD PUSH2 0x104F JUMP JUMPDEST POP DUP6 DUP3 LT ISZERO PUSH2 0x108B JUMPI DUP8 DUP6 ADD MLOAD PUSH0 NOT PUSH1 0x3 DUP9 SWAP1 SHL PUSH1 0xF8 AND SHR NOT AND DUP2 SSTORE JUMPDEST POP POP PUSH1 0x1 DUP5 PUSH1 0x1 SHL ADD DUP6 SSTORE JUMPDEST POP POP POP POP POP POP JUMP INVALID LOG2 PUSH5 0x6970667358 0x22 SLT KECCAK256 0xB5 PUSH26 0x47E8572C22B0E368753CCBFE09B1B3A0C30F5E21E99B42C4A3CE ADD MUL 0x4D CALLDATALOAD PUSH5 0x736F6C6343 STOP ADDMOD OR STOP CALLER PUSH1 0x80 PUSH1 0x40 MSTORE CALLVALUE DUP1 ISZERO PUSH3 0x10 JUMPI PUSH0 DUP1 REVERT JUMPDEST POP PUSH1 0x40 MLOAD PUSH3 0x1AEE CODESIZE SUB DUP1 PUSH3 0x1AEE DUP4 CODECOPY DUP2 ADD PUSH1 0x40 DUP2 SWAP1 MSTORE PUSH3 0x33 SWAP2 PUSH3 0x1AA JUMP JUMPDEST DUP3 DUP3 DUP3 PUSH0 PUSH3 0x43 DUP4 DUP3 PUSH3 0x2B8 JUMP JUMPDEST POP PUSH1 0x1 PUSH3 0x52 DUP3 DUP3 PUSH3 0x2B8 JUMP JUMPDEST POP POP POP PUSH1 0x1 PUSH1 0x1 PUSH1 0xA0 SHL SUB DUP2 AND PUSH3 0x83 JUMPI PUSH1 0x40 MLOAD PUSH4 0x1E4FBDF7 PUSH1 0xE0 SHL DUP2 MSTORE PUSH0 PUSH1 0x4 DUP3 ADD MSTORE PUSH1 0x24 ADD PUSH1 0x40 MLOAD DUP1 SWAP2 SUB SWAP1 REVERT JUMPDEST PUSH3 0x8E DUP2 PUSH3 0x98 JUMP JUMPDEST POP POP POP POP PUSH3 0x384 JUMP JUMPDEST PUSH1 0xB DUP1 SLOAD PUSH1 0x1 PUSH1 0x1 PUSH1 0xA0 SHL SUB DUP4 DUP2 AND PUSH1 0x1 PUSH1 0x1 PUSH1 0xA0 SHL SUB NOT DUP4 AND DUP2 OR SWAP1 SWAP4 SSTORE PUSH1 0x40 MLOAD SWAP2 AND SWAP2 SWAP1 DUP3 SWAP1 PUSH32 0x8BE0079C531659141344CD1FD0A4F28419497F9722A3DAAFE3B4186F6B6457E0 SWAP1 PUSH0 SWAP1 LOG3 POP POP JUMP JUMPDEST PUSH4 0x4E487B71 PUSH1 0xE0 SHL PUSH0 MSTORE PUSH1 0x41 PUSH1 0x4 MSTORE PUSH1 0x24 PUSH0 REVERT JUMPDEST PUSH0 DUP3 PUSH1 0x1F DUP4 ADD SLT PUSH3 0x10D JUMPI PUSH0 DUP1 REVERT JUMPDEST DUP2 MLOAD PUSH1 0x1 PUSH1 0x1 PUSH1 0x40 SHL SUB DUP1 DUP3 GT ISZERO PUSH3 0x12A JUMPI PUSH3 0x12A PUSH3 0xE9 JUMP JUMPDEST PUSH1 0x40 MLOAD PUSH1 0x1F DUP4 ADD PUSH1 0x1F NOT SWAP1 DUP2 AND PUSH1 0x3F ADD AND DUP2 ADD SWAP1 DUP3 DUP3 GT DUP2 DUP4 LT OR ISZERO PUSH3 0x155 JUMPI PUSH3 0x155 PUSH3 0xE9 JUMP JUMPDEST DUP2 PUSH1 0x40 MSTORE DUP4 DUP2 MSTORE PUSH1 0x20 SWAP3 POP DUP7 PUSH1 0x20 DUP6 DUP9 ADD ADD GT ISZERO PUSH3 0x172 JUMPI PUSH0 DUP1 REVERT JUMPDEST PUSH0 SWAP2 POP JUMPDEST DUP4 DUP3 LT ISZERO PUSH3 0x195 JUMPI DUP6 DUP3 ADD DUP4 ADD MLOAD DUP2 DUP4 ADD DUP5 ADD MSTORE SWAP1 DUP3 ADD SWAP1 PUSH3 0x176 JUMP JUMPDEST PUSH0 PUSH1 0x20 DUP6 DUP4 ADD ADD MSTORE DUP1 SWAP5 POP POP POP POP POP SWAP3 SWAP2 POP POP JUMP JUMPDEST PUSH0 DUP1 PUSH0 PUSH1 0x60 DUP5 DUP7 SUB SLT ISZERO PUSH3 0x1BD JUMPI PUSH0 DUP1 REVERT JUMPDEST DUP4 MLOAD PUSH1 0x1 PUSH1 0x1 PUSH1 0xA0 SHL SUB DUP2 AND DUP2 EQ PUSH3 0x1D4 JUMPI PUSH0 DUP1 REVERT JUMPDEST PUSH1 0x20 DUP6 ADD MLOAD SWAP1 SWAP4 POP PUSH1 0x1 PUSH1 0x1 PUSH1 0x40 SHL SUB DUP1 DUP3 GT ISZERO PUSH3 0x1F1 JUMPI PUSH0 DUP1 REVERT JUMPDEST PUSH3 0x1FF DUP8 DUP4 DUP9 ADD PUSH3 0xFD JUMP JUMPDEST SWAP4 POP PUSH1 0x40 DUP7 ADD MLOAD SWAP2 POP DUP1 DUP3 GT ISZERO PUSH3 0x215 JUMPI PUSH0 DUP1 REVERT JUMPDEST POP PUSH3 0x224 DUP7 DUP3 DUP8 ADD PUSH3 0xFD JUMP JUMPDEST SWAP2 POP POP SWAP3 POP SWAP3 POP SWAP3 JUMP JUMPDEST PUSH1 0x1 DUP2 DUP2 SHR SWAP1 DUP3 AND DUP1 PUSH3 0x243 JUMPI PUSH1 0x7F DUP3 AND SWAP2 POP JUMPDEST PUSH1 0x20 DUP3 LT DUP2 SUB PUSH3 0x262 JUMPI PUSH4 0x4E487B71 PUSH1 0xE0 SHL PUSH0 MSTORE PUSH1 0x22 PUSH1 0x4 MSTORE PUSH1 0x24 PUSH0 REVERT JUMPDEST POP SWAP2 SWAP1 POP JUMP JUMPDEST PUSH1 0x1F DUP3 GT ISZERO PUSH3 0x2B3 JUMPI DUP1 PUSH0 MSTORE PUSH1 0x20 PUSH0 KECCAK256 PUSH1 0x1F DUP5 ADD PUSH1 0x5 SHR DUP2 ADD PUSH1 0x20 DUP6 LT ISZERO PUSH3 0x28F JUMPI POP DUP1 JUMPDEST PUSH1 0x1F DUP5 ADD PUSH1 0x5 SHR DUP3 ADD SWAP2 POP JUMPDEST DUP2 DUP2 LT ISZERO PUSH3 0x2B0 JUMPI PUSH0 DUP2 SSTORE PUSH1 0x1 ADD PUSH3 0x29B JUMP JUMPDEST POP POP JUMPDEST POP POP POP JUMP JUMPDEST DUP2 MLOAD PUSH1 0x1 PUSH1 0x1 PUSH1 0x40 SHL SUB DUP2 GT ISZERO PUSH3 0x2D4 JUMPI PUSH3 0x2D4 PUSH3 0xE9 JUMP JUMPDEST PUSH3 0x2EC DUP2 PUSH3 0x2E5 DUP5 SLOAD PUSH3 0x22E JUMP JUMPDEST DUP5 PUSH3 0x268 JUMP JUMPDEST PUSH1 0x20 DUP1 PUSH1 0x1F DUP4 GT PUSH1 0x1 DUP2 EQ PUSH3 0x322 JUMPI PUSH0 DUP5 ISZERO PUSH3 0x30A JUMPI POP DUP6 DUP4 ADD MLOAD JUMPDEST PUSH0 NOT PUSH1 0x3 DUP7 SWAP1 SHL SHR NOT AND PUSH1 0x1 DUP6 SWAP1 SHL OR DUP6 SSTORE PUSH3 0x37C JUMP JUMPDEST PUSH0 DUP6 DUP2 MSTORE PUSH1 0x20 DUP2 KECCAK256 PUSH1 0x1F NOT DUP7 AND SWAP2 JUMPDEST DUP3 DUP2 LT ISZERO PUSH3 0x352 JUMPI DUP9 DUP7 ADD MLOAD DUP3 SSTORE SWAP5 DUP5 ADD SWAP5 PUSH1 0x1 SWAP1 SWAP2 ADD SWAP1 DUP5 ADD PUSH3 0x331 JUMP JUMPDEST POP DUP6 DUP3 LT ISZERO PUSH3 0x370 JUMPI DUP8 DUP6 ADD MLOAD PUSH0 NOT PUSH1 0x3 DUP9 SWAP1 SHL PUSH1 0xF8 AND SHR NOT AND DUP2 SSTORE JUMPDEST POP POP PUSH1 0x1 DUP5 PUSH1 0x1 SHL ADD DUP6 SSTORE JUMPDEST POP POP POP POP POP POP JUMP JUMPDEST PUSH2 0x175C DUP1 PUSH3 0x392 PUSH0 CODECOPY PUSH0 RETURN INVALID PUSH1 0x80 PUSH1 0x40 MSTORE CALLVALUE DUP1 ISZERO PUSH2 0xF JUMPI PUSH0 DUP1 REVERT JUMPDEST POP PUSH1 0x4 CALLDATASIZE LT PUSH2 0xFA JUMPI PUSH0 CALLDATALOAD PUSH1 0xE0 SHR DUP1 PUSH4 0x1FFC9A7 EQ PUSH2 0xFE JUMPI DUP1 PUSH4 0x6FDDE03 EQ PUSH2 0x126 JUMPI DUP1 PUSH4 0x81812FC EQ PUSH2 0x13B JUMPI DUP1 PUSH4 0x95EA7B3 EQ PUSH2 0x15B JUMPI DUP1 PUSH4 0x18160DDD EQ PUSH2 0x170 JUMPI DUP1 PUSH4 0x23B872DD EQ PUSH2 0x182 JUMPI DUP1 PUSH4 0x2F745C59 EQ PUSH2 0x195 JUMPI DUP1 PUSH4 0x42842E0E EQ PUSH2 0x1A8 JUMPI DUP1 PUSH4 0x4F6CCCE7 EQ PUSH2 0x1BB JUMPI DUP1 PUSH4 0x6352211E EQ PUSH2 0x1CE JUMPI DUP1 PUSH4 0x70A08231 EQ PUSH2 0x1E1 JUMPI DUP1 PUSH4 0x715018A6 EQ PUSH2 0x1F4 JUMPI DUP1 PUSH4 0x8DA5CB5B EQ PUSH2 0x1FC JUMPI DUP1 PUSH4 0x95D89B41 EQ PUSH2 0x204 JUMPI DUP1 PUSH4 0xA22CB465 EQ PUSH2 0x20C JUMPI DUP1 PUSH4 0xB88D4FDE EQ PUSH2 0x21F JUMPI DUP1 PUSH4 0xC87B56DD EQ PUSH2 0x232 JUMPI DUP1 PUSH4 0xD204C45E EQ PUSH2 0x245 JUMPI DUP1 PUSH4 0xE985E9C5 EQ PUSH2 0x258 JUMPI DUP1 PUSH4 0xF2FDE38B EQ PUSH2 0x26B JUMPI JUMPDEST PUSH0 DUP1 REVERT JUMPDEST PUSH2 0x111 PUSH2 0x10C CALLDATASIZE PUSH1 0x4 PUSH2 0x11E9 JUMP JUMPDEST PUSH2 0x27E JUMP JUMPDEST PUSH1 0x40 MLOAD SWAP1 ISZERO ISZERO DUP2 MSTORE PUSH1 0x20 ADD JUMPDEST PUSH1 0x40 MLOAD DUP1 SWAP2 SUB SWAP1 RETURN JUMPDEST PUSH2 0x12E PUSH2 0x28E JUMP JUMPDEST PUSH1 0x40 MLOAD PUSH2 0x11D SWAP2 SWAP1 PUSH2 0x1251 JUMP JUMPDEST PUSH2 0x14E PUSH2 0x149 CALLDATASIZE PUSH1 0x4 PUSH2 0x1263 JUMP JUMPDEST PUSH2 0x31D JUMP JUMPDEST PUSH1 0x40 MLOAD PUSH2 0x11D SWAP2 SWAP1 PUSH2 0x127A JUMP JUMPDEST PUSH2 0x16E PUSH2 0x169 CALLDATASIZE PUSH1 0x4 PUSH2 0x12A9 JUMP JUMPDEST PUSH2 0x331 JUMP JUMPDEST STOP JUMPDEST PUSH1 0x8 SLOAD JUMPDEST PUSH1 0x40 MLOAD SWAP1 DUP2 MSTORE PUSH1 0x20 ADD PUSH2 0x11D JUMP JUMPDEST PUSH2 0x16E PUSH2 0x190 CALLDATASIZE PUSH1 0x4 PUSH2 0x12D1 JUMP JUMPDEST PUSH2 0x340 JUMP JUMPDEST PUSH2 0x174 PUSH2 0x1A3 CALLDATASIZE PUSH1 0x4 PUSH2 0x12A9 JUMP JUMPDEST PUSH2 0x3D2 JUMP JUMPDEST PUSH2 0x16E PUSH2 0x1B6 CALLDATASIZE PUSH1 0x4 PUSH2 0x12D1 JUMP JUMPDEST PUSH2 0x427 JUMP JUMPDEST PUSH2 0x174 PUSH2 0x1C9 CALLDATASIZE PUSH1 0x4 PUSH2 0x1263 JUMP JUMPDEST PUSH2 0x446 JUMP JUMPDEST PUSH2 0x14E PUSH2 0x1DC CALLDATASIZE PUSH1 0x4 PUSH2 0x1263 JUMP JUMPDEST PUSH2 0x496 JUMP JUMPDEST PUSH2 0x174 PUSH2 0x1EF CALLDATASIZE PUSH1 0x4 PUSH2 0x130A JUMP JUMPDEST PUSH2 0x4A0 JUMP JUMPDEST PUSH2 0x16E PUSH2 0x4E5 JUMP JUMPDEST PUSH2 0x14E PUSH2 0x4F8 JUMP JUMPDEST PUSH2 0x12E PUSH2 0x507 JUMP JUMPDEST PUSH2 0x16E PUSH2 0x21A CALLDATASIZE PUSH1 0x4 PUSH2 0x1323 JUMP JUMPDEST PUSH2 0x516 JUMP JUMPDEST PUSH2 0x16E PUSH2 0x22D CALLDATASIZE PUSH1 0x4 PUSH2 0x13E2 JUMP JUMPDEST PUSH2 0x521 JUMP JUMPDEST PUSH2 0x12E PUSH2 0x240 CALLDATASIZE PUSH1 0x4 PUSH2 0x1263 JUMP JUMPDEST PUSH2 0x538 JUMP JUMPDEST PUSH2 0x16E PUSH2 0x253 CALLDATASIZE PUSH1 0x4 PUSH2 0x1458 JUMP JUMPDEST PUSH2 0x543 JUMP JUMPDEST PUSH2 0x111 PUSH2 0x266 CALLDATASIZE PUSH1 0x4 PUSH2 0x14B5 JUMP JUMPDEST PUSH2 0x575 JUMP JUMPDEST PUSH2 0x16E PUSH2 0x279 CALLDATASIZE PUSH1 0x4 PUSH2 0x130A JUMP JUMPDEST PUSH2 0x5A2 JUMP JUMPDEST PUSH0 PUSH2 0x288 DUP3 PUSH2 0x5DF JUMP JUMPDEST SWAP3 SWAP2 POP POP JUMP JUMPDEST PUSH1 0x60 PUSH0 DUP1 SLOAD PUSH2 0x29C SWAP1 PUSH2 0x14E6 JUMP JUMPDEST DUP1 PUSH1 0x1F ADD PUSH1 0x20 DUP1 SWAP2 DIV MUL PUSH1 0x20 ADD PUSH1 0x40 MLOAD SWAP1 DUP2 ADD PUSH1 0x40 MSTORE DUP1 SWAP3 SWAP2 SWAP1 DUP2 DUP2 MSTORE PUSH1 0x20 ADD DUP3 DUP1 SLOAD PUSH2 0x2C8 SWAP1 PUSH2 0x14E6 JUMP JUMPDEST DUP1 ISZERO PUSH2 0x313 JUMPI DUP1 PUSH1 0x1F LT PUSH2 0x2EA JUMPI PUSH2 0x100 DUP1 DUP4 SLOAD DIV MUL DUP4 MSTORE SWAP2 PUSH1 0x20 ADD SWAP2 PUSH2 0x313 JUMP JUMPDEST DUP3 ADD SWAP2 SWAP1 PUSH0 MSTORE PUSH1 0x20 PUSH0 KECCAK256 SWAP1 JUMPDEST DUP2 SLOAD DUP2 MSTORE SWAP1 PUSH1 0x1 ADD SWAP1 PUSH1 0x20 ADD DUP1 DUP4 GT PUSH2 0x2F6 JUMPI DUP3 SWAP1 SUB PUSH1 0x1F AND DUP3 ADD SWAP2 JUMPDEST POP POP POP POP POP SWAP1 POP SWAP1 JUMP JUMPDEST PUSH0 PUSH2 0x327 DUP3 PUSH2 0x603 JUMP JUMPDEST POP PUSH2 0x288 DUP3 PUSH2 0x63A JUMP JUMPDEST PUSH2 0x33C DUP3 DUP3 CALLER PUSH2 0x654 JUMP JUMPDEST POP POP JUMP JUMPDEST PUSH1 0x1 PUSH1 0x1 PUSH1 0xA0 SHL SUB DUP3 AND PUSH2 0x372 JUMPI PUSH0 PUSH1 0x40 MLOAD PUSH4 0x32505749 PUSH1 0xE1 SHL DUP2 MSTORE PUSH1 0x4 ADD PUSH2 0x369 SWAP2 SWAP1 PUSH2 0x127A JUMP JUMPDEST PUSH1 0x40 MLOAD DUP1 SWAP2 SUB SWAP1 REVERT JUMPDEST PUSH0 PUSH2 0x37E DUP4 DUP4 CALLER PUSH2 0x661 JUMP JUMPDEST SWAP1 POP DUP4 PUSH1 0x1 PUSH1 0x1 PUSH1 0xA0 SHL SUB AND DUP2 PUSH1 0x1 PUSH1 0x1 PUSH1 0xA0 SHL SUB AND EQ PUSH2 0x3CC JUMPI PUSH1 0x40 MLOAD PUSH4 0x64283D7B PUSH1 0xE0 SHL DUP2 MSTORE PUSH1 0x1 PUSH1 0x1 PUSH1 0xA0 SHL SUB DUP1 DUP7 AND PUSH1 0x4 DUP4 ADD MSTORE PUSH1 0x24 DUP3 ADD DUP5 SWAP1 MSTORE DUP3 AND PUSH1 0x44 DUP3 ADD MSTORE PUSH1 0x64 ADD PUSH2 0x369 JUMP JUMPDEST POP POP POP POP JUMP JUMPDEST PUSH0 PUSH2 0x3DC DUP4 PUSH2 0x4A0 JUMP JUMPDEST DUP3 LT PUSH2 0x3FF JUMPI DUP3 DUP3 PUSH1 0x40 MLOAD PUSH4 0x295F44F7 PUSH1 0xE2 SHL DUP2 MSTORE PUSH1 0x4 ADD PUSH2 0x369 SWAP3 SWAP2 SWAP1 PUSH2 0x151E JUMP JUMPDEST POP PUSH1 0x1 PUSH1 0x1 PUSH1 0xA0 SHL SUB SWAP2 SWAP1 SWAP2 AND PUSH0 SWAP1 DUP2 MSTORE PUSH1 0x6 PUSH1 0x20 SWAP1 DUP2 MSTORE PUSH1 0x40 DUP1 DUP4 KECCAK256 SWAP4 DUP4 MSTORE SWAP3 SWAP1 MSTORE KECCAK256 SLOAD SWAP1 JUMP JUMPDEST PUSH2 0x441 DUP4 DUP4 DUP4 PUSH1 0x40 MLOAD DUP1 PUSH1 0x20 ADD PUSH1 0x40 MSTORE DUP1 PUSH0 DUP2 MSTORE POP PUSH2 0x521 JUMP JUMPDEST POP POP POP JUMP JUMPDEST PUSH0 PUSH2 0x450 PUSH1 0x8 SLOAD SWAP1 JUMP JUMPDEST DUP3 LT PUSH2 0x473 JUMPI PUSH0 DUP3 PUSH1 0x40 MLOAD PUSH4 0x295F44F7 PUSH1 0xE2 SHL DUP2 MSTORE PUSH1 0x4 ADD PUSH2 0x369 SWAP3 SWAP2 SWAP1 PUSH2 0x151E JUMP JUMPDEST PUSH1 0x8 DUP3 DUP2 SLOAD DUP2 LT PUSH2 0x486 JUMPI PUSH2 0x486 PUSH2 0x1537 JUMP JUMPDEST SWAP1 PUSH0 MSTORE PUSH1 0x20 PUSH0 KECCAK256 ADD SLOAD SWAP1 POP SWAP2 SWAP1 POP JUMP JUMPDEST PUSH0 PUSH2 0x288 DUP3 PUSH2 0x603 JUMP JUMPDEST PUSH0 PUSH1 0x1 PUSH1 0x1 PUSH1 0xA0 SHL SUB DUP3 AND PUSH2 0x4CA JUMPI PUSH0 PUSH1 0x40 MLOAD PUSH4 0x22718AD9 PUSH1 0xE2 SHL DUP2 MSTORE PUSH1 0x4 ADD PUSH2 0x369 SWAP2 SWAP1 PUSH2 0x127A JUMP JUMPDEST POP PUSH1 0x1 PUSH1 0x1 PUSH1 0xA0 SHL SUB AND PUSH0 SWAP1 DUP2 MSTORE PUSH1 0x3 PUSH1 0x20 MSTORE PUSH1 0x40 SWAP1 KECCAK256 SLOAD SWAP1 JUMP JUMPDEST PUSH2 0x4ED PUSH2 0x675 JUMP JUMPDEST PUSH2 0x4F6 PUSH0 PUSH2 0x6A7 JUMP JUMPDEST JUMP JUMPDEST PUSH1 0xB SLOAD PUSH1 0x1 PUSH1 0x1 PUSH1 0xA0 SHL SUB AND SWAP1 JUMP JUMPDEST PUSH1 0x60 PUSH1 0x1 DUP1 SLOAD PUSH2 0x29C SWAP1 PUSH2 0x14E6 JUMP JUMPDEST PUSH2 0x33C CALLER DUP4 DUP4 PUSH2 0x6F8 JUMP JUMPDEST PUSH2 0x52C DUP5 DUP5 DUP5 PUSH2 0x340 JUMP JUMPDEST PUSH2 0x3CC DUP5 DUP5 DUP5 DUP5 PUSH2 0x78D JUMP JUMPDEST PUSH1 0x60 PUSH2 0x288 DUP3 PUSH2 0x8A1 JUMP JUMPDEST PUSH2 0x54B PUSH2 0x675 JUMP JUMPDEST PUSH1 0xC DUP1 SLOAD PUSH0 SWAP2 DUP3 PUSH2 0x55B DUP4 PUSH2 0x155F JUMP JUMPDEST SWAP2 SWAP1 POP SSTORE SWAP1 POP PUSH2 0x56B DUP4 DUP3 PUSH2 0x9A4 JUMP JUMPDEST PUSH2 0x441 DUP2 DUP4 PUSH2 0x9BD JUMP JUMPDEST PUSH1 0x1 PUSH1 0x1 PUSH1 0xA0 SHL SUB SWAP2 DUP3 AND PUSH0 SWAP1 DUP2 MSTORE PUSH1 0x5 PUSH1 0x20 SWAP1 DUP2 MSTORE PUSH1 0x40 DUP1 DUP4 KECCAK256 SWAP4 SWAP1 SWAP5 AND DUP3 MSTORE SWAP2 SWAP1 SWAP2 MSTORE KECCAK256 SLOAD PUSH1 0xFF AND SWAP1 JUMP JUMPDEST PUSH2 0x5AA PUSH2 0x675 JUMP JUMPDEST PUSH1 0x1 PUSH1 0x1 PUSH1 0xA0 SHL SUB DUP2 AND PUSH2 0x5D3 JUMPI PUSH0 PUSH1 0x40 MLOAD PUSH4 0x1E4FBDF7 PUSH1 0xE0 SHL DUP2 MSTORE PUSH1 0x4 ADD PUSH2 0x369 SWAP2 SWAP1 PUSH2 0x127A JUMP JUMPDEST PUSH2 0x5DC DUP2 PUSH2 0x6A7 JUMP JUMPDEST POP JUMP JUMPDEST PUSH0 PUSH1 0x1 PUSH1 0x1 PUSH1 0xE0 SHL SUB NOT DUP3 AND PUSH4 0x24832483 PUSH1 0xE1 SHL EQ DUP1 PUSH2 0x288 JUMPI POP PUSH2 0x288 DUP3 PUSH2 0xA0C JUMP JUMPDEST PUSH0 DUP1 PUSH2 0x60E DUP4 PUSH2 0xA30 JUMP JUMPDEST SWAP1 POP PUSH1 0x1 PUSH1 0x1 PUSH1 0xA0 SHL SUB DUP2 AND PUSH2 0x288 JUMPI PUSH1 0x40 MLOAD PUSH4 0x7E273289 PUSH1 0xE0 SHL DUP2 MSTORE PUSH1 0x4 DUP2 ADD DUP5 SWAP1 MSTORE PUSH1 0x24 ADD PUSH2 0x369 JUMP JUMPDEST PUSH0 SWAP1 DUP2 MSTORE PUSH1 0x4 PUSH1 0x20 MSTORE PUSH1 0x40 SWAP1 KECCAK256 SLOAD PUSH1 0x1 PUSH1 0x1 PUSH1 0xA0 SHL SUB AND SWAP1 JUMP JUMPDEST PUSH2 0x441 DUP4 DUP4 DUP4 PUSH1 0x1 PUSH2 0xA4A JUMP JUMPDEST PUSH0 PUSH2 0x66D DUP5 DUP5 DUP5 PUSH2 0xB45 JUMP JUMPDEST SWAP5 SWAP4 POP POP POP POP JUMP JUMPDEST CALLER PUSH2 0x67E PUSH2 0x4F8 JUMP JUMPDEST PUSH1 0x1 PUSH1 0x1 PUSH1 0xA0 SHL SUB AND EQ PUSH2 0x4F6 JUMPI CALLER PUSH1 0x40 MLOAD PUSH4 0x118CDAA7 PUSH1 0xE0 SHL DUP2 MSTORE PUSH1 0x4 ADD PUSH2 0x369 SWAP2 SWAP1 PUSH2 0x127A JUMP JUMPDEST PUSH1 0xB DUP1 SLOAD PUSH1 0x1 PUSH1 0x1 PUSH1 0xA0 SHL SUB DUP4 DUP2 AND PUSH1 0x1 PUSH1 0x1 PUSH1 0xA0 SHL SUB NOT DUP4 AND DUP2 OR SWAP1 SWAP4 SSTORE PUSH1 0x40 MLOAD SWAP2 AND SWAP2 SWAP1 DUP3 SWAP1 PUSH32 0x8BE0079C531659141344CD1FD0A4F28419497F9722A3DAAFE3B4186F6B6457E0 SWAP1 PUSH0 SWAP1 LOG3 POP POP JUMP JUMPDEST PUSH1 0x1 PUSH1 0x1 PUSH1 0xA0 SHL SUB DUP3 AND PUSH2 0x721 JUMPI DUP2 PUSH1 0x40 MLOAD PUSH4 0xB611743 PUSH1 0xE3 SHL DUP2 MSTORE PUSH1 0x4 ADD PUSH2 0x369 SWAP2 SWAP1 PUSH2 0x127A JUMP JUMPDEST PUSH1 0x1 PUSH1 0x1 PUSH1 0xA0 SHL SUB DUP4 DUP2 AND PUSH0 DUP2 DUP2 MSTORE PUSH1 0x5 PUSH1 0x20 SWAP1 DUP2 MSTORE PUSH1 0x40 DUP1 DUP4 KECCAK256 SWAP5 DUP8 AND DUP1 DUP5 MSTORE SWAP5 DUP3 MSTORE SWAP2 DUP3 SWAP1 KECCAK256 DUP1 SLOAD PUSH1 0xFF NOT AND DUP7 ISZERO ISZERO SWAP1 DUP2 OR SWAP1 SWAP2 SSTORE SWAP2 MLOAD SWAP2 DUP3 MSTORE PUSH32 0x17307EAB39AB6107E8899845AD3D59BD9653F200F220920489CA2B5937696C31 SWAP2 ADD PUSH1 0x40 MLOAD DUP1 SWAP2 SUB SWAP1 LOG3 POP POP POP JUMP JUMPDEST PUSH1 0x1 PUSH1 0x1 PUSH1 0xA0 SHL SUB DUP4 AND EXTCODESIZE ISZERO PUSH2 0x3CC JUMPI PUSH1 0x40 MLOAD PUSH4 0xA85BD01 PUSH1 0xE1 SHL DUP2 MSTORE PUSH1 0x1 PUSH1 0x1 PUSH1 0xA0 SHL SUB DUP5 AND SWAP1 PUSH4 0x150B7A02 SWAP1 PUSH2 0x7CF SWAP1 CALLER SWAP1 DUP9 SWAP1 DUP8 SWAP1 DUP8 SWAP1 PUSH1 0x4 ADD PUSH2 0x1577 JUMP JUMPDEST PUSH1 0x20 PUSH1 0x40 MLOAD DUP1 DUP4 SUB DUP2 PUSH0 DUP8 GAS CALL SWAP3 POP POP POP DUP1 ISZERO PUSH2 0x809 JUMPI POP PUSH1 0x40 DUP1 MLOAD PUSH1 0x1F RETURNDATASIZE SWAP1 DUP2 ADD PUSH1 0x1F NOT AND DUP3 ADD SWAP1 SWAP3 MSTORE PUSH2 0x806 SWAP2 DUP2 ADD SWAP1 PUSH2 0x15B3 JUMP JUMPDEST PUSH1 0x1 JUMPDEST PUSH2 0x867 JUMPI RETURNDATASIZE DUP1 DUP1 ISZERO PUSH2 0x836 JUMPI PUSH1 0x40 MLOAD SWAP2 POP PUSH1 0x1F NOT PUSH1 0x3F RETURNDATASIZE ADD AND DUP3 ADD PUSH1 0x40 MSTORE RETURNDATASIZE DUP3 MSTORE RETURNDATASIZE PUSH0 PUSH1 0x20 DUP5 ADD RETURNDATACOPY PUSH2 0x83B JUMP JUMPDEST PUSH1 0x60 SWAP2 POP JUMPDEST POP DUP1 MLOAD PUSH0 SUB PUSH2 0x85F JUMPI DUP4 PUSH1 0x40 MLOAD PUSH4 0x32505749 PUSH1 0xE1 SHL DUP2 MSTORE PUSH1 0x4 ADD PUSH2 0x369 SWAP2 SWAP1 PUSH2 0x127A JUMP JUMPDEST DUP1 MLOAD DUP2 PUSH1 0x20 ADD REVERT JUMPDEST PUSH1 0x1 PUSH1 0x1 PUSH1 0xE0 SHL SUB NOT DUP2 AND PUSH4 0xA85BD01 PUSH1 0xE1 SHL EQ PUSH2 0x89A JUMPI DUP4 PUSH1 0x40 MLOAD PUSH4 0x32505749 PUSH1 0xE1 SHL DUP2 MSTORE PUSH1 0x4 ADD PUSH2 0x369 SWAP2 SWAP1 PUSH2 0x127A JUMP JUMPDEST POP POP POP POP POP JUMP JUMPDEST PUSH1 0x60 PUSH2 0x8AC DUP3 PUSH2 0x603 JUMP JUMPDEST POP PUSH0 DUP3 DUP2 MSTORE PUSH1 0xA PUSH1 0x20 MSTORE PUSH1 0x40 DUP2 KECCAK256 DUP1 SLOAD PUSH2 0x8C5 SWAP1 PUSH2 0x14E6 JUMP JUMPDEST DUP1 PUSH1 0x1F ADD PUSH1 0x20 DUP1 SWAP2 DIV MUL PUSH1 0x20 ADD PUSH1 0x40 MLOAD SWAP1 DUP2 ADD PUSH1 0x40 MSTORE DUP1 SWAP3 SWAP2 SWAP1 DUP2 DUP2 MSTORE PUSH1 0x20 ADD DUP3 DUP1 SLOAD PUSH2 0x8F1 SWAP1 PUSH2 0x14E6 JUMP JUMPDEST DUP1 ISZERO PUSH2 0x93C JUMPI DUP1 PUSH1 0x1F LT PUSH2 0x913 JUMPI PUSH2 0x100 DUP1 DUP4 SLOAD DIV MUL DUP4 MSTORE SWAP2 PUSH1 0x20 ADD SWAP2 PUSH2 0x93C JUMP JUMPDEST DUP3 ADD SWAP2 SWAP1 PUSH0 MSTORE PUSH1 0x20 PUSH0 KECCAK256 SWAP1 JUMPDEST DUP2 SLOAD DUP2 MSTORE SWAP1 PUSH1 0x1 ADD SWAP1 PUSH1 0x20 ADD DUP1 DUP4 GT PUSH2 0x91F JUMPI DUP3 SWAP1 SUB PUSH1 0x1F AND DUP3 ADD SWAP2 JUMPDEST POP POP POP POP POP SWAP1 POP PUSH0 PUSH2 0x958 PUSH1 0x40 DUP1 MLOAD PUSH1 0x20 DUP2 ADD SWAP1 SWAP2 MSTORE PUSH0 DUP2 MSTORE SWAP1 JUMP JUMPDEST SWAP1 POP DUP1 MLOAD PUSH0 SUB PUSH2 0x969 JUMPI POP SWAP3 SWAP2 POP POP JUMP JUMPDEST DUP2 MLOAD ISZERO PUSH2 0x99B JUMPI DUP1 DUP3 PUSH1 0x40 MLOAD PUSH1 0x20 ADD PUSH2 0x983 SWAP3 SWAP2 SWAP1 PUSH2 0x15CE JUMP JUMPDEST PUSH1 0x40 MLOAD PUSH1 0x20 DUP2 DUP4 SUB SUB DUP2 MSTORE SWAP1 PUSH1 0x40 MSTORE SWAP3 POP POP POP SWAP2 SWAP1 POP JUMP JUMPDEST PUSH2 0x66D DUP5 PUSH2 0xC10 JUMP JUMPDEST PUSH2 0x33C DUP3 DUP3 PUSH1 0x40 MLOAD DUP1 PUSH1 0x20 ADD PUSH1 0x40 MSTORE DUP1 PUSH0 DUP2 MSTORE POP PUSH2 0xC81 JUMP JUMPDEST PUSH0 DUP3 DUP2 MSTORE PUSH1 0xA PUSH1 0x20 MSTORE PUSH1 0x40 SWAP1 KECCAK256 PUSH2 0x9D4 DUP3 DUP3 PUSH2 0x1640 JUMP JUMPDEST POP PUSH1 0x40 MLOAD DUP3 DUP2 MSTORE PUSH32 0xF8E1A15ABA9398E019F0B49DF1A4FDE98EE17AE345CB5F6B5E2C27F5033E8CE7 SWAP1 PUSH1 0x20 ADD PUSH1 0x40 MLOAD DUP1 SWAP2 SUB SWAP1 LOG1 POP POP JUMP JUMPDEST PUSH0 PUSH1 0x1 PUSH1 0x1 PUSH1 0xE0 SHL SUB NOT DUP3 AND PUSH4 0x780E9D63 PUSH1 0xE0 SHL EQ DUP1 PUSH2 0x288 JUMPI POP PUSH2 0x288 DUP3 PUSH2 0xC97 JUMP JUMPDEST PUSH0 SWAP1 DUP2 MSTORE PUSH1 0x2 PUSH1 0x20 MSTORE PUSH1 0x40 SWAP1 KECCAK256 SLOAD PUSH1 0x1 PUSH1 0x1 PUSH1 0xA0 SHL SUB AND SWAP1 JUMP JUMPDEST DUP1 DUP1 PUSH2 0xA5E JUMPI POP PUSH1 0x1 PUSH1 0x1 PUSH1 0xA0 SHL SUB DUP3 AND ISZERO ISZERO JUMPDEST ISZERO PUSH2 0xB16 JUMPI PUSH0 PUSH2 0xA6D DUP5 PUSH2 0x603 JUMP JUMPDEST SWAP1 POP PUSH1 0x1 PUSH1 0x1 PUSH1 0xA0 SHL SUB DUP4 AND ISZERO DUP1 ISZERO SWAP1 PUSH2 0xA99 JUMPI POP DUP3 PUSH1 0x1 PUSH1 0x1 PUSH1 0xA0 SHL SUB AND DUP2 PUSH1 0x1 PUSH1 0x1 PUSH1 0xA0 SHL SUB AND EQ ISZERO JUMPDEST DUP1 ISZERO PUSH2 0xAAC JUMPI POP PUSH2 0xAAA DUP2 DUP5 PUSH2 0x575 JUMP JUMPDEST ISZERO JUMPDEST ISZERO PUSH2 0xACC JUMPI DUP3 PUSH1 0x40 MLOAD PUSH4 0xA9FBF51F PUSH1 0xE0 SHL DUP2 MSTORE PUSH1 0x4 ADD PUSH2 0x369 SWAP2 SWAP1 PUSH2 0x127A JUMP JUMPDEST DUP2 ISZERO PUSH2 0xB14 JUMPI DUP4 DUP6 PUSH1 0x1 PUSH1 0x1 PUSH1 0xA0 SHL SUB AND DUP3 PUSH1 0x1 PUSH1 0x1 PUSH1 0xA0 SHL SUB AND PUSH32 0x8C5BE1E5EBEC7D5BD14F71427D1E84F3DD0314C0F7B2291E5B200AC8C7C3B925 PUSH1 0x40 MLOAD PUSH1 0x40 MLOAD DUP1 SWAP2 SUB SWAP1 LOG4 JUMPDEST POP JUMPDEST POP POP PUSH0 SWAP1 DUP2 MSTORE PUSH1 0x4 PUSH1 0x20 MSTORE PUSH1 0x40 SWAP1 KECCAK256 DUP1 SLOAD PUSH1 0x1 PUSH1 0x1 PUSH1 0xA0 SHL SUB NOT AND PUSH1 0x1 PUSH1 0x1 PUSH1 0xA0 SHL SUB SWAP3 SWAP1 SWAP3 AND SWAP2 SWAP1 SWAP2 OR SWAP1 SSTORE JUMP JUMPDEST PUSH0 DUP1 PUSH2 0xB52 DUP6 DUP6 DUP6 PUSH2 0xCE6 JUMP JUMPDEST SWAP1 POP PUSH1 0x1 PUSH1 0x1 PUSH1 0xA0 SHL SUB DUP2 AND PUSH2 0xBAE JUMPI PUSH2 0xBA9 DUP5 PUSH1 0x8 DUP1 SLOAD PUSH0 DUP4 DUP2 MSTORE PUSH1 0x9 PUSH1 0x20 MSTORE PUSH1 0x40 DUP2 KECCAK256 DUP3 SWAP1 SSTORE PUSH1 0x1 DUP3 ADD DUP4 SSTORE SWAP2 SWAP1 SWAP2 MSTORE PUSH32 0xF3F7A9FE364FAAB93B216DA50A3214154F22A0A2B415B23A84C8169E8B636EE3 ADD SSTORE JUMP JUMPDEST PUSH2 0xBD1 JUMP JUMPDEST DUP5 PUSH1 0x1 PUSH1 0x1 PUSH1 0xA0 SHL SUB AND DUP2 PUSH1 0x1 PUSH1 0x1 PUSH1 0xA0 SHL SUB AND EQ PUSH2 0xBD1 JUMPI PUSH2 0xBD1 DUP2 DUP6 PUSH2 0xDD3 JUMP JUMPDEST PUSH1 0x1 PUSH1 0x1 PUSH1 0xA0 SHL SUB DUP6 AND PUSH2 0xBED JUMPI PUSH2 0xBE8 DUP5 PUSH2 0xE60 JUMP JUMPDEST PUSH2 0x66D JUMP JUMPDEST DUP5 PUSH1 0x1 PUSH1 0x1 PUSH1 0xA0 SHL SUB AND DUP2 PUSH1 0x1 PUSH1 0x1 PUSH1 0xA0 SHL SUB AND EQ PUSH2 0x66D JUMPI PUSH2 0x66D DUP6 DUP6 PUSH2 0xF07 JUMP JUMPDEST PUSH1 0x60 PUSH2 0xC1B DUP3 PUSH2 0x603 JUMP JUMPDEST POP PUSH0 PUSH2 0xC31 PUSH1 0x40 DUP1 MLOAD PUSH1 0x20 DUP2 ADD SWAP1 SWAP2 MSTORE PUSH0 DUP2 MSTORE SWAP1 JUMP JUMPDEST SWAP1 POP PUSH0 DUP2 MLOAD GT PUSH2 0xC4F JUMPI PUSH1 0x40 MLOAD DUP1 PUSH1 0x20 ADD PUSH1 0x40 MSTORE DUP1 PUSH0 DUP2 MSTORE POP PUSH2 0xC7A JUMP JUMPDEST DUP1 PUSH2 0xC59 DUP5 PUSH2 0xF55 JUMP JUMPDEST PUSH1 0x40 MLOAD PUSH1 0x20 ADD PUSH2 0xC6A SWAP3 SWAP2 SWAP1 PUSH2 0x15CE JUMP JUMPDEST PUSH1 0x40 MLOAD PUSH1 0x20 DUP2 DUP4 SUB SUB DUP2 MSTORE SWAP1 PUSH1 0x40 MSTORE JUMPDEST SWAP4 SWAP3 POP POP POP JUMP JUMPDEST PUSH2 0xC8B DUP4 DUP4 PUSH2 0xFE4 JUMP JUMPDEST PUSH2 0x441 PUSH0 DUP5 DUP5 DUP5 PUSH2 0x78D JUMP JUMPDEST PUSH0 PUSH1 0x1 PUSH1 0x1 PUSH1 0xE0 SHL SUB NOT DUP3 AND PUSH4 0x80AC58CD PUSH1 0xE0 SHL EQ DUP1 PUSH2 0xCC7 JUMPI POP PUSH1 0x1 PUSH1 0x1 PUSH1 0xE0 SHL SUB NOT DUP3 AND PUSH4 0x5B5E139F PUSH1 0xE0 SHL EQ JUMPDEST DUP1 PUSH2 0x288 JUMPI POP PUSH4 0x1FFC9A7 PUSH1 0xE0 SHL PUSH1 0x1 PUSH1 0x1 PUSH1 0xE0 SHL SUB NOT DUP4 AND EQ PUSH2 0x288 JUMP JUMPDEST PUSH0 DUP1 PUSH2 0xCF1 DUP5 PUSH2 0xA30 JUMP JUMPDEST SWAP1 POP PUSH1 0x1 PUSH1 0x1 PUSH1 0xA0 SHL SUB DUP4 AND ISZERO PUSH2 0xD0D JUMPI PUSH2 0xD0D DUP2 DUP5 DUP7 PUSH2 0x1045 JUMP JUMPDEST PUSH1 0x1 PUSH1 0x1 PUSH1 0xA0 SHL SUB DUP2 AND ISZERO PUSH2 0xD47 JUMPI PUSH2 0xD28 PUSH0 DUP6 PUSH0 DUP1 PUSH2 0xA4A JUMP JUMPDEST PUSH1 0x1 PUSH1 0x1 PUSH1 0xA0 SHL SUB DUP2 AND PUSH0 SWAP1 DUP2 MSTORE PUSH1 0x3 PUSH1 0x20 MSTORE PUSH1 0x40 SWAP1 KECCAK256 DUP1 SLOAD PUSH0 NOT ADD SWAP1 SSTORE JUMPDEST PUSH1 0x1 PUSH1 0x1 PUSH1 0xA0 SHL SUB DUP6 AND ISZERO PUSH2 0xD75 JUMPI PUSH1 0x1 PUSH1 0x1 PUSH1 0xA0 SHL SUB DUP6 AND PUSH0 SWAP1 DUP2 MSTORE PUSH1 0x3 PUSH1 0x20 MSTORE PUSH1 0x40 SWAP1 KECCAK256 DUP1 SLOAD PUSH1 0x1 ADD SWAP1 SSTORE JUMPDEST PUSH0 DUP5 DUP2 MSTORE PUSH1 0x2 PUSH1 0x20 MSTORE PUSH1 0x40 DUP1 DUP3 KECCAK256 DUP1 SLOAD PUSH1 0x1 PUSH1 0x1 PUSH1 0xA0 SHL SUB NOT AND PUSH1 0x1 PUSH1 0x1 PUSH1 0xA0 SHL SUB DUP10 DUP2 AND SWAP2 DUP3 OR SWAP1 SWAP3 SSTORE SWAP2 MLOAD DUP8 SWAP4 SWAP2 DUP6 AND SWAP2 PUSH32 0xDDF252AD1BE2C89B69C2B068FC378DAA952BA7F163C4A11628F55A4DF523B3EF SWAP2 LOG4 SWAP5 SWAP4 POP POP POP POP JUMP JUMPDEST PUSH0 PUSH2 0xDDD DUP4 PUSH2 0x4A0 JUMP JUMPDEST PUSH0 DUP4 DUP2 MSTORE PUSH1 0x7 PUSH1 0x20 MSTORE PUSH1 0x40 SWAP1 KECCAK256 SLOAD SWAP1 SWAP2 POP DUP1 DUP3 EQ PUSH2 0xE2E JUMPI PUSH1 0x1 PUSH1 0x1 PUSH1 0xA0 SHL SUB DUP5 AND PUSH0 SWAP1 DUP2 MSTORE PUSH1 0x6 PUSH1 0x20 SWAP1 DUP2 MSTORE PUSH1 0x40 DUP1 DUP4 KECCAK256 DUP6 DUP5 MSTORE DUP3 MSTORE DUP1 DUP4 KECCAK256 SLOAD DUP5 DUP5 MSTORE DUP2 DUP5 KECCAK256 DUP2 SWAP1 SSTORE DUP4 MSTORE PUSH1 0x7 SWAP1 SWAP2 MSTORE SWAP1 KECCAK256 DUP2 SWAP1 SSTORE JUMPDEST POP PUSH0 SWAP2 DUP3 MSTORE PUSH1 0x7 PUSH1 0x20 SWAP1 DUP2 MSTORE PUSH1 0x40 DUP1 DUP5 KECCAK256 DUP5 SWAP1 SSTORE PUSH1 0x1 PUSH1 0x1 PUSH1 0xA0 SHL SUB SWAP1 SWAP5 AND DUP4 MSTORE PUSH1 0x6 DUP2 MSTORE DUP4 DUP4 KECCAK256 SWAP2 DUP4 MSTORE MSTORE SWAP1 DUP2 KECCAK256 SSTORE JUMP JUMPDEST PUSH1 0x8 SLOAD PUSH0 SWAP1 PUSH2 0xE71 SWAP1 PUSH1 0x1 SWAP1 PUSH2 0x16FF JUMP JUMPDEST PUSH0 DUP4 DUP2 MSTORE PUSH1 0x9 PUSH1 0x20 MSTORE PUSH1 0x40 DUP2 KECCAK256 SLOAD PUSH1 0x8 DUP1 SLOAD SWAP4 SWAP5 POP SWAP1 SWAP3 DUP5 SWAP1 DUP2 LT PUSH2 0xE98 JUMPI PUSH2 0xE98 PUSH2 0x1537 JUMP JUMPDEST SWAP1 PUSH0 MSTORE PUSH1 0x20 PUSH0 KECCAK256 ADD SLOAD SWAP1 POP DUP1 PUSH1 0x8 DUP4 DUP2 SLOAD DUP2 LT PUSH2 0xEB7 JUMPI PUSH2 0xEB7 PUSH2 0x1537 JUMP JUMPDEST PUSH0 SWAP2 DUP3 MSTORE PUSH1 0x20 DUP1 DUP4 KECCAK256 SWAP1 SWAP2 ADD SWAP3 SWAP1 SWAP3 SSTORE DUP3 DUP2 MSTORE PUSH1 0x9 SWAP1 SWAP2 MSTORE PUSH1 0x40 DUP1 DUP3 KECCAK256 DUP5 SWAP1 SSTORE DUP6 DUP3 MSTORE DUP2 KECCAK256 SSTORE PUSH1 0x8 DUP1 SLOAD DUP1 PUSH2 0xEEE JUMPI PUSH2 0xEEE PUSH2 0x1712 JUMP JUMPDEST PUSH1 0x1 SWAP1 SUB DUP2 DUP2 SWAP1 PUSH0 MSTORE PUSH1 0x20 PUSH0 KECCAK256 ADD PUSH0 SWAP1 SSTORE SWAP1 SSTORE POP POP POP POP JUMP JUMPDEST PUSH0 PUSH1 0x1 PUSH2 0xF13 DUP5 PUSH2 0x4A0 JUMP JUMPDEST PUSH2 0xF1D SWAP2 SWAP1 PUSH2 0x16FF JUMP JUMPDEST PUSH1 0x1 PUSH1 0x1 PUSH1 0xA0 SHL SUB SWAP1 SWAP4 AND PUSH0 SWAP1 DUP2 MSTORE PUSH1 0x6 PUSH1 0x20 SWAP1 DUP2 MSTORE PUSH1 0x40 DUP1 DUP4 KECCAK256 DUP7 DUP5 MSTORE DUP3 MSTORE DUP1 DUP4 KECCAK256 DUP6 SWAP1 SSTORE SWAP4 DUP3 MSTORE PUSH1 0x7 SWAP1 MSTORE SWAP2 SWAP1 SWAP2 KECCAK256 SWAP2 SWAP1 SWAP2 SSTORE POP JUMP JUMPDEST PUSH1 0x60 PUSH0 PUSH2 0xF61 DUP4 PUSH2 0x109B JUMP JUMPDEST PUSH1 0x1 ADD SWAP1 POP PUSH0 DUP2 PUSH1 0x1 PUSH1 0x1 PUSH1 0x40 SHL SUB DUP2 GT ISZERO PUSH2 0xF7F JUMPI PUSH2 0xF7F PUSH2 0x135C JUMP JUMPDEST PUSH1 0x40 MLOAD SWAP1 DUP1 DUP3 MSTORE DUP1 PUSH1 0x1F ADD PUSH1 0x1F NOT AND PUSH1 0x20 ADD DUP3 ADD PUSH1 0x40 MSTORE DUP1 ISZERO PUSH2 0xFA9 JUMPI PUSH1 0x20 DUP3 ADD DUP2 DUP1 CALLDATASIZE DUP4 CALLDATACOPY ADD SWAP1 POP JUMPDEST POP SWAP1 POP DUP2 DUP2 ADD PUSH1 0x20 ADD JUMPDEST PUSH0 NOT ADD PUSH16 0x181899199A1A9B1B9C1CB0B131B232B3 PUSH1 0x81 SHL PUSH1 0xA DUP7 MOD BYTE DUP2 MSTORE8 PUSH1 0xA DUP6 DIV SWAP5 POP DUP5 PUSH2 0xFB3 JUMPI POP SWAP4 SWAP3 POP POP POP JUMP JUMPDEST PUSH1 0x1 PUSH1 0x1 PUSH1 0xA0 SHL SUB DUP3 AND PUSH2 0x100D JUMPI PUSH0 PUSH1 0x40 MLOAD PUSH4 0x32505749 PUSH1 0xE1 SHL DUP2 MSTORE PUSH1 0x4 ADD PUSH2 0x369 SWAP2 SWAP1 PUSH2 0x127A JUMP JUMPDEST PUSH0 PUSH2 0x1019 DUP4 DUP4 PUSH0 PUSH2 0x661 JUMP JUMPDEST SWAP1 POP PUSH1 0x1 PUSH1 0x1 PUSH1 0xA0 SHL SUB DUP2 AND ISZERO PUSH2 0x441 JUMPI PUSH0 PUSH1 0x40 MLOAD PUSH4 0x39E35637 PUSH1 0xE1 SHL DUP2 MSTORE PUSH1 0x4 ADD PUSH2 0x369 SWAP2 SWAP1 PUSH2 0x127A JUMP JUMPDEST PUSH2 0x1050 DUP4 DUP4 DUP4 PUSH2 0x1170 JUMP JUMPDEST PUSH2 0x441 JUMPI PUSH1 0x1 PUSH1 0x1 PUSH1 0xA0 SHL SUB DUP4 AND PUSH2 0x107E JUMPI PUSH1 0x40 MLOAD PUSH4 0x7E273289 PUSH1 0xE0 SHL DUP2 MSTORE PUSH1 0x4 DUP2 ADD DUP3 SWAP1 MSTORE PUSH1 0x24 ADD PUSH2 0x369 JUMP JUMPDEST DUP2 DUP2 PUSH1 0x40 MLOAD PUSH4 0x177E802F PUSH1 0xE0 SHL DUP2 MSTORE PUSH1 0x4 ADD PUSH2 0x369 SWAP3 SWAP2 SWAP1 PUSH2 0x151E JUMP JUMPDEST PUSH0 DUP1 PUSH19 0x184F03E93FF9F4DAA797ED6E38ED64BF6A1F01 PUSH1 0x40 SHL DUP4 LT PUSH2 0x10D9 JUMPI PUSH19 0x184F03E93FF9F4DAA797ED6E38ED64BF6A1F01 PUSH1 0x40 SHL DUP4 DIV SWAP3 POP PUSH1 0x40 ADD JUMPDEST PUSH10 0x4EE2D6D415B85ACEF81 PUSH1 0x20 SHL DUP4 LT PUSH2 0x1103 JUMPI PUSH10 0x4EE2D6D415B85ACEF81 PUSH1 0x20 SHL DUP4 DIV SWAP3 POP PUSH1 0x20 ADD JUMPDEST PUSH7 0x2386F26FC10000 DUP4 LT PUSH2 0x1121 JUMPI PUSH7 0x2386F26FC10000 DUP4 DIV SWAP3 POP PUSH1 0x10 ADD JUMPDEST PUSH4 0x5F5E100 DUP4 LT PUSH2 0x1139 JUMPI PUSH4 0x5F5E100 DUP4 DIV SWAP3 POP PUSH1 0x8 ADD JUMPDEST PUSH2 0x2710 DUP4 LT PUSH2 0x114D JUMPI PUSH2 0x2710 DUP4 DIV SWAP3 POP PUSH1 0x4 ADD JUMPDEST PUSH1 0x64 DUP4 LT PUSH2 0x115F JUMPI PUSH1 0x64 DUP4 DIV SWAP3 POP PUSH1 0x2 ADD JUMPDEST PUSH1 0xA DUP4 LT PUSH2 0x288 JUMPI PUSH1 0x1 ADD SWAP3 SWAP2 POP POP JUMP JUMPDEST PUSH0 PUSH1 0x1 PUSH1 0x1 PUSH1 0xA0 SHL SUB DUP4 AND ISZERO DUP1 ISZERO SWAP1 PUSH2 0x66D JUMPI POP DUP3 PUSH1 0x1 PUSH1 0x1 PUSH1 0xA0 SHL SUB AND DUP5 PUSH1 0x1 PUSH1 0x1 PUSH1 0xA0 SHL SUB AND EQ DUP1 PUSH2 0x11A9 JUMPI POP PUSH2 0x11A9 DUP5 DUP5 PUSH2 0x575 JUMP JUMPDEST DUP1 PUSH2 0x66D JUMPI POP DUP3 PUSH1 0x1 PUSH1 0x1 PUSH1 0xA0 SHL SUB AND PUSH2 0x11C2 DUP4 PUSH2 0x63A JUMP JUMPDEST PUSH1 0x1 PUSH1 0x1 PUSH1 0xA0 SHL SUB AND EQ SWAP5 SWAP4 POP POP POP POP JUMP JUMPDEST PUSH1 0x1 PUSH1 0x1 PUSH1 0xE0 SHL SUB NOT DUP2 AND DUP2 EQ PUSH2 0x5DC JUMPI PUSH0 DUP1 REVERT JUMPDEST PUSH0 PUSH1 0x20 DUP3 DUP5 SUB SLT ISZERO PUSH2 0x11F9 JUMPI PUSH0 DUP1 REVERT JUMPDEST DUP2 CALLDATALOAD PUSH2 0xC7A DUP2 PUSH2 0x11D4 JUMP JUMPDEST PUSH0 JUMPDEST DUP4 DUP2 LT ISZERO PUSH2 0x121E JUMPI DUP2 DUP2 ADD MLOAD DUP4 DUP3 ADD MSTORE PUSH1 0x20 ADD PUSH2 0x1206 JUMP JUMPDEST POP POP PUSH0 SWAP2 ADD MSTORE JUMP JUMPDEST PUSH0 DUP2 MLOAD DUP1 DUP5 MSTORE PUSH2 0x123D DUP2 PUSH1 0x20 DUP7 ADD PUSH1 0x20 DUP7 ADD PUSH2 0x1204 JUMP JUMPDEST PUSH1 0x1F ADD PUSH1 0x1F NOT AND SWAP3 SWAP1 SWAP3 ADD PUSH1 0x20 ADD SWAP3 SWAP2 POP POP JUMP JUMPDEST PUSH1 0x20 DUP2 MSTORE PUSH0 PUSH2 0xC7A PUSH1 0x20 DUP4 ADD DUP5 PUSH2 0x1226 JUMP JUMPDEST PUSH0 PUSH1 0x20 DUP3 DUP5 SUB SLT ISZERO PUSH2 0x1273 JUMPI PUSH0 DUP1 REVERT JUMPDEST POP CALLDATALOAD SWAP2 SWAP1 POP JUMP JUMPDEST PUSH1 0x1 PUSH1 0x1 PUSH1 0xA0 SHL SUB SWAP2 SWAP1 SWAP2 AND DUP2 MSTORE PUSH1 0x20 ADD SWAP1 JUMP JUMPDEST DUP1 CALLDATALOAD PUSH1 0x1 PUSH1 0x1 PUSH1 0xA0 SHL SUB DUP2 AND DUP2 EQ PUSH2 0x12A4 JUMPI PUSH0 DUP1 REVERT JUMPDEST SWAP2 SWAP1 POP JUMP JUMPDEST PUSH0 DUP1 PUSH1 0x40 DUP4 DUP6 SUB SLT ISZERO PUSH2 0x12BA JUMPI PUSH0 DUP1 REVERT JUMPDEST PUSH2 0x12C3 DUP4 PUSH2 0x128E JUMP JUMPDEST SWAP5 PUSH1 0x20 SWAP4 SWAP1 SWAP4 ADD CALLDATALOAD SWAP4 POP POP POP JUMP JUMPDEST PUSH0 DUP1 PUSH0 PUSH1 0x60 DUP5 DUP7 SUB SLT ISZERO PUSH2 0x12E3 JUMPI PUSH0 DUP1 REVERT JUMPDEST PUSH2 0x12EC DUP5 PUSH2 0x128E JUMP JUMPDEST SWAP3 POP PUSH2 0x12FA PUSH1 0x20 DUP6 ADD PUSH2 0x128E JUMP JUMPDEST SWAP2 POP PUSH1 0x40 DUP5 ADD CALLDATALOAD SWAP1 POP SWAP3 POP SWAP3 POP SWAP3 JUMP JUMPDEST PUSH0 PUSH1 0x20 DUP3 DUP5 SUB SLT ISZERO PUSH2 0x131A JUMPI PUSH0 DUP1 REVERT JUMPDEST PUSH2 0xC7A DUP3 PUSH2 0x128E JUMP JUMPDEST PUSH0 DUP1 PUSH1 0x40 DUP4 DUP6 SUB SLT ISZERO PUSH2 0x1334 JUMPI PUSH0 DUP1 REVERT JUMPDEST PUSH2 0x133D DUP4 PUSH2 0x128E JUMP JUMPDEST SWAP2 POP PUSH1 0x20 DUP4 ADD CALLDATALOAD DUP1 ISZERO ISZERO DUP2 EQ PUSH2 0x1351 JUMPI PUSH0 DUP1 REVERT JUMPDEST DUP1 SWAP2 POP POP SWAP3 POP SWAP3 SWAP1 POP JUMP JUMPDEST PUSH4 0x4E487B71 PUSH1 0xE0 SHL PUSH0 MSTORE PUSH1 0x41 PUSH1 0x4 MSTORE PUSH1 0x24 PUSH0 REVERT JUMPDEST PUSH0 PUSH1 0x1 PUSH1 0x1 PUSH1 0x40 SHL SUB DUP1 DUP5 GT ISZERO PUSH2 0x1389 JUMPI PUSH2 0x1389 PUSH2 0x135C JUMP JUMPDEST PUSH1 0x40 MLOAD PUSH1 0x1F DUP6 ADD PUSH1 0x1F NOT SWAP1 DUP2 AND PUSH1 0x3F ADD AND DUP2 ADD SWAP1 DUP3 DUP3 GT DUP2 DUP4 LT OR ISZERO PUSH2 0x13B1 JUMPI PUSH2 0x13B1 PUSH2 0x135C JUMP JUMPDEST DUP2 PUSH1 0x40 MSTORE DUP1 SWAP4 POP DUP6 DUP2 MSTORE DUP7 DUP7 DUP7 ADD GT ISZERO PUSH2 0x13C9 JUMPI PUSH0 DUP1 REVERT JUMPDEST DUP6 DUP6 PUSH1 0x20 DUP4 ADD CALLDATACOPY PUSH0 PUSH1 0x20 DUP8 DUP4 ADD ADD MSTORE POP POP POP SWAP4 SWAP3 POP POP POP JUMP JUMPDEST PUSH0 DUP1 PUSH0 DUP1 PUSH1 0x80 DUP6 DUP8 SUB SLT ISZERO PUSH2 0x13F5 JUMPI PUSH0 DUP1 REVERT JUMPDEST PUSH2 0x13FE DUP6 PUSH2 0x128E JUMP JUMPDEST SWAP4 POP PUSH2 0x140C PUSH1 0x20 DUP7 ADD PUSH2 0x128E JUMP JUMPDEST SWAP3 POP PUSH1 0x40 DUP6 ADD CALLDATALOAD SWAP2 POP PUSH1 0x60 DUP6 ADD CALLDATALOAD PUSH1 0x1 PUSH1 0x1 PUSH1 0x40 SHL SUB DUP2 GT ISZERO PUSH2 0x142D JUMPI PUSH0 DUP1 REVERT JUMPDEST DUP6 ADD PUSH1 0x1F DUP2 ADD DUP8 SGT PUSH2 0x143D JUMPI PUSH0 DUP1 REVERT JUMPDEST PUSH2 0x144C DUP8 DUP3 CALLDATALOAD PUSH1 0x20 DUP5 ADD PUSH2 0x1370 JUMP JUMPDEST SWAP2 POP POP SWAP3 SWAP6 SWAP2 SWAP5 POP SWAP3 POP JUMP JUMPDEST PUSH0 DUP1 PUSH1 0x40 DUP4 DUP6 SUB SLT ISZERO PUSH2 0x1469 JUMPI PUSH0 DUP1 REVERT JUMPDEST PUSH2 0x1472 DUP4 PUSH2 0x128E JUMP JUMPDEST SWAP2 POP PUSH1 0x20 DUP4 ADD CALLDATALOAD PUSH1 0x1 PUSH1 0x1 PUSH1 0x40 SHL SUB DUP2 GT ISZERO PUSH2 0x148C JUMPI PUSH0 DUP1 REVERT JUMPDEST DUP4 ADD PUSH1 0x1F DUP2 ADD DUP6 SGT PUSH2 0x149C JUMPI PUSH0 DUP1 REVERT JUMPDEST PUSH2 0x14AB DUP6 DUP3 CALLDATALOAD PUSH1 0x20 DUP5 ADD PUSH2 0x1370 JUMP JUMPDEST SWAP2 POP POP SWAP3 POP SWAP3 SWAP1 POP JUMP JUMPDEST PUSH0 DUP1 PUSH1 0x40 DUP4 DUP6 SUB SLT ISZERO PUSH2 0x14C6 JUMPI PUSH0 DUP1 REVERT JUMPDEST PUSH2 0x14CF DUP4 PUSH2 0x128E JUMP JUMPDEST SWAP2 POP PUSH2 0x14DD PUSH1 0x20 DUP5 ADD PUSH2 0x128E JUMP JUMPDEST SWAP1 POP SWAP3 POP SWAP3 SWAP1 POP JUMP JUMPDEST PUSH1 0x1 DUP2 DUP2 SHR SWAP1 DUP3 AND DUP1 PUSH2 0x14FA JUMPI PUSH1 0x7F DUP3 AND SWAP2 POP JUMPDEST PUSH1 0x20 DUP3 LT DUP2 SUB PUSH2 0x1518 JUMPI PUSH4 0x4E487B71 PUSH1 0xE0 SHL PUSH0 MSTORE PUSH1 0x22 PUSH1 0x4 MSTORE PUSH1 0x24 PUSH0 REVERT JUMPDEST POP SWAP2 SWAP1 POP JUMP JUMPDEST PUSH1 0x1 PUSH1 0x1 PUSH1 0xA0 SHL SUB SWAP3 SWAP1 SWAP3 AND DUP3 MSTORE PUSH1 0x20 DUP3 ADD MSTORE PUSH1 0x40 ADD SWAP1 JUMP JUMPDEST PUSH4 0x4E487B71 PUSH1 0xE0 SHL PUSH0 MSTORE PUSH1 0x32 PUSH1 0x4 MSTORE PUSH1 0x24 PUSH0 REVERT JUMPDEST PUSH4 0x4E487B71 PUSH1 0xE0 SHL PUSH0 MSTORE PUSH1 0x11 PUSH1 0x4 MSTORE PUSH1 0x24 PUSH0 REVERT JUMPDEST PUSH0 PUSH1 0x1 DUP3 ADD PUSH2 0x1570 JUMPI PUSH2 0x1570 PUSH2 0x154B JUMP JUMPDEST POP PUSH1 0x1 ADD SWAP1 JUMP JUMPDEST PUSH1 0x1 PUSH1 0x1 PUSH1 0xA0 SHL SUB DUP6 DUP2 AND DUP3 MSTORE DUP5 AND PUSH1 0x20 DUP3 ADD MSTORE PUSH1 0x40 DUP2 ADD DUP4 SWAP1 MSTORE PUSH1 0x80 PUSH1 0x60 DUP3 ADD DUP2 SWAP1 MSTORE PUSH0 SWAP1 PUSH2 0x15A9 SWAP1 DUP4 ADD DUP5 PUSH2 0x1226 JUMP JUMPDEST SWAP7 SWAP6 POP POP POP POP POP POP JUMP JUMPDEST PUSH0 PUSH1 0x20 DUP3 DUP5 SUB SLT ISZERO PUSH2 0x15C3 JUMPI PUSH0 DUP1 REVERT JUMPDEST DUP2 MLOAD PUSH2 0xC7A DUP2 PUSH2 0x11D4 JUMP JUMPDEST PUSH0 DUP4 MLOAD PUSH2 0x15DF DUP2 DUP5 PUSH1 0x20 DUP9 ADD PUSH2 0x1204 JUMP JUMPDEST DUP4 MLOAD SWAP1 DUP4 ADD SWAP1 PUSH2 0x15F3 DUP2 DUP4 PUSH1 0x20 DUP9 ADD PUSH2 0x1204 JUMP JUMPDEST ADD SWAP5 SWAP4 POP POP POP POP JUMP JUMPDEST PUSH1 0x1F DUP3 GT ISZERO PUSH2 0x441 JUMPI DUP1 PUSH0 MSTORE PUSH1 0x20 PUSH0 KECCAK256 PUSH1 0x1F DUP5 ADD PUSH1 0x5 SHR DUP2 ADD PUSH1 0x20 DUP6 LT ISZERO PUSH2 0x1621 JUMPI POP DUP1 JUMPDEST PUSH1 0x1F DUP5 ADD PUSH1 0x5 SHR DUP3 ADD SWAP2 POP JUMPDEST DUP2 DUP2 LT ISZERO PUSH2 0x89A JUMPI PUSH0 DUP2 SSTORE PUSH1 0x1 ADD PUSH2 0x162D JUMP JUMPDEST DUP2 MLOAD PUSH1 0x1 PUSH1 0x1 PUSH1 0x40 SHL SUB DUP2 GT ISZERO PUSH2 0x1659 JUMPI PUSH2 0x1659 PUSH2 0x135C JUMP JUMPDEST PUSH2 0x166D DUP2 PUSH2 0x1667 DUP5 SLOAD PUSH2 0x14E6 JUMP JUMPDEST DUP5 PUSH2 0x15FC JUMP JUMPDEST PUSH1 0x20 DUP1 PUSH1 0x1F DUP4 GT PUSH1 0x1 DUP2 EQ PUSH2 0x16A0 JUMPI PUSH0 DUP5 ISZERO PUSH2 0x1689 JUMPI POP DUP6 DUP4 ADD MLOAD JUMPDEST PUSH0 NOT PUSH1 0x3 DUP7 SWAP1 SHL SHR NOT AND PUSH1 0x1 DUP6 SWAP1 SHL OR DUP6 SSTORE PUSH2 0x16F7 JUMP JUMPDEST PUSH0 DUP6 DUP2 MSTORE PUSH1 0x20 DUP2 KECCAK256 PUSH1 0x1F NOT DUP7 AND SWAP2 JUMPDEST DUP3 DUP2 LT ISZERO PUSH2 0x16CE JUMPI DUP9 DUP7 ADD MLOAD DUP3 SSTORE SWAP5 DUP5 ADD SWAP5 PUSH1 0x1 SWAP1 SWAP2 ADD SWAP1 DUP5 ADD PUSH2 0x16AF JUMP JUMPDEST POP DUP6 DUP3 LT ISZERO PUSH2 0x16EB JUMPI DUP8 DUP6 ADD MLOAD PUSH0 NOT PUSH1 0x3 DUP9 SWAP1 SHL PUSH1 0xF8 AND SHR NOT AND DUP2 SSTORE JUMPDEST POP POP PUSH1 0x1 DUP5 PUSH1 0x1 SHL ADD DUP6 SSTORE JUMPDEST POP POP POP POP POP POP JUMP JUMPDEST DUP2 DUP2 SUB DUP2 DUP2 GT ISZERO PUSH2 0x288 JUMPI PUSH2 0x288 PUSH2 0x154B JUMP JUMPDEST PUSH4 0x4E487B71 PUSH1 0xE0 SHL PUSH0 MSTORE PUSH1 0x31 PUSH1 0x4 MSTORE PUSH1 0x24 PUSH0 REVERT INVALID LOG2 PUSH5 0x6970667358 0x22 SLT KECCAK256 PUSH22 0x303E5DED82325F9CD7912530DD6E894B683456724C41 DIV 0xBC PUSH28 0xA078DE7E154264736F6C63430008170033A264697066735822122048 0x2F GAS PC PUSH16 0x95541EB78A7692309A1F85E25975B2D9 0xCB 0xE2 0xDE 0xD9 BLOCKHASH PUSH12 0xEE6DAB9564736F6C634300 ADDMOD OR STOP CALLER "},"gasEstimates":{"creation":{"codeDepositCost":"2902200","executionCost":"3175","totalCost":"2905375"},"external":{"createProject(address,string,uint256,uint256,uint256,string,string,string)":"infinite","deployedProjects(uint256)":"4632","getDeployedProjects()":"infinite"}},"methodIdentifiers":{"createProject(address,string,uint256,uint256,uint256,string,string,string)":"6f8aa6e2","deployedProjects(uint256)":"9ec6deaf","getDeployedProjects()":"7ac3886e"}},"storageLayout":{"storage":[{"astId":31954,"contract":"ProjectFactory.sol:ProjectFactory","label":"deployedProjects","offset":0,"slot":"0","type":"t_array(t_address)dyn_storage"}],"types":{"t_address":{"encoding":"inplace","label":"address","numberOfBytes":"20"},"t_array(t_address)dyn_storage":{"base":"t_address","encoding":"dynamic_array","label":"address[]","numberOfBytes":"32"}}},"userdoc":{"kind":"user","methods":{},"version":1}}