{"abi":[{"anonymous":false,"inputs":[{"indexed":true,"internalType":"address","name":"user","type":"address"},{"indexed":false,"internalType":"string","name":"profileCid","type":"string"},{"indexed":false,"internalType":"uint256","name":"timestamp","type":"uint256"}],"name":"ProfileUpdated","type":"event"},{"inputs":[{"internalType":"address","name":"user","type":"address"}],"name":"getProfile","outputs":[{"components":[{"internalType":"bool","name":"exists","type":"bool"},{"internalType":"string","name":"profileCid","type":"string"},{"internalType":"uint256","name":"updatedAt","type":"uint256"}],"internalType":"struct UserRegistry.UserProfile","name":"","type":"tuple"}],"stateMutability":"view","type":"function"},{"inputs":[{"internalType":"address","name":"user","type":"address"}],"name":"hasProfile","outputs":[{"internalType":"bool","name":"","type":"bool"}],"stateMutability":"view","type":"function"},{"inputs":[{"internalType":"address","name":"","type":"address"}],"name":"profiles","outputs":[{"internalType":"bool","name":"exists","type":"bool"},{"internalType":"string","name":"profileCid","type":"string"},{"internalType":"uint256","name":"updatedAt","type":"uint256"}],"stateMutability":"view","type":"function"},{"inputs":[{"internalType":"address","name":"user","type":"address"},{"internalType":"string","name":"profileCid","type":"string"}],"name":"updateProfile","outputs":[],"stateMutability":"nonpayable","type":"function"}],"devdoc":{"kind":"dev","methods":{},"version":1},"evm":{"assembly":"    /* \"UserRegistry.sol\":69:1029  contract UserRegistry {... */\n  mstore(0x40, 0x80)\n  callvalue\n  dup1\n  iszero\n  tag_1\n  jumpi\n  0x00\n  dup1\n  revert\ntag_1:\n  pop\n  dataSize(sub_0)\n  dup1\n  dataOffset(sub_0)\n  0x00\n  codecopy\n  0x00\n  return\nstop\n\nsub_0: assembly {\n        /* \"UserRegistry.sol\":69:1029  contract UserRegistry {... */\n      mstore(0x40, 0x80)\n      callvalue\n      dup1\n      iszero\n      tag_1\n      jumpi\n      0x00\n      dup1\n      revert\n    tag_1:\n      pop\n      jumpi(tag_2, lt(calldatasize, 0x04))\n      shr(0xe0, calldataload(0x00))\n      dup1\n      0x0f53a470\n      eq\n      tag_3\n      jumpi\n      dup1\n      0x3199ac02\n      eq\n      tag_4\n      jumpi\n      dup1\n      0xa787c80b\n      eq\n      tag_5\n      jumpi\n      dup1\n      0xbbe15627\n      eq\n      tag_6\n      jumpi\n    tag_2:\n      0x00\n      dup1\n      revert\n        /* \"UserRegistry.sol\":794:909  function getProfile(address user) external view returns (UserProfile memory) {... */\n    tag_3:\n      tag_7\n      tag_8\n      calldatasize\n      0x04\n      tag_9\n      jump\t// in\n    tag_8:\n      tag_10\n      jump\t// in\n    tag_7:\n      mload(0x40)\n      tag_11\n      swap2\n      swap1\n      tag_12\n      jump\t// in\n    tag_11:\n      mload(0x40)\n      dup1\n      swap2\n      sub\n      swap1\n      return\n        /* \"UserRegistry.sol\":387:784  function updateProfile(address user, string memory profileCid) external {... */\n    tag_4:\n      tag_13\n      tag_14\n      calldatasize\n      0x04\n      tag_15\n      jump\t// in\n    tag_14:\n      tag_16\n      jump\t// in\n    tag_13:\n      stop\n        /* \"UserRegistry.sol\":919:1027  function hasProfile(address user) external view returns (bool) {... */\n    tag_5:\n      tag_17\n      tag_18\n      calldatasize\n      0x04\n      tag_9\n      jump\t// in\n    tag_18:\n      sub(shl(0xa0, 0x01), 0x01)\n        /* \"UserRegistry.sol\":999:1013  profiles[user] */\n      and\n        /* \"UserRegistry.sol\":976:980  bool */\n      0x00\n        /* \"UserRegistry.sol\":999:1013  profiles[user] */\n      swap1\n      dup2\n      mstore\n      0x20\n      dup2\n      swap1\n      mstore\n      0x40\n      swap1\n      keccak256\n        /* \"UserRegistry.sol\":999:1020  profiles[user].exists */\n      sload\n      0xff\n      and\n      swap1\n        /* \"UserRegistry.sol\":919:1027  function hasProfile(address user) external view returns (bool) {... */\n      jump\n    tag_17:\n      mload(0x40)\n        /* \"#utility.yul\":2629:2643   */\n      swap1\n      iszero\n        /* \"#utility.yul\":2622:2644   */\n      iszero\n        /* \"#utility.yul\":2604:2645   */\n      dup2\n      mstore\n        /* \"#utility.yul\":2592:2594   */\n      0x20\n        /* \"#utility.yul\":2577:2595   */\n      add\n        /* \"UserRegistry.sol\":919:1027  function hasProfile(address user) external view returns (bool) {... */\n      tag_11\n        /* \"#utility.yul\":2464:2651   */\n      jump\n        /* \"UserRegistry.sol\":208:255  mapping(address => UserProfile) public profiles */\n    tag_6:\n      tag_22\n      tag_23\n      calldatasize\n      0x04\n      tag_9\n      jump\t// in\n    tag_23:\n      tag_24\n      jump\t// in\n    tag_22:\n      mload(0x40)\n      tag_11\n      swap4\n      swap3\n      swap2\n      swap1\n      tag_26\n      jump\t// in\n        /* \"UserRegistry.sol\":794:909  function getProfile(address user) external view returns (UserProfile memory) {... */\n    tag_10:\n        /* \"UserRegistry.sol\":851:869  UserProfile memory */\n      tag_27\n      mload(0x40)\n      dup1\n      0x60\n      add\n      0x40\n      mstore\n      dup1\n      iszero(iszero(0x00))\n      dup2\n      mstore\n      0x20\n      add\n      0x60\n      dup2\n      mstore\n      0x20\n      add\n      0x00\n      dup2\n      mstore\n      pop\n      swap1\n      jump\n    tag_27:\n      sub(shl(0xa0, 0x01), 0x01)\n        /* \"UserRegistry.sol\":888:902  profiles[user] */\n      dup3\n      and\n        /* \"UserRegistry.sol\":888:896  profiles */\n      0x00\n        /* \"UserRegistry.sol\":888:902  profiles[user] */\n      swap1\n      dup2\n      mstore\n      0x20\n      dup2\n      dup2\n      mstore\n      0x40\n      swap2\n      dup3\n      swap1\n      keccak256\n        /* \"UserRegistry.sol\":881:902  return profiles[user] */\n      dup3\n      mload\n      0x60\n      dup2\n      add\n      swap1\n      swap4\n      mstore\n      dup1\n      sload\n      0xff\n      and\n      iszero\n      iszero\n      dup4\n      mstore\n      0x01\n      dup2\n      add\n      dup1\n      sload\n        /* \"UserRegistry.sol\":888:902  profiles[user] */\n      swap2\n      swap3\n        /* \"UserRegistry.sol\":881:902  return profiles[user] */\n      dup5\n      add\n      swap2\n      tag_30\n      swap1\n      tag_31\n      jump\t// in\n    tag_30:\n      dup1\n      0x1f\n      add\n      0x20\n      dup1\n      swap2\n      div\n      mul\n      0x20\n      add\n      mload(0x40)\n      swap1\n      dup2\n      add\n      0x40\n      mstore\n      dup1\n      swap3\n      swap2\n      swap1\n      dup2\n      dup2\n      mstore\n      0x20\n      add\n      dup3\n      dup1\n      sload\n      tag_32\n      swap1\n      tag_31\n      jump\t// in\n    tag_32:\n      dup1\n      iszero\n      tag_33\n      jumpi\n      dup1\n      0x1f\n      lt\n      tag_34\n      jumpi\n      0x0100\n      dup1\n      dup4\n      sload\n      div\n      mul\n      dup4\n      mstore\n      swap2\n      0x20\n      add\n      swap2\n      jump(tag_33)\n    tag_34:\n      dup3\n      add\n      swap2\n      swap1\n      0x00\n      mstore\n      keccak256(0x00, 0x20)\n      swap1\n    tag_35:\n      dup2\n      sload\n      dup2\n      mstore\n      swap1\n      0x01\n      add\n      swap1\n      0x20\n      add\n      dup1\n      dup4\n      gt\n      tag_35\n      jumpi\n      dup3\n      swap1\n      sub\n      0x1f\n      and\n      dup3\n      add\n      swap2\n    tag_33:\n      pop\n      pop\n      pop\n      pop\n      pop\n      dup2\n      mstore\n      0x20\n      add\n      0x02\n      dup3\n      add\n      sload\n      dup2\n      mstore\n      pop\n      pop\n      swap1\n      pop\n        /* \"UserRegistry.sol\":794:909  function getProfile(address user) external view returns (UserProfile memory) {... */\n      swap2\n      swap1\n      pop\n      jump\t// out\n        /* \"UserRegistry.sol\":387:784  function updateProfile(address user, string memory profileCid) external {... */\n    tag_16:\n        /* \"UserRegistry.sol\":477:487  msg.sender */\n      caller\n      sub(shl(0xa0, 0x01), 0x01)\n        /* \"UserRegistry.sol\":477:495  msg.sender == user */\n      dup4\n      and\n      eq\n        /* \"UserRegistry.sol\":469:543  require(msg.sender == user, \"Only profile owner can update their profile\") */\n      tag_37\n      jumpi\n      mload(0x40)\n      shl(0xe5, 0x461bcd)\n      dup2\n      mstore\n        /* \"#utility.yul\":3620:3622   */\n      0x20\n        /* \"UserRegistry.sol\":469:543  require(msg.sender == user, \"Only profile owner can update their profile\") */\n      0x04\n      dup3\n      add\n        /* \"#utility.yul\":3602:3623   */\n      mstore\n        /* \"#utility.yul\":3659:3661   */\n      0x2b\n        /* \"#utility.yul\":3639:3657   */\n      0x24\n      dup3\n      add\n        /* \"#utility.yul\":3632:3662   */\n      mstore\n        /* \"#utility.yul\":3698:3732   */\n      0x4f6e6c792070726f66696c65206f776e65722063616e20757064617465207468\n        /* \"#utility.yul\":3678:3696   */\n      0x44\n      dup3\n      add\n        /* \"#utility.yul\":3671:3733   */\n      mstore\n      shl(0xa8, 0x6569722070726f66696c65)\n        /* \"#utility.yul\":3749:3767   */\n      0x64\n      dup3\n      add\n        /* \"#utility.yul\":3742:3783   */\n      mstore\n        /* \"#utility.yul\":3800:3819   */\n      0x84\n      add\n        /* \"UserRegistry.sol\":469:543  require(msg.sender == user, \"Only profile owner can update their profile\") */\n      mload(0x40)\n      dup1\n      swap2\n      sub\n      swap1\n      revert\n    tag_37:\n        /* \"UserRegistry.sol\":579:704  UserProfile({... */\n      0x40\n      dup1\n      mload\n      0x60\n      dup2\n      add\n      dup3\n      mstore\n        /* \"UserRegistry.sol\":613:617  true */\n      0x01\n        /* \"UserRegistry.sol\":579:704  UserProfile({... */\n      dup1\n      dup3\n      mstore\n      0x20\n      dup1\n      dup4\n      add\n      dup6\n      dup2\n      mstore\n        /* \"UserRegistry.sol\":678:693  block.timestamp */\n      timestamp\n        /* \"UserRegistry.sol\":579:704  UserProfile({... */\n      dup5\n      dup7\n      add\n      mstore\n      sub(shl(0xa0, 0x01), 0x01)\n        /* \"UserRegistry.sol\":562:576  profiles[user] */\n      dup8\n      and\n      0x00\n      swap1\n      dup2\n      mstore\n      swap2\n      dup3\n      swap1\n      mstore\n      swap4\n      swap1\n      keccak256\n        /* \"UserRegistry.sol\":562:704  profiles[user] = UserProfile({... */\n      dup3\n      mload\n      dup2\n      sload\n      not(0xff)\n      and\n      swap1\n      iszero\n      iszero\n      or\n      dup2\n      sstore\n      swap3\n      mload\n        /* \"UserRegistry.sol\":579:704  UserProfile({... */\n      swap2\n      swap3\n        /* \"UserRegistry.sol\":562:576  profiles[user] */\n      swap2\n        /* \"UserRegistry.sol\":562:704  profiles[user] = UserProfile({... */\n      swap1\n      dup3\n      add\n      swap1\n      tag_40\n      swap1\n      dup3\n      tag_41\n      jump\t// in\n    tag_40:\n      pop\n      0x40\n      dup3\n      add\n      mload\n      dup2\n      0x02\n      add\n      sstore\n      swap1\n      pop\n      pop\n        /* \"UserRegistry.sol\":743:747  user */\n      dup2\n      sub(shl(0xa0, 0x01), 0x01)\n        /* \"UserRegistry.sol\":728:777  ProfileUpdated(user, profileCid, block.timestamp) */\n      and\n      0xdcb94c0b2c025b0736b4b62b1c595f2ca7ad4c711eada6026d477e87de9cca08\n        /* \"UserRegistry.sol\":749:759  profileCid */\n      dup3\n        /* \"UserRegistry.sol\":761:776  block.timestamp */\n      timestamp\n        /* \"UserRegistry.sol\":728:777  ProfileUpdated(user, profileCid, block.timestamp) */\n      mload(0x40)\n      tag_42\n      swap3\n      swap2\n      swap1\n      tag_43\n      jump\t// in\n    tag_42:\n      mload(0x40)\n      dup1\n      swap2\n      sub\n      swap1\n      log2\n        /* \"UserRegistry.sol\":387:784  function updateProfile(address user, string memory profileCid) external {... */\n      pop\n      pop\n      jump\t// out\n        /* \"UserRegistry.sol\":208:255  mapping(address => UserProfile) public profiles */\n    tag_24:\n      0x00\n      0x20\n      dup2\n      swap1\n      mstore\n      swap1\n      dup2\n      mstore\n      0x40\n      swap1\n      keccak256\n      dup1\n      sload\n      0x01\n      dup3\n      add\n      dup1\n      sload\n      0xff\n      swap1\n      swap3\n      and\n      swap3\n      swap2\n      tag_45\n      swap1\n      tag_31\n      jump\t// in\n    tag_45:\n      dup1\n      0x1f\n      add\n      0x20\n      dup1\n      swap2\n      div\n      mul\n      0x20\n      add\n      mload(0x40)\n      swap1\n      dup2\n      add\n      0x40\n      mstore\n      dup1\n      swap3\n      swap2\n      swap1\n      dup2\n      dup2\n      mstore\n      0x20\n      add\n      dup3\n      dup1\n      sload\n      tag_46\n      swap1\n      tag_31\n      jump\t// in\n    tag_46:\n      dup1\n      iszero\n      tag_47\n      jumpi\n      dup1\n      0x1f\n      lt\n      tag_48\n      jumpi\n      0x0100\n      dup1\n      dup4\n      sload\n      div\n      mul\n      dup4\n      mstore\n      swap2\n      0x20\n      add\n      swap2\n      jump(tag_47)\n    tag_48:\n      dup3\n      add\n      swap2\n      swap1\n      0x00\n      mstore\n      keccak256(0x00, 0x20)\n      swap1\n    tag_49:\n      dup2\n      sload\n      dup2\n      mstore\n      swap1\n      0x01\n      add\n      swap1\n      0x20\n      add\n      dup1\n      dup4\n      gt\n      tag_49\n      jumpi\n      dup3\n      swap1\n      sub\n      0x1f\n      and\n      dup3\n      add\n      swap2\n    tag_47:\n      pop\n      pop\n      pop\n      pop\n      pop\n      swap1\n      dup1\n      0x02\n      add\n      sload\n      swap1\n      pop\n      dup4\n      jump\t// out\n        /* \"#utility.yul\":14:187   */\n    tag_50:\n        /* \"#utility.yul\":82:102   */\n      dup1\n      calldataload\n      sub(shl(0xa0, 0x01), 0x01)\n        /* \"#utility.yul\":131:162   */\n      dup2\n      and\n        /* \"#utility.yul\":121:163   */\n      dup2\n      eq\n        /* \"#utility.yul\":111:181   */\n      tag_58\n      jumpi\n        /* \"#utility.yul\":177:178   */\n      0x00\n        /* \"#utility.yul\":174:175   */\n      dup1\n        /* \"#utility.yul\":167:179   */\n      revert\n        /* \"#utility.yul\":111:181   */\n    tag_58:\n        /* \"#utility.yul\":14:187   */\n      swap2\n      swap1\n      pop\n      jump\t// out\n        /* \"#utility.yul\":192:378   */\n    tag_9:\n        /* \"#utility.yul\":251:257   */\n      0x00\n        /* \"#utility.yul\":304:306   */\n      0x20\n        /* \"#utility.yul\":292:301   */\n      dup3\n        /* \"#utility.yul\":283:290   */\n      dup5\n        /* \"#utility.yul\":279:302   */\n      sub\n        /* \"#utility.yul\":275:307   */\n      slt\n        /* \"#utility.yul\":272:324   */\n      iszero\n      tag_60\n      jumpi\n        /* \"#utility.yul\":320:321   */\n      0x00\n        /* \"#utility.yul\":317:318   */\n      dup1\n        /* \"#utility.yul\":310:322   */\n      revert\n        /* \"#utility.yul\":272:324   */\n    tag_60:\n        /* \"#utility.yul\":343:372   */\n      tag_61\n        /* \"#utility.yul\":362:371   */\n      dup3\n        /* \"#utility.yul\":343:372   */\n      tag_50\n      jump\t// in\n    tag_61:\n        /* \"#utility.yul\":333:372   */\n      swap4\n        /* \"#utility.yul\":192:378   */\n      swap3\n      pop\n      pop\n      pop\n      jump\t// out\n        /* \"#utility.yul\":383:806   */\n    tag_51:\n        /* \"#utility.yul\":425:428   */\n      0x00\n        /* \"#utility.yul\":463:468   */\n      dup2\n        /* \"#utility.yul\":457:469   */\n      mload\n        /* \"#utility.yul\":490:496   */\n      dup1\n        /* \"#utility.yul\":485:488   */\n      dup5\n        /* \"#utility.yul\":478:497   */\n      mstore\n        /* \"#utility.yul\":515:516   */\n      0x00\n        /* \"#utility.yul\":525:687   */\n    tag_63:\n        /* \"#utility.yul\":539:545   */\n      dup2\n        /* \"#utility.yul\":536:537   */\n      dup2\n        /* \"#utility.yul\":533:546   */\n      lt\n        /* \"#utility.yul\":525:687   */\n      iszero\n      tag_65\n      jumpi\n        /* \"#utility.yul\":601:605   */\n      0x20\n        /* \"#utility.yul\":657:670   */\n      dup2\n      dup6\n      add\n        /* \"#utility.yul\":653:675   */\n      dup2\n      add\n        /* \"#utility.yul\":647:676   */\n      mload\n        /* \"#utility.yul\":629:640   */\n      dup7\n      dup4\n      add\n        /* \"#utility.yul\":625:645   */\n      dup3\n      add\n        /* \"#utility.yul\":618:677   */\n      mstore\n        /* \"#utility.yul\":554:566   */\n      add\n        /* \"#utility.yul\":525:687   */\n      jump(tag_63)\n    tag_65:\n        /* \"#utility.yul\":529:532   */\n      pop\n        /* \"#utility.yul\":732:733   */\n      0x00\n        /* \"#utility.yul\":725:729   */\n      0x20\n        /* \"#utility.yul\":716:722   */\n      dup3\n        /* \"#utility.yul\":711:714   */\n      dup7\n        /* \"#utility.yul\":707:723   */\n      add\n        /* \"#utility.yul\":703:730   */\n      add\n        /* \"#utility.yul\":696:734   */\n      mstore\n        /* \"#utility.yul\":795:799   */\n      0x20\n        /* \"#utility.yul\":788:790   */\n      0x1f\n        /* \"#utility.yul\":784:791   */\n      not\n        /* \"#utility.yul\":779:781   */\n      0x1f\n        /* \"#utility.yul\":771:777   */\n      dup4\n        /* \"#utility.yul\":767:782   */\n      add\n        /* \"#utility.yul\":763:792   */\n      and\n        /* \"#utility.yul\":758:761   */\n      dup6\n        /* \"#utility.yul\":754:793   */\n      add\n        /* \"#utility.yul\":750:800   */\n      add\n        /* \"#utility.yul\":743:800   */\n      swap2\n      pop\n      pop\n        /* \"#utility.yul\":383:806   */\n      swap3\n      swap2\n      pop\n      pop\n      jump\t// out\n        /* \"#utility.yul\":811:1326   */\n    tag_12:\n        /* \"#utility.yul\":1000:1002   */\n      0x20\n        /* \"#utility.yul\":989:998   */\n      dup2\n        /* \"#utility.yul\":982:1003   */\n      mstore\n        /* \"#utility.yul\":1059:1065   */\n      dup2\n        /* \"#utility.yul\":1053:1066   */\n      mload\n        /* \"#utility.yul\":1046:1067   */\n      iszero\n        /* \"#utility.yul\":1039:1068   */\n      iszero\n        /* \"#utility.yul\":1034:1036   */\n      0x20\n        /* \"#utility.yul\":1023:1032   */\n      dup3\n        /* \"#utility.yul\":1019:1037   */\n      add\n        /* \"#utility.yul\":1012:1069   */\n      mstore\n        /* \"#utility.yul\":963:967   */\n      0x00\n        /* \"#utility.yul\":1116:1118   */\n      0x20\n        /* \"#utility.yul\":1108:1114   */\n      dup4\n        /* \"#utility.yul\":1104:1119   */\n      add\n        /* \"#utility.yul\":1098:1120   */\n      mload\n        /* \"#utility.yul\":1156:1160   */\n      0x60\n        /* \"#utility.yul\":1151:1153   */\n      0x40\n        /* \"#utility.yul\":1140:1149   */\n      dup5\n        /* \"#utility.yul\":1136:1154   */\n      add\n        /* \"#utility.yul\":1129:1161   */\n      mstore\n        /* \"#utility.yul\":1184:1236   */\n      tag_67\n        /* \"#utility.yul\":1231:1234   */\n      0x80\n        /* \"#utility.yul\":1220:1229   */\n      dup5\n        /* \"#utility.yul\":1216:1235   */\n      add\n        /* \"#utility.yul\":1202:1214   */\n      dup3\n        /* \"#utility.yul\":1184:1236   */\n      tag_51\n      jump\t// in\n    tag_67:\n        /* \"#utility.yul\":1170:1236   */\n      swap1\n      pop\n        /* \"#utility.yul\":1292:1294   */\n      0x40\n        /* \"#utility.yul\":1284:1290   */\n      dup5\n        /* \"#utility.yul\":1280:1295   */\n      add\n        /* \"#utility.yul\":1274:1296   */\n      mload\n        /* \"#utility.yul\":1267:1271   */\n      0x60\n        /* \"#utility.yul\":1256:1265   */\n      dup5\n        /* \"#utility.yul\":1252:1272   */\n      add\n        /* \"#utility.yul\":1245:1297   */\n      mstore\n        /* \"#utility.yul\":1314:1320   */\n      dup1\n        /* \"#utility.yul\":1306:1320   */\n      swap2\n      pop\n      pop\n        /* \"#utility.yul\":811:1326   */\n      swap3\n      swap2\n      pop\n      pop\n      jump\t// out\n        /* \"#utility.yul\":1331:1458   */\n    tag_52:\n        /* \"#utility.yul\":1392:1402   */\n      0x4e487b71\n        /* \"#utility.yul\":1387:1390   */\n      0xe0\n        /* \"#utility.yul\":1383:1403   */\n      shl\n        /* \"#utility.yul\":1380:1381   */\n      0x00\n        /* \"#utility.yul\":1373:1404   */\n      mstore\n        /* \"#utility.yul\":1423:1427   */\n      0x41\n        /* \"#utility.yul\":1420:1421   */\n      0x04\n        /* \"#utility.yul\":1413:1428   */\n      mstore\n        /* \"#utility.yul\":1447:1451   */\n      0x24\n        /* \"#utility.yul\":1444:1445   */\n      0x00\n        /* \"#utility.yul\":1437:1452   */\n      revert\n        /* \"#utility.yul\":1463:2459   */\n    tag_15:\n        /* \"#utility.yul\":1541:1547   */\n      0x00\n        /* \"#utility.yul\":1549:1555   */\n      dup1\n        /* \"#utility.yul\":1602:1604   */\n      0x40\n        /* \"#utility.yul\":1590:1599   */\n      dup4\n        /* \"#utility.yul\":1581:1588   */\n      dup6\n        /* \"#utility.yul\":1577:1600   */\n      sub\n        /* \"#utility.yul\":1573:1605   */\n      slt\n        /* \"#utility.yul\":1570:1622   */\n      iszero\n      tag_70\n      jumpi\n        /* \"#utility.yul\":1618:1619   */\n      0x00\n        /* \"#utility.yul\":1615:1616   */\n      dup1\n        /* \"#utility.yul\":1608:1620   */\n      revert\n        /* \"#utility.yul\":1570:1622   */\n    tag_70:\n        /* \"#utility.yul\":1641:1670   */\n      tag_71\n        /* \"#utility.yul\":1660:1669   */\n      dup4\n        /* \"#utility.yul\":1641:1670   */\n      tag_50\n      jump\t// in\n    tag_71:\n        /* \"#utility.yul\":1631:1670   */\n      swap2\n      pop\n        /* \"#utility.yul\":1721:1723   */\n      0x20\n        /* \"#utility.yul\":1706:1724   */\n      dup4\n      add\n        /* \"#utility.yul\":1693:1725   */\n      calldataload\n      sub(shl(0x40, 0x01), 0x01)\n        /* \"#utility.yul\":1774:1788   */\n      dup1\n      dup3\n      gt\n        /* \"#utility.yul\":1771:1805   */\n      iszero\n      tag_72\n      jumpi\n        /* \"#utility.yul\":1801:1802   */\n      0x00\n        /* \"#utility.yul\":1798:1799   */\n      dup1\n        /* \"#utility.yul\":1791:1803   */\n      revert\n        /* \"#utility.yul\":1771:1805   */\n    tag_72:\n        /* \"#utility.yul\":1839:1845   */\n      dup2\n        /* \"#utility.yul\":1828:1837   */\n      dup6\n        /* \"#utility.yul\":1824:1846   */\n      add\n        /* \"#utility.yul\":1814:1846   */\n      swap2\n      pop\n        /* \"#utility.yul\":1884:1891   */\n      dup6\n        /* \"#utility.yul\":1877:1881   */\n      0x1f\n        /* \"#utility.yul\":1873:1875   */\n      dup4\n        /* \"#utility.yul\":1869:1882   */\n      add\n        /* \"#utility.yul\":1865:1892   */\n      slt\n        /* \"#utility.yul\":1855:1910   */\n      tag_73\n      jumpi\n        /* \"#utility.yul\":1906:1907   */\n      0x00\n        /* \"#utility.yul\":1903:1904   */\n      dup1\n        /* \"#utility.yul\":1896:1908   */\n      revert\n        /* \"#utility.yul\":1855:1910   */\n    tag_73:\n        /* \"#utility.yul\":1942:1944   */\n      dup2\n        /* \"#utility.yul\":1929:1945   */\n      calldataload\n        /* \"#utility.yul\":1964:1966   */\n      dup2\n        /* \"#utility.yul\":1960:1962   */\n      dup2\n        /* \"#utility.yul\":1957:1967   */\n      gt\n        /* \"#utility.yul\":1954:1990   */\n      iszero\n      tag_75\n      jumpi\n        /* \"#utility.yul\":1970:1988   */\n      tag_75\n      tag_52\n      jump\t// in\n    tag_75:\n        /* \"#utility.yul\":2045:2047   */\n      0x40\n        /* \"#utility.yul\":2039:2048   */\n      mload\n        /* \"#utility.yul\":2013:2015   */\n      0x1f\n        /* \"#utility.yul\":2099:2112   */\n      dup3\n      add\n      not(0x1f)\n        /* \"#utility.yul\":2095:2117   */\n      swap1\n      dup2\n      and\n        /* \"#utility.yul\":2119:2121   */\n      0x3f\n        /* \"#utility.yul\":2091:2122   */\n      add\n        /* \"#utility.yul\":2087:2127   */\n      and\n        /* \"#utility.yul\":2075:2128   */\n      dup2\n      add\n      swap1\n        /* \"#utility.yul\":2143:2161   */\n      dup4\n      dup3\n      gt\n        /* \"#utility.yul\":2163:2185   */\n      dup2\n      dup4\n      lt\n        /* \"#utility.yul\":2140:2186   */\n      or\n        /* \"#utility.yul\":2137:2209   */\n      iszero\n      tag_77\n      jumpi\n        /* \"#utility.yul\":2189:2207   */\n      tag_77\n      tag_52\n      jump\t// in\n    tag_77:\n        /* \"#utility.yul\":2229:2239   */\n      dup2\n        /* \"#utility.yul\":2225:2227   */\n      0x40\n        /* \"#utility.yul\":2218:2240   */\n      mstore\n        /* \"#utility.yul\":2264:2266   */\n      dup3\n        /* \"#utility.yul\":2256:2262   */\n      dup2\n        /* \"#utility.yul\":2249:2267   */\n      mstore\n        /* \"#utility.yul\":2304:2311   */\n      dup9\n        /* \"#utility.yul\":2299:2301   */\n      0x20\n        /* \"#utility.yul\":2294:2296   */\n      dup5\n        /* \"#utility.yul\":2290:2292   */\n      dup8\n        /* \"#utility.yul\":2286:2297   */\n      add\n        /* \"#utility.yul\":2282:2302   */\n      add\n        /* \"#utility.yul\":2279:2312   */\n      gt\n        /* \"#utility.yul\":2276:2329   */\n      iszero\n      tag_78\n      jumpi\n        /* \"#utility.yul\":2325:2326   */\n      0x00\n        /* \"#utility.yul\":2322:2323   */\n      dup1\n        /* \"#utility.yul\":2315:2327   */\n      revert\n        /* \"#utility.yul\":2276:2329   */\n    tag_78:\n        /* \"#utility.yul\":2381:2383   */\n      dup3\n        /* \"#utility.yul\":2376:2378   */\n      0x20\n        /* \"#utility.yul\":2372:2374   */\n      dup7\n        /* \"#utility.yul\":2368:2379   */\n      add\n        /* \"#utility.yul\":2363:2365   */\n      0x20\n        /* \"#utility.yul\":2355:2361   */\n      dup4\n        /* \"#utility.yul\":2351:2366   */\n      add\n        /* \"#utility.yul\":2338:2384   */\n      calldatacopy\n        /* \"#utility.yul\":2426:2427   */\n      0x00\n        /* \"#utility.yul\":2421:2423   */\n      0x20\n        /* \"#utility.yul\":2416:2418   */\n      dup5\n        /* \"#utility.yul\":2408:2414   */\n      dup4\n        /* \"#utility.yul\":2404:2419   */\n      add\n        /* \"#utility.yul\":2400:2424   */\n      add\n        /* \"#utility.yul\":2393:2428   */\n      mstore\n        /* \"#utility.yul\":2447:2453   */\n      dup1\n        /* \"#utility.yul\":2437:2453   */\n      swap6\n      pop\n      pop\n      pop\n      pop\n      pop\n      pop\n        /* \"#utility.yul\":1463:2459   */\n      swap3\n      pop\n      swap3\n      swap1\n      pop\n      jump\t// out\n        /* \"#utility.yul\":2656:3028   */\n    tag_26:\n        /* \"#utility.yul\":2869:2875   */\n      dup4\n        /* \"#utility.yul\":2862:2876   */\n      iszero\n        /* \"#utility.yul\":2855:2877   */\n      iszero\n        /* \"#utility.yul\":2844:2853   */\n      dup2\n        /* \"#utility.yul\":2837:2878   */\n      mstore\n        /* \"#utility.yul\":2914:2916   */\n      0x60\n        /* \"#utility.yul\":2909:2911   */\n      0x20\n        /* \"#utility.yul\":2898:2907   */\n      dup3\n        /* \"#utility.yul\":2894:2912   */\n      add\n        /* \"#utility.yul\":2887:2917   */\n      mstore\n        /* \"#utility.yul\":2818:2822   */\n      0x00\n        /* \"#utility.yul\":2934:2979   */\n      tag_81\n        /* \"#utility.yul\":2975:2977   */\n      0x60\n        /* \"#utility.yul\":2964:2973   */\n      dup4\n        /* \"#utility.yul\":2960:2978   */\n      add\n        /* \"#utility.yul\":2952:2958   */\n      dup6\n        /* \"#utility.yul\":2934:2979   */\n      tag_51\n      jump\t// in\n    tag_81:\n        /* \"#utility.yul\":2926:2979   */\n      swap1\n      pop\n        /* \"#utility.yul\":3015:3021   */\n      dup3\n        /* \"#utility.yul\":3010:3012   */\n      0x40\n        /* \"#utility.yul\":2999:3008   */\n      dup4\n        /* \"#utility.yul\":2995:3013   */\n      add\n        /* \"#utility.yul\":2988:3022   */\n      mstore\n        /* \"#utility.yul\":2656:3028   */\n      swap5\n      swap4\n      pop\n      pop\n      pop\n      pop\n      jump\t// out\n        /* \"#utility.yul\":3033:3413   */\n    tag_31:\n        /* \"#utility.yul\":3112:3113   */\n      0x01\n        /* \"#utility.yul\":3108:3120   */\n      dup2\n      dup2\n      shr\n      swap1\n        /* \"#utility.yul\":3155:3167   */\n      dup3\n      and\n      dup1\n        /* \"#utility.yul\":3176:3237   */\n      tag_83\n      jumpi\n        /* \"#utility.yul\":3230:3234   */\n      0x7f\n        /* \"#utility.yul\":3222:3228   */\n      dup3\n        /* \"#utility.yul\":3218:3235   */\n      and\n        /* \"#utility.yul\":3208:3235   */\n      swap2\n      pop\n        /* \"#utility.yul\":3176:3237   */\n    tag_83:\n        /* \"#utility.yul\":3283:3285   */\n      0x20\n        /* \"#utility.yul\":3275:3281   */\n      dup3\n        /* \"#utility.yul\":3272:3286   */\n      lt\n        /* \"#utility.yul\":3252:3270   */\n      dup2\n        /* \"#utility.yul\":3249:3287   */\n      sub\n        /* \"#utility.yul\":3246:3407   */\n      tag_84\n      jumpi\n        /* \"#utility.yul\":3329:3339   */\n      0x4e487b71\n        /* \"#utility.yul\":3324:3327   */\n      0xe0\n        /* \"#utility.yul\":3320:3340   */\n      shl\n        /* \"#utility.yul\":3317:3318   */\n      0x00\n        /* \"#utility.yul\":3310:3341   */\n      mstore\n        /* \"#utility.yul\":3364:3368   */\n      0x22\n        /* \"#utility.yul\":3361:3362   */\n      0x04\n        /* \"#utility.yul\":3354:3369   */\n      mstore\n        /* \"#utility.yul\":3392:3396   */\n      0x24\n        /* \"#utility.yul\":3389:3390   */\n      0x00\n        /* \"#utility.yul\":3382:3397   */\n      revert\n        /* \"#utility.yul\":3246:3407   */\n    tag_84:\n      pop\n        /* \"#utility.yul\":3033:3413   */\n      swap2\n      swap1\n      pop\n      jump\t// out\n        /* \"#utility.yul\":3956:4474   */\n    tag_54:\n        /* \"#utility.yul\":4058:4060   */\n      0x1f\n        /* \"#utility.yul\":4053:4056   */\n      dup3\n        /* \"#utility.yul\":4050:4061   */\n      gt\n        /* \"#utility.yul\":4047:4468   */\n      iszero\n      tag_88\n      jumpi\n        /* \"#utility.yul\":4094:4099   */\n      dup1\n        /* \"#utility.yul\":4091:4092   */\n      0x00\n        /* \"#utility.yul\":4084:4100   */\n      mstore\n        /* \"#utility.yul\":4138:4142   */\n      0x20\n        /* \"#utility.yul\":4135:4136   */\n      0x00\n        /* \"#utility.yul\":4125:4143   */\n      keccak256\n        /* \"#utility.yul\":4208:4210   */\n      0x1f\n        /* \"#utility.yul\":4196:4206   */\n      dup5\n        /* \"#utility.yul\":4192:4211   */\n      add\n        /* \"#utility.yul\":4189:4190   */\n      0x05\n        /* \"#utility.yul\":4185:4212   */\n      shr\n        /* \"#utility.yul\":4179:4183   */\n      dup2\n        /* \"#utility.yul\":4175:4213   */\n      add\n        /* \"#utility.yul\":4244:4248   */\n      0x20\n        /* \"#utility.yul\":4232:4242   */\n      dup6\n        /* \"#utility.yul\":4229:4249   */\n      lt\n        /* \"#utility.yul\":4226:4273   */\n      iszero\n      tag_89\n      jumpi\n      pop\n        /* \"#utility.yul\":4267:4271   */\n      dup1\n        /* \"#utility.yul\":4226:4273   */\n    tag_89:\n        /* \"#utility.yul\":4322:4324   */\n      0x1f\n        /* \"#utility.yul\":4317:4320   */\n      dup5\n        /* \"#utility.yul\":4313:4325   */\n      add\n        /* \"#utility.yul\":4310:4311   */\n      0x05\n        /* \"#utility.yul\":4306:4326   */\n      shr\n        /* \"#utility.yul\":4300:4304   */\n      dup3\n        /* \"#utility.yul\":4296:4327   */\n      add\n        /* \"#utility.yul\":4286:4327   */\n      swap2\n      pop\n        /* \"#utility.yul\":4377:4458   */\n    tag_90:\n        /* \"#utility.yul\":4395:4397   */\n      dup2\n        /* \"#utility.yul\":4388:4393   */\n      dup2\n        /* \"#utility.yul\":4385:4398   */\n      lt\n        /* \"#utility.yul\":4377:4458   */\n      iszero\n      tag_92\n      jumpi\n        /* \"#utility.yul\":4454:4455   */\n      0x00\n        /* \"#utility.yul\":4440:4456   */\n      dup2\n      sstore\n        /* \"#utility.yul\":4421:4422   */\n      0x01\n        /* \"#utility.yul\":4410:4423   */\n      add\n        /* \"#utility.yul\":4377:4458   */\n      jump(tag_90)\n    tag_92:\n        /* \"#utility.yul\":4381:4384   */\n      pop\n      pop\n        /* \"#utility.yul\":4047:4468   */\n    tag_88:\n        /* \"#utility.yul\":3956:4474   */\n      pop\n      pop\n      pop\n      jump\t// out\n        /* \"#utility.yul\":4650:5995   */\n    tag_41:\n        /* \"#utility.yul\":4770:4780   */\n      dup2\n      mload\n      sub(shl(0x40, 0x01), 0x01)\n        /* \"#utility.yul\":4792:4822   */\n      dup2\n      gt\n        /* \"#utility.yul\":4789:4845   */\n      iszero\n      tag_96\n      jumpi\n        /* \"#utility.yul\":4825:4843   */\n      tag_96\n      tag_52\n      jump\t// in\n    tag_96:\n        /* \"#utility.yul\":4854:4951   */\n      tag_97\n        /* \"#utility.yul\":4944:4950   */\n      dup2\n        /* \"#utility.yul\":4904:4942   */\n      tag_98\n        /* \"#utility.yul\":4936:4940   */\n      dup5\n        /* \"#utility.yul\":4930:4941   */\n      sload\n        /* \"#utility.yul\":4904:4942   */\n      tag_31\n      jump\t// in\n    tag_98:\n        /* \"#utility.yul\":4898:4902   */\n      dup5\n        /* \"#utility.yul\":4854:4951   */\n      tag_54\n      jump\t// in\n    tag_97:\n        /* \"#utility.yul\":5006:5010   */\n      0x20\n      dup1\n        /* \"#utility.yul\":5063:5065   */\n      0x1f\n        /* \"#utility.yul\":5052:5066   */\n      dup4\n      gt\n        /* \"#utility.yul\":5080:5081   */\n      0x01\n        /* \"#utility.yul\":5075:5738   */\n      dup2\n      eq\n      tag_100\n      jumpi\n        /* \"#utility.yul\":5782:5783   */\n      0x00\n        /* \"#utility.yul\":5799:5805   */\n      dup5\n        /* \"#utility.yul\":5796:5885   */\n      iszero\n      tag_101\n      jumpi\n      pop\n        /* \"#utility.yul\":5851:5870   */\n      dup6\n      dup4\n      add\n        /* \"#utility.yul\":5845:5871   */\n      mload\n        /* \"#utility.yul\":5796:5885   */\n    tag_101:\n      not(0x00)\n        /* \"#utility.yul\":4607:4608   */\n      0x03\n        /* \"#utility.yul\":4603:4614   */\n      dup7\n      swap1\n      shl\n        /* \"#utility.yul\":4599:4623   */\n      shr\n        /* \"#utility.yul\":4595:4624   */\n      not\n        /* \"#utility.yul\":4585:4625   */\n      and\n        /* \"#utility.yul\":4631:4632   */\n      0x01\n        /* \"#utility.yul\":4627:4638   */\n      dup6\n      swap1\n      shl\n        /* \"#utility.yul\":4582:4639   */\n      or\n        /* \"#utility.yul\":5898:5979   */\n      dup6\n      sstore\n        /* \"#utility.yul\":5045:5989   */\n      jump(tag_99)\n        /* \"#utility.yul\":5075:5738   */\n    tag_100:\n        /* \"#utility.yul\":3903:3904   */\n      0x00\n        /* \"#utility.yul\":3896:3910   */\n      dup6\n      dup2\n      mstore\n        /* \"#utility.yul\":3940:3944   */\n      0x20\n        /* \"#utility.yul\":3927:3945   */\n      dup2\n      keccak256\n      not(0x1f)\n        /* \"#utility.yul\":5111:5131   */\n      dup7\n      and\n      swap2\n        /* \"#utility.yul\":5229:5465   */\n    tag_104:\n        /* \"#utility.yul\":5243:5250   */\n      dup3\n        /* \"#utility.yul\":5240:5241   */\n      dup2\n        /* \"#utility.yul\":5237:5251   */\n      lt\n        /* \"#utility.yul\":5229:5465   */\n      iszero\n      tag_106\n      jumpi\n        /* \"#utility.yul\":5332:5351   */\n      dup9\n      dup7\n      add\n        /* \"#utility.yul\":5326:5352   */\n      mload\n        /* \"#utility.yul\":5311:5353   */\n      dup3\n      sstore\n        /* \"#utility.yul\":5424:5451   */\n      swap5\n      dup5\n      add\n      swap5\n        /* \"#utility.yul\":5392:5393   */\n      0x01\n        /* \"#utility.yul\":5380:5394   */\n      swap1\n      swap2\n      add\n      swap1\n        /* \"#utility.yul\":5259:5278   */\n      dup5\n      add\n        /* \"#utility.yul\":5229:5465   */\n      jump(tag_104)\n    tag_106:\n        /* \"#utility.yul\":5233:5236   */\n      pop\n        /* \"#utility.yul\":5493:5499   */\n      dup6\n        /* \"#utility.yul\":5484:5491   */\n      dup3\n        /* \"#utility.yul\":5481:5500   */\n      lt\n        /* \"#utility.yul\":5478:5679   */\n      iszero\n      tag_107\n      jumpi\n        /* \"#utility.yul\":5554:5573   */\n      dup8\n      dup6\n      add\n        /* \"#utility.yul\":5548:5574   */\n      mload\n      not(0x00)\n        /* \"#utility.yul\":5637:5638   */\n      0x03\n        /* \"#utility.yul\":5633:5647   */\n      dup9\n      swap1\n      shl\n        /* \"#utility.yul\":5649:5652   */\n      0xf8\n        /* \"#utility.yul\":5629:5653   */\n      and\n        /* \"#utility.yul\":5625:5662   */\n      shr\n        /* \"#utility.yul\":5621:5663   */\n      not\n        /* \"#utility.yul\":5606:5664   */\n      and\n        /* \"#utility.yul\":5591:5665   */\n      dup2\n      sstore\n        /* \"#utility.yul\":5478:5679   */\n    tag_107:\n      pop\n      pop\n        /* \"#utility.yul\":5725:5726   */\n      0x01\n        /* \"#utility.yul\":5716:5722   */\n      dup5\n        /* \"#utility.yul\":5713:5714   */\n      0x01\n        /* \"#utility.yul\":5709:5723   */\n      shl\n        /* \"#utility.yul\":5705:5727   */\n      add\n        /* \"#utility.yul\":5699:5703   */\n      dup6\n        /* \"#utility.yul\":5692:5728   */\n      sstore\n        /* \"#utility.yul\":5045:5989   */\n    tag_99:\n      pop\n      pop\n      pop\n      pop\n        /* \"#utility.yul\":4650:5995   */\n      pop\n      pop\n      jump\t// out\n        /* \"#utility.yul\":6000:6291   */\n    tag_43:\n        /* \"#utility.yul\":6177:6179   */\n      0x40\n        /* \"#utility.yul\":6166:6175   */\n      dup2\n        /* \"#utility.yul\":6159:6180   */\n      mstore\n        /* \"#utility.yul\":6140:6144   */\n      0x00\n        /* \"#utility.yul\":6197:6242   */\n      tag_109\n        /* \"#utility.yul\":6238:6240   */\n      0x40\n        /* \"#utility.yul\":6227:6236   */\n      dup4\n        /* \"#utility.yul\":6223:6241   */\n      add\n        /* \"#utility.yul\":6215:6221   */\n      dup6\n        /* \"#utility.yul\":6197:6242   */\n      tag_51\n      jump\t// in\n    tag_109:\n        /* \"#utility.yul\":6189:6242   */\n      swap1\n      pop\n        /* \"#utility.yul\":6278:6284   */\n      dup3\n        /* \"#utility.yul\":6273:6275   */\n      0x20\n        /* \"#utility.yul\":6262:6271   */\n      dup4\n        /* \"#utility.yul\":6258:6276   */\n      add\n        /* \"#utility.yul\":6251:6285   */\n      mstore\n        /* \"#utility.yul\":6000:6291   */\n      swap4\n      swap3\n      pop\n      pop\n      pop\n      jump\t// out\n\n    auxdata: 0xa26469706673582212202cf5ad5a0ec26ee21668c15a587fd247fbe0286e09e7ef72da3fb8a28cb606c964736f6c63430008180033\n}\n","bytecode":{"linkReferences":{},"object":"608060405234801561000f575f80fd5b506106ee8061001d5f395ff3fe608060405234801561000f575f80fd5b506004361061004a575f3560e01c80630f53a4701461004e5780633199ac0214610077578063a787c80b1461008c578063bbe15627146100c7575b5f80fd5b61006161005c3660046103bb565b6100e9565b60405161006e919061041e565b60405180910390f35b61008a61008536600461046f565b6101dd565b005b6100b761009a3660046103bb565b6001600160a01b03165f9081526020819052604090205460ff1690565b604051901515815260200161006e565b6100da6100d53660046103bb565b6102f4565b60405161006e9392919061052a565b61010d60405180606001604052805f15158152602001606081526020015f81525090565b6001600160a01b0382165f9081526020818152604091829020825160608101909352805460ff1615158352600181018054919284019161014c90610554565b80601f016020809104026020016040519081016040528092919081815260200182805461017890610554565b80156101c35780601f1061019a576101008083540402835291602001916101c3565b820191905f5260205f20905b8154815290600101906020018083116101a657829003601f168201915b505050505081526020016002820154815250509050919050565b336001600160a01b0383161461024d5760405162461bcd60e51b815260206004820152602b60248201527f4f6e6c792070726f66696c65206f776e65722063616e2075706461746520746860448201526a6569722070726f66696c6560a81b606482015260840160405180910390fd5b604080516060810182526001808252602080830185815242848601526001600160a01b0387165f908152918290529390208251815460ff191690151517815592519192919082019061029f90826105d8565b5060408201518160020155905050816001600160a01b03167fdcb94c0b2c025b0736b4b62b1c595f2ca7ad4c711eada6026d477e87de9cca0882426040516102e8929190610697565b60405180910390a25050565b5f602081905290815260409020805460018201805460ff909216929161031990610554565b80601f016020809104026020016040519081016040528092919081815260200182805461034590610554565b80156103905780601f1061036757610100808354040283529160200191610390565b820191905f5260205f20905b81548152906001019060200180831161037357829003601f168201915b5050505050908060020154905083565b80356001600160a01b03811681146103b6575f80fd5b919050565b5f602082840312156103cb575f80fd5b6103d4826103a0565b9392505050565b5f81518084525f5b818110156103ff576020818501810151868301820152016103e3565b505f602082860101526020601f19601f83011685010191505092915050565b602081528151151560208201525f60208301516060604084015261044560808401826103db565b9050604084015160608401528091505092915050565b634e487b7160e01b5f52604160045260245ffd5b5f8060408385031215610480575f80fd5b610489836103a0565b915060208301356001600160401b03808211156104a4575f80fd5b818501915085601f8301126104b7575f80fd5b8135818111156104c9576104c961045b565b604051601f8201601f19908116603f011681019083821181831017156104f1576104f161045b565b81604052828152886020848701011115610509575f80fd5b826020860160208301375f6020848301015280955050505050509250929050565b8315158152606060208201525f61054460608301856103db565b9050826040830152949350505050565b600181811c9082168061056857607f821691505b60208210810361058657634e487b7160e01b5f52602260045260245ffd5b50919050565b601f8211156105d357805f5260205f20601f840160051c810160208510156105b15750805b601f840160051c820191505b818110156105d0575f81556001016105bd565b50505b505050565b81516001600160401b038111156105f1576105f161045b565b610605816105ff8454610554565b8461058c565b602080601f831160018114610638575f84156106215750858301515b5f19600386901b1c1916600185901b17855561068f565b5f85815260208120601f198616915b8281101561066657888601518255948401946001909101908401610647565b508582101561068357878501515f19600388901b60f8161c191681555b505060018460011b0185555b505050505050565b604081525f6106a960408301856103db565b9050826020830152939250505056fea26469706673582212202cf5ad5a0ec26ee21668c15a587fd247fbe0286e09e7ef72da3fb8a28cb606c964736f6c63430008180033","opcodes":"PUSH1 0x80 PUSH1 0x40 MSTORE CALLVALUE DUP1 ISZERO PUSH2 0xF JUMPI PUSH0 DUP1 REVERT JUMPDEST POP PUSH2 0x6EE DUP1 PUSH2 0x1D PUSH0 CODECOPY PUSH0 RETURN INVALID PUSH1 0x80 PUSH1 0x40 MSTORE CALLVALUE DUP1 ISZERO PUSH2 0xF JUMPI PUSH0 DUP1 REVERT JUMPDEST POP PUSH1 0x4 CALLDATASIZE LT PUSH2 0x4A JUMPI PUSH0 CALLDATALOAD PUSH1 0xE0 SHR DUP1 PUSH4 0xF53A470 EQ PUSH2 0x4E JUMPI DUP1 PUSH4 0x3199AC02 EQ PUSH2 0x77 JUMPI DUP1 PUSH4 0xA787C80B EQ PUSH2 0x8C JUMPI DUP1 PUSH4 0xBBE15627 EQ PUSH2 0xC7 JUMPI JUMPDEST PUSH0 DUP1 REVERT JUMPDEST PUSH2 0x61 PUSH2 0x5C CALLDATASIZE PUSH1 0x4 PUSH2 0x3BB JUMP JUMPDEST PUSH2 0xE9 JUMP JUMPDEST PUSH1 0x40 MLOAD PUSH2 0x6E SWAP2 SWAP1 PUSH2 0x41E JUMP JUMPDEST PUSH1 0x40 MLOAD DUP1 SWAP2 SUB SWAP1 RETURN JUMPDEST PUSH2 0x8A PUSH2 0x85 CALLDATASIZE PUSH1 0x4 PUSH2 0x46F JUMP JUMPDEST PUSH2 0x1DD JUMP JUMPDEST STOP JUMPDEST PUSH2 0xB7 PUSH2 0x9A CALLDATASIZE PUSH1 0x4 PUSH2 0x3BB JUMP JUMPDEST PUSH1 0x1 PUSH1 0x1 PUSH1 0xA0 SHL SUB AND PUSH0 SWAP1 DUP2 MSTORE PUSH1 0x20 DUP2 SWAP1 MSTORE PUSH1 0x40 SWAP1 KECCAK256 SLOAD PUSH1 0xFF AND SWAP1 JUMP JUMPDEST PUSH1 0x40 MLOAD SWAP1 ISZERO ISZERO DUP2 MSTORE PUSH1 0x20 ADD PUSH2 0x6E JUMP JUMPDEST PUSH2 0xDA PUSH2 0xD5 CALLDATASIZE PUSH1 0x4 PUSH2 0x3BB JUMP JUMPDEST PUSH2 0x2F4 JUMP JUMPDEST PUSH1 0x40 MLOAD PUSH2 0x6E SWAP4 SWAP3 SWAP2 SWAP1 PUSH2 0x52A JUMP JUMPDEST PUSH2 0x10D PUSH1 0x40 MLOAD DUP1 PUSH1 0x60 ADD PUSH1 0x40 MSTORE DUP1 PUSH0 ISZERO ISZERO DUP2 MSTORE PUSH1 0x20 ADD PUSH1 0x60 DUP2 MSTORE PUSH1 0x20 ADD PUSH0 DUP2 MSTORE POP SWAP1 JUMP JUMPDEST PUSH1 0x1 PUSH1 0x1 PUSH1 0xA0 SHL SUB DUP3 AND PUSH0 SWAP1 DUP2 MSTORE PUSH1 0x20 DUP2 DUP2 MSTORE PUSH1 0x40 SWAP2 DUP3 SWAP1 KECCAK256 DUP3 MLOAD PUSH1 0x60 DUP2 ADD SWAP1 SWAP4 MSTORE DUP1 SLOAD PUSH1 0xFF AND ISZERO ISZERO DUP4 MSTORE PUSH1 0x1 DUP2 ADD DUP1 SLOAD SWAP2 SWAP3 DUP5 ADD SWAP2 PUSH2 0x14C SWAP1 PUSH2 0x554 JUMP JUMPDEST DUP1 PUSH1 0x1F ADD PUSH1 0x20 DUP1 SWAP2 DIV MUL PUSH1 0x20 ADD PUSH1 0x40 MLOAD SWAP1 DUP2 ADD PUSH1 0x40 MSTORE DUP1 SWAP3 SWAP2 SWAP1 DUP2 DUP2 MSTORE PUSH1 0x20 ADD DUP3 DUP1 SLOAD PUSH2 0x178 SWAP1 PUSH2 0x554 JUMP JUMPDEST DUP1 ISZERO PUSH2 0x1C3 JUMPI DUP1 PUSH1 0x1F LT PUSH2 0x19A JUMPI PUSH2 0x100 DUP1 DUP4 SLOAD DIV MUL DUP4 MSTORE SWAP2 PUSH1 0x20 ADD SWAP2 PUSH2 0x1C3 JUMP JUMPDEST DUP3 ADD SWAP2 SWAP1 PUSH0 MSTORE PUSH1 0x20 PUSH0 KECCAK256 SWAP1 JUMPDEST DUP2 SLOAD DUP2 MSTORE SWAP1 PUSH1 0x1 ADD SWAP1 PUSH1 0x20 ADD DUP1 DUP4 GT PUSH2 0x1A6 JUMPI DUP3 SWAP1 SUB PUSH1 0x1F AND DUP3 ADD SWAP2 JUMPDEST POP POP POP POP POP DUP2 MSTORE PUSH1 0x20 ADD PUSH1 0x2 DUP3 ADD SLOAD DUP2 MSTORE POP POP SWAP1 POP SWAP2 SWAP1 POP JUMP JUMPDEST CALLER PUSH1 0x1 PUSH1 0x1 PUSH1 0xA0 SHL SUB DUP4 AND EQ PUSH2 0x24D JUMPI PUSH1 0x40 MLOAD PUSH3 0x461BCD PUSH1 0xE5 SHL DUP2 MSTORE PUSH1 0x20 PUSH1 0x4 DUP3 ADD MSTORE PUSH1 0x2B PUSH1 0x24 DUP3 ADD MSTORE PUSH32 0x4F6E6C792070726F66696C65206F776E65722063616E20757064617465207468 PUSH1 0x44 DUP3 ADD MSTORE PUSH11 0x6569722070726F66696C65 PUSH1 0xA8 SHL PUSH1 0x64 DUP3 ADD MSTORE PUSH1 0x84 ADD PUSH1 0x40 MLOAD DUP1 SWAP2 SUB SWAP1 REVERT JUMPDEST PUSH1 0x40 DUP1 MLOAD PUSH1 0x60 DUP2 ADD DUP3 MSTORE PUSH1 0x1 DUP1 DUP3 MSTORE PUSH1 0x20 DUP1 DUP4 ADD DUP6 DUP2 MSTORE TIMESTAMP DUP5 DUP7 ADD MSTORE PUSH1 0x1 PUSH1 0x1 PUSH1 0xA0 SHL SUB DUP8 AND PUSH0 SWAP1 DUP2 MSTORE SWAP2 DUP3 SWAP1 MSTORE SWAP4 SWAP1 KECCAK256 DUP3 MLOAD DUP2 SLOAD PUSH1 0xFF NOT AND SWAP1 ISZERO ISZERO OR DUP2 SSTORE SWAP3 MLOAD SWAP2 SWAP3 SWAP2 SWAP1 DUP3 ADD SWAP1 PUSH2 0x29F SWAP1 DUP3 PUSH2 0x5D8 JUMP JUMPDEST POP PUSH1 0x40 DUP3 ADD MLOAD DUP2 PUSH1 0x2 ADD SSTORE SWAP1 POP POP DUP2 PUSH1 0x1 PUSH1 0x1 PUSH1 0xA0 SHL SUB AND PUSH32 0xDCB94C0B2C025B0736B4B62B1C595F2CA7AD4C711EADA6026D477E87DE9CCA08 DUP3 TIMESTAMP PUSH1 0x40 MLOAD PUSH2 0x2E8 SWAP3 SWAP2 SWAP1 PUSH2 0x697 JUMP JUMPDEST PUSH1 0x40 MLOAD DUP1 SWAP2 SUB SWAP1 LOG2 POP POP JUMP JUMPDEST PUSH0 PUSH1 0x20 DUP2 SWAP1 MSTORE SWAP1 DUP2 MSTORE PUSH1 0x40 SWAP1 KECCAK256 DUP1 SLOAD PUSH1 0x1 DUP3 ADD DUP1 SLOAD PUSH1 0xFF SWAP1 SWAP3 AND SWAP3 SWAP2 PUSH2 0x319 SWAP1 PUSH2 0x554 JUMP JUMPDEST DUP1 PUSH1 0x1F ADD PUSH1 0x20 DUP1 SWAP2 DIV MUL PUSH1 0x20 ADD PUSH1 0x40 MLOAD SWAP1 DUP2 ADD PUSH1 0x40 MSTORE DUP1 SWAP3 SWAP2 SWAP1 DUP2 DUP2 MSTORE PUSH1 0x20 ADD DUP3 DUP1 SLOAD PUSH2 0x345 SWAP1 PUSH2 0x554 JUMP JUMPDEST DUP1 ISZERO PUSH2 0x390 JUMPI DUP1 PUSH1 0x1F LT PUSH2 0x367 JUMPI PUSH2 0x100 DUP1 DUP4 SLOAD DIV MUL DUP4 MSTORE SWAP2 PUSH1 0x20 ADD SWAP2 PUSH2 0x390 JUMP JUMPDEST DUP3 ADD SWAP2 SWAP1 PUSH0 MSTORE PUSH1 0x20 PUSH0 KECCAK256 SWAP1 JUMPDEST DUP2 SLOAD DUP2 MSTORE SWAP1 PUSH1 0x1 ADD SWAP1 PUSH1 0x20 ADD DUP1 DUP4 GT PUSH2 0x373 JUMPI DUP3 SWAP1 SUB PUSH1 0x1F AND DUP3 ADD SWAP2 JUMPDEST POP POP POP POP POP SWAP1 DUP1 PUSH1 0x2 ADD SLOAD SWAP1 POP DUP4 JUMP JUMPDEST DUP1 CALLDATALOAD PUSH1 0x1 PUSH1 0x1 PUSH1 0xA0 SHL SUB DUP2 AND DUP2 EQ PUSH2 0x3B6 JUMPI PUSH0 DUP1 REVERT JUMPDEST SWAP2 SWAP1 POP JUMP JUMPDEST PUSH0 PUSH1 0x20 DUP3 DUP5 SUB SLT ISZERO PUSH2 0x3CB JUMPI PUSH0 DUP1 REVERT JUMPDEST PUSH2 0x3D4 DUP3 PUSH2 0x3A0 JUMP JUMPDEST SWAP4 SWAP3 POP POP POP JUMP JUMPDEST PUSH0 DUP2 MLOAD DUP1 DUP5 MSTORE PUSH0 JUMPDEST DUP2 DUP2 LT ISZERO PUSH2 0x3FF JUMPI PUSH1 0x20 DUP2 DUP6 ADD DUP2 ADD MLOAD DUP7 DUP4 ADD DUP3 ADD MSTORE ADD PUSH2 0x3E3 JUMP JUMPDEST POP PUSH0 PUSH1 0x20 DUP3 DUP7 ADD ADD MSTORE PUSH1 0x20 PUSH1 0x1F NOT PUSH1 0x1F DUP4 ADD AND DUP6 ADD ADD SWAP2 POP POP SWAP3 SWAP2 POP POP JUMP JUMPDEST PUSH1 0x20 DUP2 MSTORE DUP2 MLOAD ISZERO ISZERO PUSH1 0x20 DUP3 ADD MSTORE PUSH0 PUSH1 0x20 DUP4 ADD MLOAD PUSH1 0x60 PUSH1 0x40 DUP5 ADD MSTORE PUSH2 0x445 PUSH1 0x80 DUP5 ADD DUP3 PUSH2 0x3DB JUMP JUMPDEST SWAP1 POP PUSH1 0x40 DUP5 ADD MLOAD PUSH1 0x60 DUP5 ADD MSTORE DUP1 SWAP2 POP POP SWAP3 SWAP2 POP POP JUMP JUMPDEST PUSH4 0x4E487B71 PUSH1 0xE0 SHL PUSH0 MSTORE PUSH1 0x41 PUSH1 0x4 MSTORE PUSH1 0x24 PUSH0 REVERT JUMPDEST PUSH0 DUP1 PUSH1 0x40 DUP4 DUP6 SUB SLT ISZERO PUSH2 0x480 JUMPI PUSH0 DUP1 REVERT JUMPDEST PUSH2 0x489 DUP4 PUSH2 0x3A0 JUMP JUMPDEST SWAP2 POP PUSH1 0x20 DUP4 ADD CALLDATALOAD PUSH1 0x1 PUSH1 0x1 PUSH1 0x40 SHL SUB DUP1 DUP3 GT ISZERO PUSH2 0x4A4 JUMPI PUSH0 DUP1 REVERT JUMPDEST DUP2 DUP6 ADD SWAP2 POP DUP6 PUSH1 0x1F DUP4 ADD SLT PUSH2 0x4B7 JUMPI PUSH0 DUP1 REVERT JUMPDEST DUP2 CALLDATALOAD DUP2 DUP2 GT ISZERO PUSH2 0x4C9 JUMPI PUSH2 0x4C9 PUSH2 0x45B JUMP JUMPDEST PUSH1 0x40 MLOAD PUSH1 0x1F DUP3 ADD PUSH1 0x1F NOT SWAP1 DUP2 AND PUSH1 0x3F ADD AND DUP2 ADD SWAP1 DUP4 DUP3 GT DUP2 DUP4 LT OR ISZERO PUSH2 0x4F1 JUMPI PUSH2 0x4F1 PUSH2 0x45B JUMP JUMPDEST DUP2 PUSH1 0x40 MSTORE DUP3 DUP2 MSTORE DUP9 PUSH1 0x20 DUP5 DUP8 ADD ADD GT ISZERO PUSH2 0x509 JUMPI PUSH0 DUP1 REVERT JUMPDEST DUP3 PUSH1 0x20 DUP7 ADD PUSH1 0x20 DUP4 ADD CALLDATACOPY PUSH0 PUSH1 0x20 DUP5 DUP4 ADD ADD MSTORE DUP1 SWAP6 POP POP POP POP POP POP SWAP3 POP SWAP3 SWAP1 POP JUMP JUMPDEST DUP4 ISZERO ISZERO DUP2 MSTORE PUSH1 0x60 PUSH1 0x20 DUP3 ADD MSTORE PUSH0 PUSH2 0x544 PUSH1 0x60 DUP4 ADD DUP6 PUSH2 0x3DB JUMP JUMPDEST SWAP1 POP DUP3 PUSH1 0x40 DUP4 ADD MSTORE SWAP5 SWAP4 POP POP POP POP JUMP JUMPDEST PUSH1 0x1 DUP2 DUP2 SHR SWAP1 DUP3 AND DUP1 PUSH2 0x568 JUMPI PUSH1 0x7F DUP3 AND SWAP2 POP JUMPDEST PUSH1 0x20 DUP3 LT DUP2 SUB PUSH2 0x586 JUMPI PUSH4 0x4E487B71 PUSH1 0xE0 SHL PUSH0 MSTORE PUSH1 0x22 PUSH1 0x4 MSTORE PUSH1 0x24 PUSH0 REVERT JUMPDEST POP SWAP2 SWAP1 POP JUMP JUMPDEST PUSH1 0x1F DUP3 GT ISZERO PUSH2 0x5D3 JUMPI DUP1 PUSH0 MSTORE PUSH1 0x20 PUSH0 KECCAK256 PUSH1 0x1F DUP5 ADD PUSH1 0x5 SHR DUP2 ADD PUSH1 0x20 DUP6 LT ISZERO PUSH2 0x5B1 JUMPI POP DUP1 JUMPDEST PUSH1 0x1F DUP5 ADD PUSH1 0x5 SHR DUP3 ADD SWAP2 POP JUMPDEST DUP2 DUP2 LT ISZERO PUSH2 0x5D0 JUMPI PUSH0 DUP2 SSTORE PUSH1 0x1 ADD PUSH2 0x5BD JUMP JUMPDEST POP POP JUMPDEST POP POP POP JUMP JUMPDEST DUP2 MLOAD PUSH1 0x1 PUSH1 0x1 PUSH1 0x40 SHL SUB DUP2 GT ISZERO PUSH2 0x5F1 JUMPI PUSH2 0x5F1 PUSH2 0x45B JUMP JUMPDEST PUSH2 0x605 DUP2 PUSH2 0x5FF DUP5 SLOAD PUSH2 0x554 JUMP JUMPDEST DUP5 PUSH2 0x58C JUMP JUMPDEST PUSH1 0x20 DUP1 PUSH1 0x1F DUP4 GT PUSH1 0x1 DUP2 EQ PUSH2 0x638 JUMPI PUSH0 DUP5 ISZERO PUSH2 0x621 JUMPI POP DUP6 DUP4 ADD MLOAD JUMPDEST PUSH0 NOT PUSH1 0x3 DUP7 SWAP1 SHL SHR NOT AND PUSH1 0x1 DUP6 SWAP1 SHL OR DUP6 SSTORE PUSH2 0x68F JUMP JUMPDEST PUSH0 DUP6 DUP2 MSTORE PUSH1 0x20 DUP2 KECCAK256 PUSH1 0x1F NOT DUP7 AND SWAP2 JUMPDEST DUP3 DUP2 LT ISZERO PUSH2 0x666 JUMPI DUP9 DUP7 ADD MLOAD DUP3 SSTORE SWAP5 DUP5 ADD SWAP5 PUSH1 0x1 SWAP1 SWAP2 ADD SWAP1 DUP5 ADD PUSH2 0x647 JUMP JUMPDEST POP DUP6 DUP3 LT ISZERO PUSH2 0x683 JUMPI DUP8 DUP6 ADD MLOAD PUSH0 NOT PUSH1 0x3 DUP9 SWAP1 SHL PUSH1 0xF8 AND SHR NOT AND DUP2 SSTORE JUMPDEST POP POP PUSH1 0x1 DUP5 PUSH1 0x1 SHL ADD DUP6 SSTORE JUMPDEST POP POP POP POP POP POP JUMP JUMPDEST PUSH1 0x40 DUP2 MSTORE PUSH0 PUSH2 0x6A9 PUSH1 0x40 DUP4 ADD DUP6 PUSH2 0x3DB JUMP JUMPDEST SWAP1 POP DUP3 PUSH1 0x20 DUP4 ADD MSTORE SWAP4 SWAP3 POP POP POP JUMP INVALID LOG2 PUSH5 0x6970667358 0x22 SLT KECCAK256 0x2C CREATE2 0xAD GAS 0xE 0xC2 PUSH15 0xE21668C15A587FD247FBE0286E09E7 0xEF PUSH19 0xDA3FB8A28CB606C964736F6C63430008180033 "},"gasEstimates":{"creation":{"codeDepositCost":"354800","executionCost":"391","totalCost":"355191"},"external":{"getProfile(address)":"infinite","hasProfile(address)":"2571","profiles(address)":"infinite","updateProfile(address,string)":"infinite"}},"methodIdentifiers":{"getProfile(address)":"0f53a470","hasProfile(address)":"a787c80b","profiles(address)":"bbe15627","updateProfile(address,string)":"3199ac02"}},"storageLayout":{"storage":[{"astId":32921,"contract":"UserRegistry.sol:UserRegistry","label":"profiles","offset":0,"slot":"0","type":"t_mapping(t_address,t_struct(UserProfile)32916_storage)"}],"types":{"t_address":{"encoding":"inplace","label":"address","numberOfBytes":"20"},"t_bool":{"encoding":"inplace","label":"bool","numberOfBytes":"1"},"t_mapping(t_address,t_struct(UserProfile)32916_storage)":{"encoding":"mapping","key":"t_address","label":"mapping(address => struct UserRegistry.UserProfile)","numberOfBytes":"32","value":"t_struct(UserProfile)32916_storage"},"t_string_storage":{"encoding":"bytes","label":"string","numberOfBytes":"32"},"t_struct(UserProfile)32916_storage":{"encoding":"inplace","label":"struct UserRegistry.UserProfile","members":[{"astId":32911,"contract":"UserRegistry.sol:UserRegistry","label":"exists","offset":0,"slot":"0","type":"t_bool"},{"astId":32913,"contract":"UserRegistry.sol:UserRegistry","label":"profileCid","offset":0,"slot":"1","type":"t_string_storage"},{"astId":32915,"contract":"UserRegistry.sol:UserRegistry","label":"updatedAt","offset":0,"slot":"2","type":"t_uint256"}],"numberOfBytes":"96"},"t_uint256":{"encoding":"inplace","label":"uint256","numberOfBytes":"32"}}},"userdoc":{"kind":"user","methods":{},"version":1}}